{
	"contracts/YunaVaultRouter.sol": {
		"YunaVaultRouter": {
			"abi": [
				{
					"inputs": [
						{
							"internalType": "address",
							"name": "_factory",
							"type": "address"
						},
						{
							"internalType": "address",
							"name": "_protocol",
							"type": "address"
						}
					],
					"stateMutability": "nonpayable",
					"type": "constructor"
				},
				{
					"inputs": [
						{
							"internalType": "address",
							"name": "owner",
							"type": "address"
						}
					],
					"name": "OwnableInvalidOwner",
					"type": "error"
				},
				{
					"inputs": [
						{
							"internalType": "address",
							"name": "account",
							"type": "address"
						}
					],
					"name": "OwnableUnauthorizedAccount",
					"type": "error"
				},
				{
					"anonymous": false,
					"inputs": [
						{
							"indexed": true,
							"internalType": "address",
							"name": "previousOwner",
							"type": "address"
						},
						{
							"indexed": true,
							"internalType": "address",
							"name": "newOwner",
							"type": "address"
						}
					],
					"name": "OwnershipTransferred",
					"type": "event"
				},
				{
					"inputs": [
						{
							"internalType": "address",
							"name": "vaultAddr",
							"type": "address"
						}
					],
					"name": "closeVault",
					"outputs": [],
					"stateMutability": "nonpayable",
					"type": "function"
				},
				{
					"inputs": [
						{
							"internalType": "address",
							"name": "token",
							"type": "address"
						},
						{
							"internalType": "uint256",
							"name": "minDeposit",
							"type": "uint256"
						},
						{
							"internalType": "uint256",
							"name": "maxDeposit",
							"type": "uint256"
						},
						{
							"internalType": "int256",
							"name": "xpRate",
							"type": "int256"
						},
						{
							"internalType": "uint256[]",
							"name": "presetTimes",
							"type": "uint256[]"
						},
						{
							"components": [
								{
									"internalType": "uint256",
									"name": "minBlocks",
									"type": "uint256"
								},
								{
									"internalType": "uint256",
									"name": "multiplierBP",
									"type": "uint256"
								}
							],
							"internalType": "struct IVaultFactory.TimeMultiplierIn[]",
							"name": "timeMultipliers",
							"type": "tuple[]"
						},
						{
							"components": [
								{
									"internalType": "uint256",
									"name": "minAmount",
									"type": "uint256"
								},
								{
									"internalType": "uint256",
									"name": "multiplierBP",
									"type": "uint256"
								}
							],
							"internalType": "struct IVaultFactory.AmountMultiplierIn[]",
							"name": "amountMultipliers",
							"type": "tuple[]"
						}
					],
					"name": "createVault",
					"outputs": [
						{
							"internalType": "address",
							"name": "vaultAddr",
							"type": "address"
						}
					],
					"stateMutability": "nonpayable",
					"type": "function"
				},
				{
					"inputs": [],
					"name": "disableRouter",
					"outputs": [],
					"stateMutability": "nonpayable",
					"type": "function"
				},
				{
					"inputs": [],
					"name": "enableRouter",
					"outputs": [],
					"stateMutability": "nonpayable",
					"type": "function"
				},
				{
					"inputs": [],
					"name": "factory",
					"outputs": [
						{
							"internalType": "address",
							"name": "",
							"type": "address"
						}
					],
					"stateMutability": "view",
					"type": "function"
				},
				{
					"inputs": [],
					"name": "getAllVaults",
					"outputs": [
						{
							"internalType": "address[]",
							"name": "",
							"type": "address[]"
						}
					],
					"stateMutability": "view",
					"type": "function"
				},
				{
					"inputs": [],
					"name": "getFactory",
					"outputs": [
						{
							"internalType": "address",
							"name": "",
							"type": "address"
						}
					],
					"stateMutability": "view",
					"type": "function"
				},
				{
					"inputs": [],
					"name": "getFees",
					"outputs": [
						{
							"internalType": "uint256",
							"name": "protocolFeeBP",
							"type": "uint256"
						},
						{
							"internalType": "uint256",
							"name": "callerFeeBP",
							"type": "uint256"
						}
					],
					"stateMutability": "view",
					"type": "function"
				},
				{
					"inputs": [],
					"name": "getProtocol",
					"outputs": [
						{
							"internalType": "address",
							"name": "",
							"type": "address"
						}
					],
					"stateMutability": "view",
					"type": "function"
				},
				{
					"inputs": [
						{
							"internalType": "address",
							"name": "token",
							"type": "address"
						}
					],
					"name": "getVaultByToken",
					"outputs": [
						{
							"internalType": "address",
							"name": "",
							"type": "address"
						}
					],
					"stateMutability": "view",
					"type": "function"
				},
				{
					"inputs": [
						{
							"internalType": "address",
							"name": "vault",
							"type": "address"
						}
					],
					"name": "getVaultInfo",
					"outputs": [
						{
							"components": [
								{
									"internalType": "bool",
									"name": "isActive",
									"type": "bool"
								},
								{
									"internalType": "address",
									"name": "token",
									"type": "address"
								},
								{
									"internalType": "int256",
									"name": "xpRate",
									"type": "int256"
								},
								{
									"internalType": "uint256[]",
									"name": "presetTimes",
									"type": "uint256[]"
								},
								{
									"components": [
										{
											"internalType": "uint256",
											"name": "minBlocks",
											"type": "uint256"
										},
										{
											"internalType": "uint256",
											"name": "multiplierBP",
											"type": "uint256"
										}
									],
									"internalType": "struct IVaultFactory.TimeMultiplierIn[]",
									"name": "timeMultipliers",
									"type": "tuple[]"
								},
								{
									"components": [
										{
											"internalType": "uint256",
											"name": "minAmount",
											"type": "uint256"
										},
										{
											"internalType": "uint256",
											"name": "multiplierBP",
											"type": "uint256"
										}
									],
									"internalType": "struct IVaultFactory.AmountMultiplierIn[]",
									"name": "amountMultipliers",
									"type": "tuple[]"
								},
								{
									"internalType": "uint256",
									"name": "minDeposit",
									"type": "uint256"
								},
								{
									"internalType": "uint256",
									"name": "maxDeposit",
									"type": "uint256"
								}
							],
							"internalType": "struct YunaVaultRouter.VaultInfo",
							"name": "info",
							"type": "tuple"
						}
					],
					"stateMutability": "view",
					"type": "function"
				},
				{
					"inputs": [
						{
							"internalType": "address",
							"name": "vault",
							"type": "address"
						},
						{
							"internalType": "address",
							"name": "holder",
							"type": "address"
						}
					],
					"name": "getXP",
					"outputs": [
						{
							"internalType": "uint256",
							"name": "",
							"type": "uint256"
						}
					],
					"stateMutability": "view",
					"type": "function"
				},
				{
					"inputs": [],
					"name": "isRouterEnabled",
					"outputs": [
						{
							"internalType": "bool",
							"name": "",
							"type": "bool"
						}
					],
					"stateMutability": "view",
					"type": "function"
				},
				{
					"inputs": [],
					"name": "owner",
					"outputs": [
						{
							"internalType": "address",
							"name": "",
							"type": "address"
						}
					],
					"stateMutability": "view",
					"type": "function"
				},
				{
					"inputs": [
						{
							"internalType": "address",
							"name": "vault",
							"type": "address"
						}
					],
					"name": "release",
					"outputs": [],
					"stateMutability": "nonpayable",
					"type": "function"
				},
				{
					"inputs": [
						{
							"internalType": "address",
							"name": "vault",
							"type": "address"
						}
					],
					"name": "releaseAll",
					"outputs": [],
					"stateMutability": "nonpayable",
					"type": "function"
				},
				{
					"inputs": [],
					"name": "renounceOwnership",
					"outputs": [],
					"stateMutability": "nonpayable",
					"type": "function"
				},
				{
					"inputs": [
						{
							"internalType": "address",
							"name": "_factory",
							"type": "address"
						}
					],
					"name": "setFactory",
					"outputs": [],
					"stateMutability": "nonpayable",
					"type": "function"
				},
				{
					"inputs": [
						{
							"internalType": "uint256",
							"name": "protocolFeeBP",
							"type": "uint256"
						},
						{
							"internalType": "uint256",
							"name": "callerFeeBP",
							"type": "uint256"
						}
					],
					"name": "setFees",
					"outputs": [],
					"stateMutability": "nonpayable",
					"type": "function"
				},
				{
					"inputs": [
						{
							"internalType": "address",
							"name": "vault",
							"type": "address"
						},
						{
							"internalType": "uint256",
							"name": "amount",
							"type": "uint256"
						},
						{
							"internalType": "uint256",
							"name": "blocksToStake",
							"type": "uint256"
						}
					],
					"name": "stake",
					"outputs": [],
					"stateMutability": "nonpayable",
					"type": "function"
				},
				{
					"inputs": [
						{
							"internalType": "address",
							"name": "newOwner",
							"type": "address"
						}
					],
					"name": "transferOwnership",
					"outputs": [],
					"stateMutability": "nonpayable",
					"type": "function"
				}
			],
			"devdoc": {
				"errors": {
					"OwnableInvalidOwner(address)": [
						{
							"details": "The owner is not a valid owner account. (eg. `address(0)`)"
						}
					],
					"OwnableUnauthorizedAccount(address)": [
						{
							"details": "The caller account is not authorized to perform an operation."
						}
					]
				},
				"kind": "dev",
				"methods": {
					"owner()": {
						"details": "Returns the address of the current owner."
					},
					"renounceOwnership()": {
						"details": "Leaves the contract without owner. It will not be possible to call `onlyOwner` functions. Can only be called by the current owner. NOTE: Renouncing ownership will leave the contract without an owner, thereby disabling any functionality that is only available to the owner."
					},
					"transferOwnership(address)": {
						"details": "Transfers ownership of the contract to a new account (`newOwner`). Can only be called by the current owner."
					}
				},
				"version": 1
			},
			"evm": {
				"assembly": "    /* \"contracts/YunaVaultRouter.sol\":2127:7146  contract YunaVaultRouter is Ownable {... */\n  0x80\n  jumpi(tag_7, callvalue)\n  bytecodeSize\n  swap1\n  0x1f\n  codesize\n  dup4\n  swap1\n  sub\n  swap1\n  dup2\n  add\n  not(0x1f)\n  and\n  dup3\n  add\n  swap1\n  sub(shl(0x40, 0x01), 0x01)\n  dup3\n  gt\n  dup4\n  dup4\n  lt\n  or\n  tag_5\n  jumpi\n  dup1\n  dup4\n  swap2\n  0x40\n  swap6\n  dup7\n  swap5\n  dup6\n  mstore\n  dup4\n  codecopy\n  dup2\n  add\n  sub\n  slt\n  tag_7\n  jumpi\n  tag_9\n  0x20\n  tag_10\n  dup4\n  tag_1\n  jump\t// in\ntag_10:\n  swap3\n  add\n  tag_1\n  jump\t// in\ntag_9:\n    /* \"contracts/YunaVaultRouter.sol\":2417:2427  msg.sender */\n  swap1\n  caller\n    /* \"@openzeppelin/contracts/access/Ownable.sol\":1273:1299  initialOwner == address(0) */\n  iszero\n    /* \"@openzeppelin/contracts/access/Ownable.sol\":1269:1364  if (initialOwner == address(0)) {... */\n  tag_11\n  jumpi\n    /* \"@openzeppelin/contracts/access/Ownable.sol\":1392:1404  initialOwner */\n  tag_13\n    /* \"contracts/YunaVaultRouter.sol\":2417:2427  msg.sender */\n  caller\n    /* \"@openzeppelin/contracts/access/Ownable.sol\":1392:1404  initialOwner */\n  tag_2\n  jump\t// in\ntag_13:\n  0x00\n    /* \"contracts/YunaVaultRouter.sol\":2127:7146  contract YunaVaultRouter is Ownable {... */\n  dup1\n  sload\n  not(shl(0xa0, 0xff))\n  and\n  shl(0xa0, 0x01)\n  or\n  swap1\n  sstore\n  sub(shl(0xa0, 0x01), 0x01)\n  swap1\n  dup2\n  and\n  swap1\n    /* \"contracts/YunaVaultRouter.sol\":2448:2470  _factory != address(0) */\n  dup2\n  iszero\n    /* \"contracts/YunaVaultRouter.sol\":2127:7146  contract YunaVaultRouter is Ownable {... */\n  tag_14\n  jumpi\n  dup3\n  and\n    /* \"contracts/YunaVaultRouter.sol\":2503:2526  _protocol != address(0) */\n  iszero\n    /* \"contracts/YunaVaultRouter.sol\":2127:7146  contract YunaVaultRouter is Ownable {... */\n  tag_16\n  jumpi\n  0x01\n  dup1\n  sload\n  not(sub(shl(0xa0, 0x01), 0x01))\n  and\n  swap1\n  swap2\n  or\n  swap1\n  sstore\n    /* \"contracts/YunaVaultRouter.sol\":2602:2611  _protocol */\n  tag_18\n  swap1\n  tag_2\n  jump\t// in\ntag_18:\n    /* \"contracts/YunaVaultRouter.sol\":2127:7146  contract YunaVaultRouter is Ownable {... */\n  mload\n  dataSize(sub_0)\n  swap1\n  dup2\n  dataOffset(sub_0)\n  dup3\n  codecopy\n  return\ntag_16:\n  dup3\n  mload\n  shl(0xe5, 0x461bcd)\n  dup2\n  mstore\n  0x20\n  0x04\n  dup3\n  add\n  mstore\n  0x0a\n  0x24\n  dup3\n  add\n  mstore\n  shl(0xb4, 0x070726f746f636f6c203)\n  0x44\n  dup3\n  add\n  mstore\n  0x64\n  swap1\n  revert\ntag_14:\n  dup4\n  mload\n  shl(0xe5, 0x461bcd)\n  dup2\n  mstore\n  0x20\n  0x04\n  dup3\n  add\n  mstore\n  0x09\n  0x24\n  dup3\n  add\n  mstore\n  shl(0xbc, 0x0666163746f7279203)\n  0x44\n  dup3\n  add\n  mstore\n  0x64\n  swap1\n  revert\n    /* \"@openzeppelin/contracts/access/Ownable.sol\":1269:1364  if (initialOwner == address(0)) {... */\ntag_11:\n    /* \"contracts/YunaVaultRouter.sol\":2127:7146  contract YunaVaultRouter is Ownable {... */\n  dup3\n  mload\n  shl(0xe0, 0x1e4fbdf7)\n    /* \"@openzeppelin/contracts/access/Ownable.sol\":1322:1353  OwnableInvalidOwner(address(0)) */\n  dup2\n  mstore\n  0x00\n  0x04\n  dup3\n  add\n    /* \"contracts/YunaVaultRouter.sol\":2127:7146  contract YunaVaultRouter is Ownable {... */\n  mstore\n  0x24\n  swap1\n    /* \"@openzeppelin/contracts/access/Ownable.sol\":1322:1353  OwnableInvalidOwner(address(0)) */\n  revert\n    /* \"contracts/YunaVaultRouter.sol\":2127:7146  contract YunaVaultRouter is Ownable {... */\ntag_7:\n  0x00\n  dup1\n  revert\ntag_5:\n  mstore(0x00, shl(0xe0, 0x4e487b71))\n  mstore(0x04, 0x41)\n  revert(0x00, 0x24)\ntag_1:\n  mload\n  swap1\n  sub(shl(0xa0, 0x01), 0x01)\n  dup3\n  and\n  dup3\n  sub\n  tag_7\n  jumpi\n  jump\t// out\n    /* \"@openzeppelin/contracts/access/Ownable.sol\":2912:3099  function _transferOwnership(address newOwner) internal virtual {... */\ntag_2:\n    /* \"@openzeppelin/contracts/access/Ownable.sol\":3004:3010  _owner */\n  0x00\n    /* \"contracts/YunaVaultRouter.sol\":2127:7146  contract YunaVaultRouter is Ownable {... */\n  dup1\n  sload\n  sub(shl(0xa0, 0x01), 0x01)\n  swap3\n  dup4\n  and\n  not(sub(shl(0xa0, 0x01), 0x01))\n  dup3\n  and\n  dup2\n  or\n  dup4\n  sstore\n  swap3\n  and\n  swap1\n    /* \"@openzeppelin/contracts/access/Ownable.sol\":3052:3092  OwnershipTransferred(oldOwner, newOwner) */\n  0x8be0079c531659141344cd1fd0a4f28419497f9722a3daafe3b4186f6b6457e0\n  swap1\n    /* \"@openzeppelin/contracts/access/Ownable.sol\":3004:3010  _owner */\n  dup1\n    /* \"@openzeppelin/contracts/access/Ownable.sol\":3052:3092  OwnershipTransferred(oldOwner, newOwner) */\n  log3\n    /* \"@openzeppelin/contracts/access/Ownable.sol\":2912:3099  function _transferOwnership(address newOwner) internal virtual {... */\n  jump\t// out\nstop\n\nsub_0: assembly {\n        /* \"contracts/YunaVaultRouter.sol\":2127:7146  contract YunaVaultRouter is Ownable {... */\n      0x80\n      dup1\n      0x40\n      mstore\n      jumpi(tag_14, iszero(lt(calldatasize, 0x04)))\n      0x00\n      dup1\n      revert\n    tag_14:\n      0x00\n      swap1\n      dup2\n      calldataload\n      0xe0\n      shr\n      swap1\n      dup2\n      0x05e2e95d\n      eq\n      tag_16\n      jumpi\n      pop\n      dup1\n      0x0b78f9c0\n      eq\n      tag_18\n      jumpi\n      dup1\n      0x0c51b88f\n      eq\n      tag_20\n      jumpi\n      dup1\n      0x19165587\n      eq\n      tag_22\n      jumpi\n      dup1\n      0x55197241\n      eq\n      tag_24\n      jumpi\n      dup1\n      0x580fc80a\n      eq\n      tag_26\n      jumpi\n      dup1\n      0x5bb47808\n      eq\n      tag_28\n      jumpi\n      dup1\n      0x715018a6\n      eq\n      tag_30\n      jumpi\n      dup1\n      0x88cc58e4\n      eq\n      tag_46\n      jumpi\n      dup1\n      0x8da5cb5b\n      eq\n      tag_34\n      jumpi\n      dup1\n      0x90229af7\n      eq\n      tag_36\n      jumpi\n      dup1\n      0x97331bf9\n      eq\n      tag_38\n      jumpi\n      dup1\n      0xa444477b\n      eq\n      tag_40\n      jumpi\n      dup1\n      0xb0f07f15\n      eq\n      tag_42\n      jumpi\n      dup1\n      0xb1e3a941\n      eq\n      tag_44\n      jumpi\n      dup1\n      0xc45a0155\n      eq\n      tag_46\n      jumpi\n      dup1\n      0xc99cb2b7\n      eq\n      tag_48\n      jumpi\n      dup1\n      0xd16352af\n      eq\n      tag_50\n      jumpi\n        /* \"contracts/YunaVaultRouter.sol\":4515:4548  IVaultFactory(factory).protocol() */\n      dup1\n        /* \"contracts/YunaVaultRouter.sol\":2127:7146  contract YunaVaultRouter is Ownable {... */\n      0xd858a7e5\n        /* \"contracts/YunaVaultRouter.sol\":4515:4548  IVaultFactory(factory).protocol() */\n      eq\n      tag_52\n      jumpi\n        /* \"contracts/YunaVaultRouter.sol\":2127:7146  contract YunaVaultRouter is Ownable {... */\n      dup1\n      0xdb8d55f1\n      eq\n      tag_54\n      jumpi\n      0xf2fde38b\n      eq\n      tag_56\n      jumpi\n      0x00\n      dup1\n      revert\n    tag_56:\n      jumpi(tag_60, callvalue)\n      jumpi(tag_60, slt(add(not(0x03), calldatasize), 0x20))\n      tag_62\n      tag_1\n      jump\t// in\n    tag_62:\n        /* \"@openzeppelin/contracts/access/Ownable.sol\":1500:1562  modifier onlyOwner() {... */\n      tag_63\n      tag_4\n      jump\t// in\n    tag_63:\n      sub(shl(0xa0, 0x01), 0x01)\n        /* \"contracts/YunaVaultRouter.sol\":2127:7146  contract YunaVaultRouter is Ownable {... */\n      swap1\n      dup2\n      and\n      swap1\n        /* \"@openzeppelin/contracts/access/Ownable.sol\":2627:2649  newOwner == address(0) */\n      dup2\n      iszero\n        /* \"@openzeppelin/contracts/access/Ownable.sol\":2623:2714  if (newOwner == address(0)) {... */\n      tag_64\n      jumpi\n        /* \"contracts/YunaVaultRouter.sol\":2127:7146  contract YunaVaultRouter is Ownable {... */\n      sload(0x00)\n      dup3\n      shl(0xa0, 0xffffffffffffffffffffffff)\n      dup3\n      and\n      or\n      0x00\n      sstore\n      and\n        /* \"@openzeppelin/contracts/access/Ownable.sol\":3052:3092  OwnershipTransferred(oldOwner, newOwner) */\n      0x8be0079c531659141344cd1fd0a4f28419497f9722a3daafe3b4186f6b6457e0\n        /* \"contracts/YunaVaultRouter.sol\":2127:7146  contract YunaVaultRouter is Ownable {... */\n      0x00\n        /* \"@openzeppelin/contracts/access/Ownable.sol\":3052:3092  OwnershipTransferred(oldOwner, newOwner) */\n      dup1\n      log3\n        /* \"contracts/YunaVaultRouter.sol\":2127:7146  contract YunaVaultRouter is Ownable {... */\n      dup1\n      return\n        /* \"@openzeppelin/contracts/access/Ownable.sol\":2623:2714  if (newOwner == address(0)) {... */\n    tag_64:\n        /* \"contracts/YunaVaultRouter.sol\":2127:7146  contract YunaVaultRouter is Ownable {... */\n      mload(0x40)\n      shl(0xe0, 0x1e4fbdf7)\n        /* \"@openzeppelin/contracts/access/Ownable.sol\":2672:2703  OwnableInvalidOwner(address(0)) */\n      dup2\n      mstore\n        /* \"contracts/YunaVaultRouter.sol\":2127:7146  contract YunaVaultRouter is Ownable {... */\n      0x04\n        /* \"@openzeppelin/contracts/access/Ownable.sol\":2672:2703  OwnableInvalidOwner(address(0)) */\n      dup2\n      add\n        /* \"contracts/YunaVaultRouter.sol\":2127:7146  contract YunaVaultRouter is Ownable {... */\n      dup5\n      swap1\n      mstore\n      0x24\n      swap1\n        /* \"@openzeppelin/contracts/access/Ownable.sol\":2672:2703  OwnableInvalidOwner(address(0)) */\n      revert\n        /* \"contracts/YunaVaultRouter.sol\":2127:7146  contract YunaVaultRouter is Ownable {... */\n    tag_60:\n      dup1\n      revert\n    tag_54:\n      pop\n      jumpi(tag_60, callvalue)\n      dup1\n      add(calldatasize, not(0x03))\n      slt\n      tag_60\n      jumpi\n      sload(0x01)\n      mload(0x40)\n      shl(0xe3, 0x18bf7417)\n        /* \"contracts/YunaVaultRouter.sol\":4349:4387  IVaultFactory(factory).protocolFeeBP() */\n      dup2\n      mstore\n      sub(shl(0xa0, 0x01), 0x01)\n        /* \"contracts/YunaVaultRouter.sol\":2127:7146  contract YunaVaultRouter is Ownable {... */\n      swap1\n      swap2\n      and\n      swap2\n        /* \"contracts/YunaVaultRouter.sol\":4349:4387  IVaultFactory(factory).protocolFeeBP() */\n      0x20\n      dup1\n        /* \"contracts/YunaVaultRouter.sol\":2127:7146  contract YunaVaultRouter is Ownable {... */\n      dup4\n      0x04\n      dup2\n      dup8\n        /* \"contracts/YunaVaultRouter.sol\":4349:4387  IVaultFactory(factory).protocolFeeBP() */\n      gas\n      staticcall\n      swap3\n      dup4\n      iszero\n      tag_70\n      jumpi\n      dup3\n      swap4\n      tag_72\n      jumpi\n        /* \"contracts/YunaVaultRouter.sol\":2127:7146  contract YunaVaultRouter is Ownable {... */\n    tag_73:\n      pop\n      dup1\n      0x04\n      swap5\n      mload(0x40)\n      swap6\n      dup7\n      dup1\n      swap3\n      shl(0xe0, 0xf25e78b1)\n        /* \"contracts/YunaVaultRouter.sol\":4389:4425  IVaultFactory(factory).callerFeeBP() */\n      dup3\n      mstore\n      gas\n      staticcall\n      swap2\n      dup3\n      iszero\n      tag_74\n      jumpi\n      swap2\n      tag_76\n      jumpi\n        /* \"contracts/YunaVaultRouter.sol\":2127:7146  contract YunaVaultRouter is Ownable {... */\n    tag_77:\n      0x40\n      dup1\n      swap5\n      pop\n      mload\n      swap3\n      dup4\n      mstore\n      dup3\n      add\n      mstore\n      return\n        /* \"contracts/YunaVaultRouter.sol\":4389:4425  IVaultFactory(factory).callerFeeBP() */\n    tag_76:\n      dup1\n      swap2\n      pop\n      dup4\n      dup2\n      returndatasize\n      dup4\n      gt\n      tag_78\n      jumpi\n    tag_79:\n      tag_80\n      dup2\n      dup4\n      tag_8\n      jump\t// in\n    tag_80:\n      dup2\n      add\n        /* \"contracts/YunaVaultRouter.sol\":2127:7146  contract YunaVaultRouter is Ownable {... */\n      sub\n      slt\n      tag_81\n      jumpi\n      0x40\n      swap3\n      mload\n        /* \"contracts/YunaVaultRouter.sol\":4389:4425  IVaultFactory(factory).callerFeeBP() */\n      swap1\n      jump(tag_77)\n        /* \"contracts/YunaVaultRouter.sol\":2127:7146  contract YunaVaultRouter is Ownable {... */\n    tag_81:\n      0x00\n      dup1\n      revert\n        /* \"contracts/YunaVaultRouter.sol\":4389:4425  IVaultFactory(factory).callerFeeBP() */\n    tag_78:\n      pop\n      returndatasize\n      jump(tag_79)\n    tag_74:\n        /* \"contracts/YunaVaultRouter.sol\":2127:7146  contract YunaVaultRouter is Ownable {... */\n      mload(0x40)\n      swap1\n      returndatasize\n      swap1\n      dup3\n      returndatacopy\n      returndatasize\n      swap1\n      revert\n        /* \"contracts/YunaVaultRouter.sol\":4349:4387  IVaultFactory(factory).protocolFeeBP() */\n    tag_72:\n      swap4\n      swap3\n      pop\n      dup1\n      dup5\n      dup2\n      returndatasize\n      dup4\n      gt\n      tag_83\n      jumpi\n    tag_84:\n      tag_85\n      dup2\n      dup4\n      tag_8\n      jump\t// in\n    tag_85:\n      dup2\n      add\n        /* \"contracts/YunaVaultRouter.sol\":2127:7146  contract YunaVaultRouter is Ownable {... */\n      sub\n      slt\n      tag_81\n      jumpi\n      swap3\n      mload\n        /* \"contracts/YunaVaultRouter.sol\":4349:4387  IVaultFactory(factory).protocolFeeBP() */\n      swap2\n      swap3\n        /* \"contracts/YunaVaultRouter.sol\":2127:7146  contract YunaVaultRouter is Ownable {... */\n      dup1\n        /* \"contracts/YunaVaultRouter.sol\":4349:4387  IVaultFactory(factory).protocolFeeBP() */\n      jump(tag_73)\n    tag_83:\n      pop\n      returndatasize\n      jump(tag_84)\n    tag_70:\n        /* \"contracts/YunaVaultRouter.sol\":2127:7146  contract YunaVaultRouter is Ownable {... */\n      mload(0x40)\n      returndatasize\n      dup5\n      dup3\n      returndatacopy\n      returndatasize\n      swap1\n      revert\n    tag_52:\n      pop\n      jumpi(tag_60, callvalue)\n      dup1\n      add(calldatasize, not(0x03))\n      slt\n      tag_60\n      jumpi\n        /* \"@openzeppelin/contracts/access/Ownable.sol\":1500:1562  modifier onlyOwner() {... */\n      tag_92\n      tag_4\n      jump\t// in\n    tag_92:\n        /* \"contracts/YunaVaultRouter.sol\":2127:7146  contract YunaVaultRouter is Ownable {... */\n      0x00\n      dup1\n      sload\n      not(shl(0xa0, 0xff))\n      and\n      swap1\n      sstore\n      dup1\n      return\n    tag_50:\n      pop\n      jumpi(tag_60, callvalue)\n      dup1\n      add(calldatasize, not(0x03))\n      slt\n      tag_60\n      jumpi\n      sload(0x01)\n      mload(0x40)\n      shl(0xe1, 0x4673a213)\n        /* \"contracts/YunaVaultRouter.sol\":4515:4548  IVaultFactory(factory).protocol() */\n      dup2\n      mstore\n        /* \"contracts/YunaVaultRouter.sol\":2127:7146  contract YunaVaultRouter is Ownable {... */\n      swap2\n      swap1\n      sub(shl(0xa0, 0x01), 0x01)\n      swap1\n        /* \"contracts/YunaVaultRouter.sol\":4515:4548  IVaultFactory(factory).protocol() */\n      0x20\n      swap1\n        /* \"contracts/YunaVaultRouter.sol\":2127:7146  contract YunaVaultRouter is Ownable {... */\n      dup5\n      swap1\n      0x04\n      swap1\n      dup3\n      swap1\n      dup6\n      and\n        /* \"contracts/YunaVaultRouter.sol\":4515:4548  IVaultFactory(factory).protocol() */\n      gas\n      staticcall\n      swap2\n      dup3\n      iszero\n      tag_74\n      jumpi\n      dup1\n      swap3\n      tag_99\n      jumpi\n        /* \"contracts/YunaVaultRouter.sol\":2127:7146  contract YunaVaultRouter is Ownable {... */\n    tag_100:\n        /* \"contracts/YunaVaultRouter.sol\":4515:4548  IVaultFactory(factory).protocol() */\n      0x20\n        /* \"contracts/YunaVaultRouter.sol\":2127:7146  contract YunaVaultRouter is Ownable {... */\n      dup4\n      dup4\n      mload(0x40)\n      swap2\n      and\n      dup2\n      mstore\n      return\n        /* \"contracts/YunaVaultRouter.sol\":4515:4548  IVaultFactory(factory).protocol() */\n    tag_99:\n      swap1\n      swap2\n      pop\n      0x20\n      dup4\n      returndatasize\n      dup3\n      gt\n      tag_101\n      jumpi\n    tag_102:\n      dup2\n      tag_103\n      0x20\n      swap4\n      dup4\n      tag_8\n      jump\t// in\n    tag_103:\n      dup2\n      add\n        /* \"contracts/YunaVaultRouter.sol\":2127:7146  contract YunaVaultRouter is Ownable {... */\n      sub\n      slt\n      tag_60\n      jumpi\n      pop\n      tag_106\n        /* \"contracts/YunaVaultRouter.sol\":4515:4548  IVaultFactory(factory).protocol() */\n      0x20\n        /* \"contracts/YunaVaultRouter.sol\":2127:7146  contract YunaVaultRouter is Ownable {... */\n      swap3\n      tag_9\n      jump\t// in\n    tag_106:\n        /* \"contracts/YunaVaultRouter.sol\":4515:4548  IVaultFactory(factory).protocol() */\n      swap1\n      0x00\n      jump(tag_100)\n    tag_101:\n      returndatasize\n      swap2\n      pop\n      jump(tag_102)\n        /* \"contracts/YunaVaultRouter.sol\":2127:7146  contract YunaVaultRouter is Ownable {... */\n    tag_48:\n      pop\n      jumpi(tag_60, callvalue)\n      jumpi(tag_60, slt(add(not(0x03), calldatasize), 0x20))\n      dup1\n      tag_111\n      tag_1\n      jump\t// in\n    tag_111:\n        /* \"contracts/YunaVaultRouter.sol\":2286:2332  require(isRouterEnabled, \"Router is disabled\") */\n      tag_112\n        /* \"contracts/YunaVaultRouter.sol\":2127:7146  contract YunaVaultRouter is Ownable {... */\n      0xff\n      dup4\n      sload\n      0xa0\n      shr\n      and\n        /* \"contracts/YunaVaultRouter.sol\":2286:2332  require(isRouterEnabled, \"Router is disabled\") */\n      tag_5\n      jump\t// in\n    tag_112:\n        /* \"contracts/YunaVaultRouter.sol\":2127:7146  contract YunaVaultRouter is Ownable {... */\n      sload(0x01)\n      sub(shl(0xa0, 0x01), 0x01)\n      swap1\n      dup2\n      and\n      swap2\n      swap1\n        /* \"contracts/YunaVaultRouter.sol\":3732:3776  IVaultFactory(factory).closeVault(vaultAddr) */\n      dup3\n      extcodesize\n      iszero\n      tag_113\n      jumpi\n        /* \"contracts/YunaVaultRouter.sol\":2127:7146  contract YunaVaultRouter is Ownable {... */\n      0x24\n      dup5\n      swap3\n      dup4\n      mload(0x40)\n      swap6\n      dup7\n      swap5\n      dup6\n      swap4\n      shl(0xe0, 0xc99cb2b7)\n        /* \"contracts/YunaVaultRouter.sol\":3732:3776  IVaultFactory(factory).closeVault(vaultAddr) */\n      dup6\n      mstore\n        /* \"contracts/YunaVaultRouter.sol\":2127:7146  contract YunaVaultRouter is Ownable {... */\n      and\n      0x04\n        /* \"contracts/YunaVaultRouter.sol\":3732:3776  IVaultFactory(factory).closeVault(vaultAddr) */\n      dup5\n      add\n        /* \"contracts/YunaVaultRouter.sol\":2127:7146  contract YunaVaultRouter is Ownable {... */\n      mstore\n        /* \"contracts/YunaVaultRouter.sol\":3732:3776  IVaultFactory(factory).closeVault(vaultAddr) */\n      gas\n      call\n      dup1\n      iszero\n      tag_70\n      jumpi\n      tag_117\n      jumpi\n        /* \"contracts/YunaVaultRouter.sol\":2127:7146  contract YunaVaultRouter is Ownable {... */\n      pop\n      return\n        /* \"contracts/YunaVaultRouter.sol\":3732:3776  IVaultFactory(factory).closeVault(vaultAddr) */\n    tag_117:\n      tag_119\n      swap1\n      tag_6\n      jump\t// in\n    tag_119:\n        /* \"contracts/YunaVaultRouter.sol\":2127:7146  contract YunaVaultRouter is Ownable {... */\n      tag_60\n      jumpi\n        /* \"contracts/YunaVaultRouter.sol\":3732:3776  IVaultFactory(factory).closeVault(vaultAddr) */\n      dup1\n        /* \"contracts/YunaVaultRouter.sol\":2127:7146  contract YunaVaultRouter is Ownable {... */\n      return\n        /* \"contracts/YunaVaultRouter.sol\":3732:3776  IVaultFactory(factory).closeVault(vaultAddr) */\n    tag_113:\n        /* \"contracts/YunaVaultRouter.sol\":2127:7146  contract YunaVaultRouter is Ownable {... */\n      pop\n      pop\n      pop\n      revert\n    tag_46:\n      pop\n      jumpi(tag_60, callvalue)\n      dup1\n      add(calldatasize, not(0x03))\n      slt\n      tag_60\n      jumpi\n      sload(0x01)\n      mload(0x40)\n      sub(shl(0xa0, 0x01), 0x01)\n      swap1\n      swap2\n      and\n      dup2\n      mstore\n      0x20\n      swap1\n      return\n    tag_44:\n      pop\n      jumpi(tag_60, callvalue)\n      0x20\n      swap1\n      dup2\n      add(calldatasize, not(0x03))\n      slt\n      tag_60\n      jumpi\n      tag_130\n      tag_1\n      jump\t// in\n    tag_130:\n      sload(0x01)\n      mload(0x40)\n      shl(0xe0, 0xb1e3a941)\n        /* \"contracts/YunaVaultRouter.sol\":4018:4063  IVaultFactory(factory).getVaultByToken(token) */\n      dup2\n      mstore\n      sub(shl(0xa0, 0x01), 0x01)\n        /* \"contracts/YunaVaultRouter.sol\":2127:7146  contract YunaVaultRouter is Ownable {... */\n      swap3\n      dup4\n      and\n      0x04\n        /* \"contracts/YunaVaultRouter.sol\":4018:4063  IVaultFactory(factory).getVaultByToken(token) */\n      dup3\n      add\n        /* \"contracts/YunaVaultRouter.sol\":2127:7146  contract YunaVaultRouter is Ownable {... */\n      mstore\n      swap1\n      dup5\n      swap1\n      dup3\n      swap1\n      0x24\n      swap1\n      dup3\n      swap1\n      dup7\n      and\n        /* \"contracts/YunaVaultRouter.sol\":4018:4063  IVaultFactory(factory).getVaultByToken(token) */\n      gas\n      staticcall\n      swap3\n      dup4\n      iszero\n      tag_74\n      jumpi\n      dup1\n      swap4\n      tag_133\n      jumpi\n        /* \"contracts/YunaVaultRouter.sol\":2127:7146  contract YunaVaultRouter is Ownable {... */\n    tag_134:\n      pop\n      pop\n      mload(0x40)\n      swap2\n      and\n      dup2\n      mstore\n      return\n        /* \"contracts/YunaVaultRouter.sol\":4018:4063  IVaultFactory(factory).getVaultByToken(token) */\n    tag_133:\n      swap1\n      swap2\n      swap3\n      pop\n      dup4\n      dup3\n      dup2\n      returndatasize\n      dup4\n      gt\n      tag_135\n      jumpi\n    tag_136:\n      tag_137\n      dup2\n      dup4\n      tag_8\n      jump\t// in\n    tag_137:\n      dup2\n      add\n        /* \"contracts/YunaVaultRouter.sol\":2127:7146  contract YunaVaultRouter is Ownable {... */\n      sub\n      slt\n      tag_60\n      jumpi\n      pop\n      tag_140\n      swap1\n      tag_9\n      jump\t// in\n    tag_140:\n        /* \"contracts/YunaVaultRouter.sol\":4018:4063  IVaultFactory(factory).getVaultByToken(token) */\n      swap1\n      0x00\n      dup1\n      jump(tag_134)\n    tag_135:\n      pop\n      returndatasize\n      jump(tag_136)\n        /* \"contracts/YunaVaultRouter.sol\":2127:7146  contract YunaVaultRouter is Ownable {... */\n    tag_42:\n      pop\n      jumpi(tag_60, callvalue)\n      dup1\n      add(calldatasize, not(0x03))\n      slt\n      tag_60\n      jumpi\n        /* \"@openzeppelin/contracts/access/Ownable.sol\":1500:1562  modifier onlyOwner() {... */\n      tag_145\n      tag_4\n      jump\t// in\n    tag_145:\n        /* \"contracts/YunaVaultRouter.sol\":2127:7146  contract YunaVaultRouter is Ownable {... */\n      dup1\n      sload\n      not(shl(0xa0, 0xff))\n      and\n      shl(0xa0, 0x01)\n      or\n      dup2\n      sstore\n      dup1\n      return\n    tag_40:\n      pop\n      jumpi(tag_60, callvalue)\n      not(0x03)\n      swap1\n      0xe0\n      calldatasize\n      dup4\n      add\n      slt\n      tag_60\n      jumpi\n      tag_150\n      tag_1\n      jump\t// in\n    tag_150:\n      calldataload(0x84)\n      swap1\n      0xffffffffffffffff\n      swap4\n      dup5\n      dup4\n      gt\n      tag_153\n      jumpi\n      calldatasize\n      0x23\n      dup5\n      add\n      slt\n      iszero\n      tag_153\n      jumpi\n      dup3\n      0x04\n      add\n      calldataload\n      swap1\n      dup6\n      dup3\n      gt\n      tag_155\n      jumpi\n      dup2\n      0x05\n      shl\n      calldatasize\n      0x24\n      dup3\n      dup8\n      add\n      add\n      gt\n      tag_157\n      jumpi\n      calldataload(0xa4)\n      dup8\n      dup2\n      gt\n      tag_159\n      jumpi\n      tag_161\n      swap1\n      calldatasize\n      swap1\n      0x04\n      add\n      tag_3\n      jump\t// in\n    tag_161:\n      swap3\n      swap1\n      swap8\n      calldataload(0xc4)\n      swap1\n      dup2\n      gt\n      tag_162\n      jumpi\n      tag_164\n      swap1\n      calldatasize\n      swap1\n      0x04\n      add\n      tag_3\n      jump\t// in\n    tag_164:\n      swap2\n      swap1\n      swap4\n        /* \"contracts/YunaVaultRouter.sol\":2286:2332  require(isRouterEnabled, \"Router is disabled\") */\n      tag_165\n        /* \"contracts/YunaVaultRouter.sol\":2127:7146  contract YunaVaultRouter is Ownable {... */\n      0xff\n      dup11\n      sload\n      0xa0\n      shr\n      and\n        /* \"contracts/YunaVaultRouter.sol\":2286:2332  require(isRouterEnabled, \"Router is disabled\") */\n      tag_5\n      jump\t// in\n    tag_165:\n        /* \"contracts/YunaVaultRouter.sol\":2127:7146  contract YunaVaultRouter is Ownable {... */\n      0x01\n      dup1\n      sload\n      mload(0x40)\n      shl(0xe0, 0xa444477b)\n        /* \"contracts/YunaVaultRouter.sol\":3411:3635  IVaultFactory(factory).createVault(... */\n      dup2\n      mstore\n      sub(shl(0xa0, 0x01), 0x01)\n        /* \"contracts/YunaVaultRouter.sol\":2127:7146  contract YunaVaultRouter is Ownable {... */\n      swap10\n      dup11\n      and\n      0x04\n        /* \"contracts/YunaVaultRouter.sol\":3411:3635  IVaultFactory(factory).createVault(... */\n      dup3\n      add\n        /* \"contracts/YunaVaultRouter.sol\":2127:7146  contract YunaVaultRouter is Ownable {... */\n      mstore\n      0x24\n      dup1\n      calldataload\n      swap1\n      dup3\n      add\n      mstore\n      0x44\n      dup1\n      calldataload\n      swap1\n      dup3\n      add\n      mstore\n      0x64\n      dup1\n      calldataload\n      swap1\n      dup3\n      add\n      mstore\n      0xe0\n      0x84\n      dup3\n      add\n      mstore\n      0xe4\n      dup2\n      add\n      dup10\n      swap1\n      mstore\n      swap9\n      swap10\n      swap1\n      dup11\n      and\n      swap8\n      swap2\n      swap6\n      swap1\n      swap2\n      sub(shl(0xfb, 0x01), 0x01)\n      lt\n      tag_166\n      jumpi\n      swap1\n      dup3\n      dup3\n      0x0124\n      swap4\n      0x24\n      swap9\n      swap15\n      swap11\n      swap10\n      swap9\n      0x0104\n      swap5\n      add\n      dup5\n      dup14\n      add\n      calldatacopy\n      dup11\n      add\n      swap2\n      dup3\n      add\n      0x0100\n      dup12\n      dup5\n      sub\n      add\n      0xa4\n      dup13\n      add\n      mstore\n      mstore\n      add\n      swap6\n      swap1\n      dup10\n    tag_168:\n      dup2\n      dup2\n      lt\n      tag_169\n      jumpi\n      pop\n      pop\n      pop\n      swap2\n      dup8\n      swap2\n      dup7\n      swap5\n      swap4\n      dup6\n      dup8\n      sub\n      add\n      0xc4\n      dup7\n      add\n      mstore\n      dup1\n      dup7\n      mstore\n      0x20\n      swap10\n      dup11\n      dup1\n      swap8\n      add\n      swap3\n      swap2\n      dup5\n    tag_171:\n      dup2\n      dup2\n      lt\n      tag_172\n      jumpi\n        /* \"contracts/YunaVaultRouter.sol\":3411:3635  IVaultFactory(factory).createVault(... */\n      pop\n      pop\n      pop\n      pop\n      swap1\n      dup4\n      dup1\n      swap3\n      sub\n      swap3\n      gas\n      call\n      swap3\n      dup4\n      iszero\n      tag_74\n      jumpi\n      dup1\n      swap4\n      tag_133\n      jumpi\n        /* \"contracts/YunaVaultRouter.sol\":2127:7146  contract YunaVaultRouter is Ownable {... */\n      pop\n      pop\n      mload(0x40)\n      swap2\n      and\n      dup2\n      mstore\n      return\n    tag_172:\n      dup4\n      calldataload\n      dup6\n      mstore\n      dup13\n      dup5\n      add\n      calldataload\n      dup14\n      dup7\n      add\n      mstore\n      dup13\n      swap9\n      pop\n      dup10\n      swap8\n      pop\n      dup12\n      swap6\n      pop\n      0x40\n      swap5\n      dup6\n      add\n      swap5\n      swap1\n      swap4\n      add\n      swap3\n      dup3\n      add\n      jump(tag_171)\n    tag_169:\n      dup3\n      calldataload\n      dup9\n      mstore\n      0x20\n      dup1\n      dup5\n      add\n      calldataload\n      swap1\n      dup10\n      add\n      mstore\n      0x40\n      swap8\n      dup9\n      add\n      swap8\n      swap1\n      swap3\n      add\n      swap2\n      dup12\n      add\n      jump(tag_168)\n    tag_166:\n      dup11\n      dup1\n      revert\n    tag_162:\n      dup8\n      dup1\n      revert\n    tag_159:\n      dup7\n      dup1\n      revert\n    tag_157:\n      dup6\n      dup1\n      revert\n    tag_155:\n      dup5\n      dup1\n      revert\n    tag_153:\n      dup4\n      dup1\n      revert\n    tag_38:\n      pop\n      jumpi(tag_60, callvalue)\n      dup1\n      add(calldatasize, not(0x03))\n      slt\n      tag_60\n      jumpi\n      0x01\n      dup1\n      sload\n      mload(0x40)\n      shl(0xe0, 0x97331bf9)\n        /* \"contracts/YunaVaultRouter.sol\":3875:3912  IVaultFactory(factory).getAllVaults() */\n      dup2\n      mstore\n        /* \"contracts/YunaVaultRouter.sol\":2127:7146  contract YunaVaultRouter is Ownable {... */\n      swap2\n      swap3\n      swap2\n      swap1\n      sub(shl(0xa0, 0x01), 0x01)\n      swap1\n      dup4\n      swap1\n      dup4\n      swap1\n      0x04\n      swap1\n      dup3\n      swap1\n      dup6\n      and\n        /* \"contracts/YunaVaultRouter.sol\":3875:3912  IVaultFactory(factory).getAllVaults() */\n      gas\n      staticcall\n      swap2\n      dup3\n      iszero\n      tag_188\n      jumpi\n      dup4\n      swap3\n      tag_190\n      jumpi\n        /* \"contracts/YunaVaultRouter.sol\":2127:7146  contract YunaVaultRouter is Ownable {... */\n    tag_191:\n      pop\n      swap2\n      0x40\n      swap4\n      swap2\n      swap4\n      mload\n      swap3\n      0x20\n      dup1\n      dup6\n      add\n      swap2\n      dup2\n      dup7\n      mstore\n      dup7\n      mload\n      dup1\n      swap4\n      mstore\n      dup2\n      0x40\n      dup8\n      add\n      swap8\n      add\n      swap4\n      swap1\n    tag_192:\n      dup4\n      dup3\n      lt\n      tag_193\n      jumpi\n      dup7\n      dup9\n      sub\n      dup8\n      return\n    tag_193:\n      dup5\n      mload\n      dup2\n      and\n      dup9\n      mstore\n      swap7\n      dup3\n      add\n      swap7\n      swap4\n      dup3\n      add\n      swap4\n      swap1\n      dup6\n      add\n      swap1\n      jump(tag_192)\n        /* \"contracts/YunaVaultRouter.sol\":3875:3912  IVaultFactory(factory).getAllVaults() */\n    tag_190:\n      swap1\n      swap2\n      pop\n      returndatasize\n      dup1\n      dup5\n      dup4\n      returndatacopy\n      tag_195\n      dup2\n      dup4\n      tag_8\n      jump\t// in\n    tag_195:\n      dup2\n      add\n        /* \"contracts/YunaVaultRouter.sol\":2127:7146  contract YunaVaultRouter is Ownable {... */\n      swap1\n      0x20\n      swap1\n      dup2\n      dup2\n      dup5\n      sub\n      slt\n      tag_155\n      jumpi\n      dup1\n      mload\n      swap1\n      0xffffffffffffffff\n      dup3\n      gt\n      tag_157\n      jumpi\n      add\n      swap2\n      dup1\n      0x1f\n      dup5\n      add\n      slt\n      iszero\n      tag_155\n      jumpi\n      dup3\n      mload\n      tag_202\n      dup2\n      tag_10\n      jump\t// in\n    tag_202:\n      swap4\n      tag_203\n      mload(0x40)\n      swap6\n      dup7\n      tag_8\n      jump\t// in\n    tag_203:\n      dup2\n      dup6\n      mstore\n      dup4\n      dup1\n      dup7\n      add\n      swap3\n      0x05\n      shl\n      dup3\n      add\n      add\n      swap3\n      dup4\n      gt\n      tag_159\n      jumpi\n      dup4\n      add\n      swap1\n    tag_206:\n      dup3\n      dup3\n      lt\n      tag_207\n      jumpi\n        /* \"contracts/YunaVaultRouter.sol\":3875:3912  IVaultFactory(factory).getAllVaults() */\n      pop\n      pop\n      pop\n      pop\n      swap1\n      0x00\n      jump(tag_191)\n        /* \"contracts/YunaVaultRouter.sol\":2127:7146  contract YunaVaultRouter is Ownable {... */\n    tag_207:\n      dup4\n      dup1\n      swap2\n      tag_209\n      dup5\n      tag_9\n      jump\t// in\n    tag_209:\n      dup2\n      mstore\n      add\n      swap2\n      add\n      swap1\n      jump(tag_206)\n        /* \"contracts/YunaVaultRouter.sol\":3875:3912  IVaultFactory(factory).getAllVaults() */\n    tag_188:\n        /* \"contracts/YunaVaultRouter.sol\":2127:7146  contract YunaVaultRouter is Ownable {... */\n      mload(0x40)\n      returndatasize\n      dup6\n      dup3\n      returndatacopy\n      returndatasize\n      swap1\n      revert\n    tag_36:\n      pop\n      jumpi(tag_60, callvalue)\n      jumpi(tag_60, slt(add(not(0x03), calldatasize), 0x20))\n      tag_214\n      tag_1\n      jump\t// in\n    tag_214:\n      swap1\n      mload(0x40)\n      swap2\n      0x0100\n      dup4\n      add\n      dup4\n      dup2\n      lt\n      0xffffffffffffffff\n      dup3\n      gt\n      or\n      tag_215\n      jumpi\n      0x40\n      mstore\n      dup2\n      dup4\n      mstore\n      dup2\n      0x20\n      dup5\n      add\n      mstore\n      dup2\n      0x40\n      dup5\n      add\n      mstore\n      0x60\n      dup1\n      dup5\n      add\n      mstore\n      0x60\n      0x80\n      dup5\n      add\n      mstore\n      0x60\n      0xa0\n      dup5\n      add\n      mstore\n      dup2\n      0xc0\n      dup5\n      add\n      mstore\n      dup2\n      0xe0\n      dup5\n      add\n      mstore\n      mload(0x40)\n      shl(0xe2, 0x08bcf8b5)\n        /* \"contracts/YunaVaultRouter.sol\":5776:5788  v.isActive() */\n      dup2\n      mstore\n        /* \"contracts/YunaVaultRouter.sol\":2127:7146  contract YunaVaultRouter is Ownable {... */\n      0x20\n      dup2\n      0x04\n      dup2\n      0x01\n      dup1\n      0xa0\n      shl\n      sub\n      dup7\n      and\n        /* \"contracts/YunaVaultRouter.sol\":5776:5788  v.isActive() */\n      gas\n      staticcall\n      swap1\n      dup2\n      iszero\n      tag_188\n      jumpi\n      dup4\n      swap2\n      tag_219\n      jumpi\n        /* \"contracts/YunaVaultRouter.sol\":2127:7146  contract YunaVaultRouter is Ownable {... */\n    tag_220:\n      pop\n      iszero\n      iszero\n      dup4\n      mstore\n      mload(0x40)\n      shl(0xe1, 0x7e062a35)\n        /* \"contracts/YunaVaultRouter.sol\":5812:5821  v.token() */\n      dup2\n      mstore\n        /* \"contracts/YunaVaultRouter.sol\":2127:7146  contract YunaVaultRouter is Ownable {... */\n      0x20\n      dup2\n      0x04\n      dup2\n      sub(shl(0xa0, 0x01), 0x01)\n      dup7\n      and\n        /* \"contracts/YunaVaultRouter.sol\":5812:5821  v.token() */\n      gas\n      staticcall\n      swap1\n      dup2\n      iszero\n      tag_188\n      jumpi\n      dup4\n      swap2\n      tag_223\n      jumpi\n        /* \"contracts/YunaVaultRouter.sol\":2127:7146  contract YunaVaultRouter is Ownable {... */\n    tag_224:\n      pop\n      sub(shl(0xa0, 0x01), 0x01)\n      swap1\n      dup2\n      and\n      0x20\n      dup6\n      dup2\n      add\n      swap2\n      swap1\n      swap2\n      mstore\n      mload(0x40)\n      shl(0xe0, 0x094b81d3)\n        /* \"contracts/YunaVaultRouter.sol\":5846:5856  v.xpRate() */\n      dup2\n      mstore\n        /* \"contracts/YunaVaultRouter.sol\":2127:7146  contract YunaVaultRouter is Ownable {... */\n      swap2\n      dup3\n      swap1\n      0x04\n      swap1\n      dup3\n      swap1\n      dup7\n      and\n        /* \"contracts/YunaVaultRouter.sol\":5846:5856  v.xpRate() */\n      gas\n      staticcall\n      swap1\n      dup2\n      iszero\n      tag_188\n      jumpi\n      dup4\n      swap2\n      tag_227\n      jumpi\n        /* \"contracts/YunaVaultRouter.sol\":2127:7146  contract YunaVaultRouter is Ownable {... */\n    tag_228:\n      pop\n      0x40\n      dup5\n      dup2\n      add\n      swap2\n      swap1\n      swap2\n      mstore\n      mload\n      shl(0xe0, 0x359cfbf7)\n        /* \"contracts/YunaVaultRouter.sol\":5908:5926  v.presetTimesLen() */\n      dup2\n      mstore\n        /* \"contracts/YunaVaultRouter.sol\":2127:7146  contract YunaVaultRouter is Ownable {... */\n      0x20\n      dup2\n      0x04\n      dup2\n      sub(shl(0xa0, 0x01), 0x01)\n      dup7\n      and\n        /* \"contracts/YunaVaultRouter.sol\":5908:5926  v.presetTimesLen() */\n      gas\n      staticcall\n      swap1\n      dup2\n      iszero\n      tag_188\n      jumpi\n      dup4\n      swap2\n      tag_231\n      jumpi\n        /* \"contracts/YunaVaultRouter.sol\":2127:7146  contract YunaVaultRouter is Ownable {... */\n    tag_232:\n      pop\n      tag_233\n      dup2\n      tag_10\n      jump\t// in\n    tag_233:\n      tag_234\n      mload(0x40)\n      swap2\n      dup3\n      tag_8\n      jump\t// in\n    tag_234:\n      dup2\n      dup2\n      mstore\n      not(0x1f)\n      tag_235\n      dup4\n      tag_10\n      jump\t// in\n    tag_235:\n      add\n      calldatasize\n      0x20\n      dup4\n      add\n      calldatacopy\n      0x60\n      dup6\n      add\n        /* \"contracts/YunaVaultRouter.sol\":5937:5974  info.presetTimes = new uint256[](len) */\n      mstore\n        /* \"contracts/YunaVaultRouter.sol\":5990:6003  uint256 i = 0 */\n      dup3\n        /* \"contracts/YunaVaultRouter.sol\":6005:6012  i < len */\n    tag_236:\n      dup2\n      dup2\n      lt\n      tag_237\n      jumpi\n      pop\n      pop\n        /* \"contracts/YunaVaultRouter.sol\":2127:7146  contract YunaVaultRouter is Ownable {... */\n      mload(0x40)\n      shl(0xe0, 0xc122c2a1)\n        /* \"contracts/YunaVaultRouter.sol\":6143:6165  v.timeMultipliersLen() */\n      dup2\n      mstore\n        /* \"contracts/YunaVaultRouter.sol\":2127:7146  contract YunaVaultRouter is Ownable {... */\n      0x20\n      dup2\n      0x04\n      dup2\n      sub(shl(0xa0, 0x01), 0x01)\n      dup7\n      and\n        /* \"contracts/YunaVaultRouter.sol\":6143:6165  v.timeMultipliersLen() */\n      gas\n      staticcall\n      swap1\n      dup2\n      iszero\n      tag_188\n      jumpi\n      dup4\n      swap2\n      tag_241\n      jumpi\n        /* \"contracts/YunaVaultRouter.sol\":5985:6084  for (uint256 i = 0; i < len; i++) {... */\n    tag_242:\n        /* \"contracts/YunaVaultRouter.sol\":2127:7146  contract YunaVaultRouter is Ownable {... */\n      pop\n      tag_243\n      dup2\n      tag_10\n      jump\t// in\n    tag_243:\n      tag_244\n      mload(0x40)\n      swap2\n      dup3\n      tag_8\n      jump\t// in\n    tag_244:\n      dup2\n      dup2\n      mstore\n      not(0x1f)\n      tag_245\n      dup4\n      tag_10\n      jump\t// in\n    tag_245:\n      add\n      dup5\n    tag_246:\n      dup2\n      dup2\n      lt\n      tag_247\n      jumpi\n      pop\n      pop\n      0x80\n      dup6\n      add\n        /* \"contracts/YunaVaultRouter.sol\":6176:6244  info.timeMultipliers = new IVaultFactory.TimeMultiplierIn[](lenTime) */\n      mstore\n        /* \"contracts/YunaVaultRouter.sol\":6260:6273  uint256 i = 0 */\n      dup3\n        /* \"contracts/YunaVaultRouter.sol\":6275:6286  i < lenTime */\n    tag_249:\n      dup2\n      dup2\n      lt\n      tag_250\n      jumpi\n      pop\n      pop\n        /* \"contracts/YunaVaultRouter.sol\":2127:7146  contract YunaVaultRouter is Ownable {... */\n      mload(0x40)\n      shl(0xe0, 0xb9b792cd)\n        /* \"contracts/YunaVaultRouter.sol\":6619:6643  v.amountMultipliersLen() */\n      dup2\n      mstore\n        /* \"contracts/YunaVaultRouter.sol\":2127:7146  contract YunaVaultRouter is Ownable {... */\n      0x20\n      dup2\n      0x04\n      dup2\n      sub(shl(0xa0, 0x01), 0x01)\n      dup7\n      and\n        /* \"contracts/YunaVaultRouter.sol\":6619:6643  v.amountMultipliersLen() */\n      gas\n      staticcall\n      swap1\n      dup2\n      iszero\n      tag_188\n      jumpi\n      dup4\n      swap2\n      tag_254\n      jumpi\n        /* \"contracts/YunaVaultRouter.sol\":6255:6556  for (uint256 i = 0; i < lenTime; i++) {... */\n    tag_255:\n        /* \"contracts/YunaVaultRouter.sol\":2127:7146  contract YunaVaultRouter is Ownable {... */\n      pop\n      tag_256\n      dup2\n      tag_10\n      jump\t// in\n    tag_256:\n      tag_257\n      mload(0x40)\n      swap2\n      dup3\n      tag_8\n      jump\t// in\n    tag_257:\n      dup2\n      dup2\n      mstore\n      not(0x1f)\n      tag_258\n      dup4\n      tag_10\n      jump\t// in\n    tag_258:\n      add\n      dup5\n    tag_259:\n      dup2\n      dup2\n      lt\n      tag_260\n      jumpi\n      pop\n      pop\n      0xa0\n      dup6\n      add\n        /* \"contracts/YunaVaultRouter.sol\":6654:6728  info.amountMultipliers = new IVaultFactory.AmountMultiplierIn[](lenAmount) */\n      mstore\n        /* \"contracts/YunaVaultRouter.sol\":6744:6757  uint256 i = 0 */\n      dup3\n        /* \"contracts/YunaVaultRouter.sol\":6759:6772  i < lenAmount */\n    tag_262:\n      dup2\n      dup2\n      lt\n      tag_263\n      jumpi\n      pop\n      pop\n        /* \"contracts/YunaVaultRouter.sol\":2127:7146  contract YunaVaultRouter is Ownable {... */\n      mload(0x40)\n      shl(0xe0, 0x41b3d185)\n        /* \"contracts/YunaVaultRouter.sol\":7078:7092  v.minDeposit() */\n      dup2\n      mstore\n        /* \"contracts/YunaVaultRouter.sol\":2127:7146  contract YunaVaultRouter is Ownable {... */\n      0x20\n      dup2\n      0x04\n      dup2\n      sub(shl(0xa0, 0x01), 0x01)\n      dup7\n      and\n        /* \"contracts/YunaVaultRouter.sol\":7078:7092  v.minDeposit() */\n      gas\n      staticcall\n      swap1\n      dup2\n      iszero\n      tag_188\n      jumpi\n      dup4\n      swap2\n      tag_267\n      jumpi\n        /* \"contracts/YunaVaultRouter.sol\":6739:7048  for (uint256 i = 0; i < lenAmount; i++) {... */\n    tag_268:\n      pop\n        /* \"contracts/YunaVaultRouter.sol\":2127:7146  contract YunaVaultRouter is Ownable {... */\n      0xc0\n      dup5\n      add\n      mstore\n      mload(0x40)\n      shl(0xe1, 0x3041f2cd)\n        /* \"contracts/YunaVaultRouter.sol\":7121:7135  v.maxDeposit() */\n      dup2\n      mstore\n        /* \"contracts/YunaVaultRouter.sol\":2127:7146  contract YunaVaultRouter is Ownable {... */\n      swap1\n      0x20\n      swap1\n      dup3\n      swap1\n      0x04\n      swap1\n      dup3\n      swap1\n      sub(shl(0xa0, 0x01), 0x01)\n      and\n        /* \"contracts/YunaVaultRouter.sol\":7121:7135  v.maxDeposit() */\n      gas\n      staticcall\n      swap1\n      dup2\n      iszero\n      tag_70\n      jumpi\n      dup3\n      swap2\n      tag_271\n      jumpi\n        /* \"contracts/YunaVaultRouter.sol\":6739:7048  for (uint256 i = 0; i < lenAmount; i++) {... */\n    tag_272:\n        /* \"contracts/YunaVaultRouter.sol\":2127:7146  contract YunaVaultRouter is Ownable {... */\n      pop\n      0xe0\n      dup4\n      add\n      mstore\n      mload(0x40)\n      swap1\n      0x20\n      dup3\n      mstore\n      0x0120\n      dup3\n      add\n      swap1\n      dup4\n      mload\n      iszero\n      iszero\n      0x20\n      dup5\n      add\n      mstore\n      0x01\n      dup1\n      0xa0\n      shl\n      sub\n      0x20\n      dup6\n      add\n      mload\n      and\n      0x40\n      dup5\n      add\n      mstore\n      0x40\n      dup5\n      add\n      mload\n      0x60\n      dup5\n      add\n      mstore\n      0x60\n      dup5\n      add\n      mload\n      swap2\n      0x0100\n      0x80\n      dup6\n      add\n      mstore\n      dup3\n      mload\n      dup1\n      swap2\n      mstore\n      0x20\n      0x0140\n      dup6\n      add\n      swap4\n      add\n      swap1\n      dup3\n    tag_273:\n      dup2\n      dup2\n      lt\n      tag_274\n      jumpi\n      pop\n      pop\n      pop\n      0x80\n      dup5\n      add\n      mload\n      swap2\n      not(0x1f)\n      dup5\n      dup3\n      sub\n      add\n      0xa0\n      dup6\n      add\n      mstore\n      0x20\n      dup1\n      dup5\n      mload\n      swap3\n      dup4\n      dup2\n      mstore\n      add\n      swap4\n      add\n      swap1\n      dup3\n    tag_276:\n      dup2\n      dup2\n      lt\n      tag_277\n      jumpi\n      pop\n      pop\n      pop\n      0xa0\n      dup5\n      add\n      mload\n      swap2\n      not(0x1f)\n      dup5\n      dup3\n      sub\n      add\n      0xc0\n      dup6\n      add\n      mstore\n      0x20\n      dup1\n      dup5\n      mload\n      swap3\n      dup4\n      dup2\n      mstore\n      add\n      swap4\n      add\n      swap2\n    tag_279:\n      dup2\n      dup2\n      lt\n      tag_280\n      jumpi\n      pop\n      pop\n      pop\n      0xe0\n      dup4\n      0xc0\n      dup5\n      swap6\n      add\n      mload\n      dup3\n      dup6\n      add\n      mstore\n      add\n      mload\n      0x0100\n      dup4\n      add\n      mstore\n      sub\n      swap1\n      return\n    tag_280:\n      swap1\n      swap2\n      swap3\n      0x20\n      tag_282\n      0x01\n      swap3\n      dup7\n      mload\n      swap1\n      0x20\n      0x40\n      swap3\n      dup1\n      mload\n      dup4\n      mstore\n      add\n      mload\n      0x20\n      dup3\n      add\n      mstore\n      add\n      swap1\n      jump\n    tag_282:\n      swap5\n      add\n      swap3\n      swap2\n      add\n      jump(tag_279)\n    tag_277:\n      swap1\n      swap2\n      swap3\n      swap4\n      0x20\n      tag_283\n      0x01\n      swap3\n      dup7\n      mload\n      swap1\n      0x20\n      0x40\n      swap3\n      dup1\n      mload\n      dup4\n      mstore\n      add\n      mload\n      0x20\n      dup3\n      add\n      mstore\n      add\n      swap1\n      jump\n    tag_283:\n      swap6\n      swap5\n      add\n      swap3\n      swap2\n      add\n      jump(tag_276)\n    tag_274:\n      dup3\n      mload\n      dup6\n      mstore\n      0x20\n      swap5\n      dup6\n      add\n      swap5\n      swap1\n      swap3\n      add\n      swap2\n      0x01\n      add\n      jump(tag_273)\n        /* \"contracts/YunaVaultRouter.sol\":7121:7135  v.maxDeposit() */\n    tag_271:\n      swap1\n      pop\n        /* \"contracts/YunaVaultRouter.sol\":2127:7146  contract YunaVaultRouter is Ownable {... */\n      0x20\n        /* \"contracts/YunaVaultRouter.sol\":7121:7135  v.maxDeposit() */\n      dup2\n      returndatasize\n        /* \"contracts/YunaVaultRouter.sol\":2127:7146  contract YunaVaultRouter is Ownable {... */\n      0x20\n        /* \"contracts/YunaVaultRouter.sol\":7121:7135  v.maxDeposit() */\n      gt\n      tag_284\n      jumpi\n    tag_285:\n      dup2\n      tag_286\n        /* \"contracts/YunaVaultRouter.sol\":2127:7146  contract YunaVaultRouter is Ownable {... */\n      0x20\n        /* \"contracts/YunaVaultRouter.sol\":7121:7135  v.maxDeposit() */\n      swap4\n      dup4\n      tag_8\n      jump\t// in\n    tag_286:\n      dup2\n      add\n        /* \"contracts/YunaVaultRouter.sol\":2127:7146  contract YunaVaultRouter is Ownable {... */\n      sub\n      slt\n      tag_81\n      jumpi\n      mload\n        /* \"contracts/YunaVaultRouter.sol\":7121:7135  v.maxDeposit() */\n      0x00\n      jump(tag_272)\n    tag_284:\n      returndatasize\n      swap2\n      pop\n      jump(tag_285)\n        /* \"contracts/YunaVaultRouter.sol\":7078:7092  v.minDeposit() */\n    tag_267:\n      swap1\n      pop\n        /* \"contracts/YunaVaultRouter.sol\":2127:7146  contract YunaVaultRouter is Ownable {... */\n      0x20\n        /* \"contracts/YunaVaultRouter.sol\":7078:7092  v.minDeposit() */\n      dup2\n      returndatasize\n        /* \"contracts/YunaVaultRouter.sol\":2127:7146  contract YunaVaultRouter is Ownable {... */\n      0x20\n        /* \"contracts/YunaVaultRouter.sol\":7078:7092  v.minDeposit() */\n      gt\n      tag_289\n      jumpi\n    tag_290:\n      dup2\n      tag_291\n        /* \"contracts/YunaVaultRouter.sol\":2127:7146  contract YunaVaultRouter is Ownable {... */\n      0x20\n        /* \"contracts/YunaVaultRouter.sol\":7078:7092  v.minDeposit() */\n      swap4\n      dup4\n      tag_8\n      jump\t// in\n    tag_291:\n      dup2\n      add\n        /* \"contracts/YunaVaultRouter.sol\":2127:7146  contract YunaVaultRouter is Ownable {... */\n      sub\n      slt\n      tag_81\n      jumpi\n      mload\n      0x04\n        /* \"contracts/YunaVaultRouter.sol\":7078:7092  v.minDeposit() */\n      jump(tag_268)\n    tag_289:\n      returndatasize\n      swap2\n      pop\n      jump(tag_290)\n        /* \"contracts/YunaVaultRouter.sol\":6774:6777  i++ */\n    tag_263:\n        /* \"contracts/YunaVaultRouter.sol\":2127:7146  contract YunaVaultRouter is Ownable {... */\n      0x40\n      dup1\n      mload\n      shl(0xe1, 0x503306fd)\n        /* \"contracts/YunaVaultRouter.sol\":6838:6860  v.amountMultipliers(i) */\n      dup2\n      mstore\n        /* \"contracts/YunaVaultRouter.sol\":2127:7146  contract YunaVaultRouter is Ownable {... */\n      0x04\n        /* \"contracts/YunaVaultRouter.sol\":6838:6860  v.amountMultipliers(i) */\n      dup2\n      add\n        /* \"contracts/YunaVaultRouter.sol\":2127:7146  contract YunaVaultRouter is Ownable {... */\n      dup4\n      swap1\n      mstore\n      swap1\n      dup2\n      0x24\n      dup2\n      sub(shl(0xa0, 0x01), 0x01)\n      dup9\n      and\n        /* \"contracts/YunaVaultRouter.sol\":6838:6860  v.amountMultipliers(i) */\n      gas\n      staticcall\n      dup1\n      iszero\n      tag_294\n      jumpi\n      dup3\n        /* \"contracts/YunaVaultRouter.sol\":6774:6777  i++ */\n      tag_296\n        /* \"contracts/YunaVaultRouter.sol\":6838:6860  v.amountMultipliers(i) */\n      swap4\n      swap3\n        /* \"contracts/YunaVaultRouter.sol\":6875:7036  info.amountMultipliers[i] = IVaultFactory.AmountMultiplierIn({... */\n      tag_297\n        /* \"contracts/YunaVaultRouter.sol\":6838:6860  v.amountMultipliers(i) */\n      swap3\n      dup9\n      swap2\n      dup10\n      swap2\n      tag_298\n      jumpi\n        /* \"contracts/YunaVaultRouter.sol\":6774:6777  i++ */\n    tag_299:\n        /* \"contracts/YunaVaultRouter.sol\":2127:7146  contract YunaVaultRouter is Ownable {... */\n      pop\n      mload(0x40)\n      swap2\n      tag_300\n      dup4\n      tag_7\n      jump\t// in\n    tag_300:\n      dup3\n      mstore\n      0x20\n        /* \"contracts/YunaVaultRouter.sol\":6903:7036  IVaultFactory.AmountMultiplierIn({... */\n      dup3\n      add\n        /* \"contracts/YunaVaultRouter.sol\":2127:7146  contract YunaVaultRouter is Ownable {... */\n      mstore\n      0xa0\n      dup10\n      add\n        /* \"contracts/YunaVaultRouter.sol\":6875:6897  info.amountMultipliers */\n      mload\n        /* \"contracts/YunaVaultRouter.sol\":6875:7036  info.amountMultipliers[i] = IVaultFactory.AmountMultiplierIn({... */\n      swap1\n      tag_301\n      dup4\n      dup4\n      tag_12\n      jump\t// in\n    tag_301:\n      mstore\n      tag_12\n      jump\t// in\n    tag_297:\n      pop\n        /* \"contracts/YunaVaultRouter.sol\":6774:6777  i++ */\n      tag_11\n      jump\t// in\n    tag_296:\n        /* \"contracts/YunaVaultRouter.sol\":6744:6757  uint256 i = 0 */\n      jump(tag_262)\n        /* \"contracts/YunaVaultRouter.sol\":6838:6860  v.amountMultipliers(i) */\n    tag_298:\n      swap1\n      pop\n      tag_302\n      swap2\n      pop\n        /* \"contracts/YunaVaultRouter.sol\":2127:7146  contract YunaVaultRouter is Ownable {... */\n      0x40\n        /* \"contracts/YunaVaultRouter.sol\":6838:6860  v.amountMultipliers(i) */\n      returndatasize\n        /* \"contracts/YunaVaultRouter.sol\":2127:7146  contract YunaVaultRouter is Ownable {... */\n      0x40\n        /* \"contracts/YunaVaultRouter.sol\":6838:6860  v.amountMultipliers(i) */\n      gt\n      tag_303\n      jumpi\n    tag_304:\n      tag_305\n      dup2\n      dup4\n      tag_8\n      jump\t// in\n    tag_305:\n      dup2\n      add\n      swap1\n      tag_13\n      jump\t// in\n    tag_302:\n      0x00\n      jump(tag_299)\n    tag_303:\n      pop\n      returndatasize\n      jump(tag_304)\n    tag_294:\n        /* \"contracts/YunaVaultRouter.sol\":2127:7146  contract YunaVaultRouter is Ownable {... */\n      mload(0x40)\n      returndatasize\n      dup8\n      dup3\n      returndatacopy\n      returndatasize\n      swap1\n      revert\n    tag_260:\n      0x20\n      swap1\n      mload(0x40)\n      tag_306\n      dup2\n      tag_7\n      jump\t// in\n    tag_306:\n      0x00\n      dup2\n      mstore\n      0x00\n      dup4\n      dup3\n      add\n      mstore\n      dup3\n      dup3\n      dup7\n      add\n      add\n      mstore\n      add\n      jump(tag_259)\n        /* \"contracts/YunaVaultRouter.sol\":6619:6643  v.amountMultipliersLen() */\n    tag_254:\n      swap1\n      pop\n        /* \"contracts/YunaVaultRouter.sol\":2127:7146  contract YunaVaultRouter is Ownable {... */\n      0x20\n        /* \"contracts/YunaVaultRouter.sol\":6619:6643  v.amountMultipliersLen() */\n      dup2\n      returndatasize\n        /* \"contracts/YunaVaultRouter.sol\":2127:7146  contract YunaVaultRouter is Ownable {... */\n      0x20\n        /* \"contracts/YunaVaultRouter.sol\":6619:6643  v.amountMultipliersLen() */\n      gt\n      tag_307\n      jumpi\n    tag_308:\n      dup2\n      tag_309\n        /* \"contracts/YunaVaultRouter.sol\":2127:7146  contract YunaVaultRouter is Ownable {... */\n      0x20\n        /* \"contracts/YunaVaultRouter.sol\":6619:6643  v.amountMultipliersLen() */\n      swap4\n      dup4\n      tag_8\n      jump\t// in\n    tag_309:\n      dup2\n      add\n        /* \"contracts/YunaVaultRouter.sol\":2127:7146  contract YunaVaultRouter is Ownable {... */\n      sub\n      slt\n      tag_81\n      jumpi\n      mload\n        /* \"contracts/YunaVaultRouter.sol\":6619:6643  v.amountMultipliersLen() */\n      0x00\n      jump(tag_255)\n    tag_307:\n      returndatasize\n      swap2\n      pop\n      jump(tag_308)\n        /* \"contracts/YunaVaultRouter.sol\":6288:6291  i++ */\n    tag_250:\n        /* \"contracts/YunaVaultRouter.sol\":2127:7146  contract YunaVaultRouter is Ownable {... */\n      0x40\n      dup1\n      mload\n      shl(0xe0, 0x5350cbd9)\n        /* \"contracts/YunaVaultRouter.sol\":6352:6372  v.timeMultipliers(i) */\n      dup2\n      mstore\n        /* \"contracts/YunaVaultRouter.sol\":2127:7146  contract YunaVaultRouter is Ownable {... */\n      0x04\n        /* \"contracts/YunaVaultRouter.sol\":6352:6372  v.timeMultipliers(i) */\n      dup2\n      add\n        /* \"contracts/YunaVaultRouter.sol\":2127:7146  contract YunaVaultRouter is Ownable {... */\n      dup4\n      swap1\n      mstore\n      swap1\n      dup2\n      0x24\n      dup2\n      sub(shl(0xa0, 0x01), 0x01)\n      dup9\n      and\n        /* \"contracts/YunaVaultRouter.sol\":6352:6372  v.timeMultipliers(i) */\n      gas\n      staticcall\n      dup1\n      iszero\n      tag_294\n      jumpi\n      dup3\n        /* \"contracts/YunaVaultRouter.sol\":6288:6291  i++ */\n      tag_314\n        /* \"contracts/YunaVaultRouter.sol\":6352:6372  v.timeMultipliers(i) */\n      swap4\n      swap3\n        /* \"contracts/YunaVaultRouter.sol\":6387:6544  info.timeMultipliers[i] = IVaultFactory.TimeMultiplierIn({... */\n      tag_297\n        /* \"contracts/YunaVaultRouter.sol\":6352:6372  v.timeMultipliers(i) */\n      swap3\n      dup9\n      swap2\n      dup10\n      swap2\n      tag_316\n      jumpi\n        /* \"contracts/YunaVaultRouter.sol\":6288:6291  i++ */\n    tag_317:\n        /* \"contracts/YunaVaultRouter.sol\":2127:7146  contract YunaVaultRouter is Ownable {... */\n      pop\n      mload(0x40)\n      swap2\n      tag_318\n      dup4\n      tag_7\n      jump\t// in\n    tag_318:\n      dup3\n      mstore\n      0x20\n        /* \"contracts/YunaVaultRouter.sol\":6413:6544  IVaultFactory.TimeMultiplierIn({... */\n      dup3\n      add\n        /* \"contracts/YunaVaultRouter.sol\":2127:7146  contract YunaVaultRouter is Ownable {... */\n      mstore\n      0x80\n      dup10\n      add\n        /* \"contracts/YunaVaultRouter.sol\":6387:6407  info.timeMultipliers */\n      mload\n        /* \"contracts/YunaVaultRouter.sol\":6387:6544  info.timeMultipliers[i] = IVaultFactory.TimeMultiplierIn({... */\n      swap1\n      tag_301\n      dup4\n      dup4\n      tag_12\n      jump\t// in\n        /* \"contracts/YunaVaultRouter.sol\":6288:6291  i++ */\n    tag_314:\n        /* \"contracts/YunaVaultRouter.sol\":6260:6273  uint256 i = 0 */\n      jump(tag_249)\n        /* \"contracts/YunaVaultRouter.sol\":6352:6372  v.timeMultipliers(i) */\n    tag_316:\n      swap1\n      pop\n      tag_320\n      swap2\n      pop\n        /* \"contracts/YunaVaultRouter.sol\":2127:7146  contract YunaVaultRouter is Ownable {... */\n      0x40\n        /* \"contracts/YunaVaultRouter.sol\":6352:6372  v.timeMultipliers(i) */\n      returndatasize\n        /* \"contracts/YunaVaultRouter.sol\":2127:7146  contract YunaVaultRouter is Ownable {... */\n      0x40\n        /* \"contracts/YunaVaultRouter.sol\":6352:6372  v.timeMultipliers(i) */\n      gt\n      tag_303\n      jumpi\n      tag_305\n      dup2\n      dup4\n      tag_8\n      jump\t// in\n    tag_320:\n      0x00\n      jump(tag_317)\n        /* \"contracts/YunaVaultRouter.sol\":2127:7146  contract YunaVaultRouter is Ownable {... */\n    tag_247:\n      0x20\n      swap1\n      mload(0x40)\n      tag_324\n      dup2\n      tag_7\n      jump\t// in\n    tag_324:\n      0x00\n      dup2\n      mstore\n      0x00\n      dup4\n      dup3\n      add\n      mstore\n      dup3\n      dup3\n      dup7\n      add\n      add\n      mstore\n      add\n      jump(tag_246)\n        /* \"contracts/YunaVaultRouter.sol\":6143:6165  v.timeMultipliersLen() */\n    tag_241:\n      swap1\n      pop\n        /* \"contracts/YunaVaultRouter.sol\":2127:7146  contract YunaVaultRouter is Ownable {... */\n      0x20\n        /* \"contracts/YunaVaultRouter.sol\":6143:6165  v.timeMultipliersLen() */\n      dup2\n      returndatasize\n        /* \"contracts/YunaVaultRouter.sol\":2127:7146  contract YunaVaultRouter is Ownable {... */\n      0x20\n        /* \"contracts/YunaVaultRouter.sol\":6143:6165  v.timeMultipliersLen() */\n      gt\n      tag_325\n      jumpi\n    tag_326:\n      dup2\n      tag_327\n        /* \"contracts/YunaVaultRouter.sol\":2127:7146  contract YunaVaultRouter is Ownable {... */\n      0x20\n        /* \"contracts/YunaVaultRouter.sol\":6143:6165  v.timeMultipliersLen() */\n      swap4\n      dup4\n      tag_8\n      jump\t// in\n    tag_327:\n      dup2\n      add\n        /* \"contracts/YunaVaultRouter.sol\":2127:7146  contract YunaVaultRouter is Ownable {... */\n      sub\n      slt\n      tag_81\n      jumpi\n      mload\n        /* \"contracts/YunaVaultRouter.sol\":6143:6165  v.timeMultipliersLen() */\n      0x00\n      jump(tag_242)\n    tag_325:\n      returndatasize\n      swap2\n      pop\n      jump(tag_326)\n        /* \"contracts/YunaVaultRouter.sol\":6014:6017  i++ */\n    tag_237:\n        /* \"contracts/YunaVaultRouter.sol\":2127:7146  contract YunaVaultRouter is Ownable {... */\n      mload(0x40)\n      shl(0xe0, 0x10390d35)\n        /* \"contracts/YunaVaultRouter.sol\":6056:6072  v.presetTimes(i) */\n      dup2\n      mstore\n        /* \"contracts/YunaVaultRouter.sol\":2127:7146  contract YunaVaultRouter is Ownable {... */\n      0x04\n        /* \"contracts/YunaVaultRouter.sol\":6056:6072  v.presetTimes(i) */\n      dup2\n      add\n        /* \"contracts/YunaVaultRouter.sol\":2127:7146  contract YunaVaultRouter is Ownable {... */\n      dup3\n      swap1\n      mstore\n      swap1\n      0x20\n      dup3\n      0x24\n      dup2\n      sub(shl(0xa0, 0x01), 0x01)\n      dup9\n      and\n        /* \"contracts/YunaVaultRouter.sol\":6056:6072  v.presetTimes(i) */\n      gas\n      staticcall\n      dup1\n      iszero\n      tag_294\n      jumpi\n      dup6\n      swap1\n      tag_332\n      jumpi\n        /* \"contracts/YunaVaultRouter.sol\":6014:6017  i++ */\n    tag_333:\n      tag_334\n        /* \"contracts/YunaVaultRouter.sol\":2127:7146  contract YunaVaultRouter is Ownable {... */\n      swap3\n      pop\n        /* \"contracts/YunaVaultRouter.sol\":6034:6072  info.presetTimes[i] = v.presetTimes(i) */\n      tag_335\n        /* \"contracts/YunaVaultRouter.sol\":2127:7146  contract YunaVaultRouter is Ownable {... */\n      dup3\n      0x60\n      dup10\n      add\n        /* \"contracts/YunaVaultRouter.sol\":6034:6050  info.presetTimes */\n      mload\n        /* \"contracts/YunaVaultRouter.sol\":6034:6072  info.presetTimes[i] = v.presetTimes(i) */\n      tag_12\n      jump\t// in\n    tag_335:\n        /* \"contracts/YunaVaultRouter.sol\":2127:7146  contract YunaVaultRouter is Ownable {... */\n      mstore\n        /* \"contracts/YunaVaultRouter.sol\":6014:6017  i++ */\n      tag_11\n      jump\t// in\n    tag_334:\n        /* \"contracts/YunaVaultRouter.sol\":5990:6003  uint256 i = 0 */\n      jump(tag_236)\n        /* \"contracts/YunaVaultRouter.sol\":6056:6072  v.presetTimes(i) */\n    tag_332:\n      pop\n        /* \"contracts/YunaVaultRouter.sol\":2127:7146  contract YunaVaultRouter is Ownable {... */\n      0x20\n        /* \"contracts/YunaVaultRouter.sol\":6056:6072  v.presetTimes(i) */\n      dup3\n      returndatasize\n        /* \"contracts/YunaVaultRouter.sol\":2127:7146  contract YunaVaultRouter is Ownable {... */\n      0x20\n        /* \"contracts/YunaVaultRouter.sol\":6056:6072  v.presetTimes(i) */\n      gt\n      tag_336\n      jumpi\n    tag_337:\n      dup2\n      tag_338\n        /* \"contracts/YunaVaultRouter.sol\":2127:7146  contract YunaVaultRouter is Ownable {... */\n      0x20\n        /* \"contracts/YunaVaultRouter.sol\":6056:6072  v.presetTimes(i) */\n      swap4\n      dup4\n      tag_8\n      jump\t// in\n    tag_338:\n      dup2\n      add\n        /* \"contracts/YunaVaultRouter.sol\":2127:7146  contract YunaVaultRouter is Ownable {... */\n      sub\n      slt\n      tag_81\n      jumpi\n        /* \"contracts/YunaVaultRouter.sol\":6014:6017  i++ */\n      tag_334\n        /* \"contracts/YunaVaultRouter.sol\":2127:7146  contract YunaVaultRouter is Ownable {... */\n      swap2\n      mload\n        /* \"contracts/YunaVaultRouter.sol\":6056:6072  v.presetTimes(i) */\n      jump(tag_333)\n    tag_336:\n      returndatasize\n      swap2\n      pop\n      jump(tag_337)\n        /* \"contracts/YunaVaultRouter.sol\":5908:5926  v.presetTimesLen() */\n    tag_231:\n      swap1\n      pop\n        /* \"contracts/YunaVaultRouter.sol\":2127:7146  contract YunaVaultRouter is Ownable {... */\n      0x20\n        /* \"contracts/YunaVaultRouter.sol\":5908:5926  v.presetTimesLen() */\n      dup2\n      returndatasize\n        /* \"contracts/YunaVaultRouter.sol\":2127:7146  contract YunaVaultRouter is Ownable {... */\n      0x20\n        /* \"contracts/YunaVaultRouter.sol\":5908:5926  v.presetTimesLen() */\n      gt\n      tag_341\n      jumpi\n    tag_342:\n      dup2\n      tag_343\n        /* \"contracts/YunaVaultRouter.sol\":2127:7146  contract YunaVaultRouter is Ownable {... */\n      0x20\n        /* \"contracts/YunaVaultRouter.sol\":5908:5926  v.presetTimesLen() */\n      swap4\n      dup4\n      tag_8\n      jump\t// in\n    tag_343:\n      dup2\n      add\n        /* \"contracts/YunaVaultRouter.sol\":2127:7146  contract YunaVaultRouter is Ownable {... */\n      sub\n      slt\n      tag_81\n      jumpi\n      mload\n        /* \"contracts/YunaVaultRouter.sol\":5908:5926  v.presetTimesLen() */\n      0x00\n      jump(tag_232)\n    tag_341:\n      returndatasize\n      swap2\n      pop\n      jump(tag_342)\n        /* \"contracts/YunaVaultRouter.sol\":5846:5856  v.xpRate() */\n    tag_227:\n      swap1\n      pop\n        /* \"contracts/YunaVaultRouter.sol\":2127:7146  contract YunaVaultRouter is Ownable {... */\n      0x20\n        /* \"contracts/YunaVaultRouter.sol\":5846:5856  v.xpRate() */\n      dup2\n      returndatasize\n        /* \"contracts/YunaVaultRouter.sol\":2127:7146  contract YunaVaultRouter is Ownable {... */\n      0x20\n        /* \"contracts/YunaVaultRouter.sol\":5846:5856  v.xpRate() */\n      gt\n      tag_346\n      jumpi\n    tag_347:\n      dup2\n      tag_348\n        /* \"contracts/YunaVaultRouter.sol\":2127:7146  contract YunaVaultRouter is Ownable {... */\n      0x20\n        /* \"contracts/YunaVaultRouter.sol\":5846:5856  v.xpRate() */\n      swap4\n      dup4\n      tag_8\n      jump\t// in\n    tag_348:\n      dup2\n      add\n        /* \"contracts/YunaVaultRouter.sol\":2127:7146  contract YunaVaultRouter is Ownable {... */\n      sub\n      slt\n      tag_349\n      jumpi\n      mload\n        /* \"contracts/YunaVaultRouter.sol\":5846:5856  v.xpRate() */\n      0x00\n      jump(tag_228)\n        /* \"contracts/YunaVaultRouter.sol\":2127:7146  contract YunaVaultRouter is Ownable {... */\n    tag_349:\n      dup3\n      dup1\n      revert\n        /* \"contracts/YunaVaultRouter.sol\":5846:5856  v.xpRate() */\n    tag_346:\n      returndatasize\n      swap2\n      pop\n      jump(tag_347)\n        /* \"contracts/YunaVaultRouter.sol\":5812:5821  v.token() */\n    tag_223:\n      swap1\n      pop\n        /* \"contracts/YunaVaultRouter.sol\":2127:7146  contract YunaVaultRouter is Ownable {... */\n      0x20\n        /* \"contracts/YunaVaultRouter.sol\":5812:5821  v.token() */\n      dup2\n      returndatasize\n        /* \"contracts/YunaVaultRouter.sol\":2127:7146  contract YunaVaultRouter is Ownable {... */\n      0x20\n        /* \"contracts/YunaVaultRouter.sol\":5812:5821  v.token() */\n      gt\n      tag_351\n      jumpi\n    tag_352:\n      dup2\n      tag_353\n        /* \"contracts/YunaVaultRouter.sol\":2127:7146  contract YunaVaultRouter is Ownable {... */\n      0x20\n        /* \"contracts/YunaVaultRouter.sol\":5812:5821  v.token() */\n      swap4\n      dup4\n      tag_8\n      jump\t// in\n    tag_353:\n      dup2\n      add\n        /* \"contracts/YunaVaultRouter.sol\":2127:7146  contract YunaVaultRouter is Ownable {... */\n      sub\n      slt\n      tag_349\n      jumpi\n      tag_356\n      swap1\n      tag_9\n      jump\t// in\n    tag_356:\n        /* \"contracts/YunaVaultRouter.sol\":5812:5821  v.token() */\n      0x00\n      jump(tag_224)\n    tag_351:\n      returndatasize\n      swap2\n      pop\n      jump(tag_352)\n        /* \"contracts/YunaVaultRouter.sol\":5776:5788  v.isActive() */\n    tag_219:\n      swap1\n      pop\n        /* \"contracts/YunaVaultRouter.sol\":2127:7146  contract YunaVaultRouter is Ownable {... */\n      0x20\n        /* \"contracts/YunaVaultRouter.sol\":5776:5788  v.isActive() */\n      dup2\n      returndatasize\n        /* \"contracts/YunaVaultRouter.sol\":2127:7146  contract YunaVaultRouter is Ownable {... */\n      0x20\n        /* \"contracts/YunaVaultRouter.sol\":5776:5788  v.isActive() */\n      gt\n      tag_357\n      jumpi\n    tag_358:\n      dup2\n      tag_359\n        /* \"contracts/YunaVaultRouter.sol\":2127:7146  contract YunaVaultRouter is Ownable {... */\n      0x20\n        /* \"contracts/YunaVaultRouter.sol\":5776:5788  v.isActive() */\n      swap4\n      dup4\n      tag_8\n      jump\t// in\n    tag_359:\n      dup2\n      add\n        /* \"contracts/YunaVaultRouter.sol\":2127:7146  contract YunaVaultRouter is Ownable {... */\n      sub\n      slt\n      tag_349\n      jumpi\n      mload\n      dup1\n      iszero\n      iszero\n      dup2\n      sub\n      tag_349\n      jumpi\n        /* \"contracts/YunaVaultRouter.sol\":5776:5788  v.isActive() */\n      0x00\n      jump(tag_220)\n    tag_357:\n      returndatasize\n      swap2\n      pop\n      jump(tag_358)\n        /* \"contracts/YunaVaultRouter.sol\":2127:7146  contract YunaVaultRouter is Ownable {... */\n    tag_215:\n      mstore(0x00, shl(0xe0, 0x4e487b71))\n      mstore(0x04, 0x41)\n      revert(0x00, 0x24)\n    tag_34:\n      pop\n      jumpi(tag_60, callvalue)\n      dup1\n      add(calldatasize, not(0x03))\n      slt\n      tag_60\n      jumpi\n      sload\n      mload(0x40)\n      sub(shl(0xa0, 0x01), 0x01)\n      swap1\n      swap2\n      and\n      dup2\n      mstore\n      0x20\n      swap1\n      return\n    tag_30:\n      pop\n      jumpi(tag_60, callvalue)\n      dup1\n      add(calldatasize, not(0x03))\n      slt\n      tag_60\n      jumpi\n        /* \"@openzeppelin/contracts/access/Ownable.sol\":1500:1562  modifier onlyOwner() {... */\n      tag_376\n      tag_4\n      jump\t// in\n    tag_376:\n        /* \"contracts/YunaVaultRouter.sol\":2127:7146  contract YunaVaultRouter is Ownable {... */\n      0x00\n      dup1\n      sload\n      not(sub(shl(0xa0, 0x01), 0x01))\n      dup2\n      and\n      dup3\n      sstore\n      sub(shl(0xa0, 0x01), 0x01)\n      and\n        /* \"@openzeppelin/contracts/access/Ownable.sol\":3052:3092  OwnershipTransferred(oldOwner, newOwner) */\n      0x8be0079c531659141344cd1fd0a4f28419497f9722a3daafe3b4186f6b6457e0\n        /* \"contracts/YunaVaultRouter.sol\":2127:7146  contract YunaVaultRouter is Ownable {... */\n      dup3\n      dup1\n        /* \"@openzeppelin/contracts/access/Ownable.sol\":3052:3092  OwnershipTransferred(oldOwner, newOwner) */\n      log3\n        /* \"contracts/YunaVaultRouter.sol\":2127:7146  contract YunaVaultRouter is Ownable {... */\n      dup1\n      return\n    tag_28:\n      pop\n      jumpi(tag_60, callvalue)\n      jumpi(tag_60, slt(add(not(0x03), calldatasize), 0x20))\n      tag_381\n      tag_1\n      jump\t// in\n    tag_381:\n        /* \"@openzeppelin/contracts/access/Ownable.sol\":1500:1562  modifier onlyOwner() {... */\n      tag_382\n      tag_4\n      jump\t// in\n    tag_382:\n      sub(shl(0xa0, 0x01), 0x01)\n        /* \"contracts/YunaVaultRouter.sol\":2127:7146  contract YunaVaultRouter is Ownable {... */\n      and\n        /* \"contracts/YunaVaultRouter.sol\":2704:2726  _factory != address(0) */\n      dup1\n      iszero\n        /* \"contracts/YunaVaultRouter.sol\":2127:7146  contract YunaVaultRouter is Ownable {... */\n      tag_383\n      jumpi\n      and(sload(0x01), shl(0xa0, 0xffffffffffffffffffffffff))\n      or\n      0x01\n      sstore\n      dup1\n      return\n    tag_383:\n      mload(0x40)\n      shl(0xe5, 0x461bcd)\n      dup2\n      mstore\n      0x20\n      0x04\n      dup3\n      add\n      mstore\n      0x09\n      0x24\n      dup3\n      add\n      mstore\n      shl(0xbc, 0x0666163746f7279203)\n      0x44\n      dup3\n      add\n      mstore\n      0x64\n      swap1\n      revert\n    tag_26:\n      pop\n      jumpi(tag_60, callvalue)\n      jumpi(tag_60, slt(add(not(0x03), calldatasize), 0x20))\n      dup1\n      tag_389\n      tag_1\n      jump\t// in\n    tag_389:\n        /* \"contracts/YunaVaultRouter.sol\":2286:2332  require(isRouterEnabled, \"Router is disabled\") */\n      tag_390\n        /* \"contracts/YunaVaultRouter.sol\":2127:7146  contract YunaVaultRouter is Ownable {... */\n      0xff\n      dup4\n      sload\n      0xa0\n      shr\n      and\n        /* \"contracts/YunaVaultRouter.sol\":2286:2332  require(isRouterEnabled, \"Router is disabled\") */\n      tag_5\n      jump\t// in\n    tag_390:\n      sub(shl(0xa0, 0x01), 0x01)\n        /* \"contracts/YunaVaultRouter.sol\":2127:7146  contract YunaVaultRouter is Ownable {... */\n      and\n        /* \"contracts/YunaVaultRouter.sol\":5074:5108  IVaultExtended(vault).releaseAll() */\n      dup1\n      extcodesize\n      iszero\n      tag_391\n      jumpi\n        /* \"contracts/YunaVaultRouter.sol\":2127:7146  contract YunaVaultRouter is Ownable {... */\n      dup2\n      dup1\n      swap2\n      0x04\n      mload(0x40)\n      dup1\n      swap5\n      dup2\n      swap4\n      shl(0xe3, 0x0b7cffbd)\n        /* \"contracts/YunaVaultRouter.sol\":5074:5108  IVaultExtended(vault).releaseAll() */\n      dup4\n      mstore\n      gas\n      call\n      dup1\n      iszero\n      tag_70\n      jumpi\n      tag_117\n      jumpi\n        /* \"contracts/YunaVaultRouter.sol\":2127:7146  contract YunaVaultRouter is Ownable {... */\n      pop\n      return\n        /* \"contracts/YunaVaultRouter.sol\":5074:5108  IVaultExtended(vault).releaseAll() */\n    tag_391:\n        /* \"contracts/YunaVaultRouter.sol\":2127:7146  contract YunaVaultRouter is Ownable {... */\n      pop\n      revert\n    tag_24:\n      pop\n      jumpi(tag_60, callvalue)\n      dup1\n      add(calldatasize, not(0x03))\n      slt\n      tag_60\n      jumpi\n      0xff\n      0x20\n      swap2\n      sload\n      0xa0\n      shr\n      and\n      mload(0x40)\n      swap1\n      iszero\n      iszero\n      dup2\n      mstore\n      return\n    tag_22:\n      pop\n      jumpi(tag_60, callvalue)\n      jumpi(tag_60, slt(add(not(0x03), calldatasize), 0x20))\n      dup1\n      tag_408\n      tag_1\n      jump\t// in\n    tag_408:\n        /* \"contracts/YunaVaultRouter.sol\":2286:2332  require(isRouterEnabled, \"Router is disabled\") */\n      tag_409\n        /* \"contracts/YunaVaultRouter.sol\":2127:7146  contract YunaVaultRouter is Ownable {... */\n      0xff\n      dup4\n      sload\n      0xa0\n      shr\n      and\n        /* \"contracts/YunaVaultRouter.sol\":2286:2332  require(isRouterEnabled, \"Router is disabled\") */\n      tag_5\n      jump\t// in\n    tag_409:\n      sub(shl(0xa0, 0x01), 0x01)\n        /* \"contracts/YunaVaultRouter.sol\":2127:7146  contract YunaVaultRouter is Ownable {... */\n      and\n        /* \"contracts/YunaVaultRouter.sol\":4950:4981  IVaultExtended(vault).release() */\n      dup1\n      extcodesize\n      iszero\n      tag_391\n      jumpi\n        /* \"contracts/YunaVaultRouter.sol\":2127:7146  contract YunaVaultRouter is Ownable {... */\n      dup2\n      dup1\n      swap2\n      0x04\n      mload(0x40)\n      dup1\n      swap5\n      dup2\n      swap4\n      shl(0xe0, 0x86d1a69f)\n        /* \"contracts/YunaVaultRouter.sol\":4950:4981  IVaultExtended(vault).release() */\n      dup4\n      mstore\n      gas\n      call\n      dup1\n      iszero\n      tag_70\n      jumpi\n      tag_117\n      jumpi\n        /* \"contracts/YunaVaultRouter.sol\":2127:7146  contract YunaVaultRouter is Ownable {... */\n      pop\n      return\n    tag_20:\n      pop\n      jumpi(tag_60, callvalue)\n      jumpi(tag_60, slt(add(not(0x03), calldatasize), 0x60))\n      dup1\n      tag_423\n      tag_1\n      jump\t// in\n    tag_423:\n        /* \"contracts/YunaVaultRouter.sol\":2286:2332  require(isRouterEnabled, \"Router is disabled\") */\n      tag_424\n        /* \"contracts/YunaVaultRouter.sol\":2127:7146  contract YunaVaultRouter is Ownable {... */\n      0xff\n      dup4\n      sload\n      0xa0\n      shr\n      and\n        /* \"contracts/YunaVaultRouter.sol\":2286:2332  require(isRouterEnabled, \"Router is disabled\") */\n      tag_5\n      jump\t// in\n    tag_424:\n      sub(shl(0xa0, 0x01), 0x01)\n        /* \"contracts/YunaVaultRouter.sol\":2127:7146  contract YunaVaultRouter is Ownable {... */\n      and\n        /* \"contracts/YunaVaultRouter.sol\":4810:4860  IVaultExtended(vault).stake(amount, blocksToStake) */\n      dup1\n      extcodesize\n      iszero\n      tag_391\n      jumpi\n        /* \"contracts/YunaVaultRouter.sol\":2127:7146  contract YunaVaultRouter is Ownable {... */\n      dup2\n      dup1\n      swap2\n      0x44\n      mload(0x40)\n      dup1\n      swap5\n      dup2\n      swap4\n      shl(0xe4, 0x07b0472f)\n        /* \"contracts/YunaVaultRouter.sol\":4810:4860  IVaultExtended(vault).stake(amount, blocksToStake) */\n      dup4\n      mstore\n        /* \"contracts/YunaVaultRouter.sol\":2127:7146  contract YunaVaultRouter is Ownable {... */\n      calldataload(0x24)\n      0x04\n        /* \"contracts/YunaVaultRouter.sol\":4810:4860  IVaultExtended(vault).stake(amount, blocksToStake) */\n      dup5\n      add\n        /* \"contracts/YunaVaultRouter.sol\":2127:7146  contract YunaVaultRouter is Ownable {... */\n      mstore\n      dup4\n      calldataload\n      0x24\n      dup5\n      add\n      mstore\n        /* \"contracts/YunaVaultRouter.sol\":4810:4860  IVaultExtended(vault).stake(amount, blocksToStake) */\n      gas\n      call\n      dup1\n      iszero\n      tag_70\n      jumpi\n      tag_117\n      jumpi\n        /* \"contracts/YunaVaultRouter.sol\":2127:7146  contract YunaVaultRouter is Ownable {... */\n      pop\n      return\n    tag_18:\n      pop\n      jumpi(tag_60, callvalue)\n      jumpi(tag_60, slt(add(not(0x03), calldatasize), 0x40))\n        /* \"@openzeppelin/contracts/access/Ownable.sol\":1500:1562  modifier onlyOwner() {... */\n      tag_438\n      tag_4\n      jump\t// in\n    tag_438:\n        /* \"contracts/YunaVaultRouter.sol\":2127:7146  contract YunaVaultRouter is Ownable {... */\n      sload(0x01)\n      dup2\n      swap1\n      sub(shl(0xa0, 0x01), 0x01)\n      and\n        /* \"contracts/YunaVaultRouter.sol\":4170:4228  IVaultFactory(factory).setFees(protocolFeeBP, callerFeeBP) */\n      dup1\n      extcodesize\n      iszero\n      tag_391\n      jumpi\n        /* \"contracts/YunaVaultRouter.sol\":2127:7146  contract YunaVaultRouter is Ownable {... */\n      dup2\n      swap1\n      0x44\n      mload(0x40)\n      dup1\n      swap5\n      dup2\n      swap4\n      shl(0xe6, 0x2de3e7)\n        /* \"contracts/YunaVaultRouter.sol\":4170:4228  IVaultFactory(factory).setFees(protocolFeeBP, callerFeeBP) */\n      dup4\n      mstore\n        /* \"contracts/YunaVaultRouter.sol\":2127:7146  contract YunaVaultRouter is Ownable {... */\n      calldataload(0x04)\n      0x04\n        /* \"contracts/YunaVaultRouter.sol\":4170:4228  IVaultFactory(factory).setFees(protocolFeeBP, callerFeeBP) */\n      dup5\n      add\n        /* \"contracts/YunaVaultRouter.sol\":2127:7146  contract YunaVaultRouter is Ownable {... */\n      mstore\n      calldataload(0x24)\n      0x24\n      dup5\n      add\n      mstore\n        /* \"contracts/YunaVaultRouter.sol\":4170:4228  IVaultFactory(factory).setFees(protocolFeeBP, callerFeeBP) */\n      gas\n      call\n      dup1\n      iszero\n      tag_70\n      jumpi\n      tag_443\n      jumpi\n        /* \"contracts/YunaVaultRouter.sol\":2127:7146  contract YunaVaultRouter is Ownable {... */\n      pop\n      dup1\n      return\n        /* \"contracts/YunaVaultRouter.sol\":4170:4228  IVaultFactory(factory).setFees(protocolFeeBP, callerFeeBP) */\n    tag_443:\n      tag_445\n      swap1\n      tag_6\n      jump\t// in\n    tag_445:\n        /* \"contracts/YunaVaultRouter.sol\":2127:7146  contract YunaVaultRouter is Ownable {... */\n      dup1\n      return\n    tag_16:\n      swap1\n      pop\n      jumpi(tag_460, callvalue)\n      jumpi(tag_460, slt(add(not(0x03), calldatasize), 0x40))\n      tag_450\n      tag_1\n      jump\t// in\n    tag_450:\n      sub(shl(0xa0, 0x01), 0x01)\n      calldataload(0x24)\n      dup2\n      dup2\n      and\n      swap3\n      swap1\n      dup4\n      swap1\n      sub\n      tag_155\n      jumpi\n      dup4\n      dup1\n      swap3\n      0x24\n      swap3\n      0x20\n      swap6\n      shl(0xe2, 0x18e521fd)\n        /* \"contracts/YunaVaultRouter.sol\":5220:5255  IVaultExtended(vault).getXP(holder) */\n      dup5\n      mstore\n        /* \"contracts/YunaVaultRouter.sol\":2127:7146  contract YunaVaultRouter is Ownable {... */\n      0x04\n        /* \"contracts/YunaVaultRouter.sol\":5220:5255  IVaultExtended(vault).getXP(holder) */\n      dup5\n      add\n        /* \"contracts/YunaVaultRouter.sol\":2127:7146  contract YunaVaultRouter is Ownable {... */\n      mstore\n      and\n        /* \"contracts/YunaVaultRouter.sol\":5220:5255  IVaultExtended(vault).getXP(holder) */\n      gas\n      staticcall\n      swap1\n      dup2\n      iszero\n      tag_70\n      jumpi\n      dup3\n      swap2\n      tag_455\n      jumpi\n        /* \"contracts/YunaVaultRouter.sol\":2127:7146  contract YunaVaultRouter is Ownable {... */\n    tag_456:\n      0x20\n      dup3\n      mload(0x40)\n      swap1\n      dup2\n      mstore\n      return\n        /* \"contracts/YunaVaultRouter.sol\":5220:5255  IVaultExtended(vault).getXP(holder) */\n    tag_455:\n      swap1\n      pop\n        /* \"contracts/YunaVaultRouter.sol\":2127:7146  contract YunaVaultRouter is Ownable {... */\n      0x20\n        /* \"contracts/YunaVaultRouter.sol\":5220:5255  IVaultExtended(vault).getXP(holder) */\n      dup2\n      returndatasize\n      dup3\n      gt\n      tag_457\n      jumpi\n    tag_458:\n      dup2\n      tag_459\n        /* \"contracts/YunaVaultRouter.sol\":2127:7146  contract YunaVaultRouter is Ownable {... */\n      0x20\n        /* \"contracts/YunaVaultRouter.sol\":5220:5255  IVaultExtended(vault).getXP(holder) */\n      swap4\n      dup4\n      tag_8\n      jump\t// in\n    tag_459:\n      dup2\n      add\n        /* \"contracts/YunaVaultRouter.sol\":2127:7146  contract YunaVaultRouter is Ownable {... */\n      sub\n      slt\n      tag_460\n      jumpi\n      0x20\n      swap2\n      pop\n      mload\n        /* \"contracts/YunaVaultRouter.sol\":5220:5255  IVaultExtended(vault).getXP(holder) */\n      0x00\n      jump(tag_456)\n        /* \"contracts/YunaVaultRouter.sol\":2127:7146  contract YunaVaultRouter is Ownable {... */\n    tag_460:\n      pop\n      dup1\n      revert\n        /* \"contracts/YunaVaultRouter.sol\":5220:5255  IVaultExtended(vault).getXP(holder) */\n    tag_457:\n      returndatasize\n      swap2\n      pop\n      jump(tag_458)\n        /* \"contracts/YunaVaultRouter.sol\":2127:7146  contract YunaVaultRouter is Ownable {... */\n    tag_1:\n      calldataload(0x04)\n      swap1\n      sub(shl(0xa0, 0x01), 0x01)\n      dup3\n      and\n      dup3\n      sub\n      tag_81\n      jumpi\n      jump\t// out\n    tag_3:\n      swap2\n      dup2\n      0x1f\n      dup5\n      add\n      slt\n      iszero\n      tag_81\n      jumpi\n      dup3\n      calldataload\n      swap2\n      0xffffffffffffffff\n      dup4\n      gt\n      tag_81\n      jumpi\n      0x20\n      dup1\n      dup6\n      add\n      swap5\n      dup5\n      0x06\n      shl\n      add\n      add\n      gt\n      tag_81\n      jumpi\n      jump\t// out\n        /* \"@openzeppelin/contracts/access/Ownable.sol\":1796:1958  function _checkOwner() internal view virtual {... */\n    tag_4:\n        /* \"@openzeppelin/contracts/access/Ownable.sol\":1710:1716  _owner */\n      0x00\n        /* \"contracts/YunaVaultRouter.sol\":2127:7146  contract YunaVaultRouter is Ownable {... */\n      sload\n      sub(shl(0xa0, 0x01), 0x01)\n      and\n        /* \"@openzeppelin/contracts/utils/Context.sol\":735:745  msg.sender */\n      caller\n        /* \"@openzeppelin/contracts/access/Ownable.sol\":1855:1878  owner() != _msgSender() */\n      sub\n        /* \"@openzeppelin/contracts/access/Ownable.sol\":1851:1952  if (owner() != _msgSender()) {... */\n      tag_470\n      jumpi\n        /* \"@openzeppelin/contracts/access/Ownable.sol\":1796:1958  function _checkOwner() internal view virtual {... */\n      jump\t// out\n        /* \"@openzeppelin/contracts/access/Ownable.sol\":1851:1952  if (owner() != _msgSender()) {... */\n    tag_470:\n        /* \"contracts/YunaVaultRouter.sol\":2127:7146  contract YunaVaultRouter is Ownable {... */\n      mload(0x40)\n      shl(0xe0, 0x118cdaa7)\n        /* \"@openzeppelin/contracts/access/Ownable.sol\":1901:1941  OwnableUnauthorizedAccount(_msgSender()) */\n      dup2\n      mstore\n        /* \"@openzeppelin/contracts/utils/Context.sol\":735:745  msg.sender */\n      caller\n        /* \"@openzeppelin/contracts/access/Ownable.sol\":1901:1941  OwnableUnauthorizedAccount(_msgSender()) */\n      0x04\n      dup3\n      add\n        /* \"contracts/YunaVaultRouter.sol\":2127:7146  contract YunaVaultRouter is Ownable {... */\n      mstore\n      0x24\n      swap1\n        /* \"@openzeppelin/contracts/access/Ownable.sol\":1901:1941  OwnableUnauthorizedAccount(_msgSender()) */\n      revert\n        /* \"contracts/YunaVaultRouter.sol\":2127:7146  contract YunaVaultRouter is Ownable {... */\n    tag_5:\n      iszero\n      tag_472\n      jumpi\n      jump\t// out\n    tag_472:\n      mload(0x40)\n      shl(0xe5, 0x461bcd)\n      dup2\n      mstore\n      0x20\n      0x04\n      dup3\n      add\n      mstore\n      0x12\n      0x24\n      dup3\n      add\n      mstore\n      shl(0x72, 0x149bdd5d195c881a5cc8191a5cd8589b1959)\n      0x44\n      dup3\n      add\n      mstore\n      0x64\n      swap1\n      revert\n    tag_6:\n      0xffffffffffffffff\n      dup2\n      gt\n      tag_215\n      jumpi\n      0x40\n      mstore\n      jump\t// out\n    tag_7:\n      0x40\n      dup2\n      add\n      swap1\n      dup2\n      lt\n      0xffffffffffffffff\n      dup3\n      gt\n      or\n      tag_215\n      jumpi\n      0x40\n      mstore\n      jump\t// out\n    tag_8:\n      swap1\n      0x1f\n      dup1\n      not\n      swap2\n      add\n      and\n      dup2\n      add\n      swap1\n      dup2\n      lt\n      0xffffffffffffffff\n      dup3\n      gt\n      or\n      tag_215\n      jumpi\n      0x40\n      mstore\n      jump\t// out\n    tag_9:\n      mload\n      swap1\n      sub(shl(0xa0, 0x01), 0x01)\n      dup3\n      and\n      dup3\n      sub\n      tag_81\n      jumpi\n      jump\t// out\n    tag_10:\n      0xffffffffffffffff\n      dup2\n      gt\n      tag_215\n      jumpi\n      0x05\n      shl\n      0x20\n      add\n      swap1\n      jump\t// out\n    tag_11:\n      not(0x00)\n      dup2\n      eq\n      tag_484\n      jumpi\n      0x01\n      add\n      swap1\n      jump\t// out\n    tag_484:\n      mstore(0x00, shl(0xe0, 0x4e487b71))\n      mstore(0x04, 0x11)\n      revert(0x00, 0x24)\n    tag_12:\n      dup1\n      mload\n      dup3\n      lt\n      iszero\n      tag_486\n      jumpi\n      0x20\n      swap2\n      0x05\n      shl\n      add\n      add\n      swap1\n      jump\t// out\n    tag_486:\n      mstore(0x00, shl(0xe0, 0x4e487b71))\n      mstore(0x04, 0x32)\n      revert(0x00, 0x24)\n    tag_13:\n      swap2\n      swap1\n      dup3\n      0x40\n      swap2\n      sub\n      slt\n      tag_81\n      jumpi\n      0x20\n      dup3\n      mload\n      swap3\n      add\n      mload\n      swap1\n      jump\t// out\n\n    auxdata: 0xa264697066735822122054752831ce02d102fcbfe0e78546275a31a69271516278471c594d0440704cb264736f6c63430008140033\n}\n",
				"bytecode": {
					"linkReferences": {},
					"object": "60803462000141576200165e90601f38839003908101601f19168201906001600160401b0382118383101762000145578083916040958694855283398101031262000141576200005d6020620000558362000159565b920162000159565b9033156200012a5762000070336200016e565b5f805460ff60a01b1916600160a01b1790556001600160a01b03908116908115620000fa57821615620000c957600180546001600160a01b0319169091179055620000bb906200016e565b516114a99081620001b58239f35b825162461bcd60e51b815260206004820152600a602482015269070726f746f636f6c20360b41b6044820152606490fd5b835162461bcd60e51b81526020600482015260096024820152680666163746f727920360bc1b6044820152606490fd5b8251631e4fbdf760e01b81525f6004820152602490fd5b5f80fd5b634e487b7160e01b5f52604160045260245ffd5b51906001600160a01b03821682036200014157565b5f80546001600160a01b039283166001600160a01b03198216811783559216907f8be0079c531659141344cd1fd0a4f28419497f9722a3daafe3b4186f6b6457e09080a356fe6080806040526004361015610012575f80fd5b5f90813560e01c90816305e2e95d14611243575080630b78f9c0146111d45780630c51b88f14611165578063191655871461110557806355197241146110e0578063580fc80a1461107d5780635bb4780814611000578063715018a614610fa757806388cc58e4146103c65780638da5cb5b14610f8057806390229af7146107c857806397331bf914610693578063a444477b146104b9578063b0f07f151461048c578063b1e3a941146103ef578063c45a0155146103c6578063c99cb2b714610343578063d16352af146102b0578063d858a7e514610288578063db8d55f1146101945763f2fde38b14610105575f80fd5b346101915760203660031901126101915761011e6112e2565b610126611329565b6001600160a01b03908116908115610178575f54826bffffffffffffffffffffffff60a01b8216175f55167f8be0079c531659141344cd1fd0a4f28419497f9722a3daafe3b4186f6b6457e05f80a380f35b604051631e4fbdf760e01b815260048101849052602490fd5b80fd5b50346101915780600319360112610191576001546040516318bf741760e31b81526001600160a01b039091169160208083600481875afa92831561027d57829361024c575b50806004946040519586809263f25e78b160e01b82525afa918215610240579161020c575b604080945051928352820152f35b80915083813d8311610239575b61022381836113c5565b810103126102355760409251906101fe565b5f80fd5b503d610219565b604051903d90823e3d90fd5b9392508084813d8311610276575b61026481836113c5565b810103126102355792519192806101d9565b503d61025a565b6040513d84823e3d90fd5b50346101915780600319360112610191576102a1611329565b5f805460ff60a01b1916905580f35b5034610191578060031936011261019157600154604051634673a21360e11b815291906001600160a01b03906020908490600490829085165afa918215610240578092610305575b6020838360405191168152f35b9091506020833d821161033b575b81610320602093836113c5565b8101031261019157506103346020926113e7565b905f6102f8565b3d9150610313565b5034610191576020366003190112610191578061035e6112e2565b61036e60ff835460a01c16611354565b6001546001600160a01b039081169190823b156103c1576024849283604051958694859363c99cb2b760e01b85521660048401525af1801561027d576103b15750f35b6103ba90611395565b6101915780f35b505050fd5b50346101915780600319360112610191576001546040516001600160a01b039091168152602090f35b503461019157602090816003193601126101915761040b6112e2565b60015460405163b1e3a94160e01b81526001600160a01b0392831660048201529084908290602490829086165afa928315610240578093610452575b505060405191168152f35b909192508382813d8311610485575b61046b81836113c5565b81010312610191575061047d906113e7565b905f80610447565b503d610461565b50346101915780600319360112610191576104a5611329565b805460ff60a01b1916600160a01b17815580f35b5034610191576003199060e036830112610191576104d56112e2565b6084359067ffffffffffffffff9384831161068f573660238401121561068f5782600401359085821161068b578160051b36602482870101116106875760a4358781116106835761052a9036906004016112f8565b92909760c43590811161067f576105459036906004016112f8565b91909361055860ff8a5460a01c16611354565b6001805460405163a444477b60e01b81526001600160a01b03998a16600482015260248035908201526044803590820152606480359082015260e0608482015260e481018990529899908a1697919590916001600160fb1b031061067b57908282610124936024989e9a99986101049401848d01378a019182016101008b84030160a48c015252019590895b81811061065c575050509187918694938587030160c48601528086526020998a8097019291845b81811061063657505050509083809203925af192831561024057809361045257505060405191168152f35b833585528c8401358d8601528c98508997508b955060409485019490930192820161060b565b8235885260208084013590890152604097880197909201918b016105e4565b8a80fd5b8780fd5b8680fd5b8580fd5b8480fd5b8380fd5b5034610191578060031936011261019157600180546040516397331bf960e01b8152919291906001600160a01b039083908390600490829085165afa9182156107bd578392610722575b50916040939193519260208085019181865286518093528160408701970193905b83821061070b5786880387f35b8451811688529682019693820193908501906106fe565b9091503d8084833e61073481836113c5565b810190602090818184031261068b5780519067ffffffffffffffff821161068757019180601f8401121561068b57825161076d816113fb565b9361077b60405195866113c5565b818552838086019260051b820101928311610683578301905b8282106107a65750505050905f6106dd565b8380916107b2846113e7565b815201910190610794565b6040513d85823e3d90fd5b5034610191576020366003190112610191576107e26112e2565b9060405191610100830183811067ffffffffffffffff821117610f6c5760405281835281602084015281604084015260608084015260606080840152606060a08401528160c08401528160e08401526040516308bcf8b560e21b815260208160048160018060a01b0386165afa9081156107bd578391610f31575b5015158352604051637e062a3560e11b81526020816004816001600160a01b0386165afa9081156107bd578391610ef7575b506001600160a01b0390811660208581019190915260405163094b81d360e01b8152918290600490829086165afa9081156107bd578391610ec1575b506040848101919091525163359cfbf760e01b81526020816004816001600160a01b0386165afa9081156107bd578391610e8f575b5061090a816113fb565b61091760405191826113c5565b818152601f19610926836113fb565b013660208301376060850152825b818110610e0957505060405163c122c2a160e01b81526020816004816001600160a01b0386165afa9081156107bd578391610dd7575b50610974816113fb565b61098160405191826113c5565b818152601f19610990836113fb565b01845b818110610db45750506080850152825b818110610d2a57505060405163b9b792cd60e01b81526020816004816001600160a01b0386165afa9081156107bd578391610cf8575b506109e3816113fb565b6109f060405191826113c5565b818152601f196109ff836113fb565b01845b818110610cd557505060a0850152825b818110610c245750506040516341b3d18560e01b81526020816004816001600160a01b0386165afa9081156107bd578391610bf1575b5060c0840152604051633041f2cd60e11b815290602090829060049082906001600160a01b03165afa90811561027d578291610bbf575b5060e0830152604051906020825261012082019083511515602084015260018060a01b036020850151166040840152604084015160608401526060840151916101006080850152825180915260206101408501930190825b818110610ba957505050608084015191601f198482030160a085015260208084519283815201930190825b818110610b7b5750505060a084015191601f198482030160c0850152602080845192838152019301915b818110610b4f5750505060e08360c0849501518285015201516101008301520390f35b9091926020610b71600192865190602060409280518352015160208201520190565b9401929101610b2c565b909192936020610b9e600192865190602060409280518352015160208201520190565b959401929101610b02565b8251855260209485019490920191600101610ad7565b90506020813d602011610be9575b81610bda602093836113c5565b8101031261023557515f610a7f565b3d9150610bcd565b90506020813d602011610c1c575b81610c0c602093836113c5565b8101031261023557516004610a48565b3d9150610bff565b6040805163503306fd60e11b81526004810183905290816024816001600160a01b0388165afa8015610cca5782610c949392610c8e9288918991610c99575b5060405191610c71836113a9565b8252602082015260a089015190610c888383611435565b52611435565b50611413565b610a12565b9050610cbd915060403d604011610cc3575b610cb581836113c5565b81019061145d565b5f610c63565b503d610cab565b6040513d87823e3d90fd5b602090604051610ce4816113a9565b5f81525f8382015282828601015201610a02565b90506020813d602011610d22575b81610d13602093836113c5565b8101031261023557515f6109d9565b3d9150610d06565b60408051635350cbd960e01b81526004810183905290816024816001600160a01b0388165afa8015610cca5782610d8e9392610c8e9288918991610d93575b5060405191610d77836113a9565b82526020820152608089015190610c888383611435565b6109a3565b9050610dae915060403d604011610cc357610cb581836113c5565b5f610d69565b602090604051610dc3816113a9565b5f81525f8382015282828601015201610993565b90506020813d602011610e01575b81610df2602093836113c5565b8101031261023557515f61096a565b3d9150610de5565b6040516310390d3560e01b815260048101829052906020826024816001600160a01b0388165afa8015610cca578590610e5b575b610e569250610e50826060890151611435565b52611413565b610934565b506020823d602011610e87575b81610e75602093836113c5565b8101031261023557610e569151610e3d565b3d9150610e68565b90506020813d602011610eb9575b81610eaa602093836113c5565b8101031261023557515f610900565b3d9150610e9d565b90506020813d602011610eef575b81610edc602093836113c5565b81010312610eeb57515f6108cb565b8280fd5b3d9150610ecf565b90506020813d602011610f29575b81610f12602093836113c5565b81010312610eeb57610f23906113e7565b5f61088f565b3d9150610f05565b90506020813d602011610f64575b81610f4c602093836113c5565b81010312610eeb57518015158103610eeb575f61085d565b3d9150610f3f565b634e487b7160e01b5f52604160045260245ffd5b5034610191578060031936011261019157546040516001600160a01b039091168152602090f35b5034610191578060031936011261019157610fc0611329565b5f80546001600160a01b0319811682556001600160a01b03167f8be0079c531659141344cd1fd0a4f28419497f9722a3daafe3b4186f6b6457e08280a380f35b50346101915760203660031901126101915761101a6112e2565b611022611329565b6001600160a01b0316801561104c576bffffffffffffffffffffffff60a01b600154161760015580f35b60405162461bcd60e51b81526020600482015260096024820152680666163746f727920360bc1b6044820152606490fd5b503461019157602036600319011261019157806110986112e2565b6110a860ff835460a01c16611354565b6001600160a01b0316803b156110dd57818091600460405180948193630b7cffbd60e31b83525af1801561027d576103b15750f35b50fd5b503461019157806003193601126101915760ff6020915460a01c166040519015158152f35b503461019157602036600319011261019157806111206112e2565b61113060ff835460a01c16611354565b6001600160a01b0316803b156110dd578180916004604051809481936386d1a69f60e01b83525af1801561027d576103b15750f35b503461019157606036600319011261019157806111806112e2565b61119060ff835460a01c16611354565b6001600160a01b0316803b156110dd578180916044604051809481936307b0472f60e41b83526024356004840152833560248401525af1801561027d576103b15750f35b5034610191576040366003190112610191576111ee611329565b60015481906001600160a01b0316803b156110dd578190604460405180948193622de3e760e61b8352600435600484015260243560248401525af1801561027d57611237575080f35b61124090611395565b80f35b9050346112d65760403660031901126112d65761125e6112e2565b6001600160a01b03602435818116929083900361068b578380926024926020956318e521fd60e21b84526004840152165afa90811561027d5782916112a9575b602082604051908152f35b90506020813d82116112da575b816112c3602093836113c5565b810103126112d65760209150515f61129e565b5080fd5b3d91506112b6565b600435906001600160a01b038216820361023557565b9181601f840112156102355782359167ffffffffffffffff8311610235576020808501948460061b01011161023557565b5f546001600160a01b0316330361133c57565b60405163118cdaa760e01b8152336004820152602490fd5b1561135b57565b60405162461bcd60e51b8152602060048201526012602482015271149bdd5d195c881a5cc8191a5cd8589b195960721b6044820152606490fd5b67ffffffffffffffff8111610f6c57604052565b6040810190811067ffffffffffffffff821117610f6c57604052565b90601f8019910116810190811067ffffffffffffffff821117610f6c57604052565b51906001600160a01b038216820361023557565b67ffffffffffffffff8111610f6c5760051b60200190565b5f1981146114215760010190565b634e487b7160e01b5f52601160045260245ffd5b80518210156114495760209160051b010190565b634e487b7160e01b5f52603260045260245ffd5b919082604091031261023557602082519201519056fea264697066735822122054752831ce02d102fcbfe0e78546275a31a69271516278471c594d0440704cb264736f6c63430008140033",
					"opcodes": "PUSH1 0x80 CALLVALUE PUSH3 0x141 JUMPI PUSH3 0x165E SWAP1 PUSH1 0x1F CODESIZE DUP4 SWAP1 SUB SWAP1 DUP2 ADD PUSH1 0x1F NOT AND DUP3 ADD SWAP1 PUSH1 0x1 PUSH1 0x1 PUSH1 0x40 SHL SUB DUP3 GT DUP4 DUP4 LT OR PUSH3 0x145 JUMPI DUP1 DUP4 SWAP2 PUSH1 0x40 SWAP6 DUP7 SWAP5 DUP6 MSTORE DUP4 CODECOPY DUP2 ADD SUB SLT PUSH3 0x141 JUMPI PUSH3 0x5D PUSH1 0x20 PUSH3 0x55 DUP4 PUSH3 0x159 JUMP JUMPDEST SWAP3 ADD PUSH3 0x159 JUMP JUMPDEST SWAP1 CALLER ISZERO PUSH3 0x12A JUMPI PUSH3 0x70 CALLER PUSH3 0x16E JUMP JUMPDEST PUSH0 DUP1 SLOAD PUSH1 0xFF PUSH1 0xA0 SHL NOT AND PUSH1 0x1 PUSH1 0xA0 SHL OR SWAP1 SSTORE PUSH1 0x1 PUSH1 0x1 PUSH1 0xA0 SHL SUB SWAP1 DUP2 AND SWAP1 DUP2 ISZERO PUSH3 0xFA JUMPI DUP3 AND ISZERO PUSH3 0xC9 JUMPI PUSH1 0x1 DUP1 SLOAD PUSH1 0x1 PUSH1 0x1 PUSH1 0xA0 SHL SUB NOT AND SWAP1 SWAP2 OR SWAP1 SSTORE PUSH3 0xBB SWAP1 PUSH3 0x16E JUMP JUMPDEST MLOAD PUSH2 0x14A9 SWAP1 DUP2 PUSH3 0x1B5 DUP3 CODECOPY RETURN JUMPDEST DUP3 MLOAD PUSH3 0x461BCD PUSH1 0xE5 SHL DUP2 MSTORE PUSH1 0x20 PUSH1 0x4 DUP3 ADD MSTORE PUSH1 0xA PUSH1 0x24 DUP3 ADD MSTORE PUSH10 0x70726F746F636F6C203 PUSH1 0xB4 SHL PUSH1 0x44 DUP3 ADD MSTORE PUSH1 0x64 SWAP1 REVERT JUMPDEST DUP4 MLOAD PUSH3 0x461BCD PUSH1 0xE5 SHL DUP2 MSTORE PUSH1 0x20 PUSH1 0x4 DUP3 ADD MSTORE PUSH1 0x9 PUSH1 0x24 DUP3 ADD MSTORE PUSH9 0x666163746F7279203 PUSH1 0xBC SHL PUSH1 0x44 DUP3 ADD MSTORE PUSH1 0x64 SWAP1 REVERT JUMPDEST DUP3 MLOAD PUSH4 0x1E4FBDF7 PUSH1 0xE0 SHL DUP2 MSTORE PUSH0 PUSH1 0x4 DUP3 ADD MSTORE PUSH1 0x24 SWAP1 REVERT JUMPDEST PUSH0 DUP1 REVERT JUMPDEST PUSH4 0x4E487B71 PUSH1 0xE0 SHL PUSH0 MSTORE PUSH1 0x41 PUSH1 0x4 MSTORE PUSH1 0x24 PUSH0 REVERT JUMPDEST MLOAD SWAP1 PUSH1 0x1 PUSH1 0x1 PUSH1 0xA0 SHL SUB DUP3 AND DUP3 SUB PUSH3 0x141 JUMPI JUMP JUMPDEST PUSH0 DUP1 SLOAD PUSH1 0x1 PUSH1 0x1 PUSH1 0xA0 SHL SUB SWAP3 DUP4 AND PUSH1 0x1 PUSH1 0x1 PUSH1 0xA0 SHL SUB NOT DUP3 AND DUP2 OR DUP4 SSTORE SWAP3 AND SWAP1 PUSH32 0x8BE0079C531659141344CD1FD0A4F28419497F9722A3DAAFE3B4186F6B6457E0 SWAP1 DUP1 LOG3 JUMP INVALID PUSH1 0x80 DUP1 PUSH1 0x40 MSTORE PUSH1 0x4 CALLDATASIZE LT ISZERO PUSH2 0x12 JUMPI PUSH0 DUP1 REVERT JUMPDEST PUSH0 SWAP1 DUP2 CALLDATALOAD PUSH1 0xE0 SHR SWAP1 DUP2 PUSH4 0x5E2E95D EQ PUSH2 0x1243 JUMPI POP DUP1 PUSH4 0xB78F9C0 EQ PUSH2 0x11D4 JUMPI DUP1 PUSH4 0xC51B88F EQ PUSH2 0x1165 JUMPI DUP1 PUSH4 0x19165587 EQ PUSH2 0x1105 JUMPI DUP1 PUSH4 0x55197241 EQ PUSH2 0x10E0 JUMPI DUP1 PUSH4 0x580FC80A EQ PUSH2 0x107D JUMPI DUP1 PUSH4 0x5BB47808 EQ PUSH2 0x1000 JUMPI DUP1 PUSH4 0x715018A6 EQ PUSH2 0xFA7 JUMPI DUP1 PUSH4 0x88CC58E4 EQ PUSH2 0x3C6 JUMPI DUP1 PUSH4 0x8DA5CB5B EQ PUSH2 0xF80 JUMPI DUP1 PUSH4 0x90229AF7 EQ PUSH2 0x7C8 JUMPI DUP1 PUSH4 0x97331BF9 EQ PUSH2 0x693 JUMPI DUP1 PUSH4 0xA444477B EQ PUSH2 0x4B9 JUMPI DUP1 PUSH4 0xB0F07F15 EQ PUSH2 0x48C JUMPI DUP1 PUSH4 0xB1E3A941 EQ PUSH2 0x3EF JUMPI DUP1 PUSH4 0xC45A0155 EQ PUSH2 0x3C6 JUMPI DUP1 PUSH4 0xC99CB2B7 EQ PUSH2 0x343 JUMPI DUP1 PUSH4 0xD16352AF EQ PUSH2 0x2B0 JUMPI DUP1 PUSH4 0xD858A7E5 EQ PUSH2 0x288 JUMPI DUP1 PUSH4 0xDB8D55F1 EQ PUSH2 0x194 JUMPI PUSH4 0xF2FDE38B EQ PUSH2 0x105 JUMPI PUSH0 DUP1 REVERT JUMPDEST CALLVALUE PUSH2 0x191 JUMPI PUSH1 0x20 CALLDATASIZE PUSH1 0x3 NOT ADD SLT PUSH2 0x191 JUMPI PUSH2 0x11E PUSH2 0x12E2 JUMP JUMPDEST PUSH2 0x126 PUSH2 0x1329 JUMP JUMPDEST PUSH1 0x1 PUSH1 0x1 PUSH1 0xA0 SHL SUB SWAP1 DUP2 AND SWAP1 DUP2 ISZERO PUSH2 0x178 JUMPI PUSH0 SLOAD DUP3 PUSH12 0xFFFFFFFFFFFFFFFFFFFFFFFF PUSH1 0xA0 SHL DUP3 AND OR PUSH0 SSTORE AND PUSH32 0x8BE0079C531659141344CD1FD0A4F28419497F9722A3DAAFE3B4186F6B6457E0 PUSH0 DUP1 LOG3 DUP1 RETURN JUMPDEST PUSH1 0x40 MLOAD PUSH4 0x1E4FBDF7 PUSH1 0xE0 SHL DUP2 MSTORE PUSH1 0x4 DUP2 ADD DUP5 SWAP1 MSTORE PUSH1 0x24 SWAP1 REVERT JUMPDEST DUP1 REVERT JUMPDEST POP CALLVALUE PUSH2 0x191 JUMPI DUP1 PUSH1 0x3 NOT CALLDATASIZE ADD SLT PUSH2 0x191 JUMPI PUSH1 0x1 SLOAD PUSH1 0x40 MLOAD PUSH4 0x18BF7417 PUSH1 0xE3 SHL DUP2 MSTORE PUSH1 0x1 PUSH1 0x1 PUSH1 0xA0 SHL SUB SWAP1 SWAP2 AND SWAP2 PUSH1 0x20 DUP1 DUP4 PUSH1 0x4 DUP2 DUP8 GAS STATICCALL SWAP3 DUP4 ISZERO PUSH2 0x27D JUMPI DUP3 SWAP4 PUSH2 0x24C JUMPI JUMPDEST POP DUP1 PUSH1 0x4 SWAP5 PUSH1 0x40 MLOAD SWAP6 DUP7 DUP1 SWAP3 PUSH4 0xF25E78B1 PUSH1 0xE0 SHL DUP3 MSTORE GAS STATICCALL SWAP2 DUP3 ISZERO PUSH2 0x240 JUMPI SWAP2 PUSH2 0x20C JUMPI JUMPDEST PUSH1 0x40 DUP1 SWAP5 POP MLOAD SWAP3 DUP4 MSTORE DUP3 ADD MSTORE RETURN JUMPDEST DUP1 SWAP2 POP DUP4 DUP2 RETURNDATASIZE DUP4 GT PUSH2 0x239 JUMPI JUMPDEST PUSH2 0x223 DUP2 DUP4 PUSH2 0x13C5 JUMP JUMPDEST DUP2 ADD SUB SLT PUSH2 0x235 JUMPI PUSH1 0x40 SWAP3 MLOAD SWAP1 PUSH2 0x1FE JUMP JUMPDEST PUSH0 DUP1 REVERT JUMPDEST POP RETURNDATASIZE PUSH2 0x219 JUMP JUMPDEST PUSH1 0x40 MLOAD SWAP1 RETURNDATASIZE SWAP1 DUP3 RETURNDATACOPY RETURNDATASIZE SWAP1 REVERT JUMPDEST SWAP4 SWAP3 POP DUP1 DUP5 DUP2 RETURNDATASIZE DUP4 GT PUSH2 0x276 JUMPI JUMPDEST PUSH2 0x264 DUP2 DUP4 PUSH2 0x13C5 JUMP JUMPDEST DUP2 ADD SUB SLT PUSH2 0x235 JUMPI SWAP3 MLOAD SWAP2 SWAP3 DUP1 PUSH2 0x1D9 JUMP JUMPDEST POP RETURNDATASIZE PUSH2 0x25A JUMP JUMPDEST PUSH1 0x40 MLOAD RETURNDATASIZE DUP5 DUP3 RETURNDATACOPY RETURNDATASIZE SWAP1 REVERT JUMPDEST POP CALLVALUE PUSH2 0x191 JUMPI DUP1 PUSH1 0x3 NOT CALLDATASIZE ADD SLT PUSH2 0x191 JUMPI PUSH2 0x2A1 PUSH2 0x1329 JUMP JUMPDEST PUSH0 DUP1 SLOAD PUSH1 0xFF PUSH1 0xA0 SHL NOT AND SWAP1 SSTORE DUP1 RETURN JUMPDEST POP CALLVALUE PUSH2 0x191 JUMPI DUP1 PUSH1 0x3 NOT CALLDATASIZE ADD SLT PUSH2 0x191 JUMPI PUSH1 0x1 SLOAD PUSH1 0x40 MLOAD PUSH4 0x4673A213 PUSH1 0xE1 SHL DUP2 MSTORE SWAP2 SWAP1 PUSH1 0x1 PUSH1 0x1 PUSH1 0xA0 SHL SUB SWAP1 PUSH1 0x20 SWAP1 DUP5 SWAP1 PUSH1 0x4 SWAP1 DUP3 SWAP1 DUP6 AND GAS STATICCALL SWAP2 DUP3 ISZERO PUSH2 0x240 JUMPI DUP1 SWAP3 PUSH2 0x305 JUMPI JUMPDEST PUSH1 0x20 DUP4 DUP4 PUSH1 0x40 MLOAD SWAP2 AND DUP2 MSTORE RETURN JUMPDEST SWAP1 SWAP2 POP PUSH1 0x20 DUP4 RETURNDATASIZE DUP3 GT PUSH2 0x33B JUMPI JUMPDEST DUP2 PUSH2 0x320 PUSH1 0x20 SWAP4 DUP4 PUSH2 0x13C5 JUMP JUMPDEST DUP2 ADD SUB SLT PUSH2 0x191 JUMPI POP PUSH2 0x334 PUSH1 0x20 SWAP3 PUSH2 0x13E7 JUMP JUMPDEST SWAP1 PUSH0 PUSH2 0x2F8 JUMP JUMPDEST RETURNDATASIZE SWAP2 POP PUSH2 0x313 JUMP JUMPDEST POP CALLVALUE PUSH2 0x191 JUMPI PUSH1 0x20 CALLDATASIZE PUSH1 0x3 NOT ADD SLT PUSH2 0x191 JUMPI DUP1 PUSH2 0x35E PUSH2 0x12E2 JUMP JUMPDEST PUSH2 0x36E PUSH1 0xFF DUP4 SLOAD PUSH1 0xA0 SHR AND PUSH2 0x1354 JUMP JUMPDEST PUSH1 0x1 SLOAD PUSH1 0x1 PUSH1 0x1 PUSH1 0xA0 SHL SUB SWAP1 DUP2 AND SWAP2 SWAP1 DUP3 EXTCODESIZE ISZERO PUSH2 0x3C1 JUMPI PUSH1 0x24 DUP5 SWAP3 DUP4 PUSH1 0x40 MLOAD SWAP6 DUP7 SWAP5 DUP6 SWAP4 PUSH4 0xC99CB2B7 PUSH1 0xE0 SHL DUP6 MSTORE AND PUSH1 0x4 DUP5 ADD MSTORE GAS CALL DUP1 ISZERO PUSH2 0x27D JUMPI PUSH2 0x3B1 JUMPI POP RETURN JUMPDEST PUSH2 0x3BA SWAP1 PUSH2 0x1395 JUMP JUMPDEST PUSH2 0x191 JUMPI DUP1 RETURN JUMPDEST POP POP POP REVERT JUMPDEST POP CALLVALUE PUSH2 0x191 JUMPI DUP1 PUSH1 0x3 NOT CALLDATASIZE ADD SLT PUSH2 0x191 JUMPI PUSH1 0x1 SLOAD PUSH1 0x40 MLOAD PUSH1 0x1 PUSH1 0x1 PUSH1 0xA0 SHL SUB SWAP1 SWAP2 AND DUP2 MSTORE PUSH1 0x20 SWAP1 RETURN JUMPDEST POP CALLVALUE PUSH2 0x191 JUMPI PUSH1 0x20 SWAP1 DUP2 PUSH1 0x3 NOT CALLDATASIZE ADD SLT PUSH2 0x191 JUMPI PUSH2 0x40B PUSH2 0x12E2 JUMP JUMPDEST PUSH1 0x1 SLOAD PUSH1 0x40 MLOAD PUSH4 0xB1E3A941 PUSH1 0xE0 SHL DUP2 MSTORE PUSH1 0x1 PUSH1 0x1 PUSH1 0xA0 SHL SUB SWAP3 DUP4 AND PUSH1 0x4 DUP3 ADD MSTORE SWAP1 DUP5 SWAP1 DUP3 SWAP1 PUSH1 0x24 SWAP1 DUP3 SWAP1 DUP7 AND GAS STATICCALL SWAP3 DUP4 ISZERO PUSH2 0x240 JUMPI DUP1 SWAP4 PUSH2 0x452 JUMPI JUMPDEST POP POP PUSH1 0x40 MLOAD SWAP2 AND DUP2 MSTORE RETURN JUMPDEST SWAP1 SWAP2 SWAP3 POP DUP4 DUP3 DUP2 RETURNDATASIZE DUP4 GT PUSH2 0x485 JUMPI JUMPDEST PUSH2 0x46B DUP2 DUP4 PUSH2 0x13C5 JUMP JUMPDEST DUP2 ADD SUB SLT PUSH2 0x191 JUMPI POP PUSH2 0x47D SWAP1 PUSH2 0x13E7 JUMP JUMPDEST SWAP1 PUSH0 DUP1 PUSH2 0x447 JUMP JUMPDEST POP RETURNDATASIZE PUSH2 0x461 JUMP JUMPDEST POP CALLVALUE PUSH2 0x191 JUMPI DUP1 PUSH1 0x3 NOT CALLDATASIZE ADD SLT PUSH2 0x191 JUMPI PUSH2 0x4A5 PUSH2 0x1329 JUMP JUMPDEST DUP1 SLOAD PUSH1 0xFF PUSH1 0xA0 SHL NOT AND PUSH1 0x1 PUSH1 0xA0 SHL OR DUP2 SSTORE DUP1 RETURN JUMPDEST POP CALLVALUE PUSH2 0x191 JUMPI PUSH1 0x3 NOT SWAP1 PUSH1 0xE0 CALLDATASIZE DUP4 ADD SLT PUSH2 0x191 JUMPI PUSH2 0x4D5 PUSH2 0x12E2 JUMP JUMPDEST PUSH1 0x84 CALLDATALOAD SWAP1 PUSH8 0xFFFFFFFFFFFFFFFF SWAP4 DUP5 DUP4 GT PUSH2 0x68F JUMPI CALLDATASIZE PUSH1 0x23 DUP5 ADD SLT ISZERO PUSH2 0x68F JUMPI DUP3 PUSH1 0x4 ADD CALLDATALOAD SWAP1 DUP6 DUP3 GT PUSH2 0x68B JUMPI DUP2 PUSH1 0x5 SHL CALLDATASIZE PUSH1 0x24 DUP3 DUP8 ADD ADD GT PUSH2 0x687 JUMPI PUSH1 0xA4 CALLDATALOAD DUP8 DUP2 GT PUSH2 0x683 JUMPI PUSH2 0x52A SWAP1 CALLDATASIZE SWAP1 PUSH1 0x4 ADD PUSH2 0x12F8 JUMP JUMPDEST SWAP3 SWAP1 SWAP8 PUSH1 0xC4 CALLDATALOAD SWAP1 DUP2 GT PUSH2 0x67F JUMPI PUSH2 0x545 SWAP1 CALLDATASIZE SWAP1 PUSH1 0x4 ADD PUSH2 0x12F8 JUMP JUMPDEST SWAP2 SWAP1 SWAP4 PUSH2 0x558 PUSH1 0xFF DUP11 SLOAD PUSH1 0xA0 SHR AND PUSH2 0x1354 JUMP JUMPDEST PUSH1 0x1 DUP1 SLOAD PUSH1 0x40 MLOAD PUSH4 0xA444477B PUSH1 0xE0 SHL DUP2 MSTORE PUSH1 0x1 PUSH1 0x1 PUSH1 0xA0 SHL SUB SWAP10 DUP11 AND PUSH1 0x4 DUP3 ADD MSTORE PUSH1 0x24 DUP1 CALLDATALOAD SWAP1 DUP3 ADD MSTORE PUSH1 0x44 DUP1 CALLDATALOAD SWAP1 DUP3 ADD MSTORE PUSH1 0x64 DUP1 CALLDATALOAD SWAP1 DUP3 ADD MSTORE PUSH1 0xE0 PUSH1 0x84 DUP3 ADD MSTORE PUSH1 0xE4 DUP2 ADD DUP10 SWAP1 MSTORE SWAP9 SWAP10 SWAP1 DUP11 AND SWAP8 SWAP2 SWAP6 SWAP1 SWAP2 PUSH1 0x1 PUSH1 0x1 PUSH1 0xFB SHL SUB LT PUSH2 0x67B JUMPI SWAP1 DUP3 DUP3 PUSH2 0x124 SWAP4 PUSH1 0x24 SWAP9 SWAP15 SWAP11 SWAP10 SWAP9 PUSH2 0x104 SWAP5 ADD DUP5 DUP14 ADD CALLDATACOPY DUP11 ADD SWAP2 DUP3 ADD PUSH2 0x100 DUP12 DUP5 SUB ADD PUSH1 0xA4 DUP13 ADD MSTORE MSTORE ADD SWAP6 SWAP1 DUP10 JUMPDEST DUP2 DUP2 LT PUSH2 0x65C JUMPI POP POP POP SWAP2 DUP8 SWAP2 DUP7 SWAP5 SWAP4 DUP6 DUP8 SUB ADD PUSH1 0xC4 DUP7 ADD MSTORE DUP1 DUP7 MSTORE PUSH1 0x20 SWAP10 DUP11 DUP1 SWAP8 ADD SWAP3 SWAP2 DUP5 JUMPDEST DUP2 DUP2 LT PUSH2 0x636 JUMPI POP POP POP POP SWAP1 DUP4 DUP1 SWAP3 SUB SWAP3 GAS CALL SWAP3 DUP4 ISZERO PUSH2 0x240 JUMPI DUP1 SWAP4 PUSH2 0x452 JUMPI POP POP PUSH1 0x40 MLOAD SWAP2 AND DUP2 MSTORE RETURN JUMPDEST DUP4 CALLDATALOAD DUP6 MSTORE DUP13 DUP5 ADD CALLDATALOAD DUP14 DUP7 ADD MSTORE DUP13 SWAP9 POP DUP10 SWAP8 POP DUP12 SWAP6 POP PUSH1 0x40 SWAP5 DUP6 ADD SWAP5 SWAP1 SWAP4 ADD SWAP3 DUP3 ADD PUSH2 0x60B JUMP JUMPDEST DUP3 CALLDATALOAD DUP9 MSTORE PUSH1 0x20 DUP1 DUP5 ADD CALLDATALOAD SWAP1 DUP10 ADD MSTORE PUSH1 0x40 SWAP8 DUP9 ADD SWAP8 SWAP1 SWAP3 ADD SWAP2 DUP12 ADD PUSH2 0x5E4 JUMP JUMPDEST DUP11 DUP1 REVERT JUMPDEST DUP8 DUP1 REVERT JUMPDEST DUP7 DUP1 REVERT JUMPDEST DUP6 DUP1 REVERT JUMPDEST DUP5 DUP1 REVERT JUMPDEST DUP4 DUP1 REVERT JUMPDEST POP CALLVALUE PUSH2 0x191 JUMPI DUP1 PUSH1 0x3 NOT CALLDATASIZE ADD SLT PUSH2 0x191 JUMPI PUSH1 0x1 DUP1 SLOAD PUSH1 0x40 MLOAD PUSH4 0x97331BF9 PUSH1 0xE0 SHL DUP2 MSTORE SWAP2 SWAP3 SWAP2 SWAP1 PUSH1 0x1 PUSH1 0x1 PUSH1 0xA0 SHL SUB SWAP1 DUP4 SWAP1 DUP4 SWAP1 PUSH1 0x4 SWAP1 DUP3 SWAP1 DUP6 AND GAS STATICCALL SWAP2 DUP3 ISZERO PUSH2 0x7BD JUMPI DUP4 SWAP3 PUSH2 0x722 JUMPI JUMPDEST POP SWAP2 PUSH1 0x40 SWAP4 SWAP2 SWAP4 MLOAD SWAP3 PUSH1 0x20 DUP1 DUP6 ADD SWAP2 DUP2 DUP7 MSTORE DUP7 MLOAD DUP1 SWAP4 MSTORE DUP2 PUSH1 0x40 DUP8 ADD SWAP8 ADD SWAP4 SWAP1 JUMPDEST DUP4 DUP3 LT PUSH2 0x70B JUMPI DUP7 DUP9 SUB DUP8 RETURN JUMPDEST DUP5 MLOAD DUP2 AND DUP9 MSTORE SWAP7 DUP3 ADD SWAP7 SWAP4 DUP3 ADD SWAP4 SWAP1 DUP6 ADD SWAP1 PUSH2 0x6FE JUMP JUMPDEST SWAP1 SWAP2 POP RETURNDATASIZE DUP1 DUP5 DUP4 RETURNDATACOPY PUSH2 0x734 DUP2 DUP4 PUSH2 0x13C5 JUMP JUMPDEST DUP2 ADD SWAP1 PUSH1 0x20 SWAP1 DUP2 DUP2 DUP5 SUB SLT PUSH2 0x68B JUMPI DUP1 MLOAD SWAP1 PUSH8 0xFFFFFFFFFFFFFFFF DUP3 GT PUSH2 0x687 JUMPI ADD SWAP2 DUP1 PUSH1 0x1F DUP5 ADD SLT ISZERO PUSH2 0x68B JUMPI DUP3 MLOAD PUSH2 0x76D DUP2 PUSH2 0x13FB JUMP JUMPDEST SWAP4 PUSH2 0x77B PUSH1 0x40 MLOAD SWAP6 DUP7 PUSH2 0x13C5 JUMP JUMPDEST DUP2 DUP6 MSTORE DUP4 DUP1 DUP7 ADD SWAP3 PUSH1 0x5 SHL DUP3 ADD ADD SWAP3 DUP4 GT PUSH2 0x683 JUMPI DUP4 ADD SWAP1 JUMPDEST DUP3 DUP3 LT PUSH2 0x7A6 JUMPI POP POP POP POP SWAP1 PUSH0 PUSH2 0x6DD JUMP JUMPDEST DUP4 DUP1 SWAP2 PUSH2 0x7B2 DUP5 PUSH2 0x13E7 JUMP JUMPDEST DUP2 MSTORE ADD SWAP2 ADD SWAP1 PUSH2 0x794 JUMP JUMPDEST PUSH1 0x40 MLOAD RETURNDATASIZE DUP6 DUP3 RETURNDATACOPY RETURNDATASIZE SWAP1 REVERT JUMPDEST POP CALLVALUE PUSH2 0x191 JUMPI PUSH1 0x20 CALLDATASIZE PUSH1 0x3 NOT ADD SLT PUSH2 0x191 JUMPI PUSH2 0x7E2 PUSH2 0x12E2 JUMP JUMPDEST SWAP1 PUSH1 0x40 MLOAD SWAP2 PUSH2 0x100 DUP4 ADD DUP4 DUP2 LT PUSH8 0xFFFFFFFFFFFFFFFF DUP3 GT OR PUSH2 0xF6C JUMPI PUSH1 0x40 MSTORE DUP2 DUP4 MSTORE DUP2 PUSH1 0x20 DUP5 ADD MSTORE DUP2 PUSH1 0x40 DUP5 ADD MSTORE PUSH1 0x60 DUP1 DUP5 ADD MSTORE PUSH1 0x60 PUSH1 0x80 DUP5 ADD MSTORE PUSH1 0x60 PUSH1 0xA0 DUP5 ADD MSTORE DUP2 PUSH1 0xC0 DUP5 ADD MSTORE DUP2 PUSH1 0xE0 DUP5 ADD MSTORE PUSH1 0x40 MLOAD PUSH4 0x8BCF8B5 PUSH1 0xE2 SHL DUP2 MSTORE PUSH1 0x20 DUP2 PUSH1 0x4 DUP2 PUSH1 0x1 DUP1 PUSH1 0xA0 SHL SUB DUP7 AND GAS STATICCALL SWAP1 DUP2 ISZERO PUSH2 0x7BD JUMPI DUP4 SWAP2 PUSH2 0xF31 JUMPI JUMPDEST POP ISZERO ISZERO DUP4 MSTORE PUSH1 0x40 MLOAD PUSH4 0x7E062A35 PUSH1 0xE1 SHL DUP2 MSTORE PUSH1 0x20 DUP2 PUSH1 0x4 DUP2 PUSH1 0x1 PUSH1 0x1 PUSH1 0xA0 SHL SUB DUP7 AND GAS STATICCALL SWAP1 DUP2 ISZERO PUSH2 0x7BD JUMPI DUP4 SWAP2 PUSH2 0xEF7 JUMPI JUMPDEST POP PUSH1 0x1 PUSH1 0x1 PUSH1 0xA0 SHL SUB SWAP1 DUP2 AND PUSH1 0x20 DUP6 DUP2 ADD SWAP2 SWAP1 SWAP2 MSTORE PUSH1 0x40 MLOAD PUSH4 0x94B81D3 PUSH1 0xE0 SHL DUP2 MSTORE SWAP2 DUP3 SWAP1 PUSH1 0x4 SWAP1 DUP3 SWAP1 DUP7 AND GAS STATICCALL SWAP1 DUP2 ISZERO PUSH2 0x7BD JUMPI DUP4 SWAP2 PUSH2 0xEC1 JUMPI JUMPDEST POP PUSH1 0x40 DUP5 DUP2 ADD SWAP2 SWAP1 SWAP2 MSTORE MLOAD PUSH4 0x359CFBF7 PUSH1 0xE0 SHL DUP2 MSTORE PUSH1 0x20 DUP2 PUSH1 0x4 DUP2 PUSH1 0x1 PUSH1 0x1 PUSH1 0xA0 SHL SUB DUP7 AND GAS STATICCALL SWAP1 DUP2 ISZERO PUSH2 0x7BD JUMPI DUP4 SWAP2 PUSH2 0xE8F JUMPI JUMPDEST POP PUSH2 0x90A DUP2 PUSH2 0x13FB JUMP JUMPDEST PUSH2 0x917 PUSH1 0x40 MLOAD SWAP2 DUP3 PUSH2 0x13C5 JUMP JUMPDEST DUP2 DUP2 MSTORE PUSH1 0x1F NOT PUSH2 0x926 DUP4 PUSH2 0x13FB JUMP JUMPDEST ADD CALLDATASIZE PUSH1 0x20 DUP4 ADD CALLDATACOPY PUSH1 0x60 DUP6 ADD MSTORE DUP3 JUMPDEST DUP2 DUP2 LT PUSH2 0xE09 JUMPI POP POP PUSH1 0x40 MLOAD PUSH4 0xC122C2A1 PUSH1 0xE0 SHL DUP2 MSTORE PUSH1 0x20 DUP2 PUSH1 0x4 DUP2 PUSH1 0x1 PUSH1 0x1 PUSH1 0xA0 SHL SUB DUP7 AND GAS STATICCALL SWAP1 DUP2 ISZERO PUSH2 0x7BD JUMPI DUP4 SWAP2 PUSH2 0xDD7 JUMPI JUMPDEST POP PUSH2 0x974 DUP2 PUSH2 0x13FB JUMP JUMPDEST PUSH2 0x981 PUSH1 0x40 MLOAD SWAP2 DUP3 PUSH2 0x13C5 JUMP JUMPDEST DUP2 DUP2 MSTORE PUSH1 0x1F NOT PUSH2 0x990 DUP4 PUSH2 0x13FB JUMP JUMPDEST ADD DUP5 JUMPDEST DUP2 DUP2 LT PUSH2 0xDB4 JUMPI POP POP PUSH1 0x80 DUP6 ADD MSTORE DUP3 JUMPDEST DUP2 DUP2 LT PUSH2 0xD2A JUMPI POP POP PUSH1 0x40 MLOAD PUSH4 0xB9B792CD PUSH1 0xE0 SHL DUP2 MSTORE PUSH1 0x20 DUP2 PUSH1 0x4 DUP2 PUSH1 0x1 PUSH1 0x1 PUSH1 0xA0 SHL SUB DUP7 AND GAS STATICCALL SWAP1 DUP2 ISZERO PUSH2 0x7BD JUMPI DUP4 SWAP2 PUSH2 0xCF8 JUMPI JUMPDEST POP PUSH2 0x9E3 DUP2 PUSH2 0x13FB JUMP JUMPDEST PUSH2 0x9F0 PUSH1 0x40 MLOAD SWAP2 DUP3 PUSH2 0x13C5 JUMP JUMPDEST DUP2 DUP2 MSTORE PUSH1 0x1F NOT PUSH2 0x9FF DUP4 PUSH2 0x13FB JUMP JUMPDEST ADD DUP5 JUMPDEST DUP2 DUP2 LT PUSH2 0xCD5 JUMPI POP POP PUSH1 0xA0 DUP6 ADD MSTORE DUP3 JUMPDEST DUP2 DUP2 LT PUSH2 0xC24 JUMPI POP POP PUSH1 0x40 MLOAD PUSH4 0x41B3D185 PUSH1 0xE0 SHL DUP2 MSTORE PUSH1 0x20 DUP2 PUSH1 0x4 DUP2 PUSH1 0x1 PUSH1 0x1 PUSH1 0xA0 SHL SUB DUP7 AND GAS STATICCALL SWAP1 DUP2 ISZERO PUSH2 0x7BD JUMPI DUP4 SWAP2 PUSH2 0xBF1 JUMPI JUMPDEST POP PUSH1 0xC0 DUP5 ADD MSTORE PUSH1 0x40 MLOAD PUSH4 0x3041F2CD PUSH1 0xE1 SHL DUP2 MSTORE SWAP1 PUSH1 0x20 SWAP1 DUP3 SWAP1 PUSH1 0x4 SWAP1 DUP3 SWAP1 PUSH1 0x1 PUSH1 0x1 PUSH1 0xA0 SHL SUB AND GAS STATICCALL SWAP1 DUP2 ISZERO PUSH2 0x27D JUMPI DUP3 SWAP2 PUSH2 0xBBF JUMPI JUMPDEST POP PUSH1 0xE0 DUP4 ADD MSTORE PUSH1 0x40 MLOAD SWAP1 PUSH1 0x20 DUP3 MSTORE PUSH2 0x120 DUP3 ADD SWAP1 DUP4 MLOAD ISZERO ISZERO PUSH1 0x20 DUP5 ADD MSTORE PUSH1 0x1 DUP1 PUSH1 0xA0 SHL SUB PUSH1 0x20 DUP6 ADD MLOAD AND PUSH1 0x40 DUP5 ADD MSTORE PUSH1 0x40 DUP5 ADD MLOAD PUSH1 0x60 DUP5 ADD MSTORE PUSH1 0x60 DUP5 ADD MLOAD SWAP2 PUSH2 0x100 PUSH1 0x80 DUP6 ADD MSTORE DUP3 MLOAD DUP1 SWAP2 MSTORE PUSH1 0x20 PUSH2 0x140 DUP6 ADD SWAP4 ADD SWAP1 DUP3 JUMPDEST DUP2 DUP2 LT PUSH2 0xBA9 JUMPI POP POP POP PUSH1 0x80 DUP5 ADD MLOAD SWAP2 PUSH1 0x1F NOT DUP5 DUP3 SUB ADD PUSH1 0xA0 DUP6 ADD MSTORE PUSH1 0x20 DUP1 DUP5 MLOAD SWAP3 DUP4 DUP2 MSTORE ADD SWAP4 ADD SWAP1 DUP3 JUMPDEST DUP2 DUP2 LT PUSH2 0xB7B JUMPI POP POP POP PUSH1 0xA0 DUP5 ADD MLOAD SWAP2 PUSH1 0x1F NOT DUP5 DUP3 SUB ADD PUSH1 0xC0 DUP6 ADD MSTORE PUSH1 0x20 DUP1 DUP5 MLOAD SWAP3 DUP4 DUP2 MSTORE ADD SWAP4 ADD SWAP2 JUMPDEST DUP2 DUP2 LT PUSH2 0xB4F JUMPI POP POP POP PUSH1 0xE0 DUP4 PUSH1 0xC0 DUP5 SWAP6 ADD MLOAD DUP3 DUP6 ADD MSTORE ADD MLOAD PUSH2 0x100 DUP4 ADD MSTORE SUB SWAP1 RETURN JUMPDEST SWAP1 SWAP2 SWAP3 PUSH1 0x20 PUSH2 0xB71 PUSH1 0x1 SWAP3 DUP7 MLOAD SWAP1 PUSH1 0x20 PUSH1 0x40 SWAP3 DUP1 MLOAD DUP4 MSTORE ADD MLOAD PUSH1 0x20 DUP3 ADD MSTORE ADD SWAP1 JUMP JUMPDEST SWAP5 ADD SWAP3 SWAP2 ADD PUSH2 0xB2C JUMP JUMPDEST SWAP1 SWAP2 SWAP3 SWAP4 PUSH1 0x20 PUSH2 0xB9E PUSH1 0x1 SWAP3 DUP7 MLOAD SWAP1 PUSH1 0x20 PUSH1 0x40 SWAP3 DUP1 MLOAD DUP4 MSTORE ADD MLOAD PUSH1 0x20 DUP3 ADD MSTORE ADD SWAP1 JUMP JUMPDEST SWAP6 SWAP5 ADD SWAP3 SWAP2 ADD PUSH2 0xB02 JUMP JUMPDEST DUP3 MLOAD DUP6 MSTORE PUSH1 0x20 SWAP5 DUP6 ADD SWAP5 SWAP1 SWAP3 ADD SWAP2 PUSH1 0x1 ADD PUSH2 0xAD7 JUMP JUMPDEST SWAP1 POP PUSH1 0x20 DUP2 RETURNDATASIZE PUSH1 0x20 GT PUSH2 0xBE9 JUMPI JUMPDEST DUP2 PUSH2 0xBDA PUSH1 0x20 SWAP4 DUP4 PUSH2 0x13C5 JUMP JUMPDEST DUP2 ADD SUB SLT PUSH2 0x235 JUMPI MLOAD PUSH0 PUSH2 0xA7F JUMP JUMPDEST RETURNDATASIZE SWAP2 POP PUSH2 0xBCD JUMP JUMPDEST SWAP1 POP PUSH1 0x20 DUP2 RETURNDATASIZE PUSH1 0x20 GT PUSH2 0xC1C JUMPI JUMPDEST DUP2 PUSH2 0xC0C PUSH1 0x20 SWAP4 DUP4 PUSH2 0x13C5 JUMP JUMPDEST DUP2 ADD SUB SLT PUSH2 0x235 JUMPI MLOAD PUSH1 0x4 PUSH2 0xA48 JUMP JUMPDEST RETURNDATASIZE SWAP2 POP PUSH2 0xBFF JUMP JUMPDEST PUSH1 0x40 DUP1 MLOAD PUSH4 0x503306FD PUSH1 0xE1 SHL DUP2 MSTORE PUSH1 0x4 DUP2 ADD DUP4 SWAP1 MSTORE SWAP1 DUP2 PUSH1 0x24 DUP2 PUSH1 0x1 PUSH1 0x1 PUSH1 0xA0 SHL SUB DUP9 AND GAS STATICCALL DUP1 ISZERO PUSH2 0xCCA JUMPI DUP3 PUSH2 0xC94 SWAP4 SWAP3 PUSH2 0xC8E SWAP3 DUP9 SWAP2 DUP10 SWAP2 PUSH2 0xC99 JUMPI JUMPDEST POP PUSH1 0x40 MLOAD SWAP2 PUSH2 0xC71 DUP4 PUSH2 0x13A9 JUMP JUMPDEST DUP3 MSTORE PUSH1 0x20 DUP3 ADD MSTORE PUSH1 0xA0 DUP10 ADD MLOAD SWAP1 PUSH2 0xC88 DUP4 DUP4 PUSH2 0x1435 JUMP JUMPDEST MSTORE PUSH2 0x1435 JUMP JUMPDEST POP PUSH2 0x1413 JUMP JUMPDEST PUSH2 0xA12 JUMP JUMPDEST SWAP1 POP PUSH2 0xCBD SWAP2 POP PUSH1 0x40 RETURNDATASIZE PUSH1 0x40 GT PUSH2 0xCC3 JUMPI JUMPDEST PUSH2 0xCB5 DUP2 DUP4 PUSH2 0x13C5 JUMP JUMPDEST DUP2 ADD SWAP1 PUSH2 0x145D JUMP JUMPDEST PUSH0 PUSH2 0xC63 JUMP JUMPDEST POP RETURNDATASIZE PUSH2 0xCAB JUMP JUMPDEST PUSH1 0x40 MLOAD RETURNDATASIZE DUP8 DUP3 RETURNDATACOPY RETURNDATASIZE SWAP1 REVERT JUMPDEST PUSH1 0x20 SWAP1 PUSH1 0x40 MLOAD PUSH2 0xCE4 DUP2 PUSH2 0x13A9 JUMP JUMPDEST PUSH0 DUP2 MSTORE PUSH0 DUP4 DUP3 ADD MSTORE DUP3 DUP3 DUP7 ADD ADD MSTORE ADD PUSH2 0xA02 JUMP JUMPDEST SWAP1 POP PUSH1 0x20 DUP2 RETURNDATASIZE PUSH1 0x20 GT PUSH2 0xD22 JUMPI JUMPDEST DUP2 PUSH2 0xD13 PUSH1 0x20 SWAP4 DUP4 PUSH2 0x13C5 JUMP JUMPDEST DUP2 ADD SUB SLT PUSH2 0x235 JUMPI MLOAD PUSH0 PUSH2 0x9D9 JUMP JUMPDEST RETURNDATASIZE SWAP2 POP PUSH2 0xD06 JUMP JUMPDEST PUSH1 0x40 DUP1 MLOAD PUSH4 0x5350CBD9 PUSH1 0xE0 SHL DUP2 MSTORE PUSH1 0x4 DUP2 ADD DUP4 SWAP1 MSTORE SWAP1 DUP2 PUSH1 0x24 DUP2 PUSH1 0x1 PUSH1 0x1 PUSH1 0xA0 SHL SUB DUP9 AND GAS STATICCALL DUP1 ISZERO PUSH2 0xCCA JUMPI DUP3 PUSH2 0xD8E SWAP4 SWAP3 PUSH2 0xC8E SWAP3 DUP9 SWAP2 DUP10 SWAP2 PUSH2 0xD93 JUMPI JUMPDEST POP PUSH1 0x40 MLOAD SWAP2 PUSH2 0xD77 DUP4 PUSH2 0x13A9 JUMP JUMPDEST DUP3 MSTORE PUSH1 0x20 DUP3 ADD MSTORE PUSH1 0x80 DUP10 ADD MLOAD SWAP1 PUSH2 0xC88 DUP4 DUP4 PUSH2 0x1435 JUMP JUMPDEST PUSH2 0x9A3 JUMP JUMPDEST SWAP1 POP PUSH2 0xDAE SWAP2 POP PUSH1 0x40 RETURNDATASIZE PUSH1 0x40 GT PUSH2 0xCC3 JUMPI PUSH2 0xCB5 DUP2 DUP4 PUSH2 0x13C5 JUMP JUMPDEST PUSH0 PUSH2 0xD69 JUMP JUMPDEST PUSH1 0x20 SWAP1 PUSH1 0x40 MLOAD PUSH2 0xDC3 DUP2 PUSH2 0x13A9 JUMP JUMPDEST PUSH0 DUP2 MSTORE PUSH0 DUP4 DUP3 ADD MSTORE DUP3 DUP3 DUP7 ADD ADD MSTORE ADD PUSH2 0x993 JUMP JUMPDEST SWAP1 POP PUSH1 0x20 DUP2 RETURNDATASIZE PUSH1 0x20 GT PUSH2 0xE01 JUMPI JUMPDEST DUP2 PUSH2 0xDF2 PUSH1 0x20 SWAP4 DUP4 PUSH2 0x13C5 JUMP JUMPDEST DUP2 ADD SUB SLT PUSH2 0x235 JUMPI MLOAD PUSH0 PUSH2 0x96A JUMP JUMPDEST RETURNDATASIZE SWAP2 POP PUSH2 0xDE5 JUMP JUMPDEST PUSH1 0x40 MLOAD PUSH4 0x10390D35 PUSH1 0xE0 SHL DUP2 MSTORE PUSH1 0x4 DUP2 ADD DUP3 SWAP1 MSTORE SWAP1 PUSH1 0x20 DUP3 PUSH1 0x24 DUP2 PUSH1 0x1 PUSH1 0x1 PUSH1 0xA0 SHL SUB DUP9 AND GAS STATICCALL DUP1 ISZERO PUSH2 0xCCA JUMPI DUP6 SWAP1 PUSH2 0xE5B JUMPI JUMPDEST PUSH2 0xE56 SWAP3 POP PUSH2 0xE50 DUP3 PUSH1 0x60 DUP10 ADD MLOAD PUSH2 0x1435 JUMP JUMPDEST MSTORE PUSH2 0x1413 JUMP JUMPDEST PUSH2 0x934 JUMP JUMPDEST POP PUSH1 0x20 DUP3 RETURNDATASIZE PUSH1 0x20 GT PUSH2 0xE87 JUMPI JUMPDEST DUP2 PUSH2 0xE75 PUSH1 0x20 SWAP4 DUP4 PUSH2 0x13C5 JUMP JUMPDEST DUP2 ADD SUB SLT PUSH2 0x235 JUMPI PUSH2 0xE56 SWAP2 MLOAD PUSH2 0xE3D JUMP JUMPDEST RETURNDATASIZE SWAP2 POP PUSH2 0xE68 JUMP JUMPDEST SWAP1 POP PUSH1 0x20 DUP2 RETURNDATASIZE PUSH1 0x20 GT PUSH2 0xEB9 JUMPI JUMPDEST DUP2 PUSH2 0xEAA PUSH1 0x20 SWAP4 DUP4 PUSH2 0x13C5 JUMP JUMPDEST DUP2 ADD SUB SLT PUSH2 0x235 JUMPI MLOAD PUSH0 PUSH2 0x900 JUMP JUMPDEST RETURNDATASIZE SWAP2 POP PUSH2 0xE9D JUMP JUMPDEST SWAP1 POP PUSH1 0x20 DUP2 RETURNDATASIZE PUSH1 0x20 GT PUSH2 0xEEF JUMPI JUMPDEST DUP2 PUSH2 0xEDC PUSH1 0x20 SWAP4 DUP4 PUSH2 0x13C5 JUMP JUMPDEST DUP2 ADD SUB SLT PUSH2 0xEEB JUMPI MLOAD PUSH0 PUSH2 0x8CB JUMP JUMPDEST DUP3 DUP1 REVERT JUMPDEST RETURNDATASIZE SWAP2 POP PUSH2 0xECF JUMP JUMPDEST SWAP1 POP PUSH1 0x20 DUP2 RETURNDATASIZE PUSH1 0x20 GT PUSH2 0xF29 JUMPI JUMPDEST DUP2 PUSH2 0xF12 PUSH1 0x20 SWAP4 DUP4 PUSH2 0x13C5 JUMP JUMPDEST DUP2 ADD SUB SLT PUSH2 0xEEB JUMPI PUSH2 0xF23 SWAP1 PUSH2 0x13E7 JUMP JUMPDEST PUSH0 PUSH2 0x88F JUMP JUMPDEST RETURNDATASIZE SWAP2 POP PUSH2 0xF05 JUMP JUMPDEST SWAP1 POP PUSH1 0x20 DUP2 RETURNDATASIZE PUSH1 0x20 GT PUSH2 0xF64 JUMPI JUMPDEST DUP2 PUSH2 0xF4C PUSH1 0x20 SWAP4 DUP4 PUSH2 0x13C5 JUMP JUMPDEST DUP2 ADD SUB SLT PUSH2 0xEEB JUMPI MLOAD DUP1 ISZERO ISZERO DUP2 SUB PUSH2 0xEEB JUMPI PUSH0 PUSH2 0x85D JUMP JUMPDEST RETURNDATASIZE SWAP2 POP PUSH2 0xF3F JUMP JUMPDEST PUSH4 0x4E487B71 PUSH1 0xE0 SHL PUSH0 MSTORE PUSH1 0x41 PUSH1 0x4 MSTORE PUSH1 0x24 PUSH0 REVERT JUMPDEST POP CALLVALUE PUSH2 0x191 JUMPI DUP1 PUSH1 0x3 NOT CALLDATASIZE ADD SLT PUSH2 0x191 JUMPI SLOAD PUSH1 0x40 MLOAD PUSH1 0x1 PUSH1 0x1 PUSH1 0xA0 SHL SUB SWAP1 SWAP2 AND DUP2 MSTORE PUSH1 0x20 SWAP1 RETURN JUMPDEST POP CALLVALUE PUSH2 0x191 JUMPI DUP1 PUSH1 0x3 NOT CALLDATASIZE ADD SLT PUSH2 0x191 JUMPI PUSH2 0xFC0 PUSH2 0x1329 JUMP JUMPDEST PUSH0 DUP1 SLOAD PUSH1 0x1 PUSH1 0x1 PUSH1 0xA0 SHL SUB NOT DUP2 AND DUP3 SSTORE PUSH1 0x1 PUSH1 0x1 PUSH1 0xA0 SHL SUB AND PUSH32 0x8BE0079C531659141344CD1FD0A4F28419497F9722A3DAAFE3B4186F6B6457E0 DUP3 DUP1 LOG3 DUP1 RETURN JUMPDEST POP CALLVALUE PUSH2 0x191 JUMPI PUSH1 0x20 CALLDATASIZE PUSH1 0x3 NOT ADD SLT PUSH2 0x191 JUMPI PUSH2 0x101A PUSH2 0x12E2 JUMP JUMPDEST PUSH2 0x1022 PUSH2 0x1329 JUMP JUMPDEST PUSH1 0x1 PUSH1 0x1 PUSH1 0xA0 SHL SUB AND DUP1 ISZERO PUSH2 0x104C JUMPI PUSH12 0xFFFFFFFFFFFFFFFFFFFFFFFF PUSH1 0xA0 SHL PUSH1 0x1 SLOAD AND OR PUSH1 0x1 SSTORE DUP1 RETURN JUMPDEST PUSH1 0x40 MLOAD PUSH3 0x461BCD PUSH1 0xE5 SHL DUP2 MSTORE PUSH1 0x20 PUSH1 0x4 DUP3 ADD MSTORE PUSH1 0x9 PUSH1 0x24 DUP3 ADD MSTORE PUSH9 0x666163746F7279203 PUSH1 0xBC SHL PUSH1 0x44 DUP3 ADD MSTORE PUSH1 0x64 SWAP1 REVERT JUMPDEST POP CALLVALUE PUSH2 0x191 JUMPI PUSH1 0x20 CALLDATASIZE PUSH1 0x3 NOT ADD SLT PUSH2 0x191 JUMPI DUP1 PUSH2 0x1098 PUSH2 0x12E2 JUMP JUMPDEST PUSH2 0x10A8 PUSH1 0xFF DUP4 SLOAD PUSH1 0xA0 SHR AND PUSH2 0x1354 JUMP JUMPDEST PUSH1 0x1 PUSH1 0x1 PUSH1 0xA0 SHL SUB AND DUP1 EXTCODESIZE ISZERO PUSH2 0x10DD JUMPI DUP2 DUP1 SWAP2 PUSH1 0x4 PUSH1 0x40 MLOAD DUP1 SWAP5 DUP2 SWAP4 PUSH4 0xB7CFFBD PUSH1 0xE3 SHL DUP4 MSTORE GAS CALL DUP1 ISZERO PUSH2 0x27D JUMPI PUSH2 0x3B1 JUMPI POP RETURN JUMPDEST POP REVERT JUMPDEST POP CALLVALUE PUSH2 0x191 JUMPI DUP1 PUSH1 0x3 NOT CALLDATASIZE ADD SLT PUSH2 0x191 JUMPI PUSH1 0xFF PUSH1 0x20 SWAP2 SLOAD PUSH1 0xA0 SHR AND PUSH1 0x40 MLOAD SWAP1 ISZERO ISZERO DUP2 MSTORE RETURN JUMPDEST POP CALLVALUE PUSH2 0x191 JUMPI PUSH1 0x20 CALLDATASIZE PUSH1 0x3 NOT ADD SLT PUSH2 0x191 JUMPI DUP1 PUSH2 0x1120 PUSH2 0x12E2 JUMP JUMPDEST PUSH2 0x1130 PUSH1 0xFF DUP4 SLOAD PUSH1 0xA0 SHR AND PUSH2 0x1354 JUMP JUMPDEST PUSH1 0x1 PUSH1 0x1 PUSH1 0xA0 SHL SUB AND DUP1 EXTCODESIZE ISZERO PUSH2 0x10DD JUMPI DUP2 DUP1 SWAP2 PUSH1 0x4 PUSH1 0x40 MLOAD DUP1 SWAP5 DUP2 SWAP4 PUSH4 0x86D1A69F PUSH1 0xE0 SHL DUP4 MSTORE GAS CALL DUP1 ISZERO PUSH2 0x27D JUMPI PUSH2 0x3B1 JUMPI POP RETURN JUMPDEST POP CALLVALUE PUSH2 0x191 JUMPI PUSH1 0x60 CALLDATASIZE PUSH1 0x3 NOT ADD SLT PUSH2 0x191 JUMPI DUP1 PUSH2 0x1180 PUSH2 0x12E2 JUMP JUMPDEST PUSH2 0x1190 PUSH1 0xFF DUP4 SLOAD PUSH1 0xA0 SHR AND PUSH2 0x1354 JUMP JUMPDEST PUSH1 0x1 PUSH1 0x1 PUSH1 0xA0 SHL SUB AND DUP1 EXTCODESIZE ISZERO PUSH2 0x10DD JUMPI DUP2 DUP1 SWAP2 PUSH1 0x44 PUSH1 0x40 MLOAD DUP1 SWAP5 DUP2 SWAP4 PUSH4 0x7B0472F PUSH1 0xE4 SHL DUP4 MSTORE PUSH1 0x24 CALLDATALOAD PUSH1 0x4 DUP5 ADD MSTORE DUP4 CALLDATALOAD PUSH1 0x24 DUP5 ADD MSTORE GAS CALL DUP1 ISZERO PUSH2 0x27D JUMPI PUSH2 0x3B1 JUMPI POP RETURN JUMPDEST POP CALLVALUE PUSH2 0x191 JUMPI PUSH1 0x40 CALLDATASIZE PUSH1 0x3 NOT ADD SLT PUSH2 0x191 JUMPI PUSH2 0x11EE PUSH2 0x1329 JUMP JUMPDEST PUSH1 0x1 SLOAD DUP2 SWAP1 PUSH1 0x1 PUSH1 0x1 PUSH1 0xA0 SHL SUB AND DUP1 EXTCODESIZE ISZERO PUSH2 0x10DD JUMPI DUP2 SWAP1 PUSH1 0x44 PUSH1 0x40 MLOAD DUP1 SWAP5 DUP2 SWAP4 PUSH3 0x2DE3E7 PUSH1 0xE6 SHL DUP4 MSTORE PUSH1 0x4 CALLDATALOAD PUSH1 0x4 DUP5 ADD MSTORE PUSH1 0x24 CALLDATALOAD PUSH1 0x24 DUP5 ADD MSTORE GAS CALL DUP1 ISZERO PUSH2 0x27D JUMPI PUSH2 0x1237 JUMPI POP DUP1 RETURN JUMPDEST PUSH2 0x1240 SWAP1 PUSH2 0x1395 JUMP JUMPDEST DUP1 RETURN JUMPDEST SWAP1 POP CALLVALUE PUSH2 0x12D6 JUMPI PUSH1 0x40 CALLDATASIZE PUSH1 0x3 NOT ADD SLT PUSH2 0x12D6 JUMPI PUSH2 0x125E PUSH2 0x12E2 JUMP JUMPDEST PUSH1 0x1 PUSH1 0x1 PUSH1 0xA0 SHL SUB PUSH1 0x24 CALLDATALOAD DUP2 DUP2 AND SWAP3 SWAP1 DUP4 SWAP1 SUB PUSH2 0x68B JUMPI DUP4 DUP1 SWAP3 PUSH1 0x24 SWAP3 PUSH1 0x20 SWAP6 PUSH4 0x18E521FD PUSH1 0xE2 SHL DUP5 MSTORE PUSH1 0x4 DUP5 ADD MSTORE AND GAS STATICCALL SWAP1 DUP2 ISZERO PUSH2 0x27D JUMPI DUP3 SWAP2 PUSH2 0x12A9 JUMPI JUMPDEST PUSH1 0x20 DUP3 PUSH1 0x40 MLOAD SWAP1 DUP2 MSTORE RETURN JUMPDEST SWAP1 POP PUSH1 0x20 DUP2 RETURNDATASIZE DUP3 GT PUSH2 0x12DA JUMPI JUMPDEST DUP2 PUSH2 0x12C3 PUSH1 0x20 SWAP4 DUP4 PUSH2 0x13C5 JUMP JUMPDEST DUP2 ADD SUB SLT PUSH2 0x12D6 JUMPI PUSH1 0x20 SWAP2 POP MLOAD PUSH0 PUSH2 0x129E JUMP JUMPDEST POP DUP1 REVERT JUMPDEST RETURNDATASIZE SWAP2 POP PUSH2 0x12B6 JUMP JUMPDEST PUSH1 0x4 CALLDATALOAD SWAP1 PUSH1 0x1 PUSH1 0x1 PUSH1 0xA0 SHL SUB DUP3 AND DUP3 SUB PUSH2 0x235 JUMPI JUMP JUMPDEST SWAP2 DUP2 PUSH1 0x1F DUP5 ADD SLT ISZERO PUSH2 0x235 JUMPI DUP3 CALLDATALOAD SWAP2 PUSH8 0xFFFFFFFFFFFFFFFF DUP4 GT PUSH2 0x235 JUMPI PUSH1 0x20 DUP1 DUP6 ADD SWAP5 DUP5 PUSH1 0x6 SHL ADD ADD GT PUSH2 0x235 JUMPI JUMP JUMPDEST PUSH0 SLOAD PUSH1 0x1 PUSH1 0x1 PUSH1 0xA0 SHL SUB AND CALLER SUB PUSH2 0x133C JUMPI JUMP JUMPDEST PUSH1 0x40 MLOAD PUSH4 0x118CDAA7 PUSH1 0xE0 SHL DUP2 MSTORE CALLER PUSH1 0x4 DUP3 ADD MSTORE PUSH1 0x24 SWAP1 REVERT JUMPDEST ISZERO PUSH2 0x135B JUMPI JUMP JUMPDEST PUSH1 0x40 MLOAD PUSH3 0x461BCD PUSH1 0xE5 SHL DUP2 MSTORE PUSH1 0x20 PUSH1 0x4 DUP3 ADD MSTORE PUSH1 0x12 PUSH1 0x24 DUP3 ADD MSTORE PUSH18 0x149BDD5D195C881A5CC8191A5CD8589B1959 PUSH1 0x72 SHL PUSH1 0x44 DUP3 ADD MSTORE PUSH1 0x64 SWAP1 REVERT JUMPDEST PUSH8 0xFFFFFFFFFFFFFFFF DUP2 GT PUSH2 0xF6C JUMPI PUSH1 0x40 MSTORE JUMP JUMPDEST PUSH1 0x40 DUP2 ADD SWAP1 DUP2 LT PUSH8 0xFFFFFFFFFFFFFFFF DUP3 GT OR PUSH2 0xF6C JUMPI PUSH1 0x40 MSTORE JUMP JUMPDEST SWAP1 PUSH1 0x1F DUP1 NOT SWAP2 ADD AND DUP2 ADD SWAP1 DUP2 LT PUSH8 0xFFFFFFFFFFFFFFFF DUP3 GT OR PUSH2 0xF6C JUMPI PUSH1 0x40 MSTORE JUMP JUMPDEST MLOAD SWAP1 PUSH1 0x1 PUSH1 0x1 PUSH1 0xA0 SHL SUB DUP3 AND DUP3 SUB PUSH2 0x235 JUMPI JUMP JUMPDEST PUSH8 0xFFFFFFFFFFFFFFFF DUP2 GT PUSH2 0xF6C JUMPI PUSH1 0x5 SHL PUSH1 0x20 ADD SWAP1 JUMP JUMPDEST PUSH0 NOT DUP2 EQ PUSH2 0x1421 JUMPI PUSH1 0x1 ADD SWAP1 JUMP JUMPDEST PUSH4 0x4E487B71 PUSH1 0xE0 SHL PUSH0 MSTORE PUSH1 0x11 PUSH1 0x4 MSTORE PUSH1 0x24 PUSH0 REVERT JUMPDEST DUP1 MLOAD DUP3 LT ISZERO PUSH2 0x1449 JUMPI PUSH1 0x20 SWAP2 PUSH1 0x5 SHL ADD ADD SWAP1 JUMP JUMPDEST PUSH4 0x4E487B71 PUSH1 0xE0 SHL PUSH0 MSTORE PUSH1 0x32 PUSH1 0x4 MSTORE PUSH1 0x24 PUSH0 REVERT JUMPDEST SWAP2 SWAP1 DUP3 PUSH1 0x40 SWAP2 SUB SLT PUSH2 0x235 JUMPI PUSH1 0x20 DUP3 MLOAD SWAP3 ADD MLOAD SWAP1 JUMP INVALID LOG2 PUSH5 0x6970667358 0x22 SLT KECCAK256 SLOAD PUSH22 0x2831CE02D102FCBFE0E78546275A31A6927151627847 SHR MSIZE 0x4D DIV BLOCKHASH PUSH17 0x4CB264736F6C6343000814003300000000 "
				},
				"gasEstimates": {
					"creation": {
						"codeDepositCost": "1057800",
						"executionCost": "infinite",
						"totalCost": "infinite"
					},
					"external": {
						"closeVault(address)": "infinite",
						"createVault(address,uint256,uint256,int256,uint256[],(uint256,uint256)[],(uint256,uint256)[])": "infinite",
						"disableRouter()": "26922",
						"enableRouter()": "26822",
						"factory()": "2619",
						"getAllVaults()": "infinite",
						"getFactory()": "2465",
						"getFees()": "infinite",
						"getProtocol()": "infinite",
						"getVaultByToken(address)": "infinite",
						"getVaultInfo(address)": "infinite",
						"getXP(address,address)": "infinite",
						"isRouterEnabled()": "2371",
						"owner()": "2484",
						"release(address)": "infinite",
						"releaseAll(address)": "infinite",
						"renounceOwnership()": "28216",
						"setFactory(address)": "26766",
						"setFees(uint256,uint256)": "infinite",
						"stake(address,uint256,uint256)": "infinite",
						"transferOwnership(address)": "28593"
					}
				},
				"methodIdentifiers": {
					"closeVault(address)": "c99cb2b7",
					"createVault(address,uint256,uint256,int256,uint256[],(uint256,uint256)[],(uint256,uint256)[])": "a444477b",
					"disableRouter()": "d858a7e5",
					"enableRouter()": "b0f07f15",
					"factory()": "c45a0155",
					"getAllVaults()": "97331bf9",
					"getFactory()": "88cc58e4",
					"getFees()": "db8d55f1",
					"getProtocol()": "d16352af",
					"getVaultByToken(address)": "b1e3a941",
					"getVaultInfo(address)": "90229af7",
					"getXP(address,address)": "05e2e95d",
					"isRouterEnabled()": "55197241",
					"owner()": "8da5cb5b",
					"release(address)": "19165587",
					"releaseAll(address)": "580fc80a",
					"renounceOwnership()": "715018a6",
					"setFactory(address)": "5bb47808",
					"setFees(uint256,uint256)": "0b78f9c0",
					"stake(address,uint256,uint256)": "0c51b88f",
					"transferOwnership(address)": "f2fde38b"
				}
			},
			"storageLayout": {
				"storage": [
					{
						"astId": 8,
						"contract": "contracts/YunaVaultRouter.sol:YunaVaultRouter",
						"label": "_owner",
						"offset": 0,
						"slot": "0",
						"type": "t_address"
					},
					{
						"astId": 346,
						"contract": "contracts/YunaVaultRouter.sol:YunaVaultRouter",
						"label": "isRouterEnabled",
						"offset": 20,
						"slot": "0",
						"type": "t_bool"
					},
					{
						"astId": 348,
						"contract": "contracts/YunaVaultRouter.sol:YunaVaultRouter",
						"label": "factory",
						"offset": 0,
						"slot": "1",
						"type": "t_address"
					}
				],
				"types": {
					"t_address": {
						"encoding": "inplace",
						"label": "address",
						"numberOfBytes": "20"
					},
					"t_bool": {
						"encoding": "inplace",
						"label": "bool",
						"numberOfBytes": "1"
					}
				}
			},
			"userdoc": {
				"kind": "user",
				"methods": {},
				"version": 1
			}
		}
	}
}