{
	"contracts/airdrop.sol": {
		"Airdrop": {
			"abi": [
				{
					"inputs": [
						{
							"internalType": "address",
							"name": "owner",
							"type": "address"
						}
					],
					"name": "OwnableInvalidOwner",
					"type": "error"
				},
				{
					"inputs": [
						{
							"internalType": "address",
							"name": "account",
							"type": "address"
						}
					],
					"name": "OwnableUnauthorizedAccount",
					"type": "error"
				},
				{
					"anonymous": false,
					"inputs": [
						{
							"indexed": true,
							"internalType": "address",
							"name": "to",
							"type": "address"
						},
						{
							"indexed": false,
							"internalType": "uint256",
							"name": "amount",
							"type": "uint256"
						}
					],
					"name": "Airdropped",
					"type": "event"
				},
				{
					"anonymous": false,
					"inputs": [
						{
							"indexed": true,
							"internalType": "address",
							"name": "previousOwner",
							"type": "address"
						},
						{
							"indexed": true,
							"internalType": "address",
							"name": "newOwner",
							"type": "address"
						}
					],
					"name": "OwnershipTransferred",
					"type": "event"
				},
				{
					"inputs": [
						{
							"internalType": "address",
							"name": "token",
							"type": "address"
						},
						{
							"internalType": "address",
							"name": "from",
							"type": "address"
						},
						{
							"internalType": "address[]",
							"name": "recipients",
							"type": "address[]"
						},
						{
							"internalType": "uint256[]",
							"name": "amounts",
							"type": "uint256[]"
						}
					],
					"name": "airdrop",
					"outputs": [],
					"stateMutability": "nonpayable",
					"type": "function"
				},
				{
					"inputs": [],
					"name": "owner",
					"outputs": [
						{
							"internalType": "address",
							"name": "",
							"type": "address"
						}
					],
					"stateMutability": "view",
					"type": "function"
				},
				{
					"inputs": [],
					"name": "renounceOwnership",
					"outputs": [],
					"stateMutability": "nonpayable",
					"type": "function"
				},
				{
					"inputs": [
						{
							"internalType": "address",
							"name": "newOwner",
							"type": "address"
						}
					],
					"name": "transferOwnership",
					"outputs": [],
					"stateMutability": "nonpayable",
					"type": "function"
				}
			],
			"devdoc": {
				"errors": {
					"OwnableInvalidOwner(address)": [
						{
							"details": "The owner is not a valid owner account. (eg. `address(0)`)"
						}
					],
					"OwnableUnauthorizedAccount(address)": [
						{
							"details": "The caller account is not authorized to perform an operation."
						}
					]
				},
				"kind": "dev",
				"methods": {
					"owner()": {
						"details": "Returns the address of the current owner."
					},
					"renounceOwnership()": {
						"details": "Leaves the contract without owner. It will not be possible to call `onlyOwner` functions. Can only be called by the current owner. NOTE: Renouncing ownership will leave the contract without an owner, thereby disabling any functionality that is only available to the owner."
					},
					"transferOwnership(address)": {
						"details": "Transfers ownership of the contract to a new account (`newOwner`). Can only be called by the current owner."
					}
				},
				"version": 1
			},
			"evm": {
				"assembly": "    /* \"contracts/airdrop.sol\":175:1091  contract Airdrop is Ownable(msg.sender) {... */\n  0x80\n  dup1\n  0x40\n  mstore\n  jumpi(tag_1, callvalue)\n    /* \"contracts/airdrop.sol\":203:213  msg.sender */\n  caller\n    /* \"@openzeppelin/contracts/access/Ownable.sol\":1273:1299  initialOwner == address(0) */\n  iszero\n    /* \"@openzeppelin/contracts/access/Ownable.sol\":1269:1364  if (initialOwner == address(0)) {... */\n  tag_3\n  jumpi\n    /* \"@openzeppelin/contracts/access/Ownable.sol\":1297:1298  0 */\n  0x00\n    /* \"contracts/airdrop.sol\":175:1091  contract Airdrop is Ownable(msg.sender) {... */\n  dup1\n  sload\n    /* \"contracts/airdrop.sol\":203:213  msg.sender */\n  caller\n  not(sub(shl(0xa0, 0x01), 0x01))\n    /* \"contracts/airdrop.sol\":175:1091  contract Airdrop is Ownable(msg.sender) {... */\n  dup3\n  and\n  dup2\n  or\n  dup4\n  sstore\n  mload(0x40)\n  swap3\n    /* \"contracts/airdrop.sol\":203:213  msg.sender */\n  swap1\n  swap2\n  sub(shl(0xa0, 0x01), 0x01)\n    /* \"contracts/airdrop.sol\":175:1091  contract Airdrop is Ownable(msg.sender) {... */\n  and\n  swap1\n    /* \"@openzeppelin/contracts/access/Ownable.sol\":3052:3092  OwnershipTransferred(oldOwner, newOwner) */\n  0x8be0079c531659141344cd1fd0a4f28419497f9722a3daafe3b4186f6b6457e0\n  swap1\n    /* \"@openzeppelin/contracts/access/Ownable.sol\":1297:1298  0 */\n  dup1\n    /* \"@openzeppelin/contracts/access/Ownable.sol\":3052:3092  OwnershipTransferred(oldOwner, newOwner) */\n  log3\n    /* \"contracts/airdrop.sol\":175:1091  contract Airdrop is Ownable(msg.sender) {... */\n  dataSize(sub_0)\n  swap1\n  dup2\n  dataOffset(sub_0)\n  dup3\n  codecopy\n  return\n    /* \"@openzeppelin/contracts/access/Ownable.sol\":1269:1364  if (initialOwner == address(0)) {... */\ntag_3:\n  shl(0xe0, 0x1e4fbdf7)\n    /* \"@openzeppelin/contracts/access/Ownable.sol\":1322:1353  OwnableInvalidOwner(address(0)) */\n  dup2\n  mstore\n    /* \"@openzeppelin/contracts/access/Ownable.sol\":1297:1298  0 */\n  0x00\n    /* \"@openzeppelin/contracts/access/Ownable.sol\":1322:1353  OwnableInvalidOwner(address(0)) */\n  0x04\n  dup3\n  add\n    /* \"contracts/airdrop.sol\":175:1091  contract Airdrop is Ownable(msg.sender) {... */\n  mstore\n  0x24\n  swap1\n    /* \"@openzeppelin/contracts/access/Ownable.sol\":1322:1353  OwnableInvalidOwner(address(0)) */\n  revert\n    /* \"contracts/airdrop.sol\":175:1091  contract Airdrop is Ownable(msg.sender) {... */\ntag_1:\n  0x00\n  dup1\n  revert\nstop\n\nsub_0: assembly {\n        /* \"contracts/airdrop.sol\":175:1091  contract Airdrop is Ownable(msg.sender) {... */\n      0x40\n      0x80\n      dup2\n      mstore\n      0x04\n      swap1\n      dup2\n      calldatasize\n      lt\n      iszero\n      tag_9\n      jumpi\n      0x00\n      dup1\n      revert\n    tag_9:\n      0x00\n      swap2\n      dup3\n      calldataload\n      0xe0\n      shr\n      dup1\n      0x715018a6\n      eq\n      tag_11\n      jumpi\n      dup1\n      0x8da5cb5b\n      eq\n      tag_13\n      jumpi\n      dup1\n      0xe4485ca4\n      eq\n      tag_15\n      jumpi\n      0xf2fde38b\n      eq\n      tag_17\n      jumpi\n      0x00\n      dup1\n      revert\n    tag_17:\n      jumpi(tag_21, callvalue)\n      jumpi(tag_21, slt(add(not(0x03), calldatasize), 0x20))\n      tag_23\n      tag_1\n      jump\t// in\n    tag_23:\n        /* \"@openzeppelin/contracts/access/Ownable.sol\":1500:1562  modifier onlyOwner() {... */\n      swap1\n      tag_24\n      tag_3\n      jump\t// in\n    tag_24:\n      sub(shl(0xa0, 0x01), 0x01)\n        /* \"contracts/airdrop.sol\":175:1091  contract Airdrop is Ownable(msg.sender) {... */\n      swap2\n      dup3\n      and\n      swap3\n        /* \"@openzeppelin/contracts/access/Ownable.sol\":2627:2649  newOwner == address(0) */\n      dup4\n      iszero\n        /* \"@openzeppelin/contracts/access/Ownable.sol\":2623:2714  if (newOwner == address(0)) {... */\n      tag_25\n      jumpi\n      pop\n      pop\n        /* \"contracts/airdrop.sol\":175:1091  contract Airdrop is Ownable(msg.sender) {... */\n      dup3\n      sload\n      not(sub(shl(0xa0, 0x01), 0x01))\n      dup2\n      and\n      dup4\n      or\n      dup5\n      sstore\n      and\n        /* \"@openzeppelin/contracts/access/Ownable.sol\":3052:3092  OwnershipTransferred(oldOwner, newOwner) */\n      0x8be0079c531659141344cd1fd0a4f28419497f9722a3daafe3b4186f6b6457e0\n        /* \"contracts/airdrop.sol\":175:1091  contract Airdrop is Ownable(msg.sender) {... */\n      dup4\n      dup1\n        /* \"@openzeppelin/contracts/access/Ownable.sol\":3052:3092  OwnershipTransferred(oldOwner, newOwner) */\n      log3\n        /* \"contracts/airdrop.sol\":175:1091  contract Airdrop is Ownable(msg.sender) {... */\n      dup1\n      return\n        /* \"@openzeppelin/contracts/access/Ownable.sol\":2623:2714  if (newOwner == address(0)) {... */\n    tag_25:\n        /* \"contracts/airdrop.sol\":175:1091  contract Airdrop is Ownable(msg.sender) {... */\n      mload\n      shl(0xe0, 0x1e4fbdf7)\n        /* \"@openzeppelin/contracts/access/Ownable.sol\":2672:2703  OwnableInvalidOwner(address(0)) */\n      dup2\n      mstore\n      swap1\n      dup2\n      add\n        /* \"contracts/airdrop.sol\":175:1091  contract Airdrop is Ownable(msg.sender) {... */\n      dup5\n      swap1\n      mstore\n      0x24\n      swap1\n        /* \"@openzeppelin/contracts/access/Ownable.sol\":2672:2703  OwnableInvalidOwner(address(0)) */\n      revert\n        /* \"contracts/airdrop.sol\":175:1091  contract Airdrop is Ownable(msg.sender) {... */\n    tag_21:\n      dup3\n      dup1\n      revert\n    tag_15:\n      pop\n      jumpi(tag_21, callvalue)\n      jumpi(tag_21, slt(add(not(0x03), calldatasize), 0x80))\n      tag_31\n      tag_1\n      jump\t// in\n    tag_31:\n      sub(shl(0xa0, 0x01), 0x01)\n      calldataload(0x24)\n      dup2\n      dup2\n      and\n      swap3\n      swap1\n      dup4\n      swap1\n      sub\n      tag_32\n      jumpi\n      0xffffffffffffffff\n      calldataload(0x44)\n      dup2\n      dup2\n      gt\n      tag_34\n      jumpi\n      tag_36\n      swap1\n      calldatasize\n      swap1\n      dup8\n      add\n      tag_2\n      jump\t// in\n    tag_36:\n      swap1\n      swap2\n      calldataload(0x64)\n      swap1\n      dup2\n      gt\n      tag_37\n      jumpi\n      tag_39\n      swap1\n      calldatasize\n      swap1\n      dup9\n      add\n      tag_2\n      jump\t// in\n    tag_39:\n        /* \"@openzeppelin/contracts/access/Ownable.sol\":1500:1562  modifier onlyOwner() {... */\n      swap3\n      swap1\n      swap4\n      tag_40\n      tag_3\n      jump\t// in\n    tag_40:\n        /* \"contracts/airdrop.sol\":469:504  recipients.length == amounts.length */\n      dup4\n      dup4\n      sub\n        /* \"contracts/airdrop.sol\":175:1091  contract Airdrop is Ownable(msg.sender) {... */\n      tag_41\n      jumpi\n      dup6\n      and\n        /* \"contracts/airdrop.sol\":576:589  uint256 total */\n      swap7\n      dup10\n        /* \"contracts/airdrop.sol\":605:618  uint256 i = 0 */\n      dup11\n        /* \"contracts/airdrop.sol\":620:638  i < amounts.length */\n    tag_43:\n      dup6\n      dup2\n      lt\n      tag_44\n      jumpi\n      pop\n        /* \"contracts/airdrop.sol\":175:1091  contract Airdrop is Ownable(msg.sender) {... */\n      dup10\n      mload\n      shl(0xe0, 0x23b872dd)\n        /* \"contracts/airdrop.sol\":725:771  erc20.transferFrom(from, address(this), total) */\n      dup2\n      mstore\n      dup3\n      dup2\n      add\n        /* \"contracts/airdrop.sol\":175:1091  contract Airdrop is Ownable(msg.sender) {... */\n      swap9\n      swap1\n      swap9\n      mstore\n        /* \"contracts/airdrop.sol\":758:762  this */\n      address\n        /* \"contracts/airdrop.sol\":175:1091  contract Airdrop is Ownable(msg.sender) {... */\n      0x24\n      dup10\n      add\n      mstore\n      0x44\n      dup9\n      add\n      mstore\n      0x20\n      swap7\n      dup8\n      dup2\n      0x64\n      dup2\n      dup15\n        /* \"contracts/airdrop.sol\":725:771  erc20.transferFrom(from, address(this), total) */\n      dup14\n      gas\n      call\n      swap1\n      dup2\n      iszero\n      tag_46\n      jumpi\n      dup12\n      swap2\n      tag_48\n      jumpi\n        /* \"contracts/airdrop.sol\":600:691  for (uint256 i = 0; i < amounts.length; i++) {... */\n    tag_49:\n        /* \"contracts/airdrop.sol\":175:1091  contract Airdrop is Ownable(msg.sender) {... */\n      pop\n      iszero\n      tag_50\n      jumpi\n        /* \"contracts/airdrop.sol\":836:849  uint256 i = 0 */\n      dup10\n        /* \"contracts/airdrop.sol\":851:872  i < recipients.length */\n    tag_52:\n      dup11\n      dup5\n      dup3\n      lt\n      tag_53\n      jumpi\n        /* \"contracts/airdrop.sol\":175:1091  contract Airdrop is Ownable(msg.sender) {... */\n      dup1\n      return\n        /* \"contracts/airdrop.sol\":874:877  i++ */\n    tag_53:\n        /* \"contracts/airdrop.sol\":935:948  recipients[i] */\n      dup9\n      dup9\n        /* \"contracts/airdrop.sol\":175:1091  contract Airdrop is Ownable(msg.sender) {... */\n      0x44\n        /* \"contracts/airdrop.sol\":935:948  recipients[i] */\n      dup10\n      dup15\n      swap5\n      dup15\n        /* \"contracts/airdrop.sol\":950:960  amounts[i] */\n      tag_55\n        /* \"contracts/airdrop.sol\":935:948  recipients[i] */\n      dup9\n      dup14\n      tag_56\n      tag_57\n      dup16\n      dup16\n      swap1\n      dup6\n      swap2\n      tag_5\n      jump\t// in\n    tag_57:\n      tag_8\n      jump\t// in\n    tag_56:\n        /* \"contracts/airdrop.sol\":950:960  amounts[i] */\n      swap6\n      tag_5\n      jump\t// in\n    tag_55:\n        /* \"contracts/airdrop.sol\":175:1091  contract Airdrop is Ownable(msg.sender) {... */\n      calldataload\n      swap7\n      mload\n      swap7\n      dup8\n      swap6\n      dup7\n      swap5\n      shl(0xe0, 0xa9059cbb)\n        /* \"contracts/airdrop.sol\":920:961  erc20.transfer(recipients[i], amounts[i]) */\n      dup7\n      mstore\n        /* \"contracts/airdrop.sol\":175:1091  contract Airdrop is Ownable(msg.sender) {... */\n      and\n        /* \"contracts/airdrop.sol\":920:961  erc20.transfer(recipients[i], amounts[i]) */\n      dup11\n      dup6\n      add\n        /* \"contracts/airdrop.sol\":175:1091  contract Airdrop is Ownable(msg.sender) {... */\n      mstore\n      0x24\n      dup5\n      add\n      mstore\n        /* \"contracts/airdrop.sol\":920:961  erc20.transfer(recipients[i], amounts[i]) */\n      gas\n      call\n      swap1\n      dup2\n      iszero\n      tag_58\n      jumpi\n      dup13\n      swap2\n      tag_60\n      jumpi\n        /* \"contracts/airdrop.sol\":874:877  i++ */\n    tag_61:\n        /* \"contracts/airdrop.sol\":175:1091  contract Airdrop is Ownable(msg.sender) {... */\n      pop\n      iszero\n      tag_62\n      jumpi\n        /* \"contracts/airdrop.sol\":1043:1056  recipients[i] */\n      dup1\n      dup11\n        /* \"contracts/airdrop.sol\":1032:1069  Airdropped(recipients[i], amounts[i]) */\n      0x7bd6d4be1decdc27a9ed9c7ccdf5bb7cc38e31b3647b958c6b37162a2296c0fa\n        /* \"contracts/airdrop.sol\":1043:1056  recipients[i] */\n      dup11\n      dup11\n      dup11\n        /* \"contracts/airdrop.sol\":1058:1068  amounts[i] */\n      tag_64\n        /* \"contracts/airdrop.sol\":1043:1056  recipients[i] */\n      dup7\n      dup13\n      tag_65\n      tag_57\n        /* \"contracts/airdrop.sol\":874:877  i++ */\n      tag_67\n        /* \"contracts/airdrop.sol\":1043:1056  recipients[i] */\n      swap12\n      dup16\n      dup16\n      tag_5\n      jump\t// in\n    tag_65:\n        /* \"contracts/airdrop.sol\":1058:1068  amounts[i] */\n      swap4\n      tag_5\n      jump\t// in\n    tag_64:\n        /* \"contracts/airdrop.sol\":175:1091  contract Airdrop is Ownable(msg.sender) {... */\n      calldataload\n      swap5\n      mload\n      swap5\n      dup6\n      mstore\n      and\n        /* \"contracts/airdrop.sol\":1032:1069  Airdropped(recipients[i], amounts[i]) */\n      swap3\n      log2\n        /* \"contracts/airdrop.sol\":874:877  i++ */\n      tag_4\n      jump\t// in\n    tag_67:\n        /* \"contracts/airdrop.sol\":836:849  uint256 i = 0 */\n      jump(tag_52)\n        /* \"contracts/airdrop.sol\":175:1091  contract Airdrop is Ownable(msg.sender) {... */\n    tag_62:\n      dup10\n      mload\n      shl(0xe5, 0x461bcd)\n      dup2\n      mstore\n      dup1\n      dup4\n      add\n      dup10\n      swap1\n      mstore\n      0x0f\n      0x24\n      dup3\n      add\n      mstore\n      shl(0x8a, 0x151c985b9cd9995c8819985a5b1959)\n      0x44\n      dup3\n      add\n      mstore\n      0x64\n      swap1\n      revert\n        /* \"contracts/airdrop.sol\":920:961  erc20.transfer(recipients[i], amounts[i]) */\n    tag_60:\n      tag_68\n      swap2\n      pop\n      dup10\n      returndatasize\n      dup12\n      gt\n      tag_69\n      jumpi\n    tag_70:\n      tag_71\n      dup2\n      dup4\n      tag_6\n      jump\t// in\n    tag_71:\n      dup2\n      add\n      swap1\n      tag_7\n      jump\t// in\n    tag_68:\n      0x00\n      jump(tag_61)\n    tag_69:\n      pop\n      returndatasize\n      jump(tag_70)\n    tag_58:\n        /* \"contracts/airdrop.sol\":175:1091  contract Airdrop is Ownable(msg.sender) {... */\n      dup12\n      mload\n      returndatasize\n      dup15\n      dup3\n      returndatacopy\n      returndatasize\n      swap1\n      revert\n    tag_50:\n      dup9\n      mload\n      shl(0xe5, 0x461bcd)\n      dup2\n      mstore\n      swap1\n      dup2\n      add\n      dup8\n      swap1\n      mstore\n      0x13\n      0x24\n      dup3\n      add\n      mstore\n      shl(0x6a, 0x151c985b9cd9995c919c9bdb4819985a5b1959)\n      0x44\n      dup3\n      add\n      mstore\n      0x64\n      swap1\n      revert\n        /* \"contracts/airdrop.sol\":725:771  erc20.transferFrom(from, address(this), total) */\n    tag_48:\n      tag_72\n      swap2\n      pop\n      dup9\n      returndatasize\n      dup11\n      gt\n      tag_69\n      jumpi\n      tag_71\n      dup2\n      dup4\n      tag_6\n      jump\t// in\n    tag_72:\n      0x00\n      jump(tag_49)\n    tag_46:\n        /* \"contracts/airdrop.sol\":175:1091  contract Airdrop is Ownable(msg.sender) {... */\n      dup11\n      mload\n      returndatasize\n      dup14\n      dup3\n      returndatacopy\n      returndatasize\n      swap1\n      revert\n        /* \"contracts/airdrop.sol\":640:643  i++ */\n    tag_44:\n        /* \"contracts/airdrop.sol\":669:679  amounts[i] */\n      swap1\n      tag_76\n      dup3\n      dup8\n      dup10\n      tag_5\n      jump\t// in\n    tag_76:\n        /* \"contracts/airdrop.sol\":175:1091  contract Airdrop is Ownable(msg.sender) {... */\n      calldataload\n      dup2\n      add\n      dup1\n      swap2\n      gt\n      tag_77\n      jumpi\n        /* \"contracts/airdrop.sol\":640:643  i++ */\n      tag_79\n        /* \"contracts/airdrop.sol\":660:679  total += amounts[i] */\n      swap1\n        /* \"contracts/airdrop.sol\":640:643  i++ */\n      swap2\n      tag_4\n      jump\t// in\n    tag_79:\n        /* \"contracts/airdrop.sol\":605:618  uint256 i = 0 */\n      jump(tag_43)\n        /* \"contracts/airdrop.sol\":175:1091  contract Airdrop is Ownable(msg.sender) {... */\n    tag_77:\n      shl(0xe0, 0x4e487b71)\n      dup13\n      mstore\n      0x11\n      dup4\n      mstore\n      0x24\n      dup13\n      revert\n    tag_41:\n      dup9\n      mload\n      shl(0xe5, 0x461bcd)\n      dup2\n      mstore\n      0x20\n      dup2\n      dup11\n      add\n      mstore\n      0x0f\n      0x24\n      dup3\n      add\n      mstore\n      shl(0x8b, 0x098cadccee8d040dad2e6dac2e8c6d)\n      0x44\n      dup3\n      add\n      mstore\n      0x64\n      swap1\n      revert\n    tag_37:\n      dup9\n      dup1\n      revert\n    tag_34:\n      dup8\n      dup1\n      revert\n    tag_32:\n      dup6\n      dup1\n      revert\n    tag_13:\n      pop\n      pop\n      jumpi(tag_82, callvalue)\n      dup2\n      add(calldatasize, not(0x03))\n      slt\n      tag_82\n      jumpi\n      swap1\n      sload\n      swap1\n      mload\n      sub(shl(0xa0, 0x01), 0x01)\n      swap1\n      swap2\n      and\n      dup2\n      mstore\n      0x20\n      swap1\n      return\n    tag_82:\n      pop\n      dup1\n      revert\n    tag_11:\n      dup4\n      jumpi(tag_86, callvalue)\n      dup1\n      add(calldatasize, not(0x03))\n      slt\n      tag_86\n      jumpi\n        /* \"@openzeppelin/contracts/access/Ownable.sol\":1500:1562  modifier onlyOwner() {... */\n      tag_88\n      tag_3\n      jump\t// in\n    tag_88:\n        /* \"contracts/airdrop.sol\":175:1091  contract Airdrop is Ownable(msg.sender) {... */\n      dup1\n      sload\n      not(sub(shl(0xa0, 0x01), 0x01))\n      dup2\n      and\n      dup3\n      sstore\n      dup2\n      swap1\n      sub(shl(0xa0, 0x01), 0x01)\n      and\n        /* \"@openzeppelin/contracts/access/Ownable.sol\":3052:3092  OwnershipTransferred(oldOwner, newOwner) */\n      0x8be0079c531659141344cd1fd0a4f28419497f9722a3daafe3b4186f6b6457e0\n        /* \"contracts/airdrop.sol\":175:1091  contract Airdrop is Ownable(msg.sender) {... */\n      dup3\n      dup1\n        /* \"@openzeppelin/contracts/access/Ownable.sol\":3052:3092  OwnershipTransferred(oldOwner, newOwner) */\n      log3\n        /* \"contracts/airdrop.sol\":175:1091  contract Airdrop is Ownable(msg.sender) {... */\n      dup1\n      return\n    tag_86:\n      dup1\n      revert\n    tag_1:\n      calldataload(0x04)\n      swap1\n      sub(shl(0xa0, 0x01), 0x01)\n      dup3\n      and\n      dup3\n      sub\n      tag_89\n      jumpi\n      jump\t// out\n    tag_89:\n      0x00\n      dup1\n      revert\n    tag_2:\n      swap2\n      dup2\n      0x1f\n      dup5\n      add\n      slt\n      iszero\n      tag_89\n      jumpi\n      dup3\n      calldataload\n      swap2\n      0xffffffffffffffff\n      dup4\n      gt\n      tag_89\n      jumpi\n      0x20\n      dup1\n      dup6\n      add\n      swap5\n      dup5\n      0x05\n      shl\n      add\n      add\n      gt\n      tag_89\n      jumpi\n      jump\t// out\n        /* \"@openzeppelin/contracts/access/Ownable.sol\":1796:1958  function _checkOwner() internal view virtual {... */\n    tag_3:\n        /* \"@openzeppelin/contracts/access/Ownable.sol\":1710:1716  _owner */\n      0x00\n        /* \"contracts/airdrop.sol\":175:1091  contract Airdrop is Ownable(msg.sender) {... */\n      sload\n      sub(shl(0xa0, 0x01), 0x01)\n      and\n        /* \"@openzeppelin/contracts/utils/Context.sol\":735:745  msg.sender */\n      caller\n        /* \"@openzeppelin/contracts/access/Ownable.sol\":1855:1878  owner() != _msgSender() */\n      sub\n        /* \"@openzeppelin/contracts/access/Ownable.sol\":1851:1952  if (owner() != _msgSender()) {... */\n      tag_97\n      jumpi\n        /* \"@openzeppelin/contracts/access/Ownable.sol\":1796:1958  function _checkOwner() internal view virtual {... */\n      jump\t// out\n        /* \"@openzeppelin/contracts/access/Ownable.sol\":1851:1952  if (owner() != _msgSender()) {... */\n    tag_97:\n        /* \"contracts/airdrop.sol\":175:1091  contract Airdrop is Ownable(msg.sender) {... */\n      mload(0x40)\n      shl(0xe0, 0x118cdaa7)\n        /* \"@openzeppelin/contracts/access/Ownable.sol\":1901:1941  OwnableUnauthorizedAccount(_msgSender()) */\n      dup2\n      mstore\n        /* \"@openzeppelin/contracts/utils/Context.sol\":735:745  msg.sender */\n      caller\n        /* \"@openzeppelin/contracts/access/Ownable.sol\":1901:1941  OwnableUnauthorizedAccount(_msgSender()) */\n      0x04\n      dup3\n      add\n        /* \"contracts/airdrop.sol\":175:1091  contract Airdrop is Ownable(msg.sender) {... */\n      mstore\n      0x24\n      swap1\n        /* \"@openzeppelin/contracts/access/Ownable.sol\":1901:1941  OwnableUnauthorizedAccount(_msgSender()) */\n      revert\n        /* \"contracts/airdrop.sol\":175:1091  contract Airdrop is Ownable(msg.sender) {... */\n    tag_4:\n      not(0x00)\n      dup2\n      eq\n      tag_99\n      jumpi\n      0x01\n      add\n      swap1\n      jump\t// out\n    tag_99:\n      mstore(0x00, shl(0xe0, 0x4e487b71))\n      mstore(0x04, 0x11)\n      revert(0x00, 0x24)\n    tag_5:\n      swap2\n      swap1\n      dup2\n      lt\n      iszero\n      tag_101\n      jumpi\n      0x05\n      shl\n      add\n      swap1\n      jump\t// out\n    tag_101:\n      mstore(0x00, shl(0xe0, 0x4e487b71))\n      mstore(0x04, 0x32)\n      revert(0x00, 0x24)\n    tag_6:\n      swap1\n      0x1f\n      dup1\n      not\n      swap2\n      add\n      and\n      dup2\n      add\n      swap1\n      dup2\n      lt\n      0xffffffffffffffff\n      dup3\n      gt\n      or\n      tag_103\n      jumpi\n      0x40\n      mstore\n      jump\t// out\n    tag_103:\n      mstore(0x00, shl(0xe0, 0x4e487b71))\n      mstore(0x04, 0x41)\n      revert(0x00, 0x24)\n    tag_7:\n      swap1\n      dup2\n      0x20\n      swap2\n      sub\n      slt\n      tag_89\n      jumpi\n      mload\n      dup1\n      iszero\n      iszero\n      dup2\n      sub\n      tag_89\n      jumpi\n      swap1\n      jump\t// out\n    tag_8:\n      calldataload\n      sub(shl(0xa0, 0x01), 0x01)\n      dup2\n      and\n      dup2\n      sub\n      tag_89\n      jumpi\n      swap1\n      jump\t// out\n\n    auxdata: 0xa2646970667358221220615e6a6f0b90c01e0264c436b86a50f839e8027c7b75112a0835984f37b45e9864736f6c63430008140033\n}\n",
				"bytecode": {
					"linkReferences": {},
					"object": "60808060405234610078573315610063575f8054336001600160a01b03198216811783556040519290916001600160a01b0316907f8be0079c531659141344cd1fd0a4f28419497f9722a3daafe3b4186f6b6457e09080a3610579908161007d8239f35b631e4fbdf760e01b81525f6004820152602490fd5b5f80fdfe60406080815260049081361015610014575f80fd5b5f91823560e01c8063715018a6146103c85780638da5cb5b1461039c578063e4485ca4146100d35763f2fde38b1461004a575f80fd5b346100cf5760203660031901126100cf57610063610425565b9061006c610470565b6001600160a01b039182169283156100b957505082546001600160a01b0319811683178455167f8be0079c531659141344cd1fd0a4f28419497f9722a3daafe3b4186f6b6457e08380a380f35b51631e4fbdf760e01b8152908101849052602490fd5b8280fd5b50346100cf5760803660031901126100cf576100ed610425565b6001600160a01b0360243581811692908390036103985767ffffffffffffffff60443581811161039457610124903690870161043f565b90916064359081116103905761013d903690880161043f565b929093610148610470565b83830361035b57851696898a5b858110610323575089516323b872dd60e01b815282810198909852306024890152604488015260209687816064818e8d5af1908115610319578b916102fc575b50156102c357895b8a8482106101a85780f35b88886044898e948e6101d0888d6101ca6101c58f8f9085916104bd565b61052f565b956104bd565b359651968795869463a9059cbb60e01b8652168a85015260248401525af19081156102b9578c9161028c575b501561025757808a7f7bd6d4be1decdc27a9ed9c7ccdf5bb7cc38e31b3647b958c6b37162a2296c0fa8a8a8a610244868c61023e6101c56102529b8f8f6104bd565b936104bd565b3594519485521692a261049b565b61019d565b895162461bcd60e51b8152808301899052600f60248201526e151c985b9cd9995c8819985a5b1959608a1b6044820152606490fd5b6102ac9150893d8b116102b2575b6102a481836104e1565b810190610517565b5f6101fc565b503d61029a565b8b513d8e823e3d90fd5b885162461bcd60e51b81529081018790526013602482015272151c985b9cd9995c919c9bdb4819985a5b1959606a1b6044820152606490fd5b6103139150883d8a116102b2576102a481836104e1565b5f610195565b8a513d8d823e3d90fd5b9061032f8287896104bd565b35810180911161034857610343909161049b565b610155565b634e487b7160e01b8c526011835260248cfd5b885162461bcd60e51b81526020818a0152600f60248201526e098cadccee8d040dad2e6dac2e8c6d608b1b6044820152606490fd5b8880fd5b8780fd5b8580fd5b5050346103c457816003193601126103c457905490516001600160a01b039091168152602090f35b5080fd5b83346104225780600319360112610422576103e1610470565b80546001600160a01b03198116825581906001600160a01b03167f8be0079c531659141344cd1fd0a4f28419497f9722a3daafe3b4186f6b6457e08280a380f35b80fd5b600435906001600160a01b038216820361043b57565b5f80fd5b9181601f8401121561043b5782359167ffffffffffffffff831161043b576020808501948460051b01011161043b57565b5f546001600160a01b0316330361048357565b60405163118cdaa760e01b8152336004820152602490fd5b5f1981146104a95760010190565b634e487b7160e01b5f52601160045260245ffd5b91908110156104cd5760051b0190565b634e487b7160e01b5f52603260045260245ffd5b90601f8019910116810190811067ffffffffffffffff82111761050357604052565b634e487b7160e01b5f52604160045260245ffd5b9081602091031261043b5751801515810361043b5790565b356001600160a01b038116810361043b579056fea2646970667358221220615e6a6f0b90c01e0264c436b86a50f839e8027c7b75112a0835984f37b45e9864736f6c63430008140033",
					"opcodes": "PUSH1 0x80 DUP1 PUSH1 0x40 MSTORE CALLVALUE PUSH2 0x78 JUMPI CALLER ISZERO PUSH2 0x63 JUMPI PUSH0 DUP1 SLOAD CALLER PUSH1 0x1 PUSH1 0x1 PUSH1 0xA0 SHL SUB NOT DUP3 AND DUP2 OR DUP4 SSTORE PUSH1 0x40 MLOAD SWAP3 SWAP1 SWAP2 PUSH1 0x1 PUSH1 0x1 PUSH1 0xA0 SHL SUB AND SWAP1 PUSH32 0x8BE0079C531659141344CD1FD0A4F28419497F9722A3DAAFE3B4186F6B6457E0 SWAP1 DUP1 LOG3 PUSH2 0x579 SWAP1 DUP2 PUSH2 0x7D DUP3 CODECOPY RETURN JUMPDEST PUSH4 0x1E4FBDF7 PUSH1 0xE0 SHL DUP2 MSTORE PUSH0 PUSH1 0x4 DUP3 ADD MSTORE PUSH1 0x24 SWAP1 REVERT JUMPDEST PUSH0 DUP1 REVERT INVALID PUSH1 0x40 PUSH1 0x80 DUP2 MSTORE PUSH1 0x4 SWAP1 DUP2 CALLDATASIZE LT ISZERO PUSH2 0x14 JUMPI PUSH0 DUP1 REVERT JUMPDEST PUSH0 SWAP2 DUP3 CALLDATALOAD PUSH1 0xE0 SHR DUP1 PUSH4 0x715018A6 EQ PUSH2 0x3C8 JUMPI DUP1 PUSH4 0x8DA5CB5B EQ PUSH2 0x39C JUMPI DUP1 PUSH4 0xE4485CA4 EQ PUSH2 0xD3 JUMPI PUSH4 0xF2FDE38B EQ PUSH2 0x4A JUMPI PUSH0 DUP1 REVERT JUMPDEST CALLVALUE PUSH2 0xCF JUMPI PUSH1 0x20 CALLDATASIZE PUSH1 0x3 NOT ADD SLT PUSH2 0xCF JUMPI PUSH2 0x63 PUSH2 0x425 JUMP JUMPDEST SWAP1 PUSH2 0x6C PUSH2 0x470 JUMP JUMPDEST PUSH1 0x1 PUSH1 0x1 PUSH1 0xA0 SHL SUB SWAP2 DUP3 AND SWAP3 DUP4 ISZERO PUSH2 0xB9 JUMPI POP POP DUP3 SLOAD PUSH1 0x1 PUSH1 0x1 PUSH1 0xA0 SHL SUB NOT DUP2 AND DUP4 OR DUP5 SSTORE AND PUSH32 0x8BE0079C531659141344CD1FD0A4F28419497F9722A3DAAFE3B4186F6B6457E0 DUP4 DUP1 LOG3 DUP1 RETURN JUMPDEST MLOAD PUSH4 0x1E4FBDF7 PUSH1 0xE0 SHL DUP2 MSTORE SWAP1 DUP2 ADD DUP5 SWAP1 MSTORE PUSH1 0x24 SWAP1 REVERT JUMPDEST DUP3 DUP1 REVERT JUMPDEST POP CALLVALUE PUSH2 0xCF JUMPI PUSH1 0x80 CALLDATASIZE PUSH1 0x3 NOT ADD SLT PUSH2 0xCF JUMPI PUSH2 0xED PUSH2 0x425 JUMP JUMPDEST PUSH1 0x1 PUSH1 0x1 PUSH1 0xA0 SHL SUB PUSH1 0x24 CALLDATALOAD DUP2 DUP2 AND SWAP3 SWAP1 DUP4 SWAP1 SUB PUSH2 0x398 JUMPI PUSH8 0xFFFFFFFFFFFFFFFF PUSH1 0x44 CALLDATALOAD DUP2 DUP2 GT PUSH2 0x394 JUMPI PUSH2 0x124 SWAP1 CALLDATASIZE SWAP1 DUP8 ADD PUSH2 0x43F JUMP JUMPDEST SWAP1 SWAP2 PUSH1 0x64 CALLDATALOAD SWAP1 DUP2 GT PUSH2 0x390 JUMPI PUSH2 0x13D SWAP1 CALLDATASIZE SWAP1 DUP9 ADD PUSH2 0x43F JUMP JUMPDEST SWAP3 SWAP1 SWAP4 PUSH2 0x148 PUSH2 0x470 JUMP JUMPDEST DUP4 DUP4 SUB PUSH2 0x35B JUMPI DUP6 AND SWAP7 DUP10 DUP11 JUMPDEST DUP6 DUP2 LT PUSH2 0x323 JUMPI POP DUP10 MLOAD PUSH4 0x23B872DD PUSH1 0xE0 SHL DUP2 MSTORE DUP3 DUP2 ADD SWAP9 SWAP1 SWAP9 MSTORE ADDRESS PUSH1 0x24 DUP10 ADD MSTORE PUSH1 0x44 DUP9 ADD MSTORE PUSH1 0x20 SWAP7 DUP8 DUP2 PUSH1 0x64 DUP2 DUP15 DUP14 GAS CALL SWAP1 DUP2 ISZERO PUSH2 0x319 JUMPI DUP12 SWAP2 PUSH2 0x2FC JUMPI JUMPDEST POP ISZERO PUSH2 0x2C3 JUMPI DUP10 JUMPDEST DUP11 DUP5 DUP3 LT PUSH2 0x1A8 JUMPI DUP1 RETURN JUMPDEST DUP9 DUP9 PUSH1 0x44 DUP10 DUP15 SWAP5 DUP15 PUSH2 0x1D0 DUP9 DUP14 PUSH2 0x1CA PUSH2 0x1C5 DUP16 DUP16 SWAP1 DUP6 SWAP2 PUSH2 0x4BD JUMP JUMPDEST PUSH2 0x52F JUMP JUMPDEST SWAP6 PUSH2 0x4BD JUMP JUMPDEST CALLDATALOAD SWAP7 MLOAD SWAP7 DUP8 SWAP6 DUP7 SWAP5 PUSH4 0xA9059CBB PUSH1 0xE0 SHL DUP7 MSTORE AND DUP11 DUP6 ADD MSTORE PUSH1 0x24 DUP5 ADD MSTORE GAS CALL SWAP1 DUP2 ISZERO PUSH2 0x2B9 JUMPI DUP13 SWAP2 PUSH2 0x28C JUMPI JUMPDEST POP ISZERO PUSH2 0x257 JUMPI DUP1 DUP11 PUSH32 0x7BD6D4BE1DECDC27A9ED9C7CCDF5BB7CC38E31B3647B958C6B37162A2296C0FA DUP11 DUP11 DUP11 PUSH2 0x244 DUP7 DUP13 PUSH2 0x23E PUSH2 0x1C5 PUSH2 0x252 SWAP12 DUP16 DUP16 PUSH2 0x4BD JUMP JUMPDEST SWAP4 PUSH2 0x4BD JUMP JUMPDEST CALLDATALOAD SWAP5 MLOAD SWAP5 DUP6 MSTORE AND SWAP3 LOG2 PUSH2 0x49B JUMP JUMPDEST PUSH2 0x19D JUMP JUMPDEST DUP10 MLOAD PUSH3 0x461BCD PUSH1 0xE5 SHL DUP2 MSTORE DUP1 DUP4 ADD DUP10 SWAP1 MSTORE PUSH1 0xF PUSH1 0x24 DUP3 ADD MSTORE PUSH15 0x151C985B9CD9995C8819985A5B1959 PUSH1 0x8A SHL PUSH1 0x44 DUP3 ADD MSTORE PUSH1 0x64 SWAP1 REVERT JUMPDEST PUSH2 0x2AC SWAP2 POP DUP10 RETURNDATASIZE DUP12 GT PUSH2 0x2B2 JUMPI JUMPDEST PUSH2 0x2A4 DUP2 DUP4 PUSH2 0x4E1 JUMP JUMPDEST DUP2 ADD SWAP1 PUSH2 0x517 JUMP JUMPDEST PUSH0 PUSH2 0x1FC JUMP JUMPDEST POP RETURNDATASIZE PUSH2 0x29A JUMP JUMPDEST DUP12 MLOAD RETURNDATASIZE DUP15 DUP3 RETURNDATACOPY RETURNDATASIZE SWAP1 REVERT JUMPDEST DUP9 MLOAD PUSH3 0x461BCD PUSH1 0xE5 SHL DUP2 MSTORE SWAP1 DUP2 ADD DUP8 SWAP1 MSTORE PUSH1 0x13 PUSH1 0x24 DUP3 ADD MSTORE PUSH19 0x151C985B9CD9995C919C9BDB4819985A5B1959 PUSH1 0x6A SHL PUSH1 0x44 DUP3 ADD MSTORE PUSH1 0x64 SWAP1 REVERT JUMPDEST PUSH2 0x313 SWAP2 POP DUP9 RETURNDATASIZE DUP11 GT PUSH2 0x2B2 JUMPI PUSH2 0x2A4 DUP2 DUP4 PUSH2 0x4E1 JUMP JUMPDEST PUSH0 PUSH2 0x195 JUMP JUMPDEST DUP11 MLOAD RETURNDATASIZE DUP14 DUP3 RETURNDATACOPY RETURNDATASIZE SWAP1 REVERT JUMPDEST SWAP1 PUSH2 0x32F DUP3 DUP8 DUP10 PUSH2 0x4BD JUMP JUMPDEST CALLDATALOAD DUP2 ADD DUP1 SWAP2 GT PUSH2 0x348 JUMPI PUSH2 0x343 SWAP1 SWAP2 PUSH2 0x49B JUMP JUMPDEST PUSH2 0x155 JUMP JUMPDEST PUSH4 0x4E487B71 PUSH1 0xE0 SHL DUP13 MSTORE PUSH1 0x11 DUP4 MSTORE PUSH1 0x24 DUP13 REVERT JUMPDEST DUP9 MLOAD PUSH3 0x461BCD PUSH1 0xE5 SHL DUP2 MSTORE PUSH1 0x20 DUP2 DUP11 ADD MSTORE PUSH1 0xF PUSH1 0x24 DUP3 ADD MSTORE PUSH15 0x98CADCCEE8D040DAD2E6DAC2E8C6D PUSH1 0x8B SHL PUSH1 0x44 DUP3 ADD MSTORE PUSH1 0x64 SWAP1 REVERT JUMPDEST DUP9 DUP1 REVERT JUMPDEST DUP8 DUP1 REVERT JUMPDEST DUP6 DUP1 REVERT JUMPDEST POP POP CALLVALUE PUSH2 0x3C4 JUMPI DUP2 PUSH1 0x3 NOT CALLDATASIZE ADD SLT PUSH2 0x3C4 JUMPI SWAP1 SLOAD SWAP1 MLOAD PUSH1 0x1 PUSH1 0x1 PUSH1 0xA0 SHL SUB SWAP1 SWAP2 AND DUP2 MSTORE PUSH1 0x20 SWAP1 RETURN JUMPDEST POP DUP1 REVERT JUMPDEST DUP4 CALLVALUE PUSH2 0x422 JUMPI DUP1 PUSH1 0x3 NOT CALLDATASIZE ADD SLT PUSH2 0x422 JUMPI PUSH2 0x3E1 PUSH2 0x470 JUMP JUMPDEST DUP1 SLOAD PUSH1 0x1 PUSH1 0x1 PUSH1 0xA0 SHL SUB NOT DUP2 AND DUP3 SSTORE DUP2 SWAP1 PUSH1 0x1 PUSH1 0x1 PUSH1 0xA0 SHL SUB AND PUSH32 0x8BE0079C531659141344CD1FD0A4F28419497F9722A3DAAFE3B4186F6B6457E0 DUP3 DUP1 LOG3 DUP1 RETURN JUMPDEST DUP1 REVERT JUMPDEST PUSH1 0x4 CALLDATALOAD SWAP1 PUSH1 0x1 PUSH1 0x1 PUSH1 0xA0 SHL SUB DUP3 AND DUP3 SUB PUSH2 0x43B JUMPI JUMP JUMPDEST PUSH0 DUP1 REVERT JUMPDEST SWAP2 DUP2 PUSH1 0x1F DUP5 ADD SLT ISZERO PUSH2 0x43B JUMPI DUP3 CALLDATALOAD SWAP2 PUSH8 0xFFFFFFFFFFFFFFFF DUP4 GT PUSH2 0x43B JUMPI PUSH1 0x20 DUP1 DUP6 ADD SWAP5 DUP5 PUSH1 0x5 SHL ADD ADD GT PUSH2 0x43B JUMPI JUMP JUMPDEST PUSH0 SLOAD PUSH1 0x1 PUSH1 0x1 PUSH1 0xA0 SHL SUB AND CALLER SUB PUSH2 0x483 JUMPI JUMP JUMPDEST PUSH1 0x40 MLOAD PUSH4 0x118CDAA7 PUSH1 0xE0 SHL DUP2 MSTORE CALLER PUSH1 0x4 DUP3 ADD MSTORE PUSH1 0x24 SWAP1 REVERT JUMPDEST PUSH0 NOT DUP2 EQ PUSH2 0x4A9 JUMPI PUSH1 0x1 ADD SWAP1 JUMP JUMPDEST PUSH4 0x4E487B71 PUSH1 0xE0 SHL PUSH0 MSTORE PUSH1 0x11 PUSH1 0x4 MSTORE PUSH1 0x24 PUSH0 REVERT JUMPDEST SWAP2 SWAP1 DUP2 LT ISZERO PUSH2 0x4CD JUMPI PUSH1 0x5 SHL ADD SWAP1 JUMP JUMPDEST PUSH4 0x4E487B71 PUSH1 0xE0 SHL PUSH0 MSTORE PUSH1 0x32 PUSH1 0x4 MSTORE PUSH1 0x24 PUSH0 REVERT JUMPDEST SWAP1 PUSH1 0x1F DUP1 NOT SWAP2 ADD AND DUP2 ADD SWAP1 DUP2 LT PUSH8 0xFFFFFFFFFFFFFFFF DUP3 GT OR PUSH2 0x503 JUMPI PUSH1 0x40 MSTORE JUMP JUMPDEST PUSH4 0x4E487B71 PUSH1 0xE0 SHL PUSH0 MSTORE PUSH1 0x41 PUSH1 0x4 MSTORE PUSH1 0x24 PUSH0 REVERT JUMPDEST SWAP1 DUP2 PUSH1 0x20 SWAP2 SUB SLT PUSH2 0x43B JUMPI MLOAD DUP1 ISZERO ISZERO DUP2 SUB PUSH2 0x43B JUMPI SWAP1 JUMP JUMPDEST CALLDATALOAD PUSH1 0x1 PUSH1 0x1 PUSH1 0xA0 SHL SUB DUP2 AND DUP2 SUB PUSH2 0x43B JUMPI SWAP1 JUMP INVALID LOG2 PUSH5 0x6970667358 0x22 SLT KECCAK256 PUSH2 0x5E6A PUSH16 0xB90C01E0264C436B86A50F839E8027C PUSH28 0x75112A0835984F37B45E9864736F6C63430008140033000000000000 "
				},
				"gasEstimates": {
					"creation": {
						"codeDepositCost": "280200",
						"executionCost": "26128",
						"totalCost": "306328"
					},
					"external": {
						"airdrop(address,address,address[],uint256[])": "infinite",
						"owner()": "2314",
						"renounceOwnership()": "28068",
						"transferOwnership(address)": "28239"
					}
				},
				"methodIdentifiers": {
					"airdrop(address,address,address[],uint256[])": "e4485ca4",
					"owner()": "8da5cb5b",
					"renounceOwnership()": "715018a6",
					"transferOwnership(address)": "f2fde38b"
				}
			},
			"storageLayout": {
				"storage": [
					{
						"astId": 8,
						"contract": "contracts/airdrop.sol:Airdrop",
						"label": "_owner",
						"offset": 0,
						"slot": "0",
						"type": "t_address"
					}
				],
				"types": {
					"t_address": {
						"encoding": "inplace",
						"label": "address",
						"numberOfBytes": "20"
					}
				}
			},
			"userdoc": {
				"kind": "user",
				"methods": {},
				"version": 1
			}
		}
	}
}