{
	"contracts/BondingCurveFactory.sol": {
		"BondingCurveFactory": {
			"abi": [
				{
					"inputs": [
						{
							"internalType": "address",
							"name": "owner",
							"type": "address"
						}
					],
					"name": "OwnableInvalidOwner",
					"type": "error"
				},
				{
					"inputs": [
						{
							"internalType": "address",
							"name": "account",
							"type": "address"
						}
					],
					"name": "OwnableUnauthorizedAccount",
					"type": "error"
				},
				{
					"anonymous": false,
					"inputs": [
						{
							"indexed": true,
							"internalType": "address",
							"name": "previousOwner",
							"type": "address"
						},
						{
							"indexed": true,
							"internalType": "address",
							"name": "newOwner",
							"type": "address"
						}
					],
					"name": "OwnershipTransferred",
					"type": "event"
				},
				{
					"anonymous": false,
					"inputs": [
						{
							"indexed": false,
							"internalType": "address",
							"name": "token",
							"type": "address"
						}
					],
					"name": "TokenCreated",
					"type": "event"
				},
				{
					"inputs": [
						{
							"internalType": "string",
							"name": "name_",
							"type": "string"
						},
						{
							"internalType": "string",
							"name": "symbol_",
							"type": "string"
						},
						{
							"internalType": "address",
							"name": "reserveToken_",
							"type": "address"
						},
						{
							"internalType": "uint256",
							"name": "initialVirtualTokenReserve_",
							"type": "uint256"
						},
						{
							"internalType": "uint256",
							"name": "initialVirtualReserveAsset_",
							"type": "uint256"
						},
						{
							"internalType": "uint256",
							"name": "realTokenReservesStart_",
							"type": "uint256"
						},
						{
							"internalType": "uint256",
							"name": "graduationReserveThreshold_",
							"type": "uint256"
						},
						{
							"internalType": "address",
							"name": "yunaswapRouter_",
							"type": "address"
						},
						{
							"internalType": "address",
							"name": "yunaswapFactory_",
							"type": "address"
						}
					],
					"name": "createToken",
					"outputs": [
						{
							"internalType": "address",
							"name": "",
							"type": "address"
						}
					],
					"stateMutability": "nonpayable",
					"type": "function"
				},
				{
					"inputs": [],
					"name": "owner",
					"outputs": [
						{
							"internalType": "address",
							"name": "",
							"type": "address"
						}
					],
					"stateMutability": "view",
					"type": "function"
				},
				{
					"inputs": [],
					"name": "renounceOwnership",
					"outputs": [],
					"stateMutability": "nonpayable",
					"type": "function"
				},
				{
					"inputs": [
						{
							"internalType": "address",
							"name": "newOwner",
							"type": "address"
						}
					],
					"name": "transferOwnership",
					"outputs": [],
					"stateMutability": "nonpayable",
					"type": "function"
				}
			],
			"devdoc": {
				"errors": {
					"OwnableInvalidOwner(address)": [
						{
							"details": "The owner is not a valid owner account. (eg. `address(0)`)"
						}
					],
					"OwnableUnauthorizedAccount(address)": [
						{
							"details": "The caller account is not authorized to perform an operation."
						}
					]
				},
				"kind": "dev",
				"methods": {
					"owner()": {
						"details": "Returns the address of the current owner."
					},
					"renounceOwnership()": {
						"details": "Leaves the contract without owner. It will not be possible to call `onlyOwner` functions. Can only be called by the current owner. NOTE: Renouncing ownership will leave the contract without an owner, thereby disabling any functionality that is only available to the owner."
					},
					"transferOwnership(address)": {
						"details": "Transfers ownership of the contract to a new account (`newOwner`). Can only be called by the current owner."
					}
				},
				"version": 1
			},
			"evm": {
				"assembly": "    /* \"contracts/BondingCurveFactory.sol\":8383:9356  contract BondingCurveFactory is Ownable(msg.sender) {... */\n  mstore(0x40, 0x80)\n  callvalue\n  dup1\n  iszero\n  tag_1\n  jumpi\n  0x00\n  dup1\n  revert\ntag_1:\n  pop\n    /* \"contracts/BondingCurveFactory.sol\":8423:8433  msg.sender */\n  caller\n  dup1\n    /* \"@openzeppelin/contracts/access/Ownable.sol\":1269:1364  if (initialOwner == address(0)) {... */\n  tag_4\n  jumpi\n    /* \"@openzeppelin/contracts/access/Ownable.sol\":1322:1353  OwnableInvalidOwner(address(0)) */\n  mload(0x40)\n  shl(0xe0, 0x1e4fbdf7)\n  dup2\n  mstore\n    /* \"@openzeppelin/contracts/access/Ownable.sol\":1350:1351  0 */\n  0x00\n    /* \"@openzeppelin/contracts/access/Ownable.sol\":1322:1353  OwnableInvalidOwner(address(0)) */\n  0x04\n  dup3\n  add\n    /* \"#utility.yul\":160:211   */\n  mstore\n    /* \"#utility.yul\":133:151   */\n  0x24\n  add\n    /* \"@openzeppelin/contracts/access/Ownable.sol\":1322:1353  OwnableInvalidOwner(address(0)) */\n  mload(0x40)\n  dup1\n  swap2\n  sub\n  swap1\n  revert\n    /* \"@openzeppelin/contracts/access/Ownable.sol\":1269:1364  if (initialOwner == address(0)) {... */\ntag_4:\n    /* \"@openzeppelin/contracts/access/Ownable.sol\":1373:1405  _transferOwnership(initialOwner) */\n  tag_7\n    /* \"@openzeppelin/contracts/access/Ownable.sol\":1392:1404  initialOwner */\n  dup2\n    /* \"@openzeppelin/contracts/access/Ownable.sol\":1373:1391  _transferOwnership */\n  tag_8\n    /* \"@openzeppelin/contracts/access/Ownable.sol\":1373:1405  _transferOwnership(initialOwner) */\n  jump\t// in\ntag_7:\n    /* \"@openzeppelin/contracts/access/Ownable.sol\":1225:1412  constructor(address initialOwner) {... */\n  pop\n    /* \"contracts/BondingCurveFactory.sol\":8383:9356  contract BondingCurveFactory is Ownable(msg.sender) {... */\n  jump(tag_11)\n    /* \"@openzeppelin/contracts/access/Ownable.sol\":2912:3099  function _transferOwnership(address newOwner) internal virtual {... */\ntag_8:\n    /* \"@openzeppelin/contracts/access/Ownable.sol\":2985:3001  address oldOwner */\n  0x00\n    /* \"@openzeppelin/contracts/access/Ownable.sol\":3004:3010  _owner */\n  dup1\n  sload\n  sub(shl(0xa0, 0x01), 0x01)\n    /* \"@openzeppelin/contracts/access/Ownable.sol\":3020:3037  _owner = newOwner */\n  dup4\n  dup2\n  and\n  not(sub(shl(0xa0, 0x01), 0x01))\n  dup4\n  and\n  dup2\n  or\n  dup5\n  sstore\n    /* \"@openzeppelin/contracts/access/Ownable.sol\":3052:3092  OwnershipTransferred(oldOwner, newOwner) */\n  mload(0x40)\n    /* \"@openzeppelin/contracts/access/Ownable.sol\":3004:3010  _owner */\n  swap2\n  swap1\n  swap3\n  and\n  swap3\n  dup4\n  swap2\n    /* \"@openzeppelin/contracts/access/Ownable.sol\":3052:3092  OwnershipTransferred(oldOwner, newOwner) */\n  0x8be0079c531659141344cd1fd0a4f28419497f9722a3daafe3b4186f6b6457e0\n  swap2\n    /* \"@openzeppelin/contracts/access/Ownable.sol\":2985:3001  address oldOwner */\n  swap1\n    /* \"@openzeppelin/contracts/access/Ownable.sol\":3052:3092  OwnershipTransferred(oldOwner, newOwner) */\n  log3\n    /* \"@openzeppelin/contracts/access/Ownable.sol\":2975:3099  {... */\n  pop\n    /* \"@openzeppelin/contracts/access/Ownable.sol\":2912:3099  function _transferOwnership(address newOwner) internal virtual {... */\n  pop\n  jump\t// out\n    /* \"#utility.yul\":14:217   */\ntag_11:\n    /* \"contracts/BondingCurveFactory.sol\":8383:9356  contract BondingCurveFactory is Ownable(msg.sender) {... */\n  dataSize(sub_0)\n  dup1\n  dataOffset(sub_0)\n  0x00\n  codecopy\n  0x00\n  return\nstop\n\nsub_0: assembly {\n        /* \"contracts/BondingCurveFactory.sol\":8383:9356  contract BondingCurveFactory is Ownable(msg.sender) {... */\n      mstore(0x40, 0x80)\n      callvalue\n      dup1\n      iszero\n      tag_1\n      jumpi\n      0x00\n      dup1\n      revert\n    tag_1:\n      pop\n      jumpi(tag_2, lt(calldatasize, 0x04))\n      shr(0xe0, calldataload(0x00))\n      dup1\n      0x715018a6\n      eq\n      tag_3\n      jumpi\n      dup1\n      0x7aa088ee\n      eq\n      tag_4\n      jumpi\n      dup1\n      0x8da5cb5b\n      eq\n      tag_5\n      jumpi\n      dup1\n      0xf2fde38b\n      eq\n      tag_6\n      jumpi\n    tag_2:\n      0x00\n      dup1\n      revert\n        /* \"@openzeppelin/contracts/access/Ownable.sol\":2293:2394  function renounceOwnership() public virtual onlyOwner {... */\n    tag_3:\n      tag_7\n      tag_8\n      jump\t// in\n    tag_7:\n      stop\n        /* \"contracts/BondingCurveFactory.sol\":8484:9353  function createToken(... */\n    tag_4:\n      tag_9\n      tag_10\n      calldatasize\n      0x04\n      tag_11\n      jump\t// in\n    tag_10:\n      tag_12\n      jump\t// in\n    tag_9:\n      mload(0x40)\n      sub(shl(0xa0, 0x01), 0x01)\n        /* \"#utility.yul\":2260:2292   */\n      swap1\n      swap2\n      and\n        /* \"#utility.yul\":2242:2293   */\n      dup2\n      mstore\n        /* \"#utility.yul\":2230:2232   */\n      0x20\n        /* \"#utility.yul\":2215:2233   */\n      add\n        /* \"contracts/BondingCurveFactory.sol\":8484:9353  function createToken(... */\n      mload(0x40)\n      dup1\n      swap2\n      sub\n      swap1\n      return\n        /* \"@openzeppelin/contracts/access/Ownable.sol\":1638:1723  function owner() public view virtual returns (address) {... */\n    tag_5:\n        /* \"@openzeppelin/contracts/access/Ownable.sol\":1684:1691  address */\n      0x00\n        /* \"@openzeppelin/contracts/access/Ownable.sol\":1710:1716  _owner */\n      sload\n      sub(shl(0xa0, 0x01), 0x01)\n      and\n        /* \"@openzeppelin/contracts/access/Ownable.sol\":1638:1723  function owner() public view virtual returns (address) {... */\n      jump(tag_9)\n        /* \"@openzeppelin/contracts/access/Ownable.sol\":2543:2758  function transferOwnership(address newOwner) public virtual onlyOwner {... */\n    tag_6:\n      tag_7\n      tag_19\n      calldatasize\n      0x04\n      tag_20\n      jump\t// in\n    tag_19:\n      tag_21\n      jump\t// in\n        /* \"@openzeppelin/contracts/access/Ownable.sol\":2293:2394  function renounceOwnership() public virtual onlyOwner {... */\n    tag_8:\n        /* \"@openzeppelin/contracts/access/Ownable.sol\":1531:1544  _checkOwner() */\n      tag_23\n        /* \"@openzeppelin/contracts/access/Ownable.sol\":1531:1542  _checkOwner */\n      tag_24\n        /* \"@openzeppelin/contracts/access/Ownable.sol\":1531:1544  _checkOwner() */\n      jump\t// in\n    tag_23:\n        /* \"@openzeppelin/contracts/access/Ownable.sol\":2357:2387  _transferOwnership(address(0)) */\n      tag_26\n        /* \"@openzeppelin/contracts/access/Ownable.sol\":2384:2385  0 */\n      0x00\n        /* \"@openzeppelin/contracts/access/Ownable.sol\":2357:2375  _transferOwnership */\n      tag_27\n        /* \"@openzeppelin/contracts/access/Ownable.sol\":2357:2387  _transferOwnership(address(0)) */\n      jump\t// in\n    tag_26:\n        /* \"@openzeppelin/contracts/access/Ownable.sol\":2293:2394  function renounceOwnership() public virtual onlyOwner {... */\n      jump\t// out\n        /* \"contracts/BondingCurveFactory.sol\":8484:9353  function createToken(... */\n    tag_12:\n        /* \"contracts/BondingCurveFactory.sol\":8883:8890  address */\n      0x00\n        /* \"@openzeppelin/contracts/access/Ownable.sol\":1531:1544  _checkOwner() */\n      tag_29\n        /* \"@openzeppelin/contracts/access/Ownable.sol\":1531:1542  _checkOwner */\n      tag_24\n        /* \"@openzeppelin/contracts/access/Ownable.sol\":1531:1544  _checkOwner() */\n      jump\t// in\n    tag_29:\n        /* \"contracts/BondingCurveFactory.sol\":8903:8922  BondingCurveToken t */\n      0x00\n        /* \"contracts/BondingCurveFactory.sol\":8961:8966  name_ */\n      dup11\n        /* \"contracts/BondingCurveFactory.sol\":8981:8988  symbol_ */\n      dup11\n        /* \"contracts/BondingCurveFactory.sol\":9003:9013  msg.sender */\n      caller\n        /* \"contracts/BondingCurveFactory.sol\":9028:9041  reserveToken_ */\n      dup12\n        /* \"contracts/BondingCurveFactory.sol\":9056:9083  initialVirtualTokenReserve_ */\n      dup12\n        /* \"contracts/BondingCurveFactory.sol\":9098:9125  initialVirtualReserveAsset_ */\n      dup12\n        /* \"contracts/BondingCurveFactory.sol\":9140:9163  realTokenReservesStart_ */\n      dup12\n        /* \"contracts/BondingCurveFactory.sol\":9178:9205  graduationReserveThreshold_ */\n      dup12\n        /* \"contracts/BondingCurveFactory.sol\":9220:9235  yunaswapRouter_ */\n      dup12\n        /* \"contracts/BondingCurveFactory.sol\":9250:9266  yunaswapFactory_ */\n      dup12\n        /* \"contracts/BondingCurveFactory.sol\":8925:9277  new BondingCurveToken(... */\n      mload(0x40)\n      tag_31\n      swap1\n      tag_32\n      jump\t// in\n    tag_31:\n      tag_33\n      swap11\n      swap10\n      swap9\n      swap8\n      swap7\n      swap6\n      swap5\n      swap4\n      swap3\n      swap2\n      swap1\n      tag_34\n      jump\t// in\n    tag_33:\n      mload(0x40)\n      dup1\n      swap2\n      sub\n      swap1\n      0x00\n      create\n      dup1\n      iszero\n      dup1\n      iszero\n      tag_35\n      jumpi\n      returndatasize\n      0x00\n      dup1\n      returndatacopy\n      revert(0x00, returndatasize)\n    tag_35:\n      pop\n        /* \"contracts/BondingCurveFactory.sol\":9293:9317  TokenCreated(address(t)) */\n      mload(0x40)\n      sub(shl(0xa0, 0x01), 0x01)\n        /* \"#utility.yul\":2260:2292   */\n      dup3\n      and\n        /* \"#utility.yul\":2242:2293   */\n      dup2\n      mstore\n        /* \"contracts/BondingCurveFactory.sol\":8903:9277  BondingCurveToken t = new BondingCurveToken(... */\n      swap1\n      swap2\n      pop\n        /* \"contracts/BondingCurveFactory.sol\":9293:9317  TokenCreated(address(t)) */\n      0x2e2b3f61b70d2d131b2a807371103cc98d51adcaa5e9a8f9c32658ad8426e74e\n      swap1\n        /* \"#utility.yul\":2230:2232   */\n      0x20\n        /* \"#utility.yul\":2215:2233   */\n      add\n        /* \"contracts/BondingCurveFactory.sol\":9293:9317  TokenCreated(address(t)) */\n      mload(0x40)\n      dup1\n      swap2\n      sub\n      swap1\n      log1\n        /* \"contracts/BondingCurveFactory.sol\":9343:9344  t */\n      swap11\n        /* \"contracts/BondingCurveFactory.sol\":8484:9353  function createToken(... */\n      swap10\n      pop\n      pop\n      pop\n      pop\n      pop\n      pop\n      pop\n      pop\n      pop\n      pop\n      jump\t// out\n        /* \"@openzeppelin/contracts/access/Ownable.sol\":2543:2758  function transferOwnership(address newOwner) public virtual onlyOwner {... */\n    tag_21:\n        /* \"@openzeppelin/contracts/access/Ownable.sol\":1531:1544  _checkOwner() */\n      tag_39\n        /* \"@openzeppelin/contracts/access/Ownable.sol\":1531:1542  _checkOwner */\n      tag_24\n        /* \"@openzeppelin/contracts/access/Ownable.sol\":1531:1544  _checkOwner() */\n      jump\t// in\n    tag_39:\n      sub(shl(0xa0, 0x01), 0x01)\n        /* \"@openzeppelin/contracts/access/Ownable.sol\":2627:2649  newOwner == address(0) */\n      dup2\n      and\n        /* \"@openzeppelin/contracts/access/Ownable.sol\":2623:2714  if (newOwner == address(0)) {... */\n      tag_41\n      jumpi\n        /* \"@openzeppelin/contracts/access/Ownable.sol\":2672:2703  OwnableInvalidOwner(address(0)) */\n      mload(0x40)\n      shl(0xe0, 0x1e4fbdf7)\n      dup2\n      mstore\n        /* \"@openzeppelin/contracts/access/Ownable.sol\":2700:2701  0 */\n      0x00\n        /* \"@openzeppelin/contracts/access/Ownable.sol\":2672:2703  OwnableInvalidOwner(address(0)) */\n      0x04\n      dup3\n      add\n        /* \"#utility.yul\":2242:2293   */\n      mstore\n        /* \"#utility.yul\":2215:2233   */\n      0x24\n      add\n        /* \"@openzeppelin/contracts/access/Ownable.sol\":2672:2703  OwnableInvalidOwner(address(0)) */\n    tag_42:\n      mload(0x40)\n      dup1\n      swap2\n      sub\n      swap1\n      revert\n        /* \"@openzeppelin/contracts/access/Ownable.sol\":2623:2714  if (newOwner == address(0)) {... */\n    tag_41:\n        /* \"@openzeppelin/contracts/access/Ownable.sol\":2723:2751  _transferOwnership(newOwner) */\n      tag_43\n        /* \"@openzeppelin/contracts/access/Ownable.sol\":2742:2750  newOwner */\n      dup2\n        /* \"@openzeppelin/contracts/access/Ownable.sol\":2723:2741  _transferOwnership */\n      tag_27\n        /* \"@openzeppelin/contracts/access/Ownable.sol\":2723:2751  _transferOwnership(newOwner) */\n      jump\t// in\n    tag_43:\n        /* \"@openzeppelin/contracts/access/Ownable.sol\":2543:2758  function transferOwnership(address newOwner) public virtual onlyOwner {... */\n      pop\n      jump\t// out\n        /* \"@openzeppelin/contracts/access/Ownable.sol\":1796:1958  function _checkOwner() internal view virtual {... */\n    tag_24:\n        /* \"@openzeppelin/contracts/access/Ownable.sol\":1684:1691  address */\n      0x00\n        /* \"@openzeppelin/contracts/access/Ownable.sol\":1710:1716  _owner */\n      sload\n      sub(shl(0xa0, 0x01), 0x01)\n      and\n        /* \"@openzeppelin/contracts/utils/Context.sol\":735:745  msg.sender */\n      caller\n        /* \"@openzeppelin/contracts/access/Ownable.sol\":1855:1878  owner() != _msgSender() */\n      eq\n        /* \"@openzeppelin/contracts/access/Ownable.sol\":1851:1952  if (owner() != _msgSender()) {... */\n      tag_26\n      jumpi\n        /* \"@openzeppelin/contracts/access/Ownable.sol\":1901:1941  OwnableUnauthorizedAccount(_msgSender()) */\n      mload(0x40)\n      shl(0xe0, 0x118cdaa7)\n      dup2\n      mstore\n        /* \"@openzeppelin/contracts/utils/Context.sol\":735:745  msg.sender */\n      caller\n        /* \"@openzeppelin/contracts/access/Ownable.sol\":1901:1941  OwnableUnauthorizedAccount(_msgSender()) */\n      0x04\n      dup3\n      add\n        /* \"#utility.yul\":2242:2293   */\n      mstore\n        /* \"#utility.yul\":2215:2233   */\n      0x24\n      add\n        /* \"@openzeppelin/contracts/access/Ownable.sol\":1901:1941  OwnableUnauthorizedAccount(_msgSender()) */\n      tag_42\n        /* \"#utility.yul\":2096:2299   */\n      jump\n        /* \"@openzeppelin/contracts/access/Ownable.sol\":2912:3099  function _transferOwnership(address newOwner) internal virtual {... */\n    tag_27:\n        /* \"@openzeppelin/contracts/access/Ownable.sol\":2985:3001  address oldOwner */\n      0x00\n        /* \"@openzeppelin/contracts/access/Ownable.sol\":3004:3010  _owner */\n      dup1\n      sload\n      sub(shl(0xa0, 0x01), 0x01)\n        /* \"@openzeppelin/contracts/access/Ownable.sol\":3020:3037  _owner = newOwner */\n      dup4\n      dup2\n      and\n      not(sub(shl(0xa0, 0x01), 0x01))\n      dup4\n      and\n      dup2\n      or\n      dup5\n      sstore\n        /* \"@openzeppelin/contracts/access/Ownable.sol\":3052:3092  OwnershipTransferred(oldOwner, newOwner) */\n      mload(0x40)\n        /* \"@openzeppelin/contracts/access/Ownable.sol\":3004:3010  _owner */\n      swap2\n      swap1\n      swap3\n      and\n      swap3\n      dup4\n      swap2\n        /* \"@openzeppelin/contracts/access/Ownable.sol\":3052:3092  OwnershipTransferred(oldOwner, newOwner) */\n      0x8be0079c531659141344cd1fd0a4f28419497f9722a3daafe3b4186f6b6457e0\n      swap2\n        /* \"@openzeppelin/contracts/access/Ownable.sol\":2985:3001  address oldOwner */\n      swap1\n        /* \"@openzeppelin/contracts/access/Ownable.sol\":3052:3092  OwnershipTransferred(oldOwner, newOwner) */\n      log3\n        /* \"@openzeppelin/contracts/access/Ownable.sol\":2975:3099  {... */\n      pop\n        /* \"@openzeppelin/contracts/access/Ownable.sol\":2912:3099  function _transferOwnership(address newOwner) internal virtual {... */\n      pop\n      jump\t// out\n    tag_32:\n      dataSize(sub_0)\n      dup1\n      dataOffset(sub_0)\n      dup4\n      codecopy\n      add\n      swap1\n      jump\t// out\n        /* \"#utility.yul\":14:141   */\n    tag_53:\n        /* \"#utility.yul\":75:85   */\n      0x4e487b71\n        /* \"#utility.yul\":70:73   */\n      0xe0\n        /* \"#utility.yul\":66:86   */\n      shl\n        /* \"#utility.yul\":63:64   */\n      0x00\n        /* \"#utility.yul\":56:87   */\n      mstore\n        /* \"#utility.yul\":106:110   */\n      0x41\n        /* \"#utility.yul\":103:104   */\n      0x04\n        /* \"#utility.yul\":96:111   */\n      mstore\n        /* \"#utility.yul\":130:134   */\n      0x24\n        /* \"#utility.yul\":127:128   */\n      0x00\n        /* \"#utility.yul\":120:135   */\n      revert\n        /* \"#utility.yul\":146:865   */\n    tag_54:\n        /* \"#utility.yul\":189:194   */\n      0x00\n        /* \"#utility.yul\":242:245   */\n      dup3\n        /* \"#utility.yul\":235:239   */\n      0x1f\n        /* \"#utility.yul\":227:233   */\n      dup4\n        /* \"#utility.yul\":223:240   */\n      add\n        /* \"#utility.yul\":219:246   */\n      slt\n        /* \"#utility.yul\":209:264   */\n      tag_60\n      jumpi\n        /* \"#utility.yul\":260:261   */\n      0x00\n        /* \"#utility.yul\":257:258   */\n      dup1\n        /* \"#utility.yul\":250:262   */\n      revert\n        /* \"#utility.yul\":209:264   */\n    tag_60:\n        /* \"#utility.yul\":296:302   */\n      dup2\n        /* \"#utility.yul\":283:303   */\n      calldataload\n        /* \"#utility.yul\":322:340   */\n      0xffffffffffffffff\n        /* \"#utility.yul\":359:361   */\n      dup1\n        /* \"#utility.yul\":355:357   */\n      dup3\n        /* \"#utility.yul\":352:362   */\n      gt\n        /* \"#utility.yul\":349:385   */\n      iszero\n      tag_62\n      jumpi\n        /* \"#utility.yul\":365:383   */\n      tag_62\n      tag_53\n      jump\t// in\n    tag_62:\n        /* \"#utility.yul\":440:442   */\n      0x40\n        /* \"#utility.yul\":434:443   */\n      mload\n        /* \"#utility.yul\":408:410   */\n      0x1f\n        /* \"#utility.yul\":494:507   */\n      dup4\n      add\n      not(0x1f)\n        /* \"#utility.yul\":490:512   */\n      swap1\n      dup2\n      and\n        /* \"#utility.yul\":514:516   */\n      0x3f\n        /* \"#utility.yul\":486:517   */\n      add\n        /* \"#utility.yul\":482:522   */\n      and\n        /* \"#utility.yul\":470:523   */\n      dup2\n      add\n      swap1\n        /* \"#utility.yul\":538:556   */\n      dup3\n      dup3\n      gt\n        /* \"#utility.yul\":558:580   */\n      dup2\n      dup4\n      lt\n        /* \"#utility.yul\":535:581   */\n      or\n        /* \"#utility.yul\":532:604   */\n      iszero\n      tag_64\n      jumpi\n        /* \"#utility.yul\":584:602   */\n      tag_64\n      tag_53\n      jump\t// in\n    tag_64:\n        /* \"#utility.yul\":624:634   */\n      dup2\n        /* \"#utility.yul\":620:622   */\n      0x40\n        /* \"#utility.yul\":613:635   */\n      mstore\n        /* \"#utility.yul\":659:661   */\n      dup4\n        /* \"#utility.yul\":651:657   */\n      dup2\n        /* \"#utility.yul\":644:662   */\n      mstore\n        /* \"#utility.yul\":705:708   */\n      dup7\n        /* \"#utility.yul\":698:702   */\n      0x20\n        /* \"#utility.yul\":693:695   */\n      dup6\n        /* \"#utility.yul\":685:691   */\n      dup9\n        /* \"#utility.yul\":681:696   */\n      add\n        /* \"#utility.yul\":677:703   */\n      add\n        /* \"#utility.yul\":674:709   */\n      gt\n        /* \"#utility.yul\":671:726   */\n      iszero\n      tag_65\n      jumpi\n        /* \"#utility.yul\":722:723   */\n      0x00\n        /* \"#utility.yul\":719:720   */\n      dup1\n        /* \"#utility.yul\":712:724   */\n      revert\n        /* \"#utility.yul\":671:726   */\n    tag_65:\n        /* \"#utility.yul\":786:788   */\n      dup4\n        /* \"#utility.yul\":779:783   */\n      0x20\n        /* \"#utility.yul\":771:777   */\n      dup8\n        /* \"#utility.yul\":767:784   */\n      add\n        /* \"#utility.yul\":760:764   */\n      0x20\n        /* \"#utility.yul\":752:758   */\n      dup4\n        /* \"#utility.yul\":748:765   */\n      add\n        /* \"#utility.yul\":735:789   */\n      calldatacopy\n        /* \"#utility.yul\":833:834   */\n      0x00\n        /* \"#utility.yul\":826:830   */\n      0x20\n        /* \"#utility.yul\":821:823   */\n      dup6\n        /* \"#utility.yul\":813:819   */\n      dup4\n        /* \"#utility.yul\":809:824   */\n      add\n        /* \"#utility.yul\":805:831   */\n      add\n        /* \"#utility.yul\":798:835   */\n      mstore\n        /* \"#utility.yul\":853:859   */\n      dup1\n        /* \"#utility.yul\":844:859   */\n      swap5\n      pop\n      pop\n      pop\n      pop\n      pop\n        /* \"#utility.yul\":146:865   */\n      swap3\n      swap2\n      pop\n      pop\n      jump\t// out\n        /* \"#utility.yul\":870:1043   */\n    tag_55:\n        /* \"#utility.yul\":938:958   */\n      dup1\n      calldataload\n      sub(shl(0xa0, 0x01), 0x01)\n        /* \"#utility.yul\":987:1018   */\n      dup2\n      and\n        /* \"#utility.yul\":977:1019   */\n      dup2\n      eq\n        /* \"#utility.yul\":967:1037   */\n      tag_67\n      jumpi\n        /* \"#utility.yul\":1033:1034   */\n      0x00\n        /* \"#utility.yul\":1030:1031   */\n      dup1\n        /* \"#utility.yul\":1023:1035   */\n      revert\n        /* \"#utility.yul\":967:1037   */\n    tag_67:\n        /* \"#utility.yul\":870:1043   */\n      swap2\n      swap1\n      pop\n      jump\t// out\n        /* \"#utility.yul\":1048:2091   */\n    tag_11:\n        /* \"#utility.yul\":1199:1205   */\n      0x00\n        /* \"#utility.yul\":1207:1213   */\n      dup1\n        /* \"#utility.yul\":1215:1221   */\n      0x00\n        /* \"#utility.yul\":1223:1229   */\n      dup1\n        /* \"#utility.yul\":1231:1237   */\n      0x00\n        /* \"#utility.yul\":1239:1245   */\n      dup1\n        /* \"#utility.yul\":1247:1253   */\n      0x00\n        /* \"#utility.yul\":1255:1261   */\n      dup1\n        /* \"#utility.yul\":1263:1269   */\n      0x00\n        /* \"#utility.yul\":1316:1319   */\n      0x0120\n        /* \"#utility.yul\":1304:1313   */\n      dup11\n        /* \"#utility.yul\":1295:1302   */\n      dup13\n        /* \"#utility.yul\":1291:1314   */\n      sub\n        /* \"#utility.yul\":1287:1320   */\n      slt\n        /* \"#utility.yul\":1284:1337   */\n      iszero\n      tag_69\n      jumpi\n        /* \"#utility.yul\":1333:1334   */\n      0x00\n        /* \"#utility.yul\":1330:1331   */\n      dup1\n        /* \"#utility.yul\":1323:1335   */\n      revert\n        /* \"#utility.yul\":1284:1337   */\n    tag_69:\n        /* \"#utility.yul\":1373:1382   */\n      dup10\n        /* \"#utility.yul\":1360:1383   */\n      calldataload\n        /* \"#utility.yul\":1402:1420   */\n      0xffffffffffffffff\n        /* \"#utility.yul\":1443:1445   */\n      dup1\n        /* \"#utility.yul\":1435:1441   */\n      dup3\n        /* \"#utility.yul\":1432:1446   */\n      gt\n        /* \"#utility.yul\":1429:1463   */\n      iszero\n      tag_70\n      jumpi\n        /* \"#utility.yul\":1459:1460   */\n      0x00\n        /* \"#utility.yul\":1456:1457   */\n      dup1\n        /* \"#utility.yul\":1449:1461   */\n      revert\n        /* \"#utility.yul\":1429:1463   */\n    tag_70:\n        /* \"#utility.yul\":1482:1532   */\n      tag_71\n        /* \"#utility.yul\":1524:1531   */\n      dup14\n        /* \"#utility.yul\":1515:1521   */\n      dup4\n        /* \"#utility.yul\":1504:1513   */\n      dup15\n        /* \"#utility.yul\":1500:1522   */\n      add\n        /* \"#utility.yul\":1482:1532   */\n      tag_54\n      jump\t// in\n    tag_71:\n        /* \"#utility.yul\":1472:1532   */\n      swap11\n      pop\n        /* \"#utility.yul\":1585:1587   */\n      0x20\n        /* \"#utility.yul\":1574:1583   */\n      dup13\n        /* \"#utility.yul\":1570:1588   */\n      add\n        /* \"#utility.yul\":1557:1589   */\n      calldataload\n        /* \"#utility.yul\":1541:1589   */\n      swap2\n      pop\n        /* \"#utility.yul\":1614:1616   */\n      dup1\n        /* \"#utility.yul\":1604:1612   */\n      dup3\n        /* \"#utility.yul\":1601:1617   */\n      gt\n        /* \"#utility.yul\":1598:1634   */\n      iszero\n      tag_72\n      jumpi\n        /* \"#utility.yul\":1630:1631   */\n      0x00\n        /* \"#utility.yul\":1627:1628   */\n      dup1\n        /* \"#utility.yul\":1620:1632   */\n      revert\n        /* \"#utility.yul\":1598:1634   */\n    tag_72:\n      pop\n        /* \"#utility.yul\":1653:1705   */\n      tag_73\n        /* \"#utility.yul\":1697:1704   */\n      dup13\n        /* \"#utility.yul\":1686:1694   */\n      dup3\n        /* \"#utility.yul\":1675:1684   */\n      dup14\n        /* \"#utility.yul\":1671:1695   */\n      add\n        /* \"#utility.yul\":1653:1705   */\n      tag_54\n      jump\t// in\n    tag_73:\n        /* \"#utility.yul\":1643:1705   */\n      swap9\n      pop\n      pop\n        /* \"#utility.yul\":1724:1762   */\n      tag_74\n        /* \"#utility.yul\":1758:1760   */\n      0x40\n        /* \"#utility.yul\":1747:1756   */\n      dup12\n        /* \"#utility.yul\":1743:1761   */\n      add\n        /* \"#utility.yul\":1724:1762   */\n      tag_55\n      jump\t// in\n    tag_74:\n        /* \"#utility.yul\":1714:1762   */\n      swap7\n      pop\n        /* \"#utility.yul\":1809:1811   */\n      0x60\n        /* \"#utility.yul\":1798:1807   */\n      dup11\n        /* \"#utility.yul\":1794:1812   */\n      add\n        /* \"#utility.yul\":1781:1813   */\n      calldataload\n        /* \"#utility.yul\":1771:1813   */\n      swap6\n      pop\n        /* \"#utility.yul\":1860:1863   */\n      0x80\n        /* \"#utility.yul\":1849:1858   */\n      dup11\n        /* \"#utility.yul\":1845:1864   */\n      add\n        /* \"#utility.yul\":1832:1865   */\n      calldataload\n        /* \"#utility.yul\":1822:1865   */\n      swap5\n      pop\n        /* \"#utility.yul\":1912:1915   */\n      0xa0\n        /* \"#utility.yul\":1901:1910   */\n      dup11\n        /* \"#utility.yul\":1897:1916   */\n      add\n        /* \"#utility.yul\":1884:1917   */\n      calldataload\n        /* \"#utility.yul\":1874:1917   */\n      swap4\n      pop\n        /* \"#utility.yul\":1964:1967   */\n      0xc0\n        /* \"#utility.yul\":1953:1962   */\n      dup11\n        /* \"#utility.yul\":1949:1968   */\n      add\n        /* \"#utility.yul\":1936:1969   */\n      calldataload\n        /* \"#utility.yul\":1926:1969   */\n      swap3\n      pop\n        /* \"#utility.yul\":1988:2027   */\n      tag_75\n        /* \"#utility.yul\":2022:2025   */\n      0xe0\n        /* \"#utility.yul\":2011:2020   */\n      dup12\n        /* \"#utility.yul\":2007:2026   */\n      add\n        /* \"#utility.yul\":1988:2027   */\n      tag_55\n      jump\t// in\n    tag_75:\n        /* \"#utility.yul\":1978:2027   */\n      swap2\n      pop\n        /* \"#utility.yul\":2046:2085   */\n      tag_76\n        /* \"#utility.yul\":2080:2083   */\n      0x0100\n        /* \"#utility.yul\":2069:2078   */\n      dup12\n        /* \"#utility.yul\":2065:2084   */\n      add\n        /* \"#utility.yul\":2046:2085   */\n      tag_55\n      jump\t// in\n    tag_76:\n        /* \"#utility.yul\":2036:2085   */\n      swap1\n      pop\n        /* \"#utility.yul\":1048:2091   */\n      swap3\n      swap6\n      swap9\n      pop\n      swap3\n      swap6\n      swap9\n      pop\n      swap3\n      swap6\n      swap9\n      jump\t// out\n        /* \"#utility.yul\":2304:2490   */\n    tag_20:\n        /* \"#utility.yul\":2363:2369   */\n      0x00\n        /* \"#utility.yul\":2416:2418   */\n      0x20\n        /* \"#utility.yul\":2404:2413   */\n      dup3\n        /* \"#utility.yul\":2395:2402   */\n      dup5\n        /* \"#utility.yul\":2391:2414   */\n      sub\n        /* \"#utility.yul\":2387:2419   */\n      slt\n        /* \"#utility.yul\":2384:2436   */\n      iszero\n      tag_79\n      jumpi\n        /* \"#utility.yul\":2432:2433   */\n      0x00\n        /* \"#utility.yul\":2429:2430   */\n      dup1\n        /* \"#utility.yul\":2422:2434   */\n      revert\n        /* \"#utility.yul\":2384:2436   */\n    tag_79:\n        /* \"#utility.yul\":2455:2484   */\n      tag_80\n        /* \"#utility.yul\":2474:2483   */\n      dup3\n        /* \"#utility.yul\":2455:2484   */\n      tag_55\n      jump\t// in\n    tag_80:\n        /* \"#utility.yul\":2445:2484   */\n      swap4\n        /* \"#utility.yul\":2304:2490   */\n      swap3\n      pop\n      pop\n      pop\n      jump\t// out\n        /* \"#utility.yul\":2495:2918   */\n    tag_56:\n        /* \"#utility.yul\":2537:2540   */\n      0x00\n        /* \"#utility.yul\":2575:2580   */\n      dup2\n        /* \"#utility.yul\":2569:2581   */\n      mload\n        /* \"#utility.yul\":2602:2608   */\n      dup1\n        /* \"#utility.yul\":2597:2600   */\n      dup5\n        /* \"#utility.yul\":2590:2609   */\n      mstore\n        /* \"#utility.yul\":2627:2628   */\n      0x00\n        /* \"#utility.yul\":2637:2799   */\n    tag_82:\n        /* \"#utility.yul\":2651:2657   */\n      dup2\n        /* \"#utility.yul\":2648:2649   */\n      dup2\n        /* \"#utility.yul\":2645:2658   */\n      lt\n        /* \"#utility.yul\":2637:2799   */\n      iszero\n      tag_84\n      jumpi\n        /* \"#utility.yul\":2713:2717   */\n      0x20\n        /* \"#utility.yul\":2769:2782   */\n      dup2\n      dup6\n      add\n        /* \"#utility.yul\":2765:2787   */\n      dup2\n      add\n        /* \"#utility.yul\":2759:2788   */\n      mload\n        /* \"#utility.yul\":2741:2752   */\n      dup7\n      dup4\n      add\n        /* \"#utility.yul\":2737:2757   */\n      dup3\n      add\n        /* \"#utility.yul\":2730:2789   */\n      mstore\n        /* \"#utility.yul\":2666:2678   */\n      add\n        /* \"#utility.yul\":2637:2799   */\n      jump(tag_82)\n    tag_84:\n        /* \"#utility.yul\":2641:2644   */\n      pop\n        /* \"#utility.yul\":2844:2845   */\n      0x00\n        /* \"#utility.yul\":2837:2841   */\n      0x20\n        /* \"#utility.yul\":2828:2834   */\n      dup3\n        /* \"#utility.yul\":2823:2826   */\n      dup7\n        /* \"#utility.yul\":2819:2835   */\n      add\n        /* \"#utility.yul\":2815:2842   */\n      add\n        /* \"#utility.yul\":2808:2846   */\n      mstore\n        /* \"#utility.yul\":2907:2911   */\n      0x20\n        /* \"#utility.yul\":2900:2902   */\n      0x1f\n        /* \"#utility.yul\":2896:2903   */\n      not\n        /* \"#utility.yul\":2891:2893   */\n      0x1f\n        /* \"#utility.yul\":2883:2889   */\n      dup4\n        /* \"#utility.yul\":2879:2894   */\n      add\n        /* \"#utility.yul\":2875:2904   */\n      and\n        /* \"#utility.yul\":2870:2873   */\n      dup6\n        /* \"#utility.yul\":2866:2905   */\n      add\n        /* \"#utility.yul\":2862:2912   */\n      add\n        /* \"#utility.yul\":2855:2912   */\n      swap2\n      pop\n      pop\n        /* \"#utility.yul\":2495:2918   */\n      swap3\n      swap2\n      pop\n      pop\n      jump\t// out\n        /* \"#utility.yul\":2923:3976   */\n    tag_34:\n        /* \"#utility.yul\":3307:3311   */\n      0x00\n        /* \"#utility.yul\":3336:3339   */\n      0x0140\n        /* \"#utility.yul\":3366:3368   */\n      dup1\n        /* \"#utility.yul\":3355:3364   */\n      dup4\n        /* \"#utility.yul\":3348:3369   */\n      mstore\n        /* \"#utility.yul\":3392:3437   */\n      tag_86\n        /* \"#utility.yul\":3433:3435   */\n      dup2\n        /* \"#utility.yul\":3422:3431   */\n      dup5\n        /* \"#utility.yul\":3418:3436   */\n      add\n        /* \"#utility.yul\":3410:3416   */\n      dup15\n        /* \"#utility.yul\":3392:3437   */\n      tag_56\n      jump\t// in\n    tag_86:\n        /* \"#utility.yul\":3378:3437   */\n      swap1\n      pop\n        /* \"#utility.yul\":3485:3494   */\n      dup3\n        /* \"#utility.yul\":3477:3483   */\n      dup2\n        /* \"#utility.yul\":3473:3495   */\n      sub\n        /* \"#utility.yul\":3468:3470   */\n      0x20\n        /* \"#utility.yul\":3457:3466   */\n      dup5\n        /* \"#utility.yul\":3453:3471   */\n      add\n        /* \"#utility.yul\":3446:3496   */\n      mstore\n        /* \"#utility.yul\":3513:3546   */\n      tag_87\n        /* \"#utility.yul\":3539:3545   */\n      dup2\n        /* \"#utility.yul\":3531:3537   */\n      dup14\n        /* \"#utility.yul\":3513:3546   */\n      tag_56\n      jump\t// in\n    tag_87:\n      sub(shl(0xa0, 0x01), 0x01)\n        /* \"#utility.yul\":3620:3635   */\n      swap12\n      dup13\n      and\n        /* \"#utility.yul\":3615:3617   */\n      0x40\n        /* \"#utility.yul\":3600:3618   */\n      dup6\n      add\n        /* \"#utility.yul\":3593:3636   */\n      mstore\n        /* \"#utility.yul\":3672:3687   */\n      swap10\n      dup12\n      and\n        /* \"#utility.yul\":3667:3669   */\n      0x60\n        /* \"#utility.yul\":3652:3670   */\n      dup5\n      add\n        /* \"#utility.yul\":3645:3688   */\n      mstore\n      pop\n      pop\n        /* \"#utility.yul\":3719:3722   */\n      0x80\n        /* \"#utility.yul\":3704:3723   */\n      dup2\n      add\n        /* \"#utility.yul\":3697:3732   */\n      swap7\n      swap1\n      swap7\n      mstore\n        /* \"#utility.yul\":3573:3576   */\n      0xa0\n        /* \"#utility.yul\":3748:3767   */\n      dup7\n      add\n        /* \"#utility.yul\":3741:3776   */\n      swap5\n      swap1\n      swap5\n      mstore\n        /* \"#utility.yul\":3807:3810   */\n      0xc0\n        /* \"#utility.yul\":3792:3811   */\n      dup6\n      add\n        /* \"#utility.yul\":3785:3820   */\n      swap3\n      swap1\n      swap3\n      mstore\n        /* \"#utility.yul\":3851:3854   */\n      0xe0\n        /* \"#utility.yul\":3836:3855   */\n      dup5\n      add\n        /* \"#utility.yul\":3829:3864   */\n      mstore\n        /* \"#utility.yul\":3901:3916   */\n      dup5\n      and\n        /* \"#utility.yul\":3895:3898   */\n      0x0100\n        /* \"#utility.yul\":3880:3899   */\n      dup4\n      add\n        /* \"#utility.yul\":3873:3917   */\n      mstore\n        /* \"#utility.yul\":3954:3969   */\n      swap1\n      swap3\n      and\n        /* \"#utility.yul\":3948:3951   */\n      0x0120\n        /* \"#utility.yul\":3933:3952   */\n      swap1\n      swap3\n      add\n        /* \"#utility.yul\":3926:3970   */\n      swap2\n      swap1\n      swap2\n      mstore\n        /* \"#utility.yul\":3505:3546   */\n      swap3\n        /* \"#utility.yul\":2923:3976   */\n      swap2\n      pop\n      pop\n      jump\t// out\n    stop\n\n    sub_0: assembly {\n            /* \"contracts/BondingCurveFactory.sol\":806:8379  contract BondingCurveToken is ERC20, Ownable(msg.sender), ReentrancyGuard {... */\n          mstore(0x40, 0x0140)\n            /* \"contracts/BondingCurveFactory.sol\":1770:2893  constructor(... */\n          callvalue\n          dup1\n          iszero\n          tag_1\n          jumpi\n          0x00\n          dup1\n          revert\n        tag_1:\n          pop\n          mload(0x40)\n          sub(codesize, bytecodeSize)\n          dup1\n          bytecodeSize\n          dup4\n          codecopy\n          dup2\n          add\n          0x40\n          dup2\n          swap1\n          mstore\n          tag_2\n          swap2\n          tag_3\n          jump\t// in\n        tag_2:\n            /* \"contracts/BondingCurveFactory.sol\":851:861  msg.sender */\n          caller\n            /* \"contracts/BondingCurveFactory.sol\":2170:2175  name_ */\n          dup11\n            /* \"contracts/BondingCurveFactory.sol\":2177:2184  symbol_ */\n          dup11\n            /* \"@openzeppelin/contracts/token/ERC20/ERC20.sol\":1648:1653  _name */\n          0x03\n            /* \"@openzeppelin/contracts/token/ERC20/ERC20.sol\":1648:1661  _name = name_ */\n          tag_9\n            /* \"contracts/BondingCurveFactory.sol\":2170:2175  name_ */\n          dup4\n            /* \"@openzeppelin/contracts/token/ERC20/ERC20.sol\":1648:1653  _name */\n          dup3\n            /* \"@openzeppelin/contracts/token/ERC20/ERC20.sol\":1648:1661  _name = name_ */\n          tag_10\n          jump\t// in\n        tag_9:\n          pop\n            /* \"@openzeppelin/contracts/token/ERC20/ERC20.sol\":1671:1678  _symbol */\n          0x04\n            /* \"@openzeppelin/contracts/token/ERC20/ERC20.sol\":1671:1688  _symbol = symbol_ */\n          tag_11\n            /* \"@openzeppelin/contracts/token/ERC20/ERC20.sol\":1681:1688  symbol_ */\n          dup3\n            /* \"@openzeppelin/contracts/token/ERC20/ERC20.sol\":1671:1678  _symbol */\n          dup3\n            /* \"@openzeppelin/contracts/token/ERC20/ERC20.sol\":1671:1688  _symbol = symbol_ */\n          tag_10\n          jump\t// in\n        tag_11:\n          pop\n          pop\n          pop\n          sub(shl(0xa0, 0x01), 0x01)\n            /* \"@openzeppelin/contracts/access/Ownable.sol\":1273:1299  initialOwner == address(0) */\n          dup2\n          and\n            /* \"@openzeppelin/contracts/access/Ownable.sol\":1269:1364  if (initialOwner == address(0)) {... */\n          tag_13\n          jumpi\n            /* \"@openzeppelin/contracts/access/Ownable.sol\":1322:1353  OwnableInvalidOwner(address(0)) */\n          mload(0x40)\n          shl(0xe0, 0x1e4fbdf7)\n          dup2\n          mstore\n            /* \"@openzeppelin/contracts/access/Ownable.sol\":1350:1351  0 */\n          0x00\n            /* \"@openzeppelin/contracts/access/Ownable.sol\":1322:1353  OwnableInvalidOwner(address(0)) */\n          0x04\n          dup3\n          add\n            /* \"#utility.yul\":5066:5117   */\n          mstore\n            /* \"#utility.yul\":5039:5057   */\n          0x24\n          add\n            /* \"@openzeppelin/contracts/access/Ownable.sol\":1322:1353  OwnableInvalidOwner(address(0)) */\n          mload(0x40)\n          dup1\n          swap2\n          sub\n          swap1\n          revert\n            /* \"@openzeppelin/contracts/access/Ownable.sol\":1269:1364  if (initialOwner == address(0)) {... */\n        tag_13:\n            /* \"@openzeppelin/contracts/access/Ownable.sol\":1373:1405  _transferOwnership(initialOwner) */\n          tag_16\n            /* \"@openzeppelin/contracts/access/Ownable.sol\":1392:1404  initialOwner */\n          dup2\n            /* \"@openzeppelin/contracts/access/Ownable.sol\":1373:1391  _transferOwnership */\n          tag_17\n            /* \"@openzeppelin/contracts/access/Ownable.sol\":1373:1405  _transferOwnership(initialOwner) */\n          jump\t// in\n        tag_16:\n          pop\n            /* \"@openzeppelin/contracts/security/ReentrancyGuard.sol\":1716:1717  1 */\n          0x01\n            /* \"@openzeppelin/contracts/security/ReentrancyGuard.sol\":1821:1828  _status */\n          0x06\n            /* \"@openzeppelin/contracts/security/ReentrancyGuard.sol\":1821:1843  _status = _NOT_ENTERED */\n          sstore\n          sub(shl(0xa0, 0x01), 0x01)\n            /* \"contracts/BondingCurveFactory.sol\":2197:2240  reserveToken = IERC20(reserveTokenAddress_) */\n          dup8\n          and\n          0x80\n          mstore\n            /* \"contracts/BondingCurveFactory.sol\":2251:2270  virtualTokenReserve */\n          0x07\n            /* \"contracts/BondingCurveFactory.sol\":2251:2300  virtualTokenReserve = initialVirtualTokenReserve_ */\n          dup7\n          swap1\n          sstore\n            /* \"contracts/BondingCurveFactory.sol\":2311:2330  virtualReserveAsset */\n          0x08\n            /* \"contracts/BondingCurveFactory.sol\":2311:2360  virtualReserveAsset = initialVirtualReserveAsset_ */\n          dup6\n          swap1\n          sstore\n            /* \"contracts/BondingCurveFactory.sol\":2371:2427  initialVirtualTokenReserve = initialVirtualTokenReserve_ */\n          0xa0\n          dup7\n          swap1\n          mstore\n            /* \"contracts/BondingCurveFactory.sol\":2438:2493  initialRealTokenReservesStart = realTokenReservesStart_ */\n          0xc0\n          dup5\n          swap1\n          mstore\n            /* \"contracts/BondingCurveFactory.sol\":2508:2565  initialVirtualTokenReserve_ * initialVirtualReserveAsset_ */\n          tag_20\n            /* \"contracts/BondingCurveFactory.sol\":2333:2360  initialVirtualReserveAsset_ */\n          dup6\n            /* \"contracts/BondingCurveFactory.sol\":2273:2300  initialVirtualTokenReserve_ */\n          dup8\n            /* \"contracts/BondingCurveFactory.sol\":2508:2565  initialVirtualTokenReserve_ * initialVirtualReserveAsset_ */\n          tag_21\n          jump\t// in\n        tag_20:\n            /* \"contracts/BondingCurveFactory.sol\":2504:2565  k = initialVirtualTokenReserve_ * initialVirtualReserveAsset_ */\n          0xe0\n          mstore\n            /* \"contracts/BondingCurveFactory.sol\":2576:2602  remainingRealTokenReserves */\n          0x09\n            /* \"contracts/BondingCurveFactory.sol\":2576:2628  remainingRealTokenReserves = realTokenReservesStart_ */\n          dup5\n          swap1\n          sstore\n            /* \"contracts/BondingCurveFactory.sol\":2639:2665  graduationReserveThreshold */\n          0x0b\n            /* \"contracts/BondingCurveFactory.sol\":2639:2695  graduationReserveThreshold = graduationReserveThreshold_ */\n          dup4\n          swap1\n          sstore\n          sub(shl(0xa0, 0x01), 0x01)\n            /* \"contracts/BondingCurveFactory.sol\":2706:2757  yunaswapRouter = IYunaSwapRouter02(yunaswapRouter_) */\n          dup1\n          dup4\n          and\n          0x0100\n          mstore\n            /* \"contracts/BondingCurveFactory.sol\":2768:2820  yunaswapFactory = IYunaSwapFactory(yunaswapFactory_) */\n          dup2\n          and\n          0x0120\n          mstore\n            /* \"contracts/BondingCurveFactory.sol\":2831:2840  graduated */\n          0x0c\n            /* \"contracts/BondingCurveFactory.sol\":2831:2848  graduated = false */\n          dup1\n          sload\n          not(0xff)\n          and\n          swap1\n          sstore\n            /* \"contracts/BondingCurveFactory.sol\":2859:2885  _transferOwnership(owner_) */\n          tag_22\n            /* \"contracts/BondingCurveFactory.sol\":2878:2884  owner_ */\n          dup9\n            /* \"contracts/BondingCurveFactory.sol\":2859:2877  _transferOwnership */\n          tag_17\n            /* \"contracts/BondingCurveFactory.sol\":2859:2885  _transferOwnership(owner_) */\n          jump\t// in\n        tag_22:\n            /* \"contracts/BondingCurveFactory.sol\":1770:2893  constructor(... */\n          pop\n          pop\n          pop\n          pop\n          pop\n          pop\n          pop\n          pop\n          pop\n          pop\n            /* \"contracts/BondingCurveFactory.sol\":806:8379  contract BondingCurveToken is ERC20, Ownable(msg.sender), ReentrancyGuard {... */\n          jump(tag_32)\n            /* \"@openzeppelin/contracts/access/Ownable.sol\":2912:3099  function _transferOwnership(address newOwner) internal virtual {... */\n        tag_17:\n            /* \"@openzeppelin/contracts/access/Ownable.sol\":3004:3010  _owner */\n          0x05\n          dup1\n          sload\n          sub(shl(0xa0, 0x01), 0x01)\n            /* \"@openzeppelin/contracts/access/Ownable.sol\":3020:3037  _owner = newOwner */\n          dup4\n          dup2\n          and\n          not(sub(shl(0xa0, 0x01), 0x01))\n          dup4\n          and\n          dup2\n          or\n          swap1\n          swap4\n          sstore\n            /* \"@openzeppelin/contracts/access/Ownable.sol\":3052:3092  OwnershipTransferred(oldOwner, newOwner) */\n          mload(0x40)\n            /* \"@openzeppelin/contracts/access/Ownable.sol\":3004:3010  _owner */\n          swap2\n          and\n          swap2\n            /* \"@openzeppelin/contracts/access/Ownable.sol\":3020:3037  _owner = newOwner */\n          swap1\n            /* \"@openzeppelin/contracts/access/Ownable.sol\":3004:3010  _owner */\n          dup3\n          swap1\n            /* \"@openzeppelin/contracts/access/Ownable.sol\":3052:3092  OwnershipTransferred(oldOwner, newOwner) */\n          0x8be0079c531659141344cd1fd0a4f28419497f9722a3daafe3b4186f6b6457e0\n          swap1\n            /* \"@openzeppelin/contracts/access/Ownable.sol\":2985:3001  address oldOwner */\n          0x00\n          swap1\n            /* \"@openzeppelin/contracts/access/Ownable.sol\":3052:3092  OwnershipTransferred(oldOwner, newOwner) */\n          log3\n            /* \"@openzeppelin/contracts/access/Ownable.sol\":2975:3099  {... */\n          pop\n            /* \"@openzeppelin/contracts/access/Ownable.sol\":2912:3099  function _transferOwnership(address newOwner) internal virtual {... */\n          pop\n          jump\t// out\n            /* \"#utility.yul\":14:141   */\n        tag_25:\n            /* \"#utility.yul\":75:85   */\n          0x4e487b71\n            /* \"#utility.yul\":70:73   */\n          0xe0\n            /* \"#utility.yul\":66:86   */\n          shl\n            /* \"#utility.yul\":63:64   */\n          0x00\n            /* \"#utility.yul\":56:87   */\n          mstore\n            /* \"#utility.yul\":106:110   */\n          0x41\n            /* \"#utility.yul\":103:104   */\n          0x04\n            /* \"#utility.yul\":96:111   */\n          mstore\n            /* \"#utility.yul\":130:134   */\n          0x24\n            /* \"#utility.yul\":127:128   */\n          0x00\n            /* \"#utility.yul\":120:135   */\n          revert\n            /* \"#utility.yul\":146:986   */\n        tag_26:\n            /* \"#utility.yul\":200:205   */\n          0x00\n            /* \"#utility.yul\":253:256   */\n          dup3\n            /* \"#utility.yul\":246:250   */\n          0x1f\n            /* \"#utility.yul\":238:244   */\n          dup4\n            /* \"#utility.yul\":234:251   */\n          add\n            /* \"#utility.yul\":230:257   */\n          slt\n            /* \"#utility.yul\":220:275   */\n          tag_35\n          jumpi\n            /* \"#utility.yul\":271:272   */\n          0x00\n            /* \"#utility.yul\":268:269   */\n          dup1\n            /* \"#utility.yul\":261:273   */\n          revert\n            /* \"#utility.yul\":220:275   */\n        tag_35:\n            /* \"#utility.yul\":294:307   */\n          dup2\n          mload\n          sub(shl(0x40, 0x01), 0x01)\n            /* \"#utility.yul\":356:366   */\n          dup1\n          dup3\n          gt\n            /* \"#utility.yul\":353:389   */\n          iszero\n          tag_37\n          jumpi\n            /* \"#utility.yul\":369:387   */\n          tag_37\n          tag_25\n          jump\t// in\n        tag_37:\n            /* \"#utility.yul\":444:446   */\n          0x40\n            /* \"#utility.yul\":438:447   */\n          mload\n            /* \"#utility.yul\":412:414   */\n          0x1f\n            /* \"#utility.yul\":498:511   */\n          dup4\n          add\n          not(0x1f)\n            /* \"#utility.yul\":494:516   */\n          swap1\n          dup2\n          and\n            /* \"#utility.yul\":518:520   */\n          0x3f\n            /* \"#utility.yul\":490:521   */\n          add\n            /* \"#utility.yul\":486:526   */\n          and\n            /* \"#utility.yul\":474:527   */\n          dup2\n          add\n          swap1\n            /* \"#utility.yul\":542:560   */\n          dup3\n          dup3\n          gt\n            /* \"#utility.yul\":562:584   */\n          dup2\n          dup4\n          lt\n            /* \"#utility.yul\":539:585   */\n          or\n            /* \"#utility.yul\":536:608   */\n          iszero\n          tag_39\n          jumpi\n            /* \"#utility.yul\":588:606   */\n          tag_39\n          tag_25\n          jump\t// in\n        tag_39:\n            /* \"#utility.yul\":628:638   */\n          dup2\n            /* \"#utility.yul\":624:626   */\n          0x40\n            /* \"#utility.yul\":617:639   */\n          mstore\n            /* \"#utility.yul\":663:665   */\n          dup4\n            /* \"#utility.yul\":655:661   */\n          dup2\n            /* \"#utility.yul\":648:666   */\n          mstore\n            /* \"#utility.yul\":685:689   */\n          0x20\n            /* \"#utility.yul\":675:689   */\n          swap3\n          pop\n            /* \"#utility.yul\":730:733   */\n          dup7\n            /* \"#utility.yul\":725:727   */\n          dup4\n            /* \"#utility.yul\":720:722   */\n          dup6\n            /* \"#utility.yul\":712:718   */\n          dup9\n            /* \"#utility.yul\":708:723   */\n          add\n            /* \"#utility.yul\":704:728   */\n          add\n            /* \"#utility.yul\":701:734   */\n          gt\n            /* \"#utility.yul\":698:751   */\n          iszero\n          tag_40\n          jumpi\n            /* \"#utility.yul\":747:748   */\n          0x00\n            /* \"#utility.yul\":744:745   */\n          dup1\n            /* \"#utility.yul\":737:749   */\n          revert\n            /* \"#utility.yul\":698:751   */\n        tag_40:\n            /* \"#utility.yul\":769:770   */\n          0x00\n            /* \"#utility.yul\":760:770   */\n          swap2\n          pop\n            /* \"#utility.yul\":779:912   */\n        tag_41:\n            /* \"#utility.yul\":793:795   */\n          dup4\n            /* \"#utility.yul\":790:791   */\n          dup3\n            /* \"#utility.yul\":787:796   */\n          lt\n            /* \"#utility.yul\":779:912   */\n          iszero\n          tag_43\n          jumpi\n            /* \"#utility.yul\":881:895   */\n          dup6\n          dup3\n          add\n            /* \"#utility.yul\":877:900   */\n          dup4\n          add\n            /* \"#utility.yul\":871:901   */\n          mload\n            /* \"#utility.yul\":850:864   */\n          dup2\n          dup4\n          add\n            /* \"#utility.yul\":846:869   */\n          dup5\n          add\n            /* \"#utility.yul\":839:902   */\n          mstore\n            /* \"#utility.yul\":804:814   */\n          swap1\n          dup3\n          add\n          swap1\n            /* \"#utility.yul\":779:912   */\n          jump(tag_41)\n        tag_43:\n            /* \"#utility.yul\":954:955   */\n          0x00\n            /* \"#utility.yul\":932:947   */\n          swap4\n          dup2\n          add\n            /* \"#utility.yul\":928:952   */\n          swap1\n          swap3\n          add\n            /* \"#utility.yul\":921:956   */\n          swap3\n          swap1\n          swap3\n          mstore\n            /* \"#utility.yul\":936:942   */\n          swap5\n            /* \"#utility.yul\":146:986   */\n          swap4\n          pop\n          pop\n          pop\n          pop\n          jump\t// out\n            /* \"#utility.yul\":991:1168   */\n        tag_27:\n            /* \"#utility.yul\":1070:1083   */\n          dup1\n          mload\n          sub(shl(0xa0, 0x01), 0x01)\n            /* \"#utility.yul\":1112:1143   */\n          dup2\n          and\n            /* \"#utility.yul\":1102:1144   */\n          dup2\n          eq\n            /* \"#utility.yul\":1092:1162   */\n          tag_45\n          jumpi\n            /* \"#utility.yul\":1158:1159   */\n          0x00\n            /* \"#utility.yul\":1155:1156   */\n          dup1\n            /* \"#utility.yul\":1148:1160   */\n          revert\n            /* \"#utility.yul\":1092:1162   */\n        tag_45:\n            /* \"#utility.yul\":991:1168   */\n          swap2\n          swap1\n          pop\n          jump\t// out\n            /* \"#utility.yul\":1173:2326   */\n        tag_3:\n            /* \"#utility.yul\":1344:1350   */\n          0x00\n            /* \"#utility.yul\":1352:1358   */\n          dup1\n            /* \"#utility.yul\":1360:1366   */\n          0x00\n            /* \"#utility.yul\":1368:1374   */\n          dup1\n            /* \"#utility.yul\":1376:1382   */\n          0x00\n            /* \"#utility.yul\":1384:1390   */\n          dup1\n            /* \"#utility.yul\":1392:1398   */\n          0x00\n            /* \"#utility.yul\":1400:1406   */\n          dup1\n            /* \"#utility.yul\":1408:1414   */\n          0x00\n            /* \"#utility.yul\":1416:1422   */\n          dup1\n            /* \"#utility.yul\":1469:1472   */\n          0x0140\n            /* \"#utility.yul\":1457:1466   */\n          dup12\n            /* \"#utility.yul\":1448:1455   */\n          dup14\n            /* \"#utility.yul\":1444:1467   */\n          sub\n            /* \"#utility.yul\":1440:1473   */\n          slt\n            /* \"#utility.yul\":1437:1490   */\n          iszero\n          tag_47\n          jumpi\n            /* \"#utility.yul\":1486:1487   */\n          0x00\n            /* \"#utility.yul\":1483:1484   */\n          dup1\n            /* \"#utility.yul\":1476:1488   */\n          revert\n            /* \"#utility.yul\":1437:1490   */\n        tag_47:\n            /* \"#utility.yul\":1513:1529   */\n          dup11\n          mload\n          sub(shl(0x40, 0x01), 0x01)\n            /* \"#utility.yul\":1578:1592   */\n          dup1\n          dup3\n          gt\n            /* \"#utility.yul\":1575:1609   */\n          iszero\n          tag_48\n          jumpi\n            /* \"#utility.yul\":1605:1606   */\n          0x00\n            /* \"#utility.yul\":1602:1603   */\n          dup1\n            /* \"#utility.yul\":1595:1607   */\n          revert\n            /* \"#utility.yul\":1575:1609   */\n        tag_48:\n            /* \"#utility.yul\":1628:1689   */\n          tag_49\n            /* \"#utility.yul\":1681:1688   */\n          dup15\n            /* \"#utility.yul\":1672:1678   */\n          dup4\n            /* \"#utility.yul\":1661:1670   */\n          dup16\n            /* \"#utility.yul\":1657:1679   */\n          add\n            /* \"#utility.yul\":1628:1689   */\n          tag_26\n          jump\t// in\n        tag_49:\n            /* \"#utility.yul\":1618:1689   */\n          swap12\n          pop\n            /* \"#utility.yul\":1735:1737   */\n          0x20\n            /* \"#utility.yul\":1724:1733   */\n          dup14\n            /* \"#utility.yul\":1720:1738   */\n          add\n            /* \"#utility.yul\":1714:1739   */\n          mload\n            /* \"#utility.yul\":1698:1739   */\n          swap2\n          pop\n            /* \"#utility.yul\":1764:1766   */\n          dup1\n            /* \"#utility.yul\":1754:1762   */\n          dup3\n            /* \"#utility.yul\":1751:1767   */\n          gt\n            /* \"#utility.yul\":1748:1784   */\n          iszero\n          tag_50\n          jumpi\n            /* \"#utility.yul\":1780:1781   */\n          0x00\n            /* \"#utility.yul\":1777:1778   */\n          dup1\n            /* \"#utility.yul\":1770:1782   */\n          revert\n            /* \"#utility.yul\":1748:1784   */\n        tag_50:\n          pop\n            /* \"#utility.yul\":1803:1866   */\n          tag_51\n            /* \"#utility.yul\":1858:1865   */\n          dup14\n            /* \"#utility.yul\":1847:1855   */\n          dup3\n            /* \"#utility.yul\":1836:1845   */\n          dup15\n            /* \"#utility.yul\":1832:1856   */\n          add\n            /* \"#utility.yul\":1803:1866   */\n          tag_26\n          jump\t// in\n        tag_51:\n            /* \"#utility.yul\":1793:1866   */\n          swap10\n          pop\n          pop\n            /* \"#utility.yul\":1885:1934   */\n          tag_52\n            /* \"#utility.yul\":1930:1932   */\n          0x40\n            /* \"#utility.yul\":1919:1928   */\n          dup13\n            /* \"#utility.yul\":1915:1933   */\n          add\n            /* \"#utility.yul\":1885:1934   */\n          tag_27\n          jump\t// in\n        tag_52:\n            /* \"#utility.yul\":1875:1934   */\n          swap8\n          pop\n            /* \"#utility.yul\":1953:2002   */\n          tag_53\n            /* \"#utility.yul\":1998:2000   */\n          0x60\n            /* \"#utility.yul\":1987:1996   */\n          dup13\n            /* \"#utility.yul\":1983:2001   */\n          add\n            /* \"#utility.yul\":1953:2002   */\n          tag_27\n          jump\t// in\n        tag_53:\n            /* \"#utility.yul\":1943:2002   */\n          swap7\n          pop\n            /* \"#utility.yul\":2042:2045   */\n          0x80\n            /* \"#utility.yul\":2031:2040   */\n          dup12\n            /* \"#utility.yul\":2027:2046   */\n          add\n            /* \"#utility.yul\":2021:2047   */\n          mload\n            /* \"#utility.yul\":2011:2047   */\n          swap6\n          pop\n            /* \"#utility.yul\":2087:2090   */\n          0xa0\n            /* \"#utility.yul\":2076:2085   */\n          dup12\n            /* \"#utility.yul\":2072:2091   */\n          add\n            /* \"#utility.yul\":2066:2092   */\n          mload\n            /* \"#utility.yul\":2056:2092   */\n          swap5\n          pop\n            /* \"#utility.yul\":2132:2135   */\n          0xc0\n            /* \"#utility.yul\":2121:2130   */\n          dup12\n            /* \"#utility.yul\":2117:2136   */\n          add\n            /* \"#utility.yul\":2111:2137   */\n          mload\n            /* \"#utility.yul\":2101:2137   */\n          swap4\n          pop\n            /* \"#utility.yul\":2177:2180   */\n          0xe0\n            /* \"#utility.yul\":2166:2175   */\n          dup12\n            /* \"#utility.yul\":2162:2181   */\n          add\n            /* \"#utility.yul\":2156:2182   */\n          mload\n            /* \"#utility.yul\":2146:2182   */\n          swap3\n          pop\n            /* \"#utility.yul\":2201:2251   */\n          tag_54\n            /* \"#utility.yul\":2246:2249   */\n          0x0100\n            /* \"#utility.yul\":2235:2244   */\n          dup13\n            /* \"#utility.yul\":2231:2250   */\n          add\n            /* \"#utility.yul\":2201:2251   */\n          tag_27\n          jump\t// in\n        tag_54:\n            /* \"#utility.yul\":2191:2251   */\n          swap2\n          pop\n            /* \"#utility.yul\":2270:2320   */\n          tag_55\n            /* \"#utility.yul\":2315:2318   */\n          0x0120\n            /* \"#utility.yul\":2304:2313   */\n          dup13\n            /* \"#utility.yul\":2300:2319   */\n          add\n            /* \"#utility.yul\":2270:2320   */\n          tag_27\n          jump\t// in\n        tag_55:\n            /* \"#utility.yul\":2260:2320   */\n          swap1\n          pop\n            /* \"#utility.yul\":1173:2326   */\n          swap3\n          swap6\n          swap9\n          swap12\n          swap2\n          swap5\n          swap8\n          swap11\n          pop\n          swap3\n          swap6\n          swap9\n          pop\n          jump\t// out\n            /* \"#utility.yul\":2331:2711   */\n        tag_28:\n            /* \"#utility.yul\":2410:2411   */\n          0x01\n            /* \"#utility.yul\":2406:2418   */\n          dup2\n          dup2\n          shr\n          swap1\n            /* \"#utility.yul\":2453:2465   */\n          dup3\n          and\n          dup1\n            /* \"#utility.yul\":2474:2535   */\n          tag_57\n          jumpi\n            /* \"#utility.yul\":2528:2532   */\n          0x7f\n            /* \"#utility.yul\":2520:2526   */\n          dup3\n            /* \"#utility.yul\":2516:2533   */\n          and\n            /* \"#utility.yul\":2506:2533   */\n          swap2\n          pop\n            /* \"#utility.yul\":2474:2535   */\n        tag_57:\n            /* \"#utility.yul\":2581:2583   */\n          0x20\n            /* \"#utility.yul\":2573:2579   */\n          dup3\n            /* \"#utility.yul\":2570:2584   */\n          lt\n            /* \"#utility.yul\":2550:2568   */\n          dup2\n            /* \"#utility.yul\":2547:2585   */\n          sub\n            /* \"#utility.yul\":2544:2705   */\n          tag_58\n          jumpi\n            /* \"#utility.yul\":2627:2637   */\n          0x4e487b71\n            /* \"#utility.yul\":2622:2625   */\n          0xe0\n            /* \"#utility.yul\":2618:2638   */\n          shl\n            /* \"#utility.yul\":2615:2616   */\n          0x00\n            /* \"#utility.yul\":2608:2639   */\n          mstore\n            /* \"#utility.yul\":2662:2666   */\n          0x22\n            /* \"#utility.yul\":2659:2660   */\n          0x04\n            /* \"#utility.yul\":2652:2667   */\n          mstore\n            /* \"#utility.yul\":2690:2694   */\n          0x24\n            /* \"#utility.yul\":2687:2688   */\n          0x00\n            /* \"#utility.yul\":2680:2695   */\n          revert\n            /* \"#utility.yul\":2544:2705   */\n        tag_58:\n          pop\n            /* \"#utility.yul\":2331:2711   */\n          swap2\n          swap1\n          pop\n          jump\t// out\n            /* \"#utility.yul\":2842:3387   */\n        tag_30:\n            /* \"#utility.yul\":2944:2946   */\n          0x1f\n            /* \"#utility.yul\":2939:2942   */\n          dup3\n            /* \"#utility.yul\":2936:2947   */\n          gt\n            /* \"#utility.yul\":2933:3381   */\n          iszero\n          tag_61\n          jumpi\n            /* \"#utility.yul\":2980:2981   */\n          0x00\n            /* \"#utility.yul\":3005:3010   */\n          dup2\n            /* \"#utility.yul\":3001:3003   */\n          dup2\n            /* \"#utility.yul\":2994:3011   */\n          mstore\n            /* \"#utility.yul\":3050:3054   */\n          0x20\n            /* \"#utility.yul\":3046:3048   */\n          dup2\n            /* \"#utility.yul\":3036:3055   */\n          keccak256\n            /* \"#utility.yul\":3120:3122   */\n          0x1f\n            /* \"#utility.yul\":3108:3118   */\n          dup6\n            /* \"#utility.yul\":3104:3123   */\n          add\n            /* \"#utility.yul\":3101:3102   */\n          0x05\n            /* \"#utility.yul\":3097:3124   */\n          shr\n            /* \"#utility.yul\":3091:3095   */\n          dup2\n            /* \"#utility.yul\":3087:3125   */\n          add\n            /* \"#utility.yul\":3156:3160   */\n          0x20\n            /* \"#utility.yul\":3144:3154   */\n          dup7\n            /* \"#utility.yul\":3141:3161   */\n          lt\n            /* \"#utility.yul\":3138:3185   */\n          iszero\n          tag_62\n          jumpi\n          pop\n            /* \"#utility.yul\":3179:3183   */\n          dup1\n            /* \"#utility.yul\":3138:3185   */\n        tag_62:\n            /* \"#utility.yul\":3234:3236   */\n          0x1f\n            /* \"#utility.yul\":3229:3232   */\n          dup6\n            /* \"#utility.yul\":3225:3237   */\n          add\n            /* \"#utility.yul\":3222:3223   */\n          0x05\n            /* \"#utility.yul\":3218:3238   */\n          shr\n            /* \"#utility.yul\":3212:3216   */\n          dup3\n            /* \"#utility.yul\":3208:3239   */\n          add\n            /* \"#utility.yul\":3198:3239   */\n          swap2\n          pop\n            /* \"#utility.yul\":3289:3371   */\n        tag_63:\n            /* \"#utility.yul\":3307:3309   */\n          dup2\n            /* \"#utility.yul\":3300:3305   */\n          dup2\n            /* \"#utility.yul\":3297:3310   */\n          lt\n            /* \"#utility.yul\":3289:3371   */\n          iszero\n          tag_65\n          jumpi\n            /* \"#utility.yul\":3352:3369   */\n          dup3\n          dup2\n          sstore\n            /* \"#utility.yul\":3333:3334   */\n          0x01\n            /* \"#utility.yul\":3322:3335   */\n          add\n            /* \"#utility.yul\":3289:3371   */\n          jump(tag_63)\n        tag_65:\n            /* \"#utility.yul\":3293:3296   */\n          pop\n          pop\n          pop\n            /* \"#utility.yul\":2933:3381   */\n        tag_61:\n            /* \"#utility.yul\":2842:3387   */\n          pop\n          pop\n          pop\n          jump\t// out\n            /* \"#utility.yul\":3563:4915   */\n        tag_10:\n            /* \"#utility.yul\":3683:3693   */\n          dup2\n          mload\n          sub(shl(0x40, 0x01), 0x01)\n            /* \"#utility.yul\":3705:3735   */\n          dup2\n          gt\n            /* \"#utility.yul\":3702:3758   */\n          iszero\n          tag_69\n          jumpi\n            /* \"#utility.yul\":3738:3756   */\n          tag_69\n          tag_25\n          jump\t// in\n        tag_69:\n            /* \"#utility.yul\":3767:3864   */\n          tag_70\n            /* \"#utility.yul\":3857:3863   */\n          dup2\n            /* \"#utility.yul\":3817:3855   */\n          tag_71\n            /* \"#utility.yul\":3849:3853   */\n          dup5\n            /* \"#utility.yul\":3843:3854   */\n          sload\n            /* \"#utility.yul\":3817:3855   */\n          tag_28\n          jump\t// in\n        tag_71:\n            /* \"#utility.yul\":3811:3815   */\n          dup5\n            /* \"#utility.yul\":3767:3864   */\n          tag_30\n          jump\t// in\n        tag_70:\n            /* \"#utility.yul\":3919:3923   */\n          0x20\n          dup1\n            /* \"#utility.yul\":3983:3985   */\n          0x1f\n            /* \"#utility.yul\":3972:3986   */\n          dup4\n          gt\n            /* \"#utility.yul\":4000:4001   */\n          0x01\n            /* \"#utility.yul\":3995:4658   */\n          dup2\n          eq\n          tag_73\n          jumpi\n            /* \"#utility.yul\":4702:4703   */\n          0x00\n            /* \"#utility.yul\":4719:4725   */\n          dup5\n            /* \"#utility.yul\":4716:4805   */\n          iszero\n          tag_74\n          jumpi\n          pop\n            /* \"#utility.yul\":4771:4790   */\n          dup6\n          dup4\n          add\n            /* \"#utility.yul\":4765:4791   */\n          mload\n            /* \"#utility.yul\":4716:4805   */\n        tag_74:\n          not(0x00)\n            /* \"#utility.yul\":3520:3521   */\n          0x03\n            /* \"#utility.yul\":3516:3527   */\n          dup7\n          swap1\n          shl\n            /* \"#utility.yul\":3512:3536   */\n          shr\n            /* \"#utility.yul\":3508:3537   */\n          not\n            /* \"#utility.yul\":3498:3538   */\n          and\n            /* \"#utility.yul\":3544:3545   */\n          0x01\n            /* \"#utility.yul\":3540:3551   */\n          dup6\n          swap1\n          shl\n            /* \"#utility.yul\":3495:3552   */\n          or\n            /* \"#utility.yul\":4818:4899   */\n          dup6\n          sstore\n            /* \"#utility.yul\":3965:4909   */\n          jump(tag_65)\n            /* \"#utility.yul\":3995:4658   */\n        tag_73:\n            /* \"#utility.yul\":2789:2790   */\n          0x00\n            /* \"#utility.yul\":2782:2796   */\n          dup6\n          dup2\n          mstore\n            /* \"#utility.yul\":2826:2830   */\n          0x20\n            /* \"#utility.yul\":2813:2831   */\n          dup2\n          keccak256\n          not(0x1f)\n            /* \"#utility.yul\":4031:4051   */\n          dup7\n          and\n          swap2\n            /* \"#utility.yul\":4149:4385   */\n        tag_77:\n            /* \"#utility.yul\":4163:4170   */\n          dup3\n            /* \"#utility.yul\":4160:4161   */\n          dup2\n            /* \"#utility.yul\":4157:4171   */\n          lt\n            /* \"#utility.yul\":4149:4385   */\n          iszero\n          tag_79\n          jumpi\n            /* \"#utility.yul\":4252:4271   */\n          dup9\n          dup7\n          add\n            /* \"#utility.yul\":4246:4272   */\n          mload\n            /* \"#utility.yul\":4231:4273   */\n          dup3\n          sstore\n            /* \"#utility.yul\":4344:4371   */\n          swap5\n          dup5\n          add\n          swap5\n            /* \"#utility.yul\":4312:4313   */\n          0x01\n            /* \"#utility.yul\":4300:4314   */\n          swap1\n          swap2\n          add\n          swap1\n            /* \"#utility.yul\":4179:4198   */\n          dup5\n          add\n            /* \"#utility.yul\":4149:4385   */\n          jump(tag_77)\n        tag_79:\n            /* \"#utility.yul\":4153:4156   */\n          pop\n            /* \"#utility.yul\":4413:4419   */\n          dup6\n            /* \"#utility.yul\":4404:4411   */\n          dup3\n            /* \"#utility.yul\":4401:4420   */\n          lt\n            /* \"#utility.yul\":4398:4599   */\n          iszero\n          tag_80\n          jumpi\n            /* \"#utility.yul\":4474:4493   */\n          dup8\n          dup6\n          add\n            /* \"#utility.yul\":4468:4494   */\n          mload\n          not(0x00)\n            /* \"#utility.yul\":4557:4558   */\n          0x03\n            /* \"#utility.yul\":4553:4567   */\n          dup9\n          swap1\n          shl\n            /* \"#utility.yul\":4569:4572   */\n          0xf8\n            /* \"#utility.yul\":4549:4573   */\n          and\n            /* \"#utility.yul\":4545:4582   */\n          shr\n            /* \"#utility.yul\":4541:4583   */\n          not\n            /* \"#utility.yul\":4526:4584   */\n          and\n            /* \"#utility.yul\":4511:4585   */\n          dup2\n          sstore\n            /* \"#utility.yul\":4398:4599   */\n        tag_80:\n          pop\n          pop\n          pop\n          pop\n          pop\n            /* \"#utility.yul\":4645:4646   */\n          0x01\n            /* \"#utility.yul\":4629:4643   */\n          swap1\n          dup2\n          shl\n            /* \"#utility.yul\":4625:4647   */\n          add\n            /* \"#utility.yul\":4612:4648   */\n          swap1\n          sstore\n          pop\n            /* \"#utility.yul\":3563:4915   */\n          jump\t// out\n            /* \"#utility.yul\":5128:5393   */\n        tag_21:\n            /* \"#utility.yul\":5201:5210   */\n          dup1\n          dup3\n          mul\n            /* \"#utility.yul\":5232:5241   */\n          dup2\n          iszero\n            /* \"#utility.yul\":5249:5264   */\n          dup3\n          dup3\n          div\n            /* \"#utility.yul\":5243:5265   */\n          dup5\n          eq\n            /* \"#utility.yul\":5229:5266   */\n          or\n            /* \"#utility.yul\":5219:5387   */\n          tag_83\n          jumpi\n            /* \"#utility.yul\":5309:5319   */\n          0x4e487b71\n            /* \"#utility.yul\":5304:5307   */\n          0xe0\n            /* \"#utility.yul\":5300:5320   */\n          shl\n            /* \"#utility.yul\":5297:5298   */\n          0x00\n            /* \"#utility.yul\":5290:5321   */\n          mstore\n            /* \"#utility.yul\":5344:5348   */\n          0x11\n            /* \"#utility.yul\":5341:5342   */\n          0x04\n            /* \"#utility.yul\":5334:5349   */\n          mstore\n            /* \"#utility.yul\":5372:5376   */\n          0x24\n            /* \"#utility.yul\":5369:5370   */\n          0x00\n            /* \"#utility.yul\":5362:5377   */\n          revert\n            /* \"#utility.yul\":5219:5387   */\n        tag_83:\n            /* \"#utility.yul\":5128:5393   */\n          swap3\n          swap2\n          pop\n          pop\n          jump\t// out\n        tag_32:\n            /* \"contracts/BondingCurveFactory.sol\":806:8379  contract BondingCurveToken is ERC20, Ownable(msg.sender), ReentrancyGuard {... */\n          mload(0x80)\n          mload(0xa0)\n          mload(0xc0)\n          mload(0xe0)\n          mload(0x0100)\n          mload(0x0120)\n          codecopy(0x00, dataOffset(sub_0), dataSize(sub_0))\n          0x00\n          assignImmutable(\"0x90a0a53a674dda23f50c6d7df8f61e9f3e3cf11a0ea21d6964915bb3c7f9b219\")\n          0x00\n          assignImmutable(\"0x314caa74d689fb8abaa4a993a6d5bfb9701a5a31978bc1a4a8e3c6b22209531d\")\n          0x00\n          assignImmutable(\"0x6be84febb8d838b29663c2973fc033c21db97bc9be43c128ccb91ac1f7226079\")\n          0x00\n          assignImmutable(\"0x5bc1dd13924f7c973fe60f5fa021f1a633d50b6a82936341352d4f6257fc3636\")\n          0x00\n          assignImmutable(\"0x046caf3ab6404de56b68b7d05a5b6a84a925ff8870a955c7197e992541e00d84\")\n          0x00\n          assignImmutable(\"0x5c73a0fc8d21f7dd9698abc5720dffc2fb144001f2de49b6526573c7ff1fd331\")\n          return(0x00, dataSize(sub_0))\n        stop\n\n        sub_0: assembly {\n                /* \"contracts/BondingCurveFactory.sol\":806:8379  contract BondingCurveToken is ERC20, Ownable(msg.sender), ReentrancyGuard {... */\n              mstore(0x40, 0x80)\n              jumpi(tag_1, lt(calldatasize, 0x04))\n              shr(0xe0, calldataload(0x00))\n              dup1\n              0x71a18bfb\n              gt\n              tag_33\n              jumpi\n              dup1\n              0xbef28f91\n              gt\n              tag_34\n              jumpi\n              dup1\n              0xe7c2b772\n              gt\n              tag_35\n              jumpi\n              dup1\n              0xe7c2b772\n              eq\n              tag_29\n              jumpi\n              dup1\n              0xee74daef\n              eq\n              tag_30\n              jumpi\n              dup1\n              0xf2fde38b\n              eq\n              tag_31\n              jumpi\n              dup1\n              0xf4325d67\n              eq\n              tag_32\n              jumpi\n              0x00\n              dup1\n              revert\n            tag_35:\n              dup1\n              0xbef28f91\n              eq\n              tag_25\n              jumpi\n              dup1\n              0xd96a094a\n              eq\n              tag_26\n              jumpi\n              dup1\n              0xdd62ed3e\n              eq\n              tag_27\n              jumpi\n              dup1\n              0xe4849b32\n              eq\n              tag_28\n              jumpi\n              0x00\n              dup1\n              revert\n            tag_34:\n              dup1\n              0x8da5cb5b\n              gt\n              tag_36\n              jumpi\n              dup1\n              0x8da5cb5b\n              eq\n              tag_21\n              jumpi\n              dup1\n              0x95d89b41\n              eq\n              tag_22\n              jumpi\n              dup1\n              0xa9059cbb\n              eq\n              tag_23\n              jumpi\n              dup1\n              0xb4f40c61\n              eq\n              tag_24\n              jumpi\n              0x00\n              dup1\n              revert\n            tag_36:\n              dup1\n              0x71a18bfb\n              eq\n              tag_18\n              jumpi\n              dup1\n              0x7ed3d924\n              eq\n              tag_19\n              jumpi\n              dup1\n              0x897802dc\n              eq\n              tag_20\n              jumpi\n              0x00\n              dup1\n              revert\n            tag_33:\n              dup1\n              0x313ce567\n              gt\n              tag_37\n              jumpi\n              dup1\n              0x57e2dd0c\n              gt\n              tag_38\n              jumpi\n              dup1\n              0x57e2dd0c\n              eq\n              tag_14\n              jumpi\n              dup1\n              0x5e4194dd\n              eq\n              tag_15\n              jumpi\n              dup1\n              0x70a08231\n              eq\n              tag_16\n              jumpi\n              dup1\n              0x715018a6\n              eq\n              tag_17\n              jumpi\n              0x00\n              dup1\n              revert\n            tag_38:\n              dup1\n              0x313ce567\n              eq\n              tag_10\n              jumpi\n              dup1\n              0x31f4ffc0\n              eq\n              tag_11\n              jumpi\n              dup1\n              0x343ee3b7\n              eq\n              tag_12\n              jumpi\n              dup1\n              0x52f5b3ef\n              eq\n              tag_13\n              jumpi\n              0x00\n              dup1\n              revert\n            tag_37:\n              dup1\n              0x18160ddd\n              gt\n              tag_39\n              jumpi\n              dup1\n              0x18160ddd\n              eq\n              tag_6\n              jumpi\n              dup1\n              0x1c58ce14\n              eq\n              tag_7\n              jumpi\n              dup1\n              0x21557e34\n              eq\n              tag_8\n              jumpi\n              dup1\n              0x23b872dd\n              eq\n              tag_9\n              jumpi\n              0x00\n              dup1\n              revert\n            tag_39:\n              dup1\n              0x06fdde03\n              eq\n              tag_3\n              jumpi\n              dup1\n              0x092bc24e\n              eq\n              tag_4\n              jumpi\n              dup1\n              0x095ea7b3\n              eq\n              tag_5\n              jumpi\n              0x00\n              dup1\n              revert\n            tag_1:\n              jumpi(tag_2, calldatasize)\n              stop\n            tag_2:\n              0x00\n              dup1\n              revert\n                /* \"@openzeppelin/contracts/token/ERC20/ERC20.sol\":1760:1849  function name() public view virtual returns (string memory) {... */\n            tag_3:\n              callvalue\n              dup1\n              iszero\n              tag_42\n              jumpi\n              0x00\n              dup1\n              revert\n            tag_42:\n              pop\n              tag_43\n              tag_44\n              jump\t// in\n            tag_43:\n              mload(0x40)\n              tag_45\n              swap2\n              swap1\n              tag_46\n              jump\t// in\n            tag_45:\n              mload(0x40)\n              dup1\n              swap2\n              sub\n              swap1\n              return\n                /* \"contracts/BondingCurveFactory.sol\":1247:1278  uint256 public connectorBalance */\n            tag_4:\n              callvalue\n              dup1\n              iszero\n              tag_47\n              jumpi\n              0x00\n              dup1\n              revert\n            tag_47:\n              pop\n              tag_48\n              sload(0x0a)\n              dup2\n              jump\n            tag_48:\n              mload(0x40)\n                /* \"#utility.yul\":713:738   */\n              swap1\n              dup2\n              mstore\n                /* \"#utility.yul\":701:703   */\n              0x20\n                /* \"#utility.yul\":686:704   */\n              add\n                /* \"contracts/BondingCurveFactory.sol\":1247:1278  uint256 public connectorBalance */\n              tag_45\n                /* \"#utility.yul\":567:744   */\n              jump\n                /* \"@openzeppelin/contracts/token/ERC20/ERC20.sol\":3902:4088  function approve(address spender, uint256 value) public virtual returns (bool) {... */\n            tag_5:\n              callvalue\n              dup1\n              iszero\n              tag_52\n              jumpi\n              0x00\n              dup1\n              revert\n            tag_52:\n              pop\n              tag_53\n              tag_54\n              calldatasize\n              0x04\n              tag_55\n              jump\t// in\n            tag_54:\n              tag_56\n              jump\t// in\n            tag_53:\n              mload(0x40)\n                /* \"#utility.yul\":1370:1384   */\n              swap1\n              iszero\n                /* \"#utility.yul\":1363:1385   */\n              iszero\n                /* \"#utility.yul\":1345:1386   */\n              dup2\n              mstore\n                /* \"#utility.yul\":1333:1335   */\n              0x20\n                /* \"#utility.yul\":1318:1336   */\n              add\n                /* \"@openzeppelin/contracts/token/ERC20/ERC20.sol\":3902:4088  function approve(address spender, uint256 value) public virtual returns (bool) {... */\n              tag_45\n                /* \"#utility.yul\":1205:1392   */\n              jump\n                /* \"@openzeppelin/contracts/token/ERC20/ERC20.sol\":2803:2900  function totalSupply() public view virtual returns (uint256) {... */\n            tag_6:\n              callvalue\n              dup1\n              iszero\n              tag_59\n              jumpi\n              0x00\n              dup1\n              revert\n            tag_59:\n              pop\n                /* \"@openzeppelin/contracts/token/ERC20/ERC20.sol\":2881:2893  _totalSupply */\n              sload(0x02)\n                /* \"@openzeppelin/contracts/token/ERC20/ERC20.sol\":2803:2900  function totalSupply() public view virtual returns (uint256) {... */\n              jump(tag_48)\n                /* \"contracts/BondingCurveFactory.sol\":7854:8094  function withdrawReserve(address to, uint256 amount) external onlyOwner {... */\n            tag_7:\n              callvalue\n              dup1\n              iszero\n              tag_63\n              jumpi\n              0x00\n              dup1\n              revert\n            tag_63:\n              pop\n              tag_64\n              tag_65\n              calldatasize\n              0x04\n              tag_55\n              jump\t// in\n            tag_65:\n              tag_66\n              jump\t// in\n            tag_64:\n              stop\n                /* \"contracts/BondingCurveFactory.sol\":1006:1040  uint256 public virtualReserveAsset */\n            tag_8:\n              callvalue\n              dup1\n              iszero\n              tag_67\n              jumpi\n              0x00\n              dup1\n              revert\n            tag_67:\n              pop\n              tag_48\n              sload(0x08)\n              dup2\n              jump\n                /* \"@openzeppelin/contracts/token/ERC20/ERC20.sol\":4680:4924  function transferFrom(address from, address to, uint256 value) public virtual returns (bool) {... */\n            tag_9:\n              callvalue\n              dup1\n              iszero\n              tag_71\n              jumpi\n              0x00\n              dup1\n              revert\n            tag_71:\n              pop\n              tag_53\n              tag_73\n              calldatasize\n              0x04\n              tag_74\n              jump\t// in\n            tag_73:\n              tag_75\n              jump\t// in\n                /* \"@openzeppelin/contracts/token/ERC20/ERC20.sol\":2688:2770  function decimals() public view virtual returns (uint8) {... */\n            tag_10:\n              callvalue\n              dup1\n              iszero\n              tag_77\n              jumpi\n              0x00\n              dup1\n              revert\n            tag_77:\n              pop\n              mload(0x40)\n                /* \"@openzeppelin/contracts/token/ERC20/ERC20.sol\":2761:2763  18 */\n              0x12\n                /* \"#utility.yul\":2000:2036   */\n              dup2\n              mstore\n                /* \"#utility.yul\":1988:1990   */\n              0x20\n                /* \"#utility.yul\":1973:1991   */\n              add\n                /* \"@openzeppelin/contracts/token/ERC20/ERC20.sol\":2688:2770  function decimals() public view virtual returns (uint8) {... */\n              tag_45\n                /* \"#utility.yul\":1858:2042   */\n              jump\n                /* \"contracts/BondingCurveFactory.sol\":1199:1240  uint256 public remainingRealTokenReserves */\n            tag_11:\n              callvalue\n              dup1\n              iszero\n              tag_82\n              jumpi\n              0x00\n              dup1\n              revert\n            tag_82:\n              pop\n              tag_48\n              sload(0x09)\n              dup2\n              jump\n                /* \"contracts/BondingCurveFactory.sol\":965:999  uint256 public virtualTokenReserve */\n            tag_12:\n              callvalue\n              dup1\n              iszero\n              tag_86\n              jumpi\n              0x00\n              dup1\n              revert\n            tag_86:\n              pop\n              tag_48\n              sload(0x07)\n              dup2\n              jump\n                /* \"contracts/BondingCurveFactory.sol\":7713:7846  function setGraduationThreshold(uint256 newThreshold) external onlyOwner {... */\n            tag_13:\n              callvalue\n              dup1\n              iszero\n              tag_90\n              jumpi\n              0x00\n              dup1\n              revert\n            tag_90:\n              pop\n              tag_64\n              tag_92\n              calldatasize\n              0x04\n              tag_93\n              jump\t// in\n            tag_92:\n              tag_94\n              jump\t// in\n                /* \"contracts/BondingCurveFactory.sol\":1285:1326  uint256 public graduationReserveThreshold */\n            tag_14:\n              callvalue\n              dup1\n              iszero\n              tag_95\n              jumpi\n              0x00\n              dup1\n              revert\n            tag_95:\n              pop\n              tag_48\n              sload(0x0b)\n              dup2\n              jump\n                /* \"contracts/BondingCurveFactory.sol\":1047:1098  uint256 public immutable initialVirtualTokenReserve */\n            tag_15:\n              callvalue\n              dup1\n              iszero\n              tag_99\n              jumpi\n              0x00\n              dup1\n              revert\n            tag_99:\n              pop\n              tag_48\n              immutable(\"0x046caf3ab6404de56b68b7d05a5b6a84a925ff8870a955c7197e992541e00d84\")\n              dup2\n              jump\n                /* \"@openzeppelin/contracts/token/ERC20/ERC20.sol\":2933:3049  function balanceOf(address account) public view virtual returns (uint256) {... */\n            tag_16:\n              callvalue\n              dup1\n              iszero\n              tag_103\n              jumpi\n              0x00\n              dup1\n              revert\n            tag_103:\n              pop\n              tag_48\n              tag_105\n              calldatasize\n              0x04\n              tag_106\n              jump\t// in\n            tag_105:\n              sub(shl(0xa0, 0x01), 0x01)\n                /* \"@openzeppelin/contracts/token/ERC20/ERC20.sol\":3024:3042  _balances[account] */\n              and\n                /* \"@openzeppelin/contracts/token/ERC20/ERC20.sol\":2998:3005  uint256 */\n              0x00\n                /* \"@openzeppelin/contracts/token/ERC20/ERC20.sol\":3024:3042  _balances[account] */\n              swap1\n              dup2\n              mstore\n              0x20\n              dup2\n              swap1\n              mstore\n              0x40\n              swap1\n              keccak256\n              sload\n              swap1\n                /* \"@openzeppelin/contracts/token/ERC20/ERC20.sol\":2933:3049  function balanceOf(address account) public view virtual returns (uint256) {... */\n              jump\n                /* \"@openzeppelin/contracts/access/Ownable.sol\":2293:2394  function renounceOwnership() public virtual onlyOwner {... */\n            tag_17:\n              callvalue\n              dup1\n              iszero\n              tag_109\n              jumpi\n              0x00\n              dup1\n              revert\n            tag_109:\n              pop\n              tag_64\n              tag_111\n              jump\t// in\n                /* \"contracts/BondingCurveFactory.sol\":8102:8339  function emergencyDrain(address to) external onlyOwner {... */\n            tag_18:\n              callvalue\n              dup1\n              iszero\n              tag_112\n              jumpi\n              0x00\n              dup1\n              revert\n            tag_112:\n              pop\n              tag_64\n              tag_114\n              calldatasize\n              0x04\n              tag_106\n              jump\t// in\n            tag_114:\n              tag_115\n              jump\t// in\n                /* \"contracts/BondingCurveFactory.sol\":1361:1410  IYunaSwapRouter02 public immutable yunaswapRouter */\n            tag_19:\n              callvalue\n              dup1\n              iszero\n              tag_116\n              jumpi\n              0x00\n              dup1\n              revert\n            tag_116:\n              pop\n              tag_117\n              immutable(\"0x314caa74d689fb8abaa4a993a6d5bfb9701a5a31978bc1a4a8e3c6b22209531d\")\n              dup2\n              jump\n            tag_117:\n              mload(0x40)\n              sub(shl(0xa0, 0x01), 0x01)\n                /* \"#utility.yul\":2674:2706   */\n              swap1\n              swap2\n              and\n                /* \"#utility.yul\":2656:2707   */\n              dup2\n              mstore\n                /* \"#utility.yul\":2644:2646   */\n              0x20\n                /* \"#utility.yul\":2629:2647   */\n              add\n                /* \"contracts/BondingCurveFactory.sol\":1361:1410  IYunaSwapRouter02 public immutable yunaswapRouter */\n              tag_45\n                /* \"#utility.yul\":2484:2713   */\n              jump\n                /* \"contracts/BondingCurveFactory.sol\":2901:3112  function bondingCurveProgress() external view returns (uint256) {... */\n            tag_20:\n              callvalue\n              dup1\n              iszero\n              tag_121\n              jumpi\n              0x00\n              dup1\n              revert\n            tag_121:\n              pop\n              tag_48\n              tag_123\n              jump\t// in\n                /* \"@openzeppelin/contracts/access/Ownable.sol\":1638:1723  function owner() public view virtual returns (address) {... */\n            tag_21:\n              callvalue\n              dup1\n              iszero\n              tag_125\n              jumpi\n              0x00\n              dup1\n              revert\n            tag_125:\n              pop\n                /* \"@openzeppelin/contracts/access/Ownable.sol\":1710:1716  _owner */\n              and(sub(shl(0xa0, 0x01), 0x01), sload(0x05))\n                /* \"@openzeppelin/contracts/access/Ownable.sol\":1638:1723  function owner() public view virtual returns (address) {... */\n              jump(tag_117)\n                /* \"@openzeppelin/contracts/token/ERC20/ERC20.sol\":1962:2055  function symbol() public view virtual returns (string memory) {... */\n            tag_22:\n              callvalue\n              dup1\n              iszero\n              tag_130\n              jumpi\n              0x00\n              dup1\n              revert\n            tag_130:\n              pop\n              tag_43\n              tag_132\n              jump\t// in\n                /* \"@openzeppelin/contracts/token/ERC20/ERC20.sol\":3244:3422  function transfer(address to, uint256 value) public virtual returns (bool) {... */\n            tag_23:\n              callvalue\n              dup1\n              iszero\n              tag_134\n              jumpi\n              0x00\n              dup1\n              revert\n            tag_134:\n              pop\n              tag_53\n              tag_136\n              calldatasize\n              0x04\n              tag_55\n              jump\t// in\n            tag_136:\n              tag_137\n              jump\t// in\n                /* \"contracts/BondingCurveFactory.sol\":1166:1192  uint256 public immutable k */\n            tag_24:\n              callvalue\n              dup1\n              iszero\n              tag_139\n              jumpi\n              0x00\n              dup1\n              revert\n            tag_139:\n              pop\n              tag_48\n              immutable(\"0x6be84febb8d838b29663c2973fc033c21db97bc9be43c128ccb91ac1f7226079\")\n              dup2\n              jump\n                /* \"contracts/BondingCurveFactory.sol\":1417:1466  IYunaSwapFactory public immutable yunaswapFactory */\n            tag_25:\n              callvalue\n              dup1\n              iszero\n              tag_143\n              jumpi\n              0x00\n              dup1\n              revert\n            tag_143:\n              pop\n              tag_117\n              immutable(\"0x90a0a53a674dda23f50c6d7df8f61e9f3e3cf11a0ea21d6964915bb3c7f9b219\")\n              dup2\n              jump\n                /* \"contracts/BondingCurveFactory.sol\":3118:4902  function buy(uint256 amountIn) external nonReentrant returns (uint256) {... */\n            tag_26:\n              callvalue\n              dup1\n              iszero\n              tag_148\n              jumpi\n              0x00\n              dup1\n              revert\n            tag_148:\n              pop\n              tag_48\n              tag_150\n              calldatasize\n              0x04\n              tag_93\n              jump\t// in\n            tag_150:\n              tag_151\n              jump\t// in\n                /* \"@openzeppelin/contracts/token/ERC20/ERC20.sol\":3455:3595  function allowance(address owner, address spender) public view virtual returns (uint256) {... */\n            tag_27:\n              callvalue\n              dup1\n              iszero\n              tag_153\n              jumpi\n              0x00\n              dup1\n              revert\n            tag_153:\n              pop\n              tag_48\n              tag_155\n              calldatasize\n              0x04\n              tag_156\n              jump\t// in\n            tag_155:\n              sub(shl(0xa0, 0x01), 0x01)\n                /* \"@openzeppelin/contracts/token/ERC20/ERC20.sol\":3561:3579  _allowances[owner] */\n              swap2\n              dup3\n              and\n                /* \"@openzeppelin/contracts/token/ERC20/ERC20.sol\":3535:3542  uint256 */\n              0x00\n                /* \"@openzeppelin/contracts/token/ERC20/ERC20.sol\":3561:3579  _allowances[owner] */\n              swap1\n              dup2\n              mstore\n                /* \"@openzeppelin/contracts/token/ERC20/ERC20.sol\":3561:3572  _allowances */\n              0x01\n                /* \"@openzeppelin/contracts/token/ERC20/ERC20.sol\":3561:3579  _allowances[owner] */\n              0x20\n              swap1\n              dup2\n              mstore\n              0x40\n              dup1\n              dup4\n              keccak256\n                /* \"@openzeppelin/contracts/token/ERC20/ERC20.sol\":3561:3588  _allowances[owner][spender] */\n              swap4\n              swap1\n              swap5\n              and\n              dup3\n              mstore\n              swap2\n              swap1\n              swap2\n              mstore\n              keccak256\n              sload\n              swap1\n                /* \"@openzeppelin/contracts/token/ERC20/ERC20.sol\":3455:3595  function allowance(address owner, address spender) public view virtual returns (uint256) {... */\n              jump\n                /* \"contracts/BondingCurveFactory.sol\":4912:5867  function sell(uint256 tokenAmount) external nonReentrant returns (uint256) {... */\n            tag_28:\n              callvalue\n              dup1\n              iszero\n              tag_159\n              jumpi\n              0x00\n              dup1\n              revert\n            tag_159:\n              pop\n              tag_48\n              tag_161\n              calldatasize\n              0x04\n              tag_93\n              jump\t// in\n            tag_161:\n              tag_162\n              jump\t// in\n                /* \"contracts/BondingCurveFactory.sol\":1333:1354  bool public graduated */\n            tag_29:\n              callvalue\n              dup1\n              iszero\n              tag_164\n              jumpi\n              0x00\n              dup1\n              revert\n            tag_164:\n              pop\n              sload(0x0c)\n              tag_53\n              swap1\n              0xff\n              and\n              dup2\n              jump\n                /* \"contracts/BondingCurveFactory.sol\":1105:1159  uint256 public immutable initialRealTokenReservesStart */\n            tag_30:\n              callvalue\n              dup1\n              iszero\n              tag_168\n              jumpi\n              0x00\n              dup1\n              revert\n            tag_168:\n              pop\n              tag_48\n              immutable(\"0x5bc1dd13924f7c973fe60f5fa021f1a633d50b6a82936341352d4f6257fc3636\")\n              dup2\n              jump\n                /* \"@openzeppelin/contracts/access/Ownable.sol\":2543:2758  function transferOwnership(address newOwner) public virtual onlyOwner {... */\n            tag_31:\n              callvalue\n              dup1\n              iszero\n              tag_172\n              jumpi\n              0x00\n              dup1\n              revert\n            tag_172:\n              pop\n              tag_64\n              tag_174\n              calldatasize\n              0x04\n              tag_106\n              jump\t// in\n            tag_174:\n              tag_175\n              jump\t// in\n                /* \"contracts/BondingCurveFactory.sol\":922:958  IERC20 public immutable reserveToken */\n            tag_32:\n              callvalue\n              dup1\n              iszero\n              tag_176\n              jumpi\n              0x00\n              dup1\n              revert\n            tag_176:\n              pop\n              tag_117\n              immutable(\"0x5c73a0fc8d21f7dd9698abc5720dffc2fb144001f2de49b6526573c7ff1fd331\")\n              dup2\n              jump\n                /* \"@openzeppelin/contracts/token/ERC20/ERC20.sol\":1760:1849  function name() public view virtual returns (string memory) {... */\n            tag_44:\n                /* \"@openzeppelin/contracts/token/ERC20/ERC20.sol\":1805:1818  string memory */\n              0x60\n                /* \"@openzeppelin/contracts/token/ERC20/ERC20.sol\":1837:1842  _name */\n              0x03\n                /* \"@openzeppelin/contracts/token/ERC20/ERC20.sol\":1830:1842  return _name */\n              dup1\n              sload\n              tag_182\n              swap1\n              tag_183\n              jump\t// in\n            tag_182:\n              dup1\n              0x1f\n              add\n              0x20\n              dup1\n              swap2\n              div\n              mul\n              0x20\n              add\n              mload(0x40)\n              swap1\n              dup2\n              add\n              0x40\n              mstore\n              dup1\n              swap3\n              swap2\n              swap1\n              dup2\n              dup2\n              mstore\n              0x20\n              add\n              dup3\n              dup1\n              sload\n              tag_184\n              swap1\n              tag_183\n              jump\t// in\n            tag_184:\n              dup1\n              iszero\n              tag_185\n              jumpi\n              dup1\n              0x1f\n              lt\n              tag_186\n              jumpi\n              0x0100\n              dup1\n              dup4\n              sload\n              div\n              mul\n              dup4\n              mstore\n              swap2\n              0x20\n              add\n              swap2\n              jump(tag_185)\n            tag_186:\n              dup3\n              add\n              swap2\n              swap1\n              0x00\n              mstore\n              keccak256(0x00, 0x20)\n              swap1\n            tag_187:\n              dup2\n              sload\n              dup2\n              mstore\n              swap1\n              0x01\n              add\n              swap1\n              0x20\n              add\n              dup1\n              dup4\n              gt\n              tag_187\n              jumpi\n              dup3\n              swap1\n              sub\n              0x1f\n              and\n              dup3\n              add\n              swap2\n            tag_185:\n              pop\n              pop\n              pop\n              pop\n              pop\n              swap1\n              pop\n                /* \"@openzeppelin/contracts/token/ERC20/ERC20.sol\":1760:1849  function name() public view virtual returns (string memory) {... */\n              swap1\n              jump\t// out\n                /* \"@openzeppelin/contracts/token/ERC20/ERC20.sol\":3902:4088  function approve(address spender, uint256 value) public virtual returns (bool) {... */\n            tag_56:\n                /* \"@openzeppelin/contracts/token/ERC20/ERC20.sol\":3975:3979  bool */\n              0x00\n                /* \"@openzeppelin/contracts/utils/Context.sol\":735:745  msg.sender */\n              caller\n                /* \"@openzeppelin/contracts/token/ERC20/ERC20.sol\":4029:4060  _approve(owner, spender, value) */\n              tag_191\n                /* \"@openzeppelin/contracts/utils/Context.sol\":735:745  msg.sender */\n              dup2\n                /* \"@openzeppelin/contracts/token/ERC20/ERC20.sol\":4045:4052  spender */\n              dup6\n                /* \"@openzeppelin/contracts/token/ERC20/ERC20.sol\":4054:4059  value */\n              dup6\n                /* \"@openzeppelin/contracts/token/ERC20/ERC20.sol\":4029:4037  _approve */\n              tag_192\n                /* \"@openzeppelin/contracts/token/ERC20/ERC20.sol\":4029:4060  _approve(owner, spender, value) */\n              jump\t// in\n            tag_191:\n                /* \"@openzeppelin/contracts/token/ERC20/ERC20.sol\":4077:4081  true */\n              0x01\n                /* \"@openzeppelin/contracts/token/ERC20/ERC20.sol\":4070:4081  return true */\n              swap2\n              pop\n              pop\n                /* \"@openzeppelin/contracts/token/ERC20/ERC20.sol\":3902:4088  function approve(address spender, uint256 value) public virtual returns (bool) {... */\n            tag_188:\n              swap3\n              swap2\n              pop\n              pop\n              jump\t// out\n                /* \"contracts/BondingCurveFactory.sol\":7854:8094  function withdrawReserve(address to, uint256 amount) external onlyOwner {... */\n            tag_66:\n                /* \"@openzeppelin/contracts/access/Ownable.sol\":1531:1544  _checkOwner() */\n              tag_195\n                /* \"@openzeppelin/contracts/access/Ownable.sol\":1531:1542  _checkOwner */\n              tag_196\n                /* \"@openzeppelin/contracts/access/Ownable.sol\":1531:1544  _checkOwner() */\n              jump\t// in\n            tag_195:\n                /* \"contracts/BondingCurveFactory.sol\":7945:7954  graduated */\n              and(0xff, sload(0x0c))\n                /* \"contracts/BondingCurveFactory.sol\":7937:7955  require(graduated) */\n              tag_198\n              jumpi\n              0x00\n              dup1\n              revert\n            tag_198:\n                /* \"contracts/BondingCurveFactory.sol\":7984:8000  connectorBalance */\n              sload(0x0a)\n                /* \"contracts/BondingCurveFactory.sol\":7974:7980  amount */\n              dup2\n                /* \"contracts/BondingCurveFactory.sol\":7974:8000  amount <= connectorBalance */\n              gt\n              iszero\n                /* \"contracts/BondingCurveFactory.sol\":7966:8001  require(amount <= connectorBalance) */\n              tag_199\n              jumpi\n              0x00\n              dup1\n              revert\n            tag_199:\n                /* \"contracts/BondingCurveFactory.sol\":8032:8038  amount */\n              dup1\n                /* \"contracts/BondingCurveFactory.sol\":8012:8028  connectorBalance */\n              0x0a\n              0x00\n                /* \"contracts/BondingCurveFactory.sol\":8012:8038  connectorBalance -= amount */\n              dup3\n              dup3\n              sload\n              tag_200\n              swap2\n              swap1\n              tag_201\n              jump\t// in\n            tag_200:\n              swap1\n              swap2\n              sstore\n              pop\n                /* \"contracts/BondingCurveFactory.sol\":8049:8086  reserveToken.safeTransfer(to, amount) */\n              tag_202\n              swap1\n              pop\n              sub(shl(0xa0, 0x01), 0x01)\n                /* \"contracts/BondingCurveFactory.sol\":8049:8061  reserveToken */\n              immutable(\"0x5c73a0fc8d21f7dd9698abc5720dffc2fb144001f2de49b6526573c7ff1fd331\")\n                /* \"contracts/BondingCurveFactory.sol\":8049:8074  reserveToken.safeTransfer */\n              and\n                /* \"contracts/BondingCurveFactory.sol\":8075:8077  to */\n              dup4\n                /* \"contracts/BondingCurveFactory.sol\":8079:8085  amount */\n              dup4\n                /* \"contracts/BondingCurveFactory.sol\":8049:8074  reserveToken.safeTransfer */\n              tag_203\n                /* \"contracts/BondingCurveFactory.sol\":8049:8086  reserveToken.safeTransfer(to, amount) */\n              jump\t// in\n            tag_202:\n                /* \"contracts/BondingCurveFactory.sol\":7854:8094  function withdrawReserve(address to, uint256 amount) external onlyOwner {... */\n              pop\n              pop\n              jump\t// out\n                /* \"@openzeppelin/contracts/token/ERC20/ERC20.sol\":4680:4924  function transferFrom(address from, address to, uint256 value) public virtual returns (bool) {... */\n            tag_75:\n                /* \"@openzeppelin/contracts/token/ERC20/ERC20.sol\":4767:4771  bool */\n              0x00\n                /* \"@openzeppelin/contracts/utils/Context.sol\":735:745  msg.sender */\n              caller\n                /* \"@openzeppelin/contracts/token/ERC20/ERC20.sol\":4823:4860  _spendAllowance(from, spender, value) */\n              tag_206\n                /* \"@openzeppelin/contracts/token/ERC20/ERC20.sol\":4839:4843  from */\n              dup6\n                /* \"@openzeppelin/contracts/utils/Context.sol\":735:745  msg.sender */\n              dup3\n                /* \"@openzeppelin/contracts/token/ERC20/ERC20.sol\":4854:4859  value */\n              dup6\n                /* \"@openzeppelin/contracts/token/ERC20/ERC20.sol\":4823:4838  _spendAllowance */\n              tag_207\n                /* \"@openzeppelin/contracts/token/ERC20/ERC20.sol\":4823:4860  _spendAllowance(from, spender, value) */\n              jump\t// in\n            tag_206:\n                /* \"@openzeppelin/contracts/token/ERC20/ERC20.sol\":4870:4896  _transfer(from, to, value) */\n              tag_208\n                /* \"@openzeppelin/contracts/token/ERC20/ERC20.sol\":4880:4884  from */\n              dup6\n                /* \"@openzeppelin/contracts/token/ERC20/ERC20.sol\":4886:4888  to */\n              dup6\n                /* \"@openzeppelin/contracts/token/ERC20/ERC20.sol\":4890:4895  value */\n              dup6\n                /* \"@openzeppelin/contracts/token/ERC20/ERC20.sol\":4870:4879  _transfer */\n              tag_209\n                /* \"@openzeppelin/contracts/token/ERC20/ERC20.sol\":4870:4896  _transfer(from, to, value) */\n              jump\t// in\n            tag_208:\n              pop\n                /* \"@openzeppelin/contracts/token/ERC20/ERC20.sol\":4913:4917  true */\n              0x01\n              swap5\n                /* \"@openzeppelin/contracts/token/ERC20/ERC20.sol\":4680:4924  function transferFrom(address from, address to, uint256 value) public virtual returns (bool) {... */\n              swap4\n              pop\n              pop\n              pop\n              pop\n              jump\t// out\n                /* \"contracts/BondingCurveFactory.sol\":7713:7846  function setGraduationThreshold(uint256 newThreshold) external onlyOwner {... */\n            tag_94:\n                /* \"@openzeppelin/contracts/access/Ownable.sol\":1531:1544  _checkOwner() */\n              tag_212\n                /* \"@openzeppelin/contracts/access/Ownable.sol\":1531:1542  _checkOwner */\n              tag_196\n                /* \"@openzeppelin/contracts/access/Ownable.sol\":1531:1544  _checkOwner() */\n              jump\t// in\n            tag_212:\n                /* \"contracts/BondingCurveFactory.sol\":7797:7823  graduationReserveThreshold */\n              0x0b\n                /* \"contracts/BondingCurveFactory.sol\":7797:7838  graduationReserveThreshold = newThreshold */\n              sstore\n                /* \"contracts/BondingCurveFactory.sol\":7713:7846  function setGraduationThreshold(uint256 newThreshold) external onlyOwner {... */\n              jump\t// out\n                /* \"@openzeppelin/contracts/access/Ownable.sol\":2293:2394  function renounceOwnership() public virtual onlyOwner {... */\n            tag_111:\n                /* \"@openzeppelin/contracts/access/Ownable.sol\":1531:1544  _checkOwner() */\n              tag_216\n                /* \"@openzeppelin/contracts/access/Ownable.sol\":1531:1542  _checkOwner */\n              tag_196\n                /* \"@openzeppelin/contracts/access/Ownable.sol\":1531:1544  _checkOwner() */\n              jump\t// in\n            tag_216:\n                /* \"@openzeppelin/contracts/access/Ownable.sol\":2357:2387  _transferOwnership(address(0)) */\n              tag_218\n                /* \"@openzeppelin/contracts/access/Ownable.sol\":2384:2385  0 */\n              0x00\n                /* \"@openzeppelin/contracts/access/Ownable.sol\":2357:2375  _transferOwnership */\n              tag_219\n                /* \"@openzeppelin/contracts/access/Ownable.sol\":2357:2387  _transferOwnership(address(0)) */\n              jump\t// in\n            tag_218:\n                /* \"@openzeppelin/contracts/access/Ownable.sol\":2293:2394  function renounceOwnership() public virtual onlyOwner {... */\n              jump\t// out\n                /* \"contracts/BondingCurveFactory.sol\":8102:8339  function emergencyDrain(address to) external onlyOwner {... */\n            tag_115:\n                /* \"@openzeppelin/contracts/access/Ownable.sol\":1531:1544  _checkOwner() */\n              tag_221\n                /* \"@openzeppelin/contracts/access/Ownable.sol\":1531:1542  _checkOwner */\n              tag_196\n                /* \"@openzeppelin/contracts/access/Ownable.sol\":1531:1544  _checkOwner() */\n              jump\t// in\n            tag_221:\n                /* \"contracts/BondingCurveFactory.sol\":8182:8219  reserveToken.balanceOf(address(this)) */\n              mload(0x40)\n              shl(0xe0, 0x70a08231)\n              dup2\n              mstore\n                /* \"contracts/BondingCurveFactory.sol\":8213:8217  this */\n              address\n                /* \"contracts/BondingCurveFactory.sol\":8182:8219  reserveToken.balanceOf(address(this)) */\n              0x04\n              dup3\n              add\n                /* \"#utility.yul\":2656:2707   */\n              mstore\n                /* \"contracts/BondingCurveFactory.sol\":8168:8179  uint256 bal */\n              0x00\n              swap1\n                /* \"contracts/BondingCurveFactory.sol\":8182:8194  reserveToken */\n              immutable(\"0x5c73a0fc8d21f7dd9698abc5720dffc2fb144001f2de49b6526573c7ff1fd331\")\n              sub(shl(0xa0, 0x01), 0x01)\n                /* \"contracts/BondingCurveFactory.sol\":8182:8204  reserveToken.balanceOf */\n              and\n              swap1\n              0x70a08231\n              swap1\n                /* \"#utility.yul\":2629:2647   */\n              0x24\n              add\n                /* \"contracts/BondingCurveFactory.sol\":8182:8219  reserveToken.balanceOf(address(this)) */\n              0x20\n              mload(0x40)\n              dup1\n              dup4\n              sub\n              dup2\n              dup7\n              gas\n              staticcall\n              iszero\n              dup1\n              iszero\n              tag_225\n              jumpi\n              returndatasize\n              0x00\n              dup1\n              returndatacopy\n              revert(0x00, returndatasize)\n            tag_225:\n              pop\n              pop\n              pop\n              pop\n              mload(0x40)\n              returndatasize\n              not(0x1f)\n              0x1f\n              dup3\n              add\n              and\n              dup3\n              add\n              dup1\n              0x40\n              mstore\n              pop\n              dup2\n              add\n              swap1\n              tag_226\n              swap2\n              swap1\n              tag_227\n              jump\t// in\n            tag_226:\n                /* \"contracts/BondingCurveFactory.sol\":8168:8219  uint256 bal = reserveToken.balanceOf(address(this)) */\n              swap1\n              pop\n                /* \"contracts/BondingCurveFactory.sol\":8230:8264  reserveToken.safeTransfer(to, bal) */\n              tag_228\n              sub(shl(0xa0, 0x01), 0x01)\n                /* \"contracts/BondingCurveFactory.sol\":8230:8242  reserveToken */\n              immutable(\"0x5c73a0fc8d21f7dd9698abc5720dffc2fb144001f2de49b6526573c7ff1fd331\")\n                /* \"contracts/BondingCurveFactory.sol\":8230:8255  reserveToken.safeTransfer */\n              and\n                /* \"contracts/BondingCurveFactory.sol\":8256:8258  to */\n              dup4\n                /* \"contracts/BondingCurveFactory.sol\":8168:8219  uint256 bal = reserveToken.balanceOf(address(this)) */\n              dup4\n                /* \"contracts/BondingCurveFactory.sol\":8230:8255  reserveToken.safeTransfer */\n              tag_203\n                /* \"contracts/BondingCurveFactory.sol\":8230:8264  reserveToken.safeTransfer(to, bal) */\n              jump\t// in\n            tag_228:\n                /* \"contracts/BondingCurveFactory.sol\":8294:8331  reserveToken.balanceOf(address(this)) */\n              mload(0x40)\n              shl(0xe0, 0x70a08231)\n              dup2\n              mstore\n                /* \"contracts/BondingCurveFactory.sol\":8325:8329  this */\n              address\n                /* \"contracts/BondingCurveFactory.sol\":8294:8331  reserveToken.balanceOf(address(this)) */\n              0x04\n              dup3\n              add\n                /* \"#utility.yul\":2656:2707   */\n              mstore\n                /* \"contracts/BondingCurveFactory.sol\":8294:8306  reserveToken */\n              immutable(\"0x5c73a0fc8d21f7dd9698abc5720dffc2fb144001f2de49b6526573c7ff1fd331\")\n              sub(shl(0xa0, 0x01), 0x01)\n                /* \"contracts/BondingCurveFactory.sol\":8294:8316  reserveToken.balanceOf */\n              and\n              swap1\n              0x70a08231\n              swap1\n                /* \"#utility.yul\":2629:2647   */\n              0x24\n              add\n                /* \"contracts/BondingCurveFactory.sol\":8294:8331  reserveToken.balanceOf(address(this)) */\n              0x20\n              mload(0x40)\n              dup1\n              dup4\n              sub\n              dup2\n              dup7\n              gas\n              staticcall\n              iszero\n              dup1\n              iszero\n              tag_231\n              jumpi\n              returndatasize\n              0x00\n              dup1\n              returndatacopy\n              revert(0x00, returndatasize)\n            tag_231:\n              pop\n              pop\n              pop\n              pop\n              mload(0x40)\n              returndatasize\n              not(0x1f)\n              0x1f\n              dup3\n              add\n              and\n              dup3\n              add\n              dup1\n              0x40\n              mstore\n              pop\n              dup2\n              add\n              swap1\n              tag_232\n              swap2\n              swap1\n              tag_227\n              jump\t// in\n            tag_232:\n                /* \"contracts/BondingCurveFactory.sol\":8275:8291  connectorBalance */\n              0x0a\n                /* \"contracts/BondingCurveFactory.sol\":8275:8331  connectorBalance = reserveToken.balanceOf(address(this)) */\n              sstore\n              pop\n              pop\n                /* \"contracts/BondingCurveFactory.sol\":8102:8339  function emergencyDrain(address to) external onlyOwner {... */\n              jump\t// out\n                /* \"contracts/BondingCurveFactory.sol\":2901:3112  function bondingCurveProgress() external view returns (uint256) {... */\n            tag_123:\n                /* \"contracts/BondingCurveFactory.sol\":2956:2963  uint256 */\n              0x00\n                /* \"contracts/BondingCurveFactory.sol\":2976:2989  uint256 taken */\n              dup1\n                /* \"contracts/BondingCurveFactory.sol\":3021:3040  virtualTokenReserve */\n              sload(0x07)\n                /* \"contracts/BondingCurveFactory.sol\":2992:3018  initialVirtualTokenReserve */\n              immutable(\"0x046caf3ab6404de56b68b7d05a5b6a84a925ff8870a955c7197e992541e00d84\")\n                /* \"contracts/BondingCurveFactory.sol\":2992:3040  initialVirtualTokenReserve - virtualTokenReserve */\n              tag_234\n              swap2\n              swap1\n              tag_201\n              jump\t// in\n            tag_234:\n                /* \"contracts/BondingCurveFactory.sol\":2976:3040  uint256 taken = initialVirtualTokenReserve - virtualTokenReserve */\n              swap1\n              pop\n                /* \"contracts/BondingCurveFactory.sol\":3075:3104  initialRealTokenReservesStart */\n              immutable(\"0x5bc1dd13924f7c973fe60f5fa021f1a633d50b6a82936341352d4f6257fc3636\")\n                /* \"contracts/BondingCurveFactory.sol\":3059:3071  taken * 1e20 */\n              tag_235\n                /* \"contracts/BondingCurveFactory.sol\":2976:3040  uint256 taken = initialVirtualTokenReserve - virtualTokenReserve */\n              dup3\n                /* \"contracts/BondingCurveFactory.sol\":3067:3071  1e20 */\n              0x056bc75e2d63100000\n                /* \"contracts/BondingCurveFactory.sol\":3059:3071  taken * 1e20 */\n              tag_236\n              jump\t// in\n            tag_235:\n                /* \"contracts/BondingCurveFactory.sol\":3058:3104  (taken * 1e20) / initialRealTokenReservesStart */\n              tag_237\n              swap2\n              swap1\n              tag_238\n              jump\t// in\n            tag_237:\n                /* \"contracts/BondingCurveFactory.sol\":3051:3104  return (taken * 1e20) / initialRealTokenReservesStart */\n              swap2\n              pop\n              pop\n                /* \"contracts/BondingCurveFactory.sol\":2901:3112  function bondingCurveProgress() external view returns (uint256) {... */\n              swap1\n              jump\t// out\n                /* \"@openzeppelin/contracts/token/ERC20/ERC20.sol\":1962:2055  function symbol() public view virtual returns (string memory) {... */\n            tag_132:\n                /* \"@openzeppelin/contracts/token/ERC20/ERC20.sol\":2009:2022  string memory */\n              0x60\n                /* \"@openzeppelin/contracts/token/ERC20/ERC20.sol\":2041:2048  _symbol */\n              0x04\n                /* \"@openzeppelin/contracts/token/ERC20/ERC20.sol\":2034:2048  return _symbol */\n              dup1\n              sload\n              tag_182\n              swap1\n              tag_183\n              jump\t// in\n                /* \"@openzeppelin/contracts/token/ERC20/ERC20.sol\":3244:3422  function transfer(address to, uint256 value) public virtual returns (bool) {... */\n            tag_137:\n                /* \"@openzeppelin/contracts/token/ERC20/ERC20.sol\":3313:3317  bool */\n              0x00\n                /* \"@openzeppelin/contracts/utils/Context.sol\":735:745  msg.sender */\n              caller\n                /* \"@openzeppelin/contracts/token/ERC20/ERC20.sol\":3367:3394  _transfer(owner, to, value) */\n              tag_191\n                /* \"@openzeppelin/contracts/utils/Context.sol\":735:745  msg.sender */\n              dup2\n                /* \"@openzeppelin/contracts/token/ERC20/ERC20.sol\":3384:3386  to */\n              dup6\n                /* \"@openzeppelin/contracts/token/ERC20/ERC20.sol\":3388:3393  value */\n              dup6\n                /* \"@openzeppelin/contracts/token/ERC20/ERC20.sol\":3367:3376  _transfer */\n              tag_209\n                /* \"@openzeppelin/contracts/token/ERC20/ERC20.sol\":3367:3394  _transfer(owner, to, value) */\n              jump\t// in\n                /* \"contracts/BondingCurveFactory.sol\":3118:4902  function buy(uint256 amountIn) external nonReentrant returns (uint256) {... */\n            tag_151:\n                /* \"contracts/BondingCurveFactory.sol\":3180:3187  uint256 */\n              0x00\n                /* \"@openzeppelin/contracts/security/ReentrancyGuard.sol\":2261:2282  _nonReentrantBefore() */\n              tag_250\n                /* \"@openzeppelin/contracts/security/ReentrancyGuard.sol\":2261:2280  _nonReentrantBefore */\n              tag_251\n                /* \"@openzeppelin/contracts/security/ReentrancyGuard.sol\":2261:2282  _nonReentrantBefore() */\n              jump\t// in\n            tag_250:\n                /* \"contracts/BondingCurveFactory.sol\":3205:3214  graduated */\n              and(0xff, sload(0x0c))\n                /* \"contracts/BondingCurveFactory.sol\":3204:3214  !graduated */\n              iszero\n                /* \"contracts/BondingCurveFactory.sol\":3196:3228  require(!graduated, \"graduated\") */\n              tag_253\n              jumpi\n              mload(0x40)\n              shl(0xe5, 0x461bcd)\n              dup2\n              mstore\n                /* \"#utility.yul\":5211:5213   */\n              0x20\n                /* \"contracts/BondingCurveFactory.sol\":3196:3228  require(!graduated, \"graduated\") */\n              0x04\n              dup3\n              add\n                /* \"#utility.yul\":5193:5214   */\n              mstore\n                /* \"#utility.yul\":5250:5251   */\n              0x09\n                /* \"#utility.yul\":5230:5248   */\n              0x24\n              dup3\n              add\n                /* \"#utility.yul\":5223:5252   */\n              mstore\n              shl(0xba, 0x19dc98591d585d1959)\n                /* \"#utility.yul\":5268:5286   */\n              0x44\n              dup3\n              add\n                /* \"#utility.yul\":5261:5300   */\n              mstore\n                /* \"#utility.yul\":5317:5335   */\n              0x64\n              add\n                /* \"contracts/BondingCurveFactory.sol\":3196:3228  require(!graduated, \"graduated\") */\n            tag_254:\n              mload(0x40)\n              dup1\n              swap2\n              sub\n              swap1\n              revert\n            tag_253:\n                /* \"contracts/BondingCurveFactory.sol\":3254:3255  0 */\n              0x00\n                /* \"contracts/BondingCurveFactory.sol\":3243:3251  amountIn */\n              dup3\n                /* \"contracts/BondingCurveFactory.sol\":3243:3255  amountIn > 0 */\n              gt\n                /* \"contracts/BondingCurveFactory.sol\":3235:3264  require(amountIn > 0, \"zero\") */\n              tag_256\n              jumpi\n              mload(0x40)\n              shl(0xe5, 0x461bcd)\n              dup2\n              mstore\n              0x04\n              add\n              tag_254\n              swap1\n                /* \"#utility.yul\":5548:5550   */\n              0x20\n                /* \"#utility.yul\":5530:5551   */\n              dup1\n              dup3\n              mstore\n                /* \"#utility.yul\":5587:5588   */\n              0x04\n                /* \"#utility.yul\":5567:5585   */\n              swap1\n              dup3\n              add\n                /* \"#utility.yul\":5560:5589   */\n              mstore\n              shl(0xe0, 0x7a65726f)\n                /* \"#utility.yul\":5620:5622   */\n              0x40\n                /* \"#utility.yul\":5605:5623   */\n              dup3\n              add\n                /* \"#utility.yul\":5598:5632   */\n              mstore\n                /* \"#utility.yul\":5664:5666   */\n              0x60\n                /* \"#utility.yul\":5649:5667   */\n              add\n              swap1\n                /* \"#utility.yul\":5346:5673   */\n              jump\n                /* \"contracts/BondingCurveFactory.sol\":3235:3264  require(amountIn > 0, \"zero\") */\n            tag_256:\n                /* \"contracts/BondingCurveFactory.sol\":3273:3339  reserveToken.safeTransferFrom(msg.sender, address(this), amountIn) */\n              tag_259\n              sub(shl(0xa0, 0x01), 0x01)\n                /* \"contracts/BondingCurveFactory.sol\":3273:3285  reserveToken */\n              immutable(\"0x5c73a0fc8d21f7dd9698abc5720dffc2fb144001f2de49b6526573c7ff1fd331\")\n                /* \"contracts/BondingCurveFactory.sol\":3273:3302  reserveToken.safeTransferFrom */\n              and\n                /* \"contracts/BondingCurveFactory.sol\":3303:3313  msg.sender */\n              caller\n                /* \"contracts/BondingCurveFactory.sol\":3323:3327  this */\n              address\n                /* \"contracts/BondingCurveFactory.sol\":3330:3338  amountIn */\n              dup6\n                /* \"contracts/BondingCurveFactory.sol\":3273:3302  reserveToken.safeTransferFrom */\n              tag_260\n                /* \"contracts/BondingCurveFactory.sol\":3273:3339  reserveToken.safeTransferFrom(msg.sender, address(this), amountIn) */\n              jump\t// in\n            tag_259:\n                /* \"contracts/BondingCurveFactory.sol\":3463:3472  graduated */\n              sload(0x0c)\n                /* \"contracts/BondingCurveFactory.sol\":3366:3374  amountIn */\n              dup3\n              swap1\n                /* \"contracts/BondingCurveFactory.sol\":3463:3472  graduated */\n              0xff\n              and\n                /* \"contracts/BondingCurveFactory.sol\":3462:3472  !graduated */\n              iszero\n                /* \"contracts/BondingCurveFactory.sol\":3462:3532  !graduated && connectorBalance + deposit >= graduationReserveThreshold */\n              dup1\n              iszero\n              tag_261\n              jumpi\n              pop\n                /* \"contracts/BondingCurveFactory.sol\":3506:3532  graduationReserveThreshold */\n              sload(0x0b)\n                /* \"contracts/BondingCurveFactory.sol\":3495:3502  deposit */\n              dup2\n                /* \"contracts/BondingCurveFactory.sol\":3476:3492  connectorBalance */\n              sload(0x0a)\n                /* \"contracts/BondingCurveFactory.sol\":3476:3502  connectorBalance + deposit */\n              tag_262\n              swap2\n              swap1\n              tag_263\n              jump\t// in\n            tag_262:\n                /* \"contracts/BondingCurveFactory.sol\":3476:3532  connectorBalance + deposit >= graduationReserveThreshold */\n              lt\n              iszero\n                /* \"contracts/BondingCurveFactory.sol\":3462:3532  !graduated && connectorBalance + deposit >= graduationReserveThreshold */\n            tag_261:\n                /* \"contracts/BondingCurveFactory.sol\":3458:3608  if (!graduated && connectorBalance + deposit >= graduationReserveThreshold) {... */\n              iszero\n              tag_264\n              jumpi\n                /* \"contracts/BondingCurveFactory.sol\":3584:3600  connectorBalance */\n              sload(0x0a)\n                /* \"contracts/BondingCurveFactory.sol\":3555:3581  graduationReserveThreshold */\n              sload(0x0b)\n                /* \"contracts/BondingCurveFactory.sol\":3555:3600  graduationReserveThreshold - connectorBalance */\n              tag_265\n              swap2\n              swap1\n              tag_201\n              jump\t// in\n            tag_265:\n                /* \"contracts/BondingCurveFactory.sol\":3545:3600  deposit = graduationReserveThreshold - connectorBalance */\n              swap1\n              pop\n                /* \"contracts/BondingCurveFactory.sol\":3458:3608  if (!graduated && connectorBalance + deposit >= graduationReserveThreshold) {... */\n            tag_264:\n                /* \"contracts/BondingCurveFactory.sol\":3636:3643  deposit */\n              dup1\n                /* \"contracts/BondingCurveFactory.sol\":3616:3632  connectorBalance */\n              0x0a\n              0x00\n                /* \"contracts/BondingCurveFactory.sol\":3616:3643  connectorBalance += deposit */\n              dup3\n              dup3\n              sload\n              tag_266\n              swap2\n              swap1\n              tag_263\n              jump\t// in\n            tag_266:\n              swap1\n              swap2\n              sstore\n              pop\n              pop\n                /* \"contracts/BondingCurveFactory.sol\":3726:3745  virtualReserveAsset */\n              sload(0x08)\n                /* \"contracts/BondingCurveFactory.sol\":3693:3723  uint256 newVirtualReserveAsset */\n              0x00\n              swap1\n                /* \"contracts/BondingCurveFactory.sol\":3726:3755  virtualReserveAsset + deposit */\n              tag_267\n              swap1\n                /* \"contracts/BondingCurveFactory.sol\":3748:3755  deposit */\n              dup4\n              swap1\n                /* \"contracts/BondingCurveFactory.sol\":3726:3755  virtualReserveAsset + deposit */\n              tag_263\n              jump\t// in\n            tag_267:\n                /* \"contracts/BondingCurveFactory.sol\":3693:3755  uint256 newVirtualReserveAsset = virtualReserveAsset + deposit */\n              swap1\n              pop\n                /* \"contracts/BondingCurveFactory.sol\":3762:3792  uint256 newVirtualTokenReserve */\n              0x00\n                /* \"contracts/BondingCurveFactory.sol\":3795:3821  k / newVirtualReserveAsset */\n              tag_268\n                /* \"contracts/BondingCurveFactory.sol\":3693:3755  uint256 newVirtualReserveAsset = virtualReserveAsset + deposit */\n              dup3\n                /* \"contracts/BondingCurveFactory.sol\":3795:3796  k */\n              immutable(\"0x6be84febb8d838b29663c2973fc033c21db97bc9be43c128ccb91ac1f7226079\")\n                /* \"contracts/BondingCurveFactory.sol\":3795:3821  k / newVirtualReserveAsset */\n              tag_238\n              jump\t// in\n            tag_268:\n                /* \"contracts/BondingCurveFactory.sol\":3762:3821  uint256 newVirtualTokenReserve = k / newVirtualReserveAsset */\n              swap1\n              pop\n                /* \"contracts/BondingCurveFactory.sol\":3830:3856  uint256 virtualTokensTaken */\n              0x00\n                /* \"contracts/BondingCurveFactory.sol\":3881:3903  newVirtualTokenReserve */\n              dup2\n                /* \"contracts/BondingCurveFactory.sol\":3859:3878  virtualTokenReserve */\n              sload(0x07)\n                /* \"contracts/BondingCurveFactory.sol\":3859:3903  virtualTokenReserve > newVirtualTokenReserve */\n              gt\n                /* \"contracts/BondingCurveFactory.sol\":3859:3990  virtualTokenReserve > newVirtualTokenReserve... */\n              tag_269\n              jumpi\n                /* \"contracts/BondingCurveFactory.sol\":3971:3990  virtualTokenReserve */\n              sload(0x07)\n                /* \"contracts/BondingCurveFactory.sol\":3859:3990  virtualTokenReserve > newVirtualTokenReserve... */\n              jump(tag_271)\n            tag_269:\n                /* \"contracts/BondingCurveFactory.sol\":3937:3959  newVirtualTokenReserve */\n              dup2\n                /* \"contracts/BondingCurveFactory.sol\":3915:3934  virtualTokenReserve */\n              sload(0x07)\n                /* \"contracts/BondingCurveFactory.sol\":3915:3959  virtualTokenReserve - newVirtualTokenReserve */\n              tag_271\n              swap2\n              swap1\n              tag_201\n              jump\t// in\n            tag_271:\n                /* \"contracts/BondingCurveFactory.sol\":4109:4135  remainingRealTokenReserves */\n              sload(0x09)\n                /* \"contracts/BondingCurveFactory.sol\":3830:3990  uint256 virtualTokensTaken = virtualTokenReserve > newVirtualTokenReserve... */\n              swap1\n              swap2\n              pop\n              dup2\n              swap1\n                /* \"contracts/BondingCurveFactory.sol\":4094:4135  tokensToMint > remainingRealTokenReserves */\n              dup2\n              gt\n                /* \"contracts/BondingCurveFactory.sol\":4090:4197  if (tokensToMint > remainingRealTokenReserves) {... */\n              iszero\n              tag_272\n              jumpi\n              pop\n                /* \"contracts/BondingCurveFactory.sol\":4163:4189  remainingRealTokenReserves */\n              sload(0x09)\n                /* \"contracts/BondingCurveFactory.sol\":4090:4197  if (tokensToMint > remainingRealTokenReserves) {... */\n            tag_272:\n                /* \"contracts/BondingCurveFactory.sol\":4205:4224  virtualReserveAsset */\n              0x08\n                /* \"contracts/BondingCurveFactory.sol\":4205:4249  virtualReserveAsset = newVirtualReserveAsset */\n              dup5\n              swap1\n              sstore\n                /* \"contracts/BondingCurveFactory.sol\":4256:4275  virtualTokenReserve */\n              0x07\n                /* \"contracts/BondingCurveFactory.sol\":4256:4300  virtualTokenReserve = newVirtualTokenReserve */\n              dup4\n              swap1\n              sstore\n                /* \"contracts/BondingCurveFactory.sol\":4313:4329  tokensToMint > 0 */\n              dup1\n              iszero\n                /* \"contracts/BondingCurveFactory.sol\":4309:4434  if (tokensToMint > 0) {... */\n              tag_275\n              jumpi\n                /* \"contracts/BondingCurveFactory.sol\":4372:4384  tokensToMint */\n              dup1\n                /* \"contracts/BondingCurveFactory.sol\":4342:4368  remainingRealTokenReserves */\n              0x09\n              0x00\n                /* \"contracts/BondingCurveFactory.sol\":4342:4384  remainingRealTokenReserves -= tokensToMint */\n              dup3\n              dup3\n              sload\n              tag_274\n              swap2\n              swap1\n              tag_201\n              jump\t// in\n            tag_274:\n              swap1\n              swap2\n              sstore\n              pop\n                /* \"contracts/BondingCurveFactory.sol\":4395:4426  _mint(msg.sender, tokensToMint) */\n              tag_275\n              swap1\n              pop\n                /* \"contracts/BondingCurveFactory.sol\":4401:4411  msg.sender */\n              caller\n                /* \"contracts/BondingCurveFactory.sol\":4413:4425  tokensToMint */\n              dup3\n                /* \"contracts/BondingCurveFactory.sol\":4395:4400  _mint */\n              tag_276\n                /* \"contracts/BondingCurveFactory.sol\":4395:4426  _mint(msg.sender, tokensToMint) */\n              jump\t// in\n            tag_275:\n                /* \"contracts/BondingCurveFactory.sol\":4447:4508  Bought(msg.sender, deposit, tokensToMint, virtualTokensTaken) */\n              0x40\n              dup1\n              mload\n                /* \"contracts/BondingCurveFactory.sol\":4454:4464  msg.sender */\n              caller\n                /* \"#utility.yul\":6039:6090   */\n              dup2\n              mstore\n                /* \"#utility.yul\":6121:6123   */\n              0x20\n                /* \"#utility.yul\":6106:6124   */\n              dup2\n              add\n                /* \"#utility.yul\":6099:6133   */\n              dup8\n              swap1\n              mstore\n                /* \"#utility.yul\":6149:6167   */\n              swap1\n              dup2\n              add\n                /* \"#utility.yul\":6142:6176   */\n              dup3\n              swap1\n              mstore\n                /* \"#utility.yul\":6207:6209   */\n              0x60\n                /* \"#utility.yul\":6192:6210   */\n              dup2\n              add\n                /* \"#utility.yul\":6185:6219   */\n              dup4\n              swap1\n              mstore\n                /* \"contracts/BondingCurveFactory.sol\":4447:4508  Bought(msg.sender, deposit, tokensToMint, virtualTokensTaken) */\n              0xedba86fd2b22962d534e70ad9b0ff8730de46f636146f2bab6a72cbb1ebbcc53\n              swap1\n                /* \"#utility.yul\":6026:6029   */\n              0x80\n                /* \"#utility.yul\":6011:6030   */\n              add\n                /* \"contracts/BondingCurveFactory.sol\":4447:4508  Bought(msg.sender, deposit, tokensToMint, virtualTokensTaken) */\n              mload(0x40)\n              dup1\n              swap2\n              sub\n              swap1\n              log1\n                /* \"contracts/BondingCurveFactory.sol\":4560:4569  graduated */\n              and(0xff, sload(0x0c))\n                /* \"contracts/BondingCurveFactory.sol\":4559:4569  !graduated */\n              iszero\n                /* \"contracts/BondingCurveFactory.sol\":4559:4619  !graduated && connectorBalance >= graduationReserveThreshold */\n              dup1\n              iszero\n              tag_279\n              jumpi\n              pop\n                /* \"contracts/BondingCurveFactory.sol\":4593:4619  graduationReserveThreshold */\n              sload(0x0b)\n                /* \"contracts/BondingCurveFactory.sol\":4573:4589  connectorBalance */\n              sload(0x0a)\n                /* \"contracts/BondingCurveFactory.sol\":4573:4619  connectorBalance >= graduationReserveThreshold */\n              lt\n              iszero\n                /* \"contracts/BondingCurveFactory.sol\":4559:4619  !graduated && connectorBalance >= graduationReserveThreshold */\n            tag_279:\n                /* \"contracts/BondingCurveFactory.sol\":4555:4651  if (!graduated && connectorBalance >= graduationReserveThreshold) {... */\n              iszero\n              tag_281\n              jumpi\n                /* \"contracts/BondingCurveFactory.sol\":4632:4643  _graduate() */\n              tag_281\n                /* \"contracts/BondingCurveFactory.sol\":4632:4641  _graduate */\n              tag_282\n                /* \"contracts/BondingCurveFactory.sol\":4632:4643  _graduate() */\n              jump\t// in\n            tag_281:\n                /* \"contracts/BondingCurveFactory.sol\":4742:4749  deposit */\n              dup5\n                /* \"contracts/BondingCurveFactory.sol\":4731:4739  amountIn */\n              dup8\n                /* \"contracts/BondingCurveFactory.sol\":4731:4749  amountIn > deposit */\n              gt\n                /* \"contracts/BondingCurveFactory.sol\":4727:4871  if (amountIn > deposit) {... */\n              iszero\n              tag_283\n              jumpi\n                /* \"contracts/BondingCurveFactory.sol\":4762:4781  uint256 extraRefund */\n              0x00\n                /* \"contracts/BondingCurveFactory.sol\":4784:4802  amountIn - deposit */\n              tag_284\n                /* \"contracts/BondingCurveFactory.sol\":4795:4802  deposit */\n              dup7\n                /* \"contracts/BondingCurveFactory.sol\":4784:4792  amountIn */\n              dup10\n                /* \"contracts/BondingCurveFactory.sol\":4784:4802  amountIn - deposit */\n              tag_201\n              jump\t// in\n            tag_284:\n                /* \"contracts/BondingCurveFactory.sol\":4762:4802  uint256 extraRefund = amountIn - deposit */\n              swap1\n              pop\n                /* \"contracts/BondingCurveFactory.sol\":4813:4863  reserveToken.safeTransfer(msg.sender, extraRefund) */\n              tag_285\n              sub(shl(0xa0, 0x01), 0x01)\n                /* \"contracts/BondingCurveFactory.sol\":4813:4825  reserveToken */\n              immutable(\"0x5c73a0fc8d21f7dd9698abc5720dffc2fb144001f2de49b6526573c7ff1fd331\")\n                /* \"contracts/BondingCurveFactory.sol\":4813:4838  reserveToken.safeTransfer */\n              and\n                /* \"contracts/BondingCurveFactory.sol\":4839:4849  msg.sender */\n              caller\n                /* \"contracts/BondingCurveFactory.sol\":4762:4802  uint256 extraRefund = amountIn - deposit */\n              dup4\n                /* \"contracts/BondingCurveFactory.sol\":4813:4838  reserveToken.safeTransfer */\n              tag_203\n                /* \"contracts/BondingCurveFactory.sol\":4813:4863  reserveToken.safeTransfer(msg.sender, extraRefund) */\n              jump\t// in\n            tag_285:\n                /* \"contracts/BondingCurveFactory.sol\":4751:4871  {... */\n              pop\n                /* \"contracts/BondingCurveFactory.sol\":4727:4871  if (amountIn > deposit) {... */\n            tag_283:\n                /* \"contracts/BondingCurveFactory.sol\":4886:4898  tokensToMint */\n              swap5\n              pop\n              pop\n              pop\n              pop\n              pop\n                /* \"@openzeppelin/contracts/security/ReentrancyGuard.sol\":2303:2323  _nonReentrantAfter() */\n              tag_286\n                /* \"@openzeppelin/contracts/security/ReentrancyGuard.sol\":1716:1717  1 */\n              0x01\n                /* \"@openzeppelin/contracts/security/ReentrancyGuard.sol\":2809:2816  _status */\n              0x06\n                /* \"@openzeppelin/contracts/security/ReentrancyGuard.sol\":2809:2831  _status = _NOT_ENTERED */\n              sstore\n                /* \"@openzeppelin/contracts/security/ReentrancyGuard.sol\":2629:2838  function _nonReentrantAfter() private {... */\n              jump\n                /* \"@openzeppelin/contracts/security/ReentrancyGuard.sol\":2303:2323  _nonReentrantAfter() */\n            tag_286:\n                /* \"contracts/BondingCurveFactory.sol\":3118:4902  function buy(uint256 amountIn) external nonReentrant returns (uint256) {... */\n              swap2\n              swap1\n              pop\n              jump\t// out\n                /* \"contracts/BondingCurveFactory.sol\":4912:5867  function sell(uint256 tokenAmount) external nonReentrant returns (uint256) {... */\n            tag_162:\n                /* \"contracts/BondingCurveFactory.sol\":4978:4985  uint256 */\n              0x00\n                /* \"@openzeppelin/contracts/security/ReentrancyGuard.sol\":2261:2282  _nonReentrantBefore() */\n              tag_290\n                /* \"@openzeppelin/contracts/security/ReentrancyGuard.sol\":2261:2280  _nonReentrantBefore */\n              tag_251\n                /* \"@openzeppelin/contracts/security/ReentrancyGuard.sol\":2261:2282  _nonReentrantBefore() */\n              jump\t// in\n            tag_290:\n                /* \"contracts/BondingCurveFactory.sol\":5007:5016  graduated */\n              and(0xff, sload(0x0c))\n                /* \"contracts/BondingCurveFactory.sol\":5006:5016  !graduated */\n              iszero\n                /* \"contracts/BondingCurveFactory.sol\":4998:5017  require(!graduated) */\n              tag_292\n              jumpi\n              0x00\n              dup1\n              revert\n            tag_292:\n                /* \"contracts/BondingCurveFactory.sol\":5050:5051  0 */\n              0x00\n                /* \"contracts/BondingCurveFactory.sol\":5036:5047  tokenAmount */\n              dup3\n                /* \"contracts/BondingCurveFactory.sol\":5036:5051  tokenAmount > 0 */\n              gt\n                /* \"contracts/BondingCurveFactory.sol\":5028:5052  require(tokenAmount > 0) */\n              tag_293\n              jumpi\n              0x00\n              dup1\n              revert\n            tag_293:\n                /* \"contracts/BondingCurveFactory.sol\":5065:5072  bool ok */\n              0x00\n                /* \"contracts/BondingCurveFactory.sol\":5075:5145  transferFromAllowedAndTransfer(msg.sender, address(this), tokenAmount) */\n              tag_294\n                /* \"contracts/BondingCurveFactory.sol\":5106:5116  msg.sender */\n              caller\n                /* \"contracts/BondingCurveFactory.sol\":5126:5130  this */\n              address\n                /* \"contracts/BondingCurveFactory.sol\":5133:5144  tokenAmount */\n              dup6\n                /* \"contracts/BondingCurveFactory.sol\":5075:5105  transferFromAllowedAndTransfer */\n              tag_295\n                /* \"contracts/BondingCurveFactory.sol\":5075:5145  transferFromAllowedAndTransfer(msg.sender, address(this), tokenAmount) */\n              jump\t// in\n            tag_294:\n                /* \"contracts/BondingCurveFactory.sol\":5065:5145  bool ok = transferFromAllowedAndTransfer(msg.sender, address(this), tokenAmount) */\n              swap1\n              pop\n                /* \"contracts/BondingCurveFactory.sol\":5164:5166  ok */\n              dup1\n                /* \"contracts/BondingCurveFactory.sol\":5156:5167  require(ok) */\n              tag_296\n              jumpi\n              0x00\n              dup1\n              revert\n            tag_296:\n                /* \"contracts/BondingCurveFactory.sol\":5180:5213  _burn(address(this), tokenAmount) */\n              tag_297\n                /* \"contracts/BondingCurveFactory.sol\":5194:5198  this */\n              address\n                /* \"contracts/BondingCurveFactory.sol\":5201:5212  tokenAmount */\n              dup5\n                /* \"contracts/BondingCurveFactory.sol\":5180:5185  _burn */\n              tag_298\n                /* \"contracts/BondingCurveFactory.sol\":5180:5213  _burn(address(this), tokenAmount) */\n              jump\t// in\n            tag_297:\n                /* \"contracts/BondingCurveFactory.sol\":5226:5256  uint256 newVirtualTokenReserve */\n              0x00\n                /* \"contracts/BondingCurveFactory.sol\":5281:5292  tokenAmount */\n              dup4\n                /* \"contracts/BondingCurveFactory.sol\":5259:5278  virtualTokenReserve */\n              sload(0x07)\n                /* \"contracts/BondingCurveFactory.sol\":5259:5292  virtualTokenReserve + tokenAmount */\n              tag_299\n              swap2\n              swap1\n              tag_263\n              jump\t// in\n            tag_299:\n                /* \"contracts/BondingCurveFactory.sol\":5226:5292  uint256 newVirtualTokenReserve = virtualTokenReserve + tokenAmount */\n              swap1\n              pop\n                /* \"contracts/BondingCurveFactory.sol\":5303:5333  uint256 newVirtualReserveAsset */\n              0x00\n                /* \"contracts/BondingCurveFactory.sol\":5336:5362  k / newVirtualTokenReserve */\n              tag_300\n                /* \"contracts/BondingCurveFactory.sol\":5226:5292  uint256 newVirtualTokenReserve = virtualTokenReserve + tokenAmount */\n              dup3\n                /* \"contracts/BondingCurveFactory.sol\":5336:5337  k */\n              immutable(\"0x6be84febb8d838b29663c2973fc033c21db97bc9be43c128ccb91ac1f7226079\")\n                /* \"contracts/BondingCurveFactory.sol\":5336:5362  k / newVirtualTokenReserve */\n              tag_238\n              jump\t// in\n            tag_300:\n                /* \"contracts/BondingCurveFactory.sol\":5303:5362  uint256 newVirtualReserveAsset = k / newVirtualTokenReserve */\n              swap1\n              pop\n                /* \"contracts/BondingCurveFactory.sol\":5375:5393  uint256 reserveOut */\n              0x00\n                /* \"contracts/BondingCurveFactory.sol\":5418:5440  newVirtualReserveAsset */\n              dup2\n                /* \"contracts/BondingCurveFactory.sol\":5396:5415  virtualReserveAsset */\n              sload(0x08)\n                /* \"contracts/BondingCurveFactory.sol\":5396:5440  virtualReserveAsset - newVirtualReserveAsset */\n              tag_301\n              swap2\n              swap1\n              tag_201\n              jump\t// in\n            tag_301:\n                /* \"contracts/BondingCurveFactory.sol\":5453:5472  virtualTokenReserve */\n              0x07\n                /* \"contracts/BondingCurveFactory.sol\":5453:5497  virtualTokenReserve = newVirtualTokenReserve */\n              dup5\n              swap1\n              sstore\n                /* \"contracts/BondingCurveFactory.sol\":5508:5527  virtualReserveAsset */\n              0x08\n                /* \"contracts/BondingCurveFactory.sol\":5508:5552  virtualReserveAsset = newVirtualReserveAsset */\n              dup4\n              swap1\n              sstore\n                /* \"contracts/BondingCurveFactory.sol\":5573:5589  connectorBalance */\n              sload(0x0a)\n                /* \"contracts/BondingCurveFactory.sol\":5375:5440  uint256 reserveOut = virtualReserveAsset - newVirtualReserveAsset */\n              swap1\n              swap2\n              pop\n                /* \"contracts/BondingCurveFactory.sol\":5573:5603  connectorBalance >= reserveOut */\n              dup2\n              gt\n              iszero\n                /* \"contracts/BondingCurveFactory.sol\":5565:5604  require(connectorBalance >= reserveOut) */\n              tag_302\n              jumpi\n              0x00\n              dup1\n              revert\n            tag_302:\n                /* \"contracts/BondingCurveFactory.sol\":5635:5645  reserveOut */\n              dup1\n                /* \"contracts/BondingCurveFactory.sol\":5615:5631  connectorBalance */\n              0x0a\n              0x00\n                /* \"contracts/BondingCurveFactory.sol\":5615:5645  connectorBalance -= reserveOut */\n              dup3\n              dup3\n              sload\n              tag_303\n              swap2\n              swap1\n              tag_201\n              jump\t// in\n            tag_303:\n              swap3\n              pop\n              pop\n              dup2\n              swap1\n              sstore\n              pop\n                /* \"contracts/BondingCurveFactory.sol\":5686:5697  tokenAmount */\n              dup6\n                /* \"contracts/BondingCurveFactory.sol\":5656:5682  remainingRealTokenReserves */\n              0x09\n              0x00\n                /* \"contracts/BondingCurveFactory.sol\":5656:5697  remainingRealTokenReserves += tokenAmount */\n              dup3\n              dup3\n              sload\n              tag_304\n              swap2\n              swap1\n              tag_263\n              jump\t// in\n            tag_304:\n              swap1\n              swap2\n              sstore\n              pop\n                /* \"contracts/BondingCurveFactory.sol\":5708:5757  reserveToken.safeTransfer(msg.sender, reserveOut) */\n              tag_305\n              swap1\n              pop\n              sub(shl(0xa0, 0x01), 0x01)\n                /* \"contracts/BondingCurveFactory.sol\":5708:5720  reserveToken */\n              immutable(\"0x5c73a0fc8d21f7dd9698abc5720dffc2fb144001f2de49b6526573c7ff1fd331\")\n                /* \"contracts/BondingCurveFactory.sol\":5708:5733  reserveToken.safeTransfer */\n              and\n                /* \"contracts/BondingCurveFactory.sol\":5734:5744  msg.sender */\n              caller\n                /* \"contracts/BondingCurveFactory.sol\":5746:5756  reserveOut */\n              dup4\n                /* \"contracts/BondingCurveFactory.sol\":5708:5733  reserveToken.safeTransfer */\n              tag_203\n                /* \"contracts/BondingCurveFactory.sol\":5708:5757  reserveToken.safeTransfer(msg.sender, reserveOut) */\n              jump\t// in\n            tag_305:\n                /* \"contracts/BondingCurveFactory.sol\":5775:5829  Sold(msg.sender, tokenAmount, reserveOut, tokenAmount) */\n              0x40\n              dup1\n              mload\n                /* \"contracts/BondingCurveFactory.sol\":5780:5790  msg.sender */\n              caller\n                /* \"#utility.yul\":6039:6090   */\n              dup2\n              mstore\n                /* \"#utility.yul\":6121:6123   */\n              0x20\n                /* \"#utility.yul\":6106:6124   */\n              dup2\n              add\n                /* \"#utility.yul\":6099:6133   */\n              dup9\n              swap1\n              mstore\n                /* \"#utility.yul\":6149:6167   */\n              swap1\n              dup2\n              add\n                /* \"#utility.yul\":6142:6176   */\n              dup3\n              swap1\n              mstore\n                /* \"#utility.yul\":6207:6209   */\n              0x60\n                /* \"#utility.yul\":6192:6210   */\n              dup2\n              add\n                /* \"#utility.yul\":6185:6219   */\n              dup8\n              swap1\n              mstore\n                /* \"contracts/BondingCurveFactory.sol\":5775:5829  Sold(msg.sender, tokenAmount, reserveOut, tokenAmount) */\n              0xe029f26dbcf8c42dd2f352c10214a7fc26773dc62482c6241334a0402ac09a80\n              swap1\n                /* \"#utility.yul\":6026:6029   */\n              0x80\n                /* \"#utility.yul\":6011:6030   */\n              add\n                /* \"contracts/BondingCurveFactory.sol\":5775:5829  Sold(msg.sender, tokenAmount, reserveOut, tokenAmount) */\n              mload(0x40)\n              dup1\n              swap2\n              sub\n              swap1\n              log1\n                /* \"contracts/BondingCurveFactory.sol\":5849:5859  reserveOut */\n              swap4\n              pop\n              pop\n              pop\n              pop\n                /* \"@openzeppelin/contracts/security/ReentrancyGuard.sol\":2303:2323  _nonReentrantAfter() */\n              tag_286\n                /* \"@openzeppelin/contracts/security/ReentrancyGuard.sol\":1716:1717  1 */\n              0x01\n                /* \"@openzeppelin/contracts/security/ReentrancyGuard.sol\":2809:2816  _status */\n              0x06\n                /* \"@openzeppelin/contracts/security/ReentrancyGuard.sol\":2809:2831  _status = _NOT_ENTERED */\n              sstore\n                /* \"@openzeppelin/contracts/security/ReentrancyGuard.sol\":2629:2838  function _nonReentrantAfter() private {... */\n              jump\n                /* \"@openzeppelin/contracts/access/Ownable.sol\":2543:2758  function transferOwnership(address newOwner) public virtual onlyOwner {... */\n            tag_175:\n                /* \"@openzeppelin/contracts/access/Ownable.sol\":1531:1544  _checkOwner() */\n              tag_309\n                /* \"@openzeppelin/contracts/access/Ownable.sol\":1531:1542  _checkOwner */\n              tag_196\n                /* \"@openzeppelin/contracts/access/Ownable.sol\":1531:1544  _checkOwner() */\n              jump\t// in\n            tag_309:\n              sub(shl(0xa0, 0x01), 0x01)\n                /* \"@openzeppelin/contracts/access/Ownable.sol\":2627:2649  newOwner == address(0) */\n              dup2\n              and\n                /* \"@openzeppelin/contracts/access/Ownable.sol\":2623:2714  if (newOwner == address(0)) {... */\n              tag_311\n              jumpi\n                /* \"@openzeppelin/contracts/access/Ownable.sol\":2672:2703  OwnableInvalidOwner(address(0)) */\n              mload(0x40)\n              shl(0xe0, 0x1e4fbdf7)\n              dup2\n              mstore\n                /* \"@openzeppelin/contracts/access/Ownable.sol\":2700:2701  0 */\n              0x00\n                /* \"@openzeppelin/contracts/access/Ownable.sol\":2672:2703  OwnableInvalidOwner(address(0)) */\n              0x04\n              dup3\n              add\n                /* \"#utility.yul\":2656:2707   */\n              mstore\n                /* \"#utility.yul\":2629:2647   */\n              0x24\n              add\n                /* \"@openzeppelin/contracts/access/Ownable.sol\":2672:2703  OwnableInvalidOwner(address(0)) */\n              tag_254\n                /* \"#utility.yul\":2484:2713   */\n              jump\n                /* \"@openzeppelin/contracts/access/Ownable.sol\":2623:2714  if (newOwner == address(0)) {... */\n            tag_311:\n                /* \"@openzeppelin/contracts/access/Ownable.sol\":2723:2751  _transferOwnership(newOwner) */\n              tag_313\n                /* \"@openzeppelin/contracts/access/Ownable.sol\":2742:2750  newOwner */\n              dup2\n                /* \"@openzeppelin/contracts/access/Ownable.sol\":2723:2741  _transferOwnership */\n              tag_219\n                /* \"@openzeppelin/contracts/access/Ownable.sol\":2723:2751  _transferOwnership(newOwner) */\n              jump\t// in\n            tag_313:\n                /* \"@openzeppelin/contracts/access/Ownable.sol\":2543:2758  function transferOwnership(address newOwner) public virtual onlyOwner {... */\n              pop\n              jump\t// out\n                /* \"@openzeppelin/contracts/token/ERC20/ERC20.sol\":8630:8758  function _approve(address owner, address spender, uint256 value) internal {... */\n            tag_192:\n                /* \"@openzeppelin/contracts/token/ERC20/ERC20.sol\":8714:8751  _approve(owner, spender, value, true) */\n              tag_316\n                /* \"@openzeppelin/contracts/token/ERC20/ERC20.sol\":8723:8728  owner */\n              dup4\n                /* \"@openzeppelin/contracts/token/ERC20/ERC20.sol\":8730:8737  spender */\n              dup4\n                /* \"@openzeppelin/contracts/token/ERC20/ERC20.sol\":8739:8744  value */\n              dup4\n                /* \"@openzeppelin/contracts/token/ERC20/ERC20.sol\":8746:8750  true */\n              0x01\n                /* \"@openzeppelin/contracts/token/ERC20/ERC20.sol\":8714:8722  _approve */\n              tag_317\n                /* \"@openzeppelin/contracts/token/ERC20/ERC20.sol\":8714:8751  _approve(owner, spender, value, true) */\n              jump\t// in\n            tag_316:\n                /* \"@openzeppelin/contracts/token/ERC20/ERC20.sol\":8630:8758  function _approve(address owner, address spender, uint256 value) internal {... */\n              pop\n              pop\n              pop\n              jump\t// out\n                /* \"@openzeppelin/contracts/access/Ownable.sol\":1796:1958  function _checkOwner() internal view virtual {... */\n            tag_196:\n                /* \"@openzeppelin/contracts/access/Ownable.sol\":1710:1716  _owner */\n              and(sub(shl(0xa0, 0x01), 0x01), sload(0x05))\n                /* \"@openzeppelin/contracts/utils/Context.sol\":735:745  msg.sender */\n              caller\n                /* \"@openzeppelin/contracts/access/Ownable.sol\":1855:1878  owner() != _msgSender() */\n              eq\n                /* \"@openzeppelin/contracts/access/Ownable.sol\":1851:1952  if (owner() != _msgSender()) {... */\n              tag_218\n              jumpi\n                /* \"@openzeppelin/contracts/access/Ownable.sol\":1901:1941  OwnableUnauthorizedAccount(_msgSender()) */\n              mload(0x40)\n              shl(0xe0, 0x118cdaa7)\n              dup2\n              mstore\n                /* \"@openzeppelin/contracts/utils/Context.sol\":735:745  msg.sender */\n              caller\n                /* \"@openzeppelin/contracts/access/Ownable.sol\":1901:1941  OwnableUnauthorizedAccount(_msgSender()) */\n              0x04\n              dup3\n              add\n                /* \"#utility.yul\":2656:2707   */\n              mstore\n                /* \"#utility.yul\":2629:2647   */\n              0x24\n              add\n                /* \"@openzeppelin/contracts/access/Ownable.sol\":1901:1941  OwnableUnauthorizedAccount(_msgSender()) */\n              tag_254\n                /* \"#utility.yul\":2484:2713   */\n              jump\n                /* \"@openzeppelin/contracts/token/ERC20/utils/SafeERC20.sol\":1219:1379  function safeTransfer(IERC20 token, address to, uint256 value) internal {... */\n            tag_203:\n                /* \"@openzeppelin/contracts/token/ERC20/utils/SafeERC20.sol\":1328:1371  abi.encodeCall(token.transfer, (to, value)) */\n              mload(0x40)\n              sub(shl(0xa0, 0x01), 0x01)\n                /* \"#utility.yul\":6422:6454   */\n              dup4\n              dup2\n              and\n                /* \"@openzeppelin/contracts/token/ERC20/utils/SafeERC20.sol\":1328:1371  abi.encodeCall(token.transfer, (to, value)) */\n              0x24\n              dup4\n              add\n                /* \"#utility.yul\":6404:6455   */\n              mstore\n                /* \"#utility.yul\":6471:6489   */\n              0x44\n              dup3\n              add\n                /* \"#utility.yul\":6464:6498   */\n              dup4\n              swap1\n              mstore\n                /* \"@openzeppelin/contracts/token/ERC20/utils/SafeERC20.sol\":1301:1372  _callOptionalReturn(token, abi.encodeCall(token.transfer, (to, value))) */\n              tag_316\n              swap2\n                /* \"@openzeppelin/contracts/token/ERC20/utils/SafeERC20.sol\":1321:1326  token */\n              dup6\n              swap2\n                /* \"@openzeppelin/contracts/token/ERC20/utils/SafeERC20.sol\":1343:1357  token.transfer */\n              dup3\n              and\n              swap1\n              0xa9059cbb\n              swap1\n                /* \"#utility.yul\":6377:6395   */\n              0x64\n              add\n                /* \"@openzeppelin/contracts/token/ERC20/utils/SafeERC20.sol\":1328:1371  abi.encodeCall(token.transfer, (to, value)) */\n            tag_326:\n              mload(0x40)\n              0x20\n              dup2\n              dup4\n              sub\n              sub\n              dup2\n              mstore\n              swap1\n              0x40\n              mstore\n              swap2\n              pop\n              0xe0\n              shl\n              0x20\n              dup3\n              add\n              dup1\n              mload\n              sub(shl(0xe0, 0x01), 0x01)\n              dup4\n              dup2\n              dup4\n              and\n              or\n              dup4\n              mstore\n              pop\n              pop\n              pop\n              pop\n                /* \"@openzeppelin/contracts/token/ERC20/utils/SafeERC20.sol\":1301:1320  _callOptionalReturn */\n              tag_328\n                /* \"@openzeppelin/contracts/token/ERC20/utils/SafeERC20.sol\":1301:1372  _callOptionalReturn(token, abi.encodeCall(token.transfer, (to, value))) */\n              jump\t// in\n                /* \"@openzeppelin/contracts/token/ERC20/ERC20.sol\":10319:10795  function _spendAllowance(address owner, address spender, uint256 value) internal virtual {... */\n            tag_207:\n              sub(shl(0xa0, 0x01), 0x01)\n                /* \"@openzeppelin/contracts/token/ERC20/ERC20.sol\":3561:3579  _allowances[owner] */\n              dup4\n              dup2\n              and\n                /* \"@openzeppelin/contracts/token/ERC20/ERC20.sol\":10418:10442  uint256 currentAllowance */\n              0x00\n                /* \"@openzeppelin/contracts/token/ERC20/ERC20.sol\":3561:3579  _allowances[owner] */\n              swap1\n              dup2\n              mstore\n                /* \"@openzeppelin/contracts/token/ERC20/ERC20.sol\":3561:3572  _allowances */\n              0x01\n                /* \"@openzeppelin/contracts/token/ERC20/ERC20.sol\":3561:3579  _allowances[owner] */\n              0x20\n              swap1\n              dup2\n              mstore\n              0x40\n              dup1\n              dup4\n              keccak256\n                /* \"@openzeppelin/contracts/token/ERC20/ERC20.sol\":3561:3588  _allowances[owner][spender] */\n              swap4\n              dup7\n              and\n              dup4\n              mstore\n              swap3\n              swap1\n              mstore\n              keccak256\n              sload\n              not(0x00)\n                /* \"@openzeppelin/contracts/token/ERC20/ERC20.sol\":10484:10520  currentAllowance < type(uint256).max */\n              dup2\n              lt\n                /* \"@openzeppelin/contracts/token/ERC20/ERC20.sol\":10480:10789  if (currentAllowance < type(uint256).max) {... */\n              iszero\n              tag_335\n              jumpi\n                /* \"@openzeppelin/contracts/token/ERC20/ERC20.sol\":10559:10564  value */\n              dup2\n                /* \"@openzeppelin/contracts/token/ERC20/ERC20.sol\":10540:10556  currentAllowance */\n              dup2\n                /* \"@openzeppelin/contracts/token/ERC20/ERC20.sol\":10540:10564  currentAllowance < value */\n              lt\n                /* \"@openzeppelin/contracts/token/ERC20/ERC20.sol\":10536:10666  if (currentAllowance < value) {... */\n              iszero\n              tag_332\n              jumpi\n                /* \"@openzeppelin/contracts/token/ERC20/ERC20.sol\":10591:10651  ERC20InsufficientAllowance(spender, currentAllowance, value) */\n              mload(0x40)\n              shl(0xe1, 0x7dc7a0d9)\n              dup2\n              mstore\n              sub(shl(0xa0, 0x01), 0x01)\n                /* \"#utility.yul\":6729:6761   */\n              dup5\n              and\n                /* \"@openzeppelin/contracts/token/ERC20/ERC20.sol\":10591:10651  ERC20InsufficientAllowance(spender, currentAllowance, value) */\n              0x04\n              dup3\n              add\n                /* \"#utility.yul\":6711:6762   */\n              mstore\n                /* \"#utility.yul\":6778:6796   */\n              0x24\n              dup2\n              add\n                /* \"#utility.yul\":6771:6805   */\n              dup3\n              swap1\n              mstore\n                /* \"#utility.yul\":6821:6839   */\n              0x44\n              dup2\n              add\n                /* \"#utility.yul\":6814:6848   */\n              dup4\n              swap1\n              mstore\n                /* \"#utility.yul\":6684:6702   */\n              0x64\n              add\n                /* \"@openzeppelin/contracts/token/ERC20/ERC20.sol\":10591:10651  ERC20InsufficientAllowance(spender, currentAllowance, value) */\n              tag_254\n                /* \"#utility.yul\":6509:6854   */\n              jump\n                /* \"@openzeppelin/contracts/token/ERC20/ERC20.sol\":10536:10666  if (currentAllowance < value) {... */\n            tag_332:\n                /* \"@openzeppelin/contracts/token/ERC20/ERC20.sol\":10707:10764  _approve(owner, spender, currentAllowance - value, false) */\n              tag_335\n                /* \"@openzeppelin/contracts/token/ERC20/ERC20.sol\":10716:10721  owner */\n              dup5\n                /* \"@openzeppelin/contracts/token/ERC20/ERC20.sol\":10723:10730  spender */\n              dup5\n                /* \"@openzeppelin/contracts/token/ERC20/ERC20.sol\":10751:10756  value */\n              dup5\n                /* \"@openzeppelin/contracts/token/ERC20/ERC20.sol\":10732:10748  currentAllowance */\n              dup5\n                /* \"@openzeppelin/contracts/token/ERC20/ERC20.sol\":10732:10756  currentAllowance - value */\n              sub\n                /* \"@openzeppelin/contracts/token/ERC20/ERC20.sol\":10758:10763  false */\n              0x00\n                /* \"@openzeppelin/contracts/token/ERC20/ERC20.sol\":10707:10715  _approve */\n              tag_317\n                /* \"@openzeppelin/contracts/token/ERC20/ERC20.sol\":10707:10764  _approve(owner, spender, currentAllowance - value, false) */\n              jump\t// in\n            tag_335:\n                /* \"@openzeppelin/contracts/token/ERC20/ERC20.sol\":10408:10795  {... */\n              pop\n                /* \"@openzeppelin/contracts/token/ERC20/ERC20.sol\":10319:10795  function _spendAllowance(address owner, address spender, uint256 value) internal virtual {... */\n              pop\n              pop\n              pop\n              jump\t// out\n                /* \"@openzeppelin/contracts/token/ERC20/ERC20.sol\":5297:5597  function _transfer(address from, address to, uint256 value) internal {... */\n            tag_209:\n              sub(shl(0xa0, 0x01), 0x01)\n                /* \"@openzeppelin/contracts/token/ERC20/ERC20.sol\":5380:5398  from == address(0) */\n              dup4\n              and\n                /* \"@openzeppelin/contracts/token/ERC20/ERC20.sol\":5376:5462  if (from == address(0)) {... */\n              tag_337\n              jumpi\n                /* \"@openzeppelin/contracts/token/ERC20/ERC20.sol\":5421:5451  ERC20InvalidSender(address(0)) */\n              mload(0x40)\n              shl(0xe1, 0x4b637e8f)\n              dup2\n              mstore\n                /* \"@openzeppelin/contracts/token/ERC20/ERC20.sol\":5448:5449  0 */\n              0x00\n                /* \"@openzeppelin/contracts/token/ERC20/ERC20.sol\":5421:5451  ERC20InvalidSender(address(0)) */\n              0x04\n              dup3\n              add\n                /* \"#utility.yul\":2656:2707   */\n              mstore\n                /* \"#utility.yul\":2629:2647   */\n              0x24\n              add\n                /* \"@openzeppelin/contracts/token/ERC20/ERC20.sol\":5421:5451  ERC20InvalidSender(address(0)) */\n              tag_254\n                /* \"#utility.yul\":2484:2713   */\n              jump\n                /* \"@openzeppelin/contracts/token/ERC20/ERC20.sol\":5376:5462  if (from == address(0)) {... */\n            tag_337:\n              sub(shl(0xa0, 0x01), 0x01)\n                /* \"@openzeppelin/contracts/token/ERC20/ERC20.sol\":5475:5491  to == address(0) */\n              dup3\n              and\n                /* \"@openzeppelin/contracts/token/ERC20/ERC20.sol\":5471:5557  if (to == address(0)) {... */\n              tag_339\n              jumpi\n                /* \"@openzeppelin/contracts/token/ERC20/ERC20.sol\":5514:5546  ERC20InvalidReceiver(address(0)) */\n              mload(0x40)\n              shl(0xe0, 0xec442f05)\n              dup2\n              mstore\n                /* \"@openzeppelin/contracts/token/ERC20/ERC20.sol\":5543:5544  0 */\n              0x00\n                /* \"@openzeppelin/contracts/token/ERC20/ERC20.sol\":5514:5546  ERC20InvalidReceiver(address(0)) */\n              0x04\n              dup3\n              add\n                /* \"#utility.yul\":2656:2707   */\n              mstore\n                /* \"#utility.yul\":2629:2647   */\n              0x24\n              add\n                /* \"@openzeppelin/contracts/token/ERC20/ERC20.sol\":5514:5546  ERC20InvalidReceiver(address(0)) */\n              tag_254\n                /* \"#utility.yul\":2484:2713   */\n              jump\n                /* \"@openzeppelin/contracts/token/ERC20/ERC20.sol\":5471:5557  if (to == address(0)) {... */\n            tag_339:\n                /* \"@openzeppelin/contracts/token/ERC20/ERC20.sol\":5566:5590  _update(from, to, value) */\n              tag_316\n                /* \"@openzeppelin/contracts/token/ERC20/ERC20.sol\":5574:5578  from */\n              dup4\n                /* \"@openzeppelin/contracts/token/ERC20/ERC20.sol\":5580:5582  to */\n              dup4\n                /* \"@openzeppelin/contracts/token/ERC20/ERC20.sol\":5584:5589  value */\n              dup4\n                /* \"@openzeppelin/contracts/token/ERC20/ERC20.sol\":5566:5573  _update */\n              tag_342\n                /* \"@openzeppelin/contracts/token/ERC20/ERC20.sol\":5566:5590  _update(from, to, value) */\n              jump\t// in\n                /* \"@openzeppelin/contracts/access/Ownable.sol\":2912:3099  function _transferOwnership(address newOwner) internal virtual {... */\n            tag_219:\n                /* \"@openzeppelin/contracts/access/Ownable.sol\":3004:3010  _owner */\n              0x05\n              dup1\n              sload\n              sub(shl(0xa0, 0x01), 0x01)\n                /* \"@openzeppelin/contracts/access/Ownable.sol\":3020:3037  _owner = newOwner */\n              dup4\n              dup2\n              and\n              not(sub(shl(0xa0, 0x01), 0x01))\n              dup4\n              and\n              dup2\n              or\n              swap1\n              swap4\n              sstore\n                /* \"@openzeppelin/contracts/access/Ownable.sol\":3052:3092  OwnershipTransferred(oldOwner, newOwner) */\n              mload(0x40)\n                /* \"@openzeppelin/contracts/access/Ownable.sol\":3004:3010  _owner */\n              swap2\n              and\n              swap2\n                /* \"@openzeppelin/contracts/access/Ownable.sol\":3020:3037  _owner = newOwner */\n              swap1\n                /* \"@openzeppelin/contracts/access/Ownable.sol\":3004:3010  _owner */\n              dup3\n              swap1\n                /* \"@openzeppelin/contracts/access/Ownable.sol\":3052:3092  OwnershipTransferred(oldOwner, newOwner) */\n              0x8be0079c531659141344cd1fd0a4f28419497f9722a3daafe3b4186f6b6457e0\n              swap1\n                /* \"@openzeppelin/contracts/access/Ownable.sol\":2985:3001  address oldOwner */\n              0x00\n              swap1\n                /* \"@openzeppelin/contracts/access/Ownable.sol\":3052:3092  OwnershipTransferred(oldOwner, newOwner) */\n              log3\n                /* \"@openzeppelin/contracts/access/Ownable.sol\":2975:3099  {... */\n              pop\n                /* \"@openzeppelin/contracts/access/Ownable.sol\":2912:3099  function _transferOwnership(address newOwner) internal virtual {... */\n              pop\n              jump\t// out\n                /* \"@openzeppelin/contracts/security/ReentrancyGuard.sol\":2336:2623  function _nonReentrantBefore() private {... */\n            tag_251:\n                /* \"@openzeppelin/contracts/security/ReentrancyGuard.sol\":1759:1760  2 */\n              0x02\n                /* \"@openzeppelin/contracts/security/ReentrancyGuard.sol\":2468:2475  _status */\n              sload(0x06)\n                /* \"@openzeppelin/contracts/security/ReentrancyGuard.sol\":2468:2487  _status != _ENTERED */\n              sub\n                /* \"@openzeppelin/contracts/security/ReentrancyGuard.sol\":2460:2523  require(_status != _ENTERED, \"ReentrancyGuard: reentrant call\") */\n              tag_345\n              jumpi\n              mload(0x40)\n              shl(0xe5, 0x461bcd)\n              dup2\n              mstore\n                /* \"#utility.yul\":7061:7063   */\n              0x20\n                /* \"@openzeppelin/contracts/security/ReentrancyGuard.sol\":2460:2523  require(_status != _ENTERED, \"ReentrancyGuard: reentrant call\") */\n              0x04\n              dup3\n              add\n                /* \"#utility.yul\":7043:7064   */\n              mstore\n                /* \"#utility.yul\":7100:7102   */\n              0x1f\n                /* \"#utility.yul\":7080:7098   */\n              0x24\n              dup3\n              add\n                /* \"#utility.yul\":7073:7103   */\n              mstore\n                /* \"#utility.yul\":7139:7172   */\n              0x5265656e7472616e637947756172643a207265656e7472616e742063616c6c00\n                /* \"#utility.yul\":7119:7137   */\n              0x44\n              dup3\n              add\n                /* \"#utility.yul\":7112:7173   */\n              mstore\n                /* \"#utility.yul\":7190:7208   */\n              0x64\n              add\n                /* \"@openzeppelin/contracts/security/ReentrancyGuard.sol\":2460:2523  require(_status != _ENTERED, \"ReentrancyGuard: reentrant call\") */\n              tag_254\n                /* \"#utility.yul\":6859:7214   */\n              jump\n                /* \"@openzeppelin/contracts/security/ReentrancyGuard.sol\":2460:2523  require(_status != _ENTERED, \"ReentrancyGuard: reentrant call\") */\n            tag_345:\n                /* \"@openzeppelin/contracts/security/ReentrancyGuard.sol\":1759:1760  2 */\n              0x02\n                /* \"@openzeppelin/contracts/security/ReentrancyGuard.sol\":2598:2605  _status */\n              0x06\n                /* \"@openzeppelin/contracts/security/ReentrancyGuard.sol\":2598:2616  _status = _ENTERED */\n              sstore\n                /* \"@openzeppelin/contracts/security/ReentrancyGuard.sol\":2336:2623  function _nonReentrantBefore() private {... */\n              jump\t// out\n                /* \"@openzeppelin/contracts/token/ERC20/utils/SafeERC20.sol\":1618:1806  function safeTransferFrom(IERC20 token, address from, address to, uint256 value) internal {... */\n            tag_260:\n                /* \"@openzeppelin/contracts/token/ERC20/utils/SafeERC20.sol\":1745:1798  abi.encodeCall(token.transferFrom, (from, to, value)) */\n              mload(0x40)\n              sub(shl(0xa0, 0x01), 0x01)\n                /* \"#utility.yul\":7477:7492   */\n              dup5\n              dup2\n              and\n                /* \"@openzeppelin/contracts/token/ERC20/utils/SafeERC20.sol\":1745:1798  abi.encodeCall(token.transferFrom, (from, to, value)) */\n              0x24\n              dup4\n              add\n                /* \"#utility.yul\":7459:7493   */\n              mstore\n                /* \"#utility.yul\":7529:7544   */\n              dup4\n              dup2\n              and\n                /* \"#utility.yul\":7509:7527   */\n              0x44\n              dup4\n              add\n                /* \"#utility.yul\":7502:7545   */\n              mstore\n                /* \"#utility.yul\":7561:7579   */\n              0x64\n              dup3\n              add\n                /* \"#utility.yul\":7554:7588   */\n              dup4\n              swap1\n              mstore\n                /* \"@openzeppelin/contracts/token/ERC20/utils/SafeERC20.sol\":1718:1799  _callOptionalReturn(token, abi.encodeCall(token.transferFrom, (from, to, value))) */\n              tag_335\n              swap2\n                /* \"@openzeppelin/contracts/token/ERC20/utils/SafeERC20.sol\":1738:1743  token */\n              dup7\n              swap2\n                /* \"@openzeppelin/contracts/token/ERC20/utils/SafeERC20.sol\":1760:1778  token.transferFrom */\n              dup3\n              and\n              swap1\n              0x23b872dd\n              swap1\n                /* \"#utility.yul\":7394:7412   */\n              0x84\n              add\n                /* \"@openzeppelin/contracts/token/ERC20/utils/SafeERC20.sol\":1745:1798  abi.encodeCall(token.transferFrom, (from, to, value)) */\n              tag_326\n                /* \"#utility.yul\":7219:7594   */\n              jump\n                /* \"@openzeppelin/contracts/token/ERC20/ERC20.sol\":7362:7570  function _mint(address account, uint256 value) internal {... */\n            tag_276:\n              sub(shl(0xa0, 0x01), 0x01)\n                /* \"@openzeppelin/contracts/token/ERC20/ERC20.sol\":7432:7453  account == address(0) */\n              dup3\n              and\n                /* \"@openzeppelin/contracts/token/ERC20/ERC20.sol\":7428:7519  if (account == address(0)) {... */\n              tag_353\n              jumpi\n                /* \"@openzeppelin/contracts/token/ERC20/ERC20.sol\":7476:7508  ERC20InvalidReceiver(address(0)) */\n              mload(0x40)\n              shl(0xe0, 0xec442f05)\n              dup2\n              mstore\n                /* \"@openzeppelin/contracts/token/ERC20/ERC20.sol\":7505:7506  0 */\n              0x00\n                /* \"@openzeppelin/contracts/token/ERC20/ERC20.sol\":7476:7508  ERC20InvalidReceiver(address(0)) */\n              0x04\n              dup3\n              add\n                /* \"#utility.yul\":2656:2707   */\n              mstore\n                /* \"#utility.yul\":2629:2647   */\n              0x24\n              add\n                /* \"@openzeppelin/contracts/token/ERC20/ERC20.sol\":7476:7508  ERC20InvalidReceiver(address(0)) */\n              tag_254\n                /* \"#utility.yul\":2484:2713   */\n              jump\n                /* \"@openzeppelin/contracts/token/ERC20/ERC20.sol\":7428:7519  if (account == address(0)) {... */\n            tag_353:\n                /* \"@openzeppelin/contracts/token/ERC20/ERC20.sol\":7528:7563  _update(address(0), account, value) */\n              tag_202\n                /* \"@openzeppelin/contracts/token/ERC20/ERC20.sol\":7544:7545  0 */\n              0x00\n                /* \"@openzeppelin/contracts/token/ERC20/ERC20.sol\":7548:7555  account */\n              dup4\n                /* \"@openzeppelin/contracts/token/ERC20/ERC20.sol\":7557:7562  value */\n              dup4\n                /* \"@openzeppelin/contracts/token/ERC20/ERC20.sol\":7528:7535  _update */\n              tag_342\n                /* \"@openzeppelin/contracts/token/ERC20/ERC20.sol\":7528:7563  _update(address(0), account, value) */\n              jump\t// in\n                /* \"contracts/BondingCurveFactory.sol\":6187:7705  function _graduate() internal {... */\n            tag_282:\n                /* \"contracts/BondingCurveFactory.sol\":6237:6246  graduated */\n              and(0xff, sload(0x0c))\n                /* \"contracts/BondingCurveFactory.sol\":6236:6246  !graduated */\n              iszero\n                /* \"contracts/BondingCurveFactory.sol\":6228:6247  require(!graduated) */\n              tag_357\n              jumpi\n              0x00\n              dup1\n              revert\n            tag_357:\n                /* \"contracts/BondingCurveFactory.sol\":6275:6336  yunaswapFactory.getPair(address(this), address(reserveToken)) */\n              mload(0x40)\n              shl(0xe0, 0xe6a43905)\n              dup2\n              mstore\n                /* \"contracts/BondingCurveFactory.sol\":6307:6311  this */\n              address\n                /* \"contracts/BondingCurveFactory.sol\":6275:6336  yunaswapFactory.getPair(address(this), address(reserveToken)) */\n              0x04\n              dup3\n              add\n                /* \"#utility.yul\":7811:7845   */\n              mstore\n              sub(shl(0xa0, 0x01), 0x01)\n                /* \"contracts/BondingCurveFactory.sol\":6322:6334  reserveToken */\n              immutable(\"0x5c73a0fc8d21f7dd9698abc5720dffc2fb144001f2de49b6526573c7ff1fd331\")\n                /* \"#utility.yul\":7881:7896   */\n              dup2\n              and\n                /* \"#utility.yul\":7861:7879   */\n              0x24\n              dup4\n              add\n                /* \"#utility.yul\":7854:7897   */\n              mstore\n              0x00\n              swap2\n                /* \"contracts/BondingCurveFactory.sol\":6275:6290  yunaswapFactory */\n              immutable(\"0x90a0a53a674dda23f50c6d7df8f61e9f3e3cf11a0ea21d6964915bb3c7f9b219\")\n                /* \"contracts/BondingCurveFactory.sol\":6275:6298  yunaswapFactory.getPair */\n              swap1\n              swap2\n              and\n              swap1\n              0xe6a43905\n              swap1\n                /* \"#utility.yul\":7746:7764   */\n              0x44\n              add\n                /* \"contracts/BondingCurveFactory.sol\":6275:6336  yunaswapFactory.getPair(address(this), address(reserveToken)) */\n              0x20\n              mload(0x40)\n              dup1\n              dup4\n              sub\n              dup2\n              dup7\n              gas\n              staticcall\n              iszero\n              dup1\n              iszero\n              tag_361\n              jumpi\n              returndatasize\n              0x00\n              dup1\n              returndatacopy\n              revert(0x00, returndatasize)\n            tag_361:\n              pop\n              pop\n              pop\n              pop\n              mload(0x40)\n              returndatasize\n              not(0x1f)\n              0x1f\n              dup3\n              add\n              and\n              dup3\n              add\n              dup1\n              0x40\n              mstore\n              pop\n              dup2\n              add\n              swap1\n              tag_362\n              swap2\n              swap1\n              tag_363\n              jump\t// in\n            tag_362:\n                /* \"contracts/BondingCurveFactory.sol\":6260:6336  address pair = yunaswapFactory.getPair(address(this), address(reserveToken)) */\n              swap1\n              pop\n              sub(shl(0xa0, 0x01), 0x01)\n                /* \"contracts/BondingCurveFactory.sol\":6351:6369  pair == address(0) */\n              dup2\n              and\n                /* \"contracts/BondingCurveFactory.sol\":6347:6469  if (pair == address(0)) {... */\n              tag_364\n              jumpi\n                /* \"contracts/BondingCurveFactory.sol\":6393:6457  yunaswapFactory.createPair(address(this), address(reserveToken)) */\n              mload(0x40)\n              shl(0xe1, 0x64e329cb)\n              dup2\n              mstore\n                /* \"contracts/BondingCurveFactory.sol\":6428:6432  this */\n              address\n                /* \"contracts/BondingCurveFactory.sol\":6393:6457  yunaswapFactory.createPair(address(this), address(reserveToken)) */\n              0x04\n              dup3\n              add\n                /* \"#utility.yul\":7811:7845   */\n              mstore\n              sub(shl(0xa0, 0x01), 0x01)\n                /* \"contracts/BondingCurveFactory.sol\":6443:6455  reserveToken */\n              immutable(\"0x5c73a0fc8d21f7dd9698abc5720dffc2fb144001f2de49b6526573c7ff1fd331\")\n                /* \"#utility.yul\":7881:7896   */\n              dup2\n              and\n                /* \"#utility.yul\":7861:7879   */\n              0x24\n              dup4\n              add\n                /* \"#utility.yul\":7854:7897   */\n              mstore\n                /* \"contracts/BondingCurveFactory.sol\":6393:6408  yunaswapFactory */\n              immutable(\"0x90a0a53a674dda23f50c6d7df8f61e9f3e3cf11a0ea21d6964915bb3c7f9b219\")\n                /* \"contracts/BondingCurveFactory.sol\":6393:6419  yunaswapFactory.createPair */\n              and\n              swap1\n              0xc9c65396\n              swap1\n                /* \"#utility.yul\":7746:7764   */\n              0x44\n              add\n                /* \"contracts/BondingCurveFactory.sol\":6393:6457  yunaswapFactory.createPair(address(this), address(reserveToken)) */\n              0x20\n              mload(0x40)\n              dup1\n              dup4\n              sub\n              dup2\n              0x00\n              dup8\n              gas\n              call\n              iszero\n              dup1\n              iszero\n              tag_367\n              jumpi\n              returndatasize\n              0x00\n              dup1\n              returndatacopy\n              revert(0x00, returndatasize)\n            tag_367:\n              pop\n              pop\n              pop\n              pop\n              mload(0x40)\n              returndatasize\n              not(0x1f)\n              0x1f\n              dup3\n              add\n              and\n              dup3\n              add\n              dup1\n              0x40\n              mstore\n              pop\n              dup2\n              add\n              swap1\n              tag_368\n              swap2\n              swap1\n              tag_363\n              jump\t// in\n            tag_368:\n                /* \"contracts/BondingCurveFactory.sol\":6386:6457  pair = yunaswapFactory.createPair(address(this), address(reserveToken)) */\n              swap1\n              pop\n                /* \"contracts/BondingCurveFactory.sol\":6347:6469  if (pair == address(0)) {... */\n            tag_364:\n                /* \"contracts/BondingCurveFactory.sol\":6504:6520  connectorBalance */\n              sload(0x0a)\n                /* \"contracts/BondingCurveFactory.sol\":6539:6555  reserveToAdd > 0 */\n              dup1\n                /* \"contracts/BondingCurveFactory.sol\":6531:6556  require(reserveToAdd > 0) */\n              tag_369\n              jumpi\n              0x00\n              dup1\n              revert\n            tag_369:\n                /* \"contracts/BondingCurveFactory.sol\":6569:6589  uint256 tokensNeeded */\n              0x00\n                /* \"contracts/BondingCurveFactory.sol\":6631:6650  virtualReserveAsset */\n              sload(0x08)\n                /* \"contracts/BondingCurveFactory.sol\":6608:6627  virtualTokenReserve */\n              sload(0x07)\n                /* \"contracts/BondingCurveFactory.sol\":6593:6605  reserveToAdd */\n              dup4\n                /* \"contracts/BondingCurveFactory.sol\":6593:6627  reserveToAdd * virtualTokenReserve */\n              tag_370\n              swap2\n              swap1\n              tag_236\n              jump\t// in\n            tag_370:\n                /* \"contracts/BondingCurveFactory.sol\":6592:6650  (reserveToAdd * virtualTokenReserve) / virtualReserveAsset */\n              tag_371\n              swap2\n              swap1\n              tag_238\n              jump\t// in\n            tag_371:\n                /* \"contracts/BondingCurveFactory.sol\":6569:6650  uint256 tokensNeeded = (reserveToAdd * virtualTokenReserve) / virtualReserveAsset */\n              swap1\n              pop\n                /* \"contracts/BondingCurveFactory.sol\":6680:6706  remainingRealTokenReserves */\n              sload(0x09)\n                /* \"contracts/BondingCurveFactory.sol\":6665:6677  tokensNeeded */\n              dup2\n                /* \"contracts/BondingCurveFactory.sol\":6665:6706  tokensNeeded > remainingRealTokenReserves */\n              gt\n                /* \"contracts/BondingCurveFactory.sol\":6661:6776  if (tokensNeeded > remainingRealTokenReserves) {... */\n              iszero\n              tag_372\n              jumpi\n              pop\n                /* \"contracts/BondingCurveFactory.sol\":6738:6764  remainingRealTokenReserves */\n              sload(0x09)\n                /* \"contracts/BondingCurveFactory.sol\":6661:6776  if (tokensNeeded > remainingRealTokenReserves) {... */\n            tag_372:\n                /* \"contracts/BondingCurveFactory.sol\":6809:6810  0 */\n              0x00\n                /* \"contracts/BondingCurveFactory.sol\":6794:6806  tokensNeeded */\n              dup2\n                /* \"contracts/BondingCurveFactory.sol\":6794:6810  tokensNeeded > 0 */\n              gt\n                /* \"contracts/BondingCurveFactory.sol\":6786:6811  require(tokensNeeded > 0) */\n              tag_373\n              jumpi\n              0x00\n              dup1\n              revert\n            tag_373:\n                /* \"contracts/BondingCurveFactory.sol\":6854:6866  tokensNeeded */\n              dup1\n                /* \"contracts/BondingCurveFactory.sol\":6824:6850  remainingRealTokenReserves */\n              0x09\n              0x00\n                /* \"contracts/BondingCurveFactory.sol\":6824:6866  remainingRealTokenReserves -= tokensNeeded */\n              dup3\n              dup3\n              sload\n              tag_374\n              swap2\n              swap1\n              tag_201\n              jump\t// in\n            tag_374:\n              swap1\n              swap2\n              sstore\n              pop\n                /* \"contracts/BondingCurveFactory.sol\":6877:6911  _mint(address(this), tokensNeeded) */\n              tag_375\n              swap1\n              pop\n                /* \"contracts/BondingCurveFactory.sol\":6891:6895  this */\n              address\n                /* \"contracts/BondingCurveFactory.sol\":6898:6910  tokensNeeded */\n              dup3\n                /* \"contracts/BondingCurveFactory.sol\":6877:6882  _mint */\n              tag_276\n                /* \"contracts/BondingCurveFactory.sol\":6877:6911  _mint(address(this), tokensNeeded) */\n              jump\t// in\n            tag_375:\n                /* \"contracts/BondingCurveFactory.sol\":6924:6986  _approve(address(this), address(yunaswapRouter), tokensNeeded) */\n              tag_376\n                /* \"contracts/BondingCurveFactory.sol\":6941:6945  this */\n              address\n                /* \"contracts/BondingCurveFactory.sol\":6956:6970  yunaswapRouter */\n              immutable(\"0x314caa74d689fb8abaa4a993a6d5bfb9701a5a31978bc1a4a8e3c6b22209531d\")\n                /* \"contracts/BondingCurveFactory.sol\":6973:6985  tokensNeeded */\n              dup4\n                /* \"contracts/BondingCurveFactory.sol\":6924:6932  _approve */\n              tag_192\n                /* \"contracts/BondingCurveFactory.sol\":6924:6986  _approve(address(this), address(yunaswapRouter), tokensNeeded) */\n              jump\t// in\n            tag_376:\n                /* \"contracts/BondingCurveFactory.sol\":6997:7056  reserveToken.approve(address(yunaswapRouter), reserveToAdd) */\n              mload(0x40)\n              shl(0xe0, 0x095ea7b3)\n              dup2\n              mstore\n              sub(shl(0xa0, 0x01), 0x01)\n                /* \"contracts/BondingCurveFactory.sol\":7026:7040  yunaswapRouter */\n              immutable(\"0x314caa74d689fb8abaa4a993a6d5bfb9701a5a31978bc1a4a8e3c6b22209531d\")\n                /* \"#utility.yul\":6422:6454   */\n              dup2\n              and\n                /* \"contracts/BondingCurveFactory.sol\":6997:7056  reserveToken.approve(address(yunaswapRouter), reserveToAdd) */\n              0x04\n              dup4\n              add\n                /* \"#utility.yul\":6404:6455   */\n              mstore\n                /* \"#utility.yul\":6471:6489   */\n              0x24\n              dup3\n              add\n                /* \"#utility.yul\":6464:6498   */\n              dup5\n              swap1\n              mstore\n                /* \"contracts/BondingCurveFactory.sol\":6997:7009  reserveToken */\n              immutable(\"0x5c73a0fc8d21f7dd9698abc5720dffc2fb144001f2de49b6526573c7ff1fd331\")\n                /* \"contracts/BondingCurveFactory.sol\":6997:7017  reserveToken.approve */\n              and\n              swap1\n              0x095ea7b3\n              swap1\n                /* \"#utility.yul\":6377:6395   */\n              0x44\n              add\n                /* \"contracts/BondingCurveFactory.sol\":6997:7056  reserveToken.approve(address(yunaswapRouter), reserveToAdd) */\n              0x20\n              mload(0x40)\n              dup1\n              dup4\n              sub\n              dup2\n              0x00\n              dup8\n              gas\n              call\n              iszero\n              dup1\n              iszero\n              tag_379\n              jumpi\n              returndatasize\n              0x00\n              dup1\n              returndatacopy\n              revert(0x00, returndatasize)\n            tag_379:\n              pop\n              pop\n              pop\n              pop\n              mload(0x40)\n              returndatasize\n              not(0x1f)\n              0x1f\n              dup3\n              add\n              and\n              dup3\n              add\n              dup1\n              0x40\n              mstore\n              pop\n              dup2\n              add\n              swap1\n              tag_380\n              swap2\n              swap1\n              tag_381\n              jump\t// in\n            tag_380:\n              pop\n                /* \"contracts/BondingCurveFactory.sol\":7070:7094  uint256 amountTokenAdded */\n              0x00\n                /* \"contracts/BondingCurveFactory.sol\":7096:7122  uint256 amountReserveAdded */\n              dup1\n                /* \"contracts/BondingCurveFactory.sol\":7140:7154  yunaswapRouter */\n              immutable(\"0x314caa74d689fb8abaa4a993a6d5bfb9701a5a31978bc1a4a8e3c6b22209531d\")\n              sub(shl(0xa0, 0x01), 0x01)\n                /* \"contracts/BondingCurveFactory.sol\":7140:7167  yunaswapRouter.addLiquidity */\n              and\n              0xe8e33700\n                /* \"contracts/BondingCurveFactory.sol\":7194:7198  this */\n              address\n                /* \"contracts/BondingCurveFactory.sol\":7226:7238  reserveToken */\n              immutable(\"0x5c73a0fc8d21f7dd9698abc5720dffc2fb144001f2de49b6526573c7ff1fd331\")\n                /* \"contracts/BondingCurveFactory.sol\":7258:7270  tokensNeeded */\n              dup7\n                /* \"contracts/BondingCurveFactory.sol\":7289:7301  reserveToAdd */\n              dup9\n                /* \"contracts/BondingCurveFactory.sol\":7320:7321  0 */\n              0x00\n                /* \"contracts/BondingCurveFactory.sol\":7340:7341  0 */\n              dup1\n                /* \"contracts/BondingCurveFactory.sol\":7360:7367  owner() */\n              tag_382\n                /* \"@openzeppelin/contracts/access/Ownable.sol\":1710:1716  _owner */\n              and(sub(shl(0xa0, 0x01), 0x01), sload(0x05))\n              swap1\n                /* \"@openzeppelin/contracts/access/Ownable.sol\":1638:1723  function owner() public view virtual returns (address) {... */\n              jump\n                /* \"contracts/BondingCurveFactory.sol\":7360:7367  owner() */\n            tag_382:\n                /* \"contracts/BondingCurveFactory.sol\":7386:7408  block.timestamp + 1800 */\n              tag_383\n                /* \"contracts/BondingCurveFactory.sol\":7386:7401  block.timestamp */\n              timestamp\n                /* \"contracts/BondingCurveFactory.sol\":7404:7408  1800 */\n              0x0708\n                /* \"contracts/BondingCurveFactory.sol\":7386:7408  block.timestamp + 1800 */\n              tag_263\n              jump\t// in\n            tag_383:\n                /* \"contracts/BondingCurveFactory.sol\":7140:7423  yunaswapRouter.addLiquidity(... */\n              mload(0x40)\n              0xe0\n              dup11\n              swap1\n              shl\n              not(sub(shl(0xe0, 0x01), 0x01))\n              and\n              dup2\n              mstore\n              sub(shl(0xa0, 0x01), 0x01)\n                /* \"#utility.yul\":8861:8876   */\n              swap9\n              dup10\n              and\n                /* \"contracts/BondingCurveFactory.sol\":7140:7423  yunaswapRouter.addLiquidity(... */\n              0x04\n              dup3\n              add\n                /* \"#utility.yul\":8843:8877   */\n              mstore\n                /* \"#utility.yul\":8913:8928   */\n              swap7\n              dup9\n              and\n                /* \"#utility.yul\":8893:8911   */\n              0x24\n              dup9\n              add\n                /* \"#utility.yul\":8886:8929   */\n              mstore\n                /* \"#utility.yul\":8945:8963   */\n              0x44\n              dup8\n              add\n                /* \"#utility.yul\":8938:8972   */\n              swap6\n              swap1\n              swap6\n              mstore\n                /* \"#utility.yul\":8988:9006   */\n              0x64\n              dup7\n              add\n                /* \"#utility.yul\":8981:9015   */\n              swap4\n              swap1\n              swap4\n              mstore\n                /* \"#utility.yul\":9031:9050   */\n              0x84\n              dup6\n              add\n                /* \"#utility.yul\":9024:9059   */\n              swap2\n              swap1\n              swap2\n              mstore\n                /* \"#utility.yul\":9075:9094   */\n              0xa4\n              dup5\n              add\n                /* \"#utility.yul\":9068:9103   */\n              mstore\n                /* \"#utility.yul\":9140:9155   */\n              swap1\n              swap3\n              and\n                /* \"#utility.yul\":9119:9138   */\n              0xc4\n              dup3\n              add\n                /* \"#utility.yul\":9112:9156   */\n              mstore\n                /* \"#utility.yul\":9172:9191   */\n              0xe4\n              dup2\n              add\n                /* \"#utility.yul\":9165:9200   */\n              swap2\n              swap1\n              swap2\n              mstore\n                /* \"#utility.yul\":8777:8796   */\n              0x0104\n              add\n                /* \"contracts/BondingCurveFactory.sol\":7140:7423  yunaswapRouter.addLiquidity(... */\n              0x60\n              mload(0x40)\n              dup1\n              dup4\n              sub\n              dup2\n              0x00\n              dup8\n              gas\n              call\n              iszero\n              dup1\n              iszero\n              tag_387\n              jumpi\n              returndatasize\n              0x00\n              dup1\n              returndatacopy\n              revert(0x00, returndatasize)\n            tag_387:\n              pop\n              pop\n              pop\n              pop\n              mload(0x40)\n              returndatasize\n              not(0x1f)\n              0x1f\n              dup3\n              add\n              and\n              dup3\n              add\n              dup1\n              0x40\n              mstore\n              pop\n              dup2\n              add\n              swap1\n              tag_388\n              swap2\n              swap1\n              tag_389\n              jump\t// in\n            tag_388:\n                /* \"contracts/BondingCurveFactory.sol\":7069:7423  (uint256 amountTokenAdded, uint256 amountReserveAdded,) =... */\n              pop\n              swap2\n              pop\n              swap2\n              pop\n                /* \"contracts/BondingCurveFactory.sol\":7462:7478  connectorBalance */\n              sload(0x0a)\n                /* \"contracts/BondingCurveFactory.sol\":7440:7458  amountReserveAdded */\n              dup2\n                /* \"contracts/BondingCurveFactory.sol\":7440:7478  amountReserveAdded <= connectorBalance */\n              gt\n                /* \"contracts/BondingCurveFactory.sol\":7436:7598  if (amountReserveAdded <= connectorBalance) {... */\n              tag_390\n              jumpi\n                /* \"contracts/BondingCurveFactory.sol\":7515:7533  amountReserveAdded */\n              dup1\n                /* \"contracts/BondingCurveFactory.sol\":7495:7511  connectorBalance */\n              0x0a\n              0x00\n                /* \"contracts/BondingCurveFactory.sol\":7495:7533  connectorBalance -= amountReserveAdded */\n              dup3\n              dup3\n              sload\n              tag_391\n              swap2\n              swap1\n              tag_201\n              jump\t// in\n            tag_391:\n              swap1\n              swap2\n              sstore\n              pop\n                /* \"contracts/BondingCurveFactory.sol\":7436:7598  if (amountReserveAdded <= connectorBalance) {... */\n              tag_392\n              swap1\n              pop\n              jump\n            tag_390:\n                /* \"contracts/BondingCurveFactory.sol\":7585:7586  0 */\n              0x00\n                /* \"contracts/BondingCurveFactory.sol\":7566:7582  connectorBalance */\n              0x0a\n                /* \"contracts/BondingCurveFactory.sol\":7566:7586  connectorBalance = 0 */\n              sstore\n                /* \"contracts/BondingCurveFactory.sol\":7436:7598  if (amountReserveAdded <= connectorBalance) {... */\n            tag_392:\n                /* \"contracts/BondingCurveFactory.sol\":7610:7619  graduated */\n              0x0c\n                /* \"contracts/BondingCurveFactory.sol\":7610:7626  graduated = true */\n              dup1\n              sload\n              not(0xff)\n              and\n                /* \"contracts/BondingCurveFactory.sol\":7622:7626  true */\n              0x01\n                /* \"contracts/BondingCurveFactory.sol\":7610:7626  graduated = true */\n              or\n              swap1\n              sstore\n                /* \"contracts/BondingCurveFactory.sol\":7644:7697  Graduated(pair, amountTokenAdded, amountReserveAdded) */\n              0x40\n              dup1\n              mload\n              sub(shl(0xa0, 0x01), 0x01)\n                /* \"#utility.yul\":6729:6761   */\n              dup8\n              and\n                /* \"#utility.yul\":6711:6762   */\n              dup2\n              mstore\n                /* \"#utility.yul\":6793:6795   */\n              0x20\n                /* \"#utility.yul\":6778:6796   */\n              dup2\n              add\n                /* \"#utility.yul\":6771:6805   */\n              dup5\n              swap1\n              mstore\n                /* \"#utility.yul\":6821:6839   */\n              swap1\n              dup2\n              add\n                /* \"#utility.yul\":6814:6848   */\n              dup3\n              swap1\n              mstore\n                /* \"contracts/BondingCurveFactory.sol\":7644:7697  Graduated(pair, amountTokenAdded, amountReserveAdded) */\n              0x1c858049e704460ab9455025be4078f9e746e3fd426a56040d06389edb8197db\n              swap1\n                /* \"#utility.yul\":6699:6701   */\n              0x60\n                /* \"#utility.yul\":6684:6702   */\n              add\n                /* \"contracts/BondingCurveFactory.sol\":7644:7697  Graduated(pair, amountTokenAdded, amountReserveAdded) */\n              mload(0x40)\n              dup1\n              swap2\n              sub\n              swap1\n              log1\n                /* \"contracts/BondingCurveFactory.sol\":6217:7705  {... */\n              pop\n              pop\n              pop\n              pop\n              pop\n                /* \"contracts/BondingCurveFactory.sol\":6187:7705  function _graduate() internal {... */\n              jump\t// out\n                /* \"contracts/BondingCurveFactory.sol\":5875:6179  function transferFromAllowedAndTransfer(address from, address to, uint256 amount) internal returns (bool) {... */\n            tag_295:\n                /* \"contracts/BondingCurveFactory.sol\":6027:6078  ERC20(address(this)).transferFrom(from, to, amount) */\n              mload(0x40)\n              shl(0xe0, 0x23b872dd)\n              dup2\n              mstore\n              sub(shl(0xa0, 0x01), 0x01)\n                /* \"#utility.yul\":7477:7492   */\n              dup1\n              dup6\n              and\n                /* \"contracts/BondingCurveFactory.sol\":6027:6078  ERC20(address(this)).transferFrom(from, to, amount) */\n              0x04\n              dup4\n              add\n                /* \"#utility.yul\":7459:7493   */\n              mstore\n                /* \"#utility.yul\":7529:7544   */\n              dup4\n              and\n                /* \"#utility.yul\":7509:7527   */\n              0x24\n              dup3\n              add\n                /* \"#utility.yul\":7502:7545   */\n              mstore\n                /* \"#utility.yul\":7561:7579   */\n              0x44\n              dup2\n              add\n                /* \"#utility.yul\":7554:7588   */\n              dup3\n              swap1\n              mstore\n                /* \"contracts/BondingCurveFactory.sol\":5975:5979  bool */\n              0x00\n              swap1\n              dup2\n              swap1\n                /* \"contracts/BondingCurveFactory.sol\":6041:6045  this */\n              address\n              swap1\n                /* \"contracts/BondingCurveFactory.sol\":6027:6060  ERC20(address(this)).transferFrom */\n              0x23b872dd\n              swap1\n                /* \"#utility.yul\":7394:7412   */\n              0x64\n              add\n                /* \"contracts/BondingCurveFactory.sol\":6027:6078  ERC20(address(this)).transferFrom(from, to, amount) */\n              0x20\n              mload(0x40)\n              dup1\n              dup4\n              sub\n              dup2\n              0x00\n              dup8\n              gas\n              call\n              swap3\n              pop\n              pop\n              pop\n              dup1\n              iszero\n              tag_397\n              jumpi\n              pop\n              0x40\n              dup1\n              mload\n              0x1f\n              returndatasize\n              swap1\n              dup2\n              add\n              not(0x1f)\n              and\n              dup3\n              add\n              swap1\n              swap3\n              mstore\n              tag_398\n              swap2\n              dup2\n              add\n              swap1\n              tag_381\n              jump\t// in\n            tag_398:\n              0x01\n            tag_397:\n                /* \"contracts/BondingCurveFactory.sol\":6023:6147  try ERC20(address(this)).transferFrom(from, to, amount) returns (bool _ok) {... */\n              iszero\n              tag_403\n              jumpi\n                /* \"contracts/BondingCurveFactory.sol\":6123:6126  _ok */\n              swap1\n              pop\n                /* \"contracts/BondingCurveFactory.sol\":6023:6147  try ERC20(address(this)).transferFrom(from, to, amount) returns (bool _ok) {... */\n            tag_403:\n                /* \"contracts/BondingCurveFactory.sol\":6164:6171  success */\n              swap5\n                /* \"contracts/BondingCurveFactory.sol\":5875:6179  function transferFromAllowedAndTransfer(address from, address to, uint256 amount) internal returns (bool) {... */\n              swap4\n              pop\n              pop\n              pop\n              pop\n              jump\t// out\n                /* \"@openzeppelin/contracts/token/ERC20/ERC20.sol\":7888:8094  function _burn(address account, uint256 value) internal {... */\n            tag_298:\n              sub(shl(0xa0, 0x01), 0x01)\n                /* \"@openzeppelin/contracts/token/ERC20/ERC20.sol\":7958:7979  account == address(0) */\n              dup3\n              and\n                /* \"@openzeppelin/contracts/token/ERC20/ERC20.sol\":7954:8043  if (account == address(0)) {... */\n              tag_405\n              jumpi\n                /* \"@openzeppelin/contracts/token/ERC20/ERC20.sol\":8002:8032  ERC20InvalidSender(address(0)) */\n              mload(0x40)\n              shl(0xe1, 0x4b637e8f)\n              dup2\n              mstore\n                /* \"@openzeppelin/contracts/token/ERC20/ERC20.sol\":8029:8030  0 */\n              0x00\n                /* \"@openzeppelin/contracts/token/ERC20/ERC20.sol\":8002:8032  ERC20InvalidSender(address(0)) */\n              0x04\n              dup3\n              add\n                /* \"#utility.yul\":2656:2707   */\n              mstore\n                /* \"#utility.yul\":2629:2647   */\n              0x24\n              add\n                /* \"@openzeppelin/contracts/token/ERC20/ERC20.sol\":8002:8032  ERC20InvalidSender(address(0)) */\n              tag_254\n                /* \"#utility.yul\":2484:2713   */\n              jump\n                /* \"@openzeppelin/contracts/token/ERC20/ERC20.sol\":7954:8043  if (account == address(0)) {... */\n            tag_405:\n                /* \"@openzeppelin/contracts/token/ERC20/ERC20.sol\":8052:8087  _update(account, address(0), value) */\n              tag_202\n                /* \"@openzeppelin/contracts/token/ERC20/ERC20.sol\":8060:8067  account */\n              dup3\n                /* \"@openzeppelin/contracts/token/ERC20/ERC20.sol\":8077:8078  0 */\n              0x00\n                /* \"@openzeppelin/contracts/token/ERC20/ERC20.sol\":8081:8086  value */\n              dup4\n                /* \"@openzeppelin/contracts/token/ERC20/ERC20.sol\":8052:8059  _update */\n              tag_342\n                /* \"@openzeppelin/contracts/token/ERC20/ERC20.sol\":8052:8087  _update(account, address(0), value) */\n              jump\t// in\n                /* \"@openzeppelin/contracts/token/ERC20/ERC20.sol\":9605:10037  function _approve(address owner, address spender, uint256 value, bool emitEvent) internal virtual {... */\n            tag_317:\n              sub(shl(0xa0, 0x01), 0x01)\n                /* \"@openzeppelin/contracts/token/ERC20/ERC20.sol\":9717:9736  owner == address(0) */\n              dup5\n              and\n                /* \"@openzeppelin/contracts/token/ERC20/ERC20.sol\":9713:9802  if (owner == address(0)) {... */\n              tag_409\n              jumpi\n                /* \"@openzeppelin/contracts/token/ERC20/ERC20.sol\":9759:9791  ERC20InvalidApprover(address(0)) */\n              mload(0x40)\n              shl(0xe0, 0xe602df05)\n              dup2\n              mstore\n                /* \"@openzeppelin/contracts/token/ERC20/ERC20.sol\":9788:9789  0 */\n              0x00\n                /* \"@openzeppelin/contracts/token/ERC20/ERC20.sol\":9759:9791  ERC20InvalidApprover(address(0)) */\n              0x04\n              dup3\n              add\n                /* \"#utility.yul\":2656:2707   */\n              mstore\n                /* \"#utility.yul\":2629:2647   */\n              0x24\n              add\n                /* \"@openzeppelin/contracts/token/ERC20/ERC20.sol\":9759:9791  ERC20InvalidApprover(address(0)) */\n              tag_254\n                /* \"#utility.yul\":2484:2713   */\n              jump\n                /* \"@openzeppelin/contracts/token/ERC20/ERC20.sol\":9713:9802  if (owner == address(0)) {... */\n            tag_409:\n              sub(shl(0xa0, 0x01), 0x01)\n                /* \"@openzeppelin/contracts/token/ERC20/ERC20.sol\":9815:9836  spender == address(0) */\n              dup4\n              and\n                /* \"@openzeppelin/contracts/token/ERC20/ERC20.sol\":9811:9901  if (spender == address(0)) {... */\n              tag_411\n              jumpi\n                /* \"@openzeppelin/contracts/token/ERC20/ERC20.sol\":9859:9890  ERC20InvalidSpender(address(0)) */\n              mload(0x40)\n              shl(0xe1, 0x4a1406b1)\n              dup2\n              mstore\n                /* \"@openzeppelin/contracts/token/ERC20/ERC20.sol\":9887:9888  0 */\n              0x00\n                /* \"@openzeppelin/contracts/token/ERC20/ERC20.sol\":9859:9890  ERC20InvalidSpender(address(0)) */\n              0x04\n              dup3\n              add\n                /* \"#utility.yul\":2656:2707   */\n              mstore\n                /* \"#utility.yul\":2629:2647   */\n              0x24\n              add\n                /* \"@openzeppelin/contracts/token/ERC20/ERC20.sol\":9859:9890  ERC20InvalidSpender(address(0)) */\n              tag_254\n                /* \"#utility.yul\":2484:2713   */\n              jump\n                /* \"@openzeppelin/contracts/token/ERC20/ERC20.sol\":9811:9901  if (spender == address(0)) {... */\n            tag_411:\n              sub(shl(0xa0, 0x01), 0x01)\n                /* \"@openzeppelin/contracts/token/ERC20/ERC20.sol\":9910:9928  _allowances[owner] */\n              dup1\n              dup6\n              and\n              0x00\n              swap1\n              dup2\n              mstore\n                /* \"@openzeppelin/contracts/token/ERC20/ERC20.sol\":9910:9921  _allowances */\n              0x01\n                /* \"@openzeppelin/contracts/token/ERC20/ERC20.sol\":9910:9928  _allowances[owner] */\n              0x20\n              swap1\n              dup2\n              mstore\n              0x40\n              dup1\n              dup4\n              keccak256\n                /* \"@openzeppelin/contracts/token/ERC20/ERC20.sol\":9910:9937  _allowances[owner][spender] */\n              swap4\n              dup8\n              and\n              dup4\n              mstore\n              swap3\n              swap1\n              mstore\n              keccak256\n                /* \"@openzeppelin/contracts/token/ERC20/ERC20.sol\":9910:9945  _allowances[owner][spender] = value */\n              dup3\n              swap1\n              sstore\n                /* \"@openzeppelin/contracts/token/ERC20/ERC20.sol\":9955:10031  if (emitEvent) {... */\n              dup1\n              iszero\n              tag_335\n              jumpi\n                /* \"@openzeppelin/contracts/token/ERC20/ERC20.sol\":10005:10012  spender */\n              dup3\n              sub(shl(0xa0, 0x01), 0x01)\n                /* \"@openzeppelin/contracts/token/ERC20/ERC20.sol\":9989:10020  Approval(owner, spender, value) */\n              and\n                /* \"@openzeppelin/contracts/token/ERC20/ERC20.sol\":9998:10003  owner */\n              dup5\n              sub(shl(0xa0, 0x01), 0x01)\n                /* \"@openzeppelin/contracts/token/ERC20/ERC20.sol\":9989:10020  Approval(owner, spender, value) */\n              and\n              0x8c5be1e5ebec7d5bd14f71427d1e84f3dd0314c0f7b2291e5b200ac8c7c3b925\n                /* \"@openzeppelin/contracts/token/ERC20/ERC20.sol\":10014:10019  value */\n              dup5\n                /* \"@openzeppelin/contracts/token/ERC20/ERC20.sol\":9989:10020  Approval(owner, spender, value) */\n              mload(0x40)\n              tag_414\n              swap2\n                /* \"#utility.yul\":713:738   */\n              dup2\n              mstore\n                /* \"#utility.yul\":701:703   */\n              0x20\n                /* \"#utility.yul\":686:704   */\n              add\n              swap1\n                /* \"#utility.yul\":567:744   */\n              jump\n                /* \"@openzeppelin/contracts/token/ERC20/ERC20.sol\":9989:10020  Approval(owner, spender, value) */\n            tag_414:\n              mload(0x40)\n              dup1\n              swap2\n              sub\n              swap1\n              log3\n                /* \"@openzeppelin/contracts/token/ERC20/ERC20.sol\":9605:10037  function _approve(address owner, address spender, uint256 value, bool emitEvent) internal virtual {... */\n              pop\n              pop\n              pop\n              pop\n              jump\t// out\n                /* \"@openzeppelin/contracts/token/ERC20/utils/SafeERC20.sol\":8370:9090  function _callOptionalReturn(IERC20 token, bytes memory data) private {... */\n            tag_328:\n                /* \"@openzeppelin/contracts/token/ERC20/utils/SafeERC20.sol\":8450:8468  uint256 returnSize */\n              0x00\n                /* \"@openzeppelin/contracts/token/ERC20/utils/SafeERC20.sol\":8478:8497  uint256 returnValue */\n              dup1\n                /* \"@openzeppelin/contracts/token/ERC20/utils/SafeERC20.sol\":8616:8620  0x20 */\n              0x20\n                /* \"@openzeppelin/contracts/token/ERC20/utils/SafeERC20.sol\":8613:8614  0 */\n              0x00\n                /* \"@openzeppelin/contracts/token/ERC20/utils/SafeERC20.sol\":8606:8610  data */\n              dup5\n                /* \"@openzeppelin/contracts/token/ERC20/utils/SafeERC20.sol\":8600:8611  mload(data) */\n              mload\n                /* \"@openzeppelin/contracts/token/ERC20/utils/SafeERC20.sol\":8593:8597  0x20 */\n              0x20\n                /* \"@openzeppelin/contracts/token/ERC20/utils/SafeERC20.sol\":8587:8591  data */\n              dup7\n                /* \"@openzeppelin/contracts/token/ERC20/utils/SafeERC20.sol\":8583:8598  add(data, 0x20) */\n              add\n                /* \"@openzeppelin/contracts/token/ERC20/utils/SafeERC20.sol\":8580:8581  0 */\n              0x00\n                /* \"@openzeppelin/contracts/token/ERC20/utils/SafeERC20.sol\":8573:8578  token */\n              dup9\n                /* \"@openzeppelin/contracts/token/ERC20/utils/SafeERC20.sol\":8566:8571  gas() */\n              gas\n                /* \"@openzeppelin/contracts/token/ERC20/utils/SafeERC20.sol\":8561:8621  call(gas(), token, 0, add(data, 0x20), mload(data), 0, 0x20) */\n              call\n                /* \"@openzeppelin/contracts/token/ERC20/utils/SafeERC20.sol\":8673:8680  success */\n              dup1\n                /* \"@openzeppelin/contracts/token/ERC20/utils/SafeERC20.sol\":8663:8839  if iszero(success) {... */\n              tag_416\n              jumpi\n                /* \"@openzeppelin/contracts/token/ERC20/utils/SafeERC20.sol\":8717:8721  0x40 */\n              0x40\n                /* \"@openzeppelin/contracts/token/ERC20/utils/SafeERC20.sol\":8711:8722  mload(0x40) */\n              mload\n                /* \"@openzeppelin/contracts/token/ERC20/utils/SafeERC20.sol\":8762:8778  returndatasize() */\n              returndatasize\n                /* \"@openzeppelin/contracts/token/ERC20/utils/SafeERC20.sol\":8759:8760  0 */\n              0x00\n                /* \"@openzeppelin/contracts/token/ERC20/utils/SafeERC20.sol\":8754:8757  ptr */\n              dup3\n                /* \"@openzeppelin/contracts/token/ERC20/utils/SafeERC20.sol\":8739:8779  returndatacopy(ptr, 0, returndatasize()) */\n              returndatacopy\n                /* \"@openzeppelin/contracts/token/ERC20/utils/SafeERC20.sol\":8808:8824  returndatasize() */\n              returndatasize\n                /* \"@openzeppelin/contracts/token/ERC20/utils/SafeERC20.sol\":8803:8806  ptr */\n              dup2\n                /* \"@openzeppelin/contracts/token/ERC20/utils/SafeERC20.sol\":8796:8825  revert(ptr, returndatasize()) */\n              revert\n                /* \"@openzeppelin/contracts/token/ERC20/utils/SafeERC20.sol\":8663:8839  if iszero(success) {... */\n            tag_416:\n              pop\n              pop\n                /* \"@openzeppelin/contracts/token/ERC20/utils/SafeERC20.sol\":8916:8917  0 */\n              0x00\n                /* \"@openzeppelin/contracts/token/ERC20/utils/SafeERC20.sol\":8910:8918  mload(0) */\n              mload\n                /* \"@openzeppelin/contracts/token/ERC20/utils/SafeERC20.sol\":8866:8882  returndatasize() */\n              returndatasize\n              swap2\n              pop\n                /* \"@openzeppelin/contracts/token/ERC20/utils/SafeERC20.sol\":8942:8957  returnSize == 0 */\n              dup2\n              iszero\n                /* \"@openzeppelin/contracts/token/ERC20/utils/SafeERC20.sol\":8942:9010  returnSize == 0 ? address(token).code.length == 0 : returnValue != 1 */\n              tag_417\n              jumpi\n                /* \"@openzeppelin/contracts/token/ERC20/utils/SafeERC20.sol\":8994:9005  returnValue */\n              dup1\n                /* \"@openzeppelin/contracts/token/ERC20/utils/SafeERC20.sol\":9009:9010  1 */\n              0x01\n                /* \"@openzeppelin/contracts/token/ERC20/utils/SafeERC20.sol\":8994:9010  returnValue != 1 */\n              eq\n              iszero\n                /* \"@openzeppelin/contracts/token/ERC20/utils/SafeERC20.sol\":8942:9010  returnSize == 0 ? address(token).code.length == 0 : returnValue != 1 */\n              jump(tag_418)\n            tag_417:\n              sub(shl(0xa0, 0x01), 0x01)\n                /* \"@openzeppelin/contracts/token/ERC20/utils/SafeERC20.sol\":8960:8986  address(token).code.length */\n              dup5\n              and\n              extcodesize\n                /* \"@openzeppelin/contracts/token/ERC20/utils/SafeERC20.sol\":8960:8991  address(token).code.length == 0 */\n              iszero\n                /* \"@openzeppelin/contracts/token/ERC20/utils/SafeERC20.sol\":8942:9010  returnSize == 0 ? address(token).code.length == 0 : returnValue != 1 */\n            tag_418:\n                /* \"@openzeppelin/contracts/token/ERC20/utils/SafeERC20.sol\":8938:9084  if (returnSize == 0 ? address(token).code.length == 0 : returnValue != 1) {... */\n              iszero\n              tag_335\n              jumpi\n                /* \"@openzeppelin/contracts/token/ERC20/utils/SafeERC20.sol\":9033:9073  SafeERC20FailedOperation(address(token)) */\n              mload(0x40)\n              shl(0xe0, 0x5274afe7)\n              dup2\n              mstore\n              sub(shl(0xa0, 0x01), 0x01)\n                /* \"#utility.yul\":2674:2706   */\n              dup6\n              and\n                /* \"@openzeppelin/contracts/token/ERC20/utils/SafeERC20.sol\":9033:9073  SafeERC20FailedOperation(address(token)) */\n              0x04\n              dup3\n              add\n                /* \"#utility.yul\":2656:2707   */\n              mstore\n                /* \"#utility.yul\":2629:2647   */\n              0x24\n              add\n                /* \"@openzeppelin/contracts/token/ERC20/utils/SafeERC20.sol\":9033:9073  SafeERC20FailedOperation(address(token)) */\n              tag_254\n                /* \"#utility.yul\":2484:2713   */\n              jump\n                /* \"@openzeppelin/contracts/token/ERC20/ERC20.sol\":5912:7019  function _update(address from, address to, uint256 value) internal virtual {... */\n            tag_342:\n              sub(shl(0xa0, 0x01), 0x01)\n                /* \"@openzeppelin/contracts/token/ERC20/ERC20.sol\":6001:6019  from == address(0) */\n              dup4\n              and\n                /* \"@openzeppelin/contracts/token/ERC20/ERC20.sol\":5997:6537  if (from == address(0)) {... */\n              tag_422\n              jumpi\n                /* \"@openzeppelin/contracts/token/ERC20/ERC20.sol\":6153:6158  value */\n              dup1\n                /* \"@openzeppelin/contracts/token/ERC20/ERC20.sol\":6137:6149  _totalSupply */\n              0x02\n              0x00\n                /* \"@openzeppelin/contracts/token/ERC20/ERC20.sol\":6137:6158  _totalSupply += value */\n              dup3\n              dup3\n              sload\n              tag_423\n              swap2\n              swap1\n              tag_263\n              jump\t// in\n            tag_423:\n              swap1\n              swap2\n              sstore\n              pop\n                /* \"@openzeppelin/contracts/token/ERC20/ERC20.sol\":5997:6537  if (from == address(0)) {... */\n              tag_424\n              swap1\n              pop\n              jump\n            tag_422:\n              sub(shl(0xa0, 0x01), 0x01)\n                /* \"@openzeppelin/contracts/token/ERC20/ERC20.sol\":6211:6226  _balances[from] */\n              dup4\n              and\n                /* \"@openzeppelin/contracts/token/ERC20/ERC20.sol\":6189:6208  uint256 fromBalance */\n              0x00\n                /* \"@openzeppelin/contracts/token/ERC20/ERC20.sol\":6211:6226  _balances[from] */\n              swap1\n              dup2\n              mstore\n              0x20\n              dup2\n              swap1\n              mstore\n              0x40\n              swap1\n              keccak256\n              sload\n                /* \"@openzeppelin/contracts/token/ERC20/ERC20.sol\":6244:6263  fromBalance < value */\n              dup2\n              dup2\n              lt\n                /* \"@openzeppelin/contracts/token/ERC20/ERC20.sol\":6240:6355  if (fromBalance < value) {... */\n              iszero\n              tag_425\n              jumpi\n                /* \"@openzeppelin/contracts/token/ERC20/ERC20.sol\":6290:6340  ERC20InsufficientBalance(from, fromBalance, value) */\n              mload(0x40)\n              shl(0xe2, 0x391434e3)\n              dup2\n              mstore\n              sub(shl(0xa0, 0x01), 0x01)\n                /* \"#utility.yul\":6729:6761   */\n              dup6\n              and\n                /* \"@openzeppelin/contracts/token/ERC20/ERC20.sol\":6290:6340  ERC20InsufficientBalance(from, fromBalance, value) */\n              0x04\n              dup3\n              add\n                /* \"#utility.yul\":6711:6762   */\n              mstore\n                /* \"#utility.yul\":6778:6796   */\n              0x24\n              dup2\n              add\n                /* \"#utility.yul\":6771:6805   */\n              dup3\n              swap1\n              mstore\n                /* \"#utility.yul\":6821:6839   */\n              0x44\n              dup2\n              add\n                /* \"#utility.yul\":6814:6848   */\n              dup4\n              swap1\n              mstore\n                /* \"#utility.yul\":6684:6702   */\n              0x64\n              add\n                /* \"@openzeppelin/contracts/token/ERC20/ERC20.sol\":6290:6340  ERC20InsufficientBalance(from, fromBalance, value) */\n              tag_254\n                /* \"#utility.yul\":6509:6854   */\n              jump\n                /* \"@openzeppelin/contracts/token/ERC20/ERC20.sol\":6240:6355  if (fromBalance < value) {... */\n            tag_425:\n              sub(shl(0xa0, 0x01), 0x01)\n                /* \"@openzeppelin/contracts/token/ERC20/ERC20.sol\":6475:6490  _balances[from] */\n              dup5\n              and\n                /* \"@openzeppelin/contracts/token/ERC20/ERC20.sol\":6475:6484  _balances */\n              0x00\n                /* \"@openzeppelin/contracts/token/ERC20/ERC20.sol\":6475:6490  _balances[from] */\n              swap1\n              dup2\n              mstore\n              0x20\n              dup2\n              swap1\n              mstore\n              0x40\n              swap1\n              keccak256\n                /* \"@openzeppelin/contracts/token/ERC20/ERC20.sol\":6493:6512  fromBalance - value */\n              swap1\n              dup3\n              swap1\n              sub\n                /* \"@openzeppelin/contracts/token/ERC20/ERC20.sol\":6475:6512  _balances[from] = fromBalance - value */\n              swap1\n              sstore\n                /* \"@openzeppelin/contracts/token/ERC20/ERC20.sol\":5997:6537  if (from == address(0)) {... */\n            tag_424:\n              sub(shl(0xa0, 0x01), 0x01)\n                /* \"@openzeppelin/contracts/token/ERC20/ERC20.sol\":6551:6567  to == address(0) */\n              dup3\n              and\n                /* \"@openzeppelin/contracts/token/ERC20/ERC20.sol\":6547:6972  if (to == address(0)) {... */\n              tag_427\n              jumpi\n                /* \"@openzeppelin/contracts/token/ERC20/ERC20.sol\":6714:6726  _totalSupply */\n              0x02\n                /* \"@openzeppelin/contracts/token/ERC20/ERC20.sol\":6714:6735  _totalSupply -= value */\n              dup1\n              sload\n              dup3\n              swap1\n              sub\n              swap1\n              sstore\n                /* \"@openzeppelin/contracts/token/ERC20/ERC20.sol\":6547:6972  if (to == address(0)) {... */\n              jump(tag_428)\n            tag_427:\n              sub(shl(0xa0, 0x01), 0x01)\n                /* \"@openzeppelin/contracts/token/ERC20/ERC20.sol\":6925:6938  _balances[to] */\n              dup3\n              and\n                /* \"@openzeppelin/contracts/token/ERC20/ERC20.sol\":6925:6934  _balances */\n              0x00\n                /* \"@openzeppelin/contracts/token/ERC20/ERC20.sol\":6925:6938  _balances[to] */\n              swap1\n              dup2\n              mstore\n              0x20\n              dup2\n              swap1\n              mstore\n              0x40\n              swap1\n              keccak256\n                /* \"@openzeppelin/contracts/token/ERC20/ERC20.sol\":6925:6947  _balances[to] += value */\n              dup1\n              sload\n              dup3\n              add\n              swap1\n              sstore\n                /* \"@openzeppelin/contracts/token/ERC20/ERC20.sol\":6547:6972  if (to == address(0)) {... */\n            tag_428:\n                /* \"@openzeppelin/contracts/token/ERC20/ERC20.sol\":7002:7004  to */\n              dup2\n              sub(shl(0xa0, 0x01), 0x01)\n                /* \"@openzeppelin/contracts/token/ERC20/ERC20.sol\":6987:7012  Transfer(from, to, value) */\n              and\n                /* \"@openzeppelin/contracts/token/ERC20/ERC20.sol\":6996:7000  from */\n              dup4\n              sub(shl(0xa0, 0x01), 0x01)\n                /* \"@openzeppelin/contracts/token/ERC20/ERC20.sol\":6987:7012  Transfer(from, to, value) */\n              and\n              0xddf252ad1be2c89b69c2b068fc378daa952ba7f163c4a11628f55a4df523b3ef\n                /* \"@openzeppelin/contracts/token/ERC20/ERC20.sol\":7006:7011  value */\n              dup4\n                /* \"@openzeppelin/contracts/token/ERC20/ERC20.sol\":6987:7012  Transfer(from, to, value) */\n              mload(0x40)\n              tag_429\n              swap2\n                /* \"#utility.yul\":713:738   */\n              dup2\n              mstore\n                /* \"#utility.yul\":701:703   */\n              0x20\n                /* \"#utility.yul\":686:704   */\n              add\n              swap1\n                /* \"#utility.yul\":567:744   */\n              jump\n                /* \"@openzeppelin/contracts/token/ERC20/ERC20.sol\":6987:7012  Transfer(from, to, value) */\n            tag_429:\n              mload(0x40)\n              dup1\n              swap2\n              sub\n              swap1\n              log3\n                /* \"@openzeppelin/contracts/token/ERC20/ERC20.sol\":5912:7019  function _update(address from, address to, uint256 value) internal virtual {... */\n              pop\n              pop\n              pop\n              jump\t// out\n                /* \"#utility.yul\":14:562   */\n            tag_46:\n                /* \"#utility.yul\":126:130   */\n              0x00\n                /* \"#utility.yul\":155:157   */\n              0x20\n                /* \"#utility.yul\":184:186   */\n              dup1\n                /* \"#utility.yul\":173:182   */\n              dup4\n                /* \"#utility.yul\":166:187   */\n              mstore\n                /* \"#utility.yul\":216:222   */\n              dup4\n                /* \"#utility.yul\":210:223   */\n              mload\n                /* \"#utility.yul\":259:265   */\n              dup1\n                /* \"#utility.yul\":254:256   */\n              dup3\n                /* \"#utility.yul\":243:252   */\n              dup6\n                /* \"#utility.yul\":239:257   */\n              add\n                /* \"#utility.yul\":232:266   */\n              mstore\n                /* \"#utility.yul\":284:285   */\n              0x00\n                /* \"#utility.yul\":294:434   */\n            tag_434:\n                /* \"#utility.yul\":308:314   */\n              dup2\n                /* \"#utility.yul\":305:306   */\n              dup2\n                /* \"#utility.yul\":302:315   */\n              lt\n                /* \"#utility.yul\":294:434   */\n              iszero\n              tag_436\n              jumpi\n                /* \"#utility.yul\":403:417   */\n              dup6\n              dup2\n              add\n                /* \"#utility.yul\":399:422   */\n              dup4\n              add\n                /* \"#utility.yul\":393:423   */\n              mload\n                /* \"#utility.yul\":369:386   */\n              dup6\n              dup3\n              add\n                /* \"#utility.yul\":388:390   */\n              0x40\n                /* \"#utility.yul\":365:391   */\n              add\n                /* \"#utility.yul\":358:424   */\n              mstore\n                /* \"#utility.yul\":323:333   */\n              dup3\n              add\n                /* \"#utility.yul\":294:434   */\n              jump(tag_434)\n            tag_436:\n                /* \"#utility.yul\":298:301   */\n              pop\n                /* \"#utility.yul\":483:484   */\n              0x00\n                /* \"#utility.yul\":478:480   */\n              0x40\n                /* \"#utility.yul\":469:475   */\n              dup3\n                /* \"#utility.yul\":458:467   */\n              dup7\n                /* \"#utility.yul\":454:476   */\n              add\n                /* \"#utility.yul\":450:481   */\n              add\n                /* \"#utility.yul\":443:485   */\n              mstore\n                /* \"#utility.yul\":553:555   */\n              0x40\n                /* \"#utility.yul\":546:548   */\n              0x1f\n                /* \"#utility.yul\":542:549   */\n              not\n                /* \"#utility.yul\":537:539   */\n              0x1f\n                /* \"#utility.yul\":529:535   */\n              dup4\n                /* \"#utility.yul\":525:540   */\n              add\n                /* \"#utility.yul\":521:550   */\n              and\n                /* \"#utility.yul\":510:519   */\n              dup6\n                /* \"#utility.yul\":506:551   */\n              add\n                /* \"#utility.yul\":502:556   */\n              add\n                /* \"#utility.yul\":494:556   */\n              swap3\n              pop\n              pop\n              pop\n                /* \"#utility.yul\":14:562   */\n              swap3\n              swap2\n              pop\n              pop\n              jump\t// out\n                /* \"#utility.yul\":749:880   */\n            tag_430:\n              sub(shl(0xa0, 0x01), 0x01)\n                /* \"#utility.yul\":824:855   */\n              dup2\n              and\n                /* \"#utility.yul\":814:856   */\n              dup2\n              eq\n                /* \"#utility.yul\":804:874   */\n              tag_313\n              jumpi\n                /* \"#utility.yul\":870:871   */\n              0x00\n                /* \"#utility.yul\":867:868   */\n              dup1\n                /* \"#utility.yul\":860:872   */\n              revert\n                /* \"#utility.yul\":885:1200   */\n            tag_55:\n                /* \"#utility.yul\":953:959   */\n              0x00\n                /* \"#utility.yul\":961:967   */\n              dup1\n                /* \"#utility.yul\":1014:1016   */\n              0x40\n                /* \"#utility.yul\":1002:1011   */\n              dup4\n                /* \"#utility.yul\":993:1000   */\n              dup6\n                /* \"#utility.yul\":989:1012   */\n              sub\n                /* \"#utility.yul\":985:1017   */\n              slt\n                /* \"#utility.yul\":982:1034   */\n              iszero\n              tag_441\n              jumpi\n                /* \"#utility.yul\":1030:1031   */\n              0x00\n                /* \"#utility.yul\":1027:1028   */\n              dup1\n                /* \"#utility.yul\":1020:1032   */\n              revert\n                /* \"#utility.yul\":982:1034   */\n            tag_441:\n                /* \"#utility.yul\":1069:1078   */\n              dup3\n                /* \"#utility.yul\":1056:1079   */\n              calldataload\n                /* \"#utility.yul\":1088:1119   */\n              tag_442\n                /* \"#utility.yul\":1113:1118   */\n              dup2\n                /* \"#utility.yul\":1088:1119   */\n              tag_430\n              jump\t// in\n            tag_442:\n                /* \"#utility.yul\":1138:1143   */\n              swap5\n                /* \"#utility.yul\":1190:1192   */\n              0x20\n                /* \"#utility.yul\":1175:1193   */\n              swap4\n              swap1\n              swap4\n              add\n                /* \"#utility.yul\":1162:1194   */\n              calldataload\n              swap4\n              pop\n              pop\n              pop\n                /* \"#utility.yul\":885:1200   */\n              jump\t// out\n                /* \"#utility.yul\":1397:1853   */\n            tag_74:\n                /* \"#utility.yul\":1474:1480   */\n              0x00\n                /* \"#utility.yul\":1482:1488   */\n              dup1\n                /* \"#utility.yul\":1490:1496   */\n              0x00\n                /* \"#utility.yul\":1543:1545   */\n              0x60\n                /* \"#utility.yul\":1531:1540   */\n              dup5\n                /* \"#utility.yul\":1522:1529   */\n              dup7\n                /* \"#utility.yul\":1518:1541   */\n              sub\n                /* \"#utility.yul\":1514:1546   */\n              slt\n                /* \"#utility.yul\":1511:1563   */\n              iszero\n              tag_445\n              jumpi\n                /* \"#utility.yul\":1559:1560   */\n              0x00\n                /* \"#utility.yul\":1556:1557   */\n              dup1\n                /* \"#utility.yul\":1549:1561   */\n              revert\n                /* \"#utility.yul\":1511:1563   */\n            tag_445:\n                /* \"#utility.yul\":1598:1607   */\n              dup4\n                /* \"#utility.yul\":1585:1608   */\n              calldataload\n                /* \"#utility.yul\":1617:1648   */\n              tag_446\n                /* \"#utility.yul\":1642:1647   */\n              dup2\n                /* \"#utility.yul\":1617:1648   */\n              tag_430\n              jump\t// in\n            tag_446:\n                /* \"#utility.yul\":1667:1672   */\n              swap3\n              pop\n                /* \"#utility.yul\":1724:1726   */\n              0x20\n                /* \"#utility.yul\":1709:1727   */\n              dup5\n              add\n                /* \"#utility.yul\":1696:1728   */\n              calldataload\n                /* \"#utility.yul\":1737:1770   */\n              tag_447\n                /* \"#utility.yul\":1696:1728   */\n              dup2\n                /* \"#utility.yul\":1737:1770   */\n              tag_430\n              jump\t// in\n            tag_447:\n                /* \"#utility.yul\":1397:1853   */\n              swap3\n              swap6\n                /* \"#utility.yul\":1789:1796   */\n              swap3\n              swap5\n              pop\n              pop\n              pop\n                /* \"#utility.yul\":1843:1845   */\n              0x40\n                /* \"#utility.yul\":1828:1846   */\n              swap2\n              swap1\n              swap2\n              add\n                /* \"#utility.yul\":1815:1847   */\n              calldataload\n              swap1\n                /* \"#utility.yul\":1397:1853   */\n              jump\t// out\n                /* \"#utility.yul\":2047:2227   */\n            tag_93:\n                /* \"#utility.yul\":2106:2112   */\n              0x00\n                /* \"#utility.yul\":2159:2161   */\n              0x20\n                /* \"#utility.yul\":2147:2156   */\n              dup3\n                /* \"#utility.yul\":2138:2145   */\n              dup5\n                /* \"#utility.yul\":2134:2157   */\n              sub\n                /* \"#utility.yul\":2130:2162   */\n              slt\n                /* \"#utility.yul\":2127:2179   */\n              iszero\n              tag_450\n              jumpi\n                /* \"#utility.yul\":2175:2176   */\n              0x00\n                /* \"#utility.yul\":2172:2173   */\n              dup1\n                /* \"#utility.yul\":2165:2177   */\n              revert\n                /* \"#utility.yul\":2127:2179   */\n            tag_450:\n              pop\n                /* \"#utility.yul\":2198:2221   */\n              calldataload\n              swap2\n                /* \"#utility.yul\":2047:2227   */\n              swap1\n              pop\n              jump\t// out\n                /* \"#utility.yul\":2232:2479   */\n            tag_106:\n                /* \"#utility.yul\":2291:2297   */\n              0x00\n                /* \"#utility.yul\":2344:2346   */\n              0x20\n                /* \"#utility.yul\":2332:2341   */\n              dup3\n                /* \"#utility.yul\":2323:2330   */\n              dup5\n                /* \"#utility.yul\":2319:2342   */\n              sub\n                /* \"#utility.yul\":2315:2347   */\n              slt\n                /* \"#utility.yul\":2312:2364   */\n              iszero\n              tag_452\n              jumpi\n                /* \"#utility.yul\":2360:2361   */\n              0x00\n                /* \"#utility.yul\":2357:2358   */\n              dup1\n                /* \"#utility.yul\":2350:2362   */\n              revert\n                /* \"#utility.yul\":2312:2364   */\n            tag_452:\n                /* \"#utility.yul\":2399:2408   */\n              dup2\n                /* \"#utility.yul\":2386:2409   */\n              calldataload\n                /* \"#utility.yul\":2418:2449   */\n              tag_453\n                /* \"#utility.yul\":2443:2448   */\n              dup2\n                /* \"#utility.yul\":2418:2449   */\n              tag_430\n              jump\t// in\n            tag_453:\n                /* \"#utility.yul\":2468:2473   */\n              swap4\n                /* \"#utility.yul\":2232:2479   */\n              swap3\n              pop\n              pop\n              pop\n              jump\t// out\n                /* \"#utility.yul\":3159:3547   */\n            tag_156:\n                /* \"#utility.yul\":3227:3233   */\n              0x00\n                /* \"#utility.yul\":3235:3241   */\n              dup1\n                /* \"#utility.yul\":3288:3290   */\n              0x40\n                /* \"#utility.yul\":3276:3285   */\n              dup4\n                /* \"#utility.yul\":3267:3274   */\n              dup6\n                /* \"#utility.yul\":3263:3286   */\n              sub\n                /* \"#utility.yul\":3259:3291   */\n              slt\n                /* \"#utility.yul\":3256:3308   */\n              iszero\n              tag_458\n              jumpi\n                /* \"#utility.yul\":3304:3305   */\n              0x00\n                /* \"#utility.yul\":3301:3302   */\n              dup1\n                /* \"#utility.yul\":3294:3306   */\n              revert\n                /* \"#utility.yul\":3256:3308   */\n            tag_458:\n                /* \"#utility.yul\":3343:3352   */\n              dup3\n                /* \"#utility.yul\":3330:3353   */\n              calldataload\n                /* \"#utility.yul\":3362:3393   */\n              tag_459\n                /* \"#utility.yul\":3387:3392   */\n              dup2\n                /* \"#utility.yul\":3362:3393   */\n              tag_430\n              jump\t// in\n            tag_459:\n                /* \"#utility.yul\":3412:3417   */\n              swap2\n              pop\n                /* \"#utility.yul\":3469:3471   */\n              0x20\n                /* \"#utility.yul\":3454:3472   */\n              dup4\n              add\n                /* \"#utility.yul\":3441:3473   */\n              calldataload\n                /* \"#utility.yul\":3482:3515   */\n              tag_460\n                /* \"#utility.yul\":3441:3473   */\n              dup2\n                /* \"#utility.yul\":3482:3515   */\n              tag_430\n              jump\t// in\n            tag_460:\n                /* \"#utility.yul\":3534:3541   */\n              dup1\n                /* \"#utility.yul\":3524:3541   */\n              swap2\n              pop\n              pop\n                /* \"#utility.yul\":3159:3547   */\n              swap3\n              pop\n              swap3\n              swap1\n              pop\n              jump\t// out\n                /* \"#utility.yul\":3775:4155   */\n            tag_183:\n                /* \"#utility.yul\":3854:3855   */\n              0x01\n                /* \"#utility.yul\":3850:3862   */\n              dup2\n              dup2\n              shr\n              swap1\n                /* \"#utility.yul\":3897:3909   */\n              dup3\n              and\n              dup1\n                /* \"#utility.yul\":3918:3979   */\n              tag_463\n              jumpi\n                /* \"#utility.yul\":3972:3976   */\n              0x7f\n                /* \"#utility.yul\":3964:3970   */\n              dup3\n                /* \"#utility.yul\":3960:3977   */\n              and\n                /* \"#utility.yul\":3950:3977   */\n              swap2\n              pop\n                /* \"#utility.yul\":3918:3979   */\n            tag_463:\n                /* \"#utility.yul\":4025:4027   */\n              0x20\n                /* \"#utility.yul\":4017:4023   */\n              dup3\n                /* \"#utility.yul\":4014:4028   */\n              lt\n                /* \"#utility.yul\":3994:4012   */\n              dup2\n                /* \"#utility.yul\":3991:4029   */\n              sub\n                /* \"#utility.yul\":3988:4149   */\n              tag_464\n              jumpi\n                /* \"#utility.yul\":4071:4081   */\n              0x4e487b71\n                /* \"#utility.yul\":4066:4069   */\n              0xe0\n                /* \"#utility.yul\":4062:4082   */\n              shl\n                /* \"#utility.yul\":4059:4060   */\n              0x00\n                /* \"#utility.yul\":4052:4083   */\n              mstore\n                /* \"#utility.yul\":4106:4110   */\n              0x22\n                /* \"#utility.yul\":4103:4104   */\n              0x04\n                /* \"#utility.yul\":4096:4111   */\n              mstore\n                /* \"#utility.yul\":4134:4138   */\n              0x24\n                /* \"#utility.yul\":4131:4132   */\n              0x00\n                /* \"#utility.yul\":4124:4139   */\n              revert\n                /* \"#utility.yul\":3988:4149   */\n            tag_464:\n              pop\n                /* \"#utility.yul\":3775:4155   */\n              swap2\n              swap1\n              pop\n              jump\t// out\n                /* \"#utility.yul\":4160:4287   */\n            tag_431:\n                /* \"#utility.yul\":4221:4231   */\n              0x4e487b71\n                /* \"#utility.yul\":4216:4219   */\n              0xe0\n                /* \"#utility.yul\":4212:4232   */\n              shl\n                /* \"#utility.yul\":4209:4210   */\n              0x00\n                /* \"#utility.yul\":4202:4233   */\n              mstore\n                /* \"#utility.yul\":4252:4256   */\n              0x11\n                /* \"#utility.yul\":4249:4250   */\n              0x04\n                /* \"#utility.yul\":4242:4257   */\n              mstore\n                /* \"#utility.yul\":4276:4280   */\n              0x24\n                /* \"#utility.yul\":4273:4274   */\n              0x00\n                /* \"#utility.yul\":4266:4281   */\n              revert\n                /* \"#utility.yul\":4292:4420   */\n            tag_201:\n                /* \"#utility.yul\":4359:4368   */\n              dup2\n              dup2\n              sub\n                /* \"#utility.yul\":4380:4391   */\n              dup2\n              dup2\n              gt\n                /* \"#utility.yul\":4377:4414   */\n              iszero\n              tag_188\n              jumpi\n                /* \"#utility.yul\":4394:4412   */\n              tag_188\n              tag_431\n              jump\t// in\n                /* \"#utility.yul\":4425:4609   */\n            tag_227:\n                /* \"#utility.yul\":4495:4501   */\n              0x00\n                /* \"#utility.yul\":4548:4550   */\n              0x20\n                /* \"#utility.yul\":4536:4545   */\n              dup3\n                /* \"#utility.yul\":4527:4534   */\n              dup5\n                /* \"#utility.yul\":4523:4546   */\n              sub\n                /* \"#utility.yul\":4519:4551   */\n              slt\n                /* \"#utility.yul\":4516:4568   */\n              iszero\n              tag_470\n              jumpi\n                /* \"#utility.yul\":4564:4565   */\n              0x00\n                /* \"#utility.yul\":4561:4562   */\n              dup1\n                /* \"#utility.yul\":4554:4566   */\n              revert\n                /* \"#utility.yul\":4516:4568   */\n            tag_470:\n              pop\n                /* \"#utility.yul\":4587:4603   */\n              mload\n              swap2\n                /* \"#utility.yul\":4425:4609   */\n              swap1\n              pop\n              jump\t// out\n                /* \"#utility.yul\":4614:4782   */\n            tag_236:\n                /* \"#utility.yul\":4687:4696   */\n              dup1\n              dup3\n              mul\n                /* \"#utility.yul\":4718:4727   */\n              dup2\n              iszero\n                /* \"#utility.yul\":4735:4750   */\n              dup3\n              dup3\n              div\n                /* \"#utility.yul\":4729:4751   */\n              dup5\n              eq\n                /* \"#utility.yul\":4715:4752   */\n              or\n                /* \"#utility.yul\":4705:4776   */\n              tag_188\n              jumpi\n                /* \"#utility.yul\":4756:4774   */\n              tag_188\n              tag_431\n              jump\t// in\n                /* \"#utility.yul\":4787:5004   */\n            tag_238:\n                /* \"#utility.yul\":4827:4828   */\n              0x00\n                /* \"#utility.yul\":4853:4854   */\n              dup3\n                /* \"#utility.yul\":4843:4975   */\n              tag_475\n              jumpi\n                /* \"#utility.yul\":4897:4907   */\n              0x4e487b71\n                /* \"#utility.yul\":4892:4895   */\n              0xe0\n                /* \"#utility.yul\":4888:4908   */\n              shl\n                /* \"#utility.yul\":4885:4886   */\n              0x00\n                /* \"#utility.yul\":4878:4909   */\n              mstore\n                /* \"#utility.yul\":4932:4936   */\n              0x12\n                /* \"#utility.yul\":4929:4930   */\n              0x04\n                /* \"#utility.yul\":4922:4937   */\n              mstore\n                /* \"#utility.yul\":4960:4964   */\n              0x24\n                /* \"#utility.yul\":4957:4958   */\n              0x00\n                /* \"#utility.yul\":4950:4965   */\n              revert\n                /* \"#utility.yul\":4843:4975   */\n            tag_475:\n              pop\n                /* \"#utility.yul\":4989:4998   */\n              div\n              swap1\n                /* \"#utility.yul\":4787:5004   */\n              jump\t// out\n                /* \"#utility.yul\":5678:5803   */\n            tag_263:\n                /* \"#utility.yul\":5743:5752   */\n              dup1\n              dup3\n              add\n                /* \"#utility.yul\":5764:5774   */\n              dup1\n              dup3\n              gt\n                /* \"#utility.yul\":5761:5797   */\n              iszero\n              tag_188\n              jumpi\n                /* \"#utility.yul\":5777:5795   */\n              tag_188\n              tag_431\n              jump\t// in\n                /* \"#utility.yul\":7908:8159   */\n            tag_363:\n                /* \"#utility.yul\":7978:7984   */\n              0x00\n                /* \"#utility.yul\":8031:8033   */\n              0x20\n                /* \"#utility.yul\":8019:8028   */\n              dup3\n                /* \"#utility.yul\":8010:8017   */\n              dup5\n                /* \"#utility.yul\":8006:8029   */\n              sub\n                /* \"#utility.yul\":8002:8034   */\n              slt\n                /* \"#utility.yul\":7999:8051   */\n              iszero\n              tag_488\n              jumpi\n                /* \"#utility.yul\":8047:8048   */\n              0x00\n                /* \"#utility.yul\":8044:8045   */\n              dup1\n                /* \"#utility.yul\":8037:8049   */\n              revert\n                /* \"#utility.yul\":7999:8051   */\n            tag_488:\n                /* \"#utility.yul\":8079:8088   */\n              dup2\n                /* \"#utility.yul\":8073:8089   */\n              mload\n                /* \"#utility.yul\":8098:8129   */\n              tag_453\n                /* \"#utility.yul\":8123:8128   */\n              dup2\n                /* \"#utility.yul\":8098:8129   */\n              tag_430\n              jump\t// in\n                /* \"#utility.yul\":8164:8441   */\n            tag_381:\n                /* \"#utility.yul\":8231:8237   */\n              0x00\n                /* \"#utility.yul\":8284:8286   */\n              0x20\n                /* \"#utility.yul\":8272:8281   */\n              dup3\n                /* \"#utility.yul\":8263:8270   */\n              dup5\n                /* \"#utility.yul\":8259:8282   */\n              sub\n                /* \"#utility.yul\":8255:8287   */\n              slt\n                /* \"#utility.yul\":8252:8304   */\n              iszero\n              tag_491\n              jumpi\n                /* \"#utility.yul\":8300:8301   */\n              0x00\n                /* \"#utility.yul\":8297:8298   */\n              dup1\n                /* \"#utility.yul\":8290:8302   */\n              revert\n                /* \"#utility.yul\":8252:8304   */\n            tag_491:\n                /* \"#utility.yul\":8332:8341   */\n              dup2\n                /* \"#utility.yul\":8326:8342   */\n              mload\n                /* \"#utility.yul\":8385:8390   */\n              dup1\n                /* \"#utility.yul\":8378:8391   */\n              iszero\n                /* \"#utility.yul\":8371:8392   */\n              iszero\n                /* \"#utility.yul\":8364:8369   */\n              dup2\n                /* \"#utility.yul\":8361:8393   */\n              eq\n                /* \"#utility.yul\":8351:8411   */\n              tag_453\n              jumpi\n                /* \"#utility.yul\":8407:8408   */\n              0x00\n                /* \"#utility.yul\":8404:8405   */\n              dup1\n                /* \"#utility.yul\":8397:8409   */\n              revert\n                /* \"#utility.yul\":9211:9517   */\n            tag_389:\n                /* \"#utility.yul\":9299:9305   */\n              0x00\n                /* \"#utility.yul\":9307:9313   */\n              dup1\n                /* \"#utility.yul\":9315:9321   */\n              0x00\n                /* \"#utility.yul\":9368:9370   */\n              0x60\n                /* \"#utility.yul\":9356:9365   */\n              dup5\n                /* \"#utility.yul\":9347:9354   */\n              dup7\n                /* \"#utility.yul\":9343:9366   */\n              sub\n                /* \"#utility.yul\":9339:9371   */\n              slt\n                /* \"#utility.yul\":9336:9388   */\n              iszero\n              tag_495\n              jumpi\n                /* \"#utility.yul\":9384:9385   */\n              0x00\n                /* \"#utility.yul\":9381:9382   */\n              dup1\n                /* \"#utility.yul\":9374:9386   */\n              revert\n                /* \"#utility.yul\":9336:9388   */\n            tag_495:\n                /* \"#utility.yul\":9413:9422   */\n              dup4\n                /* \"#utility.yul\":9407:9423   */\n              mload\n                /* \"#utility.yul\":9397:9423   */\n              swap3\n              pop\n                /* \"#utility.yul\":9463:9465   */\n              0x20\n                /* \"#utility.yul\":9452:9461   */\n              dup5\n                /* \"#utility.yul\":9448:9466   */\n              add\n                /* \"#utility.yul\":9442:9467   */\n              mload\n                /* \"#utility.yul\":9432:9467   */\n              swap2\n              pop\n                /* \"#utility.yul\":9507:9509   */\n              0x40\n                /* \"#utility.yul\":9496:9505   */\n              dup5\n                /* \"#utility.yul\":9492:9510   */\n              add\n                /* \"#utility.yul\":9486:9511   */\n              mload\n                /* \"#utility.yul\":9476:9511   */\n              swap1\n              pop\n                /* \"#utility.yul\":9211:9517   */\n              swap3\n              pop\n              swap3\n              pop\n              swap3\n              jump\t// out\n\n            auxdata: 0xa26469706673582212202d375e4a54cac2b0a87fafe4dd3a3b48af58b8280929e6a1f94bf0f2bd91520f64736f6c63430008140033\n        }\n    }\n\n    auxdata: 0xa2646970667358221220c2cc37a4c60f671af1f665f74f64d197a2eb8bf642b57bd32a14825d39ff5f0f64736f6c63430008140033\n}\n",
				"bytecode": {
					"linkReferences": {},
					"object": "608060405234801561000f575f80fd5b50338061003557604051631e4fbdf760e01b81525f600482015260240160405180910390fd5b61003e81610044565b50610093565b5f80546001600160a01b038381166001600160a01b0319831681178455604051919092169283917f8be0079c531659141344cd1fd0a4f28419497f9722a3daafe3b4186f6b6457e09190a35050565b612440806100a05f395ff3fe608060405234801562000010575f80fd5b506004361062000050575f3560e01c8063715018a614620000545780637aa088ee14620000605780638da5cb5b1462000093578063f2fde38b14620000a4575b5f80fd5b6200005e620000bb565b005b620000776200007136600462000306565b620000d2565b6040516001600160a01b03909116815260200160405180910390f35b5f546001600160a01b031662000077565b6200005e620000b5366004620003c8565b62000173565b620000c5620001ba565b620000d05f620001e8565b565b5f620000dd620001ba565b5f8a8a338b8b8b8b8b8b8b604051620000f69062000237565b6200010b9a9998979695949392919062000430565b604051809103905ff08015801562000125573d5f803e3d5ffd5b506040516001600160a01b03821681529091507f2e2b3f61b70d2d131b2a807371103cc98d51adcaa5e9a8f9c32658ad8426e74e9060200160405180910390a19a9950505050505050505050565b6200017d620001ba565b6001600160a01b038116620001ac57604051631e4fbdf760e01b81525f60048201526024015b60405180910390fd5b620001b781620001e8565b50565b5f546001600160a01b03163314620000d05760405163118cdaa760e01b8152336004820152602401620001a3565b5f80546001600160a01b038381166001600160a01b0319831681178455604051919092169283917f8be0079c531659141344cd1fd0a4f28419497f9722a3daafe3b4186f6b6457e09190a35050565b611f5d80620004ae83390190565b634e487b7160e01b5f52604160045260245ffd5b5f82601f83011262000269575f80fd5b813567ffffffffffffffff8082111562000287576200028762000245565b604051601f8301601f19908116603f01168101908282118183101715620002b257620002b262000245565b81604052838152866020858801011115620002cb575f80fd5b836020870160208301375f602085830101528094505050505092915050565b80356001600160a01b038116811462000301575f80fd5b919050565b5f805f805f805f805f6101208a8c03121562000320575f80fd5b893567ffffffffffffffff8082111562000338575f80fd5b620003468d838e0162000259565b9a5060208c01359150808211156200035c575f80fd5b506200036b8c828d0162000259565b9850506200037c60408b01620002ea565b965060608a0135955060808a0135945060a08a0135935060c08a01359250620003a860e08b01620002ea565b9150620003b96101008b01620002ea565b90509295985092959850929598565b5f60208284031215620003d9575f80fd5b620003e482620002ea565b9392505050565b5f81518084525f5b818110156200041157602081850181015186830182015201620003f3565b505f602082860101526020601f19601f83011685010191505092915050565b5f610140808352620004458184018e620003eb565b905082810360208401526200045b818d620003eb565b6001600160a01b039b8c166040850152998b1660608401525050608081019690965260a086019490945260c085019290925260e08401528416610100830152909216610120909201919091529291505056fe61014060405234801562000011575f80fd5b5060405162001f5d38038062001f5d833981016040819052620000349162000235565b338a8a600362000045838262000396565b50600462000054828262000396565b5050506001600160a01b0381166200008557604051631e4fbdf760e01b81525f600482015260240160405180910390fd5b62000090816200010a565b5060016006556001600160a01b0387166080526007869055600885905560a086905260c0849052620000c385876200045e565b60e0526009849055600b8390556001600160a01b0380831661010052811661012052600c805460ff19169055620000fa886200010a565b5050505050505050505062000488565b600580546001600160a01b038381166001600160a01b0319831681179093556040519116919082907f8be0079c531659141344cd1fd0a4f28419497f9722a3daafe3b4186f6b6457e0905f90a35050565b634e487b7160e01b5f52604160045260245ffd5b5f82601f8301126200017f575f80fd5b81516001600160401b03808211156200019c576200019c6200015b565b604051601f8301601f19908116603f01168101908282118183101715620001c757620001c76200015b565b81604052838152602092508683858801011115620001e3575f80fd5b5f91505b83821015620002065785820183015181830184015290820190620001e7565b5f93810190920192909252949350505050565b80516001600160a01b038116811462000230575f80fd5b919050565b5f805f805f805f805f806101408b8d03121562000250575f80fd5b8a516001600160401b038082111562000267575f80fd5b620002758e838f016200016f565b9b5060208d01519150808211156200028b575f80fd5b506200029a8d828e016200016f565b995050620002ab60408c0162000219565b9750620002bb60608c0162000219565b965060808b0151955060a08b0151945060c08b0151935060e08b01519250620002e86101008c0162000219565b9150620002f96101208c0162000219565b90509295989b9194979a5092959850565b600181811c908216806200031f57607f821691505b6020821081036200033e57634e487b7160e01b5f52602260045260245ffd5b50919050565b601f82111562000391575f81815260208120601f850160051c810160208610156200036c5750805b601f850160051c820191505b818110156200038d5782815560010162000378565b5050505b505050565b81516001600160401b03811115620003b257620003b26200015b565b620003ca81620003c384546200030a565b8462000344565b602080601f83116001811462000400575f8415620003e85750858301515b5f19600386901b1c1916600185901b1785556200038d565b5f85815260208120601f198616915b8281101562000430578886015182559484019460019091019084016200040f565b50858210156200044e57878501515f19600388901b60f8161c191681555b5050505050600190811b01905550565b80820281158282048414176200048257634e487b7160e01b5f52601160045260245ffd5b92915050565b60805160a05160c05160e0516101005161012051611a016200055c5f395f81816104be01528181611047015261110701525f81816103dc015281816111df0152818161121b01526112b901525f818161048b01528181610a690152610c1c01525f818161058c01526108e601525f818161034201526108b901525f81816105de015281816106f10152818161077e015281816107fe0152818161083a015281816109d601528181610b8201528181610ca80152818161101d015281816110df0152818161124a01526112e90152611a015ff3fe6080604052600436106101c8575f3560e01c806371a18bfb116100f2578063bef28f9111610092578063e7c2b77211610062578063e7c2b77214610562578063ee74daef1461057b578063f2fde38b146105ae578063f4325d67146105cd575f80fd5b8063bef28f91146104ad578063d96a094a146104e0578063dd62ed3e146104ff578063e4849b3214610543575f80fd5b80638da5cb5b116100cd5780638da5cb5b1461042a57806395d89b4114610447578063a9059cbb1461045b578063b4f40c611461047a575f80fd5b806371a18bfb146103ac5780637ed3d924146103cb578063897802dc14610416575f80fd5b8063313ce5671161016857806357e2dd0c1161013857806357e2dd0c1461031c5780635e4194dd1461033157806370a0823114610364578063715018a614610398575f80fd5b8063313ce567146102b857806331f4ffc0146102d3578063343ee3b7146102e857806352f5b3ef146102fd575f80fd5b806318160ddd116101a357806318160ddd1461024f5780631c58ce141461026357806321557e341461028457806323b872dd14610299575f80fd5b806306fdde03146101d3578063092bc24e146101fd578063095ea7b314610220575f80fd5b366101cf57005b5f80fd5b3480156101de575f80fd5b506101e7610600565b6040516101f49190611770565b60405180910390f35b348015610208575f80fd5b50610212600a5481565b6040519081526020016101f4565b34801561022b575f80fd5b5061023f61023a3660046117cf565b610690565b60405190151581526020016101f4565b34801561025a575f80fd5b50600254610212565b34801561026e575f80fd5b5061028261027d3660046117cf565b6106a9565b005b34801561028f575f80fd5b5061021260085481565b3480156102a4575f80fd5b5061023f6102b33660046117f9565b61071c565b3480156102c3575f80fd5b50604051601281526020016101f4565b3480156102de575f80fd5b5061021260095481565b3480156102f3575f80fd5b5061021260075481565b348015610308575f80fd5b50610282610317366004611837565b61073f565b348015610327575f80fd5b50610212600b5481565b34801561033c575f80fd5b506102127f000000000000000000000000000000000000000000000000000000000000000081565b34801561036f575f80fd5b5061021261037e36600461184e565b6001600160a01b03165f9081526020819052604090205490565b3480156103a3575f80fd5b5061028261074c565b3480156103b7575f80fd5b506102826103c636600461184e565b61075f565b3480156103d6575f80fd5b506103fe7f000000000000000000000000000000000000000000000000000000000000000081565b6040516001600160a01b0390911681526020016101f4565b348015610421575f80fd5b506102126108b2565b348015610435575f80fd5b506005546001600160a01b03166103fe565b348015610452575f80fd5b506101e7610928565b348015610466575f80fd5b5061023f6104753660046117cf565b610937565b348015610485575f80fd5b506102127f000000000000000000000000000000000000000000000000000000000000000081565b3480156104b8575f80fd5b506103fe7f000000000000000000000000000000000000000000000000000000000000000081565b3480156104eb575f80fd5b506102126104fa366004611837565b610944565b34801561050a575f80fd5b50610212610519366004611870565b6001600160a01b039182165f90815260016020908152604080832093909416825291909152205490565b34801561054e575f80fd5b5061021261055d366004611837565b610bc0565b34801561056d575f80fd5b50600c5461023f9060ff1681565b348015610586575f80fd5b506102127f000000000000000000000000000000000000000000000000000000000000000081565b3480156105b9575f80fd5b506102826105c836600461184e565b610d26565b3480156105d8575f80fd5b506103fe7f000000000000000000000000000000000000000000000000000000000000000081565b60606003805461060f906118a7565b80601f016020809104026020016040519081016040528092919081815260200182805461063b906118a7565b80156106865780601f1061065d57610100808354040283529160200191610686565b820191905f5260205f20905b81548152906001019060200180831161066957829003601f168201915b5050505050905090565b5f3361069d818585610d63565b60019150505b92915050565b6106b1610d75565b600c5460ff166106bf575f80fd5b600a548111156106cd575f80fd5b80600a5f8282546106de91906118f3565b9091555061071890506001600160a01b037f0000000000000000000000000000000000000000000000000000000000000000168383610da2565b5050565b5f33610729858285610e01565b610734858585610e7d565b506001949350505050565b610747610d75565b600b55565b610754610d75565b61075d5f610eda565b565b610767610d75565b6040516370a0823160e01b81523060048201525f907f00000000000000000000000000000000000000000000000000000000000000006001600160a01b0316906370a0823190602401602060405180830381865afa1580156107cb573d5f803e3d5ffd5b505050506040513d601f19601f820116820180604052508101906107ef9190611906565b90506108256001600160a01b037f0000000000000000000000000000000000000000000000000000000000000000168383610da2565b6040516370a0823160e01b81523060048201527f00000000000000000000000000000000000000000000000000000000000000006001600160a01b0316906370a0823190602401602060405180830381865afa158015610887573d5f803e3d5ffd5b505050506040513d601f19601f820116820180604052508101906108ab9190611906565b600a555050565b5f806007547f00000000000000000000000000000000000000000000000000000000000000006108e291906118f3565b90507f00000000000000000000000000000000000000000000000000000000000000006109188268056bc75e2d6310000061191d565b6109229190611934565b91505090565b60606004805461060f906118a7565b5f3361069d818585610e7d565b5f61094d610f2b565b600c5460ff16156109915760405162461bcd60e51b815260206004820152600960248201526819dc98591d585d195960ba1b60448201526064015b60405180910390fd5b5f82116109c95760405162461bcd60e51b8152600401610988906020808252600490820152637a65726f60e01b604082015260600190565b6109fe6001600160a01b037f000000000000000000000000000000000000000000000000000000000000000016333085610f84565b600c54829060ff16158015610a225750600b5481600a54610a1f9190611953565b10155b15610a3a57600a54600b54610a3791906118f3565b90505b80600a5f828254610a4b9190611953565b90915550506008545f90610a60908390611953565b90505f610a8d827f0000000000000000000000000000000000000000000000000000000000000000611934565b90505f8160075411610aa157600754610aaf565b81600754610aaf91906118f3565b6009549091508190811115610ac357506009545b600884905560078390558015610af4578060095f828254610ae491906118f3565b90915550610af490503382610fbd565b6040805133815260208101879052908101829052606081018390527fedba86fd2b22962d534e70ad9b0ff8730de46f636146f2bab6a72cbb1ebbcc539060800160405180910390a1600c5460ff16158015610b535750600b54600a5410155b15610b6057610b60610ff1565b84871115610bab575f610b7386896118f3565b9050610ba96001600160a01b037f0000000000000000000000000000000000000000000000000000000000000000163383610da2565b505b945050505050610bbb6001600655565b919050565b5f610bc9610f2b565b600c5460ff1615610bd8575f80fd5b5f8211610be3575f80fd5b5f610bef333085611454565b905080610bfa575f80fd5b610c0430846114d8565b5f83600754610c139190611953565b90505f610c40827f0000000000000000000000000000000000000000000000000000000000000000611934565b90505f81600854610c5191906118f3565b60078490556008839055600a54909150811115610c6c575f80fd5b80600a5f828254610c7d91906118f3565b925050819055508560095f828254610c959190611953565b90915550610ccf90506001600160a01b037f0000000000000000000000000000000000000000000000000000000000000000163383610da2565b6040805133815260208101889052908101829052606081018790527fe029f26dbcf8c42dd2f352c10214a7fc26773dc62482c6241334a0402ac09a809060800160405180910390a19350505050610bbb6001600655565b610d2e610d75565b6001600160a01b038116610d5757604051631e4fbdf760e01b81525f6004820152602401610988565b610d6081610eda565b50565b610d70838383600161150c565b505050565b6005546001600160a01b0316331461075d5760405163118cdaa760e01b8152336004820152602401610988565b6040516001600160a01b03838116602483015260448201839052610d7091859182169063a9059cbb906064015b604051602081830303815290604052915060e01b6020820180516001600160e01b0383818316178352505050506115de565b6001600160a01b038381165f908152600160209081526040808320938616835292905220545f19811015610e775781811015610e6957604051637dc7a0d960e11b81526001600160a01b03841660048201526024810182905260448101839052606401610988565b610e7784848484035f61150c565b50505050565b6001600160a01b038316610ea657604051634b637e8f60e11b81525f6004820152602401610988565b6001600160a01b038216610ecf5760405163ec442f0560e01b81525f6004820152602401610988565b610d7083838361164a565b600580546001600160a01b038381166001600160a01b0319831681179093556040519116919082907f8be0079c531659141344cd1fd0a4f28419497f9722a3daafe3b4186f6b6457e0905f90a35050565b600260065403610f7d5760405162461bcd60e51b815260206004820152601f60248201527f5265656e7472616e637947756172643a207265656e7472616e742063616c6c006044820152606401610988565b6002600655565b6040516001600160a01b038481166024830152838116604483015260648201839052610e779186918216906323b872dd90608401610dcf565b6001600160a01b038216610fe65760405163ec442f0560e01b81525f6004820152602401610988565b6107185f838361164a565b600c5460ff1615611000575f80fd5b60405163e6a4390560e01b81523060048201526001600160a01b037f0000000000000000000000000000000000000000000000000000000000000000811660248301525f917f00000000000000000000000000000000000000000000000000000000000000009091169063e6a4390590604401602060405180830381865afa15801561108e573d5f803e3d5ffd5b505050506040513d601f19601f820116820180604052508101906110b29190611966565b90506001600160a01b038116611174576040516364e329cb60e11b81523060048201526001600160a01b037f0000000000000000000000000000000000000000000000000000000000000000811660248301527f0000000000000000000000000000000000000000000000000000000000000000169063c9c65396906044016020604051808303815f875af115801561114d573d5f803e3d5ffd5b505050506040513d601f19601f820116820180604052508101906111719190611966565b90505b600a5480611180575f80fd5b5f60085460075483611192919061191d565b61119c9190611934565b90506009548111156111ad57506009545b5f81116111b8575f80fd5b8060095f8282546111c991906118f3565b909155506111d990503082610fbd565b611204307f000000000000000000000000000000000000000000000000000000000000000083610d63565b60405163095ea7b360e01b81526001600160a01b037f000000000000000000000000000000000000000000000000000000000000000081166004830152602482018490527f0000000000000000000000000000000000000000000000000000000000000000169063095ea7b3906044016020604051808303815f875af1158015611290573d5f803e3d5ffd5b505050506040513d601f19601f820116820180604052508101906112b49190611981565b505f807f00000000000000000000000000000000000000000000000000000000000000006001600160a01b031663e8e33700307f000000000000000000000000000000000000000000000000000000000000000086885f8061131e6005546001600160a01b031690565b61132a42610708611953565b60405160e08a901b6001600160e01b03191681526001600160a01b039889166004820152968816602488015260448701959095526064860193909352608485019190915260a484015290921660c482015260e4810191909152610104016060604051808303815f875af11580156113a3573d5f803e3d5ffd5b505050506040513d601f19601f820116820180604052508101906113c791906119a0565b5091509150600a5481116113f15780600a5f8282546113e691906118f3565b909155506113f69050565b5f600a555b600c805460ff19166001179055604080516001600160a01b0387168152602081018490529081018290527f1c858049e704460ab9455025be4078f9e746e3fd426a56040d06389edb8197db9060600160405180910390a15050505050565b6040516323b872dd60e01b81526001600160a01b03808516600483015283166024820152604481018290525f90819030906323b872dd906064016020604051808303815f875af19250505080156114c8575060408051601f3d908101601f191682019092526114c591810190611981565b60015b156114d05790505b949350505050565b6001600160a01b03821661150157604051634b637e8f60e11b81525f6004820152602401610988565b610718825f8361164a565b6001600160a01b0384166115355760405163e602df0560e01b81525f6004820152602401610988565b6001600160a01b03831661155e57604051634a1406b160e11b81525f6004820152602401610988565b6001600160a01b038085165f9081526001602090815260408083209387168352929052208290558015610e7757826001600160a01b0316846001600160a01b03167f8c5be1e5ebec7d5bd14f71427d1e84f3dd0314c0f7b2291e5b200ac8c7c3b925846040516115d091815260200190565b60405180910390a350505050565b5f8060205f8451602086015f885af1806115fd576040513d5f823e3d81fd5b50505f513d91508115611614578060011415611621565b6001600160a01b0384163b155b15610e7757604051635274afe760e01b81526001600160a01b0385166004820152602401610988565b6001600160a01b038316611674578060025f8282546116699190611953565b909155506116e49050565b6001600160a01b0383165f90815260208190526040902054818110156116c65760405163391434e360e21b81526001600160a01b03851660048201526024810182905260448101839052606401610988565b6001600160a01b0384165f9081526020819052604090209082900390555b6001600160a01b0382166117005760028054829003905561171e565b6001600160a01b0382165f9081526020819052604090208054820190555b816001600160a01b0316836001600160a01b03167fddf252ad1be2c89b69c2b068fc378daa952ba7f163c4a11628f55a4df523b3ef8360405161176391815260200190565b60405180910390a3505050565b5f6020808352835180828501525f5b8181101561179b5785810183015185820160400152820161177f565b505f604082860101526040601f19601f8301168501019250505092915050565b6001600160a01b0381168114610d60575f80fd5b5f80604083850312156117e0575f80fd5b82356117eb816117bb565b946020939093013593505050565b5f805f6060848603121561180b575f80fd5b8335611816816117bb565b92506020840135611826816117bb565b929592945050506040919091013590565b5f60208284031215611847575f80fd5b5035919050565b5f6020828403121561185e575f80fd5b8135611869816117bb565b9392505050565b5f8060408385031215611881575f80fd5b823561188c816117bb565b9150602083013561189c816117bb565b809150509250929050565b600181811c908216806118bb57607f821691505b6020821081036118d957634e487b7160e01b5f52602260045260245ffd5b50919050565b634e487b7160e01b5f52601160045260245ffd5b818103818111156106a3576106a36118df565b5f60208284031215611916575f80fd5b5051919050565b80820281158282048414176106a3576106a36118df565b5f8261194e57634e487b7160e01b5f52601260045260245ffd5b500490565b808201808211156106a3576106a36118df565b5f60208284031215611976575f80fd5b8151611869816117bb565b5f60208284031215611991575f80fd5b81518015158114611869575f80fd5b5f805f606084860312156119b2575f80fd5b835192506020840151915060408401519050925092509256fea26469706673582212202d375e4a54cac2b0a87fafe4dd3a3b48af58b8280929e6a1f94bf0f2bd91520f64736f6c63430008140033a2646970667358221220c2cc37a4c60f671af1f665f74f64d197a2eb8bf642b57bd32a14825d39ff5f0f64736f6c63430008140033",
					"opcodes": "PUSH1 0x80 PUSH1 0x40 MSTORE CALLVALUE DUP1 ISZERO PUSH2 0xF JUMPI PUSH0 DUP1 REVERT JUMPDEST POP CALLER DUP1 PUSH2 0x35 JUMPI PUSH1 0x40 MLOAD PUSH4 0x1E4FBDF7 PUSH1 0xE0 SHL DUP2 MSTORE PUSH0 PUSH1 0x4 DUP3 ADD MSTORE PUSH1 0x24 ADD PUSH1 0x40 MLOAD DUP1 SWAP2 SUB SWAP1 REVERT JUMPDEST PUSH2 0x3E DUP2 PUSH2 0x44 JUMP JUMPDEST POP PUSH2 0x93 JUMP JUMPDEST PUSH0 DUP1 SLOAD PUSH1 0x1 PUSH1 0x1 PUSH1 0xA0 SHL SUB DUP4 DUP2 AND PUSH1 0x1 PUSH1 0x1 PUSH1 0xA0 SHL SUB NOT DUP4 AND DUP2 OR DUP5 SSTORE PUSH1 0x40 MLOAD SWAP2 SWAP1 SWAP3 AND SWAP3 DUP4 SWAP2 PUSH32 0x8BE0079C531659141344CD1FD0A4F28419497F9722A3DAAFE3B4186F6B6457E0 SWAP2 SWAP1 LOG3 POP POP JUMP JUMPDEST PUSH2 0x2440 DUP1 PUSH2 0xA0 PUSH0 CODECOPY PUSH0 RETURN INVALID PUSH1 0x80 PUSH1 0x40 MSTORE CALLVALUE DUP1 ISZERO PUSH3 0x10 JUMPI PUSH0 DUP1 REVERT JUMPDEST POP PUSH1 0x4 CALLDATASIZE LT PUSH3 0x50 JUMPI PUSH0 CALLDATALOAD PUSH1 0xE0 SHR DUP1 PUSH4 0x715018A6 EQ PUSH3 0x54 JUMPI DUP1 PUSH4 0x7AA088EE EQ PUSH3 0x60 JUMPI DUP1 PUSH4 0x8DA5CB5B EQ PUSH3 0x93 JUMPI DUP1 PUSH4 0xF2FDE38B EQ PUSH3 0xA4 JUMPI JUMPDEST PUSH0 DUP1 REVERT JUMPDEST PUSH3 0x5E PUSH3 0xBB JUMP JUMPDEST STOP JUMPDEST PUSH3 0x77 PUSH3 0x71 CALLDATASIZE PUSH1 0x4 PUSH3 0x306 JUMP JUMPDEST PUSH3 0xD2 JUMP JUMPDEST PUSH1 0x40 MLOAD PUSH1 0x1 PUSH1 0x1 PUSH1 0xA0 SHL SUB SWAP1 SWAP2 AND DUP2 MSTORE PUSH1 0x20 ADD PUSH1 0x40 MLOAD DUP1 SWAP2 SUB SWAP1 RETURN JUMPDEST PUSH0 SLOAD PUSH1 0x1 PUSH1 0x1 PUSH1 0xA0 SHL SUB AND PUSH3 0x77 JUMP JUMPDEST PUSH3 0x5E PUSH3 0xB5 CALLDATASIZE PUSH1 0x4 PUSH3 0x3C8 JUMP JUMPDEST PUSH3 0x173 JUMP JUMPDEST PUSH3 0xC5 PUSH3 0x1BA JUMP JUMPDEST PUSH3 0xD0 PUSH0 PUSH3 0x1E8 JUMP JUMPDEST JUMP JUMPDEST PUSH0 PUSH3 0xDD PUSH3 0x1BA JUMP JUMPDEST PUSH0 DUP11 DUP11 CALLER DUP12 DUP12 DUP12 DUP12 DUP12 DUP12 DUP12 PUSH1 0x40 MLOAD PUSH3 0xF6 SWAP1 PUSH3 0x237 JUMP JUMPDEST PUSH3 0x10B SWAP11 SWAP10 SWAP9 SWAP8 SWAP7 SWAP6 SWAP5 SWAP4 SWAP3 SWAP2 SWAP1 PUSH3 0x430 JUMP JUMPDEST PUSH1 0x40 MLOAD DUP1 SWAP2 SUB SWAP1 PUSH0 CREATE DUP1 ISZERO DUP1 ISZERO PUSH3 0x125 JUMPI RETURNDATASIZE PUSH0 DUP1 RETURNDATACOPY RETURNDATASIZE PUSH0 REVERT JUMPDEST POP PUSH1 0x40 MLOAD PUSH1 0x1 PUSH1 0x1 PUSH1 0xA0 SHL SUB DUP3 AND DUP2 MSTORE SWAP1 SWAP2 POP PUSH32 0x2E2B3F61B70D2D131B2A807371103CC98D51ADCAA5E9A8F9C32658AD8426E74E SWAP1 PUSH1 0x20 ADD PUSH1 0x40 MLOAD DUP1 SWAP2 SUB SWAP1 LOG1 SWAP11 SWAP10 POP POP POP POP POP POP POP POP POP POP JUMP JUMPDEST PUSH3 0x17D PUSH3 0x1BA JUMP JUMPDEST PUSH1 0x1 PUSH1 0x1 PUSH1 0xA0 SHL SUB DUP2 AND PUSH3 0x1AC JUMPI PUSH1 0x40 MLOAD PUSH4 0x1E4FBDF7 PUSH1 0xE0 SHL DUP2 MSTORE PUSH0 PUSH1 0x4 DUP3 ADD MSTORE PUSH1 0x24 ADD JUMPDEST PUSH1 0x40 MLOAD DUP1 SWAP2 SUB SWAP1 REVERT JUMPDEST PUSH3 0x1B7 DUP2 PUSH3 0x1E8 JUMP JUMPDEST POP JUMP JUMPDEST PUSH0 SLOAD PUSH1 0x1 PUSH1 0x1 PUSH1 0xA0 SHL SUB AND CALLER EQ PUSH3 0xD0 JUMPI PUSH1 0x40 MLOAD PUSH4 0x118CDAA7 PUSH1 0xE0 SHL DUP2 MSTORE CALLER PUSH1 0x4 DUP3 ADD MSTORE PUSH1 0x24 ADD PUSH3 0x1A3 JUMP JUMPDEST PUSH0 DUP1 SLOAD PUSH1 0x1 PUSH1 0x1 PUSH1 0xA0 SHL SUB DUP4 DUP2 AND PUSH1 0x1 PUSH1 0x1 PUSH1 0xA0 SHL SUB NOT DUP4 AND DUP2 OR DUP5 SSTORE PUSH1 0x40 MLOAD SWAP2 SWAP1 SWAP3 AND SWAP3 DUP4 SWAP2 PUSH32 0x8BE0079C531659141344CD1FD0A4F28419497F9722A3DAAFE3B4186F6B6457E0 SWAP2 SWAP1 LOG3 POP POP JUMP JUMPDEST PUSH2 0x1F5D DUP1 PUSH3 0x4AE DUP4 CODECOPY ADD SWAP1 JUMP JUMPDEST PUSH4 0x4E487B71 PUSH1 0xE0 SHL PUSH0 MSTORE PUSH1 0x41 PUSH1 0x4 MSTORE PUSH1 0x24 PUSH0 REVERT JUMPDEST PUSH0 DUP3 PUSH1 0x1F DUP4 ADD SLT PUSH3 0x269 JUMPI PUSH0 DUP1 REVERT JUMPDEST DUP2 CALLDATALOAD PUSH8 0xFFFFFFFFFFFFFFFF DUP1 DUP3 GT ISZERO PUSH3 0x287 JUMPI PUSH3 0x287 PUSH3 0x245 JUMP JUMPDEST PUSH1 0x40 MLOAD PUSH1 0x1F DUP4 ADD PUSH1 0x1F NOT SWAP1 DUP2 AND PUSH1 0x3F ADD AND DUP2 ADD SWAP1 DUP3 DUP3 GT DUP2 DUP4 LT OR ISZERO PUSH3 0x2B2 JUMPI PUSH3 0x2B2 PUSH3 0x245 JUMP JUMPDEST DUP2 PUSH1 0x40 MSTORE DUP4 DUP2 MSTORE DUP7 PUSH1 0x20 DUP6 DUP9 ADD ADD GT ISZERO PUSH3 0x2CB JUMPI PUSH0 DUP1 REVERT JUMPDEST DUP4 PUSH1 0x20 DUP8 ADD PUSH1 0x20 DUP4 ADD CALLDATACOPY PUSH0 PUSH1 0x20 DUP6 DUP4 ADD ADD MSTORE DUP1 SWAP5 POP POP POP POP POP SWAP3 SWAP2 POP POP JUMP JUMPDEST DUP1 CALLDATALOAD PUSH1 0x1 PUSH1 0x1 PUSH1 0xA0 SHL SUB DUP2 AND DUP2 EQ PUSH3 0x301 JUMPI PUSH0 DUP1 REVERT JUMPDEST SWAP2 SWAP1 POP JUMP JUMPDEST PUSH0 DUP1 PUSH0 DUP1 PUSH0 DUP1 PUSH0 DUP1 PUSH0 PUSH2 0x120 DUP11 DUP13 SUB SLT ISZERO PUSH3 0x320 JUMPI PUSH0 DUP1 REVERT JUMPDEST DUP10 CALLDATALOAD PUSH8 0xFFFFFFFFFFFFFFFF DUP1 DUP3 GT ISZERO PUSH3 0x338 JUMPI PUSH0 DUP1 REVERT JUMPDEST PUSH3 0x346 DUP14 DUP4 DUP15 ADD PUSH3 0x259 JUMP JUMPDEST SWAP11 POP PUSH1 0x20 DUP13 ADD CALLDATALOAD SWAP2 POP DUP1 DUP3 GT ISZERO PUSH3 0x35C JUMPI PUSH0 DUP1 REVERT JUMPDEST POP PUSH3 0x36B DUP13 DUP3 DUP14 ADD PUSH3 0x259 JUMP JUMPDEST SWAP9 POP POP PUSH3 0x37C PUSH1 0x40 DUP12 ADD PUSH3 0x2EA JUMP JUMPDEST SWAP7 POP PUSH1 0x60 DUP11 ADD CALLDATALOAD SWAP6 POP PUSH1 0x80 DUP11 ADD CALLDATALOAD SWAP5 POP PUSH1 0xA0 DUP11 ADD CALLDATALOAD SWAP4 POP PUSH1 0xC0 DUP11 ADD CALLDATALOAD SWAP3 POP PUSH3 0x3A8 PUSH1 0xE0 DUP12 ADD PUSH3 0x2EA JUMP JUMPDEST SWAP2 POP PUSH3 0x3B9 PUSH2 0x100 DUP12 ADD PUSH3 0x2EA JUMP JUMPDEST SWAP1 POP SWAP3 SWAP6 SWAP9 POP SWAP3 SWAP6 SWAP9 POP SWAP3 SWAP6 SWAP9 JUMP JUMPDEST PUSH0 PUSH1 0x20 DUP3 DUP5 SUB SLT ISZERO PUSH3 0x3D9 JUMPI PUSH0 DUP1 REVERT JUMPDEST PUSH3 0x3E4 DUP3 PUSH3 0x2EA JUMP JUMPDEST SWAP4 SWAP3 POP POP POP JUMP JUMPDEST PUSH0 DUP2 MLOAD DUP1 DUP5 MSTORE PUSH0 JUMPDEST DUP2 DUP2 LT ISZERO PUSH3 0x411 JUMPI PUSH1 0x20 DUP2 DUP6 ADD DUP2 ADD MLOAD DUP7 DUP4 ADD DUP3 ADD MSTORE ADD PUSH3 0x3F3 JUMP JUMPDEST POP PUSH0 PUSH1 0x20 DUP3 DUP7 ADD ADD MSTORE PUSH1 0x20 PUSH1 0x1F NOT PUSH1 0x1F DUP4 ADD AND DUP6 ADD ADD SWAP2 POP POP SWAP3 SWAP2 POP POP JUMP JUMPDEST PUSH0 PUSH2 0x140 DUP1 DUP4 MSTORE PUSH3 0x445 DUP2 DUP5 ADD DUP15 PUSH3 0x3EB JUMP JUMPDEST SWAP1 POP DUP3 DUP2 SUB PUSH1 0x20 DUP5 ADD MSTORE PUSH3 0x45B DUP2 DUP14 PUSH3 0x3EB JUMP JUMPDEST PUSH1 0x1 PUSH1 0x1 PUSH1 0xA0 SHL SUB SWAP12 DUP13 AND PUSH1 0x40 DUP6 ADD MSTORE SWAP10 DUP12 AND PUSH1 0x60 DUP5 ADD MSTORE POP POP PUSH1 0x80 DUP2 ADD SWAP7 SWAP1 SWAP7 MSTORE PUSH1 0xA0 DUP7 ADD SWAP5 SWAP1 SWAP5 MSTORE PUSH1 0xC0 DUP6 ADD SWAP3 SWAP1 SWAP3 MSTORE PUSH1 0xE0 DUP5 ADD MSTORE DUP5 AND PUSH2 0x100 DUP4 ADD MSTORE SWAP1 SWAP3 AND PUSH2 0x120 SWAP1 SWAP3 ADD SWAP2 SWAP1 SWAP2 MSTORE SWAP3 SWAP2 POP POP JUMP INVALID PUSH2 0x140 PUSH1 0x40 MSTORE CALLVALUE DUP1 ISZERO PUSH3 0x11 JUMPI PUSH0 DUP1 REVERT JUMPDEST POP PUSH1 0x40 MLOAD PUSH3 0x1F5D CODESIZE SUB DUP1 PUSH3 0x1F5D DUP4 CODECOPY DUP2 ADD PUSH1 0x40 DUP2 SWAP1 MSTORE PUSH3 0x34 SWAP2 PUSH3 0x235 JUMP JUMPDEST CALLER DUP11 DUP11 PUSH1 0x3 PUSH3 0x45 DUP4 DUP3 PUSH3 0x396 JUMP JUMPDEST POP PUSH1 0x4 PUSH3 0x54 DUP3 DUP3 PUSH3 0x396 JUMP JUMPDEST POP POP POP PUSH1 0x1 PUSH1 0x1 PUSH1 0xA0 SHL SUB DUP2 AND PUSH3 0x85 JUMPI PUSH1 0x40 MLOAD PUSH4 0x1E4FBDF7 PUSH1 0xE0 SHL DUP2 MSTORE PUSH0 PUSH1 0x4 DUP3 ADD MSTORE PUSH1 0x24 ADD PUSH1 0x40 MLOAD DUP1 SWAP2 SUB SWAP1 REVERT JUMPDEST PUSH3 0x90 DUP2 PUSH3 0x10A JUMP JUMPDEST POP PUSH1 0x1 PUSH1 0x6 SSTORE PUSH1 0x1 PUSH1 0x1 PUSH1 0xA0 SHL SUB DUP8 AND PUSH1 0x80 MSTORE PUSH1 0x7 DUP7 SWAP1 SSTORE PUSH1 0x8 DUP6 SWAP1 SSTORE PUSH1 0xA0 DUP7 SWAP1 MSTORE PUSH1 0xC0 DUP5 SWAP1 MSTORE PUSH3 0xC3 DUP6 DUP8 PUSH3 0x45E JUMP JUMPDEST PUSH1 0xE0 MSTORE PUSH1 0x9 DUP5 SWAP1 SSTORE PUSH1 0xB DUP4 SWAP1 SSTORE PUSH1 0x1 PUSH1 0x1 PUSH1 0xA0 SHL SUB DUP1 DUP4 AND PUSH2 0x100 MSTORE DUP2 AND PUSH2 0x120 MSTORE PUSH1 0xC DUP1 SLOAD PUSH1 0xFF NOT AND SWAP1 SSTORE PUSH3 0xFA DUP9 PUSH3 0x10A JUMP JUMPDEST POP POP POP POP POP POP POP POP POP POP PUSH3 0x488 JUMP JUMPDEST PUSH1 0x5 DUP1 SLOAD PUSH1 0x1 PUSH1 0x1 PUSH1 0xA0 SHL SUB DUP4 DUP2 AND PUSH1 0x1 PUSH1 0x1 PUSH1 0xA0 SHL SUB NOT DUP4 AND DUP2 OR SWAP1 SWAP4 SSTORE PUSH1 0x40 MLOAD SWAP2 AND SWAP2 SWAP1 DUP3 SWAP1 PUSH32 0x8BE0079C531659141344CD1FD0A4F28419497F9722A3DAAFE3B4186F6B6457E0 SWAP1 PUSH0 SWAP1 LOG3 POP POP JUMP JUMPDEST PUSH4 0x4E487B71 PUSH1 0xE0 SHL PUSH0 MSTORE PUSH1 0x41 PUSH1 0x4 MSTORE PUSH1 0x24 PUSH0 REVERT JUMPDEST PUSH0 DUP3 PUSH1 0x1F DUP4 ADD SLT PUSH3 0x17F JUMPI PUSH0 DUP1 REVERT JUMPDEST DUP2 MLOAD PUSH1 0x1 PUSH1 0x1 PUSH1 0x40 SHL SUB DUP1 DUP3 GT ISZERO PUSH3 0x19C JUMPI PUSH3 0x19C PUSH3 0x15B JUMP JUMPDEST PUSH1 0x40 MLOAD PUSH1 0x1F DUP4 ADD PUSH1 0x1F NOT SWAP1 DUP2 AND PUSH1 0x3F ADD AND DUP2 ADD SWAP1 DUP3 DUP3 GT DUP2 DUP4 LT OR ISZERO PUSH3 0x1C7 JUMPI PUSH3 0x1C7 PUSH3 0x15B JUMP JUMPDEST DUP2 PUSH1 0x40 MSTORE DUP4 DUP2 MSTORE PUSH1 0x20 SWAP3 POP DUP7 DUP4 DUP6 DUP9 ADD ADD GT ISZERO PUSH3 0x1E3 JUMPI PUSH0 DUP1 REVERT JUMPDEST PUSH0 SWAP2 POP JUMPDEST DUP4 DUP3 LT ISZERO PUSH3 0x206 JUMPI DUP6 DUP3 ADD DUP4 ADD MLOAD DUP2 DUP4 ADD DUP5 ADD MSTORE SWAP1 DUP3 ADD SWAP1 PUSH3 0x1E7 JUMP JUMPDEST PUSH0 SWAP4 DUP2 ADD SWAP1 SWAP3 ADD SWAP3 SWAP1 SWAP3 MSTORE SWAP5 SWAP4 POP POP POP POP JUMP JUMPDEST DUP1 MLOAD PUSH1 0x1 PUSH1 0x1 PUSH1 0xA0 SHL SUB DUP2 AND DUP2 EQ PUSH3 0x230 JUMPI PUSH0 DUP1 REVERT JUMPDEST SWAP2 SWAP1 POP JUMP JUMPDEST PUSH0 DUP1 PUSH0 DUP1 PUSH0 DUP1 PUSH0 DUP1 PUSH0 DUP1 PUSH2 0x140 DUP12 DUP14 SUB SLT ISZERO PUSH3 0x250 JUMPI PUSH0 DUP1 REVERT JUMPDEST DUP11 MLOAD PUSH1 0x1 PUSH1 0x1 PUSH1 0x40 SHL SUB DUP1 DUP3 GT ISZERO PUSH3 0x267 JUMPI PUSH0 DUP1 REVERT JUMPDEST PUSH3 0x275 DUP15 DUP4 DUP16 ADD PUSH3 0x16F JUMP JUMPDEST SWAP12 POP PUSH1 0x20 DUP14 ADD MLOAD SWAP2 POP DUP1 DUP3 GT ISZERO PUSH3 0x28B JUMPI PUSH0 DUP1 REVERT JUMPDEST POP PUSH3 0x29A DUP14 DUP3 DUP15 ADD PUSH3 0x16F JUMP JUMPDEST SWAP10 POP POP PUSH3 0x2AB PUSH1 0x40 DUP13 ADD PUSH3 0x219 JUMP JUMPDEST SWAP8 POP PUSH3 0x2BB PUSH1 0x60 DUP13 ADD PUSH3 0x219 JUMP JUMPDEST SWAP7 POP PUSH1 0x80 DUP12 ADD MLOAD SWAP6 POP PUSH1 0xA0 DUP12 ADD MLOAD SWAP5 POP PUSH1 0xC0 DUP12 ADD MLOAD SWAP4 POP PUSH1 0xE0 DUP12 ADD MLOAD SWAP3 POP PUSH3 0x2E8 PUSH2 0x100 DUP13 ADD PUSH3 0x219 JUMP JUMPDEST SWAP2 POP PUSH3 0x2F9 PUSH2 0x120 DUP13 ADD PUSH3 0x219 JUMP JUMPDEST SWAP1 POP SWAP3 SWAP6 SWAP9 SWAP12 SWAP2 SWAP5 SWAP8 SWAP11 POP SWAP3 SWAP6 SWAP9 POP JUMP JUMPDEST PUSH1 0x1 DUP2 DUP2 SHR SWAP1 DUP3 AND DUP1 PUSH3 0x31F JUMPI PUSH1 0x7F DUP3 AND SWAP2 POP JUMPDEST PUSH1 0x20 DUP3 LT DUP2 SUB PUSH3 0x33E JUMPI PUSH4 0x4E487B71 PUSH1 0xE0 SHL PUSH0 MSTORE PUSH1 0x22 PUSH1 0x4 MSTORE PUSH1 0x24 PUSH0 REVERT JUMPDEST POP SWAP2 SWAP1 POP JUMP JUMPDEST PUSH1 0x1F DUP3 GT ISZERO PUSH3 0x391 JUMPI PUSH0 DUP2 DUP2 MSTORE PUSH1 0x20 DUP2 KECCAK256 PUSH1 0x1F DUP6 ADD PUSH1 0x5 SHR DUP2 ADD PUSH1 0x20 DUP7 LT ISZERO PUSH3 0x36C JUMPI POP DUP1 JUMPDEST PUSH1 0x1F DUP6 ADD PUSH1 0x5 SHR DUP3 ADD SWAP2 POP JUMPDEST DUP2 DUP2 LT ISZERO PUSH3 0x38D JUMPI DUP3 DUP2 SSTORE PUSH1 0x1 ADD PUSH3 0x378 JUMP JUMPDEST POP POP POP JUMPDEST POP POP POP JUMP JUMPDEST DUP2 MLOAD PUSH1 0x1 PUSH1 0x1 PUSH1 0x40 SHL SUB DUP2 GT ISZERO PUSH3 0x3B2 JUMPI PUSH3 0x3B2 PUSH3 0x15B JUMP JUMPDEST PUSH3 0x3CA DUP2 PUSH3 0x3C3 DUP5 SLOAD PUSH3 0x30A JUMP JUMPDEST DUP5 PUSH3 0x344 JUMP JUMPDEST PUSH1 0x20 DUP1 PUSH1 0x1F DUP4 GT PUSH1 0x1 DUP2 EQ PUSH3 0x400 JUMPI PUSH0 DUP5 ISZERO PUSH3 0x3E8 JUMPI POP DUP6 DUP4 ADD MLOAD JUMPDEST PUSH0 NOT PUSH1 0x3 DUP7 SWAP1 SHL SHR NOT AND PUSH1 0x1 DUP6 SWAP1 SHL OR DUP6 SSTORE PUSH3 0x38D JUMP JUMPDEST PUSH0 DUP6 DUP2 MSTORE PUSH1 0x20 DUP2 KECCAK256 PUSH1 0x1F NOT DUP7 AND SWAP2 JUMPDEST DUP3 DUP2 LT ISZERO PUSH3 0x430 JUMPI DUP9 DUP7 ADD MLOAD DUP3 SSTORE SWAP5 DUP5 ADD SWAP5 PUSH1 0x1 SWAP1 SWAP2 ADD SWAP1 DUP5 ADD PUSH3 0x40F JUMP JUMPDEST POP DUP6 DUP3 LT ISZERO PUSH3 0x44E JUMPI DUP8 DUP6 ADD MLOAD PUSH0 NOT PUSH1 0x3 DUP9 SWAP1 SHL PUSH1 0xF8 AND SHR NOT AND DUP2 SSTORE JUMPDEST POP POP POP POP POP PUSH1 0x1 SWAP1 DUP2 SHL ADD SWAP1 SSTORE POP JUMP JUMPDEST DUP1 DUP3 MUL DUP2 ISZERO DUP3 DUP3 DIV DUP5 EQ OR PUSH3 0x482 JUMPI PUSH4 0x4E487B71 PUSH1 0xE0 SHL PUSH0 MSTORE PUSH1 0x11 PUSH1 0x4 MSTORE PUSH1 0x24 PUSH0 REVERT JUMPDEST SWAP3 SWAP2 POP POP JUMP JUMPDEST PUSH1 0x80 MLOAD PUSH1 0xA0 MLOAD PUSH1 0xC0 MLOAD PUSH1 0xE0 MLOAD PUSH2 0x100 MLOAD PUSH2 0x120 MLOAD PUSH2 0x1A01 PUSH3 0x55C PUSH0 CODECOPY PUSH0 DUP2 DUP2 PUSH2 0x4BE ADD MSTORE DUP2 DUP2 PUSH2 0x1047 ADD MSTORE PUSH2 0x1107 ADD MSTORE PUSH0 DUP2 DUP2 PUSH2 0x3DC ADD MSTORE DUP2 DUP2 PUSH2 0x11DF ADD MSTORE DUP2 DUP2 PUSH2 0x121B ADD MSTORE PUSH2 0x12B9 ADD MSTORE PUSH0 DUP2 DUP2 PUSH2 0x48B ADD MSTORE DUP2 DUP2 PUSH2 0xA69 ADD MSTORE PUSH2 0xC1C ADD MSTORE PUSH0 DUP2 DUP2 PUSH2 0x58C ADD MSTORE PUSH2 0x8E6 ADD MSTORE PUSH0 DUP2 DUP2 PUSH2 0x342 ADD MSTORE PUSH2 0x8B9 ADD MSTORE PUSH0 DUP2 DUP2 PUSH2 0x5DE ADD MSTORE DUP2 DUP2 PUSH2 0x6F1 ADD MSTORE DUP2 DUP2 PUSH2 0x77E ADD MSTORE DUP2 DUP2 PUSH2 0x7FE ADD MSTORE DUP2 DUP2 PUSH2 0x83A ADD MSTORE DUP2 DUP2 PUSH2 0x9D6 ADD MSTORE DUP2 DUP2 PUSH2 0xB82 ADD MSTORE DUP2 DUP2 PUSH2 0xCA8 ADD MSTORE DUP2 DUP2 PUSH2 0x101D ADD MSTORE DUP2 DUP2 PUSH2 0x10DF ADD MSTORE DUP2 DUP2 PUSH2 0x124A ADD MSTORE PUSH2 0x12E9 ADD MSTORE PUSH2 0x1A01 PUSH0 RETURN INVALID PUSH1 0x80 PUSH1 0x40 MSTORE PUSH1 0x4 CALLDATASIZE LT PUSH2 0x1C8 JUMPI PUSH0 CALLDATALOAD PUSH1 0xE0 SHR DUP1 PUSH4 0x71A18BFB GT PUSH2 0xF2 JUMPI DUP1 PUSH4 0xBEF28F91 GT PUSH2 0x92 JUMPI DUP1 PUSH4 0xE7C2B772 GT PUSH2 0x62 JUMPI DUP1 PUSH4 0xE7C2B772 EQ PUSH2 0x562 JUMPI DUP1 PUSH4 0xEE74DAEF EQ PUSH2 0x57B JUMPI DUP1 PUSH4 0xF2FDE38B EQ PUSH2 0x5AE JUMPI DUP1 PUSH4 0xF4325D67 EQ PUSH2 0x5CD JUMPI PUSH0 DUP1 REVERT JUMPDEST DUP1 PUSH4 0xBEF28F91 EQ PUSH2 0x4AD JUMPI DUP1 PUSH4 0xD96A094A EQ PUSH2 0x4E0 JUMPI DUP1 PUSH4 0xDD62ED3E EQ PUSH2 0x4FF JUMPI DUP1 PUSH4 0xE4849B32 EQ PUSH2 0x543 JUMPI PUSH0 DUP1 REVERT JUMPDEST DUP1 PUSH4 0x8DA5CB5B GT PUSH2 0xCD JUMPI DUP1 PUSH4 0x8DA5CB5B EQ PUSH2 0x42A JUMPI DUP1 PUSH4 0x95D89B41 EQ PUSH2 0x447 JUMPI DUP1 PUSH4 0xA9059CBB EQ PUSH2 0x45B JUMPI DUP1 PUSH4 0xB4F40C61 EQ PUSH2 0x47A JUMPI PUSH0 DUP1 REVERT JUMPDEST DUP1 PUSH4 0x71A18BFB EQ PUSH2 0x3AC JUMPI DUP1 PUSH4 0x7ED3D924 EQ PUSH2 0x3CB JUMPI DUP1 PUSH4 0x897802DC EQ PUSH2 0x416 JUMPI PUSH0 DUP1 REVERT JUMPDEST DUP1 PUSH4 0x313CE567 GT PUSH2 0x168 JUMPI DUP1 PUSH4 0x57E2DD0C GT PUSH2 0x138 JUMPI DUP1 PUSH4 0x57E2DD0C EQ PUSH2 0x31C JUMPI DUP1 PUSH4 0x5E4194DD EQ PUSH2 0x331 JUMPI DUP1 PUSH4 0x70A08231 EQ PUSH2 0x364 JUMPI DUP1 PUSH4 0x715018A6 EQ PUSH2 0x398 JUMPI PUSH0 DUP1 REVERT JUMPDEST DUP1 PUSH4 0x313CE567 EQ PUSH2 0x2B8 JUMPI DUP1 PUSH4 0x31F4FFC0 EQ PUSH2 0x2D3 JUMPI DUP1 PUSH4 0x343EE3B7 EQ PUSH2 0x2E8 JUMPI DUP1 PUSH4 0x52F5B3EF EQ PUSH2 0x2FD JUMPI PUSH0 DUP1 REVERT JUMPDEST DUP1 PUSH4 0x18160DDD GT PUSH2 0x1A3 JUMPI DUP1 PUSH4 0x18160DDD EQ PUSH2 0x24F JUMPI DUP1 PUSH4 0x1C58CE14 EQ PUSH2 0x263 JUMPI DUP1 PUSH4 0x21557E34 EQ PUSH2 0x284 JUMPI DUP1 PUSH4 0x23B872DD EQ PUSH2 0x299 JUMPI PUSH0 DUP1 REVERT JUMPDEST DUP1 PUSH4 0x6FDDE03 EQ PUSH2 0x1D3 JUMPI DUP1 PUSH4 0x92BC24E EQ PUSH2 0x1FD JUMPI DUP1 PUSH4 0x95EA7B3 EQ PUSH2 0x220 JUMPI PUSH0 DUP1 REVERT JUMPDEST CALLDATASIZE PUSH2 0x1CF JUMPI STOP JUMPDEST PUSH0 DUP1 REVERT JUMPDEST CALLVALUE DUP1 ISZERO PUSH2 0x1DE JUMPI PUSH0 DUP1 REVERT JUMPDEST POP PUSH2 0x1E7 PUSH2 0x600 JUMP JUMPDEST PUSH1 0x40 MLOAD PUSH2 0x1F4 SWAP2 SWAP1 PUSH2 0x1770 JUMP JUMPDEST PUSH1 0x40 MLOAD DUP1 SWAP2 SUB SWAP1 RETURN JUMPDEST CALLVALUE DUP1 ISZERO PUSH2 0x208 JUMPI PUSH0 DUP1 REVERT JUMPDEST POP PUSH2 0x212 PUSH1 0xA SLOAD DUP2 JUMP JUMPDEST PUSH1 0x40 MLOAD SWAP1 DUP2 MSTORE PUSH1 0x20 ADD PUSH2 0x1F4 JUMP JUMPDEST CALLVALUE DUP1 ISZERO PUSH2 0x22B JUMPI PUSH0 DUP1 REVERT JUMPDEST POP PUSH2 0x23F PUSH2 0x23A CALLDATASIZE PUSH1 0x4 PUSH2 0x17CF JUMP JUMPDEST PUSH2 0x690 JUMP JUMPDEST PUSH1 0x40 MLOAD SWAP1 ISZERO ISZERO DUP2 MSTORE PUSH1 0x20 ADD PUSH2 0x1F4 JUMP JUMPDEST CALLVALUE DUP1 ISZERO PUSH2 0x25A JUMPI PUSH0 DUP1 REVERT JUMPDEST POP PUSH1 0x2 SLOAD PUSH2 0x212 JUMP JUMPDEST CALLVALUE DUP1 ISZERO PUSH2 0x26E JUMPI PUSH0 DUP1 REVERT JUMPDEST POP PUSH2 0x282 PUSH2 0x27D CALLDATASIZE PUSH1 0x4 PUSH2 0x17CF JUMP JUMPDEST PUSH2 0x6A9 JUMP JUMPDEST STOP JUMPDEST CALLVALUE DUP1 ISZERO PUSH2 0x28F JUMPI PUSH0 DUP1 REVERT JUMPDEST POP PUSH2 0x212 PUSH1 0x8 SLOAD DUP2 JUMP JUMPDEST CALLVALUE DUP1 ISZERO PUSH2 0x2A4 JUMPI PUSH0 DUP1 REVERT JUMPDEST POP PUSH2 0x23F PUSH2 0x2B3 CALLDATASIZE PUSH1 0x4 PUSH2 0x17F9 JUMP JUMPDEST PUSH2 0x71C JUMP JUMPDEST CALLVALUE DUP1 ISZERO PUSH2 0x2C3 JUMPI PUSH0 DUP1 REVERT JUMPDEST POP PUSH1 0x40 MLOAD PUSH1 0x12 DUP2 MSTORE PUSH1 0x20 ADD PUSH2 0x1F4 JUMP JUMPDEST CALLVALUE DUP1 ISZERO PUSH2 0x2DE JUMPI PUSH0 DUP1 REVERT JUMPDEST POP PUSH2 0x212 PUSH1 0x9 SLOAD DUP2 JUMP JUMPDEST CALLVALUE DUP1 ISZERO PUSH2 0x2F3 JUMPI PUSH0 DUP1 REVERT JUMPDEST POP PUSH2 0x212 PUSH1 0x7 SLOAD DUP2 JUMP JUMPDEST CALLVALUE DUP1 ISZERO PUSH2 0x308 JUMPI PUSH0 DUP1 REVERT JUMPDEST POP PUSH2 0x282 PUSH2 0x317 CALLDATASIZE PUSH1 0x4 PUSH2 0x1837 JUMP JUMPDEST PUSH2 0x73F JUMP JUMPDEST CALLVALUE DUP1 ISZERO PUSH2 0x327 JUMPI PUSH0 DUP1 REVERT JUMPDEST POP PUSH2 0x212 PUSH1 0xB SLOAD DUP2 JUMP JUMPDEST CALLVALUE DUP1 ISZERO PUSH2 0x33C JUMPI PUSH0 DUP1 REVERT JUMPDEST POP PUSH2 0x212 PUSH32 0x0 DUP2 JUMP JUMPDEST CALLVALUE DUP1 ISZERO PUSH2 0x36F JUMPI PUSH0 DUP1 REVERT JUMPDEST POP PUSH2 0x212 PUSH2 0x37E CALLDATASIZE PUSH1 0x4 PUSH2 0x184E JUMP JUMPDEST PUSH1 0x1 PUSH1 0x1 PUSH1 0xA0 SHL SUB AND PUSH0 SWAP1 DUP2 MSTORE PUSH1 0x20 DUP2 SWAP1 MSTORE PUSH1 0x40 SWAP1 KECCAK256 SLOAD SWAP1 JUMP JUMPDEST CALLVALUE DUP1 ISZERO PUSH2 0x3A3 JUMPI PUSH0 DUP1 REVERT JUMPDEST POP PUSH2 0x282 PUSH2 0x74C JUMP JUMPDEST CALLVALUE DUP1 ISZERO PUSH2 0x3B7 JUMPI PUSH0 DUP1 REVERT JUMPDEST POP PUSH2 0x282 PUSH2 0x3C6 CALLDATASIZE PUSH1 0x4 PUSH2 0x184E JUMP JUMPDEST PUSH2 0x75F JUMP JUMPDEST CALLVALUE DUP1 ISZERO PUSH2 0x3D6 JUMPI PUSH0 DUP1 REVERT JUMPDEST POP PUSH2 0x3FE PUSH32 0x0 DUP2 JUMP JUMPDEST PUSH1 0x40 MLOAD PUSH1 0x1 PUSH1 0x1 PUSH1 0xA0 SHL SUB SWAP1 SWAP2 AND DUP2 MSTORE PUSH1 0x20 ADD PUSH2 0x1F4 JUMP JUMPDEST CALLVALUE DUP1 ISZERO PUSH2 0x421 JUMPI PUSH0 DUP1 REVERT JUMPDEST POP PUSH2 0x212 PUSH2 0x8B2 JUMP JUMPDEST CALLVALUE DUP1 ISZERO PUSH2 0x435 JUMPI PUSH0 DUP1 REVERT JUMPDEST POP PUSH1 0x5 SLOAD PUSH1 0x1 PUSH1 0x1 PUSH1 0xA0 SHL SUB AND PUSH2 0x3FE JUMP JUMPDEST CALLVALUE DUP1 ISZERO PUSH2 0x452 JUMPI PUSH0 DUP1 REVERT JUMPDEST POP PUSH2 0x1E7 PUSH2 0x928 JUMP JUMPDEST CALLVALUE DUP1 ISZERO PUSH2 0x466 JUMPI PUSH0 DUP1 REVERT JUMPDEST POP PUSH2 0x23F PUSH2 0x475 CALLDATASIZE PUSH1 0x4 PUSH2 0x17CF JUMP JUMPDEST PUSH2 0x937 JUMP JUMPDEST CALLVALUE DUP1 ISZERO PUSH2 0x485 JUMPI PUSH0 DUP1 REVERT JUMPDEST POP PUSH2 0x212 PUSH32 0x0 DUP2 JUMP JUMPDEST CALLVALUE DUP1 ISZERO PUSH2 0x4B8 JUMPI PUSH0 DUP1 REVERT JUMPDEST POP PUSH2 0x3FE PUSH32 0x0 DUP2 JUMP JUMPDEST CALLVALUE DUP1 ISZERO PUSH2 0x4EB JUMPI PUSH0 DUP1 REVERT JUMPDEST POP PUSH2 0x212 PUSH2 0x4FA CALLDATASIZE PUSH1 0x4 PUSH2 0x1837 JUMP JUMPDEST PUSH2 0x944 JUMP JUMPDEST CALLVALUE DUP1 ISZERO PUSH2 0x50A JUMPI PUSH0 DUP1 REVERT JUMPDEST POP PUSH2 0x212 PUSH2 0x519 CALLDATASIZE PUSH1 0x4 PUSH2 0x1870 JUMP JUMPDEST PUSH1 0x1 PUSH1 0x1 PUSH1 0xA0 SHL SUB SWAP2 DUP3 AND PUSH0 SWAP1 DUP2 MSTORE PUSH1 0x1 PUSH1 0x20 SWAP1 DUP2 MSTORE PUSH1 0x40 DUP1 DUP4 KECCAK256 SWAP4 SWAP1 SWAP5 AND DUP3 MSTORE SWAP2 SWAP1 SWAP2 MSTORE KECCAK256 SLOAD SWAP1 JUMP JUMPDEST CALLVALUE DUP1 ISZERO PUSH2 0x54E JUMPI PUSH0 DUP1 REVERT JUMPDEST POP PUSH2 0x212 PUSH2 0x55D CALLDATASIZE PUSH1 0x4 PUSH2 0x1837 JUMP JUMPDEST PUSH2 0xBC0 JUMP JUMPDEST CALLVALUE DUP1 ISZERO PUSH2 0x56D JUMPI PUSH0 DUP1 REVERT JUMPDEST POP PUSH1 0xC SLOAD PUSH2 0x23F SWAP1 PUSH1 0xFF AND DUP2 JUMP JUMPDEST CALLVALUE DUP1 ISZERO PUSH2 0x586 JUMPI PUSH0 DUP1 REVERT JUMPDEST POP PUSH2 0x212 PUSH32 0x0 DUP2 JUMP JUMPDEST CALLVALUE DUP1 ISZERO PUSH2 0x5B9 JUMPI PUSH0 DUP1 REVERT JUMPDEST POP PUSH2 0x282 PUSH2 0x5C8 CALLDATASIZE PUSH1 0x4 PUSH2 0x184E JUMP JUMPDEST PUSH2 0xD26 JUMP JUMPDEST CALLVALUE DUP1 ISZERO PUSH2 0x5D8 JUMPI PUSH0 DUP1 REVERT JUMPDEST POP PUSH2 0x3FE PUSH32 0x0 DUP2 JUMP JUMPDEST PUSH1 0x60 PUSH1 0x3 DUP1 SLOAD PUSH2 0x60F SWAP1 PUSH2 0x18A7 JUMP JUMPDEST DUP1 PUSH1 0x1F ADD PUSH1 0x20 DUP1 SWAP2 DIV MUL PUSH1 0x20 ADD PUSH1 0x40 MLOAD SWAP1 DUP2 ADD PUSH1 0x40 MSTORE DUP1 SWAP3 SWAP2 SWAP1 DUP2 DUP2 MSTORE PUSH1 0x20 ADD DUP3 DUP1 SLOAD PUSH2 0x63B SWAP1 PUSH2 0x18A7 JUMP JUMPDEST DUP1 ISZERO PUSH2 0x686 JUMPI DUP1 PUSH1 0x1F LT PUSH2 0x65D JUMPI PUSH2 0x100 DUP1 DUP4 SLOAD DIV MUL DUP4 MSTORE SWAP2 PUSH1 0x20 ADD SWAP2 PUSH2 0x686 JUMP JUMPDEST DUP3 ADD SWAP2 SWAP1 PUSH0 MSTORE PUSH1 0x20 PUSH0 KECCAK256 SWAP1 JUMPDEST DUP2 SLOAD DUP2 MSTORE SWAP1 PUSH1 0x1 ADD SWAP1 PUSH1 0x20 ADD DUP1 DUP4 GT PUSH2 0x669 JUMPI DUP3 SWAP1 SUB PUSH1 0x1F AND DUP3 ADD SWAP2 JUMPDEST POP POP POP POP POP SWAP1 POP SWAP1 JUMP JUMPDEST PUSH0 CALLER PUSH2 0x69D DUP2 DUP6 DUP6 PUSH2 0xD63 JUMP JUMPDEST PUSH1 0x1 SWAP2 POP POP JUMPDEST SWAP3 SWAP2 POP POP JUMP JUMPDEST PUSH2 0x6B1 PUSH2 0xD75 JUMP JUMPDEST PUSH1 0xC SLOAD PUSH1 0xFF AND PUSH2 0x6BF JUMPI PUSH0 DUP1 REVERT JUMPDEST PUSH1 0xA SLOAD DUP2 GT ISZERO PUSH2 0x6CD JUMPI PUSH0 DUP1 REVERT JUMPDEST DUP1 PUSH1 0xA PUSH0 DUP3 DUP3 SLOAD PUSH2 0x6DE SWAP2 SWAP1 PUSH2 0x18F3 JUMP JUMPDEST SWAP1 SWAP2 SSTORE POP PUSH2 0x718 SWAP1 POP PUSH1 0x1 PUSH1 0x1 PUSH1 0xA0 SHL SUB PUSH32 0x0 AND DUP4 DUP4 PUSH2 0xDA2 JUMP JUMPDEST POP POP JUMP JUMPDEST PUSH0 CALLER PUSH2 0x729 DUP6 DUP3 DUP6 PUSH2 0xE01 JUMP JUMPDEST PUSH2 0x734 DUP6 DUP6 DUP6 PUSH2 0xE7D JUMP JUMPDEST POP PUSH1 0x1 SWAP5 SWAP4 POP POP POP POP JUMP JUMPDEST PUSH2 0x747 PUSH2 0xD75 JUMP JUMPDEST PUSH1 0xB SSTORE JUMP JUMPDEST PUSH2 0x754 PUSH2 0xD75 JUMP JUMPDEST PUSH2 0x75D PUSH0 PUSH2 0xEDA JUMP JUMPDEST JUMP JUMPDEST PUSH2 0x767 PUSH2 0xD75 JUMP JUMPDEST PUSH1 0x40 MLOAD PUSH4 0x70A08231 PUSH1 0xE0 SHL DUP2 MSTORE ADDRESS PUSH1 0x4 DUP3 ADD MSTORE PUSH0 SWAP1 PUSH32 0x0 PUSH1 0x1 PUSH1 0x1 PUSH1 0xA0 SHL SUB AND SWAP1 PUSH4 0x70A08231 SWAP1 PUSH1 0x24 ADD PUSH1 0x20 PUSH1 0x40 MLOAD DUP1 DUP4 SUB DUP2 DUP7 GAS STATICCALL ISZERO DUP1 ISZERO PUSH2 0x7CB JUMPI RETURNDATASIZE PUSH0 DUP1 RETURNDATACOPY RETURNDATASIZE PUSH0 REVERT JUMPDEST POP POP POP POP PUSH1 0x40 MLOAD RETURNDATASIZE PUSH1 0x1F NOT PUSH1 0x1F DUP3 ADD AND DUP3 ADD DUP1 PUSH1 0x40 MSTORE POP DUP2 ADD SWAP1 PUSH2 0x7EF SWAP2 SWAP1 PUSH2 0x1906 JUMP JUMPDEST SWAP1 POP PUSH2 0x825 PUSH1 0x1 PUSH1 0x1 PUSH1 0xA0 SHL SUB PUSH32 0x0 AND DUP4 DUP4 PUSH2 0xDA2 JUMP JUMPDEST PUSH1 0x40 MLOAD PUSH4 0x70A08231 PUSH1 0xE0 SHL DUP2 MSTORE ADDRESS PUSH1 0x4 DUP3 ADD MSTORE PUSH32 0x0 PUSH1 0x1 PUSH1 0x1 PUSH1 0xA0 SHL SUB AND SWAP1 PUSH4 0x70A08231 SWAP1 PUSH1 0x24 ADD PUSH1 0x20 PUSH1 0x40 MLOAD DUP1 DUP4 SUB DUP2 DUP7 GAS STATICCALL ISZERO DUP1 ISZERO PUSH2 0x887 JUMPI RETURNDATASIZE PUSH0 DUP1 RETURNDATACOPY RETURNDATASIZE PUSH0 REVERT JUMPDEST POP POP POP POP PUSH1 0x40 MLOAD RETURNDATASIZE PUSH1 0x1F NOT PUSH1 0x1F DUP3 ADD AND DUP3 ADD DUP1 PUSH1 0x40 MSTORE POP DUP2 ADD SWAP1 PUSH2 0x8AB SWAP2 SWAP1 PUSH2 0x1906 JUMP JUMPDEST PUSH1 0xA SSTORE POP POP JUMP JUMPDEST PUSH0 DUP1 PUSH1 0x7 SLOAD PUSH32 0x0 PUSH2 0x8E2 SWAP2 SWAP1 PUSH2 0x18F3 JUMP JUMPDEST SWAP1 POP PUSH32 0x0 PUSH2 0x918 DUP3 PUSH9 0x56BC75E2D63100000 PUSH2 0x191D JUMP JUMPDEST PUSH2 0x922 SWAP2 SWAP1 PUSH2 0x1934 JUMP JUMPDEST SWAP2 POP POP SWAP1 JUMP JUMPDEST PUSH1 0x60 PUSH1 0x4 DUP1 SLOAD PUSH2 0x60F SWAP1 PUSH2 0x18A7 JUMP JUMPDEST PUSH0 CALLER PUSH2 0x69D DUP2 DUP6 DUP6 PUSH2 0xE7D JUMP JUMPDEST PUSH0 PUSH2 0x94D PUSH2 0xF2B JUMP JUMPDEST PUSH1 0xC SLOAD PUSH1 0xFF AND ISZERO PUSH2 0x991 JUMPI PUSH1 0x40 MLOAD PUSH3 0x461BCD PUSH1 0xE5 SHL DUP2 MSTORE PUSH1 0x20 PUSH1 0x4 DUP3 ADD MSTORE PUSH1 0x9 PUSH1 0x24 DUP3 ADD MSTORE PUSH9 0x19DC98591D585D1959 PUSH1 0xBA SHL PUSH1 0x44 DUP3 ADD MSTORE PUSH1 0x64 ADD JUMPDEST PUSH1 0x40 MLOAD DUP1 SWAP2 SUB SWAP1 REVERT JUMPDEST PUSH0 DUP3 GT PUSH2 0x9C9 JUMPI PUSH1 0x40 MLOAD PUSH3 0x461BCD PUSH1 0xE5 SHL DUP2 MSTORE PUSH1 0x4 ADD PUSH2 0x988 SWAP1 PUSH1 0x20 DUP1 DUP3 MSTORE PUSH1 0x4 SWAP1 DUP3 ADD MSTORE PUSH4 0x7A65726F PUSH1 0xE0 SHL PUSH1 0x40 DUP3 ADD MSTORE PUSH1 0x60 ADD SWAP1 JUMP JUMPDEST PUSH2 0x9FE PUSH1 0x1 PUSH1 0x1 PUSH1 0xA0 SHL SUB PUSH32 0x0 AND CALLER ADDRESS DUP6 PUSH2 0xF84 JUMP JUMPDEST PUSH1 0xC SLOAD DUP3 SWAP1 PUSH1 0xFF AND ISZERO DUP1 ISZERO PUSH2 0xA22 JUMPI POP PUSH1 0xB SLOAD DUP2 PUSH1 0xA SLOAD PUSH2 0xA1F SWAP2 SWAP1 PUSH2 0x1953 JUMP JUMPDEST LT ISZERO JUMPDEST ISZERO PUSH2 0xA3A JUMPI PUSH1 0xA SLOAD PUSH1 0xB SLOAD PUSH2 0xA37 SWAP2 SWAP1 PUSH2 0x18F3 JUMP JUMPDEST SWAP1 POP JUMPDEST DUP1 PUSH1 0xA PUSH0 DUP3 DUP3 SLOAD PUSH2 0xA4B SWAP2 SWAP1 PUSH2 0x1953 JUMP JUMPDEST SWAP1 SWAP2 SSTORE POP POP PUSH1 0x8 SLOAD PUSH0 SWAP1 PUSH2 0xA60 SWAP1 DUP4 SWAP1 PUSH2 0x1953 JUMP JUMPDEST SWAP1 POP PUSH0 PUSH2 0xA8D DUP3 PUSH32 0x0 PUSH2 0x1934 JUMP JUMPDEST SWAP1 POP PUSH0 DUP2 PUSH1 0x7 SLOAD GT PUSH2 0xAA1 JUMPI PUSH1 0x7 SLOAD PUSH2 0xAAF JUMP JUMPDEST DUP2 PUSH1 0x7 SLOAD PUSH2 0xAAF SWAP2 SWAP1 PUSH2 0x18F3 JUMP JUMPDEST PUSH1 0x9 SLOAD SWAP1 SWAP2 POP DUP2 SWAP1 DUP2 GT ISZERO PUSH2 0xAC3 JUMPI POP PUSH1 0x9 SLOAD JUMPDEST PUSH1 0x8 DUP5 SWAP1 SSTORE PUSH1 0x7 DUP4 SWAP1 SSTORE DUP1 ISZERO PUSH2 0xAF4 JUMPI DUP1 PUSH1 0x9 PUSH0 DUP3 DUP3 SLOAD PUSH2 0xAE4 SWAP2 SWAP1 PUSH2 0x18F3 JUMP JUMPDEST SWAP1 SWAP2 SSTORE POP PUSH2 0xAF4 SWAP1 POP CALLER DUP3 PUSH2 0xFBD JUMP JUMPDEST PUSH1 0x40 DUP1 MLOAD CALLER DUP2 MSTORE PUSH1 0x20 DUP2 ADD DUP8 SWAP1 MSTORE SWAP1 DUP2 ADD DUP3 SWAP1 MSTORE PUSH1 0x60 DUP2 ADD DUP4 SWAP1 MSTORE PUSH32 0xEDBA86FD2B22962D534E70AD9B0FF8730DE46F636146F2BAB6A72CBB1EBBCC53 SWAP1 PUSH1 0x80 ADD PUSH1 0x40 MLOAD DUP1 SWAP2 SUB SWAP1 LOG1 PUSH1 0xC SLOAD PUSH1 0xFF AND ISZERO DUP1 ISZERO PUSH2 0xB53 JUMPI POP PUSH1 0xB SLOAD PUSH1 0xA SLOAD LT ISZERO JUMPDEST ISZERO PUSH2 0xB60 JUMPI PUSH2 0xB60 PUSH2 0xFF1 JUMP JUMPDEST DUP5 DUP8 GT ISZERO PUSH2 0xBAB JUMPI PUSH0 PUSH2 0xB73 DUP7 DUP10 PUSH2 0x18F3 JUMP JUMPDEST SWAP1 POP PUSH2 0xBA9 PUSH1 0x1 PUSH1 0x1 PUSH1 0xA0 SHL SUB PUSH32 0x0 AND CALLER DUP4 PUSH2 0xDA2 JUMP JUMPDEST POP JUMPDEST SWAP5 POP POP POP POP POP PUSH2 0xBBB PUSH1 0x1 PUSH1 0x6 SSTORE JUMP JUMPDEST SWAP2 SWAP1 POP JUMP JUMPDEST PUSH0 PUSH2 0xBC9 PUSH2 0xF2B JUMP JUMPDEST PUSH1 0xC SLOAD PUSH1 0xFF AND ISZERO PUSH2 0xBD8 JUMPI PUSH0 DUP1 REVERT JUMPDEST PUSH0 DUP3 GT PUSH2 0xBE3 JUMPI PUSH0 DUP1 REVERT JUMPDEST PUSH0 PUSH2 0xBEF CALLER ADDRESS DUP6 PUSH2 0x1454 JUMP JUMPDEST SWAP1 POP DUP1 PUSH2 0xBFA JUMPI PUSH0 DUP1 REVERT JUMPDEST PUSH2 0xC04 ADDRESS DUP5 PUSH2 0x14D8 JUMP JUMPDEST PUSH0 DUP4 PUSH1 0x7 SLOAD PUSH2 0xC13 SWAP2 SWAP1 PUSH2 0x1953 JUMP JUMPDEST SWAP1 POP PUSH0 PUSH2 0xC40 DUP3 PUSH32 0x0 PUSH2 0x1934 JUMP JUMPDEST SWAP1 POP PUSH0 DUP2 PUSH1 0x8 SLOAD PUSH2 0xC51 SWAP2 SWAP1 PUSH2 0x18F3 JUMP JUMPDEST PUSH1 0x7 DUP5 SWAP1 SSTORE PUSH1 0x8 DUP4 SWAP1 SSTORE PUSH1 0xA SLOAD SWAP1 SWAP2 POP DUP2 GT ISZERO PUSH2 0xC6C JUMPI PUSH0 DUP1 REVERT JUMPDEST DUP1 PUSH1 0xA PUSH0 DUP3 DUP3 SLOAD PUSH2 0xC7D SWAP2 SWAP1 PUSH2 0x18F3 JUMP JUMPDEST SWAP3 POP POP DUP2 SWAP1 SSTORE POP DUP6 PUSH1 0x9 PUSH0 DUP3 DUP3 SLOAD PUSH2 0xC95 SWAP2 SWAP1 PUSH2 0x1953 JUMP JUMPDEST SWAP1 SWAP2 SSTORE POP PUSH2 0xCCF SWAP1 POP PUSH1 0x1 PUSH1 0x1 PUSH1 0xA0 SHL SUB PUSH32 0x0 AND CALLER DUP4 PUSH2 0xDA2 JUMP JUMPDEST PUSH1 0x40 DUP1 MLOAD CALLER DUP2 MSTORE PUSH1 0x20 DUP2 ADD DUP9 SWAP1 MSTORE SWAP1 DUP2 ADD DUP3 SWAP1 MSTORE PUSH1 0x60 DUP2 ADD DUP8 SWAP1 MSTORE PUSH32 0xE029F26DBCF8C42DD2F352C10214A7FC26773DC62482C6241334A0402AC09A80 SWAP1 PUSH1 0x80 ADD PUSH1 0x40 MLOAD DUP1 SWAP2 SUB SWAP1 LOG1 SWAP4 POP POP POP POP PUSH2 0xBBB PUSH1 0x1 PUSH1 0x6 SSTORE JUMP JUMPDEST PUSH2 0xD2E PUSH2 0xD75 JUMP JUMPDEST PUSH1 0x1 PUSH1 0x1 PUSH1 0xA0 SHL SUB DUP2 AND PUSH2 0xD57 JUMPI PUSH1 0x40 MLOAD PUSH4 0x1E4FBDF7 PUSH1 0xE0 SHL DUP2 MSTORE PUSH0 PUSH1 0x4 DUP3 ADD MSTORE PUSH1 0x24 ADD PUSH2 0x988 JUMP JUMPDEST PUSH2 0xD60 DUP2 PUSH2 0xEDA JUMP JUMPDEST POP JUMP JUMPDEST PUSH2 0xD70 DUP4 DUP4 DUP4 PUSH1 0x1 PUSH2 0x150C JUMP JUMPDEST POP POP POP JUMP JUMPDEST PUSH1 0x5 SLOAD PUSH1 0x1 PUSH1 0x1 PUSH1 0xA0 SHL SUB AND CALLER EQ PUSH2 0x75D JUMPI PUSH1 0x40 MLOAD PUSH4 0x118CDAA7 PUSH1 0xE0 SHL DUP2 MSTORE CALLER PUSH1 0x4 DUP3 ADD MSTORE PUSH1 0x24 ADD PUSH2 0x988 JUMP JUMPDEST PUSH1 0x40 MLOAD PUSH1 0x1 PUSH1 0x1 PUSH1 0xA0 SHL SUB DUP4 DUP2 AND PUSH1 0x24 DUP4 ADD MSTORE PUSH1 0x44 DUP3 ADD DUP4 SWAP1 MSTORE PUSH2 0xD70 SWAP2 DUP6 SWAP2 DUP3 AND SWAP1 PUSH4 0xA9059CBB SWAP1 PUSH1 0x64 ADD JUMPDEST PUSH1 0x40 MLOAD PUSH1 0x20 DUP2 DUP4 SUB SUB DUP2 MSTORE SWAP1 PUSH1 0x40 MSTORE SWAP2 POP PUSH1 0xE0 SHL PUSH1 0x20 DUP3 ADD DUP1 MLOAD PUSH1 0x1 PUSH1 0x1 PUSH1 0xE0 SHL SUB DUP4 DUP2 DUP4 AND OR DUP4 MSTORE POP POP POP POP PUSH2 0x15DE JUMP JUMPDEST PUSH1 0x1 PUSH1 0x1 PUSH1 0xA0 SHL SUB DUP4 DUP2 AND PUSH0 SWAP1 DUP2 MSTORE PUSH1 0x1 PUSH1 0x20 SWAP1 DUP2 MSTORE PUSH1 0x40 DUP1 DUP4 KECCAK256 SWAP4 DUP7 AND DUP4 MSTORE SWAP3 SWAP1 MSTORE KECCAK256 SLOAD PUSH0 NOT DUP2 LT ISZERO PUSH2 0xE77 JUMPI DUP2 DUP2 LT ISZERO PUSH2 0xE69 JUMPI PUSH1 0x40 MLOAD PUSH4 0x7DC7A0D9 PUSH1 0xE1 SHL DUP2 MSTORE PUSH1 0x1 PUSH1 0x1 PUSH1 0xA0 SHL SUB DUP5 AND PUSH1 0x4 DUP3 ADD MSTORE PUSH1 0x24 DUP2 ADD DUP3 SWAP1 MSTORE PUSH1 0x44 DUP2 ADD DUP4 SWAP1 MSTORE PUSH1 0x64 ADD PUSH2 0x988 JUMP JUMPDEST PUSH2 0xE77 DUP5 DUP5 DUP5 DUP5 SUB PUSH0 PUSH2 0x150C JUMP JUMPDEST POP POP POP POP JUMP JUMPDEST PUSH1 0x1 PUSH1 0x1 PUSH1 0xA0 SHL SUB DUP4 AND PUSH2 0xEA6 JUMPI PUSH1 0x40 MLOAD PUSH4 0x4B637E8F PUSH1 0xE1 SHL DUP2 MSTORE PUSH0 PUSH1 0x4 DUP3 ADD MSTORE PUSH1 0x24 ADD PUSH2 0x988 JUMP JUMPDEST PUSH1 0x1 PUSH1 0x1 PUSH1 0xA0 SHL SUB DUP3 AND PUSH2 0xECF JUMPI PUSH1 0x40 MLOAD PUSH4 0xEC442F05 PUSH1 0xE0 SHL DUP2 MSTORE PUSH0 PUSH1 0x4 DUP3 ADD MSTORE PUSH1 0x24 ADD PUSH2 0x988 JUMP JUMPDEST PUSH2 0xD70 DUP4 DUP4 DUP4 PUSH2 0x164A JUMP JUMPDEST PUSH1 0x5 DUP1 SLOAD PUSH1 0x1 PUSH1 0x1 PUSH1 0xA0 SHL SUB DUP4 DUP2 AND PUSH1 0x1 PUSH1 0x1 PUSH1 0xA0 SHL SUB NOT DUP4 AND DUP2 OR SWAP1 SWAP4 SSTORE PUSH1 0x40 MLOAD SWAP2 AND SWAP2 SWAP1 DUP3 SWAP1 PUSH32 0x8BE0079C531659141344CD1FD0A4F28419497F9722A3DAAFE3B4186F6B6457E0 SWAP1 PUSH0 SWAP1 LOG3 POP POP JUMP JUMPDEST PUSH1 0x2 PUSH1 0x6 SLOAD SUB PUSH2 0xF7D JUMPI PUSH1 0x40 MLOAD PUSH3 0x461BCD PUSH1 0xE5 SHL DUP2 MSTORE PUSH1 0x20 PUSH1 0x4 DUP3 ADD MSTORE PUSH1 0x1F PUSH1 0x24 DUP3 ADD MSTORE PUSH32 0x5265656E7472616E637947756172643A207265656E7472616E742063616C6C00 PUSH1 0x44 DUP3 ADD MSTORE PUSH1 0x64 ADD PUSH2 0x988 JUMP JUMPDEST PUSH1 0x2 PUSH1 0x6 SSTORE JUMP JUMPDEST PUSH1 0x40 MLOAD PUSH1 0x1 PUSH1 0x1 PUSH1 0xA0 SHL SUB DUP5 DUP2 AND PUSH1 0x24 DUP4 ADD MSTORE DUP4 DUP2 AND PUSH1 0x44 DUP4 ADD MSTORE PUSH1 0x64 DUP3 ADD DUP4 SWAP1 MSTORE PUSH2 0xE77 SWAP2 DUP7 SWAP2 DUP3 AND SWAP1 PUSH4 0x23B872DD SWAP1 PUSH1 0x84 ADD PUSH2 0xDCF JUMP JUMPDEST PUSH1 0x1 PUSH1 0x1 PUSH1 0xA0 SHL SUB DUP3 AND PUSH2 0xFE6 JUMPI PUSH1 0x40 MLOAD PUSH4 0xEC442F05 PUSH1 0xE0 SHL DUP2 MSTORE PUSH0 PUSH1 0x4 DUP3 ADD MSTORE PUSH1 0x24 ADD PUSH2 0x988 JUMP JUMPDEST PUSH2 0x718 PUSH0 DUP4 DUP4 PUSH2 0x164A JUMP JUMPDEST PUSH1 0xC SLOAD PUSH1 0xFF AND ISZERO PUSH2 0x1000 JUMPI PUSH0 DUP1 REVERT JUMPDEST PUSH1 0x40 MLOAD PUSH4 0xE6A43905 PUSH1 0xE0 SHL DUP2 MSTORE ADDRESS PUSH1 0x4 DUP3 ADD MSTORE PUSH1 0x1 PUSH1 0x1 PUSH1 0xA0 SHL SUB PUSH32 0x0 DUP2 AND PUSH1 0x24 DUP4 ADD MSTORE PUSH0 SWAP2 PUSH32 0x0 SWAP1 SWAP2 AND SWAP1 PUSH4 0xE6A43905 SWAP1 PUSH1 0x44 ADD PUSH1 0x20 PUSH1 0x40 MLOAD DUP1 DUP4 SUB DUP2 DUP7 GAS STATICCALL ISZERO DUP1 ISZERO PUSH2 0x108E JUMPI RETURNDATASIZE PUSH0 DUP1 RETURNDATACOPY RETURNDATASIZE PUSH0 REVERT JUMPDEST POP POP POP POP PUSH1 0x40 MLOAD RETURNDATASIZE PUSH1 0x1F NOT PUSH1 0x1F DUP3 ADD AND DUP3 ADD DUP1 PUSH1 0x40 MSTORE POP DUP2 ADD SWAP1 PUSH2 0x10B2 SWAP2 SWAP1 PUSH2 0x1966 JUMP JUMPDEST SWAP1 POP PUSH1 0x1 PUSH1 0x1 PUSH1 0xA0 SHL SUB DUP2 AND PUSH2 0x1174 JUMPI PUSH1 0x40 MLOAD PUSH4 0x64E329CB PUSH1 0xE1 SHL DUP2 MSTORE ADDRESS PUSH1 0x4 DUP3 ADD MSTORE PUSH1 0x1 PUSH1 0x1 PUSH1 0xA0 SHL SUB PUSH32 0x0 DUP2 AND PUSH1 0x24 DUP4 ADD MSTORE PUSH32 0x0 AND SWAP1 PUSH4 0xC9C65396 SWAP1 PUSH1 0x44 ADD PUSH1 0x20 PUSH1 0x40 MLOAD DUP1 DUP4 SUB DUP2 PUSH0 DUP8 GAS CALL ISZERO DUP1 ISZERO PUSH2 0x114D JUMPI RETURNDATASIZE PUSH0 DUP1 RETURNDATACOPY RETURNDATASIZE PUSH0 REVERT JUMPDEST POP POP POP POP PUSH1 0x40 MLOAD RETURNDATASIZE PUSH1 0x1F NOT PUSH1 0x1F DUP3 ADD AND DUP3 ADD DUP1 PUSH1 0x40 MSTORE POP DUP2 ADD SWAP1 PUSH2 0x1171 SWAP2 SWAP1 PUSH2 0x1966 JUMP JUMPDEST SWAP1 POP JUMPDEST PUSH1 0xA SLOAD DUP1 PUSH2 0x1180 JUMPI PUSH0 DUP1 REVERT JUMPDEST PUSH0 PUSH1 0x8 SLOAD PUSH1 0x7 SLOAD DUP4 PUSH2 0x1192 SWAP2 SWAP1 PUSH2 0x191D JUMP JUMPDEST PUSH2 0x119C SWAP2 SWAP1 PUSH2 0x1934 JUMP JUMPDEST SWAP1 POP PUSH1 0x9 SLOAD DUP2 GT ISZERO PUSH2 0x11AD JUMPI POP PUSH1 0x9 SLOAD JUMPDEST PUSH0 DUP2 GT PUSH2 0x11B8 JUMPI PUSH0 DUP1 REVERT JUMPDEST DUP1 PUSH1 0x9 PUSH0 DUP3 DUP3 SLOAD PUSH2 0x11C9 SWAP2 SWAP1 PUSH2 0x18F3 JUMP JUMPDEST SWAP1 SWAP2 SSTORE POP PUSH2 0x11D9 SWAP1 POP ADDRESS DUP3 PUSH2 0xFBD JUMP JUMPDEST PUSH2 0x1204 ADDRESS PUSH32 0x0 DUP4 PUSH2 0xD63 JUMP JUMPDEST PUSH1 0x40 MLOAD PUSH4 0x95EA7B3 PUSH1 0xE0 SHL DUP2 MSTORE PUSH1 0x1 PUSH1 0x1 PUSH1 0xA0 SHL SUB PUSH32 0x0 DUP2 AND PUSH1 0x4 DUP4 ADD MSTORE PUSH1 0x24 DUP3 ADD DUP5 SWAP1 MSTORE PUSH32 0x0 AND SWAP1 PUSH4 0x95EA7B3 SWAP1 PUSH1 0x44 ADD PUSH1 0x20 PUSH1 0x40 MLOAD DUP1 DUP4 SUB DUP2 PUSH0 DUP8 GAS CALL ISZERO DUP1 ISZERO PUSH2 0x1290 JUMPI RETURNDATASIZE PUSH0 DUP1 RETURNDATACOPY RETURNDATASIZE PUSH0 REVERT JUMPDEST POP POP POP POP PUSH1 0x40 MLOAD RETURNDATASIZE PUSH1 0x1F NOT PUSH1 0x1F DUP3 ADD AND DUP3 ADD DUP1 PUSH1 0x40 MSTORE POP DUP2 ADD SWAP1 PUSH2 0x12B4 SWAP2 SWAP1 PUSH2 0x1981 JUMP JUMPDEST POP PUSH0 DUP1 PUSH32 0x0 PUSH1 0x1 PUSH1 0x1 PUSH1 0xA0 SHL SUB AND PUSH4 0xE8E33700 ADDRESS PUSH32 0x0 DUP7 DUP9 PUSH0 DUP1 PUSH2 0x131E PUSH1 0x5 SLOAD PUSH1 0x1 PUSH1 0x1 PUSH1 0xA0 SHL SUB AND SWAP1 JUMP JUMPDEST PUSH2 0x132A TIMESTAMP PUSH2 0x708 PUSH2 0x1953 JUMP JUMPDEST PUSH1 0x40 MLOAD PUSH1 0xE0 DUP11 SWAP1 SHL PUSH1 0x1 PUSH1 0x1 PUSH1 0xE0 SHL SUB NOT AND DUP2 MSTORE PUSH1 0x1 PUSH1 0x1 PUSH1 0xA0 SHL SUB SWAP9 DUP10 AND PUSH1 0x4 DUP3 ADD MSTORE SWAP7 DUP9 AND PUSH1 0x24 DUP9 ADD MSTORE PUSH1 0x44 DUP8 ADD SWAP6 SWAP1 SWAP6 MSTORE PUSH1 0x64 DUP7 ADD SWAP4 SWAP1 SWAP4 MSTORE PUSH1 0x84 DUP6 ADD SWAP2 SWAP1 SWAP2 MSTORE PUSH1 0xA4 DUP5 ADD MSTORE SWAP1 SWAP3 AND PUSH1 0xC4 DUP3 ADD MSTORE PUSH1 0xE4 DUP2 ADD SWAP2 SWAP1 SWAP2 MSTORE PUSH2 0x104 ADD PUSH1 0x60 PUSH1 0x40 MLOAD DUP1 DUP4 SUB DUP2 PUSH0 DUP8 GAS CALL ISZERO DUP1 ISZERO PUSH2 0x13A3 JUMPI RETURNDATASIZE PUSH0 DUP1 RETURNDATACOPY RETURNDATASIZE PUSH0 REVERT JUMPDEST POP POP POP POP PUSH1 0x40 MLOAD RETURNDATASIZE PUSH1 0x1F NOT PUSH1 0x1F DUP3 ADD AND DUP3 ADD DUP1 PUSH1 0x40 MSTORE POP DUP2 ADD SWAP1 PUSH2 0x13C7 SWAP2 SWAP1 PUSH2 0x19A0 JUMP JUMPDEST POP SWAP2 POP SWAP2 POP PUSH1 0xA SLOAD DUP2 GT PUSH2 0x13F1 JUMPI DUP1 PUSH1 0xA PUSH0 DUP3 DUP3 SLOAD PUSH2 0x13E6 SWAP2 SWAP1 PUSH2 0x18F3 JUMP JUMPDEST SWAP1 SWAP2 SSTORE POP PUSH2 0x13F6 SWAP1 POP JUMP JUMPDEST PUSH0 PUSH1 0xA SSTORE JUMPDEST PUSH1 0xC DUP1 SLOAD PUSH1 0xFF NOT AND PUSH1 0x1 OR SWAP1 SSTORE PUSH1 0x40 DUP1 MLOAD PUSH1 0x1 PUSH1 0x1 PUSH1 0xA0 SHL SUB DUP8 AND DUP2 MSTORE PUSH1 0x20 DUP2 ADD DUP5 SWAP1 MSTORE SWAP1 DUP2 ADD DUP3 SWAP1 MSTORE PUSH32 0x1C858049E704460AB9455025BE4078F9E746E3FD426A56040D06389EDB8197DB SWAP1 PUSH1 0x60 ADD PUSH1 0x40 MLOAD DUP1 SWAP2 SUB SWAP1 LOG1 POP POP POP POP POP JUMP JUMPDEST PUSH1 0x40 MLOAD PUSH4 0x23B872DD PUSH1 0xE0 SHL DUP2 MSTORE PUSH1 0x1 PUSH1 0x1 PUSH1 0xA0 SHL SUB DUP1 DUP6 AND PUSH1 0x4 DUP4 ADD MSTORE DUP4 AND PUSH1 0x24 DUP3 ADD MSTORE PUSH1 0x44 DUP2 ADD DUP3 SWAP1 MSTORE PUSH0 SWAP1 DUP2 SWAP1 ADDRESS SWAP1 PUSH4 0x23B872DD SWAP1 PUSH1 0x64 ADD PUSH1 0x20 PUSH1 0x40 MLOAD DUP1 DUP4 SUB DUP2 PUSH0 DUP8 GAS CALL SWAP3 POP POP POP DUP1 ISZERO PUSH2 0x14C8 JUMPI POP PUSH1 0x40 DUP1 MLOAD PUSH1 0x1F RETURNDATASIZE SWAP1 DUP2 ADD PUSH1 0x1F NOT AND DUP3 ADD SWAP1 SWAP3 MSTORE PUSH2 0x14C5 SWAP2 DUP2 ADD SWAP1 PUSH2 0x1981 JUMP JUMPDEST PUSH1 0x1 JUMPDEST ISZERO PUSH2 0x14D0 JUMPI SWAP1 POP JUMPDEST SWAP5 SWAP4 POP POP POP POP JUMP JUMPDEST PUSH1 0x1 PUSH1 0x1 PUSH1 0xA0 SHL SUB DUP3 AND PUSH2 0x1501 JUMPI PUSH1 0x40 MLOAD PUSH4 0x4B637E8F PUSH1 0xE1 SHL DUP2 MSTORE PUSH0 PUSH1 0x4 DUP3 ADD MSTORE PUSH1 0x24 ADD PUSH2 0x988 JUMP JUMPDEST PUSH2 0x718 DUP3 PUSH0 DUP4 PUSH2 0x164A JUMP JUMPDEST PUSH1 0x1 PUSH1 0x1 PUSH1 0xA0 SHL SUB DUP5 AND PUSH2 0x1535 JUMPI PUSH1 0x40 MLOAD PUSH4 0xE602DF05 PUSH1 0xE0 SHL DUP2 MSTORE PUSH0 PUSH1 0x4 DUP3 ADD MSTORE PUSH1 0x24 ADD PUSH2 0x988 JUMP JUMPDEST PUSH1 0x1 PUSH1 0x1 PUSH1 0xA0 SHL SUB DUP4 AND PUSH2 0x155E JUMPI PUSH1 0x40 MLOAD PUSH4 0x4A1406B1 PUSH1 0xE1 SHL DUP2 MSTORE PUSH0 PUSH1 0x4 DUP3 ADD MSTORE PUSH1 0x24 ADD PUSH2 0x988 JUMP JUMPDEST PUSH1 0x1 PUSH1 0x1 PUSH1 0xA0 SHL SUB DUP1 DUP6 AND PUSH0 SWAP1 DUP2 MSTORE PUSH1 0x1 PUSH1 0x20 SWAP1 DUP2 MSTORE PUSH1 0x40 DUP1 DUP4 KECCAK256 SWAP4 DUP8 AND DUP4 MSTORE SWAP3 SWAP1 MSTORE KECCAK256 DUP3 SWAP1 SSTORE DUP1 ISZERO PUSH2 0xE77 JUMPI DUP3 PUSH1 0x1 PUSH1 0x1 PUSH1 0xA0 SHL SUB AND DUP5 PUSH1 0x1 PUSH1 0x1 PUSH1 0xA0 SHL SUB AND PUSH32 0x8C5BE1E5EBEC7D5BD14F71427D1E84F3DD0314C0F7B2291E5B200AC8C7C3B925 DUP5 PUSH1 0x40 MLOAD PUSH2 0x15D0 SWAP2 DUP2 MSTORE PUSH1 0x20 ADD SWAP1 JUMP JUMPDEST PUSH1 0x40 MLOAD DUP1 SWAP2 SUB SWAP1 LOG3 POP POP POP POP JUMP JUMPDEST PUSH0 DUP1 PUSH1 0x20 PUSH0 DUP5 MLOAD PUSH1 0x20 DUP7 ADD PUSH0 DUP9 GAS CALL DUP1 PUSH2 0x15FD JUMPI PUSH1 0x40 MLOAD RETURNDATASIZE PUSH0 DUP3 RETURNDATACOPY RETURNDATASIZE DUP2 REVERT JUMPDEST POP POP PUSH0 MLOAD RETURNDATASIZE SWAP2 POP DUP2 ISZERO PUSH2 0x1614 JUMPI DUP1 PUSH1 0x1 EQ ISZERO PUSH2 0x1621 JUMP JUMPDEST PUSH1 0x1 PUSH1 0x1 PUSH1 0xA0 SHL SUB DUP5 AND EXTCODESIZE ISZERO JUMPDEST ISZERO PUSH2 0xE77 JUMPI PUSH1 0x40 MLOAD PUSH4 0x5274AFE7 PUSH1 0xE0 SHL DUP2 MSTORE PUSH1 0x1 PUSH1 0x1 PUSH1 0xA0 SHL SUB DUP6 AND PUSH1 0x4 DUP3 ADD MSTORE PUSH1 0x24 ADD PUSH2 0x988 JUMP JUMPDEST PUSH1 0x1 PUSH1 0x1 PUSH1 0xA0 SHL SUB DUP4 AND PUSH2 0x1674 JUMPI DUP1 PUSH1 0x2 PUSH0 DUP3 DUP3 SLOAD PUSH2 0x1669 SWAP2 SWAP1 PUSH2 0x1953 JUMP JUMPDEST SWAP1 SWAP2 SSTORE POP PUSH2 0x16E4 SWAP1 POP JUMP JUMPDEST PUSH1 0x1 PUSH1 0x1 PUSH1 0xA0 SHL SUB DUP4 AND PUSH0 SWAP1 DUP2 MSTORE PUSH1 0x20 DUP2 SWAP1 MSTORE PUSH1 0x40 SWAP1 KECCAK256 SLOAD DUP2 DUP2 LT ISZERO PUSH2 0x16C6 JUMPI PUSH1 0x40 MLOAD PUSH4 0x391434E3 PUSH1 0xE2 SHL DUP2 MSTORE PUSH1 0x1 PUSH1 0x1 PUSH1 0xA0 SHL SUB DUP6 AND PUSH1 0x4 DUP3 ADD MSTORE PUSH1 0x24 DUP2 ADD DUP3 SWAP1 MSTORE PUSH1 0x44 DUP2 ADD DUP4 SWAP1 MSTORE PUSH1 0x64 ADD PUSH2 0x988 JUMP JUMPDEST PUSH1 0x1 PUSH1 0x1 PUSH1 0xA0 SHL SUB DUP5 AND PUSH0 SWAP1 DUP2 MSTORE PUSH1 0x20 DUP2 SWAP1 MSTORE PUSH1 0x40 SWAP1 KECCAK256 SWAP1 DUP3 SWAP1 SUB SWAP1 SSTORE JUMPDEST PUSH1 0x1 PUSH1 0x1 PUSH1 0xA0 SHL SUB DUP3 AND PUSH2 0x1700 JUMPI PUSH1 0x2 DUP1 SLOAD DUP3 SWAP1 SUB SWAP1 SSTORE PUSH2 0x171E JUMP JUMPDEST PUSH1 0x1 PUSH1 0x1 PUSH1 0xA0 SHL SUB DUP3 AND PUSH0 SWAP1 DUP2 MSTORE PUSH1 0x20 DUP2 SWAP1 MSTORE PUSH1 0x40 SWAP1 KECCAK256 DUP1 SLOAD DUP3 ADD SWAP1 SSTORE JUMPDEST DUP2 PUSH1 0x1 PUSH1 0x1 PUSH1 0xA0 SHL SUB AND DUP4 PUSH1 0x1 PUSH1 0x1 PUSH1 0xA0 SHL SUB AND PUSH32 0xDDF252AD1BE2C89B69C2B068FC378DAA952BA7F163C4A11628F55A4DF523B3EF DUP4 PUSH1 0x40 MLOAD PUSH2 0x1763 SWAP2 DUP2 MSTORE PUSH1 0x20 ADD SWAP1 JUMP JUMPDEST PUSH1 0x40 MLOAD DUP1 SWAP2 SUB SWAP1 LOG3 POP POP POP JUMP JUMPDEST PUSH0 PUSH1 0x20 DUP1 DUP4 MSTORE DUP4 MLOAD DUP1 DUP3 DUP6 ADD MSTORE PUSH0 JUMPDEST DUP2 DUP2 LT ISZERO PUSH2 0x179B JUMPI DUP6 DUP2 ADD DUP4 ADD MLOAD DUP6 DUP3 ADD PUSH1 0x40 ADD MSTORE DUP3 ADD PUSH2 0x177F JUMP JUMPDEST POP PUSH0 PUSH1 0x40 DUP3 DUP7 ADD ADD MSTORE PUSH1 0x40 PUSH1 0x1F NOT PUSH1 0x1F DUP4 ADD AND DUP6 ADD ADD SWAP3 POP POP POP SWAP3 SWAP2 POP POP JUMP JUMPDEST PUSH1 0x1 PUSH1 0x1 PUSH1 0xA0 SHL SUB DUP2 AND DUP2 EQ PUSH2 0xD60 JUMPI PUSH0 DUP1 REVERT JUMPDEST PUSH0 DUP1 PUSH1 0x40 DUP4 DUP6 SUB SLT ISZERO PUSH2 0x17E0 JUMPI PUSH0 DUP1 REVERT JUMPDEST DUP3 CALLDATALOAD PUSH2 0x17EB DUP2 PUSH2 0x17BB JUMP JUMPDEST SWAP5 PUSH1 0x20 SWAP4 SWAP1 SWAP4 ADD CALLDATALOAD SWAP4 POP POP POP JUMP JUMPDEST PUSH0 DUP1 PUSH0 PUSH1 0x60 DUP5 DUP7 SUB SLT ISZERO PUSH2 0x180B JUMPI PUSH0 DUP1 REVERT JUMPDEST DUP4 CALLDATALOAD PUSH2 0x1816 DUP2 PUSH2 0x17BB JUMP JUMPDEST SWAP3 POP PUSH1 0x20 DUP5 ADD CALLDATALOAD PUSH2 0x1826 DUP2 PUSH2 0x17BB JUMP JUMPDEST SWAP3 SWAP6 SWAP3 SWAP5 POP POP POP PUSH1 0x40 SWAP2 SWAP1 SWAP2 ADD CALLDATALOAD SWAP1 JUMP JUMPDEST PUSH0 PUSH1 0x20 DUP3 DUP5 SUB SLT ISZERO PUSH2 0x1847 JUMPI PUSH0 DUP1 REVERT JUMPDEST POP CALLDATALOAD SWAP2 SWAP1 POP JUMP JUMPDEST PUSH0 PUSH1 0x20 DUP3 DUP5 SUB SLT ISZERO PUSH2 0x185E JUMPI PUSH0 DUP1 REVERT JUMPDEST DUP2 CALLDATALOAD PUSH2 0x1869 DUP2 PUSH2 0x17BB JUMP JUMPDEST SWAP4 SWAP3 POP POP POP JUMP JUMPDEST PUSH0 DUP1 PUSH1 0x40 DUP4 DUP6 SUB SLT ISZERO PUSH2 0x1881 JUMPI PUSH0 DUP1 REVERT JUMPDEST DUP3 CALLDATALOAD PUSH2 0x188C DUP2 PUSH2 0x17BB JUMP JUMPDEST SWAP2 POP PUSH1 0x20 DUP4 ADD CALLDATALOAD PUSH2 0x189C DUP2 PUSH2 0x17BB JUMP JUMPDEST DUP1 SWAP2 POP POP SWAP3 POP SWAP3 SWAP1 POP JUMP JUMPDEST PUSH1 0x1 DUP2 DUP2 SHR SWAP1 DUP3 AND DUP1 PUSH2 0x18BB JUMPI PUSH1 0x7F DUP3 AND SWAP2 POP JUMPDEST PUSH1 0x20 DUP3 LT DUP2 SUB PUSH2 0x18D9 JUMPI PUSH4 0x4E487B71 PUSH1 0xE0 SHL PUSH0 MSTORE PUSH1 0x22 PUSH1 0x4 MSTORE PUSH1 0x24 PUSH0 REVERT JUMPDEST POP SWAP2 SWAP1 POP JUMP JUMPDEST PUSH4 0x4E487B71 PUSH1 0xE0 SHL PUSH0 MSTORE PUSH1 0x11 PUSH1 0x4 MSTORE PUSH1 0x24 PUSH0 REVERT JUMPDEST DUP2 DUP2 SUB DUP2 DUP2 GT ISZERO PUSH2 0x6A3 JUMPI PUSH2 0x6A3 PUSH2 0x18DF JUMP JUMPDEST PUSH0 PUSH1 0x20 DUP3 DUP5 SUB SLT ISZERO PUSH2 0x1916 JUMPI PUSH0 DUP1 REVERT JUMPDEST POP MLOAD SWAP2 SWAP1 POP JUMP JUMPDEST DUP1 DUP3 MUL DUP2 ISZERO DUP3 DUP3 DIV DUP5 EQ OR PUSH2 0x6A3 JUMPI PUSH2 0x6A3 PUSH2 0x18DF JUMP JUMPDEST PUSH0 DUP3 PUSH2 0x194E JUMPI PUSH4 0x4E487B71 PUSH1 0xE0 SHL PUSH0 MSTORE PUSH1 0x12 PUSH1 0x4 MSTORE PUSH1 0x24 PUSH0 REVERT JUMPDEST POP DIV SWAP1 JUMP JUMPDEST DUP1 DUP3 ADD DUP1 DUP3 GT ISZERO PUSH2 0x6A3 JUMPI PUSH2 0x6A3 PUSH2 0x18DF JUMP JUMPDEST PUSH0 PUSH1 0x20 DUP3 DUP5 SUB SLT ISZERO PUSH2 0x1976 JUMPI PUSH0 DUP1 REVERT JUMPDEST DUP2 MLOAD PUSH2 0x1869 DUP2 PUSH2 0x17BB JUMP JUMPDEST PUSH0 PUSH1 0x20 DUP3 DUP5 SUB SLT ISZERO PUSH2 0x1991 JUMPI PUSH0 DUP1 REVERT JUMPDEST DUP2 MLOAD DUP1 ISZERO ISZERO DUP2 EQ PUSH2 0x1869 JUMPI PUSH0 DUP1 REVERT JUMPDEST PUSH0 DUP1 PUSH0 PUSH1 0x60 DUP5 DUP7 SUB SLT ISZERO PUSH2 0x19B2 JUMPI PUSH0 DUP1 REVERT JUMPDEST DUP4 MLOAD SWAP3 POP PUSH1 0x20 DUP5 ADD MLOAD SWAP2 POP PUSH1 0x40 DUP5 ADD MLOAD SWAP1 POP SWAP3 POP SWAP3 POP SWAP3 JUMP INVALID LOG2 PUSH5 0x6970667358 0x22 SLT KECCAK256 0x2D CALLDATACOPY 0x5E 0x4A SLOAD 0xCA 0xC2 0xB0 0xA8 PUSH32 0xAFE4DD3A3B48AF58B8280929E6A1F94BF0F2BD91520F64736F6C634300081400 CALLER LOG2 PUSH5 0x6970667358 0x22 SLT KECCAK256 0xC2 0xCC CALLDATACOPY LOG4 0xC6 0xF PUSH8 0x1AF1F665F74F64D1 SWAP8 LOG2 0xEB DUP12 0xF6 TIMESTAMP 0xB5 PUSH28 0xD32A14825D39FF5F0F64736F6C634300081400330000000000000000 "
				},
				"gasEstimates": {
					"creation": {
						"codeDepositCost": "1856000",
						"executionCost": "27815",
						"totalCost": "1883815"
					},
					"external": {
						"createToken(string,string,address,uint256,uint256,uint256,uint256,address,address)": "infinite",
						"owner()": "2339",
						"renounceOwnership()": "infinite",
						"transferOwnership(address)": "28373"
					}
				},
				"methodIdentifiers": {
					"createToken(string,string,address,uint256,uint256,uint256,uint256,address,address)": "7aa088ee",
					"owner()": "8da5cb5b",
					"renounceOwnership()": "715018a6",
					"transferOwnership(address)": "f2fde38b"
				}
			},
			"storageLayout": {
				"storage": [
					{
						"astId": 8,
						"contract": "contracts/BondingCurveFactory.sol:BondingCurveFactory",
						"label": "_owner",
						"offset": 0,
						"slot": "0",
						"type": "t_address"
					}
				],
				"types": {
					"t_address": {
						"encoding": "inplace",
						"label": "address",
						"numberOfBytes": "20"
					}
				}
			},
			"userdoc": {
				"kind": "user",
				"methods": {},
				"version": 1
			}
		}
	}
}