{
	"contracts/YunaVault.sol": {
		"YunaVault": {
			"abi": [
				{
					"inputs": [
						{
							"internalType": "address",
							"name": "_protocol",
							"type": "address"
						},
						{
							"internalType": "address",
							"name": "_token",
							"type": "address"
						},
						{
							"internalType": "uint256",
							"name": "_minDeposit",
							"type": "uint256"
						},
						{
							"internalType": "uint256",
							"name": "_maxDeposit",
							"type": "uint256"
						},
						{
							"internalType": "uint256",
							"name": "_xpRate",
							"type": "uint256"
						},
						{
							"internalType": "uint256[]",
							"name": "_presetTimes",
							"type": "uint256[]"
						},
						{
							"components": [
								{
									"internalType": "uint256",
									"name": "minBlocks",
									"type": "uint256"
								},
								{
									"internalType": "uint256",
									"name": "multiplierBP",
									"type": "uint256"
								}
							],
							"internalType": "struct YunaVault.TimeMultiplier[]",
							"name": "_timeMultipliers",
							"type": "tuple[]"
						},
						{
							"components": [
								{
									"internalType": "uint256",
									"name": "minAmount",
									"type": "uint256"
								},
								{
									"internalType": "uint256",
									"name": "multiplierBP",
									"type": "uint256"
								}
							],
							"internalType": "struct YunaVault.AmountMultiplier[]",
							"name": "_amountMultipliers",
							"type": "tuple[]"
						}
					],
					"stateMutability": "nonpayable",
					"type": "constructor"
				},
				{
					"inputs": [
						{
							"internalType": "address",
							"name": "token",
							"type": "address"
						}
					],
					"name": "SafeERC20FailedOperation",
					"type": "error"
				},
				{
					"anonymous": false,
					"inputs": [
						{
							"indexed": true,
							"internalType": "address",
							"name": "user",
							"type": "address"
						},
						{
							"indexed": true,
							"internalType": "uint256",
							"name": "posId",
							"type": "uint256"
						},
						{
							"indexed": false,
							"internalType": "uint256",
							"name": "refund",
							"type": "uint256"
						}
					],
					"name": "EmergencyReleased",
					"type": "event"
				},
				{
					"anonymous": false,
					"inputs": [
						{
							"indexed": true,
							"internalType": "address",
							"name": "user",
							"type": "address"
						},
						{
							"indexed": true,
							"internalType": "uint256",
							"name": "posId",
							"type": "uint256"
						},
						{
							"indexed": false,
							"internalType": "uint256",
							"name": "refund",
							"type": "uint256"
						},
						{
							"indexed": false,
							"internalType": "uint256",
							"name": "fee",
							"type": "uint256"
						}
					],
					"name": "Released",
					"type": "event"
				},
				{
					"anonymous": false,
					"inputs": [
						{
							"indexed": true,
							"internalType": "address",
							"name": "user",
							"type": "address"
						},
						{
							"indexed": true,
							"internalType": "uint256",
							"name": "posId",
							"type": "uint256"
						},
						{
							"indexed": false,
							"internalType": "uint256",
							"name": "amount",
							"type": "uint256"
						},
						{
							"indexed": false,
							"internalType": "uint256",
							"name": "startBlock",
							"type": "uint256"
						},
						{
							"indexed": false,
							"internalType": "uint256",
							"name": "endBlock",
							"type": "uint256"
						}
					],
					"name": "Staked",
					"type": "event"
				},
				{
					"anonymous": false,
					"inputs": [],
					"name": "VaultClosed",
					"type": "event"
				},
				{
					"inputs": [],
					"name": "active",
					"outputs": [
						{
							"internalType": "bool",
							"name": "",
							"type": "bool"
						}
					],
					"stateMutability": "view",
					"type": "function"
				},
				{
					"inputs": [
						{
							"internalType": "address",
							"name": "",
							"type": "address"
						},
						{
							"internalType": "uint256",
							"name": "",
							"type": "uint256"
						}
					],
					"name": "activePositions",
					"outputs": [
						{
							"internalType": "uint256",
							"name": "",
							"type": "uint256"
						}
					],
					"stateMutability": "view",
					"type": "function"
				},
				{
					"inputs": [
						{
							"internalType": "uint256",
							"name": "blocks",
							"type": "uint256"
						}
					],
					"name": "allowedPreset",
					"outputs": [
						{
							"internalType": "bool",
							"name": "",
							"type": "bool"
						}
					],
					"stateMutability": "view",
					"type": "function"
				},
				{
					"inputs": [
						{
							"internalType": "uint256",
							"name": "",
							"type": "uint256"
						}
					],
					"name": "amountMultipliers",
					"outputs": [
						{
							"internalType": "uint256",
							"name": "minAmount",
							"type": "uint256"
						},
						{
							"internalType": "uint256",
							"name": "multiplierBP",
							"type": "uint256"
						}
					],
					"stateMutability": "view",
					"type": "function"
				},
				{
					"inputs": [],
					"name": "amountMultipliersLen",
					"outputs": [
						{
							"internalType": "uint256",
							"name": "",
							"type": "uint256"
						}
					],
					"stateMutability": "view",
					"type": "function"
				},
				{
					"inputs": [],
					"name": "closeVault",
					"outputs": [],
					"stateMutability": "nonpayable",
					"type": "function"
				},
				{
					"inputs": [],
					"name": "closed",
					"outputs": [
						{
							"internalType": "bool",
							"name": "",
							"type": "bool"
						}
					],
					"stateMutability": "view",
					"type": "function"
				},
				{
					"inputs": [],
					"name": "feeBP",
					"outputs": [
						{
							"internalType": "uint256",
							"name": "",
							"type": "uint256"
						}
					],
					"stateMutability": "view",
					"type": "function"
				},
				{
					"inputs": [
						{
							"internalType": "address",
							"name": "user",
							"type": "address"
						},
						{
							"internalType": "uint256",
							"name": "offset",
							"type": "uint256"
						},
						{
							"internalType": "uint256",
							"name": "limit",
							"type": "uint256"
						},
						{
							"internalType": "bool",
							"name": "_active",
							"type": "bool"
						}
					],
					"name": "getPositionsPaginated",
					"outputs": [
						{
							"internalType": "uint256[]",
							"name": "page",
							"type": "uint256[]"
						}
					],
					"stateMutability": "view",
					"type": "function"
				},
				{
					"inputs": [
						{
							"internalType": "address",
							"name": "holder",
							"type": "address"
						}
					],
					"name": "getXP",
					"outputs": [
						{
							"internalType": "uint256",
							"name": "xp",
							"type": "uint256"
						}
					],
					"stateMutability": "view",
					"type": "function"
				},
				{
					"inputs": [
						{
							"internalType": "address",
							"name": "",
							"type": "address"
						},
						{
							"internalType": "uint256",
							"name": "",
							"type": "uint256"
						}
					],
					"name": "historyPositions",
					"outputs": [
						{
							"internalType": "uint256",
							"name": "",
							"type": "uint256"
						}
					],
					"stateMutability": "view",
					"type": "function"
				},
				{
					"inputs": [],
					"name": "isActive",
					"outputs": [
						{
							"internalType": "bool",
							"name": "",
							"type": "bool"
						}
					],
					"stateMutability": "view",
					"type": "function"
				},
				{
					"inputs": [],
					"name": "maxDeposit",
					"outputs": [
						{
							"internalType": "uint256",
							"name": "",
							"type": "uint256"
						}
					],
					"stateMutability": "view",
					"type": "function"
				},
				{
					"inputs": [],
					"name": "minDeposit",
					"outputs": [
						{
							"internalType": "uint256",
							"name": "",
							"type": "uint256"
						}
					],
					"stateMutability": "view",
					"type": "function"
				},
				{
					"inputs": [],
					"name": "participants",
					"outputs": [
						{
							"internalType": "address[]",
							"name": "",
							"type": "address[]"
						}
					],
					"stateMutability": "view",
					"type": "function"
				},
				{
					"inputs": [
						{
							"internalType": "uint256",
							"name": "",
							"type": "uint256"
						}
					],
					"name": "positions",
					"outputs": [
						{
							"internalType": "address",
							"name": "user",
							"type": "address"
						},
						{
							"internalType": "uint256",
							"name": "amount",
							"type": "uint256"
						},
						{
							"internalType": "uint256",
							"name": "startBlock",
							"type": "uint256"
						},
						{
							"internalType": "uint256",
							"name": "endBlock",
							"type": "uint256"
						},
						{
							"internalType": "bool",
							"name": "claimed",
							"type": "bool"
						}
					],
					"stateMutability": "view",
					"type": "function"
				},
				{
					"inputs": [],
					"name": "positionsLength",
					"outputs": [
						{
							"internalType": "uint256",
							"name": "",
							"type": "uint256"
						}
					],
					"stateMutability": "view",
					"type": "function"
				},
				{
					"inputs": [
						{
							"internalType": "uint256",
							"name": "",
							"type": "uint256"
						}
					],
					"name": "presetTimes",
					"outputs": [
						{
							"internalType": "uint256",
							"name": "",
							"type": "uint256"
						}
					],
					"stateMutability": "view",
					"type": "function"
				},
				{
					"inputs": [],
					"name": "protocol",
					"outputs": [
						{
							"internalType": "address",
							"name": "",
							"type": "address"
						}
					],
					"stateMutability": "view",
					"type": "function"
				},
				{
					"inputs": [],
					"name": "release",
					"outputs": [],
					"stateMutability": "nonpayable",
					"type": "function"
				},
				{
					"inputs": [],
					"name": "releaseAll",
					"outputs": [],
					"stateMutability": "nonpayable",
					"type": "function"
				},
				{
					"inputs": [
						{
							"internalType": "uint256",
							"name": "amount",
							"type": "uint256"
						},
						{
							"internalType": "uint256",
							"name": "blocksToStake",
							"type": "uint256"
						}
					],
					"name": "stake",
					"outputs": [],
					"stateMutability": "nonpayable",
					"type": "function"
				},
				{
					"inputs": [
						{
							"internalType": "uint256",
							"name": "",
							"type": "uint256"
						}
					],
					"name": "timeMultipliers",
					"outputs": [
						{
							"internalType": "uint256",
							"name": "minBlocks",
							"type": "uint256"
						},
						{
							"internalType": "uint256",
							"name": "multiplierBP",
							"type": "uint256"
						}
					],
					"stateMutability": "view",
					"type": "function"
				},
				{
					"inputs": [],
					"name": "timeMultipliersLen",
					"outputs": [
						{
							"internalType": "uint256",
							"name": "",
							"type": "uint256"
						}
					],
					"stateMutability": "view",
					"type": "function"
				},
				{
					"inputs": [],
					"name": "token",
					"outputs": [
						{
							"internalType": "address",
							"name": "",
							"type": "address"
						}
					],
					"stateMutability": "view",
					"type": "function"
				},
				{
					"inputs": [],
					"name": "vaultToken",
					"outputs": [
						{
							"internalType": "address",
							"name": "",
							"type": "address"
						}
					],
					"stateMutability": "view",
					"type": "function"
				},
				{
					"inputs": [],
					"name": "xpRate",
					"outputs": [
						{
							"internalType": "uint256",
							"name": "",
							"type": "uint256"
						}
					],
					"stateMutability": "view",
					"type": "function"
				}
			],
			"devdoc": {
				"errors": {
					"SafeERC20FailedOperation(address)": [
						{
							"details": "An operation with an ERC-20 token failed."
						}
					]
				},
				"kind": "dev",
				"methods": {},
				"version": 1
			},
			"evm": {
				"assembly": "    /* \"contracts/YunaVault.sol\":781:12071  contract YunaVault is ReentrancyGuard {... */\n  0x40\n  0x0140\n  dup2\n  mstore\n  jumpi(tag_33, callvalue)\n  bytecodeSize\n  swap1\n  dup2\n  codesize\n  sub\n  dup1\n  tag_10\n  dup2\n  tag_1\n  jump\t// in\ntag_10:\n  swap4\n  dup5\n  codecopy\n  dup3\n  add\n  swap1\n  0x0100\n  swap3\n  dup4\n  dup2\n  dup5\n  sub\n  slt\n  tag_33\n  jumpi\n  tag_13\n  dup2\n  tag_2\n  jump\t// in\ntag_13:\n  swap1\n  0x20\n  swap1\n  tag_14\n  dup3\n  dup3\n  add\n  tag_2\n  jump\t// in\ntag_14:\n  swap1\n  dup5\n  dup2\n  add\n  mload\n  swap3\n  0x60\n  dup3\n  add\n  mload\n  0x80\n  dup4\n  add\n  mload\n  swap3\n  0xa0\n  dup2\n  add\n  mload\n  0x01\n  dup1\n  0x40\n  shl\n  sub\n  swap1\n  dup2\n  dup2\n  gt\n  tag_33\n  jumpi\n  dup3\n  add\n  dup11\n  0x1f\n  dup3\n  add\n  slt\n  iszero\n  tag_33\n  jumpi\n  dup1\n  mload\n  swap6\n  dup12\n  tag_19\n  tag_20\n  dup10\n  tag_3\n  jump\t// in\ntag_20:\n  tag_1\n  jump\t// in\ntag_19:\n  swap3\n  dup8\n  dup5\n  dup11\n  dup2\n  mstore\n  add\n  swap1\n  dup9\n  dup3\n  swap11\n  0x05\n  shl\n  dup3\n  add\n  add\n  swap3\n  dup4\n  gt\n  tag_33\n  jumpi\n  dup9\n  dup1\n  swap2\n  add\n  swap2\ntag_23:\n  dup4\n  dup4\n  lt\n  tag_24\n  jumpi\n  pop\n  pop\n  pop\n  pop\n  0xc0\n  dup5\n  add\n  mload\n  dup4\n  dup2\n  gt\n  tag_33\n  jumpi\n  dup5\n  add\n  dup13\n  0x1f\n  dup3\n  add\n  slt\n  iszero\n  tag_33\n  jumpi\n  dup13\n  dup2\n  dup9\n  tag_30\n  swap4\n  mload\n  swap2\n  add\n  tag_4\n  jump\t// in\ntag_30:\n  swap4\n  0xe0\n  dup2\n  add\n  mload\n  swap1\n  dup5\n  dup3\n  gt\n  tag_33\n  jumpi\n  add\n  dup13\n  0x1f\n  dup3\n  add\n  slt\n  iszero\n  tag_33\n  jumpi\n    /* \"contracts/YunaVault.sol\":1545:1548  500 */\n  0x01f4\n    /* \"contracts/YunaVault.sol\":781:12071  contract YunaVault is ReentrancyGuard {... */\n  swap13\n  dup2\n  dup9\n  tag_35\n  swap4\n  mload\n  swap2\n  add\n  tag_4\n  jump\t// in\ntag_35:\n  swap5\n  0x01\n  swap10\n  0x00\n  swap10\n  dup12\n  dup12\n  sstore\n    /* \"contracts/YunaVault.sol\":1545:1548  500 */\n  0x0120\n  swap15\n  dup16\n  mstore\n    /* \"contracts/YunaVault.sol\":1803:1807  true */\n  0x04\n    /* \"contracts/YunaVault.sol\":781:12071  contract YunaVault is ReentrancyGuard {... */\n  swap13\n  dup14\n  dup14\n  not(0xffff)\n  dup3\n  sload\n  and\n  or\n  swap1\n  sstore\n  0x01\n  dup1\n  0xa0\n  shl\n  sub\n  dup1\n  dup3\n  and\n    /* \"contracts/YunaVault.sol\":3075:3098  _protocol != address(0) */\n  iszero\n    /* \"contracts/YunaVault.sol\":781:12071  contract YunaVault is ReentrancyGuard {... */\n  tag_36\n  jumpi\n  dup3\n  and\n    /* \"contracts/YunaVault.sol\":3132:3152  _token != address(0) */\n  iszero\n    /* \"contracts/YunaVault.sol\":781:12071  contract YunaVault is ReentrancyGuard {... */\n  tag_38\n  jumpi\n    /* \"contracts/YunaVault.sol\":3183:3209  _minDeposit <= _maxDeposit */\n  dup4\n  dup4\n  gt\n    /* \"contracts/YunaVault.sol\":781:12071  contract YunaVault is ReentrancyGuard {... */\n  tag_40\n  jumpi\n  0x80\n    /* \"contracts/YunaVault.sol\":3234:3254  protocol = _protocol */\n  mstore\n    /* \"contracts/YunaVault.sol\":781:12071  contract YunaVault is ReentrancyGuard {... */\n  0xa0\n    /* \"contracts/YunaVault.sol\":3265:3284  vaultToken = _token */\n  mstore\n    /* \"contracts/YunaVault.sol\":781:12071  contract YunaVault is ReentrancyGuard {... */\n  0xc0\n    /* \"contracts/YunaVault.sol\":3295:3319  minDeposit = _minDeposit */\n  mstore\n    /* \"contracts/YunaVault.sol\":781:12071  contract YunaVault is ReentrancyGuard {... */\n  0xe0\n    /* \"contracts/YunaVault.sol\":3330:3354  maxDeposit = _maxDeposit */\n  mstore\n    /* \"contracts/YunaVault.sol\":3365:3381  xpRate = _xpRate */\n  dup13\n  mstore\n    /* \"contracts/YunaVault.sol\":781:12071  contract YunaVault is ReentrancyGuard {... */\n  mload\n  swap1\n  dup2\n  gt\n  tag_42\n  jumpi\n  0x010000000000000000\n  swap5\n  dup6\n  dup3\n  gt\n  tag_44\n  jumpi\n  dup8\n  sload\n  dup3\n  dup10\n  sstore\n  dup1\n  dup4\n  lt\n  tag_46\n  jumpi\ntag_47:\n  pop\n  dup8\n  dup8\n  mstore\n  dup5\n  dup8\n  keccak256\n  dup9\n  dup9\ntag_48:\n  dup5\n  dup2\n  lt\n  tag_49\n  jumpi\n    /* \"contracts/YunaVault.sol\":3474:3487  uint256 i = 0 */\n  pop\n  swap3\n  pop\n  pop\n  pop\n  dup6\n    /* \"contracts/YunaVault.sol\":3469:3591  for (uint256 i = 0; i < _timeMultipliers.length; i++) {... */\n  swap1\n    /* \"contracts/YunaVault.sol\":781:12071  contract YunaVault is ReentrancyGuard {... */\ntag_51:\n  tag_52\n  jumpi\n    /* \"contracts/YunaVault.sol\":3469:3591  for (uint256 i = 0; i < _timeMultipliers.length; i++) {... */\ntag_53:\n    /* \"contracts/YunaVault.sol\":3606:3619  uint256 i = 0 */\n  pop\n  pop\n  dup5\n  dup5\n    /* \"contracts/YunaVault.sol\":3601:3729  for (uint256 i = 0; i < _amountMultipliers.length; i++) {... */\n  swap1\n    /* \"contracts/YunaVault.sol\":781:12071  contract YunaVault is ReentrancyGuard {... */\ntag_54:\n  tag_55\n  jumpi\n    /* \"contracts/YunaVault.sol\":3601:3729  for (uint256 i = 0; i < _amountMultipliers.length; i++) {... */\ntag_56:\n    /* \"contracts/YunaVault.sol\":781:12071  contract YunaVault is ReentrancyGuard {... */\n  dup8\n  mload\n  dataSize(sub_0)\n  swap1\n  dup11\n  dup13\n  dup4\n  dataOffset(sub_0)\n  dup5\n  codecopy\n  mload(0x80)\n  dup4\n  assignImmutable(\"0x87bd18b67247df6baa7533339c49063efb5f43390eb1bcf9e95a3aa2cdb49408\")\n  mload(0xa0)\n  dup4\n  assignImmutable(\"0x8d841e129c158ed00fc3618c65b249d82e3b0efc8bcebb06537fd0a18b989353\")\n  mload(0xc0)\n  dup4\n  assignImmutable(\"0xb2b512b441304a14c78813be0575a2b1be8296b169485190a954ec0635e46369\")\n  mload(0xe0)\n  dup4\n  assignImmutable(\"0x7ca83d787e7423cefe91ee9c5de8a7604dac0860c07a3450ac6805c567c8da30\")\n  mload\n  dup3\n  assignImmutable(\"0xed870a0389b720122307aec7908f2d3af87dd1fed26cd116ebd921becf62cb81\")\n  mload\n  dup2\n  assignImmutable(\"0xd981c1aa70496adbf331222473f4f790f8f1219995826de705ab70eb68beb770\")\n  return\n    /* \"contracts/YunaVault.sol\":3652:3655  i++ */\ntag_55:\n    /* \"contracts/YunaVault.sol\":781:12071  contract YunaVault is ReentrancyGuard {... */\n  dup2\n  mload\n    /* \"contracts/YunaVault.sol\":3621:3650  i < _amountMultipliers.length */\n  dup2\n  lt\n  iszero\n  tag_57\n  jumpi\n    /* \"contracts/YunaVault.sol\":3695:3716  _amountMultipliers[i] */\n  tag_59\n  dup2\n  dup4\n  tag_6\n  jump\t// in\ntag_59:\n  mload\n    /* \"contracts/YunaVault.sol\":3672:3689  amountMultipliers */\n  0x03\n    /* \"contracts/YunaVault.sol\":781:12071  contract YunaVault is ReentrancyGuard {... */\n  dup1\n  sload\n  swap1\n  dup7\n  dup3\n  lt\n  iszero\n  tag_60\n  jumpi\n  dup9\n  dup3\n  add\n  dup1\n  dup3\n  sstore\n  dup3\n  lt\n  iszero\n  tag_62\n  jumpi\n    /* \"contracts/YunaVault.sol\":3652:3655  i++ */\n  tag_64\n    /* \"contracts/YunaVault.sol\":781:12071  contract YunaVault is ReentrancyGuard {... */\n  swap3\n  dup10\n  swap8\n  swap7\n  swap6\n  swap5\n  swap3\n  tag_65\n  swap3\n  dup11\n  mstore\n  dup7\n  dup11\n  keccak256\n  swap1\n  dup10\n  shl\n  add\n  swap1\n  0x20\n  0x01\n  swap2\n  dup1\n  mload\n  dup5\n  sstore\n  add\n  mload\n  swap2\n  add\n  sstore\n  jump\ntag_65:\n    /* \"contracts/YunaVault.sol\":3652:3655  i++ */\n  tag_5\n  jump\t// in\ntag_64:\n    /* \"contracts/YunaVault.sol\":3606:3619  uint256 i = 0 */\n  swap1\n  swap2\n  swap3\n  swap4\n  jump(tag_54)\n    /* \"contracts/YunaVault.sol\":781:12071  contract YunaVault is ReentrancyGuard {... */\ntag_62:\n  shl(0xe0, 0x4e487b71)\n  dup9\n  mstore\n  0x32\n  dup11\n  mstore\n  0x24\n  dup9\n  revert\ntag_60:\n  shl(0xe0, 0x4e487b71)\n  dup9\n  mstore\n  0x41\n  dup11\n  mstore\n  0x24\n  dup9\n  revert\n    /* \"contracts/YunaVault.sol\":3621:3650  i < _amountMultipliers.length */\ntag_57:\n  jump(tag_56)\n    /* \"contracts/YunaVault.sol\":3518:3521  i++ */\ntag_52:\n    /* \"contracts/YunaVault.sol\":781:12071  contract YunaVault is ReentrancyGuard {... */\n  dup7\n  dup3\n  mload\n    /* \"contracts/YunaVault.sol\":3489:3516  i < _timeMultipliers.length */\n  dup3\n  lt\n  iszero\n  tag_66\n  jumpi\n    /* \"contracts/YunaVault.sol\":3559:3578  _timeMultipliers[i] */\n  pop\n  tag_68\n  dup2\n  dup4\n  tag_6\n  jump\t// in\ntag_68:\n  mload\n    /* \"contracts/YunaVault.sol\":3538:3553  timeMultipliers */\n  0x02\n    /* \"contracts/YunaVault.sol\":781:12071  contract YunaVault is ReentrancyGuard {... */\n  dup1\n  sload\n  swap1\n  dup8\n  dup3\n  lt\n  iszero\n  tag_69\n  jumpi\n  dup10\n  dup3\n  add\n  dup1\n  dup3\n  sstore\n  dup3\n  lt\n  iszero\n  tag_71\n  jumpi\n    /* \"contracts/YunaVault.sol\":3518:3521  i++ */\n  tag_73\n    /* \"contracts/YunaVault.sol\":781:12071  contract YunaVault is ReentrancyGuard {... */\n  swap3\n  dup11\n  swap6\n  swap5\n  swap3\n  tag_65\n  swap3\n  dup12\n  mstore\n  dup9\n  dup12\n  keccak256\n  swap1\n  dup8\n  shl\n  add\n  swap1\n  0x20\n  0x01\n  swap2\n  dup1\n  mload\n  dup5\n  sstore\n  add\n  mload\n  swap2\n  add\n  sstore\n  jump\n    /* \"contracts/YunaVault.sol\":3518:3521  i++ */\ntag_73:\n    /* \"contracts/YunaVault.sol\":3474:3487  uint256 i = 0 */\n  swap1\n  swap2\n  jump(tag_51)\n    /* \"contracts/YunaVault.sol\":781:12071  contract YunaVault is ReentrancyGuard {... */\ntag_71:\n  shl(0xe0, 0x4e487b71)\n  dup10\n  mstore\n  0x32\n  dup12\n  mstore\n  0x24\n  dup10\n  revert\ntag_69:\n  shl(0xe0, 0x4e487b71)\n  dup10\n  mstore\n  0x41\n  dup12\n  mstore\n  0x24\n  dup10\n  revert\n    /* \"contracts/YunaVault.sol\":3489:3516  i < _timeMultipliers.length */\ntag_66:\n  pop\n  jump(tag_53)\n    /* \"contracts/YunaVault.sol\":781:12071  contract YunaVault is ReentrancyGuard {... */\ntag_49:\n  dup8\n  dup5\n  mload\n  swap5\n  add\n  swap4\n  dup2\n  dup5\n  add\n  sstore\n  add\n  dup10\n  swap1\n  jump(tag_48)\ntag_46:\n  dup9\n  dup9\n  mstore\n  dup9\n  dup4\n  dup8\n  dup11\n  keccak256\n  swap3\n  dup4\n  add\n  swap3\n  add\ntag_75:\n  dup3\n  dup2\n  lt\n  tag_76\n  jumpi\n  pop\n  pop\n  jump(tag_47)\ntag_76:\n  dup10\n  dup2\n  sstore\n  add\n  dup10\n  swap1\n  jump(tag_75)\ntag_44:\n  shl(0xe0, 0x4e487b71)\n  dup8\n  mstore\n  0x41\n  dup10\n  mstore\n  0x24\n  dup8\n  revert\ntag_42:\n  shl(0xe0, 0x4e487b71)\n  dup7\n  mstore\n  0x41\n  dup9\n  mstore\n  0x24\n  dup7\n  revert\ntag_40:\n  pop\n  pop\n  dup13\n  mload\n  shl(0xe5, 0x461bcd)\n  dup2\n  mstore\n  dup1\n  dup14\n  add\n  dup10\n  swap1\n  mstore\n  0x07\n  0x24\n  dup3\n  add\n  mstore\n  shl(0xcb, 0x0dad2dc7cdac2f)\n  0x44\n  dup3\n  add\n  mstore\n  0x64\n  swap1\n  revert\ntag_38:\n  pop\n  pop\n  dup13\n  mload\n  shl(0xe5, 0x461bcd)\n  dup2\n  mstore\n  dup1\n  dup14\n  add\n  dup10\n  swap1\n  mstore\n  0x07\n  0x24\n  dup3\n  add\n  mstore\n  shl(0xcc, 0x0746f6b656e203)\n  0x44\n  dup3\n  add\n  mstore\n  0x64\n  swap1\n  revert\ntag_36:\n  dup16\n  dup16\n  dup13\n  0x64\n  swap3\n  mload\n  swap2\n  shl(0xe5, 0x461bcd)\n  dup4\n  mstore\n  dup3\n  add\n  mstore\n  0x0a\n  0x24\n  dup3\n  add\n  mstore\n  shl(0xb4, 0x070726f746f636f6c203)\n  0x44\n  dup3\n  add\n  mstore\n  revert\ntag_33:\n  0x00\n  dup1\n  revert\ntag_24:\n  dup3\n  mload\n  dup2\n  mstore\n  swap2\n  dup2\n  add\n  swap2\n  dup10\n  swap2\n  add\n  jump(tag_23)\ntag_1:\n  mload(0x40)\n  swap2\n  swap1\n  0x1f\n  add\n  not(0x1f)\n  and\n  dup3\n  add\n  sub(shl(0x40, 0x01), 0x01)\n  dup2\n  gt\n  dup4\n  dup3\n  lt\n  or\n  tag_78\n  jumpi\n  0x40\n  mstore\n  jump\t// out\ntag_78:\n  mstore(0x00, shl(0xe0, 0x4e487b71))\n  mstore(0x04, 0x41)\n  revert(0x00, 0x24)\ntag_2:\n  mload\n  swap1\n  sub(shl(0xa0, 0x01), 0x01)\n  dup3\n  and\n  dup3\n  sub\n  tag_33\n  jumpi\n  jump\t// out\ntag_3:\n  sub(shl(0x40, 0x01), 0x01)\n  dup2\n  gt\n  tag_78\n  jumpi\n  0x05\n  shl\n  0x20\n  add\n  swap1\n  jump\t// out\ntag_4:\n  swap1\n  swap3\n  swap2\n  tag_84\n  tag_20\n  dup6\n  tag_3\n  jump\t// in\ntag_84:\n  swap4\n  dup1\n  dup6\n  mstore\n  0x20\n  swap2\n  dup3\n  dup7\n  add\n  swap2\n  0x06\n  shl\n  dup5\n  add\n  swap4\n  dup2\n  dup6\n  gt\n  tag_33\n  jumpi\n  swap2\ntag_88:\n  dup5\n  dup4\n  lt\n  tag_89\n  jumpi\n  pop\n  pop\n  pop\n  pop\n  pop\n  jump\t// out\ntag_89:\n  0x40\n  dup1\n  dup5\n  dup5\n  sub\n  slt\n  tag_33\n  jumpi\n  dup1\n  mload\n  dup1\n  dup3\n  add\n  swap3\n  swap1\n  sub(shl(0x40, 0x01), 0x01)\n  dup5\n  gt\n  dup2\n  dup6\n  lt\n  or\n  tag_93\n  jumpi\n  0x40\n  swap4\n  dup8\n  swap4\n  mstore\n  dup6\n  mload\n  dup2\n  mstore\n  dup3\n  dup7\n  add\n  mload\n  dup4\n  dup3\n  add\n  mstore\n  dup2\n  mstore\n  add\n  swap3\n  add\n  swap2\n  jump(tag_88)\ntag_93:\n  0x24\n  0x00\n  shl(0xe0, 0x4e487b71)\n  dup2\n  mstore\n  mstore(0x04, 0x41)\n  revert\ntag_5:\n  not(0x00)\n  dup2\n  eq\n  tag_95\n  jumpi\n  0x01\n  add\n  swap1\n  jump\t// out\ntag_95:\n  mstore(0x00, shl(0xe0, 0x4e487b71))\n  mstore(0x04, 0x11)\n  revert(0x00, 0x24)\ntag_6:\n  dup1\n  mload\n  dup3\n  lt\n  iszero\n  tag_97\n  jumpi\n  0x20\n  swap2\n  0x05\n  shl\n  add\n  add\n  swap1\n  jump\t// out\ntag_97:\n  mstore(0x00, shl(0xe0, 0x4e487b71))\n  mstore(0x04, 0x32)\n  revert(0x00, 0x24)\nstop\n\nsub_0: assembly {\n        /* \"contracts/YunaVault.sol\":781:12071  contract YunaVault is ReentrancyGuard {... */\n      0x80\n      0x40\n      dup2\n      dup2\n      mstore\n      0x04\n      swap1\n      dup2\n      calldatasize\n      lt\n      iszero\n      tag_27\n      jumpi\n      0x00\n      dup1\n      revert\n    tag_27:\n      0x00\n      swap2\n      dup3\n      calldataload\n      0xe0\n      shr\n      swap4\n      dup5\n      0x017f6fae\n      eq\n      tag_29\n      jumpi\n      pop\n      dup4\n      0x02fb0c5e\n      eq\n      tag_31\n      jumpi\n      dup4\n      0x094b81d3\n      eq\n      tag_33\n      jumpi\n      dup4\n      0x10390d35\n      eq\n      tag_35\n      jumpi\n      dup4\n      0x18976fa2\n      eq\n      tag_37\n      jumpi\n      dup4\n      0x22f3e2d4\n      eq\n      tag_39\n      jumpi\n      dup4\n      0x41b3d185\n      eq\n      tag_41\n      jumpi\n      dup4\n      0x5350cbd9\n      eq\n      tag_43\n      jumpi\n      dup4\n      0x597e1fb5\n      eq\n      tag_45\n      jumpi\n      dup4\n      0x5be7fde8\n      eq\n      tag_47\n      jumpi\n      dup4\n      0x6083e59a\n      eq\n      tag_49\n      jumpi\n      dup4\n      0x639487f4\n      eq\n      tag_51\n      jumpi\n      dup4\n      0x6a5908a0\n      eq\n      tag_53\n      jumpi\n      dup4\n      0x6b53503a\n      eq\n      tag_55\n      jumpi\n      dup4\n      0x6c4470fb\n      eq\n      tag_57\n      jumpi\n      dup4\n      0x703bafd5\n      eq\n      tag_81\n      jumpi\n      dup4\n      0x7b0472f0\n      eq\n      tag_61\n      jumpi\n      dup4\n      0x86d1a69f\n      eq\n      tag_63\n      jumpi\n      dup4\n      0x8ce74426\n      eq\n      tag_65\n      jumpi\n      dup4\n      0x99fbab88\n      eq\n      tag_67\n      jumpi\n      dup4\n      0xa0660dfa\n      eq\n      tag_69\n      jumpi\n      dup4\n      0xac55deb6\n      eq\n      tag_71\n      jumpi\n      dup4\n      0xb9b792cd\n      eq\n      tag_73\n      jumpi\n      dup4\n      0xc122c2a1\n      eq\n      tag_75\n      jumpi\n      dup4\n      0xcba02476\n      eq\n      tag_77\n      jumpi\n      pop\n      dup3\n      0xd6887bfa\n      eq\n      tag_79\n      jumpi\n      pop\n      pop\n      0xfc0c546a\n      eq\n      tag_81\n      jumpi\n      0x00\n      dup1\n      revert\n    tag_81:\n      tag_6\n      jump\t// in\n    tag_79:\n      jumpi(tag_85, callvalue)\n      dup2\n      add(calldatasize, not(0x03))\n      slt\n      tag_85\n      jumpi\n      0x20\n      swap1\n        /* \"contracts/YunaVault.sol\":11464:11473  positions */\n      0x05\n        /* \"contracts/YunaVault.sol\":781:12071  contract YunaVault is ReentrancyGuard {... */\n      sload\n      swap1\n      mload\n      swap1\n      dup2\n      mstore\n      return\n    tag_85:\n      pop\n      dup1\n      revert\n    tag_77:\n      swap2\n      jumpi(tag_89, callvalue)\n      jumpi(tag_89, slt(add(not(0x03), calldatasize), 0x20))\n      pop\n      tag_91\n      0x20\n      swap3\n      calldataload\n      tag_9\n      jump\t// in\n    tag_91:\n      swap1\n      mload\n      swap1\n      iszero\n      iszero\n      dup2\n      mstore\n      return\n    tag_89:\n      dup1\n      revert\n    tag_75:\n      pop\n      jumpi(tag_85, callvalue)\n      dup2\n      add(calldatasize, not(0x03))\n      slt\n      tag_85\n      jumpi\n      0x20\n      swap1\n        /* \"contracts/YunaVault.sol\":11229:11244  timeMultipliers */\n      0x02\n        /* \"contracts/YunaVault.sol\":781:12071  contract YunaVault is ReentrancyGuard {... */\n      sload\n      swap1\n      mload\n      swap1\n      dup2\n      mstore\n      return\n    tag_73:\n      pop\n      jumpi(tag_85, callvalue)\n      dup2\n      add(calldatasize, not(0x03))\n      slt\n      tag_85\n      jumpi\n      0x20\n      swap1\n      sload(0x03)\n      swap1\n      mload\n      swap1\n      dup2\n      mstore\n      return\n    tag_71:\n      pop\n      jumpi(tag_85, callvalue)\n      dup1\n      add(calldatasize, not(0x03))\n      slt\n      tag_85\n      jumpi\n      tag_104\n      tag_5\n      jump\t// in\n    tag_104:\n      sub(shl(0xa0, 0x01), 0x01)\n      and\n      dup3\n      mstore\n        /* \"contracts/YunaVault.sol\":2057:2110  mapping(address => uint256[]) public historyPositions */\n      0x07\n        /* \"contracts/YunaVault.sol\":781:12071  contract YunaVault is ReentrancyGuard {... */\n      0x20\n      mstore\n      dup1\n      dup3\n      keccak256\n      dup1\n      sload\n      calldataload(0x24)\n      swap4\n      swap1\n        /* \"contracts/YunaVault.sol\":2057:2110  mapping(address => uint256[]) public historyPositions */\n      dup5\n      lt\n      iszero\n      tag_89\n      jumpi\n      pop\n        /* \"contracts/YunaVault.sol\":781:12071  contract YunaVault is ReentrancyGuard {... */\n      0x20\n        /* \"contracts/YunaVault.sol\":2057:2110  mapping(address => uint256[]) public historyPositions */\n      swap3\n      tag_107\n      swap2\n      tag_2\n      jump\t// in\n    tag_107:\n        /* \"contracts/YunaVault.sol\":781:12071  contract YunaVault is ReentrancyGuard {... */\n      swap2\n      swap1\n      sload\n      swap1\n      mload\n      swap2\n      0x03\n      shl\n      shr\n      dup2\n      mstore\n      return\n    tag_69:\n      dup3\n      swap1\n      jumpi(tag_85, callvalue)\n      jumpi(tag_85, slt(add(not(0x03), calldatasize), 0x20))\n      calldataload\n      swap1\n      sload(0x03)\n        /* \"contracts/YunaVault.sol\":1702:1745  AmountMultiplier[] public amountMultipliers */\n      dup3\n      lt\n      iszero\n      tag_89\n      jumpi\n      pop\n      tag_114\n      swap1\n      tag_4\n      jump\t// in\n    tag_114:\n        /* \"contracts/YunaVault.sol\":781:12071  contract YunaVault is ReentrancyGuard {... */\n      pop\n      0x01\n      dup2\n      sload\n        /* \"contracts/YunaVault.sol\":1702:1745  AmountMultiplier[] public amountMultipliers */\n      swap2\n      add\n        /* \"contracts/YunaVault.sol\":781:12071  contract YunaVault is ReentrancyGuard {... */\n      sload\n      dup3\n      mload\n      swap2\n      dup3\n      mstore\n      0x20\n      dup3\n      add\n      mstore\n      return\n    tag_67:\n      swap1\n      jumpi(tag_117, callvalue)\n      jumpi(tag_117, slt(add(not(0x03), calldatasize), 0x20))\n      dup2\n      calldataload\n      swap3\n        /* \"contracts/YunaVault.sol\":1964:1991  Position[] public positions */\n      0x05\n        /* \"contracts/YunaVault.sol\":781:12071  contract YunaVault is ReentrancyGuard {... */\n      sload\n        /* \"contracts/YunaVault.sol\":1964:1991  Position[] public positions */\n      dup5\n      lt\n      iszero\n      tag_89\n      jumpi\n      pop\n      tag_121\n        /* \"contracts/YunaVault.sol\":781:12071  contract YunaVault is ReentrancyGuard {... */\n      0xa0\n        /* \"contracts/YunaVault.sol\":1964:1991  Position[] public positions */\n      swap4\n      tag_7\n      jump\t// in\n    tag_121:\n        /* \"contracts/YunaVault.sol\":781:12071  contract YunaVault is ReentrancyGuard {... */\n      pop\n      0x01\n      dup1\n      dup6\n      shl\n      sub\n      dup2\n      sload\n      and\n        /* \"contracts/YunaVault.sol\":1964:1991  Position[] public positions */\n      swap3\n        /* \"contracts/YunaVault.sol\":781:12071  contract YunaVault is ReentrancyGuard {... */\n      0x01\n        /* \"contracts/YunaVault.sol\":1964:1991  Position[] public positions */\n      dup3\n      add\n        /* \"contracts/YunaVault.sol\":781:12071  contract YunaVault is ReentrancyGuard {... */\n      sload\n        /* \"contracts/YunaVault.sol\":1964:1991  Position[] public positions */\n      swap3\n        /* \"contracts/YunaVault.sol\":781:12071  contract YunaVault is ReentrancyGuard {... */\n      0xff\n        /* \"contracts/YunaVault.sol\":1964:1991  Position[] public positions */\n      0x02\n      dup5\n      add\n        /* \"contracts/YunaVault.sol\":781:12071  contract YunaVault is ReentrancyGuard {... */\n      sload\n        /* \"contracts/YunaVault.sol\":1964:1991  Position[] public positions */\n      swap3\n        /* \"contracts/YunaVault.sol\":781:12071  contract YunaVault is ReentrancyGuard {... */\n      0x03\n        /* \"contracts/YunaVault.sol\":1964:1991  Position[] public positions */\n      dup6\n      add\n        /* \"contracts/YunaVault.sol\":781:12071  contract YunaVault is ReentrancyGuard {... */\n      sload\n        /* \"contracts/YunaVault.sol\":1964:1991  Position[] public positions */\n      swap5\n      add\n        /* \"contracts/YunaVault.sol\":781:12071  contract YunaVault is ReentrancyGuard {... */\n      sload\n      and\n      swap4\n      dup2\n      mload\n      swap6\n      dup7\n      mstore\n      0x20\n      dup7\n      add\n      mstore\n      dup5\n      add\n      mstore\n      0x60\n      dup4\n      add\n      mstore\n      iszero\n      iszero\n      0x80\n      dup3\n      add\n      mstore\n      return\n    tag_117:\n      dup3\n      dup1\n      revert\n    tag_65:\n      pop\n      jumpi(tag_85, callvalue)\n      dup2\n      add(calldatasize, not(0x03))\n      slt\n      tag_85\n      jumpi\n      mload\n        /* \"contracts/YunaVault.sol\":1305:1338  address public immutable protocol */\n      immutable(\"0x87bd18b67247df6baa7533339c49063efb5f43390eb1bcf9e95a3aa2cdb49408\")\n      sub(shl(0xa0, 0x01), 0x01)\n        /* \"contracts/YunaVault.sol\":781:12071  contract YunaVault is ReentrancyGuard {... */\n      and\n      dup2\n      mstore\n      0x20\n      swap1\n      return\n    tag_63:\n      swap3\n      pop\n      jumpi(tag_85, callvalue)\n      dup2\n      add(calldatasize, not(0x03))\n      slt\n      tag_85\n      jumpi\n        /* \"@openzeppelin/contracts/security/ReentrancyGuard.sol\":2227:2330  modifier nonReentrant() {... */\n      tag_130\n      tag_17\n      jump\t// in\n    tag_130:\n        /* \"contracts/YunaVault.sol\":5252:5262  msg.sender */\n      caller\n        /* \"contracts/YunaVault.sol\":781:12071  contract YunaVault is ReentrancyGuard {... */\n      dup3\n      mstore\n      0x20\n      swap1\n        /* \"contracts/YunaVault.sol\":7129:7144  activePositions */\n      0x06\n        /* \"contracts/YunaVault.sol\":781:12071  contract YunaVault is ReentrancyGuard {... */\n      dup3\n      mstore\n      dup1\n      dup4\n      keccak256\n        /* \"contracts/YunaVault.sol\":7161:7174  uint256 i = 0 */\n      swap3\n      dup1\n        /* \"contracts/YunaVault.sol\":7185:8625  while (i < ids.length) {... */\n      swap3\n    tag_131:\n        /* \"contracts/YunaVault.sol\":781:12071  contract YunaVault is ReentrancyGuard {... */\n      dup5\n      sload\n        /* \"contracts/YunaVault.sol\":7192:7206  i < ids.length */\n      dup5\n      lt\n      iszero\n      tag_132\n      jumpi\n        /* \"contracts/YunaVault.sol\":7239:7245  ids[i] */\n      tag_134\n      dup5\n      dup7\n      tag_2\n      jump\t// in\n    tag_134:\n        /* \"contracts/YunaVault.sol\":781:12071  contract YunaVault is ReentrancyGuard {... */\n      swap1\n      sload\n      0x03\n      swap2\n      dup3\n      shl\n      shr\n        /* \"contracts/YunaVault.sol\":7281:7297  positions[posId] */\n      tag_135\n      dup2\n      tag_7\n      jump\t// in\n    tag_135:\n        /* \"contracts/YunaVault.sol\":7437:7447  p.endBlock */\n      pop\n      dup3\n      dup2\n      add\n        /* \"contracts/YunaVault.sol\":781:12071  contract YunaVault is ReentrancyGuard {... */\n      sload\n        /* \"contracts/YunaVault.sol\":7421:7433  block.number */\n      number\n        /* \"contracts/YunaVault.sol\":7421:7447  block.number >= p.endBlock */\n      lt\n      dup1\n      iszero\n        /* \"contracts/YunaVault.sol\":7467:7476  p.claimed */\n      dup11\n      dup4\n      add\n        /* \"contracts/YunaVault.sol\":781:12071  contract YunaVault is ReentrancyGuard {... */\n      dup1\n      sload\n      swap3\n      0xff\n      swap1\n      dup2\n      dup6\n      and\n        /* \"contracts/YunaVault.sol\":7466:7476  !p.claimed */\n      iszero\n        /* \"contracts/YunaVault.sol\":7466:7513  !p.claimed && (matured || (closed && !takeFee)) */\n      swap2\n      dup3\n      tag_136\n      jumpi\n        /* \"contracts/YunaVault.sol\":7185:8625  while (i < ids.length) {... */\n    tag_137:\n      pop\n      pop\n        /* \"contracts/YunaVault.sol\":7462:8614  if (!p.claimed && (matured || (closed && !takeFee))) {... */\n      iszero\n      tag_138\n      jumpi\n        /* \"contracts/YunaVault.sol\":5264:5268  true */\n      swap1\n      dup7\n      swap2\n      0x01\n        /* \"contracts/YunaVault.sol\":781:12071  contract YunaVault is ReentrancyGuard {... */\n      dup1\n      swap5\n      not(0xff)\n      and\n      or\n      swap1\n      sstore\n        /* \"contracts/YunaVault.sol\":7636:8320  if (takeFee && matured) {... */\n      0x00\n      eq\n      tag_140\n      jumpi\n        /* \"contracts/YunaVault.sol\":7693:7701  p.amount */\n      pop\n      dup2\n      add\n        /* \"contracts/YunaVault.sol\":781:12071  contract YunaVault is ReentrancyGuard {... */\n      sload\n        /* \"contracts/YunaVault.sol\":7705:7710  10000 */\n      0x2710\n        /* \"contracts/YunaVault.sol\":7713:7718  feeBP */\n      immutable(\"0xd981c1aa70496adbf331222473f4f790f8f1219995826de705ab70eb68beb770\")\n        /* \"contracts/YunaVault.sol\":781:12071  contract YunaVault is ReentrancyGuard {... */\n      dup2\n      sub\n      dup2\n      dup2\n      gt\n      tag_142\n      jumpi\n        /* \"contracts/YunaVault.sol\":7693:7719  p.amount * (10000 - feeBP) */\n      dup9\n      dup4\n        /* \"contracts/YunaVault.sol\":7757:7774  p.amount - refund */\n      tag_144\n        /* \"contracts/YunaVault.sol\":7693:7719  p.amount * (10000 - feeBP) */\n      dup8\n      swap7\n      swap5\n      tag_145\n        /* \"contracts/YunaVault.sol\":8004:8040  Released(p.user, posId, refund, fee) */\n      0x7b381718bec1e0dbc1241809ee9b55f3d783b95880307f002707fad981fa5069\n        /* \"contracts/YunaVault.sol\":7693:7719  p.amount * (10000 - feeBP) */\n      swap6\n        /* \"contracts/YunaVault.sol\":8376:8410  historyPositions[user].push(posId) */\n      tag_146\n        /* \"contracts/YunaVault.sol\":7693:7719  p.amount * (10000 - feeBP) */\n      swap11\n      swap9\n      tag_19\n      jump\t// in\n    tag_145:\n        /* \"contracts/YunaVault.sol\":781:12071  contract YunaVault is ReentrancyGuard {... */\n      div\n        /* \"contracts/YunaVault.sol\":7757:7774  p.amount - refund */\n      dup1\n      swap3\n      tag_14\n      jump\t// in\n    tag_144:\n        /* \"contracts/YunaVault.sol\":7801:7808  fee > 0 */\n      swap4\n      dup5\n        /* \"contracts/YunaVault.sol\":7797:7907  if (fee > 0) {... */\n      tag_147\n      jumpi\n        /* \"contracts/YunaVault.sol\":7636:8320  if (takeFee && matured) {... */\n    tag_148:\n        /* \"contracts/YunaVault.sol\":781:12071  contract YunaVault is ReentrancyGuard {... */\n      dup1\n      sload\n      sub(shl(0xa0, 0x01), 0x01)\n      swap2\n      swap1\n        /* \"contracts/YunaVault.sol\":7969:7975  refund */\n      tag_149\n      swap1\n        /* \"contracts/YunaVault.sol\":781:12071  contract YunaVault is ReentrancyGuard {... */\n      dup5\n      swap1\n      dup5\n      and\n        /* \"contracts/YunaVault.sol\":7936:7946  vaultToken */\n      immutable(\"0x8d841e129c158ed00fc3618c65b249d82e3b0efc8bcebb06537fd0a18b989353\")\n        /* \"contracts/YunaVault.sol\":781:12071  contract YunaVault is ReentrancyGuard {... */\n      dup6\n      and\n        /* \"contracts/YunaVault.sol\":7969:7975  refund */\n      tag_21\n      jump\t// in\n    tag_149:\n        /* \"contracts/YunaVault.sol\":781:12071  contract YunaVault is ReentrancyGuard {... */\n      sload\n      and\n      swap4\n      dup3\n      mload\n      swap2\n      dup3\n      mstore\n      dup10\n      dup3\n      add\n      mstore\n        /* \"contracts/YunaVault.sol\":8004:8040  Released(p.user, posId, refund, fee) */\n      log3\n        /* \"contracts/YunaVault.sol\":7636:8320  if (takeFee && matured) {... */\n    tag_150:\n        /* \"contracts/YunaVault.sol\":5252:5262  msg.sender */\n      caller\n        /* \"contracts/YunaVault.sol\":781:12071  contract YunaVault is ReentrancyGuard {... */\n      dup6\n      mstore\n        /* \"contracts/YunaVault.sol\":8376:8392  historyPositions */\n      0x07\n        /* \"contracts/YunaVault.sol\":781:12071  contract YunaVault is ReentrancyGuard {... */\n      dup5\n      mstore\n      dup6\n      dup6\n      keccak256\n        /* \"contracts/YunaVault.sol\":8376:8410  historyPositions[user].push(posId) */\n      tag_16\n      jump\t// in\n    tag_146:\n        /* \"contracts/YunaVault.sol\":781:12071  contract YunaVault is ReentrancyGuard {... */\n      dup6\n      sload\n      not(0x00)\n      dup2\n      add\n      swap1\n      dup2\n      gt\n      tag_151\n      jumpi\n        /* \"contracts/YunaVault.sol\":8507:8526  ids[ids.length - 1] */\n      swap1\n      tag_153\n        /* \"contracts/YunaVault.sol\":8498:8526  ids[i] = ids[ids.length - 1] */\n      tag_154\n        /* \"contracts/YunaVault.sol\":8507:8526  ids[ids.length - 1] */\n      swap3\n      dup9\n      tag_2\n      jump\t// in\n    tag_153:\n        /* \"contracts/YunaVault.sol\":781:12071  contract YunaVault is ReentrancyGuard {... */\n      swap1\n      sload\n      swap2\n      shl\n      shr\n        /* \"contracts/YunaVault.sol\":8498:8504  ids[i] */\n      tag_155\n      dup7\n      dup9\n      tag_2\n      jump\t// in\n    tag_155:\n        /* \"contracts/YunaVault.sol\":8498:8526  ids[i] = ids[ids.length - 1] */\n      swap1\n        /* \"contracts/YunaVault.sol\":781:12071  contract YunaVault is ReentrancyGuard {... */\n      swap2\n      swap1\n      dup3\n      sload\n      swap1\n      0x03\n      shl\n      swap2\n      dup3\n      shl\n      swap2\n      not(0x00)\n      swap1\n      shl\n      not\n      and\n      or\n      swap1\n      sstore\n      jump\n        /* \"contracts/YunaVault.sol\":8498:8526  ids[i] = ids[ids.length - 1] */\n    tag_154:\n        /* \"contracts/YunaVault.sol\":8545:8552  ids.pop */\n      tag_156\n      dup6\n      tag_20\n      jump\t// in\n    tag_156:\n        /* \"contracts/YunaVault.sol\":7185:8625  while (i < ids.length) {... */\n      jump(tag_131)\n        /* \"contracts/YunaVault.sol\":781:12071  contract YunaVault is ReentrancyGuard {... */\n    tag_151:\n      shl(0xe0, 0x4e487b71)\n      dup5\n      mstore\n      0x11\n      dup9\n      mstore\n      0x24\n      dup5\n      revert\n        /* \"contracts/YunaVault.sol\":7797:7907  if (fee > 0) {... */\n    tag_147:\n        /* \"contracts/YunaVault.sol\":7879:7882  fee */\n      tag_158\n        /* \"contracts/YunaVault.sol\":7869:7877  protocol */\n      dup6\n      immutable(\"0x87bd18b67247df6baa7533339c49063efb5f43390eb1bcf9e95a3aa2cdb49408\")\n        /* \"contracts/YunaVault.sol\":7844:7854  vaultToken */\n      immutable(\"0x8d841e129c158ed00fc3618c65b249d82e3b0efc8bcebb06537fd0a18b989353\")\n      sub(shl(0xa0, 0x01), 0x01)\n        /* \"contracts/YunaVault.sol\":781:12071  contract YunaVault is ReentrancyGuard {... */\n      and\n        /* \"contracts/YunaVault.sol\":7879:7882  fee */\n      tag_21\n      jump\t// in\n    tag_158:\n        /* \"contracts/YunaVault.sol\":7797:7907  if (fee > 0) {... */\n      jump(tag_148)\n        /* \"contracts/YunaVault.sol\":781:12071  contract YunaVault is ReentrancyGuard {... */\n    tag_142:\n      shl(0xe0, 0x4e487b71)\n      dup9\n      mstore\n      0x11\n      dup13\n      mstore\n      0x24\n      dup9\n      revert\n        /* \"contracts/YunaVault.sol\":7636:8320  if (takeFee && matured) {... */\n    tag_140:\n        /* \"contracts/YunaVault.sol\":8154:8162  p.amount */\n      swap2\n        /* \"contracts/YunaVault.sol\":8260:8300  EmergencyReleased(p.user, posId, refund) */\n      0xbaea19541010bad0070d3e9eba7d614e4f22a90d557eb4b70272d33a32793a07\n        /* \"contracts/YunaVault.sol\":8154:8162  p.amount */\n      dup5\n      swap4\n        /* \"contracts/YunaVault.sol\":8376:8410  historyPositions[user].push(posId) */\n      tag_146\n        /* \"contracts/YunaVault.sol\":8154:8162  p.amount */\n      swap6\n      swap4\n      dup4\n      add\n        /* \"contracts/YunaVault.sol\":781:12071  contract YunaVault is ReentrancyGuard {... */\n      sload\n      swap3\n      0x01\n      dup1\n      0xa0\n      shl\n      sub\n      swap1\n        /* \"contracts/YunaVault.sol\":8225:8231  refund */\n      tag_159\n        /* \"contracts/YunaVault.sol\":781:12071  contract YunaVault is ReentrancyGuard {... */\n      dup6\n      dup4\n      dup4\n      sload\n      and\n        /* \"contracts/YunaVault.sol\":8192:8202  vaultToken */\n      dup5\n      immutable(\"0x8d841e129c158ed00fc3618c65b249d82e3b0efc8bcebb06537fd0a18b989353\")\n        /* \"contracts/YunaVault.sol\":781:12071  contract YunaVault is ReentrancyGuard {... */\n      and\n        /* \"contracts/YunaVault.sol\":8225:8231  refund */\n      tag_21\n      jump\t// in\n    tag_159:\n        /* \"contracts/YunaVault.sol\":781:12071  contract YunaVault is ReentrancyGuard {... */\n      sload\n      and\n      swap3\n      dup11\n      mload\n      swap1\n      dup2\n      mstore\n        /* \"contracts/YunaVault.sol\":8260:8300  EmergencyReleased(p.user, posId, refund) */\n      log3\n        /* \"contracts/YunaVault.sol\":7636:8320  if (takeFee && matured) {... */\n      jump(tag_150)\n        /* \"contracts/YunaVault.sol\":7462:8614  if (!p.claimed && (matured || (closed && !takeFee))) {... */\n    tag_138:\n        /* \"contracts/YunaVault.sol\":8595:8598  i++ */\n      pop\n      pop\n      pop\n      pop\n      pop\n      pop\n      swap3\n      tag_160\n      swap1\n      tag_8\n      jump\t// in\n    tag_160:\n        /* \"contracts/YunaVault.sol\":7462:8614  if (!p.claimed && (matured || (closed && !takeFee))) {... */\n      swap3\n        /* \"contracts/YunaVault.sol\":7185:8625  while (i < ids.length) {... */\n      jump(tag_131)\n        /* \"contracts/YunaVault.sol\":7466:7513  !p.claimed && (matured || (closed && !takeFee)) */\n    tag_136:\n        /* \"contracts/YunaVault.sol\":7481:7512  matured || (closed && !takeFee) */\n      dup5\n      swap3\n      pop\n      swap1\n      tag_161\n      jumpi\n        /* \"contracts/YunaVault.sol\":7466:7513  !p.claimed && (matured || (closed && !takeFee)) */\n    tag_162:\n      pop\n      0x00\n      dup1\n      jump(tag_137)\n        /* \"contracts/YunaVault.sol\":7481:7512  matured || (closed && !takeFee) */\n    tag_161:\n        /* \"contracts/YunaVault.sol\":781:12071  contract YunaVault is ReentrancyGuard {... */\n      swap1\n      pop\n      dup13\n      sload\n      0x08\n      shr\n      and\n        /* \"contracts/YunaVault.sol\":7493:7511  closed && !takeFee */\n      dup1\n      tag_163\n      jumpi\n        /* \"contracts/YunaVault.sol\":7481:7512  matured || (closed && !takeFee) */\n    tag_164:\n      0x00\n      jump(tag_162)\n        /* \"contracts/YunaVault.sol\":7493:7511  closed && !takeFee */\n    tag_163:\n      pop\n      dup8\n      jump(tag_164)\n        /* \"contracts/YunaVault.sol\":7192:7206  i < ids.length */\n    tag_132:\n      pop\n        /* \"contracts/YunaVault.sol\":5264:5268  true */\n      0x01\n        /* \"contracts/YunaVault.sol\":781:12071  contract YunaVault is ReentrancyGuard {... */\n      dup2\n      sstore\n      dup1\n      return\n    tag_61:\n      swap1\n      jumpi(tag_117, callvalue)\n      dup1\n      add(calldatasize, not(0x03))\n      slt\n      tag_117\n      jumpi\n      dup2\n      calldataload\n      swap1\n      0x24\n      swap3\n      dup4\n      calldataload\n        /* \"@openzeppelin/contracts/security/ReentrancyGuard.sol\":2227:2330  modifier nonReentrant() {... */\n      swap1\n      tag_169\n      tag_17\n      jump\t// in\n    tag_169:\n        /* \"contracts/YunaVault.sol\":4180:4226  require(active && !closed, \"vault not active\") */\n      tag_170\n        /* \"contracts/YunaVault.sol\":781:12071  contract YunaVault is ReentrancyGuard {... */\n      dup2\n      sload\n      0xff\n      dup2\n      and\n        /* \"contracts/YunaVault.sol\":4188:4205  active && !closed */\n      swap1\n      dup2\n      tag_171\n      jumpi\n        /* \"contracts/YunaVault.sol\":781:12071  contract YunaVault is ReentrancyGuard {... */\n    tag_172:\n        /* \"contracts/YunaVault.sol\":4180:4226  require(active && !closed, \"vault not active\") */\n      pop\n      tag_10\n      jump\t// in\n    tag_170:\n        /* \"contracts/YunaVault.sol\":4255:4265  minDeposit */\n      immutable(\"0xb2b512b441304a14c78813be0575a2b1be8296b169485190a954ec0635e46369\")\n        /* \"contracts/YunaVault.sol\":4245:4265  amount >= minDeposit */\n      dup5\n      lt\n      iszero\n        /* \"contracts/YunaVault.sol\":4245:4289  amount >= minDeposit && amount <= maxDeposit */\n      dup1\n      tag_173\n      jumpi\n        /* \"contracts/YunaVault.sol\":781:12071  contract YunaVault is ReentrancyGuard {... */\n    tag_174:\n      iszero\n      tag_175\n      jumpi\n        /* \"contracts/YunaVault.sol\":4333:4350  blocksToStake > 0 */\n      dup2\n      iszero\n        /* \"contracts/YunaVault.sol\":781:12071  contract YunaVault is ReentrancyGuard {... */\n      tag_177\n      jumpi\n        /* \"contracts/YunaVault.sol\":4382:4410  allowedPreset(blocksToStake) */\n      tag_179\n      dup3\n      tag_9\n      jump\t// in\n    tag_179:\n        /* \"contracts/YunaVault.sol\":781:12071  contract YunaVault is ReentrancyGuard {... */\n      iszero\n      tag_180\n      jumpi\n      dup3\n      mload\n      shl(0xe0, 0x23b872dd)\n      0x20\n        /* \"@openzeppelin/contracts/token/ERC20/utils/SafeERC20.sol\":1745:1798  abi.encodeCall(token.transferFrom, (from, to, value)) */\n      dup3\n      add\n      mstore\n        /* \"contracts/YunaVault.sol\":4482:4492  msg.sender */\n      caller\n        /* \"@openzeppelin/contracts/token/ERC20/utils/SafeERC20.sol\":1745:1798  abi.encodeCall(token.transferFrom, (from, to, value)) */\n      dup7\n      dup3\n      add\n        /* \"contracts/YunaVault.sol\":781:12071  contract YunaVault is ReentrancyGuard {... */\n      mstore\n        /* \"contracts/YunaVault.sol\":4502:4506  this */\n      address\n        /* \"contracts/YunaVault.sol\":781:12071  contract YunaVault is ReentrancyGuard {... */\n      0x44\n      dup3\n      add\n      mstore\n      0x64\n      dup1\n      dup3\n      add\n      dup7\n      swap1\n      mstore\n        /* \"@openzeppelin/contracts/token/ERC20/utils/SafeERC20.sol\":1745:1798  abi.encodeCall(token.transferFrom, (from, to, value)) */\n      dup2\n      mstore\n      tag_182\n        /* \"contracts/YunaVault.sol\":781:12071  contract YunaVault is ReentrancyGuard {... */\n      dup2\n        /* \"@openzeppelin/contracts/token/ERC20/utils/SafeERC20.sol\":1745:1798  abi.encodeCall(token.transferFrom, (from, to, value)) */\n      tag_12\n      jump\t// in\n    tag_182:\n      sub(shl(0xa0, 0x01), 0x01)\n        /* \"contracts/YunaVault.sol\":781:12071  contract YunaVault is ReentrancyGuard {... */\n      swap1\n        /* \"@openzeppelin/contracts/token/ERC20/utils/SafeERC20.sol\":1745:1798  abi.encodeCall(token.transferFrom, (from, to, value)) */\n      tag_183\n      swap1\n        /* \"contracts/YunaVault.sol\":4453:4463  vaultToken */\n      immutable(\"0x8d841e129c158ed00fc3618c65b249d82e3b0efc8bcebb06537fd0a18b989353\")\n        /* \"contracts/YunaVault.sol\":781:12071  contract YunaVault is ReentrancyGuard {... */\n      dup4\n      and\n        /* \"@openzeppelin/contracts/token/ERC20/utils/SafeERC20.sol\":1745:1798  abi.encodeCall(token.transferFrom, (from, to, value)) */\n      tag_18\n      jump\t// in\n    tag_183:\n        /* \"contracts/YunaVault.sol\":4677:4705  block.number + blocksToStake */\n      tag_184\n        /* \"contracts/YunaVault.sol\":4640:4652  block.number */\n      dup4\n      number\n        /* \"contracts/YunaVault.sol\":4677:4705  block.number + blocksToStake */\n      tag_11\n      jump\t// in\n    tag_184:\n        /* \"contracts/YunaVault.sol\":781:12071  contract YunaVault is ReentrancyGuard {... */\n      swap6\n      dup5\n      mload\n      swap3\n      tag_185\n      dup5\n      tag_12\n      jump\t// in\n    tag_185:\n        /* \"contracts/YunaVault.sol\":4482:4492  msg.sender */\n      caller\n        /* \"contracts/YunaVault.sol\":781:12071  contract YunaVault is ReentrancyGuard {... */\n      dup5\n      mstore\n      0x20\n        /* \"contracts/YunaVault.sol\":4544:4746  Position({... */\n      dup5\n      add\n        /* \"contracts/YunaVault.sol\":781:12071  contract YunaVault is ReentrancyGuard {... */\n      swap4\n      dup8\n      dup6\n      mstore\n        /* \"contracts/YunaVault.sol\":4544:4746  Position({... */\n      dup7\n      dup2\n      add\n        /* \"contracts/YunaVault.sol\":4640:4652  block.number */\n      swap9\n      number\n        /* \"contracts/YunaVault.sol\":781:12071  contract YunaVault is ReentrancyGuard {... */\n      dup11\n      mstore\n      0x60\n        /* \"contracts/YunaVault.sol\":4544:4746  Position({... */\n      dup3\n      add\n        /* \"contracts/YunaVault.sol\":781:12071  contract YunaVault is ReentrancyGuard {... */\n      swap1\n      dup2\n      mstore\n        /* \"contracts/YunaVault.sol\":4544:4746  Position({... */\n      0x80\n      dup3\n      add\n        /* \"contracts/YunaVault.sol\":781:12071  contract YunaVault is ReentrancyGuard {... */\n      swap10\n      dup12\n      dup12\n      mstore\n        /* \"contracts/YunaVault.sol\":4529:4538  positions */\n      0x05\n        /* \"contracts/YunaVault.sol\":781:12071  contract YunaVault is ReentrancyGuard {... */\n      sload\n      swap6\n      shl(0x40, 0x01)\n      swap7\n      dup8\n      dup2\n      lt\n      iszero\n      tag_186\n      jumpi\n      dup1\n      0x01\n      tag_188\n      swap3\n      add\n        /* \"contracts/YunaVault.sol\":4529:4538  positions */\n      0x05\n        /* \"contracts/YunaVault.sol\":781:12071  contract YunaVault is ReentrancyGuard {... */\n      sstore\n      tag_7\n      jump\t// in\n    tag_188:\n      swap5\n      swap1\n      swap5\n      tag_189\n      jumpi\n      mload\n      dup5\n      sload\n      swap2\n      and\n      not(sub(shl(0xa0, 0x01), 0x01))\n      swap2\n      dup3\n      and\n      or\n      dup5\n      sstore\n      swap7\n      mload\n      0x01\n      dup5\n      add\n      sstore\n      mload\n      0x02\n      dup4\n      add\n      sstore\n      mload\n      0x03\n      dup3\n      add\n      sstore\n      swap8\n      mload\n      swap8\n      dup2\n      add\n      dup1\n      sload\n      not(0xff)\n      swap1\n      dup2\n      and\n      swap10\n      iszero\n      iszero\n      0xff\n      and\n      swap10\n      swap1\n      swap10\n      or\n      swap1\n      sstore\n        /* \"contracts/YunaVault.sol\":4529:4538  positions */\n      0x05\n        /* \"contracts/YunaVault.sol\":781:12071  contract YunaVault is ReentrancyGuard {... */\n      sload\n      not(0x00)\n      dup2\n      add\n      swap9\n      swap1\n      dup10\n      gt\n      tag_191\n      jumpi\n        /* \"contracts/YunaVault.sol\":4482:4492  msg.sender */\n      caller\n        /* \"contracts/YunaVault.sol\":781:12071  contract YunaVault is ReentrancyGuard {... */\n      dup11\n      mstore\n        /* \"contracts/YunaVault.sol\":4807:4822  activePositions */\n      0x06\n        /* \"contracts/YunaVault.sol\":781:12071  contract YunaVault is ReentrancyGuard {... */\n      0x20\n      mstore\n        /* \"contracts/YunaVault.sol\":4807:4846  activePositions[msg.sender].push(posId) */\n      tag_193\n        /* \"contracts/YunaVault.sol\":781:12071  contract YunaVault is ReentrancyGuard {... */\n      dup10\n      dup9\n      dup13\n      keccak256\n        /* \"contracts/YunaVault.sol\":4807:4846  activePositions[msg.sender].push(posId) */\n      tag_16\n      jump\t// in\n    tag_193:\n        /* \"contracts/YunaVault.sol\":4482:4492  msg.sender */\n      caller\n        /* \"contracts/YunaVault.sol\":781:12071  contract YunaVault is ReentrancyGuard {... */\n      dup11\n      mstore\n        /* \"contracts/YunaVault.sol\":4864:4880  _seenParticipant */\n      0x09\n        /* \"contracts/YunaVault.sol\":781:12071  contract YunaVault is ReentrancyGuard {... */\n      0x20\n      mstore\n      dup7\n      dup11\n      keccak256\n      swap1\n      dup2\n      sload\n      0xff\n      dup2\n      and\n        /* \"contracts/YunaVault.sol\":4863:4892  !_seenParticipant[msg.sender] */\n      iszero\n        /* \"contracts/YunaVault.sol\":4859:5001  if (!_seenParticipant[msg.sender]) {... */\n      tag_194\n      jumpi\n        /* \"contracts/YunaVault.sol\":781:12071  contract YunaVault is ReentrancyGuard {... */\n    tag_195:\n        /* \"contracts/YunaVault.sol\":4640:4652  block.number */\n      dup12\n      dup12\n      dup12\n      dup12\n        /* \"contracts/YunaVault.sol\":5066:5094  block.number + blocksToStake */\n      tag_196\n        /* \"contracts/YunaVault.sol\":4640:4652  block.number */\n      dup13\n      number\n        /* \"contracts/YunaVault.sol\":5066:5094  block.number + blocksToStake */\n      tag_11\n      jump\t// in\n    tag_196:\n        /* \"contracts/YunaVault.sol\":781:12071  contract YunaVault is ReentrancyGuard {... */\n      swap1\n      dup1\n      mload\n      swap3\n      dup4\n      mstore\n        /* \"contracts/YunaVault.sol\":4640:4652  block.number */\n      number\n        /* \"contracts/YunaVault.sol\":781:12071  contract YunaVault is ReentrancyGuard {... */\n      0x20\n      dup5\n      add\n      mstore\n      dup3\n      add\n      mstore\n        /* \"contracts/YunaVault.sol\":5018:5095  Staked(msg.sender, posId, amount, block.number, block.number + blocksToStake) */\n      0x9cfd25589d1eb8ad71e342a86a8524e83522e3936c0803048c08f6d9ad974f40\n        /* \"contracts/YunaVault.sol\":781:12071  contract YunaVault is ReentrancyGuard {... */\n      0x60\n        /* \"contracts/YunaVault.sol\":4482:4492  msg.sender */\n      caller\n        /* \"contracts/YunaVault.sol\":5018:5095  Staked(msg.sender, posId, amount, block.number, block.number + blocksToStake) */\n      swap3\n      log3\n        /* \"contracts/YunaVault.sol\":781:12071  contract YunaVault is ReentrancyGuard {... */\n      0x01\n      dup2\n      sstore\n      dup1\n      return\n        /* \"contracts/YunaVault.sol\":4859:5001  if (!_seenParticipant[msg.sender]) {... */\n    tag_194:\n        /* \"contracts/YunaVault.sol\":781:12071  contract YunaVault is ReentrancyGuard {... */\n      and\n      0x01\n      or\n      swap1\n      sstore\n        /* \"contracts/YunaVault.sol\":4959:4972  _participants */\n      0x08\n        /* \"contracts/YunaVault.sol\":781:12071  contract YunaVault is ReentrancyGuard {... */\n      sload\n      swap3\n      dup4\n      lt\n      iszero\n      tag_197\n      jumpi\n      0x01\n      dup4\n      add\n      dup1\n        /* \"contracts/YunaVault.sol\":4959:4972  _participants */\n      0x08\n        /* \"contracts/YunaVault.sol\":781:12071  contract YunaVault is ReentrancyGuard {... */\n      sstore\n      dup4\n      lt\n      iszero\n      tag_199\n      jumpi\n      pop\n      pop\n        /* \"contracts/YunaVault.sol\":4959:4972  _participants */\n      0x08\n        /* \"contracts/YunaVault.sol\":781:12071  contract YunaVault is ReentrancyGuard {... */\n      dup8\n      mstore\n      0xf3f7a9fe364faab93b216da50a3214154f22a0a2b415b23a84c8169e8b636ee3\n      add\n      dup1\n      sload\n      swap1\n      swap2\n      and\n        /* \"contracts/YunaVault.sol\":4482:4492  msg.sender */\n      caller\n        /* \"contracts/YunaVault.sol\":781:12071  contract YunaVault is ReentrancyGuard {... */\n      or\n      swap1\n      sstore\n        /* \"contracts/YunaVault.sol\":5066:5094  block.number + blocksToStake */\n      tag_196\n        /* \"contracts/YunaVault.sol\":4859:5001  if (!_seenParticipant[msg.sender]) {... */\n      dup7\n      dup1\n      dup1\n      dup1\n      dup1\n      dup1\n      jump(tag_195)\n        /* \"contracts/YunaVault.sol\":781:12071  contract YunaVault is ReentrancyGuard {... */\n    tag_199:\n      shl(0xe0, 0x4e487b71)\n      dup10\n      mstore\n      0x32\n      swap1\n      mstore\n      dup8\n      revert\n    tag_197:\n      shl(0xe0, 0x4e487b71)\n      dup10\n      mstore\n      0x41\n      swap1\n      mstore\n      dup8\n      revert\n    tag_191:\n      pop\n      shl(0xe0, 0x4e487b71)\n      dup10\n      mstore\n      0x11\n      swap1\n      mstore\n      dup8\n      revert\n    tag_189:\n      shl(0xe0, 0x4e487b71)\n      dup15\n      mstore\n      dup14\n      dup7\n      mstore\n      dup7\n      dup15\n      revert\n    tag_186:\n      shl(0xe0, 0x4e487b71)\n      dup15\n      mstore\n      0x41\n      dup7\n      mstore\n      dup7\n      dup15\n      revert\n    tag_180:\n      0x64\n      swap1\n      0x12\n      dup7\n      0x20\n      dup7\n      mload\n      swap4\n      shl(0xe5, 0x461bcd)\n      dup6\n      mstore\n      dup5\n      add\n      mstore\n      dup3\n      add\n      mstore\n      shl(0x72, 0x1c1c995cd95d081b9bdd08185b1b1bddd959)\n      0x44\n      dup3\n      add\n      mstore\n      revert\n    tag_177:\n      0x64\n      swap1\n      0x08\n      dup7\n      0x20\n      dup7\n      mload\n      swap4\n      shl(0xe5, 0x461bcd)\n      dup6\n      mstore\n      dup5\n      add\n      mstore\n      dup3\n      add\n      mstore\n      shl(0xc4, 0x0626c6f636b733e3)\n      0x44\n      dup3\n      add\n      mstore\n      revert\n    tag_175:\n      0x64\n      swap1\n      0x14\n      dup7\n      0x20\n      dup7\n      mload\n      swap4\n      shl(0xe5, 0x461bcd)\n      dup6\n      mstore\n      dup5\n      add\n      mstore\n      dup3\n      add\n      mstore\n      shl(0x60, 0x616d6f756e74206f7574206f6620626f756e6473)\n      0x44\n      dup3\n      add\n      mstore\n      revert\n        /* \"contracts/YunaVault.sol\":4245:4289  amount >= minDeposit && amount <= maxDeposit */\n    tag_173:\n        /* \"contracts/YunaVault.sol\":4279:4289  maxDeposit */\n      pop\n      immutable(\"0x7ca83d787e7423cefe91ee9c5de8a7604dac0860c07a3450ac6805c567c8da30\")\n        /* \"contracts/YunaVault.sol\":4269:4289  amount <= maxDeposit */\n      dup5\n      gt\n      iszero\n        /* \"contracts/YunaVault.sol\":4245:4289  amount >= minDeposit && amount <= maxDeposit */\n      jump(tag_174)\n        /* \"contracts/YunaVault.sol\":4188:4205  active && !closed */\n    tag_171:\n        /* \"contracts/YunaVault.sol\":781:12071  contract YunaVault is ReentrancyGuard {... */\n      0xff\n      swap2\n      pop\n      0x08\n      shr\n      and\n        /* \"contracts/YunaVault.sol\":4198:4205  !closed */\n      iszero\n        /* \"contracts/YunaVault.sol\":4188:4205  active && !closed */\n      dup9\n      jump(tag_172)\n        /* \"contracts/YunaVault.sol\":781:12071  contract YunaVault is ReentrancyGuard {... */\n    tag_57:\n      pop\n      swap1\n      jumpi(tag_89, callvalue)\n      dup1\n      add(calldatasize, not(0x03))\n      slt\n      tag_89\n      jumpi\n      swap1\n      dup1\n      mload\n      swap2\n      dup3\n      swap1\n        /* \"contracts/YunaVault.sol\":11120:11133  _participants */\n      0x08\n        /* \"contracts/YunaVault.sol\":781:12071  contract YunaVault is ReentrancyGuard {... */\n      sload\n      swap2\n      dup3\n      dup6\n      mstore\n      0x20\n      dup1\n      swap6\n      add\n      dup1\n      swap4\n        /* \"contracts/YunaVault.sol\":11120:11133  _participants */\n      0x08\n        /* \"contracts/YunaVault.sol\":781:12071  contract YunaVault is ReentrancyGuard {... */\n      dup5\n      mstore\n      0xf3f7a9fe364faab93b216da50a3214154f22a0a2b415b23a84c8169e8b636ee3\n      swap1\n      dup5\n    tag_205:\n      dup2\n      dup2\n      lt\n      tag_206\n      jumpi\n      pop\n      pop\n      pop\n      dup2\n      tag_208\n      swap2\n      sub\n      dup3\n      tag_13\n      jump\t// in\n    tag_208:\n      dup4\n      mload\n      swap5\n      dup6\n      swap5\n      dup2\n      dup7\n      add\n      swap3\n      dup3\n      dup8\n      mstore\n      mload\n      dup1\n      swap4\n      mstore\n      dup6\n      add\n      swap4\n      swap3\n    tag_209:\n      dup3\n      dup2\n      lt\n      tag_210\n      jumpi\n      pop\n      pop\n      pop\n      pop\n      sub\n      swap1\n      return\n    tag_210:\n      dup4\n      mload\n      sub(shl(0xa0, 0x01), 0x01)\n      and\n      dup6\n      mstore\n      dup7\n      swap6\n      pop\n      swap4\n      dup2\n      add\n      swap4\n      swap3\n      dup2\n      add\n      swap3\n      0x01\n      add\n      jump(tag_209)\n    tag_206:\n      dup3\n      sload\n      sub(shl(0xa0, 0x01), 0x01)\n      and\n      dup5\n      mstore\n      swap3\n      dup9\n      add\n      swap3\n      0x01\n      swap3\n      dup4\n      add\n      swap3\n      add\n      jump(tag_205)\n    tag_55:\n      pop\n      jumpi(tag_85, callvalue)\n      jumpi(tag_85, slt(add(not(0x03), calldatasize), 0x80))\n      tag_216\n      tag_5\n      jump\t// in\n    tag_216:\n      calldataload(0x64)\n      dup1\n      iszero\n      iszero\n      dup2\n      sub\n      tag_217\n      jumpi\n      tag_219\n      swap2\n      calldataload(0x44)\n      swap1\n      calldataload(0x24)\n      swap1\n      tag_26\n      jump\t// in\n    tag_219:\n      dup2\n      mload\n      swap3\n      dup4\n      swap3\n      0x20\n      dup1\n      dup1\n      dup7\n      add\n      swap3\n      dup2\n      dup8\n      mstore\n      dup6\n      mload\n      dup1\n      swap5\n      mstore\n      dup7\n      add\n      swap5\n      add\n      swap3\n    tag_220:\n      dup3\n      dup2\n      lt\n      tag_221\n      jumpi\n      pop\n      pop\n      pop\n      pop\n      sub\n      swap1\n      return\n    tag_221:\n      dup4\n      mload\n      dup6\n      mstore\n      dup7\n      swap6\n      pop\n      swap4\n      dup2\n      add\n      swap4\n      swap3\n      dup2\n      add\n      swap3\n      0x01\n      add\n      jump(tag_220)\n    tag_217:\n      dup4\n      dup1\n      revert\n    tag_53:\n      pop\n      jumpi(tag_85, callvalue)\n      dup1\n      add(calldatasize, not(0x03))\n      slt\n      tag_85\n      jumpi\n      tag_227\n      tag_5\n      jump\t// in\n    tag_227:\n      sub(shl(0xa0, 0x01), 0x01)\n      and\n      dup3\n      mstore\n        /* \"contracts/YunaVault.sol\":1998:2050  mapping(address => uint256[]) public activePositions */\n      0x06\n        /* \"contracts/YunaVault.sol\":781:12071  contract YunaVault is ReentrancyGuard {... */\n      0x20\n      mstore\n      dup1\n      dup3\n      keccak256\n      dup1\n      sload\n      calldataload(0x24)\n      swap4\n      swap1\n        /* \"contracts/YunaVault.sol\":1998:2050  mapping(address => uint256[]) public activePositions */\n      dup5\n      lt\n      iszero\n      tag_89\n      jumpi\n      pop\n        /* \"contracts/YunaVault.sol\":781:12071  contract YunaVault is ReentrancyGuard {... */\n      0x20\n        /* \"contracts/YunaVault.sol\":1998:2050  mapping(address => uint256[]) public activePositions */\n      swap3\n      tag_107\n      swap2\n      tag_2\n      jump\t// in\n        /* \"contracts/YunaVault.sol\":781:12071  contract YunaVault is ReentrancyGuard {... */\n    tag_51:\n      pop\n      jumpi(tag_85, callvalue)\n      0x20\n      dup1\n      add(calldatasize, not(0x03))\n      slt\n      tag_117\n      jumpi\n      tag_235\n      tag_5\n      jump\t// in\n    tag_235:\n      dup4\n      swap1\n      0x01\n      dup1\n      0xa0\n      shl\n      sub\n      and\n      swap3\n      dup4\n      dup6\n      mstore\n        /* \"contracts/YunaVault.sol\":8828:8843  activePositions */\n      0x06\n        /* \"contracts/YunaVault.sol\":781:12071  contract YunaVault is ReentrancyGuard {... */\n      dup4\n      mstore\n      dup1\n      dup6\n      keccak256\n      swap4\n      dup2\n      mload\n      dup1\n      dup7\n      dup7\n      dup3\n      swap9\n      sload\n      swap4\n      dup5\n      dup2\n      mstore\n      add\n      swap1\n      dup10\n      mstore\n      dup7\n      dup10\n      keccak256\n      swap3\n      dup10\n    tag_236:\n      dup9\n      dup3\n      dup3\n      lt\n      tag_237\n      jumpi\n      pop\n      pop\n      pop\n      tag_239\n      swap3\n      pop\n      sub\n      dup7\n      tag_13\n      jump\t// in\n    tag_239:\n      dup6\n      mstore\n        /* \"contracts/YunaVault.sol\":8886:8902  historyPositions */\n      0x07\n        /* \"contracts/YunaVault.sol\":781:12071  contract YunaVault is ReentrancyGuard {... */\n      dup4\n      mstore\n      dup1\n      dup6\n      keccak256\n      swap4\n      dup2\n      mload\n      dup1\n      dup7\n      dup7\n      dup3\n      swap9\n      sload\n      swap4\n      dup5\n      dup2\n      mstore\n      add\n      swap1\n      dup10\n      mstore\n      dup7\n      dup10\n      keccak256\n      swap3\n      dup10\n    tag_240:\n      dup9\n      dup3\n      dup3\n      lt\n      tag_241\n      jumpi\n      pop\n      pop\n      pop\n      tag_243\n      swap3\n      pop\n      sub\n      dup7\n      tag_13\n      jump\t// in\n    tag_243:\n        /* \"contracts/YunaVault.sol\":8928:8941  uint256 i = 0 */\n      dup6\n        /* \"contracts/YunaVault.sol\":8923:9354  for (uint256 i = 0; i < act.length; i++) {... */\n      swap3\n        /* \"contracts/YunaVault.sol\":8959:8962  i++ */\n    tag_244:\n        /* \"contracts/YunaVault.sol\":781:12071  contract YunaVault is ReentrancyGuard {... */\n      dup2\n      mload\n        /* \"contracts/YunaVault.sol\":8943:8957  i < act.length */\n      dup5\n      lt\n      iszero\n      tag_245\n      jumpi\n        /* \"contracts/YunaVault.sol\":781:12071  contract YunaVault is ReentrancyGuard {... */\n      tag_247\n        /* \"contracts/YunaVault.sol\":8999:9016  positions[act[i]] */\n      tag_248\n        /* \"contracts/YunaVault.sol\":9009:9015  act[i] */\n      tag_249\n      dup7\n      dup6\n      tag_22\n      jump\t// in\n    tag_249:\n        /* \"contracts/YunaVault.sol\":781:12071  contract YunaVault is ReentrancyGuard {... */\n      mload\n        /* \"contracts/YunaVault.sol\":8999:9016  positions[act[i]] */\n      tag_7\n      jump\t// in\n    tag_248:\n        /* \"contracts/YunaVault.sol\":781:12071  contract YunaVault is ReentrancyGuard {... */\n      pop\n      tag_23\n      jump\t// in\n    tag_247:\n        /* \"contracts/YunaVault.sol\":9054:9064  p.endBlock */\n      0x60\n      dup2\n      add\n        /* \"contracts/YunaVault.sol\":781:12071  contract YunaVault is ReentrancyGuard {... */\n      dup7\n      dup2\n      mload\n        /* \"contracts/YunaVault.sol\":9067:9079  block.number */\n      number\n        /* \"contracts/YunaVault.sol\":9054:9079  p.endBlock > block.number */\n      dup2\n      gt\n        /* \"contracts/YunaVault.sol\":9054:9107  p.endBlock > block.number ? block.number : p.endBlock */\n      0x00\n        /* \"contracts/YunaVault.sol\":9067:9079  block.number */\n      eq\n      tag_250\n      jumpi\n      pop\n      number\n        /* \"contracts/YunaVault.sol\":9054:9107  p.endBlock > block.number ? block.number : p.endBlock */\n    tag_252:\n        /* \"contracts/YunaVault.sol\":9142:9154  p.startBlock */\n      dup7\n      dup5\n      add\n        /* \"contracts/YunaVault.sol\":781:12071  contract YunaVault is ReentrancyGuard {... */\n      swap1\n      dup2\n      mload\n        /* \"contracts/YunaVault.sol\":9126:9154  effectiveEnd <= p.startBlock */\n      swap1\n      dup2\n      dup2\n      gt\n      iszero\n        /* \"contracts/YunaVault.sol\":9122:9164  if (effectiveEnd <= p.startBlock) continue */\n      tag_253\n      jumpi\n        /* \"contracts/YunaVault.sol\":9196:9223  effectiveEnd - p.startBlock */\n      swap3\n        /* \"contracts/YunaVault.sol\":9255:9280  p.endBlock - p.startBlock */\n      tag_255\n        /* \"contracts/YunaVault.sol\":9295:9342  xp += _calcPositionXP(p.amount, blocks, period) */\n      tag_256\n        /* \"contracts/YunaVault.sol\":9196:9223  effectiveEnd - p.startBlock */\n      swap7\n      swap4\n      tag_257\n        /* \"contracts/YunaVault.sol\":8959:8962  i++ */\n      tag_258\n        /* \"contracts/YunaVault.sol\":9196:9223  effectiveEnd - p.startBlock */\n      swap10\n      swap8\n      swap5\n        /* \"contracts/YunaVault.sol\":9301:9342  _calcPositionXP(p.amount, blocks, period) */\n      tag_259\n        /* \"contracts/YunaVault.sol\":9196:9223  effectiveEnd - p.startBlock */\n      swap8\n      tag_14\n      jump\t// in\n    tag_257:\n        /* \"contracts/YunaVault.sol\":781:12071  contract YunaVault is ReentrancyGuard {... */\n      swap4\n      mload\n      swap1\n      mload\n        /* \"contracts/YunaVault.sol\":9255:9280  p.endBlock - p.startBlock */\n      swap1\n      tag_14\n      jump\t// in\n    tag_255:\n        /* \"contracts/YunaVault.sol\":9317:9325  p.amount */\n      swap3\n      add\n        /* \"contracts/YunaVault.sol\":781:12071  contract YunaVault is ReentrancyGuard {... */\n      mload\n        /* \"contracts/YunaVault.sol\":9301:9342  _calcPositionXP(p.amount, blocks, period) */\n      tag_24\n      jump\t// in\n    tag_259:\n        /* \"contracts/YunaVault.sol\":9295:9342  xp += _calcPositionXP(p.amount, blocks, period) */\n      swap1\n      tag_11\n      jump\t// in\n    tag_256:\n        /* \"contracts/YunaVault.sol\":8959:8962  i++ */\n      swap4\n      tag_8\n      jump\t// in\n    tag_258:\n        /* \"contracts/YunaVault.sol\":8928:8941  uint256 i = 0 */\n      swap3\n      jump(tag_244)\n        /* \"contracts/YunaVault.sol\":9122:9164  if (effectiveEnd <= p.startBlock) continue */\n    tag_253:\n        /* \"contracts/YunaVault.sol\":9156:9164  continue */\n      pop\n      pop\n      pop\n      pop\n      pop\n      pop\n      swap3\n        /* \"contracts/YunaVault.sol\":8959:8962  i++ */\n      tag_258\n        /* \"contracts/YunaVault.sol\":9156:9164  continue */\n      swap1\n        /* \"contracts/YunaVault.sol\":8959:8962  i++ */\n      tag_8\n      jump\t// in\n        /* \"contracts/YunaVault.sol\":9054:9107  p.endBlock > block.number ? block.number : p.endBlock */\n    tag_250:\n      jump(tag_252)\n        /* \"contracts/YunaVault.sol\":8943:8957  i < act.length */\n    tag_245:\n      swap3\n      pop\n      pop\n      swap2\n      swap4\n        /* \"contracts/YunaVault.sol\":9364:9645  for (uint256 j = 0; j < hist.length; j++) {... */\n      swap1\n        /* \"contracts/YunaVault.sol\":9401:9404  j++ */\n    tag_261:\n        /* \"contracts/YunaVault.sol\":781:12071  contract YunaVault is ReentrancyGuard {... */\n      dup4\n      mload\n        /* \"contracts/YunaVault.sol\":9384:9399  j < hist.length */\n      dup3\n      lt\n      iszero\n      tag_262\n      jumpi\n        /* \"contracts/YunaVault.sol\":9451:9458  hist[j] */\n      dup5\n        /* \"contracts/YunaVault.sol\":781:12071  contract YunaVault is ReentrancyGuard {... */\n      tag_264\n        /* \"contracts/YunaVault.sol\":9441:9459  positions[hist[j]] */\n      tag_248\n        /* \"contracts/YunaVault.sol\":9451:9458  hist[j] */\n      tag_249\n      dup6\n      dup9\n      tag_22\n      jump\t// in\n        /* \"contracts/YunaVault.sol\":781:12071  contract YunaVault is ReentrancyGuard {... */\n    tag_264:\n        /* \"contracts/YunaVault.sol\":9054:9064  p.endBlock */\n      0x60\n        /* \"contracts/YunaVault.sol\":9478:9488  p.endBlock */\n      dup2\n      add\n        /* \"contracts/YunaVault.sol\":781:12071  contract YunaVault is ReentrancyGuard {... */\n      mload\n        /* \"contracts/YunaVault.sol\":9492:9504  p.startBlock */\n      dup6\n      dup3\n      add\n        /* \"contracts/YunaVault.sol\":781:12071  contract YunaVault is ReentrancyGuard {... */\n      mload\n        /* \"contracts/YunaVault.sol\":9478:9504  p.endBlock <= p.startBlock */\n      swap1\n      dup2\n      dup2\n      gt\n      iszero\n        /* \"contracts/YunaVault.sol\":9474:9514  if (p.endBlock <= p.startBlock) continue */\n      tag_267\n      jumpi\n        /* \"contracts/YunaVault.sol\":9546:9571  p.endBlock - p.startBlock */\n      swap3\n        /* \"contracts/YunaVault.sol\":9401:9404  j++ */\n      tag_269\n        /* \"contracts/YunaVault.sol\":9546:9571  p.endBlock - p.startBlock */\n      swap5\n      swap3\n      tag_270\n        /* \"contracts/YunaVault.sol\":9592:9633  _calcPositionXP(p.amount, blocks, blocks) */\n      tag_259\n        /* \"contracts/YunaVault.sol\":9546:9571  p.endBlock - p.startBlock */\n      swap4\n        /* \"contracts/YunaVault.sol\":9586:9633  xp += _calcPositionXP(p.amount, blocks, blocks) */\n      tag_272\n        /* \"contracts/YunaVault.sol\":9546:9571  p.endBlock - p.startBlock */\n      swap7\n      tag_14\n      jump\t// in\n    tag_270:\n        /* \"contracts/YunaVault.sol\":9608:9616  p.amount */\n      swap2\n      dup3\n      swap2\n      add\n        /* \"contracts/YunaVault.sol\":781:12071  contract YunaVault is ReentrancyGuard {... */\n      mload\n        /* \"contracts/YunaVault.sol\":9592:9633  _calcPositionXP(p.amount, blocks, blocks) */\n      tag_24\n      jump\t// in\n        /* \"contracts/YunaVault.sol\":9586:9633  xp += _calcPositionXP(p.amount, blocks, blocks) */\n    tag_272:\n        /* \"contracts/YunaVault.sol\":9401:9404  j++ */\n      swap2\n      tag_8\n      jump\t// in\n    tag_269:\n        /* \"contracts/YunaVault.sol\":9369:9382  uint256 j = 0 */\n      swap1\n      jump(tag_261)\n        /* \"contracts/YunaVault.sol\":9474:9514  if (p.endBlock <= p.startBlock) continue */\n    tag_267:\n        /* \"contracts/YunaVault.sol\":9506:9514  continue */\n      pop\n      pop\n      pop\n      pop\n      swap1\n        /* \"contracts/YunaVault.sol\":9401:9404  j++ */\n      tag_269\n        /* \"contracts/YunaVault.sol\":9506:9514  continue */\n      swap1\n        /* \"contracts/YunaVault.sol\":9401:9404  j++ */\n      tag_8\n      jump\t// in\n        /* \"contracts/YunaVault.sol\":9384:9399  j < hist.length */\n    tag_262:\n      swap3\n      pop\n      pop\n        /* \"contracts/YunaVault.sol\":781:12071  contract YunaVault is ReentrancyGuard {... */\n      mload\n      swap1\n      dup2\n      mstore\n      return\n    tag_241:\n      dup6\n      sload\n      dup5\n      mstore\n      0x01\n      swap6\n      dup7\n      add\n      swap6\n      dup12\n      swap6\n      pop\n      swap4\n      add\n      swap3\n      add\n      jump(tag_240)\n    tag_237:\n      dup6\n      sload\n      dup5\n      mstore\n      0x01\n      swap6\n      dup7\n      add\n      swap6\n      dup12\n      swap6\n      pop\n      swap4\n      add\n      swap3\n      add\n      jump(tag_236)\n    tag_49:\n      pop\n      jumpi(tag_85, callvalue)\n      dup2\n      add(calldatasize, not(0x03))\n      slt\n      tag_85\n      jumpi\n      0x20\n      swap1\n      mload\n        /* \"contracts/YunaVault.sol\":1431:1466  uint256 public immutable maxDeposit */\n      immutable(\"0x7ca83d787e7423cefe91ee9c5de8a7604dac0860c07a3450ac6805c567c8da30\")\n        /* \"contracts/YunaVault.sol\":781:12071  contract YunaVault is ReentrancyGuard {... */\n      dup2\n      mstore\n      return\n    tag_47:\n      swap2\n      jumpi(tag_89, callvalue)\n      dup1\n      add(calldatasize, not(0x03))\n      slt\n      tag_89\n      jumpi\n        /* \"@openzeppelin/contracts/security/ReentrancyGuard.sol\":2227:2330  modifier nonReentrant() {... */\n      tag_282\n      tag_17\n      jump\t// in\n    tag_282:\n        /* \"contracts/YunaVault.sol\":781:12071  contract YunaVault is ReentrancyGuard {... */\n      dup3\n      sload\n      swap1\n        /* \"contracts/YunaVault.sol\":5442:5488  require(active && !closed, \"vault not active\") */\n      tag_283\n        /* \"contracts/YunaVault.sol\":781:12071  contract YunaVault is ReentrancyGuard {... */\n      0xff\n      swap3\n      dup4\n      dup1\n      dup3\n      and\n        /* \"contracts/YunaVault.sol\":5450:5467  active && !closed */\n      swap2\n      dup3\n      tag_284\n      jumpi\n        /* \"contracts/YunaVault.sol\":781:12071  contract YunaVault is ReentrancyGuard {... */\n    tag_285:\n        /* \"contracts/YunaVault.sol\":5442:5488  require(active && !closed, \"vault not active\") */\n      pop\n      pop\n      tag_10\n      jump\t// in\n    tag_283:\n        /* \"contracts/YunaVault.sol\":5563:5568  feeBP */\n      immutable(\"0xd981c1aa70496adbf331222473f4f790f8f1219995826de705ab70eb68beb770\")\n        /* \"contracts/YunaVault.sol\":781:12071  contract YunaVault is ReentrancyGuard {... */\n      swap3\n        /* \"contracts/YunaVault.sol\":5523:5525  25 */\n      0x19\n        /* \"contracts/YunaVault.sol\":781:12071  contract YunaVault is ReentrancyGuard {... */\n      dup5\n      add\n      swap4\n      dup5\n      dup2\n      gt\n      tag_286\n      jumpi\n        /* \"contracts/YunaVault.sol\":5632:5649  uint256 posId = 0 */\n      dup3\n        /* \"contracts/YunaVault.sol\":5677:5684  posId++ */\n    tag_288:\n        /* \"contracts/YunaVault.sol\":5659:5668  positions */\n      0x05\n        /* \"contracts/YunaVault.sol\":781:12071  contract YunaVault is ReentrancyGuard {... */\n      sload\n        /* \"contracts/YunaVault.sol\":5651:5675  posId < positions.length */\n      dup2\n      lt\n      iszero\n      tag_289\n      jumpi\n        /* \"contracts/YunaVault.sol\":5724:5740  positions[posId] */\n      tag_291\n      dup2\n      tag_7\n      jump\t// in\n    tag_291:\n        /* \"contracts/YunaVault.sol\":5760:5771  pos.claimed */\n      pop\n      dup8\n      dup2\n      add\n        /* \"contracts/YunaVault.sol\":781:12071  contract YunaVault is ReentrancyGuard {... */\n      swap1\n      dup2\n      sload\n      swap2\n      dup8\n      dup4\n      and\n        /* \"contracts/YunaVault.sol\":5759:5771  !pos.claimed */\n      iszero\n        /* \"contracts/YunaVault.sol\":5759:5803  !pos.claimed && block.number >= pos.endBlock */\n      dup1\n      tag_292\n      jumpi\n        /* \"contracts/YunaVault.sol\":5677:5684  posId++ */\n    tag_293:\n        /* \"contracts/YunaVault.sol\":5755:7008  if (!pos.claimed && block.number >= pos.endBlock) {... */\n      tag_294\n      jumpi\n        /* \"contracts/YunaVault.sol\":5677:5684  posId++ */\n    tag_295:\n      pop\n      pop\n      pop\n      tag_296\n      swap1\n      tag_8\n      jump\t// in\n    tag_296:\n        /* \"contracts/YunaVault.sol\":5632:5649  uint256 posId = 0 */\n      jump(tag_288)\n        /* \"contracts/YunaVault.sol\":5755:7008  if (!pos.claimed && block.number >= pos.endBlock) {... */\n    tag_294:\n        /* \"contracts/YunaVault.sol\":5838:5842  true */\n      swap1\n        /* \"contracts/YunaVault.sol\":6656:6671  activePositions */\n      0x06\n        /* \"contracts/YunaVault.sol\":5838:5842  true */\n      swap2\n      0x01\n        /* \"contracts/YunaVault.sol\":781:12071  contract YunaVault is ReentrancyGuard {... */\n      dup1\n      swap5\n      not(0xff)\n      and\n      or\n      swap1\n      sstore\n        /* \"contracts/YunaVault.sol\":5878:5888  pos.amount */\n      dup3\n      dup2\n      add\n        /* \"contracts/YunaVault.sol\":781:12071  contract YunaVault is ReentrancyGuard {... */\n      sload\n        /* \"contracts/YunaVault.sol\":5902:5907  10000 */\n      0x2710\n        /* \"contracts/YunaVault.sol\":5878:5898  pos.amount * totalBP */\n      swap2\n      dup3\n      tag_297\n      dup13\n      dup5\n      tag_19\n      jump\t// in\n    tag_297:\n        /* \"contracts/YunaVault.sol\":781:12071  contract YunaVault is ReentrancyGuard {... */\n      div\n        /* \"contracts/YunaVault.sol\":5943:5959  pos.amount - fee */\n      swap3\n        /* \"contracts/YunaVault.sol\":6033:6051  pos.amount * feeBP */\n      tag_298\n        /* \"contracts/YunaVault.sol\":5943:5959  pos.amount - fee */\n      dup9\n      tag_299\n      dup7\n      dup7\n      tag_14\n      jump\t// in\n    tag_299:\n        /* \"contracts/YunaVault.sol\":6033:6051  pos.amount * feeBP */\n      swap5\n      tag_19\n      jump\t// in\n    tag_298:\n        /* \"contracts/YunaVault.sol\":781:12071  contract YunaVault is ReentrancyGuard {... */\n      div\n        /* \"contracts/YunaVault.sol\":6099:6116  fee - protocolFee */\n      tag_300\n      dup2\n      dup6\n      tag_14\n      jump\t// in\n    tag_300:\n        /* \"contracts/YunaVault.sol\":6141:6156  protocolFee > 0 */\n      swap1\n      dup1\n        /* \"contracts/YunaVault.sol\":6137:6212  if (protocolFee > 0) IERC20(vaultToken).safeTransfer(protocol, protocolFee) */\n      tag_301\n      jumpi\n        /* \"contracts/YunaVault.sol\":5755:7008  if (!pos.claimed && block.number >= pos.endBlock) {... */\n    tag_302:\n        /* \"contracts/YunaVault.sol\":6235:6248  callerFee > 0 */\n      pop\n      dup1\n        /* \"contracts/YunaVault.sol\":6231:6304  if (callerFee > 0) IERC20(vaultToken).safeTransfer(msg.sender, callerFee) */\n      tag_303\n      jumpi\n        /* \"contracts/YunaVault.sol\":5755:7008  if (!pos.claimed && block.number >= pos.endBlock) {... */\n    tag_304:\n        /* \"contracts/YunaVault.sol\":781:12071  contract YunaVault is ReentrancyGuard {... */\n      pop\n      dup8\n      dup7\n      0x01\n      dup1\n      0xa0\n      shl\n      sub\n      swap4\n        /* \"contracts/YunaVault.sol\":6365:6371  refund */\n      tag_305\n        /* \"contracts/YunaVault.sol\":781:12071  contract YunaVault is ReentrancyGuard {... */\n      dup2\n      dup7\n      dup7\n      sload\n      and\n        /* \"contracts/YunaVault.sol\":6330:6340  vaultToken */\n      dup8\n      immutable(\"0x8d841e129c158ed00fc3618c65b249d82e3b0efc8bcebb06537fd0a18b989353\")\n        /* \"contracts/YunaVault.sol\":781:12071  contract YunaVault is ReentrancyGuard {... */\n      and\n        /* \"contracts/YunaVault.sol\":6365:6371  refund */\n      tag_21\n      jump\t// in\n    tag_305:\n        /* \"contracts/YunaVault.sol\":6398:6436  Released(pos.user, posId, refund, fee) */\n      0x7b381718bec1e0dbc1241809ee9b55f3d783b95880307f002707fad981fa5069\n        /* \"contracts/YunaVault.sol\":781:12071  contract YunaVault is ReentrancyGuard {... */\n      dup6\n      dup6\n      sload\n      and\n      swap4\n      dup5\n      swap3\n      dup2\n      mload\n      swap1\n      dup2\n      mstore\n      0x20\n      swap9\n      dup10\n      dup3\n      add\n      mstore\n        /* \"contracts/YunaVault.sol\":6398:6436  Released(pos.user, posId, refund, fee) */\n      log3\n        /* \"contracts/YunaVault.sol\":781:12071  contract YunaVault is ReentrancyGuard {... */\n      dup10\n      mstore\n        /* \"contracts/YunaVault.sol\":6510:6526  historyPositions */\n      0x07\n        /* \"contracts/YunaVault.sol\":781:12071  contract YunaVault is ReentrancyGuard {... */\n      dup4\n      mstore\n        /* \"contracts/YunaVault.sol\":6510:6548  historyPositions[pos.user].push(posId) */\n      tag_306\n        /* \"contracts/YunaVault.sol\":781:12071  contract YunaVault is ReentrancyGuard {... */\n      dup7\n      dup10\n      dup12\n      keccak256\n        /* \"contracts/YunaVault.sol\":6510:6548  historyPositions[pos.user].push(posId) */\n      tag_16\n      jump\t// in\n    tag_306:\n        /* \"contracts/YunaVault.sol\":781:12071  contract YunaVault is ReentrancyGuard {... */\n      sload\n      and\n      dup8\n      mstore\n      mstore\n      dup4\n      dup6\n      keccak256\n      dup6\n        /* \"contracts/YunaVault.sol\":6705:6718  uint256 i = 0 */\n      dup3\n        /* \"contracts/YunaVault.sol\":5838:5842  true */\n    tag_307:\n      iszero\n        /* \"contracts/YunaVault.sol\":5755:7008  if (!pos.claimed && block.number >= pos.endBlock) {... */\n      tag_295\n        /* \"contracts/YunaVault.sol\":5838:5842  true */\n      jumpi\n        /* \"contracts/YunaVault.sol\":781:12071  contract YunaVault is ReentrancyGuard {... */\n      dup2\n      sload\n        /* \"contracts/YunaVault.sol\":6720:6741  i < userActive.length */\n      dup1\n      dup3\n      lt\n      iszero\n      tag_310\n      jumpi\n        /* \"contracts/YunaVault.sol\":6775:6788  userActive[i] */\n      dup5\n      swap1\n      tag_312\n      dup4\n      dup6\n      tag_2\n      jump\t// in\n    tag_312:\n        /* \"contracts/YunaVault.sol\":781:12071  contract YunaVault is ReentrancyGuard {... */\n      swap3\n      swap1\n      sload\n      0x03\n      swap4\n      dup5\n      shl\n      shr\n        /* \"contracts/YunaVault.sol\":6775:6797  userActive[i] == posId */\n      eq\n        /* \"contracts/YunaVault.sol\":6771:6974  if (userActive[i] == posId) {... */\n      tag_313\n      jumpi\n        /* \"contracts/YunaVault.sol\":6743:6746  i++ */\n      pop\n      pop\n      tag_315\n      dup4\n      swap2\n      tag_8\n      jump\t// in\n    tag_315:\n        /* \"contracts/YunaVault.sol\":6705:6718  uint256 i = 0 */\n      swap1\n      jump(tag_307)\n        /* \"contracts/YunaVault.sol\":6771:6974  if (userActive[i] == posId) {... */\n    tag_313:\n        /* \"contracts/YunaVault.sol\":781:12071  contract YunaVault is ReentrancyGuard {... */\n      swap3\n      swap4\n      pop\n      swap1\n      swap2\n      not(0x00)\n      dup2\n      add\n      swap1\n      dup2\n      gt\n      tag_316\n      jumpi\n        /* \"contracts/YunaVault.sol\":6902:6916  userActive.pop */\n      tag_318\n        /* \"contracts/YunaVault.sol\":6842:6875  userActive[userActive.length - 1] */\n      swap3\n        /* \"contracts/YunaVault.sol\":6826:6839  userActive[i] */\n      tag_155\n        /* \"contracts/YunaVault.sol\":6842:6875  userActive[userActive.length - 1] */\n      dup6\n      swap4\n      tag_320\n        /* \"contracts/YunaVault.sol\":6826:6875  userActive[i] = userActive[userActive.length - 1] */\n      tag_321\n        /* \"contracts/YunaVault.sol\":6842:6875  userActive[userActive.length - 1] */\n      swap5\n        /* \"contracts/YunaVault.sol\":5677:5684  posId++ */\n      tag_296\n        /* \"contracts/YunaVault.sol\":6842:6875  userActive[userActive.length - 1] */\n      swap10\n      swap9\n      tag_2\n      jump\t// in\n    tag_320:\n        /* \"contracts/YunaVault.sol\":781:12071  contract YunaVault is ReentrancyGuard {... */\n      swap1\n      sload\n      swap2\n      shl\n      shr\n        /* \"contracts/YunaVault.sol\":6826:6839  userActive[i] */\n      swap2\n      dup5\n      tag_2\n      jump\t// in\n        /* \"contracts/YunaVault.sol\":6826:6875  userActive[i] = userActive[userActive.length - 1] */\n    tag_321:\n        /* \"contracts/YunaVault.sol\":6902:6916  userActive.pop */\n      tag_20\n      jump\t// in\n    tag_318:\n        /* \"contracts/YunaVault.sol\":6945:6950  break */\n      swap1\n      dup9\n      dup1\n        /* \"contracts/YunaVault.sol\":5755:7008  if (!pos.claimed && block.number >= pos.endBlock) {... */\n      jump(tag_295)\n        /* \"contracts/YunaVault.sol\":781:12071  contract YunaVault is ReentrancyGuard {... */\n    tag_316:\n      shl(0xe0, 0x4e487b71)\n      dup9\n      mstore\n      0x11\n      dup12\n      mstore\n      0x24\n      dup9\n      revert\n        /* \"contracts/YunaVault.sol\":6720:6741  i < userActive.length */\n    tag_310:\n      pop\n        /* \"contracts/YunaVault.sol\":5755:7008  if (!pos.claimed && block.number >= pos.endBlock) {... */\n      jump(tag_295)\n        /* \"contracts/YunaVault.sol\":6231:6304  if (callerFee > 0) IERC20(vaultToken).safeTransfer(msg.sender, callerFee) */\n    tag_303:\n        /* \"contracts/YunaVault.sol\":6294:6303  callerFee */\n      tag_322\n      swap1\n        /* \"contracts/YunaVault.sol\":6282:6292  msg.sender */\n      caller\n        /* \"contracts/YunaVault.sol\":6257:6267  vaultToken */\n      immutable(\"0x8d841e129c158ed00fc3618c65b249d82e3b0efc8bcebb06537fd0a18b989353\")\n      sub(shl(0xa0, 0x01), 0x01)\n        /* \"contracts/YunaVault.sol\":781:12071  contract YunaVault is ReentrancyGuard {... */\n      and\n        /* \"contracts/YunaVault.sol\":6294:6303  callerFee */\n      tag_21\n      jump\t// in\n    tag_322:\n        /* \"contracts/YunaVault.sol\":6231:6304  if (callerFee > 0) IERC20(vaultToken).safeTransfer(msg.sender, callerFee) */\n      dup13\n      jump(tag_304)\n        /* \"contracts/YunaVault.sol\":6137:6212  if (protocolFee > 0) IERC20(vaultToken).safeTransfer(protocol, protocolFee) */\n    tag_301:\n        /* \"contracts/YunaVault.sol\":6200:6211  protocolFee */\n      tag_323\n      swap1\n        /* \"contracts/YunaVault.sol\":6190:6198  protocol */\n      immutable(\"0x87bd18b67247df6baa7533339c49063efb5f43390eb1bcf9e95a3aa2cdb49408\")\n        /* \"contracts/YunaVault.sol\":6165:6175  vaultToken */\n      immutable(\"0x8d841e129c158ed00fc3618c65b249d82e3b0efc8bcebb06537fd0a18b989353\")\n      sub(shl(0xa0, 0x01), 0x01)\n        /* \"contracts/YunaVault.sol\":781:12071  contract YunaVault is ReentrancyGuard {... */\n      and\n        /* \"contracts/YunaVault.sol\":6200:6211  protocolFee */\n      tag_21\n      jump\t// in\n    tag_323:\n        /* \"contracts/YunaVault.sol\":6137:6212  if (protocolFee > 0) IERC20(vaultToken).safeTransfer(protocol, protocolFee) */\n      dup14\n      jump(tag_302)\n        /* \"contracts/YunaVault.sol\":5759:5803  !pos.claimed && block.number >= pos.endBlock */\n    tag_292:\n        /* \"contracts/YunaVault.sol\":5791:5803  pos.endBlock */\n      pop\n        /* \"contracts/YunaVault.sol\":781:12071  contract YunaVault is ReentrancyGuard {... */\n      0x03\n        /* \"contracts/YunaVault.sol\":5791:5803  pos.endBlock */\n      dup3\n      add\n        /* \"contracts/YunaVault.sol\":781:12071  contract YunaVault is ReentrancyGuard {... */\n      sload\n        /* \"contracts/YunaVault.sol\":5775:5787  block.number */\n      number\n        /* \"contracts/YunaVault.sol\":5775:5803  block.number >= pos.endBlock */\n      lt\n      iszero\n        /* \"contracts/YunaVault.sol\":5759:5803  !pos.claimed && block.number >= pos.endBlock */\n      jump(tag_293)\n        /* \"contracts/YunaVault.sol\":5651:5675  posId < positions.length */\n    tag_289:\n      dup4\n        /* \"@openzeppelin/contracts/security/ReentrancyGuard.sol\":1716:1717  1 */\n      0x01\n        /* \"contracts/YunaVault.sol\":781:12071  contract YunaVault is ReentrancyGuard {... */\n      dup2\n      sstore\n      dup1\n      return\n    tag_286:\n      shl(0xe0, 0x4e487b71)\n      dup4\n      mstore\n      0x11\n      dup7\n      mstore\n      0x24\n      dup4\n      revert\n        /* \"contracts/YunaVault.sol\":5450:5467  active && !closed */\n    tag_284:\n        /* \"contracts/YunaVault.sol\":781:12071  contract YunaVault is ReentrancyGuard {... */\n      0x08\n      shr\n      and\n        /* \"contracts/YunaVault.sol\":5460:5467  !closed */\n      iszero\n      swap1\n      pop\n        /* \"contracts/YunaVault.sol\":5450:5467  active && !closed */\n      dup4\n      dup8\n      jump(tag_285)\n        /* \"contracts/YunaVault.sol\":781:12071  contract YunaVault is ReentrancyGuard {... */\n    tag_45:\n      swap2\n      jumpi(tag_89, callvalue)\n      dup1\n      add(calldatasize, not(0x03))\n      slt\n      tag_89\n      jumpi\n      pop\n      0xff\n      0x20\n      swap3\n      sload\n      0x08\n      shr\n      and\n      swap1\n      mload\n      swap1\n      iszero\n      iszero\n      dup2\n      mstore\n      return\n    tag_43:\n      dup3\n      swap1\n      jumpi(tag_85, callvalue)\n      jumpi(tag_85, slt(add(not(0x03), calldatasize), 0x20))\n      calldataload\n      swap1\n        /* \"contracts/YunaVault.sol\":1628:1667  TimeMultiplier[] public timeMultipliers */\n      0x02\n        /* \"contracts/YunaVault.sol\":781:12071  contract YunaVault is ReentrancyGuard {... */\n      sload\n        /* \"contracts/YunaVault.sol\":1628:1667  TimeMultiplier[] public timeMultipliers */\n      dup3\n      lt\n      iszero\n      tag_89\n      jumpi\n      pop\n      tag_114\n      swap1\n      tag_3\n      jump\t// in\n        /* \"contracts/YunaVault.sol\":781:12071  contract YunaVault is ReentrancyGuard {... */\n    tag_41:\n      pop\n      jumpi(tag_85, callvalue)\n      dup2\n      add(calldatasize, not(0x03))\n      slt\n      tag_85\n      jumpi\n      0x20\n      swap1\n      mload\n        /* \"contracts/YunaVault.sol\":1389:1424  uint256 public immutable minDeposit */\n      immutable(\"0xb2b512b441304a14c78813be0575a2b1be8296b169485190a954ec0635e46369\")\n        /* \"contracts/YunaVault.sol\":781:12071  contract YunaVault is ReentrancyGuard {... */\n      dup2\n      mstore\n      return\n    tag_39:\n      jumpi(tag_117, callvalue)\n      dup3\n      add(calldatasize, not(0x03))\n      slt\n      tag_117\n      jumpi\n      0x20\n      swap3\n      pop\n      sload\n      swap1\n      0xff\n      dup3\n      and\n        /* \"contracts/YunaVault.sol\":10820:10837  active && !closed */\n      swap2\n      dup3\n      tag_343\n      jumpi\n        /* \"contracts/YunaVault.sol\":781:12071  contract YunaVault is ReentrancyGuard {... */\n    tag_344:\n      pop\n      mload\n      swap1\n      iszero\n      iszero\n      dup2\n      mstore\n      return\n        /* \"contracts/YunaVault.sol\":10820:10837  active && !closed */\n    tag_343:\n        /* \"contracts/YunaVault.sol\":781:12071  contract YunaVault is ReentrancyGuard {... */\n      0x08\n      shr\n      0xff\n      and\n        /* \"contracts/YunaVault.sol\":10830:10837  !closed */\n      iszero\n      swap2\n      pop\n        /* \"contracts/YunaVault.sol\":10820:10837  active && !closed */\n      dup4\n      jump(tag_344)\n        /* \"contracts/YunaVault.sol\":781:12071  contract YunaVault is ReentrancyGuard {... */\n    tag_37:\n      swap1\n      jumpi(tag_117, callvalue)\n      dup3\n      add(calldatasize, not(0x03))\n      slt\n      tag_117\n      jumpi\n        /* \"contracts/YunaVault.sol\":10917:10925  protocol */\n      immutable(\"0x87bd18b67247df6baa7533339c49063efb5f43390eb1bcf9e95a3aa2cdb49408\")\n      sub(shl(0xa0, 0x01), 0x01)\n        /* \"contracts/YunaVault.sol\":781:12071  contract YunaVault is ReentrancyGuard {... */\n      and\n        /* \"contracts/YunaVault.sol\":10903:10913  msg.sender */\n      caller\n        /* \"contracts/YunaVault.sol\":10903:10925  msg.sender == protocol */\n      sub\n        /* \"contracts/YunaVault.sol\":781:12071  contract YunaVault is ReentrancyGuard {... */\n      tag_349\n      jumpi\n      pop\n      dup1\n      sload\n      not(0xffff)\n      and\n      0x0100\n      or\n      swap1\n      sstore\n        /* \"contracts/YunaVault.sol\":11008:11021  VaultClosed() */\n      0xdf23397ab444d891935a0b305b1552fb235d2bd07043ffc42c6ed3f43a4d8352\n      dup2\n      dup1\n      log1\n        /* \"contracts/YunaVault.sol\":781:12071  contract YunaVault is ReentrancyGuard {... */\n      dup1\n      return\n    tag_349:\n      swap1\n      0x20\n      0x64\n      swap3\n      mload\n      swap2\n      shl(0xe5, 0x461bcd)\n      dup4\n      mstore\n      dup3\n      add\n      mstore\n      0x0d\n      0x24\n      dup3\n      add\n      mstore\n      shl(0x9a, 0x1bdb9b1e481c1c9bdd1bd8dbdb)\n      0x44\n      dup3\n      add\n      mstore\n      revert\n    tag_35:\n      jumpi(tag_117, callvalue)\n      jumpi(tag_117, slt(add(not(0x03), calldatasize), 0x20))\n      calldataload\n      swap2\n      sload(0x01)\n        /* \"contracts/YunaVault.sol\":1555:1583  uint256[] public presetTimes */\n      dup4\n      lt\n      iszero\n      tag_89\n      jumpi\n      pop\n      tag_107\n        /* \"contracts/YunaVault.sol\":781:12071  contract YunaVault is ReentrancyGuard {... */\n      0x20\n        /* \"contracts/YunaVault.sol\":1555:1583  uint256[] public presetTimes */\n      swap3\n      tag_1\n      jump\t// in\n        /* \"contracts/YunaVault.sol\":781:12071  contract YunaVault is ReentrancyGuard {... */\n    tag_33:\n      pop\n      jumpi(tag_85, callvalue)\n      dup2\n      add(calldatasize, not(0x03))\n      slt\n      tag_85\n      jumpi\n      0x20\n      swap1\n      mload\n        /* \"contracts/YunaVault.sol\":1473:1504  uint256 public immutable xpRate */\n      immutable(\"0xed870a0389b720122307aec7908f2d3af87dd1fed26cd116ebd921becf62cb81\")\n        /* \"contracts/YunaVault.sol\":781:12071  contract YunaVault is ReentrancyGuard {... */\n      dup2\n      mstore\n      return\n    tag_31:\n      swap2\n      jumpi(tag_89, callvalue)\n      dup1\n      add(calldatasize, not(0x03))\n      slt\n      tag_89\n      jumpi\n      pop\n      0xff\n      0x20\n      swap3\n      sload\n      and\n      swap1\n      mload\n      swap1\n      iszero\n      iszero\n      dup2\n      mstore\n      return\n    tag_29:\n      dup4\n      swap1\n      jumpi(tag_85, callvalue)\n      dup2\n      add(calldatasize, not(0x03))\n      slt\n      tag_85\n      jumpi\n      0x20\n        /* \"contracts/YunaVault.sol\":1512:1548  uint256 public immutable feeBP = 500 */\n      swap1\n      immutable(\"0xd981c1aa70496adbf331222473f4f790f8f1219995826de705ab70eb68beb770\")\n        /* \"contracts/YunaVault.sol\":781:12071  contract YunaVault is ReentrancyGuard {... */\n      dup2\n      mstore\n      return\n    tag_1:\n        /* \"contracts/YunaVault.sol\":1555:1583  uint256[] public presetTimes */\n      0x01\n        /* \"contracts/YunaVault.sol\":781:12071  contract YunaVault is ReentrancyGuard {... */\n      sload\n      dup2\n      lt\n      iszero\n      tag_370\n      jumpi\n        /* \"contracts/YunaVault.sol\":1555:1583  uint256[] public presetTimes */\n      0x01\n      0x00\n        /* \"contracts/YunaVault.sol\":781:12071  contract YunaVault is ReentrancyGuard {... */\n      mstore\n      0xb10e2d527612073b26eecdfd717e6a320cf44b4afac2b0732d9fcbe2b7fa0cf6\n      add\n      swap1\n      0x00\n      swap1\n      jump\t// out\n    tag_370:\n      mstore(0x00, shl(0xe0, 0x4e487b71))\n      mstore(0x04, 0x32)\n      revert(0x00, 0x24)\n    tag_2:\n      dup1\n      sload\n      dup3\n      lt\n      iszero\n      tag_370\n      jumpi\n      0x00\n      mstore\n      keccak256(0x00, 0x20)\n      add\n      swap1\n      0x00\n      swap1\n      jump\t// out\n    tag_3:\n        /* \"contracts/YunaVault.sol\":1628:1667  TimeMultiplier[] public timeMultipliers */\n      0x02\n        /* \"contracts/YunaVault.sol\":781:12071  contract YunaVault is ReentrancyGuard {... */\n      sload\n      dup2\n      lt\n      iszero\n      tag_370\n      jumpi\n        /* \"contracts/YunaVault.sol\":1628:1667  TimeMultiplier[] public timeMultipliers */\n      0x02\n      0x00\n        /* \"contracts/YunaVault.sol\":781:12071  contract YunaVault is ReentrancyGuard {... */\n      mstore\n      0x01\n      shl\n      0x405787fa12a823e0f2b7631cc41b3ba8828b3321ca811111fa75cd3aa3bb5ace\n      add\n      swap1\n      0x00\n      swap1\n      jump\t// out\n    tag_4:\n        /* \"contracts/YunaVault.sol\":1702:1745  AmountMultiplier[] public amountMultipliers */\n      0x03\n        /* \"contracts/YunaVault.sol\":781:12071  contract YunaVault is ReentrancyGuard {... */\n      sload\n      dup2\n      lt\n      iszero\n      tag_370\n      jumpi\n        /* \"contracts/YunaVault.sol\":1702:1745  AmountMultiplier[] public amountMultipliers */\n      0x03\n      0x00\n        /* \"contracts/YunaVault.sol\":781:12071  contract YunaVault is ReentrancyGuard {... */\n      mstore\n      0x01\n      shl\n      0xc2575a0e9e593c00f959f8c92f12db2869c3395a3b0502d05e2516446f71f85b\n      add\n      swap1\n      0x00\n      swap1\n      jump\t// out\n    tag_5:\n      calldataload(0x04)\n      swap1\n      sub(shl(0xa0, 0x01), 0x01)\n      dup3\n      and\n      dup3\n      sub\n      tag_378\n      jumpi\n      jump\t// out\n    tag_378:\n      0x00\n      dup1\n      revert\n    tag_6:\n      jumpi(tag_378, callvalue)\n      jumpi(tag_378, slt(add(not(0x03), calldatasize), 0x00))\n      mload(0x40)\n        /* \"contracts/YunaVault.sol\":1346:1381  address public immutable vaultToken */\n      immutable(\"0x8d841e129c158ed00fc3618c65b249d82e3b0efc8bcebb06537fd0a18b989353\")\n      sub(shl(0xa0, 0x01), 0x01)\n        /* \"contracts/YunaVault.sol\":781:12071  contract YunaVault is ReentrancyGuard {... */\n      and\n      dup2\n      mstore\n      0x20\n      swap1\n      return\n    tag_7:\n        /* \"contracts/YunaVault.sol\":5659:5668  positions */\n      0x05\n        /* \"contracts/YunaVault.sol\":781:12071  contract YunaVault is ReentrancyGuard {... */\n      sload\n      dup2\n      lt\n      iszero\n      tag_370\n      jumpi\n        /* \"contracts/YunaVault.sol\":5659:5668  positions */\n      0x05\n        /* \"contracts/YunaVault.sol\":781:12071  contract YunaVault is ReentrancyGuard {... */\n      swap1\n      dup2\n      0x00\n      mstore\n      mul\n      0x036b6384b5eca791c62761152d0c79bb0604c104a5fb6f4eb0703f3154bb3db0\n      add\n      swap1\n      0x00\n      swap1\n      jump\t// out\n    tag_8:\n      not(0x00)\n      dup2\n      eq\n      tag_386\n      jumpi\n      0x01\n      add\n      swap1\n      jump\t// out\n    tag_386:\n      mstore(0x00, shl(0xe0, 0x4e487b71))\n      mstore(0x04, 0x11)\n      revert(0x00, 0x24)\n        /* \"contracts/YunaVault.sol\":3770:4085  function allowedPreset(uint256 blocks) public view returns (bool) {... */\n    tag_9:\n        /* \"contracts/YunaVault.sol\":3851:3862  presetTimes */\n      0x01\n        /* \"contracts/YunaVault.sol\":781:12071  contract YunaVault is ReentrancyGuard {... */\n      dup1\n      sload\n        /* \"contracts/YunaVault.sol\":3851:3874  presetTimes.length == 0 */\n      swap2\n      dup3\n      iszero\n        /* \"contracts/YunaVault.sol\":3847:3887  if (presetTimes.length == 0) return true */\n      tag_388\n      jumpi\n        /* \"contracts/YunaVault.sol\":3873:3874  0 */\n      0x00\n        /* \"contracts/YunaVault.sol\":3958:3980  i < presetTimes.length */\n    tag_390:\n      dup4\n      dup2\n      lt\n      tag_391\n      jumpi\n        /* \"contracts/YunaVault.sol\":4065:4077  return false */\n      pop\n      pop\n      pop\n      pop\n        /* \"contracts/YunaVault.sol\":3873:3874  0 */\n      0x00\n        /* \"contracts/YunaVault.sol\":3770:4085  function allowedPreset(uint256 blocks) public view returns (bool) {... */\n      swap1\n      jump\t// out\n        /* \"contracts/YunaVault.sol\":3982:3985  i++ */\n    tag_391:\n        /* \"contracts/YunaVault.sol\":4006:4020  presetTimes[i] */\n      dup2\n      tag_393\n      dup3\n      tag_1\n      jump\t// in\n    tag_393:\n        /* \"contracts/YunaVault.sol\":781:12071  contract YunaVault is ReentrancyGuard {... */\n      swap1\n      sload\n      swap1\n      0x03\n      shl\n      shr\n        /* \"contracts/YunaVault.sol\":4006:4030  presetTimes[i] == blocks */\n      eq\n        /* \"contracts/YunaVault.sol\":4002:4043  if (presetTimes[i] == blocks) return true */\n      tag_394\n      jumpi\n        /* \"contracts/YunaVault.sol\":3982:3985  i++ */\n      tag_396\n      swap1\n      tag_8\n      jump\t// in\n    tag_396:\n        /* \"contracts/YunaVault.sol\":3943:3956  uint256 i = 0 */\n      jump(tag_390)\n        /* \"contracts/YunaVault.sol\":4002:4043  if (presetTimes[i] == blocks) return true */\n    tag_394:\n        /* \"contracts/YunaVault.sol\":4032:4043  return true */\n      pop\n      pop\n      swap1\n      pop\n      swap1\n      jump\t// out\n        /* \"contracts/YunaVault.sol\":3847:3887  if (presetTimes.length == 0) return true */\n    tag_388:\n        /* \"contracts/YunaVault.sol\":3876:3887  return true */\n      pop\n      swap1\n      pop\n      swap1\n      jump\t// out\n        /* \"contracts/YunaVault.sol\":781:12071  contract YunaVault is ReentrancyGuard {... */\n    tag_10:\n      iszero\n      tag_397\n      jumpi\n      jump\t// out\n    tag_397:\n      mload(0x40)\n      shl(0xe5, 0x461bcd)\n      dup2\n      mstore\n      0x20\n      0x04\n      dup3\n      add\n      mstore\n      0x10\n      0x24\n      dup3\n      add\n      mstore\n      shl(0x80, 0x7661756c74206e6f7420616374697665)\n      0x44\n      dup3\n      add\n      mstore\n      0x64\n      swap1\n      revert\n    tag_11:\n      swap2\n      swap1\n      dup3\n      add\n      dup1\n      swap3\n      gt\n      tag_386\n      jumpi\n      jump\t// out\n    tag_12:\n      0xa0\n      dup2\n      add\n      swap1\n      dup2\n      lt\n      0xffffffffffffffff\n      dup3\n      gt\n      or\n      tag_401\n      jumpi\n      0x40\n      mstore\n      jump\t// out\n    tag_401:\n      mstore(0x00, shl(0xe0, 0x4e487b71))\n      mstore(0x04, 0x41)\n      revert(0x00, 0x24)\n    tag_13:\n      swap1\n      0x1f\n      dup1\n      not\n      swap2\n      add\n      and\n      dup2\n      add\n      swap1\n      dup2\n      lt\n      0xffffffffffffffff\n      dup3\n      gt\n      or\n      tag_401\n      jumpi\n      0x40\n      mstore\n      jump\t// out\n    tag_14:\n      swap2\n      swap1\n      dup3\n      sub\n      swap2\n      dup3\n      gt\n      tag_386\n      jumpi\n      jump\t// out\n    tag_16:\n      swap1\n      dup2\n      sload\n      swap2\n      shl(0x40, 0x01)\n      dup4\n      lt\n      iszero\n      tag_401\n      jumpi\n      dup3\n      tag_155\n      swap2\n      0x01\n      tag_410\n      swap6\n      add\n      dup2\n      sstore\n      tag_2\n      jump\t// in\n    tag_410:\n      jump\t// out\n        /* \"@openzeppelin/contracts/security/ReentrancyGuard.sol\":2336:2623  function _nonReentrantBefore() private {... */\n    tag_17:\n        /* \"@openzeppelin/contracts/security/ReentrancyGuard.sol\":1759:1760  2 */\n      0x02\n        /* \"@openzeppelin/contracts/security/ReentrancyGuard.sol\":2468:2475  _status */\n      0x00\n        /* \"contracts/YunaVault.sol\":781:12071  contract YunaVault is ReentrancyGuard {... */\n      sload\n        /* \"@openzeppelin/contracts/security/ReentrancyGuard.sol\":2468:2487  _status != _ENTERED */\n      eq\n        /* \"@openzeppelin/contracts/security/ReentrancyGuard.sol\":1759:1760  2 */\n      tag_411\n      jumpi\n      0x02\n        /* \"@openzeppelin/contracts/security/ReentrancyGuard.sol\":2468:2475  _status */\n      0x00\n        /* \"contracts/YunaVault.sol\":781:12071  contract YunaVault is ReentrancyGuard {... */\n      sstore\n        /* \"@openzeppelin/contracts/security/ReentrancyGuard.sol\":2336:2623  function _nonReentrantBefore() private {... */\n      jump\t// out\n        /* \"@openzeppelin/contracts/security/ReentrancyGuard.sol\":1759:1760  2 */\n    tag_411:\n        /* \"contracts/YunaVault.sol\":781:12071  contract YunaVault is ReentrancyGuard {... */\n      mload(0x40)\n      shl(0xe5, 0x461bcd)\n        /* \"@openzeppelin/contracts/security/ReentrancyGuard.sol\":1759:1760  2 */\n      dup2\n      mstore\n      0x20\n      0x04\n      dup3\n      add\n      mstore\n      0x1f\n      0x24\n      dup3\n      add\n        /* \"contracts/YunaVault.sol\":781:12071  contract YunaVault is ReentrancyGuard {... */\n      mstore\n        /* \"@openzeppelin/contracts/security/ReentrancyGuard.sol\":1759:1760  2 */\n      0x5265656e7472616e637947756172643a207265656e7472616e742063616c6c00\n        /* \"contracts/YunaVault.sol\":781:12071  contract YunaVault is ReentrancyGuard {... */\n      0x44\n      dup3\n      add\n        /* \"@openzeppelin/contracts/security/ReentrancyGuard.sol\":1759:1760  2 */\n      mstore\n      0x64\n      swap1\n      revert\n        /* \"@openzeppelin/contracts/token/ERC20/utils/SafeERC20.sol\":8370:9090  function _callOptionalReturn(IERC20 token, bytes memory data) private {... */\n    tag_18:\n      swap1\n      0x00\n        /* \"@openzeppelin/contracts/token/ERC20/utils/SafeERC20.sol\":8507:8928  assembly (\"memory-safe\") {... */\n      0x20\n        /* \"@openzeppelin/contracts/token/ERC20/utils/SafeERC20.sol\":8370:9090  function _callOptionalReturn(IERC20 token, bytes memory data) private {... */\n      swap2\n        /* \"@openzeppelin/contracts/token/ERC20/utils/SafeERC20.sol\":8507:8928  assembly (\"memory-safe\") {... */\n      dup3\n      dup2\n      mload\n      swap2\n      add\n      dup3\n      dup6\n      gas\n      call\n      iszero\n      tag_413\n      jumpi\n      mload(0x00)\n      returndatasize\n        /* \"@openzeppelin/contracts/token/ERC20/utils/SafeERC20.sol\":8942:8957  returnSize == 0 */\n      tag_415\n      jumpi\n      pop\n      sub(shl(0xa0, 0x01), 0x01)\n        /* \"contracts/YunaVault.sol\":781:12071  contract YunaVault is ReentrancyGuard {... */\n      dup2\n      and\n        /* \"@openzeppelin/contracts/token/ERC20/utils/SafeERC20.sol\":8960:8986  address(token).code.length */\n      extcodesize\n        /* \"@openzeppelin/contracts/token/ERC20/utils/SafeERC20.sol\":8960:8991  address(token).code.length == 0 */\n      iszero\n        /* \"@openzeppelin/contracts/token/ERC20/utils/SafeERC20.sol\":8942:9010  returnSize == 0 ? address(token).code.length == 0 : returnValue != 1 */\n    tag_417:\n        /* \"@openzeppelin/contracts/token/ERC20/utils/SafeERC20.sol\":8938:9084  if (returnSize == 0 ? address(token).code.length == 0 : returnValue != 1) {... */\n      tag_418\n      jumpi\n        /* \"@openzeppelin/contracts/token/ERC20/utils/SafeERC20.sol\":8370:9090  function _callOptionalReturn(IERC20 token, bytes memory data) private {... */\n      pop\n      jump\t// out\n        /* \"@openzeppelin/contracts/token/ERC20/utils/SafeERC20.sol\":8938:9084  if (returnSize == 0 ? address(token).code.length == 0 : returnValue != 1) {... */\n    tag_418:\n        /* \"contracts/YunaVault.sol\":781:12071  contract YunaVault is ReentrancyGuard {... */\n      mload(0x40)\n      shl(0xe0, 0x5274afe7)\n        /* \"@openzeppelin/contracts/token/ERC20/utils/SafeERC20.sol\":9033:9073  SafeERC20FailedOperation(address(token)) */\n      dup2\n      mstore\n      sub(shl(0xa0, 0x01), 0x01)\n        /* \"contracts/YunaVault.sol\":781:12071  contract YunaVault is ReentrancyGuard {... */\n      swap1\n      swap2\n      and\n        /* \"@openzeppelin/contracts/token/ERC20/utils/SafeERC20.sol\":9033:9073  SafeERC20FailedOperation(address(token)) */\n      0x04\n      dup3\n      add\n        /* \"contracts/YunaVault.sol\":781:12071  contract YunaVault is ReentrancyGuard {... */\n      mstore\n      0x24\n      swap1\n        /* \"@openzeppelin/contracts/token/ERC20/utils/SafeERC20.sol\":9033:9073  SafeERC20FailedOperation(address(token)) */\n      revert\n        /* \"@openzeppelin/contracts/token/ERC20/utils/SafeERC20.sol\":8942:9010  returnSize == 0 ? address(token).code.length == 0 : returnValue != 1 */\n    tag_415:\n        /* \"@openzeppelin/contracts/token/ERC20/utils/SafeERC20.sol\":9009:9010  1 */\n      0x01\n        /* \"@openzeppelin/contracts/token/ERC20/utils/SafeERC20.sol\":8994:9010  returnValue != 1 */\n      eq\n      iszero\n        /* \"@openzeppelin/contracts/token/ERC20/utils/SafeERC20.sol\":8942:9010  returnSize == 0 ? address(token).code.length == 0 : returnValue != 1 */\n      jump(tag_417)\n        /* \"@openzeppelin/contracts/token/ERC20/utils/SafeERC20.sol\":8507:8928  assembly (\"memory-safe\") {... */\n    tag_413:\n      mload(0x40)\n      returndatasize\n      0x00\n      dup3\n      returndatacopy\n      returndatasize\n      swap1\n      revert\n        /* \"contracts/YunaVault.sol\":781:12071  contract YunaVault is ReentrancyGuard {... */\n    tag_19:\n      dup2\n      dup2\n      mul\n      swap3\n      swap2\n      dup2\n      iszero\n      swap2\n      dup5\n      div\n      eq\n      or\n      iszero\n      tag_386\n      jumpi\n      jump\t// out\n    tag_20:\n      dup1\n      sload\n      swap1\n      dup2\n      iszero\n      tag_422\n      jumpi\n      not(0x00)\n      swap2\n      dup3\n      add\n      swap2\n      tag_424\n      dup4\n      dup4\n      tag_2\n      jump\t// in\n    tag_424:\n      swap1\n      swap2\n      dup3\n      sload\n      swap2\n      0x03\n      shl\n      shl\n      not\n      and\n      swap1\n      sstore\n      sstore\n      jump\t// out\n    tag_422:\n      mstore(0x00, shl(0xe0, 0x4e487b71))\n      mstore(0x04, 0x31)\n      revert(0x00, 0x24)\n        /* \"@openzeppelin/contracts/token/ERC20/utils/SafeERC20.sol\":1219:1379  function safeTransfer(IERC20 token, address to, uint256 value) internal {... */\n    tag_21:\n        /* \"contracts/YunaVault.sol\":781:12071  contract YunaVault is ReentrancyGuard {... */\n      mload(0x40)\n      shl(0xe0, 0xa9059cbb)\n        /* \"@openzeppelin/contracts/token/ERC20/utils/SafeERC20.sol\":1328:1371  abi.encodeCall(token.transfer, (to, value)) */\n      0x20\n      dup3\n      add\n      mstore\n      sub(shl(0xa0, 0x01), 0x01)\n        /* \"contracts/YunaVault.sol\":781:12071  contract YunaVault is ReentrancyGuard {... */\n      swap1\n      swap3\n      and\n        /* \"@openzeppelin/contracts/token/ERC20/utils/SafeERC20.sol\":1328:1371  abi.encodeCall(token.transfer, (to, value)) */\n      0x24\n      dup4\n      add\n        /* \"contracts/YunaVault.sol\":781:12071  contract YunaVault is ReentrancyGuard {... */\n      mstore\n      0x44\n      dup1\n      dup4\n      add\n      swap4\n      swap1\n      swap4\n      mstore\n        /* \"@openzeppelin/contracts/token/ERC20/utils/SafeERC20.sol\":1328:1371  abi.encodeCall(token.transfer, (to, value)) */\n      swap2\n      dup2\n      mstore\n        /* \"contracts/YunaVault.sol\":781:12071  contract YunaVault is ReentrancyGuard {... */\n      0x80\n      dup2\n      add\n      swap2\n      0xffffffffffffffff\n      dup4\n      gt\n      dup3\n      dup5\n      lt\n      or\n      tag_401\n      jumpi\n        /* \"@openzeppelin/contracts/token/ERC20/utils/SafeERC20.sol\":1328:1371  abi.encodeCall(token.transfer, (to, value)) */\n      tag_410\n        /* \"contracts/YunaVault.sol\":781:12071  contract YunaVault is ReentrancyGuard {... */\n      swap3\n      0x40\n      mstore\n        /* \"@openzeppelin/contracts/token/ERC20/utils/SafeERC20.sol\":1328:1371  abi.encodeCall(token.transfer, (to, value)) */\n      tag_18\n      jump\t// in\n        /* \"contracts/YunaVault.sol\":781:12071  contract YunaVault is ReentrancyGuard {... */\n    tag_22:\n      dup1\n      mload\n      dup3\n      lt\n      iszero\n      tag_370\n      jumpi\n      0x20\n      swap2\n      0x05\n      shl\n      add\n      add\n      swap1\n      jump\t// out\n    tag_23:\n      swap1\n      mload(0x40)\n      tag_430\n      dup2\n      tag_12\n      jump\t// in\n    tag_430:\n      dup3\n      sload\n      sub(shl(0xa0, 0x01), 0x01)\n      and\n      dup2\n      mstore\n      0x01\n      dup4\n      add\n      sload\n      0x20\n      dup3\n      add\n      mstore\n      0x02\n      dup4\n      add\n      sload\n      0x40\n      dup3\n      add\n      mstore\n      0x03\n      dup4\n      add\n      sload\n      0x60\n      dup3\n      add\n      mstore\n      0x04\n      swap1\n      swap3\n      add\n      sload\n      0xff\n      and\n      iszero\n      iszero\n      0x80\n      dup4\n      add\n      mstore\n      jump\t// out\n        /* \"contracts/YunaVault.sol\":9712:10652  function _calcPositionXP(uint256 amount, uint256 blocks, uint256 period) internal view returns (uint256) {... */\n    tag_24:\n      swap2\n      swap1\n        /* \"contracts/YunaVault.sol\":9843:9858  amount * blocks */\n      tag_431\n        /* \"contracts/YunaVault.sol\":9876:9889  base * xpRate */\n      tag_432\n        /* \"contracts/YunaVault.sol\":9712:10652  function _calcPositionXP(uint256 amount, uint256 blocks, uint256 period) internal view returns (uint256) {... */\n      swap2\n        /* \"contracts/YunaVault.sol\":9843:9858  amount * blocks */\n      dup5\n      tag_19\n      jump\t// in\n    tag_431:\n        /* \"contracts/YunaVault.sol\":9883:9889  xpRate */\n      immutable(\"0xed870a0389b720122307aec7908f2d3af87dd1fed26cd116ebd921becf62cb81\")\n        /* \"contracts/YunaVault.sol\":9876:9889  base * xpRate */\n      swap1\n      tag_19\n      jump\t// in\n    tag_432:\n        /* \"contracts/YunaVault.sol\":9903:9929  uint256 timeMultBP = 10000 */\n      swap1\n        /* \"contracts/YunaVault.sol\":9924:9929  10000 */\n      0x2710\n        /* \"contracts/YunaVault.sol\":9945:9958  uint256 i = 0 */\n      swap1\n        /* \"contracts/YunaVault.sol\":9957:9958  0 */\n      0x00\n        /* \"contracts/YunaVault.sol\":9964:9979  timeMultipliers */\n      0x02\n        /* \"contracts/YunaVault.sol\":781:12071  contract YunaVault is ReentrancyGuard {... */\n      sload\n        /* \"contracts/YunaVault.sol\":9940:10188  for (uint256 i = 0; i < timeMultipliers.length; i++) {... */\n      swap2\n        /* \"contracts/YunaVault.sol\":9960:9986  i < timeMultipliers.length */\n    tag_433:\n      dup3\n      dup3\n      lt\n      tag_434\n      jumpi\n        /* \"contracts/YunaVault.sol\":9940:10188  for (uint256 i = 0; i < timeMultipliers.length; i++) {... */\n    tag_435:\n        /* \"contracts/YunaVault.sol\":10200:10228  uint256 amountMultBP = 10000 */\n      pop\n      pop\n      pop\n        /* \"contracts/YunaVault.sol\":9924:9929  10000 */\n      0x2710\n        /* \"contracts/YunaVault.sol\":10244:10257  uint256 k = 0 */\n      swap1\n        /* \"contracts/YunaVault.sol\":9957:9958  0 */\n      0x00\n        /* \"contracts/YunaVault.sol\":10263:10280  amountMultipliers */\n      0x03\n        /* \"contracts/YunaVault.sol\":781:12071  contract YunaVault is ReentrancyGuard {... */\n      sload\n        /* \"contracts/YunaVault.sol\":10239:10495  for (uint256 k = 0; k < amountMultipliers.length; k++) {... */\n      swap5\n        /* \"contracts/YunaVault.sol\":10259:10287  k < amountMultipliers.length */\n    tag_436:\n      dup6\n      dup3\n      lt\n      tag_437\n      jumpi\n        /* \"contracts/YunaVault.sol\":10239:10495  for (uint256 k = 0; k < amountMultipliers.length; k++) {... */\n    tag_438:\n        /* \"contracts/YunaVault.sol\":10529:10554  timeMultBP * amountMultBP */\n      pop\n      pop\n        /* \"contracts/YunaVault.sol\":9924:9929  10000 */\n      0x2710\n        /* \"contracts/YunaVault.sol\":10529:10554  timeMultBP * amountMultBP */\n      swap4\n      pop\n      tag_439\n        /* \"contracts/YunaVault.sol\":10593:10610  base * combinedBP */\n      tag_440\n        /* \"contracts/YunaVault.sol\":10529:10554  timeMultBP * amountMultBP */\n      swap4\n      swap3\n      dup6\n      swap3\n      tag_19\n      jump\t// in\n    tag_439:\n        /* \"contracts/YunaVault.sol\":781:12071  contract YunaVault is ReentrancyGuard {... */\n      div\n        /* \"contracts/YunaVault.sol\":10593:10610  base * combinedBP */\n      swap1\n      tag_19\n      jump\t// in\n    tag_440:\n        /* \"contracts/YunaVault.sol\":781:12071  contract YunaVault is ReentrancyGuard {... */\n      div\n        /* \"contracts/YunaVault.sol\":9712:10652  function _calcPositionXP(uint256 amount, uint256 blocks, uint256 period) internal view returns (uint256) {... */\n      swap1\n      jump\t// out\n        /* \"contracts/YunaVault.sol\":10289:10292  k++ */\n    tag_437:\n        /* \"contracts/YunaVault.sol\":10323:10343  amountMultipliers[k] */\n      swap1\n      swap3\n      tag_441\n      dup5\n      tag_4\n      jump\t// in\n    tag_441:\n      pop\n        /* \"contracts/YunaVault.sol\":781:12071  contract YunaVault is ReentrancyGuard {... */\n      sload\n        /* \"contracts/YunaVault.sol\":10313:10353  amount >= amountMultipliers[k].minAmount */\n      dup3\n      lt\n        /* \"contracts/YunaVault.sol\":10323:10353  amountMultipliers[k].minAmount */\n      tag_442\n      jumpi\n        /* \"contracts/YunaVault.sol\":10389:10409  amountMultipliers[k] */\n      pop\n        /* \"contracts/YunaVault.sol\":10289:10292  k++ */\n      tag_444\n        /* \"contracts/YunaVault.sol\":10389:10422  amountMultipliers[k].multiplierBP */\n      0x01\n        /* \"contracts/YunaVault.sol\":10389:10409  amountMultipliers[k] */\n      tag_445\n      dup6\n      tag_4\n      jump\t// in\n    tag_445:\n        /* \"contracts/YunaVault.sol\":10389:10422  amountMultipliers[k].multiplierBP */\n      pop\n      add\n        /* \"contracts/YunaVault.sol\":781:12071  contract YunaVault is ReentrancyGuard {... */\n      sload\n        /* \"contracts/YunaVault.sol\":10309:10484  if (amount >= amountMultipliers[k].minAmount) {... */\n      swap4\n        /* \"contracts/YunaVault.sol\":10289:10292  k++ */\n      tag_8\n      jump\t// in\n    tag_444:\n        /* \"contracts/YunaVault.sol\":10244:10257  uint256 k = 0 */\n      swap1\n      jump(tag_436)\n        /* \"contracts/YunaVault.sol\":10309:10484  if (amount >= amountMultipliers[k].minAmount) {... */\n    tag_442:\n        /* \"contracts/YunaVault.sol\":10463:10468  break */\n      swap3\n      jump(tag_438)\n        /* \"contracts/YunaVault.sol\":9988:9991  i++ */\n    tag_434:\n        /* \"contracts/YunaVault.sol\":10022:10040  timeMultipliers[i] */\n      swap1\n      swap2\n      swap5\n      swap4\n      swap3\n      tag_446\n      dup4\n      tag_3\n      jump\t// in\n    tag_446:\n      pop\n        /* \"contracts/YunaVault.sol\":781:12071  contract YunaVault is ReentrancyGuard {... */\n      sload\n        /* \"contracts/YunaVault.sol\":10012:10050  period >= timeMultipliers[i].minBlocks */\n      dup3\n      lt\n        /* \"contracts/YunaVault.sol\":10022:10050  timeMultipliers[i].minBlocks */\n      tag_447\n      jumpi\n        /* \"contracts/YunaVault.sol\":10084:10102  timeMultipliers[i] */\n      pop\n        /* \"contracts/YunaVault.sol\":9988:9991  i++ */\n      tag_449\n        /* \"contracts/YunaVault.sol\":10084:10115  timeMultipliers[i].multiplierBP */\n      0x01\n        /* \"contracts/YunaVault.sol\":10084:10102  timeMultipliers[i] */\n      tag_450\n      dup5\n      tag_3\n      jump\t// in\n    tag_450:\n        /* \"contracts/YunaVault.sol\":10084:10115  timeMultipliers[i].multiplierBP */\n      pop\n      add\n        /* \"contracts/YunaVault.sol\":781:12071  contract YunaVault is ReentrancyGuard {... */\n      sload\n        /* \"contracts/YunaVault.sol\":10008:10177  if (period >= timeMultipliers[i].minBlocks) {... */\n      swap3\n        /* \"contracts/YunaVault.sol\":9988:9991  i++ */\n      tag_8\n      jump\t// in\n    tag_449:\n        /* \"contracts/YunaVault.sol\":9945:9958  uint256 i = 0 */\n      swap1\n      swap5\n      swap2\n      swap3\n      swap4\n      swap5\n      jump(tag_433)\n        /* \"contracts/YunaVault.sol\":10008:10177  if (period >= timeMultipliers[i].minBlocks) {... */\n    tag_447:\n        /* \"contracts/YunaVault.sol\":10156:10161  break */\n      swap3\n      swap4\n      swap5\n      jump(tag_435)\n        /* \"contracts/YunaVault.sol\":781:12071  contract YunaVault is ReentrancyGuard {... */\n    tag_25:\n      0xffffffffffffffff\n      dup2\n      gt\n      tag_401\n      jumpi\n      0x05\n      shl\n      0x20\n      add\n      swap1\n      jump\t// out\n        /* \"contracts/YunaVault.sol\":11496:12068  function getPositionsPaginated(address user, uint256 offset, uint256 limit, bool _active)... */\n    tag_26:\n      swap1\n      swap4\n      swap3\n      0x00\n      swap1\n        /* \"contracts/YunaVault.sol\":11684:11740  _active ? activePositions[user] : historyPositions[user] */\n      iszero\n      tag_453\n      jumpi\n      pop\n      sub(shl(0xa0, 0x01), 0x01)\n        /* \"contracts/YunaVault.sol\":781:12071  contract YunaVault is ReentrancyGuard {... */\n      and\n      0x00\n      swap1\n      dup2\n      mstore\n        /* \"contracts/YunaVault.sol\":11694:11709  activePositions */\n      0x06\n        /* \"contracts/YunaVault.sol\":781:12071  contract YunaVault is ReentrancyGuard {... */\n      0x20\n      mstore\n      0x40\n      swap1\n      keccak256\n      swap3\n        /* \"contracts/YunaVault.sol\":11684:11740  _active ? activePositions[user] : historyPositions[user] */\n    tag_455:\n        /* \"contracts/YunaVault.sol\":781:12071  contract YunaVault is ReentrancyGuard {... */\n      dup4\n      sload\n        /* \"contracts/YunaVault.sol\":11798:11814  offset >= length */\n      swap2\n      dup3\n      dup3\n      lt\n      iszero\n        /* \"contracts/YunaVault.sol\":11794:11827  if (offset >= length) return page */\n      tag_456\n      jumpi\n        /* \"contracts/YunaVault.sol\":11854:11868  offset + limit */\n      tag_458\n      swap1\n      dup3\n      tag_11\n      jump\t// in\n    tag_458:\n        /* \"contracts/YunaVault.sol\":11883:11895  end > length */\n      swap2\n      dup1\n      dup4\n      gt\n        /* \"contracts/YunaVault.sol\":11879:11909  if (end > length) end = length */\n      tag_459\n      jumpi\n        /* \"contracts/YunaVault.sol\":11684:11740  _active ? activePositions[user] : historyPositions[user] */\n    tag_460:\n        /* \"contracts/YunaVault.sol\":11943:11955  end - offset */\n      pop\n      tag_461\n      dup2\n      dup4\n      tag_14\n      jump\t// in\n    tag_461:\n        /* \"contracts/YunaVault.sol\":781:12071  contract YunaVault is ReentrancyGuard {... */\n      tag_462\n      dup2\n      tag_25\n      jump\t// in\n    tag_462:\n      swap1\n      tag_463\n      mload(0x40)\n      swap3\n      dup4\n      tag_13\n      jump\t// in\n    tag_463:\n      dup1\n      dup3\n      mstore\n      tag_464\n      not(0x1f)\n      swap2\n      tag_25\n      jump\t// in\n    tag_464:\n      add\n      calldatasize\n      0x20\n      dup4\n      add\n      calldatacopy\n        /* \"contracts/YunaVault.sol\":11922:11956  page = new uint256[](end - offset) */\n      dup1\n        /* \"contracts/YunaVault.sol\":11972:11990  uint256 i = offset */\n      swap5\n      dup3\n        /* \"contracts/YunaVault.sol\":11992:11999  i < end */\n    tag_465:\n      dup5\n      dup2\n      lt\n      tag_466\n      jumpi\n        /* \"contracts/YunaVault.sol\":11496:12068  function getPositionsPaginated(address user, uint256 offset, uint256 limit, bool _active)... */\n      pop\n      pop\n      pop\n      pop\n      pop\n      jump\t// out\n        /* \"contracts/YunaVault.sol\":12001:12004  i++ */\n    tag_466:\n        /* \"contracts/YunaVault.sol\":12040:12049  source[i] */\n      dup1\n      tag_468\n        /* \"contracts/YunaVault.sol\":12001:12004  i++ */\n      tag_469\n        /* \"contracts/YunaVault.sol\":12040:12049  source[i] */\n      swap3\n      dup5\n      tag_2\n      jump\t// in\n    tag_468:\n        /* \"contracts/YunaVault.sol\":781:12071  contract YunaVault is ReentrancyGuard {... */\n      swap1\n      sload\n      swap1\n      0x03\n      shl\n      shr\n        /* \"contracts/YunaVault.sol\":12021:12049  page[i - offset] = source[i] */\n      tag_470\n        /* \"contracts/YunaVault.sol\":12026:12036  i - offset */\n      tag_471\n      dup8\n      dup5\n      tag_14\n      jump\t// in\n    tag_471:\n        /* \"contracts/YunaVault.sol\":12021:12049  page[i - offset] = source[i] */\n      dup7\n      tag_22\n      jump\t// in\n    tag_470:\n        /* \"contracts/YunaVault.sol\":781:12071  contract YunaVault is ReentrancyGuard {... */\n      mstore\n        /* \"contracts/YunaVault.sol\":12001:12004  i++ */\n      tag_8\n      jump\t// in\n    tag_469:\n        /* \"contracts/YunaVault.sol\":11972:11990  uint256 i = offset */\n      jump(tag_465)\n        /* \"contracts/YunaVault.sol\":11879:11909  if (end > length) end = length */\n    tag_459:\n        /* \"contracts/YunaVault.sol\":11897:11909  end = length */\n      swap2\n      pop\n        /* \"contracts/YunaVault.sol\":11879:11909  if (end > length) end = length */\n      0x00\n      jump(tag_460)\n        /* \"contracts/YunaVault.sol\":11794:11827  if (offset >= length) return page */\n    tag_456:\n      pop\n        /* \"contracts/YunaVault.sol\":781:12071  contract YunaVault is ReentrancyGuard {... */\n      0x60\n      swap4\n      pop\n      pop\n      pop\n        /* \"contracts/YunaVault.sol\":11816:11827  return page */\n      jump\t// out\n        /* \"contracts/YunaVault.sol\":11684:11740  _active ? activePositions[user] : historyPositions[user] */\n    tag_453:\n      sub(shl(0xa0, 0x01), 0x01)\n        /* \"contracts/YunaVault.sol\":781:12071  contract YunaVault is ReentrancyGuard {... */\n      swap1\n      swap2\n      and\n      dup2\n      mstore\n        /* \"contracts/YunaVault.sol\":11718:11734  historyPositions */\n      0x07\n        /* \"contracts/YunaVault.sol\":781:12071  contract YunaVault is ReentrancyGuard {... */\n      0x20\n      mstore\n      0x40\n      swap1\n      keccak256\n      swap3\n        /* \"contracts/YunaVault.sol\":11684:11740  _active ? activePositions[user] : historyPositions[user] */\n      jump(tag_455)\n\n    auxdata: 0xa26469706673582212201552fbd55976fbcf0ae82bfbcbd87565f6ed88549af4cefcbefc0de9450ff89f64736f6c63430008140033\n}\n",
				"bytecode": {
					"linkReferences": {},
					"object": "60406101408152346200048e5762001ea190813803806200002081620004a3565b9384398201906101009283818403126200048e576200003f81620004dd565b9060209062000050828201620004dd565b908481015192606082015160808301519260a081015160018060401b03908181116200048e5782018a601f820112156200048e578051958b6200009d6200009789620004f2565b620004a3565b9287848a8152019088829a60051b8201019283116200048e5788809101915b83831062000492575050505060c08401518381116200048e5784018c601f820112156200048e578c8188620000f4935191016200050a565b9360e0810151908482116200048e57018c601f820112156200048e576101f49c818862000124935191016200050a565b946001995f998b8b556101209e8f5260049c8d8d61ffff1982541617905560018060a01b03808216156200045e578216156200042f57838311620004005760805260a05260c05260e0528c5251908111620003ed576801000000000000000094858211620003da578754828955808310620003b0575b5087875284872088885b8481106200039d57509250505085905b6200030b575b50508484905b62000272575b87516118b6908a8c83620005eb84396080518381816102ed015281816104dc01528181610f7801526110d7015260a051838181610430015281816104fd01528181610582015281816106b601528181610e2a01528181610f3f01528181610f990152611329015260c0518381816106390152611068015260e0518381816109580152610d010152518281816111ad01526116970152518181816103ac01528181610d5a01526112090152f35b81518110156200030557620002888183620005c1565b51600380549086821015620002f257888201808255821015620002df57620002d592899796959492620002cf928a52868a2090891b01906020600191805184550151910155565b6200059e565b90919293620001c0565b634e487b7160e01b885260328a52602488fd5b634e487b7160e01b885260418a52602488fd5b620001c6565b868251821015620003965750620003238183620005c1565b516002805490878210156200038357898201808255821015620003705762000368928a959492620002cf928b52888b2090871b01906020600191805184550151910155565b9091620001b4565b634e487b7160e01b895260328b52602489fd5b634e487b7160e01b895260418b52602489fd5b50620001ba565b87845194019381840155018990620001a4565b8888528883878a2092830192015b828110620003ce5750506200019a565b898155018990620003be565b634e487b7160e01b875260418952602487fd5b634e487b7160e01b865260418852602486fd5b50508c5162461bcd60e51b8152808d0189905260076024820152660dad2dc7cdac2f60cb1b6044820152606490fd5b50508c5162461bcd60e51b8152808d0189905260076024820152660746f6b656e20360cc1b6044820152606490fd5b8f8f8c606492519162461bcd60e51b8352820152600a602482015269070726f746f636f6c20360b41b6044820152fd5b5f80fd5b8251815291810191899101620000bc565b6040519190601f01601f191682016001600160401b03811183821017620004c957604052565b634e487b7160e01b5f52604160045260245ffd5b51906001600160a01b03821682036200048e57565b6001600160401b038111620004c95760051b60200190565b9092916200051c6200009785620004f2565b938085526020918286019160061b8401938185116200048e57915b84831062000546575050505050565b604080848403126200048e57805180820192906001600160401b038411818510176200058a5760409387935285518152828601518382015281520192019162000537565b60245f634e487b7160e01b81526041600452fd5b5f198114620005ad5760010190565b634e487b7160e01b5f52601160045260245ffd5b8051821015620005d65760209160051b010190565b634e487b7160e01b5f52603260045260245ffdfe6080604081815260049081361015610015575f80fd5b5f91823560e01c938463017f6fae146111f25750836302fb0c5e146111d0578363094b81d31461119657836310390d351461116d57836318976fa2146110c457836322f3e2d41461108b57836341b3d185146110515783635350cbd914611028578363597e1fb5146110035783635be7fde814610d245783636083e59a14610cea578363639487f414610b155783636a5908a014610ace5783636b53503a14610a535783636c4470fb1461098e578363703bafd51461014d5783637b0472f0146105ff57836386d1a69f1461031c5783638ce74426146102d957836399fbab881461026c578363a0660dfa1461022f578363ac55deb6146101da578363b9b792cd146101bc578363c122c2a11461019e578363cba024761461017357508263d6887bfa1461015257505063fc0c546a1461014d575f80fd5b611314565b3461016f578160031936011261016f576020906005549051908152f35b5080fd5b913461019b57602036600319011261019b5750610192602092356113b2565b90519015158152f35b80fd5b503461016f578160031936011261016f576020906002549051908152f35b503461016f578160031936011261016f576020906003549051908152f35b503461016f578060031936011261016f576101f36112fa565b6001600160a01b0316825260076020528082208054602435939084101561019b575060209261022191611275565b91905490519160031b1c8152f35b82903461016f57602036600319011261016f57359060035482101561019b5750610258906112c2565b506001815491015482519182526020820152f35b90346102d55760203660031901126102d55781359260055484101561019b575061029760a093611358565b50600180851b038154169260018201549260ff6002840154926003850154940154169381519586526020860152840152606083015215156080820152f35b8280fd5b503461016f578160031936011261016f57517f00000000000000000000000000000000000000000000000000000000000000006001600160a01b03168152602090f35b92503461016f578160031936011261016f576103366114cf565b338252602090600682528083209280925b84548410156105f75761035a8486611275565b9054600391821b1c61036b81611358565b5082810154431080158a830180549260ff908185161591826105cb575b5050156105b5579086916001809460ff19161790555f1461054257508101546127107f0000000000000000000000000000000000000000000000000000000000000000810381811161052f57888361041387969461040b7f7b381718bec1e0dbc1241809ee9b55f3d783b95880307f002707fad981fa5069956104739a98611588565b04809261149d565b93846104d6575b80546001600160a01b03919061045690849084167f000000000000000000000000000000000000000000000000000000000000000085166115d8565b541693825191825289820152a35b338552600784528585206114aa565b85545f1981019081116104c3579061048e6104b59288611275565b9054911b1c61049d8688611275565b90919082549060031b91821b915f19901b1916179055565b6104be8561159b565b610347565b634e487b7160e01b845260118852602484fd5b61052a857f00000000000000000000000000000000000000000000000000000000000000007f00000000000000000000000000000000000000000000000000000000000000006001600160a01b03166115d8565b61041a565b634e487b7160e01b885260118c52602488fd5b917fbaea19541010bad0070d3e9eba7d614e4f22a90d557eb4b70272d33a32793a07849361047395938301549260018060a01b03906105a78583835416847f0000000000000000000000000000000000000000000000000000000000000000166115d8565b5416928a51908152a3610464565b505050505050926105c590611390565b92610347565b849250906105dc575b505f80610388565b90508c5460081c16806105f0575b5f6105d4565b50876105ea565b506001815580f35b90346102d557806003193601126102d5578135906024928335906106216114cf565b610637815460ff8116908161097f575b506113ff565b7f000000000000000000000000000000000000000000000000000000000000000084101580610955575b1561091c5781156108ef57610675826113b2565b156108b85782516323b872dd60e01b60208201523386820152306044820152606480820186905281526106a78161144b565b6001600160a01b03906106dc907f00000000000000000000000000000000000000000000000000000000000000008316611523565b6106e6834361143e565b958451926106f38461144b565b338452602084019387855286810198438a526060820190815260808201998b8b5260055495600160401b96878110156108a6578060016107369201600555611358565b9490946108955751845491166001600160a01b0319918216178455965160018401555160028301555160038201559751978101805460ff1990811699151560ff169990991790556005545f1981019890891161088357338a5260066020526107a089888c206114aa565b338a526009602052868a2090815460ff811615610802575b8b8b8b8b6107c68c4361143e565b9080519283524360208401528201527f9cfd25589d1eb8ad71e342a86a8524e83522e3936c0803048c08f6d9ad974f4060603392a36001815580f35b16600117905560085492831015610872576001830180600855831015610861575050600887527ff3f7a9fe364faab93b216da50a3214154f22a0a2b415b23a84c8169e8b636ee3018054909116331790556107c68680808080806107b8565b634e487b7160e01b89526032905287fd5b634e487b7160e01b89526041905287fd5b50634e487b7160e01b89526011905287fd5b634e487b7160e01b8e528d8652868efd5b634e487b7160e01b8e5260418652868efd5b606490601286602086519362461bcd60e51b8552840152820152711c1c995cd95d081b9bdd08185b1b1bddd95960721b6044820152fd5b606490600886602086519362461bcd60e51b8552840152820152670626c6f636b733e360c41b6044820152fd5b606490601486602086519362461bcd60e51b855284015282015273616d6f756e74206f7574206f6620626f756e647360601b6044820152fd5b507f0000000000000000000000000000000000000000000000000000000000000000841115610661565b60ff915060081c161588610631565b50903461019b578060031936011261019b579080519182906008549182855260208095018093600884527ff3f7a9fe364faab93b216da50a3214154f22a0a2b415b23a84c8169e8b636ee390845b818110610a3657505050816109f291038261147b565b83519485948186019282875251809352850193925b828110610a1657505050500390f35b83516001600160a01b031685528695509381019392810192600101610a07565b82546001600160a01b0316845292880192600192830192016109dc565b503461016f57608036600319011261016f57610a6d6112fa565b6064358015158103610aca57610a8a916044359060243590611795565b815192839260208080860192818752855180945286019401925b828110610ab357505050500390f35b835185528695509381019392810192600101610aa4565b8380fd5b503461016f578060031936011261016f57610ae76112fa565b6001600160a01b0316825260066020528082208054602435939084101561019b575060209261022191611275565b503461016f576020806003193601126102d557610b306112fa565b839060018060a01b03169283855260068352808520938151808686829854938481520190895286892092895b88828210610cd457505050610b739250038661147b565b855260078352808520938151808686829854938481520190895286892092895b88828210610cbe57505050610baa9250038661147b565b85925b8151841015610c4857610bd2610bcc610bc68685611628565b51611358565b5061163c565b606081018681514381115f14610c435750435b8684019081519081811115610c335792610c19610c279693610c0f610c2d999794610c219761149d565b935190519061149d565b920151611686565b9061143e565b93611390565b92610bad565b50505050505092610c2d90611390565b610be5565b9250509193905b8351821015610cb55784610c69610bcc610bc68588611628565b6060810151858201519081811115610ca75792610ca19492610c91610c2193610c9b9661149d565b9182910151611686565b91611390565b90610c4f565b5050505090610ca190611390565b92505051908152f35b855484526001958601958b955093019201610b93565b855484526001958601958b955093019201610b5c565b503461016f578160031936011261016f57602090517f00000000000000000000000000000000000000000000000000000000000000008152f35b913461019b578060031936011261019b57610d3d6114cf565b825490610d5860ff92838082169182610ff5575b50506113ff565b7f0000000000000000000000000000000000000000000000000000000000000000926019840193848111610fe257825b600554811015610fda57610d9b81611358565b50878101908154918783161580610fcc575b610dc3575b505050610dbe90611390565b610d88565b906006916001809460ff1916179055828101546127109182610de58c84611588565b0492610dfb88610df5868661149d565b94611588565b04610e06818561149d565b9080610f72575b5080610f38575b50878660018060a01b0393610e4f8186865416877f0000000000000000000000000000000000000000000000000000000000000000166115d8565b7f7b381718bec1e0dbc1241809ee9b55f3d783b95880307f002707fad981fa506985855416938492815190815260209889820152a3895260078352610e9686898b206114aa565b541687525283852085825b15610db257815480821015610f32578490610ebc8385611275565b929054600393841b1c14610edc575050610ed68391611390565b90610ea1565b92935090915f198101908111610f1f57610f179261049d8593610f06610f1294610dbe9998611275565b9054911b1c9184611275565b61159b565b908880610db2565b634e487b7160e01b885260118b52602488fd5b50610db2565b610f6c90337f00000000000000000000000000000000000000000000000000000000000000006001600160a01b03166115d8565b8c610e14565b610fc6907f00000000000000000000000000000000000000000000000000000000000000007f00000000000000000000000000000000000000000000000000000000000000006001600160a01b03166115d8565b8d610e0d565b506003820154431015610dad565b836001815580f35b634e487b7160e01b835260118652602483fd5b60081c161590508387610d51565b913461019b578060031936011261019b575060ff6020925460081c1690519015158152f35b82903461016f57602036600319011261016f57359060025482101561019b57506102589061128a565b503461016f578160031936011261016f57602090517f00000000000000000000000000000000000000000000000000000000000000008152f35b346102d557826003193601126102d55760209250549060ff821691826110b5575b50519015158152f35b60081c60ff16159150836110ac565b90346102d557826003193601126102d5577f00000000000000000000000000000000000000000000000000000000000000006001600160a01b0316330361113a5750805461ffff19166101001790557fdf23397ab444d891935a0b305b1552fb235d2bd07043ffc42c6ed3f43a4d83528180a180f35b906020606492519162461bcd60e51b8352820152600d60248201526c1bdb9b1e481c1c9bdd1bd8dbdb609a1b6044820152fd5b346102d55760203660031901126102d557359160015483101561019b575061022160209261122c565b503461016f578160031936011261016f57602090517f00000000000000000000000000000000000000000000000000000000000000008152f35b913461019b578060031936011261019b575060ff602092541690519015158152f35b83903461016f578160031936011261016f576020907f00000000000000000000000000000000000000000000000000000000000000008152f35b6001548110156112615760015f527fb10e2d527612073b26eecdfd717e6a320cf44b4afac2b0732d9fcbe2b7fa0cf601905f90565b634e487b7160e01b5f52603260045260245ffd5b8054821015611261575f5260205f2001905f90565b6002548110156112615760025f5260011b7f405787fa12a823e0f2b7631cc41b3ba8828b3321ca811111fa75cd3aa3bb5ace01905f90565b6003548110156112615760035f5260011b7fc2575a0e9e593c00f959f8c92f12db2869c3395a3b0502d05e2516446f71f85b01905f90565b600435906001600160a01b038216820361131057565b5f80fd5b34611310575f366003190112611310576040517f00000000000000000000000000000000000000000000000000000000000000006001600160a01b03168152602090f35b60055481101561126157600590815f52027f036b6384b5eca791c62761152d0c79bb0604c104a5fb6f4eb0703f3154bb3db001905f90565b5f19811461139e5760010190565b634e487b7160e01b5f52601160045260245ffd5b600180549182156113f9575f5b8381106113ce57505050505f90565b816113d88261122c565b90549060031b1c146113f2576113ed90611390565b6113bf565b5050905090565b50905090565b1561140657565b60405162461bcd60e51b815260206004820152601060248201526f7661756c74206e6f742061637469766560801b6044820152606490fd5b9190820180921161139e57565b60a0810190811067ffffffffffffffff82111761146757604052565b634e487b7160e01b5f52604160045260245ffd5b90601f8019910116810190811067ffffffffffffffff82111761146757604052565b9190820391821161139e57565b90815491600160401b831015611467578261049d9160016114cd95018155611275565b565b60025f54146114de5760025f55565b60405162461bcd60e51b815260206004820152601f60248201527f5265656e7472616e637947756172643a207265656e7472616e742063616c6c006044820152606490fd5b905f602091828151910182855af11561157d575f513d61157457506001600160a01b0381163b155b6115525750565b604051635274afe760e01b81526001600160a01b039091166004820152602490fd5b6001141561154b565b6040513d5f823e3d90fd5b8181029291811591840414171561139e57565b80549081156115c4575f19918201916115b48383611275565b909182549160031b1b1916905555565b634e487b7160e01b5f52603160045260245ffd5b60405163a9059cbb60e01b60208201526001600160a01b039092166024830152604480830193909352918152608081019167ffffffffffffffff831182841017611467576114cd92604052611523565b80518210156112615760209160051b010190565b906040516116498161144b565b82546001600160a01b0316815260018301546020820152600283015460408201526003830154606082015260049092015460ff1615156080830152565b91906116956116bc9184611588565b7f000000000000000000000000000000000000000000000000000000000000000090611588565b90612710905f600254915b82821061173c575b505050612710905f600354945b858210611705575b505061271093506116fa61170193928592611588565b0490611588565b0490565b9092611710846112c2565b5054821061173657506117306001611727856112c2565b50015493611390565b906116dc565b926116e4565b909194939261174a8361128a565b50548210611775575061176a60016117618461128a565b50015492611390565b9094919293946116c7565b9293946116cf565b67ffffffffffffffff81116114675760051b60200190565b9093925f901561186457506001600160a01b03165f908152600660205260409020925b8354918282101561185b576117cd908261143e565b91808311611853575b506117e1818361149d565b6117ea8161177d565b906117f8604051928361147b565b808252611807601f199161177d565b013660208301378094825b848110611820575050505050565b8061182e61184e9284611275565b90549060031b1c611848611842878461149d565b86611628565b52611390565b611812565b91505f6117d6565b50606093505050565b6001600160a01b039091168152600760205260409020926117b856fea26469706673582212201552fbd55976fbcf0ae82bfbcbd87565f6ed88549af4cefcbefc0de9450ff89f64736f6c63430008140033",
					"opcodes": "PUSH1 0x40 PUSH2 0x140 DUP2 MSTORE CALLVALUE PUSH3 0x48E JUMPI PUSH3 0x1EA1 SWAP1 DUP2 CODESIZE SUB DUP1 PUSH3 0x20 DUP2 PUSH3 0x4A3 JUMP JUMPDEST SWAP4 DUP5 CODECOPY DUP3 ADD SWAP1 PUSH2 0x100 SWAP3 DUP4 DUP2 DUP5 SUB SLT PUSH3 0x48E JUMPI PUSH3 0x3F DUP2 PUSH3 0x4DD JUMP JUMPDEST SWAP1 PUSH1 0x20 SWAP1 PUSH3 0x50 DUP3 DUP3 ADD PUSH3 0x4DD JUMP JUMPDEST SWAP1 DUP5 DUP2 ADD MLOAD SWAP3 PUSH1 0x60 DUP3 ADD MLOAD PUSH1 0x80 DUP4 ADD MLOAD SWAP3 PUSH1 0xA0 DUP2 ADD MLOAD PUSH1 0x1 DUP1 PUSH1 0x40 SHL SUB SWAP1 DUP2 DUP2 GT PUSH3 0x48E JUMPI DUP3 ADD DUP11 PUSH1 0x1F DUP3 ADD SLT ISZERO PUSH3 0x48E JUMPI DUP1 MLOAD SWAP6 DUP12 PUSH3 0x9D PUSH3 0x97 DUP10 PUSH3 0x4F2 JUMP JUMPDEST PUSH3 0x4A3 JUMP JUMPDEST SWAP3 DUP8 DUP5 DUP11 DUP2 MSTORE ADD SWAP1 DUP9 DUP3 SWAP11 PUSH1 0x5 SHL DUP3 ADD ADD SWAP3 DUP4 GT PUSH3 0x48E JUMPI DUP9 DUP1 SWAP2 ADD SWAP2 JUMPDEST DUP4 DUP4 LT PUSH3 0x492 JUMPI POP POP POP POP PUSH1 0xC0 DUP5 ADD MLOAD DUP4 DUP2 GT PUSH3 0x48E JUMPI DUP5 ADD DUP13 PUSH1 0x1F DUP3 ADD SLT ISZERO PUSH3 0x48E JUMPI DUP13 DUP2 DUP9 PUSH3 0xF4 SWAP4 MLOAD SWAP2 ADD PUSH3 0x50A JUMP JUMPDEST SWAP4 PUSH1 0xE0 DUP2 ADD MLOAD SWAP1 DUP5 DUP3 GT PUSH3 0x48E JUMPI ADD DUP13 PUSH1 0x1F DUP3 ADD SLT ISZERO PUSH3 0x48E JUMPI PUSH2 0x1F4 SWAP13 DUP2 DUP9 PUSH3 0x124 SWAP4 MLOAD SWAP2 ADD PUSH3 0x50A JUMP JUMPDEST SWAP5 PUSH1 0x1 SWAP10 PUSH0 SWAP10 DUP12 DUP12 SSTORE PUSH2 0x120 SWAP15 DUP16 MSTORE PUSH1 0x4 SWAP13 DUP14 DUP14 PUSH2 0xFFFF NOT DUP3 SLOAD AND OR SWAP1 SSTORE PUSH1 0x1 DUP1 PUSH1 0xA0 SHL SUB DUP1 DUP3 AND ISZERO PUSH3 0x45E JUMPI DUP3 AND ISZERO PUSH3 0x42F JUMPI DUP4 DUP4 GT PUSH3 0x400 JUMPI PUSH1 0x80 MSTORE PUSH1 0xA0 MSTORE PUSH1 0xC0 MSTORE PUSH1 0xE0 MSTORE DUP13 MSTORE MLOAD SWAP1 DUP2 GT PUSH3 0x3ED JUMPI PUSH9 0x10000000000000000 SWAP5 DUP6 DUP3 GT PUSH3 0x3DA JUMPI DUP8 SLOAD DUP3 DUP10 SSTORE DUP1 DUP4 LT PUSH3 0x3B0 JUMPI JUMPDEST POP DUP8 DUP8 MSTORE DUP5 DUP8 KECCAK256 DUP9 DUP9 JUMPDEST DUP5 DUP2 LT PUSH3 0x39D JUMPI POP SWAP3 POP POP POP DUP6 SWAP1 JUMPDEST PUSH3 0x30B JUMPI JUMPDEST POP POP DUP5 DUP5 SWAP1 JUMPDEST PUSH3 0x272 JUMPI JUMPDEST DUP8 MLOAD PUSH2 0x18B6 SWAP1 DUP11 DUP13 DUP4 PUSH3 0x5EB DUP5 CODECOPY PUSH1 0x80 MLOAD DUP4 DUP2 DUP2 PUSH2 0x2ED ADD MSTORE DUP2 DUP2 PUSH2 0x4DC ADD MSTORE DUP2 DUP2 PUSH2 0xF78 ADD MSTORE PUSH2 0x10D7 ADD MSTORE PUSH1 0xA0 MLOAD DUP4 DUP2 DUP2 PUSH2 0x430 ADD MSTORE DUP2 DUP2 PUSH2 0x4FD ADD MSTORE DUP2 DUP2 PUSH2 0x582 ADD MSTORE DUP2 DUP2 PUSH2 0x6B6 ADD MSTORE DUP2 DUP2 PUSH2 0xE2A ADD MSTORE DUP2 DUP2 PUSH2 0xF3F ADD MSTORE DUP2 DUP2 PUSH2 0xF99 ADD MSTORE PUSH2 0x1329 ADD MSTORE PUSH1 0xC0 MLOAD DUP4 DUP2 DUP2 PUSH2 0x639 ADD MSTORE PUSH2 0x1068 ADD MSTORE PUSH1 0xE0 MLOAD DUP4 DUP2 DUP2 PUSH2 0x958 ADD MSTORE PUSH2 0xD01 ADD MSTORE MLOAD DUP3 DUP2 DUP2 PUSH2 0x11AD ADD MSTORE PUSH2 0x1697 ADD MSTORE MLOAD DUP2 DUP2 DUP2 PUSH2 0x3AC ADD MSTORE DUP2 DUP2 PUSH2 0xD5A ADD MSTORE PUSH2 0x1209 ADD MSTORE RETURN JUMPDEST DUP2 MLOAD DUP2 LT ISZERO PUSH3 0x305 JUMPI PUSH3 0x288 DUP2 DUP4 PUSH3 0x5C1 JUMP JUMPDEST MLOAD PUSH1 0x3 DUP1 SLOAD SWAP1 DUP7 DUP3 LT ISZERO PUSH3 0x2F2 JUMPI DUP9 DUP3 ADD DUP1 DUP3 SSTORE DUP3 LT ISZERO PUSH3 0x2DF JUMPI PUSH3 0x2D5 SWAP3 DUP10 SWAP8 SWAP7 SWAP6 SWAP5 SWAP3 PUSH3 0x2CF SWAP3 DUP11 MSTORE DUP7 DUP11 KECCAK256 SWAP1 DUP10 SHL ADD SWAP1 PUSH1 0x20 PUSH1 0x1 SWAP2 DUP1 MLOAD DUP5 SSTORE ADD MLOAD SWAP2 ADD SSTORE JUMP JUMPDEST PUSH3 0x59E JUMP JUMPDEST SWAP1 SWAP2 SWAP3 SWAP4 PUSH3 0x1C0 JUMP JUMPDEST PUSH4 0x4E487B71 PUSH1 0xE0 SHL DUP9 MSTORE PUSH1 0x32 DUP11 MSTORE PUSH1 0x24 DUP9 REVERT JUMPDEST PUSH4 0x4E487B71 PUSH1 0xE0 SHL DUP9 MSTORE PUSH1 0x41 DUP11 MSTORE PUSH1 0x24 DUP9 REVERT JUMPDEST PUSH3 0x1C6 JUMP JUMPDEST DUP7 DUP3 MLOAD DUP3 LT ISZERO PUSH3 0x396 JUMPI POP PUSH3 0x323 DUP2 DUP4 PUSH3 0x5C1 JUMP JUMPDEST MLOAD PUSH1 0x2 DUP1 SLOAD SWAP1 DUP8 DUP3 LT ISZERO PUSH3 0x383 JUMPI DUP10 DUP3 ADD DUP1 DUP3 SSTORE DUP3 LT ISZERO PUSH3 0x370 JUMPI PUSH3 0x368 SWAP3 DUP11 SWAP6 SWAP5 SWAP3 PUSH3 0x2CF SWAP3 DUP12 MSTORE DUP9 DUP12 KECCAK256 SWAP1 DUP8 SHL ADD SWAP1 PUSH1 0x20 PUSH1 0x1 SWAP2 DUP1 MLOAD DUP5 SSTORE ADD MLOAD SWAP2 ADD SSTORE JUMP JUMPDEST SWAP1 SWAP2 PUSH3 0x1B4 JUMP JUMPDEST PUSH4 0x4E487B71 PUSH1 0xE0 SHL DUP10 MSTORE PUSH1 0x32 DUP12 MSTORE PUSH1 0x24 DUP10 REVERT JUMPDEST PUSH4 0x4E487B71 PUSH1 0xE0 SHL DUP10 MSTORE PUSH1 0x41 DUP12 MSTORE PUSH1 0x24 DUP10 REVERT JUMPDEST POP PUSH3 0x1BA JUMP JUMPDEST DUP8 DUP5 MLOAD SWAP5 ADD SWAP4 DUP2 DUP5 ADD SSTORE ADD DUP10 SWAP1 PUSH3 0x1A4 JUMP JUMPDEST DUP9 DUP9 MSTORE DUP9 DUP4 DUP8 DUP11 KECCAK256 SWAP3 DUP4 ADD SWAP3 ADD JUMPDEST DUP3 DUP2 LT PUSH3 0x3CE JUMPI POP POP PUSH3 0x19A JUMP JUMPDEST DUP10 DUP2 SSTORE ADD DUP10 SWAP1 PUSH3 0x3BE JUMP JUMPDEST PUSH4 0x4E487B71 PUSH1 0xE0 SHL DUP8 MSTORE PUSH1 0x41 DUP10 MSTORE PUSH1 0x24 DUP8 REVERT JUMPDEST PUSH4 0x4E487B71 PUSH1 0xE0 SHL DUP7 MSTORE PUSH1 0x41 DUP9 MSTORE PUSH1 0x24 DUP7 REVERT JUMPDEST POP POP DUP13 MLOAD PUSH3 0x461BCD PUSH1 0xE5 SHL DUP2 MSTORE DUP1 DUP14 ADD DUP10 SWAP1 MSTORE PUSH1 0x7 PUSH1 0x24 DUP3 ADD MSTORE PUSH7 0xDAD2DC7CDAC2F PUSH1 0xCB SHL PUSH1 0x44 DUP3 ADD MSTORE PUSH1 0x64 SWAP1 REVERT JUMPDEST POP POP DUP13 MLOAD PUSH3 0x461BCD PUSH1 0xE5 SHL DUP2 MSTORE DUP1 DUP14 ADD DUP10 SWAP1 MSTORE PUSH1 0x7 PUSH1 0x24 DUP3 ADD MSTORE PUSH7 0x746F6B656E203 PUSH1 0xCC SHL PUSH1 0x44 DUP3 ADD MSTORE PUSH1 0x64 SWAP1 REVERT JUMPDEST DUP16 DUP16 DUP13 PUSH1 0x64 SWAP3 MLOAD SWAP2 PUSH3 0x461BCD PUSH1 0xE5 SHL DUP4 MSTORE DUP3 ADD MSTORE PUSH1 0xA PUSH1 0x24 DUP3 ADD MSTORE PUSH10 0x70726F746F636F6C203 PUSH1 0xB4 SHL PUSH1 0x44 DUP3 ADD MSTORE REVERT JUMPDEST PUSH0 DUP1 REVERT JUMPDEST DUP3 MLOAD DUP2 MSTORE SWAP2 DUP2 ADD SWAP2 DUP10 SWAP2 ADD PUSH3 0xBC JUMP JUMPDEST PUSH1 0x40 MLOAD SWAP2 SWAP1 PUSH1 0x1F ADD PUSH1 0x1F NOT AND DUP3 ADD PUSH1 0x1 PUSH1 0x1 PUSH1 0x40 SHL SUB DUP2 GT DUP4 DUP3 LT OR PUSH3 0x4C9 JUMPI PUSH1 0x40 MSTORE JUMP JUMPDEST PUSH4 0x4E487B71 PUSH1 0xE0 SHL PUSH0 MSTORE PUSH1 0x41 PUSH1 0x4 MSTORE PUSH1 0x24 PUSH0 REVERT JUMPDEST MLOAD SWAP1 PUSH1 0x1 PUSH1 0x1 PUSH1 0xA0 SHL SUB DUP3 AND DUP3 SUB PUSH3 0x48E JUMPI JUMP JUMPDEST PUSH1 0x1 PUSH1 0x1 PUSH1 0x40 SHL SUB DUP2 GT PUSH3 0x4C9 JUMPI PUSH1 0x5 SHL PUSH1 0x20 ADD SWAP1 JUMP JUMPDEST SWAP1 SWAP3 SWAP2 PUSH3 0x51C PUSH3 0x97 DUP6 PUSH3 0x4F2 JUMP JUMPDEST SWAP4 DUP1 DUP6 MSTORE PUSH1 0x20 SWAP2 DUP3 DUP7 ADD SWAP2 PUSH1 0x6 SHL DUP5 ADD SWAP4 DUP2 DUP6 GT PUSH3 0x48E JUMPI SWAP2 JUMPDEST DUP5 DUP4 LT PUSH3 0x546 JUMPI POP POP POP POP POP JUMP JUMPDEST PUSH1 0x40 DUP1 DUP5 DUP5 SUB SLT PUSH3 0x48E JUMPI DUP1 MLOAD DUP1 DUP3 ADD SWAP3 SWAP1 PUSH1 0x1 PUSH1 0x1 PUSH1 0x40 SHL SUB DUP5 GT DUP2 DUP6 LT OR PUSH3 0x58A JUMPI PUSH1 0x40 SWAP4 DUP8 SWAP4 MSTORE DUP6 MLOAD DUP2 MSTORE DUP3 DUP7 ADD MLOAD DUP4 DUP3 ADD MSTORE DUP2 MSTORE ADD SWAP3 ADD SWAP2 PUSH3 0x537 JUMP JUMPDEST PUSH1 0x24 PUSH0 PUSH4 0x4E487B71 PUSH1 0xE0 SHL DUP2 MSTORE PUSH1 0x41 PUSH1 0x4 MSTORE REVERT JUMPDEST PUSH0 NOT DUP2 EQ PUSH3 0x5AD JUMPI PUSH1 0x1 ADD SWAP1 JUMP JUMPDEST PUSH4 0x4E487B71 PUSH1 0xE0 SHL PUSH0 MSTORE PUSH1 0x11 PUSH1 0x4 MSTORE PUSH1 0x24 PUSH0 REVERT JUMPDEST DUP1 MLOAD DUP3 LT ISZERO PUSH3 0x5D6 JUMPI PUSH1 0x20 SWAP2 PUSH1 0x5 SHL ADD ADD SWAP1 JUMP JUMPDEST PUSH4 0x4E487B71 PUSH1 0xE0 SHL PUSH0 MSTORE PUSH1 0x32 PUSH1 0x4 MSTORE PUSH1 0x24 PUSH0 REVERT INVALID PUSH1 0x80 PUSH1 0x40 DUP2 DUP2 MSTORE PUSH1 0x4 SWAP1 DUP2 CALLDATASIZE LT ISZERO PUSH2 0x15 JUMPI PUSH0 DUP1 REVERT JUMPDEST PUSH0 SWAP2 DUP3 CALLDATALOAD PUSH1 0xE0 SHR SWAP4 DUP5 PUSH4 0x17F6FAE EQ PUSH2 0x11F2 JUMPI POP DUP4 PUSH4 0x2FB0C5E EQ PUSH2 0x11D0 JUMPI DUP4 PUSH4 0x94B81D3 EQ PUSH2 0x1196 JUMPI DUP4 PUSH4 0x10390D35 EQ PUSH2 0x116D JUMPI DUP4 PUSH4 0x18976FA2 EQ PUSH2 0x10C4 JUMPI DUP4 PUSH4 0x22F3E2D4 EQ PUSH2 0x108B JUMPI DUP4 PUSH4 0x41B3D185 EQ PUSH2 0x1051 JUMPI DUP4 PUSH4 0x5350CBD9 EQ PUSH2 0x1028 JUMPI DUP4 PUSH4 0x597E1FB5 EQ PUSH2 0x1003 JUMPI DUP4 PUSH4 0x5BE7FDE8 EQ PUSH2 0xD24 JUMPI DUP4 PUSH4 0x6083E59A EQ PUSH2 0xCEA JUMPI DUP4 PUSH4 0x639487F4 EQ PUSH2 0xB15 JUMPI DUP4 PUSH4 0x6A5908A0 EQ PUSH2 0xACE JUMPI DUP4 PUSH4 0x6B53503A EQ PUSH2 0xA53 JUMPI DUP4 PUSH4 0x6C4470FB EQ PUSH2 0x98E JUMPI DUP4 PUSH4 0x703BAFD5 EQ PUSH2 0x14D JUMPI DUP4 PUSH4 0x7B0472F0 EQ PUSH2 0x5FF JUMPI DUP4 PUSH4 0x86D1A69F EQ PUSH2 0x31C JUMPI DUP4 PUSH4 0x8CE74426 EQ PUSH2 0x2D9 JUMPI DUP4 PUSH4 0x99FBAB88 EQ PUSH2 0x26C JUMPI DUP4 PUSH4 0xA0660DFA EQ PUSH2 0x22F JUMPI DUP4 PUSH4 0xAC55DEB6 EQ PUSH2 0x1DA JUMPI DUP4 PUSH4 0xB9B792CD EQ PUSH2 0x1BC JUMPI DUP4 PUSH4 0xC122C2A1 EQ PUSH2 0x19E JUMPI DUP4 PUSH4 0xCBA02476 EQ PUSH2 0x173 JUMPI POP DUP3 PUSH4 0xD6887BFA EQ PUSH2 0x152 JUMPI POP POP PUSH4 0xFC0C546A EQ PUSH2 0x14D JUMPI PUSH0 DUP1 REVERT JUMPDEST PUSH2 0x1314 JUMP JUMPDEST CALLVALUE PUSH2 0x16F JUMPI DUP2 PUSH1 0x3 NOT CALLDATASIZE ADD SLT PUSH2 0x16F JUMPI PUSH1 0x20 SWAP1 PUSH1 0x5 SLOAD SWAP1 MLOAD SWAP1 DUP2 MSTORE RETURN JUMPDEST POP DUP1 REVERT JUMPDEST SWAP2 CALLVALUE PUSH2 0x19B JUMPI PUSH1 0x20 CALLDATASIZE PUSH1 0x3 NOT ADD SLT PUSH2 0x19B JUMPI POP PUSH2 0x192 PUSH1 0x20 SWAP3 CALLDATALOAD PUSH2 0x13B2 JUMP JUMPDEST SWAP1 MLOAD SWAP1 ISZERO ISZERO DUP2 MSTORE RETURN JUMPDEST DUP1 REVERT JUMPDEST POP CALLVALUE PUSH2 0x16F JUMPI DUP2 PUSH1 0x3 NOT CALLDATASIZE ADD SLT PUSH2 0x16F JUMPI PUSH1 0x20 SWAP1 PUSH1 0x2 SLOAD SWAP1 MLOAD SWAP1 DUP2 MSTORE RETURN JUMPDEST POP CALLVALUE PUSH2 0x16F JUMPI DUP2 PUSH1 0x3 NOT CALLDATASIZE ADD SLT PUSH2 0x16F JUMPI PUSH1 0x20 SWAP1 PUSH1 0x3 SLOAD SWAP1 MLOAD SWAP1 DUP2 MSTORE RETURN JUMPDEST POP CALLVALUE PUSH2 0x16F JUMPI DUP1 PUSH1 0x3 NOT CALLDATASIZE ADD SLT PUSH2 0x16F JUMPI PUSH2 0x1F3 PUSH2 0x12FA JUMP JUMPDEST PUSH1 0x1 PUSH1 0x1 PUSH1 0xA0 SHL SUB AND DUP3 MSTORE PUSH1 0x7 PUSH1 0x20 MSTORE DUP1 DUP3 KECCAK256 DUP1 SLOAD PUSH1 0x24 CALLDATALOAD SWAP4 SWAP1 DUP5 LT ISZERO PUSH2 0x19B JUMPI POP PUSH1 0x20 SWAP3 PUSH2 0x221 SWAP2 PUSH2 0x1275 JUMP JUMPDEST SWAP2 SWAP1 SLOAD SWAP1 MLOAD SWAP2 PUSH1 0x3 SHL SHR DUP2 MSTORE RETURN JUMPDEST DUP3 SWAP1 CALLVALUE PUSH2 0x16F JUMPI PUSH1 0x20 CALLDATASIZE PUSH1 0x3 NOT ADD SLT PUSH2 0x16F JUMPI CALLDATALOAD SWAP1 PUSH1 0x3 SLOAD DUP3 LT ISZERO PUSH2 0x19B JUMPI POP PUSH2 0x258 SWAP1 PUSH2 0x12C2 JUMP JUMPDEST POP PUSH1 0x1 DUP2 SLOAD SWAP2 ADD SLOAD DUP3 MLOAD SWAP2 DUP3 MSTORE PUSH1 0x20 DUP3 ADD MSTORE RETURN JUMPDEST SWAP1 CALLVALUE PUSH2 0x2D5 JUMPI PUSH1 0x20 CALLDATASIZE PUSH1 0x3 NOT ADD SLT PUSH2 0x2D5 JUMPI DUP2 CALLDATALOAD SWAP3 PUSH1 0x5 SLOAD DUP5 LT ISZERO PUSH2 0x19B JUMPI POP PUSH2 0x297 PUSH1 0xA0 SWAP4 PUSH2 0x1358 JUMP JUMPDEST POP PUSH1 0x1 DUP1 DUP6 SHL SUB DUP2 SLOAD AND SWAP3 PUSH1 0x1 DUP3 ADD SLOAD SWAP3 PUSH1 0xFF PUSH1 0x2 DUP5 ADD SLOAD SWAP3 PUSH1 0x3 DUP6 ADD SLOAD SWAP5 ADD SLOAD AND SWAP4 DUP2 MLOAD SWAP6 DUP7 MSTORE PUSH1 0x20 DUP7 ADD MSTORE DUP5 ADD MSTORE PUSH1 0x60 DUP4 ADD MSTORE ISZERO ISZERO PUSH1 0x80 DUP3 ADD MSTORE RETURN JUMPDEST DUP3 DUP1 REVERT JUMPDEST POP CALLVALUE PUSH2 0x16F JUMPI DUP2 PUSH1 0x3 NOT CALLDATASIZE ADD SLT PUSH2 0x16F JUMPI MLOAD PUSH32 0x0 PUSH1 0x1 PUSH1 0x1 PUSH1 0xA0 SHL SUB AND DUP2 MSTORE PUSH1 0x20 SWAP1 RETURN JUMPDEST SWAP3 POP CALLVALUE PUSH2 0x16F JUMPI DUP2 PUSH1 0x3 NOT CALLDATASIZE ADD SLT PUSH2 0x16F JUMPI PUSH2 0x336 PUSH2 0x14CF JUMP JUMPDEST CALLER DUP3 MSTORE PUSH1 0x20 SWAP1 PUSH1 0x6 DUP3 MSTORE DUP1 DUP4 KECCAK256 SWAP3 DUP1 SWAP3 JUMPDEST DUP5 SLOAD DUP5 LT ISZERO PUSH2 0x5F7 JUMPI PUSH2 0x35A DUP5 DUP7 PUSH2 0x1275 JUMP JUMPDEST SWAP1 SLOAD PUSH1 0x3 SWAP2 DUP3 SHL SHR PUSH2 0x36B DUP2 PUSH2 0x1358 JUMP JUMPDEST POP DUP3 DUP2 ADD SLOAD NUMBER LT DUP1 ISZERO DUP11 DUP4 ADD DUP1 SLOAD SWAP3 PUSH1 0xFF SWAP1 DUP2 DUP6 AND ISZERO SWAP2 DUP3 PUSH2 0x5CB JUMPI JUMPDEST POP POP ISZERO PUSH2 0x5B5 JUMPI SWAP1 DUP7 SWAP2 PUSH1 0x1 DUP1 SWAP5 PUSH1 0xFF NOT AND OR SWAP1 SSTORE PUSH0 EQ PUSH2 0x542 JUMPI POP DUP2 ADD SLOAD PUSH2 0x2710 PUSH32 0x0 DUP2 SUB DUP2 DUP2 GT PUSH2 0x52F JUMPI DUP9 DUP4 PUSH2 0x413 DUP8 SWAP7 SWAP5 PUSH2 0x40B PUSH32 0x7B381718BEC1E0DBC1241809EE9B55F3D783B95880307F002707FAD981FA5069 SWAP6 PUSH2 0x473 SWAP11 SWAP9 PUSH2 0x1588 JUMP JUMPDEST DIV DUP1 SWAP3 PUSH2 0x149D JUMP JUMPDEST SWAP4 DUP5 PUSH2 0x4D6 JUMPI JUMPDEST DUP1 SLOAD PUSH1 0x1 PUSH1 0x1 PUSH1 0xA0 SHL SUB SWAP2 SWAP1 PUSH2 0x456 SWAP1 DUP5 SWAP1 DUP5 AND PUSH32 0x0 DUP6 AND PUSH2 0x15D8 JUMP JUMPDEST SLOAD AND SWAP4 DUP3 MLOAD SWAP2 DUP3 MSTORE DUP10 DUP3 ADD MSTORE LOG3 JUMPDEST CALLER DUP6 MSTORE PUSH1 0x7 DUP5 MSTORE DUP6 DUP6 KECCAK256 PUSH2 0x14AA JUMP JUMPDEST DUP6 SLOAD PUSH0 NOT DUP2 ADD SWAP1 DUP2 GT PUSH2 0x4C3 JUMPI SWAP1 PUSH2 0x48E PUSH2 0x4B5 SWAP3 DUP9 PUSH2 0x1275 JUMP JUMPDEST SWAP1 SLOAD SWAP2 SHL SHR PUSH2 0x49D DUP7 DUP9 PUSH2 0x1275 JUMP JUMPDEST SWAP1 SWAP2 SWAP1 DUP3 SLOAD SWAP1 PUSH1 0x3 SHL SWAP2 DUP3 SHL SWAP2 PUSH0 NOT SWAP1 SHL NOT AND OR SWAP1 SSTORE JUMP JUMPDEST PUSH2 0x4BE DUP6 PUSH2 0x159B JUMP JUMPDEST PUSH2 0x347 JUMP JUMPDEST PUSH4 0x4E487B71 PUSH1 0xE0 SHL DUP5 MSTORE PUSH1 0x11 DUP9 MSTORE PUSH1 0x24 DUP5 REVERT JUMPDEST PUSH2 0x52A DUP6 PUSH32 0x0 PUSH32 0x0 PUSH1 0x1 PUSH1 0x1 PUSH1 0xA0 SHL SUB AND PUSH2 0x15D8 JUMP JUMPDEST PUSH2 0x41A JUMP JUMPDEST PUSH4 0x4E487B71 PUSH1 0xE0 SHL DUP9 MSTORE PUSH1 0x11 DUP13 MSTORE PUSH1 0x24 DUP9 REVERT JUMPDEST SWAP2 PUSH32 0xBAEA19541010BAD0070D3E9EBA7D614E4F22A90D557EB4B70272D33A32793A07 DUP5 SWAP4 PUSH2 0x473 SWAP6 SWAP4 DUP4 ADD SLOAD SWAP3 PUSH1 0x1 DUP1 PUSH1 0xA0 SHL SUB SWAP1 PUSH2 0x5A7 DUP6 DUP4 DUP4 SLOAD AND DUP5 PUSH32 0x0 AND PUSH2 0x15D8 JUMP JUMPDEST SLOAD AND SWAP3 DUP11 MLOAD SWAP1 DUP2 MSTORE LOG3 PUSH2 0x464 JUMP JUMPDEST POP POP POP POP POP POP SWAP3 PUSH2 0x5C5 SWAP1 PUSH2 0x1390 JUMP JUMPDEST SWAP3 PUSH2 0x347 JUMP JUMPDEST DUP5 SWAP3 POP SWAP1 PUSH2 0x5DC JUMPI JUMPDEST POP PUSH0 DUP1 PUSH2 0x388 JUMP JUMPDEST SWAP1 POP DUP13 SLOAD PUSH1 0x8 SHR AND DUP1 PUSH2 0x5F0 JUMPI JUMPDEST PUSH0 PUSH2 0x5D4 JUMP JUMPDEST POP DUP8 PUSH2 0x5EA JUMP JUMPDEST POP PUSH1 0x1 DUP2 SSTORE DUP1 RETURN JUMPDEST SWAP1 CALLVALUE PUSH2 0x2D5 JUMPI DUP1 PUSH1 0x3 NOT CALLDATASIZE ADD SLT PUSH2 0x2D5 JUMPI DUP2 CALLDATALOAD SWAP1 PUSH1 0x24 SWAP3 DUP4 CALLDATALOAD SWAP1 PUSH2 0x621 PUSH2 0x14CF JUMP JUMPDEST PUSH2 0x637 DUP2 SLOAD PUSH1 0xFF DUP2 AND SWAP1 DUP2 PUSH2 0x97F JUMPI JUMPDEST POP PUSH2 0x13FF JUMP JUMPDEST PUSH32 0x0 DUP5 LT ISZERO DUP1 PUSH2 0x955 JUMPI JUMPDEST ISZERO PUSH2 0x91C JUMPI DUP2 ISZERO PUSH2 0x8EF JUMPI PUSH2 0x675 DUP3 PUSH2 0x13B2 JUMP JUMPDEST ISZERO PUSH2 0x8B8 JUMPI DUP3 MLOAD PUSH4 0x23B872DD PUSH1 0xE0 SHL PUSH1 0x20 DUP3 ADD MSTORE CALLER DUP7 DUP3 ADD MSTORE ADDRESS PUSH1 0x44 DUP3 ADD MSTORE PUSH1 0x64 DUP1 DUP3 ADD DUP7 SWAP1 MSTORE DUP2 MSTORE PUSH2 0x6A7 DUP2 PUSH2 0x144B JUMP JUMPDEST PUSH1 0x1 PUSH1 0x1 PUSH1 0xA0 SHL SUB SWAP1 PUSH2 0x6DC SWAP1 PUSH32 0x0 DUP4 AND PUSH2 0x1523 JUMP JUMPDEST PUSH2 0x6E6 DUP4 NUMBER PUSH2 0x143E JUMP JUMPDEST SWAP6 DUP5 MLOAD SWAP3 PUSH2 0x6F3 DUP5 PUSH2 0x144B JUMP JUMPDEST CALLER DUP5 MSTORE PUSH1 0x20 DUP5 ADD SWAP4 DUP8 DUP6 MSTORE DUP7 DUP2 ADD SWAP9 NUMBER DUP11 MSTORE PUSH1 0x60 DUP3 ADD SWAP1 DUP2 MSTORE PUSH1 0x80 DUP3 ADD SWAP10 DUP12 DUP12 MSTORE PUSH1 0x5 SLOAD SWAP6 PUSH1 0x1 PUSH1 0x40 SHL SWAP7 DUP8 DUP2 LT ISZERO PUSH2 0x8A6 JUMPI DUP1 PUSH1 0x1 PUSH2 0x736 SWAP3 ADD PUSH1 0x5 SSTORE PUSH2 0x1358 JUMP JUMPDEST SWAP5 SWAP1 SWAP5 PUSH2 0x895 JUMPI MLOAD DUP5 SLOAD SWAP2 AND PUSH1 0x1 PUSH1 0x1 PUSH1 0xA0 SHL SUB NOT SWAP2 DUP3 AND OR DUP5 SSTORE SWAP7 MLOAD PUSH1 0x1 DUP5 ADD SSTORE MLOAD PUSH1 0x2 DUP4 ADD SSTORE MLOAD PUSH1 0x3 DUP3 ADD SSTORE SWAP8 MLOAD SWAP8 DUP2 ADD DUP1 SLOAD PUSH1 0xFF NOT SWAP1 DUP2 AND SWAP10 ISZERO ISZERO PUSH1 0xFF AND SWAP10 SWAP1 SWAP10 OR SWAP1 SSTORE PUSH1 0x5 SLOAD PUSH0 NOT DUP2 ADD SWAP9 SWAP1 DUP10 GT PUSH2 0x883 JUMPI CALLER DUP11 MSTORE PUSH1 0x6 PUSH1 0x20 MSTORE PUSH2 0x7A0 DUP10 DUP9 DUP13 KECCAK256 PUSH2 0x14AA JUMP JUMPDEST CALLER DUP11 MSTORE PUSH1 0x9 PUSH1 0x20 MSTORE DUP7 DUP11 KECCAK256 SWAP1 DUP2 SLOAD PUSH1 0xFF DUP2 AND ISZERO PUSH2 0x802 JUMPI JUMPDEST DUP12 DUP12 DUP12 DUP12 PUSH2 0x7C6 DUP13 NUMBER PUSH2 0x143E JUMP JUMPDEST SWAP1 DUP1 MLOAD SWAP3 DUP4 MSTORE NUMBER PUSH1 0x20 DUP5 ADD MSTORE DUP3 ADD MSTORE PUSH32 0x9CFD25589D1EB8AD71E342A86A8524E83522E3936C0803048C08F6D9AD974F40 PUSH1 0x60 CALLER SWAP3 LOG3 PUSH1 0x1 DUP2 SSTORE DUP1 RETURN JUMPDEST AND PUSH1 0x1 OR SWAP1 SSTORE PUSH1 0x8 SLOAD SWAP3 DUP4 LT ISZERO PUSH2 0x872 JUMPI PUSH1 0x1 DUP4 ADD DUP1 PUSH1 0x8 SSTORE DUP4 LT ISZERO PUSH2 0x861 JUMPI POP POP PUSH1 0x8 DUP8 MSTORE PUSH32 0xF3F7A9FE364FAAB93B216DA50A3214154F22A0A2B415B23A84C8169E8B636EE3 ADD DUP1 SLOAD SWAP1 SWAP2 AND CALLER OR SWAP1 SSTORE PUSH2 0x7C6 DUP7 DUP1 DUP1 DUP1 DUP1 DUP1 PUSH2 0x7B8 JUMP JUMPDEST PUSH4 0x4E487B71 PUSH1 0xE0 SHL DUP10 MSTORE PUSH1 0x32 SWAP1 MSTORE DUP8 REVERT JUMPDEST PUSH4 0x4E487B71 PUSH1 0xE0 SHL DUP10 MSTORE PUSH1 0x41 SWAP1 MSTORE DUP8 REVERT JUMPDEST POP PUSH4 0x4E487B71 PUSH1 0xE0 SHL DUP10 MSTORE PUSH1 0x11 SWAP1 MSTORE DUP8 REVERT JUMPDEST PUSH4 0x4E487B71 PUSH1 0xE0 SHL DUP15 MSTORE DUP14 DUP7 MSTORE DUP7 DUP15 REVERT JUMPDEST PUSH4 0x4E487B71 PUSH1 0xE0 SHL DUP15 MSTORE PUSH1 0x41 DUP7 MSTORE DUP7 DUP15 REVERT JUMPDEST PUSH1 0x64 SWAP1 PUSH1 0x12 DUP7 PUSH1 0x20 DUP7 MLOAD SWAP4 PUSH3 0x461BCD PUSH1 0xE5 SHL DUP6 MSTORE DUP5 ADD MSTORE DUP3 ADD MSTORE PUSH18 0x1C1C995CD95D081B9BDD08185B1B1BDDD959 PUSH1 0x72 SHL PUSH1 0x44 DUP3 ADD MSTORE REVERT JUMPDEST PUSH1 0x64 SWAP1 PUSH1 0x8 DUP7 PUSH1 0x20 DUP7 MLOAD SWAP4 PUSH3 0x461BCD PUSH1 0xE5 SHL DUP6 MSTORE DUP5 ADD MSTORE DUP3 ADD MSTORE PUSH8 0x626C6F636B733E3 PUSH1 0xC4 SHL PUSH1 0x44 DUP3 ADD MSTORE REVERT JUMPDEST PUSH1 0x64 SWAP1 PUSH1 0x14 DUP7 PUSH1 0x20 DUP7 MLOAD SWAP4 PUSH3 0x461BCD PUSH1 0xE5 SHL DUP6 MSTORE DUP5 ADD MSTORE DUP3 ADD MSTORE PUSH20 0x616D6F756E74206F7574206F6620626F756E6473 PUSH1 0x60 SHL PUSH1 0x44 DUP3 ADD MSTORE REVERT JUMPDEST POP PUSH32 0x0 DUP5 GT ISZERO PUSH2 0x661 JUMP JUMPDEST PUSH1 0xFF SWAP2 POP PUSH1 0x8 SHR AND ISZERO DUP9 PUSH2 0x631 JUMP JUMPDEST POP SWAP1 CALLVALUE PUSH2 0x19B JUMPI DUP1 PUSH1 0x3 NOT CALLDATASIZE ADD SLT PUSH2 0x19B JUMPI SWAP1 DUP1 MLOAD SWAP2 DUP3 SWAP1 PUSH1 0x8 SLOAD SWAP2 DUP3 DUP6 MSTORE PUSH1 0x20 DUP1 SWAP6 ADD DUP1 SWAP4 PUSH1 0x8 DUP5 MSTORE PUSH32 0xF3F7A9FE364FAAB93B216DA50A3214154F22A0A2B415B23A84C8169E8B636EE3 SWAP1 DUP5 JUMPDEST DUP2 DUP2 LT PUSH2 0xA36 JUMPI POP POP POP DUP2 PUSH2 0x9F2 SWAP2 SUB DUP3 PUSH2 0x147B JUMP JUMPDEST DUP4 MLOAD SWAP5 DUP6 SWAP5 DUP2 DUP7 ADD SWAP3 DUP3 DUP8 MSTORE MLOAD DUP1 SWAP4 MSTORE DUP6 ADD SWAP4 SWAP3 JUMPDEST DUP3 DUP2 LT PUSH2 0xA16 JUMPI POP POP POP POP SUB SWAP1 RETURN JUMPDEST DUP4 MLOAD PUSH1 0x1 PUSH1 0x1 PUSH1 0xA0 SHL SUB AND DUP6 MSTORE DUP7 SWAP6 POP SWAP4 DUP2 ADD SWAP4 SWAP3 DUP2 ADD SWAP3 PUSH1 0x1 ADD PUSH2 0xA07 JUMP JUMPDEST DUP3 SLOAD PUSH1 0x1 PUSH1 0x1 PUSH1 0xA0 SHL SUB AND DUP5 MSTORE SWAP3 DUP9 ADD SWAP3 PUSH1 0x1 SWAP3 DUP4 ADD SWAP3 ADD PUSH2 0x9DC JUMP JUMPDEST POP CALLVALUE PUSH2 0x16F JUMPI PUSH1 0x80 CALLDATASIZE PUSH1 0x3 NOT ADD SLT PUSH2 0x16F JUMPI PUSH2 0xA6D PUSH2 0x12FA JUMP JUMPDEST PUSH1 0x64 CALLDATALOAD DUP1 ISZERO ISZERO DUP2 SUB PUSH2 0xACA JUMPI PUSH2 0xA8A SWAP2 PUSH1 0x44 CALLDATALOAD SWAP1 PUSH1 0x24 CALLDATALOAD SWAP1 PUSH2 0x1795 JUMP JUMPDEST DUP2 MLOAD SWAP3 DUP4 SWAP3 PUSH1 0x20 DUP1 DUP1 DUP7 ADD SWAP3 DUP2 DUP8 MSTORE DUP6 MLOAD DUP1 SWAP5 MSTORE DUP7 ADD SWAP5 ADD SWAP3 JUMPDEST DUP3 DUP2 LT PUSH2 0xAB3 JUMPI POP POP POP POP SUB SWAP1 RETURN JUMPDEST DUP4 MLOAD DUP6 MSTORE DUP7 SWAP6 POP SWAP4 DUP2 ADD SWAP4 SWAP3 DUP2 ADD SWAP3 PUSH1 0x1 ADD PUSH2 0xAA4 JUMP JUMPDEST DUP4 DUP1 REVERT JUMPDEST POP CALLVALUE PUSH2 0x16F JUMPI DUP1 PUSH1 0x3 NOT CALLDATASIZE ADD SLT PUSH2 0x16F JUMPI PUSH2 0xAE7 PUSH2 0x12FA JUMP JUMPDEST PUSH1 0x1 PUSH1 0x1 PUSH1 0xA0 SHL SUB AND DUP3 MSTORE PUSH1 0x6 PUSH1 0x20 MSTORE DUP1 DUP3 KECCAK256 DUP1 SLOAD PUSH1 0x24 CALLDATALOAD SWAP4 SWAP1 DUP5 LT ISZERO PUSH2 0x19B JUMPI POP PUSH1 0x20 SWAP3 PUSH2 0x221 SWAP2 PUSH2 0x1275 JUMP JUMPDEST POP CALLVALUE PUSH2 0x16F JUMPI PUSH1 0x20 DUP1 PUSH1 0x3 NOT CALLDATASIZE ADD SLT PUSH2 0x2D5 JUMPI PUSH2 0xB30 PUSH2 0x12FA JUMP JUMPDEST DUP4 SWAP1 PUSH1 0x1 DUP1 PUSH1 0xA0 SHL SUB AND SWAP3 DUP4 DUP6 MSTORE PUSH1 0x6 DUP4 MSTORE DUP1 DUP6 KECCAK256 SWAP4 DUP2 MLOAD DUP1 DUP7 DUP7 DUP3 SWAP9 SLOAD SWAP4 DUP5 DUP2 MSTORE ADD SWAP1 DUP10 MSTORE DUP7 DUP10 KECCAK256 SWAP3 DUP10 JUMPDEST DUP9 DUP3 DUP3 LT PUSH2 0xCD4 JUMPI POP POP POP PUSH2 0xB73 SWAP3 POP SUB DUP7 PUSH2 0x147B JUMP JUMPDEST DUP6 MSTORE PUSH1 0x7 DUP4 MSTORE DUP1 DUP6 KECCAK256 SWAP4 DUP2 MLOAD DUP1 DUP7 DUP7 DUP3 SWAP9 SLOAD SWAP4 DUP5 DUP2 MSTORE ADD SWAP1 DUP10 MSTORE DUP7 DUP10 KECCAK256 SWAP3 DUP10 JUMPDEST DUP9 DUP3 DUP3 LT PUSH2 0xCBE JUMPI POP POP POP PUSH2 0xBAA SWAP3 POP SUB DUP7 PUSH2 0x147B JUMP JUMPDEST DUP6 SWAP3 JUMPDEST DUP2 MLOAD DUP5 LT ISZERO PUSH2 0xC48 JUMPI PUSH2 0xBD2 PUSH2 0xBCC PUSH2 0xBC6 DUP7 DUP6 PUSH2 0x1628 JUMP JUMPDEST MLOAD PUSH2 0x1358 JUMP JUMPDEST POP PUSH2 0x163C JUMP JUMPDEST PUSH1 0x60 DUP2 ADD DUP7 DUP2 MLOAD NUMBER DUP2 GT PUSH0 EQ PUSH2 0xC43 JUMPI POP NUMBER JUMPDEST DUP7 DUP5 ADD SWAP1 DUP2 MLOAD SWAP1 DUP2 DUP2 GT ISZERO PUSH2 0xC33 JUMPI SWAP3 PUSH2 0xC19 PUSH2 0xC27 SWAP7 SWAP4 PUSH2 0xC0F PUSH2 0xC2D SWAP10 SWAP8 SWAP5 PUSH2 0xC21 SWAP8 PUSH2 0x149D JUMP JUMPDEST SWAP4 MLOAD SWAP1 MLOAD SWAP1 PUSH2 0x149D JUMP JUMPDEST SWAP3 ADD MLOAD PUSH2 0x1686 JUMP JUMPDEST SWAP1 PUSH2 0x143E JUMP JUMPDEST SWAP4 PUSH2 0x1390 JUMP JUMPDEST SWAP3 PUSH2 0xBAD JUMP JUMPDEST POP POP POP POP POP POP SWAP3 PUSH2 0xC2D SWAP1 PUSH2 0x1390 JUMP JUMPDEST PUSH2 0xBE5 JUMP JUMPDEST SWAP3 POP POP SWAP2 SWAP4 SWAP1 JUMPDEST DUP4 MLOAD DUP3 LT ISZERO PUSH2 0xCB5 JUMPI DUP5 PUSH2 0xC69 PUSH2 0xBCC PUSH2 0xBC6 DUP6 DUP9 PUSH2 0x1628 JUMP JUMPDEST PUSH1 0x60 DUP2 ADD MLOAD DUP6 DUP3 ADD MLOAD SWAP1 DUP2 DUP2 GT ISZERO PUSH2 0xCA7 JUMPI SWAP3 PUSH2 0xCA1 SWAP5 SWAP3 PUSH2 0xC91 PUSH2 0xC21 SWAP4 PUSH2 0xC9B SWAP7 PUSH2 0x149D JUMP JUMPDEST SWAP2 DUP3 SWAP2 ADD MLOAD PUSH2 0x1686 JUMP JUMPDEST SWAP2 PUSH2 0x1390 JUMP JUMPDEST SWAP1 PUSH2 0xC4F JUMP JUMPDEST POP POP POP POP SWAP1 PUSH2 0xCA1 SWAP1 PUSH2 0x1390 JUMP JUMPDEST SWAP3 POP POP MLOAD SWAP1 DUP2 MSTORE RETURN JUMPDEST DUP6 SLOAD DUP5 MSTORE PUSH1 0x1 SWAP6 DUP7 ADD SWAP6 DUP12 SWAP6 POP SWAP4 ADD SWAP3 ADD PUSH2 0xB93 JUMP JUMPDEST DUP6 SLOAD DUP5 MSTORE PUSH1 0x1 SWAP6 DUP7 ADD SWAP6 DUP12 SWAP6 POP SWAP4 ADD SWAP3 ADD PUSH2 0xB5C JUMP JUMPDEST POP CALLVALUE PUSH2 0x16F JUMPI DUP2 PUSH1 0x3 NOT CALLDATASIZE ADD SLT PUSH2 0x16F JUMPI PUSH1 0x20 SWAP1 MLOAD PUSH32 0x0 DUP2 MSTORE RETURN JUMPDEST SWAP2 CALLVALUE PUSH2 0x19B JUMPI DUP1 PUSH1 0x3 NOT CALLDATASIZE ADD SLT PUSH2 0x19B JUMPI PUSH2 0xD3D PUSH2 0x14CF JUMP JUMPDEST DUP3 SLOAD SWAP1 PUSH2 0xD58 PUSH1 0xFF SWAP3 DUP4 DUP1 DUP3 AND SWAP2 DUP3 PUSH2 0xFF5 JUMPI JUMPDEST POP POP PUSH2 0x13FF JUMP JUMPDEST PUSH32 0x0 SWAP3 PUSH1 0x19 DUP5 ADD SWAP4 DUP5 DUP2 GT PUSH2 0xFE2 JUMPI DUP3 JUMPDEST PUSH1 0x5 SLOAD DUP2 LT ISZERO PUSH2 0xFDA JUMPI PUSH2 0xD9B DUP2 PUSH2 0x1358 JUMP JUMPDEST POP DUP8 DUP2 ADD SWAP1 DUP2 SLOAD SWAP2 DUP8 DUP4 AND ISZERO DUP1 PUSH2 0xFCC JUMPI JUMPDEST PUSH2 0xDC3 JUMPI JUMPDEST POP POP POP PUSH2 0xDBE SWAP1 PUSH2 0x1390 JUMP JUMPDEST PUSH2 0xD88 JUMP JUMPDEST SWAP1 PUSH1 0x6 SWAP2 PUSH1 0x1 DUP1 SWAP5 PUSH1 0xFF NOT AND OR SWAP1 SSTORE DUP3 DUP2 ADD SLOAD PUSH2 0x2710 SWAP2 DUP3 PUSH2 0xDE5 DUP13 DUP5 PUSH2 0x1588 JUMP JUMPDEST DIV SWAP3 PUSH2 0xDFB DUP9 PUSH2 0xDF5 DUP7 DUP7 PUSH2 0x149D JUMP JUMPDEST SWAP5 PUSH2 0x1588 JUMP JUMPDEST DIV PUSH2 0xE06 DUP2 DUP6 PUSH2 0x149D JUMP JUMPDEST SWAP1 DUP1 PUSH2 0xF72 JUMPI JUMPDEST POP DUP1 PUSH2 0xF38 JUMPI JUMPDEST POP DUP8 DUP7 PUSH1 0x1 DUP1 PUSH1 0xA0 SHL SUB SWAP4 PUSH2 0xE4F DUP2 DUP7 DUP7 SLOAD AND DUP8 PUSH32 0x0 AND PUSH2 0x15D8 JUMP JUMPDEST PUSH32 0x7B381718BEC1E0DBC1241809EE9B55F3D783B95880307F002707FAD981FA5069 DUP6 DUP6 SLOAD AND SWAP4 DUP5 SWAP3 DUP2 MLOAD SWAP1 DUP2 MSTORE PUSH1 0x20 SWAP9 DUP10 DUP3 ADD MSTORE LOG3 DUP10 MSTORE PUSH1 0x7 DUP4 MSTORE PUSH2 0xE96 DUP7 DUP10 DUP12 KECCAK256 PUSH2 0x14AA JUMP JUMPDEST SLOAD AND DUP8 MSTORE MSTORE DUP4 DUP6 KECCAK256 DUP6 DUP3 JUMPDEST ISZERO PUSH2 0xDB2 JUMPI DUP2 SLOAD DUP1 DUP3 LT ISZERO PUSH2 0xF32 JUMPI DUP5 SWAP1 PUSH2 0xEBC DUP4 DUP6 PUSH2 0x1275 JUMP JUMPDEST SWAP3 SWAP1 SLOAD PUSH1 0x3 SWAP4 DUP5 SHL SHR EQ PUSH2 0xEDC JUMPI POP POP PUSH2 0xED6 DUP4 SWAP2 PUSH2 0x1390 JUMP JUMPDEST SWAP1 PUSH2 0xEA1 JUMP JUMPDEST SWAP3 SWAP4 POP SWAP1 SWAP2 PUSH0 NOT DUP2 ADD SWAP1 DUP2 GT PUSH2 0xF1F JUMPI PUSH2 0xF17 SWAP3 PUSH2 0x49D DUP6 SWAP4 PUSH2 0xF06 PUSH2 0xF12 SWAP5 PUSH2 0xDBE SWAP10 SWAP9 PUSH2 0x1275 JUMP JUMPDEST SWAP1 SLOAD SWAP2 SHL SHR SWAP2 DUP5 PUSH2 0x1275 JUMP JUMPDEST PUSH2 0x159B JUMP JUMPDEST SWAP1 DUP9 DUP1 PUSH2 0xDB2 JUMP JUMPDEST PUSH4 0x4E487B71 PUSH1 0xE0 SHL DUP9 MSTORE PUSH1 0x11 DUP12 MSTORE PUSH1 0x24 DUP9 REVERT JUMPDEST POP PUSH2 0xDB2 JUMP JUMPDEST PUSH2 0xF6C SWAP1 CALLER PUSH32 0x0 PUSH1 0x1 PUSH1 0x1 PUSH1 0xA0 SHL SUB AND PUSH2 0x15D8 JUMP JUMPDEST DUP13 PUSH2 0xE14 JUMP JUMPDEST PUSH2 0xFC6 SWAP1 PUSH32 0x0 PUSH32 0x0 PUSH1 0x1 PUSH1 0x1 PUSH1 0xA0 SHL SUB AND PUSH2 0x15D8 JUMP JUMPDEST DUP14 PUSH2 0xE0D JUMP JUMPDEST POP PUSH1 0x3 DUP3 ADD SLOAD NUMBER LT ISZERO PUSH2 0xDAD JUMP JUMPDEST DUP4 PUSH1 0x1 DUP2 SSTORE DUP1 RETURN JUMPDEST PUSH4 0x4E487B71 PUSH1 0xE0 SHL DUP4 MSTORE PUSH1 0x11 DUP7 MSTORE PUSH1 0x24 DUP4 REVERT JUMPDEST PUSH1 0x8 SHR AND ISZERO SWAP1 POP DUP4 DUP8 PUSH2 0xD51 JUMP JUMPDEST SWAP2 CALLVALUE PUSH2 0x19B JUMPI DUP1 PUSH1 0x3 NOT CALLDATASIZE ADD SLT PUSH2 0x19B JUMPI POP PUSH1 0xFF PUSH1 0x20 SWAP3 SLOAD PUSH1 0x8 SHR AND SWAP1 MLOAD SWAP1 ISZERO ISZERO DUP2 MSTORE RETURN JUMPDEST DUP3 SWAP1 CALLVALUE PUSH2 0x16F JUMPI PUSH1 0x20 CALLDATASIZE PUSH1 0x3 NOT ADD SLT PUSH2 0x16F JUMPI CALLDATALOAD SWAP1 PUSH1 0x2 SLOAD DUP3 LT ISZERO PUSH2 0x19B JUMPI POP PUSH2 0x258 SWAP1 PUSH2 0x128A JUMP JUMPDEST POP CALLVALUE PUSH2 0x16F JUMPI DUP2 PUSH1 0x3 NOT CALLDATASIZE ADD SLT PUSH2 0x16F JUMPI PUSH1 0x20 SWAP1 MLOAD PUSH32 0x0 DUP2 MSTORE RETURN JUMPDEST CALLVALUE PUSH2 0x2D5 JUMPI DUP3 PUSH1 0x3 NOT CALLDATASIZE ADD SLT PUSH2 0x2D5 JUMPI PUSH1 0x20 SWAP3 POP SLOAD SWAP1 PUSH1 0xFF DUP3 AND SWAP2 DUP3 PUSH2 0x10B5 JUMPI JUMPDEST POP MLOAD SWAP1 ISZERO ISZERO DUP2 MSTORE RETURN JUMPDEST PUSH1 0x8 SHR PUSH1 0xFF AND ISZERO SWAP2 POP DUP4 PUSH2 0x10AC JUMP JUMPDEST SWAP1 CALLVALUE PUSH2 0x2D5 JUMPI DUP3 PUSH1 0x3 NOT CALLDATASIZE ADD SLT PUSH2 0x2D5 JUMPI PUSH32 0x0 PUSH1 0x1 PUSH1 0x1 PUSH1 0xA0 SHL SUB AND CALLER SUB PUSH2 0x113A JUMPI POP DUP1 SLOAD PUSH2 0xFFFF NOT AND PUSH2 0x100 OR SWAP1 SSTORE PUSH32 0xDF23397AB444D891935A0B305B1552FB235D2BD07043FFC42C6ED3F43A4D8352 DUP2 DUP1 LOG1 DUP1 RETURN JUMPDEST SWAP1 PUSH1 0x20 PUSH1 0x64 SWAP3 MLOAD SWAP2 PUSH3 0x461BCD PUSH1 0xE5 SHL DUP4 MSTORE DUP3 ADD MSTORE PUSH1 0xD PUSH1 0x24 DUP3 ADD MSTORE PUSH13 0x1BDB9B1E481C1C9BDD1BD8DBDB PUSH1 0x9A SHL PUSH1 0x44 DUP3 ADD MSTORE REVERT JUMPDEST CALLVALUE PUSH2 0x2D5 JUMPI PUSH1 0x20 CALLDATASIZE PUSH1 0x3 NOT ADD SLT PUSH2 0x2D5 JUMPI CALLDATALOAD SWAP2 PUSH1 0x1 SLOAD DUP4 LT ISZERO PUSH2 0x19B JUMPI POP PUSH2 0x221 PUSH1 0x20 SWAP3 PUSH2 0x122C JUMP JUMPDEST POP CALLVALUE PUSH2 0x16F JUMPI DUP2 PUSH1 0x3 NOT CALLDATASIZE ADD SLT PUSH2 0x16F JUMPI PUSH1 0x20 SWAP1 MLOAD PUSH32 0x0 DUP2 MSTORE RETURN JUMPDEST SWAP2 CALLVALUE PUSH2 0x19B JUMPI DUP1 PUSH1 0x3 NOT CALLDATASIZE ADD SLT PUSH2 0x19B JUMPI POP PUSH1 0xFF PUSH1 0x20 SWAP3 SLOAD AND SWAP1 MLOAD SWAP1 ISZERO ISZERO DUP2 MSTORE RETURN JUMPDEST DUP4 SWAP1 CALLVALUE PUSH2 0x16F JUMPI DUP2 PUSH1 0x3 NOT CALLDATASIZE ADD SLT PUSH2 0x16F JUMPI PUSH1 0x20 SWAP1 PUSH32 0x0 DUP2 MSTORE RETURN JUMPDEST PUSH1 0x1 SLOAD DUP2 LT ISZERO PUSH2 0x1261 JUMPI PUSH1 0x1 PUSH0 MSTORE PUSH32 0xB10E2D527612073B26EECDFD717E6A320CF44B4AFAC2B0732D9FCBE2B7FA0CF6 ADD SWAP1 PUSH0 SWAP1 JUMP JUMPDEST PUSH4 0x4E487B71 PUSH1 0xE0 SHL PUSH0 MSTORE PUSH1 0x32 PUSH1 0x4 MSTORE PUSH1 0x24 PUSH0 REVERT JUMPDEST DUP1 SLOAD DUP3 LT ISZERO PUSH2 0x1261 JUMPI PUSH0 MSTORE PUSH1 0x20 PUSH0 KECCAK256 ADD SWAP1 PUSH0 SWAP1 JUMP JUMPDEST PUSH1 0x2 SLOAD DUP2 LT ISZERO PUSH2 0x1261 JUMPI PUSH1 0x2 PUSH0 MSTORE PUSH1 0x1 SHL PUSH32 0x405787FA12A823E0F2B7631CC41B3BA8828B3321CA811111FA75CD3AA3BB5ACE ADD SWAP1 PUSH0 SWAP1 JUMP JUMPDEST PUSH1 0x3 SLOAD DUP2 LT ISZERO PUSH2 0x1261 JUMPI PUSH1 0x3 PUSH0 MSTORE PUSH1 0x1 SHL PUSH32 0xC2575A0E9E593C00F959F8C92F12DB2869C3395A3B0502D05E2516446F71F85B ADD SWAP1 PUSH0 SWAP1 JUMP JUMPDEST PUSH1 0x4 CALLDATALOAD SWAP1 PUSH1 0x1 PUSH1 0x1 PUSH1 0xA0 SHL SUB DUP3 AND DUP3 SUB PUSH2 0x1310 JUMPI JUMP JUMPDEST PUSH0 DUP1 REVERT JUMPDEST CALLVALUE PUSH2 0x1310 JUMPI PUSH0 CALLDATASIZE PUSH1 0x3 NOT ADD SLT PUSH2 0x1310 JUMPI PUSH1 0x40 MLOAD PUSH32 0x0 PUSH1 0x1 PUSH1 0x1 PUSH1 0xA0 SHL SUB AND DUP2 MSTORE PUSH1 0x20 SWAP1 RETURN JUMPDEST PUSH1 0x5 SLOAD DUP2 LT ISZERO PUSH2 0x1261 JUMPI PUSH1 0x5 SWAP1 DUP2 PUSH0 MSTORE MUL PUSH32 0x36B6384B5ECA791C62761152D0C79BB0604C104A5FB6F4EB0703F3154BB3DB0 ADD SWAP1 PUSH0 SWAP1 JUMP JUMPDEST PUSH0 NOT DUP2 EQ PUSH2 0x139E JUMPI PUSH1 0x1 ADD SWAP1 JUMP JUMPDEST PUSH4 0x4E487B71 PUSH1 0xE0 SHL PUSH0 MSTORE PUSH1 0x11 PUSH1 0x4 MSTORE PUSH1 0x24 PUSH0 REVERT JUMPDEST PUSH1 0x1 DUP1 SLOAD SWAP2 DUP3 ISZERO PUSH2 0x13F9 JUMPI PUSH0 JUMPDEST DUP4 DUP2 LT PUSH2 0x13CE JUMPI POP POP POP POP PUSH0 SWAP1 JUMP JUMPDEST DUP2 PUSH2 0x13D8 DUP3 PUSH2 0x122C JUMP JUMPDEST SWAP1 SLOAD SWAP1 PUSH1 0x3 SHL SHR EQ PUSH2 0x13F2 JUMPI PUSH2 0x13ED SWAP1 PUSH2 0x1390 JUMP JUMPDEST PUSH2 0x13BF JUMP JUMPDEST POP POP SWAP1 POP SWAP1 JUMP JUMPDEST POP SWAP1 POP SWAP1 JUMP JUMPDEST ISZERO PUSH2 0x1406 JUMPI JUMP JUMPDEST PUSH1 0x40 MLOAD PUSH3 0x461BCD PUSH1 0xE5 SHL DUP2 MSTORE PUSH1 0x20 PUSH1 0x4 DUP3 ADD MSTORE PUSH1 0x10 PUSH1 0x24 DUP3 ADD MSTORE PUSH16 0x7661756C74206E6F7420616374697665 PUSH1 0x80 SHL PUSH1 0x44 DUP3 ADD MSTORE PUSH1 0x64 SWAP1 REVERT JUMPDEST SWAP2 SWAP1 DUP3 ADD DUP1 SWAP3 GT PUSH2 0x139E JUMPI JUMP JUMPDEST PUSH1 0xA0 DUP2 ADD SWAP1 DUP2 LT PUSH8 0xFFFFFFFFFFFFFFFF DUP3 GT OR PUSH2 0x1467 JUMPI PUSH1 0x40 MSTORE JUMP JUMPDEST PUSH4 0x4E487B71 PUSH1 0xE0 SHL PUSH0 MSTORE PUSH1 0x41 PUSH1 0x4 MSTORE PUSH1 0x24 PUSH0 REVERT JUMPDEST SWAP1 PUSH1 0x1F DUP1 NOT SWAP2 ADD AND DUP2 ADD SWAP1 DUP2 LT PUSH8 0xFFFFFFFFFFFFFFFF DUP3 GT OR PUSH2 0x1467 JUMPI PUSH1 0x40 MSTORE JUMP JUMPDEST SWAP2 SWAP1 DUP3 SUB SWAP2 DUP3 GT PUSH2 0x139E JUMPI JUMP JUMPDEST SWAP1 DUP2 SLOAD SWAP2 PUSH1 0x1 PUSH1 0x40 SHL DUP4 LT ISZERO PUSH2 0x1467 JUMPI DUP3 PUSH2 0x49D SWAP2 PUSH1 0x1 PUSH2 0x14CD SWAP6 ADD DUP2 SSTORE PUSH2 0x1275 JUMP JUMPDEST JUMP JUMPDEST PUSH1 0x2 PUSH0 SLOAD EQ PUSH2 0x14DE JUMPI PUSH1 0x2 PUSH0 SSTORE JUMP JUMPDEST PUSH1 0x40 MLOAD PUSH3 0x461BCD PUSH1 0xE5 SHL DUP2 MSTORE PUSH1 0x20 PUSH1 0x4 DUP3 ADD MSTORE PUSH1 0x1F PUSH1 0x24 DUP3 ADD MSTORE PUSH32 0x5265656E7472616E637947756172643A207265656E7472616E742063616C6C00 PUSH1 0x44 DUP3 ADD MSTORE PUSH1 0x64 SWAP1 REVERT JUMPDEST SWAP1 PUSH0 PUSH1 0x20 SWAP2 DUP3 DUP2 MLOAD SWAP2 ADD DUP3 DUP6 GAS CALL ISZERO PUSH2 0x157D JUMPI PUSH0 MLOAD RETURNDATASIZE PUSH2 0x1574 JUMPI POP PUSH1 0x1 PUSH1 0x1 PUSH1 0xA0 SHL SUB DUP2 AND EXTCODESIZE ISZERO JUMPDEST PUSH2 0x1552 JUMPI POP JUMP JUMPDEST PUSH1 0x40 MLOAD PUSH4 0x5274AFE7 PUSH1 0xE0 SHL DUP2 MSTORE PUSH1 0x1 PUSH1 0x1 PUSH1 0xA0 SHL SUB SWAP1 SWAP2 AND PUSH1 0x4 DUP3 ADD MSTORE PUSH1 0x24 SWAP1 REVERT JUMPDEST PUSH1 0x1 EQ ISZERO PUSH2 0x154B JUMP JUMPDEST PUSH1 0x40 MLOAD RETURNDATASIZE PUSH0 DUP3 RETURNDATACOPY RETURNDATASIZE SWAP1 REVERT JUMPDEST DUP2 DUP2 MUL SWAP3 SWAP2 DUP2 ISZERO SWAP2 DUP5 DIV EQ OR ISZERO PUSH2 0x139E JUMPI JUMP JUMPDEST DUP1 SLOAD SWAP1 DUP2 ISZERO PUSH2 0x15C4 JUMPI PUSH0 NOT SWAP2 DUP3 ADD SWAP2 PUSH2 0x15B4 DUP4 DUP4 PUSH2 0x1275 JUMP JUMPDEST SWAP1 SWAP2 DUP3 SLOAD SWAP2 PUSH1 0x3 SHL SHL NOT AND SWAP1 SSTORE SSTORE JUMP JUMPDEST PUSH4 0x4E487B71 PUSH1 0xE0 SHL PUSH0 MSTORE PUSH1 0x31 PUSH1 0x4 MSTORE PUSH1 0x24 PUSH0 REVERT JUMPDEST PUSH1 0x40 MLOAD PUSH4 0xA9059CBB PUSH1 0xE0 SHL PUSH1 0x20 DUP3 ADD MSTORE PUSH1 0x1 PUSH1 0x1 PUSH1 0xA0 SHL SUB SWAP1 SWAP3 AND PUSH1 0x24 DUP4 ADD MSTORE PUSH1 0x44 DUP1 DUP4 ADD SWAP4 SWAP1 SWAP4 MSTORE SWAP2 DUP2 MSTORE PUSH1 0x80 DUP2 ADD SWAP2 PUSH8 0xFFFFFFFFFFFFFFFF DUP4 GT DUP3 DUP5 LT OR PUSH2 0x1467 JUMPI PUSH2 0x14CD SWAP3 PUSH1 0x40 MSTORE PUSH2 0x1523 JUMP JUMPDEST DUP1 MLOAD DUP3 LT ISZERO PUSH2 0x1261 JUMPI PUSH1 0x20 SWAP2 PUSH1 0x5 SHL ADD ADD SWAP1 JUMP JUMPDEST SWAP1 PUSH1 0x40 MLOAD PUSH2 0x1649 DUP2 PUSH2 0x144B JUMP JUMPDEST DUP3 SLOAD PUSH1 0x1 PUSH1 0x1 PUSH1 0xA0 SHL SUB AND DUP2 MSTORE PUSH1 0x1 DUP4 ADD SLOAD PUSH1 0x20 DUP3 ADD MSTORE PUSH1 0x2 DUP4 ADD SLOAD PUSH1 0x40 DUP3 ADD MSTORE PUSH1 0x3 DUP4 ADD SLOAD PUSH1 0x60 DUP3 ADD MSTORE PUSH1 0x4 SWAP1 SWAP3 ADD SLOAD PUSH1 0xFF AND ISZERO ISZERO PUSH1 0x80 DUP4 ADD MSTORE JUMP JUMPDEST SWAP2 SWAP1 PUSH2 0x1695 PUSH2 0x16BC SWAP2 DUP5 PUSH2 0x1588 JUMP JUMPDEST PUSH32 0x0 SWAP1 PUSH2 0x1588 JUMP JUMPDEST SWAP1 PUSH2 0x2710 SWAP1 PUSH0 PUSH1 0x2 SLOAD SWAP2 JUMPDEST DUP3 DUP3 LT PUSH2 0x173C JUMPI JUMPDEST POP POP POP PUSH2 0x2710 SWAP1 PUSH0 PUSH1 0x3 SLOAD SWAP5 JUMPDEST DUP6 DUP3 LT PUSH2 0x1705 JUMPI JUMPDEST POP POP PUSH2 0x2710 SWAP4 POP PUSH2 0x16FA PUSH2 0x1701 SWAP4 SWAP3 DUP6 SWAP3 PUSH2 0x1588 JUMP JUMPDEST DIV SWAP1 PUSH2 0x1588 JUMP JUMPDEST DIV SWAP1 JUMP JUMPDEST SWAP1 SWAP3 PUSH2 0x1710 DUP5 PUSH2 0x12C2 JUMP JUMPDEST POP SLOAD DUP3 LT PUSH2 0x1736 JUMPI POP PUSH2 0x1730 PUSH1 0x1 PUSH2 0x1727 DUP6 PUSH2 0x12C2 JUMP JUMPDEST POP ADD SLOAD SWAP4 PUSH2 0x1390 JUMP JUMPDEST SWAP1 PUSH2 0x16DC JUMP JUMPDEST SWAP3 PUSH2 0x16E4 JUMP JUMPDEST SWAP1 SWAP2 SWAP5 SWAP4 SWAP3 PUSH2 0x174A DUP4 PUSH2 0x128A JUMP JUMPDEST POP SLOAD DUP3 LT PUSH2 0x1775 JUMPI POP PUSH2 0x176A PUSH1 0x1 PUSH2 0x1761 DUP5 PUSH2 0x128A JUMP JUMPDEST POP ADD SLOAD SWAP3 PUSH2 0x1390 JUMP JUMPDEST SWAP1 SWAP5 SWAP2 SWAP3 SWAP4 SWAP5 PUSH2 0x16C7 JUMP JUMPDEST SWAP3 SWAP4 SWAP5 PUSH2 0x16CF JUMP JUMPDEST PUSH8 0xFFFFFFFFFFFFFFFF DUP2 GT PUSH2 0x1467 JUMPI PUSH1 0x5 SHL PUSH1 0x20 ADD SWAP1 JUMP JUMPDEST SWAP1 SWAP4 SWAP3 PUSH0 SWAP1 ISZERO PUSH2 0x1864 JUMPI POP PUSH1 0x1 PUSH1 0x1 PUSH1 0xA0 SHL SUB AND PUSH0 SWAP1 DUP2 MSTORE PUSH1 0x6 PUSH1 0x20 MSTORE PUSH1 0x40 SWAP1 KECCAK256 SWAP3 JUMPDEST DUP4 SLOAD SWAP2 DUP3 DUP3 LT ISZERO PUSH2 0x185B JUMPI PUSH2 0x17CD SWAP1 DUP3 PUSH2 0x143E JUMP JUMPDEST SWAP2 DUP1 DUP4 GT PUSH2 0x1853 JUMPI JUMPDEST POP PUSH2 0x17E1 DUP2 DUP4 PUSH2 0x149D JUMP JUMPDEST PUSH2 0x17EA DUP2 PUSH2 0x177D JUMP JUMPDEST SWAP1 PUSH2 0x17F8 PUSH1 0x40 MLOAD SWAP3 DUP4 PUSH2 0x147B JUMP JUMPDEST DUP1 DUP3 MSTORE PUSH2 0x1807 PUSH1 0x1F NOT SWAP2 PUSH2 0x177D JUMP JUMPDEST ADD CALLDATASIZE PUSH1 0x20 DUP4 ADD CALLDATACOPY DUP1 SWAP5 DUP3 JUMPDEST DUP5 DUP2 LT PUSH2 0x1820 JUMPI POP POP POP POP POP JUMP JUMPDEST DUP1 PUSH2 0x182E PUSH2 0x184E SWAP3 DUP5 PUSH2 0x1275 JUMP JUMPDEST SWAP1 SLOAD SWAP1 PUSH1 0x3 SHL SHR PUSH2 0x1848 PUSH2 0x1842 DUP8 DUP5 PUSH2 0x149D JUMP JUMPDEST DUP7 PUSH2 0x1628 JUMP JUMPDEST MSTORE PUSH2 0x1390 JUMP JUMPDEST PUSH2 0x1812 JUMP JUMPDEST SWAP2 POP PUSH0 PUSH2 0x17D6 JUMP JUMPDEST POP PUSH1 0x60 SWAP4 POP POP POP JUMP JUMPDEST PUSH1 0x1 PUSH1 0x1 PUSH1 0xA0 SHL SUB SWAP1 SWAP2 AND DUP2 MSTORE PUSH1 0x7 PUSH1 0x20 MSTORE PUSH1 0x40 SWAP1 KECCAK256 SWAP3 PUSH2 0x17B8 JUMP INVALID LOG2 PUSH5 0x6970667358 0x22 SLT KECCAK256 ISZERO MSTORE 0xFB 0xD5 MSIZE PUSH23 0xFBCF0AE82BFBCBD87565F6ED88549AF4CEFCBEFC0DE945 0xF 0xF8 SWAP16 PUSH5 0x736F6C6343 STOP ADDMOD EQ STOP CALLER "
				},
				"gasEstimates": {
					"creation": {
						"codeDepositCost": "1265200",
						"executionCost": "infinite",
						"totalCost": "infinite"
					},
					"external": {
						"active()": "2311",
						"activePositions(address,uint256)": "7055",
						"allowedPreset(uint256)": "infinite",
						"amountMultipliers(uint256)": "9154",
						"amountMultipliersLen()": "2761",
						"closeVault()": "infinite",
						"closed()": "2471",
						"feeBP()": "infinite",
						"getPositionsPaginated(address,uint256,uint256,bool)": "infinite",
						"getXP(address)": "infinite",
						"historyPositions(address,uint256)": "7253",
						"isActive()": "2456",
						"maxDeposit()": "infinite",
						"minDeposit()": "infinite",
						"participants()": "infinite",
						"positions(uint256)": "15548",
						"positionsLength()": "2827",
						"presetTimes(uint256)": "6657",
						"protocol()": "infinite",
						"release()": "infinite",
						"releaseAll()": "infinite",
						"stake(uint256,uint256)": "infinite",
						"timeMultipliers(uint256)": "8868",
						"timeMultipliersLen()": "2783",
						"token()": "infinite",
						"vaultToken()": "infinite",
						"xpRate()": "infinite"
					},
					"internal": {
						"_calcPositionXP(uint256,uint256,uint256)": "infinite",
						"_releaseFor(address,bool)": "infinite"
					}
				},
				"methodIdentifiers": {
					"active()": "02fb0c5e",
					"activePositions(address,uint256)": "6a5908a0",
					"allowedPreset(uint256)": "cba02476",
					"amountMultipliers(uint256)": "a0660dfa",
					"amountMultipliersLen()": "b9b792cd",
					"closeVault()": "18976fa2",
					"closed()": "597e1fb5",
					"feeBP()": "017f6fae",
					"getPositionsPaginated(address,uint256,uint256,bool)": "6b53503a",
					"getXP(address)": "639487f4",
					"historyPositions(address,uint256)": "ac55deb6",
					"isActive()": "22f3e2d4",
					"maxDeposit()": "6083e59a",
					"minDeposit()": "41b3d185",
					"participants()": "6c4470fb",
					"positions(uint256)": "99fbab88",
					"positionsLength()": "d6887bfa",
					"presetTimes(uint256)": "10390d35",
					"protocol()": "8ce74426",
					"release()": "86d1a69f",
					"releaseAll()": "5be7fde8",
					"stake(uint256,uint256)": "7b0472f0",
					"timeMultipliers(uint256)": "5350cbd9",
					"timeMultipliersLen()": "c122c2a1",
					"token()": "fc0c546a",
					"vaultToken()": "703bafd5",
					"xpRate()": "094b81d3"
				}
			},
			"storageLayout": {
				"storage": [
					{
						"astId": 248,
						"contract": "contracts/YunaVault.sol:YunaVault",
						"label": "_status",
						"offset": 0,
						"slot": "0",
						"type": "t_uint256"
					},
					{
						"astId": 982,
						"contract": "contracts/YunaVault.sol:YunaVault",
						"label": "presetTimes",
						"offset": 0,
						"slot": "1",
						"type": "t_array(t_uint256)dyn_storage"
					},
					{
						"astId": 986,
						"contract": "contracts/YunaVault.sol:YunaVault",
						"label": "timeMultipliers",
						"offset": 0,
						"slot": "2",
						"type": "t_array(t_struct(TimeMultiplier)961_storage)dyn_storage"
					},
					{
						"astId": 990,
						"contract": "contracts/YunaVault.sol:YunaVault",
						"label": "amountMultipliers",
						"offset": 0,
						"slot": "3",
						"type": "t_array(t_struct(AmountMultiplier)966_storage)dyn_storage"
					},
					{
						"astId": 993,
						"contract": "contracts/YunaVault.sol:YunaVault",
						"label": "active",
						"offset": 0,
						"slot": "4",
						"type": "t_bool"
					},
					{
						"astId": 996,
						"contract": "contracts/YunaVault.sol:YunaVault",
						"label": "closed",
						"offset": 1,
						"slot": "4",
						"type": "t_bool"
					},
					{
						"astId": 1000,
						"contract": "contracts/YunaVault.sol:YunaVault",
						"label": "positions",
						"offset": 0,
						"slot": "5",
						"type": "t_array(t_struct(Position)956_storage)dyn_storage"
					},
					{
						"astId": 1005,
						"contract": "contracts/YunaVault.sol:YunaVault",
						"label": "activePositions",
						"offset": 0,
						"slot": "6",
						"type": "t_mapping(t_address,t_array(t_uint256)dyn_storage)"
					},
					{
						"astId": 1010,
						"contract": "contracts/YunaVault.sol:YunaVault",
						"label": "historyPositions",
						"offset": 0,
						"slot": "7",
						"type": "t_mapping(t_address,t_array(t_uint256)dyn_storage)"
					},
					{
						"astId": 1013,
						"contract": "contracts/YunaVault.sol:YunaVault",
						"label": "_participants",
						"offset": 0,
						"slot": "8",
						"type": "t_array(t_address)dyn_storage"
					},
					{
						"astId": 1017,
						"contract": "contracts/YunaVault.sol:YunaVault",
						"label": "_seenParticipant",
						"offset": 0,
						"slot": "9",
						"type": "t_mapping(t_address,t_bool)"
					}
				],
				"types": {
					"t_address": {
						"encoding": "inplace",
						"label": "address",
						"numberOfBytes": "20"
					},
					"t_array(t_address)dyn_storage": {
						"base": "t_address",
						"encoding": "dynamic_array",
						"label": "address[]",
						"numberOfBytes": "32"
					},
					"t_array(t_struct(AmountMultiplier)966_storage)dyn_storage": {
						"base": "t_struct(AmountMultiplier)966_storage",
						"encoding": "dynamic_array",
						"label": "struct YunaVault.AmountMultiplier[]",
						"numberOfBytes": "32"
					},
					"t_array(t_struct(Position)956_storage)dyn_storage": {
						"base": "t_struct(Position)956_storage",
						"encoding": "dynamic_array",
						"label": "struct YunaVault.Position[]",
						"numberOfBytes": "32"
					},
					"t_array(t_struct(TimeMultiplier)961_storage)dyn_storage": {
						"base": "t_struct(TimeMultiplier)961_storage",
						"encoding": "dynamic_array",
						"label": "struct YunaVault.TimeMultiplier[]",
						"numberOfBytes": "32"
					},
					"t_array(t_uint256)dyn_storage": {
						"base": "t_uint256",
						"encoding": "dynamic_array",
						"label": "uint256[]",
						"numberOfBytes": "32"
					},
					"t_bool": {
						"encoding": "inplace",
						"label": "bool",
						"numberOfBytes": "1"
					},
					"t_mapping(t_address,t_array(t_uint256)dyn_storage)": {
						"encoding": "mapping",
						"key": "t_address",
						"label": "mapping(address => uint256[])",
						"numberOfBytes": "32",
						"value": "t_array(t_uint256)dyn_storage"
					},
					"t_mapping(t_address,t_bool)": {
						"encoding": "mapping",
						"key": "t_address",
						"label": "mapping(address => bool)",
						"numberOfBytes": "32",
						"value": "t_bool"
					},
					"t_struct(AmountMultiplier)966_storage": {
						"encoding": "inplace",
						"label": "struct YunaVault.AmountMultiplier",
						"members": [
							{
								"astId": 963,
								"contract": "contracts/YunaVault.sol:YunaVault",
								"label": "minAmount",
								"offset": 0,
								"slot": "0",
								"type": "t_uint256"
							},
							{
								"astId": 965,
								"contract": "contracts/YunaVault.sol:YunaVault",
								"label": "multiplierBP",
								"offset": 0,
								"slot": "1",
								"type": "t_uint256"
							}
						],
						"numberOfBytes": "64"
					},
					"t_struct(Position)956_storage": {
						"encoding": "inplace",
						"label": "struct YunaVault.Position",
						"members": [
							{
								"astId": 947,
								"contract": "contracts/YunaVault.sol:YunaVault",
								"label": "user",
								"offset": 0,
								"slot": "0",
								"type": "t_address"
							},
							{
								"astId": 949,
								"contract": "contracts/YunaVault.sol:YunaVault",
								"label": "amount",
								"offset": 0,
								"slot": "1",
								"type": "t_uint256"
							},
							{
								"astId": 951,
								"contract": "contracts/YunaVault.sol:YunaVault",
								"label": "startBlock",
								"offset": 0,
								"slot": "2",
								"type": "t_uint256"
							},
							{
								"astId": 953,
								"contract": "contracts/YunaVault.sol:YunaVault",
								"label": "endBlock",
								"offset": 0,
								"slot": "3",
								"type": "t_uint256"
							},
							{
								"astId": 955,
								"contract": "contracts/YunaVault.sol:YunaVault",
								"label": "claimed",
								"offset": 0,
								"slot": "4",
								"type": "t_bool"
							}
						],
						"numberOfBytes": "160"
					},
					"t_struct(TimeMultiplier)961_storage": {
						"encoding": "inplace",
						"label": "struct YunaVault.TimeMultiplier",
						"members": [
							{
								"astId": 958,
								"contract": "contracts/YunaVault.sol:YunaVault",
								"label": "minBlocks",
								"offset": 0,
								"slot": "0",
								"type": "t_uint256"
							},
							{
								"astId": 960,
								"contract": "contracts/YunaVault.sol:YunaVault",
								"label": "multiplierBP",
								"offset": 0,
								"slot": "1",
								"type": "t_uint256"
							}
						],
						"numberOfBytes": "64"
					},
					"t_uint256": {
						"encoding": "inplace",
						"label": "uint256",
						"numberOfBytes": "32"
					}
				}
			},
			"userdoc": {
				"kind": "user",
				"methods": {},
				"version": 1
			}
		}
	}
}