{
	"contracts/YunaVaultRouter.sol": {
		"YunaVaultRouter": {
			"abi": [
				{
					"inputs": [
						{
							"internalType": "address",
							"name": "owner",
							"type": "address"
						}
					],
					"name": "OwnableInvalidOwner",
					"type": "error"
				},
				{
					"inputs": [
						{
							"internalType": "address",
							"name": "account",
							"type": "address"
						}
					],
					"name": "OwnableUnauthorizedAccount",
					"type": "error"
				},
				{
					"anonymous": false,
					"inputs": [
						{
							"indexed": true,
							"internalType": "address",
							"name": "previousOwner",
							"type": "address"
						},
						{
							"indexed": true,
							"internalType": "address",
							"name": "newOwner",
							"type": "address"
						}
					],
					"name": "OwnershipTransferred",
					"type": "event"
				},
				{
					"inputs": [],
					"name": "disableRouter",
					"outputs": [],
					"stateMutability": "nonpayable",
					"type": "function"
				},
				{
					"inputs": [],
					"name": "enableRouter",
					"outputs": [],
					"stateMutability": "nonpayable",
					"type": "function"
				},
				{
					"inputs": [],
					"name": "factory",
					"outputs": [
						{
							"internalType": "address",
							"name": "",
							"type": "address"
						}
					],
					"stateMutability": "view",
					"type": "function"
				},
				{
					"inputs": [
						{
							"internalType": "address",
							"name": "vault",
							"type": "address"
						},
						{
							"internalType": "address",
							"name": "holder",
							"type": "address"
						}
					],
					"name": "getXPFromVault",
					"outputs": [
						{
							"internalType": "uint256",
							"name": "",
							"type": "uint256"
						}
					],
					"stateMutability": "view",
					"type": "function"
				},
				{
					"inputs": [],
					"name": "isRouterEnabled",
					"outputs": [
						{
							"internalType": "bool",
							"name": "",
							"type": "bool"
						}
					],
					"stateMutability": "view",
					"type": "function"
				},
				{
					"inputs": [],
					"name": "owner",
					"outputs": [
						{
							"internalType": "address",
							"name": "",
							"type": "address"
						}
					],
					"stateMutability": "view",
					"type": "function"
				},
				{
					"inputs": [
						{
							"internalType": "address",
							"name": "vault",
							"type": "address"
						}
					],
					"name": "releaseAllFromVault",
					"outputs": [],
					"stateMutability": "nonpayable",
					"type": "function"
				},
				{
					"inputs": [
						{
							"internalType": "address",
							"name": "vault",
							"type": "address"
						}
					],
					"name": "releaseFromVault",
					"outputs": [],
					"stateMutability": "nonpayable",
					"type": "function"
				},
				{
					"inputs": [],
					"name": "renounceOwnership",
					"outputs": [],
					"stateMutability": "nonpayable",
					"type": "function"
				},
				{
					"inputs": [
						{
							"internalType": "address",
							"name": "_factory",
							"type": "address"
						}
					],
					"name": "setFactory",
					"outputs": [],
					"stateMutability": "nonpayable",
					"type": "function"
				},
				{
					"inputs": [
						{
							"internalType": "address",
							"name": "vault",
							"type": "address"
						},
						{
							"internalType": "uint256",
							"name": "amount",
							"type": "uint256"
						},
						{
							"internalType": "uint256",
							"name": "blocksToStake",
							"type": "uint256"
						}
					],
					"name": "stakeToVault",
					"outputs": [],
					"stateMutability": "nonpayable",
					"type": "function"
				},
				{
					"inputs": [
						{
							"internalType": "address",
							"name": "newOwner",
							"type": "address"
						}
					],
					"name": "transferOwnership",
					"outputs": [],
					"stateMutability": "nonpayable",
					"type": "function"
				}
			],
			"devdoc": {
				"errors": {
					"OwnableInvalidOwner(address)": [
						{
							"details": "The owner is not a valid owner account. (eg. `address(0)`)"
						}
					],
					"OwnableUnauthorizedAccount(address)": [
						{
							"details": "The caller account is not authorized to perform an operation."
						}
					]
				},
				"kind": "dev",
				"methods": {
					"owner()": {
						"details": "Returns the address of the current owner."
					},
					"renounceOwnership()": {
						"details": "Leaves the contract without owner. It will not be possible to call `onlyOwner` functions. Can only be called by the current owner. NOTE: Renouncing ownership will leave the contract without an owner, thereby disabling any functionality that is only available to the owner."
					},
					"transferOwnership(address)": {
						"details": "Transfers ownership of the contract to a new account (`newOwner`). Can only be called by the current owner."
					}
				},
				"version": 1
			},
			"evm": {
				"assembly": "    /* \"contracts/YunaVaultRouter.sol\":144:1246  contract YunaVaultRouter is Ownable(msg.sender) {... */\n  0x80\n  dup1\n  0x40\n  mstore\n  jumpi(tag_1, callvalue)\n    /* \"contracts/YunaVaultRouter.sol\":180:190  msg.sender */\n  caller\n    /* \"@openzeppelin/contracts/access/Ownable.sol\":1273:1299  initialOwner == address(0) */\n  iszero\n    /* \"@openzeppelin/contracts/access/Ownable.sol\":1269:1364  if (initialOwner == address(0)) {... */\n  tag_3\n  jumpi\n    /* \"@openzeppelin/contracts/access/Ownable.sol\":1297:1298  0 */\n  0x00\n    /* \"contracts/YunaVaultRouter.sol\":144:1246  contract YunaVaultRouter is Ownable(msg.sender) {... */\n  dup1\n  sload\n  mload(0x40)\n  swap2\n    /* \"contracts/YunaVaultRouter.sol\":180:190  msg.sender */\n  caller\n  swap1\n  sub(shl(0xa0, 0x01), 0x01)\n    /* \"contracts/YunaVaultRouter.sol\":144:1246  contract YunaVaultRouter is Ownable(msg.sender) {... */\n  dup4\n  and\n  swap1\n    /* \"@openzeppelin/contracts/access/Ownable.sol\":3052:3092  OwnershipTransferred(oldOwner, newOwner) */\n  0x8be0079c531659141344cd1fd0a4f28419497f9722a3daafe3b4186f6b6457e0\n  swap1\n    /* \"@openzeppelin/contracts/access/Ownable.sol\":1297:1298  0 */\n  dup1\n    /* \"@openzeppelin/contracts/access/Ownable.sol\":3052:3092  OwnershipTransferred(oldOwner, newOwner) */\n  log3\n  not(sub(shl(0xa8, 0x01), 0x01))\n    /* \"contracts/YunaVaultRouter.sol\":144:1246  contract YunaVaultRouter is Ownable(msg.sender) {... */\n  and\n    /* \"contracts/YunaVaultRouter.sol\":180:190  msg.sender */\n  caller\n  not(shl(0xa0, 0xff))\n    /* \"contracts/YunaVaultRouter.sol\":144:1246  contract YunaVaultRouter is Ownable(msg.sender) {... */\n  and\n  or\n  shl(0xa0, 0x01)\n  or\n    /* \"@openzeppelin/contracts/access/Ownable.sol\":1297:1298  0 */\n  0x00\n    /* \"contracts/YunaVaultRouter.sol\":144:1246  contract YunaVaultRouter is Ownable(msg.sender) {... */\n  sstore\n  dataSize(sub_0)\n  swap1\n  dup2\n  dataOffset(sub_0)\n  dup3\n  codecopy\n  return\n    /* \"@openzeppelin/contracts/access/Ownable.sol\":1269:1364  if (initialOwner == address(0)) {... */\ntag_3:\n  shl(0xe0, 0x1e4fbdf7)\n    /* \"@openzeppelin/contracts/access/Ownable.sol\":1322:1353  OwnableInvalidOwner(address(0)) */\n  dup2\n  mstore\n    /* \"@openzeppelin/contracts/access/Ownable.sol\":1297:1298  0 */\n  0x00\n    /* \"@openzeppelin/contracts/access/Ownable.sol\":1322:1353  OwnableInvalidOwner(address(0)) */\n  0x04\n  dup3\n  add\n    /* \"contracts/YunaVaultRouter.sol\":144:1246  contract YunaVaultRouter is Ownable(msg.sender) {... */\n  mstore\n  0x24\n  swap1\n    /* \"@openzeppelin/contracts/access/Ownable.sol\":1322:1353  OwnableInvalidOwner(address(0)) */\n  revert\n    /* \"contracts/YunaVaultRouter.sol\":144:1246  contract YunaVaultRouter is Ownable(msg.sender) {... */\ntag_1:\n  0x00\n  dup1\n  revert\nstop\n\nsub_0: assembly {\n        /* \"contracts/YunaVaultRouter.sol\":144:1246  contract YunaVaultRouter is Ownable(msg.sender) {... */\n      0x40\n      0x80\n      dup2\n      mstore\n      0x04\n      swap1\n      dup2\n      calldatasize\n      lt\n      iszero\n      tag_5\n      jumpi\n      0x00\n      dup1\n      revert\n    tag_5:\n      0x00\n      swap2\n      dup3\n      calldataload\n      0xe0\n      shr\n      dup4\n      dup2\n      0x11c1d385\n      eq\n      tag_7\n      jumpi\n      dup2\n      0x31339958\n      eq\n      tag_9\n      jumpi\n      dup2\n      0x4d19a862\n      eq\n      tag_11\n      jumpi\n      pop\n      dup1\n      0x55197241\n      eq\n      tag_13\n      jumpi\n      dup1\n      0x58354a7c\n      eq\n      tag_15\n      jumpi\n      dup1\n      0x5bb47808\n      eq\n      tag_17\n      jumpi\n      dup1\n      0x715018a6\n      eq\n      tag_19\n      jumpi\n      dup1\n      0x8da5cb5b\n      eq\n      tag_21\n      jumpi\n      dup1\n      0xb0f07f15\n      eq\n      tag_23\n      jumpi\n      dup1\n      0xc45a0155\n      eq\n      tag_25\n      jumpi\n      dup1\n      0xd858a7e5\n      eq\n      tag_27\n      jumpi\n      0xf2fde38b\n      eq\n      tag_29\n      jumpi\n      0x00\n      dup1\n      revert\n    tag_29:\n      jumpi(tag_33, callvalue)\n      jumpi(tag_33, slt(add(not(0x03), calldatasize), 0x20))\n      tag_35\n      tag_1\n      jump\t// in\n    tag_35:\n        /* \"@openzeppelin/contracts/access/Ownable.sol\":1500:1562  modifier onlyOwner() {... */\n      swap1\n      tag_36\n      tag_2\n      jump\t// in\n    tag_36:\n      sub(shl(0xa0, 0x01), 0x01)\n        /* \"contracts/YunaVaultRouter.sol\":144:1246  contract YunaVaultRouter is Ownable(msg.sender) {... */\n      swap2\n      dup3\n      and\n      swap3\n        /* \"@openzeppelin/contracts/access/Ownable.sol\":2627:2649  newOwner == address(0) */\n      dup4\n      iszero\n        /* \"@openzeppelin/contracts/access/Ownable.sol\":2623:2714  if (newOwner == address(0)) {... */\n      tag_37\n      jumpi\n        /* \"contracts/YunaVaultRouter.sol\":144:1246  contract YunaVaultRouter is Ownable(msg.sender) {... */\n      pop\n      pop\n      sload(0x00)\n      dup3\n      shl(0xa0, 0xffffffffffffffffffffffff)\n      dup3\n      and\n      or\n      0x00\n      sstore\n      and\n        /* \"@openzeppelin/contracts/access/Ownable.sol\":3052:3092  OwnershipTransferred(oldOwner, newOwner) */\n      0x8be0079c531659141344cd1fd0a4f28419497f9722a3daafe3b4186f6b6457e0\n        /* \"contracts/YunaVaultRouter.sol\":144:1246  contract YunaVaultRouter is Ownable(msg.sender) {... */\n      0x00\n        /* \"@openzeppelin/contracts/access/Ownable.sol\":3052:3092  OwnershipTransferred(oldOwner, newOwner) */\n      dup1\n      log3\n        /* \"contracts/YunaVaultRouter.sol\":144:1246  contract YunaVaultRouter is Ownable(msg.sender) {... */\n      dup1\n      return\n        /* \"@openzeppelin/contracts/access/Ownable.sol\":2623:2714  if (newOwner == address(0)) {... */\n    tag_37:\n        /* \"contracts/YunaVaultRouter.sol\":144:1246  contract YunaVaultRouter is Ownable(msg.sender) {... */\n      mload\n      shl(0xe0, 0x1e4fbdf7)\n        /* \"@openzeppelin/contracts/access/Ownable.sol\":2672:2703  OwnableInvalidOwner(address(0)) */\n      dup2\n      mstore\n      swap1\n      dup2\n      add\n        /* \"contracts/YunaVaultRouter.sol\":144:1246  contract YunaVaultRouter is Ownable(msg.sender) {... */\n      dup5\n      swap1\n      mstore\n      0x24\n      swap1\n        /* \"@openzeppelin/contracts/access/Ownable.sol\":2672:2703  OwnableInvalidOwner(address(0)) */\n      revert\n        /* \"contracts/YunaVaultRouter.sol\":144:1246  contract YunaVaultRouter is Ownable(msg.sender) {... */\n    tag_33:\n      dup3\n      dup1\n      revert\n    tag_27:\n      dup4\n      jumpi(tag_41, callvalue)\n      dup1\n      add(calldatasize, not(0x03))\n      slt\n      tag_41\n      jumpi\n        /* \"@openzeppelin/contracts/access/Ownable.sol\":1500:1562  modifier onlyOwner() {... */\n      tag_43\n      tag_2\n      jump\t// in\n    tag_43:\n        /* \"contracts/YunaVaultRouter.sol\":144:1246  contract YunaVaultRouter is Ownable(msg.sender) {... */\n      0x00\n      dup1\n      sload\n      not(shl(0xa0, 0xff))\n      and\n      swap1\n      sstore\n      dup1\n      return\n    tag_41:\n      dup1\n      revert\n    tag_25:\n      pop\n      pop\n      jumpi(tag_46, callvalue)\n      dup2\n      add(calldatasize, not(0x03))\n      slt\n      tag_46\n      jumpi\n      sload(0x01)\n      swap1\n      mload\n      sub(shl(0xa0, 0x01), 0x01)\n      swap1\n      swap2\n      and\n      dup2\n      mstore\n      0x20\n      swap1\n      return\n    tag_46:\n      pop\n      dup1\n      revert\n    tag_23:\n      dup4\n      jumpi(tag_41, callvalue)\n      dup1\n      add(calldatasize, not(0x03))\n      slt\n      tag_41\n      jumpi\n        /* \"@openzeppelin/contracts/access/Ownable.sol\":1500:1562  modifier onlyOwner() {... */\n      tag_52\n      tag_2\n      jump\t// in\n    tag_52:\n        /* \"contracts/YunaVaultRouter.sol\":144:1246  contract YunaVaultRouter is Ownable(msg.sender) {... */\n      dup1\n      sload\n      not(shl(0xa0, 0xff))\n      and\n      shl(0xa0, 0x01)\n      or\n      dup2\n      sstore\n      dup1\n      return\n    tag_21:\n      pop\n      pop\n      jumpi(tag_46, callvalue)\n      dup2\n      add(calldatasize, not(0x03))\n      slt\n      tag_46\n      jumpi\n      swap1\n      sload\n      swap1\n      mload\n      sub(shl(0xa0, 0x01), 0x01)\n      swap1\n      swap2\n      and\n      dup2\n      mstore\n      0x20\n      swap1\n      return\n    tag_19:\n      dup4\n      jumpi(tag_41, callvalue)\n      dup1\n      add(calldatasize, not(0x03))\n      slt\n      tag_41\n      jumpi\n        /* \"@openzeppelin/contracts/access/Ownable.sol\":1500:1562  modifier onlyOwner() {... */\n      tag_61\n      tag_2\n      jump\t// in\n    tag_61:\n        /* \"contracts/YunaVaultRouter.sol\":144:1246  contract YunaVaultRouter is Ownable(msg.sender) {... */\n      0x00\n      dup1\n      sload\n      not(sub(shl(0xa0, 0x01), 0x01))\n      dup2\n      and\n      dup3\n      sstore\n      sub(shl(0xa0, 0x01), 0x01)\n      and\n        /* \"@openzeppelin/contracts/access/Ownable.sol\":3052:3092  OwnershipTransferred(oldOwner, newOwner) */\n      0x8be0079c531659141344cd1fd0a4f28419497f9722a3daafe3b4186f6b6457e0\n        /* \"contracts/YunaVaultRouter.sol\":144:1246  contract YunaVaultRouter is Ownable(msg.sender) {... */\n      dup3\n      dup1\n        /* \"@openzeppelin/contracts/access/Ownable.sol\":3052:3092  OwnershipTransferred(oldOwner, newOwner) */\n      log3\n        /* \"contracts/YunaVaultRouter.sol\":144:1246  contract YunaVaultRouter is Ownable(msg.sender) {... */\n      dup1\n      return\n    tag_17:\n      dup4\n      jumpi(tag_41, callvalue)\n      jumpi(tag_41, slt(add(not(0x03), calldatasize), 0x20))\n      tag_66\n      tag_1\n      jump\t// in\n    tag_66:\n        /* \"@openzeppelin/contracts/access/Ownable.sol\":1500:1562  modifier onlyOwner() {... */\n      tag_67\n      tag_2\n      jump\t// in\n    tag_67:\n        /* \"contracts/YunaVaultRouter.sol\":144:1246  contract YunaVaultRouter is Ownable(msg.sender) {... */\n      0x01\n      dup1\n      0xa0\n      shl\n      sub\n      and\n      and(sload(0x01), shl(0xa0, 0xffffffffffffffffffffffff))\n      or\n      0x01\n      sstore\n      dup1\n      return\n    tag_15:\n      pop\n      swap1\n      jumpi(tag_33, callvalue)\n      dup1\n      add(calldatasize, not(0x03))\n      slt\n      tag_33\n      jumpi\n      tag_72\n      tag_1\n      jump\t// in\n    tag_72:\n      sub(shl(0xa0, 0x01), 0x01)\n      swap1\n      calldataload(0x24)\n      dup3\n      dup2\n      and\n      swap2\n      swap1\n      dup3\n      swap1\n      sub\n      tag_73\n      jumpi\n      0x24\n      0x20\n      swap3\n      dup6\n      mload\n      swap5\n      dup6\n      swap4\n      dup5\n      swap3\n      shl(0xe2, 0x18e521fd)\n        /* \"contracts/YunaVaultRouter.sol\":920:947  IVault(vault).getXP(holder) */\n      dup5\n      mstore\n      dup10\n      dup5\n      add\n        /* \"contracts/YunaVaultRouter.sol\":144:1246  contract YunaVaultRouter is Ownable(msg.sender) {... */\n      mstore\n      and\n        /* \"contracts/YunaVaultRouter.sol\":920:947  IVault(vault).getXP(holder) */\n      gas\n      staticcall\n      swap3\n      dup4\n      iszero\n      tag_75\n      jumpi\n      dup5\n      swap4\n      tag_77\n      jumpi\n        /* \"contracts/YunaVaultRouter.sol\":144:1246  contract YunaVaultRouter is Ownable(msg.sender) {... */\n    tag_78:\n      0x20\n      dup5\n      dup5\n      mload\n      swap1\n      dup2\n      mstore\n      return\n        /* \"contracts/YunaVaultRouter.sol\":920:947  IVault(vault).getXP(holder) */\n    tag_77:\n      swap1\n      swap2\n      swap3\n      pop\n        /* \"contracts/YunaVaultRouter.sol\":144:1246  contract YunaVaultRouter is Ownable(msg.sender) {... */\n      0x20\n        /* \"contracts/YunaVaultRouter.sol\":920:947  IVault(vault).getXP(holder) */\n      swap1\n      returndatasize\n      dup3\n      gt\n      tag_79\n      jumpi\n    tag_80:\n        /* \"contracts/YunaVaultRouter.sol\":144:1246  contract YunaVaultRouter is Ownable(msg.sender) {... */\n      0x1f\n      dup3\n      add\n      not(0x1f)\n      and\n      dup4\n      add\n      swap1\n      0xffffffffffffffff\n      dup3\n      gt\n      dup5\n      dup4\n      lt\n      or\n      tag_81\n      jumpi\n      pop\n      0x20\n      swap2\n      dup4\n      swap2\n      dup6\n      mstore\n        /* \"contracts/YunaVaultRouter.sol\":920:947  IVault(vault).getXP(holder) */\n      dup2\n      add\n        /* \"contracts/YunaVaultRouter.sol\":144:1246  contract YunaVaultRouter is Ownable(msg.sender) {... */\n      sub\n      slt\n      tag_33\n      jumpi\n      0x20\n      swap3\n      pop\n      mload\n        /* \"contracts/YunaVaultRouter.sol\":920:947  IVault(vault).getXP(holder) */\n      swap1\n      0x00\n      dup1\n      jump(tag_78)\n        /* \"contracts/YunaVaultRouter.sol\":144:1246  contract YunaVaultRouter is Ownable(msg.sender) {... */\n    tag_81:\n      0x41\n      swap1\n      mstore(0x00, shl(0xe0, 0x4e487b71))\n      mstore\n      revert(0x00, 0x24)\n        /* \"contracts/YunaVaultRouter.sol\":920:947  IVault(vault).getXP(holder) */\n    tag_79:\n      returndatasize\n      swap2\n      pop\n      jump(tag_80)\n    tag_75:\n        /* \"contracts/YunaVaultRouter.sol\":144:1246  contract YunaVaultRouter is Ownable(msg.sender) {... */\n      dup3\n      mload\n      returndatasize\n      dup7\n      dup3\n      returndatacopy\n      returndatasize\n      swap1\n      revert\n    tag_73:\n      0x00\n      dup1\n      revert\n    tag_13:\n      pop\n      pop\n      jumpi(tag_46, callvalue)\n      dup2\n      add(calldatasize, not(0x03))\n      slt\n      tag_46\n      jumpi\n      0xff\n      0x20\n      swap3\n      sload\n      0xa0\n      shr\n      and\n      swap1\n      mload\n      swap1\n      iszero\n      iszero\n      dup2\n      mstore\n      return\n    tag_11:\n      swap3\n      swap1\n      pop\n      jumpi(tag_91, callvalue)\n      jumpi(tag_91, slt(add(not(0x03), calldatasize), 0x60))\n      tag_93\n      tag_1\n      jump\t// in\n    tag_93:\n        /* \"contracts/YunaVaultRouter.sol\":315:361  require(isRouterEnabled, \"Router is disabled\") */\n      tag_94\n        /* \"contracts/YunaVaultRouter.sol\":144:1246  contract YunaVaultRouter is Ownable(msg.sender) {... */\n      0xff\n      dup6\n      sload\n      0xa0\n      shr\n      and\n        /* \"contracts/YunaVaultRouter.sol\":315:361  require(isRouterEnabled, \"Router is disabled\") */\n      tag_3\n      jump\t// in\n    tag_94:\n      sub(shl(0xa0, 0x01), 0x01)\n        /* \"contracts/YunaVaultRouter.sol\":144:1246  contract YunaVaultRouter is Ownable(msg.sender) {... */\n      and\n      swap2\n        /* \"contracts/YunaVaultRouter.sol\":507:549  IVault(vault).stake(amount, blocksToStake) */\n      dup3\n      extcodesize\n      iszero\n      tag_95\n      jumpi\n        /* \"contracts/YunaVaultRouter.sol\":144:1246  contract YunaVaultRouter is Ownable(msg.sender) {... */\n      dup4\n      swap3\n      0x44\n      dup5\n      swap3\n      dup5\n      mload\n      swap6\n      dup7\n      swap4\n      dup5\n      swap3\n      shl(0xe4, 0x07b0472f)\n        /* \"contracts/YunaVaultRouter.sol\":507:549  IVault(vault).stake(amount, blocksToStake) */\n      dup5\n      mstore\n        /* \"contracts/YunaVaultRouter.sol\":144:1246  contract YunaVaultRouter is Ownable(msg.sender) {... */\n      calldataload(0x24)\n        /* \"contracts/YunaVaultRouter.sol\":507:549  IVault(vault).stake(amount, blocksToStake) */\n      swap1\n      dup5\n      add\n        /* \"contracts/YunaVaultRouter.sol\":144:1246  contract YunaVaultRouter is Ownable(msg.sender) {... */\n      mstore\n      dup4\n      calldataload\n      0x24\n      dup5\n      add\n      mstore\n        /* \"contracts/YunaVaultRouter.sol\":507:549  IVault(vault).stake(amount, blocksToStake) */\n      gas\n      call\n      swap1\n      dup2\n      iszero\n      tag_97\n      jumpi\n      pop\n      tag_99\n      jumpi\n        /* \"contracts/YunaVaultRouter.sol\":144:1246  contract YunaVaultRouter is Ownable(msg.sender) {... */\n      pop\n      return\n        /* \"contracts/YunaVaultRouter.sol\":507:549  IVault(vault).stake(amount, blocksToStake) */\n    tag_99:\n      tag_101\n      swap1\n      tag_4\n      jump\t// in\n    tag_101:\n        /* \"contracts/YunaVaultRouter.sol\":144:1246  contract YunaVaultRouter is Ownable(msg.sender) {... */\n      tag_41\n      jumpi\n        /* \"contracts/YunaVaultRouter.sol\":507:549  IVault(vault).stake(amount, blocksToStake) */\n      dup1\n        /* \"contracts/YunaVaultRouter.sol\":144:1246  contract YunaVaultRouter is Ownable(msg.sender) {... */\n      return\n        /* \"contracts/YunaVaultRouter.sol\":507:549  IVault(vault).stake(amount, blocksToStake) */\n    tag_97:\n        /* \"contracts/YunaVaultRouter.sol\":144:1246  contract YunaVaultRouter is Ownable(msg.sender) {... */\n      mload\n      returndatasize\n      dup5\n      dup3\n      returndatacopy\n      returndatasize\n      swap1\n      revert\n        /* \"contracts/YunaVaultRouter.sol\":507:549  IVault(vault).stake(amount, blocksToStake) */\n    tag_95:\n        /* \"contracts/YunaVaultRouter.sol\":144:1246  contract YunaVaultRouter is Ownable(msg.sender) {... */\n      pop\n      pop\n      pop\n      revert\n    tag_91:\n      pop\n      pop\n      revert\n    tag_9:\n      swap3\n      swap1\n      pop\n      jumpi(tag_91, callvalue)\n      jumpi(tag_91, slt(add(not(0x03), calldatasize), 0x20))\n      tag_108\n      tag_1\n      jump\t// in\n    tag_108:\n        /* \"contracts/YunaVaultRouter.sol\":315:361  require(isRouterEnabled, \"Router is disabled\") */\n      tag_109\n        /* \"contracts/YunaVaultRouter.sol\":144:1246  contract YunaVaultRouter is Ownable(msg.sender) {... */\n      0xff\n      dup6\n      sload\n      0xa0\n      shr\n      and\n        /* \"contracts/YunaVaultRouter.sol\":315:361  require(isRouterEnabled, \"Router is disabled\") */\n      tag_3\n      jump\t// in\n    tag_109:\n      sub(shl(0xa0, 0x01), 0x01)\n        /* \"contracts/YunaVaultRouter.sol\":144:1246  contract YunaVaultRouter is Ownable(msg.sender) {... */\n      and\n      swap2\n        /* \"contracts/YunaVaultRouter.sol\":776:799  IVault(vault).release() */\n      dup3\n      extcodesize\n      iszero\n      tag_95\n      jumpi\n        /* \"contracts/YunaVaultRouter.sol\":144:1246  contract YunaVaultRouter is Ownable(msg.sender) {... */\n      dup2\n      mload\n      shl(0xe0, 0x86d1a69f)\n        /* \"contracts/YunaVaultRouter.sol\":776:799  IVault(vault).release() */\n      dup2\n      mstore\n        /* \"contracts/YunaVaultRouter.sol\":144:1246  contract YunaVaultRouter is Ownable(msg.sender) {... */\n      swap3\n      dup5\n      swap2\n      dup5\n      swap2\n      dup3\n      swap1\n      dup5\n      swap1\n        /* \"contracts/YunaVaultRouter.sol\":776:799  IVault(vault).release() */\n      gas\n      call\n      swap1\n      dup2\n      iszero\n      tag_97\n      jumpi\n      pop\n      tag_99\n      jumpi\n        /* \"contracts/YunaVaultRouter.sol\":144:1246  contract YunaVaultRouter is Ownable(msg.sender) {... */\n      pop\n      return\n    tag_7:\n      dup1\n      dup5\n      dup5\n      jumpi(tag_91, callvalue)\n      jumpi(tag_91, slt(add(not(0x03), calldatasize), 0x20))\n      tag_123\n      tag_1\n      jump\t// in\n    tag_123:\n        /* \"contracts/YunaVaultRouter.sol\":315:361  require(isRouterEnabled, \"Router is disabled\") */\n      tag_124\n        /* \"contracts/YunaVaultRouter.sol\":144:1246  contract YunaVaultRouter is Ownable(msg.sender) {... */\n      0xff\n      dup6\n      sload\n      0xa0\n      shr\n      and\n        /* \"contracts/YunaVaultRouter.sol\":315:361  require(isRouterEnabled, \"Router is disabled\") */\n      tag_3\n      jump\t// in\n    tag_124:\n      sub(shl(0xa0, 0x01), 0x01)\n        /* \"contracts/YunaVaultRouter.sol\":144:1246  contract YunaVaultRouter is Ownable(msg.sender) {... */\n      and\n        /* \"contracts/YunaVaultRouter.sol\":651:677  IVault(vault).releaseAll() */\n      dup1\n      extcodesize\n      iszero\n      tag_95\n      jumpi\n        /* \"contracts/YunaVaultRouter.sol\":144:1246  contract YunaVaultRouter is Ownable(msg.sender) {... */\n      dup4\n      swap2\n      dup4\n      mload\n      dup1\n      swap6\n      dup2\n      swap4\n      shl(0xe3, 0x0b7cffbd)\n        /* \"contracts/YunaVaultRouter.sol\":651:677  IVault(vault).releaseAll() */\n      dup4\n      mstore\n      gas\n      call\n      swap1\n      dup2\n      iszero\n      tag_97\n      jumpi\n      pop\n      tag_129\n      jumpi\n        /* \"contracts/YunaVaultRouter.sol\":144:1246  contract YunaVaultRouter is Ownable(msg.sender) {... */\n      pop\n      dup1\n      return\n        /* \"contracts/YunaVaultRouter.sol\":651:677  IVault(vault).releaseAll() */\n    tag_129:\n      tag_131\n      swap1\n      tag_4\n      jump\t// in\n    tag_131:\n        /* \"contracts/YunaVaultRouter.sol\":144:1246  contract YunaVaultRouter is Ownable(msg.sender) {... */\n      dup1\n      return\n    tag_1:\n      calldataload(0x04)\n      swap1\n      sub(shl(0xa0, 0x01), 0x01)\n      dup3\n      and\n      dup3\n      sub\n      tag_73\n      jumpi\n      jump\t// out\n        /* \"@openzeppelin/contracts/access/Ownable.sol\":1796:1958  function _checkOwner() internal view virtual {... */\n    tag_2:\n        /* \"@openzeppelin/contracts/access/Ownable.sol\":1710:1716  _owner */\n      0x00\n        /* \"contracts/YunaVaultRouter.sol\":144:1246  contract YunaVaultRouter is Ownable(msg.sender) {... */\n      sload\n      sub(shl(0xa0, 0x01), 0x01)\n      and\n        /* \"@openzeppelin/contracts/utils/Context.sol\":735:745  msg.sender */\n      caller\n        /* \"@openzeppelin/contracts/access/Ownable.sol\":1855:1878  owner() != _msgSender() */\n      sub\n        /* \"@openzeppelin/contracts/access/Ownable.sol\":1851:1952  if (owner() != _msgSender()) {... */\n      tag_134\n      jumpi\n        /* \"@openzeppelin/contracts/access/Ownable.sol\":1796:1958  function _checkOwner() internal view virtual {... */\n      jump\t// out\n        /* \"@openzeppelin/contracts/access/Ownable.sol\":1851:1952  if (owner() != _msgSender()) {... */\n    tag_134:\n        /* \"contracts/YunaVaultRouter.sol\":144:1246  contract YunaVaultRouter is Ownable(msg.sender) {... */\n      mload(0x40)\n      shl(0xe0, 0x118cdaa7)\n        /* \"@openzeppelin/contracts/access/Ownable.sol\":1901:1941  OwnableUnauthorizedAccount(_msgSender()) */\n      dup2\n      mstore\n        /* \"@openzeppelin/contracts/utils/Context.sol\":735:745  msg.sender */\n      caller\n        /* \"@openzeppelin/contracts/access/Ownable.sol\":1901:1941  OwnableUnauthorizedAccount(_msgSender()) */\n      0x04\n      dup3\n      add\n        /* \"contracts/YunaVaultRouter.sol\":144:1246  contract YunaVaultRouter is Ownable(msg.sender) {... */\n      mstore\n      0x24\n      swap1\n        /* \"@openzeppelin/contracts/access/Ownable.sol\":1901:1941  OwnableUnauthorizedAccount(_msgSender()) */\n      revert\n        /* \"contracts/YunaVaultRouter.sol\":144:1246  contract YunaVaultRouter is Ownable(msg.sender) {... */\n    tag_3:\n      iszero\n      tag_136\n      jumpi\n      jump\t// out\n    tag_136:\n      mload(0x40)\n      shl(0xe5, 0x461bcd)\n      dup2\n      mstore\n      0x20\n      0x04\n      dup3\n      add\n      mstore\n      0x12\n      0x24\n      dup3\n      add\n      mstore\n      shl(0x72, 0x149bdd5d195c881a5cc8191a5cd8589b1959)\n      0x44\n      dup3\n      add\n      mstore\n      0x64\n      swap1\n      revert\n    tag_4:\n      0xffffffffffffffff\n      dup2\n      gt\n      tag_138\n      jumpi\n      0x40\n      mstore\n      jump\t// out\n    tag_138:\n      mstore(0x00, shl(0xe0, 0x4e487b71))\n      mstore(0x04, 0x41)\n      revert(0x00, 0x24)\n\n    auxdata: 0xa2646970667358221220caeb4efb28d04e978b9142d7269f0f742aff5608f78ab67af57afc523dfc2a9064736f6c63430008140033\n}\n",
				"bytecode": {
					"linkReferences": {},
					"object": "6080806040523461008457331561006f575f80546040519133906001600160a01b038316907f8be0079c531659141344cd1fd0a4f28419497f9722a3daafe3b4186f6b6457e09080a36001600160a81b0319163360ff60a01b191617600160a01b175f556105c290816100898239f35b631e4fbdf760e01b81525f6004820152602490fd5b5f80fdfe60406080815260049081361015610014575f80fd5b5f91823560e01c83816311c1d3851461047657816331339958146104135781634d19a8621461037e57508063551972411461035957806358354a7c1461027f5780635bb478081461023a578063715018a6146101e15780638da5cb5b146101b9578063b0f07f151461018c578063c45a01551461015f578063d858a7e5146101345763f2fde38b146100a4575f80fd5b34610130576020366003190112610130576100bd6104e2565b906100c66104f8565b6001600160a01b0391821692831561011a5750505f54826bffffffffffffffffffffffff60a01b8216175f55167f8be0079c531659141344cd1fd0a4f28419497f9722a3daafe3b4186f6b6457e05f80a380f35b51631e4fbdf760e01b8152908101849052602490fd5b8280fd5b833461015c578060031936011261015c5761014d6104f8565b5f805460ff60a01b1916905580f35b80fd5b50503461018857816003193601126101885760015490516001600160a01b039091168152602090f35b5080fd5b833461015c578060031936011261015c576101a56104f8565b805460ff60a01b1916600160a01b17815580f35b505034610188578160031936011261018857905490516001600160a01b039091168152602090f35b833461015c578060031936011261015c576101fa6104f8565b5f80546001600160a01b0319811682556001600160a01b03167f8be0079c531659141344cd1fd0a4f28419497f9722a3daafe3b4186f6b6457e08280a380f35b833461015c57602036600319011261015c576102546104e2565b61025c6104f8565b60018060a01b03166bffffffffffffffffffffffff60a01b600154161760015580f35b5090346101305780600319360112610130576102996104e2565b6001600160a01b03906024358281169190829003610355576024602092855194859384926318e521fd60e21b845289840152165afa92831561034b5784936102e6575b6020848451908152f35b909192506020903d8211610343575b601f8201601f191683019067ffffffffffffffff82118483101761033057506020918391855281010312610130576020925051905f806102dc565b604190634e487b7160e01b5f525260245ffd5b3d91506102f5565b82513d86823e3d90fd5b5f80fd5b50503461018857816003193601126101885760ff6020925460a01c1690519015158152f35b9290503461040f57606036600319011261040f5761039a6104e2565b6103aa60ff855460a01c16610523565b6001600160a01b031691823b1561040a57839260448492845195869384926307b0472f60e41b845260243590840152833560248401525af190811561040157506103f15750f35b6103fa90610564565b61015c5780f35b513d84823e3d90fd5b505050fd5b5050fd5b9290503461040f57602036600319011261040f5761042f6104e2565b61043f60ff855460a01c16610523565b6001600160a01b031691823b1561040a5781516386d1a69f60e01b81529284918491829084905af190811561040157506103f15750f35b8084843461040f57602036600319011261040f576104926104e2565b6104a260ff855460a01c16610523565b6001600160a01b0316803b1561040a578391835180958193630b7cffbd60e31b83525af190811561040157506104d6575080f35b6104df90610564565b80f35b600435906001600160a01b038216820361035557565b5f546001600160a01b0316330361050b57565b60405163118cdaa760e01b8152336004820152602490fd5b1561052a57565b60405162461bcd60e51b8152602060048201526012602482015271149bdd5d195c881a5cc8191a5cd8589b195960721b6044820152606490fd5b67ffffffffffffffff811161057857604052565b634e487b7160e01b5f52604160045260245ffdfea2646970667358221220caeb4efb28d04e978b9142d7269f0f742aff5608f78ab67af57afc523dfc2a9064736f6c63430008140033",
					"opcodes": "PUSH1 0x80 DUP1 PUSH1 0x40 MSTORE CALLVALUE PUSH2 0x84 JUMPI CALLER ISZERO PUSH2 0x6F JUMPI PUSH0 DUP1 SLOAD PUSH1 0x40 MLOAD SWAP2 CALLER SWAP1 PUSH1 0x1 PUSH1 0x1 PUSH1 0xA0 SHL SUB DUP4 AND SWAP1 PUSH32 0x8BE0079C531659141344CD1FD0A4F28419497F9722A3DAAFE3B4186F6B6457E0 SWAP1 DUP1 LOG3 PUSH1 0x1 PUSH1 0x1 PUSH1 0xA8 SHL SUB NOT AND CALLER PUSH1 0xFF PUSH1 0xA0 SHL NOT AND OR PUSH1 0x1 PUSH1 0xA0 SHL OR PUSH0 SSTORE PUSH2 0x5C2 SWAP1 DUP2 PUSH2 0x89 DUP3 CODECOPY RETURN JUMPDEST PUSH4 0x1E4FBDF7 PUSH1 0xE0 SHL DUP2 MSTORE PUSH0 PUSH1 0x4 DUP3 ADD MSTORE PUSH1 0x24 SWAP1 REVERT JUMPDEST PUSH0 DUP1 REVERT INVALID PUSH1 0x40 PUSH1 0x80 DUP2 MSTORE PUSH1 0x4 SWAP1 DUP2 CALLDATASIZE LT ISZERO PUSH2 0x14 JUMPI PUSH0 DUP1 REVERT JUMPDEST PUSH0 SWAP2 DUP3 CALLDATALOAD PUSH1 0xE0 SHR DUP4 DUP2 PUSH4 0x11C1D385 EQ PUSH2 0x476 JUMPI DUP2 PUSH4 0x31339958 EQ PUSH2 0x413 JUMPI DUP2 PUSH4 0x4D19A862 EQ PUSH2 0x37E JUMPI POP DUP1 PUSH4 0x55197241 EQ PUSH2 0x359 JUMPI DUP1 PUSH4 0x58354A7C EQ PUSH2 0x27F JUMPI DUP1 PUSH4 0x5BB47808 EQ PUSH2 0x23A JUMPI DUP1 PUSH4 0x715018A6 EQ PUSH2 0x1E1 JUMPI DUP1 PUSH4 0x8DA5CB5B EQ PUSH2 0x1B9 JUMPI DUP1 PUSH4 0xB0F07F15 EQ PUSH2 0x18C JUMPI DUP1 PUSH4 0xC45A0155 EQ PUSH2 0x15F JUMPI DUP1 PUSH4 0xD858A7E5 EQ PUSH2 0x134 JUMPI PUSH4 0xF2FDE38B EQ PUSH2 0xA4 JUMPI PUSH0 DUP1 REVERT JUMPDEST CALLVALUE PUSH2 0x130 JUMPI PUSH1 0x20 CALLDATASIZE PUSH1 0x3 NOT ADD SLT PUSH2 0x130 JUMPI PUSH2 0xBD PUSH2 0x4E2 JUMP JUMPDEST SWAP1 PUSH2 0xC6 PUSH2 0x4F8 JUMP JUMPDEST PUSH1 0x1 PUSH1 0x1 PUSH1 0xA0 SHL SUB SWAP2 DUP3 AND SWAP3 DUP4 ISZERO PUSH2 0x11A JUMPI POP POP PUSH0 SLOAD DUP3 PUSH12 0xFFFFFFFFFFFFFFFFFFFFFFFF PUSH1 0xA0 SHL DUP3 AND OR PUSH0 SSTORE AND PUSH32 0x8BE0079C531659141344CD1FD0A4F28419497F9722A3DAAFE3B4186F6B6457E0 PUSH0 DUP1 LOG3 DUP1 RETURN JUMPDEST MLOAD PUSH4 0x1E4FBDF7 PUSH1 0xE0 SHL DUP2 MSTORE SWAP1 DUP2 ADD DUP5 SWAP1 MSTORE PUSH1 0x24 SWAP1 REVERT JUMPDEST DUP3 DUP1 REVERT JUMPDEST DUP4 CALLVALUE PUSH2 0x15C JUMPI DUP1 PUSH1 0x3 NOT CALLDATASIZE ADD SLT PUSH2 0x15C JUMPI PUSH2 0x14D PUSH2 0x4F8 JUMP JUMPDEST PUSH0 DUP1 SLOAD PUSH1 0xFF PUSH1 0xA0 SHL NOT AND SWAP1 SSTORE DUP1 RETURN JUMPDEST DUP1 REVERT JUMPDEST POP POP CALLVALUE PUSH2 0x188 JUMPI DUP2 PUSH1 0x3 NOT CALLDATASIZE ADD SLT PUSH2 0x188 JUMPI PUSH1 0x1 SLOAD SWAP1 MLOAD PUSH1 0x1 PUSH1 0x1 PUSH1 0xA0 SHL SUB SWAP1 SWAP2 AND DUP2 MSTORE PUSH1 0x20 SWAP1 RETURN JUMPDEST POP DUP1 REVERT JUMPDEST DUP4 CALLVALUE PUSH2 0x15C JUMPI DUP1 PUSH1 0x3 NOT CALLDATASIZE ADD SLT PUSH2 0x15C JUMPI PUSH2 0x1A5 PUSH2 0x4F8 JUMP JUMPDEST DUP1 SLOAD PUSH1 0xFF PUSH1 0xA0 SHL NOT AND PUSH1 0x1 PUSH1 0xA0 SHL OR DUP2 SSTORE DUP1 RETURN JUMPDEST POP POP CALLVALUE PUSH2 0x188 JUMPI DUP2 PUSH1 0x3 NOT CALLDATASIZE ADD SLT PUSH2 0x188 JUMPI SWAP1 SLOAD SWAP1 MLOAD PUSH1 0x1 PUSH1 0x1 PUSH1 0xA0 SHL SUB SWAP1 SWAP2 AND DUP2 MSTORE PUSH1 0x20 SWAP1 RETURN JUMPDEST DUP4 CALLVALUE PUSH2 0x15C JUMPI DUP1 PUSH1 0x3 NOT CALLDATASIZE ADD SLT PUSH2 0x15C JUMPI PUSH2 0x1FA PUSH2 0x4F8 JUMP JUMPDEST PUSH0 DUP1 SLOAD PUSH1 0x1 PUSH1 0x1 PUSH1 0xA0 SHL SUB NOT DUP2 AND DUP3 SSTORE PUSH1 0x1 PUSH1 0x1 PUSH1 0xA0 SHL SUB AND PUSH32 0x8BE0079C531659141344CD1FD0A4F28419497F9722A3DAAFE3B4186F6B6457E0 DUP3 DUP1 LOG3 DUP1 RETURN JUMPDEST DUP4 CALLVALUE PUSH2 0x15C JUMPI PUSH1 0x20 CALLDATASIZE PUSH1 0x3 NOT ADD SLT PUSH2 0x15C JUMPI PUSH2 0x254 PUSH2 0x4E2 JUMP JUMPDEST PUSH2 0x25C PUSH2 0x4F8 JUMP JUMPDEST PUSH1 0x1 DUP1 PUSH1 0xA0 SHL SUB AND PUSH12 0xFFFFFFFFFFFFFFFFFFFFFFFF PUSH1 0xA0 SHL PUSH1 0x1 SLOAD AND OR PUSH1 0x1 SSTORE DUP1 RETURN JUMPDEST POP SWAP1 CALLVALUE PUSH2 0x130 JUMPI DUP1 PUSH1 0x3 NOT CALLDATASIZE ADD SLT PUSH2 0x130 JUMPI PUSH2 0x299 PUSH2 0x4E2 JUMP JUMPDEST PUSH1 0x1 PUSH1 0x1 PUSH1 0xA0 SHL SUB SWAP1 PUSH1 0x24 CALLDATALOAD DUP3 DUP2 AND SWAP2 SWAP1 DUP3 SWAP1 SUB PUSH2 0x355 JUMPI PUSH1 0x24 PUSH1 0x20 SWAP3 DUP6 MLOAD SWAP5 DUP6 SWAP4 DUP5 SWAP3 PUSH4 0x18E521FD PUSH1 0xE2 SHL DUP5 MSTORE DUP10 DUP5 ADD MSTORE AND GAS STATICCALL SWAP3 DUP4 ISZERO PUSH2 0x34B JUMPI DUP5 SWAP4 PUSH2 0x2E6 JUMPI JUMPDEST PUSH1 0x20 DUP5 DUP5 MLOAD SWAP1 DUP2 MSTORE RETURN JUMPDEST SWAP1 SWAP2 SWAP3 POP PUSH1 0x20 SWAP1 RETURNDATASIZE DUP3 GT PUSH2 0x343 JUMPI JUMPDEST PUSH1 0x1F DUP3 ADD PUSH1 0x1F NOT AND DUP4 ADD SWAP1 PUSH8 0xFFFFFFFFFFFFFFFF DUP3 GT DUP5 DUP4 LT OR PUSH2 0x330 JUMPI POP PUSH1 0x20 SWAP2 DUP4 SWAP2 DUP6 MSTORE DUP2 ADD SUB SLT PUSH2 0x130 JUMPI PUSH1 0x20 SWAP3 POP MLOAD SWAP1 PUSH0 DUP1 PUSH2 0x2DC JUMP JUMPDEST PUSH1 0x41 SWAP1 PUSH4 0x4E487B71 PUSH1 0xE0 SHL PUSH0 MSTORE MSTORE PUSH1 0x24 PUSH0 REVERT JUMPDEST RETURNDATASIZE SWAP2 POP PUSH2 0x2F5 JUMP JUMPDEST DUP3 MLOAD RETURNDATASIZE DUP7 DUP3 RETURNDATACOPY RETURNDATASIZE SWAP1 REVERT JUMPDEST PUSH0 DUP1 REVERT JUMPDEST POP POP CALLVALUE PUSH2 0x188 JUMPI DUP2 PUSH1 0x3 NOT CALLDATASIZE ADD SLT PUSH2 0x188 JUMPI PUSH1 0xFF PUSH1 0x20 SWAP3 SLOAD PUSH1 0xA0 SHR AND SWAP1 MLOAD SWAP1 ISZERO ISZERO DUP2 MSTORE RETURN JUMPDEST SWAP3 SWAP1 POP CALLVALUE PUSH2 0x40F JUMPI PUSH1 0x60 CALLDATASIZE PUSH1 0x3 NOT ADD SLT PUSH2 0x40F JUMPI PUSH2 0x39A PUSH2 0x4E2 JUMP JUMPDEST PUSH2 0x3AA PUSH1 0xFF DUP6 SLOAD PUSH1 0xA0 SHR AND PUSH2 0x523 JUMP JUMPDEST PUSH1 0x1 PUSH1 0x1 PUSH1 0xA0 SHL SUB AND SWAP2 DUP3 EXTCODESIZE ISZERO PUSH2 0x40A JUMPI DUP4 SWAP3 PUSH1 0x44 DUP5 SWAP3 DUP5 MLOAD SWAP6 DUP7 SWAP4 DUP5 SWAP3 PUSH4 0x7B0472F PUSH1 0xE4 SHL DUP5 MSTORE PUSH1 0x24 CALLDATALOAD SWAP1 DUP5 ADD MSTORE DUP4 CALLDATALOAD PUSH1 0x24 DUP5 ADD MSTORE GAS CALL SWAP1 DUP2 ISZERO PUSH2 0x401 JUMPI POP PUSH2 0x3F1 JUMPI POP RETURN JUMPDEST PUSH2 0x3FA SWAP1 PUSH2 0x564 JUMP JUMPDEST PUSH2 0x15C JUMPI DUP1 RETURN JUMPDEST MLOAD RETURNDATASIZE DUP5 DUP3 RETURNDATACOPY RETURNDATASIZE SWAP1 REVERT JUMPDEST POP POP POP REVERT JUMPDEST POP POP REVERT JUMPDEST SWAP3 SWAP1 POP CALLVALUE PUSH2 0x40F JUMPI PUSH1 0x20 CALLDATASIZE PUSH1 0x3 NOT ADD SLT PUSH2 0x40F JUMPI PUSH2 0x42F PUSH2 0x4E2 JUMP JUMPDEST PUSH2 0x43F PUSH1 0xFF DUP6 SLOAD PUSH1 0xA0 SHR AND PUSH2 0x523 JUMP JUMPDEST PUSH1 0x1 PUSH1 0x1 PUSH1 0xA0 SHL SUB AND SWAP2 DUP3 EXTCODESIZE ISZERO PUSH2 0x40A JUMPI DUP2 MLOAD PUSH4 0x86D1A69F PUSH1 0xE0 SHL DUP2 MSTORE SWAP3 DUP5 SWAP2 DUP5 SWAP2 DUP3 SWAP1 DUP5 SWAP1 GAS CALL SWAP1 DUP2 ISZERO PUSH2 0x401 JUMPI POP PUSH2 0x3F1 JUMPI POP RETURN JUMPDEST DUP1 DUP5 DUP5 CALLVALUE PUSH2 0x40F JUMPI PUSH1 0x20 CALLDATASIZE PUSH1 0x3 NOT ADD SLT PUSH2 0x40F JUMPI PUSH2 0x492 PUSH2 0x4E2 JUMP JUMPDEST PUSH2 0x4A2 PUSH1 0xFF DUP6 SLOAD PUSH1 0xA0 SHR AND PUSH2 0x523 JUMP JUMPDEST PUSH1 0x1 PUSH1 0x1 PUSH1 0xA0 SHL SUB AND DUP1 EXTCODESIZE ISZERO PUSH2 0x40A JUMPI DUP4 SWAP2 DUP4 MLOAD DUP1 SWAP6 DUP2 SWAP4 PUSH4 0xB7CFFBD PUSH1 0xE3 SHL DUP4 MSTORE GAS CALL SWAP1 DUP2 ISZERO PUSH2 0x401 JUMPI POP PUSH2 0x4D6 JUMPI POP DUP1 RETURN JUMPDEST PUSH2 0x4DF SWAP1 PUSH2 0x564 JUMP JUMPDEST DUP1 RETURN JUMPDEST PUSH1 0x4 CALLDATALOAD SWAP1 PUSH1 0x1 PUSH1 0x1 PUSH1 0xA0 SHL SUB DUP3 AND DUP3 SUB PUSH2 0x355 JUMPI JUMP JUMPDEST PUSH0 SLOAD PUSH1 0x1 PUSH1 0x1 PUSH1 0xA0 SHL SUB AND CALLER SUB PUSH2 0x50B JUMPI JUMP JUMPDEST PUSH1 0x40 MLOAD PUSH4 0x118CDAA7 PUSH1 0xE0 SHL DUP2 MSTORE CALLER PUSH1 0x4 DUP3 ADD MSTORE PUSH1 0x24 SWAP1 REVERT JUMPDEST ISZERO PUSH2 0x52A JUMPI JUMP JUMPDEST PUSH1 0x40 MLOAD PUSH3 0x461BCD PUSH1 0xE5 SHL DUP2 MSTORE PUSH1 0x20 PUSH1 0x4 DUP3 ADD MSTORE PUSH1 0x12 PUSH1 0x24 DUP3 ADD MSTORE PUSH18 0x149BDD5D195C881A5CC8191A5CD8589B1959 PUSH1 0x72 SHL PUSH1 0x44 DUP3 ADD MSTORE PUSH1 0x64 SWAP1 REVERT JUMPDEST PUSH8 0xFFFFFFFFFFFFFFFF DUP2 GT PUSH2 0x578 JUMPI PUSH1 0x40 MSTORE JUMP JUMPDEST PUSH4 0x4E487B71 PUSH1 0xE0 SHL PUSH0 MSTORE PUSH1 0x41 PUSH1 0x4 MSTORE PUSH1 0x24 PUSH0 REVERT INVALID LOG2 PUSH5 0x6970667358 0x22 SLT KECCAK256 0xCA 0xEB 0x4E 0xFB 0x28 0xD0 0x4E SWAP8 DUP12 SWAP2 TIMESTAMP 0xD7 0x26 SWAP16 0xF PUSH21 0x2AFF5608F78AB67AF57AFC523DFC2A9064736F6C63 NUMBER STOP ADDMOD EQ STOP CALLER "
				},
				"gasEstimates": {
					"creation": {
						"codeDepositCost": "294800",
						"executionCost": "26169",
						"totalCost": "320969"
					},
					"external": {
						"disableRouter()": "26753",
						"enableRouter()": "26719",
						"factory()": "2495",
						"getXPFromVault(address,address)": "infinite",
						"isRouterEnabled()": "2357",
						"owner()": "2451",
						"releaseAllFromVault(address)": "infinite",
						"releaseFromVault(address)": "infinite",
						"renounceOwnership()": "28201",
						"setFactory(address)": "26732",
						"stakeToVault(address,uint256,uint256)": "infinite",
						"transferOwnership(address)": "28408"
					}
				},
				"methodIdentifiers": {
					"disableRouter()": "d858a7e5",
					"enableRouter()": "b0f07f15",
					"factory()": "c45a0155",
					"getXPFromVault(address,address)": "58354a7c",
					"isRouterEnabled()": "55197241",
					"owner()": "8da5cb5b",
					"releaseAllFromVault(address)": "11c1d385",
					"releaseFromVault(address)": "31339958",
					"renounceOwnership()": "715018a6",
					"setFactory(address)": "5bb47808",
					"stakeToVault(address,uint256,uint256)": "4d19a862",
					"transferOwnership(address)": "f2fde38b"
				}
			},
			"storageLayout": {
				"storage": [
					{
						"astId": 8,
						"contract": "contracts/YunaVaultRouter.sol:YunaVaultRouter",
						"label": "_owner",
						"offset": 0,
						"slot": "0",
						"type": "t_address"
					},
					{
						"astId": 2145,
						"contract": "contracts/YunaVaultRouter.sol:YunaVaultRouter",
						"label": "isRouterEnabled",
						"offset": 20,
						"slot": "0",
						"type": "t_bool"
					},
					{
						"astId": 2147,
						"contract": "contracts/YunaVaultRouter.sol:YunaVaultRouter",
						"label": "factory",
						"offset": 0,
						"slot": "1",
						"type": "t_address"
					}
				],
				"types": {
					"t_address": {
						"encoding": "inplace",
						"label": "address",
						"numberOfBytes": "20"
					},
					"t_bool": {
						"encoding": "inplace",
						"label": "bool",
						"numberOfBytes": "1"
					}
				}
			},
			"userdoc": {
				"kind": "user",
				"methods": {},
				"version": 1
			}
		}
	}
}