{
	"contracts/YunaNFT.sol": {
		"Airdrop": {
			"abi": [
				{
					"inputs": [],
					"stateMutability": "nonpayable",
					"type": "constructor"
				},
				{
					"anonymous": false,
					"inputs": [
						{
							"indexed": true,
							"internalType": "address",
							"name": "to",
							"type": "address"
						},
						{
							"indexed": false,
							"internalType": "uint256",
							"name": "amount",
							"type": "uint256"
						}
					],
					"name": "AirdropSent",
					"type": "event"
				},
				{
					"inputs": [
						{
							"internalType": "address",
							"name": "token",
							"type": "address"
						},
						{
							"internalType": "address[]",
							"name": "addresses",
							"type": "address[]"
						},
						{
							"internalType": "uint256[]",
							"name": "amounts",
							"type": "uint256[]"
						}
					],
					"name": "airdrop",
					"outputs": [],
					"stateMutability": "nonpayable",
					"type": "function"
				},
				{
					"inputs": [],
					"name": "owner",
					"outputs": [
						{
							"internalType": "address",
							"name": "",
							"type": "address"
						}
					],
					"stateMutability": "view",
					"type": "function"
				}
			],
			"devdoc": {
				"kind": "dev",
				"methods": {},
				"version": 1
			},
			"evm": {
				"assembly": "    /* \"contracts/YunaNFT.sol\":161:864  contract Airdrop {... */\n  0x80\n  dup1\n  0x40\n  mstore\n  jumpi(tag_1, callvalue)\n    /* \"contracts/YunaNFT.sol\":301:319  owner = msg.sender */\n  0x00\n    /* \"contracts/YunaNFT.sol\":161:864  contract Airdrop {... */\n  dup1\n  sload\n  not(sub(shl(0xa0, 0x01), 0x01))\n  and\n    /* \"contracts/YunaNFT.sol\":309:319  msg.sender */\n  caller\n    /* \"contracts/YunaNFT.sol\":161:864  contract Airdrop {... */\n  or\n  swap1\n  sstore\n  dataSize(sub_0)\n  swap1\n  dup2\n  dataOffset(sub_0)\n  dup3\n  codecopy\n  return\ntag_1:\n  0x00\n  dup1\n  revert\nstop\n\nsub_0: assembly {\n        /* \"contracts/YunaNFT.sol\":161:864  contract Airdrop {... */\n      0x80\n      0x40\n      dup2\n      dup2\n      mstore\n      0x04\n      swap2\n      dup3\n      calldatasize\n      lt\n      iszero\n      tag_4\n      jumpi\n      0x00\n      dup1\n      revert\n    tag_4:\n      0x00\n      swap3\n      dup4\n      calldataload\n      0xe0\n      shr\n      swap2\n      dup3\n      0x025ff12f\n      eq\n      tag_6\n      jumpi\n      pop\n      pop\n      0x8da5cb5b\n      eq\n      tag_8\n      jumpi\n      0x00\n      dup1\n      revert\n    tag_8:\n      jumpi(tag_12, callvalue)\n      dup2\n      add(calldatasize, not(0x03))\n      slt\n      tag_12\n      jumpi\n      swap1\n      sload\n      swap1\n      mload\n      sub(shl(0xa0, 0x01), 0x01)\n      swap1\n      swap2\n      and\n      dup2\n      mstore\n      0x20\n      swap1\n      return\n    tag_12:\n      pop\n      dup1\n      revert\n    tag_6:\n      dup4\n      dup6\n      swap2\n      jumpi(tag_16, callvalue)\n      jumpi(tag_16, slt(add(not(0x03), calldatasize), 0x60))\n      sub(shl(0xa0, 0x01), 0x01)\n      dup5\n      calldataload\n      dup2\n      dup2\n      and\n      swap6\n      swap2\n      swap4\n      swap1\n      dup7\n      swap1\n      sub\n      tag_18\n      jumpi\n      0x24\n      swap4\n      0xffffffffffffffff\n      swap4\n      dup6\n      calldataload\n      dup6\n      dup2\n      gt\n      tag_20\n      jumpi\n      tag_22\n      swap1\n      calldatasize\n      swap1\n      dup7\n      add\n      tag_1\n      jump\t// in\n    tag_22:\n      0x44\n      swap2\n      dup3\n      calldataload\n      dup9\n      dup2\n      gt\n      tag_23\n      jumpi\n      tag_25\n      swap1\n      calldatasize\n      swap1\n      dup10\n      add\n      tag_1\n      jump\t// in\n    tag_25:\n        /* \"contracts/YunaNFT.sol\":487:521  addresses.length == amounts.length */\n      swap4\n      swap1\n      swap5\n      dup5\n      dup5\n      sub\n        /* \"contracts/YunaNFT.sol\":161:864  contract Airdrop {... */\n      tag_26\n      jumpi\n        /* \"contracts/YunaNFT.sol\":605:618  uint256 i = 0 */\n      pop\n      dup11\n        /* \"contracts/YunaNFT.sol\":620:640  i < addresses.length */\n    tag_28:\n      dup4\n      dup2\n      lt\n      tag_29\n      jumpi\n        /* \"contracts/YunaNFT.sol\":161:864  contract Airdrop {... */\n      dup12\n      dup1\n      return\n        /* \"contracts/YunaNFT.sol\":642:645  i++ */\n    tag_29:\n        /* \"contracts/YunaNFT.sol\":703:715  addresses[i] */\n      dup12\n      dup7\n      dup15\n      dup11\n      dup15\n      dup14\n      dup13\n        /* \"contracts/YunaNFT.sol\":717:727  amounts[i] */\n      tag_31\n        /* \"contracts/YunaNFT.sol\":703:715  addresses[i] */\n      dup9\n      dup14\n      tag_32\n      tag_33\n      dup16\n      dup16\n      swap1\n      dup6\n      swap2\n      tag_2\n      jump\t// in\n    tag_33:\n      tag_3\n      jump\t// in\n    tag_32:\n        /* \"contracts/YunaNFT.sol\":717:727  amounts[i] */\n      swap9\n      tag_2\n      jump\t// in\n    tag_31:\n        /* \"contracts/YunaNFT.sol\":161:864  contract Airdrop {... */\n      calldataload\n      swap4\n      mload\n      swap6\n      shl(0xe0, 0xa9059cbb)\n        /* \"contracts/YunaNFT.sol\":688:728  erc20.transfer(addresses[i], amounts[i]) */\n      dup8\n      mstore\n        /* \"contracts/YunaNFT.sol\":161:864  contract Airdrop {... */\n      and\n        /* \"contracts/YunaNFT.sol\":688:728  erc20.transfer(addresses[i], amounts[i]) */\n      swap1\n      dup6\n      add\n        /* \"contracts/YunaNFT.sol\":161:864  contract Airdrop {... */\n      mstore\n      dup4\n      add\n      mstore\n      dup2\n      dup6\n      dup2\n      0x20\n        /* \"contracts/YunaNFT.sol\":688:728  erc20.transfer(addresses[i], amounts[i]) */\n      swap6\n      dup7\n      swap5\n      gas\n      call\n      swap1\n      dup2\n      iszero\n      tag_34\n      jumpi\n      dup15\n      swap2\n      tag_36\n      jumpi\n        /* \"contracts/YunaNFT.sol\":642:645  i++ */\n    tag_37:\n        /* \"contracts/YunaNFT.sol\":161:864  contract Airdrop {... */\n      pop\n      iszero\n      tag_38\n      jumpi\n        /* \"contracts/YunaNFT.sol\":805:842  AirdropSent(addresses[i], amounts[i]) */\n      0x90bcf0048b4f2fce00ba208729b9edf192f9ca8c71b84845e2d94f7dffeeddcd\n        /* \"contracts/YunaNFT.sol\":817:829  addresses[i] */\n      tag_40\n      tag_33\n      dup5\n      dup9\n      dup9\n      tag_2\n      jump\t// in\n    tag_40:\n        /* \"contracts/YunaNFT.sol\":831:841  amounts[i] */\n      swap2\n      dup10\n      tag_42\n      dup6\n      dup11\n      dup13\n      tag_2\n      jump\t// in\n    tag_42:\n        /* \"contracts/YunaNFT.sol\":161:864  contract Airdrop {... */\n      calldataload\n      swap4\n      dup13\n      mload\n      swap5\n      dup6\n      mstore\n      and\n        /* \"contracts/YunaNFT.sol\":805:842  AirdropSent(addresses[i], amounts[i]) */\n      swap3\n      log2\n      not(0x00)\n        /* \"contracts/YunaNFT.sol\":161:864  contract Airdrop {... */\n      dup2\n      eq\n      tag_43\n      jumpi\n      0x01\n      add\n        /* \"contracts/YunaNFT.sol\":605:618  uint256 i = 0 */\n      jump(tag_28)\n        /* \"contracts/YunaNFT.sol\":161:864  contract Airdrop {... */\n    tag_43:\n      shl(0xe0, 0x4e487b71)\n      dup13\n      mstore\n      0x11\n      dup10\n      mstore\n      dup11\n      dup13\n      revert\n    tag_38:\n      dup10\n      shl(0x58, 0x4661696c656420746f2073656e6420746f6b656e73)\n      dup5\n      0x15\n      dup16\n      0x64\n      swap6\n      dup15\n      mload\n      swap6\n      shl(0xe5, 0x461bcd)\n      dup8\n      mstore\n      dup7\n      add\n      mstore\n      dup5\n      add\n      mstore\n      dup3\n      add\n      mstore\n      revert\n        /* \"contracts/YunaNFT.sol\":688:728  erc20.transfer(addresses[i], amounts[i]) */\n    tag_36:\n      swap1\n      pop\n      dup2\n      returndatasize\n      dup4\n      gt\n      tag_45\n      jumpi\n    tag_46:\n        /* \"contracts/YunaNFT.sol\":161:864  contract Airdrop {... */\n      0x1f\n      dup2\n      add\n      not(0x1f)\n      and\n      dup3\n      add\n      dup14\n      dup2\n      gt\n      dup4\n      dup3\n      lt\n      or\n      tag_47\n      jumpi\n      dup4\n      swap2\n      dup4\n      swap2\n      dup14\n      mstore\n        /* \"contracts/YunaNFT.sol\":688:728  erc20.transfer(addresses[i], amounts[i]) */\n      dup2\n      add\n        /* \"contracts/YunaNFT.sol\":161:864  contract Airdrop {... */\n      sub\n      slt\n      tag_51\n      jumpi\n      mload\n      dup1\n      iszero\n      iszero\n      dup2\n      sub\n      tag_51\n      jumpi\n        /* \"contracts/YunaNFT.sol\":688:728  erc20.transfer(addresses[i], amounts[i]) */\n      dup16\n      jump(tag_37)\n        /* \"contracts/YunaNFT.sol\":161:864  contract Airdrop {... */\n    tag_51:\n      dup14\n      dup1\n      revert\n    tag_47:\n      pop\n      shl(0xe0, 0x4e487b71)\n      dup16\n      mstore\n      0x41\n      dup13\n      mstore\n      dup14\n      dup16\n      revert\n        /* \"contracts/YunaNFT.sol\":688:728  erc20.transfer(addresses[i], amounts[i]) */\n    tag_45:\n      pop\n      returndatasize\n      jump(tag_46)\n    tag_34:\n        /* \"contracts/YunaNFT.sol\":161:864  contract Airdrop {... */\n      dup15\n      dup12\n      mload\n      swap1\n      returndatasize\n      swap1\n      dup3\n      returndatacopy\n      returndatasize\n      swap1\n      revert\n    tag_26:\n      shl(0x63, 0x0d2dcecc2d8d2c840c2e4e4c2f240d8cadccee8d)\n      0x64\n      swap3\n      0x14\n      dup14\n      0x20\n      dup14\n      shl(0xe5, 0x461bcd)\n      dup8\n      mstore\n      dup7\n      add\n      mstore\n      dup5\n      add\n      mstore\n      dup3\n      add\n      mstore\n      revert\n    tag_23:\n      dup11\n      dup1\n      revert\n    tag_20:\n      dup8\n      dup1\n      revert\n    tag_18:\n      dup5\n      dup1\n      revert\n    tag_16:\n      dup3\n      dup1\n      revert\n    tag_1:\n      swap2\n      dup2\n      0x1f\n      dup5\n      add\n      slt\n      iszero\n      tag_57\n      jumpi\n      dup3\n      calldataload\n      swap2\n      0xffffffffffffffff\n      dup4\n      gt\n      tag_57\n      jumpi\n      0x20\n      dup1\n      dup6\n      add\n      swap5\n      dup5\n      0x05\n      shl\n      add\n      add\n      gt\n      tag_57\n      jumpi\n      jump\t// out\n    tag_57:\n      0x00\n      dup1\n      revert\n    tag_2:\n      swap2\n      swap1\n      dup2\n      lt\n      iszero\n      tag_59\n      jumpi\n      0x05\n      shl\n      add\n      swap1\n      jump\t// out\n    tag_59:\n      mstore(0x00, shl(0xe0, 0x4e487b71))\n      mstore(0x04, 0x32)\n      revert(0x00, 0x24)\n    tag_3:\n      calldataload\n      sub(shl(0xa0, 0x01), 0x01)\n      dup2\n      and\n      dup2\n      sub\n      tag_57\n      jumpi\n      swap1\n      jump\t// out\n\n    auxdata: 0xa2646970667358221220da2142a022e31e1c9145cbcf37c5d9e4b7d6caac0f5ea5b67248aab3335b705864736f6c63430008140033\n}\n",
				"bytecode": {
					"linkReferences": {},
					"object": "60808060405234610027575f80546001600160a01b0319163317905561032d908161002c8239f35b5f80fdfe6080604081815260049182361015610015575f80fd5b5f92833560e01c918263025ff12f14610062575050638da5cb5b14610038575f80fd5b3461005e578160031936011261005e57905490516001600160a01b039091168152602090f35b5080fd5b83859134610286576060366003190112610286576001600160a01b038435818116959193908690036102825760249367ffffffffffffffff93853585811161027e576100b1903690860161028a565b604491823588811161027a576100ca903690890161028a565b93909484840361024557508a5b8381106100e2578b80f35b8b868e8a8e8d8c610109888d6101036100fe8f8f9085916102bf565b6102e3565b986102bf565b3593519563a9059cbb60e01b8752169085015283015281858160209586945af1908115610239578e916101dd575b50156101a5577f90bcf0048b4f2fce00ba208729b9edf192f9ca8c71b84845e2d94f7dffeeddcd61016c6100fe8488886102bf565b9189610179858a8c6102bf565b35938c519485521692a25f198114610193576001016100d7565b634e487b7160e01b8c52601189528a8cfd5b89744661696c656420746f2073656e6420746f6b656e7360581b8460158f6064958e519562461bcd60e51b8752860152840152820152fd5b9050813d8311610232575b601f8101601f191682018d81118382101761021f57839183918d528101031261021b5751801515810361021b578f610137565b8d80fd5b50634e487b7160e01b8f5260418c528d8ffd5b503d6101e8565b8e8b51903d90823e3d90fd5b730d2dcecc2d8d2c840c2e4e4c2f240d8cadccee8d60631b60649260148d60208d62461bcd60e51b8752860152840152820152fd5b8a80fd5b8780fd5b8480fd5b8280fd5b9181601f840112156102bb5782359167ffffffffffffffff83116102bb576020808501948460051b0101116102bb57565b5f80fd5b91908110156102cf5760051b0190565b634e487b7160e01b5f52603260045260245ffd5b356001600160a01b03811681036102bb579056fea2646970667358221220da2142a022e31e1c9145cbcf37c5d9e4b7d6caac0f5ea5b67248aab3335b705864736f6c63430008140033",
					"opcodes": "PUSH1 0x80 DUP1 PUSH1 0x40 MSTORE CALLVALUE PUSH2 0x27 JUMPI PUSH0 DUP1 SLOAD PUSH1 0x1 PUSH1 0x1 PUSH1 0xA0 SHL SUB NOT AND CALLER OR SWAP1 SSTORE PUSH2 0x32D SWAP1 DUP2 PUSH2 0x2C DUP3 CODECOPY RETURN JUMPDEST PUSH0 DUP1 REVERT INVALID PUSH1 0x80 PUSH1 0x40 DUP2 DUP2 MSTORE PUSH1 0x4 SWAP2 DUP3 CALLDATASIZE LT ISZERO PUSH2 0x15 JUMPI PUSH0 DUP1 REVERT JUMPDEST PUSH0 SWAP3 DUP4 CALLDATALOAD PUSH1 0xE0 SHR SWAP2 DUP3 PUSH4 0x25FF12F EQ PUSH2 0x62 JUMPI POP POP PUSH4 0x8DA5CB5B EQ PUSH2 0x38 JUMPI PUSH0 DUP1 REVERT JUMPDEST CALLVALUE PUSH2 0x5E JUMPI DUP2 PUSH1 0x3 NOT CALLDATASIZE ADD SLT PUSH2 0x5E JUMPI SWAP1 SLOAD SWAP1 MLOAD PUSH1 0x1 PUSH1 0x1 PUSH1 0xA0 SHL SUB SWAP1 SWAP2 AND DUP2 MSTORE PUSH1 0x20 SWAP1 RETURN JUMPDEST POP DUP1 REVERT JUMPDEST DUP4 DUP6 SWAP2 CALLVALUE PUSH2 0x286 JUMPI PUSH1 0x60 CALLDATASIZE PUSH1 0x3 NOT ADD SLT PUSH2 0x286 JUMPI PUSH1 0x1 PUSH1 0x1 PUSH1 0xA0 SHL SUB DUP5 CALLDATALOAD DUP2 DUP2 AND SWAP6 SWAP2 SWAP4 SWAP1 DUP7 SWAP1 SUB PUSH2 0x282 JUMPI PUSH1 0x24 SWAP4 PUSH8 0xFFFFFFFFFFFFFFFF SWAP4 DUP6 CALLDATALOAD DUP6 DUP2 GT PUSH2 0x27E JUMPI PUSH2 0xB1 SWAP1 CALLDATASIZE SWAP1 DUP7 ADD PUSH2 0x28A JUMP JUMPDEST PUSH1 0x44 SWAP2 DUP3 CALLDATALOAD DUP9 DUP2 GT PUSH2 0x27A JUMPI PUSH2 0xCA SWAP1 CALLDATASIZE SWAP1 DUP10 ADD PUSH2 0x28A JUMP JUMPDEST SWAP4 SWAP1 SWAP5 DUP5 DUP5 SUB PUSH2 0x245 JUMPI POP DUP11 JUMPDEST DUP4 DUP2 LT PUSH2 0xE2 JUMPI DUP12 DUP1 RETURN JUMPDEST DUP12 DUP7 DUP15 DUP11 DUP15 DUP14 DUP13 PUSH2 0x109 DUP9 DUP14 PUSH2 0x103 PUSH2 0xFE DUP16 DUP16 SWAP1 DUP6 SWAP2 PUSH2 0x2BF JUMP JUMPDEST PUSH2 0x2E3 JUMP JUMPDEST SWAP9 PUSH2 0x2BF JUMP JUMPDEST CALLDATALOAD SWAP4 MLOAD SWAP6 PUSH4 0xA9059CBB PUSH1 0xE0 SHL DUP8 MSTORE AND SWAP1 DUP6 ADD MSTORE DUP4 ADD MSTORE DUP2 DUP6 DUP2 PUSH1 0x20 SWAP6 DUP7 SWAP5 GAS CALL SWAP1 DUP2 ISZERO PUSH2 0x239 JUMPI DUP15 SWAP2 PUSH2 0x1DD JUMPI JUMPDEST POP ISZERO PUSH2 0x1A5 JUMPI PUSH32 0x90BCF0048B4F2FCE00BA208729B9EDF192F9CA8C71B84845E2D94F7DFFEEDDCD PUSH2 0x16C PUSH2 0xFE DUP5 DUP9 DUP9 PUSH2 0x2BF JUMP JUMPDEST SWAP2 DUP10 PUSH2 0x179 DUP6 DUP11 DUP13 PUSH2 0x2BF JUMP JUMPDEST CALLDATALOAD SWAP4 DUP13 MLOAD SWAP5 DUP6 MSTORE AND SWAP3 LOG2 PUSH0 NOT DUP2 EQ PUSH2 0x193 JUMPI PUSH1 0x1 ADD PUSH2 0xD7 JUMP JUMPDEST PUSH4 0x4E487B71 PUSH1 0xE0 SHL DUP13 MSTORE PUSH1 0x11 DUP10 MSTORE DUP11 DUP13 REVERT JUMPDEST DUP10 PUSH21 0x4661696C656420746F2073656E6420746F6B656E73 PUSH1 0x58 SHL DUP5 PUSH1 0x15 DUP16 PUSH1 0x64 SWAP6 DUP15 MLOAD SWAP6 PUSH3 0x461BCD PUSH1 0xE5 SHL DUP8 MSTORE DUP7 ADD MSTORE DUP5 ADD MSTORE DUP3 ADD MSTORE REVERT JUMPDEST SWAP1 POP DUP2 RETURNDATASIZE DUP4 GT PUSH2 0x232 JUMPI JUMPDEST PUSH1 0x1F DUP2 ADD PUSH1 0x1F NOT AND DUP3 ADD DUP14 DUP2 GT DUP4 DUP3 LT OR PUSH2 0x21F JUMPI DUP4 SWAP2 DUP4 SWAP2 DUP14 MSTORE DUP2 ADD SUB SLT PUSH2 0x21B JUMPI MLOAD DUP1 ISZERO ISZERO DUP2 SUB PUSH2 0x21B JUMPI DUP16 PUSH2 0x137 JUMP JUMPDEST DUP14 DUP1 REVERT JUMPDEST POP PUSH4 0x4E487B71 PUSH1 0xE0 SHL DUP16 MSTORE PUSH1 0x41 DUP13 MSTORE DUP14 DUP16 REVERT JUMPDEST POP RETURNDATASIZE PUSH2 0x1E8 JUMP JUMPDEST DUP15 DUP12 MLOAD SWAP1 RETURNDATASIZE SWAP1 DUP3 RETURNDATACOPY RETURNDATASIZE SWAP1 REVERT JUMPDEST PUSH20 0xD2DCECC2D8D2C840C2E4E4C2F240D8CADCCEE8D PUSH1 0x63 SHL PUSH1 0x64 SWAP3 PUSH1 0x14 DUP14 PUSH1 0x20 DUP14 PUSH3 0x461BCD PUSH1 0xE5 SHL DUP8 MSTORE DUP7 ADD MSTORE DUP5 ADD MSTORE DUP3 ADD MSTORE REVERT JUMPDEST DUP11 DUP1 REVERT JUMPDEST DUP8 DUP1 REVERT JUMPDEST DUP5 DUP1 REVERT JUMPDEST DUP3 DUP1 REVERT JUMPDEST SWAP2 DUP2 PUSH1 0x1F DUP5 ADD SLT ISZERO PUSH2 0x2BB JUMPI DUP3 CALLDATALOAD SWAP2 PUSH8 0xFFFFFFFFFFFFFFFF DUP4 GT PUSH2 0x2BB JUMPI PUSH1 0x20 DUP1 DUP6 ADD SWAP5 DUP5 PUSH1 0x5 SHL ADD ADD GT PUSH2 0x2BB JUMPI JUMP JUMPDEST PUSH0 DUP1 REVERT JUMPDEST SWAP2 SWAP1 DUP2 LT ISZERO PUSH2 0x2CF JUMPI PUSH1 0x5 SHL ADD SWAP1 JUMP JUMPDEST PUSH4 0x4E487B71 PUSH1 0xE0 SHL PUSH0 MSTORE PUSH1 0x32 PUSH1 0x4 MSTORE PUSH1 0x24 PUSH0 REVERT JUMPDEST CALLDATALOAD PUSH1 0x1 PUSH1 0x1 PUSH1 0xA0 SHL SUB DUP2 AND DUP2 SUB PUSH2 0x2BB JUMPI SWAP1 JUMP INVALID LOG2 PUSH5 0x6970667358 0x22 SLT KECCAK256 0xDA 0x21 TIMESTAMP LOG0 0x22 0xE3 0x1E SHR SWAP2 GASLIMIT 0xCB 0xCF CALLDATACOPY 0xC5 0xD9 0xE4 0xB7 0xD6 0xCA 0xAC 0xF 0x5E 0xA5 0xB6 PUSH19 0x48AAB3335B705864736F6C6343000814003300 "
				},
				"gasEstimates": {
					"creation": {
						"codeDepositCost": "162600",
						"executionCost": "24448",
						"totalCost": "187048"
					},
					"external": {
						"airdrop(address,address[],uint256[])": "infinite",
						"owner()": "2317"
					}
				},
				"methodIdentifiers": {
					"airdrop(address,address[],uint256[])": "025ff12f",
					"owner()": "8da5cb5b"
				}
			},
			"storageLayout": {
				"storage": [
					{
						"astId": 13,
						"contract": "contracts/YunaNFT.sol:Airdrop",
						"label": "owner",
						"offset": 0,
						"slot": "0",
						"type": "t_address"
					}
				],
				"types": {
					"t_address": {
						"encoding": "inplace",
						"label": "address",
						"numberOfBytes": "20"
					}
				}
			},
			"userdoc": {
				"kind": "user",
				"methods": {},
				"version": 1
			}
		}
	}
}