{
	"contracts/YunaVaultV2.sol": {
		"YunaVaultV2": {
			"abi": [
				{
					"inputs": [
						{
							"internalType": "address",
							"name": "_lpToken",
							"type": "address"
						},
						{
							"internalType": "address",
							"name": "_rewardToken",
							"type": "address"
						}
					],
					"stateMutability": "nonpayable",
					"type": "constructor"
				},
				{
					"inputs": [
						{
							"internalType": "address",
							"name": "owner",
							"type": "address"
						}
					],
					"name": "OwnableInvalidOwner",
					"type": "error"
				},
				{
					"inputs": [
						{
							"internalType": "address",
							"name": "account",
							"type": "address"
						}
					],
					"name": "OwnableUnauthorizedAccount",
					"type": "error"
				},
				{
					"inputs": [
						{
							"internalType": "address",
							"name": "token",
							"type": "address"
						}
					],
					"name": "SafeERC20FailedOperation",
					"type": "error"
				},
				{
					"anonymous": false,
					"inputs": [
						{
							"indexed": false,
							"internalType": "uint256",
							"name": "totalDistributed",
							"type": "uint256"
						},
						{
							"indexed": false,
							"internalType": "uint256",
							"name": "callerReward",
							"type": "uint256"
						}
					],
					"name": "ClaimAll",
					"type": "event"
				},
				{
					"anonymous": false,
					"inputs": [
						{
							"indexed": true,
							"internalType": "address",
							"name": "user",
							"type": "address"
						},
						{
							"indexed": false,
							"internalType": "uint256",
							"name": "amount",
							"type": "uint256"
						}
					],
					"name": "Deposited",
					"type": "event"
				},
				{
					"anonymous": false,
					"inputs": [
						{
							"indexed": true,
							"internalType": "address",
							"name": "previousOwner",
							"type": "address"
						},
						{
							"indexed": true,
							"internalType": "address",
							"name": "newOwner",
							"type": "address"
						}
					],
					"name": "OwnershipTransferred",
					"type": "event"
				},
				{
					"anonymous": false,
					"inputs": [
						{
							"indexed": false,
							"internalType": "address",
							"name": "router",
							"type": "address"
						}
					],
					"name": "RouterSet",
					"type": "event"
				},
				{
					"anonymous": false,
					"inputs": [
						{
							"indexed": true,
							"internalType": "address",
							"name": "user",
							"type": "address"
						},
						{
							"indexed": false,
							"internalType": "uint256",
							"name": "amount",
							"type": "uint256"
						}
					],
					"name": "Withdrawn",
					"type": "event"
				},
				{
					"inputs": [],
					"name": "BP_DENOM",
					"outputs": [
						{
							"internalType": "uint256",
							"name": "",
							"type": "uint256"
						}
					],
					"stateMutability": "view",
					"type": "function"
				},
				{
					"inputs": [],
					"name": "CALLER_FEE_BP",
					"outputs": [
						{
							"internalType": "uint256",
							"name": "",
							"type": "uint256"
						}
					],
					"stateMutability": "view",
					"type": "function"
				},
				{
					"inputs": [],
					"name": "claimAll",
					"outputs": [],
					"stateMutability": "nonpayable",
					"type": "function"
				},
				{
					"inputs": [
						{
							"internalType": "address",
							"name": "userAddr",
							"type": "address"
						}
					],
					"name": "claimableReward",
					"outputs": [
						{
							"internalType": "uint256",
							"name": "",
							"type": "uint256"
						}
					],
					"stateMutability": "view",
					"type": "function"
				},
				{
					"inputs": [
						{
							"internalType": "uint256",
							"name": "amount",
							"type": "uint256"
						}
					],
					"name": "deposit",
					"outputs": [],
					"stateMutability": "nonpayable",
					"type": "function"
				},
				{
					"inputs": [
						{
							"internalType": "address",
							"name": "user",
							"type": "address"
						},
						{
							"internalType": "uint256",
							"name": "amount",
							"type": "uint256"
						}
					],
					"name": "depositFor",
					"outputs": [],
					"stateMutability": "nonpayable",
					"type": "function"
				},
				{
					"inputs": [
						{
							"internalType": "address",
							"name": "userAddr",
							"type": "address"
						}
					],
					"name": "getUserXP",
					"outputs": [
						{
							"internalType": "uint256",
							"name": "",
							"type": "uint256"
						}
					],
					"stateMutability": "view",
					"type": "function"
				},
				{
					"inputs": [
						{
							"internalType": "address",
							"name": "",
							"type": "address"
						}
					],
					"name": "isParticipant",
					"outputs": [
						{
							"internalType": "bool",
							"name": "",
							"type": "bool"
						}
					],
					"stateMutability": "view",
					"type": "function"
				},
				{
					"inputs": [],
					"name": "lastRewardBlock",
					"outputs": [
						{
							"internalType": "uint256",
							"name": "",
							"type": "uint256"
						}
					],
					"stateMutability": "view",
					"type": "function"
				},
				{
					"inputs": [],
					"name": "lpToken",
					"outputs": [
						{
							"internalType": "contract IERC20",
							"name": "",
							"type": "address"
						}
					],
					"stateMutability": "view",
					"type": "function"
				},
				{
					"inputs": [],
					"name": "owner",
					"outputs": [
						{
							"internalType": "address",
							"name": "",
							"type": "address"
						}
					],
					"stateMutability": "view",
					"type": "function"
				},
				{
					"inputs": [],
					"name": "participantCount",
					"outputs": [
						{
							"internalType": "uint256",
							"name": "",
							"type": "uint256"
						}
					],
					"stateMutability": "view",
					"type": "function"
				},
				{
					"inputs": [
						{
							"internalType": "uint256",
							"name": "",
							"type": "uint256"
						}
					],
					"name": "participants",
					"outputs": [
						{
							"internalType": "address",
							"name": "",
							"type": "address"
						}
					],
					"stateMutability": "view",
					"type": "function"
				},
				{
					"inputs": [],
					"name": "remainingRewardPool",
					"outputs": [
						{
							"internalType": "uint256",
							"name": "",
							"type": "uint256"
						}
					],
					"stateMutability": "view",
					"type": "function"
				},
				{
					"inputs": [],
					"name": "renounceOwnership",
					"outputs": [],
					"stateMutability": "nonpayable",
					"type": "function"
				},
				{
					"inputs": [],
					"name": "rewardPerBlock",
					"outputs": [
						{
							"internalType": "uint256",
							"name": "",
							"type": "uint256"
						}
					],
					"stateMutability": "view",
					"type": "function"
				},
				{
					"inputs": [],
					"name": "rewardToken",
					"outputs": [
						{
							"internalType": "contract IERC20",
							"name": "",
							"type": "address"
						}
					],
					"stateMutability": "view",
					"type": "function"
				},
				{
					"inputs": [],
					"name": "router",
					"outputs": [
						{
							"internalType": "address",
							"name": "",
							"type": "address"
						}
					],
					"stateMutability": "view",
					"type": "function"
				},
				{
					"inputs": [
						{
							"internalType": "address",
							"name": "_router",
							"type": "address"
						}
					],
					"name": "setRouter",
					"outputs": [],
					"stateMutability": "nonpayable",
					"type": "function"
				},
				{
					"inputs": [],
					"name": "totalLPLocked",
					"outputs": [
						{
							"internalType": "uint256",
							"name": "",
							"type": "uint256"
						}
					],
					"stateMutability": "view",
					"type": "function"
				},
				{
					"inputs": [],
					"name": "totalXP",
					"outputs": [
						{
							"internalType": "uint256",
							"name": "",
							"type": "uint256"
						}
					],
					"stateMutability": "view",
					"type": "function"
				},
				{
					"inputs": [
						{
							"internalType": "address",
							"name": "newOwner",
							"type": "address"
						}
					],
					"name": "transferOwnership",
					"outputs": [],
					"stateMutability": "nonpayable",
					"type": "function"
				},
				{
					"inputs": [
						{
							"internalType": "address",
							"name": "",
							"type": "address"
						}
					],
					"name": "users",
					"outputs": [
						{
							"internalType": "uint256",
							"name": "balance",
							"type": "uint256"
						},
						{
							"internalType": "uint256",
							"name": "lastUpdateBlock",
							"type": "uint256"
						},
						{
							"internalType": "uint256",
							"name": "xp",
							"type": "uint256"
						}
					],
					"stateMutability": "view",
					"type": "function"
				},
				{
					"inputs": [
						{
							"internalType": "uint256",
							"name": "amount",
							"type": "uint256"
						}
					],
					"name": "withdraw",
					"outputs": [],
					"stateMutability": "nonpayable",
					"type": "function"
				},
				{
					"inputs": [],
					"name": "withdrawAll",
					"outputs": [],
					"stateMutability": "nonpayable",
					"type": "function"
				},
				{
					"inputs": [],
					"name": "withdrawAllRewards",
					"outputs": [],
					"stateMutability": "nonpayable",
					"type": "function"
				}
			],
			"devdoc": {
				"errors": {
					"OwnableInvalidOwner(address)": [
						{
							"details": "The owner is not a valid owner account. (eg. `address(0)`)"
						}
					],
					"OwnableUnauthorizedAccount(address)": [
						{
							"details": "The caller account is not authorized to perform an operation."
						}
					],
					"SafeERC20FailedOperation(address)": [
						{
							"details": "An operation with an ERC-20 token failed."
						}
					]
				},
				"kind": "dev",
				"methods": {
					"owner()": {
						"details": "Returns the address of the current owner."
					},
					"renounceOwnership()": {
						"details": "Leaves the contract without owner. It will not be possible to call `onlyOwner` functions. Can only be called by the current owner. NOTE: Renouncing ownership will leave the contract without an owner, thereby disabling any functionality that is only available to the owner."
					},
					"transferOwnership(address)": {
						"details": "Transfers ownership of the contract to a new account (`newOwner`). Can only be called by the current owner."
					}
				},
				"version": 1
			},
			"evm": {
				"assembly": "    /* \"contracts/YunaVaultV2.sol\":325:7874  contract YunaVaultV2 is ReentrancyGuard, Ownable {... */\n  0xe0\n  0x40\n  swap1\n  dup1\n  dup3\n  mstore\n  jumpi(tag_6, callvalue)\n  dup2\n  dup2\n  bytecodeSize\n  dup1\n  codesize\n  sub\n  dup1\n  swap2\n  tag_5\n  dup3\n  dup6\n  tag_1\n  jump\t// in\ntag_5:\n  dup4\n  codecopy\n  dup2\n  add\n  sub\n  slt\n  tag_6\n  jumpi\n  tag_8\n  0x20\n  tag_9\n  dup4\n  tag_2\n  jump\t// in\ntag_9:\n  swap3\n  add\n  tag_2\n  jump\t// in\ntag_8:\n  swap1\n  0x00\n  swap2\n    /* \"@openzeppelin/contracts/security/ReentrancyGuard.sol\":1716:1717  1 */\n  0x01\n    /* \"contracts/YunaVaultV2.sol\":325:7874  contract YunaVaultV2 is ReentrancyGuard, Ownable {... */\n  dup4\n  sstore\n    /* \"contracts/YunaVaultV2.sol\":1401:1411  msg.sender */\n  caller\n    /* \"@openzeppelin/contracts/access/Ownable.sol\":1273:1299  initialOwner == address(0) */\n  iszero\n    /* \"@openzeppelin/contracts/access/Ownable.sol\":1269:1364  if (initialOwner == address(0)) {... */\n  tag_10\n  jumpi\n    /* \"@openzeppelin/contracts/security/ReentrancyGuard.sol\":1716:1717  1 */\n  0x01\n    /* \"contracts/YunaVaultV2.sol\":325:7874  contract YunaVaultV2 is ReentrancyGuard, Ownable {... */\n  dup1\n  sload\n    /* \"contracts/YunaVaultV2.sol\":1401:1411  msg.sender */\n  caller\n  not(sub(shl(0xa0, 0x01), 0x01))\n    /* \"contracts/YunaVaultV2.sol\":325:7874  contract YunaVaultV2 is ReentrancyGuard, Ownable {... */\n  dup3\n  and\n  dup2\n  or\n  swap1\n  swap3\n  sstore\n  dup6\n  mload\n  swap4\n  0x20\n  swap4\n  dup6\n  swap4\n    /* \"contracts/YunaVaultV2.sol\":1525:1564  IERC20Metadata(_rewardToken).decimals() */\n  0x04\n  swap4\n    /* \"contracts/YunaVaultV2.sol\":325:7874  contract YunaVaultV2 is ReentrancyGuard, Ownable {... */\n  dup6\n  swap4\n  sub(shl(0xa0, 0x01), 0x01)\n  swap4\n  swap3\n  dup5\n  swap3\n  dup4\n  and\n    /* \"@openzeppelin/contracts/access/Ownable.sol\":3052:3092  OwnershipTransferred(oldOwner, newOwner) */\n  0x8be0079c531659141344cd1fd0a4f28419497f9722a3daafe3b4186f6b6457e0\n  dup13\n  dup1\n  log3\n    /* \"contracts/YunaVaultV2.sol\":325:7874  contract YunaVaultV2 is ReentrancyGuard, Ownable {... */\n  and\n    /* \"contracts/YunaVaultV2.sol\":1424:1450  lpToken = IERC20(_lpToken) */\n  0x80\n  mstore\n    /* \"contracts/YunaVaultV2.sol\":325:7874  contract YunaVaultV2 is ReentrancyGuard, Ownable {... */\n  and\n  0xa0\n    /* \"contracts/YunaVaultV2.sol\":1461:1495  rewardToken = IERC20(_rewardToken) */\n  dup2\n  swap1\n  mstore\n  shl(0xe0, 0x313ce567)\n    /* \"contracts/YunaVaultV2.sol\":1525:1564  IERC20Metadata(_rewardToken).decimals() */\n  dup3\n  mstore\n  gas\n  staticcall\n  dup1\n  iszero\n  tag_12\n  jumpi\n  dup3\n  swap1\n  tag_14\n  jumpi\ntag_15:\n    /* \"contracts/YunaVaultV2.sol\":325:7874  contract YunaVaultV2 is ReentrancyGuard, Ownable {... */\n  0xff\n  swap2\n  pop\n  and\n  0x4d\n  dup2\n  gt\n  tag_16\n  jumpi\n  0x0a\n  exp\n    /* \"contracts/YunaVaultV2.sol\":1651:1662  200_000_000 */\n  swap1\n  0x0bebc200\n    /* \"contracts/YunaVaultV2.sol\":325:7874  contract YunaVaultV2 is ReentrancyGuard, Ownable {... */\n  swap2\n  dup1\n  dup4\n  mul\n  swap3\n  dup4\n  div\n  sub\n  tag_18\n  jumpi\n  pop\n    /* \"contracts/YunaVaultV2.sol\":1599:1605  52_560 */\n  0xcd50\n    /* \"contracts/YunaVaultV2.sol\":325:7874  contract YunaVaultV2 is ReentrancyGuard, Ownable {... */\n  swap1\n  div\n    /* \"contracts/YunaVaultV2.sol\":1633:1698  rewardPerBlock = (200_000_000 * (10 ** decimals)) / blocksPerYear */\n  0xc0\n  mstore\n    /* \"contracts/YunaVaultV2.sol\":1729:1741  block.number */\n  number\n    /* \"contracts/YunaVaultV2.sol\":1525:1564  IERC20Metadata(_rewardToken).decimals() */\n  0x04\n    /* \"contracts/YunaVaultV2.sol\":325:7874  contract YunaVaultV2 is ReentrancyGuard, Ownable {... */\n  sstore\n  mload\n  dataSize(sub_0)\n  swap1\n  dup2\n  dataOffset(sub_0)\n  dup3\n  codecopy\n    /* \"contracts/YunaVaultV2.sol\":1424:1450  lpToken = IERC20(_lpToken) */\n  0x80\n    /* \"contracts/YunaVaultV2.sol\":325:7874  contract YunaVaultV2 is ReentrancyGuard, Ownable {... */\n  mload\n  dup2\n  assignImmutable(\"0x32dc42f894e5a4d4b23942d0616a19a04bbfd803207f066ba76d13d1733bb4d4\")\n  mload(0xa0)\n  dup2\n  assignImmutable(\"0x69de3b38836c938ac93bb31643655e6e0a011af0f354a009a432084d0f963864\")\n    /* \"contracts/YunaVaultV2.sol\":1633:1698  rewardPerBlock = (200_000_000 * (10 ** decimals)) / blocksPerYear */\n  0xc0\n    /* \"contracts/YunaVaultV2.sol\":325:7874  contract YunaVaultV2 is ReentrancyGuard, Ownable {... */\n  mload\n  dup2\n  assignImmutable(\"0x859a6a23943f5d7286393d65629fb81b6943c202b5ed2617fb4fcc1cbe2bc943\")\n  return\ntag_18:\n  shl(0xe0, 0x4e487b71)\n  dup2\n  mstore\n  0x11\n    /* \"contracts/YunaVaultV2.sol\":1525:1564  IERC20Metadata(_rewardToken).decimals() */\n  0x04\n    /* \"contracts/YunaVaultV2.sol\":325:7874  contract YunaVaultV2 is ReentrancyGuard, Ownable {... */\n  mstore\n  0x24\n  swap1\n  revert\ntag_16:\n  shl(0xe0, 0x4e487b71)\n  dup3\n  mstore\n  0x11\n    /* \"contracts/YunaVaultV2.sol\":1525:1564  IERC20Metadata(_rewardToken).decimals() */\n  0x04\n    /* \"contracts/YunaVaultV2.sol\":325:7874  contract YunaVaultV2 is ReentrancyGuard, Ownable {... */\n  mstore\n  0x24\n  dup3\n  revert\n    /* \"contracts/YunaVaultV2.sol\":1525:1564  IERC20Metadata(_rewardToken).decimals() */\ntag_14:\n  pop\n    /* \"contracts/YunaVaultV2.sol\":325:7874  contract YunaVaultV2 is ReentrancyGuard, Ownable {... */\n  0x20\n    /* \"contracts/YunaVaultV2.sol\":1525:1564  IERC20Metadata(_rewardToken).decimals() */\n  dup2\n  returndatasize\n  dup3\n  gt\n  tag_20\n  jumpi\ntag_21:\n  dup2\n  tag_22\n    /* \"contracts/YunaVaultV2.sol\":325:7874  contract YunaVaultV2 is ReentrancyGuard, Ownable {... */\n  0x20\n    /* \"contracts/YunaVaultV2.sol\":1525:1564  IERC20Metadata(_rewardToken).decimals() */\n  swap4\n  dup4\n  tag_1\n  jump\t// in\ntag_22:\n  dup2\n  add\n    /* \"contracts/YunaVaultV2.sol\":325:7874  contract YunaVaultV2 is ReentrancyGuard, Ownable {... */\n  sub\n  slt\n  tag_25\n  jumpi\n  mload\n  0xff\n  dup2\n  and\n  dup2\n  sub\n  tag_25\n  jumpi\n  0xff\n    /* \"contracts/YunaVaultV2.sol\":1525:1564  IERC20Metadata(_rewardToken).decimals() */\n  swap1\n  jump(tag_15)\n    /* \"contracts/YunaVaultV2.sol\":325:7874  contract YunaVaultV2 is ReentrancyGuard, Ownable {... */\ntag_25:\n  pop\n  dup1\n  revert\n    /* \"contracts/YunaVaultV2.sol\":1525:1564  IERC20Metadata(_rewardToken).decimals() */\ntag_20:\n  returndatasize\n  swap2\n  pop\n  jump(tag_21)\ntag_12:\n    /* \"contracts/YunaVaultV2.sol\":325:7874  contract YunaVaultV2 is ReentrancyGuard, Ownable {... */\n  dup4\n  mload\n  returndatasize\n  dup5\n  dup3\n  returndatacopy\n  returndatasize\n  swap1\n  revert\n    /* \"@openzeppelin/contracts/access/Ownable.sol\":1269:1364  if (initialOwner == address(0)) {... */\ntag_10:\n    /* \"contracts/YunaVaultV2.sol\":325:7874  contract YunaVaultV2 is ReentrancyGuard, Ownable {... */\n  dup4\n  mload\n  shl(0xe0, 0x1e4fbdf7)\n    /* \"@openzeppelin/contracts/access/Ownable.sol\":1322:1353  OwnableInvalidOwner(address(0)) */\n  dup2\n  mstore\n  0x04\n  dup2\n  add\n    /* \"contracts/YunaVaultV2.sol\":325:7874  contract YunaVaultV2 is ReentrancyGuard, Ownable {... */\n  dup5\n  swap1\n  mstore\n  0x24\n  swap1\n    /* \"@openzeppelin/contracts/access/Ownable.sol\":1322:1353  OwnableInvalidOwner(address(0)) */\n  revert\n    /* \"contracts/YunaVaultV2.sol\":325:7874  contract YunaVaultV2 is ReentrancyGuard, Ownable {... */\ntag_6:\n  0x00\n  dup1\n  revert\ntag_1:\n  0x1f\n  swap1\n  swap2\n  add\n  not(0x1f)\n  and\n  dup2\n  add\n  swap1\n  sub(shl(0x40, 0x01), 0x01)\n  dup3\n  gt\n  swap1\n  dup3\n  lt\n  or\n  tag_27\n  jumpi\n  0x40\n  mstore\n  jump\t// out\ntag_27:\n  mstore(0x00, shl(0xe0, 0x4e487b71))\n  mstore(0x04, 0x41)\n  revert(0x00, 0x24)\ntag_2:\n  mload\n  swap1\n  sub(shl(0xa0, 0x01), 0x01)\n  dup3\n  and\n  dup3\n  sub\n  tag_6\n  jumpi\n  jump\t// out\nstop\n\nsub_0: assembly {\n        /* \"contracts/YunaVaultV2.sol\":325:7874  contract YunaVaultV2 is ReentrancyGuard, Ownable {... */\n      0x40\n      0x80\n      dup2\n      mstore\n      0x04\n      swap1\n      dup2\n      calldatasize\n      lt\n      iszero\n      tag_18\n      jumpi\n      0x00\n      dup1\n      revert\n    tag_18:\n      0x00\n      swap2\n      dup3\n      calldataload\n      0xe0\n      shr\n      swap1\n      dup2\n      0x2e1a7d4d\n      eq\n      tag_20\n      jumpi\n      dup2\n      0x2f4f21e2\n      eq\n      tag_22\n      jumpi\n      dup2\n      0x35c1d349\n      eq\n      tag_24\n      jumpi\n      dup2\n      0x362f04c0\n      eq\n      tag_26\n      jumpi\n      dup2\n      0x45114ee5\n      eq\n      tag_28\n      jumpi\n      dup2\n      0x5fcbd285\n      eq\n      tag_30\n      jumpi\n      dup2\n      0x715018a6\n      eq\n      tag_32\n      jumpi\n      dup2\n      0x71bf8623\n      eq\n      tag_34\n      jumpi\n      dup2\n      0x853828b6\n      eq\n      tag_36\n      jumpi\n      dup2\n      0x8ae39cac\n      eq\n      tag_38\n      jumpi\n      dup2\n      0x8da5cb5b\n      eq\n      tag_40\n      jumpi\n      dup2\n      0x929066f5\n      eq\n      tag_42\n      jumpi\n      dup2\n      0xa87430ba\n      eq\n      tag_44\n      jumpi\n      dup2\n      0xa9f8d181\n      eq\n      tag_46\n      jumpi\n      dup2\n      0xaa93bfa8\n      eq\n      tag_48\n      jumpi\n      dup2\n      0xb6b55f25\n      eq\n      tag_50\n      jumpi\n      dup2\n      0xc0d78655\n      eq\n      tag_52\n      jumpi\n      dup2\n      0xd1058e59\n      eq\n      tag_54\n      jumpi\n      dup2\n      0xe7a0fb9b\n      eq\n      tag_56\n      jumpi\n      dup2\n      0xe9503425\n      eq\n      tag_58\n      jumpi\n      dup2\n      0xe9e7eb35\n      eq\n      tag_60\n      jumpi\n      dup2\n      0xf2fde38b\n      eq\n      tag_62\n      jumpi\n      dup2\n      0xf7c618c1\n      eq\n      tag_64\n      jumpi\n      dup2\n      0xf7e4cd0d\n      eq\n      tag_66\n      jumpi\n        /* \"contracts/YunaVaultV2.sol\":7190:7222  lpToken.balanceOf(address(this)) */\n      pop\n      dup1\n        /* \"contracts/YunaVaultV2.sol\":325:7874  contract YunaVaultV2 is ReentrancyGuard, Ownable {... */\n      0xf887ea40\n        /* \"contracts/YunaVaultV2.sol\":7190:7222  lpToken.balanceOf(address(this)) */\n      eq\n      tag_68\n      jumpi\n        /* \"contracts/YunaVaultV2.sol\":325:7874  contract YunaVaultV2 is ReentrancyGuard, Ownable {... */\n      0xfc7039e0\n      eq\n      tag_70\n      jumpi\n      0x00\n      dup1\n      revert\n    tag_70:\n      jumpi(tag_74, callvalue)\n      dup2\n      add(calldatasize, not(0x03))\n      slt\n      tag_74\n      jumpi\n      0x20\n      swap1\n      mload\n        /* \"contracts/YunaVaultV2.sol\":666:668  50 */\n      0x32\n        /* \"contracts/YunaVaultV2.sol\":325:7874  contract YunaVaultV2 is ReentrancyGuard, Ownable {... */\n      dup2\n      mstore\n      return\n    tag_74:\n      pop\n      dup1\n      revert\n    tag_68:\n      pop\n      jumpi(tag_74, callvalue)\n      dup2\n      add(calldatasize, not(0x03))\n      slt\n      tag_74\n      jumpi\n      sload(0x03)\n      swap1\n      mload\n      sub(shl(0xa0, 0x01), 0x01)\n      swap1\n      swap2\n      and\n      dup2\n      mstore\n      0x20\n      swap1\n      return\n    tag_66:\n      swap2\n      swap1\n      pop\n      jumpi(tag_91, callvalue)\n      dup3\n      add(calldatasize, not(0x03))\n      slt\n      tag_91\n      jumpi\n      dup1\n      mload\n      shl(0xe0, 0x70a08231)\n        /* \"contracts/YunaVaultV2.sol\":7190:7222  lpToken.balanceOf(address(this)) */\n      dup2\n      mstore\n        /* \"contracts/YunaVaultV2.sol\":7216:7220  this */\n      address\n        /* \"contracts/YunaVaultV2.sol\":7190:7222  lpToken.balanceOf(address(this)) */\n      swap3\n      dup2\n      add\n        /* \"contracts/YunaVaultV2.sol\":325:7874  contract YunaVaultV2 is ReentrancyGuard, Ownable {... */\n      swap3\n      swap1\n      swap3\n      mstore\n        /* \"contracts/YunaVaultV2.sol\":7190:7222  lpToken.balanceOf(address(this)) */\n      0x20\n        /* \"contracts/YunaVaultV2.sol\":325:7874  contract YunaVaultV2 is ReentrancyGuard, Ownable {... */\n      dup3\n      0x24\n      dup2\n        /* \"contracts/YunaVaultV2.sol\":7190:7197  lpToken */\n      immutable(\"0x32dc42f894e5a4d4b23942d0616a19a04bbfd803207f066ba76d13d1733bb4d4\")\n      sub(shl(0xa0, 0x01), 0x01)\n        /* \"contracts/YunaVaultV2.sol\":325:7874  contract YunaVaultV2 is ReentrancyGuard, Ownable {... */\n      and\n        /* \"contracts/YunaVaultV2.sol\":7190:7222  lpToken.balanceOf(address(this)) */\n      gas\n      staticcall\n      swap2\n      dup3\n      iszero\n      tag_84\n      jumpi\n      dup4\n      swap3\n      tag_86\n      jumpi\n        /* \"contracts/YunaVaultV2.sol\":325:7874  contract YunaVaultV2 is ReentrancyGuard, Ownable {... */\n    tag_87:\n        /* \"contracts/YunaVaultV2.sol\":7190:7222  lpToken.balanceOf(address(this)) */\n      0x20\n        /* \"contracts/YunaVaultV2.sol\":325:7874  contract YunaVaultV2 is ReentrancyGuard, Ownable {... */\n      dup4\n      dup4\n      mload\n      swap1\n      dup2\n      mstore\n      return\n        /* \"contracts/YunaVaultV2.sol\":7190:7222  lpToken.balanceOf(address(this)) */\n    tag_86:\n      swap1\n      swap2\n      pop\n      0x20\n      dup2\n      returndatasize\n      dup3\n      gt\n      tag_88\n      jumpi\n    tag_89:\n      dup2\n      tag_90\n      0x20\n      swap4\n      dup4\n      tag_7\n      jump\t// in\n    tag_90:\n      dup2\n      add\n        /* \"contracts/YunaVaultV2.sol\":325:7874  contract YunaVaultV2 is ReentrancyGuard, Ownable {... */\n      sub\n      slt\n      tag_91\n      jumpi\n        /* \"contracts/YunaVaultV2.sol\":7190:7222  lpToken.balanceOf(address(this)) */\n      0x20\n        /* \"contracts/YunaVaultV2.sol\":325:7874  contract YunaVaultV2 is ReentrancyGuard, Ownable {... */\n      swap3\n      pop\n      mload\n        /* \"contracts/YunaVaultV2.sol\":7190:7222  lpToken.balanceOf(address(this)) */\n      swap1\n      0x00\n      jump(tag_87)\n        /* \"contracts/YunaVaultV2.sol\":325:7874  contract YunaVaultV2 is ReentrancyGuard, Ownable {... */\n    tag_91:\n      dup3\n      dup1\n      revert\n        /* \"contracts/YunaVaultV2.sol\":7190:7222  lpToken.balanceOf(address(this)) */\n    tag_88:\n      returndatasize\n      swap2\n      pop\n      jump(tag_89)\n    tag_84:\n        /* \"contracts/YunaVaultV2.sol\":325:7874  contract YunaVaultV2 is ReentrancyGuard, Ownable {... */\n      dup2\n      mload\n      returndatasize\n      dup6\n      dup3\n      returndatacopy\n      returndatasize\n      swap1\n      revert\n    tag_64:\n      pop\n      pop\n      jumpi(tag_74, callvalue)\n      dup2\n      add(calldatasize, not(0x03))\n      slt\n      tag_74\n      jumpi\n      mload\n        /* \"contracts/YunaVaultV2.sol\":454:489  IERC20 public immutable rewardToken */\n      immutable(\"0x69de3b38836c938ac93bb31643655e6e0a011af0f354a009a432084d0f963864\")\n      sub(shl(0xa0, 0x01), 0x01)\n        /* \"contracts/YunaVaultV2.sol\":325:7874  contract YunaVaultV2 is ReentrancyGuard, Ownable {... */\n      and\n      dup2\n      mstore\n      0x20\n      swap1\n      return\n    tag_62:\n      swap1\n      pop\n      jumpi(tag_91, callvalue)\n      jumpi(tag_91, slt(add(not(0x03), calldatasize), 0x20))\n      tag_101\n      tag_1\n      jump\t// in\n    tag_101:\n        /* \"@openzeppelin/contracts/access/Ownable.sol\":1500:1562  modifier onlyOwner() {... */\n      swap1\n      tag_102\n      tag_3\n      jump\t// in\n    tag_102:\n      sub(shl(0xa0, 0x01), 0x01)\n        /* \"contracts/YunaVaultV2.sol\":325:7874  contract YunaVaultV2 is ReentrancyGuard, Ownable {... */\n      swap2\n      dup3\n      and\n      swap3\n        /* \"@openzeppelin/contracts/access/Ownable.sol\":2627:2649  newOwner == address(0) */\n      dup4\n      iszero\n        /* \"@openzeppelin/contracts/access/Ownable.sol\":2623:2714  if (newOwner == address(0)) {... */\n      tag_103\n      jumpi\n        /* \"contracts/YunaVaultV2.sol\":325:7874  contract YunaVaultV2 is ReentrancyGuard, Ownable {... */\n      pop\n      pop\n      sload(0x01)\n      dup3\n      shl(0xa0, 0xffffffffffffffffffffffff)\n      dup3\n      and\n      or\n      0x01\n      sstore\n      and\n        /* \"@openzeppelin/contracts/access/Ownable.sol\":3052:3092  OwnershipTransferred(oldOwner, newOwner) */\n      0x8be0079c531659141344cd1fd0a4f28419497f9722a3daafe3b4186f6b6457e0\n      dup4\n      dup1\n      log3\n        /* \"contracts/YunaVaultV2.sol\":325:7874  contract YunaVaultV2 is ReentrancyGuard, Ownable {... */\n      dup1\n      return\n        /* \"@openzeppelin/contracts/access/Ownable.sol\":2623:2714  if (newOwner == address(0)) {... */\n    tag_103:\n        /* \"contracts/YunaVaultV2.sol\":325:7874  contract YunaVaultV2 is ReentrancyGuard, Ownable {... */\n      mload\n      shl(0xe0, 0x1e4fbdf7)\n        /* \"@openzeppelin/contracts/access/Ownable.sol\":2672:2703  OwnableInvalidOwner(address(0)) */\n      dup2\n      mstore\n      swap1\n      dup2\n      add\n        /* \"contracts/YunaVaultV2.sol\":325:7874  contract YunaVaultV2 is ReentrancyGuard, Ownable {... */\n      dup5\n      swap1\n      mstore\n      0x24\n      swap1\n        /* \"@openzeppelin/contracts/access/Ownable.sol\":2672:2703  OwnableInvalidOwner(address(0)) */\n      revert\n        /* \"contracts/YunaVaultV2.sol\":325:7874  contract YunaVaultV2 is ReentrancyGuard, Ownable {... */\n    tag_60:\n      pop\n      pop\n      jumpi(tag_74, callvalue)\n      jumpi(tag_74, slt(add(not(0x03), calldatasize), 0x20))\n      0x20\n      swap2\n      dup2\n      swap1\n      sub(shl(0xa0, 0x01), 0x01)\n      tag_109\n      tag_1\n      jump\t// in\n    tag_109:\n      and\n      dup2\n      mstore\n        /* \"contracts/YunaVaultV2.sol\":7448:7453  users */\n      0x06\n        /* \"contracts/YunaVaultV2.sol\":325:7874  contract YunaVaultV2 is ReentrancyGuard, Ownable {... */\n      dup5\n      mstore\n      keccak256\n        /* \"contracts/YunaVaultV2.sol\":7487:7491  u.xp */\n      swap1\n      0x02\n      dup3\n      add\n        /* \"contracts/YunaVaultV2.sol\":325:7874  contract YunaVaultV2 is ReentrancyGuard, Ownable {... */\n      sload\n        /* \"contracts/YunaVaultV2.sol\":7508:7525  u.lastUpdateBlock */\n      swap2\n        /* \"contracts/YunaVaultV2.sol\":325:7874  contract YunaVaultV2 is ReentrancyGuard, Ownable {... */\n      0x01\n        /* \"contracts/YunaVaultV2.sol\":7508:7525  u.lastUpdateBlock */\n      dup2\n      add\n        /* \"contracts/YunaVaultV2.sol\":325:7874  contract YunaVaultV2 is ReentrancyGuard, Ownable {... */\n      sload\n        /* \"contracts/YunaVaultV2.sol\":7508:7529  u.lastUpdateBlock > 0 */\n      dup1\n        /* \"contracts/YunaVaultV2.sol\":7504:7610  if (u.lastUpdateBlock > 0) {... */\n      tag_110\n      jumpi\n        /* \"contracts/YunaVaultV2.sol\":325:7874  contract YunaVaultV2 is ReentrancyGuard, Ownable {... */\n    tag_111:\n      pop\n      pop\n      mload\n      swap1\n      dup2\n      mstore\n      return\n        /* \"contracts/YunaVaultV2.sol\":7504:7610  if (u.lastUpdateBlock > 0) {... */\n    tag_110:\n        /* \"contracts/YunaVaultV2.sol\":7546:7598  xp += (block.number - u.lastUpdateBlock) * u.balance */\n      tag_112\n        /* \"contracts/YunaVaultV2.sol\":7553:7565  block.number */\n      swap3\n      swap4\n      swap2\n        /* \"contracts/YunaVaultV2.sol\":7553:7585  block.number - u.lastUpdateBlock */\n      tag_113\n        /* \"contracts/YunaVaultV2.sol\":7552:7598  (block.number - u.lastUpdateBlock) * u.balance */\n      tag_114\n        /* \"contracts/YunaVaultV2.sol\":7553:7565  block.number */\n      swap3\n      number\n        /* \"contracts/YunaVaultV2.sol\":7553:7585  block.number - u.lastUpdateBlock */\n      tag_9\n      jump\t// in\n    tag_113:\n        /* \"contracts/YunaVaultV2.sol\":325:7874  contract YunaVaultV2 is ReentrancyGuard, Ownable {... */\n      swap1\n      sload\n        /* \"contracts/YunaVaultV2.sol\":7552:7598  (block.number - u.lastUpdateBlock) * u.balance */\n      swap1\n      tag_10\n      jump\t// in\n    tag_114:\n        /* \"contracts/YunaVaultV2.sol\":7546:7598  xp += (block.number - u.lastUpdateBlock) * u.balance */\n      swap1\n      tag_5\n      jump\t// in\n    tag_112:\n        /* \"contracts/YunaVaultV2.sol\":7504:7610  if (u.lastUpdateBlock > 0) {... */\n      swap1\n      0x00\n      dup1\n      jump(tag_111)\n        /* \"contracts/YunaVaultV2.sol\":325:7874  contract YunaVaultV2 is ReentrancyGuard, Ownable {... */\n    tag_58:\n      pop\n      pop\n      jumpi(tag_74, callvalue)\n      jumpi(tag_74, slt(add(not(0x03), calldatasize), 0x20))\n      0x20\n      swap1\n      tag_119\n      tag_120\n      tag_1\n      jump\t// in\n    tag_120:\n      tag_16\n      jump\t// in\n    tag_119:\n      swap1\n      mload\n      swap1\n      dup2\n      mstore\n      return\n    tag_56:\n      pop\n      pop\n      jumpi(tag_74, callvalue)\n      dup2\n      add(calldatasize, not(0x03))\n      slt\n      tag_74\n      jumpi\n      0x20\n      swap1\n      tag_119\n      tag_17\n      jump\t// in\n    tag_54:\n      dup4\n      jumpi(tag_128, callvalue)\n      dup1\n      add(calldatasize, not(0x03))\n      slt\n      tag_128\n      jumpi\n        /* \"@openzeppelin/contracts/security/ReentrancyGuard.sol\":2227:2330  modifier nonReentrant() {... */\n      tag_130\n      tag_4\n      jump\t// in\n    tag_130:\n        /* \"@openzeppelin/contracts/security/ReentrancyGuard.sol\":2292:2293  _ */\n      tag_131\n      tag_15\n      jump\t// in\n    tag_131:\n        /* \"@openzeppelin/contracts/security/ReentrancyGuard.sol\":1716:1717  1 */\n      0x01\n        /* \"@openzeppelin/contracts/security/ReentrancyGuard.sol\":1759:1760  2 */\n      dup2\n      sstore\n        /* \"contracts/YunaVaultV2.sol\":325:7874  contract YunaVaultV2 is ReentrancyGuard, Ownable {... */\n      dup1\n      return\n    tag_128:\n      dup1\n      revert\n    tag_52:\n      swap2\n      swap1\n      pop\n      jumpi(tag_91, callvalue)\n      jumpi(tag_91, slt(add(not(0x03), calldatasize), 0x20))\n      tag_136\n      tag_1\n      jump\t// in\n    tag_136:\n        /* \"@openzeppelin/contracts/access/Ownable.sol\":1500:1562  modifier onlyOwner() {... */\n      tag_137\n      tag_3\n      jump\t// in\n    tag_137:\n      sub(shl(0xa0, 0x01), 0x01)\n        /* \"contracts/YunaVaultV2.sol\":325:7874  contract YunaVaultV2 is ReentrancyGuard, Ownable {... */\n      and\n      swap2\n        /* \"contracts/YunaVaultV2.sol\":1831:1852  _router != address(0) */\n      dup3\n      iszero\n        /* \"contracts/YunaVaultV2.sol\":325:7874  contract YunaVaultV2 is ReentrancyGuard, Ownable {... */\n      tag_138\n      jumpi\n      pop\n      0x03\n      dup1\n      sload\n      not(sub(shl(0xa0, 0x01), 0x01))\n      and\n      dup4\n      or\n      swap1\n      sstore\n      mload\n      swap1\n      dup2\n      mstore\n        /* \"contracts/YunaVaultV2.sol\":1912:1930  RouterSet(_router) */\n      0xc6b438e6a8a59579ce6a4406cbd203b740e0d47b458aae6596339bcd40c40d15\n      swap1\n        /* \"contracts/YunaVaultV2.sol\":325:7874  contract YunaVaultV2 is ReentrancyGuard, Ownable {... */\n      0x20\n      swap1\n        /* \"contracts/YunaVaultV2.sol\":1912:1930  RouterSet(_router) */\n      log1\n        /* \"contracts/YunaVaultV2.sol\":325:7874  contract YunaVaultV2 is ReentrancyGuard, Ownable {... */\n      dup1\n      return\n    tag_138:\n      0x20\n      0x64\n      swap3\n      mload\n      swap2\n      shl(0xe5, 0x461bcd)\n      dup4\n      mstore\n      dup3\n      add\n      mstore\n      0x0c\n      0x24\n      dup3\n      add\n      mstore\n      shl(0xa0, 0x7a65726f2061646472657373)\n      0x44\n      dup3\n      add\n      mstore\n      revert\n    tag_50:\n      dup4\n      swap1\n      jumpi(tag_74, callvalue)\n      jumpi(tag_74, slt(add(not(0x03), calldatasize), 0x20))\n        /* \"contracts/YunaVaultV2.sol\":2556:2562  amount */\n      tag_131\n        /* \"@openzeppelin/contracts/security/ReentrancyGuard.sol\":2227:2330  modifier nonReentrant() {... */\n      swap1\n      tag_145\n      tag_4\n      jump\t// in\n    tag_145:\n        /* \"contracts/YunaVaultV2.sol\":325:7874  contract YunaVaultV2 is ReentrancyGuard, Ownable {... */\n      calldataload\n        /* \"contracts/YunaVaultV2.sol\":2532:2542  msg.sender */\n      caller\n      caller\n        /* \"contracts/YunaVaultV2.sol\":2556:2562  amount */\n      tag_6\n      jump\t// in\n        /* \"contracts/YunaVaultV2.sol\":325:7874  contract YunaVaultV2 is ReentrancyGuard, Ownable {... */\n    tag_48:\n      pop\n      pop\n      jumpi(tag_74, callvalue)\n      dup2\n      add(calldatasize, not(0x03))\n      slt\n      tag_74\n      jumpi\n      0x20\n      swap1\n        /* \"contracts/YunaVaultV2.sol\":761:783  uint256 public totalXP */\n      0x05\n        /* \"contracts/YunaVaultV2.sol\":325:7874  contract YunaVaultV2 is ReentrancyGuard, Ownable {... */\n      sload\n      swap1\n      mload\n      swap1\n      dup2\n      mstore\n      return\n    tag_46:\n      swap1\n      pop\n      jumpi(tag_91, callvalue)\n      dup3\n      add(calldatasize, not(0x03))\n      slt\n      tag_91\n      jumpi\n      0x20\n      swap3\n      pop\n      sload\n      swap1\n      mload\n      swap1\n      dup2\n      mstore\n      return\n    tag_44:\n      pop\n      pop\n      jumpi(tag_74, callvalue)\n      jumpi(tag_74, slt(add(not(0x03), calldatasize), 0x20))\n      0x60\n      swap2\n      dup2\n      swap1\n      sub(shl(0xa0, 0x01), 0x01)\n      tag_158\n      tag_1\n      jump\t// in\n    tag_158:\n      and\n      dup2\n      mstore\n        /* \"contracts/YunaVaultV2.sol\":901:938  mapping(address => User) public users */\n      0x06\n        /* \"contracts/YunaVaultV2.sol\":325:7874  contract YunaVaultV2 is ReentrancyGuard, Ownable {... */\n      0x20\n      mstore\n      keccak256\n      dup1\n      sload\n        /* \"contracts/YunaVaultV2.sol\":901:938  mapping(address => User) public users */\n      swap2\n      0x02\n        /* \"contracts/YunaVaultV2.sol\":325:7874  contract YunaVaultV2 is ReentrancyGuard, Ownable {... */\n      0x01\n        /* \"contracts/YunaVaultV2.sol\":901:938  mapping(address => User) public users */\n      dup4\n      add\n        /* \"contracts/YunaVaultV2.sol\":325:7874  contract YunaVaultV2 is ReentrancyGuard, Ownable {... */\n      sload\n        /* \"contracts/YunaVaultV2.sol\":901:938  mapping(address => User) public users */\n      swap3\n      add\n        /* \"contracts/YunaVaultV2.sol\":325:7874  contract YunaVaultV2 is ReentrancyGuard, Ownable {... */\n      sload\n      swap2\n      dup2\n      mload\n      swap4\n      dup5\n      mstore\n      0x20\n      dup5\n      add\n      mstore\n      dup3\n      add\n      mstore\n      return\n    tag_42:\n      pop\n      pop\n      jumpi(tag_74, callvalue)\n      jumpi(tag_74, slt(add(not(0x03), calldatasize), 0x20))\n      0x20\n      swap2\n      0xff\n      swap1\n      dup3\n      swap1\n      sub(shl(0xa0, 0x01), 0x01)\n      tag_163\n      tag_1\n      jump\t// in\n    tag_163:\n      and\n      dup2\n      mstore\n        /* \"contracts/YunaVaultV2.sol\":542:587  mapping(address => bool) public isParticipant */\n      0x02\n        /* \"contracts/YunaVaultV2.sol\":325:7874  contract YunaVaultV2 is ReentrancyGuard, Ownable {... */\n      dup6\n      mstore\n      keccak256\n      sload\n      and\n      swap1\n      mload\n      swap1\n      iszero\n      iszero\n      dup2\n      mstore\n      return\n    tag_40:\n      pop\n      pop\n      jumpi(tag_74, callvalue)\n      dup2\n      add(calldatasize, not(0x03))\n      slt\n      tag_74\n      jumpi\n      sload(0x01)\n      swap1\n      mload\n      sub(shl(0xa0, 0x01), 0x01)\n      swap1\n      swap2\n      and\n      dup2\n      mstore\n      0x20\n      swap1\n      return\n    tag_38:\n      pop\n      pop\n      jumpi(tag_74, callvalue)\n      dup2\n      add(calldatasize, not(0x03))\n      slt\n      tag_74\n      jumpi\n      0x20\n      swap1\n      mload\n        /* \"contracts/YunaVaultV2.sol\":496:535  uint256 public immutable rewardPerBlock */\n      immutable(\"0x859a6a23943f5d7286393d65629fb81b6943c202b5ed2617fb4fcc1cbe2bc943\")\n        /* \"contracts/YunaVaultV2.sol\":325:7874  contract YunaVaultV2 is ReentrancyGuard, Ownable {... */\n      dup2\n      mstore\n      return\n    tag_36:\n      swap2\n      swap1\n      pop\n      jumpi(tag_91, callvalue)\n      dup3\n      add(calldatasize, not(0x03))\n      slt\n      tag_91\n      jumpi\n        /* \"@openzeppelin/contracts/security/ReentrancyGuard.sol\":2227:2330  modifier nonReentrant() {... */\n      tag_176\n      tag_4\n      jump\t// in\n    tag_176:\n        /* \"contracts/YunaVaultV2.sol\":3693:3703  msg.sender */\n      caller\n        /* \"contracts/YunaVaultV2.sol\":325:7874  contract YunaVaultV2 is ReentrancyGuard, Ownable {... */\n      dup4\n      mstore\n        /* \"contracts/YunaVaultV2.sol\":3687:3692  users */\n      0x06\n        /* \"contracts/YunaVaultV2.sol\":325:7874  contract YunaVaultV2 is ReentrancyGuard, Ownable {... */\n      0x20\n      mstore\n      dup1\n      dup4\n      keccak256\n      dup1\n      sload\n        /* \"contracts/YunaVaultV2.sol\":3760:3770  amount > 0 */\n      swap3\n      dup4\n      iszero\n        /* \"contracts/YunaVaultV2.sol\":325:7874  contract YunaVaultV2 is ReentrancyGuard, Ownable {... */\n      tag_177\n      jumpi\n        /* \"contracts/YunaVaultV2.sol\":3693:3703  msg.sender */\n      pop\n      dup4\n      swap1\n        /* \"contracts/YunaVaultV2.sol\":3821:3831  msg.sender */\n      tag_179\n        /* \"contracts/YunaVaultV2.sol\":3693:3703  msg.sender */\n      caller\n        /* \"contracts/YunaVaultV2.sol\":3821:3831  msg.sender */\n      tag_11\n      jump\t// in\n    tag_179:\n        /* \"@openzeppelin/contracts/security/ReentrancyGuard.sol\":1759:1760  2 */\n      sstore\n        /* \"contracts/YunaVaultV2.sol\":3904:3910  amount */\n      tag_180\n        /* \"contracts/YunaVaultV2.sol\":3693:3703  msg.sender */\n      dup3\n      caller\n        /* \"contracts/YunaVaultV2.sol\":3871:3878  lpToken */\n      immutable(\"0x32dc42f894e5a4d4b23942d0616a19a04bbfd803207f066ba76d13d1733bb4d4\")\n        /* \"contracts/YunaVaultV2.sol\":3904:3910  amount */\n      tag_12\n      jump\t// in\n    tag_180:\n        /* \"contracts/YunaVaultV2.sol\":325:7874  contract YunaVaultV2 is ReentrancyGuard, Ownable {... */\n      mload\n      swap1\n      dup2\n      mstore\n        /* \"contracts/YunaVaultV2.sol\":3929:3958  Withdrawn(msg.sender, amount) */\n      0x7084f5476618d8e60b11ef0d7d3f06914655adb8793e28ff7f018d4c76d505d5\n        /* \"contracts/YunaVaultV2.sol\":325:7874  contract YunaVaultV2 is ReentrancyGuard, Ownable {... */\n      0x20\n        /* \"contracts/YunaVaultV2.sol\":3693:3703  msg.sender */\n      caller\n        /* \"contracts/YunaVaultV2.sol\":3929:3958  Withdrawn(msg.sender, amount) */\n      swap3\n      log2\n        /* \"@openzeppelin/contracts/security/ReentrancyGuard.sol\":1716:1717  1 */\n      0x01\n        /* \"@openzeppelin/contracts/security/ReentrancyGuard.sol\":1759:1760  2 */\n      dup2\n      sstore\n        /* \"contracts/YunaVaultV2.sol\":325:7874  contract YunaVaultV2 is ReentrancyGuard, Ownable {... */\n      dup1\n      return\n    tag_177:\n      0x64\n      swap1\n      0x20\n      dup5\n      mload\n      swap2\n      shl(0xe5, 0x461bcd)\n      dup4\n      mstore\n      dup3\n      add\n      mstore\n      0x13\n      0x24\n      dup3\n      add\n      mstore\n      shl(0x68, 0x6e6f7468696e6720746f207769746864726177)\n      0x44\n      dup3\n      add\n      mstore\n      revert\n    tag_34:\n      pop\n      pop\n      jumpi(tag_74, callvalue)\n      dup2\n      add(calldatasize, not(0x03))\n      slt\n      tag_74\n      jumpi\n      0x20\n      swap1\n      mload\n        /* \"contracts/YunaVaultV2.sol\":710:715  10000 */\n      0x2710\n        /* \"contracts/YunaVaultV2.sol\":325:7874  contract YunaVaultV2 is ReentrancyGuard, Ownable {... */\n      dup2\n      mstore\n      return\n    tag_32:\n      dup4\n      jumpi(tag_128, callvalue)\n      dup1\n      add(calldatasize, not(0x03))\n      slt\n      tag_128\n      jumpi\n        /* \"@openzeppelin/contracts/access/Ownable.sol\":1500:1562  modifier onlyOwner() {... */\n      tag_189\n      tag_3\n      jump\t// in\n    tag_189:\n        /* \"@openzeppelin/contracts/access/Ownable.sol\":3004:3010  _owner */\n      0x01\n        /* \"contracts/YunaVaultV2.sol\":325:7874  contract YunaVaultV2 is ReentrancyGuard, Ownable {... */\n      dup1\n      sload\n      not(sub(shl(0xa0, 0x01), 0x01))\n      dup2\n      and\n      swap1\n      swap2\n      sstore\n      dup2\n      swap1\n      sub(shl(0xa0, 0x01), 0x01)\n      and\n        /* \"@openzeppelin/contracts/access/Ownable.sol\":3052:3092  OwnershipTransferred(oldOwner, newOwner) */\n      0x8be0079c531659141344cd1fd0a4f28419497f9722a3daafe3b4186f6b6457e0\n        /* \"contracts/YunaVaultV2.sol\":325:7874  contract YunaVaultV2 is ReentrancyGuard, Ownable {... */\n      dup3\n      dup1\n        /* \"@openzeppelin/contracts/access/Ownable.sol\":3052:3092  OwnershipTransferred(oldOwner, newOwner) */\n      log3\n        /* \"contracts/YunaVaultV2.sol\":325:7874  contract YunaVaultV2 is ReentrancyGuard, Ownable {... */\n      dup1\n      return\n    tag_30:\n      pop\n      pop\n      jumpi(tag_74, callvalue)\n      dup2\n      add(calldatasize, not(0x03))\n      slt\n      tag_74\n      jumpi\n      mload\n        /* \"contracts/YunaVaultV2.sol\":416:447  IERC20 public immutable lpToken */\n      immutable(\"0x32dc42f894e5a4d4b23942d0616a19a04bbfd803207f066ba76d13d1733bb4d4\")\n      sub(shl(0xa0, 0x01), 0x01)\n        /* \"contracts/YunaVaultV2.sol\":325:7874  contract YunaVaultV2 is ReentrancyGuard, Ownable {... */\n      and\n      dup2\n      mstore\n      0x20\n      swap1\n      return\n    tag_28:\n      dup4\n      swap2\n      pop\n      jumpi(tag_74, callvalue)\n      dup2\n      add(calldatasize, not(0x03))\n      slt\n      tag_74\n      jumpi\n        /* \"@openzeppelin/contracts/access/Ownable.sol\":1500:1562  modifier onlyOwner() {... */\n      tag_198\n      tag_3\n      jump\t// in\n    tag_198:\n        /* \"contracts/YunaVaultV2.sol\":325:7874  contract YunaVaultV2 is ReentrancyGuard, Ownable {... */\n      dup3\n      mload\n      shl(0xe0, 0x70a08231)\n        /* \"contracts/YunaVaultV2.sol\":7725:7761  rewardToken.balanceOf(address(this)) */\n      dup2\n      mstore\n        /* \"contracts/YunaVaultV2.sol\":7755:7759  this */\n      address\n        /* \"contracts/YunaVaultV2.sol\":7725:7761  rewardToken.balanceOf(address(this)) */\n      dup3\n      dup3\n      add\n        /* \"contracts/YunaVaultV2.sol\":325:7874  contract YunaVaultV2 is ReentrancyGuard, Ownable {... */\n      mstore\n      swap1\n        /* \"contracts/YunaVaultV2.sol\":7725:7736  rewardToken */\n      immutable(\"0x69de3b38836c938ac93bb31643655e6e0a011af0f354a009a432084d0f963864\")\n      swap1\n      sub(shl(0xa0, 0x01), 0x01)\n        /* \"contracts/YunaVaultV2.sol\":325:7874  contract YunaVaultV2 is ReentrancyGuard, Ownable {... */\n      swap1\n        /* \"contracts/YunaVaultV2.sol\":7725:7761  rewardToken.balanceOf(address(this)) */\n      0x20\n        /* \"contracts/YunaVaultV2.sol\":325:7874  contract YunaVaultV2 is ReentrancyGuard, Ownable {... */\n      dup5\n      0x24\n      dup2\n      dup6\n      dup8\n      and\n        /* \"contracts/YunaVaultV2.sol\":7725:7761  rewardToken.balanceOf(address(this)) */\n      gas\n      staticcall\n      swap4\n      dup5\n      iszero\n      tag_199\n      jumpi\n      dup6\n      swap5\n      tag_201\n      jumpi\n        /* \"contracts/YunaVaultV2.sol\":325:7874  contract YunaVaultV2 is ReentrancyGuard, Ownable {... */\n    tag_202:\n        /* \"contracts/YunaVaultV2.sol\":7780:7791  balance > 0 */\n      pop\n      dup4\n      iszero\n        /* \"contracts/YunaVaultV2.sol\":325:7874  contract YunaVaultV2 is ReentrancyGuard, Ownable {... */\n      tag_203\n      jumpi\n      pop\n        /* \"contracts/YunaVaultV2.sol\":7853:7860  balance */\n      tag_205\n        /* \"contracts/YunaVaultV2.sol\":325:7874  contract YunaVaultV2 is ReentrancyGuard, Ownable {... */\n      swap4\n      swap5\n      pop\n      sload(0x01)\n      and\n        /* \"contracts/YunaVaultV2.sol\":7853:7860  balance */\n      swap1\n      tag_12\n      jump\t// in\n    tag_205:\n        /* \"contracts/YunaVaultV2.sol\":325:7874  contract YunaVaultV2 is ReentrancyGuard, Ownable {... */\n      dup1\n      return\n    tag_203:\n      0x64\n      swap1\n        /* \"contracts/YunaVaultV2.sol\":7725:7761  rewardToken.balanceOf(address(this)) */\n      0x20\n        /* \"contracts/YunaVaultV2.sol\":325:7874  contract YunaVaultV2 is ReentrancyGuard, Ownable {... */\n      dup8\n      mload\n      swap2\n      shl(0xe5, 0x461bcd)\n      dup4\n      mstore\n      dup3\n      add\n      mstore\n      0x0a\n      0x24\n      dup3\n      add\n      mstore\n      shl(0xb0, 0x6e6f2072657761726473)\n      0x44\n      dup3\n      add\n      mstore\n      revert\n        /* \"contracts/YunaVaultV2.sol\":7725:7761  rewardToken.balanceOf(address(this)) */\n    tag_201:\n      swap1\n      swap4\n      pop\n      0x20\n      dup2\n      returndatasize\n      dup3\n      gt\n      tag_206\n      jumpi\n    tag_207:\n      dup2\n      tag_208\n      0x20\n      swap4\n      dup4\n      tag_7\n      jump\t// in\n    tag_208:\n      dup2\n      add\n        /* \"contracts/YunaVaultV2.sol\":325:7874  contract YunaVaultV2 is ReentrancyGuard, Ownable {... */\n      sub\n      slt\n      tag_209\n      jumpi\n      mload\n        /* \"contracts/YunaVaultV2.sol\":7725:7761  rewardToken.balanceOf(address(this)) */\n      swap3\n      dup7\n      jump(tag_202)\n        /* \"contracts/YunaVaultV2.sol\":325:7874  contract YunaVaultV2 is ReentrancyGuard, Ownable {... */\n    tag_209:\n      dup5\n      dup1\n      revert\n        /* \"contracts/YunaVaultV2.sol\":7725:7761  rewardToken.balanceOf(address(this)) */\n    tag_206:\n      returndatasize\n      swap2\n      pop\n      jump(tag_207)\n    tag_199:\n        /* \"contracts/YunaVaultV2.sol\":325:7874  contract YunaVaultV2 is ReentrancyGuard, Ownable {... */\n      dup7\n      mload\n      returndatasize\n      dup8\n      dup3\n      returndatacopy\n      returndatasize\n      swap1\n      revert\n    tag_26:\n      pop\n      pop\n      jumpi(tag_74, callvalue)\n      dup2\n      add(calldatasize, not(0x03))\n      slt\n      tag_74\n      jumpi\n      0x20\n      swap1\n        /* \"contracts/YunaVaultV2.sol\":7316:7328  participants */\n      0x07\n        /* \"contracts/YunaVaultV2.sol\":325:7874  contract YunaVaultV2 is ReentrancyGuard, Ownable {... */\n      sload\n      swap1\n      mload\n      swap1\n      dup2\n      mstore\n      return\n    tag_24:\n      swap1\n      pop\n      jumpi(tag_91, callvalue)\n      jumpi(tag_91, slt(add(not(0x03), calldatasize), 0x20))\n      calldataload\n      swap2\n        /* \"contracts/YunaVaultV2.sol\":945:974  address[] public participants */\n      0x07\n        /* \"contracts/YunaVaultV2.sol\":325:7874  contract YunaVaultV2 is ReentrancyGuard, Ownable {... */\n      sload\n        /* \"contracts/YunaVaultV2.sol\":945:974  address[] public participants */\n      dup4\n      lt\n      iszero\n      tag_128\n      jumpi\n      pop\n      tag_221\n        /* \"contracts/YunaVaultV2.sol\":325:7874  contract YunaVaultV2 is ReentrancyGuard, Ownable {... */\n      0x20\n        /* \"contracts/YunaVaultV2.sol\":945:974  address[] public participants */\n      swap3\n      tag_2\n      jump\t// in\n    tag_221:\n        /* \"contracts/YunaVaultV2.sol\":325:7874  contract YunaVaultV2 is ReentrancyGuard, Ownable {... */\n      swap1\n      sload\n      swap2\n      mload\n      swap2\n      0x01\n      dup1\n      0xa0\n      shl\n      sub\n      swap2\n      0x03\n      shl\n      shr\n      and\n      dup2\n      mstore\n      return\n    tag_22:\n      swap1\n      pop\n      jumpi(tag_91, callvalue)\n      dup2\n      add(calldatasize, not(0x03))\n      slt\n      tag_91\n      jumpi\n      tag_226\n      tag_1\n      jump\t// in\n    tag_226:\n        /* \"@openzeppelin/contracts/security/ReentrancyGuard.sol\":2227:2330  modifier nonReentrant() {... */\n      swap2\n      tag_227\n      tag_4\n      jump\t// in\n    tag_227:\n        /* \"contracts/YunaVaultV2.sol\":325:7874  contract YunaVaultV2 is ReentrancyGuard, Ownable {... */\n      and(sub(shl(0xa0, 0x01), 0x01), sload(0x03))\n        /* \"contracts/YunaVaultV2.sol\":1253:1263  msg.sender */\n      caller\n        /* \"contracts/YunaVaultV2.sol\":1253:1273  msg.sender == router */\n      sub\n        /* \"contracts/YunaVaultV2.sol\":325:7874  contract YunaVaultV2 is ReentrancyGuard, Ownable {... */\n      tag_228\n      jumpi\n      dup4\n        /* \"contracts/YunaVaultV2.sol\":2735:2741  amount */\n      tag_131\n        /* \"contracts/YunaVaultV2.sol\":325:7874  contract YunaVaultV2 is ReentrancyGuard, Ownable {... */\n      calldataload(0x24)\n      dup6\n        /* \"contracts/YunaVaultV2.sol\":1253:1263  msg.sender */\n      caller\n        /* \"contracts/YunaVaultV2.sol\":2735:2741  amount */\n      tag_6\n      jump\t// in\n        /* \"contracts/YunaVaultV2.sol\":325:7874  contract YunaVaultV2 is ReentrancyGuard, Ownable {... */\n    tag_228:\n      swap1\n      0x20\n      0x64\n      swap3\n      mload\n      swap2\n      shl(0xe5, 0x461bcd)\n      dup4\n      mstore\n      dup3\n      add\n      mstore\n      0x0a\n      0x24\n      dup3\n      add\n      mstore\n      shl(0xb1, 0x3737ba103937baba32b9)\n      0x44\n      dup3\n      add\n      mstore\n      revert\n    tag_20:\n      swap2\n      swap1\n      pop\n      jumpi(tag_91, callvalue)\n      jumpi(tag_91, slt(add(not(0x03), calldatasize), 0x20))\n      dup2\n      calldataload\n        /* \"@openzeppelin/contracts/security/ReentrancyGuard.sol\":2227:2330  modifier nonReentrant() {... */\n      swap2\n      tag_235\n      tag_4\n      jump\t// in\n    tag_235:\n        /* \"contracts/YunaVaultV2.sol\":3346:3356  msg.sender */\n      caller\n        /* \"contracts/YunaVaultV2.sol\":325:7874  contract YunaVaultV2 is ReentrancyGuard, Ownable {... */\n      dup5\n      mstore\n        /* \"contracts/YunaVaultV2.sol\":3340:3345  users */\n      0x06\n        /* \"contracts/YunaVaultV2.sol\":325:7874  contract YunaVaultV2 is ReentrancyGuard, Ownable {... */\n      0x20\n      mstore\n      dup2\n      dup5\n      keccak256\n        /* \"contracts/YunaVaultV2.sol\":3376:3386  amount > 0 */\n      swap1\n      dup4\n      iszero\n      iszero\n        /* \"contracts/YunaVaultV2.sol\":3376:3409  amount > 0 && amount <= u.balance */\n      dup1\n      tag_236\n      jumpi\n        /* \"contracts/YunaVaultV2.sol\":325:7874  contract YunaVaultV2 is ReentrancyGuard, Ownable {... */\n    tag_237:\n      iszero\n      tag_238\n      jumpi\n        /* \"contracts/YunaVaultV2.sol\":3346:3356  msg.sender */\n      pop\n        /* \"contracts/YunaVaultV2.sol\":3455:3465  msg.sender */\n      tag_240\n        /* \"contracts/YunaVaultV2.sol\":3346:3356  msg.sender */\n      caller\n        /* \"contracts/YunaVaultV2.sol\":3455:3465  msg.sender */\n      tag_11\n      jump\t// in\n    tag_240:\n        /* \"contracts/YunaVaultV2.sol\":3479:3498  u.balance -= amount */\n      tag_241\n        /* \"contracts/YunaVaultV2.sol\":325:7874  contract YunaVaultV2 is ReentrancyGuard, Ownable {... */\n      dup4\n      dup3\n      sload\n        /* \"contracts/YunaVaultV2.sol\":3479:3498  u.balance -= amount */\n      tag_9\n      jump\t// in\n    tag_241:\n        /* \"@openzeppelin/contracts/security/ReentrancyGuard.sol\":1759:1760  2 */\n      swap1\n      sstore\n        /* \"contracts/YunaVaultV2.sol\":3544:3550  amount */\n      tag_180\n        /* \"contracts/YunaVaultV2.sol\":3346:3356  msg.sender */\n      dup3\n      caller\n        /* \"contracts/YunaVaultV2.sol\":3511:3518  lpToken */\n      immutable(\"0x32dc42f894e5a4d4b23942d0616a19a04bbfd803207f066ba76d13d1733bb4d4\")\n        /* \"contracts/YunaVaultV2.sol\":3544:3550  amount */\n      tag_12\n      jump\t// in\n        /* \"contracts/YunaVaultV2.sol\":325:7874  contract YunaVaultV2 is ReentrancyGuard, Ownable {... */\n    tag_238:\n      0x64\n      swap1\n      0x20\n      dup5\n      mload\n      swap2\n      shl(0xe5, 0x461bcd)\n      dup4\n      mstore\n      dup3\n      add\n      mstore\n      0x0e\n      0x24\n      dup3\n      add\n      mstore\n      shl(0x92, 0x1a5b9d985b1a5908185b5bdd5b9d)\n      0x44\n      dup3\n      add\n      mstore\n      revert\n        /* \"contracts/YunaVaultV2.sol\":3376:3409  amount > 0 && amount <= u.balance */\n    tag_236:\n        /* \"contracts/YunaVaultV2.sol\":325:7874  contract YunaVaultV2 is ReentrancyGuard, Ownable {... */\n      pop\n      dup2\n      sload\n        /* \"contracts/YunaVaultV2.sol\":3390:3409  amount <= u.balance */\n      dup5\n      gt\n      iszero\n        /* \"contracts/YunaVaultV2.sol\":3376:3409  amount > 0 && amount <= u.balance */\n      jump(tag_237)\n        /* \"contracts/YunaVaultV2.sol\":325:7874  contract YunaVaultV2 is ReentrancyGuard, Ownable {... */\n    tag_1:\n      calldataload(0x04)\n      swap1\n      sub(shl(0xa0, 0x01), 0x01)\n      dup3\n      and\n      dup3\n      sub\n      tag_243\n      jumpi\n      jump\t// out\n    tag_243:\n      0x00\n      dup1\n      revert\n    tag_2:\n        /* \"contracts/YunaVaultV2.sol\":945:974  address[] public participants */\n      0x07\n        /* \"contracts/YunaVaultV2.sol\":325:7874  contract YunaVaultV2 is ReentrancyGuard, Ownable {... */\n      sload\n      dup2\n      lt\n      iszero\n      tag_245\n      jumpi\n        /* \"contracts/YunaVaultV2.sol\":945:974  address[] public participants */\n      0x07\n      0x00\n        /* \"contracts/YunaVaultV2.sol\":325:7874  contract YunaVaultV2 is ReentrancyGuard, Ownable {... */\n      mstore\n      0xa66cc928b5edb82af9bd49922954155ab7b0942694bea4ce44661d9a8736c688\n      add\n      swap1\n      0x00\n      swap1\n      jump\t// out\n    tag_245:\n      mstore(0x00, shl(0xe0, 0x4e487b71))\n      mstore(0x04, 0x32)\n      revert(0x00, 0x24)\n        /* \"@openzeppelin/contracts/access/Ownable.sol\":1796:1958  function _checkOwner() internal view virtual {... */\n    tag_3:\n        /* \"contracts/YunaVaultV2.sol\":325:7874  contract YunaVaultV2 is ReentrancyGuard, Ownable {... */\n      and(sub(shl(0xa0, 0x01), 0x01), sload(0x01))\n        /* \"@openzeppelin/contracts/utils/Context.sol\":735:745  msg.sender */\n      caller\n        /* \"@openzeppelin/contracts/access/Ownable.sol\":1855:1878  owner() != _msgSender() */\n      sub\n        /* \"@openzeppelin/contracts/access/Ownable.sol\":1851:1952  if (owner() != _msgSender()) {... */\n      tag_247\n      jumpi\n        /* \"@openzeppelin/contracts/access/Ownable.sol\":1796:1958  function _checkOwner() internal view virtual {... */\n      jump\t// out\n        /* \"@openzeppelin/contracts/access/Ownable.sol\":1851:1952  if (owner() != _msgSender()) {... */\n    tag_247:\n        /* \"contracts/YunaVaultV2.sol\":325:7874  contract YunaVaultV2 is ReentrancyGuard, Ownable {... */\n      mload(0x40)\n      shl(0xe0, 0x118cdaa7)\n        /* \"@openzeppelin/contracts/access/Ownable.sol\":1901:1941  OwnableUnauthorizedAccount(_msgSender()) */\n      dup2\n      mstore\n        /* \"@openzeppelin/contracts/utils/Context.sol\":735:745  msg.sender */\n      caller\n        /* \"@openzeppelin/contracts/access/Ownable.sol\":1901:1941  OwnableUnauthorizedAccount(_msgSender()) */\n      0x04\n      dup3\n      add\n        /* \"contracts/YunaVaultV2.sol\":325:7874  contract YunaVaultV2 is ReentrancyGuard, Ownable {... */\n      mstore\n      0x24\n      swap1\n        /* \"@openzeppelin/contracts/access/Ownable.sol\":1901:1941  OwnableUnauthorizedAccount(_msgSender()) */\n      revert\n        /* \"@openzeppelin/contracts/security/ReentrancyGuard.sol\":2336:2623  function _nonReentrantBefore() private {... */\n    tag_4:\n        /* \"@openzeppelin/contracts/security/ReentrancyGuard.sol\":1759:1760  2 */\n      0x02\n        /* \"@openzeppelin/contracts/security/ReentrancyGuard.sol\":2468:2475  _status */\n      0x00\n        /* \"contracts/YunaVaultV2.sol\":325:7874  contract YunaVaultV2 is ReentrancyGuard, Ownable {... */\n      sload\n        /* \"@openzeppelin/contracts/security/ReentrancyGuard.sol\":2468:2487  _status != _ENTERED */\n      eq\n        /* \"@openzeppelin/contracts/security/ReentrancyGuard.sol\":1759:1760  2 */\n      tag_249\n      jumpi\n      0x02\n        /* \"@openzeppelin/contracts/security/ReentrancyGuard.sol\":2468:2475  _status */\n      0x00\n        /* \"@openzeppelin/contracts/security/ReentrancyGuard.sol\":1759:1760  2 */\n      sstore\n        /* \"@openzeppelin/contracts/security/ReentrancyGuard.sol\":2336:2623  function _nonReentrantBefore() private {... */\n      jump\t// out\n        /* \"@openzeppelin/contracts/security/ReentrancyGuard.sol\":1759:1760  2 */\n    tag_249:\n        /* \"contracts/YunaVaultV2.sol\":325:7874  contract YunaVaultV2 is ReentrancyGuard, Ownable {... */\n      mload(0x40)\n      shl(0xe5, 0x461bcd)\n        /* \"@openzeppelin/contracts/security/ReentrancyGuard.sol\":1759:1760  2 */\n      dup2\n      mstore\n      0x20\n      0x04\n      dup3\n      add\n      mstore\n      0x1f\n      0x24\n      dup3\n      add\n        /* \"contracts/YunaVaultV2.sol\":325:7874  contract YunaVaultV2 is ReentrancyGuard, Ownable {... */\n      mstore\n        /* \"@openzeppelin/contracts/security/ReentrancyGuard.sol\":1759:1760  2 */\n      0x5265656e7472616e637947756172643a207265656e7472616e742063616c6c00\n        /* \"contracts/YunaVaultV2.sol\":325:7874  contract YunaVaultV2 is ReentrancyGuard, Ownable {... */\n      0x44\n      dup3\n      add\n        /* \"@openzeppelin/contracts/security/ReentrancyGuard.sol\":1759:1760  2 */\n      mstore\n      0x64\n      swap1\n      revert\n        /* \"contracts/YunaVaultV2.sol\":325:7874  contract YunaVaultV2 is ReentrancyGuard, Ownable {... */\n    tag_5:\n      swap2\n      swap1\n      dup3\n      add\n      dup1\n      swap3\n      gt\n      tag_251\n      jumpi\n      jump\t// out\n    tag_251:\n      mstore(0x00, shl(0xe0, 0x4e487b71))\n      mstore(0x04, 0x11)\n      revert(0x00, 0x24)\n        /* \"contracts/YunaVaultV2.sol\":2758:3248  function _depositFor(address from, address user, uint256 amount) internal {... */\n    tag_6:\n      swap2\n      swap1\n        /* \"contracts/YunaVaultV2.sol\":2861:2875  21000000000000 */\n      0x1319718a5000\n        /* \"contracts/YunaVaultV2.sol\":2851:2875  amount >= 21000000000000 */\n      dup3\n      lt\n        /* \"contracts/YunaVaultV2.sol\":325:7874  contract YunaVaultV2 is ReentrancyGuard, Ownable {... */\n      tag_253\n      jumpi\n        /* \"contracts/YunaVaultV2.sol\":2918:2922  user */\n      tag_255\n      dup2\n      tag_11\n      jump\t// in\n    tag_255:\n        /* \"contracts/YunaVaultV2.sol\":325:7874  contract YunaVaultV2 is ReentrancyGuard, Ownable {... */\n      mload(0x40)\n      shl(0xe0, 0x23b872dd)\n        /* \"@openzeppelin/contracts/token/ERC20/utils/SafeERC20.sol\":1745:1798  abi.encodeCall(token.transferFrom, (from, to, value)) */\n      0x20\n      dup3\n      add\n      mstore\n      sub(shl(0xa0, 0x01), 0x01)\n        /* \"contracts/YunaVaultV2.sol\":325:7874  contract YunaVaultV2 is ReentrancyGuard, Ownable {... */\n      swap4\n      dup5\n      and\n        /* \"@openzeppelin/contracts/token/ERC20/utils/SafeERC20.sol\":1745:1798  abi.encodeCall(token.transferFrom, (from, to, value)) */\n      0x24\n      dup3\n      add\n        /* \"contracts/YunaVaultV2.sol\":325:7874  contract YunaVaultV2 is ReentrancyGuard, Ownable {... */\n      mstore\n        /* \"contracts/YunaVaultV2.sol\":2975:2979  this */\n      address\n        /* \"contracts/YunaVaultV2.sol\":325:7874  contract YunaVaultV2 is ReentrancyGuard, Ownable {... */\n      0x44\n      dup3\n      add\n      mstore\n      0x64\n      dup1\n      dup3\n      add\n      dup5\n      swap1\n      mstore\n        /* \"@openzeppelin/contracts/token/ERC20/utils/SafeERC20.sol\":1745:1798  abi.encodeCall(token.transferFrom, (from, to, value)) */\n      dup2\n      mstore\n        /* \"contracts/YunaVaultV2.sol\":325:7874  contract YunaVaultV2 is ReentrancyGuard, Ownable {... */\n      swap1\n      0xa0\n      dup3\n      add\n      0xffffffffffffffff\n      dup2\n      gt\n      dup4\n      dup3\n      lt\n      or\n      tag_256\n      jumpi\n      dup5\n      swap3\n        /* \"@openzeppelin/contracts/token/ERC20/utils/SafeERC20.sol\":1745:1798  abi.encodeCall(token.transferFrom, (from, to, value)) */\n      tag_258\n        /* \"contracts/YunaVaultV2.sol\":325:7874  contract YunaVaultV2 is ReentrancyGuard, Ownable {... */\n      swap2\n      0x40\n      mstore\n        /* \"contracts/YunaVaultV2.sol\":2936:2943  lpToken */\n      immutable(\"0x32dc42f894e5a4d4b23942d0616a19a04bbfd803207f066ba76d13d1733bb4d4\")\n        /* \"@openzeppelin/contracts/token/ERC20/utils/SafeERC20.sol\":1745:1798  abi.encodeCall(token.transferFrom, (from, to, value)) */\n      tag_8\n      jump\t// in\n    tag_258:\n        /* \"contracts/YunaVaultV2.sol\":325:7874  contract YunaVaultV2 is ReentrancyGuard, Ownable {... */\n      and\n      swap2\n      0x00\n      swap1\n      dup4\n      dup3\n      mstore\n        /* \"contracts/YunaVaultV2.sol\":3017:3030  isParticipant */\n      0x02\n        /* \"@openzeppelin/contracts/token/ERC20/utils/SafeERC20.sol\":1745:1798  abi.encodeCall(token.transferFrom, (from, to, value)) */\n      0x20\n        /* \"contracts/YunaVaultV2.sol\":325:7874  contract YunaVaultV2 is ReentrancyGuard, Ownable {... */\n      mstore\n      0x40\n      dup3\n      keccak256\n      dup1\n      sload\n      0xff\n      dup2\n      and\n        /* \"contracts/YunaVaultV2.sol\":3016:3036  !isParticipant[user] */\n      iszero\n        /* \"contracts/YunaVaultV2.sol\":3012:3129  if (!isParticipant[user]) {... */\n      tag_259\n      jumpi\n        /* \"contracts/YunaVaultV2.sol\":2758:3248  function _depositFor(address from, address user, uint256 amount) internal {... */\n    tag_260:\n        /* \"contracts/YunaVaultV2.sol\":325:7874  contract YunaVaultV2 is ReentrancyGuard, Ownable {... */\n      pop\n      pop\n      pop\n        /* \"contracts/YunaVaultV2.sol\":3217:3240  Deposited(user, amount) */\n      0x2da466a7b24304f47e87fa2e1e5a81b9831ce54fec19055ce277ca2f39ba42c4\n        /* \"contracts/YunaVaultV2.sol\":325:7874  contract YunaVaultV2 is ReentrancyGuard, Ownable {... */\n      swap2\n      0x40\n      dup3\n      dup6\n        /* \"@openzeppelin/contracts/token/ERC20/utils/SafeERC20.sol\":1745:1798  abi.encodeCall(token.transferFrom, (from, to, value)) */\n      0x20\n        /* \"contracts/YunaVaultV2.sol\":325:7874  contract YunaVaultV2 is ReentrancyGuard, Ownable {... */\n      swap5\n      mstore\n        /* \"contracts/YunaVaultV2.sol\":3158:3163  users */\n      0x06\n        /* \"contracts/YunaVaultV2.sol\":325:7874  contract YunaVaultV2 is ReentrancyGuard, Ownable {... */\n      dup5\n      mstore\n      keccak256\n        /* \"contracts/YunaVaultV2.sol\":3180:3199  u.balance += amount */\n      tag_261\n        /* \"contracts/YunaVaultV2.sol\":325:7874  contract YunaVaultV2 is ReentrancyGuard, Ownable {... */\n      dup3\n      dup3\n      sload\n        /* \"contracts/YunaVaultV2.sol\":3180:3199  u.balance += amount */\n      tag_5\n      jump\t// in\n    tag_261:\n        /* \"@openzeppelin/contracts/security/ReentrancyGuard.sol\":1759:1760  2 */\n      swap1\n      sstore\n        /* \"contracts/YunaVaultV2.sol\":325:7874  contract YunaVaultV2 is ReentrancyGuard, Ownable {... */\n      mload(0x40)\n      swap1\n      dup2\n      mstore\n        /* \"contracts/YunaVaultV2.sol\":3217:3240  Deposited(user, amount) */\n      log2\n        /* \"contracts/YunaVaultV2.sol\":2758:3248  function _depositFor(address from, address user, uint256 amount) internal {... */\n      jump\t// out\n        /* \"contracts/YunaVaultV2.sol\":3012:3129  if (!isParticipant[user]) {... */\n    tag_259:\n      not(0xff)\n        /* \"contracts/YunaVaultV2.sol\":325:7874  contract YunaVaultV2 is ReentrancyGuard, Ownable {... */\n      and\n      0x01\n      or\n      swap1\n      sstore\n        /* \"contracts/YunaVaultV2.sol\":3094:3106  participants */\n      0x07\n        /* \"contracts/YunaVaultV2.sol\":325:7874  contract YunaVaultV2 is ReentrancyGuard, Ownable {... */\n      sload\n      0x010000000000000000\n      dup2\n      lt\n      iszero\n      tag_262\n      jumpi\n        /* \"@openzeppelin/contracts/token/ERC20/utils/SafeERC20.sol\":1745:1798  abi.encodeCall(token.transferFrom, (from, to, value)) */\n      0x20\n        /* \"contracts/YunaVaultV2.sol\":325:7874  contract YunaVaultV2 is ReentrancyGuard, Ownable {... */\n      swap3\n        /* \"contracts/YunaVaultV2.sol\":3217:3240  Deposited(user, amount) */\n      0x2da466a7b24304f47e87fa2e1e5a81b9831ce54fec19055ce277ca2f39ba42c4\n        /* \"contracts/YunaVaultV2.sol\":325:7874  contract YunaVaultV2 is ReentrancyGuard, Ownable {... */\n      swap5\n      swap3\n      tag_264\n      dup4\n      0x01\n      0x40\n      swap6\n      add\n        /* \"contracts/YunaVaultV2.sol\":3094:3106  participants */\n      0x07\n        /* \"contracts/YunaVaultV2.sol\":325:7874  contract YunaVaultV2 is ReentrancyGuard, Ownable {... */\n      sstore\n      tag_2\n      jump\t// in\n    tag_264:\n      dup2\n      swap3\n      swap2\n      sload\n      swap1\n      0x03\n      shl\n      swap2\n      dup10\n      dup4\n      shl\n      swap3\n      shl\n      not\n      and\n      or\n      swap1\n      sstore\n        /* \"contracts/YunaVaultV2.sol\":3012:3129  if (!isParticipant[user]) {... */\n      swap3\n      dup3\n      swap5\n      pop\n      jump(tag_260)\n        /* \"contracts/YunaVaultV2.sol\":325:7874  contract YunaVaultV2 is ReentrancyGuard, Ownable {... */\n    tag_262:\n      shl(0xe0, 0x4e487b71)\n      dup4\n      mstore\n      mstore(0x04, 0x41)\n        /* \"@openzeppelin/contracts/token/ERC20/utils/SafeERC20.sol\":1745:1798  abi.encodeCall(token.transferFrom, (from, to, value)) */\n      0x24\n        /* \"contracts/YunaVaultV2.sol\":325:7874  contract YunaVaultV2 is ReentrancyGuard, Ownable {... */\n      dup4\n      revert\n    tag_256:\n      mstore(0x00, shl(0xe0, 0x4e487b71))\n      mstore(0x04, 0x41)\n        /* \"@openzeppelin/contracts/token/ERC20/utils/SafeERC20.sol\":1745:1798  abi.encodeCall(token.transferFrom, (from, to, value)) */\n      0x24\n        /* \"contracts/YunaVaultV2.sol\":325:7874  contract YunaVaultV2 is ReentrancyGuard, Ownable {... */\n      0x00\n      revert\n    tag_253:\n      mload(0x40)\n      shl(0xe5, 0x461bcd)\n      dup2\n      mstore\n      0x20\n      0x04\n      dup3\n      add\n      mstore\n      0x0b\n      0x24\n      dup3\n      add\n      mstore\n      shl(0xaa, 0x1b1bddc819195c1bdcda5d)\n      0x44\n      dup3\n      add\n      mstore\n      0x64\n      swap1\n      revert\n    tag_7:\n      swap1\n      0x1f\n      dup1\n      not\n      swap2\n      add\n      and\n      dup2\n      add\n      swap1\n      dup2\n      lt\n      0xffffffffffffffff\n      dup3\n      gt\n      or\n      tag_256\n      jumpi\n      0x40\n      mstore\n      jump\t// out\n        /* \"@openzeppelin/contracts/token/ERC20/utils/SafeERC20.sol\":8370:9090  function _callOptionalReturn(IERC20 token, bytes memory data) private {... */\n    tag_8:\n      swap1\n      0x00\n        /* \"@openzeppelin/contracts/token/ERC20/utils/SafeERC20.sol\":8507:8928  assembly (\"memory-safe\") {... */\n      0x20\n        /* \"@openzeppelin/contracts/token/ERC20/utils/SafeERC20.sol\":8370:9090  function _callOptionalReturn(IERC20 token, bytes memory data) private {... */\n      swap2\n        /* \"@openzeppelin/contracts/token/ERC20/utils/SafeERC20.sol\":8507:8928  assembly (\"memory-safe\") {... */\n      dup3\n      dup2\n      mload\n      swap2\n      add\n      dup3\n      dup6\n      gas\n      call\n      iszero\n      tag_267\n      jumpi\n      mload(0x00)\n      returndatasize\n        /* \"@openzeppelin/contracts/token/ERC20/utils/SafeERC20.sol\":8942:8957  returnSize == 0 */\n      tag_269\n      jumpi\n      pop\n      sub(shl(0xa0, 0x01), 0x01)\n        /* \"contracts/YunaVaultV2.sol\":325:7874  contract YunaVaultV2 is ReentrancyGuard, Ownable {... */\n      dup2\n      and\n        /* \"@openzeppelin/contracts/token/ERC20/utils/SafeERC20.sol\":8960:8986  address(token).code.length */\n      extcodesize\n        /* \"@openzeppelin/contracts/token/ERC20/utils/SafeERC20.sol\":8960:8991  address(token).code.length == 0 */\n      iszero\n        /* \"@openzeppelin/contracts/token/ERC20/utils/SafeERC20.sol\":8942:9010  returnSize == 0 ? address(token).code.length == 0 : returnValue != 1 */\n    tag_271:\n        /* \"@openzeppelin/contracts/token/ERC20/utils/SafeERC20.sol\":8938:9084  if (returnSize == 0 ? address(token).code.length == 0 : returnValue != 1) {... */\n      tag_272\n      jumpi\n        /* \"@openzeppelin/contracts/token/ERC20/utils/SafeERC20.sol\":8370:9090  function _callOptionalReturn(IERC20 token, bytes memory data) private {... */\n      pop\n      jump\t// out\n        /* \"@openzeppelin/contracts/token/ERC20/utils/SafeERC20.sol\":8938:9084  if (returnSize == 0 ? address(token).code.length == 0 : returnValue != 1) {... */\n    tag_272:\n        /* \"contracts/YunaVaultV2.sol\":325:7874  contract YunaVaultV2 is ReentrancyGuard, Ownable {... */\n      mload(0x40)\n      shl(0xe0, 0x5274afe7)\n        /* \"@openzeppelin/contracts/token/ERC20/utils/SafeERC20.sol\":9033:9073  SafeERC20FailedOperation(address(token)) */\n      dup2\n      mstore\n      sub(shl(0xa0, 0x01), 0x01)\n        /* \"contracts/YunaVaultV2.sol\":325:7874  contract YunaVaultV2 is ReentrancyGuard, Ownable {... */\n      swap1\n      swap2\n      and\n        /* \"@openzeppelin/contracts/token/ERC20/utils/SafeERC20.sol\":9033:9073  SafeERC20FailedOperation(address(token)) */\n      0x04\n      dup3\n      add\n        /* \"contracts/YunaVaultV2.sol\":325:7874  contract YunaVaultV2 is ReentrancyGuard, Ownable {... */\n      mstore\n      0x24\n      swap1\n        /* \"@openzeppelin/contracts/token/ERC20/utils/SafeERC20.sol\":9033:9073  SafeERC20FailedOperation(address(token)) */\n      revert\n        /* \"@openzeppelin/contracts/token/ERC20/utils/SafeERC20.sol\":8942:9010  returnSize == 0 ? address(token).code.length == 0 : returnValue != 1 */\n    tag_269:\n        /* \"@openzeppelin/contracts/token/ERC20/utils/SafeERC20.sol\":9009:9010  1 */\n      0x01\n        /* \"@openzeppelin/contracts/token/ERC20/utils/SafeERC20.sol\":8994:9010  returnValue != 1 */\n      eq\n      iszero\n        /* \"@openzeppelin/contracts/token/ERC20/utils/SafeERC20.sol\":8942:9010  returnSize == 0 ? address(token).code.length == 0 : returnValue != 1 */\n      jump(tag_271)\n        /* \"@openzeppelin/contracts/token/ERC20/utils/SafeERC20.sol\":8507:8928  assembly (\"memory-safe\") {... */\n    tag_267:\n      mload(0x40)\n      returndatasize\n      0x00\n      dup3\n      returndatacopy\n      returndatasize\n      swap1\n      revert\n        /* \"contracts/YunaVaultV2.sol\":325:7874  contract YunaVaultV2 is ReentrancyGuard, Ownable {... */\n    tag_9:\n      swap2\n      swap1\n      dup3\n      sub\n      swap2\n      dup3\n      gt\n      tag_251\n      jumpi\n      jump\t// out\n    tag_10:\n      dup2\n      dup2\n      mul\n      swap3\n      swap2\n      dup2\n      iszero\n      swap2\n      dup5\n      div\n      eq\n      or\n      iszero\n      tag_251\n      jumpi\n      jump\t// out\n        /* \"contracts/YunaVaultV2.sol\":1946:2446  function _updateUserXP(address userAddr) internal {... */\n    tag_11:\n        /* \"contracts/YunaVaultV2.sol\":325:7874  contract YunaVaultV2 is ReentrancyGuard, Ownable {... */\n      0x01\n      dup1\n      0xa0\n      shl\n      sub\n      and\n      0x00\n      mstore\n        /* \"contracts/YunaVaultV2.sol\":2024:2029  users */\n      0x06\n        /* \"contracts/YunaVaultV2.sol\":325:7874  contract YunaVaultV2 is ReentrancyGuard, Ownable {... */\n      0x20\n      mstore\n      keccak256(0x00, 0x40)\n      0x01\n        /* \"contracts/YunaVaultV2.sol\":2056:2073  u.lastUpdateBlock */\n      dup2\n      add\n        /* \"contracts/YunaVaultV2.sol\":325:7874  contract YunaVaultV2 is ReentrancyGuard, Ownable {... */\n      swap1\n      dup2\n      sload\n        /* \"contracts/YunaVaultV2.sol\":2056:2078  u.lastUpdateBlock == 0 */\n      iszero\n        /* \"contracts/YunaVaultV2.sol\":2052:2160  if (u.lastUpdateBlock == 0) {... */\n      tag_278\n      jumpi\n        /* \"contracts/YunaVaultV2.sol\":2189:2221  block.number - u.lastUpdateBlock */\n      tag_280\n        /* \"contracts/YunaVaultV2.sol\":325:7874  contract YunaVaultV2 is ReentrancyGuard, Ownable {... */\n      dup3\n      sload\n        /* \"contracts/YunaVaultV2.sol\":2189:2201  block.number */\n      number\n        /* \"contracts/YunaVaultV2.sol\":2189:2221  block.number - u.lastUpdateBlock */\n      tag_9\n      jump\t// in\n    tag_280:\n        /* \"contracts/YunaVaultV2.sol\":2236:2246  blocks > 0 */\n      swap1\n      dup2\n      iszero\n      iszero\n        /* \"contracts/YunaVaultV2.sol\":2236:2263  blocks > 0 && u.balance > 0 */\n      dup1\n      tag_281\n      jumpi\n        /* \"contracts/YunaVaultV2.sol\":1946:2446  function _updateUserXP(address userAddr) internal {... */\n    tag_282:\n        /* \"contracts/YunaVaultV2.sol\":2232:2394  if (blocks > 0 && u.balance > 0) {... */\n      tag_283\n      jumpi\n        /* \"contracts/YunaVaultV2.sol\":1946:2446  function _updateUserXP(address userAddr) internal {... */\n    tag_284:\n        /* \"contracts/YunaVaultV2.sol\":2189:2201  block.number */\n      pop\n      pop\n      number\n        /* \"@openzeppelin/contracts/security/ReentrancyGuard.sol\":1759:1760  2 */\n      swap1\n      sstore\n        /* \"contracts/YunaVaultV2.sol\":1946:2446  function _updateUserXP(address userAddr) internal {... */\n      jump\t// out\n        /* \"contracts/YunaVaultV2.sol\":2232:2394  if (blocks > 0 && u.balance > 0) {... */\n    tag_283:\n        /* \"contracts/YunaVaultV2.sol\":2332:2336  u.xp */\n      0x02\n        /* \"contracts/YunaVaultV2.sol\":2299:2317  blocks * u.balance */\n      tag_285\n        /* \"contracts/YunaVaultV2.sol\":2363:2382  totalXP += gainedXP */\n      tag_286\n        /* \"contracts/YunaVaultV2.sol\":325:7874  contract YunaVaultV2 is ReentrancyGuard, Ownable {... */\n      swap4\n      dup4\n      sload\n        /* \"contracts/YunaVaultV2.sol\":2299:2317  blocks * u.balance */\n      swap1\n      tag_10\n      jump\t// in\n    tag_285:\n        /* \"contracts/YunaVaultV2.sol\":2332:2336  u.xp */\n      swap2\n      add\n        /* \"contracts/YunaVaultV2.sol\":2332:2348  u.xp += gainedXP */\n      tag_287\n        /* \"contracts/YunaVaultV2.sol\":325:7874  contract YunaVaultV2 is ReentrancyGuard, Ownable {... */\n      dup3\n      dup3\n      sload\n        /* \"contracts/YunaVaultV2.sol\":2332:2348  u.xp += gainedXP */\n      tag_5\n      jump\t// in\n    tag_287:\n        /* \"@openzeppelin/contracts/security/ReentrancyGuard.sol\":1759:1760  2 */\n      swap1\n      sstore\n        /* \"contracts/YunaVaultV2.sol\":2363:2382  totalXP += gainedXP */\n      0x05\n        /* \"contracts/YunaVaultV2.sol\":325:7874  contract YunaVaultV2 is ReentrancyGuard, Ownable {... */\n      sload\n        /* \"contracts/YunaVaultV2.sol\":2363:2382  totalXP += gainedXP */\n      tag_5\n      jump\t// in\n    tag_286:\n      0x05\n        /* \"@openzeppelin/contracts/security/ReentrancyGuard.sol\":1759:1760  2 */\n      sstore\n        /* \"contracts/YunaVaultV2.sol\":2232:2394  if (blocks > 0 && u.balance > 0) {... */\n      0x00\n      dup1\n      jump(tag_284)\n        /* \"contracts/YunaVaultV2.sol\":2236:2263  blocks > 0 && u.balance > 0 */\n    tag_281:\n        /* \"contracts/YunaVaultV2.sol\":325:7874  contract YunaVaultV2 is ReentrancyGuard, Ownable {... */\n      pop\n      dup1\n      sload\n        /* \"contracts/YunaVaultV2.sol\":2250:2263  u.balance > 0 */\n      iszero\n      iszero\n        /* \"contracts/YunaVaultV2.sol\":2236:2263  blocks > 0 && u.balance > 0 */\n      jump(tag_282)\n        /* \"contracts/YunaVaultV2.sol\":2052:2160  if (u.lastUpdateBlock == 0) {... */\n    tag_278:\n        /* \"contracts/YunaVaultV2.sol\":2115:2127  block.number */\n      pop\n      number\n        /* \"@openzeppelin/contracts/security/ReentrancyGuard.sol\":1759:1760  2 */\n      swap1\n      sstore\n        /* \"contracts/YunaVaultV2.sol\":2142:2149  return; */\n      jump\t// out\n        /* \"@openzeppelin/contracts/token/ERC20/utils/SafeERC20.sol\":1219:1379  function safeTransfer(IERC20 token, address to, uint256 value) internal {... */\n    tag_12:\n        /* \"contracts/YunaVaultV2.sol\":325:7874  contract YunaVaultV2 is ReentrancyGuard, Ownable {... */\n      mload(0x40)\n      shl(0xe0, 0xa9059cbb)\n        /* \"@openzeppelin/contracts/token/ERC20/utils/SafeERC20.sol\":1328:1371  abi.encodeCall(token.transfer, (to, value)) */\n      0x20\n      dup3\n      add\n      mstore\n      sub(shl(0xa0, 0x01), 0x01)\n        /* \"contracts/YunaVaultV2.sol\":325:7874  contract YunaVaultV2 is ReentrancyGuard, Ownable {... */\n      swap1\n      swap3\n      and\n        /* \"@openzeppelin/contracts/token/ERC20/utils/SafeERC20.sol\":1328:1371  abi.encodeCall(token.transfer, (to, value)) */\n      0x24\n      dup4\n      add\n        /* \"contracts/YunaVaultV2.sol\":325:7874  contract YunaVaultV2 is ReentrancyGuard, Ownable {... */\n      mstore\n      0x44\n      dup1\n      dup4\n      add\n      swap4\n      swap1\n      swap4\n      mstore\n        /* \"@openzeppelin/contracts/token/ERC20/utils/SafeERC20.sol\":1328:1371  abi.encodeCall(token.transfer, (to, value)) */\n      swap2\n      dup2\n      mstore\n        /* \"contracts/YunaVaultV2.sol\":325:7874  contract YunaVaultV2 is ReentrancyGuard, Ownable {... */\n      0x80\n      dup2\n      add\n      swap2\n      0xffffffffffffffff\n      dup4\n      gt\n      dup3\n      dup5\n      lt\n      or\n      tag_256\n      jumpi\n        /* \"@openzeppelin/contracts/token/ERC20/utils/SafeERC20.sol\":1328:1371  abi.encodeCall(token.transfer, (to, value)) */\n      tag_290\n        /* \"contracts/YunaVaultV2.sol\":325:7874  contract YunaVaultV2 is ReentrancyGuard, Ownable {... */\n      swap3\n      0x40\n      mstore\n        /* \"@openzeppelin/contracts/token/ERC20/utils/SafeERC20.sol\":1328:1371  abi.encodeCall(token.transfer, (to, value)) */\n      tag_8\n      jump\t// in\n    tag_290:\n        /* \"@openzeppelin/contracts/token/ERC20/utils/SafeERC20.sol\":1219:1379  function safeTransfer(IERC20 token, address to, uint256 value) internal {... */\n      jump\t// out\n        /* \"contracts/YunaVaultV2.sol\":325:7874  contract YunaVaultV2 is ReentrancyGuard, Ownable {... */\n    tag_13:\n      not(0x00)\n      dup2\n      eq\n      tag_251\n      jumpi\n      0x01\n      add\n      swap1\n      jump\t// out\n    tag_14:\n      dup2\n      iszero\n      tag_293\n      jumpi\n      div\n      swap1\n      jump\t// out\n    tag_293:\n      mstore(0x00, shl(0xe0, 0x4e487b71))\n      mstore(0x04, 0x12)\n      revert(0x00, 0x24)\n        /* \"contracts/YunaVaultV2.sol\":3974:5375  function claimAll() external nonReentrant {... */\n    tag_15:\n        /* \"contracts/YunaVaultV2.sol\":325:7874  contract YunaVaultV2 is ReentrancyGuard, Ownable {... */\n      0x40\n      dup1\n      mload\n      shl(0xe0, 0x70a08231)\n        /* \"contracts/YunaVaultV2.sol\":4051:4087  rewardToken.balanceOf(address(this)) */\n      dup2\n      mstore\n        /* \"contracts/YunaVaultV2.sol\":4081:4085  this */\n      address\n        /* \"contracts/YunaVaultV2.sol\":4051:4087  rewardToken.balanceOf(address(this)) */\n      0x04\n      dup3\n      add\n        /* \"contracts/YunaVaultV2.sol\":325:7874  contract YunaVaultV2 is ReentrancyGuard, Ownable {... */\n      mstore\n      sub(shl(0xa0, 0x01), 0x01)\n      swap3\n        /* \"contracts/YunaVaultV2.sol\":4051:4062  rewardToken */\n      immutable(\"0x69de3b38836c938ac93bb31643655e6e0a011af0f354a009a432084d0f963864\")\n      swap3\n        /* \"contracts/YunaVaultV2.sol\":325:7874  contract YunaVaultV2 is ReentrancyGuard, Ownable {... */\n      swap2\n        /* \"contracts/YunaVaultV2.sol\":4051:4087  rewardToken.balanceOf(address(this)) */\n      0x20\n      swap2\n        /* \"contracts/YunaVaultV2.sol\":325:7874  contract YunaVaultV2 is ReentrancyGuard, Ownable {... */\n      swap1\n        /* \"contracts/YunaVaultV2.sol\":4051:4087  rewardToken.balanceOf(address(this)) */\n      dup3\n        /* \"contracts/YunaVaultV2.sol\":325:7874  contract YunaVaultV2 is ReentrancyGuard, Ownable {... */\n      dup2\n      0x24\n      dup2\n      dup10\n      dup10\n      and\n        /* \"contracts/YunaVaultV2.sol\":4051:4087  rewardToken.balanceOf(address(this)) */\n      gas\n      staticcall\n      swap1\n      dup2\n      iszero\n      tag_295\n      jumpi\n      0x00\n      swap2\n      tag_297\n      jumpi\n        /* \"contracts/YunaVaultV2.sol\":3974:5375  function claimAll() external nonReentrant {... */\n    tag_298:\n        /* \"contracts/YunaVaultV2.sol\":325:7874  contract YunaVaultV2 is ReentrancyGuard, Ownable {... */\n      pop\n        /* \"contracts/YunaVaultV2.sol\":4115:4145  block.number - lastRewardBlock */\n      tag_299\n        /* \"contracts/YunaVaultV2.sol\":4051:4087  rewardToken.balanceOf(address(this)) */\n      0x04\n        /* \"contracts/YunaVaultV2.sol\":325:7874  contract YunaVaultV2 is ReentrancyGuard, Ownable {... */\n      sload\n        /* \"contracts/YunaVaultV2.sol\":4115:4127  block.number */\n      number\n        /* \"contracts/YunaVaultV2.sol\":4115:4145  block.number - lastRewardBlock */\n      tag_9\n      jump\t// in\n    tag_299:\n        /* \"contracts/YunaVaultV2.sol\":4160:4171  blocks == 0 */\n      dup1\n      iszero\n        /* \"contracts/YunaVaultV2.sol\":4156:4180  if (blocks == 0) return; */\n      tag_300\n      jumpi\n        /* \"contracts/YunaVaultV2.sol\":4216:4230  rewardPerBlock */\n      immutable(\"0x859a6a23943f5d7286393d65629fb81b6943c202b5ed2617fb4fcc1cbe2bc943\")\n        /* \"contracts/YunaVaultV2.sol\":4207:4230  blocks * rewardPerBlock */\n      swap1\n      dup3\n      tag_302\n      dup4\n      dup4\n      tag_10\n      jump\t// in\n    tag_302:\n        /* \"contracts/YunaVaultV2.sol\":4207:4246  blocks * rewardPerBlock > rewardBalance */\n      gt\n        /* \"contracts/YunaVaultV2.sol\":4207:4288  blocks * rewardPerBlock > rewardBalance ? rewardBalance : blocks * rewardPerBlock */\n      iszero\n      tag_303\n      jumpi\n      pop\n      pop\n      swap1\n    tag_305:\n      0x00\n        /* \"contracts/YunaVaultV2.sol\":4346:4349  i++ */\n    tag_306:\n        /* \"contracts/YunaVaultV2.sol\":4325:4337  participants */\n      0x07\n        /* \"contracts/YunaVaultV2.sol\":325:7874  contract YunaVaultV2 is ReentrancyGuard, Ownable {... */\n      sload\n        /* \"contracts/YunaVaultV2.sol\":4321:4344  i < participants.length */\n      dup2\n      lt\n      iszero\n      tag_307\n      jumpi\n        /* \"contracts/YunaVaultV2.sol\":4389:4404  participants[i] */\n      dup1\n      dup8\n      tag_309\n        /* \"contracts/YunaVaultV2.sol\":4346:4349  i++ */\n      tag_310\n        /* \"contracts/YunaVaultV2.sol\":4389:4404  participants[i] */\n      swap4\n      tag_2\n      jump\t// in\n    tag_309:\n        /* \"contracts/YunaVaultV2.sol\":325:7874  contract YunaVaultV2 is ReentrancyGuard, Ownable {... */\n      swap1\n      sload\n      swap1\n      0x03\n      shl\n      shr\n      and\n      0x00\n      mstore\n        /* \"contracts/YunaVaultV2.sol\":4383:4388  users */\n      0x06\n        /* \"contracts/YunaVaultV2.sol\":325:7874  contract YunaVaultV2 is ReentrancyGuard, Ownable {... */\n      dup6\n      mstore\n      dup6\n      0x00\n      keccak256\n      dup1\n      sload\n        /* \"contracts/YunaVaultV2.sol\":4424:4438  u.balance == 0 */\n      swap1\n      dup2\n      iszero\n        /* \"contracts/YunaVaultV2.sol\":4420:4448  if (u.balance == 0) continue */\n      tag_311\n      jumpi\n        /* \"contracts/YunaVaultV2.sol\":4545:4549  u.xp */\n      0x02\n        /* \"contracts/YunaVaultV2.sol\":4484:4530  (block.number - u.lastUpdateBlock) * u.balance */\n      tag_313\n        /* \"contracts/YunaVaultV2.sol\":325:7874  contract YunaVaultV2 is ReentrancyGuard, Ownable {... */\n      0x01\n        /* \"contracts/YunaVaultV2.sol\":4500:4517  u.lastUpdateBlock */\n      dup4\n      add\n        /* \"contracts/YunaVaultV2.sol\":325:7874  contract YunaVaultV2 is ReentrancyGuard, Ownable {... */\n      swap4\n        /* \"contracts/YunaVaultV2.sol\":4485:4517  block.number - u.lastUpdateBlock */\n      tag_314\n        /* \"contracts/YunaVaultV2.sol\":325:7874  contract YunaVaultV2 is ReentrancyGuard, Ownable {... */\n      dup6\n      sload\n        /* \"contracts/YunaVaultV2.sol\":4115:4127  block.number */\n      number\n        /* \"contracts/YunaVaultV2.sol\":4485:4517  block.number - u.lastUpdateBlock */\n      tag_9\n      jump\t// in\n    tag_314:\n        /* \"contracts/YunaVaultV2.sol\":4484:4530  (block.number - u.lastUpdateBlock) * u.balance */\n      tag_10\n      jump\t// in\n    tag_313:\n        /* \"contracts/YunaVaultV2.sol\":4545:4549  u.xp */\n      swap2\n      add\n        /* \"contracts/YunaVaultV2.sol\":4545:4561  u.xp += gainedXP */\n      tag_315\n        /* \"contracts/YunaVaultV2.sol\":325:7874  contract YunaVaultV2 is ReentrancyGuard, Ownable {... */\n      dup3\n      dup3\n      sload\n        /* \"contracts/YunaVaultV2.sol\":4545:4561  u.xp += gainedXP */\n      tag_5\n      jump\t// in\n    tag_315:\n        /* \"@openzeppelin/contracts/security/ReentrancyGuard.sol\":1759:1760  2 */\n      swap1\n      sstore\n        /* \"contracts/YunaVaultV2.sol\":4576:4595  totalXP += gainedXP */\n      tag_316\n      0x05\n        /* \"contracts/YunaVaultV2.sol\":325:7874  contract YunaVaultV2 is ReentrancyGuard, Ownable {... */\n      swap2\n      dup3\n      sload\n        /* \"contracts/YunaVaultV2.sol\":4576:4595  totalXP += gainedXP */\n      tag_5\n      jump\t// in\n    tag_316:\n        /* \"@openzeppelin/contracts/security/ReentrancyGuard.sol\":1759:1760  2 */\n      swap1\n      sstore\n        /* \"contracts/YunaVaultV2.sol\":4115:4127  block.number */\n      number\n        /* \"@openzeppelin/contracts/security/ReentrancyGuard.sol\":1759:1760  2 */\n      swap1\n      sstore\n        /* \"contracts/YunaVaultV2.sol\":4346:4349  i++ */\n      tag_13\n      jump\t// in\n    tag_310:\n        /* \"contracts/YunaVaultV2.sol\":4306:4319  uint256 i = 0 */\n      jump(tag_306)\n        /* \"contracts/YunaVaultV2.sol\":4420:4448  if (u.balance == 0) continue */\n    tag_311:\n        /* \"contracts/YunaVaultV2.sol\":4440:4448  continue */\n      pop\n      pop\n        /* \"contracts/YunaVaultV2.sol\":4346:4349  i++ */\n      tag_13\n      jump\t// in\n        /* \"contracts/YunaVaultV2.sol\":4321:4344  i < participants.length */\n    tag_307:\n      pop\n      swap3\n      swap4\n      swap1\n      swap4\n        /* \"contracts/YunaVaultV2.sol\":666:668  50 */\n      0x32\n        /* \"contracts/YunaVaultV2.sol\":325:7874  contract YunaVaultV2 is ReentrancyGuard, Ownable {... */\n      dup6\n      mul\n      dup6\n      dup2\n      div\n        /* \"contracts/YunaVaultV2.sol\":666:668  50 */\n      0x32\n        /* \"contracts/YunaVaultV2.sol\":325:7874  contract YunaVaultV2 is ReentrancyGuard, Ownable {... */\n      eq\n      dup7\n      iszero\n      or\n      iszero\n      tag_251\n      jumpi\n        /* \"contracts/YunaVaultV2.sol\":710:715  10000 */\n      0x2710\n        /* \"contracts/YunaVaultV2.sol\":4868:4887  pool - callerReward */\n      tag_320\n        /* \"contracts/YunaVaultV2.sol\":325:7874  contract YunaVaultV2 is ReentrancyGuard, Ownable {... */\n      swap2\n      div\n        /* \"contracts/YunaVaultV2.sol\":4737:4753  callerReward > 0 */\n      dup1\n      swap7\n      dup2\n        /* \"contracts/YunaVaultV2.sol\":4733:4832  if (callerReward > 0) {... */\n      tag_321\n      jumpi\n        /* \"contracts/YunaVaultV2.sol\":4868:4887  pool - callerReward */\n      tag_9\n      jump\t// in\n    tag_320:\n        /* \"contracts/YunaVaultV2.sol\":4905:4918  uint256 i = 0 */\n      swap4\n      0x00\n        /* \"contracts/YunaVaultV2.sol\":4945:4948  i++ */\n    tag_323:\n        /* \"contracts/YunaVaultV2.sol\":4325:4337  participants */\n      0x07\n        /* \"contracts/YunaVaultV2.sol\":325:7874  contract YunaVaultV2 is ReentrancyGuard, Ownable {... */\n      sload\n        /* \"contracts/YunaVaultV2.sol\":4920:4943  i < participants.length */\n      dup2\n      lt\n      iszero\n      tag_324\n      jumpi\n        /* \"contracts/YunaVaultV2.sol\":4980:4995  participants[i] */\n      dup1\n      dup9\n      tag_326\n        /* \"contracts/YunaVaultV2.sol\":4945:4948  i++ */\n      tag_327\n        /* \"contracts/YunaVaultV2.sol\":4980:4995  participants[i] */\n      swap4\n      tag_2\n      jump\t// in\n    tag_326:\n        /* \"contracts/YunaVaultV2.sol\":325:7874  contract YunaVaultV2 is ReentrancyGuard, Ownable {... */\n      swap1\n      sload\n      swap1\n      0x03\n      shl\n      shr\n      and\n      dup1\n      0x00\n      mstore\n        /* \"contracts/YunaVaultV2.sol\":4383:4388  users */\n      0x06\n        /* \"contracts/YunaVaultV2.sol\":325:7874  contract YunaVaultV2 is ReentrancyGuard, Ownable {... */\n      dup8\n      mstore\n        /* \"contracts/YunaVaultV2.sol\":4545:4549  u.xp */\n      0x02\n        /* \"contracts/YunaVaultV2.sol\":325:7874  contract YunaVaultV2 is ReentrancyGuard, Ownable {... */\n      dup6\n      0x00\n      keccak256\n        /* \"contracts/YunaVaultV2.sol\":5057:5061  u.xp */\n      add\n        /* \"contracts/YunaVaultV2.sol\":325:7874  contract YunaVaultV2 is ReentrancyGuard, Ownable {... */\n      dup1\n      sload\n        /* \"contracts/YunaVaultV2.sol\":5057:5066  u.xp == 0 */\n      swap2\n      dup3\n      iszero\n        /* \"contracts/YunaVaultV2.sol\":5053:5076  if (u.xp == 0) continue */\n      tag_328\n      jumpi\n        /* \"contracts/YunaVaultV2.sol\":5110:5142  (distributable * u.xp) / totalXP */\n      tag_330\n        /* \"contracts/YunaVaultV2.sol\":5111:5131  distributable * u.xp */\n      tag_331\n      0x00\n      swap5\n      dup13\n      tag_10\n      jump\t// in\n    tag_331:\n        /* \"contracts/YunaVaultV2.sol\":4576:4595  totalXP += gainedXP */\n      0x05\n        /* \"contracts/YunaVaultV2.sol\":325:7874  contract YunaVaultV2 is ReentrancyGuard, Ownable {... */\n      sload\n        /* \"contracts/YunaVaultV2.sol\":5110:5142  (distributable * u.xp) / totalXP */\n      swap1\n      tag_14\n      jump\t// in\n    tag_330:\n        /* \"contracts/YunaVaultV2.sol\":5161:5171  reward > 0 */\n      dup1\n        /* \"contracts/YunaVaultV2.sol\":5157:5211  if (reward > 0) rewardToken.safeTransfer(user, reward) */\n      tag_332\n      jumpi\n        /* \"contracts/YunaVaultV2.sol\":4945:4948  i++ */\n    tag_333:\n        /* \"@openzeppelin/contracts/security/ReentrancyGuard.sol\":1759:1760  2 */\n      pop\n      pop\n      sstore\n        /* \"contracts/YunaVaultV2.sol\":4945:4948  i++ */\n      tag_13\n      jump\t// in\n    tag_327:\n        /* \"contracts/YunaVaultV2.sol\":4905:4918  uint256 i = 0 */\n      jump(tag_323)\n        /* \"contracts/YunaVaultV2.sol\":5157:5211  if (reward > 0) rewardToken.safeTransfer(user, reward) */\n    tag_332:\n        /* \"contracts/YunaVaultV2.sol\":5204:5210  reward */\n      tag_335\n      swap2\n      dup10\n      tag_12\n      jump\t// in\n    tag_335:\n        /* \"contracts/YunaVaultV2.sol\":5157:5211  if (reward > 0) rewardToken.safeTransfer(user, reward) */\n      0x00\n      dup1\n      jump(tag_333)\n        /* \"contracts/YunaVaultV2.sol\":5053:5076  if (u.xp == 0) continue */\n    tag_328:\n        /* \"contracts/YunaVaultV2.sol\":5068:5076  continue */\n      pop\n      pop\n      pop\n        /* \"contracts/YunaVaultV2.sol\":4945:4948  i++ */\n      tag_13\n      jump\t// in\n        /* \"contracts/YunaVaultV2.sol\":4920:4943  i < participants.length */\n    tag_324:\n      pop\n      swap6\n      pop\n      swap3\n      swap2\n        /* \"contracts/YunaVaultV2.sol\":5330:5367  ClaimAll(distributable, callerReward) */\n      0x3c3d358c457d91d874593441791f0b96c90172a78030ce0ce7e8e8c965fe1469\n        /* \"contracts/YunaVaultV2.sol\":4920:4943  i < participants.length */\n      swap5\n      swap2\n      pop\n      0x00\n        /* \"contracts/YunaVaultV2.sol\":4576:4595  totalXP += gainedXP */\n      0x05\n        /* \"@openzeppelin/contracts/security/ReentrancyGuard.sol\":1759:1760  2 */\n      sstore\n        /* \"contracts/YunaVaultV2.sol\":4115:4127  block.number */\n      number\n        /* \"contracts/YunaVaultV2.sol\":4051:4087  rewardToken.balanceOf(address(this)) */\n      0x04\n        /* \"@openzeppelin/contracts/security/ReentrancyGuard.sol\":1759:1760  2 */\n      sstore\n        /* \"contracts/YunaVaultV2.sol\":325:7874  contract YunaVaultV2 is ReentrancyGuard, Ownable {... */\n      dup4\n      mload\n      swap3\n      dup4\n      mstore\n      dup3\n      add\n      mstore\n        /* \"contracts/YunaVaultV2.sol\":5330:5367  ClaimAll(distributable, callerReward) */\n      log1\n        /* \"contracts/YunaVaultV2.sol\":3974:5375  function claimAll() external nonReentrant {... */\n      jump\t// out\n        /* \"contracts/YunaVaultV2.sol\":4733:4832  if (callerReward > 0) {... */\n    tag_321:\n        /* \"contracts/YunaVaultV2.sol\":4807:4819  callerReward */\n      tag_336\n        /* \"contracts/YunaVaultV2.sol\":4795:4805  msg.sender */\n      dup3\n      caller\n        /* \"contracts/YunaVaultV2.sol\":4807:4819  callerReward */\n      dup8\n      tag_12\n      jump\t// in\n    tag_336:\n        /* \"contracts/YunaVaultV2.sol\":4868:4887  pool - callerReward */\n      tag_9\n      jump\t// in\n        /* \"contracts/YunaVaultV2.sol\":4207:4288  blocks * rewardPerBlock > rewardBalance ? rewardBalance : blocks * rewardPerBlock */\n    tag_303:\n        /* \"contracts/YunaVaultV2.sol\":4265:4288  blocks * rewardPerBlock */\n      tag_337\n      swap3\n      pop\n      tag_10\n      jump\t// in\n    tag_337:\n        /* \"contracts/YunaVaultV2.sol\":4207:4288  blocks * rewardPerBlock > rewardBalance ? rewardBalance : blocks * rewardPerBlock */\n      swap1\n      jump(tag_305)\n        /* \"contracts/YunaVaultV2.sol\":4156:4180  if (blocks == 0) return; */\n    tag_300:\n        /* \"contracts/YunaVaultV2.sol\":4173:4180  return; */\n      pop\n      pop\n      swap4\n      pop\n      pop\n      pop\n      pop\n      jump\t// out\n        /* \"contracts/YunaVaultV2.sol\":4051:4087  rewardToken.balanceOf(address(this)) */\n    tag_297:\n      swap1\n      dup4\n      dup3\n      dup2\n      returndatasize\n      dup4\n      gt\n      tag_338\n      jumpi\n    tag_339:\n      tag_340\n      dup2\n      dup4\n      tag_7\n      jump\t// in\n    tag_340:\n      dup2\n      add\n        /* \"contracts/YunaVaultV2.sol\":325:7874  contract YunaVaultV2 is ReentrancyGuard, Ownable {... */\n      sub\n      slt\n      tag_128\n      jumpi\n      pop\n      mload\n        /* \"contracts/YunaVaultV2.sol\":4051:4087  rewardToken.balanceOf(address(this)) */\n      0x00\n      jump(tag_298)\n    tag_338:\n      pop\n      returndatasize\n      jump(tag_339)\n    tag_295:\n        /* \"contracts/YunaVaultV2.sol\":325:7874  contract YunaVaultV2 is ReentrancyGuard, Ownable {... */\n      dup5\n      mload\n      returndatasize\n      0x00\n      dup3\n      returndatacopy\n      returndatasize\n      swap1\n      revert\n        /* \"contracts/YunaVaultV2.sol\":5383:6712  function claimableReward(address userAddr) external view returns (uint256) {... */\n    tag_16:\n        /* \"contracts/YunaVaultV2.sol\":5486:5516  block.number - lastRewardBlock */\n      tag_343\n        /* \"contracts/YunaVaultV2.sol\":5501:5516  lastRewardBlock */\n      0x04\n        /* \"contracts/YunaVaultV2.sol\":325:7874  contract YunaVaultV2 is ReentrancyGuard, Ownable {... */\n      sload\n        /* \"contracts/YunaVaultV2.sol\":5486:5498  block.number */\n      number\n        /* \"contracts/YunaVaultV2.sol\":5486:5516  block.number - lastRewardBlock */\n      tag_9\n      jump\t// in\n    tag_343:\n        /* \"contracts/YunaVaultV2.sol\":5531:5542  blocks == 0 */\n      dup1\n      iszero\n        /* \"contracts/YunaVaultV2.sol\":5527:5552  if (blocks == 0) return 0 */\n      tag_344\n      jumpi\n        /* \"contracts/YunaVaultV2.sol\":325:7874  contract YunaVaultV2 is ReentrancyGuard, Ownable {... */\n      0x40\n      dup1\n      mload\n      shl(0xe0, 0x70a08231)\n        /* \"contracts/YunaVaultV2.sol\":5589:5625  rewardToken.balanceOf(address(this)) */\n      dup2\n      mstore\n        /* \"contracts/YunaVaultV2.sol\":5619:5623  this */\n      address\n        /* \"contracts/YunaVaultV2.sol\":5501:5516  lastRewardBlock */\n      0x04\n        /* \"contracts/YunaVaultV2.sol\":5589:5625  rewardToken.balanceOf(address(this)) */\n      dup3\n      add\n        /* \"contracts/YunaVaultV2.sol\":325:7874  contract YunaVaultV2 is ReentrancyGuard, Ownable {... */\n      mstore\n      sub(shl(0xa0, 0x01), 0x01)\n      swap3\n        /* \"contracts/YunaVaultV2.sol\":5589:5625  rewardToken.balanceOf(address(this)) */\n      0x20\n      swap3\n        /* \"contracts/YunaVaultV2.sol\":325:7874  contract YunaVaultV2 is ReentrancyGuard, Ownable {... */\n      swap2\n      swap1\n        /* \"contracts/YunaVaultV2.sol\":5589:5625  rewardToken.balanceOf(address(this)) */\n      dup4\n        /* \"contracts/YunaVaultV2.sol\":325:7874  contract YunaVaultV2 is ReentrancyGuard, Ownable {... */\n      dup3\n      0x24\n      dup2\n        /* \"contracts/YunaVaultV2.sol\":5589:5600  rewardToken */\n      immutable(\"0x69de3b38836c938ac93bb31643655e6e0a011af0f354a009a432084d0f963864\")\n        /* \"contracts/YunaVaultV2.sol\":325:7874  contract YunaVaultV2 is ReentrancyGuard, Ownable {... */\n      dup10\n      and\n        /* \"contracts/YunaVaultV2.sol\":5589:5625  rewardToken.balanceOf(address(this)) */\n      gas\n      staticcall\n      swap2\n      dup3\n      iszero\n      tag_346\n      jumpi\n        /* \"contracts/YunaVaultV2.sol\":325:7874  contract YunaVaultV2 is ReentrancyGuard, Ownable {... */\n      0x00\n        /* \"contracts/YunaVaultV2.sol\":5589:5625  rewardToken.balanceOf(address(this)) */\n      swap3\n      tag_348\n      jumpi\n        /* \"contracts/YunaVaultV2.sol\":5383:6712  function claimableReward(address userAddr) external view returns (uint256) {... */\n    tag_349:\n        /* \"contracts/YunaVaultV2.sol\":5663:5677  rewardPerBlock */\n      pop\n        /* \"contracts/YunaVaultV2.sol\":5654:5677  blocks * rewardPerBlock */\n      tag_350\n        /* \"contracts/YunaVaultV2.sol\":5663:5677  rewardPerBlock */\n      swap1\n      immutable(\"0x859a6a23943f5d7286393d65629fb81b6943c202b5ed2617fb4fcc1cbe2bc943\")\n        /* \"contracts/YunaVaultV2.sol\":5654:5677  blocks * rewardPerBlock */\n      swap1\n      tag_10\n      jump\t// in\n    tag_350:\n        /* \"contracts/YunaVaultV2.sol\":5703:5726  rawPool > rewardBalance */\n      dup2\n      dup2\n      gt\n      iszero\n      tag_351\n      jumpi\n        /* \"contracts/YunaVaultV2.sol\":5703:5752  rawPool > rewardBalance ? rewardBalance : rawPool */\n      pop\n    tag_353:\n        /* \"contracts/YunaVaultV2.sol\":5767:5776  pool == 0 */\n      dup1\n      iszero\n        /* \"contracts/YunaVaultV2.sol\":5763:5786  if (pool == 0) return 0 */\n      tag_354\n      jumpi\n        /* \"contracts/YunaVaultV2.sol\":666:668  50 */\n      0x32\n        /* \"contracts/YunaVaultV2.sol\":325:7874  contract YunaVaultV2 is ReentrancyGuard, Ownable {... */\n      dup2\n      mul\n      swap1\n      dup1\n      dup3\n      div\n        /* \"contracts/YunaVaultV2.sol\":666:668  50 */\n      0x32\n        /* \"contracts/YunaVaultV2.sol\":325:7874  contract YunaVaultV2 is ReentrancyGuard, Ownable {... */\n      sub\n      tag_251\n      jumpi\n        /* \"contracts/YunaVaultV2.sol\":710:715  10000 */\n      0x2710\n        /* \"contracts/YunaVaultV2.sol\":5887:5903  pool - callerFee */\n      tag_358\n        /* \"contracts/YunaVaultV2.sol\":325:7874  contract YunaVaultV2 is ReentrancyGuard, Ownable {... */\n      swap3\n      div\n        /* \"contracts/YunaVaultV2.sol\":5887:5903  pool - callerFee */\n      swap1\n      tag_9\n      jump\t// in\n    tag_358:\n        /* \"contracts/YunaVaultV2.sol\":325:7874  contract YunaVaultV2 is ReentrancyGuard, Ownable {... */\n      swap2\n        /* \"contracts/YunaVaultV2.sol\":5943:5950  totalXP */\n      0x05\n        /* \"contracts/YunaVaultV2.sol\":325:7874  contract YunaVaultV2 is ReentrancyGuard, Ownable {... */\n      sload\n        /* \"contracts/YunaVaultV2.sol\":5961:5975  uint256 userXP */\n      swap4\n        /* \"contracts/YunaVaultV2.sol\":325:7874  contract YunaVaultV2 is ReentrancyGuard, Ownable {... */\n      0x00\n        /* \"contracts/YunaVaultV2.sol\":6048:6061  uint256 i = 0 */\n      swap6\n      dup7\n        /* \"contracts/YunaVaultV2.sol\":325:7874  contract YunaVaultV2 is ReentrancyGuard, Ownable {... */\n      swap4\n        /* \"contracts/YunaVaultV2.sol\":6067:6079  participants */\n      0x07\n        /* \"contracts/YunaVaultV2.sol\":325:7874  contract YunaVaultV2 is ReentrancyGuard, Ownable {... */\n      sload\n        /* \"contracts/YunaVaultV2.sol\":6043:6579  for (uint256 i = 0; i < participants.length; i++) {... */\n      swap5\n        /* \"contracts/YunaVaultV2.sol\":6063:6086  i < participants.length */\n    tag_359:\n      dup6\n      dup2\n      lt\n      tag_360\n      jumpi\n        /* \"contracts/YunaVaultV2.sol\":6595:6606  userXP == 0 */\n      pop\n      pop\n      pop\n      pop\n      pop\n      pop\n      dup3\n      iszero\n        /* \"contracts/YunaVaultV2.sol\":6595:6631  userXP == 0 || simulatedTotalXP == 0 */\n      dup1\n      iszero\n      tag_362\n      jumpi\n        /* \"contracts/YunaVaultV2.sol\":6043:6579  for (uint256 i = 0; i < participants.length; i++) {... */\n    tag_363:\n        /* \"contracts/YunaVaultV2.sol\":6591:6641  if (userXP == 0 || simulatedTotalXP == 0) return 0 */\n      tag_364\n      jumpi\n        /* \"contracts/YunaVaultV2.sol\":6661:6704  (distributable * userXP) / simulatedTotalXP */\n      tag_366\n        /* \"contracts/YunaVaultV2.sol\":6662:6684  distributable * userXP */\n      swap3\n      tag_367\n      swap2\n      tag_10\n      jump\t// in\n    tag_367:\n        /* \"contracts/YunaVaultV2.sol\":6661:6704  (distributable * userXP) / simulatedTotalXP */\n      tag_14\n      jump\t// in\n    tag_366:\n        /* \"contracts/YunaVaultV2.sol\":5383:6712  function claimableReward(address userAddr) external view returns (uint256) {... */\n      swap1\n      jump\t// out\n        /* \"contracts/YunaVaultV2.sol\":6591:6641  if (userXP == 0 || simulatedTotalXP == 0) return 0 */\n    tag_364:\n        /* \"contracts/YunaVaultV2.sol\":6633:6641  return 0 */\n      pop\n      pop\n      pop\n        /* \"contracts/YunaVaultV2.sol\":325:7874  contract YunaVaultV2 is ReentrancyGuard, Ownable {... */\n      0x00\n        /* \"contracts/YunaVaultV2.sol\":6633:6641  return 0 */\n      swap1\n      jump\t// out\n        /* \"contracts/YunaVaultV2.sol\":6595:6631  userXP == 0 || simulatedTotalXP == 0 */\n    tag_362:\n        /* \"contracts/YunaVaultV2.sol\":6610:6631  simulatedTotalXP == 0 */\n      pop\n      dup2\n      iszero\n        /* \"contracts/YunaVaultV2.sol\":6595:6631  userXP == 0 || simulatedTotalXP == 0 */\n      jump(tag_363)\n        /* \"contracts/YunaVaultV2.sol\":6088:6091  i++ */\n    tag_360:\n        /* \"contracts/YunaVaultV2.sol\":6120:6135  participants[i] */\n      dup4\n      tag_368\n      dup3\n      tag_2\n      jump\t// in\n    tag_368:\n        /* \"contracts/YunaVaultV2.sol\":325:7874  contract YunaVaultV2 is ReentrancyGuard, Ownable {... */\n      swap1\n      sload\n      swap1\n      0x03\n      shl\n      shr\n      and\n      swap8\n      dup9\n      0x00\n      mstore\n        /* \"contracts/YunaVaultV2.sol\":6167:6172  users */\n      0x06\n        /* \"contracts/YunaVaultV2.sol\":325:7874  contract YunaVaultV2 is ReentrancyGuard, Ownable {... */\n      dup7\n      mstore\n      dup3\n      0x00\n      keccak256\n      dup1\n      sload\n        /* \"contracts/YunaVaultV2.sol\":6194:6208  u.balance == 0 */\n      swap1\n      dup2\n      iszero\n        /* \"contracts/YunaVaultV2.sol\":6190:6218  if (u.balance == 0) continue */\n      tag_369\n      jumpi\n        /* \"contracts/YunaVaultV2.sol\":6235:6255  uint256 gainedXP = 0 */\n      swap1\n        /* \"contracts/YunaVaultV2.sol\":6453:6481  simulatedTotalXP += gainedXP */\n      tag_371\n        /* \"contracts/YunaVaultV2.sol\":6235:6255  uint256 gainedXP = 0 */\n      swap2\n        /* \"contracts/YunaVaultV2.sol\":325:7874  contract YunaVaultV2 is ReentrancyGuard, Ownable {... */\n      0x00\n        /* \"contracts/YunaVaultV2.sol\":6274:6291  u.lastUpdateBlock */\n      swap2\n        /* \"contracts/YunaVaultV2.sol\":325:7874  contract YunaVaultV2 is ReentrancyGuard, Ownable {... */\n      0x01\n        /* \"contracts/YunaVaultV2.sol\":6274:6291  u.lastUpdateBlock */\n      dup3\n      add\n        /* \"contracts/YunaVaultV2.sol\":325:7874  contract YunaVaultV2 is ReentrancyGuard, Ownable {... */\n      sload\n        /* \"contracts/YunaVaultV2.sol\":6274:6295  u.lastUpdateBlock > 0 */\n      dup1\n        /* \"contracts/YunaVaultV2.sol\":6270:6389  if (u.lastUpdateBlock > 0) {... */\n      tag_372\n      jumpi\n        /* \"contracts/YunaVaultV2.sol\":6088:6091  i++ */\n    tag_373:\n        /* \"contracts/YunaVaultV2.sol\":6423:6427  u.xp */\n      pop\n      pop\n      dup2\n      0x02\n        /* \"contracts/YunaVaultV2.sol\":6423:6438  u.xp + gainedXP */\n      tag_374\n        /* \"contracts/YunaVaultV2.sol\":6423:6427  u.xp */\n      swap3\n      add\n        /* \"contracts/YunaVaultV2.sol\":325:7874  contract YunaVaultV2 is ReentrancyGuard, Ownable {... */\n      sload\n        /* \"contracts/YunaVaultV2.sol\":6423:6438  u.xp + gainedXP */\n      tag_5\n      jump\t// in\n    tag_374:\n        /* \"contracts/YunaVaultV2.sol\":6453:6481  simulatedTotalXP += gainedXP */\n      swap3\n      tag_5\n      jump\t// in\n    tag_371:\n        /* \"contracts/YunaVaultV2.sol\":325:7874  contract YunaVaultV2 is ReentrancyGuard, Ownable {... */\n      swap9\n      dup6\n      dup6\n      and\n        /* \"contracts/YunaVaultV2.sol\":6502:6515  p == userAddr */\n      eq\n        /* \"contracts/YunaVaultV2.sol\":6498:6568  if (p == userAddr) {... */\n      tag_375\n      jumpi\n        /* \"contracts/YunaVaultV2.sol\":6088:6091  i++ */\n    tag_376:\n      pop\n      tag_377\n      swap1\n      tag_13\n      jump\t// in\n    tag_377:\n        /* \"contracts/YunaVaultV2.sol\":6048:6061  uint256 i = 0 */\n      jump(tag_359)\n        /* \"contracts/YunaVaultV2.sol\":6498:6568  if (p == userAddr) {... */\n    tag_375:\n      swap9\n      pop\n        /* \"contracts/YunaVaultV2.sol\":6088:6091  i++ */\n      tag_377\n        /* \"contracts/YunaVaultV2.sol\":6498:6568  if (p == userAddr) {... */\n      jump(tag_376)\n        /* \"contracts/YunaVaultV2.sol\":6270:6389  if (u.lastUpdateBlock > 0) {... */\n    tag_372:\n        /* \"contracts/YunaVaultV2.sol\":6423:6427  u.xp */\n      0x02\n        /* \"contracts/YunaVaultV2.sol\":5486:5498  block.number */\n      swap4\n      pop\n        /* \"contracts/YunaVaultV2.sol\":6423:6438  u.xp + gainedXP */\n      tag_374\n        /* \"contracts/YunaVaultV2.sol\":5486:5498  block.number */\n      swap3\n      swap2\n        /* \"contracts/YunaVaultV2.sol\":6328:6360  block.number - u.lastUpdateBlock */\n      tag_314\n        /* \"contracts/YunaVaultV2.sol\":6327:6373  (block.number - u.lastUpdateBlock) * u.balance */\n      tag_380\n        /* \"contracts/YunaVaultV2.sol\":5486:5498  block.number */\n      swap3\n      number\n        /* \"contracts/YunaVaultV2.sol\":6328:6360  block.number - u.lastUpdateBlock */\n      tag_9\n      jump\t// in\n        /* \"contracts/YunaVaultV2.sol\":6327:6373  (block.number - u.lastUpdateBlock) * u.balance */\n    tag_380:\n        /* \"contracts/YunaVaultV2.sol\":6270:6389  if (u.lastUpdateBlock > 0) {... */\n      swap3\n      dup2\n      swap3\n      pop\n      jump(tag_373)\n        /* \"contracts/YunaVaultV2.sol\":6190:6218  if (u.balance == 0) continue */\n    tag_369:\n        /* \"contracts/YunaVaultV2.sol\":6210:6218  continue */\n      pop\n      pop\n      swap8\n      pop\n        /* \"contracts/YunaVaultV2.sol\":6088:6091  i++ */\n      tag_377\n        /* \"contracts/YunaVaultV2.sol\":6210:6218  continue */\n      swap1\n        /* \"contracts/YunaVaultV2.sol\":6088:6091  i++ */\n      tag_13\n      jump\t// in\n        /* \"contracts/YunaVaultV2.sol\":5763:5786  if (pool == 0) return 0 */\n    tag_354:\n        /* \"contracts/YunaVaultV2.sol\":5778:5786  return 0 */\n      pop\n      pop\n      pop\n      pop\n      pop\n        /* \"contracts/YunaVaultV2.sol\":325:7874  contract YunaVaultV2 is ReentrancyGuard, Ownable {... */\n      0x00\n        /* \"contracts/YunaVaultV2.sol\":5778:5786  return 0 */\n      swap1\n      jump\t// out\n        /* \"contracts/YunaVaultV2.sol\":5703:5752  rawPool > rewardBalance ? rewardBalance : rawPool */\n    tag_351:\n      swap1\n      pop\n      jump(tag_353)\n        /* \"contracts/YunaVaultV2.sol\":5589:5625  rewardToken.balanceOf(address(this)) */\n    tag_348:\n      swap1\n      swap2\n      dup5\n      dup3\n      dup2\n      returndatasize\n      dup4\n      gt\n      tag_381\n      jumpi\n    tag_382:\n      tag_383\n      dup2\n      dup4\n      tag_7\n      jump\t// in\n    tag_383:\n      dup2\n      add\n        /* \"contracts/YunaVaultV2.sol\":325:7874  contract YunaVaultV2 is ReentrancyGuard, Ownable {... */\n      sub\n      slt\n      tag_128\n      jumpi\n      pop\n      mload\n      swap1\n        /* \"contracts/YunaVaultV2.sol\":5654:5677  blocks * rewardPerBlock */\n      tag_350\n        /* \"contracts/YunaVaultV2.sol\":5589:5625  rewardToken.balanceOf(address(this)) */\n      jump(tag_349)\n    tag_381:\n      pop\n      returndatasize\n      jump(tag_382)\n    tag_346:\n        /* \"contracts/YunaVaultV2.sol\":325:7874  contract YunaVaultV2 is ReentrancyGuard, Ownable {... */\n      dup4\n      mload\n      returndatasize\n      0x00\n      dup3\n      returndatacopy\n      returndatasize\n      swap1\n      revert\n        /* \"contracts/YunaVaultV2.sol\":5527:5552  if (blocks == 0) return 0 */\n    tag_344:\n        /* \"contracts/YunaVaultV2.sol\":5544:5552  return 0 */\n      pop\n      pop\n        /* \"contracts/YunaVaultV2.sol\":325:7874  contract YunaVaultV2 is ReentrancyGuard, Ownable {... */\n      0x00\n        /* \"contracts/YunaVaultV2.sol\":5544:5552  return 0 */\n      swap1\n      jump\t// out\n        /* \"contracts/YunaVaultV2.sol\":6722:7107  function remainingRewardPool() external view returns (uint256) {... */\n    tag_17:\n        /* \"contracts/YunaVaultV2.sol\":6813:6843  block.number - lastRewardBlock */\n      tag_386\n        /* \"contracts/YunaVaultV2.sol\":6828:6843  lastRewardBlock */\n      0x04\n        /* \"contracts/YunaVaultV2.sol\":325:7874  contract YunaVaultV2 is ReentrancyGuard, Ownable {... */\n      sload\n        /* \"contracts/YunaVaultV2.sol\":6813:6825  block.number */\n      number\n        /* \"contracts/YunaVaultV2.sol\":6813:6843  block.number - lastRewardBlock */\n      tag_9\n      jump\t// in\n    tag_386:\n        /* \"contracts/YunaVaultV2.sol\":325:7874  contract YunaVaultV2 is ReentrancyGuard, Ownable {... */\n      mload(0x40)\n      shl(0xe0, 0x70a08231)\n        /* \"contracts/YunaVaultV2.sol\":6878:6914  rewardToken.balanceOf(address(this)) */\n      dup2\n      mstore\n        /* \"contracts/YunaVaultV2.sol\":6908:6912  this */\n      address\n        /* \"contracts/YunaVaultV2.sol\":6828:6843  lastRewardBlock */\n      0x04\n        /* \"contracts/YunaVaultV2.sol\":6878:6914  rewardToken.balanceOf(address(this)) */\n      dup3\n      add\n        /* \"contracts/YunaVaultV2.sol\":325:7874  contract YunaVaultV2 is ReentrancyGuard, Ownable {... */\n      mstore\n        /* \"contracts/YunaVaultV2.sol\":6878:6914  rewardToken.balanceOf(address(this)) */\n      0x20\n        /* \"contracts/YunaVaultV2.sol\":325:7874  contract YunaVaultV2 is ReentrancyGuard, Ownable {... */\n      dup2\n      0x24\n      dup2\n        /* \"contracts/YunaVaultV2.sol\":6878:6889  rewardToken */\n      immutable(\"0x69de3b38836c938ac93bb31643655e6e0a011af0f354a009a432084d0f963864\")\n      sub(shl(0xa0, 0x01), 0x01)\n        /* \"contracts/YunaVaultV2.sol\":325:7874  contract YunaVaultV2 is ReentrancyGuard, Ownable {... */\n      and\n        /* \"contracts/YunaVaultV2.sol\":6878:6914  rewardToken.balanceOf(address(this)) */\n      gas\n      staticcall\n      swap1\n      dup2\n      iszero\n      tag_267\n      jumpi\n      0x00\n      swap2\n      tag_389\n      jumpi\n        /* \"contracts/YunaVaultV2.sol\":6722:7107  function remainingRewardPool() external view returns (uint256) {... */\n    tag_390:\n        /* \"contracts/YunaVaultV2.sol\":6952:6966  rewardPerBlock */\n      pop\n        /* \"contracts/YunaVaultV2.sol\":6943:6966  blocks * rewardPerBlock */\n      tag_391\n        /* \"contracts/YunaVaultV2.sol\":6952:6966  rewardPerBlock */\n      immutable(\"0x859a6a23943f5d7286393d65629fb81b6943c202b5ed2617fb4fcc1cbe2bc943\")\n        /* \"contracts/YunaVaultV2.sol\":6943:6966  blocks * rewardPerBlock */\n      dup4\n      tag_10\n      jump\t// in\n    tag_391:\n        /* \"contracts/YunaVaultV2.sol\":6992:7015  rawPool > rewardBalance */\n      dup2\n      dup2\n      gt\n      iszero\n      tag_392\n      jumpi\n        /* \"contracts/YunaVaultV2.sol\":6992:7041  rawPool > rewardBalance ? rewardBalance : rawPool */\n      pop\n      swap1\n    tag_394:\n        /* \"contracts/YunaVaultV2.sol\":7056:7067  blocks == 0 */\n      iszero\n        /* \"contracts/YunaVaultV2.sol\":7052:7077  if (blocks == 0) return 0 */\n      tag_395\n      jumpi\n        /* \"contracts/YunaVaultV2.sol\":6722:7107  function remainingRewardPool() external view returns (uint256) {... */\n      swap1\n      jump\t// out\n        /* \"contracts/YunaVaultV2.sol\":7052:7077  if (blocks == 0) return 0 */\n    tag_395:\n        /* \"contracts/YunaVaultV2.sol\":7069:7077  return 0 */\n      pop\n      0x00\n      swap1\n      jump\t// out\n        /* \"contracts/YunaVaultV2.sol\":6992:7041  rawPool > rewardBalance ? rewardBalance : rawPool */\n    tag_392:\n      swap1\n      pop\n      swap1\n      jump(tag_394)\n        /* \"contracts/YunaVaultV2.sol\":6878:6914  rewardToken.balanceOf(address(this)) */\n    tag_389:\n      swap1\n      0x20\n      dup3\n      returndatasize\n      dup3\n      gt\n      tag_397\n      jumpi\n    tag_398:\n      dup2\n      tag_399\n      0x20\n      swap4\n      dup4\n      tag_7\n      jump\t// in\n    tag_399:\n      dup2\n      add\n        /* \"contracts/YunaVaultV2.sol\":325:7874  contract YunaVaultV2 is ReentrancyGuard, Ownable {... */\n      sub\n      slt\n      tag_128\n      jumpi\n      pop\n      mload\n        /* \"contracts/YunaVaultV2.sol\":6878:6914  rewardToken.balanceOf(address(this)) */\n      0x00\n      jump(tag_390)\n    tag_397:\n      returndatasize\n      swap2\n      pop\n      jump(tag_398)\n\n    auxdata: 0xa26469706673582212206d1923d846320d6c628d006e284f6ff2e83d05b19715113bfc568c6608607baf64736f6c63430008140033\n}\n",
				"bytecode": {
					"linkReferences": {},
					"object": "60e060409080825234620002075781816200164480380380916200002482856200020b565b8339810103126200020757620000486020620000408362000243565b920162000243565b905f91600183553315620001ef5760018054336001600160a01b031982168117909255855193602093859360049385936001600160a01b039392849283167f8be0079c531659141344cd1fd0a4f28419497f9722a3daafe3b4186f6b6457e08c80a3166080521660a081905263313ce56760e01b82525afa8015620001e55782906200019e575b60ff915016604d81116200018a57600a0a90630bebc200918083029283040362000176575061cd50900460c05243600455516113eb90816200025982396080518181816101b3015281816106320152818161074f015281816109a50152610b77015260a05181818161024f015281816107ad01528181610e91015281816111160152611301015260c0518181816105cc01528181610ee30152818161114e015261133f0152f35b634e487b7160e01b81526011600452602490fd5b634e487b7160e01b82526011600452602482fd5b506020813d8211620001dc575b81620001ba602093836200020b565b81010312620001d8575160ff81168103620001d85760ff90620000cf565b5080fd5b3d9150620001ab565b83513d84823e3d90fd5b8351631e4fbdf760e01b815260048101849052602490fd5b5f80fd5b601f909101601f19168101906001600160401b038211908210176200022f57604052565b634e487b7160e01b5f52604160045260245ffd5b51906001600160a01b0382168203620002075756fe60406080815260049081361015610014575f80fd5b5f91823560e01c9081632e1a7d4d1461094e5781632f4f21e2146108db57816335c1d3491461089a578163362f04c01461087b57816345114ee51461077e5781635fcbd2851461073a578163715018a6146106dd57816371bf8623146106c0578163853828b6146105ef5781638ae39cac146105b45781638da5cb5b1461058b578163929066f51461054d578163a87430ba146104ff578163a9f8d181146104e1578163aa93bfa8146104c2578163b6b55f251461049b578163c0d78655146103f6578163d1058e59146103cb578163e7a0fb9b146103ae578163e950342514610381578163e9e7eb351461030e578163f2fde38b1461027e578163f7c618c11461023a578163f7e4cd0d1461018457508063f887ea401461015c5763fc7039e01461013e575f80fd5b346101585781600319360112610158576020905160328152f35b5080fd5b503461015857816003193601126101585760035490516001600160a01b039091168152602090f35b9190503461022457826003193601126102245780516370a0823160e01b815230928101929092526020826024817f00000000000000000000000000000000000000000000000000000000000000006001600160a01b03165afa9182156102305783926101f5575b6020838351908152f35b9091506020813d8211610228575b8161021060209383610ccb565b81010312610224576020925051905f6101eb565b8280fd5b3d9150610203565b81513d85823e3d90fd5b505034610158578160031936011261015857517f00000000000000000000000000000000000000000000000000000000000000006001600160a01b03168152602090f35b90503461022457602036600319011261022457610299610a08565b906102a2610a6b565b6001600160a01b039182169283156102f8575050600154826bffffffffffffffffffffffff60a01b821617600155167f8be0079c531659141344cd1fd0a4f28419497f9722a3daafe3b4186f6b6457e08380a380f35b51631e4fbdf760e01b8152908101849052602490fd5b5050346101585760203660031901126101585760209181906001600160a01b03610336610a08565b168152600684522090600282015491600181015480610358575b505051908152f35b61037992939161036b6103739243610d52565b905490610d5f565b90610aeb565b905f80610350565b505034610158576020366003190112610158576020906103a76103a2610a08565b6110db565b9051908152f35b5050346101585781600319360112610158576020906103a76112da565b83346103f357806003193601126103f3576103e4610a97565b6103ec610e72565b6001815580f35b80fd5b9190503461022457602036600319011261022457610412610a08565b61041a610a6b565b6001600160a01b031691821561046a5750600380546001600160a01b03191683179055519081527fc6b438e6a8a59579ce6a4406cbd203b740e0d47b458aae6596339bcd40c40d1590602090a180f35b6020606492519162461bcd60e51b8352820152600c60248201526b7a65726f206164647265737360a01b6044820152fd5b839034610158576020366003190112610158576103ec906104ba610a97565b353333610b0c565b5050346101585781600319360112610158576020906005549051908152f35b90503461022457826003193601126102245760209250549051908152f35b5050346101585760203660031901126101585760609181906001600160a01b03610527610a08565b168152600660205220805491600260018301549201549181519384526020840152820152f35b5050346101585760203660031901126101585760209160ff9082906001600160a01b03610578610a08565b1681526002855220541690519015158152f35b50503461015857816003193601126101585760015490516001600160a01b039091168152602090f35b505034610158578160031936011261015857602090517f00000000000000000000000000000000000000000000000000000000000000008152f35b9190503461022457826003193601126102245761060a610a97565b338352600660205280832080549283156106875750839061062a33610d72565b5561065682337f0000000000000000000000000000000000000000000000000000000000000000610df4565b519081527f7084f5476618d8e60b11ef0d7d3f06914655adb8793e28ff7f018d4c76d505d560203392a26001815580f35b606490602084519162461bcd60e51b835282015260136024820152726e6f7468696e6720746f20776974686472617760681b6044820152fd5b505034610158578160031936011261015857602090516127108152f35b83346103f357806003193601126103f3576106f6610a6b565b600180546001600160a01b0319811690915581906001600160a01b03167f8be0079c531659141344cd1fd0a4f28419497f9722a3daafe3b4186f6b6457e08280a380f35b505034610158578160031936011261015857517f00000000000000000000000000000000000000000000000000000000000000006001600160a01b03168152602090f35b83915034610158578160031936011261015857610799610a6b565b82516370a0823160e01b81523082820152907f0000000000000000000000000000000000000000000000000000000000000000906001600160a01b03906020846024818587165afa93841561087157859461083a575b50831561080a57506108079394506001541690610df4565b80f35b606490602087519162461bcd60e51b8352820152600a6024820152696e6f207265776172647360b01b6044820152fd5b9093506020813d8211610869575b8161085560209383610ccb565b81010312610865575192866107ef565b8480fd5b3d9150610848565b86513d87823e3d90fd5b5050346101585781600319360112610158576020906007549051908152f35b9050346102245760203660031901126102245735916007548310156103f357506108c5602092610a22565b905491519160018060a01b039160031b1c168152f35b9050346102245781600319360112610224576108f5610a08565b916108fe610a97565b6003546001600160a01b0316330361091e57836103ec6024358533610b0c565b906020606492519162461bcd60e51b8352820152600a6024820152693737ba103937baba32b960b11b6044820152fd5b919050346102245760203660031901126102245781359161096d610a97565b338452600660205281842090831515806109fd575b156109c9575061099133610d72565b61099c838254610d52565b905561065682337f0000000000000000000000000000000000000000000000000000000000000000610df4565b606490602084519162461bcd60e51b8352820152600e60248201526d1a5b9d985b1a5908185b5bdd5b9d60921b6044820152fd5b508154841115610982565b600435906001600160a01b0382168203610a1e57565b5f80fd5b600754811015610a575760075f527fa66cc928b5edb82af9bd49922954155ab7b0942694bea4ce44661d9a8736c68801905f90565b634e487b7160e01b5f52603260045260245ffd5b6001546001600160a01b03163303610a7f57565b60405163118cdaa760e01b8152336004820152602490fd5b60025f5414610aa65760025f55565b60405162461bcd60e51b815260206004820152601f60248201527f5265656e7472616e637947756172643a207265656e7472616e742063616c6c006044820152606490fd5b91908201809211610af857565b634e487b7160e01b5f52601160045260245ffd5b9190651319718a50008210610c9857610b2481610d72565b6040516323b872dd60e01b60208201526001600160a01b039384166024820152306044820152606480820184905281529060a0820167ffffffffffffffff811183821017610c84578492610b9b916040527f0000000000000000000000000000000000000000000000000000000000000000610ced565b16915f90838252600260205260408220805460ff811615610bff575b5050507f2da466a7b24304f47e87fa2e1e5a81b9831ce54fec19055ce277ca2f39ba42c49160408285602094526006845220610bf4828254610aeb565b9055604051908152a2565b60ff1916600117905560075468010000000000000000811015610c70576020927f2da466a7b24304f47e87fa2e1e5a81b9831ce54fec19055ce277ca2f39ba42c49492610c5483600160409501600755610a22565b819291549060031b9189831b921b191617905592829450610bb7565b634e487b7160e01b83526041600452602483fd5b634e487b7160e01b5f52604160045260245ffd5b60405162461bcd60e51b815260206004820152600b60248201526a1b1bddc819195c1bdcda5d60aa1b6044820152606490fd5b90601f8019910116810190811067ffffffffffffffff821117610c8457604052565b905f602091828151910182855af115610d47575f513d610d3e57506001600160a01b0381163b155b610d1c5750565b604051635274afe760e01b81526001600160a01b039091166004820152602490fd5b60011415610d15565b6040513d5f823e3d90fd5b91908203918211610af857565b81810292918115918404141715610af857565b60018060a01b03165f52600660205260405f206001810190815415610dee57610d9c825443610d52565b9081151580610de4575b610db2575b5050439055565b6002610dc3610dda93835490610d5f565b9101610dd0828254610aeb565b9055600554610aeb565b6005555f80610dab565b5080541515610da6565b50439055565b60405163a9059cbb60e01b60208201526001600160a01b039092166024830152604480830193909352918152608081019167ffffffffffffffff831182841017610c8457610e4492604052610ced565b565b5f198114610af85760010190565b8115610e5e570490565b634e487b7160e01b5f52601260045260245ffd5b604080516370a0823160e01b81523060048201526001600160a01b03927f000000000000000000000000000000000000000000000000000000000000000092916020919082816024818989165afa9081156110d1575f916110a4575b50610edb60045443610d52565b801561109b577f00000000000000000000000000000000000000000000000000000000000000009082610f0e8383610d5f565b111561108b575050905b5f5b600754811015610f98578087610f32610f8c93610a22565b90549060031b1c165f5260068552855f208054908115610f91576002610f666001830193610f61855443610d52565b610d5f565b9101610f73828254610aeb565b9055610f826005918254610aeb565b9055439055610e46565b610f1a565b5050610e46565b50929390936032850285810460321486151715610af857612710610fc3910480968161107b57610d52565b935f5b60075481101561103f578088610fde61102193610a22565b90549060031b1c16805f52600687526002855f200180549182156110375761101361100a5f948c610d5f565b60055490610e54565b80611026575b505055610e46565b610fc6565b6110309189610df4565b5f80611019565b505050610e46565b50955092917f3c3d358c457d91d874593441791f0b96c90172a78030ce0ce7e8e8c965fe14699491505f600555436004558351928352820152a1565b611086823387610df4565b610d52565b6110959250610d5f565b90610f18565b50509350505050565b908382813d83116110ca575b6110ba8183610ccb565b810103126103f35750515f610ece565b503d6110b0565b84513d5f823e3d90fd5b6110e760045443610d52565b80156112d457604080516370a0823160e01b81523060048201526001600160a01b0392602092919083826024817f000000000000000000000000000000000000000000000000000000000000000089165afa9182156112ca575f92611299575b50611173907f000000000000000000000000000000000000000000000000000000000000000090610d5f565b8181111561129257505b8015611289576032810290808204603203610af8576127106111a0920490610d52565b91600554935f958693600754945b8581106111ec57505050505050821580156111e4575b6111dd576111da926111d591610d5f565b610e54565b90565b5050505f90565b5081156111c4565b836111f682610a22565b90549060031b1c1697885f5260068652825f20805490811561127c579061123a915f9160018201548061125d575b5050816002611234920154610aeb565b92610aeb565b9885851614611253575b5061124e90610e46565b6111ae565b985061124e611244565b600293506112349291610f616112739243610d52565b92819250611224565b5050975061124e90610e46565b50505050505f90565b905061117d565b90918482813d83116112c3575b6112b08183610ccb565b810103126103f357505190611173611147565b503d6112a6565b83513d5f823e3d90fd5b50505f90565b6112e660045443610d52565b6040516370a0823160e01b81523060048201526020816024817f00000000000000000000000000000000000000000000000000000000000000006001600160a01b03165afa908115610d47575f91611384575b506113647f000000000000000000000000000000000000000000000000000000000000000083610d5f565b8181111561137c5750905b156113775790565b505f90565b90509061136f565b906020823d82116113ad575b8161139d60209383610ccb565b810103126103f35750515f611339565b3d915061139056fea26469706673582212206d1923d846320d6c628d006e284f6ff2e83d05b19715113bfc568c6608607baf64736f6c63430008140033",
					"opcodes": "PUSH1 0xE0 PUSH1 0x40 SWAP1 DUP1 DUP3 MSTORE CALLVALUE PUSH3 0x207 JUMPI DUP2 DUP2 PUSH3 0x1644 DUP1 CODESIZE SUB DUP1 SWAP2 PUSH3 0x24 DUP3 DUP6 PUSH3 0x20B JUMP JUMPDEST DUP4 CODECOPY DUP2 ADD SUB SLT PUSH3 0x207 JUMPI PUSH3 0x48 PUSH1 0x20 PUSH3 0x40 DUP4 PUSH3 0x243 JUMP JUMPDEST SWAP3 ADD PUSH3 0x243 JUMP JUMPDEST SWAP1 PUSH0 SWAP2 PUSH1 0x1 DUP4 SSTORE CALLER ISZERO PUSH3 0x1EF JUMPI PUSH1 0x1 DUP1 SLOAD CALLER PUSH1 0x1 PUSH1 0x1 PUSH1 0xA0 SHL SUB NOT DUP3 AND DUP2 OR SWAP1 SWAP3 SSTORE DUP6 MLOAD SWAP4 PUSH1 0x20 SWAP4 DUP6 SWAP4 PUSH1 0x4 SWAP4 DUP6 SWAP4 PUSH1 0x1 PUSH1 0x1 PUSH1 0xA0 SHL SUB SWAP4 SWAP3 DUP5 SWAP3 DUP4 AND PUSH32 0x8BE0079C531659141344CD1FD0A4F28419497F9722A3DAAFE3B4186F6B6457E0 DUP13 DUP1 LOG3 AND PUSH1 0x80 MSTORE AND PUSH1 0xA0 DUP2 SWAP1 MSTORE PUSH4 0x313CE567 PUSH1 0xE0 SHL DUP3 MSTORE GAS STATICCALL DUP1 ISZERO PUSH3 0x1E5 JUMPI DUP3 SWAP1 PUSH3 0x19E JUMPI JUMPDEST PUSH1 0xFF SWAP2 POP AND PUSH1 0x4D DUP2 GT PUSH3 0x18A JUMPI PUSH1 0xA EXP SWAP1 PUSH4 0xBEBC200 SWAP2 DUP1 DUP4 MUL SWAP3 DUP4 DIV SUB PUSH3 0x176 JUMPI POP PUSH2 0xCD50 SWAP1 DIV PUSH1 0xC0 MSTORE NUMBER PUSH1 0x4 SSTORE MLOAD PUSH2 0x13EB SWAP1 DUP2 PUSH3 0x259 DUP3 CODECOPY PUSH1 0x80 MLOAD DUP2 DUP2 DUP2 PUSH2 0x1B3 ADD MSTORE DUP2 DUP2 PUSH2 0x632 ADD MSTORE DUP2 DUP2 PUSH2 0x74F ADD MSTORE DUP2 DUP2 PUSH2 0x9A5 ADD MSTORE PUSH2 0xB77 ADD MSTORE PUSH1 0xA0 MLOAD DUP2 DUP2 DUP2 PUSH2 0x24F ADD MSTORE DUP2 DUP2 PUSH2 0x7AD ADD MSTORE DUP2 DUP2 PUSH2 0xE91 ADD MSTORE DUP2 DUP2 PUSH2 0x1116 ADD MSTORE PUSH2 0x1301 ADD MSTORE PUSH1 0xC0 MLOAD DUP2 DUP2 DUP2 PUSH2 0x5CC ADD MSTORE DUP2 DUP2 PUSH2 0xEE3 ADD MSTORE DUP2 DUP2 PUSH2 0x114E ADD MSTORE PUSH2 0x133F ADD MSTORE RETURN JUMPDEST PUSH4 0x4E487B71 PUSH1 0xE0 SHL DUP2 MSTORE PUSH1 0x11 PUSH1 0x4 MSTORE PUSH1 0x24 SWAP1 REVERT JUMPDEST PUSH4 0x4E487B71 PUSH1 0xE0 SHL DUP3 MSTORE PUSH1 0x11 PUSH1 0x4 MSTORE PUSH1 0x24 DUP3 REVERT JUMPDEST POP PUSH1 0x20 DUP2 RETURNDATASIZE DUP3 GT PUSH3 0x1DC JUMPI JUMPDEST DUP2 PUSH3 0x1BA PUSH1 0x20 SWAP4 DUP4 PUSH3 0x20B JUMP JUMPDEST DUP2 ADD SUB SLT PUSH3 0x1D8 JUMPI MLOAD PUSH1 0xFF DUP2 AND DUP2 SUB PUSH3 0x1D8 JUMPI PUSH1 0xFF SWAP1 PUSH3 0xCF JUMP JUMPDEST POP DUP1 REVERT JUMPDEST RETURNDATASIZE SWAP2 POP PUSH3 0x1AB JUMP JUMPDEST DUP4 MLOAD RETURNDATASIZE DUP5 DUP3 RETURNDATACOPY RETURNDATASIZE SWAP1 REVERT JUMPDEST DUP4 MLOAD PUSH4 0x1E4FBDF7 PUSH1 0xE0 SHL DUP2 MSTORE PUSH1 0x4 DUP2 ADD DUP5 SWAP1 MSTORE PUSH1 0x24 SWAP1 REVERT JUMPDEST PUSH0 DUP1 REVERT JUMPDEST PUSH1 0x1F SWAP1 SWAP2 ADD PUSH1 0x1F NOT AND DUP2 ADD SWAP1 PUSH1 0x1 PUSH1 0x1 PUSH1 0x40 SHL SUB DUP3 GT SWAP1 DUP3 LT OR PUSH3 0x22F JUMPI PUSH1 0x40 MSTORE JUMP JUMPDEST PUSH4 0x4E487B71 PUSH1 0xE0 SHL PUSH0 MSTORE PUSH1 0x41 PUSH1 0x4 MSTORE PUSH1 0x24 PUSH0 REVERT JUMPDEST MLOAD SWAP1 PUSH1 0x1 PUSH1 0x1 PUSH1 0xA0 SHL SUB DUP3 AND DUP3 SUB PUSH3 0x207 JUMPI JUMP INVALID PUSH1 0x40 PUSH1 0x80 DUP2 MSTORE PUSH1 0x4 SWAP1 DUP2 CALLDATASIZE LT ISZERO PUSH2 0x14 JUMPI PUSH0 DUP1 REVERT JUMPDEST PUSH0 SWAP2 DUP3 CALLDATALOAD PUSH1 0xE0 SHR SWAP1 DUP2 PUSH4 0x2E1A7D4D EQ PUSH2 0x94E JUMPI DUP2 PUSH4 0x2F4F21E2 EQ PUSH2 0x8DB JUMPI DUP2 PUSH4 0x35C1D349 EQ PUSH2 0x89A JUMPI DUP2 PUSH4 0x362F04C0 EQ PUSH2 0x87B JUMPI DUP2 PUSH4 0x45114EE5 EQ PUSH2 0x77E JUMPI DUP2 PUSH4 0x5FCBD285 EQ PUSH2 0x73A JUMPI DUP2 PUSH4 0x715018A6 EQ PUSH2 0x6DD JUMPI DUP2 PUSH4 0x71BF8623 EQ PUSH2 0x6C0 JUMPI DUP2 PUSH4 0x853828B6 EQ PUSH2 0x5EF JUMPI DUP2 PUSH4 0x8AE39CAC EQ PUSH2 0x5B4 JUMPI DUP2 PUSH4 0x8DA5CB5B EQ PUSH2 0x58B JUMPI DUP2 PUSH4 0x929066F5 EQ PUSH2 0x54D JUMPI DUP2 PUSH4 0xA87430BA EQ PUSH2 0x4FF JUMPI DUP2 PUSH4 0xA9F8D181 EQ PUSH2 0x4E1 JUMPI DUP2 PUSH4 0xAA93BFA8 EQ PUSH2 0x4C2 JUMPI DUP2 PUSH4 0xB6B55F25 EQ PUSH2 0x49B JUMPI DUP2 PUSH4 0xC0D78655 EQ PUSH2 0x3F6 JUMPI DUP2 PUSH4 0xD1058E59 EQ PUSH2 0x3CB JUMPI DUP2 PUSH4 0xE7A0FB9B EQ PUSH2 0x3AE JUMPI DUP2 PUSH4 0xE9503425 EQ PUSH2 0x381 JUMPI DUP2 PUSH4 0xE9E7EB35 EQ PUSH2 0x30E JUMPI DUP2 PUSH4 0xF2FDE38B EQ PUSH2 0x27E JUMPI DUP2 PUSH4 0xF7C618C1 EQ PUSH2 0x23A JUMPI DUP2 PUSH4 0xF7E4CD0D EQ PUSH2 0x184 JUMPI POP DUP1 PUSH4 0xF887EA40 EQ PUSH2 0x15C JUMPI PUSH4 0xFC7039E0 EQ PUSH2 0x13E JUMPI PUSH0 DUP1 REVERT JUMPDEST CALLVALUE PUSH2 0x158 JUMPI DUP2 PUSH1 0x3 NOT CALLDATASIZE ADD SLT PUSH2 0x158 JUMPI PUSH1 0x20 SWAP1 MLOAD PUSH1 0x32 DUP2 MSTORE RETURN JUMPDEST POP DUP1 REVERT JUMPDEST POP CALLVALUE PUSH2 0x158 JUMPI DUP2 PUSH1 0x3 NOT CALLDATASIZE ADD SLT PUSH2 0x158 JUMPI PUSH1 0x3 SLOAD SWAP1 MLOAD PUSH1 0x1 PUSH1 0x1 PUSH1 0xA0 SHL SUB SWAP1 SWAP2 AND DUP2 MSTORE PUSH1 0x20 SWAP1 RETURN JUMPDEST SWAP2 SWAP1 POP CALLVALUE PUSH2 0x224 JUMPI DUP3 PUSH1 0x3 NOT CALLDATASIZE ADD SLT PUSH2 0x224 JUMPI DUP1 MLOAD PUSH4 0x70A08231 PUSH1 0xE0 SHL DUP2 MSTORE ADDRESS SWAP3 DUP2 ADD SWAP3 SWAP1 SWAP3 MSTORE PUSH1 0x20 DUP3 PUSH1 0x24 DUP2 PUSH32 0x0 PUSH1 0x1 PUSH1 0x1 PUSH1 0xA0 SHL SUB AND GAS STATICCALL SWAP2 DUP3 ISZERO PUSH2 0x230 JUMPI DUP4 SWAP3 PUSH2 0x1F5 JUMPI JUMPDEST PUSH1 0x20 DUP4 DUP4 MLOAD SWAP1 DUP2 MSTORE RETURN JUMPDEST SWAP1 SWAP2 POP PUSH1 0x20 DUP2 RETURNDATASIZE DUP3 GT PUSH2 0x228 JUMPI JUMPDEST DUP2 PUSH2 0x210 PUSH1 0x20 SWAP4 DUP4 PUSH2 0xCCB JUMP JUMPDEST DUP2 ADD SUB SLT PUSH2 0x224 JUMPI PUSH1 0x20 SWAP3 POP MLOAD SWAP1 PUSH0 PUSH2 0x1EB JUMP JUMPDEST DUP3 DUP1 REVERT JUMPDEST RETURNDATASIZE SWAP2 POP PUSH2 0x203 JUMP JUMPDEST DUP2 MLOAD RETURNDATASIZE DUP6 DUP3 RETURNDATACOPY RETURNDATASIZE SWAP1 REVERT JUMPDEST POP POP CALLVALUE PUSH2 0x158 JUMPI DUP2 PUSH1 0x3 NOT CALLDATASIZE ADD SLT PUSH2 0x158 JUMPI MLOAD PUSH32 0x0 PUSH1 0x1 PUSH1 0x1 PUSH1 0xA0 SHL SUB AND DUP2 MSTORE PUSH1 0x20 SWAP1 RETURN JUMPDEST SWAP1 POP CALLVALUE PUSH2 0x224 JUMPI PUSH1 0x20 CALLDATASIZE PUSH1 0x3 NOT ADD SLT PUSH2 0x224 JUMPI PUSH2 0x299 PUSH2 0xA08 JUMP JUMPDEST SWAP1 PUSH2 0x2A2 PUSH2 0xA6B JUMP JUMPDEST PUSH1 0x1 PUSH1 0x1 PUSH1 0xA0 SHL SUB SWAP2 DUP3 AND SWAP3 DUP4 ISZERO PUSH2 0x2F8 JUMPI POP POP PUSH1 0x1 SLOAD DUP3 PUSH12 0xFFFFFFFFFFFFFFFFFFFFFFFF PUSH1 0xA0 SHL DUP3 AND OR PUSH1 0x1 SSTORE AND PUSH32 0x8BE0079C531659141344CD1FD0A4F28419497F9722A3DAAFE3B4186F6B6457E0 DUP4 DUP1 LOG3 DUP1 RETURN JUMPDEST MLOAD PUSH4 0x1E4FBDF7 PUSH1 0xE0 SHL DUP2 MSTORE SWAP1 DUP2 ADD DUP5 SWAP1 MSTORE PUSH1 0x24 SWAP1 REVERT JUMPDEST POP POP CALLVALUE PUSH2 0x158 JUMPI PUSH1 0x20 CALLDATASIZE PUSH1 0x3 NOT ADD SLT PUSH2 0x158 JUMPI PUSH1 0x20 SWAP2 DUP2 SWAP1 PUSH1 0x1 PUSH1 0x1 PUSH1 0xA0 SHL SUB PUSH2 0x336 PUSH2 0xA08 JUMP JUMPDEST AND DUP2 MSTORE PUSH1 0x6 DUP5 MSTORE KECCAK256 SWAP1 PUSH1 0x2 DUP3 ADD SLOAD SWAP2 PUSH1 0x1 DUP2 ADD SLOAD DUP1 PUSH2 0x358 JUMPI JUMPDEST POP POP MLOAD SWAP1 DUP2 MSTORE RETURN JUMPDEST PUSH2 0x379 SWAP3 SWAP4 SWAP2 PUSH2 0x36B PUSH2 0x373 SWAP3 NUMBER PUSH2 0xD52 JUMP JUMPDEST SWAP1 SLOAD SWAP1 PUSH2 0xD5F JUMP JUMPDEST SWAP1 PUSH2 0xAEB JUMP JUMPDEST SWAP1 PUSH0 DUP1 PUSH2 0x350 JUMP JUMPDEST POP POP CALLVALUE PUSH2 0x158 JUMPI PUSH1 0x20 CALLDATASIZE PUSH1 0x3 NOT ADD SLT PUSH2 0x158 JUMPI PUSH1 0x20 SWAP1 PUSH2 0x3A7 PUSH2 0x3A2 PUSH2 0xA08 JUMP JUMPDEST PUSH2 0x10DB JUMP JUMPDEST SWAP1 MLOAD SWAP1 DUP2 MSTORE RETURN JUMPDEST POP POP CALLVALUE PUSH2 0x158 JUMPI DUP2 PUSH1 0x3 NOT CALLDATASIZE ADD SLT PUSH2 0x158 JUMPI PUSH1 0x20 SWAP1 PUSH2 0x3A7 PUSH2 0x12DA JUMP JUMPDEST DUP4 CALLVALUE PUSH2 0x3F3 JUMPI DUP1 PUSH1 0x3 NOT CALLDATASIZE ADD SLT PUSH2 0x3F3 JUMPI PUSH2 0x3E4 PUSH2 0xA97 JUMP JUMPDEST PUSH2 0x3EC PUSH2 0xE72 JUMP JUMPDEST PUSH1 0x1 DUP2 SSTORE DUP1 RETURN JUMPDEST DUP1 REVERT JUMPDEST SWAP2 SWAP1 POP CALLVALUE PUSH2 0x224 JUMPI PUSH1 0x20 CALLDATASIZE PUSH1 0x3 NOT ADD SLT PUSH2 0x224 JUMPI PUSH2 0x412 PUSH2 0xA08 JUMP JUMPDEST PUSH2 0x41A PUSH2 0xA6B JUMP JUMPDEST PUSH1 0x1 PUSH1 0x1 PUSH1 0xA0 SHL SUB AND SWAP2 DUP3 ISZERO PUSH2 0x46A JUMPI POP PUSH1 0x3 DUP1 SLOAD PUSH1 0x1 PUSH1 0x1 PUSH1 0xA0 SHL SUB NOT AND DUP4 OR SWAP1 SSTORE MLOAD SWAP1 DUP2 MSTORE PUSH32 0xC6B438E6A8A59579CE6A4406CBD203B740E0D47B458AAE6596339BCD40C40D15 SWAP1 PUSH1 0x20 SWAP1 LOG1 DUP1 RETURN JUMPDEST PUSH1 0x20 PUSH1 0x64 SWAP3 MLOAD SWAP2 PUSH3 0x461BCD PUSH1 0xE5 SHL DUP4 MSTORE DUP3 ADD MSTORE PUSH1 0xC PUSH1 0x24 DUP3 ADD MSTORE PUSH12 0x7A65726F2061646472657373 PUSH1 0xA0 SHL PUSH1 0x44 DUP3 ADD MSTORE REVERT JUMPDEST DUP4 SWAP1 CALLVALUE PUSH2 0x158 JUMPI PUSH1 0x20 CALLDATASIZE PUSH1 0x3 NOT ADD SLT PUSH2 0x158 JUMPI PUSH2 0x3EC SWAP1 PUSH2 0x4BA PUSH2 0xA97 JUMP JUMPDEST CALLDATALOAD CALLER CALLER PUSH2 0xB0C JUMP JUMPDEST POP POP CALLVALUE PUSH2 0x158 JUMPI DUP2 PUSH1 0x3 NOT CALLDATASIZE ADD SLT PUSH2 0x158 JUMPI PUSH1 0x20 SWAP1 PUSH1 0x5 SLOAD SWAP1 MLOAD SWAP1 DUP2 MSTORE RETURN JUMPDEST SWAP1 POP CALLVALUE PUSH2 0x224 JUMPI DUP3 PUSH1 0x3 NOT CALLDATASIZE ADD SLT PUSH2 0x224 JUMPI PUSH1 0x20 SWAP3 POP SLOAD SWAP1 MLOAD SWAP1 DUP2 MSTORE RETURN JUMPDEST POP POP CALLVALUE PUSH2 0x158 JUMPI PUSH1 0x20 CALLDATASIZE PUSH1 0x3 NOT ADD SLT PUSH2 0x158 JUMPI PUSH1 0x60 SWAP2 DUP2 SWAP1 PUSH1 0x1 PUSH1 0x1 PUSH1 0xA0 SHL SUB PUSH2 0x527 PUSH2 0xA08 JUMP JUMPDEST AND DUP2 MSTORE PUSH1 0x6 PUSH1 0x20 MSTORE KECCAK256 DUP1 SLOAD SWAP2 PUSH1 0x2 PUSH1 0x1 DUP4 ADD SLOAD SWAP3 ADD SLOAD SWAP2 DUP2 MLOAD SWAP4 DUP5 MSTORE PUSH1 0x20 DUP5 ADD MSTORE DUP3 ADD MSTORE RETURN JUMPDEST POP POP CALLVALUE PUSH2 0x158 JUMPI PUSH1 0x20 CALLDATASIZE PUSH1 0x3 NOT ADD SLT PUSH2 0x158 JUMPI PUSH1 0x20 SWAP2 PUSH1 0xFF SWAP1 DUP3 SWAP1 PUSH1 0x1 PUSH1 0x1 PUSH1 0xA0 SHL SUB PUSH2 0x578 PUSH2 0xA08 JUMP JUMPDEST AND DUP2 MSTORE PUSH1 0x2 DUP6 MSTORE KECCAK256 SLOAD AND SWAP1 MLOAD SWAP1 ISZERO ISZERO DUP2 MSTORE RETURN JUMPDEST POP POP CALLVALUE PUSH2 0x158 JUMPI DUP2 PUSH1 0x3 NOT CALLDATASIZE ADD SLT PUSH2 0x158 JUMPI PUSH1 0x1 SLOAD SWAP1 MLOAD PUSH1 0x1 PUSH1 0x1 PUSH1 0xA0 SHL SUB SWAP1 SWAP2 AND DUP2 MSTORE PUSH1 0x20 SWAP1 RETURN JUMPDEST POP POP CALLVALUE PUSH2 0x158 JUMPI DUP2 PUSH1 0x3 NOT CALLDATASIZE ADD SLT PUSH2 0x158 JUMPI PUSH1 0x20 SWAP1 MLOAD PUSH32 0x0 DUP2 MSTORE RETURN JUMPDEST SWAP2 SWAP1 POP CALLVALUE PUSH2 0x224 JUMPI DUP3 PUSH1 0x3 NOT CALLDATASIZE ADD SLT PUSH2 0x224 JUMPI PUSH2 0x60A PUSH2 0xA97 JUMP JUMPDEST CALLER DUP4 MSTORE PUSH1 0x6 PUSH1 0x20 MSTORE DUP1 DUP4 KECCAK256 DUP1 SLOAD SWAP3 DUP4 ISZERO PUSH2 0x687 JUMPI POP DUP4 SWAP1 PUSH2 0x62A CALLER PUSH2 0xD72 JUMP JUMPDEST SSTORE PUSH2 0x656 DUP3 CALLER PUSH32 0x0 PUSH2 0xDF4 JUMP JUMPDEST MLOAD SWAP1 DUP2 MSTORE PUSH32 0x7084F5476618D8E60B11EF0D7D3F06914655ADB8793E28FF7F018D4C76D505D5 PUSH1 0x20 CALLER SWAP3 LOG2 PUSH1 0x1 DUP2 SSTORE DUP1 RETURN JUMPDEST PUSH1 0x64 SWAP1 PUSH1 0x20 DUP5 MLOAD SWAP2 PUSH3 0x461BCD PUSH1 0xE5 SHL DUP4 MSTORE DUP3 ADD MSTORE PUSH1 0x13 PUSH1 0x24 DUP3 ADD MSTORE PUSH19 0x6E6F7468696E6720746F207769746864726177 PUSH1 0x68 SHL PUSH1 0x44 DUP3 ADD MSTORE REVERT JUMPDEST POP POP CALLVALUE PUSH2 0x158 JUMPI DUP2 PUSH1 0x3 NOT CALLDATASIZE ADD SLT PUSH2 0x158 JUMPI PUSH1 0x20 SWAP1 MLOAD PUSH2 0x2710 DUP2 MSTORE RETURN JUMPDEST DUP4 CALLVALUE PUSH2 0x3F3 JUMPI DUP1 PUSH1 0x3 NOT CALLDATASIZE ADD SLT PUSH2 0x3F3 JUMPI PUSH2 0x6F6 PUSH2 0xA6B JUMP JUMPDEST PUSH1 0x1 DUP1 SLOAD PUSH1 0x1 PUSH1 0x1 PUSH1 0xA0 SHL SUB NOT DUP2 AND SWAP1 SWAP2 SSTORE DUP2 SWAP1 PUSH1 0x1 PUSH1 0x1 PUSH1 0xA0 SHL SUB AND PUSH32 0x8BE0079C531659141344CD1FD0A4F28419497F9722A3DAAFE3B4186F6B6457E0 DUP3 DUP1 LOG3 DUP1 RETURN JUMPDEST POP POP CALLVALUE PUSH2 0x158 JUMPI DUP2 PUSH1 0x3 NOT CALLDATASIZE ADD SLT PUSH2 0x158 JUMPI MLOAD PUSH32 0x0 PUSH1 0x1 PUSH1 0x1 PUSH1 0xA0 SHL SUB AND DUP2 MSTORE PUSH1 0x20 SWAP1 RETURN JUMPDEST DUP4 SWAP2 POP CALLVALUE PUSH2 0x158 JUMPI DUP2 PUSH1 0x3 NOT CALLDATASIZE ADD SLT PUSH2 0x158 JUMPI PUSH2 0x799 PUSH2 0xA6B JUMP JUMPDEST DUP3 MLOAD PUSH4 0x70A08231 PUSH1 0xE0 SHL DUP2 MSTORE ADDRESS DUP3 DUP3 ADD MSTORE SWAP1 PUSH32 0x0 SWAP1 PUSH1 0x1 PUSH1 0x1 PUSH1 0xA0 SHL SUB SWAP1 PUSH1 0x20 DUP5 PUSH1 0x24 DUP2 DUP6 DUP8 AND GAS STATICCALL SWAP4 DUP5 ISZERO PUSH2 0x871 JUMPI DUP6 SWAP5 PUSH2 0x83A JUMPI JUMPDEST POP DUP4 ISZERO PUSH2 0x80A JUMPI POP PUSH2 0x807 SWAP4 SWAP5 POP PUSH1 0x1 SLOAD AND SWAP1 PUSH2 0xDF4 JUMP JUMPDEST DUP1 RETURN JUMPDEST PUSH1 0x64 SWAP1 PUSH1 0x20 DUP8 MLOAD SWAP2 PUSH3 0x461BCD PUSH1 0xE5 SHL DUP4 MSTORE DUP3 ADD MSTORE PUSH1 0xA PUSH1 0x24 DUP3 ADD MSTORE PUSH10 0x6E6F2072657761726473 PUSH1 0xB0 SHL PUSH1 0x44 DUP3 ADD MSTORE REVERT JUMPDEST SWAP1 SWAP4 POP PUSH1 0x20 DUP2 RETURNDATASIZE DUP3 GT PUSH2 0x869 JUMPI JUMPDEST DUP2 PUSH2 0x855 PUSH1 0x20 SWAP4 DUP4 PUSH2 0xCCB JUMP JUMPDEST DUP2 ADD SUB SLT PUSH2 0x865 JUMPI MLOAD SWAP3 DUP7 PUSH2 0x7EF JUMP JUMPDEST DUP5 DUP1 REVERT JUMPDEST RETURNDATASIZE SWAP2 POP PUSH2 0x848 JUMP JUMPDEST DUP7 MLOAD RETURNDATASIZE DUP8 DUP3 RETURNDATACOPY RETURNDATASIZE SWAP1 REVERT JUMPDEST POP POP CALLVALUE PUSH2 0x158 JUMPI DUP2 PUSH1 0x3 NOT CALLDATASIZE ADD SLT PUSH2 0x158 JUMPI PUSH1 0x20 SWAP1 PUSH1 0x7 SLOAD SWAP1 MLOAD SWAP1 DUP2 MSTORE RETURN JUMPDEST SWAP1 POP CALLVALUE PUSH2 0x224 JUMPI PUSH1 0x20 CALLDATASIZE PUSH1 0x3 NOT ADD SLT PUSH2 0x224 JUMPI CALLDATALOAD SWAP2 PUSH1 0x7 SLOAD DUP4 LT ISZERO PUSH2 0x3F3 JUMPI POP PUSH2 0x8C5 PUSH1 0x20 SWAP3 PUSH2 0xA22 JUMP JUMPDEST SWAP1 SLOAD SWAP2 MLOAD SWAP2 PUSH1 0x1 DUP1 PUSH1 0xA0 SHL SUB SWAP2 PUSH1 0x3 SHL SHR AND DUP2 MSTORE RETURN JUMPDEST SWAP1 POP CALLVALUE PUSH2 0x224 JUMPI DUP2 PUSH1 0x3 NOT CALLDATASIZE ADD SLT PUSH2 0x224 JUMPI PUSH2 0x8F5 PUSH2 0xA08 JUMP JUMPDEST SWAP2 PUSH2 0x8FE PUSH2 0xA97 JUMP JUMPDEST PUSH1 0x3 SLOAD PUSH1 0x1 PUSH1 0x1 PUSH1 0xA0 SHL SUB AND CALLER SUB PUSH2 0x91E JUMPI DUP4 PUSH2 0x3EC PUSH1 0x24 CALLDATALOAD DUP6 CALLER PUSH2 0xB0C JUMP JUMPDEST SWAP1 PUSH1 0x20 PUSH1 0x64 SWAP3 MLOAD SWAP2 PUSH3 0x461BCD PUSH1 0xE5 SHL DUP4 MSTORE DUP3 ADD MSTORE PUSH1 0xA PUSH1 0x24 DUP3 ADD MSTORE PUSH10 0x3737BA103937BABA32B9 PUSH1 0xB1 SHL PUSH1 0x44 DUP3 ADD MSTORE REVERT JUMPDEST SWAP2 SWAP1 POP CALLVALUE PUSH2 0x224 JUMPI PUSH1 0x20 CALLDATASIZE PUSH1 0x3 NOT ADD SLT PUSH2 0x224 JUMPI DUP2 CALLDATALOAD SWAP2 PUSH2 0x96D PUSH2 0xA97 JUMP JUMPDEST CALLER DUP5 MSTORE PUSH1 0x6 PUSH1 0x20 MSTORE DUP2 DUP5 KECCAK256 SWAP1 DUP4 ISZERO ISZERO DUP1 PUSH2 0x9FD JUMPI JUMPDEST ISZERO PUSH2 0x9C9 JUMPI POP PUSH2 0x991 CALLER PUSH2 0xD72 JUMP JUMPDEST PUSH2 0x99C DUP4 DUP3 SLOAD PUSH2 0xD52 JUMP JUMPDEST SWAP1 SSTORE PUSH2 0x656 DUP3 CALLER PUSH32 0x0 PUSH2 0xDF4 JUMP JUMPDEST PUSH1 0x64 SWAP1 PUSH1 0x20 DUP5 MLOAD SWAP2 PUSH3 0x461BCD PUSH1 0xE5 SHL DUP4 MSTORE DUP3 ADD MSTORE PUSH1 0xE PUSH1 0x24 DUP3 ADD MSTORE PUSH14 0x1A5B9D985B1A5908185B5BDD5B9D PUSH1 0x92 SHL PUSH1 0x44 DUP3 ADD MSTORE REVERT JUMPDEST POP DUP2 SLOAD DUP5 GT ISZERO PUSH2 0x982 JUMP JUMPDEST PUSH1 0x4 CALLDATALOAD SWAP1 PUSH1 0x1 PUSH1 0x1 PUSH1 0xA0 SHL SUB DUP3 AND DUP3 SUB PUSH2 0xA1E JUMPI JUMP JUMPDEST PUSH0 DUP1 REVERT JUMPDEST PUSH1 0x7 SLOAD DUP2 LT ISZERO PUSH2 0xA57 JUMPI PUSH1 0x7 PUSH0 MSTORE PUSH32 0xA66CC928B5EDB82AF9BD49922954155AB7B0942694BEA4CE44661D9A8736C688 ADD SWAP1 PUSH0 SWAP1 JUMP JUMPDEST PUSH4 0x4E487B71 PUSH1 0xE0 SHL PUSH0 MSTORE PUSH1 0x32 PUSH1 0x4 MSTORE PUSH1 0x24 PUSH0 REVERT JUMPDEST PUSH1 0x1 SLOAD PUSH1 0x1 PUSH1 0x1 PUSH1 0xA0 SHL SUB AND CALLER SUB PUSH2 0xA7F JUMPI JUMP JUMPDEST PUSH1 0x40 MLOAD PUSH4 0x118CDAA7 PUSH1 0xE0 SHL DUP2 MSTORE CALLER PUSH1 0x4 DUP3 ADD MSTORE PUSH1 0x24 SWAP1 REVERT JUMPDEST PUSH1 0x2 PUSH0 SLOAD EQ PUSH2 0xAA6 JUMPI PUSH1 0x2 PUSH0 SSTORE JUMP JUMPDEST PUSH1 0x40 MLOAD PUSH3 0x461BCD PUSH1 0xE5 SHL DUP2 MSTORE PUSH1 0x20 PUSH1 0x4 DUP3 ADD MSTORE PUSH1 0x1F PUSH1 0x24 DUP3 ADD MSTORE PUSH32 0x5265656E7472616E637947756172643A207265656E7472616E742063616C6C00 PUSH1 0x44 DUP3 ADD MSTORE PUSH1 0x64 SWAP1 REVERT JUMPDEST SWAP2 SWAP1 DUP3 ADD DUP1 SWAP3 GT PUSH2 0xAF8 JUMPI JUMP JUMPDEST PUSH4 0x4E487B71 PUSH1 0xE0 SHL PUSH0 MSTORE PUSH1 0x11 PUSH1 0x4 MSTORE PUSH1 0x24 PUSH0 REVERT JUMPDEST SWAP2 SWAP1 PUSH6 0x1319718A5000 DUP3 LT PUSH2 0xC98 JUMPI PUSH2 0xB24 DUP2 PUSH2 0xD72 JUMP JUMPDEST PUSH1 0x40 MLOAD PUSH4 0x23B872DD PUSH1 0xE0 SHL PUSH1 0x20 DUP3 ADD MSTORE PUSH1 0x1 PUSH1 0x1 PUSH1 0xA0 SHL SUB SWAP4 DUP5 AND PUSH1 0x24 DUP3 ADD MSTORE ADDRESS PUSH1 0x44 DUP3 ADD MSTORE PUSH1 0x64 DUP1 DUP3 ADD DUP5 SWAP1 MSTORE DUP2 MSTORE SWAP1 PUSH1 0xA0 DUP3 ADD PUSH8 0xFFFFFFFFFFFFFFFF DUP2 GT DUP4 DUP3 LT OR PUSH2 0xC84 JUMPI DUP5 SWAP3 PUSH2 0xB9B SWAP2 PUSH1 0x40 MSTORE PUSH32 0x0 PUSH2 0xCED JUMP JUMPDEST AND SWAP2 PUSH0 SWAP1 DUP4 DUP3 MSTORE PUSH1 0x2 PUSH1 0x20 MSTORE PUSH1 0x40 DUP3 KECCAK256 DUP1 SLOAD PUSH1 0xFF DUP2 AND ISZERO PUSH2 0xBFF JUMPI JUMPDEST POP POP POP PUSH32 0x2DA466A7B24304F47E87FA2E1E5A81B9831CE54FEC19055CE277CA2F39BA42C4 SWAP2 PUSH1 0x40 DUP3 DUP6 PUSH1 0x20 SWAP5 MSTORE PUSH1 0x6 DUP5 MSTORE KECCAK256 PUSH2 0xBF4 DUP3 DUP3 SLOAD PUSH2 0xAEB JUMP JUMPDEST SWAP1 SSTORE PUSH1 0x40 MLOAD SWAP1 DUP2 MSTORE LOG2 JUMP JUMPDEST PUSH1 0xFF NOT AND PUSH1 0x1 OR SWAP1 SSTORE PUSH1 0x7 SLOAD PUSH9 0x10000000000000000 DUP2 LT ISZERO PUSH2 0xC70 JUMPI PUSH1 0x20 SWAP3 PUSH32 0x2DA466A7B24304F47E87FA2E1E5A81B9831CE54FEC19055CE277CA2F39BA42C4 SWAP5 SWAP3 PUSH2 0xC54 DUP4 PUSH1 0x1 PUSH1 0x40 SWAP6 ADD PUSH1 0x7 SSTORE PUSH2 0xA22 JUMP JUMPDEST DUP2 SWAP3 SWAP2 SLOAD SWAP1 PUSH1 0x3 SHL SWAP2 DUP10 DUP4 SHL SWAP3 SHL NOT AND OR SWAP1 SSTORE SWAP3 DUP3 SWAP5 POP PUSH2 0xBB7 JUMP JUMPDEST PUSH4 0x4E487B71 PUSH1 0xE0 SHL DUP4 MSTORE PUSH1 0x41 PUSH1 0x4 MSTORE PUSH1 0x24 DUP4 REVERT JUMPDEST PUSH4 0x4E487B71 PUSH1 0xE0 SHL PUSH0 MSTORE PUSH1 0x41 PUSH1 0x4 MSTORE PUSH1 0x24 PUSH0 REVERT JUMPDEST PUSH1 0x40 MLOAD PUSH3 0x461BCD PUSH1 0xE5 SHL DUP2 MSTORE PUSH1 0x20 PUSH1 0x4 DUP3 ADD MSTORE PUSH1 0xB PUSH1 0x24 DUP3 ADD MSTORE PUSH11 0x1B1BDDC819195C1BDCDA5D PUSH1 0xAA SHL PUSH1 0x44 DUP3 ADD MSTORE PUSH1 0x64 SWAP1 REVERT JUMPDEST SWAP1 PUSH1 0x1F DUP1 NOT SWAP2 ADD AND DUP2 ADD SWAP1 DUP2 LT PUSH8 0xFFFFFFFFFFFFFFFF DUP3 GT OR PUSH2 0xC84 JUMPI PUSH1 0x40 MSTORE JUMP JUMPDEST SWAP1 PUSH0 PUSH1 0x20 SWAP2 DUP3 DUP2 MLOAD SWAP2 ADD DUP3 DUP6 GAS CALL ISZERO PUSH2 0xD47 JUMPI PUSH0 MLOAD RETURNDATASIZE PUSH2 0xD3E JUMPI POP PUSH1 0x1 PUSH1 0x1 PUSH1 0xA0 SHL SUB DUP2 AND EXTCODESIZE ISZERO JUMPDEST PUSH2 0xD1C JUMPI POP JUMP JUMPDEST PUSH1 0x40 MLOAD PUSH4 0x5274AFE7 PUSH1 0xE0 SHL DUP2 MSTORE PUSH1 0x1 PUSH1 0x1 PUSH1 0xA0 SHL SUB SWAP1 SWAP2 AND PUSH1 0x4 DUP3 ADD MSTORE PUSH1 0x24 SWAP1 REVERT JUMPDEST PUSH1 0x1 EQ ISZERO PUSH2 0xD15 JUMP JUMPDEST PUSH1 0x40 MLOAD RETURNDATASIZE PUSH0 DUP3 RETURNDATACOPY RETURNDATASIZE SWAP1 REVERT JUMPDEST SWAP2 SWAP1 DUP3 SUB SWAP2 DUP3 GT PUSH2 0xAF8 JUMPI JUMP JUMPDEST DUP2 DUP2 MUL SWAP3 SWAP2 DUP2 ISZERO SWAP2 DUP5 DIV EQ OR ISZERO PUSH2 0xAF8 JUMPI JUMP JUMPDEST PUSH1 0x1 DUP1 PUSH1 0xA0 SHL SUB AND PUSH0 MSTORE PUSH1 0x6 PUSH1 0x20 MSTORE PUSH1 0x40 PUSH0 KECCAK256 PUSH1 0x1 DUP2 ADD SWAP1 DUP2 SLOAD ISZERO PUSH2 0xDEE JUMPI PUSH2 0xD9C DUP3 SLOAD NUMBER PUSH2 0xD52 JUMP JUMPDEST SWAP1 DUP2 ISZERO ISZERO DUP1 PUSH2 0xDE4 JUMPI JUMPDEST PUSH2 0xDB2 JUMPI JUMPDEST POP POP NUMBER SWAP1 SSTORE JUMP JUMPDEST PUSH1 0x2 PUSH2 0xDC3 PUSH2 0xDDA SWAP4 DUP4 SLOAD SWAP1 PUSH2 0xD5F JUMP JUMPDEST SWAP2 ADD PUSH2 0xDD0 DUP3 DUP3 SLOAD PUSH2 0xAEB JUMP JUMPDEST SWAP1 SSTORE PUSH1 0x5 SLOAD PUSH2 0xAEB JUMP JUMPDEST PUSH1 0x5 SSTORE PUSH0 DUP1 PUSH2 0xDAB JUMP JUMPDEST POP DUP1 SLOAD ISZERO ISZERO PUSH2 0xDA6 JUMP JUMPDEST POP NUMBER SWAP1 SSTORE JUMP JUMPDEST PUSH1 0x40 MLOAD PUSH4 0xA9059CBB PUSH1 0xE0 SHL PUSH1 0x20 DUP3 ADD MSTORE PUSH1 0x1 PUSH1 0x1 PUSH1 0xA0 SHL SUB SWAP1 SWAP3 AND PUSH1 0x24 DUP4 ADD MSTORE PUSH1 0x44 DUP1 DUP4 ADD SWAP4 SWAP1 SWAP4 MSTORE SWAP2 DUP2 MSTORE PUSH1 0x80 DUP2 ADD SWAP2 PUSH8 0xFFFFFFFFFFFFFFFF DUP4 GT DUP3 DUP5 LT OR PUSH2 0xC84 JUMPI PUSH2 0xE44 SWAP3 PUSH1 0x40 MSTORE PUSH2 0xCED JUMP JUMPDEST JUMP JUMPDEST PUSH0 NOT DUP2 EQ PUSH2 0xAF8 JUMPI PUSH1 0x1 ADD SWAP1 JUMP JUMPDEST DUP2 ISZERO PUSH2 0xE5E JUMPI DIV SWAP1 JUMP JUMPDEST PUSH4 0x4E487B71 PUSH1 0xE0 SHL PUSH0 MSTORE PUSH1 0x12 PUSH1 0x4 MSTORE PUSH1 0x24 PUSH0 REVERT JUMPDEST PUSH1 0x40 DUP1 MLOAD PUSH4 0x70A08231 PUSH1 0xE0 SHL DUP2 MSTORE ADDRESS PUSH1 0x4 DUP3 ADD MSTORE PUSH1 0x1 PUSH1 0x1 PUSH1 0xA0 SHL SUB SWAP3 PUSH32 0x0 SWAP3 SWAP2 PUSH1 0x20 SWAP2 SWAP1 DUP3 DUP2 PUSH1 0x24 DUP2 DUP10 DUP10 AND GAS STATICCALL SWAP1 DUP2 ISZERO PUSH2 0x10D1 JUMPI PUSH0 SWAP2 PUSH2 0x10A4 JUMPI JUMPDEST POP PUSH2 0xEDB PUSH1 0x4 SLOAD NUMBER PUSH2 0xD52 JUMP JUMPDEST DUP1 ISZERO PUSH2 0x109B JUMPI PUSH32 0x0 SWAP1 DUP3 PUSH2 0xF0E DUP4 DUP4 PUSH2 0xD5F JUMP JUMPDEST GT ISZERO PUSH2 0x108B JUMPI POP POP SWAP1 JUMPDEST PUSH0 JUMPDEST PUSH1 0x7 SLOAD DUP2 LT ISZERO PUSH2 0xF98 JUMPI DUP1 DUP8 PUSH2 0xF32 PUSH2 0xF8C SWAP4 PUSH2 0xA22 JUMP JUMPDEST SWAP1 SLOAD SWAP1 PUSH1 0x3 SHL SHR AND PUSH0 MSTORE PUSH1 0x6 DUP6 MSTORE DUP6 PUSH0 KECCAK256 DUP1 SLOAD SWAP1 DUP2 ISZERO PUSH2 0xF91 JUMPI PUSH1 0x2 PUSH2 0xF66 PUSH1 0x1 DUP4 ADD SWAP4 PUSH2 0xF61 DUP6 SLOAD NUMBER PUSH2 0xD52 JUMP JUMPDEST PUSH2 0xD5F JUMP JUMPDEST SWAP2 ADD PUSH2 0xF73 DUP3 DUP3 SLOAD PUSH2 0xAEB JUMP JUMPDEST SWAP1 SSTORE PUSH2 0xF82 PUSH1 0x5 SWAP2 DUP3 SLOAD PUSH2 0xAEB JUMP JUMPDEST SWAP1 SSTORE NUMBER SWAP1 SSTORE PUSH2 0xE46 JUMP JUMPDEST PUSH2 0xF1A JUMP JUMPDEST POP POP PUSH2 0xE46 JUMP JUMPDEST POP SWAP3 SWAP4 SWAP1 SWAP4 PUSH1 0x32 DUP6 MUL DUP6 DUP2 DIV PUSH1 0x32 EQ DUP7 ISZERO OR ISZERO PUSH2 0xAF8 JUMPI PUSH2 0x2710 PUSH2 0xFC3 SWAP2 DIV DUP1 SWAP7 DUP2 PUSH2 0x107B JUMPI PUSH2 0xD52 JUMP JUMPDEST SWAP4 PUSH0 JUMPDEST PUSH1 0x7 SLOAD DUP2 LT ISZERO PUSH2 0x103F JUMPI DUP1 DUP9 PUSH2 0xFDE PUSH2 0x1021 SWAP4 PUSH2 0xA22 JUMP JUMPDEST SWAP1 SLOAD SWAP1 PUSH1 0x3 SHL SHR AND DUP1 PUSH0 MSTORE PUSH1 0x6 DUP8 MSTORE PUSH1 0x2 DUP6 PUSH0 KECCAK256 ADD DUP1 SLOAD SWAP2 DUP3 ISZERO PUSH2 0x1037 JUMPI PUSH2 0x1013 PUSH2 0x100A PUSH0 SWAP5 DUP13 PUSH2 0xD5F JUMP JUMPDEST PUSH1 0x5 SLOAD SWAP1 PUSH2 0xE54 JUMP JUMPDEST DUP1 PUSH2 0x1026 JUMPI JUMPDEST POP POP SSTORE PUSH2 0xE46 JUMP JUMPDEST PUSH2 0xFC6 JUMP JUMPDEST PUSH2 0x1030 SWAP2 DUP10 PUSH2 0xDF4 JUMP JUMPDEST PUSH0 DUP1 PUSH2 0x1019 JUMP JUMPDEST POP POP POP PUSH2 0xE46 JUMP JUMPDEST POP SWAP6 POP SWAP3 SWAP2 PUSH32 0x3C3D358C457D91D874593441791F0B96C90172A78030CE0CE7E8E8C965FE1469 SWAP5 SWAP2 POP PUSH0 PUSH1 0x5 SSTORE NUMBER PUSH1 0x4 SSTORE DUP4 MLOAD SWAP3 DUP4 MSTORE DUP3 ADD MSTORE LOG1 JUMP JUMPDEST PUSH2 0x1086 DUP3 CALLER DUP8 PUSH2 0xDF4 JUMP JUMPDEST PUSH2 0xD52 JUMP JUMPDEST PUSH2 0x1095 SWAP3 POP PUSH2 0xD5F JUMP JUMPDEST SWAP1 PUSH2 0xF18 JUMP JUMPDEST POP POP SWAP4 POP POP POP POP JUMP JUMPDEST SWAP1 DUP4 DUP3 DUP2 RETURNDATASIZE DUP4 GT PUSH2 0x10CA JUMPI JUMPDEST PUSH2 0x10BA DUP2 DUP4 PUSH2 0xCCB JUMP JUMPDEST DUP2 ADD SUB SLT PUSH2 0x3F3 JUMPI POP MLOAD PUSH0 PUSH2 0xECE JUMP JUMPDEST POP RETURNDATASIZE PUSH2 0x10B0 JUMP JUMPDEST DUP5 MLOAD RETURNDATASIZE PUSH0 DUP3 RETURNDATACOPY RETURNDATASIZE SWAP1 REVERT JUMPDEST PUSH2 0x10E7 PUSH1 0x4 SLOAD NUMBER PUSH2 0xD52 JUMP JUMPDEST DUP1 ISZERO PUSH2 0x12D4 JUMPI PUSH1 0x40 DUP1 MLOAD PUSH4 0x70A08231 PUSH1 0xE0 SHL DUP2 MSTORE ADDRESS PUSH1 0x4 DUP3 ADD MSTORE PUSH1 0x1 PUSH1 0x1 PUSH1 0xA0 SHL SUB SWAP3 PUSH1 0x20 SWAP3 SWAP2 SWAP1 DUP4 DUP3 PUSH1 0x24 DUP2 PUSH32 0x0 DUP10 AND GAS STATICCALL SWAP2 DUP3 ISZERO PUSH2 0x12CA JUMPI PUSH0 SWAP3 PUSH2 0x1299 JUMPI JUMPDEST POP PUSH2 0x1173 SWAP1 PUSH32 0x0 SWAP1 PUSH2 0xD5F JUMP JUMPDEST DUP2 DUP2 GT ISZERO PUSH2 0x1292 JUMPI POP JUMPDEST DUP1 ISZERO PUSH2 0x1289 JUMPI PUSH1 0x32 DUP2 MUL SWAP1 DUP1 DUP3 DIV PUSH1 0x32 SUB PUSH2 0xAF8 JUMPI PUSH2 0x2710 PUSH2 0x11A0 SWAP3 DIV SWAP1 PUSH2 0xD52 JUMP JUMPDEST SWAP2 PUSH1 0x5 SLOAD SWAP4 PUSH0 SWAP6 DUP7 SWAP4 PUSH1 0x7 SLOAD SWAP5 JUMPDEST DUP6 DUP2 LT PUSH2 0x11EC JUMPI POP POP POP POP POP POP DUP3 ISZERO DUP1 ISZERO PUSH2 0x11E4 JUMPI JUMPDEST PUSH2 0x11DD JUMPI PUSH2 0x11DA SWAP3 PUSH2 0x11D5 SWAP2 PUSH2 0xD5F JUMP JUMPDEST PUSH2 0xE54 JUMP JUMPDEST SWAP1 JUMP JUMPDEST POP POP POP PUSH0 SWAP1 JUMP JUMPDEST POP DUP2 ISZERO PUSH2 0x11C4 JUMP JUMPDEST DUP4 PUSH2 0x11F6 DUP3 PUSH2 0xA22 JUMP JUMPDEST SWAP1 SLOAD SWAP1 PUSH1 0x3 SHL SHR AND SWAP8 DUP9 PUSH0 MSTORE PUSH1 0x6 DUP7 MSTORE DUP3 PUSH0 KECCAK256 DUP1 SLOAD SWAP1 DUP2 ISZERO PUSH2 0x127C JUMPI SWAP1 PUSH2 0x123A SWAP2 PUSH0 SWAP2 PUSH1 0x1 DUP3 ADD SLOAD DUP1 PUSH2 0x125D JUMPI JUMPDEST POP POP DUP2 PUSH1 0x2 PUSH2 0x1234 SWAP3 ADD SLOAD PUSH2 0xAEB JUMP JUMPDEST SWAP3 PUSH2 0xAEB JUMP JUMPDEST SWAP9 DUP6 DUP6 AND EQ PUSH2 0x1253 JUMPI JUMPDEST POP PUSH2 0x124E SWAP1 PUSH2 0xE46 JUMP JUMPDEST PUSH2 0x11AE JUMP JUMPDEST SWAP9 POP PUSH2 0x124E PUSH2 0x1244 JUMP JUMPDEST PUSH1 0x2 SWAP4 POP PUSH2 0x1234 SWAP3 SWAP2 PUSH2 0xF61 PUSH2 0x1273 SWAP3 NUMBER PUSH2 0xD52 JUMP JUMPDEST SWAP3 DUP2 SWAP3 POP PUSH2 0x1224 JUMP JUMPDEST POP POP SWAP8 POP PUSH2 0x124E SWAP1 PUSH2 0xE46 JUMP JUMPDEST POP POP POP POP POP PUSH0 SWAP1 JUMP JUMPDEST SWAP1 POP PUSH2 0x117D JUMP JUMPDEST SWAP1 SWAP2 DUP5 DUP3 DUP2 RETURNDATASIZE DUP4 GT PUSH2 0x12C3 JUMPI JUMPDEST PUSH2 0x12B0 DUP2 DUP4 PUSH2 0xCCB JUMP JUMPDEST DUP2 ADD SUB SLT PUSH2 0x3F3 JUMPI POP MLOAD SWAP1 PUSH2 0x1173 PUSH2 0x1147 JUMP JUMPDEST POP RETURNDATASIZE PUSH2 0x12A6 JUMP JUMPDEST DUP4 MLOAD RETURNDATASIZE PUSH0 DUP3 RETURNDATACOPY RETURNDATASIZE SWAP1 REVERT JUMPDEST POP POP PUSH0 SWAP1 JUMP JUMPDEST PUSH2 0x12E6 PUSH1 0x4 SLOAD NUMBER PUSH2 0xD52 JUMP JUMPDEST PUSH1 0x40 MLOAD PUSH4 0x70A08231 PUSH1 0xE0 SHL DUP2 MSTORE ADDRESS PUSH1 0x4 DUP3 ADD MSTORE PUSH1 0x20 DUP2 PUSH1 0x24 DUP2 PUSH32 0x0 PUSH1 0x1 PUSH1 0x1 PUSH1 0xA0 SHL SUB AND GAS STATICCALL SWAP1 DUP2 ISZERO PUSH2 0xD47 JUMPI PUSH0 SWAP2 PUSH2 0x1384 JUMPI JUMPDEST POP PUSH2 0x1364 PUSH32 0x0 DUP4 PUSH2 0xD5F JUMP JUMPDEST DUP2 DUP2 GT ISZERO PUSH2 0x137C JUMPI POP SWAP1 JUMPDEST ISZERO PUSH2 0x1377 JUMPI SWAP1 JUMP JUMPDEST POP PUSH0 SWAP1 JUMP JUMPDEST SWAP1 POP SWAP1 PUSH2 0x136F JUMP JUMPDEST SWAP1 PUSH1 0x20 DUP3 RETURNDATASIZE DUP3 GT PUSH2 0x13AD JUMPI JUMPDEST DUP2 PUSH2 0x139D PUSH1 0x20 SWAP4 DUP4 PUSH2 0xCCB JUMP JUMPDEST DUP2 ADD SUB SLT PUSH2 0x3F3 JUMPI POP MLOAD PUSH0 PUSH2 0x1339 JUMP JUMPDEST RETURNDATASIZE SWAP2 POP PUSH2 0x1390 JUMP INVALID LOG2 PUSH5 0x6970667358 0x22 SLT KECCAK256 PUSH14 0x1923D846320D6C628D006E284F6F CALLCODE 0xE8 RETURNDATASIZE SDIV 0xB1 SWAP8 ISZERO GT EXTCODESIZE 0xFC JUMP DUP13 PUSH7 0x8607BAF64736F PUSH13 0x63430008140033000000000000 "
				},
				"gasEstimates": {
					"creation": {
						"codeDepositCost": "1019800",
						"executionCost": "infinite",
						"totalCost": "infinite"
					},
					"external": {
						"BP_DENOM()": "322",
						"CALLER_FEE_BP()": "713",
						"claimAll()": "infinite",
						"claimableReward(address)": "infinite",
						"deposit(uint256)": "infinite",
						"depositFor(address,uint256)": "infinite",
						"getUserXP(address)": "7346",
						"isParticipant(address)": "2682",
						"lastRewardBlock()": "2560",
						"lpToken()": "infinite",
						"owner()": "2515",
						"participantCount()": "2340",
						"participants(uint256)": "6653",
						"remainingRewardPool()": "infinite",
						"renounceOwnership()": "28210",
						"rewardPerBlock()": "infinite",
						"rewardToken()": "infinite",
						"router()": "2823",
						"setRouter(address)": "28053",
						"totalLPLocked()": "infinite",
						"totalXP()": "2582",
						"transferOwnership(address)": "28638",
						"users(address)": "6943",
						"withdraw(uint256)": "infinite",
						"withdrawAll()": "infinite",
						"withdrawAllRewards()": "infinite"
					},
					"internal": {
						"_depositFor(address,address,uint256)": "infinite",
						"_updateUserXP(address)": "infinite"
					}
				},
				"methodIdentifiers": {
					"BP_DENOM()": "71bf8623",
					"CALLER_FEE_BP()": "fc7039e0",
					"claimAll()": "d1058e59",
					"claimableReward(address)": "e9503425",
					"deposit(uint256)": "b6b55f25",
					"depositFor(address,uint256)": "2f4f21e2",
					"getUserXP(address)": "e9e7eb35",
					"isParticipant(address)": "929066f5",
					"lastRewardBlock()": "a9f8d181",
					"lpToken()": "5fcbd285",
					"owner()": "8da5cb5b",
					"participantCount()": "362f04c0",
					"participants(uint256)": "35c1d349",
					"remainingRewardPool()": "e7a0fb9b",
					"renounceOwnership()": "715018a6",
					"rewardPerBlock()": "8ae39cac",
					"rewardToken()": "f7c618c1",
					"router()": "f887ea40",
					"setRouter(address)": "c0d78655",
					"totalLPLocked()": "f7e4cd0d",
					"totalXP()": "aa93bfa8",
					"transferOwnership(address)": "f2fde38b",
					"users(address)": "a87430ba",
					"withdraw(uint256)": "2e1a7d4d",
					"withdrawAll()": "853828b6",
					"withdrawAllRewards()": "45114ee5"
				}
			},
			"storageLayout": {
				"storage": [
					{
						"astId": 248,
						"contract": "contracts/YunaVaultV2.sol:YunaVaultV2",
						"label": "_status",
						"offset": 0,
						"slot": "0",
						"type": "t_uint256"
					},
					{
						"astId": 8,
						"contract": "contracts/YunaVaultV2.sol:YunaVaultV2",
						"label": "_owner",
						"offset": 0,
						"slot": "1",
						"type": "t_address"
					},
					{
						"astId": 938,
						"contract": "contracts/YunaVaultV2.sol:YunaVaultV2",
						"label": "isParticipant",
						"offset": 0,
						"slot": "2",
						"type": "t_mapping(t_address,t_bool)"
					},
					{
						"astId": 940,
						"contract": "contracts/YunaVaultV2.sol:YunaVaultV2",
						"label": "router",
						"offset": 0,
						"slot": "3",
						"type": "t_address"
					},
					{
						"astId": 948,
						"contract": "contracts/YunaVaultV2.sol:YunaVaultV2",
						"label": "lastRewardBlock",
						"offset": 0,
						"slot": "4",
						"type": "t_uint256"
					},
					{
						"astId": 950,
						"contract": "contracts/YunaVaultV2.sol:YunaVaultV2",
						"label": "totalXP",
						"offset": 0,
						"slot": "5",
						"type": "t_uint256"
					},
					{
						"astId": 962,
						"contract": "contracts/YunaVaultV2.sol:YunaVaultV2",
						"label": "users",
						"offset": 0,
						"slot": "6",
						"type": "t_mapping(t_address,t_struct(User)957_storage)"
					},
					{
						"astId": 965,
						"contract": "contracts/YunaVaultV2.sol:YunaVaultV2",
						"label": "participants",
						"offset": 0,
						"slot": "7",
						"type": "t_array(t_address)dyn_storage"
					}
				],
				"types": {
					"t_address": {
						"encoding": "inplace",
						"label": "address",
						"numberOfBytes": "20"
					},
					"t_array(t_address)dyn_storage": {
						"base": "t_address",
						"encoding": "dynamic_array",
						"label": "address[]",
						"numberOfBytes": "32"
					},
					"t_bool": {
						"encoding": "inplace",
						"label": "bool",
						"numberOfBytes": "1"
					},
					"t_mapping(t_address,t_bool)": {
						"encoding": "mapping",
						"key": "t_address",
						"label": "mapping(address => bool)",
						"numberOfBytes": "32",
						"value": "t_bool"
					},
					"t_mapping(t_address,t_struct(User)957_storage)": {
						"encoding": "mapping",
						"key": "t_address",
						"label": "mapping(address => struct YunaVaultV2.User)",
						"numberOfBytes": "32",
						"value": "t_struct(User)957_storage"
					},
					"t_struct(User)957_storage": {
						"encoding": "inplace",
						"label": "struct YunaVaultV2.User",
						"members": [
							{
								"astId": 952,
								"contract": "contracts/YunaVaultV2.sol:YunaVaultV2",
								"label": "balance",
								"offset": 0,
								"slot": "0",
								"type": "t_uint256"
							},
							{
								"astId": 954,
								"contract": "contracts/YunaVaultV2.sol:YunaVaultV2",
								"label": "lastUpdateBlock",
								"offset": 0,
								"slot": "1",
								"type": "t_uint256"
							},
							{
								"astId": 956,
								"contract": "contracts/YunaVaultV2.sol:YunaVaultV2",
								"label": "xp",
								"offset": 0,
								"slot": "2",
								"type": "t_uint256"
							}
						],
						"numberOfBytes": "96"
					},
					"t_uint256": {
						"encoding": "inplace",
						"label": "uint256",
						"numberOfBytes": "32"
					}
				}
			},
			"userdoc": {
				"kind": "user",
				"methods": {},
				"version": 1
			}
		}
	}
}