{
	"YunaVault.sol": {
		"YunaVault": {
			"abi": [
				{
					"inputs": [
						{
							"internalType": "address",
							"name": "_protocol",
							"type": "address"
						}
					],
					"stateMutability": "nonpayable",
					"type": "constructor"
				},
				{
					"inputs": [
						{
							"internalType": "address",
							"name": "",
							"type": "address"
						},
						{
							"internalType": "uint256",
							"name": "",
							"type": "uint256"
						}
					],
					"name": "activePositions",
					"outputs": [
						{
							"internalType": "uint256",
							"name": "",
							"type": "uint256"
						}
					],
					"stateMutability": "view",
					"type": "function"
				},
				{
					"inputs": [
						{
							"internalType": "address",
							"name": "user",
							"type": "address"
						},
						{
							"internalType": "uint256",
							"name": "offset",
							"type": "uint256"
						},
						{
							"internalType": "uint256",
							"name": "limit",
							"type": "uint256"
						},
						{
							"internalType": "bool",
							"name": "active",
							"type": "bool"
						}
					],
					"name": "getPositionsPaginated",
					"outputs": [
						{
							"internalType": "uint256[]",
							"name": "page",
							"type": "uint256[]"
						}
					],
					"stateMutability": "view",
					"type": "function"
				},
				{
					"inputs": [
						{
							"internalType": "address",
							"name": "holder",
							"type": "address"
						},
						{
							"internalType": "address",
							"name": "token",
							"type": "address"
						}
					],
					"name": "getXP",
					"outputs": [
						{
							"internalType": "uint256",
							"name": "xp",
							"type": "uint256"
						}
					],
					"stateMutability": "view",
					"type": "function"
				},
				{
					"inputs": [
						{
							"internalType": "address",
							"name": "",
							"type": "address"
						},
						{
							"internalType": "uint256",
							"name": "",
							"type": "uint256"
						}
					],
					"name": "historyPositions",
					"outputs": [
						{
							"internalType": "uint256",
							"name": "",
							"type": "uint256"
						}
					],
					"stateMutability": "view",
					"type": "function"
				},
				{
					"inputs": [
						{
							"internalType": "uint256",
							"name": "",
							"type": "uint256"
						}
					],
					"name": "positions",
					"outputs": [
						{
							"internalType": "address",
							"name": "user",
							"type": "address"
						},
						{
							"internalType": "address",
							"name": "token",
							"type": "address"
						},
						{
							"internalType": "uint256",
							"name": "amount",
							"type": "uint256"
						},
						{
							"internalType": "uint256",
							"name": "startBlock",
							"type": "uint256"
						},
						{
							"internalType": "uint256",
							"name": "endBlock",
							"type": "uint256"
						},
						{
							"internalType": "bool",
							"name": "claimed",
							"type": "bool"
						}
					],
					"stateMutability": "view",
					"type": "function"
				},
				{
					"inputs": [],
					"name": "protocol",
					"outputs": [
						{
							"internalType": "address",
							"name": "",
							"type": "address"
						}
					],
					"stateMutability": "view",
					"type": "function"
				},
				{
					"inputs": [],
					"name": "releaseAll",
					"outputs": [],
					"stateMutability": "nonpayable",
					"type": "function"
				},
				{
					"inputs": [
						{
							"internalType": "address",
							"name": "token",
							"type": "address"
						},
						{
							"internalType": "uint256",
							"name": "amount",
							"type": "uint256"
						},
						{
							"internalType": "uint256",
							"name": "blocksToStake",
							"type": "uint256"
						}
					],
					"name": "stake",
					"outputs": [],
					"stateMutability": "nonpayable",
					"type": "function"
				}
			],
			"devdoc": {
				"kind": "dev",
				"methods": {},
				"version": 1
			},
			"evm": {
				"assembly": "    /* \"YunaVault.sol\":185:3812  contract YunaVault is ReentrancyGuard {... */\n  mstore(0x40, 0x80)\n    /* \"YunaVault.sol\":602:672  constructor(address _protocol) {... */\n  callvalue\n  dup1\n  iszero\n  tag_1\n  jumpi\n  0x00\n  dup1\n  revert\ntag_1:\n  pop\n  mload(0x40)\n  sub(codesize, bytecodeSize)\n  dup1\n  bytecodeSize\n  dup4\n  codecopy\n  dup2\n  add\n  0x40\n  dup2\n  swap1\n  mstore\n  tag_2\n  swap2\n  tag_3\n  jump\t// in\ntag_2:\n    /* \"@openzeppelin/contracts/security/ReentrancyGuard.sol\":1716:1717  1 */\n  0x01\n    /* \"@openzeppelin/contracts/security/ReentrancyGuard.sol\":1821:1828  _status */\n  0x00\n    /* \"@openzeppelin/contracts/security/ReentrancyGuard.sol\":1821:1843  _status = _NOT_ENTERED */\n  dup2\n  swap1\n  sstore\n    /* \"YunaVault.sol\":644:664  protocol = _protocol */\n  dup1\n  sload\n  not(sub(shl(0xa0, 0x01), 0x01))\n  and\n  sub(shl(0xa0, 0x01), 0x01)\n  swap3\n  swap1\n  swap3\n  and\n  swap2\n  swap1\n  swap2\n  or\n  swap1\n  sstore\n    /* \"YunaVault.sol\":185:3812  contract YunaVault is ReentrancyGuard {... */\n  jump(tag_9)\n    /* \"#utility.yul\":14:304   */\ntag_3:\n    /* \"#utility.yul\":84:90   */\n  0x00\n    /* \"#utility.yul\":137:139   */\n  0x20\n    /* \"#utility.yul\":125:134   */\n  dup3\n    /* \"#utility.yul\":116:123   */\n  dup5\n    /* \"#utility.yul\":112:135   */\n  sub\n    /* \"#utility.yul\":108:140   */\n  slt\n    /* \"#utility.yul\":105:157   */\n  iszero\n  tag_11\n  jumpi\n    /* \"#utility.yul\":153:154   */\n  0x00\n    /* \"#utility.yul\":150:151   */\n  dup1\n    /* \"#utility.yul\":143:155   */\n  revert\n    /* \"#utility.yul\":105:157   */\ntag_11:\n    /* \"#utility.yul\":179:195   */\n  dup2\n  mload\n  sub(shl(0xa0, 0x01), 0x01)\n    /* \"#utility.yul\":224:255   */\n  dup2\n  and\n    /* \"#utility.yul\":214:256   */\n  dup2\n  eq\n    /* \"#utility.yul\":204:274   */\n  tag_12\n  jumpi\n    /* \"#utility.yul\":270:271   */\n  0x00\n    /* \"#utility.yul\":267:268   */\n  dup1\n    /* \"#utility.yul\":260:272   */\n  revert\n    /* \"#utility.yul\":204:274   */\ntag_12:\n    /* \"#utility.yul\":293:298   */\n  swap4\n    /* \"#utility.yul\":14:304   */\n  swap3\n  pop\n  pop\n  pop\n  jump\t// out\ntag_9:\n    /* \"YunaVault.sol\":185:3812  contract YunaVault is ReentrancyGuard {... */\n  dataSize(sub_0)\n  dup1\n  dataOffset(sub_0)\n  0x00\n  codecopy\n  0x00\n  return\nstop\n\nsub_0: assembly {\n        /* \"YunaVault.sol\":185:3812  contract YunaVault is ReentrancyGuard {... */\n      mstore(0x40, 0x80)\n      callvalue\n      dup1\n      iszero\n      tag_1\n      jumpi\n      0x00\n      dup1\n      revert\n    tag_1:\n      pop\n      jumpi(tag_2, lt(calldatasize, 0x04))\n      shr(0xe0, calldataload(0x00))\n      dup1\n      0x6b53503a\n      gt\n      tag_11\n      jumpi\n      dup1\n      0x6b53503a\n      eq\n      tag_7\n      jumpi\n      dup1\n      0x8ce74426\n      eq\n      tag_8\n      jumpi\n      dup1\n      0x99fbab88\n      eq\n      tag_9\n      jumpi\n      dup1\n      0xac55deb6\n      eq\n      tag_10\n      jumpi\n      0x00\n      dup1\n      revert\n    tag_11:\n      dup1\n      0x05e2e95d\n      eq\n      tag_3\n      jumpi\n      dup1\n      0x0c51b88f\n      eq\n      tag_4\n      jumpi\n      dup1\n      0x5be7fde8\n      eq\n      tag_5\n      jumpi\n      dup1\n      0x6a5908a0\n      eq\n      tag_6\n      jumpi\n    tag_2:\n      0x00\n      dup1\n      revert\n        /* \"YunaVault.sol\":2254:3219  function getXP(address holder, address token) external view returns (uint256 xp) {... */\n    tag_3:\n      tag_12\n      tag_13\n      calldatasize\n      0x04\n      tag_14\n      jump\t// in\n    tag_13:\n      tag_15\n      jump\t// in\n    tag_12:\n      mload(0x40)\n        /* \"#utility.yul\":603:628   */\n      swap1\n      dup2\n      mstore\n        /* \"#utility.yul\":591:593   */\n      0x20\n        /* \"#utility.yul\":576:594   */\n      add\n        /* \"YunaVault.sol\":2254:3219  function getXP(address holder, address token) external view returns (uint256 xp) {... */\n    tag_16:\n      mload(0x40)\n      dup1\n      swap2\n      sub\n      swap1\n      return\n        /* \"YunaVault.sol\":680:1345  function stake(address token, uint256 amount, uint256 blocksToStake) external nonReentrant {... */\n    tag_4:\n      tag_18\n      tag_19\n      calldatasize\n      0x04\n      tag_20\n      jump\t// in\n    tag_19:\n      tag_21\n      jump\t// in\n    tag_18:\n      stop\n        /* \"YunaVault.sol\":1353:2246  function releaseAll() public nonReentrant {... */\n    tag_5:\n      tag_18\n      tag_23\n      jump\t// in\n        /* \"YunaVault.sol\":445:497  mapping(address => uint256[]) public activePositions */\n    tag_6:\n      tag_12\n      tag_25\n      calldatasize\n      0x04\n      tag_26\n      jump\t// in\n    tag_25:\n      tag_27\n      jump\t// in\n        /* \"YunaVault.sol\":3227:3809  function getPositionsPaginated(address user, uint256 offset, uint256 limit, bool active)... */\n    tag_7:\n      tag_29\n      tag_30\n      calldatasize\n      0x04\n      tag_31\n      jump\t// in\n    tag_30:\n      tag_32\n      jump\t// in\n    tag_29:\n      mload(0x40)\n      tag_16\n      swap2\n      swap1\n      tag_34\n      jump\t// in\n        /* \"YunaVault.sol\":413:436  address public protocol */\n    tag_8:\n      sload(0x01)\n      tag_35\n      swap1\n      sub(shl(0xa0, 0x01), 0x01)\n      and\n      dup2\n      jump\n    tag_35:\n      mload(0x40)\n      sub(shl(0xa0, 0x01), 0x01)\n        /* \"#utility.yul\":2606:2638   */\n      swap1\n      swap2\n      and\n        /* \"#utility.yul\":2588:2639   */\n      dup2\n      mstore\n        /* \"#utility.yul\":2576:2578   */\n      0x20\n        /* \"#utility.yul\":2561:2579   */\n      add\n        /* \"YunaVault.sol\":413:436  address public protocol */\n      tag_16\n        /* \"#utility.yul\":2442:2645   */\n      jump\n        /* \"YunaVault.sol\":566:593  Position[] public positions */\n    tag_9:\n      tag_39\n      tag_40\n      calldatasize\n      0x04\n      tag_41\n      jump\t// in\n    tag_40:\n      tag_42\n      jump\t// in\n    tag_39:\n      0x40\n      dup1\n      mload\n      sub(shl(0xa0, 0x01), 0x01)\n        /* \"#utility.yul\":3172:3187   */\n      swap8\n      dup9\n      and\n        /* \"#utility.yul\":3154:3188   */\n      dup2\n      mstore\n        /* \"#utility.yul\":3224:3239   */\n      swap7\n      swap1\n      swap6\n      and\n        /* \"#utility.yul\":3219:3221   */\n      0x20\n        /* \"#utility.yul\":3204:3222   */\n      dup8\n      add\n        /* \"#utility.yul\":3197:3240   */\n      mstore\n        /* \"#utility.yul\":3256:3274   */\n      swap4\n      dup6\n      add\n        /* \"#utility.yul\":3249:3283   */\n      swap3\n      swap1\n      swap3\n      mstore\n        /* \"#utility.yul\":3314:3316   */\n      0x60\n        /* \"#utility.yul\":3299:3317   */\n      dup5\n      add\n        /* \"#utility.yul\":3292:3326   */\n      mstore\n        /* \"#utility.yul\":3357:3360   */\n      0x80\n        /* \"#utility.yul\":3342:3361   */\n      dup4\n      add\n        /* \"#utility.yul\":3335:3370   */\n      mstore\n        /* \"#utility.yul\":3414:3428   */\n      iszero\n        /* \"#utility.yul\":3407:3429   */\n      iszero\n        /* \"#utility.yul\":3134:3137   */\n      0xa0\n        /* \"#utility.yul\":3386:3405   */\n      dup3\n      add\n        /* \"#utility.yul\":3379:3430   */\n      mstore\n        /* \"#utility.yul\":3103:3106   */\n      0xc0\n        /* \"#utility.yul\":3088:3107   */\n      add\n        /* \"YunaVault.sol\":566:593  Position[] public positions */\n      tag_16\n        /* \"#utility.yul\":2835:3436   */\n      jump\n        /* \"YunaVault.sol\":504:557  mapping(address => uint256[]) public historyPositions */\n    tag_10:\n      tag_12\n      tag_46\n      calldatasize\n      0x04\n      tag_26\n      jump\t// in\n    tag_46:\n      tag_47\n      jump\t// in\n        /* \"YunaVault.sol\":2254:3219  function getXP(address holder, address token) external view returns (uint256 xp) {... */\n    tag_15:\n      sub(shl(0xa0, 0x01), 0x01)\n        /* \"YunaVault.sol\":2369:2392  activePositions[holder] */\n      dup3\n      and\n        /* \"YunaVault.sol\":2323:2333  uint256 xp */\n      0x00\n        /* \"YunaVault.sol\":2369:2392  activePositions[holder] */\n      swap1\n      dup2\n      mstore\n        /* \"YunaVault.sol\":2369:2384  activePositions */\n      0x02\n        /* \"YunaVault.sol\":2369:2392  activePositions[holder] */\n      0x20\n      swap1\n      dup2\n      mstore\n      0x40\n      dup1\n      dup4\n      keccak256\n        /* \"YunaVault.sol\":2346:2392  uint256[] memory act = activePositions[holder] */\n      dup1\n      sload\n      dup3\n      mload\n      dup2\n      dup6\n      mul\n      dup2\n      add\n      dup6\n      add\n      swap1\n      swap4\n      mstore\n      dup1\n      dup4\n      mstore\n        /* \"YunaVault.sol\":2323:2333  uint256 xp */\n      dup5\n      swap4\n        /* \"YunaVault.sol\":2346:2392  uint256[] memory act = activePositions[holder] */\n      dup4\n      add\n        /* \"YunaVault.sol\":2369:2392  activePositions[holder] */\n      dup3\n        /* \"YunaVault.sol\":2346:2392  uint256[] memory act = activePositions[holder] */\n      dup3\n      dup1\n      iszero\n      tag_50\n      jumpi\n      0x20\n      mul\n      dup3\n      add\n      swap2\n      swap1\n      0x00\n      mstore\n      keccak256(0x00, 0x20)\n      swap1\n    tag_51:\n      dup2\n      sload\n      dup2\n      mstore\n      0x20\n      add\n      swap1\n      0x01\n      add\n      swap1\n      dup1\n      dup4\n      gt\n      tag_51\n      jumpi\n    tag_50:\n      pop\n      pop\n      pop\n      pop\n      sub(shl(0xa0, 0x01), 0x01)\n        /* \"YunaVault.sol\":2427:2451  historyPositions[holder] */\n      dup7\n      and\n        /* \"YunaVault.sol\":2403:2424  uint256[] memory hist */\n      0x00\n        /* \"YunaVault.sol\":2427:2451  historyPositions[holder] */\n      swap1\n      dup2\n      mstore\n        /* \"YunaVault.sol\":2427:2443  historyPositions */\n      0x03\n        /* \"YunaVault.sol\":2427:2451  historyPositions[holder] */\n      0x20\n      swap1\n      dup2\n      mstore\n      0x40\n      dup1\n      dup4\n      keccak256\n        /* \"YunaVault.sol\":2403:2451  uint256[] memory hist = historyPositions[holder] */\n      dup1\n      sload\n      dup3\n      mload\n      dup2\n      dup6\n      mul\n      dup2\n      add\n      dup6\n      add\n      swap1\n      swap4\n      mstore\n      dup1\n      dup4\n      mstore\n        /* \"YunaVault.sol\":2346:2392  uint256[] memory act = activePositions[holder] */\n      swap6\n      swap7\n      pop\n        /* \"YunaVault.sol\":2403:2424  uint256[] memory hist */\n      swap3\n      swap5\n        /* \"YunaVault.sol\":2403:2451  uint256[] memory hist = historyPositions[holder] */\n      swap1\n      swap4\n      pop\n      swap1\n      dup4\n      add\n        /* \"YunaVault.sol\":2427:2451  historyPositions[holder] */\n      dup3\n        /* \"YunaVault.sol\":2403:2451  uint256[] memory hist = historyPositions[holder] */\n      dup3\n      dup1\n      iszero\n      tag_52\n      jumpi\n      0x20\n      mul\n      dup3\n      add\n      swap2\n      swap1\n      0x00\n      mstore\n      keccak256(0x00, 0x20)\n      swap1\n    tag_53:\n      dup2\n      sload\n      dup2\n      mstore\n      0x20\n      add\n      swap1\n      0x01\n      add\n      swap1\n      dup1\n      dup4\n      gt\n      tag_53\n      jumpi\n    tag_52:\n      pop\n      pop\n      pop\n      pop\n      pop\n      swap1\n      pop\n        /* \"YunaVault.sol\":2469:2478  uint256 i */\n      0x00\n        /* \"YunaVault.sol\":2464:2832  for (uint256 i = 0; i < act.length; i++) {... */\n    tag_54:\n        /* \"YunaVault.sol\":2488:2491  act */\n      dup3\n        /* \"YunaVault.sol\":2488:2498  act.length */\n      mload\n        /* \"YunaVault.sol\":2484:2485  i */\n      dup2\n        /* \"YunaVault.sol\":2484:2498  i < act.length */\n      lt\n        /* \"YunaVault.sol\":2464:2832  for (uint256 i = 0; i < act.length; i++) {... */\n      iszero\n      tag_55\n      jumpi\n        /* \"YunaVault.sol\":2520:2537  Position memory p */\n      0x00\n        /* \"YunaVault.sol\":2540:2549  positions */\n      0x04\n        /* \"YunaVault.sol\":2550:2553  act */\n      dup5\n        /* \"YunaVault.sol\":2554:2555  i */\n      dup4\n        /* \"YunaVault.sol\":2550:2556  act[i] */\n      dup2\n      mload\n      dup2\n      lt\n      tag_58\n      jumpi\n      tag_58\n      tag_59\n      jump\t// in\n    tag_58:\n      0x20\n      mul\n      0x20\n      add\n      add\n      mload\n        /* \"YunaVault.sol\":2540:2557  positions[act[i]] */\n      dup2\n      sload\n      dup2\n      lt\n      tag_61\n      jumpi\n      tag_61\n      tag_59\n      jump\t// in\n    tag_61:\n      0x00\n      swap2\n      dup3\n      mstore\n      0x20\n      swap2\n      dup3\n      swap1\n      keccak256\n        /* \"YunaVault.sol\":2520:2557  Position memory p = positions[act[i]] */\n      0x40\n      dup1\n      mload\n      0xc0\n      dup2\n      add\n      dup3\n      mstore\n        /* \"YunaVault.sol\":2540:2557  positions[act[i]] */\n      0x06\n      swap1\n      swap4\n      mul\n      swap1\n      swap2\n      add\n        /* \"YunaVault.sol\":2520:2557  Position memory p = positions[act[i]] */\n      dup1\n      sload\n      sub(shl(0xa0, 0x01), 0x01)\n      swap1\n      dup2\n      and\n      dup5\n      mstore\n      0x01\n      dup3\n      add\n      sload\n      dup2\n      and\n      swap5\n      dup5\n      add\n      dup6\n      swap1\n      mstore\n      0x02\n      dup3\n      add\n      sload\n      swap3\n      dup5\n      add\n      swap3\n      swap1\n      swap3\n      mstore\n      0x03\n      dup2\n      add\n      sload\n      0x60\n      dup5\n      add\n      mstore\n      0x04\n      dup2\n      add\n      sload\n      0x80\n      dup5\n      add\n      mstore\n      0x05\n      add\n      sload\n      0xff\n      and\n      iszero\n      iszero\n      0xa0\n      dup4\n      add\n      mstore\n      swap1\n      swap3\n      pop\n        /* \"YunaVault.sol\":2576:2592  p.token == token */\n      dup8\n      and\n      swap1\n      sub\n        /* \"YunaVault.sol\":2572:2821  if (p.token == token){... */\n      tag_63\n      jumpi\n        /* \"YunaVault.sol\":2612:2632  uint256 effectiveEnd */\n      0x00\n        /* \"YunaVault.sol\":2648:2660  block.number */\n      number\n        /* \"YunaVault.sol\":2635:2636  p */\n      dup3\n        /* \"YunaVault.sol\":2635:2645  p.endBlock */\n      0x80\n      add\n      mload\n        /* \"YunaVault.sol\":2635:2660  p.endBlock > block.number */\n      gt\n        /* \"YunaVault.sol\":2635:2688  p.endBlock > block.number ? block.number : p.endBlock */\n      tag_64\n      jumpi\n        /* \"YunaVault.sol\":2678:2679  p */\n      dup2\n        /* \"YunaVault.sol\":2678:2688  p.endBlock */\n      0x80\n      add\n      mload\n        /* \"YunaVault.sol\":2635:2688  p.endBlock > block.number ? block.number : p.endBlock */\n      jump(tag_65)\n    tag_64:\n        /* \"YunaVault.sol\":2663:2675  block.number */\n      number\n        /* \"YunaVault.sol\":2635:2688  p.endBlock > block.number ? block.number : p.endBlock */\n    tag_65:\n        /* \"YunaVault.sol\":2612:2688  uint256 effectiveEnd = p.endBlock > block.number ? block.number : p.endBlock */\n      swap1\n      pop\n        /* \"YunaVault.sol\":2707:2727  uint256 blocksStaked */\n      0x00\n        /* \"YunaVault.sol\":2745:2746  p */\n      dup3\n        /* \"YunaVault.sol\":2745:2757  p.startBlock */\n      0x60\n      add\n      mload\n        /* \"YunaVault.sol\":2730:2742  effectiveEnd */\n      dup3\n        /* \"YunaVault.sol\":2730:2757  effectiveEnd - p.startBlock */\n      tag_66\n      swap2\n      swap1\n      tag_67\n      jump\t// in\n    tag_66:\n        /* \"YunaVault.sol\":2707:2757  uint256 blocksStaked = effectiveEnd - p.startBlock */\n      swap1\n      pop\n        /* \"YunaVault.sol\":2797:2798  p */\n      dup3\n        /* \"YunaVault.sol\":2797:2805  p.amount */\n      0x40\n      add\n      mload\n        /* \"YunaVault.sol\":2782:2794  blocksStaked */\n      dup2\n        /* \"YunaVault.sol\":2782:2805  blocksStaked * p.amount */\n      tag_68\n      swap2\n      swap1\n      tag_69\n      jump\t// in\n    tag_68:\n        /* \"YunaVault.sol\":2776:2805  xp += blocksStaked * p.amount */\n      tag_70\n      swap1\n      dup9\n      tag_71\n      jump\t// in\n    tag_70:\n      swap7\n      pop\n        /* \"YunaVault.sol\":2593:2821  {... */\n      pop\n      pop\n        /* \"YunaVault.sol\":2572:2821  if (p.token == token){... */\n    tag_63:\n      pop\n        /* \"YunaVault.sol\":2500:2503  i++ */\n      dup1\n      tag_72\n      dup2\n      tag_73\n      jump\t// in\n    tag_72:\n      swap2\n      pop\n      pop\n        /* \"YunaVault.sol\":2464:2832  for (uint256 i = 0; i < act.length; i++) {... */\n      jump(tag_54)\n    tag_55:\n      pop\n        /* \"YunaVault.sol\":2847:2856  uint256 j */\n      0x00\n        /* \"YunaVault.sol\":2842:3212  for (uint256 j = 0; j < hist.length; j++) {... */\n    tag_74:\n        /* \"YunaVault.sol\":2866:2870  hist */\n      dup2\n        /* \"YunaVault.sol\":2866:2877  hist.length */\n      mload\n        /* \"YunaVault.sol\":2862:2863  j */\n      dup2\n        /* \"YunaVault.sol\":2862:2877  j < hist.length */\n      lt\n        /* \"YunaVault.sol\":2842:3212  for (uint256 j = 0; j < hist.length; j++) {... */\n      iszero\n      tag_75\n      jumpi\n        /* \"YunaVault.sol\":2899:2916  Position memory p */\n      0x00\n        /* \"YunaVault.sol\":2919:2928  positions */\n      0x04\n        /* \"YunaVault.sol\":2929:2933  hist */\n      dup4\n        /* \"YunaVault.sol\":2934:2935  j */\n      dup4\n        /* \"YunaVault.sol\":2929:2936  hist[j] */\n      dup2\n      mload\n      dup2\n      lt\n      tag_78\n      jumpi\n      tag_78\n      tag_59\n      jump\t// in\n    tag_78:\n      0x20\n      mul\n      0x20\n      add\n      add\n      mload\n        /* \"YunaVault.sol\":2919:2937  positions[hist[j]] */\n      dup2\n      sload\n      dup2\n      lt\n      tag_80\n      jumpi\n      tag_80\n      tag_59\n      jump\t// in\n    tag_80:\n      0x00\n      swap2\n      dup3\n      mstore\n      0x20\n      swap2\n      dup3\n      swap1\n      keccak256\n        /* \"YunaVault.sol\":2899:2937  Position memory p = positions[hist[j]] */\n      0x40\n      dup1\n      mload\n      0xc0\n      dup2\n      add\n      dup3\n      mstore\n        /* \"YunaVault.sol\":2919:2937  positions[hist[j]] */\n      0x06\n      swap1\n      swap4\n      mul\n      swap1\n      swap2\n      add\n        /* \"YunaVault.sol\":2899:2937  Position memory p = positions[hist[j]] */\n      dup1\n      sload\n      sub(shl(0xa0, 0x01), 0x01)\n      swap1\n      dup2\n      and\n      dup5\n      mstore\n      0x01\n      dup3\n      add\n      sload\n      dup2\n      and\n      swap5\n      dup5\n      add\n      dup6\n      swap1\n      mstore\n      0x02\n      dup3\n      add\n      sload\n      swap3\n      dup5\n      add\n      swap3\n      swap1\n      swap3\n      mstore\n      0x03\n      dup2\n      add\n      sload\n      0x60\n      dup5\n      add\n      mstore\n      0x04\n      dup2\n      add\n      sload\n      0x80\n      dup5\n      add\n      mstore\n      0x05\n      add\n      sload\n      0xff\n      and\n      iszero\n      iszero\n      0xa0\n      dup4\n      add\n      mstore\n      swap1\n      swap3\n      pop\n        /* \"YunaVault.sol\":2956:2972  p.token == token */\n      dup8\n      and\n      swap1\n      sub\n        /* \"YunaVault.sol\":2952:3201  if (p.token == token){... */\n      tag_82\n      jumpi\n        /* \"YunaVault.sol\":2992:3012  uint256 effectiveEnd */\n      0x00\n        /* \"YunaVault.sol\":3028:3040  block.number */\n      number\n        /* \"YunaVault.sol\":3015:3016  p */\n      dup3\n        /* \"YunaVault.sol\":3015:3025  p.endBlock */\n      0x80\n      add\n      mload\n        /* \"YunaVault.sol\":3015:3040  p.endBlock > block.number */\n      gt\n        /* \"YunaVault.sol\":3015:3068  p.endBlock > block.number ? block.number : p.endBlock */\n      tag_83\n      jumpi\n        /* \"YunaVault.sol\":3058:3059  p */\n      dup2\n        /* \"YunaVault.sol\":3058:3068  p.endBlock */\n      0x80\n      add\n      mload\n        /* \"YunaVault.sol\":3015:3068  p.endBlock > block.number ? block.number : p.endBlock */\n      jump(tag_84)\n    tag_83:\n        /* \"YunaVault.sol\":3043:3055  block.number */\n      number\n        /* \"YunaVault.sol\":3015:3068  p.endBlock > block.number ? block.number : p.endBlock */\n    tag_84:\n        /* \"YunaVault.sol\":2992:3068  uint256 effectiveEnd = p.endBlock > block.number ? block.number : p.endBlock */\n      swap1\n      pop\n        /* \"YunaVault.sol\":3087:3107  uint256 blocksStaked */\n      0x00\n        /* \"YunaVault.sol\":3125:3126  p */\n      dup3\n        /* \"YunaVault.sol\":3125:3137  p.startBlock */\n      0x60\n      add\n      mload\n        /* \"YunaVault.sol\":3110:3122  effectiveEnd */\n      dup3\n        /* \"YunaVault.sol\":3110:3137  effectiveEnd - p.startBlock */\n      tag_85\n      swap2\n      swap1\n      tag_67\n      jump\t// in\n    tag_85:\n        /* \"YunaVault.sol\":3087:3137  uint256 blocksStaked = effectiveEnd - p.startBlock */\n      swap1\n      pop\n        /* \"YunaVault.sol\":3177:3178  p */\n      dup3\n        /* \"YunaVault.sol\":3177:3185  p.amount */\n      0x40\n      add\n      mload\n        /* \"YunaVault.sol\":3162:3174  blocksStaked */\n      dup2\n        /* \"YunaVault.sol\":3162:3185  blocksStaked * p.amount */\n      tag_86\n      swap2\n      swap1\n      tag_69\n      jump\t// in\n    tag_86:\n        /* \"YunaVault.sol\":3156:3185  xp += blocksStaked * p.amount */\n      tag_87\n      swap1\n      dup9\n      tag_71\n      jump\t// in\n    tag_87:\n      swap7\n      pop\n        /* \"YunaVault.sol\":2973:3201  {... */\n      pop\n      pop\n        /* \"YunaVault.sol\":2952:3201  if (p.token == token){... */\n    tag_82:\n      pop\n        /* \"YunaVault.sol\":2879:2882  j++ */\n      dup1\n      tag_88\n      dup2\n      tag_73\n      jump\t// in\n    tag_88:\n      swap2\n      pop\n      pop\n        /* \"YunaVault.sol\":2842:3212  for (uint256 j = 0; j < hist.length; j++) {... */\n      jump(tag_74)\n    tag_75:\n      pop\n        /* \"YunaVault.sol\":2335:3219  {... */\n      pop\n      pop\n        /* \"YunaVault.sol\":2254:3219  function getXP(address holder, address token) external view returns (uint256 xp) {... */\n      swap3\n      swap2\n      pop\n      pop\n      jump\t// out\n        /* \"YunaVault.sol\":680:1345  function stake(address token, uint256 amount, uint256 blocksToStake) external nonReentrant {... */\n    tag_21:\n        /* \"@openzeppelin/contracts/security/ReentrancyGuard.sol\":2261:2282  _nonReentrantBefore() */\n      tag_90\n        /* \"@openzeppelin/contracts/security/ReentrancyGuard.sol\":2261:2280  _nonReentrantBefore */\n      tag_91\n        /* \"@openzeppelin/contracts/security/ReentrancyGuard.sol\":2261:2282  _nonReentrantBefore() */\n      jump\t// in\n    tag_90:\n        /* \"YunaVault.sol\":799:800  0 */\n      0x00\n        /* \"YunaVault.sol\":790:796  amount */\n      dup3\n        /* \"YunaVault.sol\":790:800  amount > 0 */\n      gt\n        /* \"YunaVault.sol\":782:815  require(amount > 0, \"Amount > 0\") */\n      tag_93\n      jumpi\n      mload(0x40)\n      shl(0xe5, 0x461bcd)\n      dup2\n      mstore\n        /* \"#utility.yul\":4483:4485   */\n      0x20\n        /* \"YunaVault.sol\":782:815  require(amount > 0, \"Amount > 0\") */\n      0x04\n      dup3\n      add\n        /* \"#utility.yul\":4465:4486   */\n      mstore\n        /* \"#utility.yul\":4522:4524   */\n      0x0a\n        /* \"#utility.yul\":4502:4520   */\n      0x24\n      dup3\n      add\n        /* \"#utility.yul\":4495:4525   */\n      mstore\n      shl(0xb4, 0x0416d6f756e74203e203)\n        /* \"#utility.yul\":4541:4559   */\n      0x44\n      dup3\n      add\n        /* \"#utility.yul\":4534:4574   */\n      mstore\n        /* \"#utility.yul\":4591:4609   */\n      0x64\n      add\n        /* \"YunaVault.sol\":782:815  require(amount > 0, \"Amount > 0\") */\n    tag_94:\n      mload(0x40)\n      dup1\n      swap2\n      sub\n      swap1\n      revert\n    tag_93:\n        /* \"YunaVault.sol\":850:851  0 */\n      0x00\n        /* \"YunaVault.sol\":834:847  blocksToStake */\n      dup2\n        /* \"YunaVault.sol\":834:851  blocksToStake > 0 */\n      gt\n        /* \"YunaVault.sol\":826:866  require(blocksToStake > 0, \"Blocks > 0\") */\n      tag_96\n      jumpi\n      mload(0x40)\n      shl(0xe5, 0x461bcd)\n      dup2\n      mstore\n        /* \"#utility.yul\":4822:4824   */\n      0x20\n        /* \"YunaVault.sol\":826:866  require(blocksToStake > 0, \"Blocks > 0\") */\n      0x04\n      dup3\n      add\n        /* \"#utility.yul\":4804:4825   */\n      mstore\n        /* \"#utility.yul\":4861:4863   */\n      0x0a\n        /* \"#utility.yul\":4841:4859   */\n      0x24\n      dup3\n      add\n        /* \"#utility.yul\":4834:4864   */\n      mstore\n      shl(0xb4, 0x0426c6f636b73203e203)\n        /* \"#utility.yul\":4880:4898   */\n      0x44\n      dup3\n      add\n        /* \"#utility.yul\":4873:4913   */\n      mstore\n        /* \"#utility.yul\":4930:4948   */\n      0x64\n      add\n        /* \"YunaVault.sol\":826:866  require(blocksToStake > 0, \"Blocks > 0\") */\n      tag_94\n        /* \"#utility.yul\":4620:4954   */\n      jump\n        /* \"YunaVault.sol\":826:866  require(blocksToStake > 0, \"Blocks > 0\") */\n    tag_96:\n        /* \"YunaVault.sol\":879:940  IERC20(token).transferFrom(msg.sender, address(this), amount) */\n      mload(0x40)\n      shl(0xe0, 0x23b872dd)\n      dup2\n      mstore\n        /* \"YunaVault.sol\":906:916  msg.sender */\n      caller\n        /* \"YunaVault.sol\":879:940  IERC20(token).transferFrom(msg.sender, address(this), amount) */\n      0x04\n      dup3\n      add\n        /* \"#utility.yul\":5199:5233   */\n      mstore\n        /* \"YunaVault.sol\":926:930  this */\n      address\n        /* \"#utility.yul\":5249:5267   */\n      0x24\n      dup3\n      add\n        /* \"#utility.yul\":5242:5285   */\n      mstore\n        /* \"#utility.yul\":5301:5319   */\n      0x44\n      dup2\n      add\n        /* \"#utility.yul\":5294:5328   */\n      dup4\n      swap1\n      mstore\n      sub(shl(0xa0, 0x01), 0x01)\n        /* \"YunaVault.sol\":879:905  IERC20(token).transferFrom */\n      dup5\n      and\n      swap1\n      0x23b872dd\n      swap1\n        /* \"#utility.yul\":5134:5152   */\n      0x64\n      add\n        /* \"YunaVault.sol\":879:940  IERC20(token).transferFrom(msg.sender, address(this), amount) */\n      0x20\n      mload(0x40)\n      dup1\n      dup4\n      sub\n      dup2\n      0x00\n      dup8\n      gas\n      call\n      iszero\n      dup1\n      iszero\n      tag_102\n      jumpi\n      returndatasize\n      0x00\n      dup1\n      returndatacopy\n      revert(0x00, returndatasize)\n    tag_102:\n      pop\n      pop\n      pop\n      pop\n      mload(0x40)\n      returndatasize\n      not(0x1f)\n      0x1f\n      dup3\n      add\n      and\n      dup3\n      add\n      dup1\n      0x40\n      mstore\n      pop\n      dup2\n      add\n      swap1\n      tag_103\n      swap2\n      swap1\n      tag_104\n      jump\t// in\n    tag_103:\n      pop\n        /* \"YunaVault.sol\":953:969  uint256 endBlock */\n      0x00\n        /* \"YunaVault.sol\":972:1000  block.number + blocksToStake */\n      tag_105\n        /* \"YunaVault.sol\":987:1000  blocksToStake */\n      dup3\n        /* \"YunaVault.sol\":972:984  block.number */\n      number\n        /* \"YunaVault.sol\":972:1000  block.number + blocksToStake */\n      tag_71\n      jump\t// in\n    tag_105:\n        /* \"YunaVault.sol\":1028:1237  Position({... */\n      0x40\n      dup1\n      mload\n      0xc0\n      dup2\n      add\n      dup3\n      mstore\n        /* \"YunaVault.sol\":1058:1068  msg.sender */\n      caller\n        /* \"YunaVault.sol\":1028:1237  Position({... */\n      dup2\n      mstore\n      sub(shl(0xa0, 0x01), 0x01)\n      dup8\n      dup2\n      and\n      0x20\n      dup4\n      add\n      swap1\n      dup2\n      mstore\n      swap3\n      dup3\n      add\n      dup8\n      dup2\n      mstore\n        /* \"YunaVault.sol\":1151:1163  block.number */\n      number\n        /* \"YunaVault.sol\":1028:1237  Position({... */\n      0x60\n      dup5\n      add\n      swap1\n      dup2\n      mstore\n      0x80\n      dup5\n      add\n      dup7\n      dup2\n      mstore\n      0x00\n      0xa0\n      dup7\n      add\n      dup2\n      dup2\n      mstore\n        /* \"YunaVault.sol\":1013:1022  positions */\n      0x04\n        /* \"YunaVault.sol\":1013:1238  positions.push(Position({... */\n      dup1\n      sload\n        /* \"YunaVault.sol\":1028:1237  Position({... */\n      0x01\n        /* \"YunaVault.sol\":1013:1238  positions.push(Position({... */\n      dup2\n      dup2\n      add\n      dup4\n      sstore\n      dup3\n      dup6\n      mstore\n      swap9\n      mload\n      0x06\n      swap1\n      swap2\n      mul\n      0x8a35acfbc15ff81a39ae7d344fd709f28e8600b4aa8c65c6b64bfe7fe36bd19b\n      dup2\n      add\n      dup1\n      sload\n      swap3\n      dup11\n      and\n      not(sub(shl(0xa0, 0x01), 0x01))\n      swap4\n      dup5\n      and\n      or\n      swap1\n      sstore\n      swap10\n      mload\n      0x8a35acfbc15ff81a39ae7d344fd709f28e8600b4aa8c65c6b64bfe7fe36bd19c\n      dup12\n      add\n      dup1\n      sload\n      swap2\n      swap1\n      swap10\n      and\n      swap2\n      and\n      or\n      swap1\n      swap7\n      sstore\n      swap4\n      mload\n      0x8a35acfbc15ff81a39ae7d344fd709f28e8600b4aa8c65c6b64bfe7fe36bd19d\n      dup9\n      add\n      sstore\n      swap2\n      mload\n      0x8a35acfbc15ff81a39ae7d344fd709f28e8600b4aa8c65c6b64bfe7fe36bd19e\n      dup8\n      add\n      sstore\n      mload\n      0x8a35acfbc15ff81a39ae7d344fd709f28e8600b4aa8c65c6b64bfe7fe36bd19f\n      dup7\n      add\n      sstore\n      swap1\n      mload\n      0x8a35acfbc15ff81a39ae7d344fd709f28e8600b4aa8c65c6b64bfe7fe36bd1a0\n      swap1\n      swap5\n      add\n      dup1\n      sload\n      swap5\n      iszero\n      iszero\n      not(0xff)\n      swap1\n      swap6\n      and\n      swap5\n      swap1\n      swap5\n      or\n      swap1\n      swap4\n      sstore\n        /* \"YunaVault.sol\":1267:1283  positions.length */\n      sload\n        /* \"YunaVault.sol\":953:1000  uint256 endBlock = block.number + blocksToStake */\n      swap3\n      swap4\n      pop\n      swap1\n      swap2\n        /* \"YunaVault.sol\":1267:1287  positions.length - 1 */\n      tag_107\n      swap2\n        /* \"YunaVault.sol\":1028:1237  Position({... */\n      swap1\n        /* \"YunaVault.sol\":1267:1287  positions.length - 1 */\n      tag_67\n      jump\t// in\n    tag_107:\n        /* \"YunaVault.sol\":1314:1324  msg.sender */\n      caller\n        /* \"YunaVault.sol\":1298:1325  activePositions[msg.sender] */\n      0x00\n      swap1\n      dup2\n      mstore\n        /* \"YunaVault.sol\":1298:1313  activePositions */\n      0x02\n        /* \"YunaVault.sol\":1298:1325  activePositions[msg.sender] */\n      0x20\n      swap1\n      dup2\n      mstore\n      0x40\n      dup3\n      keccak256\n        /* \"YunaVault.sol\":1298:1337  activePositions[msg.sender].push(posId) */\n      dup1\n      sload\n      0x01\n      dup2\n      add\n      dup3\n      sstore\n      swap1\n      dup4\n      mstore\n      swap2\n      keccak256\n      add\n      sstore\n      pop\n        /* \"@openzeppelin/contracts/security/ReentrancyGuard.sol\":2303:2323  _nonReentrantAfter() */\n      tag_109\n      swap1\n      pop\n        /* \"@openzeppelin/contracts/security/ReentrancyGuard.sol\":1716:1717  1 */\n      0x01\n        /* \"@openzeppelin/contracts/security/ReentrancyGuard.sol\":2809:2816  _status */\n      0x00\n        /* \"@openzeppelin/contracts/security/ReentrancyGuard.sol\":2809:2831  _status = _NOT_ENTERED */\n      sstore\n        /* \"@openzeppelin/contracts/security/ReentrancyGuard.sol\":2629:2838  function _nonReentrantAfter() private {... */\n      jump\n        /* \"@openzeppelin/contracts/security/ReentrancyGuard.sol\":2303:2323  _nonReentrantAfter() */\n    tag_109:\n        /* \"YunaVault.sol\":680:1345  function stake(address token, uint256 amount, uint256 blocksToStake) external nonReentrant {... */\n      pop\n      pop\n      pop\n      jump\t// out\n        /* \"YunaVault.sol\":1353:2246  function releaseAll() public nonReentrant {... */\n    tag_23:\n        /* \"@openzeppelin/contracts/security/ReentrancyGuard.sol\":2261:2282  _nonReentrantBefore() */\n      tag_112\n        /* \"@openzeppelin/contracts/security/ReentrancyGuard.sol\":2261:2280  _nonReentrantBefore */\n      tag_91\n        /* \"@openzeppelin/contracts/security/ReentrancyGuard.sol\":2261:2282  _nonReentrantBefore() */\n      jump\t// in\n    tag_112:\n        /* \"YunaVault.sol\":1446:1456  msg.sender */\n      caller\n        /* \"YunaVault.sol\":1406:1427  uint256[] storage ids */\n      0x00\n        /* \"YunaVault.sol\":1430:1457  activePositions[msg.sender] */\n      swap1\n      dup2\n      mstore\n        /* \"YunaVault.sol\":1430:1445  activePositions */\n      0x02\n        /* \"YunaVault.sol\":1430:1457  activePositions[msg.sender] */\n      0x20\n      mstore\n      0x40\n      dup2\n      keccak256\n      swap1\n        /* \"YunaVault.sol\":1494:2239  while (i < ids.length) {... */\n    tag_114:\n        /* \"YunaVault.sol\":1505:1515  ids.length */\n      dup2\n      sload\n        /* \"YunaVault.sol\":1501:1515  i < ids.length */\n      dup2\n      lt\n        /* \"YunaVault.sol\":1494:2239  while (i < ids.length) {... */\n      iszero\n      tag_115\n      jumpi\n        /* \"YunaVault.sol\":1532:1545  uint256 posId */\n      0x00\n        /* \"YunaVault.sol\":1548:1551  ids */\n      dup3\n        /* \"YunaVault.sol\":1552:1553  i */\n      dup3\n        /* \"YunaVault.sol\":1548:1554  ids[i] */\n      dup2\n      sload\n      dup2\n      lt\n      tag_117\n      jumpi\n      tag_117\n      tag_59\n      jump\t// in\n    tag_117:\n      swap1\n      0x00\n      mstore\n      keccak256(0x00, 0x20)\n      add\n      sload\n        /* \"YunaVault.sol\":1532:1554  uint256 posId = ids[i] */\n      swap1\n      pop\n        /* \"YunaVault.sol\":1569:1587  Position storage p */\n      0x00\n        /* \"YunaVault.sol\":1590:1599  positions */\n      0x04\n        /* \"YunaVault.sol\":1600:1605  posId */\n      dup3\n        /* \"YunaVault.sol\":1590:1606  positions[posId] */\n      dup2\n      sload\n      dup2\n      lt\n      tag_120\n      jumpi\n      tag_120\n      tag_59\n      jump\t// in\n    tag_120:\n      0x00\n      swap2\n      dup3\n      mstore\n      0x20\n      swap1\n      swap2\n      keccak256\n      0x06\n      swap1\n      swap2\n      mul\n      add\n        /* \"YunaVault.sol\":1628:1637  p.claimed */\n      0x05\n      dup2\n      add\n      sload\n        /* \"YunaVault.sol\":1590:1606  positions[posId] */\n      swap1\n      swap2\n      pop\n        /* \"YunaVault.sol\":1628:1637  p.claimed */\n      0xff\n      and\n        /* \"YunaVault.sol\":1627:1637  !p.claimed */\n      iszero\n        /* \"YunaVault.sol\":1627:1667  !p.claimed && block.number >= p.endBlock */\n      dup1\n      iszero\n      tag_122\n      jumpi\n      pop\n        /* \"YunaVault.sol\":1657:1658  p */\n      dup1\n        /* \"YunaVault.sol\":1657:1667  p.endBlock */\n      0x04\n      add\n      sload\n        /* \"YunaVault.sol\":1641:1653  block.number */\n      number\n        /* \"YunaVault.sol\":1641:1667  block.number >= p.endBlock */\n      lt\n      iszero\n        /* \"YunaVault.sol\":1627:1667  !p.claimed && block.number >= p.endBlock */\n    tag_122:\n        /* \"YunaVault.sol\":1623:2228  if (!p.claimed && block.number >= p.endBlock) {... */\n      iszero\n      tag_123\n      jumpi\n        /* \"YunaVault.sol\":1688:1697  p.claimed */\n      0x05\n      dup2\n      add\n        /* \"YunaVault.sol\":1688:1704  p.claimed = true */\n      dup1\n      sload\n      not(0xff)\n      and\n        /* \"YunaVault.sol\":1700:1704  true */\n      0x01\n        /* \"YunaVault.sol\":1688:1704  p.claimed = true */\n      or\n      swap1\n      sstore\n        /* \"YunaVault.sol\":1743:1751  p.amount */\n      0x02\n      dup2\n      add\n      sload\n        /* \"YunaVault.sol\":1688:1697  p.claimed */\n      0x00\n      swap1\n        /* \"YunaVault.sol\":1761:1765  1000 */\n      0x03e8\n      swap1\n        /* \"YunaVault.sol\":1743:1757  p.amount * 995 */\n      tag_124\n      swap1\n        /* \"YunaVault.sol\":1754:1757  995 */\n      0x03e3\n        /* \"YunaVault.sol\":1743:1757  p.amount * 995 */\n      tag_69\n      jump\t// in\n    tag_124:\n        /* \"YunaVault.sol\":1742:1765  (p.amount * 995) / 1000 */\n      tag_125\n      swap2\n      swap1\n      tag_126\n      jump\t// in\n    tag_125:\n        /* \"YunaVault.sol\":1725:1765  uint256 refund = (p.amount * 995) / 1000 */\n      swap1\n      pop\n        /* \"YunaVault.sol\":1784:1795  uint256 fee */\n      0x00\n        /* \"YunaVault.sol\":1809:1815  refund */\n      dup2\n        /* \"YunaVault.sol\":1798:1799  p */\n      dup4\n        /* \"YunaVault.sol\":1798:1806  p.amount */\n      0x02\n      add\n      sload\n        /* \"YunaVault.sol\":1798:1815  p.amount - refund */\n      tag_127\n      swap2\n      swap1\n      tag_67\n      jump\t// in\n    tag_127:\n        /* \"YunaVault.sol\":1843:1850  p.token */\n      0x01\n      dup5\n      add\n      sload\n        /* \"YunaVault.sol\":1861:1867  p.user */\n      dup5\n      sload\n        /* \"YunaVault.sol\":1836:1876  IERC20(p.token).transfer(p.user, refund) */\n      mload(0x40)\n      shl(0xe0, 0xa9059cbb)\n      dup2\n      mstore\n      sub(shl(0xa0, 0x01), 0x01)\n        /* \"YunaVault.sol\":1861:1867  p.user */\n      swap2\n      dup3\n      and\n        /* \"YunaVault.sol\":1836:1876  IERC20(p.token).transfer(p.user, refund) */\n      0x04\n      dup3\n      add\n        /* \"#utility.yul\":5985:6036   */\n      mstore\n        /* \"#utility.yul\":6052:6070   */\n      0x24\n      dup2\n      add\n        /* \"#utility.yul\":6045:6079   */\n      dup7\n      swap1\n      mstore\n        /* \"YunaVault.sol\":1784:1815  uint256 fee = p.amount - refund */\n      swap3\n      swap4\n      pop\n        /* \"YunaVault.sol\":1843:1850  p.token */\n      and\n      swap1\n        /* \"YunaVault.sol\":1836:1860  IERC20(p.token).transfer */\n      0xa9059cbb\n      swap1\n        /* \"#utility.yul\":5958:5976   */\n      0x44\n      add\n        /* \"YunaVault.sol\":1836:1876  IERC20(p.token).transfer(p.user, refund) */\n      0x20\n      mload(0x40)\n      dup1\n      dup4\n      sub\n      dup2\n      0x00\n      dup8\n      gas\n      call\n      iszero\n      dup1\n      iszero\n      tag_131\n      jumpi\n      returndatasize\n      0x00\n      dup1\n      returndatacopy\n      revert(0x00, returndatasize)\n    tag_131:\n      pop\n      pop\n      pop\n      pop\n      mload(0x40)\n      returndatasize\n      not(0x1f)\n      0x1f\n      dup3\n      add\n      and\n      dup3\n      add\n      dup1\n      0x40\n      mstore\n      pop\n      dup2\n      add\n      swap1\n      tag_132\n      swap2\n      swap1\n      tag_104\n      jump\t// in\n    tag_132:\n      pop\n        /* \"YunaVault.sol\":1902:1909  p.token */\n      0x01\n      dup4\n      dup2\n      add\n      sload\n        /* \"YunaVault.sol\":1920:1928  protocol */\n      swap1\n      sload\n        /* \"YunaVault.sol\":1895:1934  IERC20(p.token).transfer(protocol, fee) */\n      mload(0x40)\n      shl(0xe0, 0xa9059cbb)\n      dup2\n      mstore\n      sub(shl(0xa0, 0x01), 0x01)\n        /* \"YunaVault.sol\":1920:1928  protocol */\n      swap2\n      dup3\n      and\n        /* \"YunaVault.sol\":1895:1934  IERC20(p.token).transfer(protocol, fee) */\n      0x04\n      dup3\n      add\n        /* \"#utility.yul\":5985:6036   */\n      mstore\n        /* \"#utility.yul\":6052:6070   */\n      0x24\n      dup2\n      add\n        /* \"#utility.yul\":6045:6079   */\n      dup5\n      swap1\n      mstore\n        /* \"YunaVault.sol\":1902:1909  p.token */\n      swap2\n      and\n      swap1\n        /* \"YunaVault.sol\":1895:1919  IERC20(p.token).transfer */\n      0xa9059cbb\n      swap1\n        /* \"#utility.yul\":5958:5976   */\n      0x44\n      add\n        /* \"YunaVault.sol\":1895:1934  IERC20(p.token).transfer(protocol, fee) */\n      0x20\n      mload(0x40)\n      dup1\n      dup4\n      sub\n      dup2\n      0x00\n      dup8\n      gas\n      call\n      iszero\n      dup1\n      iszero\n      tag_135\n      jumpi\n      returndatasize\n      0x00\n      dup1\n      returndatacopy\n      revert(0x00, returndatasize)\n    tag_135:\n      pop\n      pop\n      pop\n      pop\n      mload(0x40)\n      returndatasize\n      not(0x1f)\n      0x1f\n      dup3\n      add\n      and\n      dup3\n      add\n      dup1\n      0x40\n      mstore\n      pop\n      dup2\n      add\n      swap1\n      tag_136\n      swap2\n      swap1\n      tag_104\n      jump\t// in\n    tag_136:\n      pop\n        /* \"YunaVault.sol\":2008:2018  msg.sender */\n      caller\n        /* \"YunaVault.sol\":1991:2019  historyPositions[msg.sender] */\n      0x00\n      swap1\n      dup2\n      mstore\n        /* \"YunaVault.sol\":1991:2007  historyPositions */\n      0x03\n        /* \"YunaVault.sol\":1991:2019  historyPositions[msg.sender] */\n      0x20\n      swap1\n      dup2\n      mstore\n      0x40\n      dup3\n      keccak256\n        /* \"YunaVault.sol\":1991:2031  historyPositions[msg.sender].push(posId) */\n      dup1\n      sload\n      0x01\n      dup2\n      dup2\n      add\n      dup4\n      sstore\n      swap2\n      dup5\n      mstore\n      swap2\n      swap1\n      swap3\n      keccak256\n      add\n      dup6\n      swap1\n      sstore\n        /* \"YunaVault.sol\":2123:2133  ids.length */\n      dup7\n      sload\n        /* \"YunaVault.sol\":2119:2122  ids */\n      dup8\n      swap2\n        /* \"YunaVault.sol\":2123:2137  ids.length - 1 */\n      tag_138\n      swap2\n      tag_67\n      jump\t// in\n    tag_138:\n        /* \"YunaVault.sol\":2119:2138  ids[ids.length - 1] */\n      dup2\n      sload\n      dup2\n      lt\n      tag_140\n      jumpi\n      tag_140\n      tag_59\n      jump\t// in\n    tag_140:\n      swap1\n      0x00\n      mstore\n      keccak256(0x00, 0x20)\n      add\n      sload\n        /* \"YunaVault.sol\":2110:2113  ids */\n      dup7\n        /* \"YunaVault.sol\":2114:2115  i */\n      dup7\n        /* \"YunaVault.sol\":2110:2116  ids[i] */\n      dup2\n      sload\n      dup2\n      lt\n      tag_143\n      jumpi\n      tag_143\n      tag_59\n      jump\t// in\n    tag_143:\n      swap1\n      0x00\n      mstore\n      keccak256(0x00, 0x20)\n      add\n        /* \"YunaVault.sol\":2110:2138  ids[i] = ids[ids.length - 1] */\n      dup2\n      swap1\n      sstore\n      pop\n        /* \"YunaVault.sol\":2157:2160  ids */\n      dup6\n        /* \"YunaVault.sol\":2157:2166  ids.pop() */\n      dup1\n      sload\n      dup1\n      tag_146\n      jumpi\n      tag_146\n      tag_147\n      jump\t// in\n    tag_146:\n      0x01\n      swap1\n      sub\n      dup2\n      dup2\n      swap1\n      0x00\n      mstore\n      keccak256(0x00, 0x20)\n      add\n      0x00\n      swap1\n      sstore\n      swap1\n      sstore\n        /* \"YunaVault.sol\":1669:2184  {... */\n      pop\n      pop\n        /* \"YunaVault.sol\":1623:2228  if (!p.claimed && block.number >= p.endBlock) {... */\n      jump(tag_149)\n    tag_123:\n        /* \"YunaVault.sol\":2209:2212  i++ */\n      dup3\n      tag_150\n      dup2\n      tag_73\n      jump\t// in\n    tag_150:\n      swap4\n      pop\n      pop\n        /* \"YunaVault.sol\":1623:2228  if (!p.claimed && block.number >= p.endBlock) {... */\n    tag_149:\n        /* \"YunaVault.sol\":1517:2239  {... */\n      pop\n      pop\n        /* \"YunaVault.sol\":1494:2239  while (i < ids.length) {... */\n      jump(tag_114)\n    tag_115:\n        /* \"YunaVault.sol\":1395:2246  {... */\n      pop\n      pop\n        /* \"@openzeppelin/contracts/security/ReentrancyGuard.sol\":2303:2323  _nonReentrantAfter() */\n      tag_151\n        /* \"@openzeppelin/contracts/security/ReentrancyGuard.sol\":1716:1717  1 */\n      0x01\n        /* \"@openzeppelin/contracts/security/ReentrancyGuard.sol\":2809:2816  _status */\n      0x00\n        /* \"@openzeppelin/contracts/security/ReentrancyGuard.sol\":2809:2831  _status = _NOT_ENTERED */\n      sstore\n        /* \"@openzeppelin/contracts/security/ReentrancyGuard.sol\":2629:2838  function _nonReentrantAfter() private {... */\n      jump\n        /* \"@openzeppelin/contracts/security/ReentrancyGuard.sol\":2303:2323  _nonReentrantAfter() */\n    tag_151:\n        /* \"YunaVault.sol\":1353:2246  function releaseAll() public nonReentrant {... */\n      jump\t// out\n        /* \"YunaVault.sol\":445:497  mapping(address => uint256[]) public activePositions */\n    tag_27:\n      mstore(0x20, 0x02)\n      dup2\n      0x00\n      mstore\n      keccak256(0x00, 0x40)\n      dup2\n      dup2\n      sload\n      dup2\n      lt\n      tag_152\n      jumpi\n      0x00\n      dup1\n      revert\n    tag_152:\n      swap1\n      0x00\n      mstore\n      keccak256(0x00, 0x20)\n      add\n      0x00\n      swap2\n      pop\n      swap2\n      pop\n      pop\n      sload\n      dup2\n      jump\t// out\n        /* \"YunaVault.sol\":3227:3809  function getPositionsPaginated(address user, uint256 offset, uint256 limit, bool active)... */\n    tag_32:\n        /* \"YunaVault.sol\":3348:3369  uint256[] memory page */\n      0x60\n        /* \"YunaVault.sol\":3387:3411  uint256[] storage source */\n      0x00\n        /* \"YunaVault.sol\":3414:3420  active */\n      dup3\n        /* \"YunaVault.sol\":3414:3469  active ? activePositions[user] : historyPositions[user] */\n      tag_155\n      jumpi\n      sub(shl(0xa0, 0x01), 0x01)\n        /* \"YunaVault.sol\":3447:3469  historyPositions[user] */\n      dup7\n      and\n      0x00\n      swap1\n      dup2\n      mstore\n        /* \"YunaVault.sol\":3447:3463  historyPositions */\n      0x03\n        /* \"YunaVault.sol\":3447:3469  historyPositions[user] */\n      0x20\n      mstore\n      0x40\n      swap1\n      keccak256\n        /* \"YunaVault.sol\":3414:3469  active ? activePositions[user] : historyPositions[user] */\n      jump(tag_156)\n    tag_155:\n      sub(shl(0xa0, 0x01), 0x01)\n        /* \"YunaVault.sol\":3423:3444  activePositions[user] */\n      dup7\n      and\n      0x00\n      swap1\n      dup2\n      mstore\n        /* \"YunaVault.sol\":3423:3438  activePositions */\n      0x02\n        /* \"YunaVault.sol\":3423:3444  activePositions[user] */\n      0x20\n      mstore\n      0x40\n      swap1\n      keccak256\n        /* \"YunaVault.sol\":3414:3469  active ? activePositions[user] : historyPositions[user] */\n    tag_156:\n        /* \"YunaVault.sol\":3497:3510  source.length */\n      dup1\n      sload\n        /* \"YunaVault.sol\":3387:3469  uint256[] storage source = active ? activePositions[user] : historyPositions[user] */\n      swap1\n      swap2\n      pop\n        /* \"YunaVault.sol\":3527:3543  offset >= length */\n      dup1\n      dup7\n      lt\n        /* \"YunaVault.sol\":3523:3568  if (offset >= length) return new uint256[](0) */\n      tag_157\n      jumpi\n      pop\n      pop\n        /* \"YunaVault.sol\":3552:3568  new uint256[](0) */\n      0x40\n      dup1\n      mload\n        /* \"YunaVault.sol\":3566:3567  0 */\n      0x00\n        /* \"YunaVault.sol\":3552:3568  new uint256[](0) */\n      dup2\n      mstore\n      0x20\n      dup2\n      add\n      swap1\n      swap2\n      mstore\n      swap1\n      pop\n        /* \"YunaVault.sol\":3545:3568  return new uint256[](0) */\n      jump(tag_154)\n        /* \"YunaVault.sol\":3523:3568  if (offset >= length) return new uint256[](0) */\n    tag_157:\n        /* \"YunaVault.sol\":3581:3592  uint256 end */\n      0x00\n        /* \"YunaVault.sol\":3595:3609  offset + limit */\n      tag_162\n        /* \"YunaVault.sol\":3604:3609  limit */\n      dup7\n        /* \"YunaVault.sol\":3595:3601  offset */\n      dup9\n        /* \"YunaVault.sol\":3595:3609  offset + limit */\n      tag_71\n      jump\t// in\n    tag_162:\n        /* \"YunaVault.sol\":3581:3609  uint256 end = offset + limit */\n      swap1\n      pop\n        /* \"YunaVault.sol\":3630:3636  length */\n      dup2\n        /* \"YunaVault.sol\":3624:3627  end */\n      dup2\n        /* \"YunaVault.sol\":3624:3636  end > length */\n      gt\n        /* \"YunaVault.sol\":3620:3650  if (end > length) end = length */\n      iszero\n      tag_163\n      jumpi\n      pop\n        /* \"YunaVault.sol\":3644:3650  length */\n      dup1\n        /* \"YunaVault.sol\":3620:3650  if (end > length) end = length */\n    tag_163:\n        /* \"YunaVault.sol\":3684:3696  end - offset */\n      tag_164\n        /* \"YunaVault.sol\":3690:3696  offset */\n      dup8\n        /* \"YunaVault.sol\":3684:3687  end */\n      dup3\n        /* \"YunaVault.sol\":3684:3696  end - offset */\n      tag_67\n      jump\t// in\n    tag_164:\n        /* \"YunaVault.sol\":3670:3697  new uint256[](end - offset) */\n      0xffffffffffffffff\n      dup2\n      gt\n      iszero\n      tag_166\n      jumpi\n      tag_166\n      tag_160\n      jump\t// in\n    tag_166:\n      mload(0x40)\n      swap1\n      dup1\n      dup3\n      mstore\n      dup1\n      0x20\n      mul\n      0x20\n      add\n      dup3\n      add\n      0x40\n      mstore\n      dup1\n      iszero\n      tag_167\n      jumpi\n      dup2\n      0x20\n      add\n      0x20\n      dup3\n      mul\n      dup1\n      calldatasize\n      dup4\n      calldatacopy\n      add\n      swap1\n      pop\n    tag_167:\n      pop\n        /* \"YunaVault.sol\":3663:3697  page = new uint256[](end - offset) */\n      swap4\n      pop\n        /* \"YunaVault.sol\":3725:3731  offset */\n      dup7\n        /* \"YunaVault.sol\":3708:3802  for (uint256 i = offset; i < end; i++) {... */\n    tag_168:\n        /* \"YunaVault.sol\":3737:3740  end */\n      dup2\n        /* \"YunaVault.sol\":3733:3734  i */\n      dup2\n        /* \"YunaVault.sol\":3733:3740  i < end */\n      lt\n        /* \"YunaVault.sol\":3708:3802  for (uint256 i = offset; i < end; i++) {... */\n      iszero\n      tag_169\n      jumpi\n        /* \"YunaVault.sol\":3781:3787  source */\n      dup4\n        /* \"YunaVault.sol\":3788:3789  i */\n      dup2\n        /* \"YunaVault.sol\":3781:3790  source[i] */\n      dup2\n      sload\n      dup2\n      lt\n      tag_172\n      jumpi\n      tag_172\n      tag_59\n      jump\t// in\n    tag_172:\n      swap1\n      0x00\n      mstore\n      keccak256(0x00, 0x20)\n      add\n      sload\n        /* \"YunaVault.sol\":3762:3766  page */\n      dup6\n        /* \"YunaVault.sol\":3771:3777  offset */\n      dup10\n        /* \"YunaVault.sol\":3767:3768  i */\n      dup4\n        /* \"YunaVault.sol\":3767:3777  i - offset */\n      tag_174\n      swap2\n      swap1\n      tag_67\n      jump\t// in\n    tag_174:\n        /* \"YunaVault.sol\":3762:3778  page[i - offset] */\n      dup2\n      mload\n      dup2\n      lt\n      tag_176\n      jumpi\n      tag_176\n      tag_59\n      jump\t// in\n    tag_176:\n      0x20\n      swap1\n      dup2\n      mul\n      swap2\n      swap1\n      swap2\n      add\n      add\n        /* \"YunaVault.sol\":3762:3790  page[i - offset] = source[i] */\n      mstore\n        /* \"YunaVault.sol\":3742:3745  i++ */\n      dup1\n      tag_177\n      dup2\n      tag_73\n      jump\t// in\n    tag_177:\n      swap2\n      pop\n      pop\n        /* \"YunaVault.sol\":3708:3802  for (uint256 i = offset; i < end; i++) {... */\n      jump(tag_168)\n    tag_169:\n      pop\n        /* \"YunaVault.sol\":3376:3809  {... */\n      pop\n      pop\n      pop\n        /* \"YunaVault.sol\":3227:3809  function getPositionsPaginated(address user, uint256 offset, uint256 limit, bool active)... */\n    tag_154:\n      swap5\n      swap4\n      pop\n      pop\n      pop\n      pop\n      jump\t// out\n        /* \"YunaVault.sol\":566:593  Position[] public positions */\n    tag_42:\n      0x04\n      dup2\n      dup2\n      sload\n      dup2\n      lt\n      tag_178\n      jumpi\n      0x00\n      dup1\n      revert\n    tag_178:\n      0x00\n      swap2\n      dup3\n      mstore\n      0x20\n      swap1\n      swap2\n      keccak256\n      0x06\n      swap1\n      swap2\n      mul\n      add\n      dup1\n      sload\n      0x01\n      dup3\n      add\n      sload\n      0x02\n      dup4\n      add\n      sload\n      0x03\n      dup5\n      add\n      sload\n      0x04\n      dup6\n      add\n      sload\n      0x05\n      swap1\n      swap6\n      add\n      sload\n      sub(shl(0xa0, 0x01), 0x01)\n      swap5\n      dup6\n      and\n      swap7\n      pop\n      swap4\n      swap1\n      swap3\n      and\n      swap4\n      swap1\n      swap3\n      0xff\n      and\n      dup7\n      jump\t// out\n        /* \"YunaVault.sol\":504:557  mapping(address => uint256[]) public historyPositions */\n    tag_47:\n      mstore(0x20, 0x03)\n      dup2\n      0x00\n      mstore\n      keccak256(0x00, 0x40)\n      dup2\n      dup2\n      sload\n      dup2\n      lt\n      tag_152\n      jumpi\n      0x00\n      dup1\n      revert\n        /* \"@openzeppelin/contracts/security/ReentrancyGuard.sol\":2336:2623  function _nonReentrantBefore() private {... */\n    tag_91:\n        /* \"@openzeppelin/contracts/security/ReentrancyGuard.sol\":1759:1760  2 */\n      0x02\n        /* \"@openzeppelin/contracts/security/ReentrancyGuard.sol\":2468:2475  _status */\n      sload(0x00)\n        /* \"@openzeppelin/contracts/security/ReentrancyGuard.sol\":2468:2487  _status != _ENTERED */\n      sub\n        /* \"@openzeppelin/contracts/security/ReentrancyGuard.sol\":2460:2523  require(_status != _ENTERED, \"ReentrancyGuard: reentrant call\") */\n      tag_183\n      jumpi\n      mload(0x40)\n      shl(0xe5, 0x461bcd)\n      dup2\n      mstore\n        /* \"#utility.yul\":6556:6558   */\n      0x20\n        /* \"@openzeppelin/contracts/security/ReentrancyGuard.sol\":2460:2523  require(_status != _ENTERED, \"ReentrancyGuard: reentrant call\") */\n      0x04\n      dup3\n      add\n        /* \"#utility.yul\":6538:6559   */\n      mstore\n        /* \"#utility.yul\":6595:6597   */\n      0x1f\n        /* \"#utility.yul\":6575:6593   */\n      0x24\n      dup3\n      add\n        /* \"#utility.yul\":6568:6598   */\n      mstore\n        /* \"#utility.yul\":6634:6667   */\n      0x5265656e7472616e637947756172643a207265656e7472616e742063616c6c00\n        /* \"#utility.yul\":6614:6632   */\n      0x44\n      dup3\n      add\n        /* \"#utility.yul\":6607:6668   */\n      mstore\n        /* \"#utility.yul\":6685:6703   */\n      0x64\n      add\n        /* \"@openzeppelin/contracts/security/ReentrancyGuard.sol\":2460:2523  require(_status != _ENTERED, \"ReentrancyGuard: reentrant call\") */\n      tag_94\n        /* \"#utility.yul\":6354:6709   */\n      jump\n        /* \"@openzeppelin/contracts/security/ReentrancyGuard.sol\":2460:2523  require(_status != _ENTERED, \"ReentrancyGuard: reentrant call\") */\n    tag_183:\n        /* \"@openzeppelin/contracts/security/ReentrancyGuard.sol\":1759:1760  2 */\n      0x02\n        /* \"@openzeppelin/contracts/security/ReentrancyGuard.sol\":2598:2605  _status */\n      0x00\n        /* \"@openzeppelin/contracts/security/ReentrancyGuard.sol\":2598:2616  _status = _ENTERED */\n      sstore\n        /* \"@openzeppelin/contracts/security/ReentrancyGuard.sol\":2336:2623  function _nonReentrantBefore() private {... */\n      jump\t// out\n        /* \"#utility.yul\":14:187   */\n    tag_187:\n        /* \"#utility.yul\":82:102   */\n      dup1\n      calldataload\n      sub(shl(0xa0, 0x01), 0x01)\n        /* \"#utility.yul\":131:162   */\n      dup2\n      and\n        /* \"#utility.yul\":121:163   */\n      dup2\n      eq\n        /* \"#utility.yul\":111:181   */\n      tag_192\n      jumpi\n        /* \"#utility.yul\":177:178   */\n      0x00\n        /* \"#utility.yul\":174:175   */\n      dup1\n        /* \"#utility.yul\":167:179   */\n      revert\n        /* \"#utility.yul\":111:181   */\n    tag_192:\n        /* \"#utility.yul\":14:187   */\n      swap2\n      swap1\n      pop\n      jump\t// out\n        /* \"#utility.yul\":192:452   */\n    tag_14:\n        /* \"#utility.yul\":260:266   */\n      0x00\n        /* \"#utility.yul\":268:274   */\n      dup1\n        /* \"#utility.yul\":321:323   */\n      0x40\n        /* \"#utility.yul\":309:318   */\n      dup4\n        /* \"#utility.yul\":300:307   */\n      dup6\n        /* \"#utility.yul\":296:319   */\n      sub\n        /* \"#utility.yul\":292:324   */\n      slt\n        /* \"#utility.yul\":289:341   */\n      iszero\n      tag_194\n      jumpi\n        /* \"#utility.yul\":337:338   */\n      0x00\n        /* \"#utility.yul\":334:335   */\n      dup1\n        /* \"#utility.yul\":327:339   */\n      revert\n        /* \"#utility.yul\":289:341   */\n    tag_194:\n        /* \"#utility.yul\":360:389   */\n      tag_195\n        /* \"#utility.yul\":379:388   */\n      dup4\n        /* \"#utility.yul\":360:389   */\n      tag_187\n      jump\t// in\n    tag_195:\n        /* \"#utility.yul\":350:389   */\n      swap2\n      pop\n        /* \"#utility.yul\":408:446   */\n      tag_196\n        /* \"#utility.yul\":442:444   */\n      0x20\n        /* \"#utility.yul\":431:440   */\n      dup5\n        /* \"#utility.yul\":427:445   */\n      add\n        /* \"#utility.yul\":408:446   */\n      tag_187\n      jump\t// in\n    tag_196:\n        /* \"#utility.yul\":398:446   */\n      swap1\n      pop\n        /* \"#utility.yul\":192:452   */\n      swap3\n      pop\n      swap3\n      swap1\n      pop\n      jump\t// out\n        /* \"#utility.yul\":639:961   */\n    tag_20:\n        /* \"#utility.yul\":716:722   */\n      0x00\n        /* \"#utility.yul\":724:730   */\n      dup1\n        /* \"#utility.yul\":732:738   */\n      0x00\n        /* \"#utility.yul\":785:787   */\n      0x60\n        /* \"#utility.yul\":773:782   */\n      dup5\n        /* \"#utility.yul\":764:771   */\n      dup7\n        /* \"#utility.yul\":760:783   */\n      sub\n        /* \"#utility.yul\":756:788   */\n      slt\n        /* \"#utility.yul\":753:805   */\n      iszero\n      tag_199\n      jumpi\n        /* \"#utility.yul\":801:802   */\n      0x00\n        /* \"#utility.yul\":798:799   */\n      dup1\n        /* \"#utility.yul\":791:803   */\n      revert\n        /* \"#utility.yul\":753:805   */\n    tag_199:\n        /* \"#utility.yul\":824:853   */\n      tag_200\n        /* \"#utility.yul\":843:852   */\n      dup5\n        /* \"#utility.yul\":824:853   */\n      tag_187\n      jump\t// in\n    tag_200:\n        /* \"#utility.yul\":814:853   */\n      swap6\n        /* \"#utility.yul\":900:902   */\n      0x20\n        /* \"#utility.yul\":885:903   */\n      dup6\n      add\n        /* \"#utility.yul\":872:904   */\n      calldataload\n      swap6\n      pop\n        /* \"#utility.yul\":951:953   */\n      0x40\n        /* \"#utility.yul\":936:954   */\n      swap1\n      swap5\n      add\n        /* \"#utility.yul\":923:955   */\n      calldataload\n      swap4\n        /* \"#utility.yul\":639:961   */\n      swap3\n      pop\n      pop\n      pop\n      jump\t// out\n        /* \"#utility.yul\":966:1220   */\n    tag_26:\n        /* \"#utility.yul\":1034:1040   */\n      0x00\n        /* \"#utility.yul\":1042:1048   */\n      dup1\n        /* \"#utility.yul\":1095:1097   */\n      0x40\n        /* \"#utility.yul\":1083:1092   */\n      dup4\n        /* \"#utility.yul\":1074:1081   */\n      dup6\n        /* \"#utility.yul\":1070:1093   */\n      sub\n        /* \"#utility.yul\":1066:1098   */\n      slt\n        /* \"#utility.yul\":1063:1115   */\n      iszero\n      tag_202\n      jumpi\n        /* \"#utility.yul\":1111:1112   */\n      0x00\n        /* \"#utility.yul\":1108:1109   */\n      dup1\n        /* \"#utility.yul\":1101:1113   */\n      revert\n        /* \"#utility.yul\":1063:1115   */\n    tag_202:\n        /* \"#utility.yul\":1134:1163   */\n      tag_203\n        /* \"#utility.yul\":1153:1162   */\n      dup4\n        /* \"#utility.yul\":1134:1163   */\n      tag_187\n      jump\t// in\n    tag_203:\n        /* \"#utility.yul\":1124:1163   */\n      swap5\n        /* \"#utility.yul\":1210:1212   */\n      0x20\n        /* \"#utility.yul\":1195:1213   */\n      swap4\n      swap1\n      swap4\n      add\n        /* \"#utility.yul\":1182:1214   */\n      calldataload\n      swap4\n      pop\n      pop\n      pop\n        /* \"#utility.yul\":966:1220   */\n      jump\t// out\n        /* \"#utility.yul\":1225:1343   */\n    tag_188:\n        /* \"#utility.yul\":1311:1316   */\n      dup1\n        /* \"#utility.yul\":1304:1317   */\n      iszero\n        /* \"#utility.yul\":1297:1318   */\n      iszero\n        /* \"#utility.yul\":1290:1295   */\n      dup2\n        /* \"#utility.yul\":1287:1319   */\n      eq\n        /* \"#utility.yul\":1277:1337   */\n      tag_205\n      jumpi\n        /* \"#utility.yul\":1333:1334   */\n      0x00\n        /* \"#utility.yul\":1330:1331   */\n      dup1\n        /* \"#utility.yul\":1323:1335   */\n      revert\n        /* \"#utility.yul\":1277:1337   */\n    tag_205:\n        /* \"#utility.yul\":1225:1343   */\n      pop\n      jump\t// out\n        /* \"#utility.yul\":1348:1800   */\n    tag_31:\n        /* \"#utility.yul\":1431:1437   */\n      0x00\n        /* \"#utility.yul\":1439:1445   */\n      dup1\n        /* \"#utility.yul\":1447:1453   */\n      0x00\n        /* \"#utility.yul\":1455:1461   */\n      dup1\n        /* \"#utility.yul\":1508:1511   */\n      0x80\n        /* \"#utility.yul\":1496:1505   */\n      dup6\n        /* \"#utility.yul\":1487:1494   */\n      dup8\n        /* \"#utility.yul\":1483:1506   */\n      sub\n        /* \"#utility.yul\":1479:1512   */\n      slt\n        /* \"#utility.yul\":1476:1529   */\n      iszero\n      tag_207\n      jumpi\n        /* \"#utility.yul\":1525:1526   */\n      0x00\n        /* \"#utility.yul\":1522:1523   */\n      dup1\n        /* \"#utility.yul\":1515:1527   */\n      revert\n        /* \"#utility.yul\":1476:1529   */\n    tag_207:\n        /* \"#utility.yul\":1548:1577   */\n      tag_208\n        /* \"#utility.yul\":1567:1576   */\n      dup6\n        /* \"#utility.yul\":1548:1577   */\n      tag_187\n      jump\t// in\n    tag_208:\n        /* \"#utility.yul\":1538:1577   */\n      swap4\n      pop\n        /* \"#utility.yul\":1624:1626   */\n      0x20\n        /* \"#utility.yul\":1613:1622   */\n      dup6\n        /* \"#utility.yul\":1609:1627   */\n      add\n        /* \"#utility.yul\":1596:1628   */\n      calldataload\n        /* \"#utility.yul\":1586:1628   */\n      swap3\n      pop\n        /* \"#utility.yul\":1675:1677   */\n      0x40\n        /* \"#utility.yul\":1664:1673   */\n      dup6\n        /* \"#utility.yul\":1660:1678   */\n      add\n        /* \"#utility.yul\":1647:1679   */\n      calldataload\n        /* \"#utility.yul\":1637:1679   */\n      swap2\n      pop\n        /* \"#utility.yul\":1729:1731   */\n      0x60\n        /* \"#utility.yul\":1718:1727   */\n      dup6\n        /* \"#utility.yul\":1714:1732   */\n      add\n        /* \"#utility.yul\":1701:1733   */\n      calldataload\n        /* \"#utility.yul\":1742:1770   */\n      tag_209\n        /* \"#utility.yul\":1764:1769   */\n      dup2\n        /* \"#utility.yul\":1742:1770   */\n      tag_188\n      jump\t// in\n    tag_209:\n        /* \"#utility.yul\":1348:1800   */\n      swap4\n      swap7\n      swap3\n      swap6\n      pop\n      swap1\n      swap4\n      pop\n      pop\n      jump\t// out\n        /* \"#utility.yul\":1805:2437   */\n    tag_34:\n        /* \"#utility.yul\":1976:1978   */\n      0x20\n        /* \"#utility.yul\":2028:2049   */\n      dup1\n      dup3\n      mstore\n        /* \"#utility.yul\":2098:2111   */\n      dup3\n      mload\n        /* \"#utility.yul\":2001:2019   */\n      dup3\n      dup3\n      add\n        /* \"#utility.yul\":2120:2142   */\n      dup2\n      swap1\n      mstore\n        /* \"#utility.yul\":1947:1951   */\n      0x00\n      swap2\n        /* \"#utility.yul\":1976:1978   */\n      swap1\n        /* \"#utility.yul\":2199:2214   */\n      dup5\n      dup3\n      add\n      swap1\n        /* \"#utility.yul\":2173:2175   */\n      0x40\n        /* \"#utility.yul\":2158:2176   */\n      dup6\n      add\n      swap1\n        /* \"#utility.yul\":1947:1951   */\n      dup5\n        /* \"#utility.yul\":2242:2411   */\n    tag_211:\n        /* \"#utility.yul\":2256:2262   */\n      dup2\n        /* \"#utility.yul\":2253:2254   */\n      dup2\n        /* \"#utility.yul\":2250:2263   */\n      lt\n        /* \"#utility.yul\":2242:2411   */\n      iszero\n      tag_213\n      jumpi\n        /* \"#utility.yul\":2317:2330   */\n      dup4\n      mload\n        /* \"#utility.yul\":2305:2331   */\n      dup4\n      mstore\n        /* \"#utility.yul\":2386:2401   */\n      swap3\n      dup5\n      add\n      swap3\n        /* \"#utility.yul\":2351:2363   */\n      swap2\n      dup5\n      add\n      swap2\n        /* \"#utility.yul\":2278:2279   */\n      0x01\n        /* \"#utility.yul\":2271:2280   */\n      add\n        /* \"#utility.yul\":2242:2411   */\n      jump(tag_211)\n    tag_213:\n      pop\n        /* \"#utility.yul\":2428:2431   */\n      swap1\n      swap7\n        /* \"#utility.yul\":1805:2437   */\n      swap6\n      pop\n      pop\n      pop\n      pop\n      pop\n      pop\n      jump\t// out\n        /* \"#utility.yul\":2650:2830   */\n    tag_41:\n        /* \"#utility.yul\":2709:2715   */\n      0x00\n        /* \"#utility.yul\":2762:2764   */\n      0x20\n        /* \"#utility.yul\":2750:2759   */\n      dup3\n        /* \"#utility.yul\":2741:2748   */\n      dup5\n        /* \"#utility.yul\":2737:2760   */\n      sub\n        /* \"#utility.yul\":2733:2765   */\n      slt\n        /* \"#utility.yul\":2730:2782   */\n      iszero\n      tag_216\n      jumpi\n        /* \"#utility.yul\":2778:2779   */\n      0x00\n        /* \"#utility.yul\":2775:2776   */\n      dup1\n        /* \"#utility.yul\":2768:2780   */\n      revert\n        /* \"#utility.yul\":2730:2782   */\n    tag_216:\n      pop\n        /* \"#utility.yul\":2801:2824   */\n      calldataload\n      swap2\n        /* \"#utility.yul\":2650:2830   */\n      swap1\n      pop\n      jump\t// out\n        /* \"#utility.yul\":3441:3568   */\n    tag_59:\n        /* \"#utility.yul\":3502:3512   */\n      0x4e487b71\n        /* \"#utility.yul\":3497:3500   */\n      0xe0\n        /* \"#utility.yul\":3493:3513   */\n      shl\n        /* \"#utility.yul\":3490:3491   */\n      0x00\n        /* \"#utility.yul\":3483:3514   */\n      mstore\n        /* \"#utility.yul\":3533:3537   */\n      0x32\n        /* \"#utility.yul\":3530:3531   */\n      0x04\n        /* \"#utility.yul\":3523:3538   */\n      mstore\n        /* \"#utility.yul\":3557:3561   */\n      0x24\n        /* \"#utility.yul\":3554:3555   */\n      0x00\n        /* \"#utility.yul\":3547:3562   */\n      revert\n        /* \"#utility.yul\":3573:3700   */\n    tag_189:\n        /* \"#utility.yul\":3634:3644   */\n      0x4e487b71\n        /* \"#utility.yul\":3629:3632   */\n      0xe0\n        /* \"#utility.yul\":3625:3645   */\n      shl\n        /* \"#utility.yul\":3622:3623   */\n      0x00\n        /* \"#utility.yul\":3615:3646   */\n      mstore\n        /* \"#utility.yul\":3665:3669   */\n      0x11\n        /* \"#utility.yul\":3662:3663   */\n      0x04\n        /* \"#utility.yul\":3655:3670   */\n      mstore\n        /* \"#utility.yul\":3689:3693   */\n      0x24\n        /* \"#utility.yul\":3686:3687   */\n      0x00\n        /* \"#utility.yul\":3679:3694   */\n      revert\n        /* \"#utility.yul\":3705:3833   */\n    tag_67:\n        /* \"#utility.yul\":3772:3781   */\n      dup2\n      dup2\n      sub\n        /* \"#utility.yul\":3793:3804   */\n      dup2\n      dup2\n      gt\n        /* \"#utility.yul\":3790:3827   */\n      iszero\n      tag_222\n      jumpi\n        /* \"#utility.yul\":3807:3825   */\n      tag_222\n      tag_189\n      jump\t// in\n    tag_222:\n        /* \"#utility.yul\":3705:3833   */\n      swap3\n      swap2\n      pop\n      pop\n      jump\t// out\n        /* \"#utility.yul\":3838:4006   */\n    tag_69:\n        /* \"#utility.yul\":3911:3920   */\n      dup1\n      dup3\n      mul\n        /* \"#utility.yul\":3942:3951   */\n      dup2\n      iszero\n        /* \"#utility.yul\":3959:3974   */\n      dup3\n      dup3\n      div\n        /* \"#utility.yul\":3953:3975   */\n      dup5\n      eq\n        /* \"#utility.yul\":3939:3976   */\n      or\n        /* \"#utility.yul\":3929:4000   */\n      tag_222\n      jumpi\n        /* \"#utility.yul\":3980:3998   */\n      tag_222\n      tag_189\n      jump\t// in\n        /* \"#utility.yul\":4011:4136   */\n    tag_71:\n        /* \"#utility.yul\":4076:4085   */\n      dup1\n      dup3\n      add\n        /* \"#utility.yul\":4097:4107   */\n      dup1\n      dup3\n      gt\n        /* \"#utility.yul\":4094:4130   */\n      iszero\n      tag_222\n      jumpi\n        /* \"#utility.yul\":4110:4128   */\n      tag_222\n      tag_189\n      jump\t// in\n        /* \"#utility.yul\":4141:4276   */\n    tag_73:\n        /* \"#utility.yul\":4180:4183   */\n      0x00\n        /* \"#utility.yul\":4201:4218   */\n      0x01\n      dup3\n      add\n        /* \"#utility.yul\":4198:4241   */\n      tag_231\n      jumpi\n        /* \"#utility.yul\":4221:4239   */\n      tag_231\n      tag_189\n      jump\t// in\n    tag_231:\n      pop\n        /* \"#utility.yul\":4268:4269   */\n      0x01\n        /* \"#utility.yul\":4257:4270   */\n      add\n      swap1\n        /* \"#utility.yul\":4141:4276   */\n      jump\t// out\n        /* \"#utility.yul\":5339:5584   */\n    tag_104:\n        /* \"#utility.yul\":5406:5412   */\n      0x00\n        /* \"#utility.yul\":5459:5461   */\n      0x20\n        /* \"#utility.yul\":5447:5456   */\n      dup3\n        /* \"#utility.yul\":5438:5445   */\n      dup5\n        /* \"#utility.yul\":5434:5457   */\n      sub\n        /* \"#utility.yul\":5430:5462   */\n      slt\n        /* \"#utility.yul\":5427:5479   */\n      iszero\n      tag_236\n      jumpi\n        /* \"#utility.yul\":5475:5476   */\n      0x00\n        /* \"#utility.yul\":5472:5473   */\n      dup1\n        /* \"#utility.yul\":5465:5477   */\n      revert\n        /* \"#utility.yul\":5427:5479   */\n    tag_236:\n        /* \"#utility.yul\":5507:5516   */\n      dup2\n        /* \"#utility.yul\":5501:5517   */\n      mload\n        /* \"#utility.yul\":5526:5554   */\n      tag_237\n        /* \"#utility.yul\":5548:5553   */\n      dup2\n        /* \"#utility.yul\":5526:5554   */\n      tag_188\n      jump\t// in\n    tag_237:\n        /* \"#utility.yul\":5573:5578   */\n      swap4\n        /* \"#utility.yul\":5339:5584   */\n      swap3\n      pop\n      pop\n      pop\n      jump\t// out\n        /* \"#utility.yul\":5589:5806   */\n    tag_126:\n        /* \"#utility.yul\":5629:5630   */\n      0x00\n        /* \"#utility.yul\":5655:5656   */\n      dup3\n        /* \"#utility.yul\":5645:5777   */\n      tag_239\n      jumpi\n        /* \"#utility.yul\":5699:5709   */\n      0x4e487b71\n        /* \"#utility.yul\":5694:5697   */\n      0xe0\n        /* \"#utility.yul\":5690:5710   */\n      shl\n        /* \"#utility.yul\":5687:5688   */\n      0x00\n        /* \"#utility.yul\":5680:5711   */\n      mstore\n        /* \"#utility.yul\":5734:5738   */\n      0x12\n        /* \"#utility.yul\":5731:5732   */\n      0x04\n        /* \"#utility.yul\":5724:5739   */\n      mstore\n        /* \"#utility.yul\":5762:5766   */\n      0x24\n        /* \"#utility.yul\":5759:5760   */\n      0x00\n        /* \"#utility.yul\":5752:5767   */\n      revert\n        /* \"#utility.yul\":5645:5777   */\n    tag_239:\n      pop\n        /* \"#utility.yul\":5791:5800   */\n      div\n      swap1\n        /* \"#utility.yul\":5589:5806   */\n      jump\t// out\n        /* \"#utility.yul\":6090:6217   */\n    tag_147:\n        /* \"#utility.yul\":6151:6161   */\n      0x4e487b71\n        /* \"#utility.yul\":6146:6149   */\n      0xe0\n        /* \"#utility.yul\":6142:6162   */\n      shl\n        /* \"#utility.yul\":6139:6140   */\n      0x00\n        /* \"#utility.yul\":6132:6163   */\n      mstore\n        /* \"#utility.yul\":6182:6186   */\n      0x31\n        /* \"#utility.yul\":6179:6180   */\n      0x04\n        /* \"#utility.yul\":6172:6187   */\n      mstore\n        /* \"#utility.yul\":6206:6210   */\n      0x24\n        /* \"#utility.yul\":6203:6204   */\n      0x00\n        /* \"#utility.yul\":6196:6211   */\n      revert\n        /* \"#utility.yul\":6222:6349   */\n    tag_160:\n        /* \"#utility.yul\":6283:6293   */\n      0x4e487b71\n        /* \"#utility.yul\":6278:6281   */\n      0xe0\n        /* \"#utility.yul\":6274:6294   */\n      shl\n        /* \"#utility.yul\":6271:6272   */\n      0x00\n        /* \"#utility.yul\":6264:6295   */\n      mstore\n        /* \"#utility.yul\":6314:6318   */\n      0x41\n        /* \"#utility.yul\":6311:6312   */\n      0x04\n        /* \"#utility.yul\":6304:6319   */\n      mstore\n        /* \"#utility.yul\":6338:6342   */\n      0x24\n        /* \"#utility.yul\":6335:6336   */\n      0x00\n        /* \"#utility.yul\":6328:6343   */\n      revert\n\n    auxdata: 0xa2646970667358221220d3830cc5fb2960c5f2793a2407e7ee829a7afa0a73fc730718e968e91c58745c64736f6c63430008140033\n}\n",
				"bytecode": {
					"linkReferences": {},
					"object": "608060405234801561000f575f80fd5b50604051610ea4380380610ea483398101604081905261002e91610057565b60015f81905580546001600160a01b0319166001600160a01b0392909216919091179055610084565b5f60208284031215610067575f80fd5b81516001600160a01b038116811461007d575f80fd5b9392505050565b610e13806100915f395ff3fe608060405234801561000f575f80fd5b5060043610610085575f3560e01c80636b53503a116100585780636b53503a146100df5780638ce74426146100ff57806399fbab881461012a578063ac55deb614610177575f80fd5b806305e2e95d146100895780630c51b88f146100af5780635be7fde8146100c45780636a5908a0146100cc575b5f80fd5b61009c610097366004610bb9565b61018a565b6040519081526020015b60405180910390f35b6100c26100bd366004610bea565b61046a565b005b6100c2610711565b61009c6100da366004610c1a565b61097e565b6100f26100ed366004610c52565b6109a9565b6040516100a69190610c97565b600154610112906001600160a01b031681565b6040516001600160a01b0390911681526020016100a6565b61013d610138366004610cda565b610ada565b604080516001600160a01b0397881681529690951660208701529385019290925260608401526080830152151560a082015260c0016100a6565b61009c610185366004610c1a565b610b2e565b6001600160a01b0382165f908152600260209081526040808320805482518185028101850190935280835284938301828280156101e457602002820191905f5260205f20905b8154815260200190600101908083116101d0575b505050506001600160a01b0386165f908152600360209081526040808320805482518185028101850190935280835295965092949093509083018282801561024957602002820191905f5260205f20905b815481526020019060010190808311610235575b505050505090505f5b8251811015610358575f600484838151811061027057610270610cf1565b60200260200101518154811061028857610288610cf1565b5f9182526020918290206040805160c081018252600690930290910180546001600160a01b0390811684526001820154811694840185905260028201549284019290925260038101546060840152600481015460808401526005015460ff16151560a083015290925087169003610345575f4382608001511161030f578160800151610311565b435b90505f8260600151826103249190610d19565b90508260400151816103369190610d32565b6103409088610d49565b965050505b508061035081610d5c565b915050610252565b505f5b8151811015610461575f600483838151811061037957610379610cf1565b60200260200101518154811061039157610391610cf1565b5f9182526020918290206040805160c081018252600690930290910180546001600160a01b0390811684526001820154811694840185905260028201549284019290925260038101546060840152600481015460808401526005015460ff16151560a08301529092508716900361044e575f4382608001511161041857816080015161041a565b435b90505f82606001518261042d9190610d19565b905082604001518161043f9190610d32565b6104499088610d49565b965050505b508061045981610d5c565b91505061035b565b50505092915050565b610472610b47565b5f82116104b35760405162461bcd60e51b815260206004820152600a6024820152690416d6f756e74203e20360b41b60448201526064015b60405180910390fd5b5f81116104ef5760405162461bcd60e51b815260206004820152600a6024820152690426c6f636b73203e20360b41b60448201526064016104aa565b6040516323b872dd60e01b8152336004820152306024820152604481018390526001600160a01b038416906323b872dd906064016020604051808303815f875af115801561053f573d5f803e3d5ffd5b505050506040513d601f19601f820116820180604052508101906105639190610d74565b505f61056f8243610d49565b6040805160c0810182523381526001600160a01b03878116602083019081529282018781524360608401908152608084018681525f60a086018181526004805460018181018355828552985160069091027f8a35acfbc15ff81a39ae7d344fd709f28e8600b4aa8c65c6b64bfe7fe36bd19b81018054928a166001600160a01b031993841617905599517f8a35acfbc15ff81a39ae7d344fd709f28e8600b4aa8c65c6b64bfe7fe36bd19c8b0180549190991691161790965593517f8a35acfbc15ff81a39ae7d344fd709f28e8600b4aa8c65c6b64bfe7fe36bd19d88015591517f8a35acfbc15ff81a39ae7d344fd709f28e8600b4aa8c65c6b64bfe7fe36bd19e870155517f8a35acfbc15ff81a39ae7d344fd709f28e8600b4aa8c65c6b64bfe7fe36bd19f86015590517f8a35acfbc15ff81a39ae7d344fd709f28e8600b4aa8c65c6b64bfe7fe36bd1a0909401805494151560ff19909516949094179093555492935090916106e19190610d19565b335f90815260026020908152604082208054600181018255908352912001555061070c905060015f55565b505050565b610719610b47565b335f908152600260205260408120905b8154811015610971575f82828154811061074557610745610cf1565b905f5260205f20015490505f6004828154811061076457610764610cf1565b5f9182526020909120600690910201600581015490915060ff1615801561078f575080600401544310155b1561095c5760058101805460ff1916600117905560028101545f906103e8906107ba906103e3610d32565b6107c49190610d96565b90505f8183600201546107d79190610d19565b6001840154845460405163a9059cbb60e01b81526001600160a01b03918216600482015260248101869052929350169063a9059cbb906044016020604051808303815f875af115801561082c573d5f803e3d5ffd5b505050506040513d601f19601f820116820180604052508101906108509190610d74565b50600183810154905460405163a9059cbb60e01b81526001600160a01b0391821660048201526024810184905291169063a9059cbb906044016020604051808303815f875af11580156108a5573d5f803e3d5ffd5b505050506040513d601f19601f820116820180604052508101906108c99190610d74565b50335f90815260036020908152604082208054600181810183559184529190922001859055865487916108fb91610d19565b8154811061090b5761090b610cf1565b905f5260205f20015486868154811061092657610926610cf1565b905f5260205f2001819055508580548061094257610942610db5565b600190038181905f5260205f20015f90559055505061096a565b8261096681610d5c565b9350505b5050610729565b505061097c60015f55565b565b6002602052815f5260405f208181548110610997575f80fd5b905f5260205f20015f91509150505481565b60605f826109cd576001600160a01b0386165f9081526003602052604090206109e5565b6001600160a01b0386165f9081526002602052604090205b8054909150808610610a08575050604080515f8152602081019091529050610ad2565b5f610a138688610d49565b905081811115610a205750805b610a2a8782610d19565b67ffffffffffffffff811115610a4257610a42610dc9565b604051908082528060200260200182016040528015610a6b578160200160208202803683370190505b509350865b81811015610acd57838181548110610a8a57610a8a610cf1565b905f5260205f200154858983610aa09190610d19565b81518110610ab057610ab0610cf1565b602090810291909101015280610ac581610d5c565b915050610a70565b505050505b949350505050565b60048181548110610ae9575f80fd5b5f9182526020909120600690910201805460018201546002830154600384015460048501546005909501546001600160a01b0394851696509390921693909260ff1686565b6003602052815f5260405f208181548110610997575f80fd5b60025f5403610b985760405162461bcd60e51b815260206004820152601f60248201527f5265656e7472616e637947756172643a207265656e7472616e742063616c6c0060448201526064016104aa565b60025f55565b80356001600160a01b0381168114610bb4575f80fd5b919050565b5f8060408385031215610bca575f80fd5b610bd383610b9e565b9150610be160208401610b9e565b90509250929050565b5f805f60608486031215610bfc575f80fd5b610c0584610b9e565b95602085013595506040909401359392505050565b5f8060408385031215610c2b575f80fd5b610c3483610b9e565b946020939093013593505050565b8015158114610c4f575f80fd5b50565b5f805f8060808587031215610c65575f80fd5b610c6e85610b9e565b935060208501359250604085013591506060850135610c8c81610c42565b939692955090935050565b602080825282518282018190525f9190848201906040850190845b81811015610cce57835183529284019291840191600101610cb2565b50909695505050505050565b5f60208284031215610cea575f80fd5b5035919050565b634e487b7160e01b5f52603260045260245ffd5b634e487b7160e01b5f52601160045260245ffd5b81810381811115610d2c57610d2c610d05565b92915050565b8082028115828204841417610d2c57610d2c610d05565b80820180821115610d2c57610d2c610d05565b5f60018201610d6d57610d6d610d05565b5060010190565b5f60208284031215610d84575f80fd5b8151610d8f81610c42565b9392505050565b5f82610db057634e487b7160e01b5f52601260045260245ffd5b500490565b634e487b7160e01b5f52603160045260245ffd5b634e487b7160e01b5f52604160045260245ffdfea2646970667358221220d3830cc5fb2960c5f2793a2407e7ee829a7afa0a73fc730718e968e91c58745c64736f6c63430008140033",
					"opcodes": "PUSH1 0x80 PUSH1 0x40 MSTORE CALLVALUE DUP1 ISZERO PUSH2 0xF JUMPI PUSH0 DUP1 REVERT JUMPDEST POP PUSH1 0x40 MLOAD PUSH2 0xEA4 CODESIZE SUB DUP1 PUSH2 0xEA4 DUP4 CODECOPY DUP2 ADD PUSH1 0x40 DUP2 SWAP1 MSTORE PUSH2 0x2E SWAP2 PUSH2 0x57 JUMP JUMPDEST PUSH1 0x1 PUSH0 DUP2 SWAP1 SSTORE DUP1 SLOAD PUSH1 0x1 PUSH1 0x1 PUSH1 0xA0 SHL SUB NOT AND PUSH1 0x1 PUSH1 0x1 PUSH1 0xA0 SHL SUB SWAP3 SWAP1 SWAP3 AND SWAP2 SWAP1 SWAP2 OR SWAP1 SSTORE PUSH2 0x84 JUMP JUMPDEST PUSH0 PUSH1 0x20 DUP3 DUP5 SUB SLT ISZERO PUSH2 0x67 JUMPI PUSH0 DUP1 REVERT JUMPDEST DUP2 MLOAD PUSH1 0x1 PUSH1 0x1 PUSH1 0xA0 SHL SUB DUP2 AND DUP2 EQ PUSH2 0x7D JUMPI PUSH0 DUP1 REVERT JUMPDEST SWAP4 SWAP3 POP POP POP JUMP JUMPDEST PUSH2 0xE13 DUP1 PUSH2 0x91 PUSH0 CODECOPY PUSH0 RETURN INVALID PUSH1 0x80 PUSH1 0x40 MSTORE CALLVALUE DUP1 ISZERO PUSH2 0xF JUMPI PUSH0 DUP1 REVERT JUMPDEST POP PUSH1 0x4 CALLDATASIZE LT PUSH2 0x85 JUMPI PUSH0 CALLDATALOAD PUSH1 0xE0 SHR DUP1 PUSH4 0x6B53503A GT PUSH2 0x58 JUMPI DUP1 PUSH4 0x6B53503A EQ PUSH2 0xDF JUMPI DUP1 PUSH4 0x8CE74426 EQ PUSH2 0xFF JUMPI DUP1 PUSH4 0x99FBAB88 EQ PUSH2 0x12A JUMPI DUP1 PUSH4 0xAC55DEB6 EQ PUSH2 0x177 JUMPI PUSH0 DUP1 REVERT JUMPDEST DUP1 PUSH4 0x5E2E95D EQ PUSH2 0x89 JUMPI DUP1 PUSH4 0xC51B88F EQ PUSH2 0xAF JUMPI DUP1 PUSH4 0x5BE7FDE8 EQ PUSH2 0xC4 JUMPI DUP1 PUSH4 0x6A5908A0 EQ PUSH2 0xCC JUMPI JUMPDEST PUSH0 DUP1 REVERT JUMPDEST PUSH2 0x9C PUSH2 0x97 CALLDATASIZE PUSH1 0x4 PUSH2 0xBB9 JUMP JUMPDEST PUSH2 0x18A JUMP JUMPDEST PUSH1 0x40 MLOAD SWAP1 DUP2 MSTORE PUSH1 0x20 ADD JUMPDEST PUSH1 0x40 MLOAD DUP1 SWAP2 SUB SWAP1 RETURN JUMPDEST PUSH2 0xC2 PUSH2 0xBD CALLDATASIZE PUSH1 0x4 PUSH2 0xBEA JUMP JUMPDEST PUSH2 0x46A JUMP JUMPDEST STOP JUMPDEST PUSH2 0xC2 PUSH2 0x711 JUMP JUMPDEST PUSH2 0x9C PUSH2 0xDA CALLDATASIZE PUSH1 0x4 PUSH2 0xC1A JUMP JUMPDEST PUSH2 0x97E JUMP JUMPDEST PUSH2 0xF2 PUSH2 0xED CALLDATASIZE PUSH1 0x4 PUSH2 0xC52 JUMP JUMPDEST PUSH2 0x9A9 JUMP JUMPDEST PUSH1 0x40 MLOAD PUSH2 0xA6 SWAP2 SWAP1 PUSH2 0xC97 JUMP JUMPDEST PUSH1 0x1 SLOAD PUSH2 0x112 SWAP1 PUSH1 0x1 PUSH1 0x1 PUSH1 0xA0 SHL SUB AND DUP2 JUMP JUMPDEST PUSH1 0x40 MLOAD PUSH1 0x1 PUSH1 0x1 PUSH1 0xA0 SHL SUB SWAP1 SWAP2 AND DUP2 MSTORE PUSH1 0x20 ADD PUSH2 0xA6 JUMP JUMPDEST PUSH2 0x13D PUSH2 0x138 CALLDATASIZE PUSH1 0x4 PUSH2 0xCDA JUMP JUMPDEST PUSH2 0xADA JUMP JUMPDEST PUSH1 0x40 DUP1 MLOAD PUSH1 0x1 PUSH1 0x1 PUSH1 0xA0 SHL SUB SWAP8 DUP9 AND DUP2 MSTORE SWAP7 SWAP1 SWAP6 AND PUSH1 0x20 DUP8 ADD MSTORE SWAP4 DUP6 ADD SWAP3 SWAP1 SWAP3 MSTORE PUSH1 0x60 DUP5 ADD MSTORE PUSH1 0x80 DUP4 ADD MSTORE ISZERO ISZERO PUSH1 0xA0 DUP3 ADD MSTORE PUSH1 0xC0 ADD PUSH2 0xA6 JUMP JUMPDEST PUSH2 0x9C PUSH2 0x185 CALLDATASIZE PUSH1 0x4 PUSH2 0xC1A JUMP JUMPDEST PUSH2 0xB2E JUMP JUMPDEST PUSH1 0x1 PUSH1 0x1 PUSH1 0xA0 SHL SUB DUP3 AND PUSH0 SWAP1 DUP2 MSTORE PUSH1 0x2 PUSH1 0x20 SWAP1 DUP2 MSTORE PUSH1 0x40 DUP1 DUP4 KECCAK256 DUP1 SLOAD DUP3 MLOAD DUP2 DUP6 MUL DUP2 ADD DUP6 ADD SWAP1 SWAP4 MSTORE DUP1 DUP4 MSTORE DUP5 SWAP4 DUP4 ADD DUP3 DUP3 DUP1 ISZERO PUSH2 0x1E4 JUMPI PUSH1 0x20 MUL DUP3 ADD SWAP2 SWAP1 PUSH0 MSTORE PUSH1 0x20 PUSH0 KECCAK256 SWAP1 JUMPDEST DUP2 SLOAD DUP2 MSTORE PUSH1 0x20 ADD SWAP1 PUSH1 0x1 ADD SWAP1 DUP1 DUP4 GT PUSH2 0x1D0 JUMPI JUMPDEST POP POP POP POP PUSH1 0x1 PUSH1 0x1 PUSH1 0xA0 SHL SUB DUP7 AND PUSH0 SWAP1 DUP2 MSTORE PUSH1 0x3 PUSH1 0x20 SWAP1 DUP2 MSTORE PUSH1 0x40 DUP1 DUP4 KECCAK256 DUP1 SLOAD DUP3 MLOAD DUP2 DUP6 MUL DUP2 ADD DUP6 ADD SWAP1 SWAP4 MSTORE DUP1 DUP4 MSTORE SWAP6 SWAP7 POP SWAP3 SWAP5 SWAP1 SWAP4 POP SWAP1 DUP4 ADD DUP3 DUP3 DUP1 ISZERO PUSH2 0x249 JUMPI PUSH1 0x20 MUL DUP3 ADD SWAP2 SWAP1 PUSH0 MSTORE PUSH1 0x20 PUSH0 KECCAK256 SWAP1 JUMPDEST DUP2 SLOAD DUP2 MSTORE PUSH1 0x20 ADD SWAP1 PUSH1 0x1 ADD SWAP1 DUP1 DUP4 GT PUSH2 0x235 JUMPI JUMPDEST POP POP POP POP POP SWAP1 POP PUSH0 JUMPDEST DUP3 MLOAD DUP2 LT ISZERO PUSH2 0x358 JUMPI PUSH0 PUSH1 0x4 DUP5 DUP4 DUP2 MLOAD DUP2 LT PUSH2 0x270 JUMPI PUSH2 0x270 PUSH2 0xCF1 JUMP JUMPDEST PUSH1 0x20 MUL PUSH1 0x20 ADD ADD MLOAD DUP2 SLOAD DUP2 LT PUSH2 0x288 JUMPI PUSH2 0x288 PUSH2 0xCF1 JUMP JUMPDEST PUSH0 SWAP2 DUP3 MSTORE PUSH1 0x20 SWAP2 DUP3 SWAP1 KECCAK256 PUSH1 0x40 DUP1 MLOAD PUSH1 0xC0 DUP2 ADD DUP3 MSTORE PUSH1 0x6 SWAP1 SWAP4 MUL SWAP1 SWAP2 ADD DUP1 SLOAD PUSH1 0x1 PUSH1 0x1 PUSH1 0xA0 SHL SUB SWAP1 DUP2 AND DUP5 MSTORE PUSH1 0x1 DUP3 ADD SLOAD DUP2 AND SWAP5 DUP5 ADD DUP6 SWAP1 MSTORE PUSH1 0x2 DUP3 ADD SLOAD SWAP3 DUP5 ADD SWAP3 SWAP1 SWAP3 MSTORE PUSH1 0x3 DUP2 ADD SLOAD PUSH1 0x60 DUP5 ADD MSTORE PUSH1 0x4 DUP2 ADD SLOAD PUSH1 0x80 DUP5 ADD MSTORE PUSH1 0x5 ADD SLOAD PUSH1 0xFF AND ISZERO ISZERO PUSH1 0xA0 DUP4 ADD MSTORE SWAP1 SWAP3 POP DUP8 AND SWAP1 SUB PUSH2 0x345 JUMPI PUSH0 NUMBER DUP3 PUSH1 0x80 ADD MLOAD GT PUSH2 0x30F JUMPI DUP2 PUSH1 0x80 ADD MLOAD PUSH2 0x311 JUMP JUMPDEST NUMBER JUMPDEST SWAP1 POP PUSH0 DUP3 PUSH1 0x60 ADD MLOAD DUP3 PUSH2 0x324 SWAP2 SWAP1 PUSH2 0xD19 JUMP JUMPDEST SWAP1 POP DUP3 PUSH1 0x40 ADD MLOAD DUP2 PUSH2 0x336 SWAP2 SWAP1 PUSH2 0xD32 JUMP JUMPDEST PUSH2 0x340 SWAP1 DUP9 PUSH2 0xD49 JUMP JUMPDEST SWAP7 POP POP POP JUMPDEST POP DUP1 PUSH2 0x350 DUP2 PUSH2 0xD5C JUMP JUMPDEST SWAP2 POP POP PUSH2 0x252 JUMP JUMPDEST POP PUSH0 JUMPDEST DUP2 MLOAD DUP2 LT ISZERO PUSH2 0x461 JUMPI PUSH0 PUSH1 0x4 DUP4 DUP4 DUP2 MLOAD DUP2 LT PUSH2 0x379 JUMPI PUSH2 0x379 PUSH2 0xCF1 JUMP JUMPDEST PUSH1 0x20 MUL PUSH1 0x20 ADD ADD MLOAD DUP2 SLOAD DUP2 LT PUSH2 0x391 JUMPI PUSH2 0x391 PUSH2 0xCF1 JUMP JUMPDEST PUSH0 SWAP2 DUP3 MSTORE PUSH1 0x20 SWAP2 DUP3 SWAP1 KECCAK256 PUSH1 0x40 DUP1 MLOAD PUSH1 0xC0 DUP2 ADD DUP3 MSTORE PUSH1 0x6 SWAP1 SWAP4 MUL SWAP1 SWAP2 ADD DUP1 SLOAD PUSH1 0x1 PUSH1 0x1 PUSH1 0xA0 SHL SUB SWAP1 DUP2 AND DUP5 MSTORE PUSH1 0x1 DUP3 ADD SLOAD DUP2 AND SWAP5 DUP5 ADD DUP6 SWAP1 MSTORE PUSH1 0x2 DUP3 ADD SLOAD SWAP3 DUP5 ADD SWAP3 SWAP1 SWAP3 MSTORE PUSH1 0x3 DUP2 ADD SLOAD PUSH1 0x60 DUP5 ADD MSTORE PUSH1 0x4 DUP2 ADD SLOAD PUSH1 0x80 DUP5 ADD MSTORE PUSH1 0x5 ADD SLOAD PUSH1 0xFF AND ISZERO ISZERO PUSH1 0xA0 DUP4 ADD MSTORE SWAP1 SWAP3 POP DUP8 AND SWAP1 SUB PUSH2 0x44E JUMPI PUSH0 NUMBER DUP3 PUSH1 0x80 ADD MLOAD GT PUSH2 0x418 JUMPI DUP2 PUSH1 0x80 ADD MLOAD PUSH2 0x41A JUMP JUMPDEST NUMBER JUMPDEST SWAP1 POP PUSH0 DUP3 PUSH1 0x60 ADD MLOAD DUP3 PUSH2 0x42D SWAP2 SWAP1 PUSH2 0xD19 JUMP JUMPDEST SWAP1 POP DUP3 PUSH1 0x40 ADD MLOAD DUP2 PUSH2 0x43F SWAP2 SWAP1 PUSH2 0xD32 JUMP JUMPDEST PUSH2 0x449 SWAP1 DUP9 PUSH2 0xD49 JUMP JUMPDEST SWAP7 POP POP POP JUMPDEST POP DUP1 PUSH2 0x459 DUP2 PUSH2 0xD5C JUMP JUMPDEST SWAP2 POP POP PUSH2 0x35B JUMP JUMPDEST POP POP POP SWAP3 SWAP2 POP POP JUMP JUMPDEST PUSH2 0x472 PUSH2 0xB47 JUMP JUMPDEST PUSH0 DUP3 GT PUSH2 0x4B3 JUMPI PUSH1 0x40 MLOAD PUSH3 0x461BCD PUSH1 0xE5 SHL DUP2 MSTORE PUSH1 0x20 PUSH1 0x4 DUP3 ADD MSTORE PUSH1 0xA PUSH1 0x24 DUP3 ADD MSTORE PUSH10 0x416D6F756E74203E203 PUSH1 0xB4 SHL PUSH1 0x44 DUP3 ADD MSTORE PUSH1 0x64 ADD JUMPDEST PUSH1 0x40 MLOAD DUP1 SWAP2 SUB SWAP1 REVERT JUMPDEST PUSH0 DUP2 GT PUSH2 0x4EF JUMPI PUSH1 0x40 MLOAD PUSH3 0x461BCD PUSH1 0xE5 SHL DUP2 MSTORE PUSH1 0x20 PUSH1 0x4 DUP3 ADD MSTORE PUSH1 0xA PUSH1 0x24 DUP3 ADD MSTORE PUSH10 0x426C6F636B73203E203 PUSH1 0xB4 SHL PUSH1 0x44 DUP3 ADD MSTORE PUSH1 0x64 ADD PUSH2 0x4AA JUMP JUMPDEST PUSH1 0x40 MLOAD PUSH4 0x23B872DD PUSH1 0xE0 SHL DUP2 MSTORE CALLER PUSH1 0x4 DUP3 ADD MSTORE ADDRESS PUSH1 0x24 DUP3 ADD MSTORE PUSH1 0x44 DUP2 ADD DUP4 SWAP1 MSTORE PUSH1 0x1 PUSH1 0x1 PUSH1 0xA0 SHL SUB DUP5 AND SWAP1 PUSH4 0x23B872DD SWAP1 PUSH1 0x64 ADD PUSH1 0x20 PUSH1 0x40 MLOAD DUP1 DUP4 SUB DUP2 PUSH0 DUP8 GAS CALL ISZERO DUP1 ISZERO PUSH2 0x53F JUMPI RETURNDATASIZE PUSH0 DUP1 RETURNDATACOPY RETURNDATASIZE PUSH0 REVERT JUMPDEST POP POP POP POP PUSH1 0x40 MLOAD RETURNDATASIZE PUSH1 0x1F NOT PUSH1 0x1F DUP3 ADD AND DUP3 ADD DUP1 PUSH1 0x40 MSTORE POP DUP2 ADD SWAP1 PUSH2 0x563 SWAP2 SWAP1 PUSH2 0xD74 JUMP JUMPDEST POP PUSH0 PUSH2 0x56F DUP3 NUMBER PUSH2 0xD49 JUMP JUMPDEST PUSH1 0x40 DUP1 MLOAD PUSH1 0xC0 DUP2 ADD DUP3 MSTORE CALLER DUP2 MSTORE PUSH1 0x1 PUSH1 0x1 PUSH1 0xA0 SHL SUB DUP8 DUP2 AND PUSH1 0x20 DUP4 ADD SWAP1 DUP2 MSTORE SWAP3 DUP3 ADD DUP8 DUP2 MSTORE NUMBER PUSH1 0x60 DUP5 ADD SWAP1 DUP2 MSTORE PUSH1 0x80 DUP5 ADD DUP7 DUP2 MSTORE PUSH0 PUSH1 0xA0 DUP7 ADD DUP2 DUP2 MSTORE PUSH1 0x4 DUP1 SLOAD PUSH1 0x1 DUP2 DUP2 ADD DUP4 SSTORE DUP3 DUP6 MSTORE SWAP9 MLOAD PUSH1 0x6 SWAP1 SWAP2 MUL PUSH32 0x8A35ACFBC15FF81A39AE7D344FD709F28E8600B4AA8C65C6B64BFE7FE36BD19B DUP2 ADD DUP1 SLOAD SWAP3 DUP11 AND PUSH1 0x1 PUSH1 0x1 PUSH1 0xA0 SHL SUB NOT SWAP4 DUP5 AND OR SWAP1 SSTORE SWAP10 MLOAD PUSH32 0x8A35ACFBC15FF81A39AE7D344FD709F28E8600B4AA8C65C6B64BFE7FE36BD19C DUP12 ADD DUP1 SLOAD SWAP2 SWAP1 SWAP10 AND SWAP2 AND OR SWAP1 SWAP7 SSTORE SWAP4 MLOAD PUSH32 0x8A35ACFBC15FF81A39AE7D344FD709F28E8600B4AA8C65C6B64BFE7FE36BD19D DUP9 ADD SSTORE SWAP2 MLOAD PUSH32 0x8A35ACFBC15FF81A39AE7D344FD709F28E8600B4AA8C65C6B64BFE7FE36BD19E DUP8 ADD SSTORE MLOAD PUSH32 0x8A35ACFBC15FF81A39AE7D344FD709F28E8600B4AA8C65C6B64BFE7FE36BD19F DUP7 ADD SSTORE SWAP1 MLOAD PUSH32 0x8A35ACFBC15FF81A39AE7D344FD709F28E8600B4AA8C65C6B64BFE7FE36BD1A0 SWAP1 SWAP5 ADD DUP1 SLOAD SWAP5 ISZERO ISZERO PUSH1 0xFF NOT SWAP1 SWAP6 AND SWAP5 SWAP1 SWAP5 OR SWAP1 SWAP4 SSTORE SLOAD SWAP3 SWAP4 POP SWAP1 SWAP2 PUSH2 0x6E1 SWAP2 SWAP1 PUSH2 0xD19 JUMP JUMPDEST CALLER PUSH0 SWAP1 DUP2 MSTORE PUSH1 0x2 PUSH1 0x20 SWAP1 DUP2 MSTORE PUSH1 0x40 DUP3 KECCAK256 DUP1 SLOAD PUSH1 0x1 DUP2 ADD DUP3 SSTORE SWAP1 DUP4 MSTORE SWAP2 KECCAK256 ADD SSTORE POP PUSH2 0x70C SWAP1 POP PUSH1 0x1 PUSH0 SSTORE JUMP JUMPDEST POP POP POP JUMP JUMPDEST PUSH2 0x719 PUSH2 0xB47 JUMP JUMPDEST CALLER PUSH0 SWAP1 DUP2 MSTORE PUSH1 0x2 PUSH1 0x20 MSTORE PUSH1 0x40 DUP2 KECCAK256 SWAP1 JUMPDEST DUP2 SLOAD DUP2 LT ISZERO PUSH2 0x971 JUMPI PUSH0 DUP3 DUP3 DUP2 SLOAD DUP2 LT PUSH2 0x745 JUMPI PUSH2 0x745 PUSH2 0xCF1 JUMP JUMPDEST SWAP1 PUSH0 MSTORE PUSH1 0x20 PUSH0 KECCAK256 ADD SLOAD SWAP1 POP PUSH0 PUSH1 0x4 DUP3 DUP2 SLOAD DUP2 LT PUSH2 0x764 JUMPI PUSH2 0x764 PUSH2 0xCF1 JUMP JUMPDEST PUSH0 SWAP2 DUP3 MSTORE PUSH1 0x20 SWAP1 SWAP2 KECCAK256 PUSH1 0x6 SWAP1 SWAP2 MUL ADD PUSH1 0x5 DUP2 ADD SLOAD SWAP1 SWAP2 POP PUSH1 0xFF AND ISZERO DUP1 ISZERO PUSH2 0x78F JUMPI POP DUP1 PUSH1 0x4 ADD SLOAD NUMBER LT ISZERO JUMPDEST ISZERO PUSH2 0x95C JUMPI PUSH1 0x5 DUP2 ADD DUP1 SLOAD PUSH1 0xFF NOT AND PUSH1 0x1 OR SWAP1 SSTORE PUSH1 0x2 DUP2 ADD SLOAD PUSH0 SWAP1 PUSH2 0x3E8 SWAP1 PUSH2 0x7BA SWAP1 PUSH2 0x3E3 PUSH2 0xD32 JUMP JUMPDEST PUSH2 0x7C4 SWAP2 SWAP1 PUSH2 0xD96 JUMP JUMPDEST SWAP1 POP PUSH0 DUP2 DUP4 PUSH1 0x2 ADD SLOAD PUSH2 0x7D7 SWAP2 SWAP1 PUSH2 0xD19 JUMP JUMPDEST PUSH1 0x1 DUP5 ADD SLOAD DUP5 SLOAD PUSH1 0x40 MLOAD PUSH4 0xA9059CBB PUSH1 0xE0 SHL DUP2 MSTORE PUSH1 0x1 PUSH1 0x1 PUSH1 0xA0 SHL SUB SWAP2 DUP3 AND PUSH1 0x4 DUP3 ADD MSTORE PUSH1 0x24 DUP2 ADD DUP7 SWAP1 MSTORE SWAP3 SWAP4 POP AND SWAP1 PUSH4 0xA9059CBB SWAP1 PUSH1 0x44 ADD PUSH1 0x20 PUSH1 0x40 MLOAD DUP1 DUP4 SUB DUP2 PUSH0 DUP8 GAS CALL ISZERO DUP1 ISZERO PUSH2 0x82C JUMPI RETURNDATASIZE PUSH0 DUP1 RETURNDATACOPY RETURNDATASIZE PUSH0 REVERT JUMPDEST POP POP POP POP PUSH1 0x40 MLOAD RETURNDATASIZE PUSH1 0x1F NOT PUSH1 0x1F DUP3 ADD AND DUP3 ADD DUP1 PUSH1 0x40 MSTORE POP DUP2 ADD SWAP1 PUSH2 0x850 SWAP2 SWAP1 PUSH2 0xD74 JUMP JUMPDEST POP PUSH1 0x1 DUP4 DUP2 ADD SLOAD SWAP1 SLOAD PUSH1 0x40 MLOAD PUSH4 0xA9059CBB PUSH1 0xE0 SHL DUP2 MSTORE PUSH1 0x1 PUSH1 0x1 PUSH1 0xA0 SHL SUB SWAP2 DUP3 AND PUSH1 0x4 DUP3 ADD MSTORE PUSH1 0x24 DUP2 ADD DUP5 SWAP1 MSTORE SWAP2 AND SWAP1 PUSH4 0xA9059CBB SWAP1 PUSH1 0x44 ADD PUSH1 0x20 PUSH1 0x40 MLOAD DUP1 DUP4 SUB DUP2 PUSH0 DUP8 GAS CALL ISZERO DUP1 ISZERO PUSH2 0x8A5 JUMPI RETURNDATASIZE PUSH0 DUP1 RETURNDATACOPY RETURNDATASIZE PUSH0 REVERT JUMPDEST POP POP POP POP PUSH1 0x40 MLOAD RETURNDATASIZE PUSH1 0x1F NOT PUSH1 0x1F DUP3 ADD AND DUP3 ADD DUP1 PUSH1 0x40 MSTORE POP DUP2 ADD SWAP1 PUSH2 0x8C9 SWAP2 SWAP1 PUSH2 0xD74 JUMP JUMPDEST POP CALLER PUSH0 SWAP1 DUP2 MSTORE PUSH1 0x3 PUSH1 0x20 SWAP1 DUP2 MSTORE PUSH1 0x40 DUP3 KECCAK256 DUP1 SLOAD PUSH1 0x1 DUP2 DUP2 ADD DUP4 SSTORE SWAP2 DUP5 MSTORE SWAP2 SWAP1 SWAP3 KECCAK256 ADD DUP6 SWAP1 SSTORE DUP7 SLOAD DUP8 SWAP2 PUSH2 0x8FB SWAP2 PUSH2 0xD19 JUMP JUMPDEST DUP2 SLOAD DUP2 LT PUSH2 0x90B JUMPI PUSH2 0x90B PUSH2 0xCF1 JUMP JUMPDEST SWAP1 PUSH0 MSTORE PUSH1 0x20 PUSH0 KECCAK256 ADD SLOAD DUP7 DUP7 DUP2 SLOAD DUP2 LT PUSH2 0x926 JUMPI PUSH2 0x926 PUSH2 0xCF1 JUMP JUMPDEST SWAP1 PUSH0 MSTORE PUSH1 0x20 PUSH0 KECCAK256 ADD DUP2 SWAP1 SSTORE POP DUP6 DUP1 SLOAD DUP1 PUSH2 0x942 JUMPI PUSH2 0x942 PUSH2 0xDB5 JUMP JUMPDEST PUSH1 0x1 SWAP1 SUB DUP2 DUP2 SWAP1 PUSH0 MSTORE PUSH1 0x20 PUSH0 KECCAK256 ADD PUSH0 SWAP1 SSTORE SWAP1 SSTORE POP POP PUSH2 0x96A JUMP JUMPDEST DUP3 PUSH2 0x966 DUP2 PUSH2 0xD5C JUMP JUMPDEST SWAP4 POP POP JUMPDEST POP POP PUSH2 0x729 JUMP JUMPDEST POP POP PUSH2 0x97C PUSH1 0x1 PUSH0 SSTORE JUMP JUMPDEST JUMP JUMPDEST PUSH1 0x2 PUSH1 0x20 MSTORE DUP2 PUSH0 MSTORE PUSH1 0x40 PUSH0 KECCAK256 DUP2 DUP2 SLOAD DUP2 LT PUSH2 0x997 JUMPI PUSH0 DUP1 REVERT JUMPDEST SWAP1 PUSH0 MSTORE PUSH1 0x20 PUSH0 KECCAK256 ADD PUSH0 SWAP2 POP SWAP2 POP POP SLOAD DUP2 JUMP JUMPDEST PUSH1 0x60 PUSH0 DUP3 PUSH2 0x9CD JUMPI PUSH1 0x1 PUSH1 0x1 PUSH1 0xA0 SHL SUB DUP7 AND PUSH0 SWAP1 DUP2 MSTORE PUSH1 0x3 PUSH1 0x20 MSTORE PUSH1 0x40 SWAP1 KECCAK256 PUSH2 0x9E5 JUMP JUMPDEST PUSH1 0x1 PUSH1 0x1 PUSH1 0xA0 SHL SUB DUP7 AND PUSH0 SWAP1 DUP2 MSTORE PUSH1 0x2 PUSH1 0x20 MSTORE PUSH1 0x40 SWAP1 KECCAK256 JUMPDEST DUP1 SLOAD SWAP1 SWAP2 POP DUP1 DUP7 LT PUSH2 0xA08 JUMPI POP POP PUSH1 0x40 DUP1 MLOAD PUSH0 DUP2 MSTORE PUSH1 0x20 DUP2 ADD SWAP1 SWAP2 MSTORE SWAP1 POP PUSH2 0xAD2 JUMP JUMPDEST PUSH0 PUSH2 0xA13 DUP7 DUP9 PUSH2 0xD49 JUMP JUMPDEST SWAP1 POP DUP2 DUP2 GT ISZERO PUSH2 0xA20 JUMPI POP DUP1 JUMPDEST PUSH2 0xA2A DUP8 DUP3 PUSH2 0xD19 JUMP JUMPDEST PUSH8 0xFFFFFFFFFFFFFFFF DUP2 GT ISZERO PUSH2 0xA42 JUMPI PUSH2 0xA42 PUSH2 0xDC9 JUMP JUMPDEST PUSH1 0x40 MLOAD SWAP1 DUP1 DUP3 MSTORE DUP1 PUSH1 0x20 MUL PUSH1 0x20 ADD DUP3 ADD PUSH1 0x40 MSTORE DUP1 ISZERO PUSH2 0xA6B JUMPI DUP2 PUSH1 0x20 ADD PUSH1 0x20 DUP3 MUL DUP1 CALLDATASIZE DUP4 CALLDATACOPY ADD SWAP1 POP JUMPDEST POP SWAP4 POP DUP7 JUMPDEST DUP2 DUP2 LT ISZERO PUSH2 0xACD JUMPI DUP4 DUP2 DUP2 SLOAD DUP2 LT PUSH2 0xA8A JUMPI PUSH2 0xA8A PUSH2 0xCF1 JUMP JUMPDEST SWAP1 PUSH0 MSTORE PUSH1 0x20 PUSH0 KECCAK256 ADD SLOAD DUP6 DUP10 DUP4 PUSH2 0xAA0 SWAP2 SWAP1 PUSH2 0xD19 JUMP JUMPDEST DUP2 MLOAD DUP2 LT PUSH2 0xAB0 JUMPI PUSH2 0xAB0 PUSH2 0xCF1 JUMP JUMPDEST PUSH1 0x20 SWAP1 DUP2 MUL SWAP2 SWAP1 SWAP2 ADD ADD MSTORE DUP1 PUSH2 0xAC5 DUP2 PUSH2 0xD5C JUMP JUMPDEST SWAP2 POP POP PUSH2 0xA70 JUMP JUMPDEST POP POP POP POP JUMPDEST SWAP5 SWAP4 POP POP POP POP JUMP JUMPDEST PUSH1 0x4 DUP2 DUP2 SLOAD DUP2 LT PUSH2 0xAE9 JUMPI PUSH0 DUP1 REVERT JUMPDEST PUSH0 SWAP2 DUP3 MSTORE PUSH1 0x20 SWAP1 SWAP2 KECCAK256 PUSH1 0x6 SWAP1 SWAP2 MUL ADD DUP1 SLOAD PUSH1 0x1 DUP3 ADD SLOAD PUSH1 0x2 DUP4 ADD SLOAD PUSH1 0x3 DUP5 ADD SLOAD PUSH1 0x4 DUP6 ADD SLOAD PUSH1 0x5 SWAP1 SWAP6 ADD SLOAD PUSH1 0x1 PUSH1 0x1 PUSH1 0xA0 SHL SUB SWAP5 DUP6 AND SWAP7 POP SWAP4 SWAP1 SWAP3 AND SWAP4 SWAP1 SWAP3 PUSH1 0xFF AND DUP7 JUMP JUMPDEST PUSH1 0x3 PUSH1 0x20 MSTORE DUP2 PUSH0 MSTORE PUSH1 0x40 PUSH0 KECCAK256 DUP2 DUP2 SLOAD DUP2 LT PUSH2 0x997 JUMPI PUSH0 DUP1 REVERT JUMPDEST PUSH1 0x2 PUSH0 SLOAD SUB PUSH2 0xB98 JUMPI PUSH1 0x40 MLOAD PUSH3 0x461BCD PUSH1 0xE5 SHL DUP2 MSTORE PUSH1 0x20 PUSH1 0x4 DUP3 ADD MSTORE PUSH1 0x1F PUSH1 0x24 DUP3 ADD MSTORE PUSH32 0x5265656E7472616E637947756172643A207265656E7472616E742063616C6C00 PUSH1 0x44 DUP3 ADD MSTORE PUSH1 0x64 ADD PUSH2 0x4AA JUMP JUMPDEST PUSH1 0x2 PUSH0 SSTORE JUMP JUMPDEST DUP1 CALLDATALOAD PUSH1 0x1 PUSH1 0x1 PUSH1 0xA0 SHL SUB DUP2 AND DUP2 EQ PUSH2 0xBB4 JUMPI PUSH0 DUP1 REVERT JUMPDEST SWAP2 SWAP1 POP JUMP JUMPDEST PUSH0 DUP1 PUSH1 0x40 DUP4 DUP6 SUB SLT ISZERO PUSH2 0xBCA JUMPI PUSH0 DUP1 REVERT JUMPDEST PUSH2 0xBD3 DUP4 PUSH2 0xB9E JUMP JUMPDEST SWAP2 POP PUSH2 0xBE1 PUSH1 0x20 DUP5 ADD PUSH2 0xB9E JUMP JUMPDEST SWAP1 POP SWAP3 POP SWAP3 SWAP1 POP JUMP JUMPDEST PUSH0 DUP1 PUSH0 PUSH1 0x60 DUP5 DUP7 SUB SLT ISZERO PUSH2 0xBFC JUMPI PUSH0 DUP1 REVERT JUMPDEST PUSH2 0xC05 DUP5 PUSH2 0xB9E JUMP JUMPDEST SWAP6 PUSH1 0x20 DUP6 ADD CALLDATALOAD SWAP6 POP PUSH1 0x40 SWAP1 SWAP5 ADD CALLDATALOAD SWAP4 SWAP3 POP POP POP JUMP JUMPDEST PUSH0 DUP1 PUSH1 0x40 DUP4 DUP6 SUB SLT ISZERO PUSH2 0xC2B JUMPI PUSH0 DUP1 REVERT JUMPDEST PUSH2 0xC34 DUP4 PUSH2 0xB9E JUMP JUMPDEST SWAP5 PUSH1 0x20 SWAP4 SWAP1 SWAP4 ADD CALLDATALOAD SWAP4 POP POP POP JUMP JUMPDEST DUP1 ISZERO ISZERO DUP2 EQ PUSH2 0xC4F JUMPI PUSH0 DUP1 REVERT JUMPDEST POP JUMP JUMPDEST PUSH0 DUP1 PUSH0 DUP1 PUSH1 0x80 DUP6 DUP8 SUB SLT ISZERO PUSH2 0xC65 JUMPI PUSH0 DUP1 REVERT JUMPDEST PUSH2 0xC6E DUP6 PUSH2 0xB9E JUMP JUMPDEST SWAP4 POP PUSH1 0x20 DUP6 ADD CALLDATALOAD SWAP3 POP PUSH1 0x40 DUP6 ADD CALLDATALOAD SWAP2 POP PUSH1 0x60 DUP6 ADD CALLDATALOAD PUSH2 0xC8C DUP2 PUSH2 0xC42 JUMP JUMPDEST SWAP4 SWAP7 SWAP3 SWAP6 POP SWAP1 SWAP4 POP POP JUMP JUMPDEST PUSH1 0x20 DUP1 DUP3 MSTORE DUP3 MLOAD DUP3 DUP3 ADD DUP2 SWAP1 MSTORE PUSH0 SWAP2 SWAP1 DUP5 DUP3 ADD SWAP1 PUSH1 0x40 DUP6 ADD SWAP1 DUP5 JUMPDEST DUP2 DUP2 LT ISZERO PUSH2 0xCCE JUMPI DUP4 MLOAD DUP4 MSTORE SWAP3 DUP5 ADD SWAP3 SWAP2 DUP5 ADD SWAP2 PUSH1 0x1 ADD PUSH2 0xCB2 JUMP JUMPDEST POP SWAP1 SWAP7 SWAP6 POP POP POP POP POP POP JUMP JUMPDEST PUSH0 PUSH1 0x20 DUP3 DUP5 SUB SLT ISZERO PUSH2 0xCEA JUMPI PUSH0 DUP1 REVERT JUMPDEST POP CALLDATALOAD SWAP2 SWAP1 POP JUMP JUMPDEST PUSH4 0x4E487B71 PUSH1 0xE0 SHL PUSH0 MSTORE PUSH1 0x32 PUSH1 0x4 MSTORE PUSH1 0x24 PUSH0 REVERT JUMPDEST PUSH4 0x4E487B71 PUSH1 0xE0 SHL PUSH0 MSTORE PUSH1 0x11 PUSH1 0x4 MSTORE PUSH1 0x24 PUSH0 REVERT JUMPDEST DUP2 DUP2 SUB DUP2 DUP2 GT ISZERO PUSH2 0xD2C JUMPI PUSH2 0xD2C PUSH2 0xD05 JUMP JUMPDEST SWAP3 SWAP2 POP POP JUMP JUMPDEST DUP1 DUP3 MUL DUP2 ISZERO DUP3 DUP3 DIV DUP5 EQ OR PUSH2 0xD2C JUMPI PUSH2 0xD2C PUSH2 0xD05 JUMP JUMPDEST DUP1 DUP3 ADD DUP1 DUP3 GT ISZERO PUSH2 0xD2C JUMPI PUSH2 0xD2C PUSH2 0xD05 JUMP JUMPDEST PUSH0 PUSH1 0x1 DUP3 ADD PUSH2 0xD6D JUMPI PUSH2 0xD6D PUSH2 0xD05 JUMP JUMPDEST POP PUSH1 0x1 ADD SWAP1 JUMP JUMPDEST PUSH0 PUSH1 0x20 DUP3 DUP5 SUB SLT ISZERO PUSH2 0xD84 JUMPI PUSH0 DUP1 REVERT JUMPDEST DUP2 MLOAD PUSH2 0xD8F DUP2 PUSH2 0xC42 JUMP JUMPDEST SWAP4 SWAP3 POP POP POP JUMP JUMPDEST PUSH0 DUP3 PUSH2 0xDB0 JUMPI PUSH4 0x4E487B71 PUSH1 0xE0 SHL PUSH0 MSTORE PUSH1 0x12 PUSH1 0x4 MSTORE PUSH1 0x24 PUSH0 REVERT JUMPDEST POP DIV SWAP1 JUMP JUMPDEST PUSH4 0x4E487B71 PUSH1 0xE0 SHL PUSH0 MSTORE PUSH1 0x31 PUSH1 0x4 MSTORE PUSH1 0x24 PUSH0 REVERT JUMPDEST PUSH4 0x4E487B71 PUSH1 0xE0 SHL PUSH0 MSTORE PUSH1 0x41 PUSH1 0x4 MSTORE PUSH1 0x24 PUSH0 REVERT INVALID LOG2 PUSH5 0x6970667358 0x22 SLT KECCAK256 0xD3 DUP4 0xC 0xC5 0xFB 0x29 PUSH1 0xC5 CALLCODE PUSH26 0x3A2407E7EE829A7AFA0A73FC730718E968E91C58745C64736F6C PUSH4 0x43000814 STOP CALLER "
				},
				"gasEstimates": {
					"creation": {
						"codeDepositCost": "720600",
						"executionCost": "infinite",
						"totalCost": "infinite"
					},
					"external": {
						"activePositions(address,uint256)": "4793",
						"getPositionsPaginated(address,uint256,uint256,bool)": "infinite",
						"getXP(address,address)": "infinite",
						"historyPositions(address,uint256)": "4792",
						"positions(uint256)": "15358",
						"protocol()": "2358",
						"releaseAll()": "infinite",
						"stake(address,uint256,uint256)": "infinite"
					}
				},
				"methodIdentifiers": {
					"activePositions(address,uint256)": "6a5908a0",
					"getPositionsPaginated(address,uint256,uint256,bool)": "6b53503a",
					"getXP(address,address)": "05e2e95d",
					"historyPositions(address,uint256)": "ac55deb6",
					"positions(uint256)": "99fbab88",
					"protocol()": "8ce74426",
					"releaseAll()": "5be7fde8",
					"stake(address,uint256,uint256)": "0c51b88f"
				}
			},
			"storageLayout": {
				"storage": [
					{
						"astId": 10,
						"contract": "YunaVault.sol:YunaVault",
						"label": "_status",
						"offset": 0,
						"slot": "0",
						"type": "t_uint256"
					},
					{
						"astId": 163,
						"contract": "YunaVault.sol:YunaVault",
						"label": "protocol",
						"offset": 0,
						"slot": "1",
						"type": "t_address"
					},
					{
						"astId": 168,
						"contract": "YunaVault.sol:YunaVault",
						"label": "activePositions",
						"offset": 0,
						"slot": "2",
						"type": "t_mapping(t_address,t_array(t_uint256)dyn_storage)"
					},
					{
						"astId": 173,
						"contract": "YunaVault.sol:YunaVault",
						"label": "historyPositions",
						"offset": 0,
						"slot": "3",
						"type": "t_mapping(t_address,t_array(t_uint256)dyn_storage)"
					},
					{
						"astId": 177,
						"contract": "YunaVault.sol:YunaVault",
						"label": "positions",
						"offset": 0,
						"slot": "4",
						"type": "t_array(t_struct(Position)161_storage)dyn_storage"
					}
				],
				"types": {
					"t_address": {
						"encoding": "inplace",
						"label": "address",
						"numberOfBytes": "20"
					},
					"t_array(t_struct(Position)161_storage)dyn_storage": {
						"base": "t_struct(Position)161_storage",
						"encoding": "dynamic_array",
						"label": "struct YunaVault.Position[]",
						"numberOfBytes": "32"
					},
					"t_array(t_uint256)dyn_storage": {
						"base": "t_uint256",
						"encoding": "dynamic_array",
						"label": "uint256[]",
						"numberOfBytes": "32"
					},
					"t_bool": {
						"encoding": "inplace",
						"label": "bool",
						"numberOfBytes": "1"
					},
					"t_mapping(t_address,t_array(t_uint256)dyn_storage)": {
						"encoding": "mapping",
						"key": "t_address",
						"label": "mapping(address => uint256[])",
						"numberOfBytes": "32",
						"value": "t_array(t_uint256)dyn_storage"
					},
					"t_struct(Position)161_storage": {
						"encoding": "inplace",
						"label": "struct YunaVault.Position",
						"members": [
							{
								"astId": 150,
								"contract": "YunaVault.sol:YunaVault",
								"label": "user",
								"offset": 0,
								"slot": "0",
								"type": "t_address"
							},
							{
								"astId": 152,
								"contract": "YunaVault.sol:YunaVault",
								"label": "token",
								"offset": 0,
								"slot": "1",
								"type": "t_address"
							},
							{
								"astId": 154,
								"contract": "YunaVault.sol:YunaVault",
								"label": "amount",
								"offset": 0,
								"slot": "2",
								"type": "t_uint256"
							},
							{
								"astId": 156,
								"contract": "YunaVault.sol:YunaVault",
								"label": "startBlock",
								"offset": 0,
								"slot": "3",
								"type": "t_uint256"
							},
							{
								"astId": 158,
								"contract": "YunaVault.sol:YunaVault",
								"label": "endBlock",
								"offset": 0,
								"slot": "4",
								"type": "t_uint256"
							},
							{
								"astId": 160,
								"contract": "YunaVault.sol:YunaVault",
								"label": "claimed",
								"offset": 0,
								"slot": "5",
								"type": "t_bool"
							}
						],
						"numberOfBytes": "192"
					},
					"t_uint256": {
						"encoding": "inplace",
						"label": "uint256",
						"numberOfBytes": "32"
					}
				}
			},
			"userdoc": {
				"kind": "user",
				"methods": {},
				"version": 1
			}
		}
	}
}