{
	"contracts/YunaVaultV2.sol": {
		"YunaVaultV2": {
			"abi": [
				{
					"inputs": [
						{
							"internalType": "address",
							"name": "_lpToken",
							"type": "address"
						},
						{
							"internalType": "address",
							"name": "_rewardToken",
							"type": "address"
						},
						{
							"internalType": "address",
							"name": "_protocol",
							"type": "address"
						}
					],
					"stateMutability": "nonpayable",
					"type": "constructor"
				},
				{
					"inputs": [
						{
							"internalType": "address",
							"name": "owner",
							"type": "address"
						}
					],
					"name": "OwnableInvalidOwner",
					"type": "error"
				},
				{
					"inputs": [
						{
							"internalType": "address",
							"name": "account",
							"type": "address"
						}
					],
					"name": "OwnableUnauthorizedAccount",
					"type": "error"
				},
				{
					"inputs": [
						{
							"internalType": "address",
							"name": "token",
							"type": "address"
						}
					],
					"name": "SafeERC20FailedOperation",
					"type": "error"
				},
				{
					"anonymous": false,
					"inputs": [
						{
							"indexed": false,
							"internalType": "uint256",
							"name": "totalDistributed",
							"type": "uint256"
						},
						{
							"indexed": false,
							"internalType": "uint256",
							"name": "callerReward",
							"type": "uint256"
						}
					],
					"name": "ClaimAll",
					"type": "event"
				},
				{
					"anonymous": false,
					"inputs": [
						{
							"indexed": true,
							"internalType": "address",
							"name": "user",
							"type": "address"
						},
						{
							"indexed": false,
							"internalType": "uint256",
							"name": "amount",
							"type": "uint256"
						}
					],
					"name": "Deposited",
					"type": "event"
				},
				{
					"anonymous": false,
					"inputs": [
						{
							"indexed": true,
							"internalType": "address",
							"name": "previousOwner",
							"type": "address"
						},
						{
							"indexed": true,
							"internalType": "address",
							"name": "newOwner",
							"type": "address"
						}
					],
					"name": "OwnershipTransferred",
					"type": "event"
				},
				{
					"anonymous": false,
					"inputs": [
						{
							"indexed": false,
							"internalType": "address",
							"name": "router",
							"type": "address"
						}
					],
					"name": "RouterSet",
					"type": "event"
				},
				{
					"anonymous": false,
					"inputs": [
						{
							"indexed": true,
							"internalType": "address",
							"name": "user",
							"type": "address"
						},
						{
							"indexed": false,
							"internalType": "uint256",
							"name": "amount",
							"type": "uint256"
						}
					],
					"name": "Withdrawn",
					"type": "event"
				},
				{
					"inputs": [],
					"name": "BP_DENOM",
					"outputs": [
						{
							"internalType": "uint256",
							"name": "",
							"type": "uint256"
						}
					],
					"stateMutability": "view",
					"type": "function"
				},
				{
					"inputs": [],
					"name": "CALLER_FEE_BP",
					"outputs": [
						{
							"internalType": "uint256",
							"name": "",
							"type": "uint256"
						}
					],
					"stateMutability": "view",
					"type": "function"
				},
				{
					"inputs": [],
					"name": "claimAll",
					"outputs": [],
					"stateMutability": "nonpayable",
					"type": "function"
				},
				{
					"inputs": [
						{
							"internalType": "address",
							"name": "userAddr",
							"type": "address"
						}
					],
					"name": "claimableReward",
					"outputs": [
						{
							"internalType": "uint256",
							"name": "",
							"type": "uint256"
						}
					],
					"stateMutability": "view",
					"type": "function"
				},
				{
					"inputs": [
						{
							"internalType": "uint256",
							"name": "amount",
							"type": "uint256"
						}
					],
					"name": "deposit",
					"outputs": [],
					"stateMutability": "nonpayable",
					"type": "function"
				},
				{
					"inputs": [
						{
							"internalType": "address",
							"name": "user",
							"type": "address"
						},
						{
							"internalType": "uint256",
							"name": "amount",
							"type": "uint256"
						}
					],
					"name": "depositFor",
					"outputs": [],
					"stateMutability": "nonpayable",
					"type": "function"
				},
				{
					"inputs": [
						{
							"internalType": "address",
							"name": "userAddr",
							"type": "address"
						}
					],
					"name": "getUserXP",
					"outputs": [
						{
							"internalType": "uint256",
							"name": "",
							"type": "uint256"
						}
					],
					"stateMutability": "view",
					"type": "function"
				},
				{
					"inputs": [],
					"name": "lastRewardBlock",
					"outputs": [
						{
							"internalType": "uint256",
							"name": "",
							"type": "uint256"
						}
					],
					"stateMutability": "view",
					"type": "function"
				},
				{
					"inputs": [],
					"name": "lpToken",
					"outputs": [
						{
							"internalType": "contract IERC20",
							"name": "",
							"type": "address"
						}
					],
					"stateMutability": "view",
					"type": "function"
				},
				{
					"inputs": [],
					"name": "owner",
					"outputs": [
						{
							"internalType": "address",
							"name": "",
							"type": "address"
						}
					],
					"stateMutability": "view",
					"type": "function"
				},
				{
					"inputs": [],
					"name": "participantCount",
					"outputs": [
						{
							"internalType": "uint256",
							"name": "",
							"type": "uint256"
						}
					],
					"stateMutability": "view",
					"type": "function"
				},
				{
					"inputs": [
						{
							"internalType": "uint256",
							"name": "",
							"type": "uint256"
						}
					],
					"name": "participants",
					"outputs": [
						{
							"internalType": "address",
							"name": "",
							"type": "address"
						}
					],
					"stateMutability": "view",
					"type": "function"
				},
				{
					"inputs": [],
					"name": "protocol",
					"outputs": [
						{
							"internalType": "address",
							"name": "",
							"type": "address"
						}
					],
					"stateMutability": "view",
					"type": "function"
				},
				{
					"inputs": [],
					"name": "remainingRewardPool",
					"outputs": [
						{
							"internalType": "uint256",
							"name": "",
							"type": "uint256"
						}
					],
					"stateMutability": "view",
					"type": "function"
				},
				{
					"inputs": [],
					"name": "renounceOwnership",
					"outputs": [],
					"stateMutability": "nonpayable",
					"type": "function"
				},
				{
					"inputs": [],
					"name": "rewardPerBlock",
					"outputs": [
						{
							"internalType": "uint256",
							"name": "",
							"type": "uint256"
						}
					],
					"stateMutability": "view",
					"type": "function"
				},
				{
					"inputs": [],
					"name": "rewardToken",
					"outputs": [
						{
							"internalType": "contract IERC20",
							"name": "",
							"type": "address"
						}
					],
					"stateMutability": "view",
					"type": "function"
				},
				{
					"inputs": [],
					"name": "router",
					"outputs": [
						{
							"internalType": "address",
							"name": "",
							"type": "address"
						}
					],
					"stateMutability": "view",
					"type": "function"
				},
				{
					"inputs": [
						{
							"internalType": "address",
							"name": "_router",
							"type": "address"
						}
					],
					"name": "setRouter",
					"outputs": [],
					"stateMutability": "nonpayable",
					"type": "function"
				},
				{
					"inputs": [],
					"name": "totalLPLocked",
					"outputs": [
						{
							"internalType": "uint256",
							"name": "",
							"type": "uint256"
						}
					],
					"stateMutability": "view",
					"type": "function"
				},
				{
					"inputs": [],
					"name": "totalXP",
					"outputs": [
						{
							"internalType": "uint256",
							"name": "",
							"type": "uint256"
						}
					],
					"stateMutability": "view",
					"type": "function"
				},
				{
					"inputs": [
						{
							"internalType": "address",
							"name": "newOwner",
							"type": "address"
						}
					],
					"name": "transferOwnership",
					"outputs": [],
					"stateMutability": "nonpayable",
					"type": "function"
				},
				{
					"inputs": [
						{
							"internalType": "address",
							"name": "",
							"type": "address"
						}
					],
					"name": "users",
					"outputs": [
						{
							"internalType": "uint256",
							"name": "balance",
							"type": "uint256"
						},
						{
							"internalType": "uint256",
							"name": "lastUpdateBlock",
							"type": "uint256"
						},
						{
							"internalType": "uint256",
							"name": "xp",
							"type": "uint256"
						}
					],
					"stateMutability": "view",
					"type": "function"
				},
				{
					"inputs": [
						{
							"internalType": "uint256",
							"name": "amount",
							"type": "uint256"
						}
					],
					"name": "withdraw",
					"outputs": [],
					"stateMutability": "nonpayable",
					"type": "function"
				},
				{
					"inputs": [],
					"name": "withdrawAll",
					"outputs": [],
					"stateMutability": "nonpayable",
					"type": "function"
				}
			],
			"devdoc": {
				"errors": {
					"OwnableInvalidOwner(address)": [
						{
							"details": "The owner is not a valid owner account. (eg. `address(0)`)"
						}
					],
					"OwnableUnauthorizedAccount(address)": [
						{
							"details": "The caller account is not authorized to perform an operation."
						}
					],
					"SafeERC20FailedOperation(address)": [
						{
							"details": "An operation with an ERC-20 token failed."
						}
					]
				},
				"kind": "dev",
				"methods": {
					"owner()": {
						"details": "Returns the address of the current owner."
					},
					"renounceOwnership()": {
						"details": "Leaves the contract without owner. It will not be possible to call `onlyOwner` functions. Can only be called by the current owner. NOTE: Renouncing ownership will leave the contract without an owner, thereby disabling any functionality that is only available to the owner."
					},
					"transferOwnership(address)": {
						"details": "Transfers ownership of the contract to a new account (`newOwner`). Can only be called by the current owner."
					}
				},
				"version": 1
			},
			"evm": {
				"assembly": "    /* \"contracts/YunaVaultV2.sol\":325:6704  contract YunaVaultV2 is ReentrancyGuard, Ownable {... */\n  0x0100\n  0x40\n  swap1\n  dup1\n  dup3\n  mstore\n  jumpi(tag_6, callvalue)\n  0x60\n  dup2\n  bytecodeSize\n  dup1\n  codesize\n  sub\n  dup1\n  swap2\n  tag_5\n  dup3\n  dup6\n  tag_1\n  jump\t// in\ntag_5:\n  dup4\n  codecopy\n  dup2\n  add\n  sub\n  slt\n  tag_6\n  jumpi\n  tag_8\n  dup2\n  tag_2\n  jump\t// in\ntag_8:\n  tag_9\n  dup4\n  tag_10\n  0x20\n  dup6\n  add\n  tag_2\n  jump\t// in\ntag_10:\n  swap4\n  add\n  tag_2\n  jump\t// in\ntag_9:\n  swap2\n  0x00\n  swap3\n    /* \"@openzeppelin/contracts/security/ReentrancyGuard.sol\":1716:1717  1 */\n  0x01\n    /* \"contracts/YunaVaultV2.sol\":325:6704  contract YunaVaultV2 is ReentrancyGuard, Ownable {... */\n  dup5\n  sstore\n    /* \"contracts/YunaVaultV2.sol\":1417:1427  msg.sender */\n  caller\n    /* \"@openzeppelin/contracts/access/Ownable.sol\":1273:1299  initialOwner == address(0) */\n  iszero\n    /* \"@openzeppelin/contracts/access/Ownable.sol\":1269:1364  if (initialOwner == address(0)) {... */\n  tag_11\n  jumpi\n    /* \"@openzeppelin/contracts/security/ReentrancyGuard.sol\":1716:1717  1 */\n  0x01\n    /* \"contracts/YunaVaultV2.sol\":325:6704  contract YunaVaultV2 is ReentrancyGuard, Ownable {... */\n  dup1\n  sload\n    /* \"contracts/YunaVaultV2.sol\":1417:1427  msg.sender */\n  caller\n  not(sub(shl(0xa0, 0x01), 0x01))\n    /* \"contracts/YunaVaultV2.sol\":325:6704  contract YunaVaultV2 is ReentrancyGuard, Ownable {... */\n  dup3\n  and\n  dup2\n  or\n  swap1\n  swap3\n  sstore\n  dup7\n  mload\n  swap5\n  0x20\n  swap5\n  dup7\n  swap5\n    /* \"contracts/YunaVaultV2.sol\":1572:1611  IERC20Metadata(_rewardToken).decimals() */\n  0x04\n  swap5\n    /* \"contracts/YunaVaultV2.sol\":325:6704  contract YunaVaultV2 is ReentrancyGuard, Ownable {... */\n  dup7\n  swap5\n  swap2\n  swap4\n  sub(shl(0xa0, 0x01), 0x01)\n  swap4\n  swap3\n  dup5\n  swap3\n    /* \"contracts/YunaVaultV2.sol\":1417:1427  msg.sender */\n  swap1\n    /* \"contracts/YunaVaultV2.sol\":325:6704  contract YunaVaultV2 is ReentrancyGuard, Ownable {... */\n  dup4\n  and\n    /* \"@openzeppelin/contracts/access/Ownable.sol\":3052:3092  OwnershipTransferred(oldOwner, newOwner) */\n  0x8be0079c531659141344cd1fd0a4f28419497f9722a3daafe3b4186f6b6457e0\n  dup14\n  dup1\n  log3\n    /* \"contracts/YunaVaultV2.sol\":325:6704  contract YunaVaultV2 is ReentrancyGuard, Ownable {... */\n  and\n    /* \"contracts/YunaVaultV2.sol\":1440:1466  lpToken = IERC20(_lpToken) */\n  0x80\n  mstore\n    /* \"contracts/YunaVaultV2.sol\":325:6704  contract YunaVaultV2 is ReentrancyGuard, Ownable {... */\n  and\n    /* \"contracts/YunaVaultV2.sol\":1477:1511  rewardToken = IERC20(_rewardToken) */\n  swap1\n  dup2\n    /* \"contracts/YunaVaultV2.sol\":325:6704  contract YunaVaultV2 is ReentrancyGuard, Ownable {... */\n  0xa0\n    /* \"contracts/YunaVaultV2.sol\":1477:1511  rewardToken = IERC20(_rewardToken) */\n  mstore\n    /* \"contracts/YunaVaultV2.sol\":1522:1542  protocol = _protocol */\n  0xc0\n  mstore\n    /* \"contracts/YunaVaultV2.sol\":325:6704  contract YunaVaultV2 is ReentrancyGuard, Ownable {... */\n  shl(0xe0, 0x313ce567)\n    /* \"contracts/YunaVaultV2.sol\":1572:1611  IERC20Metadata(_rewardToken).decimals() */\n  dup3\n  mstore\n  gas\n  staticcall\n  dup1\n  iszero\n  tag_13\n  jumpi\n  dup3\n  swap1\n  tag_15\n  jumpi\ntag_16:\n    /* \"contracts/YunaVaultV2.sol\":325:6704  contract YunaVaultV2 is ReentrancyGuard, Ownable {... */\n  0xff\n  swap2\n  pop\n  and\n  0x4d\n  dup2\n  gt\n  tag_17\n  jumpi\n  0x0a\n  exp\n    /* \"contracts/YunaVaultV2.sol\":1698:1709  200_000_000 */\n  swap1\n  0x0bebc200\n    /* \"contracts/YunaVaultV2.sol\":325:6704  contract YunaVaultV2 is ReentrancyGuard, Ownable {... */\n  swap2\n  dup1\n  dup4\n  mul\n  swap3\n  dup4\n  div\n  sub\n  tag_19\n  jumpi\n  pop\n    /* \"contracts/YunaVaultV2.sol\":1646:1652  52_560 */\n  0xcd50\n    /* \"contracts/YunaVaultV2.sol\":325:6704  contract YunaVaultV2 is ReentrancyGuard, Ownable {... */\n  swap1\n  div\n  0xe0\n    /* \"contracts/YunaVaultV2.sol\":1680:1745  rewardPerBlock = (200_000_000 * (10 ** decimals)) / blocksPerYear */\n  mstore\n    /* \"contracts/YunaVaultV2.sol\":1776:1788  block.number */\n  number\n    /* \"contracts/YunaVaultV2.sol\":1758:1788  lastRewardBlock = block.number */\n  0x03\n    /* \"contracts/YunaVaultV2.sol\":325:6704  contract YunaVaultV2 is ReentrancyGuard, Ownable {... */\n  sstore\n  mload\n  dataSize(sub_0)\n  swap1\n  dup2\n  dataOffset(sub_0)\n  dup3\n  codecopy\n    /* \"contracts/YunaVaultV2.sol\":1440:1466  lpToken = IERC20(_lpToken) */\n  0x80\n    /* \"contracts/YunaVaultV2.sol\":325:6704  contract YunaVaultV2 is ReentrancyGuard, Ownable {... */\n  mload\n  dup2\n  assignImmutable(\"0x32dc42f894e5a4d4b23942d0616a19a04bbfd803207f066ba76d13d1733bb4d4\")\n  mload(0xa0)\n  dup2\n  assignImmutable(\"0x69de3b38836c938ac93bb31643655e6e0a011af0f354a009a432084d0f963864\")\n    /* \"contracts/YunaVaultV2.sol\":1522:1542  protocol = _protocol */\n  0xc0\n    /* \"contracts/YunaVaultV2.sol\":325:6704  contract YunaVaultV2 is ReentrancyGuard, Ownable {... */\n  mload\n  dup2\n  assignImmutable(\"0x859a6a23943f5d7286393d65629fb81b6943c202b5ed2617fb4fcc1cbe2bc943\")\n  mload(0xe0)\n  dup2\n  assignImmutable(\"0xef2554acf1f0b6d66eb4be042a8f7ca38735a42ab84dc1854a7ed9713c904901\")\n  return\ntag_19:\n  shl(0xe0, 0x4e487b71)\n  dup2\n  mstore\n  0x11\n    /* \"contracts/YunaVaultV2.sol\":1572:1611  IERC20Metadata(_rewardToken).decimals() */\n  0x04\n    /* \"contracts/YunaVaultV2.sol\":325:6704  contract YunaVaultV2 is ReentrancyGuard, Ownable {... */\n  mstore\n  0x24\n  swap1\n  revert\ntag_17:\n  shl(0xe0, 0x4e487b71)\n  dup3\n  mstore\n  0x11\n    /* \"contracts/YunaVaultV2.sol\":1572:1611  IERC20Metadata(_rewardToken).decimals() */\n  0x04\n    /* \"contracts/YunaVaultV2.sol\":325:6704  contract YunaVaultV2 is ReentrancyGuard, Ownable {... */\n  mstore\n  0x24\n  dup3\n  revert\n    /* \"contracts/YunaVaultV2.sol\":1572:1611  IERC20Metadata(_rewardToken).decimals() */\ntag_15:\n  pop\n    /* \"contracts/YunaVaultV2.sol\":325:6704  contract YunaVaultV2 is ReentrancyGuard, Ownable {... */\n  0x20\n    /* \"contracts/YunaVaultV2.sol\":1572:1611  IERC20Metadata(_rewardToken).decimals() */\n  dup2\n  returndatasize\n  dup3\n  gt\n  tag_21\n  jumpi\ntag_22:\n  dup2\n  tag_23\n    /* \"contracts/YunaVaultV2.sol\":325:6704  contract YunaVaultV2 is ReentrancyGuard, Ownable {... */\n  0x20\n    /* \"contracts/YunaVaultV2.sol\":1572:1611  IERC20Metadata(_rewardToken).decimals() */\n  swap4\n  dup4\n  tag_1\n  jump\t// in\ntag_23:\n  dup2\n  add\n    /* \"contracts/YunaVaultV2.sol\":325:6704  contract YunaVaultV2 is ReentrancyGuard, Ownable {... */\n  sub\n  slt\n  tag_26\n  jumpi\n  mload\n  0xff\n  dup2\n  and\n  dup2\n  sub\n  tag_26\n  jumpi\n  0xff\n    /* \"contracts/YunaVaultV2.sol\":1572:1611  IERC20Metadata(_rewardToken).decimals() */\n  swap1\n  jump(tag_16)\n    /* \"contracts/YunaVaultV2.sol\":325:6704  contract YunaVaultV2 is ReentrancyGuard, Ownable {... */\ntag_26:\n  pop\n  dup1\n  revert\n    /* \"contracts/YunaVaultV2.sol\":1572:1611  IERC20Metadata(_rewardToken).decimals() */\ntag_21:\n  returndatasize\n  swap2\n  pop\n  jump(tag_22)\ntag_13:\n    /* \"contracts/YunaVaultV2.sol\":325:6704  contract YunaVaultV2 is ReentrancyGuard, Ownable {... */\n  dup4\n  mload\n  returndatasize\n  dup5\n  dup3\n  returndatacopy\n  returndatasize\n  swap1\n  revert\n    /* \"@openzeppelin/contracts/access/Ownable.sol\":1269:1364  if (initialOwner == address(0)) {... */\ntag_11:\n    /* \"contracts/YunaVaultV2.sol\":325:6704  contract YunaVaultV2 is ReentrancyGuard, Ownable {... */\n  dup5\n  mload\n  shl(0xe0, 0x1e4fbdf7)\n    /* \"@openzeppelin/contracts/access/Ownable.sol\":1322:1353  OwnableInvalidOwner(address(0)) */\n  dup2\n  mstore\n  0x04\n  dup2\n  add\n    /* \"contracts/YunaVaultV2.sol\":325:6704  contract YunaVaultV2 is ReentrancyGuard, Ownable {... */\n  dup6\n  swap1\n  mstore\n  0x24\n  swap1\n    /* \"@openzeppelin/contracts/access/Ownable.sol\":1322:1353  OwnableInvalidOwner(address(0)) */\n  revert\n    /* \"contracts/YunaVaultV2.sol\":325:6704  contract YunaVaultV2 is ReentrancyGuard, Ownable {... */\ntag_6:\n  0x00\n  dup1\n  revert\ntag_1:\n  0x1f\n  swap1\n  swap2\n  add\n  not(0x1f)\n  and\n  dup2\n  add\n  swap1\n  sub(shl(0x40, 0x01), 0x01)\n  dup3\n  gt\n  swap1\n  dup3\n  lt\n  or\n  tag_28\n  jumpi\n  0x40\n  mstore\n  jump\t// out\ntag_28:\n  mstore(0x00, shl(0xe0, 0x4e487b71))\n  mstore(0x04, 0x41)\n  revert(0x00, 0x24)\ntag_2:\n  mload\n  swap1\n  sub(shl(0xa0, 0x01), 0x01)\n  dup3\n  and\n  dup3\n  sub\n  tag_6\n  jumpi\n  jump\t// out\nstop\n\nsub_0: assembly {\n        /* \"contracts/YunaVaultV2.sol\":325:6704  contract YunaVaultV2 is ReentrancyGuard, Ownable {... */\n      0x40\n      0x80\n      dup2\n      mstore\n      0x04\n      swap1\n      dup2\n      calldatasize\n      lt\n      iszero\n      tag_17\n      jumpi\n      0x00\n      dup1\n      revert\n    tag_17:\n      0x00\n      swap2\n      dup3\n      calldataload\n      0xe0\n      shr\n      swap1\n      dup2\n      0x2e1a7d4d\n      eq\n      tag_19\n      jumpi\n      dup2\n      0x2f4f21e2\n      eq\n      tag_21\n      jumpi\n      dup2\n      0x35c1d349\n      eq\n      tag_23\n      jumpi\n      dup2\n      0x362f04c0\n      eq\n      tag_25\n      jumpi\n      dup2\n      0x5fcbd285\n      eq\n      tag_27\n      jumpi\n      dup2\n      0x715018a6\n      eq\n      tag_29\n      jumpi\n      dup2\n      0x71bf8623\n      eq\n      tag_31\n      jumpi\n      dup2\n      0x853828b6\n      eq\n      tag_33\n      jumpi\n      dup2\n      0x8ae39cac\n      eq\n      tag_35\n      jumpi\n      dup2\n      0x8ce74426\n      eq\n      tag_37\n      jumpi\n      dup2\n      0x8da5cb5b\n      eq\n      tag_39\n      jumpi\n      dup2\n      0xa87430ba\n      eq\n      tag_41\n      jumpi\n      dup2\n      0xa9f8d181\n      eq\n      tag_43\n      jumpi\n      dup2\n      0xaa93bfa8\n      eq\n      tag_45\n      jumpi\n      dup2\n      0xb6b55f25\n      eq\n      tag_47\n      jumpi\n      dup2\n      0xc0d78655\n      eq\n      tag_49\n      jumpi\n      dup2\n      0xd1058e59\n      eq\n      tag_51\n      jumpi\n      dup2\n      0xe7a0fb9b\n      eq\n      tag_53\n      jumpi\n      dup2\n      0xe9503425\n      eq\n      tag_55\n      jumpi\n      dup2\n      0xe9e7eb35\n      eq\n      tag_57\n      jumpi\n      dup2\n      0xf2fde38b\n      eq\n      tag_59\n      jumpi\n      dup2\n      0xf7c618c1\n      eq\n      tag_61\n      jumpi\n      dup2\n      0xf7e4cd0d\n      eq\n      tag_63\n      jumpi\n        /* \"contracts/YunaVaultV2.sol\":6252:6284  lpToken.balanceOf(address(this)) */\n      pop\n      dup1\n        /* \"contracts/YunaVaultV2.sol\":325:6704  contract YunaVaultV2 is ReentrancyGuard, Ownable {... */\n      0xf887ea40\n        /* \"contracts/YunaVaultV2.sol\":6252:6284  lpToken.balanceOf(address(this)) */\n      eq\n      tag_65\n      jumpi\n        /* \"contracts/YunaVaultV2.sol\":325:6704  contract YunaVaultV2 is ReentrancyGuard, Ownable {... */\n      0xfc7039e0\n      eq\n      tag_67\n      jumpi\n      0x00\n      dup1\n      revert\n    tag_67:\n      jumpi(tag_71, callvalue)\n      dup2\n      add(calldatasize, not(0x03))\n      slt\n      tag_71\n      jumpi\n      0x20\n      swap1\n      mload\n        /* \"contracts/YunaVaultV2.sol\":654:656  50 */\n      0x32\n        /* \"contracts/YunaVaultV2.sol\":325:6704  contract YunaVaultV2 is ReentrancyGuard, Ownable {... */\n      dup2\n      mstore\n      return\n    tag_71:\n      pop\n      dup1\n      revert\n    tag_65:\n      pop\n      jumpi(tag_71, callvalue)\n      dup2\n      add(calldatasize, not(0x03))\n      slt\n      tag_71\n      jumpi\n        /* \"contracts/YunaVaultV2.sol\":584:605  address public router */\n      0x02\n        /* \"contracts/YunaVaultV2.sol\":325:6704  contract YunaVaultV2 is ReentrancyGuard, Ownable {... */\n      sload\n      swap1\n      mload\n      sub(shl(0xa0, 0x01), 0x01)\n      swap1\n      swap2\n      and\n      dup2\n      mstore\n      0x20\n      swap1\n      return\n    tag_63:\n      swap2\n      swap1\n      pop\n      jumpi(tag_89, callvalue)\n      dup3\n      add(calldatasize, not(0x03))\n      slt\n      tag_89\n      jumpi\n      dup1\n      mload\n      shl(0xe0, 0x70a08231)\n        /* \"contracts/YunaVaultV2.sol\":6252:6284  lpToken.balanceOf(address(this)) */\n      dup2\n      mstore\n        /* \"contracts/YunaVaultV2.sol\":6278:6282  this */\n      address\n        /* \"contracts/YunaVaultV2.sol\":6252:6284  lpToken.balanceOf(address(this)) */\n      dup4\n      dup3\n      add\n        /* \"contracts/YunaVaultV2.sol\":325:6704  contract YunaVaultV2 is ReentrancyGuard, Ownable {... */\n      mstore\n        /* \"contracts/YunaVaultV2.sol\":6252:6284  lpToken.balanceOf(address(this)) */\n      0x20\n        /* \"contracts/YunaVaultV2.sol\":325:6704  contract YunaVaultV2 is ReentrancyGuard, Ownable {... */\n      dup2\n      0x24\n      dup2\n        /* \"contracts/YunaVaultV2.sol\":6252:6259  lpToken */\n      immutable(\"0x32dc42f894e5a4d4b23942d0616a19a04bbfd803207f066ba76d13d1733bb4d4\")\n      sub(shl(0xa0, 0x01), 0x01)\n        /* \"contracts/YunaVaultV2.sol\":325:6704  contract YunaVaultV2 is ReentrancyGuard, Ownable {... */\n      and\n        /* \"contracts/YunaVaultV2.sol\":6252:6284  lpToken.balanceOf(address(this)) */\n      gas\n      staticcall\n      swap3\n      dup4\n      iszero\n      tag_81\n      jumpi\n      dup5\n      swap4\n      tag_83\n      jumpi\n        /* \"contracts/YunaVaultV2.sol\":325:6704  contract YunaVaultV2 is ReentrancyGuard, Ownable {... */\n    tag_84:\n        /* \"contracts/YunaVaultV2.sol\":6252:6284  lpToken.balanceOf(address(this)) */\n      0x20\n        /* \"contracts/YunaVaultV2.sol\":325:6704  contract YunaVaultV2 is ReentrancyGuard, Ownable {... */\n      dup5\n      dup5\n      mload\n      swap1\n      dup2\n      mstore\n      return\n        /* \"contracts/YunaVaultV2.sol\":6252:6284  lpToken.balanceOf(address(this)) */\n    tag_83:\n      swap1\n      swap2\n      swap3\n      pop\n      0x20\n      swap1\n      returndatasize\n      dup3\n      gt\n      tag_85\n      jumpi\n    tag_86:\n        /* \"contracts/YunaVaultV2.sol\":325:6704  contract YunaVaultV2 is ReentrancyGuard, Ownable {... */\n      0x1f\n      dup3\n      add\n      not(0x1f)\n      and\n      dup4\n      add\n      swap1\n      0xffffffffffffffff\n      dup3\n      gt\n      dup5\n      dup4\n      lt\n      or\n      tag_87\n      jumpi\n      pop\n        /* \"contracts/YunaVaultV2.sol\":6252:6284  lpToken.balanceOf(address(this)) */\n      0x20\n        /* \"contracts/YunaVaultV2.sol\":325:6704  contract YunaVaultV2 is ReentrancyGuard, Ownable {... */\n      swap2\n      dup4\n      swap2\n      dup6\n      mstore\n        /* \"contracts/YunaVaultV2.sol\":6252:6284  lpToken.balanceOf(address(this)) */\n      dup2\n      add\n        /* \"contracts/YunaVaultV2.sol\":325:6704  contract YunaVaultV2 is ReentrancyGuard, Ownable {... */\n      sub\n      slt\n      tag_89\n      jumpi\n        /* \"contracts/YunaVaultV2.sol\":6252:6284  lpToken.balanceOf(address(this)) */\n      0x20\n        /* \"contracts/YunaVaultV2.sol\":325:6704  contract YunaVaultV2 is ReentrancyGuard, Ownable {... */\n      swap3\n      pop\n      mload\n        /* \"contracts/YunaVaultV2.sol\":6252:6284  lpToken.balanceOf(address(this)) */\n      swap1\n      0x00\n      dup1\n      jump(tag_84)\n        /* \"contracts/YunaVaultV2.sol\":325:6704  contract YunaVaultV2 is ReentrancyGuard, Ownable {... */\n    tag_89:\n      dup3\n      dup1\n      revert\n    tag_87:\n      shl(0xe0, 0x4e487b71)\n      dup7\n      mstore\n      0x41\n      swap1\n      mstore\n      0x24\n      dup6\n      revert\n        /* \"contracts/YunaVaultV2.sol\":6252:6284  lpToken.balanceOf(address(this)) */\n    tag_85:\n      returndatasize\n      swap2\n      pop\n      jump(tag_86)\n    tag_81:\n        /* \"contracts/YunaVaultV2.sol\":325:6704  contract YunaVaultV2 is ReentrancyGuard, Ownable {... */\n      dup3\n      mload\n      returndatasize\n      dup7\n      dup3\n      returndatacopy\n      returndatasize\n      swap1\n      revert\n    tag_61:\n      pop\n      pop\n      jumpi(tag_71, callvalue)\n      dup2\n      add(calldatasize, not(0x03))\n      slt\n      tag_71\n      jumpi\n      mload\n        /* \"contracts/YunaVaultV2.sol\":454:489  IERC20 public immutable rewardToken */\n      immutable(\"0x69de3b38836c938ac93bb31643655e6e0a011af0f354a009a432084d0f963864\")\n      sub(shl(0xa0, 0x01), 0x01)\n        /* \"contracts/YunaVaultV2.sol\":325:6704  contract YunaVaultV2 is ReentrancyGuard, Ownable {... */\n      and\n      dup2\n      mstore\n      0x20\n      swap1\n      return\n    tag_59:\n      swap1\n      pop\n      jumpi(tag_89, callvalue)\n      jumpi(tag_89, slt(add(not(0x03), calldatasize), 0x20))\n      tag_99\n      tag_1\n      jump\t// in\n    tag_99:\n        /* \"@openzeppelin/contracts/access/Ownable.sol\":1500:1562  modifier onlyOwner() {... */\n      swap1\n      tag_100\n      tag_3\n      jump\t// in\n    tag_100:\n      sub(shl(0xa0, 0x01), 0x01)\n        /* \"contracts/YunaVaultV2.sol\":325:6704  contract YunaVaultV2 is ReentrancyGuard, Ownable {... */\n      swap2\n      dup3\n      and\n      swap3\n        /* \"@openzeppelin/contracts/access/Ownable.sol\":2627:2649  newOwner == address(0) */\n      dup4\n      iszero\n        /* \"@openzeppelin/contracts/access/Ownable.sol\":2623:2714  if (newOwner == address(0)) {... */\n      tag_101\n      jumpi\n        /* \"contracts/YunaVaultV2.sol\":325:6704  contract YunaVaultV2 is ReentrancyGuard, Ownable {... */\n      pop\n      pop\n      sload(0x01)\n      dup3\n      shl(0xa0, 0xffffffffffffffffffffffff)\n      dup3\n      and\n      or\n      0x01\n      sstore\n      and\n        /* \"@openzeppelin/contracts/access/Ownable.sol\":3052:3092  OwnershipTransferred(oldOwner, newOwner) */\n      0x8be0079c531659141344cd1fd0a4f28419497f9722a3daafe3b4186f6b6457e0\n      dup4\n      dup1\n      log3\n        /* \"contracts/YunaVaultV2.sol\":325:6704  contract YunaVaultV2 is ReentrancyGuard, Ownable {... */\n      dup1\n      return\n        /* \"@openzeppelin/contracts/access/Ownable.sol\":2623:2714  if (newOwner == address(0)) {... */\n    tag_101:\n        /* \"contracts/YunaVaultV2.sol\":325:6704  contract YunaVaultV2 is ReentrancyGuard, Ownable {... */\n      mload\n      shl(0xe0, 0x1e4fbdf7)\n        /* \"@openzeppelin/contracts/access/Ownable.sol\":2672:2703  OwnableInvalidOwner(address(0)) */\n      dup2\n      mstore\n      swap1\n      dup2\n      add\n        /* \"contracts/YunaVaultV2.sol\":325:6704  contract YunaVaultV2 is ReentrancyGuard, Ownable {... */\n      dup5\n      swap1\n      mstore\n      0x24\n      swap1\n        /* \"@openzeppelin/contracts/access/Ownable.sol\":2672:2703  OwnableInvalidOwner(address(0)) */\n      revert\n        /* \"contracts/YunaVaultV2.sol\":325:6704  contract YunaVaultV2 is ReentrancyGuard, Ownable {... */\n    tag_57:\n      pop\n      pop\n      jumpi(tag_71, callvalue)\n      jumpi(tag_71, slt(add(not(0x03), calldatasize), 0x20))\n      0x20\n      swap2\n      dup2\n      swap1\n      sub(shl(0xa0, 0x01), 0x01)\n      tag_107\n      tag_1\n      jump\t// in\n    tag_107:\n      and\n      dup2\n      mstore\n        /* \"contracts/YunaVaultV2.sol\":6510:6515  users */\n      0x05\n        /* \"contracts/YunaVaultV2.sol\":325:6704  contract YunaVaultV2 is ReentrancyGuard, Ownable {... */\n      dup5\n      mstore\n      keccak256\n        /* \"contracts/YunaVaultV2.sol\":6549:6553  u.xp */\n      swap1\n      0x02\n      dup3\n      add\n        /* \"contracts/YunaVaultV2.sol\":325:6704  contract YunaVaultV2 is ReentrancyGuard, Ownable {... */\n      sload\n        /* \"contracts/YunaVaultV2.sol\":6570:6587  u.lastUpdateBlock */\n      swap2\n        /* \"contracts/YunaVaultV2.sol\":325:6704  contract YunaVaultV2 is ReentrancyGuard, Ownable {... */\n      0x01\n        /* \"contracts/YunaVaultV2.sol\":6570:6587  u.lastUpdateBlock */\n      dup2\n      add\n        /* \"contracts/YunaVaultV2.sol\":325:6704  contract YunaVaultV2 is ReentrancyGuard, Ownable {... */\n      sload\n        /* \"contracts/YunaVaultV2.sol\":6570:6591  u.lastUpdateBlock > 0 */\n      dup1\n        /* \"contracts/YunaVaultV2.sol\":6566:6672  if (u.lastUpdateBlock > 0) {... */\n      tag_108\n      jumpi\n        /* \"contracts/YunaVaultV2.sol\":325:6704  contract YunaVaultV2 is ReentrancyGuard, Ownable {... */\n    tag_109:\n      pop\n      pop\n      mload\n      swap1\n      dup2\n      mstore\n      return\n        /* \"contracts/YunaVaultV2.sol\":6566:6672  if (u.lastUpdateBlock > 0) {... */\n    tag_108:\n        /* \"contracts/YunaVaultV2.sol\":6608:6660  xp += (block.number - u.lastUpdateBlock) * u.balance */\n      tag_110\n        /* \"contracts/YunaVaultV2.sol\":6615:6627  block.number */\n      swap3\n      swap4\n      swap2\n        /* \"contracts/YunaVaultV2.sol\":6615:6647  block.number - u.lastUpdateBlock */\n      tag_111\n        /* \"contracts/YunaVaultV2.sol\":6614:6660  (block.number - u.lastUpdateBlock) * u.balance */\n      tag_112\n        /* \"contracts/YunaVaultV2.sol\":6615:6627  block.number */\n      swap3\n      number\n        /* \"contracts/YunaVaultV2.sol\":6615:6647  block.number - u.lastUpdateBlock */\n      tag_8\n      jump\t// in\n    tag_111:\n        /* \"contracts/YunaVaultV2.sol\":325:6704  contract YunaVaultV2 is ReentrancyGuard, Ownable {... */\n      swap1\n      sload\n        /* \"contracts/YunaVaultV2.sol\":6614:6660  (block.number - u.lastUpdateBlock) * u.balance */\n      swap1\n      tag_9\n      jump\t// in\n    tag_112:\n        /* \"contracts/YunaVaultV2.sol\":6608:6660  xp += (block.number - u.lastUpdateBlock) * u.balance */\n      swap1\n      tag_5\n      jump\t// in\n    tag_110:\n        /* \"contracts/YunaVaultV2.sol\":6566:6672  if (u.lastUpdateBlock > 0) {... */\n      swap1\n      0x00\n      dup1\n      jump(tag_109)\n        /* \"contracts/YunaVaultV2.sol\":325:6704  contract YunaVaultV2 is ReentrancyGuard, Ownable {... */\n    tag_55:\n      pop\n      pop\n      jumpi(tag_71, callvalue)\n      jumpi(tag_71, slt(add(not(0x03), calldatasize), 0x20))\n      0x20\n      swap1\n      tag_117\n      tag_118\n      tag_1\n      jump\t// in\n    tag_118:\n      tag_15\n      jump\t// in\n    tag_117:\n      swap1\n      mload\n      swap1\n      dup2\n      mstore\n      return\n    tag_53:\n      pop\n      pop\n      jumpi(tag_71, callvalue)\n      dup2\n      add(calldatasize, not(0x03))\n      slt\n      tag_71\n      jumpi\n      0x20\n      swap1\n      tag_117\n      tag_16\n      jump\t// in\n    tag_51:\n      dup4\n      jumpi(tag_126, callvalue)\n      dup1\n      add(calldatasize, not(0x03))\n      slt\n      tag_126\n      jumpi\n        /* \"@openzeppelin/contracts/security/ReentrancyGuard.sol\":2227:2330  modifier nonReentrant() {... */\n      tag_128\n      tag_4\n      jump\t// in\n    tag_128:\n        /* \"@openzeppelin/contracts/security/ReentrancyGuard.sol\":2292:2293  _ */\n      tag_129\n      tag_14\n      jump\t// in\n    tag_129:\n        /* \"@openzeppelin/contracts/security/ReentrancyGuard.sol\":1716:1717  1 */\n      0x01\n        /* \"@openzeppelin/contracts/security/ReentrancyGuard.sol\":1759:1760  2 */\n      dup2\n      sstore\n        /* \"contracts/YunaVaultV2.sol\":325:6704  contract YunaVaultV2 is ReentrancyGuard, Ownable {... */\n      dup1\n      return\n    tag_126:\n      dup1\n      revert\n    tag_49:\n      swap2\n      swap1\n      pop\n      jumpi(tag_89, callvalue)\n      jumpi(tag_89, slt(add(not(0x03), calldatasize), 0x20))\n      tag_134\n      tag_1\n      jump\t// in\n    tag_134:\n        /* \"@openzeppelin/contracts/access/Ownable.sol\":1500:1562  modifier onlyOwner() {... */\n      tag_135\n      tag_3\n      jump\t// in\n    tag_135:\n      sub(shl(0xa0, 0x01), 0x01)\n        /* \"contracts/YunaVaultV2.sol\":325:6704  contract YunaVaultV2 is ReentrancyGuard, Ownable {... */\n      and\n      swap2\n        /* \"contracts/YunaVaultV2.sol\":1878:1899  _router != address(0) */\n      dup3\n      iszero\n        /* \"contracts/YunaVaultV2.sol\":325:6704  contract YunaVaultV2 is ReentrancyGuard, Ownable {... */\n      tag_136\n      jumpi\n      pop\n        /* \"contracts/YunaVaultV2.sol\":1927:1943  router = _router */\n      0x02\n        /* \"contracts/YunaVaultV2.sol\":325:6704  contract YunaVaultV2 is ReentrancyGuard, Ownable {... */\n      dup1\n      sload\n      not(sub(shl(0xa0, 0x01), 0x01))\n      and\n      dup4\n      or\n      swap1\n      sstore\n      mload\n      swap1\n      dup2\n      mstore\n        /* \"contracts/YunaVaultV2.sol\":1959:1977  RouterSet(_router) */\n      0xc6b438e6a8a59579ce6a4406cbd203b740e0d47b458aae6596339bcd40c40d15\n      swap1\n        /* \"contracts/YunaVaultV2.sol\":325:6704  contract YunaVaultV2 is ReentrancyGuard, Ownable {... */\n      0x20\n      swap1\n        /* \"contracts/YunaVaultV2.sol\":1959:1977  RouterSet(_router) */\n      log1\n        /* \"contracts/YunaVaultV2.sol\":325:6704  contract YunaVaultV2 is ReentrancyGuard, Ownable {... */\n      dup1\n      return\n    tag_136:\n      0x20\n      0x64\n      swap3\n      mload\n      swap2\n      shl(0xe5, 0x461bcd)\n      dup4\n      mstore\n      dup3\n      add\n      mstore\n      0x0c\n      0x24\n      dup3\n      add\n      mstore\n      shl(0xa0, 0x7a65726f2061646472657373)\n      0x44\n      dup3\n      add\n      mstore\n      revert\n    tag_47:\n      dup4\n      swap1\n      jumpi(tag_71, callvalue)\n      jumpi(tag_71, slt(add(not(0x03), calldatasize), 0x20))\n        /* \"contracts/YunaVaultV2.sol\":2603:2609  amount */\n      tag_129\n        /* \"@openzeppelin/contracts/security/ReentrancyGuard.sol\":2227:2330  modifier nonReentrant() {... */\n      swap1\n      tag_143\n      tag_4\n      jump\t// in\n    tag_143:\n        /* \"contracts/YunaVaultV2.sol\":325:6704  contract YunaVaultV2 is ReentrancyGuard, Ownable {... */\n      calldataload\n        /* \"contracts/YunaVaultV2.sol\":2579:2589  msg.sender */\n      caller\n      caller\n        /* \"contracts/YunaVaultV2.sol\":2603:2609  amount */\n      tag_6\n      jump\t// in\n        /* \"contracts/YunaVaultV2.sol\":325:6704  contract YunaVaultV2 is ReentrancyGuard, Ownable {... */\n    tag_45:\n      swap1\n      pop\n      jumpi(tag_89, callvalue)\n      dup3\n      add(calldatasize, not(0x03))\n      slt\n      tag_89\n      jumpi\n      0x20\n      swap3\n      pop\n      sload\n      swap1\n      mload\n      swap1\n      dup2\n      mstore\n      return\n    tag_43:\n      pop\n      pop\n      jumpi(tag_71, callvalue)\n      dup2\n      add(calldatasize, not(0x03))\n      slt\n      tag_71\n      jumpi\n      0x20\n      swap1\n      sload(0x03)\n      swap1\n      mload\n      swap1\n      dup2\n      mstore\n      return\n    tag_41:\n      pop\n      pop\n      jumpi(tag_71, callvalue)\n      jumpi(tag_71, slt(add(not(0x03), calldatasize), 0x20))\n      0x60\n      swap2\n      dup2\n      swap1\n      sub(shl(0xa0, 0x01), 0x01)\n      tag_156\n      tag_1\n      jump\t// in\n    tag_156:\n      and\n      dup2\n      mstore\n        /* \"contracts/YunaVaultV2.sol\":889:926  mapping(address => User) public users */\n      0x05\n        /* \"contracts/YunaVaultV2.sol\":325:6704  contract YunaVaultV2 is ReentrancyGuard, Ownable {... */\n      0x20\n      mstore\n      keccak256\n      dup1\n      sload\n        /* \"contracts/YunaVaultV2.sol\":889:926  mapping(address => User) public users */\n      swap2\n      0x02\n        /* \"contracts/YunaVaultV2.sol\":325:6704  contract YunaVaultV2 is ReentrancyGuard, Ownable {... */\n      0x01\n        /* \"contracts/YunaVaultV2.sol\":889:926  mapping(address => User) public users */\n      dup4\n      add\n        /* \"contracts/YunaVaultV2.sol\":325:6704  contract YunaVaultV2 is ReentrancyGuard, Ownable {... */\n      sload\n        /* \"contracts/YunaVaultV2.sol\":889:926  mapping(address => User) public users */\n      swap3\n      add\n        /* \"contracts/YunaVaultV2.sol\":325:6704  contract YunaVaultV2 is ReentrancyGuard, Ownable {... */\n      sload\n      swap2\n      dup2\n      mload\n      swap4\n      dup5\n      mstore\n      0x20\n      dup5\n      add\n      mstore\n      dup3\n      add\n      mstore\n      return\n    tag_39:\n      pop\n      pop\n      jumpi(tag_71, callvalue)\n      dup2\n      add(calldatasize, not(0x03))\n      slt\n      tag_71\n      jumpi\n      sload(0x01)\n      swap1\n      mload\n      sub(shl(0xa0, 0x01), 0x01)\n      swap1\n      swap2\n      and\n      dup2\n      mstore\n      0x20\n      swap1\n      return\n    tag_37:\n      pop\n      pop\n      jumpi(tag_71, callvalue)\n      dup2\n      add(calldatasize, not(0x03))\n      slt\n      tag_71\n      jumpi\n      mload\n        /* \"contracts/YunaVaultV2.sol\":496:529  address public immutable protocol */\n      immutable(\"0x859a6a23943f5d7286393d65629fb81b6943c202b5ed2617fb4fcc1cbe2bc943\")\n      sub(shl(0xa0, 0x01), 0x01)\n        /* \"contracts/YunaVaultV2.sol\":325:6704  contract YunaVaultV2 is ReentrancyGuard, Ownable {... */\n      and\n      dup2\n      mstore\n      0x20\n      swap1\n      return\n    tag_35:\n      pop\n      pop\n      jumpi(tag_71, callvalue)\n      dup2\n      add(calldatasize, not(0x03))\n      slt\n      tag_71\n      jumpi\n      0x20\n      swap1\n      mload\n        /* \"contracts/YunaVaultV2.sol\":536:575  uint256 public immutable rewardPerBlock */\n      immutable(\"0xef2554acf1f0b6d66eb4be042a8f7ca38735a42ab84dc1854a7ed9713c904901\")\n        /* \"contracts/YunaVaultV2.sol\":325:6704  contract YunaVaultV2 is ReentrancyGuard, Ownable {... */\n      dup2\n      mstore\n      return\n    tag_33:\n      swap2\n      swap1\n      pop\n      jumpi(tag_89, callvalue)\n      dup3\n      add(calldatasize, not(0x03))\n      slt\n      tag_89\n      jumpi\n        /* \"@openzeppelin/contracts/security/ReentrancyGuard.sol\":2227:2330  modifier nonReentrant() {... */\n      tag_173\n      tag_4\n      jump\t// in\n    tag_173:\n        /* \"contracts/YunaVaultV2.sol\":3642:3652  msg.sender */\n      caller\n        /* \"contracts/YunaVaultV2.sol\":325:6704  contract YunaVaultV2 is ReentrancyGuard, Ownable {... */\n      dup4\n      mstore\n        /* \"contracts/YunaVaultV2.sol\":3636:3641  users */\n      0x05\n        /* \"contracts/YunaVaultV2.sol\":325:6704  contract YunaVaultV2 is ReentrancyGuard, Ownable {... */\n      0x20\n      mstore\n      dup1\n      dup4\n      keccak256\n      dup1\n      sload\n        /* \"contracts/YunaVaultV2.sol\":3709:3719  amount > 0 */\n      swap3\n      dup4\n      iszero\n        /* \"contracts/YunaVaultV2.sol\":325:6704  contract YunaVaultV2 is ReentrancyGuard, Ownable {... */\n      tag_174\n      jumpi\n        /* \"contracts/YunaVaultV2.sol\":3642:3652  msg.sender */\n      pop\n      dup4\n      swap1\n        /* \"contracts/YunaVaultV2.sol\":3770:3780  msg.sender */\n      tag_176\n        /* \"contracts/YunaVaultV2.sol\":3642:3652  msg.sender */\n      caller\n        /* \"contracts/YunaVaultV2.sol\":3770:3780  msg.sender */\n      tag_10\n      jump\t// in\n    tag_176:\n        /* \"@openzeppelin/contracts/security/ReentrancyGuard.sol\":1759:1760  2 */\n      sstore\n        /* \"contracts/YunaVaultV2.sol\":3853:3859  amount */\n      tag_177\n        /* \"contracts/YunaVaultV2.sol\":3642:3652  msg.sender */\n      dup3\n      caller\n        /* \"contracts/YunaVaultV2.sol\":3820:3827  lpToken */\n      immutable(\"0x32dc42f894e5a4d4b23942d0616a19a04bbfd803207f066ba76d13d1733bb4d4\")\n        /* \"contracts/YunaVaultV2.sol\":3853:3859  amount */\n      tag_11\n      jump\t// in\n    tag_177:\n        /* \"contracts/YunaVaultV2.sol\":325:6704  contract YunaVaultV2 is ReentrancyGuard, Ownable {... */\n      mload\n      swap1\n      dup2\n      mstore\n        /* \"contracts/YunaVaultV2.sol\":3878:3907  Withdrawn(msg.sender, amount) */\n      0x7084f5476618d8e60b11ef0d7d3f06914655adb8793e28ff7f018d4c76d505d5\n        /* \"contracts/YunaVaultV2.sol\":325:6704  contract YunaVaultV2 is ReentrancyGuard, Ownable {... */\n      0x20\n        /* \"contracts/YunaVaultV2.sol\":3642:3652  msg.sender */\n      caller\n        /* \"contracts/YunaVaultV2.sol\":3878:3907  Withdrawn(msg.sender, amount) */\n      swap3\n      log2\n        /* \"@openzeppelin/contracts/security/ReentrancyGuard.sol\":1716:1717  1 */\n      0x01\n        /* \"@openzeppelin/contracts/security/ReentrancyGuard.sol\":1759:1760  2 */\n      dup2\n      sstore\n        /* \"contracts/YunaVaultV2.sol\":325:6704  contract YunaVaultV2 is ReentrancyGuard, Ownable {... */\n      dup1\n      return\n    tag_174:\n      0x64\n      swap1\n      0x20\n      dup5\n      mload\n      swap2\n      shl(0xe5, 0x461bcd)\n      dup4\n      mstore\n      dup3\n      add\n      mstore\n      0x13\n      0x24\n      dup3\n      add\n      mstore\n      shl(0x68, 0x6e6f7468696e6720746f207769746864726177)\n      0x44\n      dup3\n      add\n      mstore\n      revert\n    tag_31:\n      pop\n      pop\n      jumpi(tag_71, callvalue)\n      dup2\n      add(calldatasize, not(0x03))\n      slt\n      tag_71\n      jumpi\n      0x20\n      swap1\n      mload\n        /* \"contracts/YunaVaultV2.sol\":698:703  10000 */\n      0x2710\n        /* \"contracts/YunaVaultV2.sol\":325:6704  contract YunaVaultV2 is ReentrancyGuard, Ownable {... */\n      dup2\n      mstore\n      return\n    tag_29:\n      dup4\n      jumpi(tag_126, callvalue)\n      dup1\n      add(calldatasize, not(0x03))\n      slt\n      tag_126\n      jumpi\n        /* \"@openzeppelin/contracts/access/Ownable.sol\":1500:1562  modifier onlyOwner() {... */\n      tag_186\n      tag_3\n      jump\t// in\n    tag_186:\n        /* \"@openzeppelin/contracts/access/Ownable.sol\":3004:3010  _owner */\n      0x01\n        /* \"contracts/YunaVaultV2.sol\":325:6704  contract YunaVaultV2 is ReentrancyGuard, Ownable {... */\n      dup1\n      sload\n      not(sub(shl(0xa0, 0x01), 0x01))\n      dup2\n      and\n      swap1\n      swap2\n      sstore\n      dup2\n      swap1\n      sub(shl(0xa0, 0x01), 0x01)\n      and\n        /* \"@openzeppelin/contracts/access/Ownable.sol\":3052:3092  OwnershipTransferred(oldOwner, newOwner) */\n      0x8be0079c531659141344cd1fd0a4f28419497f9722a3daafe3b4186f6b6457e0\n        /* \"contracts/YunaVaultV2.sol\":325:6704  contract YunaVaultV2 is ReentrancyGuard, Ownable {... */\n      dup3\n      dup1\n        /* \"@openzeppelin/contracts/access/Ownable.sol\":3052:3092  OwnershipTransferred(oldOwner, newOwner) */\n      log3\n        /* \"contracts/YunaVaultV2.sol\":325:6704  contract YunaVaultV2 is ReentrancyGuard, Ownable {... */\n      dup1\n      return\n    tag_27:\n      pop\n      pop\n      jumpi(tag_71, callvalue)\n      dup2\n      add(calldatasize, not(0x03))\n      slt\n      tag_71\n      jumpi\n      mload\n        /* \"contracts/YunaVaultV2.sol\":416:447  IERC20 public immutable lpToken */\n      immutable(\"0x32dc42f894e5a4d4b23942d0616a19a04bbfd803207f066ba76d13d1733bb4d4\")\n      sub(shl(0xa0, 0x01), 0x01)\n        /* \"contracts/YunaVaultV2.sol\":325:6704  contract YunaVaultV2 is ReentrancyGuard, Ownable {... */\n      and\n      dup2\n      mstore\n      0x20\n      swap1\n      return\n    tag_25:\n      pop\n      pop\n      jumpi(tag_71, callvalue)\n      dup2\n      add(calldatasize, not(0x03))\n      slt\n      tag_71\n      jumpi\n      0x20\n      swap1\n        /* \"contracts/YunaVaultV2.sol\":6378:6390  participants */\n      0x06\n        /* \"contracts/YunaVaultV2.sol\":325:6704  contract YunaVaultV2 is ReentrancyGuard, Ownable {... */\n      sload\n      swap1\n      mload\n      swap1\n      dup2\n      mstore\n      return\n    tag_23:\n      swap1\n      pop\n      jumpi(tag_89, callvalue)\n      jumpi(tag_89, slt(add(not(0x03), calldatasize), 0x20))\n      calldataload\n      swap2\n        /* \"contracts/YunaVaultV2.sol\":933:962  address[] public participants */\n      0x06\n        /* \"contracts/YunaVaultV2.sol\":325:6704  contract YunaVaultV2 is ReentrancyGuard, Ownable {... */\n      sload\n        /* \"contracts/YunaVaultV2.sol\":933:962  address[] public participants */\n      dup4\n      lt\n      iszero\n      tag_126\n      jumpi\n      pop\n      tag_201\n        /* \"contracts/YunaVaultV2.sol\":325:6704  contract YunaVaultV2 is ReentrancyGuard, Ownable {... */\n      0x20\n        /* \"contracts/YunaVaultV2.sol\":933:962  address[] public participants */\n      swap3\n      tag_2\n      jump\t// in\n    tag_201:\n        /* \"contracts/YunaVaultV2.sol\":325:6704  contract YunaVaultV2 is ReentrancyGuard, Ownable {... */\n      swap1\n      sload\n      swap2\n      mload\n      swap2\n      0x01\n      dup1\n      0xa0\n      shl\n      sub\n      swap2\n      0x03\n      shl\n      shr\n      and\n      dup2\n      mstore\n      return\n    tag_21:\n      swap1\n      pop\n      jumpi(tag_89, callvalue)\n      dup2\n      add(calldatasize, not(0x03))\n      slt\n      tag_89\n      jumpi\n      tag_206\n      tag_1\n      jump\t// in\n    tag_206:\n        /* \"@openzeppelin/contracts/security/ReentrancyGuard.sol\":2227:2330  modifier nonReentrant() {... */\n      swap2\n      tag_207\n      tag_4\n      jump\t// in\n    tag_207:\n        /* \"contracts/YunaVaultV2.sol\":1255:1261  router */\n      0x02\n        /* \"contracts/YunaVaultV2.sol\":325:6704  contract YunaVaultV2 is ReentrancyGuard, Ownable {... */\n      sload\n      sub(shl(0xa0, 0x01), 0x01)\n      and\n        /* \"contracts/YunaVaultV2.sol\":1241:1251  msg.sender */\n      caller\n        /* \"contracts/YunaVaultV2.sol\":1241:1261  msg.sender == router */\n      sub\n        /* \"contracts/YunaVaultV2.sol\":325:6704  contract YunaVaultV2 is ReentrancyGuard, Ownable {... */\n      tag_208\n      jumpi\n      dup4\n        /* \"contracts/YunaVaultV2.sol\":2782:2788  amount */\n      tag_129\n        /* \"contracts/YunaVaultV2.sol\":325:6704  contract YunaVaultV2 is ReentrancyGuard, Ownable {... */\n      calldataload(0x24)\n      dup6\n        /* \"contracts/YunaVaultV2.sol\":1241:1251  msg.sender */\n      caller\n        /* \"contracts/YunaVaultV2.sol\":2782:2788  amount */\n      tag_6\n      jump\t// in\n        /* \"contracts/YunaVaultV2.sol\":325:6704  contract YunaVaultV2 is ReentrancyGuard, Ownable {... */\n    tag_208:\n      swap1\n      0x20\n      0x64\n      swap3\n      mload\n      swap2\n      shl(0xe5, 0x461bcd)\n      dup4\n      mstore\n      dup3\n      add\n      mstore\n      0x0a\n      0x24\n      dup3\n      add\n      mstore\n      shl(0xb1, 0x3737ba103937baba32b9)\n      0x44\n      dup3\n      add\n      mstore\n      revert\n    tag_19:\n      swap2\n      swap1\n      pop\n      jumpi(tag_89, callvalue)\n      jumpi(tag_89, slt(add(not(0x03), calldatasize), 0x20))\n      dup2\n      calldataload\n        /* \"@openzeppelin/contracts/security/ReentrancyGuard.sol\":2227:2330  modifier nonReentrant() {... */\n      swap2\n      tag_215\n      tag_4\n      jump\t// in\n    tag_215:\n        /* \"contracts/YunaVaultV2.sol\":3295:3305  msg.sender */\n      caller\n        /* \"contracts/YunaVaultV2.sol\":325:6704  contract YunaVaultV2 is ReentrancyGuard, Ownable {... */\n      dup5\n      mstore\n        /* \"contracts/YunaVaultV2.sol\":3289:3294  users */\n      0x05\n        /* \"contracts/YunaVaultV2.sol\":325:6704  contract YunaVaultV2 is ReentrancyGuard, Ownable {... */\n      0x20\n      mstore\n      dup2\n      dup5\n      keccak256\n        /* \"contracts/YunaVaultV2.sol\":3325:3335  amount > 0 */\n      swap1\n      dup4\n      iszero\n      iszero\n        /* \"contracts/YunaVaultV2.sol\":3325:3358  amount > 0 && amount <= u.balance */\n      dup1\n      tag_216\n      jumpi\n        /* \"contracts/YunaVaultV2.sol\":325:6704  contract YunaVaultV2 is ReentrancyGuard, Ownable {... */\n    tag_217:\n      iszero\n      tag_218\n      jumpi\n        /* \"contracts/YunaVaultV2.sol\":3295:3305  msg.sender */\n      pop\n        /* \"contracts/YunaVaultV2.sol\":3404:3414  msg.sender */\n      tag_220\n        /* \"contracts/YunaVaultV2.sol\":3295:3305  msg.sender */\n      caller\n        /* \"contracts/YunaVaultV2.sol\":3404:3414  msg.sender */\n      tag_10\n      jump\t// in\n    tag_220:\n        /* \"contracts/YunaVaultV2.sol\":3428:3447  u.balance -= amount */\n      tag_221\n        /* \"contracts/YunaVaultV2.sol\":325:6704  contract YunaVaultV2 is ReentrancyGuard, Ownable {... */\n      dup4\n      dup3\n      sload\n        /* \"contracts/YunaVaultV2.sol\":3428:3447  u.balance -= amount */\n      tag_8\n      jump\t// in\n    tag_221:\n        /* \"@openzeppelin/contracts/security/ReentrancyGuard.sol\":1759:1760  2 */\n      swap1\n      sstore\n        /* \"contracts/YunaVaultV2.sol\":3493:3499  amount */\n      tag_177\n        /* \"contracts/YunaVaultV2.sol\":3295:3305  msg.sender */\n      dup3\n      caller\n        /* \"contracts/YunaVaultV2.sol\":3460:3467  lpToken */\n      immutable(\"0x32dc42f894e5a4d4b23942d0616a19a04bbfd803207f066ba76d13d1733bb4d4\")\n        /* \"contracts/YunaVaultV2.sol\":3493:3499  amount */\n      tag_11\n      jump\t// in\n        /* \"contracts/YunaVaultV2.sol\":325:6704  contract YunaVaultV2 is ReentrancyGuard, Ownable {... */\n    tag_218:\n      0x64\n      swap1\n      0x20\n      dup5\n      mload\n      swap2\n      shl(0xe5, 0x461bcd)\n      dup4\n      mstore\n      dup3\n      add\n      mstore\n      0x0e\n      0x24\n      dup3\n      add\n      mstore\n      shl(0x92, 0x1a5b9d985b1a5908185b5bdd5b9d)\n      0x44\n      dup3\n      add\n      mstore\n      revert\n        /* \"contracts/YunaVaultV2.sol\":3325:3358  amount > 0 && amount <= u.balance */\n    tag_216:\n        /* \"contracts/YunaVaultV2.sol\":325:6704  contract YunaVaultV2 is ReentrancyGuard, Ownable {... */\n      pop\n      dup2\n      sload\n        /* \"contracts/YunaVaultV2.sol\":3339:3358  amount <= u.balance */\n      dup5\n      gt\n      iszero\n        /* \"contracts/YunaVaultV2.sol\":3325:3358  amount > 0 && amount <= u.balance */\n      jump(tag_217)\n        /* \"contracts/YunaVaultV2.sol\":325:6704  contract YunaVaultV2 is ReentrancyGuard, Ownable {... */\n    tag_1:\n      calldataload(0x04)\n      swap1\n      sub(shl(0xa0, 0x01), 0x01)\n      dup3\n      and\n      dup3\n      sub\n      tag_223\n      jumpi\n      jump\t// out\n    tag_223:\n      0x00\n      dup1\n      revert\n    tag_2:\n        /* \"contracts/YunaVaultV2.sol\":933:962  address[] public participants */\n      0x06\n        /* \"contracts/YunaVaultV2.sol\":325:6704  contract YunaVaultV2 is ReentrancyGuard, Ownable {... */\n      sload\n      dup2\n      lt\n      iszero\n      tag_225\n      jumpi\n        /* \"contracts/YunaVaultV2.sol\":933:962  address[] public participants */\n      0x06\n      0x00\n        /* \"contracts/YunaVaultV2.sol\":325:6704  contract YunaVaultV2 is ReentrancyGuard, Ownable {... */\n      mstore\n      0xf652222313e28459528d920b65115c16c04f3efc82aaedc97be59f3f377c0d3f\n      add\n      swap1\n      0x00\n      swap1\n      jump\t// out\n    tag_225:\n      mstore(0x00, shl(0xe0, 0x4e487b71))\n      mstore(0x04, 0x32)\n      revert(0x00, 0x24)\n        /* \"@openzeppelin/contracts/access/Ownable.sol\":1796:1958  function _checkOwner() internal view virtual {... */\n    tag_3:\n        /* \"contracts/YunaVaultV2.sol\":325:6704  contract YunaVaultV2 is ReentrancyGuard, Ownable {... */\n      and(sub(shl(0xa0, 0x01), 0x01), sload(0x01))\n        /* \"@openzeppelin/contracts/utils/Context.sol\":735:745  msg.sender */\n      caller\n        /* \"@openzeppelin/contracts/access/Ownable.sol\":1855:1878  owner() != _msgSender() */\n      sub\n        /* \"@openzeppelin/contracts/access/Ownable.sol\":1851:1952  if (owner() != _msgSender()) {... */\n      tag_227\n      jumpi\n        /* \"@openzeppelin/contracts/access/Ownable.sol\":1796:1958  function _checkOwner() internal view virtual {... */\n      jump\t// out\n        /* \"@openzeppelin/contracts/access/Ownable.sol\":1851:1952  if (owner() != _msgSender()) {... */\n    tag_227:\n        /* \"contracts/YunaVaultV2.sol\":325:6704  contract YunaVaultV2 is ReentrancyGuard, Ownable {... */\n      mload(0x40)\n      shl(0xe0, 0x118cdaa7)\n        /* \"@openzeppelin/contracts/access/Ownable.sol\":1901:1941  OwnableUnauthorizedAccount(_msgSender()) */\n      dup2\n      mstore\n        /* \"@openzeppelin/contracts/utils/Context.sol\":735:745  msg.sender */\n      caller\n        /* \"@openzeppelin/contracts/access/Ownable.sol\":1901:1941  OwnableUnauthorizedAccount(_msgSender()) */\n      0x04\n      dup3\n      add\n        /* \"contracts/YunaVaultV2.sol\":325:6704  contract YunaVaultV2 is ReentrancyGuard, Ownable {... */\n      mstore\n      0x24\n      swap1\n        /* \"@openzeppelin/contracts/access/Ownable.sol\":1901:1941  OwnableUnauthorizedAccount(_msgSender()) */\n      revert\n        /* \"@openzeppelin/contracts/security/ReentrancyGuard.sol\":2336:2623  function _nonReentrantBefore() private {... */\n    tag_4:\n        /* \"@openzeppelin/contracts/security/ReentrancyGuard.sol\":1759:1760  2 */\n      0x02\n        /* \"@openzeppelin/contracts/security/ReentrancyGuard.sol\":2468:2475  _status */\n      0x00\n        /* \"contracts/YunaVaultV2.sol\":325:6704  contract YunaVaultV2 is ReentrancyGuard, Ownable {... */\n      sload\n        /* \"@openzeppelin/contracts/security/ReentrancyGuard.sol\":2468:2487  _status != _ENTERED */\n      eq\n        /* \"@openzeppelin/contracts/security/ReentrancyGuard.sol\":1759:1760  2 */\n      tag_229\n      jumpi\n      0x02\n        /* \"@openzeppelin/contracts/security/ReentrancyGuard.sol\":2468:2475  _status */\n      0x00\n        /* \"@openzeppelin/contracts/security/ReentrancyGuard.sol\":1759:1760  2 */\n      sstore\n        /* \"@openzeppelin/contracts/security/ReentrancyGuard.sol\":2336:2623  function _nonReentrantBefore() private {... */\n      jump\t// out\n        /* \"@openzeppelin/contracts/security/ReentrancyGuard.sol\":1759:1760  2 */\n    tag_229:\n        /* \"contracts/YunaVaultV2.sol\":325:6704  contract YunaVaultV2 is ReentrancyGuard, Ownable {... */\n      mload(0x40)\n      shl(0xe5, 0x461bcd)\n        /* \"@openzeppelin/contracts/security/ReentrancyGuard.sol\":1759:1760  2 */\n      dup2\n      mstore\n      0x20\n      0x04\n      dup3\n      add\n      mstore\n      0x1f\n      0x24\n      dup3\n      add\n        /* \"contracts/YunaVaultV2.sol\":325:6704  contract YunaVaultV2 is ReentrancyGuard, Ownable {... */\n      mstore\n        /* \"@openzeppelin/contracts/security/ReentrancyGuard.sol\":1759:1760  2 */\n      0x5265656e7472616e637947756172643a207265656e7472616e742063616c6c00\n        /* \"contracts/YunaVaultV2.sol\":325:6704  contract YunaVaultV2 is ReentrancyGuard, Ownable {... */\n      0x44\n      dup3\n      add\n        /* \"@openzeppelin/contracts/security/ReentrancyGuard.sol\":1759:1760  2 */\n      mstore\n      0x64\n      swap1\n      revert\n        /* \"contracts/YunaVaultV2.sol\":325:6704  contract YunaVaultV2 is ReentrancyGuard, Ownable {... */\n    tag_5:\n      swap2\n      swap1\n      dup3\n      add\n      dup1\n      swap3\n      gt\n      tag_231\n      jumpi\n      jump\t// out\n    tag_231:\n      mstore(0x00, shl(0xe0, 0x4e487b71))\n      mstore(0x04, 0x11)\n      revert(0x00, 0x24)\n        /* \"contracts/YunaVaultV2.sol\":2805:3197  function _depositFor(address from, address user, uint256 amount) internal {... */\n    tag_6:\n      swap2\n      swap1\n        /* \"contracts/YunaVaultV2.sol\":2898:2908  amount > 0 */\n      dup2\n      iszero\n        /* \"contracts/YunaVaultV2.sol\":325:6704  contract YunaVaultV2 is ReentrancyGuard, Ownable {... */\n      tag_233\n      jumpi\n        /* \"contracts/YunaVaultV2.sol\":2952:2956  user */\n      tag_235\n      dup2\n      tag_10\n      jump\t// in\n    tag_235:\n        /* \"contracts/YunaVaultV2.sol\":325:6704  contract YunaVaultV2 is ReentrancyGuard, Ownable {... */\n      mload(0x40)\n      shl(0xe0, 0x23b872dd)\n        /* \"@openzeppelin/contracts/token/ERC20/utils/SafeERC20.sol\":1745:1798  abi.encodeCall(token.transferFrom, (from, to, value)) */\n      0x20\n      dup3\n      add\n      mstore\n      sub(shl(0xa0, 0x01), 0x01)\n        /* \"contracts/YunaVaultV2.sol\":325:6704  contract YunaVaultV2 is ReentrancyGuard, Ownable {... */\n      swap4\n      dup5\n      and\n        /* \"@openzeppelin/contracts/token/ERC20/utils/SafeERC20.sol\":1745:1798  abi.encodeCall(token.transferFrom, (from, to, value)) */\n      0x24\n      dup3\n      add\n        /* \"contracts/YunaVaultV2.sol\":325:6704  contract YunaVaultV2 is ReentrancyGuard, Ownable {... */\n      mstore\n        /* \"contracts/YunaVaultV2.sol\":3009:3013  this */\n      address\n        /* \"contracts/YunaVaultV2.sol\":325:6704  contract YunaVaultV2 is ReentrancyGuard, Ownable {... */\n      0x44\n      dup3\n      add\n      mstore\n      0x64\n      dup1\n      dup3\n      add\n      dup5\n      swap1\n      mstore\n        /* \"@openzeppelin/contracts/token/ERC20/utils/SafeERC20.sol\":1745:1798  abi.encodeCall(token.transferFrom, (from, to, value)) */\n      dup2\n      mstore\n        /* \"contracts/YunaVaultV2.sol\":325:6704  contract YunaVaultV2 is ReentrancyGuard, Ownable {... */\n      swap1\n      0xa0\n      dup3\n      add\n      0xffffffffffffffff\n      dup2\n      gt\n      dup4\n      dup3\n      lt\n      or\n      tag_242\n      jumpi\n      dup5\n      swap3\n        /* \"@openzeppelin/contracts/token/ERC20/utils/SafeERC20.sol\":1745:1798  abi.encodeCall(token.transferFrom, (from, to, value)) */\n      tag_238\n        /* \"contracts/YunaVaultV2.sol\":325:6704  contract YunaVaultV2 is ReentrancyGuard, Ownable {... */\n      swap2\n      0x40\n      mstore\n        /* \"contracts/YunaVaultV2.sol\":2970:2977  lpToken */\n      immutable(\"0x32dc42f894e5a4d4b23942d0616a19a04bbfd803207f066ba76d13d1733bb4d4\")\n        /* \"@openzeppelin/contracts/token/ERC20/utils/SafeERC20.sol\":1745:1798  abi.encodeCall(token.transferFrom, (from, to, value)) */\n      tag_7\n      jump\t// in\n    tag_238:\n        /* \"contracts/YunaVaultV2.sol\":325:6704  contract YunaVaultV2 is ReentrancyGuard, Ownable {... */\n      and\n      swap2\n      dup3\n        /* \"contracts/YunaVaultV2.sol\":2907:2908  0 */\n      0x00\n        /* \"contracts/YunaVaultV2.sol\":325:6704  contract YunaVaultV2 is ReentrancyGuard, Ownable {... */\n      mstore\n        /* \"contracts/YunaVaultV2.sol\":3053:3058  users */\n      0x05\n        /* \"@openzeppelin/contracts/token/ERC20/utils/SafeERC20.sol\":1745:1798  abi.encodeCall(token.transferFrom, (from, to, value)) */\n      0x20\n        /* \"contracts/YunaVaultV2.sol\":325:6704  contract YunaVaultV2 is ReentrancyGuard, Ownable {... */\n      mstore\n      0x40\n        /* \"contracts/YunaVaultV2.sol\":2907:2908  0 */\n      0x00\n        /* \"contracts/YunaVaultV2.sol\":325:6704  contract YunaVaultV2 is ReentrancyGuard, Ownable {... */\n      keccak256\n      swap1\n      dup2\n      sload\n        /* \"contracts/YunaVaultV2.sol\":3079:3093  u.balance == 0 */\n      iszero\n        /* \"contracts/YunaVaultV2.sol\":3075:3118  if (u.balance == 0) participants.push(user) */\n      tag_239\n      jumpi\n        /* \"contracts/YunaVaultV2.sol\":2805:3197  function _depositFor(address from, address user, uint256 amount) internal {... */\n    tag_240:\n        /* \"contracts/YunaVaultV2.sol\":325:6704  contract YunaVaultV2 is ReentrancyGuard, Ownable {... */\n      pop\n      dup2\n      dup2\n        /* \"contracts/YunaVaultV2.sol\":3129:3148  u.balance += amount */\n      tag_241\n        /* \"contracts/YunaVaultV2.sol\":3166:3189  Deposited(user, amount) */\n      0x2da466a7b24304f47e87fa2e1e5a81b9831ce54fec19055ce277ca2f39ba42c4\n        /* \"contracts/YunaVaultV2.sol\":325:6704  contract YunaVaultV2 is ReentrancyGuard, Ownable {... */\n      swap5\n        /* \"@openzeppelin/contracts/token/ERC20/utils/SafeERC20.sol\":1745:1798  abi.encodeCall(token.transferFrom, (from, to, value)) */\n      0x20\n        /* \"contracts/YunaVaultV2.sol\":325:6704  contract YunaVaultV2 is ReentrancyGuard, Ownable {... */\n      swap5\n      sload\n        /* \"contracts/YunaVaultV2.sol\":3129:3148  u.balance += amount */\n      tag_5\n      jump\t// in\n    tag_241:\n        /* \"@openzeppelin/contracts/security/ReentrancyGuard.sol\":1759:1760  2 */\n      swap1\n      sstore\n        /* \"contracts/YunaVaultV2.sol\":325:6704  contract YunaVaultV2 is ReentrancyGuard, Ownable {... */\n      mload(0x40)\n      swap1\n      dup2\n      mstore\n        /* \"contracts/YunaVaultV2.sol\":3166:3189  Deposited(user, amount) */\n      log2\n        /* \"contracts/YunaVaultV2.sol\":2805:3197  function _depositFor(address from, address user, uint256 amount) internal {... */\n      jump\t// out\n        /* \"contracts/YunaVaultV2.sol\":3075:3118  if (u.balance == 0) participants.push(user) */\n    tag_239:\n        /* \"contracts/YunaVaultV2.sol\":325:6704  contract YunaVaultV2 is ReentrancyGuard, Ownable {... */\n      swap2\n        /* \"contracts/YunaVaultV2.sol\":3095:3107  participants */\n      0x06\n        /* \"contracts/YunaVaultV2.sol\":325:6704  contract YunaVaultV2 is ReentrancyGuard, Ownable {... */\n      sload\n      swap2\n      0x010000000000000000\n      dup4\n      lt\n      iszero\n      tag_242\n      jumpi\n        /* \"contracts/YunaVaultV2.sol\":3166:3189  Deposited(user, amount) */\n      0x2da466a7b24304f47e87fa2e1e5a81b9831ce54fec19055ce277ca2f39ba42c4\n        /* \"contracts/YunaVaultV2.sol\":325:6704  contract YunaVaultV2 is ReentrancyGuard, Ownable {... */\n      swap4\n      tag_244\n      dup5\n      0x01\n        /* \"@openzeppelin/contracts/token/ERC20/utils/SafeERC20.sol\":1745:1798  abi.encodeCall(token.transferFrom, (from, to, value)) */\n      0x20\n        /* \"contracts/YunaVaultV2.sol\":325:6704  contract YunaVaultV2 is ReentrancyGuard, Ownable {... */\n      swap7\n      add\n        /* \"contracts/YunaVaultV2.sol\":3095:3107  participants */\n      0x06\n        /* \"contracts/YunaVaultV2.sol\":325:6704  contract YunaVaultV2 is ReentrancyGuard, Ownable {... */\n      sstore\n      tag_2\n      jump\t// in\n    tag_244:\n      dup2\n      swap3\n      swap2\n      sload\n      swap1\n      0x03\n      shl\n      swap2\n      dup9\n      dup4\n      shl\n      swap3\n      shl\n      not\n      and\n      or\n      swap1\n      sstore\n        /* \"contracts/YunaVaultV2.sol\":3075:3118  if (u.balance == 0) participants.push(user) */\n      swap2\n      pop\n      swap2\n      jump(tag_240)\n        /* \"contracts/YunaVaultV2.sol\":325:6704  contract YunaVaultV2 is ReentrancyGuard, Ownable {... */\n    tag_242:\n      shl(0xe0, 0x4e487b71)\n        /* \"contracts/YunaVaultV2.sol\":2907:2908  0 */\n      0x00\n        /* \"contracts/YunaVaultV2.sol\":325:6704  contract YunaVaultV2 is ReentrancyGuard, Ownable {... */\n      mstore\n      mstore(0x04, 0x41)\n        /* \"@openzeppelin/contracts/token/ERC20/utils/SafeERC20.sol\":1745:1798  abi.encodeCall(token.transferFrom, (from, to, value)) */\n      0x24\n        /* \"contracts/YunaVaultV2.sol\":2907:2908  0 */\n      0x00\n        /* \"contracts/YunaVaultV2.sol\":325:6704  contract YunaVaultV2 is ReentrancyGuard, Ownable {... */\n      revert\n    tag_233:\n      mload(0x40)\n      shl(0xe5, 0x461bcd)\n      dup2\n      mstore\n      0x20\n      0x04\n      dup3\n      add\n      mstore\n      0x0c\n      0x24\n      dup3\n      add\n      mstore\n      shl(0xa2, 0x1e995c9bc819195c1bdcda5d)\n      0x44\n      dup3\n      add\n      mstore\n      0x64\n      swap1\n      revert\n        /* \"@openzeppelin/contracts/token/ERC20/utils/SafeERC20.sol\":8370:9090  function _callOptionalReturn(IERC20 token, bytes memory data) private {... */\n    tag_7:\n      swap1\n      0x00\n        /* \"@openzeppelin/contracts/token/ERC20/utils/SafeERC20.sol\":8507:8928  assembly (\"memory-safe\") {... */\n      0x20\n        /* \"@openzeppelin/contracts/token/ERC20/utils/SafeERC20.sol\":8370:9090  function _callOptionalReturn(IERC20 token, bytes memory data) private {... */\n      swap2\n        /* \"@openzeppelin/contracts/token/ERC20/utils/SafeERC20.sol\":8507:8928  assembly (\"memory-safe\") {... */\n      dup3\n      dup2\n      mload\n      swap2\n      add\n      dup3\n      dup6\n      gas\n      call\n      iszero\n      tag_245\n      jumpi\n      mload(0x00)\n      returndatasize\n        /* \"@openzeppelin/contracts/token/ERC20/utils/SafeERC20.sol\":8942:8957  returnSize == 0 */\n      tag_247\n      jumpi\n      pop\n      sub(shl(0xa0, 0x01), 0x01)\n        /* \"contracts/YunaVaultV2.sol\":325:6704  contract YunaVaultV2 is ReentrancyGuard, Ownable {... */\n      dup2\n      and\n        /* \"@openzeppelin/contracts/token/ERC20/utils/SafeERC20.sol\":8960:8986  address(token).code.length */\n      extcodesize\n        /* \"@openzeppelin/contracts/token/ERC20/utils/SafeERC20.sol\":8960:8991  address(token).code.length == 0 */\n      iszero\n        /* \"@openzeppelin/contracts/token/ERC20/utils/SafeERC20.sol\":8942:9010  returnSize == 0 ? address(token).code.length == 0 : returnValue != 1 */\n    tag_249:\n        /* \"@openzeppelin/contracts/token/ERC20/utils/SafeERC20.sol\":8938:9084  if (returnSize == 0 ? address(token).code.length == 0 : returnValue != 1) {... */\n      tag_250\n      jumpi\n        /* \"@openzeppelin/contracts/token/ERC20/utils/SafeERC20.sol\":8370:9090  function _callOptionalReturn(IERC20 token, bytes memory data) private {... */\n      pop\n      jump\t// out\n        /* \"@openzeppelin/contracts/token/ERC20/utils/SafeERC20.sol\":8938:9084  if (returnSize == 0 ? address(token).code.length == 0 : returnValue != 1) {... */\n    tag_250:\n        /* \"contracts/YunaVaultV2.sol\":325:6704  contract YunaVaultV2 is ReentrancyGuard, Ownable {... */\n      mload(0x40)\n      shl(0xe0, 0x5274afe7)\n        /* \"@openzeppelin/contracts/token/ERC20/utils/SafeERC20.sol\":9033:9073  SafeERC20FailedOperation(address(token)) */\n      dup2\n      mstore\n      sub(shl(0xa0, 0x01), 0x01)\n        /* \"contracts/YunaVaultV2.sol\":325:6704  contract YunaVaultV2 is ReentrancyGuard, Ownable {... */\n      swap1\n      swap2\n      and\n        /* \"@openzeppelin/contracts/token/ERC20/utils/SafeERC20.sol\":9033:9073  SafeERC20FailedOperation(address(token)) */\n      0x04\n      dup3\n      add\n        /* \"contracts/YunaVaultV2.sol\":325:6704  contract YunaVaultV2 is ReentrancyGuard, Ownable {... */\n      mstore\n      0x24\n      swap1\n        /* \"@openzeppelin/contracts/token/ERC20/utils/SafeERC20.sol\":9033:9073  SafeERC20FailedOperation(address(token)) */\n      revert\n        /* \"@openzeppelin/contracts/token/ERC20/utils/SafeERC20.sol\":8942:9010  returnSize == 0 ? address(token).code.length == 0 : returnValue != 1 */\n    tag_247:\n        /* \"@openzeppelin/contracts/token/ERC20/utils/SafeERC20.sol\":9009:9010  1 */\n      0x01\n        /* \"@openzeppelin/contracts/token/ERC20/utils/SafeERC20.sol\":8994:9010  returnValue != 1 */\n      eq\n      iszero\n        /* \"@openzeppelin/contracts/token/ERC20/utils/SafeERC20.sol\":8942:9010  returnSize == 0 ? address(token).code.length == 0 : returnValue != 1 */\n      jump(tag_249)\n        /* \"@openzeppelin/contracts/token/ERC20/utils/SafeERC20.sol\":8507:8928  assembly (\"memory-safe\") {... */\n    tag_245:\n      mload(0x40)\n      returndatasize\n      0x00\n      dup3\n      returndatacopy\n      returndatasize\n      swap1\n      revert\n        /* \"contracts/YunaVaultV2.sol\":325:6704  contract YunaVaultV2 is ReentrancyGuard, Ownable {... */\n    tag_8:\n      swap2\n      swap1\n      dup3\n      sub\n      swap2\n      dup3\n      gt\n      tag_231\n      jumpi\n      jump\t// out\n    tag_9:\n      dup2\n      dup2\n      mul\n      swap3\n      swap2\n      dup2\n      iszero\n      swap2\n      dup5\n      div\n      eq\n      or\n      iszero\n      tag_231\n      jumpi\n      jump\t// out\n        /* \"contracts/YunaVaultV2.sol\":1993:2493  function _updateUserXP(address userAddr) internal {... */\n    tag_10:\n        /* \"contracts/YunaVaultV2.sol\":325:6704  contract YunaVaultV2 is ReentrancyGuard, Ownable {... */\n      0x01\n      dup1\n      0xa0\n      shl\n      sub\n      and\n      0x00\n      mstore\n        /* \"contracts/YunaVaultV2.sol\":2071:2076  users */\n      0x05\n        /* \"contracts/YunaVaultV2.sol\":325:6704  contract YunaVaultV2 is ReentrancyGuard, Ownable {... */\n      0x20\n      mstore\n      keccak256(0x00, 0x40)\n      0x01\n        /* \"contracts/YunaVaultV2.sol\":2103:2120  u.lastUpdateBlock */\n      dup2\n      add\n        /* \"contracts/YunaVaultV2.sol\":325:6704  contract YunaVaultV2 is ReentrancyGuard, Ownable {... */\n      swap1\n      dup2\n      sload\n        /* \"contracts/YunaVaultV2.sol\":2103:2125  u.lastUpdateBlock == 0 */\n      iszero\n        /* \"contracts/YunaVaultV2.sol\":2099:2207  if (u.lastUpdateBlock == 0) {... */\n      tag_256\n      jumpi\n        /* \"contracts/YunaVaultV2.sol\":2236:2268  block.number - u.lastUpdateBlock */\n      tag_258\n        /* \"contracts/YunaVaultV2.sol\":325:6704  contract YunaVaultV2 is ReentrancyGuard, Ownable {... */\n      dup3\n      sload\n        /* \"contracts/YunaVaultV2.sol\":2236:2248  block.number */\n      number\n        /* \"contracts/YunaVaultV2.sol\":2236:2268  block.number - u.lastUpdateBlock */\n      tag_8\n      jump\t// in\n    tag_258:\n        /* \"contracts/YunaVaultV2.sol\":2283:2293  blocks > 0 */\n      swap1\n      dup2\n      iszero\n      iszero\n        /* \"contracts/YunaVaultV2.sol\":2283:2310  blocks > 0 && u.balance > 0 */\n      dup1\n      tag_259\n      jumpi\n        /* \"contracts/YunaVaultV2.sol\":1993:2493  function _updateUserXP(address userAddr) internal {... */\n    tag_260:\n        /* \"contracts/YunaVaultV2.sol\":2279:2441  if (blocks > 0 && u.balance > 0) {... */\n      tag_261\n      jumpi\n        /* \"contracts/YunaVaultV2.sol\":1993:2493  function _updateUserXP(address userAddr) internal {... */\n    tag_262:\n        /* \"contracts/YunaVaultV2.sol\":2236:2248  block.number */\n      pop\n      pop\n      number\n        /* \"@openzeppelin/contracts/security/ReentrancyGuard.sol\":1759:1760  2 */\n      swap1\n      sstore\n        /* \"contracts/YunaVaultV2.sol\":1993:2493  function _updateUserXP(address userAddr) internal {... */\n      jump\t// out\n        /* \"contracts/YunaVaultV2.sol\":2279:2441  if (blocks > 0 && u.balance > 0) {... */\n    tag_261:\n        /* \"contracts/YunaVaultV2.sol\":2379:2383  u.xp */\n      0x02\n        /* \"contracts/YunaVaultV2.sol\":2346:2364  blocks * u.balance */\n      tag_263\n        /* \"contracts/YunaVaultV2.sol\":2410:2429  totalXP += gainedXP */\n      tag_264\n        /* \"contracts/YunaVaultV2.sol\":325:6704  contract YunaVaultV2 is ReentrancyGuard, Ownable {... */\n      swap4\n      dup4\n      sload\n        /* \"contracts/YunaVaultV2.sol\":2346:2364  blocks * u.balance */\n      swap1\n      tag_9\n      jump\t// in\n    tag_263:\n        /* \"contracts/YunaVaultV2.sol\":2379:2383  u.xp */\n      swap2\n      add\n        /* \"contracts/YunaVaultV2.sol\":2379:2395  u.xp += gainedXP */\n      tag_265\n        /* \"contracts/YunaVaultV2.sol\":325:6704  contract YunaVaultV2 is ReentrancyGuard, Ownable {... */\n      dup3\n      dup3\n      sload\n        /* \"contracts/YunaVaultV2.sol\":2379:2395  u.xp += gainedXP */\n      tag_5\n      jump\t// in\n    tag_265:\n        /* \"@openzeppelin/contracts/security/ReentrancyGuard.sol\":1759:1760  2 */\n      swap1\n      sstore\n        /* \"contracts/YunaVaultV2.sol\":2410:2429  totalXP += gainedXP */\n      0x04\n        /* \"contracts/YunaVaultV2.sol\":325:6704  contract YunaVaultV2 is ReentrancyGuard, Ownable {... */\n      sload\n        /* \"contracts/YunaVaultV2.sol\":2410:2429  totalXP += gainedXP */\n      tag_5\n      jump\t// in\n    tag_264:\n      0x04\n        /* \"@openzeppelin/contracts/security/ReentrancyGuard.sol\":1759:1760  2 */\n      sstore\n        /* \"contracts/YunaVaultV2.sol\":2279:2441  if (blocks > 0 && u.balance > 0) {... */\n      0x00\n      dup1\n      jump(tag_262)\n        /* \"contracts/YunaVaultV2.sol\":2283:2310  blocks > 0 && u.balance > 0 */\n    tag_259:\n        /* \"contracts/YunaVaultV2.sol\":325:6704  contract YunaVaultV2 is ReentrancyGuard, Ownable {... */\n      pop\n      dup1\n      sload\n        /* \"contracts/YunaVaultV2.sol\":2297:2310  u.balance > 0 */\n      iszero\n      iszero\n        /* \"contracts/YunaVaultV2.sol\":2283:2310  blocks > 0 && u.balance > 0 */\n      jump(tag_260)\n        /* \"contracts/YunaVaultV2.sol\":2099:2207  if (u.lastUpdateBlock == 0) {... */\n    tag_256:\n        /* \"contracts/YunaVaultV2.sol\":2162:2174  block.number */\n      pop\n      number\n        /* \"@openzeppelin/contracts/security/ReentrancyGuard.sol\":1759:1760  2 */\n      swap1\n      sstore\n        /* \"contracts/YunaVaultV2.sol\":2189:2196  return; */\n      jump\t// out\n        /* \"@openzeppelin/contracts/token/ERC20/utils/SafeERC20.sol\":1219:1379  function safeTransfer(IERC20 token, address to, uint256 value) internal {... */\n    tag_11:\n        /* \"contracts/YunaVaultV2.sol\":325:6704  contract YunaVaultV2 is ReentrancyGuard, Ownable {... */\n      mload(0x40)\n      shl(0xe0, 0xa9059cbb)\n        /* \"@openzeppelin/contracts/token/ERC20/utils/SafeERC20.sol\":1328:1371  abi.encodeCall(token.transfer, (to, value)) */\n      0x20\n      dup3\n      add\n      mstore\n      sub(shl(0xa0, 0x01), 0x01)\n        /* \"contracts/YunaVaultV2.sol\":325:6704  contract YunaVaultV2 is ReentrancyGuard, Ownable {... */\n      swap1\n      swap3\n      and\n        /* \"@openzeppelin/contracts/token/ERC20/utils/SafeERC20.sol\":1328:1371  abi.encodeCall(token.transfer, (to, value)) */\n      0x24\n      dup4\n      add\n        /* \"contracts/YunaVaultV2.sol\":325:6704  contract YunaVaultV2 is ReentrancyGuard, Ownable {... */\n      mstore\n      0x44\n      dup1\n      dup4\n      add\n      swap4\n      swap1\n      swap4\n      mstore\n        /* \"@openzeppelin/contracts/token/ERC20/utils/SafeERC20.sol\":1328:1371  abi.encodeCall(token.transfer, (to, value)) */\n      swap2\n      dup2\n      mstore\n        /* \"contracts/YunaVaultV2.sol\":325:6704  contract YunaVaultV2 is ReentrancyGuard, Ownable {... */\n      0x80\n      dup2\n      add\n      swap2\n      0xffffffffffffffff\n      dup4\n      gt\n      dup3\n      dup5\n      lt\n      or\n      tag_242\n      jumpi\n        /* \"@openzeppelin/contracts/token/ERC20/utils/SafeERC20.sol\":1328:1371  abi.encodeCall(token.transfer, (to, value)) */\n      tag_268\n        /* \"contracts/YunaVaultV2.sol\":325:6704  contract YunaVaultV2 is ReentrancyGuard, Ownable {... */\n      swap3\n      0x40\n      mstore\n        /* \"@openzeppelin/contracts/token/ERC20/utils/SafeERC20.sol\":1328:1371  abi.encodeCall(token.transfer, (to, value)) */\n      tag_7\n      jump\t// in\n    tag_268:\n        /* \"@openzeppelin/contracts/token/ERC20/utils/SafeERC20.sol\":1219:1379  function safeTransfer(IERC20 token, address to, uint256 value) internal {... */\n      jump\t// out\n        /* \"contracts/YunaVaultV2.sol\":325:6704  contract YunaVaultV2 is ReentrancyGuard, Ownable {... */\n    tag_12:\n      not(0x00)\n      dup2\n      eq\n      tag_231\n      jumpi\n      0x01\n      add\n      swap1\n      jump\t// out\n    tag_13:\n      dup2\n      iszero\n      tag_271\n      jumpi\n      div\n      swap1\n      jump\t// out\n    tag_271:\n      mstore(0x00, shl(0xe0, 0x4e487b71))\n      mstore(0x04, 0x12)\n      revert(0x00, 0x24)\n        /* \"contracts/YunaVaultV2.sol\":3923:5211  function claimAll() external nonReentrant {... */\n    tag_14:\n        /* \"contracts/YunaVaultV2.sol\":4008:4023  lastRewardBlock */\n      0x03\n        /* \"contracts/YunaVaultV2.sol\":3993:4023  block.number - lastRewardBlock */\n      tag_273\n        /* \"contracts/YunaVaultV2.sol\":325:6704  contract YunaVaultV2 is ReentrancyGuard, Ownable {... */\n      dup2\n      sload\n        /* \"contracts/YunaVaultV2.sol\":3993:4005  block.number */\n      number\n        /* \"contracts/YunaVaultV2.sol\":3993:4023  block.number - lastRewardBlock */\n      tag_8\n      jump\t// in\n    tag_273:\n        /* \"contracts/YunaVaultV2.sol\":4038:4049  blocks == 0 */\n      dup1\n      iszero\n        /* \"contracts/YunaVaultV2.sol\":4038:4065  blocks == 0 || totalXP == 0 */\n      dup1\n      iszero\n      tag_274\n      jumpi\n        /* \"contracts/YunaVaultV2.sol\":3923:5211  function claimAll() external nonReentrant {... */\n    tag_275:\n        /* \"contracts/YunaVaultV2.sol\":4034:4074  if (blocks == 0 || totalXP == 0) return; */\n      tag_276\n      jumpi\n        /* \"contracts/YunaVaultV2.sol\":4101:4124  blocks * rewardPerBlock */\n      tag_278\n        /* \"contracts/YunaVaultV2.sol\":4110:4124  rewardPerBlock */\n      swap1\n      immutable(\"0xef2554acf1f0b6d66eb4be042a8f7ca38735a42ab84dc1854a7ed9713c904901\")\n        /* \"contracts/YunaVaultV2.sol\":4101:4124  blocks * rewardPerBlock */\n      swap1\n      tag_9\n      jump\t// in\n    tag_278:\n        /* \"contracts/YunaVaultV2.sol\":4142:4155  uint256 i = 0 */\n      swap1\n      0x00\n        /* \"contracts/YunaVaultV2.sol\":4182:4185  i++ */\n    tag_279:\n        /* \"contracts/YunaVaultV2.sol\":4161:4173  participants */\n      0x06\n        /* \"contracts/YunaVaultV2.sol\":325:6704  contract YunaVaultV2 is ReentrancyGuard, Ownable {... */\n      sload\n        /* \"contracts/YunaVaultV2.sol\":4157:4180  i < participants.length */\n      dup2\n      lt\n      iszero\n      tag_280\n      jumpi\n        /* \"contracts/YunaVaultV2.sol\":4225:4240  participants[i] */\n      dup1\n      tag_282\n        /* \"contracts/YunaVaultV2.sol\":4182:4185  i++ */\n      tag_283\n        /* \"contracts/YunaVaultV2.sol\":4225:4240  participants[i] */\n      swap3\n      tag_2\n      jump\t// in\n    tag_282:\n        /* \"contracts/YunaVaultV2.sol\":325:6704  contract YunaVaultV2 is ReentrancyGuard, Ownable {... */\n      swap1\n      sload\n      swap1\n      dup5\n      shl\n      shr\n      sub(shl(0xa0, 0x01), 0x01)\n      and\n      0x00\n      swap1\n      dup2\n      mstore\n        /* \"contracts/YunaVaultV2.sol\":4219:4224  users */\n      0x05\n        /* \"contracts/YunaVaultV2.sol\":325:6704  contract YunaVaultV2 is ReentrancyGuard, Ownable {... */\n      0x20\n      mstore\n      0x40\n      swap1\n      keccak256\n      dup1\n      sload\n      swap1\n        /* \"contracts/YunaVaultV2.sol\":4260:4274  u.balance == 0 */\n      dup2\n      iszero\n        /* \"contracts/YunaVaultV2.sol\":4256:4284  if (u.balance == 0) continue */\n      tag_284\n      jumpi\n        /* \"contracts/YunaVaultV2.sol\":4381:4385  u.xp */\n      0x02\n        /* \"contracts/YunaVaultV2.sol\":4320:4366  (block.number - u.lastUpdateBlock) * u.balance */\n      tag_286\n        /* \"contracts/YunaVaultV2.sol\":325:6704  contract YunaVaultV2 is ReentrancyGuard, Ownable {... */\n      0x01\n        /* \"contracts/YunaVaultV2.sol\":4336:4353  u.lastUpdateBlock */\n      dup4\n      add\n        /* \"contracts/YunaVaultV2.sol\":325:6704  contract YunaVaultV2 is ReentrancyGuard, Ownable {... */\n      swap4\n        /* \"contracts/YunaVaultV2.sol\":4321:4353  block.number - u.lastUpdateBlock */\n      tag_287\n        /* \"contracts/YunaVaultV2.sol\":325:6704  contract YunaVaultV2 is ReentrancyGuard, Ownable {... */\n      dup6\n      sload\n        /* \"contracts/YunaVaultV2.sol\":3993:4005  block.number */\n      number\n        /* \"contracts/YunaVaultV2.sol\":4321:4353  block.number - u.lastUpdateBlock */\n      tag_8\n      jump\t// in\n    tag_287:\n        /* \"contracts/YunaVaultV2.sol\":4320:4366  (block.number - u.lastUpdateBlock) * u.balance */\n      tag_9\n      jump\t// in\n    tag_286:\n        /* \"contracts/YunaVaultV2.sol\":4381:4385  u.xp */\n      swap2\n      add\n        /* \"contracts/YunaVaultV2.sol\":4381:4397  u.xp += gainedXP */\n      tag_288\n        /* \"contracts/YunaVaultV2.sol\":325:6704  contract YunaVaultV2 is ReentrancyGuard, Ownable {... */\n      dup3\n      dup3\n      sload\n        /* \"contracts/YunaVaultV2.sol\":4381:4397  u.xp += gainedXP */\n      tag_5\n      jump\t// in\n    tag_288:\n        /* \"@openzeppelin/contracts/security/ReentrancyGuard.sol\":1759:1760  2 */\n      swap1\n      sstore\n        /* \"contracts/YunaVaultV2.sol\":4412:4431  totalXP += gainedXP */\n      tag_289\n      0x04\n        /* \"contracts/YunaVaultV2.sol\":325:6704  contract YunaVaultV2 is ReentrancyGuard, Ownable {... */\n      swap2\n      dup3\n      sload\n        /* \"contracts/YunaVaultV2.sol\":4412:4431  totalXP += gainedXP */\n      tag_5\n      jump\t// in\n    tag_289:\n        /* \"@openzeppelin/contracts/security/ReentrancyGuard.sol\":1759:1760  2 */\n      swap1\n      sstore\n        /* \"contracts/YunaVaultV2.sol\":3993:4005  block.number */\n      number\n        /* \"@openzeppelin/contracts/security/ReentrancyGuard.sol\":1759:1760  2 */\n      swap1\n      sstore\n        /* \"contracts/YunaVaultV2.sol\":4182:4185  i++ */\n      tag_12\n      jump\t// in\n    tag_283:\n        /* \"contracts/YunaVaultV2.sol\":4142:4155  uint256 i = 0 */\n      jump(tag_279)\n        /* \"contracts/YunaVaultV2.sol\":4256:4284  if (u.balance == 0) continue */\n    tag_284:\n        /* \"contracts/YunaVaultV2.sol\":4276:4284  continue */\n      pop\n      pop\n        /* \"contracts/YunaVaultV2.sol\":4182:4185  i++ */\n      tag_12\n      jump\t// in\n        /* \"contracts/YunaVaultV2.sol\":4157:4180  i < participants.length */\n    tag_280:\n      pop\n        /* \"contracts/YunaVaultV2.sol\":654:656  50 */\n      0x32\n        /* \"contracts/YunaVaultV2.sol\":325:6704  contract YunaVaultV2 is ReentrancyGuard, Ownable {... */\n      dup3\n      mul\n      dup3\n      dup2\n      div\n        /* \"contracts/YunaVaultV2.sol\":654:656  50 */\n      0x32\n        /* \"contracts/YunaVaultV2.sol\":325:6704  contract YunaVaultV2 is ReentrancyGuard, Ownable {... */\n      eq\n      dup4\n      iszero\n      or\n      iszero\n      tag_231\n      jumpi\n        /* \"contracts/YunaVaultV2.sol\":698:703  10000 */\n      0x2710\n        /* \"contracts/YunaVaultV2.sol\":4704:4723  pool - callerReward */\n      tag_293\n        /* \"contracts/YunaVaultV2.sol\":325:6704  contract YunaVaultV2 is ReentrancyGuard, Ownable {... */\n      swap2\n      div\n        /* \"contracts/YunaVaultV2.sol\":4573:4589  callerReward > 0 */\n      dup1\n      swap4\n      dup2\n        /* \"contracts/YunaVaultV2.sol\":4569:4668  if (callerReward > 0) {... */\n      tag_294\n      jumpi\n        /* \"contracts/YunaVaultV2.sol\":4704:4723  pool - callerReward */\n      tag_8\n      jump\t// in\n    tag_293:\n        /* \"contracts/YunaVaultV2.sol\":4741:4754  uint256 i = 0 */\n      swap1\n      0x00\n        /* \"contracts/YunaVaultV2.sol\":4781:4784  i++ */\n    tag_296:\n        /* \"contracts/YunaVaultV2.sol\":4161:4173  participants */\n      0x06\n        /* \"contracts/YunaVaultV2.sol\":325:6704  contract YunaVaultV2 is ReentrancyGuard, Ownable {... */\n      sload\n        /* \"contracts/YunaVaultV2.sol\":4756:4779  i < participants.length */\n      dup2\n      lt\n      iszero\n      tag_297\n      jumpi\n        /* \"contracts/YunaVaultV2.sol\":4816:4831  participants[i] */\n      dup1\n      tag_299\n        /* \"contracts/YunaVaultV2.sol\":4781:4784  i++ */\n      tag_300\n        /* \"contracts/YunaVaultV2.sol\":4816:4831  participants[i] */\n      swap3\n      tag_2\n      jump\t// in\n    tag_299:\n        /* \"contracts/YunaVaultV2.sol\":325:6704  contract YunaVaultV2 is ReentrancyGuard, Ownable {... */\n      swap1\n      sload\n      swap1\n      dup5\n      shl\n      shr\n      sub(shl(0xa0, 0x01), 0x01)\n      and\n      0x00\n      dup2\n      dup2\n      mstore\n        /* \"contracts/YunaVaultV2.sol\":4219:4224  users */\n      0x05\n        /* \"contracts/YunaVaultV2.sol\":325:6704  contract YunaVaultV2 is ReentrancyGuard, Ownable {... */\n      0x20\n      mstore\n      0x40\n      swap1\n      keccak256\n        /* \"contracts/YunaVaultV2.sol\":4381:4385  u.xp */\n      0x02\n        /* \"contracts/YunaVaultV2.sol\":4893:4897  u.xp */\n      add\n        /* \"contracts/YunaVaultV2.sol\":325:6704  contract YunaVaultV2 is ReentrancyGuard, Ownable {... */\n      dup1\n      sload\n      swap2\n        /* \"contracts/YunaVaultV2.sol\":4893:4902  u.xp == 0 */\n      dup3\n      iszero\n        /* \"contracts/YunaVaultV2.sol\":4889:4912  if (u.xp == 0) continue */\n      tag_301\n      jumpi\n        /* \"contracts/YunaVaultV2.sol\":4946:4978  (distributable * u.xp) / totalXP */\n      tag_303\n        /* \"contracts/YunaVaultV2.sol\":4947:4967  distributable * u.xp */\n      tag_304\n      0x00\n      swap5\n      dup10\n      tag_9\n      jump\t// in\n    tag_304:\n        /* \"contracts/YunaVaultV2.sol\":4412:4431  totalXP += gainedXP */\n      0x04\n        /* \"contracts/YunaVaultV2.sol\":325:6704  contract YunaVaultV2 is ReentrancyGuard, Ownable {... */\n      sload\n        /* \"contracts/YunaVaultV2.sol\":4946:4978  (distributable * u.xp) / totalXP */\n      swap1\n      tag_13\n      jump\t// in\n    tag_303:\n        /* \"contracts/YunaVaultV2.sol\":4997:5007  reward > 0 */\n      dup1\n        /* \"contracts/YunaVaultV2.sol\":4993:5047  if (reward > 0) rewardToken.safeTransfer(user, reward) */\n      tag_305\n      jumpi\n        /* \"contracts/YunaVaultV2.sol\":4781:4784  i++ */\n    tag_306:\n        /* \"@openzeppelin/contracts/security/ReentrancyGuard.sol\":1759:1760  2 */\n      pop\n      pop\n      sstore\n        /* \"contracts/YunaVaultV2.sol\":4781:4784  i++ */\n      tag_12\n      jump\t// in\n    tag_300:\n        /* \"contracts/YunaVaultV2.sol\":4741:4754  uint256 i = 0 */\n      jump(tag_296)\n        /* \"contracts/YunaVaultV2.sol\":4993:5047  if (reward > 0) rewardToken.safeTransfer(user, reward) */\n    tag_305:\n        /* \"contracts/YunaVaultV2.sol\":5040:5046  reward */\n      tag_308\n        /* \"contracts/YunaVaultV2.sol\":5009:5020  rewardToken */\n      swap2\n      immutable(\"0x69de3b38836c938ac93bb31643655e6e0a011af0f354a009a432084d0f963864\")\n        /* \"contracts/YunaVaultV2.sol\":5040:5046  reward */\n      tag_11\n      jump\t// in\n    tag_308:\n        /* \"contracts/YunaVaultV2.sol\":4993:5047  if (reward > 0) rewardToken.safeTransfer(user, reward) */\n      0x00\n      dup1\n      jump(tag_306)\n        /* \"contracts/YunaVaultV2.sol\":4889:4912  if (u.xp == 0) continue */\n    tag_301:\n        /* \"contracts/YunaVaultV2.sol\":4904:4912  continue */\n      pop\n      pop\n      pop\n        /* \"contracts/YunaVaultV2.sol\":4781:4784  i++ */\n      tag_12\n      jump\t// in\n        /* \"contracts/YunaVaultV2.sol\":4756:4779  i < participants.length */\n    tag_297:\n      pop\n      swap1\n        /* \"contracts/YunaVaultV2.sol\":5166:5203  ClaimAll(distributable, callerReward) */\n      0x3c3d358c457d91d874593441791f0b96c90172a78030ce0ce7e8e8c965fe1469\n        /* \"contracts/YunaVaultV2.sol\":4756:4779  i < participants.length */\n      swap3\n        /* \"contracts/YunaVaultV2.sol\":325:6704  contract YunaVaultV2 is ReentrancyGuard, Ownable {... */\n      0x40\n        /* \"contracts/YunaVaultV2.sol\":4756:4779  i < participants.length */\n      swap3\n      0x00\n        /* \"contracts/YunaVaultV2.sol\":4412:4431  totalXP += gainedXP */\n      0x04\n        /* \"@openzeppelin/contracts/security/ReentrancyGuard.sol\":1759:1760  2 */\n      sstore\n        /* \"contracts/YunaVaultV2.sol\":3993:4005  block.number */\n      number\n        /* \"@openzeppelin/contracts/security/ReentrancyGuard.sol\":1759:1760  2 */\n      swap1\n      sstore\n        /* \"contracts/YunaVaultV2.sol\":325:6704  contract YunaVaultV2 is ReentrancyGuard, Ownable {... */\n      dup3\n      mload\n      swap2\n      dup3\n      mstore\n      0x20\n      dup3\n      add\n      mstore\n        /* \"contracts/YunaVaultV2.sol\":5166:5203  ClaimAll(distributable, callerReward) */\n      log1\n        /* \"contracts/YunaVaultV2.sol\":3923:5211  function claimAll() external nonReentrant {... */\n      jump\t// out\n        /* \"contracts/YunaVaultV2.sol\":4569:4668  if (callerReward > 0) {... */\n    tag_294:\n        /* \"contracts/YunaVaultV2.sol\":4643:4655  callerReward */\n      tag_309\n        /* \"contracts/YunaVaultV2.sol\":4631:4641  msg.sender */\n      dup3\n      caller\n        /* \"contracts/YunaVaultV2.sol\":4606:4617  rewardToken */\n      immutable(\"0x69de3b38836c938ac93bb31643655e6e0a011af0f354a009a432084d0f963864\")\n        /* \"contracts/YunaVaultV2.sol\":4643:4655  callerReward */\n      tag_11\n      jump\t// in\n    tag_309:\n        /* \"contracts/YunaVaultV2.sol\":4704:4723  pool - callerReward */\n      tag_8\n      jump\t// in\n        /* \"contracts/YunaVaultV2.sol\":4034:4074  if (blocks == 0 || totalXP == 0) return; */\n    tag_276:\n        /* \"contracts/YunaVaultV2.sol\":4067:4074  return; */\n      pop\n      pop\n      jump\t// out\n        /* \"contracts/YunaVaultV2.sol\":4038:4065  blocks == 0 || totalXP == 0 */\n    tag_274:\n        /* \"contracts/YunaVaultV2.sol\":325:6704  contract YunaVaultV2 is ReentrancyGuard, Ownable {... */\n      pop\n        /* \"contracts/YunaVaultV2.sol\":4053:4060  totalXP */\n      0x04\n        /* \"contracts/YunaVaultV2.sol\":325:6704  contract YunaVaultV2 is ReentrancyGuard, Ownable {... */\n      sload\n        /* \"contracts/YunaVaultV2.sol\":4053:4065  totalXP == 0 */\n      iszero\n        /* \"contracts/YunaVaultV2.sol\":4038:4065  blocks == 0 || totalXP == 0 */\n      jump(tag_275)\n        /* \"contracts/YunaVaultV2.sol\":5219:5955  function claimableReward(address userAddr) external view returns (uint256) {... */\n    tag_15:\n      sub(shl(0xa0, 0x01), 0x01)\n        /* \"contracts/YunaVaultV2.sol\":325:6704  contract YunaVaultV2 is ReentrancyGuard, Ownable {... */\n      and\n      0x00\n      swap1\n      dup2\n      mstore\n        /* \"contracts/YunaVaultV2.sol\":5322:5327  users */\n      0x05\n        /* \"contracts/YunaVaultV2.sol\":325:6704  contract YunaVaultV2 is ReentrancyGuard, Ownable {... */\n      0x20\n      mstore\n      0x40\n      dup2\n      keccak256\n      dup1\n      sload\n      swap2\n        /* \"contracts/YunaVaultV2.sol\":5352:5366  u.balance == 0 */\n      dup3\n      iszero\n        /* \"contracts/YunaVaultV2.sol\":5348:5376  if (u.balance == 0) return 0 */\n      tag_317\n      jumpi\n        /* \"contracts/YunaVaultV2.sol\":5406:5436  block.number - lastRewardBlock */\n      tag_312\n        /* \"contracts/YunaVaultV2.sol\":5421:5436  lastRewardBlock */\n      0x03\n        /* \"contracts/YunaVaultV2.sol\":325:6704  contract YunaVaultV2 is ReentrancyGuard, Ownable {... */\n      sload\n        /* \"contracts/YunaVaultV2.sol\":5406:5418  block.number */\n      number\n        /* \"contracts/YunaVaultV2.sol\":5406:5436  block.number - lastRewardBlock */\n      tag_8\n      jump\t// in\n    tag_312:\n        /* \"contracts/YunaVaultV2.sol\":5451:5462  blocks == 0 */\n      swap3\n      dup4\n      iszero\n        /* \"contracts/YunaVaultV2.sol\":5447:5472  if (blocks == 0) return 0 */\n      tag_313\n      jumpi\n        /* \"contracts/YunaVaultV2.sol\":325:6704  contract YunaVaultV2 is ReentrancyGuard, Ownable {... */\n      0x01\n        /* \"contracts/YunaVaultV2.sol\":5502:5506  u.xp */\n      0x02\n      dup5\n      add\n        /* \"contracts/YunaVaultV2.sol\":325:6704  contract YunaVaultV2 is ReentrancyGuard, Ownable {... */\n      sload\n        /* \"contracts/YunaVaultV2.sol\":5521:5538  u.lastUpdateBlock */\n      swap4\n      add\n        /* \"contracts/YunaVaultV2.sol\":325:6704  contract YunaVaultV2 is ReentrancyGuard, Ownable {... */\n      sload\n        /* \"contracts/YunaVaultV2.sol\":5521:5542  u.lastUpdateBlock > 0 */\n      dup1\n        /* \"contracts/YunaVaultV2.sol\":5517:5627  if (u.lastUpdateBlock > 0) {... */\n      tag_315\n      jumpi\n        /* \"contracts/YunaVaultV2.sol\":5219:5955  function claimableReward(address userAddr) external view returns (uint256) {... */\n    tag_316:\n        /* \"contracts/YunaVaultV2.sol\":5643:5654  userXP == 0 */\n      pop\n      pop\n      dup2\n      iszero\n        /* \"contracts/YunaVaultV2.sol\":5639:5664  if (userXP == 0) return 0 */\n      tag_317\n      jumpi\n        /* \"contracts/YunaVaultV2.sol\":5746:5769  blocks * rewardPerBlock */\n      tag_319\n        /* \"contracts/YunaVaultV2.sol\":5704:5720  totalXP + userXP */\n      tag_320\n        /* \"contracts/YunaVaultV2.sol\":325:6704  contract YunaVaultV2 is ReentrancyGuard, Ownable {... */\n      dup4\n        /* \"contracts/YunaVaultV2.sol\":5704:5711  totalXP */\n      0x04\n        /* \"contracts/YunaVaultV2.sol\":325:6704  contract YunaVaultV2 is ReentrancyGuard, Ownable {... */\n      sload\n        /* \"contracts/YunaVaultV2.sol\":5704:5720  totalXP + userXP */\n      tag_5\n      jump\t// in\n    tag_320:\n        /* \"contracts/YunaVaultV2.sol\":5755:5769  rewardPerBlock */\n      swap4\n      immutable(\"0xef2554acf1f0b6d66eb4be042a8f7ca38735a42ab84dc1854a7ed9713c904901\")\n        /* \"contracts/YunaVaultV2.sol\":5746:5769  blocks * rewardPerBlock */\n      swap1\n      tag_9\n      jump\t// in\n    tag_319:\n        /* \"contracts/YunaVaultV2.sol\":325:6704  contract YunaVaultV2 is ReentrancyGuard, Ownable {... */\n      swap1\n        /* \"contracts/YunaVaultV2.sol\":654:656  50 */\n      0x32\n        /* \"contracts/YunaVaultV2.sol\":325:6704  contract YunaVaultV2 is ReentrancyGuard, Ownable {... */\n      dup3\n      mul\n      swap1\n      dup3\n      dup3\n      div\n        /* \"contracts/YunaVaultV2.sol\":654:656  50 */\n      0x32\n        /* \"contracts/YunaVaultV2.sol\":325:6704  contract YunaVaultV2 is ReentrancyGuard, Ownable {... */\n      eq\n      dup4\n      iszero\n      or\n      iszero\n      tag_321\n      jumpi\n      pop\n      swap2\n        /* \"contracts/YunaVaultV2.sol\":5868:5884  pool - callerFee */\n      tag_287\n        /* \"contracts/YunaVaultV2.sol\":5905:5927  distributable * userXP */\n      tag_324\n        /* \"contracts/YunaVaultV2.sol\":325:6704  contract YunaVaultV2 is ReentrancyGuard, Ownable {... */\n      swap3\n        /* \"contracts/YunaVaultV2.sol\":698:703  10000 */\n      0x2710\n        /* \"contracts/YunaVaultV2.sol\":5904:5947  (distributable * userXP) / simulatedTotalXP */\n      tag_325\n        /* \"contracts/YunaVaultV2.sol\":325:6704  contract YunaVaultV2 is ReentrancyGuard, Ownable {... */\n      swap7\n      swap6\n      div\n        /* \"contracts/YunaVaultV2.sol\":5868:5884  pool - callerFee */\n      swap1\n      tag_8\n      jump\t// in\n        /* \"contracts/YunaVaultV2.sol\":5905:5927  distributable * userXP */\n    tag_324:\n        /* \"contracts/YunaVaultV2.sol\":5904:5947  (distributable * userXP) / simulatedTotalXP */\n      tag_13\n      jump\t// in\n    tag_325:\n        /* \"contracts/YunaVaultV2.sol\":5219:5955  function claimableReward(address userAddr) external view returns (uint256) {... */\n      swap1\n      jump\t// out\n        /* \"contracts/YunaVaultV2.sol\":325:6704  contract YunaVaultV2 is ReentrancyGuard, Ownable {... */\n    tag_321:\n      shl(0xe0, 0x4e487b71)\n      dup2\n      mstore\n      0x11\n        /* \"contracts/YunaVaultV2.sol\":5704:5711  totalXP */\n      0x04\n        /* \"contracts/YunaVaultV2.sol\":325:6704  contract YunaVaultV2 is ReentrancyGuard, Ownable {... */\n      mstore\n      0x24\n      swap1\n      revert\n        /* \"contracts/YunaVaultV2.sol\":5639:5664  if (userXP == 0) return 0 */\n    tag_317:\n        /* \"contracts/YunaVaultV2.sol\":5656:5664  return 0 */\n      swap2\n      pop\n      pop\n      swap1\n      jump\t// out\n        /* \"contracts/YunaVaultV2.sol\":5517:5627  if (u.lastUpdateBlock > 0) {... */\n    tag_315:\n        /* \"contracts/YunaVaultV2.sol\":5559:5615  userXP += (block.number - u.lastUpdateBlock) * u.balance */\n      tag_326\n        /* \"contracts/YunaVaultV2.sol\":5406:5418  block.number */\n      swap3\n      swap4\n      swap2\n        /* \"contracts/YunaVaultV2.sol\":5570:5602  block.number - u.lastUpdateBlock */\n      tag_287\n        /* \"contracts/YunaVaultV2.sol\":5569:5615  (block.number - u.lastUpdateBlock) * u.balance */\n      tag_112\n        /* \"contracts/YunaVaultV2.sol\":5406:5418  block.number */\n      swap3\n      number\n        /* \"contracts/YunaVaultV2.sol\":5570:5602  block.number - u.lastUpdateBlock */\n      tag_8\n      jump\t// in\n        /* \"contracts/YunaVaultV2.sol\":5559:5615  userXP += (block.number - u.lastUpdateBlock) * u.balance */\n    tag_326:\n        /* \"contracts/YunaVaultV2.sol\":5517:5627  if (u.lastUpdateBlock > 0) {... */\n      swap1\n      0x00\n      dup1\n      jump(tag_316)\n        /* \"contracts/YunaVaultV2.sol\":5447:5472  if (blocks == 0) return 0 */\n    tag_313:\n        /* \"contracts/YunaVaultV2.sol\":5464:5472  return 0 */\n      pop\n      swap2\n      pop\n      pop\n      swap1\n      jump\t// out\n        /* \"contracts/YunaVaultV2.sol\":5963:6169  function remainingRewardPool() external view returns (uint256) {... */\n    tag_16:\n        /* \"contracts/YunaVaultV2.sol\":6054:6084  block.number - lastRewardBlock */\n      tag_329\n        /* \"contracts/YunaVaultV2.sol\":6069:6084  lastRewardBlock */\n      0x03\n        /* \"contracts/YunaVaultV2.sol\":325:6704  contract YunaVaultV2 is ReentrancyGuard, Ownable {... */\n      sload\n        /* \"contracts/YunaVaultV2.sol\":6054:6066  block.number */\n      number\n        /* \"contracts/YunaVaultV2.sol\":6054:6084  block.number - lastRewardBlock */\n      tag_8\n      jump\t// in\n    tag_329:\n        /* \"contracts/YunaVaultV2.sol\":6099:6110  blocks == 0 */\n      dup1\n      iszero\n        /* \"contracts/YunaVaultV2.sol\":6095:6120  if (blocks == 0) return 0 */\n      tag_330\n      jumpi\n        /* \"contracts/YunaVaultV2.sol\":6138:6161  blocks * rewardPerBlock */\n      tag_325\n        /* \"contracts/YunaVaultV2.sol\":6147:6161  rewardPerBlock */\n      swap1\n      immutable(\"0xef2554acf1f0b6d66eb4be042a8f7ca38735a42ab84dc1854a7ed9713c904901\")\n        /* \"contracts/YunaVaultV2.sol\":6138:6161  blocks * rewardPerBlock */\n      swap1\n      tag_9\n      jump\t// in\n        /* \"contracts/YunaVaultV2.sol\":6095:6120  if (blocks == 0) return 0 */\n    tag_330:\n        /* \"contracts/YunaVaultV2.sol\":6112:6120  return 0 */\n      pop\n      0x00\n      swap1\n      jump\t// out\n\n    auxdata: 0xa2646970667358221220acfac99534ca4ecebccbeba3454293340e7b88b41eeec773ec5f00569200faed64736f6c63430008140033\n}\n",
				"bytecode": {
					"linkReferences": {},
					"object": "6101006040908082523462000217576060816200132980380380916200002682856200021b565b83398101031262000217576200003c8162000253565b62000057836200004f6020850162000253565b930162000253565b915f92600184553315620001ff5760018054336001600160a01b0319821681179092558651946020948694600494869491936001600160a01b03939284929083167f8be0079c531659141344cd1fd0a4f28419497f9722a3daafe3b4186f6b6457e08d80a31660805216908160a05260c05263313ce56760e01b82525afa8015620001f5578290620001ae575b60ff915016604d81116200019a57600a0a90630bebc200918083029283040362000186575061cd50900460e05243600355516110c090816200026982396080518181816101a50152818161065801528181610775015281816108ce0152610a99015260a05181818161026f01528181610eab0152610f20015260c051816105ab015260e0518181816105f201528181610d6201528181610fb301526110600152f35b634e487b7160e01b81526011600452602490fd5b634e487b7160e01b82526011600452602482fd5b506020813d8211620001ec575b81620001ca602093836200021b565b81010312620001e8575160ff81168103620001e85760ff90620000e4565b5080fd5b3d9150620001bb565b83513d84823e3d90fd5b8451631e4fbdf760e01b815260048101859052602490fd5b5f80fd5b601f909101601f19168101906001600160401b038211908210176200023f57604052565b634e487b7160e01b5f52604160045260245ffd5b51906001600160a01b0382168203620002175756fe60406080815260049081361015610014575f80fd5b5f91823560e01c9081632e1a7d4d146108775781632f4f21e21461080457816335c1d349146107c3578163362f04c0146107a45781635fcbd28514610760578163715018a61461070357816371bf8623146106e6578163853828b6146106155781638ae39cac146105da5781638ce74426146105965781638da5cb5b1461056d578163a87430ba1461051f578163a9f8d18114610500578163aa93bfa8146104e2578163b6b55f25146104bb578163c0d7865514610416578163d1058e59146103eb578163e7a0fb9b146103ce578163e9503425146103a1578163e9e7eb351461032e578163f2fde38b1461029e578163f7c618c11461025a578163f7e4cd0d1461017957508063f887ea40146101515763fc7039e014610133575f80fd5b3461014d578160031936011261014d576020905160328152f35b5080fd5b503461014d578160031936011261014d5760025490516001600160a01b039091168152602090f35b9190503461023157826003193601126102315780516370a0823160e01b815230838201526020816024817f00000000000000000000000000000000000000000000000000000000000000006001600160a01b03165afa9283156102505784936101e7575b6020848451908152f35b909192506020903d8211610248575b601f8201601f191683019067ffffffffffffffff82118483101761023557506020918391855281010312610231576020925051905f806101dd565b8280fd5b634e487b7160e01b865260419052602485fd5b3d91506101f6565b82513d86823e3d90fd5b50503461014d578160031936011261014d57517f00000000000000000000000000000000000000000000000000000000000000006001600160a01b03168152602090f35b905034610231576020366003190112610231576102b9610931565b906102c2610994565b6001600160a01b03918216928315610318575050600154826bffffffffffffffffffffffff60a01b821617600155167f8be0079c531659141344cd1fd0a4f28419497f9722a3daafe3b4186f6b6457e08380a380f35b51631e4fbdf760e01b8152908101849052602490fd5b50503461014d57602036600319011261014d5760209181906001600160a01b03610356610931565b168152600584522090600282015491600181015480610378575b505051908152f35b61039992939161038b6103939243610c22565b905490610c2f565b90610a14565b905f80610370565b50503461014d57602036600319011261014d576020906103c76103c2610931565b610f57565b9051908152f35b50503461014d578160031936011261014d576020906103c7611048565b83346104135780600319360112610413576104046109c0565b61040c610d42565b6001815580f35b80fd5b9190503461023157602036600319011261023157610432610931565b61043a610994565b6001600160a01b031691821561048a5750600280546001600160a01b03191683179055519081527fc6b438e6a8a59579ce6a4406cbd203b740e0d47b458aae6596339bcd40c40d1590602090a180f35b6020606492519162461bcd60e51b8352820152600c60248201526b7a65726f206164647265737360a01b6044820152fd5b83903461014d57602036600319011261014d5761040c906104da6109c0565b353333610a35565b90503461023157826003193601126102315760209250549051908152f35b50503461014d578160031936011261014d576020906003549051908152f35b50503461014d57602036600319011261014d5760609181906001600160a01b03610547610931565b168152600560205220805491600260018301549201549181519384526020840152820152f35b50503461014d578160031936011261014d5760015490516001600160a01b039091168152602090f35b50503461014d578160031936011261014d57517f00000000000000000000000000000000000000000000000000000000000000006001600160a01b03168152602090f35b50503461014d578160031936011261014d57602090517f00000000000000000000000000000000000000000000000000000000000000008152f35b919050346102315782600319360112610231576106306109c0565b338352600560205280832080549283156106ad5750839061065033610c42565b5561067c82337f0000000000000000000000000000000000000000000000000000000000000000610cc4565b519081527f7084f5476618d8e60b11ef0d7d3f06914655adb8793e28ff7f018d4c76d505d560203392a26001815580f35b606490602084519162461bcd60e51b835282015260136024820152726e6f7468696e6720746f20776974686472617760681b6044820152fd5b50503461014d578160031936011261014d57602090516127108152f35b833461041357806003193601126104135761071c610994565b600180546001600160a01b0319811690915581906001600160a01b03167f8be0079c531659141344cd1fd0a4f28419497f9722a3daafe3b4186f6b6457e08280a380f35b50503461014d578160031936011261014d57517f00000000000000000000000000000000000000000000000000000000000000006001600160a01b03168152602090f35b50503461014d578160031936011261014d576020906006549051908152f35b90503461023157602036600319011261023157359160065483101561041357506107ee60209261094b565b905491519160018060a01b039160031b1c168152f35b90503461023157816003193601126102315761081e610931565b916108276109c0565b6002546001600160a01b03163303610847578361040c6024358533610a35565b906020606492519162461bcd60e51b8352820152600a6024820152693737ba103937baba32b960b11b6044820152fd5b91905034610231576020366003190112610231578135916108966109c0565b33845260056020528184209083151580610926575b156108f257506108ba33610c42565b6108c5838254610c22565b905561067c82337f0000000000000000000000000000000000000000000000000000000000000000610cc4565b606490602084519162461bcd60e51b8352820152600e60248201526d1a5b9d985b1a5908185b5bdd5b9d60921b6044820152fd5b5081548411156108ab565b600435906001600160a01b038216820361094757565b5f80fd5b6006548110156109805760065f527ff652222313e28459528d920b65115c16c04f3efc82aaedc97be59f3f377c0d3f01905f90565b634e487b7160e01b5f52603260045260245ffd5b6001546001600160a01b031633036109a857565b60405163118cdaa760e01b8152336004820152602490fd5b60025f54146109cf5760025f55565b60405162461bcd60e51b815260206004820152601f60248201527f5265656e7472616e637947756172643a207265656e7472616e742063616c6c006044820152606490fd5b91908201809211610a2157565b634e487b7160e01b5f52601160045260245ffd5b91908115610b8957610a4681610c42565b6040516323b872dd60e01b60208201526001600160a01b039384166024820152306044820152606480820184905281529060a0820167ffffffffffffffff811183821017610b75578492610abd916040527f0000000000000000000000000000000000000000000000000000000000000000610bbd565b1691825f52600560205260405f2090815415610b10575b508181610b057f2da466a7b24304f47e87fa2e1e5a81b9831ce54fec19055ce277ca2f39ba42c49460209454610a14565b9055604051908152a2565b916006549168010000000000000000831015610b75577f2da466a7b24304f47e87fa2e1e5a81b9831ce54fec19055ce277ca2f39ba42c493610b5a8460016020960160065561094b565b819291549060031b9188831b921b1916179055915091610ad4565b634e487b7160e01b5f52604160045260245ffd5b60405162461bcd60e51b815260206004820152600c60248201526b1e995c9bc819195c1bdcda5d60a21b6044820152606490fd5b905f602091828151910182855af115610c17575f513d610c0e57506001600160a01b0381163b155b610bec5750565b604051635274afe760e01b81526001600160a01b039091166004820152602490fd5b60011415610be5565b6040513d5f823e3d90fd5b91908203918211610a2157565b81810292918115918404141715610a2157565b60018060a01b03165f52600560205260405f206001810190815415610cbe57610c6c825443610c22565b9081151580610cb4575b610c82575b5050439055565b6002610c93610caa93835490610c2f565b9101610ca0828254610a14565b9055600454610a14565b6004555f80610c7b565b5080541515610c76565b50439055565b60405163a9059cbb60e01b60208201526001600160a01b039092166024830152604480830193909352918152608081019167ffffffffffffffff831182841017610b7557610d1492604052610bbd565b565b5f198114610a215760010190565b8115610d2e570490565b634e487b7160e01b5f52601260045260245ffd5b6003610d4f815443610c22565b80158015610f4d575b610f4957610d87907f000000000000000000000000000000000000000000000000000000000000000090610c2f565b905f5b600654811015610e125780610da1610e069261094b565b905490841b1c6001600160a01b03165f9081526005602052604090208054908115610e0b576002610de06001830193610ddb855443610c22565b610c2f565b9101610ded828254610a14565b9055610dfc6004918254610a14565b9055439055610d16565b610d8a565b5050610d16565b506032820282810460321483151715610a2157612710610e399104809381610f1957610c22565b905f5b600654811015610ede5780610e53610ea09261094b565b905490841b1c6001600160a01b03165f8181526005602052604090206002018054918215610ed657610e92610e895f9489610c2f565b60045490610d24565b80610ea5575b505055610d16565b610e3c565b610ecf917f0000000000000000000000000000000000000000000000000000000000000000610cc4565b5f80610e98565b505050610d16565b50907f3c3d358c457d91d874593441791f0b96c90172a78030ce0ce7e8e8c965fe1469926040925f60045543905582519182526020820152a1565b610f4482337f0000000000000000000000000000000000000000000000000000000000000000610cc4565b610c22565b5050565b5060045415610d58565b6001600160a01b03165f908152600560205260408120805491821561102057610f8260035443610c22565b928315611041576001600284015493015480611026575b5050811561102057610fd8610fb083600454610a14565b937f000000000000000000000000000000000000000000000000000000000000000090610c2f565b9060328202908282046032148315171561100c575091610ddb6110049261271061100996950490610c22565b610d24565b90565b634e487b7160e01b81526011600452602490fd5b91505090565b611039929391610ddb6103939243610c22565b905f80610f99565b5091505090565b61105460035443610c22565b801561108557611009907f000000000000000000000000000000000000000000000000000000000000000090610c2f565b505f9056fea2646970667358221220acfac99534ca4ecebccbeba3454293340e7b88b41eeec773ec5f00569200faed64736f6c63430008140033",
					"opcodes": "PUSH2 0x100 PUSH1 0x40 SWAP1 DUP1 DUP3 MSTORE CALLVALUE PUSH3 0x217 JUMPI PUSH1 0x60 DUP2 PUSH3 0x1329 DUP1 CODESIZE SUB DUP1 SWAP2 PUSH3 0x26 DUP3 DUP6 PUSH3 0x21B JUMP JUMPDEST DUP4 CODECOPY DUP2 ADD SUB SLT PUSH3 0x217 JUMPI PUSH3 0x3C DUP2 PUSH3 0x253 JUMP JUMPDEST PUSH3 0x57 DUP4 PUSH3 0x4F PUSH1 0x20 DUP6 ADD PUSH3 0x253 JUMP JUMPDEST SWAP4 ADD PUSH3 0x253 JUMP JUMPDEST SWAP2 PUSH0 SWAP3 PUSH1 0x1 DUP5 SSTORE CALLER ISZERO PUSH3 0x1FF JUMPI PUSH1 0x1 DUP1 SLOAD CALLER PUSH1 0x1 PUSH1 0x1 PUSH1 0xA0 SHL SUB NOT DUP3 AND DUP2 OR SWAP1 SWAP3 SSTORE DUP7 MLOAD SWAP5 PUSH1 0x20 SWAP5 DUP7 SWAP5 PUSH1 0x4 SWAP5 DUP7 SWAP5 SWAP2 SWAP4 PUSH1 0x1 PUSH1 0x1 PUSH1 0xA0 SHL SUB SWAP4 SWAP3 DUP5 SWAP3 SWAP1 DUP4 AND PUSH32 0x8BE0079C531659141344CD1FD0A4F28419497F9722A3DAAFE3B4186F6B6457E0 DUP14 DUP1 LOG3 AND PUSH1 0x80 MSTORE AND SWAP1 DUP2 PUSH1 0xA0 MSTORE PUSH1 0xC0 MSTORE PUSH4 0x313CE567 PUSH1 0xE0 SHL DUP3 MSTORE GAS STATICCALL DUP1 ISZERO PUSH3 0x1F5 JUMPI DUP3 SWAP1 PUSH3 0x1AE JUMPI JUMPDEST PUSH1 0xFF SWAP2 POP AND PUSH1 0x4D DUP2 GT PUSH3 0x19A JUMPI PUSH1 0xA EXP SWAP1 PUSH4 0xBEBC200 SWAP2 DUP1 DUP4 MUL SWAP3 DUP4 DIV SUB PUSH3 0x186 JUMPI POP PUSH2 0xCD50 SWAP1 DIV PUSH1 0xE0 MSTORE NUMBER PUSH1 0x3 SSTORE MLOAD PUSH2 0x10C0 SWAP1 DUP2 PUSH3 0x269 DUP3 CODECOPY PUSH1 0x80 MLOAD DUP2 DUP2 DUP2 PUSH2 0x1A5 ADD MSTORE DUP2 DUP2 PUSH2 0x658 ADD MSTORE DUP2 DUP2 PUSH2 0x775 ADD MSTORE DUP2 DUP2 PUSH2 0x8CE ADD MSTORE PUSH2 0xA99 ADD MSTORE PUSH1 0xA0 MLOAD DUP2 DUP2 DUP2 PUSH2 0x26F ADD MSTORE DUP2 DUP2 PUSH2 0xEAB ADD MSTORE PUSH2 0xF20 ADD MSTORE PUSH1 0xC0 MLOAD DUP2 PUSH2 0x5AB ADD MSTORE PUSH1 0xE0 MLOAD DUP2 DUP2 DUP2 PUSH2 0x5F2 ADD MSTORE DUP2 DUP2 PUSH2 0xD62 ADD MSTORE DUP2 DUP2 PUSH2 0xFB3 ADD MSTORE PUSH2 0x1060 ADD MSTORE RETURN JUMPDEST PUSH4 0x4E487B71 PUSH1 0xE0 SHL DUP2 MSTORE PUSH1 0x11 PUSH1 0x4 MSTORE PUSH1 0x24 SWAP1 REVERT JUMPDEST PUSH4 0x4E487B71 PUSH1 0xE0 SHL DUP3 MSTORE PUSH1 0x11 PUSH1 0x4 MSTORE PUSH1 0x24 DUP3 REVERT JUMPDEST POP PUSH1 0x20 DUP2 RETURNDATASIZE DUP3 GT PUSH3 0x1EC JUMPI JUMPDEST DUP2 PUSH3 0x1CA PUSH1 0x20 SWAP4 DUP4 PUSH3 0x21B JUMP JUMPDEST DUP2 ADD SUB SLT PUSH3 0x1E8 JUMPI MLOAD PUSH1 0xFF DUP2 AND DUP2 SUB PUSH3 0x1E8 JUMPI PUSH1 0xFF SWAP1 PUSH3 0xE4 JUMP JUMPDEST POP DUP1 REVERT JUMPDEST RETURNDATASIZE SWAP2 POP PUSH3 0x1BB JUMP JUMPDEST DUP4 MLOAD RETURNDATASIZE DUP5 DUP3 RETURNDATACOPY RETURNDATASIZE SWAP1 REVERT JUMPDEST DUP5 MLOAD PUSH4 0x1E4FBDF7 PUSH1 0xE0 SHL DUP2 MSTORE PUSH1 0x4 DUP2 ADD DUP6 SWAP1 MSTORE PUSH1 0x24 SWAP1 REVERT JUMPDEST PUSH0 DUP1 REVERT JUMPDEST PUSH1 0x1F SWAP1 SWAP2 ADD PUSH1 0x1F NOT AND DUP2 ADD SWAP1 PUSH1 0x1 PUSH1 0x1 PUSH1 0x40 SHL SUB DUP3 GT SWAP1 DUP3 LT OR PUSH3 0x23F JUMPI PUSH1 0x40 MSTORE JUMP JUMPDEST PUSH4 0x4E487B71 PUSH1 0xE0 SHL PUSH0 MSTORE PUSH1 0x41 PUSH1 0x4 MSTORE PUSH1 0x24 PUSH0 REVERT JUMPDEST MLOAD SWAP1 PUSH1 0x1 PUSH1 0x1 PUSH1 0xA0 SHL SUB DUP3 AND DUP3 SUB PUSH3 0x217 JUMPI JUMP INVALID PUSH1 0x40 PUSH1 0x80 DUP2 MSTORE PUSH1 0x4 SWAP1 DUP2 CALLDATASIZE LT ISZERO PUSH2 0x14 JUMPI PUSH0 DUP1 REVERT JUMPDEST PUSH0 SWAP2 DUP3 CALLDATALOAD PUSH1 0xE0 SHR SWAP1 DUP2 PUSH4 0x2E1A7D4D EQ PUSH2 0x877 JUMPI DUP2 PUSH4 0x2F4F21E2 EQ PUSH2 0x804 JUMPI DUP2 PUSH4 0x35C1D349 EQ PUSH2 0x7C3 JUMPI DUP2 PUSH4 0x362F04C0 EQ PUSH2 0x7A4 JUMPI DUP2 PUSH4 0x5FCBD285 EQ PUSH2 0x760 JUMPI DUP2 PUSH4 0x715018A6 EQ PUSH2 0x703 JUMPI DUP2 PUSH4 0x71BF8623 EQ PUSH2 0x6E6 JUMPI DUP2 PUSH4 0x853828B6 EQ PUSH2 0x615 JUMPI DUP2 PUSH4 0x8AE39CAC EQ PUSH2 0x5DA JUMPI DUP2 PUSH4 0x8CE74426 EQ PUSH2 0x596 JUMPI DUP2 PUSH4 0x8DA5CB5B EQ PUSH2 0x56D JUMPI DUP2 PUSH4 0xA87430BA EQ PUSH2 0x51F JUMPI DUP2 PUSH4 0xA9F8D181 EQ PUSH2 0x500 JUMPI DUP2 PUSH4 0xAA93BFA8 EQ PUSH2 0x4E2 JUMPI DUP2 PUSH4 0xB6B55F25 EQ PUSH2 0x4BB JUMPI DUP2 PUSH4 0xC0D78655 EQ PUSH2 0x416 JUMPI DUP2 PUSH4 0xD1058E59 EQ PUSH2 0x3EB JUMPI DUP2 PUSH4 0xE7A0FB9B EQ PUSH2 0x3CE JUMPI DUP2 PUSH4 0xE9503425 EQ PUSH2 0x3A1 JUMPI DUP2 PUSH4 0xE9E7EB35 EQ PUSH2 0x32E JUMPI DUP2 PUSH4 0xF2FDE38B EQ PUSH2 0x29E JUMPI DUP2 PUSH4 0xF7C618C1 EQ PUSH2 0x25A JUMPI DUP2 PUSH4 0xF7E4CD0D EQ PUSH2 0x179 JUMPI POP DUP1 PUSH4 0xF887EA40 EQ PUSH2 0x151 JUMPI PUSH4 0xFC7039E0 EQ PUSH2 0x133 JUMPI PUSH0 DUP1 REVERT JUMPDEST CALLVALUE PUSH2 0x14D JUMPI DUP2 PUSH1 0x3 NOT CALLDATASIZE ADD SLT PUSH2 0x14D JUMPI PUSH1 0x20 SWAP1 MLOAD PUSH1 0x32 DUP2 MSTORE RETURN JUMPDEST POP DUP1 REVERT JUMPDEST POP CALLVALUE PUSH2 0x14D JUMPI DUP2 PUSH1 0x3 NOT CALLDATASIZE ADD SLT PUSH2 0x14D JUMPI PUSH1 0x2 SLOAD SWAP1 MLOAD PUSH1 0x1 PUSH1 0x1 PUSH1 0xA0 SHL SUB SWAP1 SWAP2 AND DUP2 MSTORE PUSH1 0x20 SWAP1 RETURN JUMPDEST SWAP2 SWAP1 POP CALLVALUE PUSH2 0x231 JUMPI DUP3 PUSH1 0x3 NOT CALLDATASIZE ADD SLT PUSH2 0x231 JUMPI DUP1 MLOAD PUSH4 0x70A08231 PUSH1 0xE0 SHL DUP2 MSTORE ADDRESS DUP4 DUP3 ADD MSTORE PUSH1 0x20 DUP2 PUSH1 0x24 DUP2 PUSH32 0x0 PUSH1 0x1 PUSH1 0x1 PUSH1 0xA0 SHL SUB AND GAS STATICCALL SWAP3 DUP4 ISZERO PUSH2 0x250 JUMPI DUP5 SWAP4 PUSH2 0x1E7 JUMPI JUMPDEST PUSH1 0x20 DUP5 DUP5 MLOAD SWAP1 DUP2 MSTORE RETURN JUMPDEST SWAP1 SWAP2 SWAP3 POP PUSH1 0x20 SWAP1 RETURNDATASIZE DUP3 GT PUSH2 0x248 JUMPI JUMPDEST PUSH1 0x1F DUP3 ADD PUSH1 0x1F NOT AND DUP4 ADD SWAP1 PUSH8 0xFFFFFFFFFFFFFFFF DUP3 GT DUP5 DUP4 LT OR PUSH2 0x235 JUMPI POP PUSH1 0x20 SWAP2 DUP4 SWAP2 DUP6 MSTORE DUP2 ADD SUB SLT PUSH2 0x231 JUMPI PUSH1 0x20 SWAP3 POP MLOAD SWAP1 PUSH0 DUP1 PUSH2 0x1DD JUMP JUMPDEST DUP3 DUP1 REVERT JUMPDEST PUSH4 0x4E487B71 PUSH1 0xE0 SHL DUP7 MSTORE PUSH1 0x41 SWAP1 MSTORE PUSH1 0x24 DUP6 REVERT JUMPDEST RETURNDATASIZE SWAP2 POP PUSH2 0x1F6 JUMP JUMPDEST DUP3 MLOAD RETURNDATASIZE DUP7 DUP3 RETURNDATACOPY RETURNDATASIZE SWAP1 REVERT JUMPDEST POP POP CALLVALUE PUSH2 0x14D JUMPI DUP2 PUSH1 0x3 NOT CALLDATASIZE ADD SLT PUSH2 0x14D JUMPI MLOAD PUSH32 0x0 PUSH1 0x1 PUSH1 0x1 PUSH1 0xA0 SHL SUB AND DUP2 MSTORE PUSH1 0x20 SWAP1 RETURN JUMPDEST SWAP1 POP CALLVALUE PUSH2 0x231 JUMPI PUSH1 0x20 CALLDATASIZE PUSH1 0x3 NOT ADD SLT PUSH2 0x231 JUMPI PUSH2 0x2B9 PUSH2 0x931 JUMP JUMPDEST SWAP1 PUSH2 0x2C2 PUSH2 0x994 JUMP JUMPDEST PUSH1 0x1 PUSH1 0x1 PUSH1 0xA0 SHL SUB SWAP2 DUP3 AND SWAP3 DUP4 ISZERO PUSH2 0x318 JUMPI POP POP PUSH1 0x1 SLOAD DUP3 PUSH12 0xFFFFFFFFFFFFFFFFFFFFFFFF PUSH1 0xA0 SHL DUP3 AND OR PUSH1 0x1 SSTORE AND PUSH32 0x8BE0079C531659141344CD1FD0A4F28419497F9722A3DAAFE3B4186F6B6457E0 DUP4 DUP1 LOG3 DUP1 RETURN JUMPDEST MLOAD PUSH4 0x1E4FBDF7 PUSH1 0xE0 SHL DUP2 MSTORE SWAP1 DUP2 ADD DUP5 SWAP1 MSTORE PUSH1 0x24 SWAP1 REVERT JUMPDEST POP POP CALLVALUE PUSH2 0x14D JUMPI PUSH1 0x20 CALLDATASIZE PUSH1 0x3 NOT ADD SLT PUSH2 0x14D JUMPI PUSH1 0x20 SWAP2 DUP2 SWAP1 PUSH1 0x1 PUSH1 0x1 PUSH1 0xA0 SHL SUB PUSH2 0x356 PUSH2 0x931 JUMP JUMPDEST AND DUP2 MSTORE PUSH1 0x5 DUP5 MSTORE KECCAK256 SWAP1 PUSH1 0x2 DUP3 ADD SLOAD SWAP2 PUSH1 0x1 DUP2 ADD SLOAD DUP1 PUSH2 0x378 JUMPI JUMPDEST POP POP MLOAD SWAP1 DUP2 MSTORE RETURN JUMPDEST PUSH2 0x399 SWAP3 SWAP4 SWAP2 PUSH2 0x38B PUSH2 0x393 SWAP3 NUMBER PUSH2 0xC22 JUMP JUMPDEST SWAP1 SLOAD SWAP1 PUSH2 0xC2F JUMP JUMPDEST SWAP1 PUSH2 0xA14 JUMP JUMPDEST SWAP1 PUSH0 DUP1 PUSH2 0x370 JUMP JUMPDEST POP POP CALLVALUE PUSH2 0x14D JUMPI PUSH1 0x20 CALLDATASIZE PUSH1 0x3 NOT ADD SLT PUSH2 0x14D JUMPI PUSH1 0x20 SWAP1 PUSH2 0x3C7 PUSH2 0x3C2 PUSH2 0x931 JUMP JUMPDEST PUSH2 0xF57 JUMP JUMPDEST SWAP1 MLOAD SWAP1 DUP2 MSTORE RETURN JUMPDEST POP POP CALLVALUE PUSH2 0x14D JUMPI DUP2 PUSH1 0x3 NOT CALLDATASIZE ADD SLT PUSH2 0x14D JUMPI PUSH1 0x20 SWAP1 PUSH2 0x3C7 PUSH2 0x1048 JUMP JUMPDEST DUP4 CALLVALUE PUSH2 0x413 JUMPI DUP1 PUSH1 0x3 NOT CALLDATASIZE ADD SLT PUSH2 0x413 JUMPI PUSH2 0x404 PUSH2 0x9C0 JUMP JUMPDEST PUSH2 0x40C PUSH2 0xD42 JUMP JUMPDEST PUSH1 0x1 DUP2 SSTORE DUP1 RETURN JUMPDEST DUP1 REVERT JUMPDEST SWAP2 SWAP1 POP CALLVALUE PUSH2 0x231 JUMPI PUSH1 0x20 CALLDATASIZE PUSH1 0x3 NOT ADD SLT PUSH2 0x231 JUMPI PUSH2 0x432 PUSH2 0x931 JUMP JUMPDEST PUSH2 0x43A PUSH2 0x994 JUMP JUMPDEST PUSH1 0x1 PUSH1 0x1 PUSH1 0xA0 SHL SUB AND SWAP2 DUP3 ISZERO PUSH2 0x48A JUMPI POP PUSH1 0x2 DUP1 SLOAD PUSH1 0x1 PUSH1 0x1 PUSH1 0xA0 SHL SUB NOT AND DUP4 OR SWAP1 SSTORE MLOAD SWAP1 DUP2 MSTORE PUSH32 0xC6B438E6A8A59579CE6A4406CBD203B740E0D47B458AAE6596339BCD40C40D15 SWAP1 PUSH1 0x20 SWAP1 LOG1 DUP1 RETURN JUMPDEST PUSH1 0x20 PUSH1 0x64 SWAP3 MLOAD SWAP2 PUSH3 0x461BCD PUSH1 0xE5 SHL DUP4 MSTORE DUP3 ADD MSTORE PUSH1 0xC PUSH1 0x24 DUP3 ADD MSTORE PUSH12 0x7A65726F2061646472657373 PUSH1 0xA0 SHL PUSH1 0x44 DUP3 ADD MSTORE REVERT JUMPDEST DUP4 SWAP1 CALLVALUE PUSH2 0x14D JUMPI PUSH1 0x20 CALLDATASIZE PUSH1 0x3 NOT ADD SLT PUSH2 0x14D JUMPI PUSH2 0x40C SWAP1 PUSH2 0x4DA PUSH2 0x9C0 JUMP JUMPDEST CALLDATALOAD CALLER CALLER PUSH2 0xA35 JUMP JUMPDEST SWAP1 POP CALLVALUE PUSH2 0x231 JUMPI DUP3 PUSH1 0x3 NOT CALLDATASIZE ADD SLT PUSH2 0x231 JUMPI PUSH1 0x20 SWAP3 POP SLOAD SWAP1 MLOAD SWAP1 DUP2 MSTORE RETURN JUMPDEST POP POP CALLVALUE PUSH2 0x14D JUMPI DUP2 PUSH1 0x3 NOT CALLDATASIZE ADD SLT PUSH2 0x14D JUMPI PUSH1 0x20 SWAP1 PUSH1 0x3 SLOAD SWAP1 MLOAD SWAP1 DUP2 MSTORE RETURN JUMPDEST POP POP CALLVALUE PUSH2 0x14D JUMPI PUSH1 0x20 CALLDATASIZE PUSH1 0x3 NOT ADD SLT PUSH2 0x14D JUMPI PUSH1 0x60 SWAP2 DUP2 SWAP1 PUSH1 0x1 PUSH1 0x1 PUSH1 0xA0 SHL SUB PUSH2 0x547 PUSH2 0x931 JUMP JUMPDEST AND DUP2 MSTORE PUSH1 0x5 PUSH1 0x20 MSTORE KECCAK256 DUP1 SLOAD SWAP2 PUSH1 0x2 PUSH1 0x1 DUP4 ADD SLOAD SWAP3 ADD SLOAD SWAP2 DUP2 MLOAD SWAP4 DUP5 MSTORE PUSH1 0x20 DUP5 ADD MSTORE DUP3 ADD MSTORE RETURN JUMPDEST POP POP CALLVALUE PUSH2 0x14D JUMPI DUP2 PUSH1 0x3 NOT CALLDATASIZE ADD SLT PUSH2 0x14D JUMPI PUSH1 0x1 SLOAD SWAP1 MLOAD PUSH1 0x1 PUSH1 0x1 PUSH1 0xA0 SHL SUB SWAP1 SWAP2 AND DUP2 MSTORE PUSH1 0x20 SWAP1 RETURN JUMPDEST POP POP CALLVALUE PUSH2 0x14D JUMPI DUP2 PUSH1 0x3 NOT CALLDATASIZE ADD SLT PUSH2 0x14D JUMPI MLOAD PUSH32 0x0 PUSH1 0x1 PUSH1 0x1 PUSH1 0xA0 SHL SUB AND DUP2 MSTORE PUSH1 0x20 SWAP1 RETURN JUMPDEST POP POP CALLVALUE PUSH2 0x14D JUMPI DUP2 PUSH1 0x3 NOT CALLDATASIZE ADD SLT PUSH2 0x14D JUMPI PUSH1 0x20 SWAP1 MLOAD PUSH32 0x0 DUP2 MSTORE RETURN JUMPDEST SWAP2 SWAP1 POP CALLVALUE PUSH2 0x231 JUMPI DUP3 PUSH1 0x3 NOT CALLDATASIZE ADD SLT PUSH2 0x231 JUMPI PUSH2 0x630 PUSH2 0x9C0 JUMP JUMPDEST CALLER DUP4 MSTORE PUSH1 0x5 PUSH1 0x20 MSTORE DUP1 DUP4 KECCAK256 DUP1 SLOAD SWAP3 DUP4 ISZERO PUSH2 0x6AD JUMPI POP DUP4 SWAP1 PUSH2 0x650 CALLER PUSH2 0xC42 JUMP JUMPDEST SSTORE PUSH2 0x67C DUP3 CALLER PUSH32 0x0 PUSH2 0xCC4 JUMP JUMPDEST MLOAD SWAP1 DUP2 MSTORE PUSH32 0x7084F5476618D8E60B11EF0D7D3F06914655ADB8793E28FF7F018D4C76D505D5 PUSH1 0x20 CALLER SWAP3 LOG2 PUSH1 0x1 DUP2 SSTORE DUP1 RETURN JUMPDEST PUSH1 0x64 SWAP1 PUSH1 0x20 DUP5 MLOAD SWAP2 PUSH3 0x461BCD PUSH1 0xE5 SHL DUP4 MSTORE DUP3 ADD MSTORE PUSH1 0x13 PUSH1 0x24 DUP3 ADD MSTORE PUSH19 0x6E6F7468696E6720746F207769746864726177 PUSH1 0x68 SHL PUSH1 0x44 DUP3 ADD MSTORE REVERT JUMPDEST POP POP CALLVALUE PUSH2 0x14D JUMPI DUP2 PUSH1 0x3 NOT CALLDATASIZE ADD SLT PUSH2 0x14D JUMPI PUSH1 0x20 SWAP1 MLOAD PUSH2 0x2710 DUP2 MSTORE RETURN JUMPDEST DUP4 CALLVALUE PUSH2 0x413 JUMPI DUP1 PUSH1 0x3 NOT CALLDATASIZE ADD SLT PUSH2 0x413 JUMPI PUSH2 0x71C PUSH2 0x994 JUMP JUMPDEST PUSH1 0x1 DUP1 SLOAD PUSH1 0x1 PUSH1 0x1 PUSH1 0xA0 SHL SUB NOT DUP2 AND SWAP1 SWAP2 SSTORE DUP2 SWAP1 PUSH1 0x1 PUSH1 0x1 PUSH1 0xA0 SHL SUB AND PUSH32 0x8BE0079C531659141344CD1FD0A4F28419497F9722A3DAAFE3B4186F6B6457E0 DUP3 DUP1 LOG3 DUP1 RETURN JUMPDEST POP POP CALLVALUE PUSH2 0x14D JUMPI DUP2 PUSH1 0x3 NOT CALLDATASIZE ADD SLT PUSH2 0x14D JUMPI MLOAD PUSH32 0x0 PUSH1 0x1 PUSH1 0x1 PUSH1 0xA0 SHL SUB AND DUP2 MSTORE PUSH1 0x20 SWAP1 RETURN JUMPDEST POP POP CALLVALUE PUSH2 0x14D JUMPI DUP2 PUSH1 0x3 NOT CALLDATASIZE ADD SLT PUSH2 0x14D JUMPI PUSH1 0x20 SWAP1 PUSH1 0x6 SLOAD SWAP1 MLOAD SWAP1 DUP2 MSTORE RETURN JUMPDEST SWAP1 POP CALLVALUE PUSH2 0x231 JUMPI PUSH1 0x20 CALLDATASIZE PUSH1 0x3 NOT ADD SLT PUSH2 0x231 JUMPI CALLDATALOAD SWAP2 PUSH1 0x6 SLOAD DUP4 LT ISZERO PUSH2 0x413 JUMPI POP PUSH2 0x7EE PUSH1 0x20 SWAP3 PUSH2 0x94B JUMP JUMPDEST SWAP1 SLOAD SWAP2 MLOAD SWAP2 PUSH1 0x1 DUP1 PUSH1 0xA0 SHL SUB SWAP2 PUSH1 0x3 SHL SHR AND DUP2 MSTORE RETURN JUMPDEST SWAP1 POP CALLVALUE PUSH2 0x231 JUMPI DUP2 PUSH1 0x3 NOT CALLDATASIZE ADD SLT PUSH2 0x231 JUMPI PUSH2 0x81E PUSH2 0x931 JUMP JUMPDEST SWAP2 PUSH2 0x827 PUSH2 0x9C0 JUMP JUMPDEST PUSH1 0x2 SLOAD PUSH1 0x1 PUSH1 0x1 PUSH1 0xA0 SHL SUB AND CALLER SUB PUSH2 0x847 JUMPI DUP4 PUSH2 0x40C PUSH1 0x24 CALLDATALOAD DUP6 CALLER PUSH2 0xA35 JUMP JUMPDEST SWAP1 PUSH1 0x20 PUSH1 0x64 SWAP3 MLOAD SWAP2 PUSH3 0x461BCD PUSH1 0xE5 SHL DUP4 MSTORE DUP3 ADD MSTORE PUSH1 0xA PUSH1 0x24 DUP3 ADD MSTORE PUSH10 0x3737BA103937BABA32B9 PUSH1 0xB1 SHL PUSH1 0x44 DUP3 ADD MSTORE REVERT JUMPDEST SWAP2 SWAP1 POP CALLVALUE PUSH2 0x231 JUMPI PUSH1 0x20 CALLDATASIZE PUSH1 0x3 NOT ADD SLT PUSH2 0x231 JUMPI DUP2 CALLDATALOAD SWAP2 PUSH2 0x896 PUSH2 0x9C0 JUMP JUMPDEST CALLER DUP5 MSTORE PUSH1 0x5 PUSH1 0x20 MSTORE DUP2 DUP5 KECCAK256 SWAP1 DUP4 ISZERO ISZERO DUP1 PUSH2 0x926 JUMPI JUMPDEST ISZERO PUSH2 0x8F2 JUMPI POP PUSH2 0x8BA CALLER PUSH2 0xC42 JUMP JUMPDEST PUSH2 0x8C5 DUP4 DUP3 SLOAD PUSH2 0xC22 JUMP JUMPDEST SWAP1 SSTORE PUSH2 0x67C DUP3 CALLER PUSH32 0x0 PUSH2 0xCC4 JUMP JUMPDEST PUSH1 0x64 SWAP1 PUSH1 0x20 DUP5 MLOAD SWAP2 PUSH3 0x461BCD PUSH1 0xE5 SHL DUP4 MSTORE DUP3 ADD MSTORE PUSH1 0xE PUSH1 0x24 DUP3 ADD MSTORE PUSH14 0x1A5B9D985B1A5908185B5BDD5B9D PUSH1 0x92 SHL PUSH1 0x44 DUP3 ADD MSTORE REVERT JUMPDEST POP DUP2 SLOAD DUP5 GT ISZERO PUSH2 0x8AB JUMP JUMPDEST PUSH1 0x4 CALLDATALOAD SWAP1 PUSH1 0x1 PUSH1 0x1 PUSH1 0xA0 SHL SUB DUP3 AND DUP3 SUB PUSH2 0x947 JUMPI JUMP JUMPDEST PUSH0 DUP1 REVERT JUMPDEST PUSH1 0x6 SLOAD DUP2 LT ISZERO PUSH2 0x980 JUMPI PUSH1 0x6 PUSH0 MSTORE PUSH32 0xF652222313E28459528D920B65115C16C04F3EFC82AAEDC97BE59F3F377C0D3F ADD SWAP1 PUSH0 SWAP1 JUMP JUMPDEST PUSH4 0x4E487B71 PUSH1 0xE0 SHL PUSH0 MSTORE PUSH1 0x32 PUSH1 0x4 MSTORE PUSH1 0x24 PUSH0 REVERT JUMPDEST PUSH1 0x1 SLOAD PUSH1 0x1 PUSH1 0x1 PUSH1 0xA0 SHL SUB AND CALLER SUB PUSH2 0x9A8 JUMPI JUMP JUMPDEST PUSH1 0x40 MLOAD PUSH4 0x118CDAA7 PUSH1 0xE0 SHL DUP2 MSTORE CALLER PUSH1 0x4 DUP3 ADD MSTORE PUSH1 0x24 SWAP1 REVERT JUMPDEST PUSH1 0x2 PUSH0 SLOAD EQ PUSH2 0x9CF JUMPI PUSH1 0x2 PUSH0 SSTORE JUMP JUMPDEST PUSH1 0x40 MLOAD PUSH3 0x461BCD PUSH1 0xE5 SHL DUP2 MSTORE PUSH1 0x20 PUSH1 0x4 DUP3 ADD MSTORE PUSH1 0x1F PUSH1 0x24 DUP3 ADD MSTORE PUSH32 0x5265656E7472616E637947756172643A207265656E7472616E742063616C6C00 PUSH1 0x44 DUP3 ADD MSTORE PUSH1 0x64 SWAP1 REVERT JUMPDEST SWAP2 SWAP1 DUP3 ADD DUP1 SWAP3 GT PUSH2 0xA21 JUMPI JUMP JUMPDEST PUSH4 0x4E487B71 PUSH1 0xE0 SHL PUSH0 MSTORE PUSH1 0x11 PUSH1 0x4 MSTORE PUSH1 0x24 PUSH0 REVERT JUMPDEST SWAP2 SWAP1 DUP2 ISZERO PUSH2 0xB89 JUMPI PUSH2 0xA46 DUP2 PUSH2 0xC42 JUMP JUMPDEST PUSH1 0x40 MLOAD PUSH4 0x23B872DD PUSH1 0xE0 SHL PUSH1 0x20 DUP3 ADD MSTORE PUSH1 0x1 PUSH1 0x1 PUSH1 0xA0 SHL SUB SWAP4 DUP5 AND PUSH1 0x24 DUP3 ADD MSTORE ADDRESS PUSH1 0x44 DUP3 ADD MSTORE PUSH1 0x64 DUP1 DUP3 ADD DUP5 SWAP1 MSTORE DUP2 MSTORE SWAP1 PUSH1 0xA0 DUP3 ADD PUSH8 0xFFFFFFFFFFFFFFFF DUP2 GT DUP4 DUP3 LT OR PUSH2 0xB75 JUMPI DUP5 SWAP3 PUSH2 0xABD SWAP2 PUSH1 0x40 MSTORE PUSH32 0x0 PUSH2 0xBBD JUMP JUMPDEST AND SWAP2 DUP3 PUSH0 MSTORE PUSH1 0x5 PUSH1 0x20 MSTORE PUSH1 0x40 PUSH0 KECCAK256 SWAP1 DUP2 SLOAD ISZERO PUSH2 0xB10 JUMPI JUMPDEST POP DUP2 DUP2 PUSH2 0xB05 PUSH32 0x2DA466A7B24304F47E87FA2E1E5A81B9831CE54FEC19055CE277CA2F39BA42C4 SWAP5 PUSH1 0x20 SWAP5 SLOAD PUSH2 0xA14 JUMP JUMPDEST SWAP1 SSTORE PUSH1 0x40 MLOAD SWAP1 DUP2 MSTORE LOG2 JUMP JUMPDEST SWAP2 PUSH1 0x6 SLOAD SWAP2 PUSH9 0x10000000000000000 DUP4 LT ISZERO PUSH2 0xB75 JUMPI PUSH32 0x2DA466A7B24304F47E87FA2E1E5A81B9831CE54FEC19055CE277CA2F39BA42C4 SWAP4 PUSH2 0xB5A DUP5 PUSH1 0x1 PUSH1 0x20 SWAP7 ADD PUSH1 0x6 SSTORE PUSH2 0x94B JUMP JUMPDEST DUP2 SWAP3 SWAP2 SLOAD SWAP1 PUSH1 0x3 SHL SWAP2 DUP9 DUP4 SHL SWAP3 SHL NOT AND OR SWAP1 SSTORE SWAP2 POP SWAP2 PUSH2 0xAD4 JUMP JUMPDEST PUSH4 0x4E487B71 PUSH1 0xE0 SHL PUSH0 MSTORE PUSH1 0x41 PUSH1 0x4 MSTORE PUSH1 0x24 PUSH0 REVERT JUMPDEST PUSH1 0x40 MLOAD PUSH3 0x461BCD PUSH1 0xE5 SHL DUP2 MSTORE PUSH1 0x20 PUSH1 0x4 DUP3 ADD MSTORE PUSH1 0xC PUSH1 0x24 DUP3 ADD MSTORE PUSH12 0x1E995C9BC819195C1BDCDA5D PUSH1 0xA2 SHL PUSH1 0x44 DUP3 ADD MSTORE PUSH1 0x64 SWAP1 REVERT JUMPDEST SWAP1 PUSH0 PUSH1 0x20 SWAP2 DUP3 DUP2 MLOAD SWAP2 ADD DUP3 DUP6 GAS CALL ISZERO PUSH2 0xC17 JUMPI PUSH0 MLOAD RETURNDATASIZE PUSH2 0xC0E JUMPI POP PUSH1 0x1 PUSH1 0x1 PUSH1 0xA0 SHL SUB DUP2 AND EXTCODESIZE ISZERO JUMPDEST PUSH2 0xBEC JUMPI POP JUMP JUMPDEST PUSH1 0x40 MLOAD PUSH4 0x5274AFE7 PUSH1 0xE0 SHL DUP2 MSTORE PUSH1 0x1 PUSH1 0x1 PUSH1 0xA0 SHL SUB SWAP1 SWAP2 AND PUSH1 0x4 DUP3 ADD MSTORE PUSH1 0x24 SWAP1 REVERT JUMPDEST PUSH1 0x1 EQ ISZERO PUSH2 0xBE5 JUMP JUMPDEST PUSH1 0x40 MLOAD RETURNDATASIZE PUSH0 DUP3 RETURNDATACOPY RETURNDATASIZE SWAP1 REVERT JUMPDEST SWAP2 SWAP1 DUP3 SUB SWAP2 DUP3 GT PUSH2 0xA21 JUMPI JUMP JUMPDEST DUP2 DUP2 MUL SWAP3 SWAP2 DUP2 ISZERO SWAP2 DUP5 DIV EQ OR ISZERO PUSH2 0xA21 JUMPI JUMP JUMPDEST PUSH1 0x1 DUP1 PUSH1 0xA0 SHL SUB AND PUSH0 MSTORE PUSH1 0x5 PUSH1 0x20 MSTORE PUSH1 0x40 PUSH0 KECCAK256 PUSH1 0x1 DUP2 ADD SWAP1 DUP2 SLOAD ISZERO PUSH2 0xCBE JUMPI PUSH2 0xC6C DUP3 SLOAD NUMBER PUSH2 0xC22 JUMP JUMPDEST SWAP1 DUP2 ISZERO ISZERO DUP1 PUSH2 0xCB4 JUMPI JUMPDEST PUSH2 0xC82 JUMPI JUMPDEST POP POP NUMBER SWAP1 SSTORE JUMP JUMPDEST PUSH1 0x2 PUSH2 0xC93 PUSH2 0xCAA SWAP4 DUP4 SLOAD SWAP1 PUSH2 0xC2F JUMP JUMPDEST SWAP2 ADD PUSH2 0xCA0 DUP3 DUP3 SLOAD PUSH2 0xA14 JUMP JUMPDEST SWAP1 SSTORE PUSH1 0x4 SLOAD PUSH2 0xA14 JUMP JUMPDEST PUSH1 0x4 SSTORE PUSH0 DUP1 PUSH2 0xC7B JUMP JUMPDEST POP DUP1 SLOAD ISZERO ISZERO PUSH2 0xC76 JUMP JUMPDEST POP NUMBER SWAP1 SSTORE JUMP JUMPDEST PUSH1 0x40 MLOAD PUSH4 0xA9059CBB PUSH1 0xE0 SHL PUSH1 0x20 DUP3 ADD MSTORE PUSH1 0x1 PUSH1 0x1 PUSH1 0xA0 SHL SUB SWAP1 SWAP3 AND PUSH1 0x24 DUP4 ADD MSTORE PUSH1 0x44 DUP1 DUP4 ADD SWAP4 SWAP1 SWAP4 MSTORE SWAP2 DUP2 MSTORE PUSH1 0x80 DUP2 ADD SWAP2 PUSH8 0xFFFFFFFFFFFFFFFF DUP4 GT DUP3 DUP5 LT OR PUSH2 0xB75 JUMPI PUSH2 0xD14 SWAP3 PUSH1 0x40 MSTORE PUSH2 0xBBD JUMP JUMPDEST JUMP JUMPDEST PUSH0 NOT DUP2 EQ PUSH2 0xA21 JUMPI PUSH1 0x1 ADD SWAP1 JUMP JUMPDEST DUP2 ISZERO PUSH2 0xD2E JUMPI DIV SWAP1 JUMP JUMPDEST PUSH4 0x4E487B71 PUSH1 0xE0 SHL PUSH0 MSTORE PUSH1 0x12 PUSH1 0x4 MSTORE PUSH1 0x24 PUSH0 REVERT JUMPDEST PUSH1 0x3 PUSH2 0xD4F DUP2 SLOAD NUMBER PUSH2 0xC22 JUMP JUMPDEST DUP1 ISZERO DUP1 ISZERO PUSH2 0xF4D JUMPI JUMPDEST PUSH2 0xF49 JUMPI PUSH2 0xD87 SWAP1 PUSH32 0x0 SWAP1 PUSH2 0xC2F JUMP JUMPDEST SWAP1 PUSH0 JUMPDEST PUSH1 0x6 SLOAD DUP2 LT ISZERO PUSH2 0xE12 JUMPI DUP1 PUSH2 0xDA1 PUSH2 0xE06 SWAP3 PUSH2 0x94B JUMP JUMPDEST SWAP1 SLOAD SWAP1 DUP5 SHL SHR PUSH1 0x1 PUSH1 0x1 PUSH1 0xA0 SHL SUB AND PUSH0 SWAP1 DUP2 MSTORE PUSH1 0x5 PUSH1 0x20 MSTORE PUSH1 0x40 SWAP1 KECCAK256 DUP1 SLOAD SWAP1 DUP2 ISZERO PUSH2 0xE0B JUMPI PUSH1 0x2 PUSH2 0xDE0 PUSH1 0x1 DUP4 ADD SWAP4 PUSH2 0xDDB DUP6 SLOAD NUMBER PUSH2 0xC22 JUMP JUMPDEST PUSH2 0xC2F JUMP JUMPDEST SWAP2 ADD PUSH2 0xDED DUP3 DUP3 SLOAD PUSH2 0xA14 JUMP JUMPDEST SWAP1 SSTORE PUSH2 0xDFC PUSH1 0x4 SWAP2 DUP3 SLOAD PUSH2 0xA14 JUMP JUMPDEST SWAP1 SSTORE NUMBER SWAP1 SSTORE PUSH2 0xD16 JUMP JUMPDEST PUSH2 0xD8A JUMP JUMPDEST POP POP PUSH2 0xD16 JUMP JUMPDEST POP PUSH1 0x32 DUP3 MUL DUP3 DUP2 DIV PUSH1 0x32 EQ DUP4 ISZERO OR ISZERO PUSH2 0xA21 JUMPI PUSH2 0x2710 PUSH2 0xE39 SWAP2 DIV DUP1 SWAP4 DUP2 PUSH2 0xF19 JUMPI PUSH2 0xC22 JUMP JUMPDEST SWAP1 PUSH0 JUMPDEST PUSH1 0x6 SLOAD DUP2 LT ISZERO PUSH2 0xEDE JUMPI DUP1 PUSH2 0xE53 PUSH2 0xEA0 SWAP3 PUSH2 0x94B JUMP JUMPDEST SWAP1 SLOAD SWAP1 DUP5 SHL SHR PUSH1 0x1 PUSH1 0x1 PUSH1 0xA0 SHL SUB AND PUSH0 DUP2 DUP2 MSTORE PUSH1 0x5 PUSH1 0x20 MSTORE PUSH1 0x40 SWAP1 KECCAK256 PUSH1 0x2 ADD DUP1 SLOAD SWAP2 DUP3 ISZERO PUSH2 0xED6 JUMPI PUSH2 0xE92 PUSH2 0xE89 PUSH0 SWAP5 DUP10 PUSH2 0xC2F JUMP JUMPDEST PUSH1 0x4 SLOAD SWAP1 PUSH2 0xD24 JUMP JUMPDEST DUP1 PUSH2 0xEA5 JUMPI JUMPDEST POP POP SSTORE PUSH2 0xD16 JUMP JUMPDEST PUSH2 0xE3C JUMP JUMPDEST PUSH2 0xECF SWAP2 PUSH32 0x0 PUSH2 0xCC4 JUMP JUMPDEST PUSH0 DUP1 PUSH2 0xE98 JUMP JUMPDEST POP POP POP PUSH2 0xD16 JUMP JUMPDEST POP SWAP1 PUSH32 0x3C3D358C457D91D874593441791F0B96C90172A78030CE0CE7E8E8C965FE1469 SWAP3 PUSH1 0x40 SWAP3 PUSH0 PUSH1 0x4 SSTORE NUMBER SWAP1 SSTORE DUP3 MLOAD SWAP2 DUP3 MSTORE PUSH1 0x20 DUP3 ADD MSTORE LOG1 JUMP JUMPDEST PUSH2 0xF44 DUP3 CALLER PUSH32 0x0 PUSH2 0xCC4 JUMP JUMPDEST PUSH2 0xC22 JUMP JUMPDEST POP POP JUMP JUMPDEST POP PUSH1 0x4 SLOAD ISZERO PUSH2 0xD58 JUMP JUMPDEST PUSH1 0x1 PUSH1 0x1 PUSH1 0xA0 SHL SUB AND PUSH0 SWAP1 DUP2 MSTORE PUSH1 0x5 PUSH1 0x20 MSTORE PUSH1 0x40 DUP2 KECCAK256 DUP1 SLOAD SWAP2 DUP3 ISZERO PUSH2 0x1020 JUMPI PUSH2 0xF82 PUSH1 0x3 SLOAD NUMBER PUSH2 0xC22 JUMP JUMPDEST SWAP3 DUP4 ISZERO PUSH2 0x1041 JUMPI PUSH1 0x1 PUSH1 0x2 DUP5 ADD SLOAD SWAP4 ADD SLOAD DUP1 PUSH2 0x1026 JUMPI JUMPDEST POP POP DUP2 ISZERO PUSH2 0x1020 JUMPI PUSH2 0xFD8 PUSH2 0xFB0 DUP4 PUSH1 0x4 SLOAD PUSH2 0xA14 JUMP JUMPDEST SWAP4 PUSH32 0x0 SWAP1 PUSH2 0xC2F JUMP JUMPDEST SWAP1 PUSH1 0x32 DUP3 MUL SWAP1 DUP3 DUP3 DIV PUSH1 0x32 EQ DUP4 ISZERO OR ISZERO PUSH2 0x100C JUMPI POP SWAP2 PUSH2 0xDDB PUSH2 0x1004 SWAP3 PUSH2 0x2710 PUSH2 0x1009 SWAP7 SWAP6 DIV SWAP1 PUSH2 0xC22 JUMP JUMPDEST PUSH2 0xD24 JUMP JUMPDEST SWAP1 JUMP JUMPDEST PUSH4 0x4E487B71 PUSH1 0xE0 SHL DUP2 MSTORE PUSH1 0x11 PUSH1 0x4 MSTORE PUSH1 0x24 SWAP1 REVERT JUMPDEST SWAP2 POP POP SWAP1 JUMP JUMPDEST PUSH2 0x1039 SWAP3 SWAP4 SWAP2 PUSH2 0xDDB PUSH2 0x393 SWAP3 NUMBER PUSH2 0xC22 JUMP JUMPDEST SWAP1 PUSH0 DUP1 PUSH2 0xF99 JUMP JUMPDEST POP SWAP2 POP POP SWAP1 JUMP JUMPDEST PUSH2 0x1054 PUSH1 0x3 SLOAD NUMBER PUSH2 0xC22 JUMP JUMPDEST DUP1 ISZERO PUSH2 0x1085 JUMPI PUSH2 0x1009 SWAP1 PUSH32 0x0 SWAP1 PUSH2 0xC2F JUMP JUMPDEST POP PUSH0 SWAP1 JUMP INVALID LOG2 PUSH5 0x6970667358 0x22 SLT KECCAK256 0xAC STATICCALL 0xC9 SWAP6 CALLVALUE 0xCA 0x4E 0xCE 0xBC 0xCB 0xEB LOG3 GASLIMIT TIMESTAMP SWAP4 CALLVALUE 0xE PUSH28 0x88B41EEEC773EC5F00569200FAED64736F6C63430008140033000000 "
				},
				"gasEstimates": {
					"creation": {
						"codeDepositCost": "857600",
						"executionCost": "infinite",
						"totalCost": "infinite"
					},
					"external": {
						"BP_DENOM()": "300",
						"CALLER_FEE_BP()": "691",
						"claimAll()": "infinite",
						"claimableReward(address)": "infinite",
						"deposit(uint256)": "infinite",
						"depositFor(address,uint256)": "infinite",
						"getUserXP(address)": "7324",
						"lastRewardBlock()": "2538",
						"lpToken()": "infinite",
						"owner()": "2515",
						"participantCount()": "2340",
						"participants(uint256)": "6653",
						"protocol()": "infinite",
						"remainingRewardPool()": "infinite",
						"renounceOwnership()": "28188",
						"rewardPerBlock()": "infinite",
						"rewardToken()": "infinite",
						"router()": "2801",
						"setRouter(address)": "28031",
						"totalLPLocked()": "infinite",
						"totalXP()": "2560",
						"transferOwnership(address)": "28616",
						"users(address)": "6921",
						"withdraw(uint256)": "infinite",
						"withdrawAll()": "infinite"
					},
					"internal": {
						"_depositFor(address,address,uint256)": "infinite",
						"_updateUserXP(address)": "infinite"
					}
				},
				"methodIdentifiers": {
					"BP_DENOM()": "71bf8623",
					"CALLER_FEE_BP()": "fc7039e0",
					"claimAll()": "d1058e59",
					"claimableReward(address)": "e9503425",
					"deposit(uint256)": "b6b55f25",
					"depositFor(address,uint256)": "2f4f21e2",
					"getUserXP(address)": "e9e7eb35",
					"lastRewardBlock()": "a9f8d181",
					"lpToken()": "5fcbd285",
					"owner()": "8da5cb5b",
					"participantCount()": "362f04c0",
					"participants(uint256)": "35c1d349",
					"protocol()": "8ce74426",
					"remainingRewardPool()": "e7a0fb9b",
					"renounceOwnership()": "715018a6",
					"rewardPerBlock()": "8ae39cac",
					"rewardToken()": "f7c618c1",
					"router()": "f887ea40",
					"setRouter(address)": "c0d78655",
					"totalLPLocked()": "f7e4cd0d",
					"totalXP()": "aa93bfa8",
					"transferOwnership(address)": "f2fde38b",
					"users(address)": "a87430ba",
					"withdraw(uint256)": "2e1a7d4d",
					"withdrawAll()": "853828b6"
				}
			},
			"storageLayout": {
				"storage": [
					{
						"astId": 248,
						"contract": "contracts/YunaVaultV2.sol:YunaVaultV2",
						"label": "_status",
						"offset": 0,
						"slot": "0",
						"type": "t_uint256"
					},
					{
						"astId": 8,
						"contract": "contracts/YunaVaultV2.sol:YunaVaultV2",
						"label": "_owner",
						"offset": 0,
						"slot": "1",
						"type": "t_address"
					},
					{
						"astId": 938,
						"contract": "contracts/YunaVaultV2.sol:YunaVaultV2",
						"label": "router",
						"offset": 0,
						"slot": "2",
						"type": "t_address"
					},
					{
						"astId": 946,
						"contract": "contracts/YunaVaultV2.sol:YunaVaultV2",
						"label": "lastRewardBlock",
						"offset": 0,
						"slot": "3",
						"type": "t_uint256"
					},
					{
						"astId": 948,
						"contract": "contracts/YunaVaultV2.sol:YunaVaultV2",
						"label": "totalXP",
						"offset": 0,
						"slot": "4",
						"type": "t_uint256"
					},
					{
						"astId": 960,
						"contract": "contracts/YunaVaultV2.sol:YunaVaultV2",
						"label": "users",
						"offset": 0,
						"slot": "5",
						"type": "t_mapping(t_address,t_struct(User)955_storage)"
					},
					{
						"astId": 963,
						"contract": "contracts/YunaVaultV2.sol:YunaVaultV2",
						"label": "participants",
						"offset": 0,
						"slot": "6",
						"type": "t_array(t_address)dyn_storage"
					}
				],
				"types": {
					"t_address": {
						"encoding": "inplace",
						"label": "address",
						"numberOfBytes": "20"
					},
					"t_array(t_address)dyn_storage": {
						"base": "t_address",
						"encoding": "dynamic_array",
						"label": "address[]",
						"numberOfBytes": "32"
					},
					"t_mapping(t_address,t_struct(User)955_storage)": {
						"encoding": "mapping",
						"key": "t_address",
						"label": "mapping(address => struct YunaVaultV2.User)",
						"numberOfBytes": "32",
						"value": "t_struct(User)955_storage"
					},
					"t_struct(User)955_storage": {
						"encoding": "inplace",
						"label": "struct YunaVaultV2.User",
						"members": [
							{
								"astId": 950,
								"contract": "contracts/YunaVaultV2.sol:YunaVaultV2",
								"label": "balance",
								"offset": 0,
								"slot": "0",
								"type": "t_uint256"
							},
							{
								"astId": 952,
								"contract": "contracts/YunaVaultV2.sol:YunaVaultV2",
								"label": "lastUpdateBlock",
								"offset": 0,
								"slot": "1",
								"type": "t_uint256"
							},
							{
								"astId": 954,
								"contract": "contracts/YunaVaultV2.sol:YunaVaultV2",
								"label": "xp",
								"offset": 0,
								"slot": "2",
								"type": "t_uint256"
							}
						],
						"numberOfBytes": "96"
					},
					"t_uint256": {
						"encoding": "inplace",
						"label": "uint256",
						"numberOfBytes": "32"
					}
				}
			},
			"userdoc": {
				"kind": "user",
				"methods": {},
				"version": 1
			}
		}
	}
}