{
	"data": {
		"bytecode": {
			"linkReferences": {},
			"object": "608080604052346100165761037f908161001b8239f35b5f80fdfe6080604081815260049182361015610015575f80fd5b5f90813560e01c63025ff12f1461002a575f80fd5b346102685760603660031901126102685783356001600160a01b0381811694918590036102645760249283359667ffffffffffffffff9788811161026057610075903690830161026c565b906044998a3590811161025c5761008f903690850161026c565b93909484840361022c5750889a899b5b858d106101f5578a9b9c508851906323b872dd60e01b82523384830152308b830152828201528c8160648160209e8f945af180156101eb576101ce575b508a5b8481106100ea578b80f35b898b898f8f8b9087928f610114898f8f8f8361010e92610109926102c3565b610335565b966102c3565b359051978896879563a9059cbb60e01b8752168c8601528401525af180156101c4577f7bd6d4be1decdc27a9ed9c7ccdf5bb7cc38e31b3647b958c6b37162a2296c0fa8d8b8b6101848f95978d61017e6101098f8f90859c9186926101929f610197575b506102c3565b936102c3565b3594519485521692a26102a1565b6100df565b6101b6908c8d3d106101bd575b6101ae81836102e7565b81019061031d565b505f610178565b503d6101a4565b8a513d8f823e3d90fd5b6101e4908b3d8d116101bd576101ae81836102e7565b505f6100dc565b89513d8e823e3d90fd5b6102008d87896102c3565b35810180911161021a57610214909c6102a1565b9b61009f565b634e487b7160e01b8b5260118352898bfd5b6e098cadccee8d040dad2e6dac2e8c6d608b1b8c600f8b602060649662461bcd60e51b8752860152840152820152fd5b8880fd5b8680fd5b8380fd5b5080fd5b9181601f8401121561029d5782359167ffffffffffffffff831161029d576020808501948460051b01011161029d57565b5f80fd5b5f1981146102af5760010190565b634e487b7160e01b5f52601160045260245ffd5b91908110156102d35760051b0190565b634e487b7160e01b5f52603260045260245ffd5b90601f8019910116810190811067ffffffffffffffff82111761030957604052565b634e487b7160e01b5f52604160045260245ffd5b9081602091031261029d5751801515810361029d5790565b356001600160a01b038116810361029d579056fea264697066735822122082654af33553c581c31d759a12adb8728423d1f83a42a1bbe3fc90d805569ecb64736f6c63430008140033",
			"opcodes": "PUSH1 0x80 DUP1 PUSH1 0x40 MSTORE CALLVALUE PUSH2 0x16 JUMPI PUSH2 0x37F SWAP1 DUP2 PUSH2 0x1B DUP3 CODECOPY RETURN JUMPDEST PUSH0 DUP1 REVERT INVALID PUSH1 0x80 PUSH1 0x40 DUP2 DUP2 MSTORE PUSH1 0x4 SWAP2 DUP3 CALLDATASIZE LT ISZERO PUSH2 0x15 JUMPI PUSH0 DUP1 REVERT JUMPDEST PUSH0 SWAP1 DUP2 CALLDATALOAD PUSH1 0xE0 SHR PUSH4 0x25FF12F EQ PUSH2 0x2A JUMPI PUSH0 DUP1 REVERT JUMPDEST CALLVALUE PUSH2 0x268 JUMPI PUSH1 0x60 CALLDATASIZE PUSH1 0x3 NOT ADD SLT PUSH2 0x268 JUMPI DUP4 CALLDATALOAD PUSH1 0x1 PUSH1 0x1 PUSH1 0xA0 SHL SUB DUP2 DUP2 AND SWAP5 SWAP2 DUP6 SWAP1 SUB PUSH2 0x264 JUMPI PUSH1 0x24 SWAP3 DUP4 CALLDATALOAD SWAP7 PUSH8 0xFFFFFFFFFFFFFFFF SWAP8 DUP9 DUP2 GT PUSH2 0x260 JUMPI PUSH2 0x75 SWAP1 CALLDATASIZE SWAP1 DUP4 ADD PUSH2 0x26C JUMP JUMPDEST SWAP1 PUSH1 0x44 SWAP10 DUP11 CALLDATALOAD SWAP1 DUP2 GT PUSH2 0x25C JUMPI PUSH2 0x8F SWAP1 CALLDATASIZE SWAP1 DUP6 ADD PUSH2 0x26C JUMP JUMPDEST SWAP4 SWAP1 SWAP5 DUP5 DUP5 SUB PUSH2 0x22C JUMPI POP DUP9 SWAP11 DUP10 SWAP12 JUMPDEST DUP6 DUP14 LT PUSH2 0x1F5 JUMPI DUP11 SWAP12 SWAP13 POP DUP9 MLOAD SWAP1 PUSH4 0x23B872DD PUSH1 0xE0 SHL DUP3 MSTORE CALLER DUP5 DUP4 ADD MSTORE ADDRESS DUP12 DUP4 ADD MSTORE DUP3 DUP3 ADD MSTORE DUP13 DUP2 PUSH1 0x64 DUP2 PUSH1 0x20 SWAP15 DUP16 SWAP5 GAS CALL DUP1 ISZERO PUSH2 0x1EB JUMPI PUSH2 0x1CE JUMPI JUMPDEST POP DUP11 JUMPDEST DUP5 DUP2 LT PUSH2 0xEA JUMPI DUP12 DUP1 RETURN JUMPDEST DUP10 DUP12 DUP10 DUP16 DUP16 DUP12 SWAP1 DUP8 SWAP3 DUP16 PUSH2 0x114 DUP10 DUP16 DUP16 DUP16 DUP4 PUSH2 0x10E SWAP3 PUSH2 0x109 SWAP3 PUSH2 0x2C3 JUMP JUMPDEST PUSH2 0x335 JUMP JUMPDEST SWAP7 PUSH2 0x2C3 JUMP JUMPDEST CALLDATALOAD SWAP1 MLOAD SWAP8 DUP9 SWAP7 DUP8 SWAP6 PUSH4 0xA9059CBB PUSH1 0xE0 SHL DUP8 MSTORE AND DUP13 DUP7 ADD MSTORE DUP5 ADD MSTORE GAS CALL DUP1 ISZERO PUSH2 0x1C4 JUMPI PUSH32 0x7BD6D4BE1DECDC27A9ED9C7CCDF5BB7CC38E31B3647B958C6B37162A2296C0FA DUP14 DUP12 DUP12 PUSH2 0x184 DUP16 SWAP6 SWAP8 DUP14 PUSH2 0x17E PUSH2 0x109 DUP16 DUP16 SWAP1 DUP6 SWAP13 SWAP2 DUP7 SWAP3 PUSH2 0x192 SWAP16 PUSH2 0x197 JUMPI JUMPDEST POP PUSH2 0x2C3 JUMP JUMPDEST SWAP4 PUSH2 0x2C3 JUMP JUMPDEST CALLDATALOAD SWAP5 MLOAD SWAP5 DUP6 MSTORE AND SWAP3 LOG2 PUSH2 0x2A1 JUMP JUMPDEST PUSH2 0xDF JUMP JUMPDEST PUSH2 0x1B6 SWAP1 DUP13 DUP14 RETURNDATASIZE LT PUSH2 0x1BD JUMPI JUMPDEST PUSH2 0x1AE DUP2 DUP4 PUSH2 0x2E7 JUMP JUMPDEST DUP2 ADD SWAP1 PUSH2 0x31D JUMP JUMPDEST POP PUSH0 PUSH2 0x178 JUMP JUMPDEST POP RETURNDATASIZE PUSH2 0x1A4 JUMP JUMPDEST DUP11 MLOAD RETURNDATASIZE DUP16 DUP3 RETURNDATACOPY RETURNDATASIZE SWAP1 REVERT JUMPDEST PUSH2 0x1E4 SWAP1 DUP12 RETURNDATASIZE DUP14 GT PUSH2 0x1BD JUMPI PUSH2 0x1AE DUP2 DUP4 PUSH2 0x2E7 JUMP JUMPDEST POP PUSH0 PUSH2 0xDC JUMP JUMPDEST DUP10 MLOAD RETURNDATASIZE DUP15 DUP3 RETURNDATACOPY RETURNDATASIZE SWAP1 REVERT JUMPDEST PUSH2 0x200 DUP14 DUP8 DUP10 PUSH2 0x2C3 JUMP JUMPDEST CALLDATALOAD DUP2 ADD DUP1 SWAP2 GT PUSH2 0x21A JUMPI PUSH2 0x214 SWAP1 SWAP13 PUSH2 0x2A1 JUMP JUMPDEST SWAP12 PUSH2 0x9F JUMP JUMPDEST PUSH4 0x4E487B71 PUSH1 0xE0 SHL DUP12 MSTORE PUSH1 0x11 DUP4 MSTORE DUP10 DUP12 REVERT JUMPDEST PUSH15 0x98CADCCEE8D040DAD2E6DAC2E8C6D PUSH1 0x8B SHL DUP13 PUSH1 0xF DUP12 PUSH1 0x20 PUSH1 0x64 SWAP7 PUSH3 0x461BCD PUSH1 0xE5 SHL DUP8 MSTORE DUP7 ADD MSTORE DUP5 ADD MSTORE DUP3 ADD MSTORE REVERT JUMPDEST DUP9 DUP1 REVERT JUMPDEST DUP7 DUP1 REVERT JUMPDEST DUP4 DUP1 REVERT JUMPDEST POP DUP1 REVERT JUMPDEST SWAP2 DUP2 PUSH1 0x1F DUP5 ADD SLT ISZERO PUSH2 0x29D JUMPI DUP3 CALLDATALOAD SWAP2 PUSH8 0xFFFFFFFFFFFFFFFF DUP4 GT PUSH2 0x29D JUMPI PUSH1 0x20 DUP1 DUP6 ADD SWAP5 DUP5 PUSH1 0x5 SHL ADD ADD GT PUSH2 0x29D JUMPI JUMP JUMPDEST PUSH0 DUP1 REVERT JUMPDEST PUSH0 NOT DUP2 EQ PUSH2 0x2AF JUMPI PUSH1 0x1 ADD SWAP1 JUMP JUMPDEST PUSH4 0x4E487B71 PUSH1 0xE0 SHL PUSH0 MSTORE PUSH1 0x11 PUSH1 0x4 MSTORE PUSH1 0x24 PUSH0 REVERT JUMPDEST SWAP2 SWAP1 DUP2 LT ISZERO PUSH2 0x2D3 JUMPI PUSH1 0x5 SHL ADD SWAP1 JUMP JUMPDEST PUSH4 0x4E487B71 PUSH1 0xE0 SHL PUSH0 MSTORE PUSH1 0x32 PUSH1 0x4 MSTORE PUSH1 0x24 PUSH0 REVERT JUMPDEST SWAP1 PUSH1 0x1F DUP1 NOT SWAP2 ADD AND DUP2 ADD SWAP1 DUP2 LT PUSH8 0xFFFFFFFFFFFFFFFF DUP3 GT OR PUSH2 0x309 JUMPI PUSH1 0x40 MSTORE JUMP JUMPDEST PUSH4 0x4E487B71 PUSH1 0xE0 SHL PUSH0 MSTORE PUSH1 0x41 PUSH1 0x4 MSTORE PUSH1 0x24 PUSH0 REVERT JUMPDEST SWAP1 DUP2 PUSH1 0x20 SWAP2 SUB SLT PUSH2 0x29D JUMPI MLOAD DUP1 ISZERO ISZERO DUP2 SUB PUSH2 0x29D JUMPI SWAP1 JUMP JUMPDEST CALLDATALOAD PUSH1 0x1 PUSH1 0x1 PUSH1 0xA0 SHL SUB DUP2 AND DUP2 SUB PUSH2 0x29D JUMPI SWAP1 JUMP INVALID LOG2 PUSH5 0x6970667358 0x22 SLT KECCAK256 DUP3 PUSH6 0x4AF33553C581 0xC3 SAR PUSH22 0x9A12ADB8728423D1F83A42A1BBE3FC90D805569ECB64 PUSH20 0x6F6C634300081400330000000000000000000000 "
		},
		"gasEstimates": {
			"creation": {
				"codeDepositCost": "179000",
				"executionCost": "227",
				"totalCost": "179227"
			},
			"external": {
				"airdrop(address,address[],uint256[])": "infinite"
			}
		},
		"methodIdentifiers": {
			"airdrop(address,address[],uint256[])": "025ff12f"
		}
	},
	"abi": [
		{
			"anonymous": false,
			"inputs": [
				{
					"indexed": true,
					"internalType": "address",
					"name": "to",
					"type": "address"
				},
				{
					"indexed": false,
					"internalType": "uint256",
					"name": "amount",
					"type": "uint256"
				}
			],
			"name": "Airdropped",
			"type": "event"
		},
		{
			"inputs": [
				{
					"internalType": "address",
					"name": "token",
					"type": "address"
				},
				{
					"internalType": "address[]",
					"name": "recipients",
					"type": "address[]"
				},
				{
					"internalType": "uint256[]",
					"name": "amounts",
					"type": "uint256[]"
				}
			],
			"name": "airdrop",
			"outputs": [],
			"stateMutability": "nonpayable",
			"type": "function"
		}
	]
}