{
	"data": {
		"bytecode": {
			"linkReferences": {},
			"object": "608060405234801561000f575f80fd5b50338061003557604051631e4fbdf760e01b81525f600482015260240160405180910390fd5b61003e81610044565b50610093565b5f80546001600160a01b038381166001600160a01b0319831681178455604051919092169283917f8be0079c531659141344cd1fd0a4f28419497f9722a3daafe3b4186f6b6457e09190a35050565b612428806100a05f395ff3fe608060405234801562000010575f80fd5b506004361062000050575f3560e01c8063715018a614620000545780637aa088ee14620000605780638da5cb5b1462000093578063f2fde38b14620000a4575b5f80fd5b6200005e620000bb565b005b620000776200007136600462000306565b620000d2565b6040516001600160a01b03909116815260200160405180910390f35b5f546001600160a01b031662000077565b6200005e620000b5366004620003c8565b62000173565b620000c5620001ba565b620000d05f620001e8565b565b5f620000dd620001ba565b5f8a8a338b8b8b8b8b8b8b604051620000f69062000237565b6200010b9a9998979695949392919062000430565b604051809103905ff08015801562000125573d5f803e3d5ffd5b506040516001600160a01b03821681529091507f2e2b3f61b70d2d131b2a807371103cc98d51adcaa5e9a8f9c32658ad8426e74e9060200160405180910390a19a9950505050505050505050565b6200017d620001ba565b6001600160a01b038116620001ac57604051631e4fbdf760e01b81525f60048201526024015b60405180910390fd5b620001b781620001e8565b50565b5f546001600160a01b03163314620000d05760405163118cdaa760e01b8152336004820152602401620001a3565b5f80546001600160a01b038381166001600160a01b0319831681178455604051919092169283917f8be0079c531659141344cd1fd0a4f28419497f9722a3daafe3b4186f6b6457e09190a35050565b611f4580620004ae83390190565b634e487b7160e01b5f52604160045260245ffd5b5f82601f83011262000269575f80fd5b813567ffffffffffffffff8082111562000287576200028762000245565b604051601f8301601f19908116603f01168101908282118183101715620002b257620002b262000245565b81604052838152866020858801011115620002cb575f80fd5b836020870160208301375f602085830101528094505050505092915050565b80356001600160a01b038116811462000301575f80fd5b919050565b5f805f805f805f805f6101208a8c03121562000320575f80fd5b893567ffffffffffffffff8082111562000338575f80fd5b620003468d838e0162000259565b9a5060208c01359150808211156200035c575f80fd5b506200036b8c828d0162000259565b9850506200037c60408b01620002ea565b965060608a0135955060808a0135945060a08a0135935060c08a01359250620003a860e08b01620002ea565b9150620003b96101008b01620002ea565b90509295985092959850929598565b5f60208284031215620003d9575f80fd5b620003e482620002ea565b9392505050565b5f81518084525f5b818110156200041157602081850181015186830182015201620003f3565b505f602082860101526020601f19601f83011685010191505092915050565b5f610140808352620004458184018e620003eb565b905082810360208401526200045b818d620003eb565b6001600160a01b039b8c166040850152998b1660608401525050608081019690965260a086019490945260c085019290925260e08401528416610100830152909216610120909201919091529291505056fe61014060405234801562000011575f80fd5b5060405162001f4538038062001f45833981016040819052620000349162000235565b338a8a600362000045838262000396565b50600462000054828262000396565b5050506001600160a01b0381166200008557604051631e4fbdf760e01b81525f600482015260240160405180910390fd5b62000090816200010a565b5060016006556001600160a01b0387166080526007869055600885905560a086905260c0849052620000c385876200045e565b60e0526009849055600b8390556001600160a01b0380831661010052811661012052600c805460ff19169055620000fa886200010a565b5050505050505050505062000488565b600580546001600160a01b038381166001600160a01b0319831681179093556040519116919082907f8be0079c531659141344cd1fd0a4f28419497f9722a3daafe3b4186f6b6457e0905f90a35050565b634e487b7160e01b5f52604160045260245ffd5b5f82601f8301126200017f575f80fd5b81516001600160401b03808211156200019c576200019c6200015b565b604051601f8301601f19908116603f01168101908282118183101715620001c757620001c76200015b565b81604052838152602092508683858801011115620001e3575f80fd5b5f91505b83821015620002065785820183015181830184015290820190620001e7565b5f93810190920192909252949350505050565b80516001600160a01b038116811462000230575f80fd5b919050565b5f805f805f805f805f806101408b8d03121562000250575f80fd5b8a516001600160401b038082111562000267575f80fd5b620002758e838f016200016f565b9b5060208d01519150808211156200028b575f80fd5b506200029a8d828e016200016f565b995050620002ab60408c0162000219565b9750620002bb60608c0162000219565b965060808b0151955060a08b0151945060c08b0151935060e08b01519250620002e86101008c0162000219565b9150620002f96101208c0162000219565b90509295989b9194979a5092959850565b600181811c908216806200031f57607f821691505b6020821081036200033e57634e487b7160e01b5f52602260045260245ffd5b50919050565b601f82111562000391575f81815260208120601f850160051c810160208610156200036c5750805b601f850160051c820191505b818110156200038d5782815560010162000378565b5050505b505050565b81516001600160401b03811115620003b257620003b26200015b565b620003ca81620003c384546200030a565b8462000344565b602080601f83116001811462000400575f8415620003e85750858301515b5f19600386901b1c1916600185901b1785556200038d565b5f85815260208120601f198616915b8281101562000430578886015182559484019460019091019084016200040f565b50858210156200044e57878501515f19600388901b60f8161c191681555b5050505050600190811b01905550565b80820281158282048414176200048257634e487b7160e01b5f52601160045260245ffd5b92915050565b60805160a05160c05160e05161010051610120516119e96200055c5f395f81816104be0152818161102f01526110ef01525f81816103dc015281816111c70152818161120301526112a101525f818161048b01528181610a690152610c1c01525f818161058c01526108e601525f818161034201526108b901525f81816105de015281816106f10152818161077e015281816107fe0152818161083a015281816109d601528181610b8201528181610c9001528181611005015281816110c70152818161123201526112d101526119e95ff3fe6080604052600436106101c8575f3560e01c806371a18bfb116100f2578063bef28f9111610092578063e7c2b77211610062578063e7c2b77214610562578063ee74daef1461057b578063f2fde38b146105ae578063f4325d67146105cd575f80fd5b8063bef28f91146104ad578063d96a094a146104e0578063dd62ed3e146104ff578063e4849b3214610543575f80fd5b80638da5cb5b116100cd5780638da5cb5b1461042a57806395d89b4114610447578063a9059cbb1461045b578063b4f40c611461047a575f80fd5b806371a18bfb146103ac5780637ed3d924146103cb578063897802dc14610416575f80fd5b8063313ce5671161016857806357e2dd0c1161013857806357e2dd0c1461031c5780635e4194dd1461033157806370a0823114610364578063715018a614610398575f80fd5b8063313ce567146102b857806331f4ffc0146102d3578063343ee3b7146102e857806352f5b3ef146102fd575f80fd5b806318160ddd116101a357806318160ddd1461024f5780631c58ce141461026357806321557e341461028457806323b872dd14610299575f80fd5b806306fdde03146101d3578063092bc24e146101fd578063095ea7b314610220575f80fd5b366101cf57005b5f80fd5b3480156101de575f80fd5b506101e7610600565b6040516101f49190611758565b60405180910390f35b348015610208575f80fd5b50610212600a5481565b6040519081526020016101f4565b34801561022b575f80fd5b5061023f61023a3660046117b7565b610690565b60405190151581526020016101f4565b34801561025a575f80fd5b50600254610212565b34801561026e575f80fd5b5061028261027d3660046117b7565b6106a9565b005b34801561028f575f80fd5b5061021260085481565b3480156102a4575f80fd5b5061023f6102b33660046117e1565b61071c565b3480156102c3575f80fd5b50604051601281526020016101f4565b3480156102de575f80fd5b5061021260095481565b3480156102f3575f80fd5b5061021260075481565b348015610308575f80fd5b5061028261031736600461181f565b61073f565b348015610327575f80fd5b50610212600b5481565b34801561033c575f80fd5b506102127f000000000000000000000000000000000000000000000000000000000000000081565b34801561036f575f80fd5b5061021261037e366004611836565b6001600160a01b03165f9081526020819052604090205490565b3480156103a3575f80fd5b5061028261074c565b3480156103b7575f80fd5b506102826103c6366004611836565b61075f565b3480156103d6575f80fd5b506103fe7f000000000000000000000000000000000000000000000000000000000000000081565b6040516001600160a01b0390911681526020016101f4565b348015610421575f80fd5b506102126108b2565b348015610435575f80fd5b506005546001600160a01b03166103fe565b348015610452575f80fd5b506101e7610928565b348015610466575f80fd5b5061023f6104753660046117b7565b610937565b348015610485575f80fd5b506102127f000000000000000000000000000000000000000000000000000000000000000081565b3480156104b8575f80fd5b506103fe7f000000000000000000000000000000000000000000000000000000000000000081565b3480156104eb575f80fd5b506102126104fa36600461181f565b610944565b34801561050a575f80fd5b50610212610519366004611858565b6001600160a01b039182165f90815260016020908152604080832093909416825291909152205490565b34801561054e575f80fd5b5061021261055d36600461181f565b610bc0565b34801561056d575f80fd5b50600c5461023f9060ff1681565b348015610586575f80fd5b506102127f000000000000000000000000000000000000000000000000000000000000000081565b3480156105b9575f80fd5b506102826105c8366004611836565b610d0e565b3480156105d8575f80fd5b506103fe7f000000000000000000000000000000000000000000000000000000000000000081565b60606003805461060f9061188f565b80601f016020809104026020016040519081016040528092919081815260200182805461063b9061188f565b80156106865780601f1061065d57610100808354040283529160200191610686565b820191905f5260205f20905b81548152906001019060200180831161066957829003601f168201915b5050505050905090565b5f3361069d818585610d4b565b60019150505b92915050565b6106b1610d5d565b600c5460ff166106bf575f80fd5b600a548111156106cd575f80fd5b80600a5f8282546106de91906118db565b9091555061071890506001600160a01b037f0000000000000000000000000000000000000000000000000000000000000000168383610d8a565b5050565b5f33610729858285610de9565b610734858585610e65565b506001949350505050565b610747610d5d565b600b55565b610754610d5d565b61075d5f610ec2565b565b610767610d5d565b6040516370a0823160e01b81523060048201525f907f00000000000000000000000000000000000000000000000000000000000000006001600160a01b0316906370a0823190602401602060405180830381865afa1580156107cb573d5f803e3d5ffd5b505050506040513d601f19601f820116820180604052508101906107ef91906118ee565b90506108256001600160a01b037f0000000000000000000000000000000000000000000000000000000000000000168383610d8a565b6040516370a0823160e01b81523060048201527f00000000000000000000000000000000000000000000000000000000000000006001600160a01b0316906370a0823190602401602060405180830381865afa158015610887573d5f803e3d5ffd5b505050506040513d601f19601f820116820180604052508101906108ab91906118ee565b600a555050565b5f806007547f00000000000000000000000000000000000000000000000000000000000000006108e291906118db565b90507f00000000000000000000000000000000000000000000000000000000000000006109188268056bc75e2d63100000611905565b610922919061191c565b91505090565b60606004805461060f9061188f565b5f3361069d818585610e65565b5f61094d610f13565b600c5460ff16156109915760405162461bcd60e51b815260206004820152600960248201526819dc98591d585d195960ba1b60448201526064015b60405180910390fd5b5f82116109c95760405162461bcd60e51b8152600401610988906020808252600490820152637a65726f60e01b604082015260600190565b6109fe6001600160a01b037f000000000000000000000000000000000000000000000000000000000000000016333085610f6c565b600c54829060ff16158015610a225750600b5481600a54610a1f919061193b565b10155b15610a3a57600a54600b54610a3791906118db565b90505b80600a5f828254610a4b919061193b565b90915550506008545f90610a6090839061193b565b90505f610a8d827f000000000000000000000000000000000000000000000000000000000000000061191c565b90505f8160075411610aa157600754610aaf565b81600754610aaf91906118db565b6009549091508190811115610ac357506009545b600884905560078390558015610af4578060095f828254610ae491906118db565b90915550610af490503382610fa5565b6040805133815260208101879052908101829052606081018390527fedba86fd2b22962d534e70ad9b0ff8730de46f636146f2bab6a72cbb1ebbcc539060800160405180910390a1600c5460ff16158015610b535750600b54600a5410155b15610b6057610b60610fd9565b84871115610bab575f610b7386896118db565b9050610ba96001600160a01b037f0000000000000000000000000000000000000000000000000000000000000000163383610d8a565b505b945050505050610bbb6001600655565b919050565b5f610bc9610f13565b600c5460ff1615610bd8575f80fd5b5f8211610be3575f80fd5b5f610bef33308561143c565b905080610bfa575f80fd5b610c0430846114c0565b5f83600754610c13919061193b565b90505f610c40827f000000000000000000000000000000000000000000000000000000000000000061191c565b90505f81600854610c5191906118db565b60078490556008839055600a54909150811115610c6c575f80fd5b80600a5f828254610c7d91906118db565b90915550610cb790506001600160a01b037f0000000000000000000000000000000000000000000000000000000000000000163383610d8a565b6040805133815260208101889052908101829052606081018790527fe029f26dbcf8c42dd2f352c10214a7fc26773dc62482c6241334a0402ac09a809060800160405180910390a19350505050610bbb6001600655565b610d16610d5d565b6001600160a01b038116610d3f57604051631e4fbdf760e01b81525f6004820152602401610988565b610d4881610ec2565b50565b610d5883838360016114f4565b505050565b6005546001600160a01b0316331461075d5760405163118cdaa760e01b8152336004820152602401610988565b6040516001600160a01b03838116602483015260448201839052610d5891859182169063a9059cbb906064015b604051602081830303815290604052915060e01b6020820180516001600160e01b0383818316178352505050506115c6565b6001600160a01b038381165f908152600160209081526040808320938616835292905220545f19811015610e5f5781811015610e5157604051637dc7a0d960e11b81526001600160a01b03841660048201526024810182905260448101839052606401610988565b610e5f84848484035f6114f4565b50505050565b6001600160a01b038316610e8e57604051634b637e8f60e11b81525f6004820152602401610988565b6001600160a01b038216610eb75760405163ec442f0560e01b81525f6004820152602401610988565b610d58838383611632565b600580546001600160a01b038381166001600160a01b0319831681179093556040519116919082907f8be0079c531659141344cd1fd0a4f28419497f9722a3daafe3b4186f6b6457e0905f90a35050565b600260065403610f655760405162461bcd60e51b815260206004820152601f60248201527f5265656e7472616e637947756172643a207265656e7472616e742063616c6c006044820152606401610988565b6002600655565b6040516001600160a01b038481166024830152838116604483015260648201839052610e5f9186918216906323b872dd90608401610db7565b6001600160a01b038216610fce5760405163ec442f0560e01b81525f6004820152602401610988565b6107185f8383611632565b600c5460ff1615610fe8575f80fd5b60405163e6a4390560e01b81523060048201526001600160a01b037f0000000000000000000000000000000000000000000000000000000000000000811660248301525f917f00000000000000000000000000000000000000000000000000000000000000009091169063e6a4390590604401602060405180830381865afa158015611076573d5f803e3d5ffd5b505050506040513d601f19601f8201168201806040525081019061109a919061194e565b90506001600160a01b03811661115c576040516364e329cb60e11b81523060048201526001600160a01b037f0000000000000000000000000000000000000000000000000000000000000000811660248301527f0000000000000000000000000000000000000000000000000000000000000000169063c9c65396906044016020604051808303815f875af1158015611135573d5f803e3d5ffd5b505050506040513d601f19601f82011682018060405250810190611159919061194e565b90505b600a5480611168575f80fd5b5f6008546007548361117a9190611905565b611184919061191c565b905060095481111561119557506009545b5f81116111a0575f80fd5b8060095f8282546111b191906118db565b909155506111c190503082610fa5565b6111ec307f000000000000000000000000000000000000000000000000000000000000000083610d4b565b60405163095ea7b360e01b81526001600160a01b037f000000000000000000000000000000000000000000000000000000000000000081166004830152602482018490527f0000000000000000000000000000000000000000000000000000000000000000169063095ea7b3906044016020604051808303815f875af1158015611278573d5f803e3d5ffd5b505050506040513d601f19601f8201168201806040525081019061129c9190611969565b505f807f00000000000000000000000000000000000000000000000000000000000000006001600160a01b031663e8e33700307f000000000000000000000000000000000000000000000000000000000000000086885f806113066005546001600160a01b031690565b6113124261070861193b565b60405160e08a901b6001600160e01b03191681526001600160a01b039889166004820152968816602488015260448701959095526064860193909352608485019190915260a484015290921660c482015260e4810191909152610104016060604051808303815f875af115801561138b573d5f803e3d5ffd5b505050506040513d601f19601f820116820180604052508101906113af9190611988565b5091509150600a5481116113d95780600a5f8282546113ce91906118db565b909155506113de9050565b5f600a555b600c805460ff19166001179055604080516001600160a01b0387168152602081018490529081018290527f1c858049e704460ab9455025be4078f9e746e3fd426a56040d06389edb8197db9060600160405180910390a15050505050565b6040516323b872dd60e01b81526001600160a01b03808516600483015283166024820152604481018290525f90819030906323b872dd906064016020604051808303815f875af19250505080156114b0575060408051601f3d908101601f191682019092526114ad91810190611969565b60015b156114b85790505b949350505050565b6001600160a01b0382166114e957604051634b637e8f60e11b81525f6004820152602401610988565b610718825f83611632565b6001600160a01b03841661151d5760405163e602df0560e01b81525f6004820152602401610988565b6001600160a01b03831661154657604051634a1406b160e11b81525f6004820152602401610988565b6001600160a01b038085165f9081526001602090815260408083209387168352929052208290558015610e5f57826001600160a01b0316846001600160a01b03167f8c5be1e5ebec7d5bd14f71427d1e84f3dd0314c0f7b2291e5b200ac8c7c3b925846040516115b891815260200190565b60405180910390a350505050565b5f8060205f8451602086015f885af1806115e5576040513d5f823e3d81fd5b50505f513d915081156115fc578060011415611609565b6001600160a01b0384163b155b15610e5f57604051635274afe760e01b81526001600160a01b0385166004820152602401610988565b6001600160a01b03831661165c578060025f828254611651919061193b565b909155506116cc9050565b6001600160a01b0383165f90815260208190526040902054818110156116ae5760405163391434e360e21b81526001600160a01b03851660048201526024810182905260448101839052606401610988565b6001600160a01b0384165f9081526020819052604090209082900390555b6001600160a01b0382166116e857600280548290039055611706565b6001600160a01b0382165f9081526020819052604090208054820190555b816001600160a01b0316836001600160a01b03167fddf252ad1be2c89b69c2b068fc378daa952ba7f163c4a11628f55a4df523b3ef8360405161174b91815260200190565b60405180910390a3505050565b5f6020808352835180828501525f5b8181101561178357858101830151858201604001528201611767565b505f604082860101526040601f19601f8301168501019250505092915050565b6001600160a01b0381168114610d48575f80fd5b5f80604083850312156117c8575f80fd5b82356117d3816117a3565b946020939093013593505050565b5f805f606084860312156117f3575f80fd5b83356117fe816117a3565b9250602084013561180e816117a3565b929592945050506040919091013590565b5f6020828403121561182f575f80fd5b5035919050565b5f60208284031215611846575f80fd5b8135611851816117a3565b9392505050565b5f8060408385031215611869575f80fd5b8235611874816117a3565b91506020830135611884816117a3565b809150509250929050565b600181811c908216806118a357607f821691505b6020821081036118c157634e487b7160e01b5f52602260045260245ffd5b50919050565b634e487b7160e01b5f52601160045260245ffd5b818103818111156106a3576106a36118c7565b5f602082840312156118fe575f80fd5b5051919050565b80820281158282048414176106a3576106a36118c7565b5f8261193657634e487b7160e01b5f52601260045260245ffd5b500490565b808201808211156106a3576106a36118c7565b5f6020828403121561195e575f80fd5b8151611851816117a3565b5f60208284031215611979575f80fd5b81518015158114611851575f80fd5b5f805f6060848603121561199a575f80fd5b835192506020840151915060408401519050925092509256fea264697066735822122022c55f20465ecbc0d3b18cc68af85da81e73597e17aa83cabab940f9168142d764736f6c63430008140033a264697066735822122064327d270a052e134c126710a6abcca595054762cf433c431fa3c0df36b4065664736f6c63430008140033",
			"opcodes": "PUSH1 0x80 PUSH1 0x40 MSTORE CALLVALUE DUP1 ISZERO PUSH2 0xF JUMPI PUSH0 DUP1 REVERT JUMPDEST POP CALLER DUP1 PUSH2 0x35 JUMPI PUSH1 0x40 MLOAD PUSH4 0x1E4FBDF7 PUSH1 0xE0 SHL DUP2 MSTORE PUSH0 PUSH1 0x4 DUP3 ADD MSTORE PUSH1 0x24 ADD PUSH1 0x40 MLOAD DUP1 SWAP2 SUB SWAP1 REVERT JUMPDEST PUSH2 0x3E DUP2 PUSH2 0x44 JUMP JUMPDEST POP PUSH2 0x93 JUMP JUMPDEST PUSH0 DUP1 SLOAD PUSH1 0x1 PUSH1 0x1 PUSH1 0xA0 SHL SUB DUP4 DUP2 AND PUSH1 0x1 PUSH1 0x1 PUSH1 0xA0 SHL SUB NOT DUP4 AND DUP2 OR DUP5 SSTORE PUSH1 0x40 MLOAD SWAP2 SWAP1 SWAP3 AND SWAP3 DUP4 SWAP2 PUSH32 0x8BE0079C531659141344CD1FD0A4F28419497F9722A3DAAFE3B4186F6B6457E0 SWAP2 SWAP1 LOG3 POP POP JUMP JUMPDEST PUSH2 0x2428 DUP1 PUSH2 0xA0 PUSH0 CODECOPY PUSH0 RETURN INVALID PUSH1 0x80 PUSH1 0x40 MSTORE CALLVALUE DUP1 ISZERO PUSH3 0x10 JUMPI PUSH0 DUP1 REVERT JUMPDEST POP PUSH1 0x4 CALLDATASIZE LT PUSH3 0x50 JUMPI PUSH0 CALLDATALOAD PUSH1 0xE0 SHR DUP1 PUSH4 0x715018A6 EQ PUSH3 0x54 JUMPI DUP1 PUSH4 0x7AA088EE EQ PUSH3 0x60 JUMPI DUP1 PUSH4 0x8DA5CB5B EQ PUSH3 0x93 JUMPI DUP1 PUSH4 0xF2FDE38B EQ PUSH3 0xA4 JUMPI JUMPDEST PUSH0 DUP1 REVERT JUMPDEST PUSH3 0x5E PUSH3 0xBB JUMP JUMPDEST STOP JUMPDEST PUSH3 0x77 PUSH3 0x71 CALLDATASIZE PUSH1 0x4 PUSH3 0x306 JUMP JUMPDEST PUSH3 0xD2 JUMP JUMPDEST PUSH1 0x40 MLOAD PUSH1 0x1 PUSH1 0x1 PUSH1 0xA0 SHL SUB SWAP1 SWAP2 AND DUP2 MSTORE PUSH1 0x20 ADD PUSH1 0x40 MLOAD DUP1 SWAP2 SUB SWAP1 RETURN JUMPDEST PUSH0 SLOAD PUSH1 0x1 PUSH1 0x1 PUSH1 0xA0 SHL SUB AND PUSH3 0x77 JUMP JUMPDEST PUSH3 0x5E PUSH3 0xB5 CALLDATASIZE PUSH1 0x4 PUSH3 0x3C8 JUMP JUMPDEST PUSH3 0x173 JUMP JUMPDEST PUSH3 0xC5 PUSH3 0x1BA JUMP JUMPDEST PUSH3 0xD0 PUSH0 PUSH3 0x1E8 JUMP JUMPDEST JUMP JUMPDEST PUSH0 PUSH3 0xDD PUSH3 0x1BA JUMP JUMPDEST PUSH0 DUP11 DUP11 CALLER DUP12 DUP12 DUP12 DUP12 DUP12 DUP12 DUP12 PUSH1 0x40 MLOAD PUSH3 0xF6 SWAP1 PUSH3 0x237 JUMP JUMPDEST PUSH3 0x10B SWAP11 SWAP10 SWAP9 SWAP8 SWAP7 SWAP6 SWAP5 SWAP4 SWAP3 SWAP2 SWAP1 PUSH3 0x430 JUMP JUMPDEST PUSH1 0x40 MLOAD DUP1 SWAP2 SUB SWAP1 PUSH0 CREATE DUP1 ISZERO DUP1 ISZERO PUSH3 0x125 JUMPI RETURNDATASIZE PUSH0 DUP1 RETURNDATACOPY RETURNDATASIZE PUSH0 REVERT JUMPDEST POP PUSH1 0x40 MLOAD PUSH1 0x1 PUSH1 0x1 PUSH1 0xA0 SHL SUB DUP3 AND DUP2 MSTORE SWAP1 SWAP2 POP PUSH32 0x2E2B3F61B70D2D131B2A807371103CC98D51ADCAA5E9A8F9C32658AD8426E74E SWAP1 PUSH1 0x20 ADD PUSH1 0x40 MLOAD DUP1 SWAP2 SUB SWAP1 LOG1 SWAP11 SWAP10 POP POP POP POP POP POP POP POP POP POP JUMP JUMPDEST PUSH3 0x17D PUSH3 0x1BA JUMP JUMPDEST PUSH1 0x1 PUSH1 0x1 PUSH1 0xA0 SHL SUB DUP2 AND PUSH3 0x1AC JUMPI PUSH1 0x40 MLOAD PUSH4 0x1E4FBDF7 PUSH1 0xE0 SHL DUP2 MSTORE PUSH0 PUSH1 0x4 DUP3 ADD MSTORE PUSH1 0x24 ADD JUMPDEST PUSH1 0x40 MLOAD DUP1 SWAP2 SUB SWAP1 REVERT JUMPDEST PUSH3 0x1B7 DUP2 PUSH3 0x1E8 JUMP JUMPDEST POP JUMP JUMPDEST PUSH0 SLOAD PUSH1 0x1 PUSH1 0x1 PUSH1 0xA0 SHL SUB AND CALLER EQ PUSH3 0xD0 JUMPI PUSH1 0x40 MLOAD PUSH4 0x118CDAA7 PUSH1 0xE0 SHL DUP2 MSTORE CALLER PUSH1 0x4 DUP3 ADD MSTORE PUSH1 0x24 ADD PUSH3 0x1A3 JUMP JUMPDEST PUSH0 DUP1 SLOAD PUSH1 0x1 PUSH1 0x1 PUSH1 0xA0 SHL SUB DUP4 DUP2 AND PUSH1 0x1 PUSH1 0x1 PUSH1 0xA0 SHL SUB NOT DUP4 AND DUP2 OR DUP5 SSTORE PUSH1 0x40 MLOAD SWAP2 SWAP1 SWAP3 AND SWAP3 DUP4 SWAP2 PUSH32 0x8BE0079C531659141344CD1FD0A4F28419497F9722A3DAAFE3B4186F6B6457E0 SWAP2 SWAP1 LOG3 POP POP JUMP JUMPDEST PUSH2 0x1F45 DUP1 PUSH3 0x4AE DUP4 CODECOPY ADD SWAP1 JUMP JUMPDEST PUSH4 0x4E487B71 PUSH1 0xE0 SHL PUSH0 MSTORE PUSH1 0x41 PUSH1 0x4 MSTORE PUSH1 0x24 PUSH0 REVERT JUMPDEST PUSH0 DUP3 PUSH1 0x1F DUP4 ADD SLT PUSH3 0x269 JUMPI PUSH0 DUP1 REVERT JUMPDEST DUP2 CALLDATALOAD PUSH8 0xFFFFFFFFFFFFFFFF DUP1 DUP3 GT ISZERO PUSH3 0x287 JUMPI PUSH3 0x287 PUSH3 0x245 JUMP JUMPDEST PUSH1 0x40 MLOAD PUSH1 0x1F DUP4 ADD PUSH1 0x1F NOT SWAP1 DUP2 AND PUSH1 0x3F ADD AND DUP2 ADD SWAP1 DUP3 DUP3 GT DUP2 DUP4 LT OR ISZERO PUSH3 0x2B2 JUMPI PUSH3 0x2B2 PUSH3 0x245 JUMP JUMPDEST DUP2 PUSH1 0x40 MSTORE DUP4 DUP2 MSTORE DUP7 PUSH1 0x20 DUP6 DUP9 ADD ADD GT ISZERO PUSH3 0x2CB JUMPI PUSH0 DUP1 REVERT JUMPDEST DUP4 PUSH1 0x20 DUP8 ADD PUSH1 0x20 DUP4 ADD CALLDATACOPY PUSH0 PUSH1 0x20 DUP6 DUP4 ADD ADD MSTORE DUP1 SWAP5 POP POP POP POP POP SWAP3 SWAP2 POP POP JUMP JUMPDEST DUP1 CALLDATALOAD PUSH1 0x1 PUSH1 0x1 PUSH1 0xA0 SHL SUB DUP2 AND DUP2 EQ PUSH3 0x301 JUMPI PUSH0 DUP1 REVERT JUMPDEST SWAP2 SWAP1 POP JUMP JUMPDEST PUSH0 DUP1 PUSH0 DUP1 PUSH0 DUP1 PUSH0 DUP1 PUSH0 PUSH2 0x120 DUP11 DUP13 SUB SLT ISZERO PUSH3 0x320 JUMPI PUSH0 DUP1 REVERT JUMPDEST DUP10 CALLDATALOAD PUSH8 0xFFFFFFFFFFFFFFFF DUP1 DUP3 GT ISZERO PUSH3 0x338 JUMPI PUSH0 DUP1 REVERT JUMPDEST PUSH3 0x346 DUP14 DUP4 DUP15 ADD PUSH3 0x259 JUMP JUMPDEST SWAP11 POP PUSH1 0x20 DUP13 ADD CALLDATALOAD SWAP2 POP DUP1 DUP3 GT ISZERO PUSH3 0x35C JUMPI PUSH0 DUP1 REVERT JUMPDEST POP PUSH3 0x36B DUP13 DUP3 DUP14 ADD PUSH3 0x259 JUMP JUMPDEST SWAP9 POP POP PUSH3 0x37C PUSH1 0x40 DUP12 ADD PUSH3 0x2EA JUMP JUMPDEST SWAP7 POP PUSH1 0x60 DUP11 ADD CALLDATALOAD SWAP6 POP PUSH1 0x80 DUP11 ADD CALLDATALOAD SWAP5 POP PUSH1 0xA0 DUP11 ADD CALLDATALOAD SWAP4 POP PUSH1 0xC0 DUP11 ADD CALLDATALOAD SWAP3 POP PUSH3 0x3A8 PUSH1 0xE0 DUP12 ADD PUSH3 0x2EA JUMP JUMPDEST SWAP2 POP PUSH3 0x3B9 PUSH2 0x100 DUP12 ADD PUSH3 0x2EA JUMP JUMPDEST SWAP1 POP SWAP3 SWAP6 SWAP9 POP SWAP3 SWAP6 SWAP9 POP SWAP3 SWAP6 SWAP9 JUMP JUMPDEST PUSH0 PUSH1 0x20 DUP3 DUP5 SUB SLT ISZERO PUSH3 0x3D9 JUMPI PUSH0 DUP1 REVERT JUMPDEST PUSH3 0x3E4 DUP3 PUSH3 0x2EA JUMP JUMPDEST SWAP4 SWAP3 POP POP POP JUMP JUMPDEST PUSH0 DUP2 MLOAD DUP1 DUP5 MSTORE PUSH0 JUMPDEST DUP2 DUP2 LT ISZERO PUSH3 0x411 JUMPI PUSH1 0x20 DUP2 DUP6 ADD DUP2 ADD MLOAD DUP7 DUP4 ADD DUP3 ADD MSTORE ADD PUSH3 0x3F3 JUMP JUMPDEST POP PUSH0 PUSH1 0x20 DUP3 DUP7 ADD ADD MSTORE PUSH1 0x20 PUSH1 0x1F NOT PUSH1 0x1F DUP4 ADD AND DUP6 ADD ADD SWAP2 POP POP SWAP3 SWAP2 POP POP JUMP JUMPDEST PUSH0 PUSH2 0x140 DUP1 DUP4 MSTORE PUSH3 0x445 DUP2 DUP5 ADD DUP15 PUSH3 0x3EB JUMP JUMPDEST SWAP1 POP DUP3 DUP2 SUB PUSH1 0x20 DUP5 ADD MSTORE PUSH3 0x45B DUP2 DUP14 PUSH3 0x3EB JUMP JUMPDEST PUSH1 0x1 PUSH1 0x1 PUSH1 0xA0 SHL SUB SWAP12 DUP13 AND PUSH1 0x40 DUP6 ADD MSTORE SWAP10 DUP12 AND PUSH1 0x60 DUP5 ADD MSTORE POP POP PUSH1 0x80 DUP2 ADD SWAP7 SWAP1 SWAP7 MSTORE PUSH1 0xA0 DUP7 ADD SWAP5 SWAP1 SWAP5 MSTORE PUSH1 0xC0 DUP6 ADD SWAP3 SWAP1 SWAP3 MSTORE PUSH1 0xE0 DUP5 ADD MSTORE DUP5 AND PUSH2 0x100 DUP4 ADD MSTORE SWAP1 SWAP3 AND PUSH2 0x120 SWAP1 SWAP3 ADD SWAP2 SWAP1 SWAP2 MSTORE SWAP3 SWAP2 POP POP JUMP INVALID PUSH2 0x140 PUSH1 0x40 MSTORE CALLVALUE DUP1 ISZERO PUSH3 0x11 JUMPI PUSH0 DUP1 REVERT JUMPDEST POP PUSH1 0x40 MLOAD PUSH3 0x1F45 CODESIZE SUB DUP1 PUSH3 0x1F45 DUP4 CODECOPY DUP2 ADD PUSH1 0x40 DUP2 SWAP1 MSTORE PUSH3 0x34 SWAP2 PUSH3 0x235 JUMP JUMPDEST CALLER DUP11 DUP11 PUSH1 0x3 PUSH3 0x45 DUP4 DUP3 PUSH3 0x396 JUMP JUMPDEST POP PUSH1 0x4 PUSH3 0x54 DUP3 DUP3 PUSH3 0x396 JUMP JUMPDEST POP POP POP PUSH1 0x1 PUSH1 0x1 PUSH1 0xA0 SHL SUB DUP2 AND PUSH3 0x85 JUMPI PUSH1 0x40 MLOAD PUSH4 0x1E4FBDF7 PUSH1 0xE0 SHL DUP2 MSTORE PUSH0 PUSH1 0x4 DUP3 ADD MSTORE PUSH1 0x24 ADD PUSH1 0x40 MLOAD DUP1 SWAP2 SUB SWAP1 REVERT JUMPDEST PUSH3 0x90 DUP2 PUSH3 0x10A JUMP JUMPDEST POP PUSH1 0x1 PUSH1 0x6 SSTORE PUSH1 0x1 PUSH1 0x1 PUSH1 0xA0 SHL SUB DUP8 AND PUSH1 0x80 MSTORE PUSH1 0x7 DUP7 SWAP1 SSTORE PUSH1 0x8 DUP6 SWAP1 SSTORE PUSH1 0xA0 DUP7 SWAP1 MSTORE PUSH1 0xC0 DUP5 SWAP1 MSTORE PUSH3 0xC3 DUP6 DUP8 PUSH3 0x45E JUMP JUMPDEST PUSH1 0xE0 MSTORE PUSH1 0x9 DUP5 SWAP1 SSTORE PUSH1 0xB DUP4 SWAP1 SSTORE PUSH1 0x1 PUSH1 0x1 PUSH1 0xA0 SHL SUB DUP1 DUP4 AND PUSH2 0x100 MSTORE DUP2 AND PUSH2 0x120 MSTORE PUSH1 0xC DUP1 SLOAD PUSH1 0xFF NOT AND SWAP1 SSTORE PUSH3 0xFA DUP9 PUSH3 0x10A JUMP JUMPDEST POP POP POP POP POP POP POP POP POP POP PUSH3 0x488 JUMP JUMPDEST PUSH1 0x5 DUP1 SLOAD PUSH1 0x1 PUSH1 0x1 PUSH1 0xA0 SHL SUB DUP4 DUP2 AND PUSH1 0x1 PUSH1 0x1 PUSH1 0xA0 SHL SUB NOT DUP4 AND DUP2 OR SWAP1 SWAP4 SSTORE PUSH1 0x40 MLOAD SWAP2 AND SWAP2 SWAP1 DUP3 SWAP1 PUSH32 0x8BE0079C531659141344CD1FD0A4F28419497F9722A3DAAFE3B4186F6B6457E0 SWAP1 PUSH0 SWAP1 LOG3 POP POP JUMP JUMPDEST PUSH4 0x4E487B71 PUSH1 0xE0 SHL PUSH0 MSTORE PUSH1 0x41 PUSH1 0x4 MSTORE PUSH1 0x24 PUSH0 REVERT JUMPDEST PUSH0 DUP3 PUSH1 0x1F DUP4 ADD SLT PUSH3 0x17F JUMPI PUSH0 DUP1 REVERT JUMPDEST DUP2 MLOAD PUSH1 0x1 PUSH1 0x1 PUSH1 0x40 SHL SUB DUP1 DUP3 GT ISZERO PUSH3 0x19C JUMPI PUSH3 0x19C PUSH3 0x15B JUMP JUMPDEST PUSH1 0x40 MLOAD PUSH1 0x1F DUP4 ADD PUSH1 0x1F NOT SWAP1 DUP2 AND PUSH1 0x3F ADD AND DUP2 ADD SWAP1 DUP3 DUP3 GT DUP2 DUP4 LT OR ISZERO PUSH3 0x1C7 JUMPI PUSH3 0x1C7 PUSH3 0x15B JUMP JUMPDEST DUP2 PUSH1 0x40 MSTORE DUP4 DUP2 MSTORE PUSH1 0x20 SWAP3 POP DUP7 DUP4 DUP6 DUP9 ADD ADD GT ISZERO PUSH3 0x1E3 JUMPI PUSH0 DUP1 REVERT JUMPDEST PUSH0 SWAP2 POP JUMPDEST DUP4 DUP3 LT ISZERO PUSH3 0x206 JUMPI DUP6 DUP3 ADD DUP4 ADD MLOAD DUP2 DUP4 ADD DUP5 ADD MSTORE SWAP1 DUP3 ADD SWAP1 PUSH3 0x1E7 JUMP JUMPDEST PUSH0 SWAP4 DUP2 ADD SWAP1 SWAP3 ADD SWAP3 SWAP1 SWAP3 MSTORE SWAP5 SWAP4 POP POP POP POP JUMP JUMPDEST DUP1 MLOAD PUSH1 0x1 PUSH1 0x1 PUSH1 0xA0 SHL SUB DUP2 AND DUP2 EQ PUSH3 0x230 JUMPI PUSH0 DUP1 REVERT JUMPDEST SWAP2 SWAP1 POP JUMP JUMPDEST PUSH0 DUP1 PUSH0 DUP1 PUSH0 DUP1 PUSH0 DUP1 PUSH0 DUP1 PUSH2 0x140 DUP12 DUP14 SUB SLT ISZERO PUSH3 0x250 JUMPI PUSH0 DUP1 REVERT JUMPDEST DUP11 MLOAD PUSH1 0x1 PUSH1 0x1 PUSH1 0x40 SHL SUB DUP1 DUP3 GT ISZERO PUSH3 0x267 JUMPI PUSH0 DUP1 REVERT JUMPDEST PUSH3 0x275 DUP15 DUP4 DUP16 ADD PUSH3 0x16F JUMP JUMPDEST SWAP12 POP PUSH1 0x20 DUP14 ADD MLOAD SWAP2 POP DUP1 DUP3 GT ISZERO PUSH3 0x28B JUMPI PUSH0 DUP1 REVERT JUMPDEST POP PUSH3 0x29A DUP14 DUP3 DUP15 ADD PUSH3 0x16F JUMP JUMPDEST SWAP10 POP POP PUSH3 0x2AB PUSH1 0x40 DUP13 ADD PUSH3 0x219 JUMP JUMPDEST SWAP8 POP PUSH3 0x2BB PUSH1 0x60 DUP13 ADD PUSH3 0x219 JUMP JUMPDEST SWAP7 POP PUSH1 0x80 DUP12 ADD MLOAD SWAP6 POP PUSH1 0xA0 DUP12 ADD MLOAD SWAP5 POP PUSH1 0xC0 DUP12 ADD MLOAD SWAP4 POP PUSH1 0xE0 DUP12 ADD MLOAD SWAP3 POP PUSH3 0x2E8 PUSH2 0x100 DUP13 ADD PUSH3 0x219 JUMP JUMPDEST SWAP2 POP PUSH3 0x2F9 PUSH2 0x120 DUP13 ADD PUSH3 0x219 JUMP JUMPDEST SWAP1 POP SWAP3 SWAP6 SWAP9 SWAP12 SWAP2 SWAP5 SWAP8 SWAP11 POP SWAP3 SWAP6 SWAP9 POP JUMP JUMPDEST PUSH1 0x1 DUP2 DUP2 SHR SWAP1 DUP3 AND DUP1 PUSH3 0x31F JUMPI PUSH1 0x7F DUP3 AND SWAP2 POP JUMPDEST PUSH1 0x20 DUP3 LT DUP2 SUB PUSH3 0x33E JUMPI PUSH4 0x4E487B71 PUSH1 0xE0 SHL PUSH0 MSTORE PUSH1 0x22 PUSH1 0x4 MSTORE PUSH1 0x24 PUSH0 REVERT JUMPDEST POP SWAP2 SWAP1 POP JUMP JUMPDEST PUSH1 0x1F DUP3 GT ISZERO PUSH3 0x391 JUMPI PUSH0 DUP2 DUP2 MSTORE PUSH1 0x20 DUP2 KECCAK256 PUSH1 0x1F DUP6 ADD PUSH1 0x5 SHR DUP2 ADD PUSH1 0x20 DUP7 LT ISZERO PUSH3 0x36C JUMPI POP DUP1 JUMPDEST PUSH1 0x1F DUP6 ADD PUSH1 0x5 SHR DUP3 ADD SWAP2 POP JUMPDEST DUP2 DUP2 LT ISZERO PUSH3 0x38D JUMPI DUP3 DUP2 SSTORE PUSH1 0x1 ADD PUSH3 0x378 JUMP JUMPDEST POP POP POP JUMPDEST POP POP POP JUMP JUMPDEST DUP2 MLOAD PUSH1 0x1 PUSH1 0x1 PUSH1 0x40 SHL SUB DUP2 GT ISZERO PUSH3 0x3B2 JUMPI PUSH3 0x3B2 PUSH3 0x15B JUMP JUMPDEST PUSH3 0x3CA DUP2 PUSH3 0x3C3 DUP5 SLOAD PUSH3 0x30A JUMP JUMPDEST DUP5 PUSH3 0x344 JUMP JUMPDEST PUSH1 0x20 DUP1 PUSH1 0x1F DUP4 GT PUSH1 0x1 DUP2 EQ PUSH3 0x400 JUMPI PUSH0 DUP5 ISZERO PUSH3 0x3E8 JUMPI POP DUP6 DUP4 ADD MLOAD JUMPDEST PUSH0 NOT PUSH1 0x3 DUP7 SWAP1 SHL SHR NOT AND PUSH1 0x1 DUP6 SWAP1 SHL OR DUP6 SSTORE PUSH3 0x38D JUMP JUMPDEST PUSH0 DUP6 DUP2 MSTORE PUSH1 0x20 DUP2 KECCAK256 PUSH1 0x1F NOT DUP7 AND SWAP2 JUMPDEST DUP3 DUP2 LT ISZERO PUSH3 0x430 JUMPI DUP9 DUP7 ADD MLOAD DUP3 SSTORE SWAP5 DUP5 ADD SWAP5 PUSH1 0x1 SWAP1 SWAP2 ADD SWAP1 DUP5 ADD PUSH3 0x40F JUMP JUMPDEST POP DUP6 DUP3 LT ISZERO PUSH3 0x44E JUMPI DUP8 DUP6 ADD MLOAD PUSH0 NOT PUSH1 0x3 DUP9 SWAP1 SHL PUSH1 0xF8 AND SHR NOT AND DUP2 SSTORE JUMPDEST POP POP POP POP POP PUSH1 0x1 SWAP1 DUP2 SHL ADD SWAP1 SSTORE POP JUMP JUMPDEST DUP1 DUP3 MUL DUP2 ISZERO DUP3 DUP3 DIV DUP5 EQ OR PUSH3 0x482 JUMPI PUSH4 0x4E487B71 PUSH1 0xE0 SHL PUSH0 MSTORE PUSH1 0x11 PUSH1 0x4 MSTORE PUSH1 0x24 PUSH0 REVERT JUMPDEST SWAP3 SWAP2 POP POP JUMP JUMPDEST PUSH1 0x80 MLOAD PUSH1 0xA0 MLOAD PUSH1 0xC0 MLOAD PUSH1 0xE0 MLOAD PUSH2 0x100 MLOAD PUSH2 0x120 MLOAD PUSH2 0x19E9 PUSH3 0x55C PUSH0 CODECOPY PUSH0 DUP2 DUP2 PUSH2 0x4BE ADD MSTORE DUP2 DUP2 PUSH2 0x102F ADD MSTORE PUSH2 0x10EF ADD MSTORE PUSH0 DUP2 DUP2 PUSH2 0x3DC ADD MSTORE DUP2 DUP2 PUSH2 0x11C7 ADD MSTORE DUP2 DUP2 PUSH2 0x1203 ADD MSTORE PUSH2 0x12A1 ADD MSTORE PUSH0 DUP2 DUP2 PUSH2 0x48B ADD MSTORE DUP2 DUP2 PUSH2 0xA69 ADD MSTORE PUSH2 0xC1C ADD MSTORE PUSH0 DUP2 DUP2 PUSH2 0x58C ADD MSTORE PUSH2 0x8E6 ADD MSTORE PUSH0 DUP2 DUP2 PUSH2 0x342 ADD MSTORE PUSH2 0x8B9 ADD MSTORE PUSH0 DUP2 DUP2 PUSH2 0x5DE ADD MSTORE DUP2 DUP2 PUSH2 0x6F1 ADD MSTORE DUP2 DUP2 PUSH2 0x77E ADD MSTORE DUP2 DUP2 PUSH2 0x7FE ADD MSTORE DUP2 DUP2 PUSH2 0x83A ADD MSTORE DUP2 DUP2 PUSH2 0x9D6 ADD MSTORE DUP2 DUP2 PUSH2 0xB82 ADD MSTORE DUP2 DUP2 PUSH2 0xC90 ADD MSTORE DUP2 DUP2 PUSH2 0x1005 ADD MSTORE DUP2 DUP2 PUSH2 0x10C7 ADD MSTORE DUP2 DUP2 PUSH2 0x1232 ADD MSTORE PUSH2 0x12D1 ADD MSTORE PUSH2 0x19E9 PUSH0 RETURN INVALID PUSH1 0x80 PUSH1 0x40 MSTORE PUSH1 0x4 CALLDATASIZE LT PUSH2 0x1C8 JUMPI PUSH0 CALLDATALOAD PUSH1 0xE0 SHR DUP1 PUSH4 0x71A18BFB GT PUSH2 0xF2 JUMPI DUP1 PUSH4 0xBEF28F91 GT PUSH2 0x92 JUMPI DUP1 PUSH4 0xE7C2B772 GT PUSH2 0x62 JUMPI DUP1 PUSH4 0xE7C2B772 EQ PUSH2 0x562 JUMPI DUP1 PUSH4 0xEE74DAEF EQ PUSH2 0x57B JUMPI DUP1 PUSH4 0xF2FDE38B EQ PUSH2 0x5AE JUMPI DUP1 PUSH4 0xF4325D67 EQ PUSH2 0x5CD JUMPI PUSH0 DUP1 REVERT JUMPDEST DUP1 PUSH4 0xBEF28F91 EQ PUSH2 0x4AD JUMPI DUP1 PUSH4 0xD96A094A EQ PUSH2 0x4E0 JUMPI DUP1 PUSH4 0xDD62ED3E EQ PUSH2 0x4FF JUMPI DUP1 PUSH4 0xE4849B32 EQ PUSH2 0x543 JUMPI PUSH0 DUP1 REVERT JUMPDEST DUP1 PUSH4 0x8DA5CB5B GT PUSH2 0xCD JUMPI DUP1 PUSH4 0x8DA5CB5B EQ PUSH2 0x42A JUMPI DUP1 PUSH4 0x95D89B41 EQ PUSH2 0x447 JUMPI DUP1 PUSH4 0xA9059CBB EQ PUSH2 0x45B JUMPI DUP1 PUSH4 0xB4F40C61 EQ PUSH2 0x47A JUMPI PUSH0 DUP1 REVERT JUMPDEST DUP1 PUSH4 0x71A18BFB EQ PUSH2 0x3AC JUMPI DUP1 PUSH4 0x7ED3D924 EQ PUSH2 0x3CB JUMPI DUP1 PUSH4 0x897802DC EQ PUSH2 0x416 JUMPI PUSH0 DUP1 REVERT JUMPDEST DUP1 PUSH4 0x313CE567 GT PUSH2 0x168 JUMPI DUP1 PUSH4 0x57E2DD0C GT PUSH2 0x138 JUMPI DUP1 PUSH4 0x57E2DD0C EQ PUSH2 0x31C JUMPI DUP1 PUSH4 0x5E4194DD EQ PUSH2 0x331 JUMPI DUP1 PUSH4 0x70A08231 EQ PUSH2 0x364 JUMPI DUP1 PUSH4 0x715018A6 EQ PUSH2 0x398 JUMPI PUSH0 DUP1 REVERT JUMPDEST DUP1 PUSH4 0x313CE567 EQ PUSH2 0x2B8 JUMPI DUP1 PUSH4 0x31F4FFC0 EQ PUSH2 0x2D3 JUMPI DUP1 PUSH4 0x343EE3B7 EQ PUSH2 0x2E8 JUMPI DUP1 PUSH4 0x52F5B3EF EQ PUSH2 0x2FD JUMPI PUSH0 DUP1 REVERT JUMPDEST DUP1 PUSH4 0x18160DDD GT PUSH2 0x1A3 JUMPI DUP1 PUSH4 0x18160DDD EQ PUSH2 0x24F JUMPI DUP1 PUSH4 0x1C58CE14 EQ PUSH2 0x263 JUMPI DUP1 PUSH4 0x21557E34 EQ PUSH2 0x284 JUMPI DUP1 PUSH4 0x23B872DD EQ PUSH2 0x299 JUMPI PUSH0 DUP1 REVERT JUMPDEST DUP1 PUSH4 0x6FDDE03 EQ PUSH2 0x1D3 JUMPI DUP1 PUSH4 0x92BC24E EQ PUSH2 0x1FD JUMPI DUP1 PUSH4 0x95EA7B3 EQ PUSH2 0x220 JUMPI PUSH0 DUP1 REVERT JUMPDEST CALLDATASIZE PUSH2 0x1CF JUMPI STOP JUMPDEST PUSH0 DUP1 REVERT JUMPDEST CALLVALUE DUP1 ISZERO PUSH2 0x1DE JUMPI PUSH0 DUP1 REVERT JUMPDEST POP PUSH2 0x1E7 PUSH2 0x600 JUMP JUMPDEST PUSH1 0x40 MLOAD PUSH2 0x1F4 SWAP2 SWAP1 PUSH2 0x1758 JUMP JUMPDEST PUSH1 0x40 MLOAD DUP1 SWAP2 SUB SWAP1 RETURN JUMPDEST CALLVALUE DUP1 ISZERO PUSH2 0x208 JUMPI PUSH0 DUP1 REVERT JUMPDEST POP PUSH2 0x212 PUSH1 0xA SLOAD DUP2 JUMP JUMPDEST PUSH1 0x40 MLOAD SWAP1 DUP2 MSTORE PUSH1 0x20 ADD PUSH2 0x1F4 JUMP JUMPDEST CALLVALUE DUP1 ISZERO PUSH2 0x22B JUMPI PUSH0 DUP1 REVERT JUMPDEST POP PUSH2 0x23F PUSH2 0x23A CALLDATASIZE PUSH1 0x4 PUSH2 0x17B7 JUMP JUMPDEST PUSH2 0x690 JUMP JUMPDEST PUSH1 0x40 MLOAD SWAP1 ISZERO ISZERO DUP2 MSTORE PUSH1 0x20 ADD PUSH2 0x1F4 JUMP JUMPDEST CALLVALUE DUP1 ISZERO PUSH2 0x25A JUMPI PUSH0 DUP1 REVERT JUMPDEST POP PUSH1 0x2 SLOAD PUSH2 0x212 JUMP JUMPDEST CALLVALUE DUP1 ISZERO PUSH2 0x26E JUMPI PUSH0 DUP1 REVERT JUMPDEST POP PUSH2 0x282 PUSH2 0x27D CALLDATASIZE PUSH1 0x4 PUSH2 0x17B7 JUMP JUMPDEST PUSH2 0x6A9 JUMP JUMPDEST STOP JUMPDEST CALLVALUE DUP1 ISZERO PUSH2 0x28F JUMPI PUSH0 DUP1 REVERT JUMPDEST POP PUSH2 0x212 PUSH1 0x8 SLOAD DUP2 JUMP JUMPDEST CALLVALUE DUP1 ISZERO PUSH2 0x2A4 JUMPI PUSH0 DUP1 REVERT JUMPDEST POP PUSH2 0x23F PUSH2 0x2B3 CALLDATASIZE PUSH1 0x4 PUSH2 0x17E1 JUMP JUMPDEST PUSH2 0x71C JUMP JUMPDEST CALLVALUE DUP1 ISZERO PUSH2 0x2C3 JUMPI PUSH0 DUP1 REVERT JUMPDEST POP PUSH1 0x40 MLOAD PUSH1 0x12 DUP2 MSTORE PUSH1 0x20 ADD PUSH2 0x1F4 JUMP JUMPDEST CALLVALUE DUP1 ISZERO PUSH2 0x2DE JUMPI PUSH0 DUP1 REVERT JUMPDEST POP PUSH2 0x212 PUSH1 0x9 SLOAD DUP2 JUMP JUMPDEST CALLVALUE DUP1 ISZERO PUSH2 0x2F3 JUMPI PUSH0 DUP1 REVERT JUMPDEST POP PUSH2 0x212 PUSH1 0x7 SLOAD DUP2 JUMP JUMPDEST CALLVALUE DUP1 ISZERO PUSH2 0x308 JUMPI PUSH0 DUP1 REVERT JUMPDEST POP PUSH2 0x282 PUSH2 0x317 CALLDATASIZE PUSH1 0x4 PUSH2 0x181F JUMP JUMPDEST PUSH2 0x73F JUMP JUMPDEST CALLVALUE DUP1 ISZERO PUSH2 0x327 JUMPI PUSH0 DUP1 REVERT JUMPDEST POP PUSH2 0x212 PUSH1 0xB SLOAD DUP2 JUMP JUMPDEST CALLVALUE DUP1 ISZERO PUSH2 0x33C JUMPI PUSH0 DUP1 REVERT JUMPDEST POP PUSH2 0x212 PUSH32 0x0 DUP2 JUMP JUMPDEST CALLVALUE DUP1 ISZERO PUSH2 0x36F JUMPI PUSH0 DUP1 REVERT JUMPDEST POP PUSH2 0x212 PUSH2 0x37E CALLDATASIZE PUSH1 0x4 PUSH2 0x1836 JUMP JUMPDEST PUSH1 0x1 PUSH1 0x1 PUSH1 0xA0 SHL SUB AND PUSH0 SWAP1 DUP2 MSTORE PUSH1 0x20 DUP2 SWAP1 MSTORE PUSH1 0x40 SWAP1 KECCAK256 SLOAD SWAP1 JUMP JUMPDEST CALLVALUE DUP1 ISZERO PUSH2 0x3A3 JUMPI PUSH0 DUP1 REVERT JUMPDEST POP PUSH2 0x282 PUSH2 0x74C JUMP JUMPDEST CALLVALUE DUP1 ISZERO PUSH2 0x3B7 JUMPI PUSH0 DUP1 REVERT JUMPDEST POP PUSH2 0x282 PUSH2 0x3C6 CALLDATASIZE PUSH1 0x4 PUSH2 0x1836 JUMP JUMPDEST PUSH2 0x75F JUMP JUMPDEST CALLVALUE DUP1 ISZERO PUSH2 0x3D6 JUMPI PUSH0 DUP1 REVERT JUMPDEST POP PUSH2 0x3FE PUSH32 0x0 DUP2 JUMP JUMPDEST PUSH1 0x40 MLOAD PUSH1 0x1 PUSH1 0x1 PUSH1 0xA0 SHL SUB SWAP1 SWAP2 AND DUP2 MSTORE PUSH1 0x20 ADD PUSH2 0x1F4 JUMP JUMPDEST CALLVALUE DUP1 ISZERO PUSH2 0x421 JUMPI PUSH0 DUP1 REVERT JUMPDEST POP PUSH2 0x212 PUSH2 0x8B2 JUMP JUMPDEST CALLVALUE DUP1 ISZERO PUSH2 0x435 JUMPI PUSH0 DUP1 REVERT JUMPDEST POP PUSH1 0x5 SLOAD PUSH1 0x1 PUSH1 0x1 PUSH1 0xA0 SHL SUB AND PUSH2 0x3FE JUMP JUMPDEST CALLVALUE DUP1 ISZERO PUSH2 0x452 JUMPI PUSH0 DUP1 REVERT JUMPDEST POP PUSH2 0x1E7 PUSH2 0x928 JUMP JUMPDEST CALLVALUE DUP1 ISZERO PUSH2 0x466 JUMPI PUSH0 DUP1 REVERT JUMPDEST POP PUSH2 0x23F PUSH2 0x475 CALLDATASIZE PUSH1 0x4 PUSH2 0x17B7 JUMP JUMPDEST PUSH2 0x937 JUMP JUMPDEST CALLVALUE DUP1 ISZERO PUSH2 0x485 JUMPI PUSH0 DUP1 REVERT JUMPDEST POP PUSH2 0x212 PUSH32 0x0 DUP2 JUMP JUMPDEST CALLVALUE DUP1 ISZERO PUSH2 0x4B8 JUMPI PUSH0 DUP1 REVERT JUMPDEST POP PUSH2 0x3FE PUSH32 0x0 DUP2 JUMP JUMPDEST CALLVALUE DUP1 ISZERO PUSH2 0x4EB JUMPI PUSH0 DUP1 REVERT JUMPDEST POP PUSH2 0x212 PUSH2 0x4FA CALLDATASIZE PUSH1 0x4 PUSH2 0x181F JUMP JUMPDEST PUSH2 0x944 JUMP JUMPDEST CALLVALUE DUP1 ISZERO PUSH2 0x50A JUMPI PUSH0 DUP1 REVERT JUMPDEST POP PUSH2 0x212 PUSH2 0x519 CALLDATASIZE PUSH1 0x4 PUSH2 0x1858 JUMP JUMPDEST PUSH1 0x1 PUSH1 0x1 PUSH1 0xA0 SHL SUB SWAP2 DUP3 AND PUSH0 SWAP1 DUP2 MSTORE PUSH1 0x1 PUSH1 0x20 SWAP1 DUP2 MSTORE PUSH1 0x40 DUP1 DUP4 KECCAK256 SWAP4 SWAP1 SWAP5 AND DUP3 MSTORE SWAP2 SWAP1 SWAP2 MSTORE KECCAK256 SLOAD SWAP1 JUMP JUMPDEST CALLVALUE DUP1 ISZERO PUSH2 0x54E JUMPI PUSH0 DUP1 REVERT JUMPDEST POP PUSH2 0x212 PUSH2 0x55D CALLDATASIZE PUSH1 0x4 PUSH2 0x181F JUMP JUMPDEST PUSH2 0xBC0 JUMP JUMPDEST CALLVALUE DUP1 ISZERO PUSH2 0x56D JUMPI PUSH0 DUP1 REVERT JUMPDEST POP PUSH1 0xC SLOAD PUSH2 0x23F SWAP1 PUSH1 0xFF AND DUP2 JUMP JUMPDEST CALLVALUE DUP1 ISZERO PUSH2 0x586 JUMPI PUSH0 DUP1 REVERT JUMPDEST POP PUSH2 0x212 PUSH32 0x0 DUP2 JUMP JUMPDEST CALLVALUE DUP1 ISZERO PUSH2 0x5B9 JUMPI PUSH0 DUP1 REVERT JUMPDEST POP PUSH2 0x282 PUSH2 0x5C8 CALLDATASIZE PUSH1 0x4 PUSH2 0x1836 JUMP JUMPDEST PUSH2 0xD0E JUMP JUMPDEST CALLVALUE DUP1 ISZERO PUSH2 0x5D8 JUMPI PUSH0 DUP1 REVERT JUMPDEST POP PUSH2 0x3FE PUSH32 0x0 DUP2 JUMP JUMPDEST PUSH1 0x60 PUSH1 0x3 DUP1 SLOAD PUSH2 0x60F SWAP1 PUSH2 0x188F JUMP JUMPDEST DUP1 PUSH1 0x1F ADD PUSH1 0x20 DUP1 SWAP2 DIV MUL PUSH1 0x20 ADD PUSH1 0x40 MLOAD SWAP1 DUP2 ADD PUSH1 0x40 MSTORE DUP1 SWAP3 SWAP2 SWAP1 DUP2 DUP2 MSTORE PUSH1 0x20 ADD DUP3 DUP1 SLOAD PUSH2 0x63B SWAP1 PUSH2 0x188F JUMP JUMPDEST DUP1 ISZERO PUSH2 0x686 JUMPI DUP1 PUSH1 0x1F LT PUSH2 0x65D JUMPI PUSH2 0x100 DUP1 DUP4 SLOAD DIV MUL DUP4 MSTORE SWAP2 PUSH1 0x20 ADD SWAP2 PUSH2 0x686 JUMP JUMPDEST DUP3 ADD SWAP2 SWAP1 PUSH0 MSTORE PUSH1 0x20 PUSH0 KECCAK256 SWAP1 JUMPDEST DUP2 SLOAD DUP2 MSTORE SWAP1 PUSH1 0x1 ADD SWAP1 PUSH1 0x20 ADD DUP1 DUP4 GT PUSH2 0x669 JUMPI DUP3 SWAP1 SUB PUSH1 0x1F AND DUP3 ADD SWAP2 JUMPDEST POP POP POP POP POP SWAP1 POP SWAP1 JUMP JUMPDEST PUSH0 CALLER PUSH2 0x69D DUP2 DUP6 DUP6 PUSH2 0xD4B JUMP JUMPDEST PUSH1 0x1 SWAP2 POP POP JUMPDEST SWAP3 SWAP2 POP POP JUMP JUMPDEST PUSH2 0x6B1 PUSH2 0xD5D JUMP JUMPDEST PUSH1 0xC SLOAD PUSH1 0xFF AND PUSH2 0x6BF JUMPI PUSH0 DUP1 REVERT JUMPDEST PUSH1 0xA SLOAD DUP2 GT ISZERO PUSH2 0x6CD JUMPI PUSH0 DUP1 REVERT JUMPDEST DUP1 PUSH1 0xA PUSH0 DUP3 DUP3 SLOAD PUSH2 0x6DE SWAP2 SWAP1 PUSH2 0x18DB JUMP JUMPDEST SWAP1 SWAP2 SSTORE POP PUSH2 0x718 SWAP1 POP PUSH1 0x1 PUSH1 0x1 PUSH1 0xA0 SHL SUB PUSH32 0x0 AND DUP4 DUP4 PUSH2 0xD8A JUMP JUMPDEST POP POP JUMP JUMPDEST PUSH0 CALLER PUSH2 0x729 DUP6 DUP3 DUP6 PUSH2 0xDE9 JUMP JUMPDEST PUSH2 0x734 DUP6 DUP6 DUP6 PUSH2 0xE65 JUMP JUMPDEST POP PUSH1 0x1 SWAP5 SWAP4 POP POP POP POP JUMP JUMPDEST PUSH2 0x747 PUSH2 0xD5D JUMP JUMPDEST PUSH1 0xB SSTORE JUMP JUMPDEST PUSH2 0x754 PUSH2 0xD5D JUMP JUMPDEST PUSH2 0x75D PUSH0 PUSH2 0xEC2 JUMP JUMPDEST JUMP JUMPDEST PUSH2 0x767 PUSH2 0xD5D JUMP JUMPDEST PUSH1 0x40 MLOAD PUSH4 0x70A08231 PUSH1 0xE0 SHL DUP2 MSTORE ADDRESS PUSH1 0x4 DUP3 ADD MSTORE PUSH0 SWAP1 PUSH32 0x0 PUSH1 0x1 PUSH1 0x1 PUSH1 0xA0 SHL SUB AND SWAP1 PUSH4 0x70A08231 SWAP1 PUSH1 0x24 ADD PUSH1 0x20 PUSH1 0x40 MLOAD DUP1 DUP4 SUB DUP2 DUP7 GAS STATICCALL ISZERO DUP1 ISZERO PUSH2 0x7CB JUMPI RETURNDATASIZE PUSH0 DUP1 RETURNDATACOPY RETURNDATASIZE PUSH0 REVERT JUMPDEST POP POP POP POP PUSH1 0x40 MLOAD RETURNDATASIZE PUSH1 0x1F NOT PUSH1 0x1F DUP3 ADD AND DUP3 ADD DUP1 PUSH1 0x40 MSTORE POP DUP2 ADD SWAP1 PUSH2 0x7EF SWAP2 SWAP1 PUSH2 0x18EE JUMP JUMPDEST SWAP1 POP PUSH2 0x825 PUSH1 0x1 PUSH1 0x1 PUSH1 0xA0 SHL SUB PUSH32 0x0 AND DUP4 DUP4 PUSH2 0xD8A JUMP JUMPDEST PUSH1 0x40 MLOAD PUSH4 0x70A08231 PUSH1 0xE0 SHL DUP2 MSTORE ADDRESS PUSH1 0x4 DUP3 ADD MSTORE PUSH32 0x0 PUSH1 0x1 PUSH1 0x1 PUSH1 0xA0 SHL SUB AND SWAP1 PUSH4 0x70A08231 SWAP1 PUSH1 0x24 ADD PUSH1 0x20 PUSH1 0x40 MLOAD DUP1 DUP4 SUB DUP2 DUP7 GAS STATICCALL ISZERO DUP1 ISZERO PUSH2 0x887 JUMPI RETURNDATASIZE PUSH0 DUP1 RETURNDATACOPY RETURNDATASIZE PUSH0 REVERT JUMPDEST POP POP POP POP PUSH1 0x40 MLOAD RETURNDATASIZE PUSH1 0x1F NOT PUSH1 0x1F DUP3 ADD AND DUP3 ADD DUP1 PUSH1 0x40 MSTORE POP DUP2 ADD SWAP1 PUSH2 0x8AB SWAP2 SWAP1 PUSH2 0x18EE JUMP JUMPDEST PUSH1 0xA SSTORE POP POP JUMP JUMPDEST PUSH0 DUP1 PUSH1 0x7 SLOAD PUSH32 0x0 PUSH2 0x8E2 SWAP2 SWAP1 PUSH2 0x18DB JUMP JUMPDEST SWAP1 POP PUSH32 0x0 PUSH2 0x918 DUP3 PUSH9 0x56BC75E2D63100000 PUSH2 0x1905 JUMP JUMPDEST PUSH2 0x922 SWAP2 SWAP1 PUSH2 0x191C JUMP JUMPDEST SWAP2 POP POP SWAP1 JUMP JUMPDEST PUSH1 0x60 PUSH1 0x4 DUP1 SLOAD PUSH2 0x60F SWAP1 PUSH2 0x188F JUMP JUMPDEST PUSH0 CALLER PUSH2 0x69D DUP2 DUP6 DUP6 PUSH2 0xE65 JUMP JUMPDEST PUSH0 PUSH2 0x94D PUSH2 0xF13 JUMP JUMPDEST PUSH1 0xC SLOAD PUSH1 0xFF AND ISZERO PUSH2 0x991 JUMPI PUSH1 0x40 MLOAD PUSH3 0x461BCD PUSH1 0xE5 SHL DUP2 MSTORE PUSH1 0x20 PUSH1 0x4 DUP3 ADD MSTORE PUSH1 0x9 PUSH1 0x24 DUP3 ADD MSTORE PUSH9 0x19DC98591D585D1959 PUSH1 0xBA SHL PUSH1 0x44 DUP3 ADD MSTORE PUSH1 0x64 ADD JUMPDEST PUSH1 0x40 MLOAD DUP1 SWAP2 SUB SWAP1 REVERT JUMPDEST PUSH0 DUP3 GT PUSH2 0x9C9 JUMPI PUSH1 0x40 MLOAD PUSH3 0x461BCD PUSH1 0xE5 SHL DUP2 MSTORE PUSH1 0x4 ADD PUSH2 0x988 SWAP1 PUSH1 0x20 DUP1 DUP3 MSTORE PUSH1 0x4 SWAP1 DUP3 ADD MSTORE PUSH4 0x7A65726F PUSH1 0xE0 SHL PUSH1 0x40 DUP3 ADD MSTORE PUSH1 0x60 ADD SWAP1 JUMP JUMPDEST PUSH2 0x9FE PUSH1 0x1 PUSH1 0x1 PUSH1 0xA0 SHL SUB PUSH32 0x0 AND CALLER ADDRESS DUP6 PUSH2 0xF6C JUMP JUMPDEST PUSH1 0xC SLOAD DUP3 SWAP1 PUSH1 0xFF AND ISZERO DUP1 ISZERO PUSH2 0xA22 JUMPI POP PUSH1 0xB SLOAD DUP2 PUSH1 0xA SLOAD PUSH2 0xA1F SWAP2 SWAP1 PUSH2 0x193B JUMP JUMPDEST LT ISZERO JUMPDEST ISZERO PUSH2 0xA3A JUMPI PUSH1 0xA SLOAD PUSH1 0xB SLOAD PUSH2 0xA37 SWAP2 SWAP1 PUSH2 0x18DB JUMP JUMPDEST SWAP1 POP JUMPDEST DUP1 PUSH1 0xA PUSH0 DUP3 DUP3 SLOAD PUSH2 0xA4B SWAP2 SWAP1 PUSH2 0x193B JUMP JUMPDEST SWAP1 SWAP2 SSTORE POP POP PUSH1 0x8 SLOAD PUSH0 SWAP1 PUSH2 0xA60 SWAP1 DUP4 SWAP1 PUSH2 0x193B JUMP JUMPDEST SWAP1 POP PUSH0 PUSH2 0xA8D DUP3 PUSH32 0x0 PUSH2 0x191C JUMP JUMPDEST SWAP1 POP PUSH0 DUP2 PUSH1 0x7 SLOAD GT PUSH2 0xAA1 JUMPI PUSH1 0x7 SLOAD PUSH2 0xAAF JUMP JUMPDEST DUP2 PUSH1 0x7 SLOAD PUSH2 0xAAF SWAP2 SWAP1 PUSH2 0x18DB JUMP JUMPDEST PUSH1 0x9 SLOAD SWAP1 SWAP2 POP DUP2 SWAP1 DUP2 GT ISZERO PUSH2 0xAC3 JUMPI POP PUSH1 0x9 SLOAD JUMPDEST PUSH1 0x8 DUP5 SWAP1 SSTORE PUSH1 0x7 DUP4 SWAP1 SSTORE DUP1 ISZERO PUSH2 0xAF4 JUMPI DUP1 PUSH1 0x9 PUSH0 DUP3 DUP3 SLOAD PUSH2 0xAE4 SWAP2 SWAP1 PUSH2 0x18DB JUMP JUMPDEST SWAP1 SWAP2 SSTORE POP PUSH2 0xAF4 SWAP1 POP CALLER DUP3 PUSH2 0xFA5 JUMP JUMPDEST PUSH1 0x40 DUP1 MLOAD CALLER DUP2 MSTORE PUSH1 0x20 DUP2 ADD DUP8 SWAP1 MSTORE SWAP1 DUP2 ADD DUP3 SWAP1 MSTORE PUSH1 0x60 DUP2 ADD DUP4 SWAP1 MSTORE PUSH32 0xEDBA86FD2B22962D534E70AD9B0FF8730DE46F636146F2BAB6A72CBB1EBBCC53 SWAP1 PUSH1 0x80 ADD PUSH1 0x40 MLOAD DUP1 SWAP2 SUB SWAP1 LOG1 PUSH1 0xC SLOAD PUSH1 0xFF AND ISZERO DUP1 ISZERO PUSH2 0xB53 JUMPI POP PUSH1 0xB SLOAD PUSH1 0xA SLOAD LT ISZERO JUMPDEST ISZERO PUSH2 0xB60 JUMPI PUSH2 0xB60 PUSH2 0xFD9 JUMP JUMPDEST DUP5 DUP8 GT ISZERO PUSH2 0xBAB JUMPI PUSH0 PUSH2 0xB73 DUP7 DUP10 PUSH2 0x18DB JUMP JUMPDEST SWAP1 POP PUSH2 0xBA9 PUSH1 0x1 PUSH1 0x1 PUSH1 0xA0 SHL SUB PUSH32 0x0 AND CALLER DUP4 PUSH2 0xD8A JUMP JUMPDEST POP JUMPDEST SWAP5 POP POP POP POP POP PUSH2 0xBBB PUSH1 0x1 PUSH1 0x6 SSTORE JUMP JUMPDEST SWAP2 SWAP1 POP JUMP JUMPDEST PUSH0 PUSH2 0xBC9 PUSH2 0xF13 JUMP JUMPDEST PUSH1 0xC SLOAD PUSH1 0xFF AND ISZERO PUSH2 0xBD8 JUMPI PUSH0 DUP1 REVERT JUMPDEST PUSH0 DUP3 GT PUSH2 0xBE3 JUMPI PUSH0 DUP1 REVERT JUMPDEST PUSH0 PUSH2 0xBEF CALLER ADDRESS DUP6 PUSH2 0x143C JUMP JUMPDEST SWAP1 POP DUP1 PUSH2 0xBFA JUMPI PUSH0 DUP1 REVERT JUMPDEST PUSH2 0xC04 ADDRESS DUP5 PUSH2 0x14C0 JUMP JUMPDEST PUSH0 DUP4 PUSH1 0x7 SLOAD PUSH2 0xC13 SWAP2 SWAP1 PUSH2 0x193B JUMP JUMPDEST SWAP1 POP PUSH0 PUSH2 0xC40 DUP3 PUSH32 0x0 PUSH2 0x191C JUMP JUMPDEST SWAP1 POP PUSH0 DUP2 PUSH1 0x8 SLOAD PUSH2 0xC51 SWAP2 SWAP1 PUSH2 0x18DB JUMP JUMPDEST PUSH1 0x7 DUP5 SWAP1 SSTORE PUSH1 0x8 DUP4 SWAP1 SSTORE PUSH1 0xA SLOAD SWAP1 SWAP2 POP DUP2 GT ISZERO PUSH2 0xC6C JUMPI PUSH0 DUP1 REVERT JUMPDEST DUP1 PUSH1 0xA PUSH0 DUP3 DUP3 SLOAD PUSH2 0xC7D SWAP2 SWAP1 PUSH2 0x18DB JUMP JUMPDEST SWAP1 SWAP2 SSTORE POP PUSH2 0xCB7 SWAP1 POP PUSH1 0x1 PUSH1 0x1 PUSH1 0xA0 SHL SUB PUSH32 0x0 AND CALLER DUP4 PUSH2 0xD8A JUMP JUMPDEST PUSH1 0x40 DUP1 MLOAD CALLER DUP2 MSTORE PUSH1 0x20 DUP2 ADD DUP9 SWAP1 MSTORE SWAP1 DUP2 ADD DUP3 SWAP1 MSTORE PUSH1 0x60 DUP2 ADD DUP8 SWAP1 MSTORE PUSH32 0xE029F26DBCF8C42DD2F352C10214A7FC26773DC62482C6241334A0402AC09A80 SWAP1 PUSH1 0x80 ADD PUSH1 0x40 MLOAD DUP1 SWAP2 SUB SWAP1 LOG1 SWAP4 POP POP POP POP PUSH2 0xBBB PUSH1 0x1 PUSH1 0x6 SSTORE JUMP JUMPDEST PUSH2 0xD16 PUSH2 0xD5D JUMP JUMPDEST PUSH1 0x1 PUSH1 0x1 PUSH1 0xA0 SHL SUB DUP2 AND PUSH2 0xD3F JUMPI PUSH1 0x40 MLOAD PUSH4 0x1E4FBDF7 PUSH1 0xE0 SHL DUP2 MSTORE PUSH0 PUSH1 0x4 DUP3 ADD MSTORE PUSH1 0x24 ADD PUSH2 0x988 JUMP JUMPDEST PUSH2 0xD48 DUP2 PUSH2 0xEC2 JUMP JUMPDEST POP JUMP JUMPDEST PUSH2 0xD58 DUP4 DUP4 DUP4 PUSH1 0x1 PUSH2 0x14F4 JUMP JUMPDEST POP POP POP JUMP JUMPDEST PUSH1 0x5 SLOAD PUSH1 0x1 PUSH1 0x1 PUSH1 0xA0 SHL SUB AND CALLER EQ PUSH2 0x75D JUMPI PUSH1 0x40 MLOAD PUSH4 0x118CDAA7 PUSH1 0xE0 SHL DUP2 MSTORE CALLER PUSH1 0x4 DUP3 ADD MSTORE PUSH1 0x24 ADD PUSH2 0x988 JUMP JUMPDEST PUSH1 0x40 MLOAD PUSH1 0x1 PUSH1 0x1 PUSH1 0xA0 SHL SUB DUP4 DUP2 AND PUSH1 0x24 DUP4 ADD MSTORE PUSH1 0x44 DUP3 ADD DUP4 SWAP1 MSTORE PUSH2 0xD58 SWAP2 DUP6 SWAP2 DUP3 AND SWAP1 PUSH4 0xA9059CBB SWAP1 PUSH1 0x64 ADD JUMPDEST PUSH1 0x40 MLOAD PUSH1 0x20 DUP2 DUP4 SUB SUB DUP2 MSTORE SWAP1 PUSH1 0x40 MSTORE SWAP2 POP PUSH1 0xE0 SHL PUSH1 0x20 DUP3 ADD DUP1 MLOAD PUSH1 0x1 PUSH1 0x1 PUSH1 0xE0 SHL SUB DUP4 DUP2 DUP4 AND OR DUP4 MSTORE POP POP POP POP PUSH2 0x15C6 JUMP JUMPDEST PUSH1 0x1 PUSH1 0x1 PUSH1 0xA0 SHL SUB DUP4 DUP2 AND PUSH0 SWAP1 DUP2 MSTORE PUSH1 0x1 PUSH1 0x20 SWAP1 DUP2 MSTORE PUSH1 0x40 DUP1 DUP4 KECCAK256 SWAP4 DUP7 AND DUP4 MSTORE SWAP3 SWAP1 MSTORE KECCAK256 SLOAD PUSH0 NOT DUP2 LT ISZERO PUSH2 0xE5F JUMPI DUP2 DUP2 LT ISZERO PUSH2 0xE51 JUMPI PUSH1 0x40 MLOAD PUSH4 0x7DC7A0D9 PUSH1 0xE1 SHL DUP2 MSTORE PUSH1 0x1 PUSH1 0x1 PUSH1 0xA0 SHL SUB DUP5 AND PUSH1 0x4 DUP3 ADD MSTORE PUSH1 0x24 DUP2 ADD DUP3 SWAP1 MSTORE PUSH1 0x44 DUP2 ADD DUP4 SWAP1 MSTORE PUSH1 0x64 ADD PUSH2 0x988 JUMP JUMPDEST PUSH2 0xE5F DUP5 DUP5 DUP5 DUP5 SUB PUSH0 PUSH2 0x14F4 JUMP JUMPDEST POP POP POP POP JUMP JUMPDEST PUSH1 0x1 PUSH1 0x1 PUSH1 0xA0 SHL SUB DUP4 AND PUSH2 0xE8E JUMPI PUSH1 0x40 MLOAD PUSH4 0x4B637E8F PUSH1 0xE1 SHL DUP2 MSTORE PUSH0 PUSH1 0x4 DUP3 ADD MSTORE PUSH1 0x24 ADD PUSH2 0x988 JUMP JUMPDEST PUSH1 0x1 PUSH1 0x1 PUSH1 0xA0 SHL SUB DUP3 AND PUSH2 0xEB7 JUMPI PUSH1 0x40 MLOAD PUSH4 0xEC442F05 PUSH1 0xE0 SHL DUP2 MSTORE PUSH0 PUSH1 0x4 DUP3 ADD MSTORE PUSH1 0x24 ADD PUSH2 0x988 JUMP JUMPDEST PUSH2 0xD58 DUP4 DUP4 DUP4 PUSH2 0x1632 JUMP JUMPDEST PUSH1 0x5 DUP1 SLOAD PUSH1 0x1 PUSH1 0x1 PUSH1 0xA0 SHL SUB DUP4 DUP2 AND PUSH1 0x1 PUSH1 0x1 PUSH1 0xA0 SHL SUB NOT DUP4 AND DUP2 OR SWAP1 SWAP4 SSTORE PUSH1 0x40 MLOAD SWAP2 AND SWAP2 SWAP1 DUP3 SWAP1 PUSH32 0x8BE0079C531659141344CD1FD0A4F28419497F9722A3DAAFE3B4186F6B6457E0 SWAP1 PUSH0 SWAP1 LOG3 POP POP JUMP JUMPDEST PUSH1 0x2 PUSH1 0x6 SLOAD SUB PUSH2 0xF65 JUMPI PUSH1 0x40 MLOAD PUSH3 0x461BCD PUSH1 0xE5 SHL DUP2 MSTORE PUSH1 0x20 PUSH1 0x4 DUP3 ADD MSTORE PUSH1 0x1F PUSH1 0x24 DUP3 ADD MSTORE PUSH32 0x5265656E7472616E637947756172643A207265656E7472616E742063616C6C00 PUSH1 0x44 DUP3 ADD MSTORE PUSH1 0x64 ADD PUSH2 0x988 JUMP JUMPDEST PUSH1 0x2 PUSH1 0x6 SSTORE JUMP JUMPDEST PUSH1 0x40 MLOAD PUSH1 0x1 PUSH1 0x1 PUSH1 0xA0 SHL SUB DUP5 DUP2 AND PUSH1 0x24 DUP4 ADD MSTORE DUP4 DUP2 AND PUSH1 0x44 DUP4 ADD MSTORE PUSH1 0x64 DUP3 ADD DUP4 SWAP1 MSTORE PUSH2 0xE5F SWAP2 DUP7 SWAP2 DUP3 AND SWAP1 PUSH4 0x23B872DD SWAP1 PUSH1 0x84 ADD PUSH2 0xDB7 JUMP JUMPDEST PUSH1 0x1 PUSH1 0x1 PUSH1 0xA0 SHL SUB DUP3 AND PUSH2 0xFCE JUMPI PUSH1 0x40 MLOAD PUSH4 0xEC442F05 PUSH1 0xE0 SHL DUP2 MSTORE PUSH0 PUSH1 0x4 DUP3 ADD MSTORE PUSH1 0x24 ADD PUSH2 0x988 JUMP JUMPDEST PUSH2 0x718 PUSH0 DUP4 DUP4 PUSH2 0x1632 JUMP JUMPDEST PUSH1 0xC SLOAD PUSH1 0xFF AND ISZERO PUSH2 0xFE8 JUMPI PUSH0 DUP1 REVERT JUMPDEST PUSH1 0x40 MLOAD PUSH4 0xE6A43905 PUSH1 0xE0 SHL DUP2 MSTORE ADDRESS PUSH1 0x4 DUP3 ADD MSTORE PUSH1 0x1 PUSH1 0x1 PUSH1 0xA0 SHL SUB PUSH32 0x0 DUP2 AND PUSH1 0x24 DUP4 ADD MSTORE PUSH0 SWAP2 PUSH32 0x0 SWAP1 SWAP2 AND SWAP1 PUSH4 0xE6A43905 SWAP1 PUSH1 0x44 ADD PUSH1 0x20 PUSH1 0x40 MLOAD DUP1 DUP4 SUB DUP2 DUP7 GAS STATICCALL ISZERO DUP1 ISZERO PUSH2 0x1076 JUMPI RETURNDATASIZE PUSH0 DUP1 RETURNDATACOPY RETURNDATASIZE PUSH0 REVERT JUMPDEST POP POP POP POP PUSH1 0x40 MLOAD RETURNDATASIZE PUSH1 0x1F NOT PUSH1 0x1F DUP3 ADD AND DUP3 ADD DUP1 PUSH1 0x40 MSTORE POP DUP2 ADD SWAP1 PUSH2 0x109A SWAP2 SWAP1 PUSH2 0x194E JUMP JUMPDEST SWAP1 POP PUSH1 0x1 PUSH1 0x1 PUSH1 0xA0 SHL SUB DUP2 AND PUSH2 0x115C JUMPI PUSH1 0x40 MLOAD PUSH4 0x64E329CB PUSH1 0xE1 SHL DUP2 MSTORE ADDRESS PUSH1 0x4 DUP3 ADD MSTORE PUSH1 0x1 PUSH1 0x1 PUSH1 0xA0 SHL SUB PUSH32 0x0 DUP2 AND PUSH1 0x24 DUP4 ADD MSTORE PUSH32 0x0 AND SWAP1 PUSH4 0xC9C65396 SWAP1 PUSH1 0x44 ADD PUSH1 0x20 PUSH1 0x40 MLOAD DUP1 DUP4 SUB DUP2 PUSH0 DUP8 GAS CALL ISZERO DUP1 ISZERO PUSH2 0x1135 JUMPI RETURNDATASIZE PUSH0 DUP1 RETURNDATACOPY RETURNDATASIZE PUSH0 REVERT JUMPDEST POP POP POP POP PUSH1 0x40 MLOAD RETURNDATASIZE PUSH1 0x1F NOT PUSH1 0x1F DUP3 ADD AND DUP3 ADD DUP1 PUSH1 0x40 MSTORE POP DUP2 ADD SWAP1 PUSH2 0x1159 SWAP2 SWAP1 PUSH2 0x194E JUMP JUMPDEST SWAP1 POP JUMPDEST PUSH1 0xA SLOAD DUP1 PUSH2 0x1168 JUMPI PUSH0 DUP1 REVERT JUMPDEST PUSH0 PUSH1 0x8 SLOAD PUSH1 0x7 SLOAD DUP4 PUSH2 0x117A SWAP2 SWAP1 PUSH2 0x1905 JUMP JUMPDEST PUSH2 0x1184 SWAP2 SWAP1 PUSH2 0x191C JUMP JUMPDEST SWAP1 POP PUSH1 0x9 SLOAD DUP2 GT ISZERO PUSH2 0x1195 JUMPI POP PUSH1 0x9 SLOAD JUMPDEST PUSH0 DUP2 GT PUSH2 0x11A0 JUMPI PUSH0 DUP1 REVERT JUMPDEST DUP1 PUSH1 0x9 PUSH0 DUP3 DUP3 SLOAD PUSH2 0x11B1 SWAP2 SWAP1 PUSH2 0x18DB JUMP JUMPDEST SWAP1 SWAP2 SSTORE POP PUSH2 0x11C1 SWAP1 POP ADDRESS DUP3 PUSH2 0xFA5 JUMP JUMPDEST PUSH2 0x11EC ADDRESS PUSH32 0x0 DUP4 PUSH2 0xD4B JUMP JUMPDEST PUSH1 0x40 MLOAD PUSH4 0x95EA7B3 PUSH1 0xE0 SHL DUP2 MSTORE PUSH1 0x1 PUSH1 0x1 PUSH1 0xA0 SHL SUB PUSH32 0x0 DUP2 AND PUSH1 0x4 DUP4 ADD MSTORE PUSH1 0x24 DUP3 ADD DUP5 SWAP1 MSTORE PUSH32 0x0 AND SWAP1 PUSH4 0x95EA7B3 SWAP1 PUSH1 0x44 ADD PUSH1 0x20 PUSH1 0x40 MLOAD DUP1 DUP4 SUB DUP2 PUSH0 DUP8 GAS CALL ISZERO DUP1 ISZERO PUSH2 0x1278 JUMPI RETURNDATASIZE PUSH0 DUP1 RETURNDATACOPY RETURNDATASIZE PUSH0 REVERT JUMPDEST POP POP POP POP PUSH1 0x40 MLOAD RETURNDATASIZE PUSH1 0x1F NOT PUSH1 0x1F DUP3 ADD AND DUP3 ADD DUP1 PUSH1 0x40 MSTORE POP DUP2 ADD SWAP1 PUSH2 0x129C SWAP2 SWAP1 PUSH2 0x1969 JUMP JUMPDEST POP PUSH0 DUP1 PUSH32 0x0 PUSH1 0x1 PUSH1 0x1 PUSH1 0xA0 SHL SUB AND PUSH4 0xE8E33700 ADDRESS PUSH32 0x0 DUP7 DUP9 PUSH0 DUP1 PUSH2 0x1306 PUSH1 0x5 SLOAD PUSH1 0x1 PUSH1 0x1 PUSH1 0xA0 SHL SUB AND SWAP1 JUMP JUMPDEST PUSH2 0x1312 TIMESTAMP PUSH2 0x708 PUSH2 0x193B JUMP JUMPDEST PUSH1 0x40 MLOAD PUSH1 0xE0 DUP11 SWAP1 SHL PUSH1 0x1 PUSH1 0x1 PUSH1 0xE0 SHL SUB NOT AND DUP2 MSTORE PUSH1 0x1 PUSH1 0x1 PUSH1 0xA0 SHL SUB SWAP9 DUP10 AND PUSH1 0x4 DUP3 ADD MSTORE SWAP7 DUP9 AND PUSH1 0x24 DUP9 ADD MSTORE PUSH1 0x44 DUP8 ADD SWAP6 SWAP1 SWAP6 MSTORE PUSH1 0x64 DUP7 ADD SWAP4 SWAP1 SWAP4 MSTORE PUSH1 0x84 DUP6 ADD SWAP2 SWAP1 SWAP2 MSTORE PUSH1 0xA4 DUP5 ADD MSTORE SWAP1 SWAP3 AND PUSH1 0xC4 DUP3 ADD MSTORE PUSH1 0xE4 DUP2 ADD SWAP2 SWAP1 SWAP2 MSTORE PUSH2 0x104 ADD PUSH1 0x60 PUSH1 0x40 MLOAD DUP1 DUP4 SUB DUP2 PUSH0 DUP8 GAS CALL ISZERO DUP1 ISZERO PUSH2 0x138B JUMPI RETURNDATASIZE PUSH0 DUP1 RETURNDATACOPY RETURNDATASIZE PUSH0 REVERT JUMPDEST POP POP POP POP PUSH1 0x40 MLOAD RETURNDATASIZE PUSH1 0x1F NOT PUSH1 0x1F DUP3 ADD AND DUP3 ADD DUP1 PUSH1 0x40 MSTORE POP DUP2 ADD SWAP1 PUSH2 0x13AF SWAP2 SWAP1 PUSH2 0x1988 JUMP JUMPDEST POP SWAP2 POP SWAP2 POP PUSH1 0xA SLOAD DUP2 GT PUSH2 0x13D9 JUMPI DUP1 PUSH1 0xA PUSH0 DUP3 DUP3 SLOAD PUSH2 0x13CE SWAP2 SWAP1 PUSH2 0x18DB JUMP JUMPDEST SWAP1 SWAP2 SSTORE POP PUSH2 0x13DE SWAP1 POP JUMP JUMPDEST PUSH0 PUSH1 0xA SSTORE JUMPDEST PUSH1 0xC DUP1 SLOAD PUSH1 0xFF NOT AND PUSH1 0x1 OR SWAP1 SSTORE PUSH1 0x40 DUP1 MLOAD PUSH1 0x1 PUSH1 0x1 PUSH1 0xA0 SHL SUB DUP8 AND DUP2 MSTORE PUSH1 0x20 DUP2 ADD DUP5 SWAP1 MSTORE SWAP1 DUP2 ADD DUP3 SWAP1 MSTORE PUSH32 0x1C858049E704460AB9455025BE4078F9E746E3FD426A56040D06389EDB8197DB SWAP1 PUSH1 0x60 ADD PUSH1 0x40 MLOAD DUP1 SWAP2 SUB SWAP1 LOG1 POP POP POP POP POP JUMP JUMPDEST PUSH1 0x40 MLOAD PUSH4 0x23B872DD PUSH1 0xE0 SHL DUP2 MSTORE PUSH1 0x1 PUSH1 0x1 PUSH1 0xA0 SHL SUB DUP1 DUP6 AND PUSH1 0x4 DUP4 ADD MSTORE DUP4 AND PUSH1 0x24 DUP3 ADD MSTORE PUSH1 0x44 DUP2 ADD DUP3 SWAP1 MSTORE PUSH0 SWAP1 DUP2 SWAP1 ADDRESS SWAP1 PUSH4 0x23B872DD SWAP1 PUSH1 0x64 ADD PUSH1 0x20 PUSH1 0x40 MLOAD DUP1 DUP4 SUB DUP2 PUSH0 DUP8 GAS CALL SWAP3 POP POP POP DUP1 ISZERO PUSH2 0x14B0 JUMPI POP PUSH1 0x40 DUP1 MLOAD PUSH1 0x1F RETURNDATASIZE SWAP1 DUP2 ADD PUSH1 0x1F NOT AND DUP3 ADD SWAP1 SWAP3 MSTORE PUSH2 0x14AD SWAP2 DUP2 ADD SWAP1 PUSH2 0x1969 JUMP JUMPDEST PUSH1 0x1 JUMPDEST ISZERO PUSH2 0x14B8 JUMPI SWAP1 POP JUMPDEST SWAP5 SWAP4 POP POP POP POP JUMP JUMPDEST PUSH1 0x1 PUSH1 0x1 PUSH1 0xA0 SHL SUB DUP3 AND PUSH2 0x14E9 JUMPI PUSH1 0x40 MLOAD PUSH4 0x4B637E8F PUSH1 0xE1 SHL DUP2 MSTORE PUSH0 PUSH1 0x4 DUP3 ADD MSTORE PUSH1 0x24 ADD PUSH2 0x988 JUMP JUMPDEST PUSH2 0x718 DUP3 PUSH0 DUP4 PUSH2 0x1632 JUMP JUMPDEST PUSH1 0x1 PUSH1 0x1 PUSH1 0xA0 SHL SUB DUP5 AND PUSH2 0x151D JUMPI PUSH1 0x40 MLOAD PUSH4 0xE602DF05 PUSH1 0xE0 SHL DUP2 MSTORE PUSH0 PUSH1 0x4 DUP3 ADD MSTORE PUSH1 0x24 ADD PUSH2 0x988 JUMP JUMPDEST PUSH1 0x1 PUSH1 0x1 PUSH1 0xA0 SHL SUB DUP4 AND PUSH2 0x1546 JUMPI PUSH1 0x40 MLOAD PUSH4 0x4A1406B1 PUSH1 0xE1 SHL DUP2 MSTORE PUSH0 PUSH1 0x4 DUP3 ADD MSTORE PUSH1 0x24 ADD PUSH2 0x988 JUMP JUMPDEST PUSH1 0x1 PUSH1 0x1 PUSH1 0xA0 SHL SUB DUP1 DUP6 AND PUSH0 SWAP1 DUP2 MSTORE PUSH1 0x1 PUSH1 0x20 SWAP1 DUP2 MSTORE PUSH1 0x40 DUP1 DUP4 KECCAK256 SWAP4 DUP8 AND DUP4 MSTORE SWAP3 SWAP1 MSTORE KECCAK256 DUP3 SWAP1 SSTORE DUP1 ISZERO PUSH2 0xE5F JUMPI DUP3 PUSH1 0x1 PUSH1 0x1 PUSH1 0xA0 SHL SUB AND DUP5 PUSH1 0x1 PUSH1 0x1 PUSH1 0xA0 SHL SUB AND PUSH32 0x8C5BE1E5EBEC7D5BD14F71427D1E84F3DD0314C0F7B2291E5B200AC8C7C3B925 DUP5 PUSH1 0x40 MLOAD PUSH2 0x15B8 SWAP2 DUP2 MSTORE PUSH1 0x20 ADD SWAP1 JUMP JUMPDEST PUSH1 0x40 MLOAD DUP1 SWAP2 SUB SWAP1 LOG3 POP POP POP POP JUMP JUMPDEST PUSH0 DUP1 PUSH1 0x20 PUSH0 DUP5 MLOAD PUSH1 0x20 DUP7 ADD PUSH0 DUP9 GAS CALL DUP1 PUSH2 0x15E5 JUMPI PUSH1 0x40 MLOAD RETURNDATASIZE PUSH0 DUP3 RETURNDATACOPY RETURNDATASIZE DUP2 REVERT JUMPDEST POP POP PUSH0 MLOAD RETURNDATASIZE SWAP2 POP DUP2 ISZERO PUSH2 0x15FC JUMPI DUP1 PUSH1 0x1 EQ ISZERO PUSH2 0x1609 JUMP JUMPDEST PUSH1 0x1 PUSH1 0x1 PUSH1 0xA0 SHL SUB DUP5 AND EXTCODESIZE ISZERO JUMPDEST ISZERO PUSH2 0xE5F JUMPI PUSH1 0x40 MLOAD PUSH4 0x5274AFE7 PUSH1 0xE0 SHL DUP2 MSTORE PUSH1 0x1 PUSH1 0x1 PUSH1 0xA0 SHL SUB DUP6 AND PUSH1 0x4 DUP3 ADD MSTORE PUSH1 0x24 ADD PUSH2 0x988 JUMP JUMPDEST PUSH1 0x1 PUSH1 0x1 PUSH1 0xA0 SHL SUB DUP4 AND PUSH2 0x165C JUMPI DUP1 PUSH1 0x2 PUSH0 DUP3 DUP3 SLOAD PUSH2 0x1651 SWAP2 SWAP1 PUSH2 0x193B JUMP JUMPDEST SWAP1 SWAP2 SSTORE POP PUSH2 0x16CC SWAP1 POP JUMP JUMPDEST PUSH1 0x1 PUSH1 0x1 PUSH1 0xA0 SHL SUB DUP4 AND PUSH0 SWAP1 DUP2 MSTORE PUSH1 0x20 DUP2 SWAP1 MSTORE PUSH1 0x40 SWAP1 KECCAK256 SLOAD DUP2 DUP2 LT ISZERO PUSH2 0x16AE JUMPI PUSH1 0x40 MLOAD PUSH4 0x391434E3 PUSH1 0xE2 SHL DUP2 MSTORE PUSH1 0x1 PUSH1 0x1 PUSH1 0xA0 SHL SUB DUP6 AND PUSH1 0x4 DUP3 ADD MSTORE PUSH1 0x24 DUP2 ADD DUP3 SWAP1 MSTORE PUSH1 0x44 DUP2 ADD DUP4 SWAP1 MSTORE PUSH1 0x64 ADD PUSH2 0x988 JUMP JUMPDEST PUSH1 0x1 PUSH1 0x1 PUSH1 0xA0 SHL SUB DUP5 AND PUSH0 SWAP1 DUP2 MSTORE PUSH1 0x20 DUP2 SWAP1 MSTORE PUSH1 0x40 SWAP1 KECCAK256 SWAP1 DUP3 SWAP1 SUB SWAP1 SSTORE JUMPDEST PUSH1 0x1 PUSH1 0x1 PUSH1 0xA0 SHL SUB DUP3 AND PUSH2 0x16E8 JUMPI PUSH1 0x2 DUP1 SLOAD DUP3 SWAP1 SUB SWAP1 SSTORE PUSH2 0x1706 JUMP JUMPDEST PUSH1 0x1 PUSH1 0x1 PUSH1 0xA0 SHL SUB DUP3 AND PUSH0 SWAP1 DUP2 MSTORE PUSH1 0x20 DUP2 SWAP1 MSTORE PUSH1 0x40 SWAP1 KECCAK256 DUP1 SLOAD DUP3 ADD SWAP1 SSTORE JUMPDEST DUP2 PUSH1 0x1 PUSH1 0x1 PUSH1 0xA0 SHL SUB AND DUP4 PUSH1 0x1 PUSH1 0x1 PUSH1 0xA0 SHL SUB AND PUSH32 0xDDF252AD1BE2C89B69C2B068FC378DAA952BA7F163C4A11628F55A4DF523B3EF DUP4 PUSH1 0x40 MLOAD PUSH2 0x174B SWAP2 DUP2 MSTORE PUSH1 0x20 ADD SWAP1 JUMP JUMPDEST PUSH1 0x40 MLOAD DUP1 SWAP2 SUB SWAP1 LOG3 POP POP POP JUMP JUMPDEST PUSH0 PUSH1 0x20 DUP1 DUP4 MSTORE DUP4 MLOAD DUP1 DUP3 DUP6 ADD MSTORE PUSH0 JUMPDEST DUP2 DUP2 LT ISZERO PUSH2 0x1783 JUMPI DUP6 DUP2 ADD DUP4 ADD MLOAD DUP6 DUP3 ADD PUSH1 0x40 ADD MSTORE DUP3 ADD PUSH2 0x1767 JUMP JUMPDEST POP PUSH0 PUSH1 0x40 DUP3 DUP7 ADD ADD MSTORE PUSH1 0x40 PUSH1 0x1F NOT PUSH1 0x1F DUP4 ADD AND DUP6 ADD ADD SWAP3 POP POP POP SWAP3 SWAP2 POP POP JUMP JUMPDEST PUSH1 0x1 PUSH1 0x1 PUSH1 0xA0 SHL SUB DUP2 AND DUP2 EQ PUSH2 0xD48 JUMPI PUSH0 DUP1 REVERT JUMPDEST PUSH0 DUP1 PUSH1 0x40 DUP4 DUP6 SUB SLT ISZERO PUSH2 0x17C8 JUMPI PUSH0 DUP1 REVERT JUMPDEST DUP3 CALLDATALOAD PUSH2 0x17D3 DUP2 PUSH2 0x17A3 JUMP JUMPDEST SWAP5 PUSH1 0x20 SWAP4 SWAP1 SWAP4 ADD CALLDATALOAD SWAP4 POP POP POP JUMP JUMPDEST PUSH0 DUP1 PUSH0 PUSH1 0x60 DUP5 DUP7 SUB SLT ISZERO PUSH2 0x17F3 JUMPI PUSH0 DUP1 REVERT JUMPDEST DUP4 CALLDATALOAD PUSH2 0x17FE DUP2 PUSH2 0x17A3 JUMP JUMPDEST SWAP3 POP PUSH1 0x20 DUP5 ADD CALLDATALOAD PUSH2 0x180E DUP2 PUSH2 0x17A3 JUMP JUMPDEST SWAP3 SWAP6 SWAP3 SWAP5 POP POP POP PUSH1 0x40 SWAP2 SWAP1 SWAP2 ADD CALLDATALOAD SWAP1 JUMP JUMPDEST PUSH0 PUSH1 0x20 DUP3 DUP5 SUB SLT ISZERO PUSH2 0x182F JUMPI PUSH0 DUP1 REVERT JUMPDEST POP CALLDATALOAD SWAP2 SWAP1 POP JUMP JUMPDEST PUSH0 PUSH1 0x20 DUP3 DUP5 SUB SLT ISZERO PUSH2 0x1846 JUMPI PUSH0 DUP1 REVERT JUMPDEST DUP2 CALLDATALOAD PUSH2 0x1851 DUP2 PUSH2 0x17A3 JUMP JUMPDEST SWAP4 SWAP3 POP POP POP JUMP JUMPDEST PUSH0 DUP1 PUSH1 0x40 DUP4 DUP6 SUB SLT ISZERO PUSH2 0x1869 JUMPI PUSH0 DUP1 REVERT JUMPDEST DUP3 CALLDATALOAD PUSH2 0x1874 DUP2 PUSH2 0x17A3 JUMP JUMPDEST SWAP2 POP PUSH1 0x20 DUP4 ADD CALLDATALOAD PUSH2 0x1884 DUP2 PUSH2 0x17A3 JUMP JUMPDEST DUP1 SWAP2 POP POP SWAP3 POP SWAP3 SWAP1 POP JUMP JUMPDEST PUSH1 0x1 DUP2 DUP2 SHR SWAP1 DUP3 AND DUP1 PUSH2 0x18A3 JUMPI PUSH1 0x7F DUP3 AND SWAP2 POP JUMPDEST PUSH1 0x20 DUP3 LT DUP2 SUB PUSH2 0x18C1 JUMPI PUSH4 0x4E487B71 PUSH1 0xE0 SHL PUSH0 MSTORE PUSH1 0x22 PUSH1 0x4 MSTORE PUSH1 0x24 PUSH0 REVERT JUMPDEST POP SWAP2 SWAP1 POP JUMP JUMPDEST PUSH4 0x4E487B71 PUSH1 0xE0 SHL PUSH0 MSTORE PUSH1 0x11 PUSH1 0x4 MSTORE PUSH1 0x24 PUSH0 REVERT JUMPDEST DUP2 DUP2 SUB DUP2 DUP2 GT ISZERO PUSH2 0x6A3 JUMPI PUSH2 0x6A3 PUSH2 0x18C7 JUMP JUMPDEST PUSH0 PUSH1 0x20 DUP3 DUP5 SUB SLT ISZERO PUSH2 0x18FE JUMPI PUSH0 DUP1 REVERT JUMPDEST POP MLOAD SWAP2 SWAP1 POP JUMP JUMPDEST DUP1 DUP3 MUL DUP2 ISZERO DUP3 DUP3 DIV DUP5 EQ OR PUSH2 0x6A3 JUMPI PUSH2 0x6A3 PUSH2 0x18C7 JUMP JUMPDEST PUSH0 DUP3 PUSH2 0x1936 JUMPI PUSH4 0x4E487B71 PUSH1 0xE0 SHL PUSH0 MSTORE PUSH1 0x12 PUSH1 0x4 MSTORE PUSH1 0x24 PUSH0 REVERT JUMPDEST POP DIV SWAP1 JUMP JUMPDEST DUP1 DUP3 ADD DUP1 DUP3 GT ISZERO PUSH2 0x6A3 JUMPI PUSH2 0x6A3 PUSH2 0x18C7 JUMP JUMPDEST PUSH0 PUSH1 0x20 DUP3 DUP5 SUB SLT ISZERO PUSH2 0x195E JUMPI PUSH0 DUP1 REVERT JUMPDEST DUP2 MLOAD PUSH2 0x1851 DUP2 PUSH2 0x17A3 JUMP JUMPDEST PUSH0 PUSH1 0x20 DUP3 DUP5 SUB SLT ISZERO PUSH2 0x1979 JUMPI PUSH0 DUP1 REVERT JUMPDEST DUP2 MLOAD DUP1 ISZERO ISZERO DUP2 EQ PUSH2 0x1851 JUMPI PUSH0 DUP1 REVERT JUMPDEST PUSH0 DUP1 PUSH0 PUSH1 0x60 DUP5 DUP7 SUB SLT ISZERO PUSH2 0x199A JUMPI PUSH0 DUP1 REVERT JUMPDEST DUP4 MLOAD SWAP3 POP PUSH1 0x20 DUP5 ADD MLOAD SWAP2 POP PUSH1 0x40 DUP5 ADD MLOAD SWAP1 POP SWAP3 POP SWAP3 POP SWAP3 JUMP INVALID LOG2 PUSH5 0x6970667358 0x22 SLT KECCAK256 0x22 0xC5 PUSH0 KECCAK256 CHAINID 0x5E 0xCB 0xC0 0xD3 0xB1 DUP13 0xC6 DUP11 0xF8 0x5D 0xA8 0x1E PUSH20 0x597E17AA83CABAB940F9168142D764736F6C6343 STOP ADDMOD EQ STOP CALLER LOG2 PUSH5 0x6970667358 0x22 SLT KECCAK256 PUSH5 0x327D270A05 0x2E SGT 0x4C SLT PUSH8 0x10A6ABCCA5950547 PUSH3 0xCF433C NUMBER 0x1F LOG3 0xC0 0xDF CALLDATASIZE 0xB4 MOD JUMP PUSH5 0x736F6C6343 STOP ADDMOD EQ STOP CALLER "
		},
		"gasEstimates": {
			"creation": {
				"codeDepositCost": "1851200",
				"executionCost": "27815",
				"totalCost": "1879015"
			},
			"external": {
				"createToken(string,string,address,uint256,uint256,uint256,uint256,address,address)": "infinite",
				"owner()": "2339",
				"renounceOwnership()": "infinite",
				"transferOwnership(address)": "28373"
			}
		},
		"methodIdentifiers": {
			"createToken(string,string,address,uint256,uint256,uint256,uint256,address,address)": "7aa088ee",
			"owner()": "8da5cb5b",
			"renounceOwnership()": "715018a6",
			"transferOwnership(address)": "f2fde38b"
		}
	},
	"abi": [
		{
			"inputs": [
				{
					"internalType": "address",
					"name": "owner",
					"type": "address"
				}
			],
			"name": "OwnableInvalidOwner",
			"type": "error"
		},
		{
			"inputs": [
				{
					"internalType": "address",
					"name": "account",
					"type": "address"
				}
			],
			"name": "OwnableUnauthorizedAccount",
			"type": "error"
		},
		{
			"anonymous": false,
			"inputs": [
				{
					"indexed": true,
					"internalType": "address",
					"name": "previousOwner",
					"type": "address"
				},
				{
					"indexed": true,
					"internalType": "address",
					"name": "newOwner",
					"type": "address"
				}
			],
			"name": "OwnershipTransferred",
			"type": "event"
		},
		{
			"anonymous": false,
			"inputs": [
				{
					"indexed": false,
					"internalType": "address",
					"name": "token",
					"type": "address"
				}
			],
			"name": "TokenCreated",
			"type": "event"
		},
		{
			"inputs": [
				{
					"internalType": "string",
					"name": "name_",
					"type": "string"
				},
				{
					"internalType": "string",
					"name": "symbol_",
					"type": "string"
				},
				{
					"internalType": "address",
					"name": "reserveToken_",
					"type": "address"
				},
				{
					"internalType": "uint256",
					"name": "initialVirtualTokenReserve_",
					"type": "uint256"
				},
				{
					"internalType": "uint256",
					"name": "initialVirtualReserveAsset_",
					"type": "uint256"
				},
				{
					"internalType": "uint256",
					"name": "realTokenReservesStart_",
					"type": "uint256"
				},
				{
					"internalType": "uint256",
					"name": "graduationReserveThreshold_",
					"type": "uint256"
				},
				{
					"internalType": "address",
					"name": "yunaswapRouter_",
					"type": "address"
				},
				{
					"internalType": "address",
					"name": "yunaswapFactory_",
					"type": "address"
				}
			],
			"name": "createToken",
			"outputs": [
				{
					"internalType": "address",
					"name": "",
					"type": "address"
				}
			],
			"stateMutability": "nonpayable",
			"type": "function"
		},
		{
			"inputs": [],
			"name": "owner",
			"outputs": [
				{
					"internalType": "address",
					"name": "",
					"type": "address"
				}
			],
			"stateMutability": "view",
			"type": "function"
		},
		{
			"inputs": [],
			"name": "renounceOwnership",
			"outputs": [],
			"stateMutability": "nonpayable",
			"type": "function"
		},
		{
			"inputs": [
				{
					"internalType": "address",
					"name": "newOwner",
					"type": "address"
				}
			],
			"name": "transferOwnership",
			"outputs": [],
			"stateMutability": "nonpayable",
			"type": "function"
		}
	]
}