{
	"data": {
		"bytecode": {
			"linkReferences": {},
			"object": "60e0346100c757601f610c6238819003918201601f19168301916001600160401b038311848410176100cb5780849260409485528339810103126100c757610052602061004b836100df565b92016100df565b60015f8190556001600160a01b03928316608052911660a05268ce4769686d3a1603e560c052439055604051610b6e90816100f482396080518181816102700152818161044e0152610541015260a05181818160f7015281816108dc01526109e8015260c0518181816103f9015261074d0152f35b5f80fd5b634e487b7160e01b5f52604160045260245ffd5b51906001600160a01b03821682036100c75756fe60406080815260049081361015610014575f80fd5b5f91823560e01c9081631137c55f146105d05781632e1a7d4d146104bf57816332fcd9661461049c578163443bdae31461047d5781635fcbd2851461043957816371bf86231461041c5781638ae39cac146103e1578163a87430ba1461037c578163a9f8d1811461035d578163aa93bfa81461033e578163b6b55f25146101eb578163d1058e59146101c0578163f40f0f521461012657508063f7c618c1146100e35763fc7039e0146100c5575f80fd5b346100df57816003193601126100df576020905160058152f35b5080fd5b50346100df57816003193601126100df57517f00000000000000000000000000000000000000000000000000000000000000006001600160a01b03168152602090f35b9050346101bc5760203660031901126101bc5780356001600160a01b038116908190036101b8579082846101b1936020965282865220906101a8670de0b6b3a764000061019c610193600286015461018d610185600189015443610714565b885490610612565b906105f1565b60035490610612565b04600384015490610714565b910154906105f1565b9051908152f35b8380fd5b8280fd5b83346101e857806003193601126101e8576101d9610625565b6101e16109ab565b6001815580f35b80fd5b919050346101bc5760203660031901126101bc5781359161020a610625565b821561030d57610218610721565b50610222336107d8565b61022b3361085a565b5081516323b872dd60e01b60208201523360248201523060448201526064808201859052815260a0810167ffffffffffffffff8111828210176102fa578352610294907f00000000000000000000000000000000000000000000000000000000000000006106af565b3384526020528083206102a88382546105f1565b81556003670de0b6b3a76400006102c56002840154835490610612565b04910155519081527f2da466a7b24304f47e87fa2e1e5a81b9831ce54fec19055ce277ca2f39ba42c460203392a26001815580f35b634e487b7160e01b865260418352602486fd5b6020606492519162461bcd60e51b8352820152600c60248201526b1e995c9bc819195c1bdcda5d60a21b6044820152fd5b5050346100df57816003193601126100df576020906002549051908152f35b5050346100df57816003193601126100df576020906001549051908152f35b919050346101bc5760203660031901126101bc5781356001600160a01b038116908190036101b85783829160a0955283602052208054926001820154926002830154916003840154930154938151958652602086015284015260608301526080820152f35b5050346100df57816003193601126100df57602090517f00000000000000000000000000000000000000000000000000000000000000008152f35b5050346100df57816003193601126100df57602090516127108152f35b5050346100df57816003193601126100df57517f00000000000000000000000000000000000000000000000000000000000000006001600160a01b03168152602090f35b5050346100df57816003193601126100df576020906003549051908152f35b5050346100df57816003193601126100df5760209051670de0b6b3a76400008152f35b919050346101bc5760203660031901126101bc578135916104de610625565b33845280602052818420908154841161059657506104fa610721565b50610504336107d8565b61050d3361085a565b50610519838254610714565b81556003670de0b6b3a76400006105366002840154835490610612565b0491015561056582337f0000000000000000000000000000000000000000000000000000000000000000610933565b519081527f7084f5476618d8e60b11ef0d7d3f06914655adb8793e28ff7f018d4c76d505d560203392a26001815580f35b606490602084519162461bcd60e51b83528201526014602482015273696e73756666696369656e742062616c616e636560601b6044820152fd5b83346101e857806003193601126101e8576105e9610625565b6101e1610985565b919082018092116105fe57565b634e487b7160e01b5f52601160045260245ffd5b818102929181159184041417156105fe57565b60025f54146106345760025f55565b60405162461bcd60e51b815260206004820152601f60248201527f5265656e7472616e637947756172643a207265656e7472616e742063616c6c006044820152606490fd5b90601f8019910116810190811067ffffffffffffffff82111761069b57604052565b634e487b7160e01b5f52604160045260245ffd5b905f602091828151910182855af115610709575f513d61070057506001600160a01b0381163b155b6106de5750565b604051635274afe760e01b81526001600160a01b039091166004820152602490fd5b600114156106d7565b6040513d5f823e3d90fd5b919082039182116105fe57565b6001545f908043115f146107d25761073a915043610714565b801580156107c8575b6107bf57610772907f000000000000000000000000000000000000000000000000000000000000000090610612565b670de0b6b3a76400008082029082820414821517156105fe5760025480156107ab576107a191046003546105f1565b6003554360015590565b634e487b7160e01b5f52601260045260245ffd5b50436001555f90565b5060025415610743565b5061073a565b60018060a01b03165f52600460205260405f20600181019081541561085457610802825443610714565b908115158061084a575b610818575b5050439055565b600261082961084093835490610612565b91016108368282546105f1565b90556002546105f1565b6002555f80610811565b508054151561080c565b50439055565b6001600160a01b0381165f8181526004602052604090206002810180546003549293670de0b6b3a7640000936108ce9392859161089691610612565b04946108b860046108ad6003840198895490610714565b9201918254906105f1565b8097816108d4575b505050505460035490610612565b04905590565b5f61090093557f0000000000000000000000000000000000000000000000000000000000000000610933565b7fd8138f8a3f377c5259ca548e70e4c2de94f129f5a11036a15b69513cba2b426a6020604051888152a25f8086816108c0565b60405163a9059cbb60e01b60208201526001600160a01b039092166024830152604480830193909352918152608081019167ffffffffffffffff83118284101761069b57610983926040526106af565b565b6002541561098357610995610721565b5061099f336107d8565b6109a83361085a565b50565b6109b3610721565b80156109a857600581028181046005036105fe57604080516370a0823160e01b808252306004830152612710909304926020917f0000000000000000000000000000000000000000000000000000000000000000916001600160a01b038316918481602481865afa908115610b2e575f91610b01575b508611610a9a575b50509183917fe7181c14bb11fb859c6acbd5e24ab5df0929feea6282a8a13baf1ab4de0dc946959383606096610a88575b610a799150610a7360015443610714565b95610714565b908251948552840152820152a1565b610a93913390610933565b5f83610a62565b8391929550602485518094819382523060048301525afa908115610af7575f91610ac9575b5092816060610a31565b908282813d8311610af0575b610adf8183610679565b810103126101e85750516060610abf565b503d610ad5565b83513d5f823e3d90fd5b908582813d8311610b27575b610b178183610679565b810103126101e85750515f610a29565b503d610b0d565b86513d5f823e3d90fdfea26469706673582212209fc57e29b405db458c15a3b85a3789df1e3af61c228acb08ba96a3cf4b6d9f2464736f6c63430008140033",
			"opcodes": "PUSH1 0xE0 CALLVALUE PUSH2 0xC7 JUMPI PUSH1 0x1F PUSH2 0xC62 CODESIZE DUP2 SWAP1 SUB SWAP2 DUP3 ADD PUSH1 0x1F NOT AND DUP4 ADD SWAP2 PUSH1 0x1 PUSH1 0x1 PUSH1 0x40 SHL SUB DUP4 GT DUP5 DUP5 LT OR PUSH2 0xCB JUMPI DUP1 DUP5 SWAP3 PUSH1 0x40 SWAP5 DUP6 MSTORE DUP4 CODECOPY DUP2 ADD SUB SLT PUSH2 0xC7 JUMPI PUSH2 0x52 PUSH1 0x20 PUSH2 0x4B DUP4 PUSH2 0xDF JUMP JUMPDEST SWAP3 ADD PUSH2 0xDF JUMP JUMPDEST PUSH1 0x1 PUSH0 DUP2 SWAP1 SSTORE PUSH1 0x1 PUSH1 0x1 PUSH1 0xA0 SHL SUB SWAP3 DUP4 AND PUSH1 0x80 MSTORE SWAP2 AND PUSH1 0xA0 MSTORE PUSH9 0xCE4769686D3A1603E5 PUSH1 0xC0 MSTORE NUMBER SWAP1 SSTORE PUSH1 0x40 MLOAD PUSH2 0xB6E SWAP1 DUP2 PUSH2 0xF4 DUP3 CODECOPY PUSH1 0x80 MLOAD DUP2 DUP2 DUP2 PUSH2 0x270 ADD MSTORE DUP2 DUP2 PUSH2 0x44E ADD MSTORE PUSH2 0x541 ADD MSTORE PUSH1 0xA0 MLOAD DUP2 DUP2 DUP2 PUSH1 0xF7 ADD MSTORE DUP2 DUP2 PUSH2 0x8DC ADD MSTORE PUSH2 0x9E8 ADD MSTORE PUSH1 0xC0 MLOAD DUP2 DUP2 DUP2 PUSH2 0x3F9 ADD MSTORE PUSH2 0x74D ADD MSTORE RETURN JUMPDEST PUSH0 DUP1 REVERT JUMPDEST PUSH4 0x4E487B71 PUSH1 0xE0 SHL PUSH0 MSTORE PUSH1 0x41 PUSH1 0x4 MSTORE PUSH1 0x24 PUSH0 REVERT JUMPDEST MLOAD SWAP1 PUSH1 0x1 PUSH1 0x1 PUSH1 0xA0 SHL SUB DUP3 AND DUP3 SUB PUSH2 0xC7 JUMPI JUMP INVALID PUSH1 0x40 PUSH1 0x80 DUP2 MSTORE PUSH1 0x4 SWAP1 DUP2 CALLDATASIZE LT ISZERO PUSH2 0x14 JUMPI PUSH0 DUP1 REVERT JUMPDEST PUSH0 SWAP2 DUP3 CALLDATALOAD PUSH1 0xE0 SHR SWAP1 DUP2 PUSH4 0x1137C55F EQ PUSH2 0x5D0 JUMPI DUP2 PUSH4 0x2E1A7D4D EQ PUSH2 0x4BF JUMPI DUP2 PUSH4 0x32FCD966 EQ PUSH2 0x49C JUMPI DUP2 PUSH4 0x443BDAE3 EQ PUSH2 0x47D JUMPI DUP2 PUSH4 0x5FCBD285 EQ PUSH2 0x439 JUMPI DUP2 PUSH4 0x71BF8623 EQ PUSH2 0x41C JUMPI DUP2 PUSH4 0x8AE39CAC EQ PUSH2 0x3E1 JUMPI DUP2 PUSH4 0xA87430BA EQ PUSH2 0x37C JUMPI DUP2 PUSH4 0xA9F8D181 EQ PUSH2 0x35D JUMPI DUP2 PUSH4 0xAA93BFA8 EQ PUSH2 0x33E JUMPI DUP2 PUSH4 0xB6B55F25 EQ PUSH2 0x1EB JUMPI DUP2 PUSH4 0xD1058E59 EQ PUSH2 0x1C0 JUMPI DUP2 PUSH4 0xF40F0F52 EQ PUSH2 0x126 JUMPI POP DUP1 PUSH4 0xF7C618C1 EQ PUSH2 0xE3 JUMPI PUSH4 0xFC7039E0 EQ PUSH2 0xC5 JUMPI PUSH0 DUP1 REVERT JUMPDEST CALLVALUE PUSH2 0xDF JUMPI DUP2 PUSH1 0x3 NOT CALLDATASIZE ADD SLT PUSH2 0xDF JUMPI PUSH1 0x20 SWAP1 MLOAD PUSH1 0x5 DUP2 MSTORE RETURN JUMPDEST POP DUP1 REVERT JUMPDEST POP CALLVALUE PUSH2 0xDF JUMPI DUP2 PUSH1 0x3 NOT CALLDATASIZE ADD SLT PUSH2 0xDF JUMPI MLOAD PUSH32 0x0 PUSH1 0x1 PUSH1 0x1 PUSH1 0xA0 SHL SUB AND DUP2 MSTORE PUSH1 0x20 SWAP1 RETURN JUMPDEST SWAP1 POP CALLVALUE PUSH2 0x1BC JUMPI PUSH1 0x20 CALLDATASIZE PUSH1 0x3 NOT ADD SLT PUSH2 0x1BC JUMPI DUP1 CALLDATALOAD PUSH1 0x1 PUSH1 0x1 PUSH1 0xA0 SHL SUB DUP2 AND SWAP1 DUP2 SWAP1 SUB PUSH2 0x1B8 JUMPI SWAP1 DUP3 DUP5 PUSH2 0x1B1 SWAP4 PUSH1 0x20 SWAP7 MSTORE DUP3 DUP7 MSTORE KECCAK256 SWAP1 PUSH2 0x1A8 PUSH8 0xDE0B6B3A7640000 PUSH2 0x19C PUSH2 0x193 PUSH1 0x2 DUP7 ADD SLOAD PUSH2 0x18D PUSH2 0x185 PUSH1 0x1 DUP10 ADD SLOAD NUMBER PUSH2 0x714 JUMP JUMPDEST DUP9 SLOAD SWAP1 PUSH2 0x612 JUMP JUMPDEST SWAP1 PUSH2 0x5F1 JUMP JUMPDEST PUSH1 0x3 SLOAD SWAP1 PUSH2 0x612 JUMP JUMPDEST DIV PUSH1 0x3 DUP5 ADD SLOAD SWAP1 PUSH2 0x714 JUMP JUMPDEST SWAP2 ADD SLOAD SWAP1 PUSH2 0x5F1 JUMP JUMPDEST SWAP1 MLOAD SWAP1 DUP2 MSTORE RETURN JUMPDEST DUP4 DUP1 REVERT JUMPDEST DUP3 DUP1 REVERT JUMPDEST DUP4 CALLVALUE PUSH2 0x1E8 JUMPI DUP1 PUSH1 0x3 NOT CALLDATASIZE ADD SLT PUSH2 0x1E8 JUMPI PUSH2 0x1D9 PUSH2 0x625 JUMP JUMPDEST PUSH2 0x1E1 PUSH2 0x9AB JUMP JUMPDEST PUSH1 0x1 DUP2 SSTORE DUP1 RETURN JUMPDEST DUP1 REVERT JUMPDEST SWAP2 SWAP1 POP CALLVALUE PUSH2 0x1BC JUMPI PUSH1 0x20 CALLDATASIZE PUSH1 0x3 NOT ADD SLT PUSH2 0x1BC JUMPI DUP2 CALLDATALOAD SWAP2 PUSH2 0x20A PUSH2 0x625 JUMP JUMPDEST DUP3 ISZERO PUSH2 0x30D JUMPI PUSH2 0x218 PUSH2 0x721 JUMP JUMPDEST POP PUSH2 0x222 CALLER PUSH2 0x7D8 JUMP JUMPDEST PUSH2 0x22B CALLER PUSH2 0x85A JUMP JUMPDEST POP DUP2 MLOAD PUSH4 0x23B872DD PUSH1 0xE0 SHL PUSH1 0x20 DUP3 ADD MSTORE CALLER PUSH1 0x24 DUP3 ADD MSTORE ADDRESS PUSH1 0x44 DUP3 ADD MSTORE PUSH1 0x64 DUP1 DUP3 ADD DUP6 SWAP1 MSTORE DUP2 MSTORE PUSH1 0xA0 DUP2 ADD PUSH8 0xFFFFFFFFFFFFFFFF DUP2 GT DUP3 DUP3 LT OR PUSH2 0x2FA JUMPI DUP4 MSTORE PUSH2 0x294 SWAP1 PUSH32 0x0 PUSH2 0x6AF JUMP JUMPDEST CALLER DUP5 MSTORE PUSH1 0x20 MSTORE DUP1 DUP4 KECCAK256 PUSH2 0x2A8 DUP4 DUP3 SLOAD PUSH2 0x5F1 JUMP JUMPDEST DUP2 SSTORE PUSH1 0x3 PUSH8 0xDE0B6B3A7640000 PUSH2 0x2C5 PUSH1 0x2 DUP5 ADD SLOAD DUP4 SLOAD SWAP1 PUSH2 0x612 JUMP JUMPDEST DIV SWAP2 ADD SSTORE MLOAD SWAP1 DUP2 MSTORE PUSH32 0x2DA466A7B24304F47E87FA2E1E5A81B9831CE54FEC19055CE277CA2F39BA42C4 PUSH1 0x20 CALLER SWAP3 LOG2 PUSH1 0x1 DUP2 SSTORE DUP1 RETURN JUMPDEST PUSH4 0x4E487B71 PUSH1 0xE0 SHL DUP7 MSTORE PUSH1 0x41 DUP4 MSTORE PUSH1 0x24 DUP7 REVERT JUMPDEST PUSH1 0x20 PUSH1 0x64 SWAP3 MLOAD SWAP2 PUSH3 0x461BCD PUSH1 0xE5 SHL DUP4 MSTORE DUP3 ADD MSTORE PUSH1 0xC PUSH1 0x24 DUP3 ADD MSTORE PUSH12 0x1E995C9BC819195C1BDCDA5D PUSH1 0xA2 SHL PUSH1 0x44 DUP3 ADD MSTORE REVERT JUMPDEST POP POP CALLVALUE PUSH2 0xDF JUMPI DUP2 PUSH1 0x3 NOT CALLDATASIZE ADD SLT PUSH2 0xDF JUMPI PUSH1 0x20 SWAP1 PUSH1 0x2 SLOAD SWAP1 MLOAD SWAP1 DUP2 MSTORE RETURN JUMPDEST POP POP CALLVALUE PUSH2 0xDF JUMPI DUP2 PUSH1 0x3 NOT CALLDATASIZE ADD SLT PUSH2 0xDF JUMPI PUSH1 0x20 SWAP1 PUSH1 0x1 SLOAD SWAP1 MLOAD SWAP1 DUP2 MSTORE RETURN JUMPDEST SWAP2 SWAP1 POP CALLVALUE PUSH2 0x1BC JUMPI PUSH1 0x20 CALLDATASIZE PUSH1 0x3 NOT ADD SLT PUSH2 0x1BC JUMPI DUP2 CALLDATALOAD PUSH1 0x1 PUSH1 0x1 PUSH1 0xA0 SHL SUB DUP2 AND SWAP1 DUP2 SWAP1 SUB PUSH2 0x1B8 JUMPI DUP4 DUP3 SWAP2 PUSH1 0xA0 SWAP6 MSTORE DUP4 PUSH1 0x20 MSTORE KECCAK256 DUP1 SLOAD SWAP3 PUSH1 0x1 DUP3 ADD SLOAD SWAP3 PUSH1 0x2 DUP4 ADD SLOAD SWAP2 PUSH1 0x3 DUP5 ADD SLOAD SWAP4 ADD SLOAD SWAP4 DUP2 MLOAD SWAP6 DUP7 MSTORE PUSH1 0x20 DUP7 ADD MSTORE DUP5 ADD MSTORE PUSH1 0x60 DUP4 ADD MSTORE PUSH1 0x80 DUP3 ADD MSTORE RETURN JUMPDEST POP POP CALLVALUE PUSH2 0xDF JUMPI DUP2 PUSH1 0x3 NOT CALLDATASIZE ADD SLT PUSH2 0xDF JUMPI PUSH1 0x20 SWAP1 MLOAD PUSH32 0x0 DUP2 MSTORE RETURN JUMPDEST POP POP CALLVALUE PUSH2 0xDF JUMPI DUP2 PUSH1 0x3 NOT CALLDATASIZE ADD SLT PUSH2 0xDF JUMPI PUSH1 0x20 SWAP1 MLOAD PUSH2 0x2710 DUP2 MSTORE RETURN JUMPDEST POP POP CALLVALUE PUSH2 0xDF JUMPI DUP2 PUSH1 0x3 NOT CALLDATASIZE ADD SLT PUSH2 0xDF JUMPI MLOAD PUSH32 0x0 PUSH1 0x1 PUSH1 0x1 PUSH1 0xA0 SHL SUB AND DUP2 MSTORE PUSH1 0x20 SWAP1 RETURN JUMPDEST POP POP CALLVALUE PUSH2 0xDF JUMPI DUP2 PUSH1 0x3 NOT CALLDATASIZE ADD SLT PUSH2 0xDF JUMPI PUSH1 0x20 SWAP1 PUSH1 0x3 SLOAD SWAP1 MLOAD SWAP1 DUP2 MSTORE RETURN JUMPDEST POP POP CALLVALUE PUSH2 0xDF JUMPI DUP2 PUSH1 0x3 NOT CALLDATASIZE ADD SLT PUSH2 0xDF JUMPI PUSH1 0x20 SWAP1 MLOAD PUSH8 0xDE0B6B3A7640000 DUP2 MSTORE RETURN JUMPDEST SWAP2 SWAP1 POP CALLVALUE PUSH2 0x1BC JUMPI PUSH1 0x20 CALLDATASIZE PUSH1 0x3 NOT ADD SLT PUSH2 0x1BC JUMPI DUP2 CALLDATALOAD SWAP2 PUSH2 0x4DE PUSH2 0x625 JUMP JUMPDEST CALLER DUP5 MSTORE DUP1 PUSH1 0x20 MSTORE DUP2 DUP5 KECCAK256 SWAP1 DUP2 SLOAD DUP5 GT PUSH2 0x596 JUMPI POP PUSH2 0x4FA PUSH2 0x721 JUMP JUMPDEST POP PUSH2 0x504 CALLER PUSH2 0x7D8 JUMP JUMPDEST PUSH2 0x50D CALLER PUSH2 0x85A JUMP JUMPDEST POP PUSH2 0x519 DUP4 DUP3 SLOAD PUSH2 0x714 JUMP JUMPDEST DUP2 SSTORE PUSH1 0x3 PUSH8 0xDE0B6B3A7640000 PUSH2 0x536 PUSH1 0x2 DUP5 ADD SLOAD DUP4 SLOAD SWAP1 PUSH2 0x612 JUMP JUMPDEST DIV SWAP2 ADD SSTORE PUSH2 0x565 DUP3 CALLER PUSH32 0x0 PUSH2 0x933 JUMP JUMPDEST MLOAD SWAP1 DUP2 MSTORE PUSH32 0x7084F5476618D8E60B11EF0D7D3F06914655ADB8793E28FF7F018D4C76D505D5 PUSH1 0x20 CALLER SWAP3 LOG2 PUSH1 0x1 DUP2 SSTORE DUP1 RETURN JUMPDEST PUSH1 0x64 SWAP1 PUSH1 0x20 DUP5 MLOAD SWAP2 PUSH3 0x461BCD PUSH1 0xE5 SHL DUP4 MSTORE DUP3 ADD MSTORE PUSH1 0x14 PUSH1 0x24 DUP3 ADD MSTORE PUSH20 0x696E73756666696369656E742062616C616E6365 PUSH1 0x60 SHL PUSH1 0x44 DUP3 ADD MSTORE REVERT JUMPDEST DUP4 CALLVALUE PUSH2 0x1E8 JUMPI DUP1 PUSH1 0x3 NOT CALLDATASIZE ADD SLT PUSH2 0x1E8 JUMPI PUSH2 0x5E9 PUSH2 0x625 JUMP JUMPDEST PUSH2 0x1E1 PUSH2 0x985 JUMP JUMPDEST SWAP2 SWAP1 DUP3 ADD DUP1 SWAP3 GT PUSH2 0x5FE JUMPI JUMP JUMPDEST PUSH4 0x4E487B71 PUSH1 0xE0 SHL PUSH0 MSTORE PUSH1 0x11 PUSH1 0x4 MSTORE PUSH1 0x24 PUSH0 REVERT JUMPDEST DUP2 DUP2 MUL SWAP3 SWAP2 DUP2 ISZERO SWAP2 DUP5 DIV EQ OR ISZERO PUSH2 0x5FE JUMPI JUMP JUMPDEST PUSH1 0x2 PUSH0 SLOAD EQ PUSH2 0x634 JUMPI PUSH1 0x2 PUSH0 SSTORE JUMP JUMPDEST PUSH1 0x40 MLOAD PUSH3 0x461BCD PUSH1 0xE5 SHL DUP2 MSTORE PUSH1 0x20 PUSH1 0x4 DUP3 ADD MSTORE PUSH1 0x1F PUSH1 0x24 DUP3 ADD MSTORE PUSH32 0x5265656E7472616E637947756172643A207265656E7472616E742063616C6C00 PUSH1 0x44 DUP3 ADD MSTORE PUSH1 0x64 SWAP1 REVERT JUMPDEST SWAP1 PUSH1 0x1F DUP1 NOT SWAP2 ADD AND DUP2 ADD SWAP1 DUP2 LT PUSH8 0xFFFFFFFFFFFFFFFF DUP3 GT OR PUSH2 0x69B JUMPI PUSH1 0x40 MSTORE JUMP JUMPDEST PUSH4 0x4E487B71 PUSH1 0xE0 SHL PUSH0 MSTORE PUSH1 0x41 PUSH1 0x4 MSTORE PUSH1 0x24 PUSH0 REVERT JUMPDEST SWAP1 PUSH0 PUSH1 0x20 SWAP2 DUP3 DUP2 MLOAD SWAP2 ADD DUP3 DUP6 GAS CALL ISZERO PUSH2 0x709 JUMPI PUSH0 MLOAD RETURNDATASIZE PUSH2 0x700 JUMPI POP PUSH1 0x1 PUSH1 0x1 PUSH1 0xA0 SHL SUB DUP2 AND EXTCODESIZE ISZERO JUMPDEST PUSH2 0x6DE JUMPI POP JUMP JUMPDEST PUSH1 0x40 MLOAD PUSH4 0x5274AFE7 PUSH1 0xE0 SHL DUP2 MSTORE PUSH1 0x1 PUSH1 0x1 PUSH1 0xA0 SHL SUB SWAP1 SWAP2 AND PUSH1 0x4 DUP3 ADD MSTORE PUSH1 0x24 SWAP1 REVERT JUMPDEST PUSH1 0x1 EQ ISZERO PUSH2 0x6D7 JUMP JUMPDEST PUSH1 0x40 MLOAD RETURNDATASIZE PUSH0 DUP3 RETURNDATACOPY RETURNDATASIZE SWAP1 REVERT JUMPDEST SWAP2 SWAP1 DUP3 SUB SWAP2 DUP3 GT PUSH2 0x5FE JUMPI JUMP JUMPDEST PUSH1 0x1 SLOAD PUSH0 SWAP1 DUP1 NUMBER GT PUSH0 EQ PUSH2 0x7D2 JUMPI PUSH2 0x73A SWAP2 POP NUMBER PUSH2 0x714 JUMP JUMPDEST DUP1 ISZERO DUP1 ISZERO PUSH2 0x7C8 JUMPI JUMPDEST PUSH2 0x7BF JUMPI PUSH2 0x772 SWAP1 PUSH32 0x0 SWAP1 PUSH2 0x612 JUMP JUMPDEST PUSH8 0xDE0B6B3A7640000 DUP1 DUP3 MUL SWAP1 DUP3 DUP3 DIV EQ DUP3 ISZERO OR ISZERO PUSH2 0x5FE JUMPI PUSH1 0x2 SLOAD DUP1 ISZERO PUSH2 0x7AB JUMPI PUSH2 0x7A1 SWAP2 DIV PUSH1 0x3 SLOAD PUSH2 0x5F1 JUMP JUMPDEST PUSH1 0x3 SSTORE NUMBER PUSH1 0x1 SSTORE SWAP1 JUMP JUMPDEST PUSH4 0x4E487B71 PUSH1 0xE0 SHL PUSH0 MSTORE PUSH1 0x12 PUSH1 0x4 MSTORE PUSH1 0x24 PUSH0 REVERT JUMPDEST POP NUMBER PUSH1 0x1 SSTORE PUSH0 SWAP1 JUMP JUMPDEST POP PUSH1 0x2 SLOAD ISZERO PUSH2 0x743 JUMP JUMPDEST POP PUSH2 0x73A JUMP JUMPDEST PUSH1 0x1 DUP1 PUSH1 0xA0 SHL SUB AND PUSH0 MSTORE PUSH1 0x4 PUSH1 0x20 MSTORE PUSH1 0x40 PUSH0 KECCAK256 PUSH1 0x1 DUP2 ADD SWAP1 DUP2 SLOAD ISZERO PUSH2 0x854 JUMPI PUSH2 0x802 DUP3 SLOAD NUMBER PUSH2 0x714 JUMP JUMPDEST SWAP1 DUP2 ISZERO ISZERO DUP1 PUSH2 0x84A JUMPI JUMPDEST PUSH2 0x818 JUMPI JUMPDEST POP POP NUMBER SWAP1 SSTORE JUMP JUMPDEST PUSH1 0x2 PUSH2 0x829 PUSH2 0x840 SWAP4 DUP4 SLOAD SWAP1 PUSH2 0x612 JUMP JUMPDEST SWAP2 ADD PUSH2 0x836 DUP3 DUP3 SLOAD PUSH2 0x5F1 JUMP JUMPDEST SWAP1 SSTORE PUSH1 0x2 SLOAD PUSH2 0x5F1 JUMP JUMPDEST PUSH1 0x2 SSTORE PUSH0 DUP1 PUSH2 0x811 JUMP JUMPDEST POP DUP1 SLOAD ISZERO ISZERO PUSH2 0x80C JUMP JUMPDEST POP NUMBER SWAP1 SSTORE JUMP JUMPDEST PUSH1 0x1 PUSH1 0x1 PUSH1 0xA0 SHL SUB DUP2 AND PUSH0 DUP2 DUP2 MSTORE PUSH1 0x4 PUSH1 0x20 MSTORE PUSH1 0x40 SWAP1 KECCAK256 PUSH1 0x2 DUP2 ADD DUP1 SLOAD PUSH1 0x3 SLOAD SWAP3 SWAP4 PUSH8 0xDE0B6B3A7640000 SWAP4 PUSH2 0x8CE SWAP4 SWAP3 DUP6 SWAP2 PUSH2 0x896 SWAP2 PUSH2 0x612 JUMP JUMPDEST DIV SWAP5 PUSH2 0x8B8 PUSH1 0x4 PUSH2 0x8AD PUSH1 0x3 DUP5 ADD SWAP9 DUP10 SLOAD SWAP1 PUSH2 0x714 JUMP JUMPDEST SWAP3 ADD SWAP2 DUP3 SLOAD SWAP1 PUSH2 0x5F1 JUMP JUMPDEST DUP1 SWAP8 DUP2 PUSH2 0x8D4 JUMPI JUMPDEST POP POP POP POP SLOAD PUSH1 0x3 SLOAD SWAP1 PUSH2 0x612 JUMP JUMPDEST DIV SWAP1 SSTORE SWAP1 JUMP JUMPDEST PUSH0 PUSH2 0x900 SWAP4 SSTORE PUSH32 0x0 PUSH2 0x933 JUMP JUMPDEST PUSH32 0xD8138F8A3F377C5259CA548E70E4C2DE94F129F5A11036A15B69513CBA2B426A PUSH1 0x20 PUSH1 0x40 MLOAD DUP9 DUP2 MSTORE LOG2 PUSH0 DUP1 DUP7 DUP2 PUSH2 0x8C0 JUMP JUMPDEST PUSH1 0x40 MLOAD PUSH4 0xA9059CBB PUSH1 0xE0 SHL PUSH1 0x20 DUP3 ADD MSTORE PUSH1 0x1 PUSH1 0x1 PUSH1 0xA0 SHL SUB SWAP1 SWAP3 AND PUSH1 0x24 DUP4 ADD MSTORE PUSH1 0x44 DUP1 DUP4 ADD SWAP4 SWAP1 SWAP4 MSTORE SWAP2 DUP2 MSTORE PUSH1 0x80 DUP2 ADD SWAP2 PUSH8 0xFFFFFFFFFFFFFFFF DUP4 GT DUP3 DUP5 LT OR PUSH2 0x69B JUMPI PUSH2 0x983 SWAP3 PUSH1 0x40 MSTORE PUSH2 0x6AF JUMP JUMPDEST JUMP JUMPDEST PUSH1 0x2 SLOAD ISZERO PUSH2 0x983 JUMPI PUSH2 0x995 PUSH2 0x721 JUMP JUMPDEST POP PUSH2 0x99F CALLER PUSH2 0x7D8 JUMP JUMPDEST PUSH2 0x9A8 CALLER PUSH2 0x85A JUMP JUMPDEST POP JUMP JUMPDEST PUSH2 0x9B3 PUSH2 0x721 JUMP JUMPDEST DUP1 ISZERO PUSH2 0x9A8 JUMPI PUSH1 0x5 DUP2 MUL DUP2 DUP2 DIV PUSH1 0x5 SUB PUSH2 0x5FE JUMPI PUSH1 0x40 DUP1 MLOAD PUSH4 0x70A08231 PUSH1 0xE0 SHL DUP1 DUP3 MSTORE ADDRESS PUSH1 0x4 DUP4 ADD MSTORE PUSH2 0x2710 SWAP1 SWAP4 DIV SWAP3 PUSH1 0x20 SWAP2 PUSH32 0x0 SWAP2 PUSH1 0x1 PUSH1 0x1 PUSH1 0xA0 SHL SUB DUP4 AND SWAP2 DUP5 DUP2 PUSH1 0x24 DUP2 DUP7 GAS STATICCALL SWAP1 DUP2 ISZERO PUSH2 0xB2E JUMPI PUSH0 SWAP2 PUSH2 0xB01 JUMPI JUMPDEST POP DUP7 GT PUSH2 0xA9A JUMPI JUMPDEST POP POP SWAP2 DUP4 SWAP2 PUSH32 0xE7181C14BB11FB859C6ACBD5E24AB5DF0929FEEA6282A8A13BAF1AB4DE0DC946 SWAP6 SWAP4 DUP4 PUSH1 0x60 SWAP7 PUSH2 0xA88 JUMPI JUMPDEST PUSH2 0xA79 SWAP2 POP PUSH2 0xA73 PUSH1 0x1 SLOAD NUMBER PUSH2 0x714 JUMP JUMPDEST SWAP6 PUSH2 0x714 JUMP JUMPDEST SWAP1 DUP3 MLOAD SWAP5 DUP6 MSTORE DUP5 ADD MSTORE DUP3 ADD MSTORE LOG1 JUMP JUMPDEST PUSH2 0xA93 SWAP2 CALLER SWAP1 PUSH2 0x933 JUMP JUMPDEST PUSH0 DUP4 PUSH2 0xA62 JUMP JUMPDEST DUP4 SWAP2 SWAP3 SWAP6 POP PUSH1 0x24 DUP6 MLOAD DUP1 SWAP5 DUP2 SWAP4 DUP3 MSTORE ADDRESS PUSH1 0x4 DUP4 ADD MSTORE GAS STATICCALL SWAP1 DUP2 ISZERO PUSH2 0xAF7 JUMPI PUSH0 SWAP2 PUSH2 0xAC9 JUMPI JUMPDEST POP SWAP3 DUP2 PUSH1 0x60 PUSH2 0xA31 JUMP JUMPDEST SWAP1 DUP3 DUP3 DUP2 RETURNDATASIZE DUP4 GT PUSH2 0xAF0 JUMPI JUMPDEST PUSH2 0xADF DUP2 DUP4 PUSH2 0x679 JUMP JUMPDEST DUP2 ADD SUB SLT PUSH2 0x1E8 JUMPI POP MLOAD PUSH1 0x60 PUSH2 0xABF JUMP JUMPDEST POP RETURNDATASIZE PUSH2 0xAD5 JUMP JUMPDEST DUP4 MLOAD RETURNDATASIZE PUSH0 DUP3 RETURNDATACOPY RETURNDATASIZE SWAP1 REVERT JUMPDEST SWAP1 DUP6 DUP3 DUP2 RETURNDATASIZE DUP4 GT PUSH2 0xB27 JUMPI JUMPDEST PUSH2 0xB17 DUP2 DUP4 PUSH2 0x679 JUMP JUMPDEST DUP2 ADD SUB SLT PUSH2 0x1E8 JUMPI POP MLOAD PUSH0 PUSH2 0xA29 JUMP JUMPDEST POP RETURNDATASIZE PUSH2 0xB0D JUMP JUMPDEST DUP7 MLOAD RETURNDATASIZE PUSH0 DUP3 RETURNDATACOPY RETURNDATASIZE SWAP1 REVERT INVALID LOG2 PUSH5 0x6970667358 0x22 SLT KECCAK256 SWAP16 0xC5 PUSH31 0x29B405DB458C15A3B85A3789DF1E3AF61C228ACB08BA96A3CF4B6D9F246473 PUSH16 0x6C634300081400330000000000000000 "
		},
		"gasEstimates": {
			"creation": {
				"codeDepositCost": "585200",
				"executionCost": "infinite",
				"totalCost": "infinite"
			},
			"external": {
				"ACC_PRECISION()": "212",
				"BP_DENOM()": "278",
				"CALLER_FEE_BP()": "471",
				"accRewardPerXP()": "2340",
				"claimAll()": "infinite",
				"claimSelf()": "infinite",
				"deposit(uint256)": "infinite",
				"lastRewardBlock()": "2450",
				"lpToken()": "infinite",
				"pendingReward(address)": "infinite",
				"rewardPerBlock()": "infinite",
				"rewardToken()": "infinite",
				"totalXP()": "2472",
				"users(address)": "11049",
				"withdraw(uint256)": "infinite"
			},
			"internal": {
				"_claimPending(address)": "infinite",
				"_updateGlobalPool()": "infinite",
				"_updateUserXP(address)": "infinite"
			}
		},
		"methodIdentifiers": {
			"ACC_PRECISION()": "32fcd966",
			"BP_DENOM()": "71bf8623",
			"CALLER_FEE_BP()": "fc7039e0",
			"accRewardPerXP()": "443bdae3",
			"claimAll()": "d1058e59",
			"claimSelf()": "1137c55f",
			"deposit(uint256)": "b6b55f25",
			"lastRewardBlock()": "a9f8d181",
			"lpToken()": "5fcbd285",
			"pendingReward(address)": "f40f0f52",
			"rewardPerBlock()": "8ae39cac",
			"rewardToken()": "f7c618c1",
			"totalXP()": "aa93bfa8",
			"users(address)": "a87430ba",
			"withdraw(uint256)": "2e1a7d4d"
		}
	},
	"abi": [
		{
			"inputs": [
				{
					"internalType": "address",
					"name": "_lpToken",
					"type": "address"
				},
				{
					"internalType": "address",
					"name": "_rewardToken",
					"type": "address"
				}
			],
			"stateMutability": "nonpayable",
			"type": "constructor"
		},
		{
			"inputs": [
				{
					"internalType": "address",
					"name": "token",
					"type": "address"
				}
			],
			"name": "SafeERC20FailedOperation",
			"type": "error"
		},
		{
			"anonymous": false,
			"inputs": [
				{
					"indexed": true,
					"internalType": "address",
					"name": "user",
					"type": "address"
				},
				{
					"indexed": false,
					"internalType": "uint256",
					"name": "reward",
					"type": "uint256"
				}
			],
			"name": "Claimed",
			"type": "event"
		},
		{
			"anonymous": false,
			"inputs": [
				{
					"indexed": true,
					"internalType": "address",
					"name": "user",
					"type": "address"
				},
				{
					"indexed": false,
					"internalType": "uint256",
					"name": "amount",
					"type": "uint256"
				}
			],
			"name": "Deposited",
			"type": "event"
		},
		{
			"anonymous": false,
			"inputs": [
				{
					"indexed": false,
					"internalType": "uint256",
					"name": "blocks",
					"type": "uint256"
				},
				{
					"indexed": false,
					"internalType": "uint256",
					"name": "distributed",
					"type": "uint256"
				},
				{
					"indexed": false,
					"internalType": "uint256",
					"name": "callerReward",
					"type": "uint256"
				}
			],
			"name": "GlobalUpdate",
			"type": "event"
		},
		{
			"anonymous": false,
			"inputs": [
				{
					"indexed": true,
					"internalType": "address",
					"name": "user",
					"type": "address"
				},
				{
					"indexed": false,
					"internalType": "uint256",
					"name": "amount",
					"type": "uint256"
				}
			],
			"name": "Withdrawn",
			"type": "event"
		},
		{
			"inputs": [],
			"name": "ACC_PRECISION",
			"outputs": [
				{
					"internalType": "uint256",
					"name": "",
					"type": "uint256"
				}
			],
			"stateMutability": "view",
			"type": "function"
		},
		{
			"inputs": [],
			"name": "BP_DENOM",
			"outputs": [
				{
					"internalType": "uint256",
					"name": "",
					"type": "uint256"
				}
			],
			"stateMutability": "view",
			"type": "function"
		},
		{
			"inputs": [],
			"name": "CALLER_FEE_BP",
			"outputs": [
				{
					"internalType": "uint256",
					"name": "",
					"type": "uint256"
				}
			],
			"stateMutability": "view",
			"type": "function"
		},
		{
			"inputs": [],
			"name": "accRewardPerXP",
			"outputs": [
				{
					"internalType": "uint256",
					"name": "",
					"type": "uint256"
				}
			],
			"stateMutability": "view",
			"type": "function"
		},
		{
			"inputs": [],
			"name": "claimAll",
			"outputs": [],
			"stateMutability": "nonpayable",
			"type": "function"
		},
		{
			"inputs": [],
			"name": "claimSelf",
			"outputs": [],
			"stateMutability": "nonpayable",
			"type": "function"
		},
		{
			"inputs": [
				{
					"internalType": "uint256",
					"name": "amount",
					"type": "uint256"
				}
			],
			"name": "deposit",
			"outputs": [],
			"stateMutability": "nonpayable",
			"type": "function"
		},
		{
			"inputs": [],
			"name": "lastRewardBlock",
			"outputs": [
				{
					"internalType": "uint256",
					"name": "",
					"type": "uint256"
				}
			],
			"stateMutability": "view",
			"type": "function"
		},
		{
			"inputs": [],
			"name": "lpToken",
			"outputs": [
				{
					"internalType": "contract IERC20",
					"name": "",
					"type": "address"
				}
			],
			"stateMutability": "view",
			"type": "function"
		},
		{
			"inputs": [
				{
					"internalType": "address",
					"name": "userAddr",
					"type": "address"
				}
			],
			"name": "pendingReward",
			"outputs": [
				{
					"internalType": "uint256",
					"name": "",
					"type": "uint256"
				}
			],
			"stateMutability": "view",
			"type": "function"
		},
		{
			"inputs": [],
			"name": "rewardPerBlock",
			"outputs": [
				{
					"internalType": "uint256",
					"name": "",
					"type": "uint256"
				}
			],
			"stateMutability": "view",
			"type": "function"
		},
		{
			"inputs": [],
			"name": "rewardToken",
			"outputs": [
				{
					"internalType": "contract IERC20",
					"name": "",
					"type": "address"
				}
			],
			"stateMutability": "view",
			"type": "function"
		},
		{
			"inputs": [],
			"name": "totalXP",
			"outputs": [
				{
					"internalType": "uint256",
					"name": "",
					"type": "uint256"
				}
			],
			"stateMutability": "view",
			"type": "function"
		},
		{
			"inputs": [
				{
					"internalType": "address",
					"name": "",
					"type": "address"
				}
			],
			"name": "users",
			"outputs": [
				{
					"internalType": "uint256",
					"name": "balance",
					"type": "uint256"
				},
				{
					"internalType": "uint256",
					"name": "lastUpdateBlock",
					"type": "uint256"
				},
				{
					"internalType": "uint256",
					"name": "xp",
					"type": "uint256"
				},
				{
					"internalType": "uint256",
					"name": "rewardDebt",
					"type": "uint256"
				},
				{
					"internalType": "uint256",
					"name": "pendingReward",
					"type": "uint256"
				}
			],
			"stateMutability": "view",
			"type": "function"
		},
		{
			"inputs": [
				{
					"internalType": "uint256",
					"name": "amount",
					"type": "uint256"
				}
			],
			"name": "withdraw",
			"outputs": [],
			"stateMutability": "nonpayable",
			"type": "function"
		}
	]
}