{
	"data": {
		"bytecode": {
			"linkReferences": {},
			"object": "60e08060405234620001a957604081620010858038038091620000238285620001ad565b833981010312620001a957600460206200004a816200004285620001e5565b9401620001e5565b60015f9081556001600160a01b03948516608052931660a081905260405163313ce56760e01b815292839182905afa80156200019e57829062000157575b60ff915016604d81116200014357600a0a90630bebc20091808302928304036200012f5761cd50820460c05243600155604051610e8a9081620001fb82396080518181816101f40152818161040e01526104ce015260a05181818160ec0152818161087801528181610a2c01528181610b2801528181610baa01528181610bf401528181610cad0152610cf4015260c0518181816103b90152818161082f0152610dfe0152f35b634e487b7160e01b81526011600452602490fd5b634e487b7160e01b82526011600452602482fd5b506020813d821162000195575b816200017360209383620001ad565b8101031262000191575160ff81168103620001915760ff9062000088565b5080fd5b3d915062000164565b6040513d84823e3d90fd5b5f80fd5b601f909101601f19168101906001600160401b03821190821017620001d157604052565b634e487b7160e01b5f52604160045260245ffd5b51906001600160a01b0382168203620001a95756fe60406080815260049081361015610014575f80fd5b5f91823560e01c9081631137c55f1461055d5781632e1a7d4d1461047d57816335c1d3491461043d5781635fcbd285146103f957816371bf8623146103dc5781638ae39cac146103a1578163a87430ba14610345578163a9f8d18114610326578163aa93bfa814610307578163b6b55f2514610182578163d1058e591461015a578163f40f0f521461011b57508063f7c618c1146100d85763fc7039e0146100ba575f80fd5b346100d457816003193601126100d4576020905160058152f35b5080fd5b50346100d457816003193601126100d457517f00000000000000000000000000000000000000000000000000000000000000006001600160a01b03168152602090f35b9050346101565760203660031901126101565735916001600160a01b0383168303610153575061014c602092610d9a565b9051908152f35b80fd5b8280fd5b83346101535780600319360112610153576101736105e8565b61017b6109dc565b6001815580f35b91905034610156576020366003190112610156578135916101a16105e8565b82156102d6576101b0336106f7565b81516323b872dd60e01b60208201523360248201523060448201526064808201859052815260a0810167ffffffffffffffff8111828210176102c3578352610218907f0000000000000000000000000000000000000000000000000000000000000000610672565b33845260036020528184209081541561026b575b506102388382546105c7565b9055519081527f2da466a7b24304f47e87fa2e1e5a81b9831ce54fec19055ce277ca2f39ba42c460203392a26001815580f35b805490680100000000000000008210156102b05760018201905561028e9061057e565b81546001600160a01b0360039290921b91821b19163390911b1790555f61022c565b634e487b7160e01b865260419052602485fd5b634e487b7160e01b865260418352602486fd5b6020606492519162461bcd60e51b8352820152600c60248201526b1e995c9bc819195c1bdcda5d60a21b6044820152fd5b5050346100d457816003193601126100d4576020906002549051908152f35b5050346100d457816003193601126100d4576020906001549051908152f35b90503461015657602036600319011261015657356001600160a01b038116908190036101565782829160809452600360205220908154916001810154916003600283015492015492815194855260208501528301526060820152f35b5050346100d457816003193601126100d457602090517f00000000000000000000000000000000000000000000000000000000000000008152f35b5050346100d457816003193601126100d457602090516127108152f35b5050346100d457816003193601126100d457517f00000000000000000000000000000000000000000000000000000000000000006001600160a01b03168152602090f35b8284346101535760203660031901126101535782359254831015610153575061046760209261057e565b905491519160018060a01b039160031b1c168152f35b919050346101565760203660031901126101565781359161049c6105e8565b3384526003602052818420908154841161052357506104ba336106f7565b6104c58382546106d7565b90556104f282337f0000000000000000000000000000000000000000000000000000000000000000610779565b519081527f7084f5476618d8e60b11ef0d7d3f06914655adb8793e28ff7f018d4c76d505d560203392a26001815580f35b606490602084519162461bcd60e51b83528201526014602482015273696e73756666696369656e742062616c616e636560601b6044820152fd5b83346101535780600319360112610153576105766105e8565b61017b6107e9565b6004548110156105b35760045f527f8a35acfbc15ff81a39ae7d344fd709f28e8600b4aa8c65c6b64bfe7fe36bd19b01905f90565b634e487b7160e01b5f52603260045260245ffd5b919082018092116105d457565b634e487b7160e01b5f52601160045260245ffd5b60025f54146105f75760025f55565b60405162461bcd60e51b815260206004820152601f60248201527f5265656e7472616e637947756172643a207265656e7472616e742063616c6c006044820152606490fd5b90601f8019910116810190811067ffffffffffffffff82111761065e57604052565b634e487b7160e01b5f52604160045260245ffd5b905f602091828151910182855af1156106cc575f513d6106c357506001600160a01b0381163b155b6106a15750565b604051635274afe760e01b81526001600160a01b039091166004820152602490fd5b6001141561069a565b6040513d5f823e3d90fd5b919082039182116105d457565b818102929181159184041417156105d457565b60018060a01b03165f52600360205260405f206001810190815415610773576107218254436106d7565b9081151580610769575b610737575b5050439055565b600261074861075f938354906106e4565b91016107558282546105c7565b90556002546105c7565b6002555f80610730565b508054151561072b565b50439055565b60405163a9059cbb60e01b60208201526001600160a01b039092166024830152604480830193909352918152608081019167ffffffffffffffff83118284101761065e576107c992604052610672565b565b81156107d5570490565b634e487b7160e01b5f52601260045260245ffd5b6107f2336106f7565b5f9033825260209160038352604092600284832001938454801580156109d2575b6109ca5761085a6108639161085461082d600154436106d7565b7f0000000000000000000000000000000000000000000000000000000000000000906106e4565b906106e4565b600254906107cb565b81516370a0823160e01b8082523060048301527f00000000000000000000000000000000000000000000000000000000000000006001600160a01b038116989396939290919086816024818d5afa9081156109c057859161098f575b508711610926575b5085807fd8138f8a3f377c5259ca548e70e4c2de94f129f5a11036a15b69513cba2b426a97989950610914575b505061090381546002546106d7565b6002555543600155519283523392a2565b61091f913390610779565b5f866108f4565b8591965060248551809a819382523060048301525afa8015610985578290610955575b9596508695945f6108c7565b508387813d831161097e575b61096b818361063c565b810103126100d457955194958695610949565b503d610961565b83513d84823e3d90fd5b90508681813d83116109b9575b6109a6818361063c565b810103126109b557515f6108bf565b8480fd5b503d61099c565b86513d87823e3d90fd5b505050509050565b5060025415610813565b600143815560025415610d97576109f661082d43436106d7565b9060058202828104600514831517156105d4576040516370a0823160e01b815230600482015261271090910491906020816024817f00000000000000000000000000000000000000000000000000000000000000006001600160a01b03165afa9081156106cc575f91610d65575b508211610cd6575b81610ca6575b805f9384915b610ab9575b5050916040917f3c3d358c457d91d874593441791f0b96c90172a78030ce0ce7e8e8c965fe1469935f60025543905582519182526020820152a1565b600454821015610ca157610acc8261057e565b90549560018060a01b03878360031b1c165f526003602052600260405f20019687548015610c975761085a610b0a91610b058a886106d7565b6106e4565b6040516370a0823160e01b81523060048201529093906020816024817f00000000000000000000000000000000000000000000000000000000000000006001600160a01b03165afa9081156106cc575f91610c65575b508411610bd6575b91839182610b7f945f96610b94575b5050506105c7565b95555b5f1982146105d4578280920191610a78565b610bce9260039190911b1c6001600160a01b03167f0000000000000000000000000000000000000000000000000000000000000000610779565b5f8281610b77565b6040516370a0823160e01b81523060048201529093506020816024817f00000000000000000000000000000000000000000000000000000000000000006001600160a01b03165afa9081156106cc575f91610c33575b5092610b68565b906020823d602011610c5d575b81610c4d6020938361063c565b810103126101535750515f610c2c565b3d9150610c40565b906020823d602011610c8f575b81610c7f6020938361063c565b810103126101535750515f610b60565b3d9150610c72565b5050955050610b82565b610a7d565b610cd182337f0000000000000000000000000000000000000000000000000000000000000000610779565b610a72565b6040516370a0823160e01b81523060048201529091506020816024817f00000000000000000000000000000000000000000000000000000000000000006001600160a01b03165afa9081156106cc575f91610d33575b5090610a6c565b906020823d602011610d5d575b81610d4d6020938361063c565b810103126101535750515f610d2c565b3d9150610d40565b906020823d602011610d8f575b81610d7f6020938361063c565b810103126101535750515f610a64565b3d9150610d72565b50565b60018060a01b03165f526003602052610dd560405f20610dcf600282015491610dc76001820154436106d7565b9054906106e4565b906105c7565b610de1600154436106d7565b9080158015610e41575b610e3b57610e32610e29610e23610e38947f0000000000000000000000000000000000000000000000000000000000000000906106e4565b836106e4565b916002546105c7565b906107cb565b90565b50505f90565b50610e4e816002546105c7565b15610deb56fea264697066735822122096028d7a0081e2e3e22e0e2a70cde292647305447f5fd91d0a196ff27f09860c64736f6c63430008140033",
			"opcodes": "PUSH1 0xE0 DUP1 PUSH1 0x40 MSTORE CALLVALUE PUSH3 0x1A9 JUMPI PUSH1 0x40 DUP2 PUSH3 0x1085 DUP1 CODESIZE SUB DUP1 SWAP2 PUSH3 0x23 DUP3 DUP6 PUSH3 0x1AD JUMP JUMPDEST DUP4 CODECOPY DUP2 ADD SUB SLT PUSH3 0x1A9 JUMPI PUSH1 0x4 PUSH1 0x20 PUSH3 0x4A DUP2 PUSH3 0x42 DUP6 PUSH3 0x1E5 JUMP JUMPDEST SWAP5 ADD PUSH3 0x1E5 JUMP JUMPDEST PUSH1 0x1 PUSH0 SWAP1 DUP2 SSTORE PUSH1 0x1 PUSH1 0x1 PUSH1 0xA0 SHL SUB SWAP5 DUP6 AND PUSH1 0x80 MSTORE SWAP4 AND PUSH1 0xA0 DUP2 SWAP1 MSTORE PUSH1 0x40 MLOAD PUSH4 0x313CE567 PUSH1 0xE0 SHL DUP2 MSTORE SWAP3 DUP4 SWAP2 DUP3 SWAP1 GAS STATICCALL DUP1 ISZERO PUSH3 0x19E JUMPI DUP3 SWAP1 PUSH3 0x157 JUMPI JUMPDEST PUSH1 0xFF SWAP2 POP AND PUSH1 0x4D DUP2 GT PUSH3 0x143 JUMPI PUSH1 0xA EXP SWAP1 PUSH4 0xBEBC200 SWAP2 DUP1 DUP4 MUL SWAP3 DUP4 DIV SUB PUSH3 0x12F JUMPI PUSH2 0xCD50 DUP3 DIV PUSH1 0xC0 MSTORE NUMBER PUSH1 0x1 SSTORE PUSH1 0x40 MLOAD PUSH2 0xE8A SWAP1 DUP2 PUSH3 0x1FB DUP3 CODECOPY PUSH1 0x80 MLOAD DUP2 DUP2 DUP2 PUSH2 0x1F4 ADD MSTORE DUP2 DUP2 PUSH2 0x40E ADD MSTORE PUSH2 0x4CE ADD MSTORE PUSH1 0xA0 MLOAD DUP2 DUP2 DUP2 PUSH1 0xEC ADD MSTORE DUP2 DUP2 PUSH2 0x878 ADD MSTORE DUP2 DUP2 PUSH2 0xA2C ADD MSTORE DUP2 DUP2 PUSH2 0xB28 ADD MSTORE DUP2 DUP2 PUSH2 0xBAA ADD MSTORE DUP2 DUP2 PUSH2 0xBF4 ADD MSTORE DUP2 DUP2 PUSH2 0xCAD ADD MSTORE PUSH2 0xCF4 ADD MSTORE PUSH1 0xC0 MLOAD DUP2 DUP2 DUP2 PUSH2 0x3B9 ADD MSTORE DUP2 DUP2 PUSH2 0x82F ADD MSTORE PUSH2 0xDFE ADD MSTORE RETURN JUMPDEST PUSH4 0x4E487B71 PUSH1 0xE0 SHL DUP2 MSTORE PUSH1 0x11 PUSH1 0x4 MSTORE PUSH1 0x24 SWAP1 REVERT JUMPDEST PUSH4 0x4E487B71 PUSH1 0xE0 SHL DUP3 MSTORE PUSH1 0x11 PUSH1 0x4 MSTORE PUSH1 0x24 DUP3 REVERT JUMPDEST POP PUSH1 0x20 DUP2 RETURNDATASIZE DUP3 GT PUSH3 0x195 JUMPI JUMPDEST DUP2 PUSH3 0x173 PUSH1 0x20 SWAP4 DUP4 PUSH3 0x1AD JUMP JUMPDEST DUP2 ADD SUB SLT PUSH3 0x191 JUMPI MLOAD PUSH1 0xFF DUP2 AND DUP2 SUB PUSH3 0x191 JUMPI PUSH1 0xFF SWAP1 PUSH3 0x88 JUMP JUMPDEST POP DUP1 REVERT JUMPDEST RETURNDATASIZE SWAP2 POP PUSH3 0x164 JUMP JUMPDEST PUSH1 0x40 MLOAD RETURNDATASIZE DUP5 DUP3 RETURNDATACOPY RETURNDATASIZE SWAP1 REVERT JUMPDEST PUSH0 DUP1 REVERT JUMPDEST PUSH1 0x1F SWAP1 SWAP2 ADD PUSH1 0x1F NOT AND DUP2 ADD SWAP1 PUSH1 0x1 PUSH1 0x1 PUSH1 0x40 SHL SUB DUP3 GT SWAP1 DUP3 LT OR PUSH3 0x1D1 JUMPI PUSH1 0x40 MSTORE JUMP JUMPDEST PUSH4 0x4E487B71 PUSH1 0xE0 SHL PUSH0 MSTORE PUSH1 0x41 PUSH1 0x4 MSTORE PUSH1 0x24 PUSH0 REVERT JUMPDEST MLOAD SWAP1 PUSH1 0x1 PUSH1 0x1 PUSH1 0xA0 SHL SUB DUP3 AND DUP3 SUB PUSH3 0x1A9 JUMPI JUMP INVALID PUSH1 0x40 PUSH1 0x80 DUP2 MSTORE PUSH1 0x4 SWAP1 DUP2 CALLDATASIZE LT ISZERO PUSH2 0x14 JUMPI PUSH0 DUP1 REVERT JUMPDEST PUSH0 SWAP2 DUP3 CALLDATALOAD PUSH1 0xE0 SHR SWAP1 DUP2 PUSH4 0x1137C55F EQ PUSH2 0x55D JUMPI DUP2 PUSH4 0x2E1A7D4D EQ PUSH2 0x47D JUMPI DUP2 PUSH4 0x35C1D349 EQ PUSH2 0x43D JUMPI DUP2 PUSH4 0x5FCBD285 EQ PUSH2 0x3F9 JUMPI DUP2 PUSH4 0x71BF8623 EQ PUSH2 0x3DC JUMPI DUP2 PUSH4 0x8AE39CAC EQ PUSH2 0x3A1 JUMPI DUP2 PUSH4 0xA87430BA EQ PUSH2 0x345 JUMPI DUP2 PUSH4 0xA9F8D181 EQ PUSH2 0x326 JUMPI DUP2 PUSH4 0xAA93BFA8 EQ PUSH2 0x307 JUMPI DUP2 PUSH4 0xB6B55F25 EQ PUSH2 0x182 JUMPI DUP2 PUSH4 0xD1058E59 EQ PUSH2 0x15A JUMPI DUP2 PUSH4 0xF40F0F52 EQ PUSH2 0x11B JUMPI POP DUP1 PUSH4 0xF7C618C1 EQ PUSH2 0xD8 JUMPI PUSH4 0xFC7039E0 EQ PUSH2 0xBA JUMPI PUSH0 DUP1 REVERT JUMPDEST CALLVALUE PUSH2 0xD4 JUMPI DUP2 PUSH1 0x3 NOT CALLDATASIZE ADD SLT PUSH2 0xD4 JUMPI PUSH1 0x20 SWAP1 MLOAD PUSH1 0x5 DUP2 MSTORE RETURN JUMPDEST POP DUP1 REVERT JUMPDEST POP CALLVALUE PUSH2 0xD4 JUMPI DUP2 PUSH1 0x3 NOT CALLDATASIZE ADD SLT PUSH2 0xD4 JUMPI MLOAD PUSH32 0x0 PUSH1 0x1 PUSH1 0x1 PUSH1 0xA0 SHL SUB AND DUP2 MSTORE PUSH1 0x20 SWAP1 RETURN JUMPDEST SWAP1 POP CALLVALUE PUSH2 0x156 JUMPI PUSH1 0x20 CALLDATASIZE PUSH1 0x3 NOT ADD SLT PUSH2 0x156 JUMPI CALLDATALOAD SWAP2 PUSH1 0x1 PUSH1 0x1 PUSH1 0xA0 SHL SUB DUP4 AND DUP4 SUB PUSH2 0x153 JUMPI POP PUSH2 0x14C PUSH1 0x20 SWAP3 PUSH2 0xD9A JUMP JUMPDEST SWAP1 MLOAD SWAP1 DUP2 MSTORE RETURN JUMPDEST DUP1 REVERT JUMPDEST DUP3 DUP1 REVERT JUMPDEST DUP4 CALLVALUE PUSH2 0x153 JUMPI DUP1 PUSH1 0x3 NOT CALLDATASIZE ADD SLT PUSH2 0x153 JUMPI PUSH2 0x173 PUSH2 0x5E8 JUMP JUMPDEST PUSH2 0x17B PUSH2 0x9DC JUMP JUMPDEST PUSH1 0x1 DUP2 SSTORE DUP1 RETURN JUMPDEST SWAP2 SWAP1 POP CALLVALUE PUSH2 0x156 JUMPI PUSH1 0x20 CALLDATASIZE PUSH1 0x3 NOT ADD SLT PUSH2 0x156 JUMPI DUP2 CALLDATALOAD SWAP2 PUSH2 0x1A1 PUSH2 0x5E8 JUMP JUMPDEST DUP3 ISZERO PUSH2 0x2D6 JUMPI PUSH2 0x1B0 CALLER PUSH2 0x6F7 JUMP JUMPDEST DUP2 MLOAD PUSH4 0x23B872DD PUSH1 0xE0 SHL PUSH1 0x20 DUP3 ADD MSTORE CALLER PUSH1 0x24 DUP3 ADD MSTORE ADDRESS PUSH1 0x44 DUP3 ADD MSTORE PUSH1 0x64 DUP1 DUP3 ADD DUP6 SWAP1 MSTORE DUP2 MSTORE PUSH1 0xA0 DUP2 ADD PUSH8 0xFFFFFFFFFFFFFFFF DUP2 GT DUP3 DUP3 LT OR PUSH2 0x2C3 JUMPI DUP4 MSTORE PUSH2 0x218 SWAP1 PUSH32 0x0 PUSH2 0x672 JUMP JUMPDEST CALLER DUP5 MSTORE PUSH1 0x3 PUSH1 0x20 MSTORE DUP2 DUP5 KECCAK256 SWAP1 DUP2 SLOAD ISZERO PUSH2 0x26B JUMPI JUMPDEST POP PUSH2 0x238 DUP4 DUP3 SLOAD PUSH2 0x5C7 JUMP JUMPDEST SWAP1 SSTORE MLOAD SWAP1 DUP2 MSTORE PUSH32 0x2DA466A7B24304F47E87FA2E1E5A81B9831CE54FEC19055CE277CA2F39BA42C4 PUSH1 0x20 CALLER SWAP3 LOG2 PUSH1 0x1 DUP2 SSTORE DUP1 RETURN JUMPDEST DUP1 SLOAD SWAP1 PUSH9 0x10000000000000000 DUP3 LT ISZERO PUSH2 0x2B0 JUMPI PUSH1 0x1 DUP3 ADD SWAP1 SSTORE PUSH2 0x28E SWAP1 PUSH2 0x57E JUMP JUMPDEST DUP2 SLOAD PUSH1 0x1 PUSH1 0x1 PUSH1 0xA0 SHL SUB PUSH1 0x3 SWAP3 SWAP1 SWAP3 SHL SWAP2 DUP3 SHL NOT AND CALLER SWAP1 SWAP2 SHL OR SWAP1 SSTORE PUSH0 PUSH2 0x22C JUMP JUMPDEST PUSH4 0x4E487B71 PUSH1 0xE0 SHL DUP7 MSTORE PUSH1 0x41 SWAP1 MSTORE PUSH1 0x24 DUP6 REVERT JUMPDEST PUSH4 0x4E487B71 PUSH1 0xE0 SHL DUP7 MSTORE PUSH1 0x41 DUP4 MSTORE PUSH1 0x24 DUP7 REVERT JUMPDEST PUSH1 0x20 PUSH1 0x64 SWAP3 MLOAD SWAP2 PUSH3 0x461BCD PUSH1 0xE5 SHL DUP4 MSTORE DUP3 ADD MSTORE PUSH1 0xC PUSH1 0x24 DUP3 ADD MSTORE PUSH12 0x1E995C9BC819195C1BDCDA5D PUSH1 0xA2 SHL PUSH1 0x44 DUP3 ADD MSTORE REVERT JUMPDEST POP POP CALLVALUE PUSH2 0xD4 JUMPI DUP2 PUSH1 0x3 NOT CALLDATASIZE ADD SLT PUSH2 0xD4 JUMPI PUSH1 0x20 SWAP1 PUSH1 0x2 SLOAD SWAP1 MLOAD SWAP1 DUP2 MSTORE RETURN JUMPDEST POP POP CALLVALUE PUSH2 0xD4 JUMPI DUP2 PUSH1 0x3 NOT CALLDATASIZE ADD SLT PUSH2 0xD4 JUMPI PUSH1 0x20 SWAP1 PUSH1 0x1 SLOAD SWAP1 MLOAD SWAP1 DUP2 MSTORE RETURN JUMPDEST SWAP1 POP CALLVALUE PUSH2 0x156 JUMPI PUSH1 0x20 CALLDATASIZE PUSH1 0x3 NOT ADD SLT PUSH2 0x156 JUMPI CALLDATALOAD PUSH1 0x1 PUSH1 0x1 PUSH1 0xA0 SHL SUB DUP2 AND SWAP1 DUP2 SWAP1 SUB PUSH2 0x156 JUMPI DUP3 DUP3 SWAP2 PUSH1 0x80 SWAP5 MSTORE PUSH1 0x3 PUSH1 0x20 MSTORE KECCAK256 SWAP1 DUP2 SLOAD SWAP2 PUSH1 0x1 DUP2 ADD SLOAD SWAP2 PUSH1 0x3 PUSH1 0x2 DUP4 ADD SLOAD SWAP3 ADD SLOAD SWAP3 DUP2 MLOAD SWAP5 DUP6 MSTORE PUSH1 0x20 DUP6 ADD MSTORE DUP4 ADD MSTORE PUSH1 0x60 DUP3 ADD MSTORE RETURN JUMPDEST POP POP CALLVALUE PUSH2 0xD4 JUMPI DUP2 PUSH1 0x3 NOT CALLDATASIZE ADD SLT PUSH2 0xD4 JUMPI PUSH1 0x20 SWAP1 MLOAD PUSH32 0x0 DUP2 MSTORE RETURN JUMPDEST POP POP CALLVALUE PUSH2 0xD4 JUMPI DUP2 PUSH1 0x3 NOT CALLDATASIZE ADD SLT PUSH2 0xD4 JUMPI PUSH1 0x20 SWAP1 MLOAD PUSH2 0x2710 DUP2 MSTORE RETURN JUMPDEST POP POP CALLVALUE PUSH2 0xD4 JUMPI DUP2 PUSH1 0x3 NOT CALLDATASIZE ADD SLT PUSH2 0xD4 JUMPI MLOAD PUSH32 0x0 PUSH1 0x1 PUSH1 0x1 PUSH1 0xA0 SHL SUB AND DUP2 MSTORE PUSH1 0x20 SWAP1 RETURN JUMPDEST DUP3 DUP5 CALLVALUE PUSH2 0x153 JUMPI PUSH1 0x20 CALLDATASIZE PUSH1 0x3 NOT ADD SLT PUSH2 0x153 JUMPI DUP3 CALLDATALOAD SWAP3 SLOAD DUP4 LT ISZERO PUSH2 0x153 JUMPI POP PUSH2 0x467 PUSH1 0x20 SWAP3 PUSH2 0x57E JUMP JUMPDEST SWAP1 SLOAD SWAP2 MLOAD SWAP2 PUSH1 0x1 DUP1 PUSH1 0xA0 SHL SUB SWAP2 PUSH1 0x3 SHL SHR AND DUP2 MSTORE RETURN JUMPDEST SWAP2 SWAP1 POP CALLVALUE PUSH2 0x156 JUMPI PUSH1 0x20 CALLDATASIZE PUSH1 0x3 NOT ADD SLT PUSH2 0x156 JUMPI DUP2 CALLDATALOAD SWAP2 PUSH2 0x49C PUSH2 0x5E8 JUMP JUMPDEST CALLER DUP5 MSTORE PUSH1 0x3 PUSH1 0x20 MSTORE DUP2 DUP5 KECCAK256 SWAP1 DUP2 SLOAD DUP5 GT PUSH2 0x523 JUMPI POP PUSH2 0x4BA CALLER PUSH2 0x6F7 JUMP JUMPDEST PUSH2 0x4C5 DUP4 DUP3 SLOAD PUSH2 0x6D7 JUMP JUMPDEST SWAP1 SSTORE PUSH2 0x4F2 DUP3 CALLER PUSH32 0x0 PUSH2 0x779 JUMP JUMPDEST MLOAD SWAP1 DUP2 MSTORE PUSH32 0x7084F5476618D8E60B11EF0D7D3F06914655ADB8793E28FF7F018D4C76D505D5 PUSH1 0x20 CALLER SWAP3 LOG2 PUSH1 0x1 DUP2 SSTORE DUP1 RETURN JUMPDEST PUSH1 0x64 SWAP1 PUSH1 0x20 DUP5 MLOAD SWAP2 PUSH3 0x461BCD PUSH1 0xE5 SHL DUP4 MSTORE DUP3 ADD MSTORE PUSH1 0x14 PUSH1 0x24 DUP3 ADD MSTORE PUSH20 0x696E73756666696369656E742062616C616E6365 PUSH1 0x60 SHL PUSH1 0x44 DUP3 ADD MSTORE REVERT JUMPDEST DUP4 CALLVALUE PUSH2 0x153 JUMPI DUP1 PUSH1 0x3 NOT CALLDATASIZE ADD SLT PUSH2 0x153 JUMPI PUSH2 0x576 PUSH2 0x5E8 JUMP JUMPDEST PUSH2 0x17B PUSH2 0x7E9 JUMP JUMPDEST PUSH1 0x4 SLOAD DUP2 LT ISZERO PUSH2 0x5B3 JUMPI PUSH1 0x4 PUSH0 MSTORE PUSH32 0x8A35ACFBC15FF81A39AE7D344FD709F28E8600B4AA8C65C6B64BFE7FE36BD19B ADD SWAP1 PUSH0 SWAP1 JUMP JUMPDEST PUSH4 0x4E487B71 PUSH1 0xE0 SHL PUSH0 MSTORE PUSH1 0x32 PUSH1 0x4 MSTORE PUSH1 0x24 PUSH0 REVERT JUMPDEST SWAP2 SWAP1 DUP3 ADD DUP1 SWAP3 GT PUSH2 0x5D4 JUMPI JUMP JUMPDEST PUSH4 0x4E487B71 PUSH1 0xE0 SHL PUSH0 MSTORE PUSH1 0x11 PUSH1 0x4 MSTORE PUSH1 0x24 PUSH0 REVERT JUMPDEST PUSH1 0x2 PUSH0 SLOAD EQ PUSH2 0x5F7 JUMPI PUSH1 0x2 PUSH0 SSTORE JUMP JUMPDEST PUSH1 0x40 MLOAD PUSH3 0x461BCD PUSH1 0xE5 SHL DUP2 MSTORE PUSH1 0x20 PUSH1 0x4 DUP3 ADD MSTORE PUSH1 0x1F PUSH1 0x24 DUP3 ADD MSTORE PUSH32 0x5265656E7472616E637947756172643A207265656E7472616E742063616C6C00 PUSH1 0x44 DUP3 ADD MSTORE PUSH1 0x64 SWAP1 REVERT JUMPDEST SWAP1 PUSH1 0x1F DUP1 NOT SWAP2 ADD AND DUP2 ADD SWAP1 DUP2 LT PUSH8 0xFFFFFFFFFFFFFFFF DUP3 GT OR PUSH2 0x65E JUMPI PUSH1 0x40 MSTORE JUMP JUMPDEST PUSH4 0x4E487B71 PUSH1 0xE0 SHL PUSH0 MSTORE PUSH1 0x41 PUSH1 0x4 MSTORE PUSH1 0x24 PUSH0 REVERT JUMPDEST SWAP1 PUSH0 PUSH1 0x20 SWAP2 DUP3 DUP2 MLOAD SWAP2 ADD DUP3 DUP6 GAS CALL ISZERO PUSH2 0x6CC JUMPI PUSH0 MLOAD RETURNDATASIZE PUSH2 0x6C3 JUMPI POP PUSH1 0x1 PUSH1 0x1 PUSH1 0xA0 SHL SUB DUP2 AND EXTCODESIZE ISZERO JUMPDEST PUSH2 0x6A1 JUMPI POP JUMP JUMPDEST PUSH1 0x40 MLOAD PUSH4 0x5274AFE7 PUSH1 0xE0 SHL DUP2 MSTORE PUSH1 0x1 PUSH1 0x1 PUSH1 0xA0 SHL SUB SWAP1 SWAP2 AND PUSH1 0x4 DUP3 ADD MSTORE PUSH1 0x24 SWAP1 REVERT JUMPDEST PUSH1 0x1 EQ ISZERO PUSH2 0x69A JUMP JUMPDEST PUSH1 0x40 MLOAD RETURNDATASIZE PUSH0 DUP3 RETURNDATACOPY RETURNDATASIZE SWAP1 REVERT JUMPDEST SWAP2 SWAP1 DUP3 SUB SWAP2 DUP3 GT PUSH2 0x5D4 JUMPI JUMP JUMPDEST DUP2 DUP2 MUL SWAP3 SWAP2 DUP2 ISZERO SWAP2 DUP5 DIV EQ OR ISZERO PUSH2 0x5D4 JUMPI JUMP JUMPDEST PUSH1 0x1 DUP1 PUSH1 0xA0 SHL SUB AND PUSH0 MSTORE PUSH1 0x3 PUSH1 0x20 MSTORE PUSH1 0x40 PUSH0 KECCAK256 PUSH1 0x1 DUP2 ADD SWAP1 DUP2 SLOAD ISZERO PUSH2 0x773 JUMPI PUSH2 0x721 DUP3 SLOAD NUMBER PUSH2 0x6D7 JUMP JUMPDEST SWAP1 DUP2 ISZERO ISZERO DUP1 PUSH2 0x769 JUMPI JUMPDEST PUSH2 0x737 JUMPI JUMPDEST POP POP NUMBER SWAP1 SSTORE JUMP JUMPDEST PUSH1 0x2 PUSH2 0x748 PUSH2 0x75F SWAP4 DUP4 SLOAD SWAP1 PUSH2 0x6E4 JUMP JUMPDEST SWAP2 ADD PUSH2 0x755 DUP3 DUP3 SLOAD PUSH2 0x5C7 JUMP JUMPDEST SWAP1 SSTORE PUSH1 0x2 SLOAD PUSH2 0x5C7 JUMP JUMPDEST PUSH1 0x2 SSTORE PUSH0 DUP1 PUSH2 0x730 JUMP JUMPDEST POP DUP1 SLOAD ISZERO ISZERO PUSH2 0x72B JUMP JUMPDEST POP NUMBER SWAP1 SSTORE JUMP JUMPDEST PUSH1 0x40 MLOAD PUSH4 0xA9059CBB PUSH1 0xE0 SHL PUSH1 0x20 DUP3 ADD MSTORE PUSH1 0x1 PUSH1 0x1 PUSH1 0xA0 SHL SUB SWAP1 SWAP3 AND PUSH1 0x24 DUP4 ADD MSTORE PUSH1 0x44 DUP1 DUP4 ADD SWAP4 SWAP1 SWAP4 MSTORE SWAP2 DUP2 MSTORE PUSH1 0x80 DUP2 ADD SWAP2 PUSH8 0xFFFFFFFFFFFFFFFF DUP4 GT DUP3 DUP5 LT OR PUSH2 0x65E JUMPI PUSH2 0x7C9 SWAP3 PUSH1 0x40 MSTORE PUSH2 0x672 JUMP JUMPDEST JUMP JUMPDEST DUP2 ISZERO PUSH2 0x7D5 JUMPI DIV SWAP1 JUMP JUMPDEST PUSH4 0x4E487B71 PUSH1 0xE0 SHL PUSH0 MSTORE PUSH1 0x12 PUSH1 0x4 MSTORE PUSH1 0x24 PUSH0 REVERT JUMPDEST PUSH2 0x7F2 CALLER PUSH2 0x6F7 JUMP JUMPDEST PUSH0 SWAP1 CALLER DUP3 MSTORE PUSH1 0x20 SWAP2 PUSH1 0x3 DUP4 MSTORE PUSH1 0x40 SWAP3 PUSH1 0x2 DUP5 DUP4 KECCAK256 ADD SWAP4 DUP5 SLOAD DUP1 ISZERO DUP1 ISZERO PUSH2 0x9D2 JUMPI JUMPDEST PUSH2 0x9CA JUMPI PUSH2 0x85A PUSH2 0x863 SWAP2 PUSH2 0x854 PUSH2 0x82D PUSH1 0x1 SLOAD NUMBER PUSH2 0x6D7 JUMP JUMPDEST PUSH32 0x0 SWAP1 PUSH2 0x6E4 JUMP JUMPDEST SWAP1 PUSH2 0x6E4 JUMP JUMPDEST PUSH1 0x2 SLOAD SWAP1 PUSH2 0x7CB JUMP JUMPDEST DUP2 MLOAD PUSH4 0x70A08231 PUSH1 0xE0 SHL DUP1 DUP3 MSTORE ADDRESS PUSH1 0x4 DUP4 ADD MSTORE PUSH32 0x0 PUSH1 0x1 PUSH1 0x1 PUSH1 0xA0 SHL SUB DUP2 AND SWAP9 SWAP4 SWAP7 SWAP4 SWAP3 SWAP1 SWAP2 SWAP1 DUP7 DUP2 PUSH1 0x24 DUP2 DUP14 GAS STATICCALL SWAP1 DUP2 ISZERO PUSH2 0x9C0 JUMPI DUP6 SWAP2 PUSH2 0x98F JUMPI JUMPDEST POP DUP8 GT PUSH2 0x926 JUMPI JUMPDEST POP DUP6 DUP1 PUSH32 0xD8138F8A3F377C5259CA548E70E4C2DE94F129F5A11036A15B69513CBA2B426A SWAP8 SWAP9 SWAP10 POP PUSH2 0x914 JUMPI JUMPDEST POP POP PUSH2 0x903 DUP2 SLOAD PUSH1 0x2 SLOAD PUSH2 0x6D7 JUMP JUMPDEST PUSH1 0x2 SSTORE SSTORE NUMBER PUSH1 0x1 SSTORE MLOAD SWAP3 DUP4 MSTORE CALLER SWAP3 LOG2 JUMP JUMPDEST PUSH2 0x91F SWAP2 CALLER SWAP1 PUSH2 0x779 JUMP JUMPDEST PUSH0 DUP7 PUSH2 0x8F4 JUMP JUMPDEST DUP6 SWAP2 SWAP7 POP PUSH1 0x24 DUP6 MLOAD DUP1 SWAP11 DUP2 SWAP4 DUP3 MSTORE ADDRESS PUSH1 0x4 DUP4 ADD MSTORE GAS STATICCALL DUP1 ISZERO PUSH2 0x985 JUMPI DUP3 SWAP1 PUSH2 0x955 JUMPI JUMPDEST SWAP6 SWAP7 POP DUP7 SWAP6 SWAP5 PUSH0 PUSH2 0x8C7 JUMP JUMPDEST POP DUP4 DUP8 DUP2 RETURNDATASIZE DUP4 GT PUSH2 0x97E JUMPI JUMPDEST PUSH2 0x96B DUP2 DUP4 PUSH2 0x63C JUMP JUMPDEST DUP2 ADD SUB SLT PUSH2 0xD4 JUMPI SWAP6 MLOAD SWAP5 SWAP6 DUP7 SWAP6 PUSH2 0x949 JUMP JUMPDEST POP RETURNDATASIZE PUSH2 0x961 JUMP JUMPDEST DUP4 MLOAD RETURNDATASIZE DUP5 DUP3 RETURNDATACOPY RETURNDATASIZE SWAP1 REVERT JUMPDEST SWAP1 POP DUP7 DUP2 DUP2 RETURNDATASIZE DUP4 GT PUSH2 0x9B9 JUMPI JUMPDEST PUSH2 0x9A6 DUP2 DUP4 PUSH2 0x63C JUMP JUMPDEST DUP2 ADD SUB SLT PUSH2 0x9B5 JUMPI MLOAD PUSH0 PUSH2 0x8BF JUMP JUMPDEST DUP5 DUP1 REVERT JUMPDEST POP RETURNDATASIZE PUSH2 0x99C JUMP JUMPDEST DUP7 MLOAD RETURNDATASIZE DUP8 DUP3 RETURNDATACOPY RETURNDATASIZE SWAP1 REVERT JUMPDEST POP POP POP POP SWAP1 POP JUMP JUMPDEST POP PUSH1 0x2 SLOAD ISZERO PUSH2 0x813 JUMP JUMPDEST PUSH1 0x1 NUMBER DUP2 SSTORE PUSH1 0x2 SLOAD ISZERO PUSH2 0xD97 JUMPI PUSH2 0x9F6 PUSH2 0x82D NUMBER NUMBER PUSH2 0x6D7 JUMP JUMPDEST SWAP1 PUSH1 0x5 DUP3 MUL DUP3 DUP2 DIV PUSH1 0x5 EQ DUP4 ISZERO OR ISZERO PUSH2 0x5D4 JUMPI PUSH1 0x40 MLOAD PUSH4 0x70A08231 PUSH1 0xE0 SHL DUP2 MSTORE ADDRESS PUSH1 0x4 DUP3 ADD MSTORE PUSH2 0x2710 SWAP1 SWAP2 DIV SWAP2 SWAP1 PUSH1 0x20 DUP2 PUSH1 0x24 DUP2 PUSH32 0x0 PUSH1 0x1 PUSH1 0x1 PUSH1 0xA0 SHL SUB AND GAS STATICCALL SWAP1 DUP2 ISZERO PUSH2 0x6CC JUMPI PUSH0 SWAP2 PUSH2 0xD65 JUMPI JUMPDEST POP DUP3 GT PUSH2 0xCD6 JUMPI JUMPDEST DUP2 PUSH2 0xCA6 JUMPI JUMPDEST DUP1 PUSH0 SWAP4 DUP5 SWAP2 JUMPDEST PUSH2 0xAB9 JUMPI JUMPDEST POP POP SWAP2 PUSH1 0x40 SWAP2 PUSH32 0x3C3D358C457D91D874593441791F0B96C90172A78030CE0CE7E8E8C965FE1469 SWAP4 PUSH0 PUSH1 0x2 SSTORE NUMBER SWAP1 SSTORE DUP3 MLOAD SWAP2 DUP3 MSTORE PUSH1 0x20 DUP3 ADD MSTORE LOG1 JUMP JUMPDEST PUSH1 0x4 SLOAD DUP3 LT ISZERO PUSH2 0xCA1 JUMPI PUSH2 0xACC DUP3 PUSH2 0x57E JUMP JUMPDEST SWAP1 SLOAD SWAP6 PUSH1 0x1 DUP1 PUSH1 0xA0 SHL SUB DUP8 DUP4 PUSH1 0x3 SHL SHR AND PUSH0 MSTORE PUSH1 0x3 PUSH1 0x20 MSTORE PUSH1 0x2 PUSH1 0x40 PUSH0 KECCAK256 ADD SWAP7 DUP8 SLOAD DUP1 ISZERO PUSH2 0xC97 JUMPI PUSH2 0x85A PUSH2 0xB0A SWAP2 PUSH2 0xB05 DUP11 DUP9 PUSH2 0x6D7 JUMP JUMPDEST PUSH2 0x6E4 JUMP JUMPDEST PUSH1 0x40 MLOAD PUSH4 0x70A08231 PUSH1 0xE0 SHL DUP2 MSTORE ADDRESS PUSH1 0x4 DUP3 ADD MSTORE SWAP1 SWAP4 SWAP1 PUSH1 0x20 DUP2 PUSH1 0x24 DUP2 PUSH32 0x0 PUSH1 0x1 PUSH1 0x1 PUSH1 0xA0 SHL SUB AND GAS STATICCALL SWAP1 DUP2 ISZERO PUSH2 0x6CC JUMPI PUSH0 SWAP2 PUSH2 0xC65 JUMPI JUMPDEST POP DUP5 GT PUSH2 0xBD6 JUMPI JUMPDEST SWAP2 DUP4 SWAP2 DUP3 PUSH2 0xB7F SWAP5 PUSH0 SWAP7 PUSH2 0xB94 JUMPI JUMPDEST POP POP POP PUSH2 0x5C7 JUMP JUMPDEST SWAP6 SSTORE JUMPDEST PUSH0 NOT DUP3 EQ PUSH2 0x5D4 JUMPI DUP3 DUP1 SWAP3 ADD SWAP2 PUSH2 0xA78 JUMP JUMPDEST PUSH2 0xBCE SWAP3 PUSH1 0x3 SWAP2 SWAP1 SWAP2 SHL SHR PUSH1 0x1 PUSH1 0x1 PUSH1 0xA0 SHL SUB AND PUSH32 0x0 PUSH2 0x779 JUMP JUMPDEST PUSH0 DUP3 DUP2 PUSH2 0xB77 JUMP JUMPDEST PUSH1 0x40 MLOAD PUSH4 0x70A08231 PUSH1 0xE0 SHL DUP2 MSTORE ADDRESS PUSH1 0x4 DUP3 ADD MSTORE SWAP1 SWAP4 POP PUSH1 0x20 DUP2 PUSH1 0x24 DUP2 PUSH32 0x0 PUSH1 0x1 PUSH1 0x1 PUSH1 0xA0 SHL SUB AND GAS STATICCALL SWAP1 DUP2 ISZERO PUSH2 0x6CC JUMPI PUSH0 SWAP2 PUSH2 0xC33 JUMPI JUMPDEST POP SWAP3 PUSH2 0xB68 JUMP JUMPDEST SWAP1 PUSH1 0x20 DUP3 RETURNDATASIZE PUSH1 0x20 GT PUSH2 0xC5D JUMPI JUMPDEST DUP2 PUSH2 0xC4D PUSH1 0x20 SWAP4 DUP4 PUSH2 0x63C JUMP JUMPDEST DUP2 ADD SUB SLT PUSH2 0x153 JUMPI POP MLOAD PUSH0 PUSH2 0xC2C JUMP JUMPDEST RETURNDATASIZE SWAP2 POP PUSH2 0xC40 JUMP JUMPDEST SWAP1 PUSH1 0x20 DUP3 RETURNDATASIZE PUSH1 0x20 GT PUSH2 0xC8F JUMPI JUMPDEST DUP2 PUSH2 0xC7F PUSH1 0x20 SWAP4 DUP4 PUSH2 0x63C JUMP JUMPDEST DUP2 ADD SUB SLT PUSH2 0x153 JUMPI POP MLOAD PUSH0 PUSH2 0xB60 JUMP JUMPDEST RETURNDATASIZE SWAP2 POP PUSH2 0xC72 JUMP JUMPDEST POP POP SWAP6 POP POP PUSH2 0xB82 JUMP JUMPDEST PUSH2 0xA7D JUMP JUMPDEST PUSH2 0xCD1 DUP3 CALLER PUSH32 0x0 PUSH2 0x779 JUMP JUMPDEST PUSH2 0xA72 JUMP JUMPDEST PUSH1 0x40 MLOAD PUSH4 0x70A08231 PUSH1 0xE0 SHL DUP2 MSTORE ADDRESS PUSH1 0x4 DUP3 ADD MSTORE SWAP1 SWAP2 POP PUSH1 0x20 DUP2 PUSH1 0x24 DUP2 PUSH32 0x0 PUSH1 0x1 PUSH1 0x1 PUSH1 0xA0 SHL SUB AND GAS STATICCALL SWAP1 DUP2 ISZERO PUSH2 0x6CC JUMPI PUSH0 SWAP2 PUSH2 0xD33 JUMPI JUMPDEST POP SWAP1 PUSH2 0xA6C JUMP JUMPDEST SWAP1 PUSH1 0x20 DUP3 RETURNDATASIZE PUSH1 0x20 GT PUSH2 0xD5D JUMPI JUMPDEST DUP2 PUSH2 0xD4D PUSH1 0x20 SWAP4 DUP4 PUSH2 0x63C JUMP JUMPDEST DUP2 ADD SUB SLT PUSH2 0x153 JUMPI POP MLOAD PUSH0 PUSH2 0xD2C JUMP JUMPDEST RETURNDATASIZE SWAP2 POP PUSH2 0xD40 JUMP JUMPDEST SWAP1 PUSH1 0x20 DUP3 RETURNDATASIZE PUSH1 0x20 GT PUSH2 0xD8F JUMPI JUMPDEST DUP2 PUSH2 0xD7F PUSH1 0x20 SWAP4 DUP4 PUSH2 0x63C JUMP JUMPDEST DUP2 ADD SUB SLT PUSH2 0x153 JUMPI POP MLOAD PUSH0 PUSH2 0xA64 JUMP JUMPDEST RETURNDATASIZE SWAP2 POP PUSH2 0xD72 JUMP JUMPDEST POP JUMP JUMPDEST PUSH1 0x1 DUP1 PUSH1 0xA0 SHL SUB AND PUSH0 MSTORE PUSH1 0x3 PUSH1 0x20 MSTORE PUSH2 0xDD5 PUSH1 0x40 PUSH0 KECCAK256 PUSH2 0xDCF PUSH1 0x2 DUP3 ADD SLOAD SWAP2 PUSH2 0xDC7 PUSH1 0x1 DUP3 ADD SLOAD NUMBER PUSH2 0x6D7 JUMP JUMPDEST SWAP1 SLOAD SWAP1 PUSH2 0x6E4 JUMP JUMPDEST SWAP1 PUSH2 0x5C7 JUMP JUMPDEST PUSH2 0xDE1 PUSH1 0x1 SLOAD NUMBER PUSH2 0x6D7 JUMP JUMPDEST SWAP1 DUP1 ISZERO DUP1 ISZERO PUSH2 0xE41 JUMPI JUMPDEST PUSH2 0xE3B JUMPI PUSH2 0xE32 PUSH2 0xE29 PUSH2 0xE23 PUSH2 0xE38 SWAP5 PUSH32 0x0 SWAP1 PUSH2 0x6E4 JUMP JUMPDEST DUP4 PUSH2 0x6E4 JUMP JUMPDEST SWAP2 PUSH1 0x2 SLOAD PUSH2 0x5C7 JUMP JUMPDEST SWAP1 PUSH2 0x7CB JUMP JUMPDEST SWAP1 JUMP JUMPDEST POP POP PUSH0 SWAP1 JUMP JUMPDEST POP PUSH2 0xE4E DUP2 PUSH1 0x2 SLOAD PUSH2 0x5C7 JUMP JUMPDEST ISZERO PUSH2 0xDEB JUMP INVALID LOG2 PUSH5 0x6970667358 0x22 SLT KECCAK256 SWAP7 MUL DUP14 PUSH27 0x81E2E3E22E0E2A70CDE292647305447F5FD91D0A196FF27F0986 0xC PUSH5 0x736F6C6343 STOP ADDMOD EQ STOP CALLER "
		},
		"gasEstimates": {
			"creation": {
				"codeDepositCost": "744400",
				"executionCost": "infinite",
				"totalCost": "infinite"
			},
			"external": {
				"BP_DENOM()": "256",
				"CALLER_FEE_BP()": "449",
				"claimAll()": "infinite",
				"claimSelf()": "infinite",
				"deposit(uint256)": "infinite",
				"lastRewardBlock()": "2428",
				"lpToken()": "infinite",
				"participants(uint256)": "6654",
				"pendingReward(address)": "infinite",
				"rewardPerBlock()": "infinite",
				"rewardToken()": "infinite",
				"totalXP()": "2450",
				"users(address)": "8900",
				"withdraw(uint256)": "infinite"
			},
			"internal": {
				"_updateAllXP()": "infinite",
				"_updateUserXP(address)": "infinite"
			}
		},
		"methodIdentifiers": {
			"BP_DENOM()": "71bf8623",
			"CALLER_FEE_BP()": "fc7039e0",
			"claimAll()": "d1058e59",
			"claimSelf()": "1137c55f",
			"deposit(uint256)": "b6b55f25",
			"lastRewardBlock()": "a9f8d181",
			"lpToken()": "5fcbd285",
			"participants(uint256)": "35c1d349",
			"pendingReward(address)": "f40f0f52",
			"rewardPerBlock()": "8ae39cac",
			"rewardToken()": "f7c618c1",
			"totalXP()": "aa93bfa8",
			"users(address)": "a87430ba",
			"withdraw(uint256)": "2e1a7d4d"
		}
	},
	"abi": [
		{
			"inputs": [
				{
					"internalType": "address",
					"name": "_lpToken",
					"type": "address"
				},
				{
					"internalType": "address",
					"name": "_rewardToken",
					"type": "address"
				}
			],
			"stateMutability": "nonpayable",
			"type": "constructor"
		},
		{
			"inputs": [
				{
					"internalType": "address",
					"name": "token",
					"type": "address"
				}
			],
			"name": "SafeERC20FailedOperation",
			"type": "error"
		},
		{
			"anonymous": false,
			"inputs": [
				{
					"indexed": false,
					"internalType": "uint256",
					"name": "totalDistributed",
					"type": "uint256"
				},
				{
					"indexed": false,
					"internalType": "uint256",
					"name": "callerReward",
					"type": "uint256"
				}
			],
			"name": "ClaimAll",
			"type": "event"
		},
		{
			"anonymous": false,
			"inputs": [
				{
					"indexed": true,
					"internalType": "address",
					"name": "user",
					"type": "address"
				},
				{
					"indexed": false,
					"internalType": "uint256",
					"name": "reward",
					"type": "uint256"
				}
			],
			"name": "Claimed",
			"type": "event"
		},
		{
			"anonymous": false,
			"inputs": [
				{
					"indexed": true,
					"internalType": "address",
					"name": "user",
					"type": "address"
				},
				{
					"indexed": false,
					"internalType": "uint256",
					"name": "amount",
					"type": "uint256"
				}
			],
			"name": "Deposited",
			"type": "event"
		},
		{
			"anonymous": false,
			"inputs": [
				{
					"indexed": true,
					"internalType": "address",
					"name": "user",
					"type": "address"
				},
				{
					"indexed": false,
					"internalType": "uint256",
					"name": "amount",
					"type": "uint256"
				}
			],
			"name": "Withdrawn",
			"type": "event"
		},
		{
			"inputs": [],
			"name": "BP_DENOM",
			"outputs": [
				{
					"internalType": "uint256",
					"name": "",
					"type": "uint256"
				}
			],
			"stateMutability": "view",
			"type": "function"
		},
		{
			"inputs": [],
			"name": "CALLER_FEE_BP",
			"outputs": [
				{
					"internalType": "uint256",
					"name": "",
					"type": "uint256"
				}
			],
			"stateMutability": "view",
			"type": "function"
		},
		{
			"inputs": [],
			"name": "claimAll",
			"outputs": [],
			"stateMutability": "nonpayable",
			"type": "function"
		},
		{
			"inputs": [],
			"name": "claimSelf",
			"outputs": [],
			"stateMutability": "nonpayable",
			"type": "function"
		},
		{
			"inputs": [
				{
					"internalType": "uint256",
					"name": "amount",
					"type": "uint256"
				}
			],
			"name": "deposit",
			"outputs": [],
			"stateMutability": "nonpayable",
			"type": "function"
		},
		{
			"inputs": [],
			"name": "lastRewardBlock",
			"outputs": [
				{
					"internalType": "uint256",
					"name": "",
					"type": "uint256"
				}
			],
			"stateMutability": "view",
			"type": "function"
		},
		{
			"inputs": [],
			"name": "lpToken",
			"outputs": [
				{
					"internalType": "contract IERC20",
					"name": "",
					"type": "address"
				}
			],
			"stateMutability": "view",
			"type": "function"
		},
		{
			"inputs": [
				{
					"internalType": "uint256",
					"name": "",
					"type": "uint256"
				}
			],
			"name": "participants",
			"outputs": [
				{
					"internalType": "address",
					"name": "",
					"type": "address"
				}
			],
			"stateMutability": "view",
			"type": "function"
		},
		{
			"inputs": [
				{
					"internalType": "address",
					"name": "userAddr",
					"type": "address"
				}
			],
			"name": "pendingReward",
			"outputs": [
				{
					"internalType": "uint256",
					"name": "",
					"type": "uint256"
				}
			],
			"stateMutability": "view",
			"type": "function"
		},
		{
			"inputs": [],
			"name": "rewardPerBlock",
			"outputs": [
				{
					"internalType": "uint256",
					"name": "",
					"type": "uint256"
				}
			],
			"stateMutability": "view",
			"type": "function"
		},
		{
			"inputs": [],
			"name": "rewardToken",
			"outputs": [
				{
					"internalType": "contract IERC20",
					"name": "",
					"type": "address"
				}
			],
			"stateMutability": "view",
			"type": "function"
		},
		{
			"inputs": [],
			"name": "totalXP",
			"outputs": [
				{
					"internalType": "uint256",
					"name": "",
					"type": "uint256"
				}
			],
			"stateMutability": "view",
			"type": "function"
		},
		{
			"inputs": [
				{
					"internalType": "address",
					"name": "",
					"type": "address"
				}
			],
			"name": "users",
			"outputs": [
				{
					"internalType": "uint256",
					"name": "balance",
					"type": "uint256"
				},
				{
					"internalType": "uint256",
					"name": "lastUpdateBlock",
					"type": "uint256"
				},
				{
					"internalType": "uint256",
					"name": "xp",
					"type": "uint256"
				},
				{
					"internalType": "uint256",
					"name": "pendingReward",
					"type": "uint256"
				}
			],
			"stateMutability": "view",
			"type": "function"
		},
		{
			"inputs": [
				{
					"internalType": "uint256",
					"name": "amount",
					"type": "uint256"
				}
			],
			"name": "withdraw",
			"outputs": [],
			"stateMutability": "nonpayable",
			"type": "function"
		}
	]
}