{
	"data": {
		"bytecode": {
			"linkReferences": {},
			"object": "610100604090808252346200021e57606081620013b4803803809162000026828562000222565b8339810103126200021e576200003c816200025a565b62000057836200004f602085016200025a565b93016200025a565b915f92600184553315620002065760018054336001600160a01b0319821681179092558651946020948694600494869491936001600160a01b03939284929083167f8be0079c531659141344cd1fd0a4f28419497f9722a3daafe3b4186f6b6457e08d80a31660805216908160a05260c05263313ce56760e01b82525afa8015620001fc578290620001b5575b60ff915016604d8111620001a157600a0a90630bebc20091808302928304036200018d575061cd50900460e052436003555161114490816200027082396080518181816101a50152818161067f015281816106fb015281816108000152610b1b015260a05181818161026f01528181610f2d0152610fa4015260c0518181816105ab01526106da015260e0518181816105f201528181610de40152818161103701526110e40152f35b634e487b7160e01b81526011600452602490fd5b634e487b7160e01b82526011600452602482fd5b506020813d8211620001f3575b81620001d16020938362000222565b81010312620001ef575160ff81168103620001ef5760ff90620000e4565b5080fd5b3d9150620001c2565b83513d84823e3d90fd5b8451631e4fbdf760e01b815260048101859052602490fd5b5f80fd5b601f909101601f19168101906001600160401b038211908210176200024657604052565b634e487b7160e01b5f52604160045260245ffd5b51906001600160a01b03821682036200021e5756fe60406080815260049081361015610014575f80fd5b5f91823560e01c9081632e1a7d4d146109025781632f4f21e21461088f57816335c1d3491461084e578163362f04c01461082f5781635fcbd285146107eb578163715018a61461078e57816371bf862314610771578163853828b6146106155781638ae39cac146105da5781638ce74426146105965781638da5cb5b1461056d578163a87430ba1461051f578163a9f8d18114610500578163aa93bfa8146104e2578163b6b55f25146104bb578163c0d7865514610416578163d1058e59146103eb578163e7a0fb9b146103ce578163e9503425146103a1578163e9e7eb351461032e578163f2fde38b1461029e578163f7c618c11461025a578163f7e4cd0d1461017957508063f887ea40146101515763fc7039e014610133575f80fd5b3461014d578160031936011261014d576020905160058152f35b5080fd5b503461014d578160031936011261014d5760025490516001600160a01b039091168152602090f35b9190503461023157826003193601126102315780516370a0823160e01b815230838201526020816024817f00000000000000000000000000000000000000000000000000000000000000006001600160a01b03165afa9283156102505784936101e7575b6020848451908152f35b909192506020903d8211610248575b601f8201601f191683019067ffffffffffffffff82118483101761023557506020918391855281010312610231576020925051905f806101dd565b8280fd5b634e487b7160e01b865260419052602485fd5b3d91506101f6565b82513d86823e3d90fd5b50503461014d578160031936011261014d57517f00000000000000000000000000000000000000000000000000000000000000006001600160a01b03168152602090f35b905034610231576020366003190112610231576102b96109b3565b906102c2610a16565b6001600160a01b03918216928315610318575050600154826bffffffffffffffffffffffff60a01b821617600155167f8be0079c531659141344cd1fd0a4f28419497f9722a3daafe3b4186f6b6457e08380a380f35b51631e4fbdf760e01b8152908101849052602490fd5b50503461014d57602036600319011261014d5760209181906001600160a01b036103566109b3565b168152600584522090600282015491600181015480610378575b505051908152f35b61039992939161038b6103939243610ca4565b905490610cb1565b90610a96565b905f80610370565b50503461014d57602036600319011261014d576020906103c76103c26109b3565b610fdb565b9051908152f35b50503461014d578160031936011261014d576020906103c76110cc565b8334610413578060031936011261041357610404610a42565b61040c610dc4565b6001815580f35b80fd5b91905034610231576020366003190112610231576104326109b3565b61043a610a16565b6001600160a01b031691821561048a5750600280546001600160a01b03191683179055519081527fc6b438e6a8a59579ce6a4406cbd203b740e0d47b458aae6596339bcd40c40d1590602090a180f35b6020606492519162461bcd60e51b8352820152600c60248201526b7a65726f206164647265737360a01b6044820152fd5b83903461014d57602036600319011261014d5761040c906104da610a42565b353333610ab7565b90503461023157826003193601126102315760209250549051908152f35b50503461014d578160031936011261014d576020906003549051908152f35b50503461014d57602036600319011261014d5760609181906001600160a01b036105476109b3565b168152600560205220805491600260018301549201549181519384526020840152820152f35b50503461014d578160031936011261014d5760015490516001600160a01b039091168152602090f35b50503461014d578160031936011261014d57517f00000000000000000000000000000000000000000000000000000000000000006001600160a01b03168152602090f35b50503461014d578160031936011261014d57602090517f00000000000000000000000000000000000000000000000000000000000000008152f35b91905034610231578260031936011261023157610630610a42565b338352600560205280832091825492831561073857849061065033610cc4565b556032830290838204603203610725575061271061067091048093610ca4565b91806106d4575b506106a382337f0000000000000000000000000000000000000000000000000000000000000000610d64565b519081527f7084f5476618d8e60b11ef0d7d3f06914655adb8793e28ff7f018d4c76d505d560203392a26001815580f35b61071f907f00000000000000000000000000000000000000000000000000000000000000007f0000000000000000000000000000000000000000000000000000000000000000610d64565b5f610677565b634e487b7160e01b855260119052602484fd5b506020606492519162461bcd60e51b835282015260136024820152726e6f7468696e6720746f20776974686472617760681b6044820152fd5b50503461014d578160031936011261014d57602090516127108152f35b83346104135780600319360112610413576107a7610a16565b600180546001600160a01b0319811690915581906001600160a01b03167f8be0079c531659141344cd1fd0a4f28419497f9722a3daafe3b4186f6b6457e08280a380f35b50503461014d578160031936011261014d57517f00000000000000000000000000000000000000000000000000000000000000006001600160a01b03168152602090f35b50503461014d578160031936011261014d576020906006549051908152f35b90503461023157602036600319011261023157359160065483101561041357506108796020926109cd565b905491519160018060a01b039160031b1c168152f35b9050346102315781600319360112610231576108a96109b3565b916108b2610a42565b6002546001600160a01b031633036108d2578361040c6024358533610ab7565b906020606492519162461bcd60e51b8352820152600a6024820152693737ba103937baba32b960b11b6044820152fd5b9190503461023157602036600319011261023157813591610921610a42565b3384526005602052818420908315918215806109a8575b156109745761094633610cc4565b610951858254610ca4565b905560328402918483046032141715610725575061271061067091048093610ca4565b835162461bcd60e51b8152602081840152600e60248201526d1a5b9d985b1a5908185b5bdd5b9d60921b6044820152606490fd5b508054851115610938565b600435906001600160a01b03821682036109c957565b5f80fd5b600654811015610a025760065f527ff652222313e28459528d920b65115c16c04f3efc82aaedc97be59f3f377c0d3f01905f90565b634e487b7160e01b5f52603260045260245ffd5b6001546001600160a01b03163303610a2a57565b60405163118cdaa760e01b8152336004820152602490fd5b60025f5414610a515760025f55565b60405162461bcd60e51b815260206004820152601f60248201527f5265656e7472616e637947756172643a207265656e7472616e742063616c6c006044820152606490fd5b91908201809211610aa357565b634e487b7160e01b5f52601160045260245ffd5b91908115610c0b57610ac881610cc4565b6040516323b872dd60e01b60208201526001600160a01b039384166024820152306044820152606480820184905281529060a0820167ffffffffffffffff811183821017610bf7578492610b3f916040527f0000000000000000000000000000000000000000000000000000000000000000610c3f565b1691825f52600560205260405f2090815415610b92575b508181610b877f2da466a7b24304f47e87fa2e1e5a81b9831ce54fec19055ce277ca2f39ba42c49460209454610a96565b9055604051908152a2565b916006549168010000000000000000831015610bf7577f2da466a7b24304f47e87fa2e1e5a81b9831ce54fec19055ce277ca2f39ba42c493610bdc846001602096016006556109cd565b819291549060031b9188831b921b1916179055915091610b56565b634e487b7160e01b5f52604160045260245ffd5b60405162461bcd60e51b815260206004820152600c60248201526b1e995c9bc819195c1bdcda5d60a21b6044820152606490fd5b905f602091828151910182855af115610c99575f513d610c9057506001600160a01b0381163b155b610c6e5750565b604051635274afe760e01b81526001600160a01b039091166004820152602490fd5b60011415610c67565b6040513d5f823e3d90fd5b91908203918211610aa357565b81810292918115918404141715610aa357565b60018060a01b03165f52600560205260405f206001810190815415610d4057610cee825443610ca4565b9081151580610d36575b610d04575b5050439055565b6002610d15610d2c93835490610cb1565b9101610d22828254610a96565b9055600454610a96565b6004555f80610cfd565b5080541515610cf8565b50439055565b8115610d50570490565b634e487b7160e01b5f52601260045260245ffd5b60405163a9059cbb60e01b60208201526001600160a01b039092166024830152604480830193909352918152608081019167ffffffffffffffff831182841017610bf757610db492604052610c3f565b565b5f198114610aa35760010190565b6003610dd1815443610ca4565b80158015610fd1575b610fcd57610e09907f000000000000000000000000000000000000000000000000000000000000000090610cb1565b905f5b600654811015610e945780610e23610e88926109cd565b905490841b1c6001600160a01b03165f9081526005602052604090208054908115610e8d576002610e626001830193610e5d855443610ca4565b610cb1565b9101610e6f828254610a96565b9055610e7e6004918254610a96565b9055439055610db6565b610e0c565b5050610db6565b506005808302838104821484151715610aa357612710610ebb9104809481610f9d57610ca4565b915f5b600654811015610f605780610ed5610f22926109cd565b905490841b1c6001600160a01b03165f8181526020869052604090206002018054918215610f5857610f14610f0b5f948a610cb1565b60045490610d46565b80610f27575b505055610db6565b610ebe565b610f51917f0000000000000000000000000000000000000000000000000000000000000000610d64565b5f80610f1a565b505050610db6565b506040929150927f3c3d358c457d91d874593441791f0b96c90172a78030ce0ce7e8e8c965fe1469935f60045543905582519182526020820152a1565b610fc882337f0000000000000000000000000000000000000000000000000000000000000000610d64565b610ca4565b5050565b5060045415610dda565b6001600160a01b03165f90815260056020526040812080549182156110a45761100660035443610ca4565b9283156110c55760016002840154930154806110aa575b505081156110a45761105c61103483600454610a96565b937f000000000000000000000000000000000000000000000000000000000000000090610cb1565b90600582029082820460051483151715611090575091610e5d6110889261271061108d96950490610ca4565b610d46565b90565b634e487b7160e01b81526011600452602490fd5b91505090565b6110bd929391610e5d6103939243610ca4565b905f8061101d565b5091505090565b6110d860035443610ca4565b80156111095761108d907f000000000000000000000000000000000000000000000000000000000000000090610cb1565b505f9056fea26469706673582212204b36471077e49876c2527cc69d51273ca11fce4e25326492eef269c682c0e61664736f6c63430008140033",
			"opcodes": "PUSH2 0x100 PUSH1 0x40 SWAP1 DUP1 DUP3 MSTORE CALLVALUE PUSH3 0x21E JUMPI PUSH1 0x60 DUP2 PUSH3 0x13B4 DUP1 CODESIZE SUB DUP1 SWAP2 PUSH3 0x26 DUP3 DUP6 PUSH3 0x222 JUMP JUMPDEST DUP4 CODECOPY DUP2 ADD SUB SLT PUSH3 0x21E JUMPI PUSH3 0x3C DUP2 PUSH3 0x25A JUMP JUMPDEST PUSH3 0x57 DUP4 PUSH3 0x4F PUSH1 0x20 DUP6 ADD PUSH3 0x25A JUMP JUMPDEST SWAP4 ADD PUSH3 0x25A JUMP JUMPDEST SWAP2 PUSH0 SWAP3 PUSH1 0x1 DUP5 SSTORE CALLER ISZERO PUSH3 0x206 JUMPI PUSH1 0x1 DUP1 SLOAD CALLER PUSH1 0x1 PUSH1 0x1 PUSH1 0xA0 SHL SUB NOT DUP3 AND DUP2 OR SWAP1 SWAP3 SSTORE DUP7 MLOAD SWAP5 PUSH1 0x20 SWAP5 DUP7 SWAP5 PUSH1 0x4 SWAP5 DUP7 SWAP5 SWAP2 SWAP4 PUSH1 0x1 PUSH1 0x1 PUSH1 0xA0 SHL SUB SWAP4 SWAP3 DUP5 SWAP3 SWAP1 DUP4 AND PUSH32 0x8BE0079C531659141344CD1FD0A4F28419497F9722A3DAAFE3B4186F6B6457E0 DUP14 DUP1 LOG3 AND PUSH1 0x80 MSTORE AND SWAP1 DUP2 PUSH1 0xA0 MSTORE PUSH1 0xC0 MSTORE PUSH4 0x313CE567 PUSH1 0xE0 SHL DUP3 MSTORE GAS STATICCALL DUP1 ISZERO PUSH3 0x1FC JUMPI DUP3 SWAP1 PUSH3 0x1B5 JUMPI JUMPDEST PUSH1 0xFF SWAP2 POP AND PUSH1 0x4D DUP2 GT PUSH3 0x1A1 JUMPI PUSH1 0xA EXP SWAP1 PUSH4 0xBEBC200 SWAP2 DUP1 DUP4 MUL SWAP3 DUP4 DIV SUB PUSH3 0x18D JUMPI POP PUSH2 0xCD50 SWAP1 DIV PUSH1 0xE0 MSTORE NUMBER PUSH1 0x3 SSTORE MLOAD PUSH2 0x1144 SWAP1 DUP2 PUSH3 0x270 DUP3 CODECOPY PUSH1 0x80 MLOAD DUP2 DUP2 DUP2 PUSH2 0x1A5 ADD MSTORE DUP2 DUP2 PUSH2 0x67F ADD MSTORE DUP2 DUP2 PUSH2 0x6FB ADD MSTORE DUP2 DUP2 PUSH2 0x800 ADD MSTORE PUSH2 0xB1B ADD MSTORE PUSH1 0xA0 MLOAD DUP2 DUP2 DUP2 PUSH2 0x26F ADD MSTORE DUP2 DUP2 PUSH2 0xF2D ADD MSTORE PUSH2 0xFA4 ADD MSTORE PUSH1 0xC0 MLOAD DUP2 DUP2 DUP2 PUSH2 0x5AB ADD MSTORE PUSH2 0x6DA ADD MSTORE PUSH1 0xE0 MLOAD DUP2 DUP2 DUP2 PUSH2 0x5F2 ADD MSTORE DUP2 DUP2 PUSH2 0xDE4 ADD MSTORE DUP2 DUP2 PUSH2 0x1037 ADD MSTORE PUSH2 0x10E4 ADD MSTORE RETURN JUMPDEST PUSH4 0x4E487B71 PUSH1 0xE0 SHL DUP2 MSTORE PUSH1 0x11 PUSH1 0x4 MSTORE PUSH1 0x24 SWAP1 REVERT JUMPDEST PUSH4 0x4E487B71 PUSH1 0xE0 SHL DUP3 MSTORE PUSH1 0x11 PUSH1 0x4 MSTORE PUSH1 0x24 DUP3 REVERT JUMPDEST POP PUSH1 0x20 DUP2 RETURNDATASIZE DUP3 GT PUSH3 0x1F3 JUMPI JUMPDEST DUP2 PUSH3 0x1D1 PUSH1 0x20 SWAP4 DUP4 PUSH3 0x222 JUMP JUMPDEST DUP2 ADD SUB SLT PUSH3 0x1EF JUMPI MLOAD PUSH1 0xFF DUP2 AND DUP2 SUB PUSH3 0x1EF JUMPI PUSH1 0xFF SWAP1 PUSH3 0xE4 JUMP JUMPDEST POP DUP1 REVERT JUMPDEST RETURNDATASIZE SWAP2 POP PUSH3 0x1C2 JUMP JUMPDEST DUP4 MLOAD RETURNDATASIZE DUP5 DUP3 RETURNDATACOPY RETURNDATASIZE SWAP1 REVERT JUMPDEST DUP5 MLOAD PUSH4 0x1E4FBDF7 PUSH1 0xE0 SHL DUP2 MSTORE PUSH1 0x4 DUP2 ADD DUP6 SWAP1 MSTORE PUSH1 0x24 SWAP1 REVERT JUMPDEST PUSH0 DUP1 REVERT JUMPDEST PUSH1 0x1F SWAP1 SWAP2 ADD PUSH1 0x1F NOT AND DUP2 ADD SWAP1 PUSH1 0x1 PUSH1 0x1 PUSH1 0x40 SHL SUB DUP3 GT SWAP1 DUP3 LT OR PUSH3 0x246 JUMPI PUSH1 0x40 MSTORE JUMP JUMPDEST PUSH4 0x4E487B71 PUSH1 0xE0 SHL PUSH0 MSTORE PUSH1 0x41 PUSH1 0x4 MSTORE PUSH1 0x24 PUSH0 REVERT JUMPDEST MLOAD SWAP1 PUSH1 0x1 PUSH1 0x1 PUSH1 0xA0 SHL SUB DUP3 AND DUP3 SUB PUSH3 0x21E JUMPI JUMP INVALID PUSH1 0x40 PUSH1 0x80 DUP2 MSTORE PUSH1 0x4 SWAP1 DUP2 CALLDATASIZE LT ISZERO PUSH2 0x14 JUMPI PUSH0 DUP1 REVERT JUMPDEST PUSH0 SWAP2 DUP3 CALLDATALOAD PUSH1 0xE0 SHR SWAP1 DUP2 PUSH4 0x2E1A7D4D EQ PUSH2 0x902 JUMPI DUP2 PUSH4 0x2F4F21E2 EQ PUSH2 0x88F JUMPI DUP2 PUSH4 0x35C1D349 EQ PUSH2 0x84E JUMPI DUP2 PUSH4 0x362F04C0 EQ PUSH2 0x82F JUMPI DUP2 PUSH4 0x5FCBD285 EQ PUSH2 0x7EB JUMPI DUP2 PUSH4 0x715018A6 EQ PUSH2 0x78E JUMPI DUP2 PUSH4 0x71BF8623 EQ PUSH2 0x771 JUMPI DUP2 PUSH4 0x853828B6 EQ PUSH2 0x615 JUMPI DUP2 PUSH4 0x8AE39CAC EQ PUSH2 0x5DA JUMPI DUP2 PUSH4 0x8CE74426 EQ PUSH2 0x596 JUMPI DUP2 PUSH4 0x8DA5CB5B EQ PUSH2 0x56D JUMPI DUP2 PUSH4 0xA87430BA EQ PUSH2 0x51F JUMPI DUP2 PUSH4 0xA9F8D181 EQ PUSH2 0x500 JUMPI DUP2 PUSH4 0xAA93BFA8 EQ PUSH2 0x4E2 JUMPI DUP2 PUSH4 0xB6B55F25 EQ PUSH2 0x4BB JUMPI DUP2 PUSH4 0xC0D78655 EQ PUSH2 0x416 JUMPI DUP2 PUSH4 0xD1058E59 EQ PUSH2 0x3EB JUMPI DUP2 PUSH4 0xE7A0FB9B EQ PUSH2 0x3CE JUMPI DUP2 PUSH4 0xE9503425 EQ PUSH2 0x3A1 JUMPI DUP2 PUSH4 0xE9E7EB35 EQ PUSH2 0x32E JUMPI DUP2 PUSH4 0xF2FDE38B EQ PUSH2 0x29E JUMPI DUP2 PUSH4 0xF7C618C1 EQ PUSH2 0x25A JUMPI DUP2 PUSH4 0xF7E4CD0D EQ PUSH2 0x179 JUMPI POP DUP1 PUSH4 0xF887EA40 EQ PUSH2 0x151 JUMPI PUSH4 0xFC7039E0 EQ PUSH2 0x133 JUMPI PUSH0 DUP1 REVERT JUMPDEST CALLVALUE PUSH2 0x14D JUMPI DUP2 PUSH1 0x3 NOT CALLDATASIZE ADD SLT PUSH2 0x14D JUMPI PUSH1 0x20 SWAP1 MLOAD PUSH1 0x5 DUP2 MSTORE RETURN JUMPDEST POP DUP1 REVERT JUMPDEST POP CALLVALUE PUSH2 0x14D JUMPI DUP2 PUSH1 0x3 NOT CALLDATASIZE ADD SLT PUSH2 0x14D JUMPI PUSH1 0x2 SLOAD SWAP1 MLOAD PUSH1 0x1 PUSH1 0x1 PUSH1 0xA0 SHL SUB SWAP1 SWAP2 AND DUP2 MSTORE PUSH1 0x20 SWAP1 RETURN JUMPDEST SWAP2 SWAP1 POP CALLVALUE PUSH2 0x231 JUMPI DUP3 PUSH1 0x3 NOT CALLDATASIZE ADD SLT PUSH2 0x231 JUMPI DUP1 MLOAD PUSH4 0x70A08231 PUSH1 0xE0 SHL DUP2 MSTORE ADDRESS DUP4 DUP3 ADD MSTORE PUSH1 0x20 DUP2 PUSH1 0x24 DUP2 PUSH32 0x0 PUSH1 0x1 PUSH1 0x1 PUSH1 0xA0 SHL SUB AND GAS STATICCALL SWAP3 DUP4 ISZERO PUSH2 0x250 JUMPI DUP5 SWAP4 PUSH2 0x1E7 JUMPI JUMPDEST PUSH1 0x20 DUP5 DUP5 MLOAD SWAP1 DUP2 MSTORE RETURN JUMPDEST SWAP1 SWAP2 SWAP3 POP PUSH1 0x20 SWAP1 RETURNDATASIZE DUP3 GT PUSH2 0x248 JUMPI JUMPDEST PUSH1 0x1F DUP3 ADD PUSH1 0x1F NOT AND DUP4 ADD SWAP1 PUSH8 0xFFFFFFFFFFFFFFFF DUP3 GT DUP5 DUP4 LT OR PUSH2 0x235 JUMPI POP PUSH1 0x20 SWAP2 DUP4 SWAP2 DUP6 MSTORE DUP2 ADD SUB SLT PUSH2 0x231 JUMPI PUSH1 0x20 SWAP3 POP MLOAD SWAP1 PUSH0 DUP1 PUSH2 0x1DD JUMP JUMPDEST DUP3 DUP1 REVERT JUMPDEST PUSH4 0x4E487B71 PUSH1 0xE0 SHL DUP7 MSTORE PUSH1 0x41 SWAP1 MSTORE PUSH1 0x24 DUP6 REVERT JUMPDEST RETURNDATASIZE SWAP2 POP PUSH2 0x1F6 JUMP JUMPDEST DUP3 MLOAD RETURNDATASIZE DUP7 DUP3 RETURNDATACOPY RETURNDATASIZE SWAP1 REVERT JUMPDEST POP POP CALLVALUE PUSH2 0x14D JUMPI DUP2 PUSH1 0x3 NOT CALLDATASIZE ADD SLT PUSH2 0x14D JUMPI MLOAD PUSH32 0x0 PUSH1 0x1 PUSH1 0x1 PUSH1 0xA0 SHL SUB AND DUP2 MSTORE PUSH1 0x20 SWAP1 RETURN JUMPDEST SWAP1 POP CALLVALUE PUSH2 0x231 JUMPI PUSH1 0x20 CALLDATASIZE PUSH1 0x3 NOT ADD SLT PUSH2 0x231 JUMPI PUSH2 0x2B9 PUSH2 0x9B3 JUMP JUMPDEST SWAP1 PUSH2 0x2C2 PUSH2 0xA16 JUMP JUMPDEST PUSH1 0x1 PUSH1 0x1 PUSH1 0xA0 SHL SUB SWAP2 DUP3 AND SWAP3 DUP4 ISZERO PUSH2 0x318 JUMPI POP POP PUSH1 0x1 SLOAD DUP3 PUSH12 0xFFFFFFFFFFFFFFFFFFFFFFFF PUSH1 0xA0 SHL DUP3 AND OR PUSH1 0x1 SSTORE AND PUSH32 0x8BE0079C531659141344CD1FD0A4F28419497F9722A3DAAFE3B4186F6B6457E0 DUP4 DUP1 LOG3 DUP1 RETURN JUMPDEST MLOAD PUSH4 0x1E4FBDF7 PUSH1 0xE0 SHL DUP2 MSTORE SWAP1 DUP2 ADD DUP5 SWAP1 MSTORE PUSH1 0x24 SWAP1 REVERT JUMPDEST POP POP CALLVALUE PUSH2 0x14D JUMPI PUSH1 0x20 CALLDATASIZE PUSH1 0x3 NOT ADD SLT PUSH2 0x14D JUMPI PUSH1 0x20 SWAP2 DUP2 SWAP1 PUSH1 0x1 PUSH1 0x1 PUSH1 0xA0 SHL SUB PUSH2 0x356 PUSH2 0x9B3 JUMP JUMPDEST AND DUP2 MSTORE PUSH1 0x5 DUP5 MSTORE KECCAK256 SWAP1 PUSH1 0x2 DUP3 ADD SLOAD SWAP2 PUSH1 0x1 DUP2 ADD SLOAD DUP1 PUSH2 0x378 JUMPI JUMPDEST POP POP MLOAD SWAP1 DUP2 MSTORE RETURN JUMPDEST PUSH2 0x399 SWAP3 SWAP4 SWAP2 PUSH2 0x38B PUSH2 0x393 SWAP3 NUMBER PUSH2 0xCA4 JUMP JUMPDEST SWAP1 SLOAD SWAP1 PUSH2 0xCB1 JUMP JUMPDEST SWAP1 PUSH2 0xA96 JUMP JUMPDEST SWAP1 PUSH0 DUP1 PUSH2 0x370 JUMP JUMPDEST POP POP CALLVALUE PUSH2 0x14D JUMPI PUSH1 0x20 CALLDATASIZE PUSH1 0x3 NOT ADD SLT PUSH2 0x14D JUMPI PUSH1 0x20 SWAP1 PUSH2 0x3C7 PUSH2 0x3C2 PUSH2 0x9B3 JUMP JUMPDEST PUSH2 0xFDB JUMP JUMPDEST SWAP1 MLOAD SWAP1 DUP2 MSTORE RETURN JUMPDEST POP POP CALLVALUE PUSH2 0x14D JUMPI DUP2 PUSH1 0x3 NOT CALLDATASIZE ADD SLT PUSH2 0x14D JUMPI PUSH1 0x20 SWAP1 PUSH2 0x3C7 PUSH2 0x10CC JUMP JUMPDEST DUP4 CALLVALUE PUSH2 0x413 JUMPI DUP1 PUSH1 0x3 NOT CALLDATASIZE ADD SLT PUSH2 0x413 JUMPI PUSH2 0x404 PUSH2 0xA42 JUMP JUMPDEST PUSH2 0x40C PUSH2 0xDC4 JUMP JUMPDEST PUSH1 0x1 DUP2 SSTORE DUP1 RETURN JUMPDEST DUP1 REVERT JUMPDEST SWAP2 SWAP1 POP CALLVALUE PUSH2 0x231 JUMPI PUSH1 0x20 CALLDATASIZE PUSH1 0x3 NOT ADD SLT PUSH2 0x231 JUMPI PUSH2 0x432 PUSH2 0x9B3 JUMP JUMPDEST PUSH2 0x43A PUSH2 0xA16 JUMP JUMPDEST PUSH1 0x1 PUSH1 0x1 PUSH1 0xA0 SHL SUB AND SWAP2 DUP3 ISZERO PUSH2 0x48A JUMPI POP PUSH1 0x2 DUP1 SLOAD PUSH1 0x1 PUSH1 0x1 PUSH1 0xA0 SHL SUB NOT AND DUP4 OR SWAP1 SSTORE MLOAD SWAP1 DUP2 MSTORE PUSH32 0xC6B438E6A8A59579CE6A4406CBD203B740E0D47B458AAE6596339BCD40C40D15 SWAP1 PUSH1 0x20 SWAP1 LOG1 DUP1 RETURN JUMPDEST PUSH1 0x20 PUSH1 0x64 SWAP3 MLOAD SWAP2 PUSH3 0x461BCD PUSH1 0xE5 SHL DUP4 MSTORE DUP3 ADD MSTORE PUSH1 0xC PUSH1 0x24 DUP3 ADD MSTORE PUSH12 0x7A65726F2061646472657373 PUSH1 0xA0 SHL PUSH1 0x44 DUP3 ADD MSTORE REVERT JUMPDEST DUP4 SWAP1 CALLVALUE PUSH2 0x14D JUMPI PUSH1 0x20 CALLDATASIZE PUSH1 0x3 NOT ADD SLT PUSH2 0x14D JUMPI PUSH2 0x40C SWAP1 PUSH2 0x4DA PUSH2 0xA42 JUMP JUMPDEST CALLDATALOAD CALLER CALLER PUSH2 0xAB7 JUMP JUMPDEST SWAP1 POP CALLVALUE PUSH2 0x231 JUMPI DUP3 PUSH1 0x3 NOT CALLDATASIZE ADD SLT PUSH2 0x231 JUMPI PUSH1 0x20 SWAP3 POP SLOAD SWAP1 MLOAD SWAP1 DUP2 MSTORE RETURN JUMPDEST POP POP CALLVALUE PUSH2 0x14D JUMPI DUP2 PUSH1 0x3 NOT CALLDATASIZE ADD SLT PUSH2 0x14D JUMPI PUSH1 0x20 SWAP1 PUSH1 0x3 SLOAD SWAP1 MLOAD SWAP1 DUP2 MSTORE RETURN JUMPDEST POP POP CALLVALUE PUSH2 0x14D JUMPI PUSH1 0x20 CALLDATASIZE PUSH1 0x3 NOT ADD SLT PUSH2 0x14D JUMPI PUSH1 0x60 SWAP2 DUP2 SWAP1 PUSH1 0x1 PUSH1 0x1 PUSH1 0xA0 SHL SUB PUSH2 0x547 PUSH2 0x9B3 JUMP JUMPDEST AND DUP2 MSTORE PUSH1 0x5 PUSH1 0x20 MSTORE KECCAK256 DUP1 SLOAD SWAP2 PUSH1 0x2 PUSH1 0x1 DUP4 ADD SLOAD SWAP3 ADD SLOAD SWAP2 DUP2 MLOAD SWAP4 DUP5 MSTORE PUSH1 0x20 DUP5 ADD MSTORE DUP3 ADD MSTORE RETURN JUMPDEST POP POP CALLVALUE PUSH2 0x14D JUMPI DUP2 PUSH1 0x3 NOT CALLDATASIZE ADD SLT PUSH2 0x14D JUMPI PUSH1 0x1 SLOAD SWAP1 MLOAD PUSH1 0x1 PUSH1 0x1 PUSH1 0xA0 SHL SUB SWAP1 SWAP2 AND DUP2 MSTORE PUSH1 0x20 SWAP1 RETURN JUMPDEST POP POP CALLVALUE PUSH2 0x14D JUMPI DUP2 PUSH1 0x3 NOT CALLDATASIZE ADD SLT PUSH2 0x14D JUMPI MLOAD PUSH32 0x0 PUSH1 0x1 PUSH1 0x1 PUSH1 0xA0 SHL SUB AND DUP2 MSTORE PUSH1 0x20 SWAP1 RETURN JUMPDEST POP POP CALLVALUE PUSH2 0x14D JUMPI DUP2 PUSH1 0x3 NOT CALLDATASIZE ADD SLT PUSH2 0x14D JUMPI PUSH1 0x20 SWAP1 MLOAD PUSH32 0x0 DUP2 MSTORE RETURN JUMPDEST SWAP2 SWAP1 POP CALLVALUE PUSH2 0x231 JUMPI DUP3 PUSH1 0x3 NOT CALLDATASIZE ADD SLT PUSH2 0x231 JUMPI PUSH2 0x630 PUSH2 0xA42 JUMP JUMPDEST CALLER DUP4 MSTORE PUSH1 0x5 PUSH1 0x20 MSTORE DUP1 DUP4 KECCAK256 SWAP2 DUP3 SLOAD SWAP3 DUP4 ISZERO PUSH2 0x738 JUMPI DUP5 SWAP1 PUSH2 0x650 CALLER PUSH2 0xCC4 JUMP JUMPDEST SSTORE PUSH1 0x32 DUP4 MUL SWAP1 DUP4 DUP3 DIV PUSH1 0x32 SUB PUSH2 0x725 JUMPI POP PUSH2 0x2710 PUSH2 0x670 SWAP2 DIV DUP1 SWAP4 PUSH2 0xCA4 JUMP JUMPDEST SWAP2 DUP1 PUSH2 0x6D4 JUMPI JUMPDEST POP PUSH2 0x6A3 DUP3 CALLER PUSH32 0x0 PUSH2 0xD64 JUMP JUMPDEST MLOAD SWAP1 DUP2 MSTORE PUSH32 0x7084F5476618D8E60B11EF0D7D3F06914655ADB8793E28FF7F018D4C76D505D5 PUSH1 0x20 CALLER SWAP3 LOG2 PUSH1 0x1 DUP2 SSTORE DUP1 RETURN JUMPDEST PUSH2 0x71F SWAP1 PUSH32 0x0 PUSH32 0x0 PUSH2 0xD64 JUMP JUMPDEST PUSH0 PUSH2 0x677 JUMP JUMPDEST PUSH4 0x4E487B71 PUSH1 0xE0 SHL DUP6 MSTORE PUSH1 0x11 SWAP1 MSTORE PUSH1 0x24 DUP5 REVERT JUMPDEST POP PUSH1 0x20 PUSH1 0x64 SWAP3 MLOAD SWAP2 PUSH3 0x461BCD PUSH1 0xE5 SHL DUP4 MSTORE DUP3 ADD MSTORE PUSH1 0x13 PUSH1 0x24 DUP3 ADD MSTORE PUSH19 0x6E6F7468696E6720746F207769746864726177 PUSH1 0x68 SHL PUSH1 0x44 DUP3 ADD MSTORE REVERT JUMPDEST POP POP CALLVALUE PUSH2 0x14D JUMPI DUP2 PUSH1 0x3 NOT CALLDATASIZE ADD SLT PUSH2 0x14D JUMPI PUSH1 0x20 SWAP1 MLOAD PUSH2 0x2710 DUP2 MSTORE RETURN JUMPDEST DUP4 CALLVALUE PUSH2 0x413 JUMPI DUP1 PUSH1 0x3 NOT CALLDATASIZE ADD SLT PUSH2 0x413 JUMPI PUSH2 0x7A7 PUSH2 0xA16 JUMP JUMPDEST PUSH1 0x1 DUP1 SLOAD PUSH1 0x1 PUSH1 0x1 PUSH1 0xA0 SHL SUB NOT DUP2 AND SWAP1 SWAP2 SSTORE DUP2 SWAP1 PUSH1 0x1 PUSH1 0x1 PUSH1 0xA0 SHL SUB AND PUSH32 0x8BE0079C531659141344CD1FD0A4F28419497F9722A3DAAFE3B4186F6B6457E0 DUP3 DUP1 LOG3 DUP1 RETURN JUMPDEST POP POP CALLVALUE PUSH2 0x14D JUMPI DUP2 PUSH1 0x3 NOT CALLDATASIZE ADD SLT PUSH2 0x14D JUMPI MLOAD PUSH32 0x0 PUSH1 0x1 PUSH1 0x1 PUSH1 0xA0 SHL SUB AND DUP2 MSTORE PUSH1 0x20 SWAP1 RETURN JUMPDEST POP POP CALLVALUE PUSH2 0x14D JUMPI DUP2 PUSH1 0x3 NOT CALLDATASIZE ADD SLT PUSH2 0x14D JUMPI PUSH1 0x20 SWAP1 PUSH1 0x6 SLOAD SWAP1 MLOAD SWAP1 DUP2 MSTORE RETURN JUMPDEST SWAP1 POP CALLVALUE PUSH2 0x231 JUMPI PUSH1 0x20 CALLDATASIZE PUSH1 0x3 NOT ADD SLT PUSH2 0x231 JUMPI CALLDATALOAD SWAP2 PUSH1 0x6 SLOAD DUP4 LT ISZERO PUSH2 0x413 JUMPI POP PUSH2 0x879 PUSH1 0x20 SWAP3 PUSH2 0x9CD JUMP JUMPDEST SWAP1 SLOAD SWAP2 MLOAD SWAP2 PUSH1 0x1 DUP1 PUSH1 0xA0 SHL SUB SWAP2 PUSH1 0x3 SHL SHR AND DUP2 MSTORE RETURN JUMPDEST SWAP1 POP CALLVALUE PUSH2 0x231 JUMPI DUP2 PUSH1 0x3 NOT CALLDATASIZE ADD SLT PUSH2 0x231 JUMPI PUSH2 0x8A9 PUSH2 0x9B3 JUMP JUMPDEST SWAP2 PUSH2 0x8B2 PUSH2 0xA42 JUMP JUMPDEST PUSH1 0x2 SLOAD PUSH1 0x1 PUSH1 0x1 PUSH1 0xA0 SHL SUB AND CALLER SUB PUSH2 0x8D2 JUMPI DUP4 PUSH2 0x40C PUSH1 0x24 CALLDATALOAD DUP6 CALLER PUSH2 0xAB7 JUMP JUMPDEST SWAP1 PUSH1 0x20 PUSH1 0x64 SWAP3 MLOAD SWAP2 PUSH3 0x461BCD PUSH1 0xE5 SHL DUP4 MSTORE DUP3 ADD MSTORE PUSH1 0xA PUSH1 0x24 DUP3 ADD MSTORE PUSH10 0x3737BA103937BABA32B9 PUSH1 0xB1 SHL PUSH1 0x44 DUP3 ADD MSTORE REVERT JUMPDEST SWAP2 SWAP1 POP CALLVALUE PUSH2 0x231 JUMPI PUSH1 0x20 CALLDATASIZE PUSH1 0x3 NOT ADD SLT PUSH2 0x231 JUMPI DUP2 CALLDATALOAD SWAP2 PUSH2 0x921 PUSH2 0xA42 JUMP JUMPDEST CALLER DUP5 MSTORE PUSH1 0x5 PUSH1 0x20 MSTORE DUP2 DUP5 KECCAK256 SWAP1 DUP4 ISZERO SWAP2 DUP3 ISZERO DUP1 PUSH2 0x9A8 JUMPI JUMPDEST ISZERO PUSH2 0x974 JUMPI PUSH2 0x946 CALLER PUSH2 0xCC4 JUMP JUMPDEST PUSH2 0x951 DUP6 DUP3 SLOAD PUSH2 0xCA4 JUMP JUMPDEST SWAP1 SSTORE PUSH1 0x32 DUP5 MUL SWAP2 DUP5 DUP4 DIV PUSH1 0x32 EQ OR ISZERO PUSH2 0x725 JUMPI POP PUSH2 0x2710 PUSH2 0x670 SWAP2 DIV DUP1 SWAP4 PUSH2 0xCA4 JUMP JUMPDEST DUP4 MLOAD PUSH3 0x461BCD PUSH1 0xE5 SHL DUP2 MSTORE PUSH1 0x20 DUP2 DUP5 ADD MSTORE PUSH1 0xE PUSH1 0x24 DUP3 ADD MSTORE PUSH14 0x1A5B9D985B1A5908185B5BDD5B9D PUSH1 0x92 SHL PUSH1 0x44 DUP3 ADD MSTORE PUSH1 0x64 SWAP1 REVERT JUMPDEST POP DUP1 SLOAD DUP6 GT ISZERO PUSH2 0x938 JUMP JUMPDEST PUSH1 0x4 CALLDATALOAD SWAP1 PUSH1 0x1 PUSH1 0x1 PUSH1 0xA0 SHL SUB DUP3 AND DUP3 SUB PUSH2 0x9C9 JUMPI JUMP JUMPDEST PUSH0 DUP1 REVERT JUMPDEST PUSH1 0x6 SLOAD DUP2 LT ISZERO PUSH2 0xA02 JUMPI PUSH1 0x6 PUSH0 MSTORE PUSH32 0xF652222313E28459528D920B65115C16C04F3EFC82AAEDC97BE59F3F377C0D3F ADD SWAP1 PUSH0 SWAP1 JUMP JUMPDEST PUSH4 0x4E487B71 PUSH1 0xE0 SHL PUSH0 MSTORE PUSH1 0x32 PUSH1 0x4 MSTORE PUSH1 0x24 PUSH0 REVERT JUMPDEST PUSH1 0x1 SLOAD PUSH1 0x1 PUSH1 0x1 PUSH1 0xA0 SHL SUB AND CALLER SUB PUSH2 0xA2A JUMPI JUMP JUMPDEST PUSH1 0x40 MLOAD PUSH4 0x118CDAA7 PUSH1 0xE0 SHL DUP2 MSTORE CALLER PUSH1 0x4 DUP3 ADD MSTORE PUSH1 0x24 SWAP1 REVERT JUMPDEST PUSH1 0x2 PUSH0 SLOAD EQ PUSH2 0xA51 JUMPI PUSH1 0x2 PUSH0 SSTORE JUMP JUMPDEST PUSH1 0x40 MLOAD PUSH3 0x461BCD PUSH1 0xE5 SHL DUP2 MSTORE PUSH1 0x20 PUSH1 0x4 DUP3 ADD MSTORE PUSH1 0x1F PUSH1 0x24 DUP3 ADD MSTORE PUSH32 0x5265656E7472616E637947756172643A207265656E7472616E742063616C6C00 PUSH1 0x44 DUP3 ADD MSTORE PUSH1 0x64 SWAP1 REVERT JUMPDEST SWAP2 SWAP1 DUP3 ADD DUP1 SWAP3 GT PUSH2 0xAA3 JUMPI JUMP JUMPDEST PUSH4 0x4E487B71 PUSH1 0xE0 SHL PUSH0 MSTORE PUSH1 0x11 PUSH1 0x4 MSTORE PUSH1 0x24 PUSH0 REVERT JUMPDEST SWAP2 SWAP1 DUP2 ISZERO PUSH2 0xC0B JUMPI PUSH2 0xAC8 DUP2 PUSH2 0xCC4 JUMP JUMPDEST PUSH1 0x40 MLOAD PUSH4 0x23B872DD PUSH1 0xE0 SHL PUSH1 0x20 DUP3 ADD MSTORE PUSH1 0x1 PUSH1 0x1 PUSH1 0xA0 SHL SUB SWAP4 DUP5 AND PUSH1 0x24 DUP3 ADD MSTORE ADDRESS PUSH1 0x44 DUP3 ADD MSTORE PUSH1 0x64 DUP1 DUP3 ADD DUP5 SWAP1 MSTORE DUP2 MSTORE SWAP1 PUSH1 0xA0 DUP3 ADD PUSH8 0xFFFFFFFFFFFFFFFF DUP2 GT DUP4 DUP3 LT OR PUSH2 0xBF7 JUMPI DUP5 SWAP3 PUSH2 0xB3F SWAP2 PUSH1 0x40 MSTORE PUSH32 0x0 PUSH2 0xC3F JUMP JUMPDEST AND SWAP2 DUP3 PUSH0 MSTORE PUSH1 0x5 PUSH1 0x20 MSTORE PUSH1 0x40 PUSH0 KECCAK256 SWAP1 DUP2 SLOAD ISZERO PUSH2 0xB92 JUMPI JUMPDEST POP DUP2 DUP2 PUSH2 0xB87 PUSH32 0x2DA466A7B24304F47E87FA2E1E5A81B9831CE54FEC19055CE277CA2F39BA42C4 SWAP5 PUSH1 0x20 SWAP5 SLOAD PUSH2 0xA96 JUMP JUMPDEST SWAP1 SSTORE PUSH1 0x40 MLOAD SWAP1 DUP2 MSTORE LOG2 JUMP JUMPDEST SWAP2 PUSH1 0x6 SLOAD SWAP2 PUSH9 0x10000000000000000 DUP4 LT ISZERO PUSH2 0xBF7 JUMPI PUSH32 0x2DA466A7B24304F47E87FA2E1E5A81B9831CE54FEC19055CE277CA2F39BA42C4 SWAP4 PUSH2 0xBDC DUP5 PUSH1 0x1 PUSH1 0x20 SWAP7 ADD PUSH1 0x6 SSTORE PUSH2 0x9CD JUMP JUMPDEST DUP2 SWAP3 SWAP2 SLOAD SWAP1 PUSH1 0x3 SHL SWAP2 DUP9 DUP4 SHL SWAP3 SHL NOT AND OR SWAP1 SSTORE SWAP2 POP SWAP2 PUSH2 0xB56 JUMP JUMPDEST PUSH4 0x4E487B71 PUSH1 0xE0 SHL PUSH0 MSTORE PUSH1 0x41 PUSH1 0x4 MSTORE PUSH1 0x24 PUSH0 REVERT JUMPDEST PUSH1 0x40 MLOAD PUSH3 0x461BCD PUSH1 0xE5 SHL DUP2 MSTORE PUSH1 0x20 PUSH1 0x4 DUP3 ADD MSTORE PUSH1 0xC PUSH1 0x24 DUP3 ADD MSTORE PUSH12 0x1E995C9BC819195C1BDCDA5D PUSH1 0xA2 SHL PUSH1 0x44 DUP3 ADD MSTORE PUSH1 0x64 SWAP1 REVERT JUMPDEST SWAP1 PUSH0 PUSH1 0x20 SWAP2 DUP3 DUP2 MLOAD SWAP2 ADD DUP3 DUP6 GAS CALL ISZERO PUSH2 0xC99 JUMPI PUSH0 MLOAD RETURNDATASIZE PUSH2 0xC90 JUMPI POP PUSH1 0x1 PUSH1 0x1 PUSH1 0xA0 SHL SUB DUP2 AND EXTCODESIZE ISZERO JUMPDEST PUSH2 0xC6E JUMPI POP JUMP JUMPDEST PUSH1 0x40 MLOAD PUSH4 0x5274AFE7 PUSH1 0xE0 SHL DUP2 MSTORE PUSH1 0x1 PUSH1 0x1 PUSH1 0xA0 SHL SUB SWAP1 SWAP2 AND PUSH1 0x4 DUP3 ADD MSTORE PUSH1 0x24 SWAP1 REVERT JUMPDEST PUSH1 0x1 EQ ISZERO PUSH2 0xC67 JUMP JUMPDEST PUSH1 0x40 MLOAD RETURNDATASIZE PUSH0 DUP3 RETURNDATACOPY RETURNDATASIZE SWAP1 REVERT JUMPDEST SWAP2 SWAP1 DUP3 SUB SWAP2 DUP3 GT PUSH2 0xAA3 JUMPI JUMP JUMPDEST DUP2 DUP2 MUL SWAP3 SWAP2 DUP2 ISZERO SWAP2 DUP5 DIV EQ OR ISZERO PUSH2 0xAA3 JUMPI JUMP JUMPDEST PUSH1 0x1 DUP1 PUSH1 0xA0 SHL SUB AND PUSH0 MSTORE PUSH1 0x5 PUSH1 0x20 MSTORE PUSH1 0x40 PUSH0 KECCAK256 PUSH1 0x1 DUP2 ADD SWAP1 DUP2 SLOAD ISZERO PUSH2 0xD40 JUMPI PUSH2 0xCEE DUP3 SLOAD NUMBER PUSH2 0xCA4 JUMP JUMPDEST SWAP1 DUP2 ISZERO ISZERO DUP1 PUSH2 0xD36 JUMPI JUMPDEST PUSH2 0xD04 JUMPI JUMPDEST POP POP NUMBER SWAP1 SSTORE JUMP JUMPDEST PUSH1 0x2 PUSH2 0xD15 PUSH2 0xD2C SWAP4 DUP4 SLOAD SWAP1 PUSH2 0xCB1 JUMP JUMPDEST SWAP2 ADD PUSH2 0xD22 DUP3 DUP3 SLOAD PUSH2 0xA96 JUMP JUMPDEST SWAP1 SSTORE PUSH1 0x4 SLOAD PUSH2 0xA96 JUMP JUMPDEST PUSH1 0x4 SSTORE PUSH0 DUP1 PUSH2 0xCFD JUMP JUMPDEST POP DUP1 SLOAD ISZERO ISZERO PUSH2 0xCF8 JUMP JUMPDEST POP NUMBER SWAP1 SSTORE JUMP JUMPDEST DUP2 ISZERO PUSH2 0xD50 JUMPI DIV SWAP1 JUMP JUMPDEST PUSH4 0x4E487B71 PUSH1 0xE0 SHL PUSH0 MSTORE PUSH1 0x12 PUSH1 0x4 MSTORE PUSH1 0x24 PUSH0 REVERT JUMPDEST PUSH1 0x40 MLOAD PUSH4 0xA9059CBB PUSH1 0xE0 SHL PUSH1 0x20 DUP3 ADD MSTORE PUSH1 0x1 PUSH1 0x1 PUSH1 0xA0 SHL SUB SWAP1 SWAP3 AND PUSH1 0x24 DUP4 ADD MSTORE PUSH1 0x44 DUP1 DUP4 ADD SWAP4 SWAP1 SWAP4 MSTORE SWAP2 DUP2 MSTORE PUSH1 0x80 DUP2 ADD SWAP2 PUSH8 0xFFFFFFFFFFFFFFFF DUP4 GT DUP3 DUP5 LT OR PUSH2 0xBF7 JUMPI PUSH2 0xDB4 SWAP3 PUSH1 0x40 MSTORE PUSH2 0xC3F JUMP JUMPDEST JUMP JUMPDEST PUSH0 NOT DUP2 EQ PUSH2 0xAA3 JUMPI PUSH1 0x1 ADD SWAP1 JUMP JUMPDEST PUSH1 0x3 PUSH2 0xDD1 DUP2 SLOAD NUMBER PUSH2 0xCA4 JUMP JUMPDEST DUP1 ISZERO DUP1 ISZERO PUSH2 0xFD1 JUMPI JUMPDEST PUSH2 0xFCD JUMPI PUSH2 0xE09 SWAP1 PUSH32 0x0 SWAP1 PUSH2 0xCB1 JUMP JUMPDEST SWAP1 PUSH0 JUMPDEST PUSH1 0x6 SLOAD DUP2 LT ISZERO PUSH2 0xE94 JUMPI DUP1 PUSH2 0xE23 PUSH2 0xE88 SWAP3 PUSH2 0x9CD JUMP JUMPDEST SWAP1 SLOAD SWAP1 DUP5 SHL SHR PUSH1 0x1 PUSH1 0x1 PUSH1 0xA0 SHL SUB AND PUSH0 SWAP1 DUP2 MSTORE PUSH1 0x5 PUSH1 0x20 MSTORE PUSH1 0x40 SWAP1 KECCAK256 DUP1 SLOAD SWAP1 DUP2 ISZERO PUSH2 0xE8D JUMPI PUSH1 0x2 PUSH2 0xE62 PUSH1 0x1 DUP4 ADD SWAP4 PUSH2 0xE5D DUP6 SLOAD NUMBER PUSH2 0xCA4 JUMP JUMPDEST PUSH2 0xCB1 JUMP JUMPDEST SWAP2 ADD PUSH2 0xE6F DUP3 DUP3 SLOAD PUSH2 0xA96 JUMP JUMPDEST SWAP1 SSTORE PUSH2 0xE7E PUSH1 0x4 SWAP2 DUP3 SLOAD PUSH2 0xA96 JUMP JUMPDEST SWAP1 SSTORE NUMBER SWAP1 SSTORE PUSH2 0xDB6 JUMP JUMPDEST PUSH2 0xE0C JUMP JUMPDEST POP POP PUSH2 0xDB6 JUMP JUMPDEST POP PUSH1 0x5 DUP1 DUP4 MUL DUP4 DUP2 DIV DUP3 EQ DUP5 ISZERO OR ISZERO PUSH2 0xAA3 JUMPI PUSH2 0x2710 PUSH2 0xEBB SWAP2 DIV DUP1 SWAP5 DUP2 PUSH2 0xF9D JUMPI PUSH2 0xCA4 JUMP JUMPDEST SWAP2 PUSH0 JUMPDEST PUSH1 0x6 SLOAD DUP2 LT ISZERO PUSH2 0xF60 JUMPI DUP1 PUSH2 0xED5 PUSH2 0xF22 SWAP3 PUSH2 0x9CD JUMP JUMPDEST SWAP1 SLOAD SWAP1 DUP5 SHL SHR PUSH1 0x1 PUSH1 0x1 PUSH1 0xA0 SHL SUB AND PUSH0 DUP2 DUP2 MSTORE PUSH1 0x20 DUP7 SWAP1 MSTORE PUSH1 0x40 SWAP1 KECCAK256 PUSH1 0x2 ADD DUP1 SLOAD SWAP2 DUP3 ISZERO PUSH2 0xF58 JUMPI PUSH2 0xF14 PUSH2 0xF0B PUSH0 SWAP5 DUP11 PUSH2 0xCB1 JUMP JUMPDEST PUSH1 0x4 SLOAD SWAP1 PUSH2 0xD46 JUMP JUMPDEST DUP1 PUSH2 0xF27 JUMPI JUMPDEST POP POP SSTORE PUSH2 0xDB6 JUMP JUMPDEST PUSH2 0xEBE JUMP JUMPDEST PUSH2 0xF51 SWAP2 PUSH32 0x0 PUSH2 0xD64 JUMP JUMPDEST PUSH0 DUP1 PUSH2 0xF1A JUMP JUMPDEST POP POP POP PUSH2 0xDB6 JUMP JUMPDEST POP PUSH1 0x40 SWAP3 SWAP2 POP SWAP3 PUSH32 0x3C3D358C457D91D874593441791F0B96C90172A78030CE0CE7E8E8C965FE1469 SWAP4 PUSH0 PUSH1 0x4 SSTORE NUMBER SWAP1 SSTORE DUP3 MLOAD SWAP2 DUP3 MSTORE PUSH1 0x20 DUP3 ADD MSTORE LOG1 JUMP JUMPDEST PUSH2 0xFC8 DUP3 CALLER PUSH32 0x0 PUSH2 0xD64 JUMP JUMPDEST PUSH2 0xCA4 JUMP JUMPDEST POP POP JUMP JUMPDEST POP PUSH1 0x4 SLOAD ISZERO PUSH2 0xDDA JUMP JUMPDEST PUSH1 0x1 PUSH1 0x1 PUSH1 0xA0 SHL SUB AND PUSH0 SWAP1 DUP2 MSTORE PUSH1 0x5 PUSH1 0x20 MSTORE PUSH1 0x40 DUP2 KECCAK256 DUP1 SLOAD SWAP2 DUP3 ISZERO PUSH2 0x10A4 JUMPI PUSH2 0x1006 PUSH1 0x3 SLOAD NUMBER PUSH2 0xCA4 JUMP JUMPDEST SWAP3 DUP4 ISZERO PUSH2 0x10C5 JUMPI PUSH1 0x1 PUSH1 0x2 DUP5 ADD SLOAD SWAP4 ADD SLOAD DUP1 PUSH2 0x10AA JUMPI JUMPDEST POP POP DUP2 ISZERO PUSH2 0x10A4 JUMPI PUSH2 0x105C PUSH2 0x1034 DUP4 PUSH1 0x4 SLOAD PUSH2 0xA96 JUMP JUMPDEST SWAP4 PUSH32 0x0 SWAP1 PUSH2 0xCB1 JUMP JUMPDEST SWAP1 PUSH1 0x5 DUP3 MUL SWAP1 DUP3 DUP3 DIV PUSH1 0x5 EQ DUP4 ISZERO OR ISZERO PUSH2 0x1090 JUMPI POP SWAP2 PUSH2 0xE5D PUSH2 0x1088 SWAP3 PUSH2 0x2710 PUSH2 0x108D SWAP7 SWAP6 DIV SWAP1 PUSH2 0xCA4 JUMP JUMPDEST PUSH2 0xD46 JUMP JUMPDEST SWAP1 JUMP JUMPDEST PUSH4 0x4E487B71 PUSH1 0xE0 SHL DUP2 MSTORE PUSH1 0x11 PUSH1 0x4 MSTORE PUSH1 0x24 SWAP1 REVERT JUMPDEST SWAP2 POP POP SWAP1 JUMP JUMPDEST PUSH2 0x10BD SWAP3 SWAP4 SWAP2 PUSH2 0xE5D PUSH2 0x393 SWAP3 NUMBER PUSH2 0xCA4 JUMP JUMPDEST SWAP1 PUSH0 DUP1 PUSH2 0x101D JUMP JUMPDEST POP SWAP2 POP POP SWAP1 JUMP JUMPDEST PUSH2 0x10D8 PUSH1 0x3 SLOAD NUMBER PUSH2 0xCA4 JUMP JUMPDEST DUP1 ISZERO PUSH2 0x1109 JUMPI PUSH2 0x108D SWAP1 PUSH32 0x0 SWAP1 PUSH2 0xCB1 JUMP JUMPDEST POP PUSH0 SWAP1 JUMP INVALID LOG2 PUSH5 0x6970667358 0x22 SLT KECCAK256 0x4B CALLDATASIZE SELFBALANCE LT PUSH24 0xE49876C2527CC69D51273CA11FCE4E25326492EEF269C682 0xC0 0xE6 AND PUSH5 0x736F6C6343 STOP ADDMOD EQ STOP CALLER "
		},
		"gasEstimates": {
			"creation": {
				"codeDepositCost": "884000",
				"executionCost": "infinite",
				"totalCost": "infinite"
			},
			"external": {
				"BP_DENOM()": "300",
				"CALLER_FEE_BP()": "691",
				"claimAll()": "infinite",
				"claimableReward(address)": "infinite",
				"deposit(uint256)": "infinite",
				"depositFor(address,uint256)": "infinite",
				"getUserXP(address)": "7324",
				"lastRewardBlock()": "2538",
				"lpToken()": "infinite",
				"owner()": "2515",
				"participantCount()": "2340",
				"participants(uint256)": "6653",
				"protocol()": "infinite",
				"remainingRewardPool()": "infinite",
				"renounceOwnership()": "28188",
				"rewardPerBlock()": "infinite",
				"rewardToken()": "infinite",
				"router()": "2801",
				"setRouter(address)": "28031",
				"totalLPLocked()": "infinite",
				"totalXP()": "2560",
				"transferOwnership(address)": "28616",
				"users(address)": "6921",
				"withdraw(uint256)": "infinite",
				"withdrawAll()": "infinite"
			},
			"internal": {
				"_depositFor(address,address,uint256)": "infinite",
				"_updateUserXP(address)": "infinite"
			}
		},
		"methodIdentifiers": {
			"BP_DENOM()": "71bf8623",
			"CALLER_FEE_BP()": "fc7039e0",
			"claimAll()": "d1058e59",
			"claimableReward(address)": "e9503425",
			"deposit(uint256)": "b6b55f25",
			"depositFor(address,uint256)": "2f4f21e2",
			"getUserXP(address)": "e9e7eb35",
			"lastRewardBlock()": "a9f8d181",
			"lpToken()": "5fcbd285",
			"owner()": "8da5cb5b",
			"participantCount()": "362f04c0",
			"participants(uint256)": "35c1d349",
			"protocol()": "8ce74426",
			"remainingRewardPool()": "e7a0fb9b",
			"renounceOwnership()": "715018a6",
			"rewardPerBlock()": "8ae39cac",
			"rewardToken()": "f7c618c1",
			"router()": "f887ea40",
			"setRouter(address)": "c0d78655",
			"totalLPLocked()": "f7e4cd0d",
			"totalXP()": "aa93bfa8",
			"transferOwnership(address)": "f2fde38b",
			"users(address)": "a87430ba",
			"withdraw(uint256)": "2e1a7d4d",
			"withdrawAll()": "853828b6"
		}
	},
	"abi": [
		{
			"inputs": [
				{
					"internalType": "address",
					"name": "_lpToken",
					"type": "address"
				},
				{
					"internalType": "address",
					"name": "_rewardToken",
					"type": "address"
				},
				{
					"internalType": "address",
					"name": "_protocol",
					"type": "address"
				}
			],
			"stateMutability": "nonpayable",
			"type": "constructor"
		},
		{
			"inputs": [
				{
					"internalType": "address",
					"name": "owner",
					"type": "address"
				}
			],
			"name": "OwnableInvalidOwner",
			"type": "error"
		},
		{
			"inputs": [
				{
					"internalType": "address",
					"name": "account",
					"type": "address"
				}
			],
			"name": "OwnableUnauthorizedAccount",
			"type": "error"
		},
		{
			"inputs": [
				{
					"internalType": "address",
					"name": "token",
					"type": "address"
				}
			],
			"name": "SafeERC20FailedOperation",
			"type": "error"
		},
		{
			"anonymous": false,
			"inputs": [
				{
					"indexed": false,
					"internalType": "uint256",
					"name": "totalDistributed",
					"type": "uint256"
				},
				{
					"indexed": false,
					"internalType": "uint256",
					"name": "callerReward",
					"type": "uint256"
				}
			],
			"name": "ClaimAll",
			"type": "event"
		},
		{
			"anonymous": false,
			"inputs": [
				{
					"indexed": true,
					"internalType": "address",
					"name": "user",
					"type": "address"
				},
				{
					"indexed": false,
					"internalType": "uint256",
					"name": "amount",
					"type": "uint256"
				}
			],
			"name": "Deposited",
			"type": "event"
		},
		{
			"anonymous": false,
			"inputs": [
				{
					"indexed": true,
					"internalType": "address",
					"name": "previousOwner",
					"type": "address"
				},
				{
					"indexed": true,
					"internalType": "address",
					"name": "newOwner",
					"type": "address"
				}
			],
			"name": "OwnershipTransferred",
			"type": "event"
		},
		{
			"anonymous": false,
			"inputs": [
				{
					"indexed": false,
					"internalType": "address",
					"name": "router",
					"type": "address"
				}
			],
			"name": "RouterSet",
			"type": "event"
		},
		{
			"anonymous": false,
			"inputs": [
				{
					"indexed": true,
					"internalType": "address",
					"name": "user",
					"type": "address"
				},
				{
					"indexed": false,
					"internalType": "uint256",
					"name": "amount",
					"type": "uint256"
				}
			],
			"name": "Withdrawn",
			"type": "event"
		},
		{
			"inputs": [],
			"name": "BP_DENOM",
			"outputs": [
				{
					"internalType": "uint256",
					"name": "",
					"type": "uint256"
				}
			],
			"stateMutability": "view",
			"type": "function"
		},
		{
			"inputs": [],
			"name": "CALLER_FEE_BP",
			"outputs": [
				{
					"internalType": "uint256",
					"name": "",
					"type": "uint256"
				}
			],
			"stateMutability": "view",
			"type": "function"
		},
		{
			"inputs": [],
			"name": "claimAll",
			"outputs": [],
			"stateMutability": "nonpayable",
			"type": "function"
		},
		{
			"inputs": [
				{
					"internalType": "address",
					"name": "userAddr",
					"type": "address"
				}
			],
			"name": "claimableReward",
			"outputs": [
				{
					"internalType": "uint256",
					"name": "",
					"type": "uint256"
				}
			],
			"stateMutability": "view",
			"type": "function"
		},
		{
			"inputs": [
				{
					"internalType": "uint256",
					"name": "amount",
					"type": "uint256"
				}
			],
			"name": "deposit",
			"outputs": [],
			"stateMutability": "nonpayable",
			"type": "function"
		},
		{
			"inputs": [
				{
					"internalType": "address",
					"name": "user",
					"type": "address"
				},
				{
					"internalType": "uint256",
					"name": "amount",
					"type": "uint256"
				}
			],
			"name": "depositFor",
			"outputs": [],
			"stateMutability": "nonpayable",
			"type": "function"
		},
		{
			"inputs": [
				{
					"internalType": "address",
					"name": "userAddr",
					"type": "address"
				}
			],
			"name": "getUserXP",
			"outputs": [
				{
					"internalType": "uint256",
					"name": "",
					"type": "uint256"
				}
			],
			"stateMutability": "view",
			"type": "function"
		},
		{
			"inputs": [],
			"name": "lastRewardBlock",
			"outputs": [
				{
					"internalType": "uint256",
					"name": "",
					"type": "uint256"
				}
			],
			"stateMutability": "view",
			"type": "function"
		},
		{
			"inputs": [],
			"name": "lpToken",
			"outputs": [
				{
					"internalType": "contract IERC20",
					"name": "",
					"type": "address"
				}
			],
			"stateMutability": "view",
			"type": "function"
		},
		{
			"inputs": [],
			"name": "owner",
			"outputs": [
				{
					"internalType": "address",
					"name": "",
					"type": "address"
				}
			],
			"stateMutability": "view",
			"type": "function"
		},
		{
			"inputs": [],
			"name": "participantCount",
			"outputs": [
				{
					"internalType": "uint256",
					"name": "",
					"type": "uint256"
				}
			],
			"stateMutability": "view",
			"type": "function"
		},
		{
			"inputs": [
				{
					"internalType": "uint256",
					"name": "",
					"type": "uint256"
				}
			],
			"name": "participants",
			"outputs": [
				{
					"internalType": "address",
					"name": "",
					"type": "address"
				}
			],
			"stateMutability": "view",
			"type": "function"
		},
		{
			"inputs": [],
			"name": "protocol",
			"outputs": [
				{
					"internalType": "address",
					"name": "",
					"type": "address"
				}
			],
			"stateMutability": "view",
			"type": "function"
		},
		{
			"inputs": [],
			"name": "remainingRewardPool",
			"outputs": [
				{
					"internalType": "uint256",
					"name": "",
					"type": "uint256"
				}
			],
			"stateMutability": "view",
			"type": "function"
		},
		{
			"inputs": [],
			"name": "renounceOwnership",
			"outputs": [],
			"stateMutability": "nonpayable",
			"type": "function"
		},
		{
			"inputs": [],
			"name": "rewardPerBlock",
			"outputs": [
				{
					"internalType": "uint256",
					"name": "",
					"type": "uint256"
				}
			],
			"stateMutability": "view",
			"type": "function"
		},
		{
			"inputs": [],
			"name": "rewardToken",
			"outputs": [
				{
					"internalType": "contract IERC20",
					"name": "",
					"type": "address"
				}
			],
			"stateMutability": "view",
			"type": "function"
		},
		{
			"inputs": [],
			"name": "router",
			"outputs": [
				{
					"internalType": "address",
					"name": "",
					"type": "address"
				}
			],
			"stateMutability": "view",
			"type": "function"
		},
		{
			"inputs": [
				{
					"internalType": "address",
					"name": "_router",
					"type": "address"
				}
			],
			"name": "setRouter",
			"outputs": [],
			"stateMutability": "nonpayable",
			"type": "function"
		},
		{
			"inputs": [],
			"name": "totalLPLocked",
			"outputs": [
				{
					"internalType": "uint256",
					"name": "",
					"type": "uint256"
				}
			],
			"stateMutability": "view",
			"type": "function"
		},
		{
			"inputs": [],
			"name": "totalXP",
			"outputs": [
				{
					"internalType": "uint256",
					"name": "",
					"type": "uint256"
				}
			],
			"stateMutability": "view",
			"type": "function"
		},
		{
			"inputs": [
				{
					"internalType": "address",
					"name": "newOwner",
					"type": "address"
				}
			],
			"name": "transferOwnership",
			"outputs": [],
			"stateMutability": "nonpayable",
			"type": "function"
		},
		{
			"inputs": [
				{
					"internalType": "address",
					"name": "",
					"type": "address"
				}
			],
			"name": "users",
			"outputs": [
				{
					"internalType": "uint256",
					"name": "balance",
					"type": "uint256"
				},
				{
					"internalType": "uint256",
					"name": "lastUpdateBlock",
					"type": "uint256"
				},
				{
					"internalType": "uint256",
					"name": "xp",
					"type": "uint256"
				}
			],
			"stateMutability": "view",
			"type": "function"
		},
		{
			"inputs": [
				{
					"internalType": "uint256",
					"name": "amount",
					"type": "uint256"
				}
			],
			"name": "withdraw",
			"outputs": [],
			"stateMutability": "nonpayable",
			"type": "function"
		},
		{
			"inputs": [],
			"name": "withdrawAll",
			"outputs": [],
			"stateMutability": "nonpayable",
			"type": "function"
		}
	]
}