{
	"data": {
		"bytecode": {
			"linkReferences": {},
			"object": "60803462000141576200245390601f38839003908101601f19168201906001600160401b0382118383101762000145578083916040958694855283398101031262000141576200005d6020620000558362000159565b920162000159565b9033156200012a5762000070336200016e565b5f805460ff60a01b1916600160a01b1790556001600160a01b03908116908115620000fa57821615620000c957600180546001600160a01b0319169091179055620000bb906200016e565b5161229e9081620001b58239f35b825162461bcd60e51b815260206004820152600a602482015269070726f746f636f6c20360b41b6044820152606490fd5b835162461bcd60e51b81526020600482015260096024820152680666163746f727920360bc1b6044820152606490fd5b8251631e4fbdf760e01b81525f6004820152602490fd5b5f80fd5b634e487b7160e01b5f52604160045260245ffd5b51906001600160a01b03821682036200014157565b5f80546001600160a01b039283166001600160a01b03198216811783559216907f8be0079c531659141344cd1fd0a4f28419497f9722a3daafe3b4186f6b6457e09080a356fe6080806040526004361015610012575f80fd5b5f9060e08235811c91826305e2e95d14611c79575081630b78f9c014611c0a5781630c51b88f14611a0b5781634ba1a5b9146116f657816355197241146116d1578163580fc80a146116685781635bb47808146115eb578163715018a61461159257816388cc58e4146115695781638da5cb5b1461154257816390229af714610f4657816396d8ef8e14610ece57816397331bf914610e18578163a38c178c14610b04578163a444477b146108fa57508063b0f07f15146108cd578063b1e3a94114610830578063c45a015514610807578063c99cb2b71461077c578063d16352af146106e9578063d858a7e5146106c1578063db8d55f1146105cd578063f2fde38b146105405763fb11e96914610128575f80fd5b3461053d57602036600319011261053d57610141611d92565b600180546040516397331bf960e01b815291926001600160a01b039185908490600490829086165afa92831561053257859361050e575b5082519491939261018886612015565b956101966040519788611fe0565b8087526101a5601f1991612015565b01835b8181106104e05750508383905b610298575b50505060405192602084016020855285518091526040850192602060408360051b880101970193815b8383106101f05787890388f35b9091929394958098603f19898203018452875190602060408201928981511683520151916040602083015282518091526020606080930193019185905b858383106102515750505050506020809198019301930191949392909795976101e3565b909192939460a06020918d8851908151168252838101518483015260408101516040830152858101518683015260808091015115159082015201950192019092919261022d565b81969496959395518110156104d557836102b2828461211a565b5116604051621d611360e21b815285851660048201528781602481855afa90811561039d5788916103a8575b50602060049260405193848092637e062a3560e11b82525afa91821561039d57908995949392918992610351575b50906103449291876040519261032184611f8e565b1682526020820152610333828961211a565b5261033e818861211a565b506120f8565b90919294969593956101b5565b915091929394506020813d602011610395575b8161037160209383611fe0565b8101031261039157916103449161038a8a969594612001565b919261030c565b8780fd5b3d9150610364565b6040513d8a823e3d90fd5b90503d8089833e6103b98183611fe0565b60208282810103126104d15781516001600160401b0381116104cd57820190808301601f830112156104cd578151906103f182612015565b936103ff6040519586611fe0565b82855260208501828201602060a08602870101116104c95760208501905b602060a08602870101821061043b5750602094506102de9350505050565b60a08285850103126104c5576040518060a08101106001600160401b0360a0830111176104b15760a09181836020930160405261047785612001565b81528285015183820152604085015160408201526060808601519082015260806104a28187016120eb565b9082015281520191019061041d565b634e487b7160e01b5f52604160045260245ffd5b8d80fd5b8c80fd5b8980fd5b8880fd5b9593959492946101ba565b60209060409896979598516104f481611f8e565b8981526060838201528282890101520196939594966101a8565b61052b9193503d8087833e6105238183611fe0565b81019061202c565b915f610178565b6040513d87823e3d90fd5b80fd5b503461053d57602036600319011261053d5761055a611d92565b610562611f0f565b6001600160a01b039081169081156105b4575f54826bffffffffffffffffffffffff60a01b8216175f55167f8be0079c531659141344cd1fd0a4f28419497f9722a3daafe3b4186f6b6457e05f80a380f35b604051631e4fbdf760e01b815260048101849052602490fd5b503461053d578060031936011261053d576001546040516318bf741760e31b81526001600160a01b039091169160208083600481875afa9283156106b6578293610685575b50806004946040519586809263f25e78b160e01b82525afa9182156106795791610645575b604080945051928352820152f35b80915083813d8311610672575b61065c8183611fe0565b8101031261066e576040925190610637565b5f80fd5b503d610652565b604051903d90823e3d90fd5b9392508084813d83116106af575b61069d8183611fe0565b8101031261066e579251919280610612565b503d610693565b6040513d84823e3d90fd5b503461053d578060031936011261053d576106da611f0f565b5f805460ff60a01b1916905580f35b503461053d578060031936011261053d57600154604051634673a21360e11b815291906001600160a01b03906020908490600490829085165afa91821561067957809261073e575b6020838360405191168152f35b9091506020833d8211610774575b8161075960209383611fe0565b8101031261053d575061076d602092612001565b905f610731565b3d915061074c565b503461053d57602036600319011261053d5780610797611d92565b6107a760ff835460a01c16611f3a565b6107af611f0f565b6001546001600160a01b039081169190823b15610802576024849283604051958694859363c99cb2b760e01b85521660048401525af180156106b6576107f25750f35b6107fb90611f7b565b61053d5780f35b505050fd5b503461053d578060031936011261053d576001546040516001600160a01b039091168152602090f35b503461053d576020908160031936011261053d5761084c611d92565b60015460405163b1e3a94160e01b81526001600160a01b0392831660048201529084908290602490829086165afa928315610679578093610893575b505060405191168152f35b909192508382813d83116108c6575b6108ac8183611fe0565b8101031261053d57506108be90612001565b905f80610888565b503d6108a2565b503461053d578060031936011261053d576108e6611f0f565b805460ff60a01b1916600160a01b17815580f35b823461053d576003198281360112610b0057610914611d92565b6001600160401b0393608435858111610afc5736602382011215610afc578060040135868111610af8578060051b943660248785010111610af45760a43588811161039157610967903690600401611edf565b91909860c4359081116104d157610982903690600401611edf565b92909461099560ff8b5460a01c16611f3a565b61099d611f0f565b60018060a01b03986001958a875416988b6040519b63a444477b60e01b8d521660048c015260243560248c015260443560448c015260643560648c015260848b01528060e48b015260018060fb1b0310610af057908282610124936024989e9a99986101049401848d01378a019182016101008b84030160a48c015252019590895b818110610ad1575050509187918694938587030160c48601528086526020998a8097019291845b818110610aab57505050509083809203925af1928315610679578093610a7157505060405191168152f35b909192508382813d8311610aa4575b610a8a8183611fe0565b8101031261053d5750610a9c90612001565b908380610888565b503d610a80565b833585528c8401358d8601528c98508997508b9550604094850194909301928201610a46565b8235885260208084013590890152604097880197909201918b01610a1f565b8a80fd5b8680fd5b8580fd5b8480fd5b5080fd5b823461053d578060031936011261053d57600180546040516397331bf960e01b81529193906001600160a01b039084908490600490829085165afa928315610e0d578493610df1575b508251949392610b5c86612015565b95610b6a6040519788611fe0565b808752610b79601f1991612015565b01845b818110610dd25750508484905b610bf2575b5050505090604051916020808401908085528551809252604085018160408460051b880101970193905b838210610bc55786880387f35b90919293948380610be1839a603f198b82030186528951611dbe565b999701959493919091019101610bb8565b8151811015610dcd5782610c06828461211a565b516040516390229af760e01b8152911660048201528581602481305afa908115610dc2578691610c54575b5081610c4891610333899a9899979695948961211a565b90919293959496610b89565b90503d8087833e610c658183611fe0565b810160209182818303126103915780516001600160401b03918282116104cd570191610100838203126104d15760405193610c9f85611fa9565b610ca8846120eb565b8552610cb5818501612001565b818601526040840151604086015260609081850151848111610dab578501601f928484830112156104c957815191610cec83612015565b92610cfa6040519485611fe0565b808452848085019160051b83010191878311610dbe578501905b828210610daf57505050879e9c9d9e01526080808601518581116104c55786018484820112156104c557848184610d4d935191016121f6565b9087015260a093848601519081116104c957839086019283011215610dab5792610d898a999897959293848f9c9596610c4899975191016121f6565b9084015260c08082015190840152015186820152915091929394969597610c31565b8b80fd5b81518152908501908501610d14565b8f80fd5b6040513d88823e3d90fd5b610b8e565b602090610de198969798612142565b8282890101520196959496610b7c565b610e069193503d8086833e6105238183611fe0565b9185610b4d565b6040513d86823e3d90fd5b823461053d578060031936011261053d57600180546040516397331bf960e01b8152919291906001600160a01b039083908390600490829085165afa918215610ec3578392610ea7575b50916040939193519260208085019181865286518093528160408701970193905b838210610e905786880387f35b845181168852968201969382019390850190610e83565b610ebc9192503d8085833e6105238183611fe0565b9084610e62565b6040513d85823e3d90fd5b823461053d57604036600319011261053d5780610ee9611d92565b610ef1611da8565b610f0160ff845460a01c16611f3a565b6001600160a01b0391821691823b156108025760448492836040519586948593634b6c77c760e11b85521660048401523360248401525af180156106b6576107f25750f35b823461053d576020908160031936011261053d57610f62611d92565b92610f6b612142565b936001600160a01b03808216918215611513573b156114dd576040516308bcf8b560e21b81528581600481865afa8591816114a6575b5061149d57508386525b604051637e062a3560e11b81528581600481865afa859181611466575b5061145c57505082848601525b60405163094b81d360e01b81528481600481855afa84918161142d575b5061142357508260408601525b60405163359cfbf760e01b81528481600481855afa8491816113f4575b5061132e575060405161102e81611fc5565b83815260608601525b60405163c122c2a160e01b81528481600481855afa8491816112ff575b50611297575060405161106681611fc5565b5f815260808601525b60405163b9b792cd60e01b81528481600481855afa849181611268575b5061118b575060405161109e81611fc5565b5f815260a08601525b6040516341b3d18560e01b81529084908183600481845afa80938691611159575b5060049361114f57508460c08801525b604051633041f2cd60e11b815292839182905afa839181611120575b5061111657508301525b611112604051928284938452830190611dbe565b0390f35b91508301526110fe565b9091508481813d8311611148575b6111388183611fe0565b8101031261066e575190866110f4565b503d61112e565b60c08801526110d8565b83819492503d8311611184575b6111708183611fe0565b8101031261066e57905185919060046110c8565b503d611166565b61119481612180565b60a08701908152845b8281106111ac575050506110a7565b61120c9060405163503306fd60e11b8152816004820152816040826024818a5afa91828a918b94611235575b50611211575061033e91506040516111ef81611f8e565b8981526127108b820152855190611206838361211a565b5261211a565b61119d565b61033e926040519161122283611f8e565b82528b820152855190611206838361211a565b90935061125a915060403d604011611261575b6112528183611fe0565b8101906121e0565b928d6111d8565b503d611248565b9091508581813d8311611290575b6112808183611fe0565b8101031261066e5751908761108c565b503d611276565b6112a081612180565b60808701908152845b8281106112b85750505061106f565b6112fa90604051635350cbd960e01b8152816004820152816040826024818a5afa91828a918b946112355750611211575061033e91506040516111ef81611f8e565b6112a9565b9091508581813d8311611327575b6113178183611fe0565b8101031261066e57519087611054565b503d61130d565b61133781612015565b906113456040519283611fe0565b808252601f1961135482612015565b01368784013760608701918252845b81811061137257505050611037565b6040516310390d3560e01b815260048101829052908782602481885afa8088916113c3575b6113b393506113b85750866113ad82865161211a565b526120f8565b611363565b6113ad82865161211a565b90508883813d83116113ed575b6113da8183611fe0565b8101031261066e576113b3925190611397565b503d6113d0565b9091508581813d831161141c575b61140c8183611fe0565b8101031261066e5751908761101c565b503d611402565b6040860152610fff565b9091508581813d8311611455575b6114458183611fe0565b81010312610afc57519087610ff2565b503d61143b565b1684860152610fd5565b9091508681813d8311611496575b61147e8183611fe0565b81010312610af85761148f90612001565b9088610fc8565b503d611474565b15158652610fab565b9091508681813d83116114d6575b6114be8183611fe0565b81010312610af8576114cf906120eb565b9088610fa1565b503d6114b4565b60405162461bcd60e51b815260048101869052600e60248201526d1b9bdd08184818dbdb9d1c9858dd60921b6044820152606490fd5b60405162461bcd60e51b815260048101879052600760248201526607661756c7420360cc1b6044820152606490fd5b823461053d578060031936011261053d57546040516001600160a01b039091168152602090f35b823461053d578060031936011261053d576001546040516001600160a01b039091168152602090f35b823461053d578060031936011261053d576115ab611f0f565b5f80546001600160a01b0319811682556001600160a01b03167f8be0079c531659141344cd1fd0a4f28419497f9722a3daafe3b4186f6b6457e08280a380f35b823461053d57602036600319011261053d57611605611d92565b61160d611f0f565b6001600160a01b03168015611637576bffffffffffffffffffffffff60a01b600154161760015580f35b60405162461bcd60e51b81526020600482015260096024820152680666163746f727920360bc1b6044820152606490fd5b823461053d57602036600319011261053d5780611683611d92565b61169360ff835460a01c16611f3a565b6001600160a01b0316803b156116ce57818091602460405180948193632c07e40560e11b83523360048401525af180156106b6576107f25750f35b50fd5b823461053d578060031936011261053d5760ff6020915460a01c166040519015158152f35b823461053d576020908160031936011261053d57611712611d92565b600180546040516397331bf960e01b8152919491926001600160a01b0392918316908585600481855afa948515610dc25786956119ef575b5084969495939295519661175d88612015565b9761176b604051998a611fe0565b80895261177a601f1991612015565b01855b8181106119c05750508585905b6117dc575b50505050604051938085019181865286518093528160408701970193905b8382106117ba5786880387f35b84518051821689528301518389015260409097019693820193908501906117ad565b8198969897949597518110156119b457600485876117fa848661211a565b511660405192838092637e062a3560e11b82525afa9081156119a9578991611974575b5060405163b1e3a94160e01b815290871660048201819052906024878282818a5afa91821561196957908c9695949392918c92611926575b50888a8d9316806118a0575b5050509061189292916040519161187783611f8e565b825288820152611887828b61211a565b5261033e818a61211a565b90919296989795949761178a565b919394959697509150604051928380926318e521fd60e21b82528c8a1660048301525afa90811561191b57908b95949392918b916118e4575b50611892888e611861565b8093929650888092503d8311611914575b6118ff8183611fe0565b8101031261066e5790518a94906118926118d9565b503d6118f5565b6040513d8c823e3d90fd5b8980929495969798508193503d8311611962575b6119448183611fe0565b81010312610af0579061195b8c9695949392612001565b908d611855565b503d61193a565b6040513d8d823e3d90fd5b90508581813d83116119a2575b61198b8183611fe0565b810103126104d15761199c90612001565b8a61181d565b503d611981565b6040513d8b823e3d90fd5b9795979694939661178f565b978095969860409a989a516119d481611f8e565b5f81525f8382015282828b010152019896989795949761177d565b611a049195503d8088833e6105238183611fe0565b938761174a565b823461053d57606036600319011261053d57611a25611d92565b906024918235611a3b60ff845460a01c16611f3a565b6040516323b872dd60e01b60208083019182523387840152306044840152606480840185905283526001600160a01b03948516949092909160a08201906001600160401b03821183831017611bf75784928892604052519082885af115610e0d5784513d611bee5750833b155b611bd65794818682938798600154166040519485809263b1e3a94160e01b82528a60048301525afa8015611bcb5787938491611b8f575b5016948190611aef8715156120ad565b60446040518095819363095ea7b360e01b83528a600484015289898401525af18015610dc257611b5b575b5050823b156108025760648492836040519586948593632c6c3af360e21b85526004850152604435908401523360448401525af180156106b6576107f25750f35b81813d8311611b88575b611b6f8183611fe0565b81010312610afc57611b80906120eb565b508580611b1a565b503d611b65565b80929450838092503d8311611bc4575b611ba98183611fe0565b81010312610af4578692611bbd8392612001565b9091611adf565b503d611b9f565b6040513d89823e3d90fd5b604051635274afe760e01b8152600481018590528690fd5b60011415611aa8565b88634e487b7160e01b5f5260416004525ffd5b823461053d57604036600319011261053d57611c24611f0f565b60015481906001600160a01b0316803b156116ce578190604460405180948193622de3e760e61b8352600435600484015260243560248401525af180156106b657611c6d575080f35b611c7690611f7b565b80f35b833461053d57604036600319011261053d57611c93611d92565b611c9b611da8565b60015463b1e3a94160e01b85526001600160a01b0392831660048601526020949192919085908290602490829086165afa908115610e0d57908592918591611d52575b50816024911693611cf08515156120ad565b60405194859384926318e521fd60e21b84521660048301525afa918215610679578092611d22575b5050604051908152f35b9091508282813d8311611d4b575b611d3a8183611fe0565b8101031261053d5750518280611d18565b503d611d30565b8381939492503d8311611d8b575b611d6a8183611fe0565b81010312611d875790602481611d808794612001565b9150611cde565b8380fd5b503d611d60565b600435906001600160a01b038216820361066e57565b602435906001600160a01b038216820361066e57565b906101009182820181511515835260209060018060a01b0382840151168285015260408301516040850152606083015194606085015284518091528161012085019501905f5b818110611ecb5750505060808201519383810360808501528180865192838152019501905f5b818110611e9e5750505060a08201519383810360a08501528180865192838152019501915f5b828110611e71575050505060e08160c08293015160c0850152015191015290565b9091929582611e93600192895190602060409280518352015160208201520190565b970193929101611e50565b9091929586611ec0600192865190602060409280518352015160208201520190565b979401929101611e2a565b825187529583019591830191600101611e04565b9181601f8401121561066e578235916001600160401b03831161066e576020808501948460061b01011161066e57565b5f546001600160a01b03163303611f2257565b60405163118cdaa760e01b8152336004820152602490fd5b15611f4157565b60405162461bcd60e51b8152602060048201526012602482015271149bdd5d195c881a5cc8191a5cd8589b195960721b6044820152606490fd5b6001600160401b0381116104b157604052565b604081019081106001600160401b038211176104b157604052565b61010081019081106001600160401b038211176104b157604052565b602081019081106001600160401b038211176104b157604052565b90601f801991011681019081106001600160401b038211176104b157604052565b51906001600160a01b038216820361066e57565b6001600160401b0381116104b15760051b60200190565b602090818184031261066e578051906001600160401b03821161066e57019180601f8401121561066e57825161206181612015565b9361206f6040519586611fe0565b818552838086019260051b82010192831161066e578301905b828210612096575050505090565b8380916120a284612001565b815201910190612088565b156120b457565b60405162461bcd60e51b815260206004820152600f60248201526e1d985d5b1d081b9bdd08199bdd5b99608a1b6044820152606490fd5b5190811515820361066e57565b5f1981146121065760010190565b634e487b7160e01b5f52601160045260245ffd5b805182101561212e5760209160051b010190565b634e487b7160e01b5f52603260045260245ffd5b6040519061214f82611fa9565b5f60e08382815282602082015282604082015260608082015260606080820152606060a08201528260c08201520152565b9061218a82612015565b60409061219982519182611fe0565b83815280936121aa601f1991612015565b01915f90815b8481106121be575050505050565b60209082516121cc81611f8e565b8481528285818301528287010152016121b0565b919082604091031261066e576020825192015190565b92919261220282612015565b60409261221184519283611fe0565b819581835260208093019160061b84019381851161066e57915b84831061223a57505050505050565b858383031261066e57838691825161225181611f8e565b85518152828601518382015281520192019161222b56fea2646970667358221220d350d2127cb8c8126eff1a803be52db36ee336e4b1b0de9265494e520e63692864736f6c63430008140033",
			"opcodes": "PUSH1 0x80 CALLVALUE PUSH3 0x141 JUMPI PUSH3 0x2453 SWAP1 PUSH1 0x1F CODESIZE DUP4 SWAP1 SUB SWAP1 DUP2 ADD PUSH1 0x1F NOT AND DUP3 ADD SWAP1 PUSH1 0x1 PUSH1 0x1 PUSH1 0x40 SHL SUB DUP3 GT DUP4 DUP4 LT OR PUSH3 0x145 JUMPI DUP1 DUP4 SWAP2 PUSH1 0x40 SWAP6 DUP7 SWAP5 DUP6 MSTORE DUP4 CODECOPY DUP2 ADD SUB SLT PUSH3 0x141 JUMPI PUSH3 0x5D PUSH1 0x20 PUSH3 0x55 DUP4 PUSH3 0x159 JUMP JUMPDEST SWAP3 ADD PUSH3 0x159 JUMP JUMPDEST SWAP1 CALLER ISZERO PUSH3 0x12A JUMPI PUSH3 0x70 CALLER PUSH3 0x16E JUMP JUMPDEST PUSH0 DUP1 SLOAD PUSH1 0xFF PUSH1 0xA0 SHL NOT AND PUSH1 0x1 PUSH1 0xA0 SHL OR SWAP1 SSTORE PUSH1 0x1 PUSH1 0x1 PUSH1 0xA0 SHL SUB SWAP1 DUP2 AND SWAP1 DUP2 ISZERO PUSH3 0xFA JUMPI DUP3 AND ISZERO PUSH3 0xC9 JUMPI PUSH1 0x1 DUP1 SLOAD PUSH1 0x1 PUSH1 0x1 PUSH1 0xA0 SHL SUB NOT AND SWAP1 SWAP2 OR SWAP1 SSTORE PUSH3 0xBB SWAP1 PUSH3 0x16E JUMP JUMPDEST MLOAD PUSH2 0x229E SWAP1 DUP2 PUSH3 0x1B5 DUP3 CODECOPY RETURN JUMPDEST DUP3 MLOAD PUSH3 0x461BCD PUSH1 0xE5 SHL DUP2 MSTORE PUSH1 0x20 PUSH1 0x4 DUP3 ADD MSTORE PUSH1 0xA PUSH1 0x24 DUP3 ADD MSTORE PUSH10 0x70726F746F636F6C203 PUSH1 0xB4 SHL PUSH1 0x44 DUP3 ADD MSTORE PUSH1 0x64 SWAP1 REVERT JUMPDEST DUP4 MLOAD PUSH3 0x461BCD PUSH1 0xE5 SHL DUP2 MSTORE PUSH1 0x20 PUSH1 0x4 DUP3 ADD MSTORE PUSH1 0x9 PUSH1 0x24 DUP3 ADD MSTORE PUSH9 0x666163746F7279203 PUSH1 0xBC SHL PUSH1 0x44 DUP3 ADD MSTORE PUSH1 0x64 SWAP1 REVERT JUMPDEST DUP3 MLOAD PUSH4 0x1E4FBDF7 PUSH1 0xE0 SHL DUP2 MSTORE PUSH0 PUSH1 0x4 DUP3 ADD MSTORE PUSH1 0x24 SWAP1 REVERT JUMPDEST PUSH0 DUP1 REVERT JUMPDEST PUSH4 0x4E487B71 PUSH1 0xE0 SHL PUSH0 MSTORE PUSH1 0x41 PUSH1 0x4 MSTORE PUSH1 0x24 PUSH0 REVERT JUMPDEST MLOAD SWAP1 PUSH1 0x1 PUSH1 0x1 PUSH1 0xA0 SHL SUB DUP3 AND DUP3 SUB PUSH3 0x141 JUMPI JUMP JUMPDEST PUSH0 DUP1 SLOAD PUSH1 0x1 PUSH1 0x1 PUSH1 0xA0 SHL SUB SWAP3 DUP4 AND PUSH1 0x1 PUSH1 0x1 PUSH1 0xA0 SHL SUB NOT DUP3 AND DUP2 OR DUP4 SSTORE SWAP3 AND SWAP1 PUSH32 0x8BE0079C531659141344CD1FD0A4F28419497F9722A3DAAFE3B4186F6B6457E0 SWAP1 DUP1 LOG3 JUMP INVALID PUSH1 0x80 DUP1 PUSH1 0x40 MSTORE PUSH1 0x4 CALLDATASIZE LT ISZERO PUSH2 0x12 JUMPI PUSH0 DUP1 REVERT JUMPDEST PUSH0 SWAP1 PUSH1 0xE0 DUP3 CALLDATALOAD DUP2 SHR SWAP2 DUP3 PUSH4 0x5E2E95D EQ PUSH2 0x1C79 JUMPI POP DUP2 PUSH4 0xB78F9C0 EQ PUSH2 0x1C0A JUMPI DUP2 PUSH4 0xC51B88F EQ PUSH2 0x1A0B JUMPI DUP2 PUSH4 0x4BA1A5B9 EQ PUSH2 0x16F6 JUMPI DUP2 PUSH4 0x55197241 EQ PUSH2 0x16D1 JUMPI DUP2 PUSH4 0x580FC80A EQ PUSH2 0x1668 JUMPI DUP2 PUSH4 0x5BB47808 EQ PUSH2 0x15EB JUMPI DUP2 PUSH4 0x715018A6 EQ PUSH2 0x1592 JUMPI DUP2 PUSH4 0x88CC58E4 EQ PUSH2 0x1569 JUMPI DUP2 PUSH4 0x8DA5CB5B EQ PUSH2 0x1542 JUMPI DUP2 PUSH4 0x90229AF7 EQ PUSH2 0xF46 JUMPI DUP2 PUSH4 0x96D8EF8E EQ PUSH2 0xECE JUMPI DUP2 PUSH4 0x97331BF9 EQ PUSH2 0xE18 JUMPI DUP2 PUSH4 0xA38C178C EQ PUSH2 0xB04 JUMPI DUP2 PUSH4 0xA444477B EQ PUSH2 0x8FA JUMPI POP DUP1 PUSH4 0xB0F07F15 EQ PUSH2 0x8CD JUMPI DUP1 PUSH4 0xB1E3A941 EQ PUSH2 0x830 JUMPI DUP1 PUSH4 0xC45A0155 EQ PUSH2 0x807 JUMPI DUP1 PUSH4 0xC99CB2B7 EQ PUSH2 0x77C JUMPI DUP1 PUSH4 0xD16352AF EQ PUSH2 0x6E9 JUMPI DUP1 PUSH4 0xD858A7E5 EQ PUSH2 0x6C1 JUMPI DUP1 PUSH4 0xDB8D55F1 EQ PUSH2 0x5CD JUMPI DUP1 PUSH4 0xF2FDE38B EQ PUSH2 0x540 JUMPI PUSH4 0xFB11E969 EQ PUSH2 0x128 JUMPI PUSH0 DUP1 REVERT JUMPDEST CALLVALUE PUSH2 0x53D JUMPI PUSH1 0x20 CALLDATASIZE PUSH1 0x3 NOT ADD SLT PUSH2 0x53D JUMPI PUSH2 0x141 PUSH2 0x1D92 JUMP JUMPDEST PUSH1 0x1 DUP1 SLOAD PUSH1 0x40 MLOAD PUSH4 0x97331BF9 PUSH1 0xE0 SHL DUP2 MSTORE SWAP2 SWAP3 PUSH1 0x1 PUSH1 0x1 PUSH1 0xA0 SHL SUB SWAP2 DUP6 SWAP1 DUP5 SWAP1 PUSH1 0x4 SWAP1 DUP3 SWAP1 DUP7 AND GAS STATICCALL SWAP3 DUP4 ISZERO PUSH2 0x532 JUMPI DUP6 SWAP4 PUSH2 0x50E JUMPI JUMPDEST POP DUP3 MLOAD SWAP5 SWAP2 SWAP4 SWAP3 PUSH2 0x188 DUP7 PUSH2 0x2015 JUMP JUMPDEST SWAP6 PUSH2 0x196 PUSH1 0x40 MLOAD SWAP8 DUP9 PUSH2 0x1FE0 JUMP JUMPDEST DUP1 DUP8 MSTORE PUSH2 0x1A5 PUSH1 0x1F NOT SWAP2 PUSH2 0x2015 JUMP JUMPDEST ADD DUP4 JUMPDEST DUP2 DUP2 LT PUSH2 0x4E0 JUMPI POP POP DUP4 DUP4 SWAP1 JUMPDEST PUSH2 0x298 JUMPI JUMPDEST POP POP POP PUSH1 0x40 MLOAD SWAP3 PUSH1 0x20 DUP5 ADD PUSH1 0x20 DUP6 MSTORE DUP6 MLOAD DUP1 SWAP2 MSTORE PUSH1 0x40 DUP6 ADD SWAP3 PUSH1 0x20 PUSH1 0x40 DUP4 PUSH1 0x5 SHL DUP9 ADD ADD SWAP8 ADD SWAP4 DUP2 JUMPDEST DUP4 DUP4 LT PUSH2 0x1F0 JUMPI DUP8 DUP10 SUB DUP9 RETURN JUMPDEST SWAP1 SWAP2 SWAP3 SWAP4 SWAP5 SWAP6 DUP1 SWAP9 PUSH1 0x3F NOT DUP10 DUP3 SUB ADD DUP5 MSTORE DUP8 MLOAD SWAP1 PUSH1 0x20 PUSH1 0x40 DUP3 ADD SWAP3 DUP10 DUP2 MLOAD AND DUP4 MSTORE ADD MLOAD SWAP2 PUSH1 0x40 PUSH1 0x20 DUP4 ADD MSTORE DUP3 MLOAD DUP1 SWAP2 MSTORE PUSH1 0x20 PUSH1 0x60 DUP1 SWAP4 ADD SWAP4 ADD SWAP2 DUP6 SWAP1 JUMPDEST DUP6 DUP4 DUP4 LT PUSH2 0x251 JUMPI POP POP POP POP POP PUSH1 0x20 DUP1 SWAP2 SWAP9 ADD SWAP4 ADD SWAP4 ADD SWAP2 SWAP5 SWAP4 SWAP3 SWAP1 SWAP8 SWAP6 SWAP8 PUSH2 0x1E3 JUMP JUMPDEST SWAP1 SWAP2 SWAP3 SWAP4 SWAP5 PUSH1 0xA0 PUSH1 0x20 SWAP2 DUP14 DUP9 MLOAD SWAP1 DUP2 MLOAD AND DUP3 MSTORE DUP4 DUP2 ADD MLOAD DUP5 DUP4 ADD MSTORE PUSH1 0x40 DUP2 ADD MLOAD PUSH1 0x40 DUP4 ADD MSTORE DUP6 DUP2 ADD MLOAD DUP7 DUP4 ADD MSTORE PUSH1 0x80 DUP1 SWAP2 ADD MLOAD ISZERO ISZERO SWAP1 DUP3 ADD MSTORE ADD SWAP6 ADD SWAP3 ADD SWAP1 SWAP3 SWAP2 SWAP3 PUSH2 0x22D JUMP JUMPDEST DUP2 SWAP7 SWAP5 SWAP7 SWAP6 SWAP4 SWAP6 MLOAD DUP2 LT ISZERO PUSH2 0x4D5 JUMPI DUP4 PUSH2 0x2B2 DUP3 DUP5 PUSH2 0x211A JUMP JUMPDEST MLOAD AND PUSH1 0x40 MLOAD PUSH3 0x1D6113 PUSH1 0xE2 SHL DUP2 MSTORE DUP6 DUP6 AND PUSH1 0x4 DUP3 ADD MSTORE DUP8 DUP2 PUSH1 0x24 DUP2 DUP6 GAS STATICCALL SWAP1 DUP2 ISZERO PUSH2 0x39D JUMPI DUP9 SWAP2 PUSH2 0x3A8 JUMPI JUMPDEST POP PUSH1 0x20 PUSH1 0x4 SWAP3 PUSH1 0x40 MLOAD SWAP4 DUP5 DUP1 SWAP3 PUSH4 0x7E062A35 PUSH1 0xE1 SHL DUP3 MSTORE GAS STATICCALL SWAP2 DUP3 ISZERO PUSH2 0x39D JUMPI SWAP1 DUP10 SWAP6 SWAP5 SWAP4 SWAP3 SWAP2 DUP10 SWAP3 PUSH2 0x351 JUMPI JUMPDEST POP SWAP1 PUSH2 0x344 SWAP3 SWAP2 DUP8 PUSH1 0x40 MLOAD SWAP3 PUSH2 0x321 DUP5 PUSH2 0x1F8E JUMP JUMPDEST AND DUP3 MSTORE PUSH1 0x20 DUP3 ADD MSTORE PUSH2 0x333 DUP3 DUP10 PUSH2 0x211A JUMP JUMPDEST MSTORE PUSH2 0x33E DUP2 DUP9 PUSH2 0x211A JUMP JUMPDEST POP PUSH2 0x20F8 JUMP JUMPDEST SWAP1 SWAP2 SWAP3 SWAP5 SWAP7 SWAP6 SWAP4 SWAP6 PUSH2 0x1B5 JUMP JUMPDEST SWAP2 POP SWAP2 SWAP3 SWAP4 SWAP5 POP PUSH1 0x20 DUP2 RETURNDATASIZE PUSH1 0x20 GT PUSH2 0x395 JUMPI JUMPDEST DUP2 PUSH2 0x371 PUSH1 0x20 SWAP4 DUP4 PUSH2 0x1FE0 JUMP JUMPDEST DUP2 ADD SUB SLT PUSH2 0x391 JUMPI SWAP2 PUSH2 0x344 SWAP2 PUSH2 0x38A DUP11 SWAP7 SWAP6 SWAP5 PUSH2 0x2001 JUMP JUMPDEST SWAP2 SWAP3 PUSH2 0x30C JUMP JUMPDEST DUP8 DUP1 REVERT JUMPDEST RETURNDATASIZE SWAP2 POP PUSH2 0x364 JUMP JUMPDEST PUSH1 0x40 MLOAD RETURNDATASIZE DUP11 DUP3 RETURNDATACOPY RETURNDATASIZE SWAP1 REVERT JUMPDEST SWAP1 POP RETURNDATASIZE DUP1 DUP10 DUP4 RETURNDATACOPY PUSH2 0x3B9 DUP2 DUP4 PUSH2 0x1FE0 JUMP JUMPDEST PUSH1 0x20 DUP3 DUP3 DUP2 ADD SUB SLT PUSH2 0x4D1 JUMPI DUP2 MLOAD PUSH1 0x1 PUSH1 0x1 PUSH1 0x40 SHL SUB DUP2 GT PUSH2 0x4CD JUMPI DUP3 ADD SWAP1 DUP1 DUP4 ADD PUSH1 0x1F DUP4 ADD SLT ISZERO PUSH2 0x4CD JUMPI DUP2 MLOAD SWAP1 PUSH2 0x3F1 DUP3 PUSH2 0x2015 JUMP JUMPDEST SWAP4 PUSH2 0x3FF PUSH1 0x40 MLOAD SWAP6 DUP7 PUSH2 0x1FE0 JUMP JUMPDEST DUP3 DUP6 MSTORE PUSH1 0x20 DUP6 ADD DUP3 DUP3 ADD PUSH1 0x20 PUSH1 0xA0 DUP7 MUL DUP8 ADD ADD GT PUSH2 0x4C9 JUMPI PUSH1 0x20 DUP6 ADD SWAP1 JUMPDEST PUSH1 0x20 PUSH1 0xA0 DUP7 MUL DUP8 ADD ADD DUP3 LT PUSH2 0x43B JUMPI POP PUSH1 0x20 SWAP5 POP PUSH2 0x2DE SWAP4 POP POP POP POP JUMP JUMPDEST PUSH1 0xA0 DUP3 DUP6 DUP6 ADD SUB SLT PUSH2 0x4C5 JUMPI PUSH1 0x40 MLOAD DUP1 PUSH1 0xA0 DUP2 ADD LT PUSH1 0x1 PUSH1 0x1 PUSH1 0x40 SHL SUB PUSH1 0xA0 DUP4 ADD GT OR PUSH2 0x4B1 JUMPI PUSH1 0xA0 SWAP2 DUP2 DUP4 PUSH1 0x20 SWAP4 ADD PUSH1 0x40 MSTORE PUSH2 0x477 DUP6 PUSH2 0x2001 JUMP JUMPDEST DUP2 MSTORE DUP3 DUP6 ADD MLOAD DUP4 DUP3 ADD MSTORE PUSH1 0x40 DUP6 ADD MLOAD PUSH1 0x40 DUP3 ADD MSTORE PUSH1 0x60 DUP1 DUP7 ADD MLOAD SWAP1 DUP3 ADD MSTORE PUSH1 0x80 PUSH2 0x4A2 DUP2 DUP8 ADD PUSH2 0x20EB JUMP JUMPDEST SWAP1 DUP3 ADD MSTORE DUP2 MSTORE ADD SWAP2 ADD SWAP1 PUSH2 0x41D JUMP JUMPDEST PUSH4 0x4E487B71 PUSH1 0xE0 SHL PUSH0 MSTORE PUSH1 0x41 PUSH1 0x4 MSTORE PUSH1 0x24 PUSH0 REVERT JUMPDEST DUP14 DUP1 REVERT JUMPDEST DUP13 DUP1 REVERT JUMPDEST DUP10 DUP1 REVERT JUMPDEST DUP9 DUP1 REVERT JUMPDEST SWAP6 SWAP4 SWAP6 SWAP5 SWAP3 SWAP5 PUSH2 0x1BA JUMP JUMPDEST PUSH1 0x20 SWAP1 PUSH1 0x40 SWAP9 SWAP7 SWAP8 SWAP6 SWAP9 MLOAD PUSH2 0x4F4 DUP2 PUSH2 0x1F8E JUMP JUMPDEST DUP10 DUP2 MSTORE PUSH1 0x60 DUP4 DUP3 ADD MSTORE DUP3 DUP3 DUP10 ADD ADD MSTORE ADD SWAP7 SWAP4 SWAP6 SWAP5 SWAP7 PUSH2 0x1A8 JUMP JUMPDEST PUSH2 0x52B SWAP2 SWAP4 POP RETURNDATASIZE DUP1 DUP8 DUP4 RETURNDATACOPY PUSH2 0x523 DUP2 DUP4 PUSH2 0x1FE0 JUMP JUMPDEST DUP2 ADD SWAP1 PUSH2 0x202C JUMP JUMPDEST SWAP2 PUSH0 PUSH2 0x178 JUMP JUMPDEST PUSH1 0x40 MLOAD RETURNDATASIZE DUP8 DUP3 RETURNDATACOPY RETURNDATASIZE SWAP1 REVERT JUMPDEST DUP1 REVERT JUMPDEST POP CALLVALUE PUSH2 0x53D JUMPI PUSH1 0x20 CALLDATASIZE PUSH1 0x3 NOT ADD SLT PUSH2 0x53D JUMPI PUSH2 0x55A PUSH2 0x1D92 JUMP JUMPDEST PUSH2 0x562 PUSH2 0x1F0F JUMP JUMPDEST PUSH1 0x1 PUSH1 0x1 PUSH1 0xA0 SHL SUB SWAP1 DUP2 AND SWAP1 DUP2 ISZERO PUSH2 0x5B4 JUMPI PUSH0 SLOAD DUP3 PUSH12 0xFFFFFFFFFFFFFFFFFFFFFFFF PUSH1 0xA0 SHL DUP3 AND OR PUSH0 SSTORE AND PUSH32 0x8BE0079C531659141344CD1FD0A4F28419497F9722A3DAAFE3B4186F6B6457E0 PUSH0 DUP1 LOG3 DUP1 RETURN JUMPDEST PUSH1 0x40 MLOAD PUSH4 0x1E4FBDF7 PUSH1 0xE0 SHL DUP2 MSTORE PUSH1 0x4 DUP2 ADD DUP5 SWAP1 MSTORE PUSH1 0x24 SWAP1 REVERT JUMPDEST POP CALLVALUE PUSH2 0x53D JUMPI DUP1 PUSH1 0x3 NOT CALLDATASIZE ADD SLT PUSH2 0x53D JUMPI PUSH1 0x1 SLOAD PUSH1 0x40 MLOAD PUSH4 0x18BF7417 PUSH1 0xE3 SHL DUP2 MSTORE PUSH1 0x1 PUSH1 0x1 PUSH1 0xA0 SHL SUB SWAP1 SWAP2 AND SWAP2 PUSH1 0x20 DUP1 DUP4 PUSH1 0x4 DUP2 DUP8 GAS STATICCALL SWAP3 DUP4 ISZERO PUSH2 0x6B6 JUMPI DUP3 SWAP4 PUSH2 0x685 JUMPI JUMPDEST POP DUP1 PUSH1 0x4 SWAP5 PUSH1 0x40 MLOAD SWAP6 DUP7 DUP1 SWAP3 PUSH4 0xF25E78B1 PUSH1 0xE0 SHL DUP3 MSTORE GAS STATICCALL SWAP2 DUP3 ISZERO PUSH2 0x679 JUMPI SWAP2 PUSH2 0x645 JUMPI JUMPDEST PUSH1 0x40 DUP1 SWAP5 POP MLOAD SWAP3 DUP4 MSTORE DUP3 ADD MSTORE RETURN JUMPDEST DUP1 SWAP2 POP DUP4 DUP2 RETURNDATASIZE DUP4 GT PUSH2 0x672 JUMPI JUMPDEST PUSH2 0x65C DUP2 DUP4 PUSH2 0x1FE0 JUMP JUMPDEST DUP2 ADD SUB SLT PUSH2 0x66E JUMPI PUSH1 0x40 SWAP3 MLOAD SWAP1 PUSH2 0x637 JUMP JUMPDEST PUSH0 DUP1 REVERT JUMPDEST POP RETURNDATASIZE PUSH2 0x652 JUMP JUMPDEST PUSH1 0x40 MLOAD SWAP1 RETURNDATASIZE SWAP1 DUP3 RETURNDATACOPY RETURNDATASIZE SWAP1 REVERT JUMPDEST SWAP4 SWAP3 POP DUP1 DUP5 DUP2 RETURNDATASIZE DUP4 GT PUSH2 0x6AF JUMPI JUMPDEST PUSH2 0x69D DUP2 DUP4 PUSH2 0x1FE0 JUMP JUMPDEST DUP2 ADD SUB SLT PUSH2 0x66E JUMPI SWAP3 MLOAD SWAP2 SWAP3 DUP1 PUSH2 0x612 JUMP JUMPDEST POP RETURNDATASIZE PUSH2 0x693 JUMP JUMPDEST PUSH1 0x40 MLOAD RETURNDATASIZE DUP5 DUP3 RETURNDATACOPY RETURNDATASIZE SWAP1 REVERT JUMPDEST POP CALLVALUE PUSH2 0x53D JUMPI DUP1 PUSH1 0x3 NOT CALLDATASIZE ADD SLT PUSH2 0x53D JUMPI PUSH2 0x6DA PUSH2 0x1F0F JUMP JUMPDEST PUSH0 DUP1 SLOAD PUSH1 0xFF PUSH1 0xA0 SHL NOT AND SWAP1 SSTORE DUP1 RETURN JUMPDEST POP CALLVALUE PUSH2 0x53D JUMPI DUP1 PUSH1 0x3 NOT CALLDATASIZE ADD SLT PUSH2 0x53D JUMPI PUSH1 0x1 SLOAD PUSH1 0x40 MLOAD PUSH4 0x4673A213 PUSH1 0xE1 SHL DUP2 MSTORE SWAP2 SWAP1 PUSH1 0x1 PUSH1 0x1 PUSH1 0xA0 SHL SUB SWAP1 PUSH1 0x20 SWAP1 DUP5 SWAP1 PUSH1 0x4 SWAP1 DUP3 SWAP1 DUP6 AND GAS STATICCALL SWAP2 DUP3 ISZERO PUSH2 0x679 JUMPI DUP1 SWAP3 PUSH2 0x73E JUMPI JUMPDEST PUSH1 0x20 DUP4 DUP4 PUSH1 0x40 MLOAD SWAP2 AND DUP2 MSTORE RETURN JUMPDEST SWAP1 SWAP2 POP PUSH1 0x20 DUP4 RETURNDATASIZE DUP3 GT PUSH2 0x774 JUMPI JUMPDEST DUP2 PUSH2 0x759 PUSH1 0x20 SWAP4 DUP4 PUSH2 0x1FE0 JUMP JUMPDEST DUP2 ADD SUB SLT PUSH2 0x53D JUMPI POP PUSH2 0x76D PUSH1 0x20 SWAP3 PUSH2 0x2001 JUMP JUMPDEST SWAP1 PUSH0 PUSH2 0x731 JUMP JUMPDEST RETURNDATASIZE SWAP2 POP PUSH2 0x74C JUMP JUMPDEST POP CALLVALUE PUSH2 0x53D JUMPI PUSH1 0x20 CALLDATASIZE PUSH1 0x3 NOT ADD SLT PUSH2 0x53D JUMPI DUP1 PUSH2 0x797 PUSH2 0x1D92 JUMP JUMPDEST PUSH2 0x7A7 PUSH1 0xFF DUP4 SLOAD PUSH1 0xA0 SHR AND PUSH2 0x1F3A JUMP JUMPDEST PUSH2 0x7AF PUSH2 0x1F0F JUMP JUMPDEST PUSH1 0x1 SLOAD PUSH1 0x1 PUSH1 0x1 PUSH1 0xA0 SHL SUB SWAP1 DUP2 AND SWAP2 SWAP1 DUP3 EXTCODESIZE ISZERO PUSH2 0x802 JUMPI PUSH1 0x24 DUP5 SWAP3 DUP4 PUSH1 0x40 MLOAD SWAP6 DUP7 SWAP5 DUP6 SWAP4 PUSH4 0xC99CB2B7 PUSH1 0xE0 SHL DUP6 MSTORE AND PUSH1 0x4 DUP5 ADD MSTORE GAS CALL DUP1 ISZERO PUSH2 0x6B6 JUMPI PUSH2 0x7F2 JUMPI POP RETURN JUMPDEST PUSH2 0x7FB SWAP1 PUSH2 0x1F7B JUMP JUMPDEST PUSH2 0x53D JUMPI DUP1 RETURN JUMPDEST POP POP POP REVERT JUMPDEST POP CALLVALUE PUSH2 0x53D JUMPI DUP1 PUSH1 0x3 NOT CALLDATASIZE ADD SLT PUSH2 0x53D JUMPI PUSH1 0x1 SLOAD PUSH1 0x40 MLOAD PUSH1 0x1 PUSH1 0x1 PUSH1 0xA0 SHL SUB SWAP1 SWAP2 AND DUP2 MSTORE PUSH1 0x20 SWAP1 RETURN JUMPDEST POP CALLVALUE PUSH2 0x53D JUMPI PUSH1 0x20 SWAP1 DUP2 PUSH1 0x3 NOT CALLDATASIZE ADD SLT PUSH2 0x53D JUMPI PUSH2 0x84C PUSH2 0x1D92 JUMP JUMPDEST PUSH1 0x1 SLOAD PUSH1 0x40 MLOAD PUSH4 0xB1E3A941 PUSH1 0xE0 SHL DUP2 MSTORE PUSH1 0x1 PUSH1 0x1 PUSH1 0xA0 SHL SUB SWAP3 DUP4 AND PUSH1 0x4 DUP3 ADD MSTORE SWAP1 DUP5 SWAP1 DUP3 SWAP1 PUSH1 0x24 SWAP1 DUP3 SWAP1 DUP7 AND GAS STATICCALL SWAP3 DUP4 ISZERO PUSH2 0x679 JUMPI DUP1 SWAP4 PUSH2 0x893 JUMPI JUMPDEST POP POP PUSH1 0x40 MLOAD SWAP2 AND DUP2 MSTORE RETURN JUMPDEST SWAP1 SWAP2 SWAP3 POP DUP4 DUP3 DUP2 RETURNDATASIZE DUP4 GT PUSH2 0x8C6 JUMPI JUMPDEST PUSH2 0x8AC DUP2 DUP4 PUSH2 0x1FE0 JUMP JUMPDEST DUP2 ADD SUB SLT PUSH2 0x53D JUMPI POP PUSH2 0x8BE SWAP1 PUSH2 0x2001 JUMP JUMPDEST SWAP1 PUSH0 DUP1 PUSH2 0x888 JUMP JUMPDEST POP RETURNDATASIZE PUSH2 0x8A2 JUMP JUMPDEST POP CALLVALUE PUSH2 0x53D JUMPI DUP1 PUSH1 0x3 NOT CALLDATASIZE ADD SLT PUSH2 0x53D JUMPI PUSH2 0x8E6 PUSH2 0x1F0F JUMP JUMPDEST DUP1 SLOAD PUSH1 0xFF PUSH1 0xA0 SHL NOT AND PUSH1 0x1 PUSH1 0xA0 SHL OR DUP2 SSTORE DUP1 RETURN JUMPDEST DUP3 CALLVALUE PUSH2 0x53D JUMPI PUSH1 0x3 NOT DUP3 DUP2 CALLDATASIZE ADD SLT PUSH2 0xB00 JUMPI PUSH2 0x914 PUSH2 0x1D92 JUMP JUMPDEST PUSH1 0x1 PUSH1 0x1 PUSH1 0x40 SHL SUB SWAP4 PUSH1 0x84 CALLDATALOAD DUP6 DUP2 GT PUSH2 0xAFC JUMPI CALLDATASIZE PUSH1 0x23 DUP3 ADD SLT ISZERO PUSH2 0xAFC JUMPI DUP1 PUSH1 0x4 ADD CALLDATALOAD DUP7 DUP2 GT PUSH2 0xAF8 JUMPI DUP1 PUSH1 0x5 SHL SWAP5 CALLDATASIZE PUSH1 0x24 DUP8 DUP6 ADD ADD GT PUSH2 0xAF4 JUMPI PUSH1 0xA4 CALLDATALOAD DUP9 DUP2 GT PUSH2 0x391 JUMPI PUSH2 0x967 SWAP1 CALLDATASIZE SWAP1 PUSH1 0x4 ADD PUSH2 0x1EDF JUMP JUMPDEST SWAP2 SWAP1 SWAP9 PUSH1 0xC4 CALLDATALOAD SWAP1 DUP2 GT PUSH2 0x4D1 JUMPI PUSH2 0x982 SWAP1 CALLDATASIZE SWAP1 PUSH1 0x4 ADD PUSH2 0x1EDF JUMP JUMPDEST SWAP3 SWAP1 SWAP5 PUSH2 0x995 PUSH1 0xFF DUP12 SLOAD PUSH1 0xA0 SHR AND PUSH2 0x1F3A JUMP JUMPDEST PUSH2 0x99D PUSH2 0x1F0F JUMP JUMPDEST PUSH1 0x1 DUP1 PUSH1 0xA0 SHL SUB SWAP9 PUSH1 0x1 SWAP6 DUP11 DUP8 SLOAD AND SWAP9 DUP12 PUSH1 0x40 MLOAD SWAP12 PUSH4 0xA444477B PUSH1 0xE0 SHL DUP14 MSTORE AND PUSH1 0x4 DUP13 ADD MSTORE PUSH1 0x24 CALLDATALOAD PUSH1 0x24 DUP13 ADD MSTORE PUSH1 0x44 CALLDATALOAD PUSH1 0x44 DUP13 ADD MSTORE PUSH1 0x64 CALLDATALOAD PUSH1 0x64 DUP13 ADD MSTORE PUSH1 0x84 DUP12 ADD MSTORE DUP1 PUSH1 0xE4 DUP12 ADD MSTORE PUSH1 0x1 DUP1 PUSH1 0xFB SHL SUB LT PUSH2 0xAF0 JUMPI SWAP1 DUP3 DUP3 PUSH2 0x124 SWAP4 PUSH1 0x24 SWAP9 SWAP15 SWAP11 SWAP10 SWAP9 PUSH2 0x104 SWAP5 ADD DUP5 DUP14 ADD CALLDATACOPY DUP11 ADD SWAP2 DUP3 ADD PUSH2 0x100 DUP12 DUP5 SUB ADD PUSH1 0xA4 DUP13 ADD MSTORE MSTORE ADD SWAP6 SWAP1 DUP10 JUMPDEST DUP2 DUP2 LT PUSH2 0xAD1 JUMPI POP POP POP SWAP2 DUP8 SWAP2 DUP7 SWAP5 SWAP4 DUP6 DUP8 SUB ADD PUSH1 0xC4 DUP7 ADD MSTORE DUP1 DUP7 MSTORE PUSH1 0x20 SWAP10 DUP11 DUP1 SWAP8 ADD SWAP3 SWAP2 DUP5 JUMPDEST DUP2 DUP2 LT PUSH2 0xAAB JUMPI POP POP POP POP SWAP1 DUP4 DUP1 SWAP3 SUB SWAP3 GAS CALL SWAP3 DUP4 ISZERO PUSH2 0x679 JUMPI DUP1 SWAP4 PUSH2 0xA71 JUMPI POP POP PUSH1 0x40 MLOAD SWAP2 AND DUP2 MSTORE RETURN JUMPDEST SWAP1 SWAP2 SWAP3 POP DUP4 DUP3 DUP2 RETURNDATASIZE DUP4 GT PUSH2 0xAA4 JUMPI JUMPDEST PUSH2 0xA8A DUP2 DUP4 PUSH2 0x1FE0 JUMP JUMPDEST DUP2 ADD SUB SLT PUSH2 0x53D JUMPI POP PUSH2 0xA9C SWAP1 PUSH2 0x2001 JUMP JUMPDEST SWAP1 DUP4 DUP1 PUSH2 0x888 JUMP JUMPDEST POP RETURNDATASIZE PUSH2 0xA80 JUMP JUMPDEST DUP4 CALLDATALOAD DUP6 MSTORE DUP13 DUP5 ADD CALLDATALOAD DUP14 DUP7 ADD MSTORE DUP13 SWAP9 POP DUP10 SWAP8 POP DUP12 SWAP6 POP PUSH1 0x40 SWAP5 DUP6 ADD SWAP5 SWAP1 SWAP4 ADD SWAP3 DUP3 ADD PUSH2 0xA46 JUMP JUMPDEST DUP3 CALLDATALOAD DUP9 MSTORE PUSH1 0x20 DUP1 DUP5 ADD CALLDATALOAD SWAP1 DUP10 ADD MSTORE PUSH1 0x40 SWAP8 DUP9 ADD SWAP8 SWAP1 SWAP3 ADD SWAP2 DUP12 ADD PUSH2 0xA1F JUMP JUMPDEST DUP11 DUP1 REVERT JUMPDEST DUP7 DUP1 REVERT JUMPDEST DUP6 DUP1 REVERT JUMPDEST DUP5 DUP1 REVERT JUMPDEST POP DUP1 REVERT JUMPDEST DUP3 CALLVALUE PUSH2 0x53D JUMPI DUP1 PUSH1 0x3 NOT CALLDATASIZE ADD SLT PUSH2 0x53D JUMPI PUSH1 0x1 DUP1 SLOAD PUSH1 0x40 MLOAD PUSH4 0x97331BF9 PUSH1 0xE0 SHL DUP2 MSTORE SWAP2 SWAP4 SWAP1 PUSH1 0x1 PUSH1 0x1 PUSH1 0xA0 SHL SUB SWAP1 DUP5 SWAP1 DUP5 SWAP1 PUSH1 0x4 SWAP1 DUP3 SWAP1 DUP6 AND GAS STATICCALL SWAP3 DUP4 ISZERO PUSH2 0xE0D JUMPI DUP5 SWAP4 PUSH2 0xDF1 JUMPI JUMPDEST POP DUP3 MLOAD SWAP5 SWAP4 SWAP3 PUSH2 0xB5C DUP7 PUSH2 0x2015 JUMP JUMPDEST SWAP6 PUSH2 0xB6A PUSH1 0x40 MLOAD SWAP8 DUP9 PUSH2 0x1FE0 JUMP JUMPDEST DUP1 DUP8 MSTORE PUSH2 0xB79 PUSH1 0x1F NOT SWAP2 PUSH2 0x2015 JUMP JUMPDEST ADD DUP5 JUMPDEST DUP2 DUP2 LT PUSH2 0xDD2 JUMPI POP POP DUP5 DUP5 SWAP1 JUMPDEST PUSH2 0xBF2 JUMPI JUMPDEST POP POP POP POP SWAP1 PUSH1 0x40 MLOAD SWAP2 PUSH1 0x20 DUP1 DUP5 ADD SWAP1 DUP1 DUP6 MSTORE DUP6 MLOAD DUP1 SWAP3 MSTORE PUSH1 0x40 DUP6 ADD DUP2 PUSH1 0x40 DUP5 PUSH1 0x5 SHL DUP9 ADD ADD SWAP8 ADD SWAP4 SWAP1 JUMPDEST DUP4 DUP3 LT PUSH2 0xBC5 JUMPI DUP7 DUP9 SUB DUP8 RETURN JUMPDEST SWAP1 SWAP2 SWAP3 SWAP4 SWAP5 DUP4 DUP1 PUSH2 0xBE1 DUP4 SWAP11 PUSH1 0x3F NOT DUP12 DUP3 SUB ADD DUP7 MSTORE DUP10 MLOAD PUSH2 0x1DBE JUMP JUMPDEST SWAP10 SWAP8 ADD SWAP6 SWAP5 SWAP4 SWAP2 SWAP1 SWAP2 ADD SWAP2 ADD PUSH2 0xBB8 JUMP JUMPDEST DUP2 MLOAD DUP2 LT ISZERO PUSH2 0xDCD JUMPI DUP3 PUSH2 0xC06 DUP3 DUP5 PUSH2 0x211A JUMP JUMPDEST MLOAD PUSH1 0x40 MLOAD PUSH4 0x90229AF7 PUSH1 0xE0 SHL DUP2 MSTORE SWAP2 AND PUSH1 0x4 DUP3 ADD MSTORE DUP6 DUP2 PUSH1 0x24 DUP2 ADDRESS GAS STATICCALL SWAP1 DUP2 ISZERO PUSH2 0xDC2 JUMPI DUP7 SWAP2 PUSH2 0xC54 JUMPI JUMPDEST POP DUP2 PUSH2 0xC48 SWAP2 PUSH2 0x333 DUP10 SWAP11 SWAP9 SWAP10 SWAP8 SWAP7 SWAP6 SWAP5 DUP10 PUSH2 0x211A JUMP JUMPDEST SWAP1 SWAP2 SWAP3 SWAP4 SWAP6 SWAP5 SWAP7 PUSH2 0xB89 JUMP JUMPDEST SWAP1 POP RETURNDATASIZE DUP1 DUP8 DUP4 RETURNDATACOPY PUSH2 0xC65 DUP2 DUP4 PUSH2 0x1FE0 JUMP JUMPDEST DUP2 ADD PUSH1 0x20 SWAP2 DUP3 DUP2 DUP4 SUB SLT PUSH2 0x391 JUMPI DUP1 MLOAD PUSH1 0x1 PUSH1 0x1 PUSH1 0x40 SHL SUB SWAP2 DUP3 DUP3 GT PUSH2 0x4CD JUMPI ADD SWAP2 PUSH2 0x100 DUP4 DUP3 SUB SLT PUSH2 0x4D1 JUMPI PUSH1 0x40 MLOAD SWAP4 PUSH2 0xC9F DUP6 PUSH2 0x1FA9 JUMP JUMPDEST PUSH2 0xCA8 DUP5 PUSH2 0x20EB JUMP JUMPDEST DUP6 MSTORE PUSH2 0xCB5 DUP2 DUP6 ADD PUSH2 0x2001 JUMP JUMPDEST DUP2 DUP7 ADD MSTORE PUSH1 0x40 DUP5 ADD MLOAD PUSH1 0x40 DUP7 ADD MSTORE PUSH1 0x60 SWAP1 DUP2 DUP6 ADD MLOAD DUP5 DUP2 GT PUSH2 0xDAB JUMPI DUP6 ADD PUSH1 0x1F SWAP3 DUP5 DUP5 DUP4 ADD SLT ISZERO PUSH2 0x4C9 JUMPI DUP2 MLOAD SWAP2 PUSH2 0xCEC DUP4 PUSH2 0x2015 JUMP JUMPDEST SWAP3 PUSH2 0xCFA PUSH1 0x40 MLOAD SWAP5 DUP6 PUSH2 0x1FE0 JUMP JUMPDEST DUP1 DUP5 MSTORE DUP5 DUP1 DUP6 ADD SWAP2 PUSH1 0x5 SHL DUP4 ADD ADD SWAP2 DUP8 DUP4 GT PUSH2 0xDBE JUMPI DUP6 ADD SWAP1 JUMPDEST DUP3 DUP3 LT PUSH2 0xDAF JUMPI POP POP POP DUP8 SWAP15 SWAP13 SWAP14 SWAP15 ADD MSTORE PUSH1 0x80 DUP1 DUP7 ADD MLOAD DUP6 DUP2 GT PUSH2 0x4C5 JUMPI DUP7 ADD DUP5 DUP5 DUP3 ADD SLT ISZERO PUSH2 0x4C5 JUMPI DUP5 DUP2 DUP5 PUSH2 0xD4D SWAP4 MLOAD SWAP2 ADD PUSH2 0x21F6 JUMP JUMPDEST SWAP1 DUP8 ADD MSTORE PUSH1 0xA0 SWAP4 DUP5 DUP7 ADD MLOAD SWAP1 DUP2 GT PUSH2 0x4C9 JUMPI DUP4 SWAP1 DUP7 ADD SWAP3 DUP4 ADD SLT ISZERO PUSH2 0xDAB JUMPI SWAP3 PUSH2 0xD89 DUP11 SWAP10 SWAP9 SWAP8 SWAP6 SWAP3 SWAP4 DUP5 DUP16 SWAP13 SWAP6 SWAP7 PUSH2 0xC48 SWAP10 SWAP8 MLOAD SWAP2 ADD PUSH2 0x21F6 JUMP JUMPDEST SWAP1 DUP5 ADD MSTORE PUSH1 0xC0 DUP1 DUP3 ADD MLOAD SWAP1 DUP5 ADD MSTORE ADD MLOAD DUP7 DUP3 ADD MSTORE SWAP2 POP SWAP2 SWAP3 SWAP4 SWAP5 SWAP7 SWAP6 SWAP8 PUSH2 0xC31 JUMP JUMPDEST DUP12 DUP1 REVERT JUMPDEST DUP2 MLOAD DUP2 MSTORE SWAP1 DUP6 ADD SWAP1 DUP6 ADD PUSH2 0xD14 JUMP JUMPDEST DUP16 DUP1 REVERT JUMPDEST PUSH1 0x40 MLOAD RETURNDATASIZE DUP9 DUP3 RETURNDATACOPY RETURNDATASIZE SWAP1 REVERT JUMPDEST PUSH2 0xB8E JUMP JUMPDEST PUSH1 0x20 SWAP1 PUSH2 0xDE1 SWAP9 SWAP7 SWAP8 SWAP9 PUSH2 0x2142 JUMP JUMPDEST DUP3 DUP3 DUP10 ADD ADD MSTORE ADD SWAP7 SWAP6 SWAP5 SWAP7 PUSH2 0xB7C JUMP JUMPDEST PUSH2 0xE06 SWAP2 SWAP4 POP RETURNDATASIZE DUP1 DUP7 DUP4 RETURNDATACOPY PUSH2 0x523 DUP2 DUP4 PUSH2 0x1FE0 JUMP JUMPDEST SWAP2 DUP6 PUSH2 0xB4D JUMP JUMPDEST PUSH1 0x40 MLOAD RETURNDATASIZE DUP7 DUP3 RETURNDATACOPY RETURNDATASIZE SWAP1 REVERT JUMPDEST DUP3 CALLVALUE PUSH2 0x53D JUMPI DUP1 PUSH1 0x3 NOT CALLDATASIZE ADD SLT PUSH2 0x53D JUMPI PUSH1 0x1 DUP1 SLOAD PUSH1 0x40 MLOAD PUSH4 0x97331BF9 PUSH1 0xE0 SHL DUP2 MSTORE SWAP2 SWAP3 SWAP2 SWAP1 PUSH1 0x1 PUSH1 0x1 PUSH1 0xA0 SHL SUB SWAP1 DUP4 SWAP1 DUP4 SWAP1 PUSH1 0x4 SWAP1 DUP3 SWAP1 DUP6 AND GAS STATICCALL SWAP2 DUP3 ISZERO PUSH2 0xEC3 JUMPI DUP4 SWAP3 PUSH2 0xEA7 JUMPI JUMPDEST POP SWAP2 PUSH1 0x40 SWAP4 SWAP2 SWAP4 MLOAD SWAP3 PUSH1 0x20 DUP1 DUP6 ADD SWAP2 DUP2 DUP7 MSTORE DUP7 MLOAD DUP1 SWAP4 MSTORE DUP2 PUSH1 0x40 DUP8 ADD SWAP8 ADD SWAP4 SWAP1 JUMPDEST DUP4 DUP3 LT PUSH2 0xE90 JUMPI DUP7 DUP9 SUB DUP8 RETURN JUMPDEST DUP5 MLOAD DUP2 AND DUP9 MSTORE SWAP7 DUP3 ADD SWAP7 SWAP4 DUP3 ADD SWAP4 SWAP1 DUP6 ADD SWAP1 PUSH2 0xE83 JUMP JUMPDEST PUSH2 0xEBC SWAP2 SWAP3 POP RETURNDATASIZE DUP1 DUP6 DUP4 RETURNDATACOPY PUSH2 0x523 DUP2 DUP4 PUSH2 0x1FE0 JUMP JUMPDEST SWAP1 DUP5 PUSH2 0xE62 JUMP JUMPDEST PUSH1 0x40 MLOAD RETURNDATASIZE DUP6 DUP3 RETURNDATACOPY RETURNDATASIZE SWAP1 REVERT JUMPDEST DUP3 CALLVALUE PUSH2 0x53D JUMPI PUSH1 0x40 CALLDATASIZE PUSH1 0x3 NOT ADD SLT PUSH2 0x53D JUMPI DUP1 PUSH2 0xEE9 PUSH2 0x1D92 JUMP JUMPDEST PUSH2 0xEF1 PUSH2 0x1DA8 JUMP JUMPDEST PUSH2 0xF01 PUSH1 0xFF DUP5 SLOAD PUSH1 0xA0 SHR AND PUSH2 0x1F3A JUMP JUMPDEST PUSH1 0x1 PUSH1 0x1 PUSH1 0xA0 SHL SUB SWAP2 DUP3 AND SWAP2 DUP3 EXTCODESIZE ISZERO PUSH2 0x802 JUMPI PUSH1 0x44 DUP5 SWAP3 DUP4 PUSH1 0x40 MLOAD SWAP6 DUP7 SWAP5 DUP6 SWAP4 PUSH4 0x4B6C77C7 PUSH1 0xE1 SHL DUP6 MSTORE AND PUSH1 0x4 DUP5 ADD MSTORE CALLER PUSH1 0x24 DUP5 ADD MSTORE GAS CALL DUP1 ISZERO PUSH2 0x6B6 JUMPI PUSH2 0x7F2 JUMPI POP RETURN JUMPDEST DUP3 CALLVALUE PUSH2 0x53D JUMPI PUSH1 0x20 SWAP1 DUP2 PUSH1 0x3 NOT CALLDATASIZE ADD SLT PUSH2 0x53D JUMPI PUSH2 0xF62 PUSH2 0x1D92 JUMP JUMPDEST SWAP3 PUSH2 0xF6B PUSH2 0x2142 JUMP JUMPDEST SWAP4 PUSH1 0x1 PUSH1 0x1 PUSH1 0xA0 SHL SUB DUP1 DUP3 AND SWAP2 DUP3 ISZERO PUSH2 0x1513 JUMPI EXTCODESIZE ISZERO PUSH2 0x14DD JUMPI PUSH1 0x40 MLOAD PUSH4 0x8BCF8B5 PUSH1 0xE2 SHL DUP2 MSTORE DUP6 DUP2 PUSH1 0x4 DUP2 DUP7 GAS STATICCALL DUP6 SWAP2 DUP2 PUSH2 0x14A6 JUMPI JUMPDEST POP PUSH2 0x149D JUMPI POP DUP4 DUP7 MSTORE JUMPDEST PUSH1 0x40 MLOAD PUSH4 0x7E062A35 PUSH1 0xE1 SHL DUP2 MSTORE DUP6 DUP2 PUSH1 0x4 DUP2 DUP7 GAS STATICCALL DUP6 SWAP2 DUP2 PUSH2 0x1466 JUMPI JUMPDEST POP PUSH2 0x145C JUMPI POP POP DUP3 DUP5 DUP7 ADD MSTORE JUMPDEST PUSH1 0x40 MLOAD PUSH4 0x94B81D3 PUSH1 0xE0 SHL DUP2 MSTORE DUP5 DUP2 PUSH1 0x4 DUP2 DUP6 GAS STATICCALL DUP5 SWAP2 DUP2 PUSH2 0x142D JUMPI JUMPDEST POP PUSH2 0x1423 JUMPI POP DUP3 PUSH1 0x40 DUP7 ADD MSTORE JUMPDEST PUSH1 0x40 MLOAD PUSH4 0x359CFBF7 PUSH1 0xE0 SHL DUP2 MSTORE DUP5 DUP2 PUSH1 0x4 DUP2 DUP6 GAS STATICCALL DUP5 SWAP2 DUP2 PUSH2 0x13F4 JUMPI JUMPDEST POP PUSH2 0x132E JUMPI POP PUSH1 0x40 MLOAD PUSH2 0x102E DUP2 PUSH2 0x1FC5 JUMP JUMPDEST DUP4 DUP2 MSTORE PUSH1 0x60 DUP7 ADD MSTORE JUMPDEST PUSH1 0x40 MLOAD PUSH4 0xC122C2A1 PUSH1 0xE0 SHL DUP2 MSTORE DUP5 DUP2 PUSH1 0x4 DUP2 DUP6 GAS STATICCALL DUP5 SWAP2 DUP2 PUSH2 0x12FF JUMPI JUMPDEST POP PUSH2 0x1297 JUMPI POP PUSH1 0x40 MLOAD PUSH2 0x1066 DUP2 PUSH2 0x1FC5 JUMP JUMPDEST PUSH0 DUP2 MSTORE PUSH1 0x80 DUP7 ADD MSTORE JUMPDEST PUSH1 0x40 MLOAD PUSH4 0xB9B792CD PUSH1 0xE0 SHL DUP2 MSTORE DUP5 DUP2 PUSH1 0x4 DUP2 DUP6 GAS STATICCALL DUP5 SWAP2 DUP2 PUSH2 0x1268 JUMPI JUMPDEST POP PUSH2 0x118B JUMPI POP PUSH1 0x40 MLOAD PUSH2 0x109E DUP2 PUSH2 0x1FC5 JUMP JUMPDEST PUSH0 DUP2 MSTORE PUSH1 0xA0 DUP7 ADD MSTORE JUMPDEST PUSH1 0x40 MLOAD PUSH4 0x41B3D185 PUSH1 0xE0 SHL DUP2 MSTORE SWAP1 DUP5 SWAP1 DUP2 DUP4 PUSH1 0x4 DUP2 DUP5 GAS STATICCALL DUP1 SWAP4 DUP7 SWAP2 PUSH2 0x1159 JUMPI JUMPDEST POP PUSH1 0x4 SWAP4 PUSH2 0x114F JUMPI POP DUP5 PUSH1 0xC0 DUP9 ADD MSTORE JUMPDEST PUSH1 0x40 MLOAD PUSH4 0x3041F2CD PUSH1 0xE1 SHL DUP2 MSTORE SWAP3 DUP4 SWAP2 DUP3 SWAP1 GAS STATICCALL DUP4 SWAP2 DUP2 PUSH2 0x1120 JUMPI JUMPDEST POP PUSH2 0x1116 JUMPI POP DUP4 ADD MSTORE JUMPDEST PUSH2 0x1112 PUSH1 0x40 MLOAD SWAP3 DUP3 DUP5 SWAP4 DUP5 MSTORE DUP4 ADD SWAP1 PUSH2 0x1DBE JUMP JUMPDEST SUB SWAP1 RETURN JUMPDEST SWAP2 POP DUP4 ADD MSTORE PUSH2 0x10FE JUMP JUMPDEST SWAP1 SWAP2 POP DUP5 DUP2 DUP2 RETURNDATASIZE DUP4 GT PUSH2 0x1148 JUMPI JUMPDEST PUSH2 0x1138 DUP2 DUP4 PUSH2 0x1FE0 JUMP JUMPDEST DUP2 ADD SUB SLT PUSH2 0x66E JUMPI MLOAD SWAP1 DUP7 PUSH2 0x10F4 JUMP JUMPDEST POP RETURNDATASIZE PUSH2 0x112E JUMP JUMPDEST PUSH1 0xC0 DUP9 ADD MSTORE PUSH2 0x10D8 JUMP JUMPDEST DUP4 DUP2 SWAP5 SWAP3 POP RETURNDATASIZE DUP4 GT PUSH2 0x1184 JUMPI JUMPDEST PUSH2 0x1170 DUP2 DUP4 PUSH2 0x1FE0 JUMP JUMPDEST DUP2 ADD SUB SLT PUSH2 0x66E JUMPI SWAP1 MLOAD DUP6 SWAP2 SWAP1 PUSH1 0x4 PUSH2 0x10C8 JUMP JUMPDEST POP RETURNDATASIZE PUSH2 0x1166 JUMP JUMPDEST PUSH2 0x1194 DUP2 PUSH2 0x2180 JUMP JUMPDEST PUSH1 0xA0 DUP8 ADD SWAP1 DUP2 MSTORE DUP5 JUMPDEST DUP3 DUP2 LT PUSH2 0x11AC JUMPI POP POP POP PUSH2 0x10A7 JUMP JUMPDEST PUSH2 0x120C SWAP1 PUSH1 0x40 MLOAD PUSH4 0x503306FD PUSH1 0xE1 SHL DUP2 MSTORE DUP2 PUSH1 0x4 DUP3 ADD MSTORE DUP2 PUSH1 0x40 DUP3 PUSH1 0x24 DUP2 DUP11 GAS STATICCALL SWAP2 DUP3 DUP11 SWAP2 DUP12 SWAP5 PUSH2 0x1235 JUMPI JUMPDEST POP PUSH2 0x1211 JUMPI POP PUSH2 0x33E SWAP2 POP PUSH1 0x40 MLOAD PUSH2 0x11EF DUP2 PUSH2 0x1F8E JUMP JUMPDEST DUP10 DUP2 MSTORE PUSH2 0x2710 DUP12 DUP3 ADD MSTORE DUP6 MLOAD SWAP1 PUSH2 0x1206 DUP4 DUP4 PUSH2 0x211A JUMP JUMPDEST MSTORE PUSH2 0x211A JUMP JUMPDEST PUSH2 0x119D JUMP JUMPDEST PUSH2 0x33E SWAP3 PUSH1 0x40 MLOAD SWAP2 PUSH2 0x1222 DUP4 PUSH2 0x1F8E JUMP JUMPDEST DUP3 MSTORE DUP12 DUP3 ADD MSTORE DUP6 MLOAD SWAP1 PUSH2 0x1206 DUP4 DUP4 PUSH2 0x211A JUMP JUMPDEST SWAP1 SWAP4 POP PUSH2 0x125A SWAP2 POP PUSH1 0x40 RETURNDATASIZE PUSH1 0x40 GT PUSH2 0x1261 JUMPI JUMPDEST PUSH2 0x1252 DUP2 DUP4 PUSH2 0x1FE0 JUMP JUMPDEST DUP2 ADD SWAP1 PUSH2 0x21E0 JUMP JUMPDEST SWAP3 DUP14 PUSH2 0x11D8 JUMP JUMPDEST POP RETURNDATASIZE PUSH2 0x1248 JUMP JUMPDEST SWAP1 SWAP2 POP DUP6 DUP2 DUP2 RETURNDATASIZE DUP4 GT PUSH2 0x1290 JUMPI JUMPDEST PUSH2 0x1280 DUP2 DUP4 PUSH2 0x1FE0 JUMP JUMPDEST DUP2 ADD SUB SLT PUSH2 0x66E JUMPI MLOAD SWAP1 DUP8 PUSH2 0x108C JUMP JUMPDEST POP RETURNDATASIZE PUSH2 0x1276 JUMP JUMPDEST PUSH2 0x12A0 DUP2 PUSH2 0x2180 JUMP JUMPDEST PUSH1 0x80 DUP8 ADD SWAP1 DUP2 MSTORE DUP5 JUMPDEST DUP3 DUP2 LT PUSH2 0x12B8 JUMPI POP POP POP PUSH2 0x106F JUMP JUMPDEST PUSH2 0x12FA SWAP1 PUSH1 0x40 MLOAD PUSH4 0x5350CBD9 PUSH1 0xE0 SHL DUP2 MSTORE DUP2 PUSH1 0x4 DUP3 ADD MSTORE DUP2 PUSH1 0x40 DUP3 PUSH1 0x24 DUP2 DUP11 GAS STATICCALL SWAP2 DUP3 DUP11 SWAP2 DUP12 SWAP5 PUSH2 0x1235 JUMPI POP PUSH2 0x1211 JUMPI POP PUSH2 0x33E SWAP2 POP PUSH1 0x40 MLOAD PUSH2 0x11EF DUP2 PUSH2 0x1F8E JUMP JUMPDEST PUSH2 0x12A9 JUMP JUMPDEST SWAP1 SWAP2 POP DUP6 DUP2 DUP2 RETURNDATASIZE DUP4 GT PUSH2 0x1327 JUMPI JUMPDEST PUSH2 0x1317 DUP2 DUP4 PUSH2 0x1FE0 JUMP JUMPDEST DUP2 ADD SUB SLT PUSH2 0x66E JUMPI MLOAD SWAP1 DUP8 PUSH2 0x1054 JUMP JUMPDEST POP RETURNDATASIZE PUSH2 0x130D JUMP JUMPDEST PUSH2 0x1337 DUP2 PUSH2 0x2015 JUMP JUMPDEST SWAP1 PUSH2 0x1345 PUSH1 0x40 MLOAD SWAP3 DUP4 PUSH2 0x1FE0 JUMP JUMPDEST DUP1 DUP3 MSTORE PUSH1 0x1F NOT PUSH2 0x1354 DUP3 PUSH2 0x2015 JUMP JUMPDEST ADD CALLDATASIZE DUP8 DUP5 ADD CALLDATACOPY PUSH1 0x60 DUP8 ADD SWAP2 DUP3 MSTORE DUP5 JUMPDEST DUP2 DUP2 LT PUSH2 0x1372 JUMPI POP POP POP PUSH2 0x1037 JUMP JUMPDEST PUSH1 0x40 MLOAD PUSH4 0x10390D35 PUSH1 0xE0 SHL DUP2 MSTORE PUSH1 0x4 DUP2 ADD DUP3 SWAP1 MSTORE SWAP1 DUP8 DUP3 PUSH1 0x24 DUP2 DUP9 GAS STATICCALL DUP1 DUP9 SWAP2 PUSH2 0x13C3 JUMPI JUMPDEST PUSH2 0x13B3 SWAP4 POP PUSH2 0x13B8 JUMPI POP DUP7 PUSH2 0x13AD DUP3 DUP7 MLOAD PUSH2 0x211A JUMP JUMPDEST MSTORE PUSH2 0x20F8 JUMP JUMPDEST PUSH2 0x1363 JUMP JUMPDEST PUSH2 0x13AD DUP3 DUP7 MLOAD PUSH2 0x211A JUMP JUMPDEST SWAP1 POP DUP9 DUP4 DUP2 RETURNDATASIZE DUP4 GT PUSH2 0x13ED JUMPI JUMPDEST PUSH2 0x13DA DUP2 DUP4 PUSH2 0x1FE0 JUMP JUMPDEST DUP2 ADD SUB SLT PUSH2 0x66E JUMPI PUSH2 0x13B3 SWAP3 MLOAD SWAP1 PUSH2 0x1397 JUMP JUMPDEST POP RETURNDATASIZE PUSH2 0x13D0 JUMP JUMPDEST SWAP1 SWAP2 POP DUP6 DUP2 DUP2 RETURNDATASIZE DUP4 GT PUSH2 0x141C JUMPI JUMPDEST PUSH2 0x140C DUP2 DUP4 PUSH2 0x1FE0 JUMP JUMPDEST DUP2 ADD SUB SLT PUSH2 0x66E JUMPI MLOAD SWAP1 DUP8 PUSH2 0x101C JUMP JUMPDEST POP RETURNDATASIZE PUSH2 0x1402 JUMP JUMPDEST PUSH1 0x40 DUP7 ADD MSTORE PUSH2 0xFFF JUMP JUMPDEST SWAP1 SWAP2 POP DUP6 DUP2 DUP2 RETURNDATASIZE DUP4 GT PUSH2 0x1455 JUMPI JUMPDEST PUSH2 0x1445 DUP2 DUP4 PUSH2 0x1FE0 JUMP JUMPDEST DUP2 ADD SUB SLT PUSH2 0xAFC JUMPI MLOAD SWAP1 DUP8 PUSH2 0xFF2 JUMP JUMPDEST POP RETURNDATASIZE PUSH2 0x143B JUMP JUMPDEST AND DUP5 DUP7 ADD MSTORE PUSH2 0xFD5 JUMP JUMPDEST SWAP1 SWAP2 POP DUP7 DUP2 DUP2 RETURNDATASIZE DUP4 GT PUSH2 0x1496 JUMPI JUMPDEST PUSH2 0x147E DUP2 DUP4 PUSH2 0x1FE0 JUMP JUMPDEST DUP2 ADD SUB SLT PUSH2 0xAF8 JUMPI PUSH2 0x148F SWAP1 PUSH2 0x2001 JUMP JUMPDEST SWAP1 DUP9 PUSH2 0xFC8 JUMP JUMPDEST POP RETURNDATASIZE PUSH2 0x1474 JUMP JUMPDEST ISZERO ISZERO DUP7 MSTORE PUSH2 0xFAB JUMP JUMPDEST SWAP1 SWAP2 POP DUP7 DUP2 DUP2 RETURNDATASIZE DUP4 GT PUSH2 0x14D6 JUMPI JUMPDEST PUSH2 0x14BE DUP2 DUP4 PUSH2 0x1FE0 JUMP JUMPDEST DUP2 ADD SUB SLT PUSH2 0xAF8 JUMPI PUSH2 0x14CF SWAP1 PUSH2 0x20EB JUMP JUMPDEST SWAP1 DUP9 PUSH2 0xFA1 JUMP JUMPDEST POP RETURNDATASIZE PUSH2 0x14B4 JUMP JUMPDEST PUSH1 0x40 MLOAD PUSH3 0x461BCD PUSH1 0xE5 SHL DUP2 MSTORE PUSH1 0x4 DUP2 ADD DUP7 SWAP1 MSTORE PUSH1 0xE PUSH1 0x24 DUP3 ADD MSTORE PUSH14 0x1B9BDD08184818DBDB9D1C9858DD PUSH1 0x92 SHL PUSH1 0x44 DUP3 ADD MSTORE PUSH1 0x64 SWAP1 REVERT JUMPDEST PUSH1 0x40 MLOAD PUSH3 0x461BCD PUSH1 0xE5 SHL DUP2 MSTORE PUSH1 0x4 DUP2 ADD DUP8 SWAP1 MSTORE PUSH1 0x7 PUSH1 0x24 DUP3 ADD MSTORE PUSH7 0x7661756C74203 PUSH1 0xCC SHL PUSH1 0x44 DUP3 ADD MSTORE PUSH1 0x64 SWAP1 REVERT JUMPDEST DUP3 CALLVALUE PUSH2 0x53D JUMPI DUP1 PUSH1 0x3 NOT CALLDATASIZE ADD SLT PUSH2 0x53D JUMPI SLOAD PUSH1 0x40 MLOAD PUSH1 0x1 PUSH1 0x1 PUSH1 0xA0 SHL SUB SWAP1 SWAP2 AND DUP2 MSTORE PUSH1 0x20 SWAP1 RETURN JUMPDEST DUP3 CALLVALUE PUSH2 0x53D JUMPI DUP1 PUSH1 0x3 NOT CALLDATASIZE ADD SLT PUSH2 0x53D JUMPI PUSH1 0x1 SLOAD PUSH1 0x40 MLOAD PUSH1 0x1 PUSH1 0x1 PUSH1 0xA0 SHL SUB SWAP1 SWAP2 AND DUP2 MSTORE PUSH1 0x20 SWAP1 RETURN JUMPDEST DUP3 CALLVALUE PUSH2 0x53D JUMPI DUP1 PUSH1 0x3 NOT CALLDATASIZE ADD SLT PUSH2 0x53D JUMPI PUSH2 0x15AB PUSH2 0x1F0F JUMP JUMPDEST PUSH0 DUP1 SLOAD PUSH1 0x1 PUSH1 0x1 PUSH1 0xA0 SHL SUB NOT DUP2 AND DUP3 SSTORE PUSH1 0x1 PUSH1 0x1 PUSH1 0xA0 SHL SUB AND PUSH32 0x8BE0079C531659141344CD1FD0A4F28419497F9722A3DAAFE3B4186F6B6457E0 DUP3 DUP1 LOG3 DUP1 RETURN JUMPDEST DUP3 CALLVALUE PUSH2 0x53D JUMPI PUSH1 0x20 CALLDATASIZE PUSH1 0x3 NOT ADD SLT PUSH2 0x53D JUMPI PUSH2 0x1605 PUSH2 0x1D92 JUMP JUMPDEST PUSH2 0x160D PUSH2 0x1F0F JUMP JUMPDEST PUSH1 0x1 PUSH1 0x1 PUSH1 0xA0 SHL SUB AND DUP1 ISZERO PUSH2 0x1637 JUMPI PUSH12 0xFFFFFFFFFFFFFFFFFFFFFFFF PUSH1 0xA0 SHL PUSH1 0x1 SLOAD AND OR PUSH1 0x1 SSTORE DUP1 RETURN JUMPDEST PUSH1 0x40 MLOAD PUSH3 0x461BCD PUSH1 0xE5 SHL DUP2 MSTORE PUSH1 0x20 PUSH1 0x4 DUP3 ADD MSTORE PUSH1 0x9 PUSH1 0x24 DUP3 ADD MSTORE PUSH9 0x666163746F7279203 PUSH1 0xBC SHL PUSH1 0x44 DUP3 ADD MSTORE PUSH1 0x64 SWAP1 REVERT JUMPDEST DUP3 CALLVALUE PUSH2 0x53D JUMPI PUSH1 0x20 CALLDATASIZE PUSH1 0x3 NOT ADD SLT PUSH2 0x53D JUMPI DUP1 PUSH2 0x1683 PUSH2 0x1D92 JUMP JUMPDEST PUSH2 0x1693 PUSH1 0xFF DUP4 SLOAD PUSH1 0xA0 SHR AND PUSH2 0x1F3A JUMP JUMPDEST PUSH1 0x1 PUSH1 0x1 PUSH1 0xA0 SHL SUB AND DUP1 EXTCODESIZE ISZERO PUSH2 0x16CE JUMPI DUP2 DUP1 SWAP2 PUSH1 0x24 PUSH1 0x40 MLOAD DUP1 SWAP5 DUP2 SWAP4 PUSH4 0x2C07E405 PUSH1 0xE1 SHL DUP4 MSTORE CALLER PUSH1 0x4 DUP5 ADD MSTORE GAS CALL DUP1 ISZERO PUSH2 0x6B6 JUMPI PUSH2 0x7F2 JUMPI POP RETURN JUMPDEST POP REVERT JUMPDEST DUP3 CALLVALUE PUSH2 0x53D JUMPI DUP1 PUSH1 0x3 NOT CALLDATASIZE ADD SLT PUSH2 0x53D JUMPI PUSH1 0xFF PUSH1 0x20 SWAP2 SLOAD PUSH1 0xA0 SHR AND PUSH1 0x40 MLOAD SWAP1 ISZERO ISZERO DUP2 MSTORE RETURN JUMPDEST DUP3 CALLVALUE PUSH2 0x53D JUMPI PUSH1 0x20 SWAP1 DUP2 PUSH1 0x3 NOT CALLDATASIZE ADD SLT PUSH2 0x53D JUMPI PUSH2 0x1712 PUSH2 0x1D92 JUMP JUMPDEST PUSH1 0x1 DUP1 SLOAD PUSH1 0x40 MLOAD PUSH4 0x97331BF9 PUSH1 0xE0 SHL DUP2 MSTORE SWAP2 SWAP5 SWAP2 SWAP3 PUSH1 0x1 PUSH1 0x1 PUSH1 0xA0 SHL SUB SWAP3 SWAP2 DUP4 AND SWAP1 DUP6 DUP6 PUSH1 0x4 DUP2 DUP6 GAS STATICCALL SWAP5 DUP6 ISZERO PUSH2 0xDC2 JUMPI DUP7 SWAP6 PUSH2 0x19EF JUMPI JUMPDEST POP DUP5 SWAP7 SWAP5 SWAP6 SWAP4 SWAP3 SWAP6 MLOAD SWAP7 PUSH2 0x175D DUP9 PUSH2 0x2015 JUMP JUMPDEST SWAP8 PUSH2 0x176B PUSH1 0x40 MLOAD SWAP10 DUP11 PUSH2 0x1FE0 JUMP JUMPDEST DUP1 DUP10 MSTORE PUSH2 0x177A PUSH1 0x1F NOT SWAP2 PUSH2 0x2015 JUMP JUMPDEST ADD DUP6 JUMPDEST DUP2 DUP2 LT PUSH2 0x19C0 JUMPI POP POP DUP6 DUP6 SWAP1 JUMPDEST PUSH2 0x17DC JUMPI JUMPDEST POP POP POP POP PUSH1 0x40 MLOAD SWAP4 DUP1 DUP6 ADD SWAP2 DUP2 DUP7 MSTORE DUP7 MLOAD DUP1 SWAP4 MSTORE DUP2 PUSH1 0x40 DUP8 ADD SWAP8 ADD SWAP4 SWAP1 JUMPDEST DUP4 DUP3 LT PUSH2 0x17BA JUMPI DUP7 DUP9 SUB DUP8 RETURN JUMPDEST DUP5 MLOAD DUP1 MLOAD DUP3 AND DUP10 MSTORE DUP4 ADD MLOAD DUP4 DUP10 ADD MSTORE PUSH1 0x40 SWAP1 SWAP8 ADD SWAP7 SWAP4 DUP3 ADD SWAP4 SWAP1 DUP6 ADD SWAP1 PUSH2 0x17AD JUMP JUMPDEST DUP2 SWAP9 SWAP7 SWAP9 SWAP8 SWAP5 SWAP6 SWAP8 MLOAD DUP2 LT ISZERO PUSH2 0x19B4 JUMPI PUSH1 0x4 DUP6 DUP8 PUSH2 0x17FA DUP5 DUP7 PUSH2 0x211A JUMP JUMPDEST MLOAD AND PUSH1 0x40 MLOAD SWAP3 DUP4 DUP1 SWAP3 PUSH4 0x7E062A35 PUSH1 0xE1 SHL DUP3 MSTORE GAS STATICCALL SWAP1 DUP2 ISZERO PUSH2 0x19A9 JUMPI DUP10 SWAP2 PUSH2 0x1974 JUMPI JUMPDEST POP PUSH1 0x40 MLOAD PUSH4 0xB1E3A941 PUSH1 0xE0 SHL DUP2 MSTORE SWAP1 DUP8 AND PUSH1 0x4 DUP3 ADD DUP2 SWAP1 MSTORE SWAP1 PUSH1 0x24 DUP8 DUP3 DUP3 DUP2 DUP11 GAS STATICCALL SWAP2 DUP3 ISZERO PUSH2 0x1969 JUMPI SWAP1 DUP13 SWAP7 SWAP6 SWAP5 SWAP4 SWAP3 SWAP2 DUP13 SWAP3 PUSH2 0x1926 JUMPI JUMPDEST POP DUP9 DUP11 DUP14 SWAP4 AND DUP1 PUSH2 0x18A0 JUMPI JUMPDEST POP POP POP SWAP1 PUSH2 0x1892 SWAP3 SWAP2 PUSH1 0x40 MLOAD SWAP2 PUSH2 0x1877 DUP4 PUSH2 0x1F8E JUMP JUMPDEST DUP3 MSTORE DUP9 DUP3 ADD MSTORE PUSH2 0x1887 DUP3 DUP12 PUSH2 0x211A JUMP JUMPDEST MSTORE PUSH2 0x33E DUP2 DUP11 PUSH2 0x211A JUMP JUMPDEST SWAP1 SWAP2 SWAP3 SWAP7 SWAP9 SWAP8 SWAP6 SWAP5 SWAP8 PUSH2 0x178A JUMP JUMPDEST SWAP2 SWAP4 SWAP5 SWAP6 SWAP7 SWAP8 POP SWAP2 POP PUSH1 0x40 MLOAD SWAP3 DUP4 DUP1 SWAP3 PUSH4 0x18E521FD PUSH1 0xE2 SHL DUP3 MSTORE DUP13 DUP11 AND PUSH1 0x4 DUP4 ADD MSTORE GAS STATICCALL SWAP1 DUP2 ISZERO PUSH2 0x191B JUMPI SWAP1 DUP12 SWAP6 SWAP5 SWAP4 SWAP3 SWAP2 DUP12 SWAP2 PUSH2 0x18E4 JUMPI JUMPDEST POP PUSH2 0x1892 DUP9 DUP15 PUSH2 0x1861 JUMP JUMPDEST DUP1 SWAP4 SWAP3 SWAP7 POP DUP9 DUP1 SWAP3 POP RETURNDATASIZE DUP4 GT PUSH2 0x1914 JUMPI JUMPDEST PUSH2 0x18FF DUP2 DUP4 PUSH2 0x1FE0 JUMP JUMPDEST DUP2 ADD SUB SLT PUSH2 0x66E JUMPI SWAP1 MLOAD DUP11 SWAP5 SWAP1 PUSH2 0x1892 PUSH2 0x18D9 JUMP JUMPDEST POP RETURNDATASIZE PUSH2 0x18F5 JUMP JUMPDEST PUSH1 0x40 MLOAD RETURNDATASIZE DUP13 DUP3 RETURNDATACOPY RETURNDATASIZE SWAP1 REVERT JUMPDEST DUP10 DUP1 SWAP3 SWAP5 SWAP6 SWAP7 SWAP8 SWAP9 POP DUP2 SWAP4 POP RETURNDATASIZE DUP4 GT PUSH2 0x1962 JUMPI JUMPDEST PUSH2 0x1944 DUP2 DUP4 PUSH2 0x1FE0 JUMP JUMPDEST DUP2 ADD SUB SLT PUSH2 0xAF0 JUMPI SWAP1 PUSH2 0x195B DUP13 SWAP7 SWAP6 SWAP5 SWAP4 SWAP3 PUSH2 0x2001 JUMP JUMPDEST SWAP1 DUP14 PUSH2 0x1855 JUMP JUMPDEST POP RETURNDATASIZE PUSH2 0x193A JUMP JUMPDEST PUSH1 0x40 MLOAD RETURNDATASIZE DUP14 DUP3 RETURNDATACOPY RETURNDATASIZE SWAP1 REVERT JUMPDEST SWAP1 POP DUP6 DUP2 DUP2 RETURNDATASIZE DUP4 GT PUSH2 0x19A2 JUMPI JUMPDEST PUSH2 0x198B DUP2 DUP4 PUSH2 0x1FE0 JUMP JUMPDEST DUP2 ADD SUB SLT PUSH2 0x4D1 JUMPI PUSH2 0x199C SWAP1 PUSH2 0x2001 JUMP JUMPDEST DUP11 PUSH2 0x181D JUMP JUMPDEST POP RETURNDATASIZE PUSH2 0x1981 JUMP JUMPDEST PUSH1 0x40 MLOAD RETURNDATASIZE DUP12 DUP3 RETURNDATACOPY RETURNDATASIZE SWAP1 REVERT JUMPDEST SWAP8 SWAP6 SWAP8 SWAP7 SWAP5 SWAP4 SWAP7 PUSH2 0x178F JUMP JUMPDEST SWAP8 DUP1 SWAP6 SWAP7 SWAP9 PUSH1 0x40 SWAP11 SWAP9 SWAP11 MLOAD PUSH2 0x19D4 DUP2 PUSH2 0x1F8E JUMP JUMPDEST PUSH0 DUP2 MSTORE PUSH0 DUP4 DUP3 ADD MSTORE DUP3 DUP3 DUP12 ADD ADD MSTORE ADD SWAP9 SWAP7 SWAP9 SWAP8 SWAP6 SWAP5 SWAP8 PUSH2 0x177D JUMP JUMPDEST PUSH2 0x1A04 SWAP2 SWAP6 POP RETURNDATASIZE DUP1 DUP9 DUP4 RETURNDATACOPY PUSH2 0x523 DUP2 DUP4 PUSH2 0x1FE0 JUMP JUMPDEST SWAP4 DUP8 PUSH2 0x174A JUMP JUMPDEST DUP3 CALLVALUE PUSH2 0x53D JUMPI PUSH1 0x60 CALLDATASIZE PUSH1 0x3 NOT ADD SLT PUSH2 0x53D JUMPI PUSH2 0x1A25 PUSH2 0x1D92 JUMP JUMPDEST SWAP1 PUSH1 0x24 SWAP2 DUP3 CALLDATALOAD PUSH2 0x1A3B PUSH1 0xFF DUP5 SLOAD PUSH1 0xA0 SHR AND PUSH2 0x1F3A JUMP JUMPDEST PUSH1 0x40 MLOAD PUSH4 0x23B872DD PUSH1 0xE0 SHL PUSH1 0x20 DUP1 DUP4 ADD SWAP2 DUP3 MSTORE CALLER DUP8 DUP5 ADD MSTORE ADDRESS PUSH1 0x44 DUP5 ADD MSTORE PUSH1 0x64 DUP1 DUP5 ADD DUP6 SWAP1 MSTORE DUP4 MSTORE PUSH1 0x1 PUSH1 0x1 PUSH1 0xA0 SHL SUB SWAP5 DUP6 AND SWAP5 SWAP1 SWAP3 SWAP1 SWAP2 PUSH1 0xA0 DUP3 ADD SWAP1 PUSH1 0x1 PUSH1 0x1 PUSH1 0x40 SHL SUB DUP3 GT DUP4 DUP4 LT OR PUSH2 0x1BF7 JUMPI DUP5 SWAP3 DUP9 SWAP3 PUSH1 0x40 MSTORE MLOAD SWAP1 DUP3 DUP9 GAS CALL ISZERO PUSH2 0xE0D JUMPI DUP5 MLOAD RETURNDATASIZE PUSH2 0x1BEE JUMPI POP DUP4 EXTCODESIZE ISZERO JUMPDEST PUSH2 0x1BD6 JUMPI SWAP5 DUP2 DUP7 DUP3 SWAP4 DUP8 SWAP9 PUSH1 0x1 SLOAD AND PUSH1 0x40 MLOAD SWAP5 DUP6 DUP1 SWAP3 PUSH4 0xB1E3A941 PUSH1 0xE0 SHL DUP3 MSTORE DUP11 PUSH1 0x4 DUP4 ADD MSTORE GAS STATICCALL DUP1 ISZERO PUSH2 0x1BCB JUMPI DUP8 SWAP4 DUP5 SWAP2 PUSH2 0x1B8F JUMPI JUMPDEST POP AND SWAP5 DUP2 SWAP1 PUSH2 0x1AEF DUP8 ISZERO ISZERO PUSH2 0x20AD JUMP JUMPDEST PUSH1 0x44 PUSH1 0x40 MLOAD DUP1 SWAP6 DUP2 SWAP4 PUSH4 0x95EA7B3 PUSH1 0xE0 SHL DUP4 MSTORE DUP11 PUSH1 0x4 DUP5 ADD MSTORE DUP10 DUP10 DUP5 ADD MSTORE GAS CALL DUP1 ISZERO PUSH2 0xDC2 JUMPI PUSH2 0x1B5B JUMPI JUMPDEST POP POP DUP3 EXTCODESIZE ISZERO PUSH2 0x802 JUMPI PUSH1 0x64 DUP5 SWAP3 DUP4 PUSH1 0x40 MLOAD SWAP6 DUP7 SWAP5 DUP6 SWAP4 PUSH4 0x2C6C3AF3 PUSH1 0xE2 SHL DUP6 MSTORE PUSH1 0x4 DUP6 ADD MSTORE PUSH1 0x44 CALLDATALOAD SWAP1 DUP5 ADD MSTORE CALLER PUSH1 0x44 DUP5 ADD MSTORE GAS CALL DUP1 ISZERO PUSH2 0x6B6 JUMPI PUSH2 0x7F2 JUMPI POP RETURN JUMPDEST DUP2 DUP2 RETURNDATASIZE DUP4 GT PUSH2 0x1B88 JUMPI JUMPDEST PUSH2 0x1B6F DUP2 DUP4 PUSH2 0x1FE0 JUMP JUMPDEST DUP2 ADD SUB SLT PUSH2 0xAFC JUMPI PUSH2 0x1B80 SWAP1 PUSH2 0x20EB JUMP JUMPDEST POP DUP6 DUP1 PUSH2 0x1B1A JUMP JUMPDEST POP RETURNDATASIZE PUSH2 0x1B65 JUMP JUMPDEST DUP1 SWAP3 SWAP5 POP DUP4 DUP1 SWAP3 POP RETURNDATASIZE DUP4 GT PUSH2 0x1BC4 JUMPI JUMPDEST PUSH2 0x1BA9 DUP2 DUP4 PUSH2 0x1FE0 JUMP JUMPDEST DUP2 ADD SUB SLT PUSH2 0xAF4 JUMPI DUP7 SWAP3 PUSH2 0x1BBD DUP4 SWAP3 PUSH2 0x2001 JUMP JUMPDEST SWAP1 SWAP2 PUSH2 0x1ADF JUMP JUMPDEST POP RETURNDATASIZE PUSH2 0x1B9F JUMP JUMPDEST PUSH1 0x40 MLOAD RETURNDATASIZE DUP10 DUP3 RETURNDATACOPY RETURNDATASIZE SWAP1 REVERT JUMPDEST PUSH1 0x40 MLOAD PUSH4 0x5274AFE7 PUSH1 0xE0 SHL DUP2 MSTORE PUSH1 0x4 DUP2 ADD DUP6 SWAP1 MSTORE DUP7 SWAP1 REVERT JUMPDEST PUSH1 0x1 EQ ISZERO PUSH2 0x1AA8 JUMP JUMPDEST DUP9 PUSH4 0x4E487B71 PUSH1 0xE0 SHL PUSH0 MSTORE PUSH1 0x41 PUSH1 0x4 MSTORE PUSH0 REVERT JUMPDEST DUP3 CALLVALUE PUSH2 0x53D JUMPI PUSH1 0x40 CALLDATASIZE PUSH1 0x3 NOT ADD SLT PUSH2 0x53D JUMPI PUSH2 0x1C24 PUSH2 0x1F0F JUMP JUMPDEST PUSH1 0x1 SLOAD DUP2 SWAP1 PUSH1 0x1 PUSH1 0x1 PUSH1 0xA0 SHL SUB AND DUP1 EXTCODESIZE ISZERO PUSH2 0x16CE JUMPI DUP2 SWAP1 PUSH1 0x44 PUSH1 0x40 MLOAD DUP1 SWAP5 DUP2 SWAP4 PUSH3 0x2DE3E7 PUSH1 0xE6 SHL DUP4 MSTORE PUSH1 0x4 CALLDATALOAD PUSH1 0x4 DUP5 ADD MSTORE PUSH1 0x24 CALLDATALOAD PUSH1 0x24 DUP5 ADD MSTORE GAS CALL DUP1 ISZERO PUSH2 0x6B6 JUMPI PUSH2 0x1C6D JUMPI POP DUP1 RETURN JUMPDEST PUSH2 0x1C76 SWAP1 PUSH2 0x1F7B JUMP JUMPDEST DUP1 RETURN JUMPDEST DUP4 CALLVALUE PUSH2 0x53D JUMPI PUSH1 0x40 CALLDATASIZE PUSH1 0x3 NOT ADD SLT PUSH2 0x53D JUMPI PUSH2 0x1C93 PUSH2 0x1D92 JUMP JUMPDEST PUSH2 0x1C9B PUSH2 0x1DA8 JUMP JUMPDEST PUSH1 0x1 SLOAD PUSH4 0xB1E3A941 PUSH1 0xE0 SHL DUP6 MSTORE PUSH1 0x1 PUSH1 0x1 PUSH1 0xA0 SHL SUB SWAP3 DUP4 AND PUSH1 0x4 DUP7 ADD MSTORE PUSH1 0x20 SWAP5 SWAP2 SWAP3 SWAP2 SWAP1 DUP6 SWAP1 DUP3 SWAP1 PUSH1 0x24 SWAP1 DUP3 SWAP1 DUP7 AND GAS STATICCALL SWAP1 DUP2 ISZERO PUSH2 0xE0D JUMPI SWAP1 DUP6 SWAP3 SWAP2 DUP6 SWAP2 PUSH2 0x1D52 JUMPI JUMPDEST POP DUP2 PUSH1 0x24 SWAP2 AND SWAP4 PUSH2 0x1CF0 DUP6 ISZERO ISZERO PUSH2 0x20AD JUMP JUMPDEST PUSH1 0x40 MLOAD SWAP5 DUP6 SWAP4 DUP5 SWAP3 PUSH4 0x18E521FD PUSH1 0xE2 SHL DUP5 MSTORE AND PUSH1 0x4 DUP4 ADD MSTORE GAS STATICCALL SWAP2 DUP3 ISZERO PUSH2 0x679 JUMPI DUP1 SWAP3 PUSH2 0x1D22 JUMPI JUMPDEST POP POP PUSH1 0x40 MLOAD SWAP1 DUP2 MSTORE RETURN JUMPDEST SWAP1 SWAP2 POP DUP3 DUP3 DUP2 RETURNDATASIZE DUP4 GT PUSH2 0x1D4B JUMPI JUMPDEST PUSH2 0x1D3A DUP2 DUP4 PUSH2 0x1FE0 JUMP JUMPDEST DUP2 ADD SUB SLT PUSH2 0x53D JUMPI POP MLOAD DUP3 DUP1 PUSH2 0x1D18 JUMP JUMPDEST POP RETURNDATASIZE PUSH2 0x1D30 JUMP JUMPDEST DUP4 DUP2 SWAP4 SWAP5 SWAP3 POP RETURNDATASIZE DUP4 GT PUSH2 0x1D8B JUMPI JUMPDEST PUSH2 0x1D6A DUP2 DUP4 PUSH2 0x1FE0 JUMP JUMPDEST DUP2 ADD SUB SLT PUSH2 0x1D87 JUMPI SWAP1 PUSH1 0x24 DUP2 PUSH2 0x1D80 DUP8 SWAP5 PUSH2 0x2001 JUMP JUMPDEST SWAP2 POP PUSH2 0x1CDE JUMP JUMPDEST DUP4 DUP1 REVERT JUMPDEST POP RETURNDATASIZE PUSH2 0x1D60 JUMP JUMPDEST PUSH1 0x4 CALLDATALOAD SWAP1 PUSH1 0x1 PUSH1 0x1 PUSH1 0xA0 SHL SUB DUP3 AND DUP3 SUB PUSH2 0x66E JUMPI JUMP JUMPDEST PUSH1 0x24 CALLDATALOAD SWAP1 PUSH1 0x1 PUSH1 0x1 PUSH1 0xA0 SHL SUB DUP3 AND DUP3 SUB PUSH2 0x66E JUMPI JUMP JUMPDEST SWAP1 PUSH2 0x100 SWAP2 DUP3 DUP3 ADD DUP2 MLOAD ISZERO ISZERO DUP4 MSTORE PUSH1 0x20 SWAP1 PUSH1 0x1 DUP1 PUSH1 0xA0 SHL SUB DUP3 DUP5 ADD MLOAD AND DUP3 DUP6 ADD MSTORE PUSH1 0x40 DUP4 ADD MLOAD PUSH1 0x40 DUP6 ADD MSTORE PUSH1 0x60 DUP4 ADD MLOAD SWAP5 PUSH1 0x60 DUP6 ADD MSTORE DUP5 MLOAD DUP1 SWAP2 MSTORE DUP2 PUSH2 0x120 DUP6 ADD SWAP6 ADD SWAP1 PUSH0 JUMPDEST DUP2 DUP2 LT PUSH2 0x1ECB JUMPI POP POP POP PUSH1 0x80 DUP3 ADD MLOAD SWAP4 DUP4 DUP2 SUB PUSH1 0x80 DUP6 ADD MSTORE DUP2 DUP1 DUP7 MLOAD SWAP3 DUP4 DUP2 MSTORE ADD SWAP6 ADD SWAP1 PUSH0 JUMPDEST DUP2 DUP2 LT PUSH2 0x1E9E JUMPI POP POP POP PUSH1 0xA0 DUP3 ADD MLOAD SWAP4 DUP4 DUP2 SUB PUSH1 0xA0 DUP6 ADD MSTORE DUP2 DUP1 DUP7 MLOAD SWAP3 DUP4 DUP2 MSTORE ADD SWAP6 ADD SWAP2 PUSH0 JUMPDEST DUP3 DUP2 LT PUSH2 0x1E71 JUMPI POP POP POP POP PUSH1 0xE0 DUP2 PUSH1 0xC0 DUP3 SWAP4 ADD MLOAD PUSH1 0xC0 DUP6 ADD MSTORE ADD MLOAD SWAP2 ADD MSTORE SWAP1 JUMP JUMPDEST SWAP1 SWAP2 SWAP3 SWAP6 DUP3 PUSH2 0x1E93 PUSH1 0x1 SWAP3 DUP10 MLOAD SWAP1 PUSH1 0x20 PUSH1 0x40 SWAP3 DUP1 MLOAD DUP4 MSTORE ADD MLOAD PUSH1 0x20 DUP3 ADD MSTORE ADD SWAP1 JUMP JUMPDEST SWAP8 ADD SWAP4 SWAP3 SWAP2 ADD PUSH2 0x1E50 JUMP JUMPDEST SWAP1 SWAP2 SWAP3 SWAP6 DUP7 PUSH2 0x1EC0 PUSH1 0x1 SWAP3 DUP7 MLOAD SWAP1 PUSH1 0x20 PUSH1 0x40 SWAP3 DUP1 MLOAD DUP4 MSTORE ADD MLOAD PUSH1 0x20 DUP3 ADD MSTORE ADD SWAP1 JUMP JUMPDEST SWAP8 SWAP5 ADD SWAP3 SWAP2 ADD PUSH2 0x1E2A JUMP JUMPDEST DUP3 MLOAD DUP8 MSTORE SWAP6 DUP4 ADD SWAP6 SWAP2 DUP4 ADD SWAP2 PUSH1 0x1 ADD PUSH2 0x1E04 JUMP JUMPDEST SWAP2 DUP2 PUSH1 0x1F DUP5 ADD SLT ISZERO PUSH2 0x66E JUMPI DUP3 CALLDATALOAD SWAP2 PUSH1 0x1 PUSH1 0x1 PUSH1 0x40 SHL SUB DUP4 GT PUSH2 0x66E JUMPI PUSH1 0x20 DUP1 DUP6 ADD SWAP5 DUP5 PUSH1 0x6 SHL ADD ADD GT PUSH2 0x66E JUMPI JUMP JUMPDEST PUSH0 SLOAD PUSH1 0x1 PUSH1 0x1 PUSH1 0xA0 SHL SUB AND CALLER SUB PUSH2 0x1F22 JUMPI JUMP JUMPDEST PUSH1 0x40 MLOAD PUSH4 0x118CDAA7 PUSH1 0xE0 SHL DUP2 MSTORE CALLER PUSH1 0x4 DUP3 ADD MSTORE PUSH1 0x24 SWAP1 REVERT JUMPDEST ISZERO PUSH2 0x1F41 JUMPI JUMP JUMPDEST PUSH1 0x40 MLOAD PUSH3 0x461BCD PUSH1 0xE5 SHL DUP2 MSTORE PUSH1 0x20 PUSH1 0x4 DUP3 ADD MSTORE PUSH1 0x12 PUSH1 0x24 DUP3 ADD MSTORE PUSH18 0x149BDD5D195C881A5CC8191A5CD8589B1959 PUSH1 0x72 SHL PUSH1 0x44 DUP3 ADD MSTORE PUSH1 0x64 SWAP1 REVERT JUMPDEST PUSH1 0x1 PUSH1 0x1 PUSH1 0x40 SHL SUB DUP2 GT PUSH2 0x4B1 JUMPI PUSH1 0x40 MSTORE JUMP JUMPDEST PUSH1 0x40 DUP2 ADD SWAP1 DUP2 LT PUSH1 0x1 PUSH1 0x1 PUSH1 0x40 SHL SUB DUP3 GT OR PUSH2 0x4B1 JUMPI PUSH1 0x40 MSTORE JUMP JUMPDEST PUSH2 0x100 DUP2 ADD SWAP1 DUP2 LT PUSH1 0x1 PUSH1 0x1 PUSH1 0x40 SHL SUB DUP3 GT OR PUSH2 0x4B1 JUMPI PUSH1 0x40 MSTORE JUMP JUMPDEST PUSH1 0x20 DUP2 ADD SWAP1 DUP2 LT PUSH1 0x1 PUSH1 0x1 PUSH1 0x40 SHL SUB DUP3 GT OR PUSH2 0x4B1 JUMPI PUSH1 0x40 MSTORE JUMP JUMPDEST SWAP1 PUSH1 0x1F DUP1 NOT SWAP2 ADD AND DUP2 ADD SWAP1 DUP2 LT PUSH1 0x1 PUSH1 0x1 PUSH1 0x40 SHL SUB DUP3 GT OR PUSH2 0x4B1 JUMPI PUSH1 0x40 MSTORE JUMP JUMPDEST MLOAD SWAP1 PUSH1 0x1 PUSH1 0x1 PUSH1 0xA0 SHL SUB DUP3 AND DUP3 SUB PUSH2 0x66E JUMPI JUMP JUMPDEST PUSH1 0x1 PUSH1 0x1 PUSH1 0x40 SHL SUB DUP2 GT PUSH2 0x4B1 JUMPI PUSH1 0x5 SHL PUSH1 0x20 ADD SWAP1 JUMP JUMPDEST PUSH1 0x20 SWAP1 DUP2 DUP2 DUP5 SUB SLT PUSH2 0x66E JUMPI DUP1 MLOAD SWAP1 PUSH1 0x1 PUSH1 0x1 PUSH1 0x40 SHL SUB DUP3 GT PUSH2 0x66E JUMPI ADD SWAP2 DUP1 PUSH1 0x1F DUP5 ADD SLT ISZERO PUSH2 0x66E JUMPI DUP3 MLOAD PUSH2 0x2061 DUP2 PUSH2 0x2015 JUMP JUMPDEST SWAP4 PUSH2 0x206F PUSH1 0x40 MLOAD SWAP6 DUP7 PUSH2 0x1FE0 JUMP JUMPDEST DUP2 DUP6 MSTORE DUP4 DUP1 DUP7 ADD SWAP3 PUSH1 0x5 SHL DUP3 ADD ADD SWAP3 DUP4 GT PUSH2 0x66E JUMPI DUP4 ADD SWAP1 JUMPDEST DUP3 DUP3 LT PUSH2 0x2096 JUMPI POP POP POP POP SWAP1 JUMP JUMPDEST DUP4 DUP1 SWAP2 PUSH2 0x20A2 DUP5 PUSH2 0x2001 JUMP JUMPDEST DUP2 MSTORE ADD SWAP2 ADD SWAP1 PUSH2 0x2088 JUMP JUMPDEST ISZERO PUSH2 0x20B4 JUMPI JUMP JUMPDEST PUSH1 0x40 MLOAD PUSH3 0x461BCD PUSH1 0xE5 SHL DUP2 MSTORE PUSH1 0x20 PUSH1 0x4 DUP3 ADD MSTORE PUSH1 0xF PUSH1 0x24 DUP3 ADD MSTORE PUSH15 0x1D985D5B1D081B9BDD08199BDD5B99 PUSH1 0x8A SHL PUSH1 0x44 DUP3 ADD MSTORE PUSH1 0x64 SWAP1 REVERT JUMPDEST MLOAD SWAP1 DUP2 ISZERO ISZERO DUP3 SUB PUSH2 0x66E JUMPI JUMP JUMPDEST PUSH0 NOT DUP2 EQ PUSH2 0x2106 JUMPI PUSH1 0x1 ADD SWAP1 JUMP JUMPDEST PUSH4 0x4E487B71 PUSH1 0xE0 SHL PUSH0 MSTORE PUSH1 0x11 PUSH1 0x4 MSTORE PUSH1 0x24 PUSH0 REVERT JUMPDEST DUP1 MLOAD DUP3 LT ISZERO PUSH2 0x212E JUMPI PUSH1 0x20 SWAP2 PUSH1 0x5 SHL ADD ADD SWAP1 JUMP JUMPDEST PUSH4 0x4E487B71 PUSH1 0xE0 SHL PUSH0 MSTORE PUSH1 0x32 PUSH1 0x4 MSTORE PUSH1 0x24 PUSH0 REVERT JUMPDEST PUSH1 0x40 MLOAD SWAP1 PUSH2 0x214F DUP3 PUSH2 0x1FA9 JUMP JUMPDEST PUSH0 PUSH1 0xE0 DUP4 DUP3 DUP2 MSTORE DUP3 PUSH1 0x20 DUP3 ADD MSTORE DUP3 PUSH1 0x40 DUP3 ADD MSTORE PUSH1 0x60 DUP1 DUP3 ADD MSTORE PUSH1 0x60 PUSH1 0x80 DUP3 ADD MSTORE PUSH1 0x60 PUSH1 0xA0 DUP3 ADD MSTORE DUP3 PUSH1 0xC0 DUP3 ADD MSTORE ADD MSTORE JUMP JUMPDEST SWAP1 PUSH2 0x218A DUP3 PUSH2 0x2015 JUMP JUMPDEST PUSH1 0x40 SWAP1 PUSH2 0x2199 DUP3 MLOAD SWAP2 DUP3 PUSH2 0x1FE0 JUMP JUMPDEST DUP4 DUP2 MSTORE DUP1 SWAP4 PUSH2 0x21AA PUSH1 0x1F NOT SWAP2 PUSH2 0x2015 JUMP JUMPDEST ADD SWAP2 PUSH0 SWAP1 DUP2 JUMPDEST DUP5 DUP2 LT PUSH2 0x21BE JUMPI POP POP POP POP POP JUMP JUMPDEST PUSH1 0x20 SWAP1 DUP3 MLOAD PUSH2 0x21CC DUP2 PUSH2 0x1F8E JUMP JUMPDEST DUP5 DUP2 MSTORE DUP3 DUP6 DUP2 DUP4 ADD MSTORE DUP3 DUP8 ADD ADD MSTORE ADD PUSH2 0x21B0 JUMP JUMPDEST SWAP2 SWAP1 DUP3 PUSH1 0x40 SWAP2 SUB SLT PUSH2 0x66E JUMPI PUSH1 0x20 DUP3 MLOAD SWAP3 ADD MLOAD SWAP1 JUMP JUMPDEST SWAP3 SWAP2 SWAP3 PUSH2 0x2202 DUP3 PUSH2 0x2015 JUMP JUMPDEST PUSH1 0x40 SWAP3 PUSH2 0x2211 DUP5 MLOAD SWAP3 DUP4 PUSH2 0x1FE0 JUMP JUMPDEST DUP2 SWAP6 DUP2 DUP4 MSTORE PUSH1 0x20 DUP1 SWAP4 ADD SWAP2 PUSH1 0x6 SHL DUP5 ADD SWAP4 DUP2 DUP6 GT PUSH2 0x66E JUMPI SWAP2 JUMPDEST DUP5 DUP4 LT PUSH2 0x223A JUMPI POP POP POP POP POP POP JUMP JUMPDEST DUP6 DUP4 DUP4 SUB SLT PUSH2 0x66E JUMPI DUP4 DUP7 SWAP2 DUP3 MLOAD PUSH2 0x2251 DUP2 PUSH2 0x1F8E JUMP JUMPDEST DUP6 MLOAD DUP2 MSTORE DUP3 DUP7 ADD MLOAD DUP4 DUP3 ADD MSTORE DUP2 MSTORE ADD SWAP3 ADD SWAP2 PUSH2 0x222B JUMP INVALID LOG2 PUSH5 0x6970667358 0x22 SLT KECCAK256 0xD3 POP 0xD2 SLT PUSH29 0xB8C8126EFF1A803BE52DB36EE336E4B1B0DE9265494E520E6369286473 PUSH16 0x6C634300081400330000000000000000 "
		},
		"gasEstimates": {
			"creation": {
				"codeDepositCost": "1772400",
				"executionCost": "infinite",
				"totalCost": "infinite"
			},
			"external": {
				"closeVault(address)": "infinite",
				"createVault(address,uint256,uint256,int256,uint256[],(uint256,uint256)[],(uint256,uint256)[])": "infinite",
				"disableRouter()": "26971",
				"enableRouter()": "26871",
				"factory()": "2668",
				"getAllPositions(address)": "infinite",
				"getAllVaultInfo()": "infinite",
				"getAllVaults()": "infinite",
				"getAllXP(address)": "infinite",
				"getFactory()": "2469",
				"getFees()": "infinite",
				"getProtocol()": "infinite",
				"getVaultByToken(address)": "infinite",
				"getVaultInfo(address)": "infinite",
				"getXP(address,address)": "infinite",
				"isRouterEnabled()": "2375",
				"owner()": "2488",
				"releaseAll(address)": "infinite",
				"releaseFor(address,address)": "infinite",
				"renounceOwnership()": "28220",
				"setFactory(address)": "26770",
				"setFees(uint256,uint256)": "infinite",
				"stake(address,uint256,uint256)": "infinite",
				"transferOwnership(address)": "28647"
			}
		},
		"methodIdentifiers": {
			"closeVault(address)": "c99cb2b7",
			"createVault(address,uint256,uint256,int256,uint256[],(uint256,uint256)[],(uint256,uint256)[])": "a444477b",
			"disableRouter()": "d858a7e5",
			"enableRouter()": "b0f07f15",
			"factory()": "c45a0155",
			"getAllPositions(address)": "fb11e969",
			"getAllVaultInfo()": "a38c178c",
			"getAllVaults()": "97331bf9",
			"getAllXP(address)": "4ba1a5b9",
			"getFactory()": "88cc58e4",
			"getFees()": "db8d55f1",
			"getProtocol()": "d16352af",
			"getVaultByToken(address)": "b1e3a941",
			"getVaultInfo(address)": "90229af7",
			"getXP(address,address)": "05e2e95d",
			"isRouterEnabled()": "55197241",
			"owner()": "8da5cb5b",
			"releaseAll(address)": "580fc80a",
			"releaseFor(address,address)": "96d8ef8e",
			"renounceOwnership()": "715018a6",
			"setFactory(address)": "5bb47808",
			"setFees(uint256,uint256)": "0b78f9c0",
			"stake(address,uint256,uint256)": "0c51b88f",
			"transferOwnership(address)": "f2fde38b"
		}
	},
	"abi": [
		{
			"inputs": [
				{
					"internalType": "address",
					"name": "_factory",
					"type": "address"
				},
				{
					"internalType": "address",
					"name": "_protocol",
					"type": "address"
				}
			],
			"stateMutability": "nonpayable",
			"type": "constructor"
		},
		{
			"inputs": [
				{
					"internalType": "address",
					"name": "owner",
					"type": "address"
				}
			],
			"name": "OwnableInvalidOwner",
			"type": "error"
		},
		{
			"inputs": [
				{
					"internalType": "address",
					"name": "account",
					"type": "address"
				}
			],
			"name": "OwnableUnauthorizedAccount",
			"type": "error"
		},
		{
			"inputs": [
				{
					"internalType": "address",
					"name": "token",
					"type": "address"
				}
			],
			"name": "SafeERC20FailedOperation",
			"type": "error"
		},
		{
			"anonymous": false,
			"inputs": [
				{
					"indexed": true,
					"internalType": "address",
					"name": "previousOwner",
					"type": "address"
				},
				{
					"indexed": true,
					"internalType": "address",
					"name": "newOwner",
					"type": "address"
				}
			],
			"name": "OwnershipTransferred",
			"type": "event"
		},
		{
			"inputs": [
				{
					"internalType": "address",
					"name": "vaultAddr",
					"type": "address"
				}
			],
			"name": "closeVault",
			"outputs": [],
			"stateMutability": "nonpayable",
			"type": "function"
		},
		{
			"inputs": [
				{
					"internalType": "address",
					"name": "token",
					"type": "address"
				},
				{
					"internalType": "uint256",
					"name": "minDeposit",
					"type": "uint256"
				},
				{
					"internalType": "uint256",
					"name": "maxDeposit",
					"type": "uint256"
				},
				{
					"internalType": "int256",
					"name": "xpRate",
					"type": "int256"
				},
				{
					"internalType": "uint256[]",
					"name": "presetTimes",
					"type": "uint256[]"
				},
				{
					"components": [
						{
							"internalType": "uint256",
							"name": "minBlocks",
							"type": "uint256"
						},
						{
							"internalType": "uint256",
							"name": "multiplierBP",
							"type": "uint256"
						}
					],
					"internalType": "struct IVaultFactory.TimeMultiplierIn[]",
					"name": "timeMultipliers",
					"type": "tuple[]"
				},
				{
					"components": [
						{
							"internalType": "uint256",
							"name": "minAmount",
							"type": "uint256"
						},
						{
							"internalType": "uint256",
							"name": "multiplierBP",
							"type": "uint256"
						}
					],
					"internalType": "struct IVaultFactory.AmountMultiplierIn[]",
					"name": "amountMultipliers",
					"type": "tuple[]"
				}
			],
			"name": "createVault",
			"outputs": [
				{
					"internalType": "address",
					"name": "vaultAddr",
					"type": "address"
				}
			],
			"stateMutability": "nonpayable",
			"type": "function"
		},
		{
			"inputs": [],
			"name": "disableRouter",
			"outputs": [],
			"stateMutability": "nonpayable",
			"type": "function"
		},
		{
			"inputs": [],
			"name": "enableRouter",
			"outputs": [],
			"stateMutability": "nonpayable",
			"type": "function"
		},
		{
			"inputs": [],
			"name": "factory",
			"outputs": [
				{
					"internalType": "address",
					"name": "",
					"type": "address"
				}
			],
			"stateMutability": "view",
			"type": "function"
		},
		{
			"inputs": [
				{
					"internalType": "address",
					"name": "user",
					"type": "address"
				}
			],
			"name": "getAllPositions",
			"outputs": [
				{
					"components": [
						{
							"internalType": "address",
							"name": "token",
							"type": "address"
						},
						{
							"components": [
								{
									"internalType": "address",
									"name": "user",
									"type": "address"
								},
								{
									"internalType": "uint256",
									"name": "amount",
									"type": "uint256"
								},
								{
									"internalType": "uint256",
									"name": "startBlock",
									"type": "uint256"
								},
								{
									"internalType": "uint256",
									"name": "endBlock",
									"type": "uint256"
								},
								{
									"internalType": "bool",
									"name": "claimed",
									"type": "bool"
								}
							],
							"internalType": "struct IVaultExtended.Position[]",
							"name": "positions",
							"type": "tuple[]"
						}
					],
					"internalType": "struct YunaVaultRouter.TokenPositions[]",
					"name": "results",
					"type": "tuple[]"
				}
			],
			"stateMutability": "view",
			"type": "function"
		},
		{
			"inputs": [],
			"name": "getAllVaultInfo",
			"outputs": [
				{
					"components": [
						{
							"internalType": "bool",
							"name": "isActive",
							"type": "bool"
						},
						{
							"internalType": "address",
							"name": "token",
							"type": "address"
						},
						{
							"internalType": "int256",
							"name": "xpRate",
							"type": "int256"
						},
						{
							"internalType": "uint256[]",
							"name": "presetTimes",
							"type": "uint256[]"
						},
						{
							"components": [
								{
									"internalType": "uint256",
									"name": "minBlocks",
									"type": "uint256"
								},
								{
									"internalType": "uint256",
									"name": "multiplierBP",
									"type": "uint256"
								}
							],
							"internalType": "struct IVaultFactory.TimeMultiplierIn[]",
							"name": "timeMultipliers",
							"type": "tuple[]"
						},
						{
							"components": [
								{
									"internalType": "uint256",
									"name": "minAmount",
									"type": "uint256"
								},
								{
									"internalType": "uint256",
									"name": "multiplierBP",
									"type": "uint256"
								}
							],
							"internalType": "struct IVaultFactory.AmountMultiplierIn[]",
							"name": "amountMultipliers",
							"type": "tuple[]"
						},
						{
							"internalType": "uint256",
							"name": "minDeposit",
							"type": "uint256"
						},
						{
							"internalType": "uint256",
							"name": "maxDeposit",
							"type": "uint256"
						}
					],
					"internalType": "struct YunaVaultRouter.VaultInfo[]",
					"name": "results",
					"type": "tuple[]"
				}
			],
			"stateMutability": "view",
			"type": "function"
		},
		{
			"inputs": [],
			"name": "getAllVaults",
			"outputs": [
				{
					"internalType": "address[]",
					"name": "",
					"type": "address[]"
				}
			],
			"stateMutability": "view",
			"type": "function"
		},
		{
			"inputs": [
				{
					"internalType": "address",
					"name": "user",
					"type": "address"
				}
			],
			"name": "getAllXP",
			"outputs": [
				{
					"components": [
						{
							"internalType": "address",
							"name": "token",
							"type": "address"
						},
						{
							"internalType": "uint256",
							"name": "xp",
							"type": "uint256"
						}
					],
					"internalType": "struct YunaVaultRouter.TokenXP[]",
					"name": "results",
					"type": "tuple[]"
				}
			],
			"stateMutability": "view",
			"type": "function"
		},
		{
			"inputs": [],
			"name": "getFactory",
			"outputs": [
				{
					"internalType": "address",
					"name": "",
					"type": "address"
				}
			],
			"stateMutability": "view",
			"type": "function"
		},
		{
			"inputs": [],
			"name": "getFees",
			"outputs": [
				{
					"internalType": "uint256",
					"name": "protocolFeeBP",
					"type": "uint256"
				},
				{
					"internalType": "uint256",
					"name": "callerFeeBP",
					"type": "uint256"
				}
			],
			"stateMutability": "view",
			"type": "function"
		},
		{
			"inputs": [],
			"name": "getProtocol",
			"outputs": [
				{
					"internalType": "address",
					"name": "",
					"type": "address"
				}
			],
			"stateMutability": "view",
			"type": "function"
		},
		{
			"inputs": [
				{
					"internalType": "address",
					"name": "token",
					"type": "address"
				}
			],
			"name": "getVaultByToken",
			"outputs": [
				{
					"internalType": "address",
					"name": "",
					"type": "address"
				}
			],
			"stateMutability": "view",
			"type": "function"
		},
		{
			"inputs": [
				{
					"internalType": "address",
					"name": "vault",
					"type": "address"
				}
			],
			"name": "getVaultInfo",
			"outputs": [
				{
					"components": [
						{
							"internalType": "bool",
							"name": "isActive",
							"type": "bool"
						},
						{
							"internalType": "address",
							"name": "token",
							"type": "address"
						},
						{
							"internalType": "int256",
							"name": "xpRate",
							"type": "int256"
						},
						{
							"internalType": "uint256[]",
							"name": "presetTimes",
							"type": "uint256[]"
						},
						{
							"components": [
								{
									"internalType": "uint256",
									"name": "minBlocks",
									"type": "uint256"
								},
								{
									"internalType": "uint256",
									"name": "multiplierBP",
									"type": "uint256"
								}
							],
							"internalType": "struct IVaultFactory.TimeMultiplierIn[]",
							"name": "timeMultipliers",
							"type": "tuple[]"
						},
						{
							"components": [
								{
									"internalType": "uint256",
									"name": "minAmount",
									"type": "uint256"
								},
								{
									"internalType": "uint256",
									"name": "multiplierBP",
									"type": "uint256"
								}
							],
							"internalType": "struct IVaultFactory.AmountMultiplierIn[]",
							"name": "amountMultipliers",
							"type": "tuple[]"
						},
						{
							"internalType": "uint256",
							"name": "minDeposit",
							"type": "uint256"
						},
						{
							"internalType": "uint256",
							"name": "maxDeposit",
							"type": "uint256"
						}
					],
					"internalType": "struct YunaVaultRouter.VaultInfo",
					"name": "info",
					"type": "tuple"
				}
			],
			"stateMutability": "view",
			"type": "function"
		},
		{
			"inputs": [
				{
					"internalType": "address",
					"name": "tokenAddr",
					"type": "address"
				},
				{
					"internalType": "address",
					"name": "holder",
					"type": "address"
				}
			],
			"name": "getXP",
			"outputs": [
				{
					"internalType": "uint256",
					"name": "",
					"type": "uint256"
				}
			],
			"stateMutability": "view",
			"type": "function"
		},
		{
			"inputs": [],
			"name": "isRouterEnabled",
			"outputs": [
				{
					"internalType": "bool",
					"name": "",
					"type": "bool"
				}
			],
			"stateMutability": "view",
			"type": "function"
		},
		{
			"inputs": [],
			"name": "owner",
			"outputs": [
				{
					"internalType": "address",
					"name": "",
					"type": "address"
				}
			],
			"stateMutability": "view",
			"type": "function"
		},
		{
			"inputs": [
				{
					"internalType": "address",
					"name": "vault",
					"type": "address"
				}
			],
			"name": "releaseAll",
			"outputs": [],
			"stateMutability": "nonpayable",
			"type": "function"
		},
		{
			"inputs": [
				{
					"internalType": "address",
					"name": "vault",
					"type": "address"
				},
				{
					"internalType": "address",
					"name": "beneficiary",
					"type": "address"
				}
			],
			"name": "releaseFor",
			"outputs": [],
			"stateMutability": "nonpayable",
			"type": "function"
		},
		{
			"inputs": [],
			"name": "renounceOwnership",
			"outputs": [],
			"stateMutability": "nonpayable",
			"type": "function"
		},
		{
			"inputs": [
				{
					"internalType": "address",
					"name": "_factory",
					"type": "address"
				}
			],
			"name": "setFactory",
			"outputs": [],
			"stateMutability": "nonpayable",
			"type": "function"
		},
		{
			"inputs": [
				{
					"internalType": "uint256",
					"name": "protocolFeeBP",
					"type": "uint256"
				},
				{
					"internalType": "uint256",
					"name": "callerFeeBP",
					"type": "uint256"
				}
			],
			"name": "setFees",
			"outputs": [],
			"stateMutability": "nonpayable",
			"type": "function"
		},
		{
			"inputs": [
				{
					"internalType": "address",
					"name": "tokenAddr",
					"type": "address"
				},
				{
					"internalType": "uint256",
					"name": "amount",
					"type": "uint256"
				},
				{
					"internalType": "uint256",
					"name": "blocksToStake",
					"type": "uint256"
				}
			],
			"name": "stake",
			"outputs": [],
			"stateMutability": "nonpayable",
			"type": "function"
		},
		{
			"inputs": [
				{
					"internalType": "address",
					"name": "newOwner",
					"type": "address"
				}
			],
			"name": "transferOwnership",
			"outputs": [],
			"stateMutability": "nonpayable",
			"type": "function"
		}
	]
}