{
	"data": {
		"bytecode": {
			"linkReferences": {},
			"object": "60803462000141576200283990601f38839003908101601f19168201906001600160401b0382118383101762000145578083916040958694855283398101031262000141576200005d6020620000558362000159565b920162000159565b9033156200012a5762000070336200016e565b5f805460ff60a01b1916600160a01b1790556001600160a01b03908116908115620000fa57821615620000c957600180546001600160a01b0319169091179055620000bb906200016e565b516126849081620001b58239f35b825162461bcd60e51b815260206004820152600a602482015269070726f746f636f6c20360b41b6044820152606490fd5b835162461bcd60e51b81526020600482015260096024820152680666163746f727920360bc1b6044820152606490fd5b8251631e4fbdf760e01b81525f6004820152602490fd5b5f80fd5b634e487b7160e01b5f52604160045260245ffd5b51906001600160a01b03821682036200014157565b5f80546001600160a01b039283166001600160a01b03198216811783559216907f8be0079c531659141344cd1fd0a4f28419497f9722a3daafe3b4186f6b6457e09080a356fe6080806040526004361015610012575f80fd5b5f9060e08235811c91826305e2e95d14612044575081630b78f9c014611fd55781630c51b88f14611dd65781631c99c54b14611c9e5781634ba1a5b9146119a2578163551972411461197d578163580fc80a146119145781635bb4780814611897578163715018a61461183e57816388cc58e4146118155781638da5cb5b146117ee57816390229af7146111f257816396d8ef8e1461117a57816397331bf9146110c45781639b780bb214610e2e578163a38c178c14610b1a578163a444477b1461091057508063b0f07f15146108e3578063b1e3a94114610846578063c45a01551461081d578063c99cb2b714610792578063d16352af146106ff578063d858a7e5146106d7578063db8d55f1146105e3578063f2fde38b146105565763fb11e9691461013e575f80fd5b346105535760203660031901126105535761015761215d565b600180546040516397331bf960e01b815291926001600160a01b039185908490600490829086165afa928315610548578593610524575b5082519491939261019e866123fb565b956101ac60405197886123c6565b8087526101bb601f19916123fb565b01835b8181106104f65750508383905b6102ae575b50505060405192602084016020855285518091526040850192602060408360051b880101970193815b8383106102065787890388f35b9091929394958098603f19898203018452875190602060408201928981511683520151916040602083015282518091526020606080930193019185905b858383106102675750505050506020809198019301930191949392909795976101f9565b909192939460a06020918d88519081511682528381015184830152604081015160408301528581015186830152608080910151151590820152019501920190929192610243565b81969496959395518110156104eb57836102c88284612500565b5116604051621d611360e21b815285851660048201528781602481855afa9081156103b35788916103be575b50602060049260405193848092637e062a3560e11b82525afa9182156103b357908995949392918992610367575b509061035a9291876040519261033784612374565b16825260208201526103498289612500565b526103548188612500565b506124de565b90919294969593956101cb565b915091929394506020813d6020116103ab575b81610387602093836123c6565b810103126103a7579161035a916103a08a9695946123e7565b9192610322565b8780fd5b3d915061037a565b6040513d8a823e3d90fd5b90503d8089833e6103cf81836123c6565b60208282810103126104e75781516001600160401b0381116104e357820190808301601f830112156104e357815190610407826123fb565b9361041560405195866123c6565b82855260208501828201602060a08602870101116104df5760208501905b602060a0860287010182106104515750602094506102f49350505050565b60a08285850103126104db576040518060a08101106001600160401b0360a0830111176104c75760a09181836020930160405261048d856123e7565b81528285015183820152604085015160408201526060808601519082015260806104b88187016124d1565b90820152815201910190610433565b634e487b7160e01b5f52604160045260245ffd5b8d80fd5b8c80fd5b8980fd5b8880fd5b9593959492946101d0565b602090604098969795985161050a81612374565b8981526060838201528282890101520196939594966101be565b6105419193503d8087833e61053981836123c6565b810190612412565b915f61018e565b6040513d87823e3d90fd5b80fd5b50346105535760203660031901126105535761057061215d565b6105786122da565b6001600160a01b039081169081156105ca575f54826bffffffffffffffffffffffff60a01b8216175f55167f8be0079c531659141344cd1fd0a4f28419497f9722a3daafe3b4186f6b6457e05f80a380f35b604051631e4fbdf760e01b815260048101849052602490fd5b50346105535780600319360112610553576001546040516318bf741760e31b81526001600160a01b039091169160208083600481875afa9283156106cc57829361069b575b50806004946040519586809263f25e78b160e01b82525afa91821561068f579161065b575b604080945051928352820152f35b80915083813d8311610688575b61067281836123c6565b8101031261068457604092519061064d565b5f80fd5b503d610668565b604051903d90823e3d90fd5b9392508084813d83116106c5575b6106b381836123c6565b81010312610684579251919280610628565b503d6106a9565b6040513d84823e3d90fd5b50346105535780600319360112610553576106f06122da565b5f805460ff60a01b1916905580f35b5034610553578060031936011261055357600154604051634673a21360e11b815291906001600160a01b03906020908490600490829085165afa91821561068f578092610754575b6020838360405191168152f35b9091506020833d821161078a575b8161076f602093836123c6565b8101031261055357506107836020926123e7565b905f610747565b3d9150610762565b503461055357602036600319011261055357806107ad61215d565b6107bd60ff835460a01c16612305565b6107c56122da565b6001546001600160a01b039081169190823b15610818576024849283604051958694859363c99cb2b760e01b85521660048401525af180156106cc576108085750f35b61081190612346565b6105535780f35b505050fd5b50346105535780600319360112610553576001546040516001600160a01b039091168152602090f35b503461055357602090816003193601126105535761086261215d565b60015460405163b1e3a94160e01b81526001600160a01b0392831660048201529084908290602490829086165afa92831561068f5780936108a9575b505060405191168152f35b909192508382813d83116108dc575b6108c281836123c6565b8101031261055357506108d4906123e7565b905f8061089e565b503d6108b8565b50346105535780600319360112610553576108fc6122da565b805460ff60a01b1916600160a01b17815580f35b8234610553576003198281360112610b165761092a61215d565b6001600160401b0393608435858111610b125736602382011215610b12578060040135868111610b0e578060051b943660248785010111610b0a5760a4358881116103a75761097d9036906004016122aa565b91909860c4359081116104e7576109989036906004016122aa565b9290946109ab60ff8b5460a01c16612305565b6109b36122da565b60018060a01b03986001958a875416988b6040519b63a444477b60e01b8d521660048c015260243560248c015260443560448c015260643560648c015260848b01528060e48b015260018060fb1b0310610b0657908282610124936024989e9a99986101049401848d01378a019182016101008b84030160a48c015252019590895b818110610ae7575050509187918694938587030160c48601528086526020998a8097019291845b818110610ac157505050509083809203925af192831561068f578093610a8757505060405191168152f35b909192508382813d8311610aba575b610aa081836123c6565b810103126105535750610ab2906123e7565b90838061089e565b503d610a96565b833585528c8401358d8601528c98508997508b9550604094850194909301928201610a5c565b8235885260208084013590890152604097880197909201918b01610a35565b8a80fd5b8680fd5b8580fd5b8480fd5b5080fd5b8234610553578060031936011261055357600180546040516397331bf960e01b81529193906001600160a01b039084908490600490829085165afa928315610e23578493610e07575b508251949392610b72866123fb565b95610b8060405197886123c6565b808752610b8f601f19916123fb565b01845b818110610de85750508484905b610c08575b5050505090604051916020808401908085528551809252604085018160408460051b880101970193905b838210610bdb5786880387f35b90919293948380610bf7839a603f198b82030186528951612189565b999701959493919091019101610bce565b8151811015610de35782610c1c8284612500565b516040516390229af760e01b8152911660048201528581602481305afa908115610dd8578691610c6a575b5081610c5e91610349899a98999796959489612500565b90919293959496610b9f565b90503d8087833e610c7b81836123c6565b810160209182818303126103a75780516001600160401b03918282116104e3570191610100838203126104e75760405193610cb58561238f565b610cbe846124d1565b8552610ccb8185016123e7565b818601526040840151604086015260609081850151848111610dc1578501601f928484830112156104df57815191610d02836123fb565b92610d1060405194856123c6565b808452848085019160051b83010191878311610dd4578501905b828210610dc557505050879e9c9d9e01526080808601518581116104db5786018484820112156104db57848184610d63935191016125dc565b9087015260a093848601519081116104df57839086019283011215610dc15792610d9f8a999897959293848f9c9596610c5e99975191016125dc565b9084015260c08082015190840152015186820152915091929394969597610c47565b8b80fd5b81518152908501908501610d2a565b8f80fd5b6040513d88823e3d90fd5b610ba4565b602090610df798969798612528565b8282890101520196959496610b92565b610e1c9193503d8086833e61053981836123c6565b9185610b63565b6040513d86823e3d90fd5b823461055357602080600319360112610b16576001600160a01b0380610e5261215d565b169160405191636c4470fb60e01b83528483600481875afa9283156105485785936110a8575b50825192610e85846123fb565b93610e9360405195866123c6565b808552610ea2601f19916123fb565b0183875b82811061108657505050855b8151811015610f6d57869083610ec88285612500565b516040516318e521fd60e21b8152911660048201529185836024818b5afa808a91610f3c575b610f2f9450610f34575b5084610f048386612500565b51169060405191610f1483612374565b825286820152610f248288612500565b526103548187612500565b610eb2565b905089610ef8565b90508684813d8311610f66575b610f5381836123c6565b8101031261068457610f2f935190610eee565b503d610f49565b838786815b815181101561102757600180820180831161101357815b610f9e575b5050610f99906124de565b610f72565b835181101561100e57610fd28187610fb7859488612500565b51015188610fc58789612500565b51015110610fd8576124de565b90610f89565b610fe28587612500565b51610fed8288612500565b51610ff88789612500565b526110038688612500565b50610f248288612500565b610f8e565b634e487b7160e01b85526011600452602485fd5b509190916040519180830190808452825180925280604085019301945b8281106110515784840385f35b909192826040826110776001948a516020809160018060a01b0381511684520151910152565b01960191019492919094611044565b60405161109281612374565b5f81525f83820152828289010152018490610ea6565b6110bd9193503d8087833e61053981836123c6565b9185610e78565b8234610553578060031936011261055357600180546040516397331bf960e01b8152919291906001600160a01b039083908390600490829085165afa91821561116f578392611153575b50916040939193519260208085019181865286518093528160408701970193905b83821061113c5786880387f35b84518116885296820196938201939085019061112f565b6111689192503d8085833e61053981836123c6565b908461110e565b6040513d85823e3d90fd5b8234610553576040366003190112610553578061119561215d565b61119d612173565b6111ad60ff845460a01c16612305565b6001600160a01b0391821691823b156108185760448492836040519586948593634b6c77c760e11b85521660048401523360248401525af180156106cc576108085750f35b823461055357602090816003193601126105535761120e61215d565b92611217612528565b936001600160a01b038082169182156117bf573b15611789576040516308bcf8b560e21b81528581600481865afa859181611752575b5061174957508386525b604051637e062a3560e11b81528581600481865afa859181611712575b5061170857505082848601525b60405163094b81d360e01b81528481600481855afa8491816116d9575b506116cf57508260408601525b60405163359cfbf760e01b81528481600481855afa8491816116a0575b506115da57506040516112da816123ab565b83815260608601525b60405163c122c2a160e01b81528481600481855afa8491816115ab575b506115435750604051611312816123ab565b5f815260808601525b60405163b9b792cd60e01b81528481600481855afa849181611514575b50611437575060405161134a816123ab565b5f815260a08601525b6040516341b3d18560e01b81529084908183600481845afa80938691611405575b506004936113fb57508460c08801525b604051633041f2cd60e11b815292839182905afa8391816113cc575b506113c257508301525b6113be604051928284938452830190612189565b0390f35b91508301526113aa565b9091508481813d83116113f4575b6113e481836123c6565b81010312610684575190866113a0565b503d6113da565b60c0880152611384565b83819492503d8311611430575b61141c81836123c6565b810103126106845790518591906004611374565b503d611412565b61144081612566565b60a08701908152845b82811061145857505050611353565b6114b89060405163503306fd60e11b8152816004820152816040826024818a5afa91828a918b946114e1575b506114bd5750610354915060405161149b81612374565b8981526127108b8201528551906114b28383612500565b52612500565b611449565b61035492604051916114ce83612374565b82528b8201528551906114b28383612500565b909350611506915060403d60401161150d575b6114fe81836123c6565b8101906125c6565b928d611484565b503d6114f4565b9091508581813d831161153c575b61152c81836123c6565b8101031261068457519087611338565b503d611522565b61154c81612566565b60808701908152845b8281106115645750505061131b565b6115a690604051635350cbd960e01b8152816004820152816040826024818a5afa91828a918b946114e157506114bd5750610354915060405161149b81612374565b611555565b9091508581813d83116115d3575b6115c381836123c6565b8101031261068457519087611300565b503d6115b9565b6115e3816123fb565b906115f160405192836123c6565b808252601f19611600826123fb565b01368784013760608701918252845b81811061161e575050506112e3565b6040516310390d3560e01b815260048101829052908782602481885afa80889161166f575b61165f9350611664575086611659828651612500565b526124de565b61160f565b611659828651612500565b90508883813d8311611699575b61168681836123c6565b810103126106845761165f925190611643565b503d61167c565b9091508581813d83116116c8575b6116b881836123c6565b81010312610684575190876112c8565b503d6116ae565b60408601526112ab565b9091508581813d8311611701575b6116f181836123c6565b81010312610b125751908761129e565b503d6116e7565b1684860152611281565b9091508681813d8311611742575b61172a81836123c6565b81010312610b0e5761173b906123e7565b9088611274565b503d611720565b15158652611257565b9091508681813d8311611782575b61176a81836123c6565b81010312610b0e5761177b906124d1565b908861124d565b503d611760565b60405162461bcd60e51b815260048101869052600e60248201526d1b9bdd08184818dbdb9d1c9858dd60921b6044820152606490fd5b60405162461bcd60e51b815260048101879052600760248201526607661756c7420360cc1b6044820152606490fd5b8234610553578060031936011261055357546040516001600160a01b039091168152602090f35b82346105535780600319360112610553576001546040516001600160a01b039091168152602090f35b82346105535780600319360112610553576118576122da565b5f80546001600160a01b0319811682556001600160a01b03167f8be0079c531659141344cd1fd0a4f28419497f9722a3daafe3b4186f6b6457e08280a380f35b8234610553576020366003190112610553576118b161215d565b6118b96122da565b6001600160a01b031680156118e3576bffffffffffffffffffffffff60a01b600154161760015580f35b60405162461bcd60e51b81526020600482015260096024820152680666163746f727920360bc1b6044820152606490fd5b8234610553576020366003190112610553578061192f61215d565b61193f60ff835460a01c16612305565b6001600160a01b0316803b1561197a57818091602460405180948193632c07e40560e11b83523360048401525af180156106cc576108085750f35b50fd5b823461055357806003193601126105535760ff6020915460a01c166040519015158152f35b823461055357602080600319360112610b16576119bd61215d565b600180546040516397331bf960e01b8152919491926001600160a01b0391821691908385600481865afa948515610e23578495611c82575b5084519694611a03886123fb565b97611a11604051998a6123c6565b808952611a20601f19916123fb565b01855b818110611c5a575050908593929185945b611a97575b50505050506040519280840190808552855180925280604086019601925b828110611a645785870386f35b9091929382604088611a8a849a89516020809160018060a01b0381511684520151910152565b0197950193929101611a57565b809895949897969751891015611c4e57888784611ab660049c85612500565b51166040519b8c8092637e062a3560e11b82525afa998a15610dd857869a611c17575b5060405163b1e3a94160e01b815299841660048b018190526024898c82818a5afa9081156103b3578b9c899a9b9c989992611bd2575b508b878b931680611b55575b50505090611b4c929160405191611b3183612374565b82528b820152611b41828b612500565b52610354818a612500565b94939698611a34565b91939495969798509150604051928380926318e521fd60e21b82528a8a1660048301525afa9081156103b357908b9695949392918991611b9b575b50611b4c8b8e611b1b565b80939297508b8092503d8311611bcb575b611bb681836123c6565b810103126106845790518a9590611b4c611b90565b503d611bac565b8c8092949596979899508193503d8311611c10575b611bf181836123c6565b810103126104e75790611c098c9796959493926123e7565b908d611b0f565b503d611be7565b9099508781813d8311611c47575b611c2f81836123c6565b81010312610b0e57611c40906123e7565b988a611ad9565b503d611c25565b84959850969596611a39565b889060409a989a51611c6b81612374565b5f81525f8382015282828b01015201989698611a23565b611c979195503d8086833e61053981836123c6565b93876119f5565b823461055357602090816003193601126105535760049083611cbe61215d565b8260c0604051611ccd81612359565b82815282888201528260408201528260608201528260808201528260a0820152015260405193848092631f122c8760e21b825260018060a01b03165afa90811561068f578091611d5e575b5060c091506040519281518452808201519084015260408101516040840152606081015160608401526080810151608084015260a081015160a0840152015160c0820152f35b90508382813d8311611dcf575b611d7581836123c6565b81010312610553575060c0908160405191611d8f83612359565b80518352848101518584015260408101516040840152606081015160608401526080810151608084015260a081015160a084015201518282015284611d18565b503d611d6b565b823461055357606036600319011261055357611df061215d565b906024918235611e0660ff845460a01c16612305565b6040516323b872dd60e01b60208083019182523387840152306044840152606480840185905283526001600160a01b03948516949092909160a08201906001600160401b03821183831017611fc25784928892604052519082885af115610e235784513d611fb95750833b155b611fa15794818682938798600154166040519485809263b1e3a94160e01b82528a60048301525afa8015611f965787938491611f5a575b5016948190611eba871515612493565b60446040518095819363095ea7b360e01b83528a600484015289898401525af18015610dd857611f26575b5050823b156108185760648492836040519586948593632c6c3af360e21b85526004850152604435908401523360448401525af180156106cc576108085750f35b81813d8311611f53575b611f3a81836123c6565b81010312610b1257611f4b906124d1565b508580611ee5565b503d611f30565b80929450838092503d8311611f8f575b611f7481836123c6565b81010312610b0a578692611f8883926123e7565b9091611eaa565b503d611f6a565b6040513d89823e3d90fd5b604051635274afe760e01b8152600481018590528690fd5b60011415611e73565b88634e487b7160e01b5f5260416004525ffd5b823461055357604036600319011261055357611fef6122da565b60015481906001600160a01b0316803b1561197a578190604460405180948193622de3e760e61b8352600435600484015260243560248401525af180156106cc57612038575080f35b61204190612346565b80f35b83346105535760403660031901126105535761205e61215d565b612066612173565b60015463b1e3a94160e01b85526001600160a01b0392831660048601526020949192919085908290602490829086165afa908115610e235790859291859161211d575b508160249116936120bb851515612493565b60405194859384926318e521fd60e21b84521660048301525afa91821561068f5780926120ed575b5050604051908152f35b9091508282813d8311612116575b61210581836123c6565b8101031261055357505182806120e3565b503d6120fb565b8381939492503d8311612156575b61213581836123c6565b81010312612152579060248161214b87946123e7565b91506120a9565b8380fd5b503d61212b565b600435906001600160a01b038216820361068457565b602435906001600160a01b038216820361068457565b906101009182820181511515835260209060018060a01b0382840151168285015260408301516040850152606083015194606085015284518091528161012085019501905f5b8181106122965750505060808201519383810360808501528180865192838152019501905f5b8181106122695750505060a08201519383810360a08501528180865192838152019501915f5b82811061223c575050505060e08160c08293015160c0850152015191015290565b909192958261225e600192895190602060409280518352015160208201520190565b97019392910161221b565b909192958661228b600192865190602060409280518352015160208201520190565b9794019291016121f5565b8251875295830195918301916001016121cf565b9181601f84011215610684578235916001600160401b038311610684576020808501948460061b01011161068457565b5f546001600160a01b031633036122ed57565b60405163118cdaa760e01b8152336004820152602490fd5b1561230c57565b60405162461bcd60e51b8152602060048201526012602482015271149bdd5d195c881a5cc8191a5cd8589b195960721b6044820152606490fd5b6001600160401b0381116104c757604052565b60e081019081106001600160401b038211176104c757604052565b604081019081106001600160401b038211176104c757604052565b61010081019081106001600160401b038211176104c757604052565b602081019081106001600160401b038211176104c757604052565b90601f801991011681019081106001600160401b038211176104c757604052565b51906001600160a01b038216820361068457565b6001600160401b0381116104c75760051b60200190565b6020908181840312610684578051906001600160401b03821161068457019180601f84011215610684578251612447816123fb565b9361245560405195866123c6565b818552838086019260051b820101928311610684578301905b82821061247c575050505090565b838091612488846123e7565b81520191019061246e565b1561249a57565b60405162461bcd60e51b815260206004820152600f60248201526e1d985d5b1d081b9bdd08199bdd5b99608a1b6044820152606490fd5b5190811515820361068457565b5f1981146124ec5760010190565b634e487b7160e01b5f52601160045260245ffd5b80518210156125145760209160051b010190565b634e487b7160e01b5f52603260045260245ffd5b604051906125358261238f565b5f60e08382815282602082015282604082015260608082015260606080820152606060a08201528260c08201520152565b90612570826123fb565b60409061257f825191826123c6565b8381528093612590601f19916123fb565b01915f90815b8481106125a4575050505050565b60209082516125b281612374565b848152828581830152828701015201612596565b9190826040910312610684576020825192015190565b9291926125e8826123fb565b6040926125f7845192836123c6565b819581835260208093019160061b84019381851161068457915b84831061262057505050505050565b858383031261068457838691825161263781612374565b85518152828601518382015281520192019161261156fea26469706673582212204a12536d8e47e8910edd104915fc7eba84affa805e707da9f0fc5c0b262f781f64736f6c63430008140033",
			"opcodes": "PUSH1 0x80 CALLVALUE PUSH3 0x141 JUMPI PUSH3 0x2839 SWAP1 PUSH1 0x1F CODESIZE DUP4 SWAP1 SUB SWAP1 DUP2 ADD PUSH1 0x1F NOT AND DUP3 ADD SWAP1 PUSH1 0x1 PUSH1 0x1 PUSH1 0x40 SHL SUB DUP3 GT DUP4 DUP4 LT OR PUSH3 0x145 JUMPI DUP1 DUP4 SWAP2 PUSH1 0x40 SWAP6 DUP7 SWAP5 DUP6 MSTORE DUP4 CODECOPY DUP2 ADD SUB SLT PUSH3 0x141 JUMPI PUSH3 0x5D PUSH1 0x20 PUSH3 0x55 DUP4 PUSH3 0x159 JUMP JUMPDEST SWAP3 ADD PUSH3 0x159 JUMP JUMPDEST SWAP1 CALLER ISZERO PUSH3 0x12A JUMPI PUSH3 0x70 CALLER PUSH3 0x16E JUMP JUMPDEST PUSH0 DUP1 SLOAD PUSH1 0xFF PUSH1 0xA0 SHL NOT AND PUSH1 0x1 PUSH1 0xA0 SHL OR SWAP1 SSTORE PUSH1 0x1 PUSH1 0x1 PUSH1 0xA0 SHL SUB SWAP1 DUP2 AND SWAP1 DUP2 ISZERO PUSH3 0xFA JUMPI DUP3 AND ISZERO PUSH3 0xC9 JUMPI PUSH1 0x1 DUP1 SLOAD PUSH1 0x1 PUSH1 0x1 PUSH1 0xA0 SHL SUB NOT AND SWAP1 SWAP2 OR SWAP1 SSTORE PUSH3 0xBB SWAP1 PUSH3 0x16E JUMP JUMPDEST MLOAD PUSH2 0x2684 SWAP1 DUP2 PUSH3 0x1B5 DUP3 CODECOPY RETURN JUMPDEST DUP3 MLOAD PUSH3 0x461BCD PUSH1 0xE5 SHL DUP2 MSTORE PUSH1 0x20 PUSH1 0x4 DUP3 ADD MSTORE PUSH1 0xA PUSH1 0x24 DUP3 ADD MSTORE PUSH10 0x70726F746F636F6C203 PUSH1 0xB4 SHL PUSH1 0x44 DUP3 ADD MSTORE PUSH1 0x64 SWAP1 REVERT JUMPDEST DUP4 MLOAD PUSH3 0x461BCD PUSH1 0xE5 SHL DUP2 MSTORE PUSH1 0x20 PUSH1 0x4 DUP3 ADD MSTORE PUSH1 0x9 PUSH1 0x24 DUP3 ADD MSTORE PUSH9 0x666163746F7279203 PUSH1 0xBC SHL PUSH1 0x44 DUP3 ADD MSTORE PUSH1 0x64 SWAP1 REVERT JUMPDEST DUP3 MLOAD PUSH4 0x1E4FBDF7 PUSH1 0xE0 SHL DUP2 MSTORE PUSH0 PUSH1 0x4 DUP3 ADD MSTORE PUSH1 0x24 SWAP1 REVERT JUMPDEST PUSH0 DUP1 REVERT JUMPDEST PUSH4 0x4E487B71 PUSH1 0xE0 SHL PUSH0 MSTORE PUSH1 0x41 PUSH1 0x4 MSTORE PUSH1 0x24 PUSH0 REVERT JUMPDEST MLOAD SWAP1 PUSH1 0x1 PUSH1 0x1 PUSH1 0xA0 SHL SUB DUP3 AND DUP3 SUB PUSH3 0x141 JUMPI JUMP JUMPDEST PUSH0 DUP1 SLOAD PUSH1 0x1 PUSH1 0x1 PUSH1 0xA0 SHL SUB SWAP3 DUP4 AND PUSH1 0x1 PUSH1 0x1 PUSH1 0xA0 SHL SUB NOT DUP3 AND DUP2 OR DUP4 SSTORE SWAP3 AND SWAP1 PUSH32 0x8BE0079C531659141344CD1FD0A4F28419497F9722A3DAAFE3B4186F6B6457E0 SWAP1 DUP1 LOG3 JUMP INVALID PUSH1 0x80 DUP1 PUSH1 0x40 MSTORE PUSH1 0x4 CALLDATASIZE LT ISZERO PUSH2 0x12 JUMPI PUSH0 DUP1 REVERT JUMPDEST PUSH0 SWAP1 PUSH1 0xE0 DUP3 CALLDATALOAD DUP2 SHR SWAP2 DUP3 PUSH4 0x5E2E95D EQ PUSH2 0x2044 JUMPI POP DUP2 PUSH4 0xB78F9C0 EQ PUSH2 0x1FD5 JUMPI DUP2 PUSH4 0xC51B88F EQ PUSH2 0x1DD6 JUMPI DUP2 PUSH4 0x1C99C54B EQ PUSH2 0x1C9E JUMPI DUP2 PUSH4 0x4BA1A5B9 EQ PUSH2 0x19A2 JUMPI DUP2 PUSH4 0x55197241 EQ PUSH2 0x197D JUMPI DUP2 PUSH4 0x580FC80A EQ PUSH2 0x1914 JUMPI DUP2 PUSH4 0x5BB47808 EQ PUSH2 0x1897 JUMPI DUP2 PUSH4 0x715018A6 EQ PUSH2 0x183E JUMPI DUP2 PUSH4 0x88CC58E4 EQ PUSH2 0x1815 JUMPI DUP2 PUSH4 0x8DA5CB5B EQ PUSH2 0x17EE JUMPI DUP2 PUSH4 0x90229AF7 EQ PUSH2 0x11F2 JUMPI DUP2 PUSH4 0x96D8EF8E EQ PUSH2 0x117A JUMPI DUP2 PUSH4 0x97331BF9 EQ PUSH2 0x10C4 JUMPI DUP2 PUSH4 0x9B780BB2 EQ PUSH2 0xE2E JUMPI DUP2 PUSH4 0xA38C178C EQ PUSH2 0xB1A JUMPI DUP2 PUSH4 0xA444477B EQ PUSH2 0x910 JUMPI POP DUP1 PUSH4 0xB0F07F15 EQ PUSH2 0x8E3 JUMPI DUP1 PUSH4 0xB1E3A941 EQ PUSH2 0x846 JUMPI DUP1 PUSH4 0xC45A0155 EQ PUSH2 0x81D JUMPI DUP1 PUSH4 0xC99CB2B7 EQ PUSH2 0x792 JUMPI DUP1 PUSH4 0xD16352AF EQ PUSH2 0x6FF JUMPI DUP1 PUSH4 0xD858A7E5 EQ PUSH2 0x6D7 JUMPI DUP1 PUSH4 0xDB8D55F1 EQ PUSH2 0x5E3 JUMPI DUP1 PUSH4 0xF2FDE38B EQ PUSH2 0x556 JUMPI PUSH4 0xFB11E969 EQ PUSH2 0x13E JUMPI PUSH0 DUP1 REVERT JUMPDEST CALLVALUE PUSH2 0x553 JUMPI PUSH1 0x20 CALLDATASIZE PUSH1 0x3 NOT ADD SLT PUSH2 0x553 JUMPI PUSH2 0x157 PUSH2 0x215D JUMP JUMPDEST PUSH1 0x1 DUP1 SLOAD PUSH1 0x40 MLOAD PUSH4 0x97331BF9 PUSH1 0xE0 SHL DUP2 MSTORE SWAP2 SWAP3 PUSH1 0x1 PUSH1 0x1 PUSH1 0xA0 SHL SUB SWAP2 DUP6 SWAP1 DUP5 SWAP1 PUSH1 0x4 SWAP1 DUP3 SWAP1 DUP7 AND GAS STATICCALL SWAP3 DUP4 ISZERO PUSH2 0x548 JUMPI DUP6 SWAP4 PUSH2 0x524 JUMPI JUMPDEST POP DUP3 MLOAD SWAP5 SWAP2 SWAP4 SWAP3 PUSH2 0x19E DUP7 PUSH2 0x23FB JUMP JUMPDEST SWAP6 PUSH2 0x1AC PUSH1 0x40 MLOAD SWAP8 DUP9 PUSH2 0x23C6 JUMP JUMPDEST DUP1 DUP8 MSTORE PUSH2 0x1BB PUSH1 0x1F NOT SWAP2 PUSH2 0x23FB JUMP JUMPDEST ADD DUP4 JUMPDEST DUP2 DUP2 LT PUSH2 0x4F6 JUMPI POP POP DUP4 DUP4 SWAP1 JUMPDEST PUSH2 0x2AE JUMPI JUMPDEST POP POP POP PUSH1 0x40 MLOAD SWAP3 PUSH1 0x20 DUP5 ADD PUSH1 0x20 DUP6 MSTORE DUP6 MLOAD DUP1 SWAP2 MSTORE PUSH1 0x40 DUP6 ADD SWAP3 PUSH1 0x20 PUSH1 0x40 DUP4 PUSH1 0x5 SHL DUP9 ADD ADD SWAP8 ADD SWAP4 DUP2 JUMPDEST DUP4 DUP4 LT PUSH2 0x206 JUMPI DUP8 DUP10 SUB DUP9 RETURN JUMPDEST SWAP1 SWAP2 SWAP3 SWAP4 SWAP5 SWAP6 DUP1 SWAP9 PUSH1 0x3F NOT DUP10 DUP3 SUB ADD DUP5 MSTORE DUP8 MLOAD SWAP1 PUSH1 0x20 PUSH1 0x40 DUP3 ADD SWAP3 DUP10 DUP2 MLOAD AND DUP4 MSTORE ADD MLOAD SWAP2 PUSH1 0x40 PUSH1 0x20 DUP4 ADD MSTORE DUP3 MLOAD DUP1 SWAP2 MSTORE PUSH1 0x20 PUSH1 0x60 DUP1 SWAP4 ADD SWAP4 ADD SWAP2 DUP6 SWAP1 JUMPDEST DUP6 DUP4 DUP4 LT PUSH2 0x267 JUMPI POP POP POP POP POP PUSH1 0x20 DUP1 SWAP2 SWAP9 ADD SWAP4 ADD SWAP4 ADD SWAP2 SWAP5 SWAP4 SWAP3 SWAP1 SWAP8 SWAP6 SWAP8 PUSH2 0x1F9 JUMP JUMPDEST SWAP1 SWAP2 SWAP3 SWAP4 SWAP5 PUSH1 0xA0 PUSH1 0x20 SWAP2 DUP14 DUP9 MLOAD SWAP1 DUP2 MLOAD AND DUP3 MSTORE DUP4 DUP2 ADD MLOAD DUP5 DUP4 ADD MSTORE PUSH1 0x40 DUP2 ADD MLOAD PUSH1 0x40 DUP4 ADD MSTORE DUP6 DUP2 ADD MLOAD DUP7 DUP4 ADD MSTORE PUSH1 0x80 DUP1 SWAP2 ADD MLOAD ISZERO ISZERO SWAP1 DUP3 ADD MSTORE ADD SWAP6 ADD SWAP3 ADD SWAP1 SWAP3 SWAP2 SWAP3 PUSH2 0x243 JUMP JUMPDEST DUP2 SWAP7 SWAP5 SWAP7 SWAP6 SWAP4 SWAP6 MLOAD DUP2 LT ISZERO PUSH2 0x4EB JUMPI DUP4 PUSH2 0x2C8 DUP3 DUP5 PUSH2 0x2500 JUMP JUMPDEST MLOAD AND PUSH1 0x40 MLOAD PUSH3 0x1D6113 PUSH1 0xE2 SHL DUP2 MSTORE DUP6 DUP6 AND PUSH1 0x4 DUP3 ADD MSTORE DUP8 DUP2 PUSH1 0x24 DUP2 DUP6 GAS STATICCALL SWAP1 DUP2 ISZERO PUSH2 0x3B3 JUMPI DUP9 SWAP2 PUSH2 0x3BE JUMPI JUMPDEST POP PUSH1 0x20 PUSH1 0x4 SWAP3 PUSH1 0x40 MLOAD SWAP4 DUP5 DUP1 SWAP3 PUSH4 0x7E062A35 PUSH1 0xE1 SHL DUP3 MSTORE GAS STATICCALL SWAP2 DUP3 ISZERO PUSH2 0x3B3 JUMPI SWAP1 DUP10 SWAP6 SWAP5 SWAP4 SWAP3 SWAP2 DUP10 SWAP3 PUSH2 0x367 JUMPI JUMPDEST POP SWAP1 PUSH2 0x35A SWAP3 SWAP2 DUP8 PUSH1 0x40 MLOAD SWAP3 PUSH2 0x337 DUP5 PUSH2 0x2374 JUMP JUMPDEST AND DUP3 MSTORE PUSH1 0x20 DUP3 ADD MSTORE PUSH2 0x349 DUP3 DUP10 PUSH2 0x2500 JUMP JUMPDEST MSTORE PUSH2 0x354 DUP2 DUP9 PUSH2 0x2500 JUMP JUMPDEST POP PUSH2 0x24DE JUMP JUMPDEST SWAP1 SWAP2 SWAP3 SWAP5 SWAP7 SWAP6 SWAP4 SWAP6 PUSH2 0x1CB JUMP JUMPDEST SWAP2 POP SWAP2 SWAP3 SWAP4 SWAP5 POP PUSH1 0x20 DUP2 RETURNDATASIZE PUSH1 0x20 GT PUSH2 0x3AB JUMPI JUMPDEST DUP2 PUSH2 0x387 PUSH1 0x20 SWAP4 DUP4 PUSH2 0x23C6 JUMP JUMPDEST DUP2 ADD SUB SLT PUSH2 0x3A7 JUMPI SWAP2 PUSH2 0x35A SWAP2 PUSH2 0x3A0 DUP11 SWAP7 SWAP6 SWAP5 PUSH2 0x23E7 JUMP JUMPDEST SWAP2 SWAP3 PUSH2 0x322 JUMP JUMPDEST DUP8 DUP1 REVERT JUMPDEST RETURNDATASIZE SWAP2 POP PUSH2 0x37A JUMP JUMPDEST PUSH1 0x40 MLOAD RETURNDATASIZE DUP11 DUP3 RETURNDATACOPY RETURNDATASIZE SWAP1 REVERT JUMPDEST SWAP1 POP RETURNDATASIZE DUP1 DUP10 DUP4 RETURNDATACOPY PUSH2 0x3CF DUP2 DUP4 PUSH2 0x23C6 JUMP JUMPDEST PUSH1 0x20 DUP3 DUP3 DUP2 ADD SUB SLT PUSH2 0x4E7 JUMPI DUP2 MLOAD PUSH1 0x1 PUSH1 0x1 PUSH1 0x40 SHL SUB DUP2 GT PUSH2 0x4E3 JUMPI DUP3 ADD SWAP1 DUP1 DUP4 ADD PUSH1 0x1F DUP4 ADD SLT ISZERO PUSH2 0x4E3 JUMPI DUP2 MLOAD SWAP1 PUSH2 0x407 DUP3 PUSH2 0x23FB JUMP JUMPDEST SWAP4 PUSH2 0x415 PUSH1 0x40 MLOAD SWAP6 DUP7 PUSH2 0x23C6 JUMP JUMPDEST DUP3 DUP6 MSTORE PUSH1 0x20 DUP6 ADD DUP3 DUP3 ADD PUSH1 0x20 PUSH1 0xA0 DUP7 MUL DUP8 ADD ADD GT PUSH2 0x4DF JUMPI PUSH1 0x20 DUP6 ADD SWAP1 JUMPDEST PUSH1 0x20 PUSH1 0xA0 DUP7 MUL DUP8 ADD ADD DUP3 LT PUSH2 0x451 JUMPI POP PUSH1 0x20 SWAP5 POP PUSH2 0x2F4 SWAP4 POP POP POP POP JUMP JUMPDEST PUSH1 0xA0 DUP3 DUP6 DUP6 ADD SUB SLT PUSH2 0x4DB JUMPI PUSH1 0x40 MLOAD DUP1 PUSH1 0xA0 DUP2 ADD LT PUSH1 0x1 PUSH1 0x1 PUSH1 0x40 SHL SUB PUSH1 0xA0 DUP4 ADD GT OR PUSH2 0x4C7 JUMPI PUSH1 0xA0 SWAP2 DUP2 DUP4 PUSH1 0x20 SWAP4 ADD PUSH1 0x40 MSTORE PUSH2 0x48D DUP6 PUSH2 0x23E7 JUMP JUMPDEST DUP2 MSTORE DUP3 DUP6 ADD MLOAD DUP4 DUP3 ADD MSTORE PUSH1 0x40 DUP6 ADD MLOAD PUSH1 0x40 DUP3 ADD MSTORE PUSH1 0x60 DUP1 DUP7 ADD MLOAD SWAP1 DUP3 ADD MSTORE PUSH1 0x80 PUSH2 0x4B8 DUP2 DUP8 ADD PUSH2 0x24D1 JUMP JUMPDEST SWAP1 DUP3 ADD MSTORE DUP2 MSTORE ADD SWAP2 ADD SWAP1 PUSH2 0x433 JUMP JUMPDEST PUSH4 0x4E487B71 PUSH1 0xE0 SHL PUSH0 MSTORE PUSH1 0x41 PUSH1 0x4 MSTORE PUSH1 0x24 PUSH0 REVERT JUMPDEST DUP14 DUP1 REVERT JUMPDEST DUP13 DUP1 REVERT JUMPDEST DUP10 DUP1 REVERT JUMPDEST DUP9 DUP1 REVERT JUMPDEST SWAP6 SWAP4 SWAP6 SWAP5 SWAP3 SWAP5 PUSH2 0x1D0 JUMP JUMPDEST PUSH1 0x20 SWAP1 PUSH1 0x40 SWAP9 SWAP7 SWAP8 SWAP6 SWAP9 MLOAD PUSH2 0x50A DUP2 PUSH2 0x2374 JUMP JUMPDEST DUP10 DUP2 MSTORE PUSH1 0x60 DUP4 DUP3 ADD MSTORE DUP3 DUP3 DUP10 ADD ADD MSTORE ADD SWAP7 SWAP4 SWAP6 SWAP5 SWAP7 PUSH2 0x1BE JUMP JUMPDEST PUSH2 0x541 SWAP2 SWAP4 POP RETURNDATASIZE DUP1 DUP8 DUP4 RETURNDATACOPY PUSH2 0x539 DUP2 DUP4 PUSH2 0x23C6 JUMP JUMPDEST DUP2 ADD SWAP1 PUSH2 0x2412 JUMP JUMPDEST SWAP2 PUSH0 PUSH2 0x18E JUMP JUMPDEST PUSH1 0x40 MLOAD RETURNDATASIZE DUP8 DUP3 RETURNDATACOPY RETURNDATASIZE SWAP1 REVERT JUMPDEST DUP1 REVERT JUMPDEST POP CALLVALUE PUSH2 0x553 JUMPI PUSH1 0x20 CALLDATASIZE PUSH1 0x3 NOT ADD SLT PUSH2 0x553 JUMPI PUSH2 0x570 PUSH2 0x215D JUMP JUMPDEST PUSH2 0x578 PUSH2 0x22DA JUMP JUMPDEST PUSH1 0x1 PUSH1 0x1 PUSH1 0xA0 SHL SUB SWAP1 DUP2 AND SWAP1 DUP2 ISZERO PUSH2 0x5CA JUMPI PUSH0 SLOAD DUP3 PUSH12 0xFFFFFFFFFFFFFFFFFFFFFFFF PUSH1 0xA0 SHL DUP3 AND OR PUSH0 SSTORE AND PUSH32 0x8BE0079C531659141344CD1FD0A4F28419497F9722A3DAAFE3B4186F6B6457E0 PUSH0 DUP1 LOG3 DUP1 RETURN JUMPDEST PUSH1 0x40 MLOAD PUSH4 0x1E4FBDF7 PUSH1 0xE0 SHL DUP2 MSTORE PUSH1 0x4 DUP2 ADD DUP5 SWAP1 MSTORE PUSH1 0x24 SWAP1 REVERT JUMPDEST POP CALLVALUE PUSH2 0x553 JUMPI DUP1 PUSH1 0x3 NOT CALLDATASIZE ADD SLT PUSH2 0x553 JUMPI PUSH1 0x1 SLOAD PUSH1 0x40 MLOAD PUSH4 0x18BF7417 PUSH1 0xE3 SHL DUP2 MSTORE PUSH1 0x1 PUSH1 0x1 PUSH1 0xA0 SHL SUB SWAP1 SWAP2 AND SWAP2 PUSH1 0x20 DUP1 DUP4 PUSH1 0x4 DUP2 DUP8 GAS STATICCALL SWAP3 DUP4 ISZERO PUSH2 0x6CC JUMPI DUP3 SWAP4 PUSH2 0x69B JUMPI JUMPDEST POP DUP1 PUSH1 0x4 SWAP5 PUSH1 0x40 MLOAD SWAP6 DUP7 DUP1 SWAP3 PUSH4 0xF25E78B1 PUSH1 0xE0 SHL DUP3 MSTORE GAS STATICCALL SWAP2 DUP3 ISZERO PUSH2 0x68F JUMPI SWAP2 PUSH2 0x65B JUMPI JUMPDEST PUSH1 0x40 DUP1 SWAP5 POP MLOAD SWAP3 DUP4 MSTORE DUP3 ADD MSTORE RETURN JUMPDEST DUP1 SWAP2 POP DUP4 DUP2 RETURNDATASIZE DUP4 GT PUSH2 0x688 JUMPI JUMPDEST PUSH2 0x672 DUP2 DUP4 PUSH2 0x23C6 JUMP JUMPDEST DUP2 ADD SUB SLT PUSH2 0x684 JUMPI PUSH1 0x40 SWAP3 MLOAD SWAP1 PUSH2 0x64D JUMP JUMPDEST PUSH0 DUP1 REVERT JUMPDEST POP RETURNDATASIZE PUSH2 0x668 JUMP JUMPDEST PUSH1 0x40 MLOAD SWAP1 RETURNDATASIZE SWAP1 DUP3 RETURNDATACOPY RETURNDATASIZE SWAP1 REVERT JUMPDEST SWAP4 SWAP3 POP DUP1 DUP5 DUP2 RETURNDATASIZE DUP4 GT PUSH2 0x6C5 JUMPI JUMPDEST PUSH2 0x6B3 DUP2 DUP4 PUSH2 0x23C6 JUMP JUMPDEST DUP2 ADD SUB SLT PUSH2 0x684 JUMPI SWAP3 MLOAD SWAP2 SWAP3 DUP1 PUSH2 0x628 JUMP JUMPDEST POP RETURNDATASIZE PUSH2 0x6A9 JUMP JUMPDEST PUSH1 0x40 MLOAD RETURNDATASIZE DUP5 DUP3 RETURNDATACOPY RETURNDATASIZE SWAP1 REVERT JUMPDEST POP CALLVALUE PUSH2 0x553 JUMPI DUP1 PUSH1 0x3 NOT CALLDATASIZE ADD SLT PUSH2 0x553 JUMPI PUSH2 0x6F0 PUSH2 0x22DA JUMP JUMPDEST PUSH0 DUP1 SLOAD PUSH1 0xFF PUSH1 0xA0 SHL NOT AND SWAP1 SSTORE DUP1 RETURN JUMPDEST POP CALLVALUE PUSH2 0x553 JUMPI DUP1 PUSH1 0x3 NOT CALLDATASIZE ADD SLT PUSH2 0x553 JUMPI PUSH1 0x1 SLOAD PUSH1 0x40 MLOAD PUSH4 0x4673A213 PUSH1 0xE1 SHL DUP2 MSTORE SWAP2 SWAP1 PUSH1 0x1 PUSH1 0x1 PUSH1 0xA0 SHL SUB SWAP1 PUSH1 0x20 SWAP1 DUP5 SWAP1 PUSH1 0x4 SWAP1 DUP3 SWAP1 DUP6 AND GAS STATICCALL SWAP2 DUP3 ISZERO PUSH2 0x68F JUMPI DUP1 SWAP3 PUSH2 0x754 JUMPI JUMPDEST PUSH1 0x20 DUP4 DUP4 PUSH1 0x40 MLOAD SWAP2 AND DUP2 MSTORE RETURN JUMPDEST SWAP1 SWAP2 POP PUSH1 0x20 DUP4 RETURNDATASIZE DUP3 GT PUSH2 0x78A JUMPI JUMPDEST DUP2 PUSH2 0x76F PUSH1 0x20 SWAP4 DUP4 PUSH2 0x23C6 JUMP JUMPDEST DUP2 ADD SUB SLT PUSH2 0x553 JUMPI POP PUSH2 0x783 PUSH1 0x20 SWAP3 PUSH2 0x23E7 JUMP JUMPDEST SWAP1 PUSH0 PUSH2 0x747 JUMP JUMPDEST RETURNDATASIZE SWAP2 POP PUSH2 0x762 JUMP JUMPDEST POP CALLVALUE PUSH2 0x553 JUMPI PUSH1 0x20 CALLDATASIZE PUSH1 0x3 NOT ADD SLT PUSH2 0x553 JUMPI DUP1 PUSH2 0x7AD PUSH2 0x215D JUMP JUMPDEST PUSH2 0x7BD PUSH1 0xFF DUP4 SLOAD PUSH1 0xA0 SHR AND PUSH2 0x2305 JUMP JUMPDEST PUSH2 0x7C5 PUSH2 0x22DA JUMP JUMPDEST PUSH1 0x1 SLOAD PUSH1 0x1 PUSH1 0x1 PUSH1 0xA0 SHL SUB SWAP1 DUP2 AND SWAP2 SWAP1 DUP3 EXTCODESIZE ISZERO PUSH2 0x818 JUMPI PUSH1 0x24 DUP5 SWAP3 DUP4 PUSH1 0x40 MLOAD SWAP6 DUP7 SWAP5 DUP6 SWAP4 PUSH4 0xC99CB2B7 PUSH1 0xE0 SHL DUP6 MSTORE AND PUSH1 0x4 DUP5 ADD MSTORE GAS CALL DUP1 ISZERO PUSH2 0x6CC JUMPI PUSH2 0x808 JUMPI POP RETURN JUMPDEST PUSH2 0x811 SWAP1 PUSH2 0x2346 JUMP JUMPDEST PUSH2 0x553 JUMPI DUP1 RETURN JUMPDEST POP POP POP REVERT JUMPDEST POP CALLVALUE PUSH2 0x553 JUMPI DUP1 PUSH1 0x3 NOT CALLDATASIZE ADD SLT PUSH2 0x553 JUMPI PUSH1 0x1 SLOAD PUSH1 0x40 MLOAD PUSH1 0x1 PUSH1 0x1 PUSH1 0xA0 SHL SUB SWAP1 SWAP2 AND DUP2 MSTORE PUSH1 0x20 SWAP1 RETURN JUMPDEST POP CALLVALUE PUSH2 0x553 JUMPI PUSH1 0x20 SWAP1 DUP2 PUSH1 0x3 NOT CALLDATASIZE ADD SLT PUSH2 0x553 JUMPI PUSH2 0x862 PUSH2 0x215D JUMP JUMPDEST PUSH1 0x1 SLOAD PUSH1 0x40 MLOAD PUSH4 0xB1E3A941 PUSH1 0xE0 SHL DUP2 MSTORE PUSH1 0x1 PUSH1 0x1 PUSH1 0xA0 SHL SUB SWAP3 DUP4 AND PUSH1 0x4 DUP3 ADD MSTORE SWAP1 DUP5 SWAP1 DUP3 SWAP1 PUSH1 0x24 SWAP1 DUP3 SWAP1 DUP7 AND GAS STATICCALL SWAP3 DUP4 ISZERO PUSH2 0x68F JUMPI DUP1 SWAP4 PUSH2 0x8A9 JUMPI JUMPDEST POP POP PUSH1 0x40 MLOAD SWAP2 AND DUP2 MSTORE RETURN JUMPDEST SWAP1 SWAP2 SWAP3 POP DUP4 DUP3 DUP2 RETURNDATASIZE DUP4 GT PUSH2 0x8DC JUMPI JUMPDEST PUSH2 0x8C2 DUP2 DUP4 PUSH2 0x23C6 JUMP JUMPDEST DUP2 ADD SUB SLT PUSH2 0x553 JUMPI POP PUSH2 0x8D4 SWAP1 PUSH2 0x23E7 JUMP JUMPDEST SWAP1 PUSH0 DUP1 PUSH2 0x89E JUMP JUMPDEST POP RETURNDATASIZE PUSH2 0x8B8 JUMP JUMPDEST POP CALLVALUE PUSH2 0x553 JUMPI DUP1 PUSH1 0x3 NOT CALLDATASIZE ADD SLT PUSH2 0x553 JUMPI PUSH2 0x8FC PUSH2 0x22DA JUMP JUMPDEST DUP1 SLOAD PUSH1 0xFF PUSH1 0xA0 SHL NOT AND PUSH1 0x1 PUSH1 0xA0 SHL OR DUP2 SSTORE DUP1 RETURN JUMPDEST DUP3 CALLVALUE PUSH2 0x553 JUMPI PUSH1 0x3 NOT DUP3 DUP2 CALLDATASIZE ADD SLT PUSH2 0xB16 JUMPI PUSH2 0x92A PUSH2 0x215D JUMP JUMPDEST PUSH1 0x1 PUSH1 0x1 PUSH1 0x40 SHL SUB SWAP4 PUSH1 0x84 CALLDATALOAD DUP6 DUP2 GT PUSH2 0xB12 JUMPI CALLDATASIZE PUSH1 0x23 DUP3 ADD SLT ISZERO PUSH2 0xB12 JUMPI DUP1 PUSH1 0x4 ADD CALLDATALOAD DUP7 DUP2 GT PUSH2 0xB0E JUMPI DUP1 PUSH1 0x5 SHL SWAP5 CALLDATASIZE PUSH1 0x24 DUP8 DUP6 ADD ADD GT PUSH2 0xB0A JUMPI PUSH1 0xA4 CALLDATALOAD DUP9 DUP2 GT PUSH2 0x3A7 JUMPI PUSH2 0x97D SWAP1 CALLDATASIZE SWAP1 PUSH1 0x4 ADD PUSH2 0x22AA JUMP JUMPDEST SWAP2 SWAP1 SWAP9 PUSH1 0xC4 CALLDATALOAD SWAP1 DUP2 GT PUSH2 0x4E7 JUMPI PUSH2 0x998 SWAP1 CALLDATASIZE SWAP1 PUSH1 0x4 ADD PUSH2 0x22AA JUMP JUMPDEST SWAP3 SWAP1 SWAP5 PUSH2 0x9AB PUSH1 0xFF DUP12 SLOAD PUSH1 0xA0 SHR AND PUSH2 0x2305 JUMP JUMPDEST PUSH2 0x9B3 PUSH2 0x22DA JUMP JUMPDEST PUSH1 0x1 DUP1 PUSH1 0xA0 SHL SUB SWAP9 PUSH1 0x1 SWAP6 DUP11 DUP8 SLOAD AND SWAP9 DUP12 PUSH1 0x40 MLOAD SWAP12 PUSH4 0xA444477B PUSH1 0xE0 SHL DUP14 MSTORE AND PUSH1 0x4 DUP13 ADD MSTORE PUSH1 0x24 CALLDATALOAD PUSH1 0x24 DUP13 ADD MSTORE PUSH1 0x44 CALLDATALOAD PUSH1 0x44 DUP13 ADD MSTORE PUSH1 0x64 CALLDATALOAD PUSH1 0x64 DUP13 ADD MSTORE PUSH1 0x84 DUP12 ADD MSTORE DUP1 PUSH1 0xE4 DUP12 ADD MSTORE PUSH1 0x1 DUP1 PUSH1 0xFB SHL SUB LT PUSH2 0xB06 JUMPI SWAP1 DUP3 DUP3 PUSH2 0x124 SWAP4 PUSH1 0x24 SWAP9 SWAP15 SWAP11 SWAP10 SWAP9 PUSH2 0x104 SWAP5 ADD DUP5 DUP14 ADD CALLDATACOPY DUP11 ADD SWAP2 DUP3 ADD PUSH2 0x100 DUP12 DUP5 SUB ADD PUSH1 0xA4 DUP13 ADD MSTORE MSTORE ADD SWAP6 SWAP1 DUP10 JUMPDEST DUP2 DUP2 LT PUSH2 0xAE7 JUMPI POP POP POP SWAP2 DUP8 SWAP2 DUP7 SWAP5 SWAP4 DUP6 DUP8 SUB ADD PUSH1 0xC4 DUP7 ADD MSTORE DUP1 DUP7 MSTORE PUSH1 0x20 SWAP10 DUP11 DUP1 SWAP8 ADD SWAP3 SWAP2 DUP5 JUMPDEST DUP2 DUP2 LT PUSH2 0xAC1 JUMPI POP POP POP POP SWAP1 DUP4 DUP1 SWAP3 SUB SWAP3 GAS CALL SWAP3 DUP4 ISZERO PUSH2 0x68F JUMPI DUP1 SWAP4 PUSH2 0xA87 JUMPI POP POP PUSH1 0x40 MLOAD SWAP2 AND DUP2 MSTORE RETURN JUMPDEST SWAP1 SWAP2 SWAP3 POP DUP4 DUP3 DUP2 RETURNDATASIZE DUP4 GT PUSH2 0xABA JUMPI JUMPDEST PUSH2 0xAA0 DUP2 DUP4 PUSH2 0x23C6 JUMP JUMPDEST DUP2 ADD SUB SLT PUSH2 0x553 JUMPI POP PUSH2 0xAB2 SWAP1 PUSH2 0x23E7 JUMP JUMPDEST SWAP1 DUP4 DUP1 PUSH2 0x89E JUMP JUMPDEST POP RETURNDATASIZE PUSH2 0xA96 JUMP JUMPDEST DUP4 CALLDATALOAD DUP6 MSTORE DUP13 DUP5 ADD CALLDATALOAD DUP14 DUP7 ADD MSTORE DUP13 SWAP9 POP DUP10 SWAP8 POP DUP12 SWAP6 POP PUSH1 0x40 SWAP5 DUP6 ADD SWAP5 SWAP1 SWAP4 ADD SWAP3 DUP3 ADD PUSH2 0xA5C JUMP JUMPDEST DUP3 CALLDATALOAD DUP9 MSTORE PUSH1 0x20 DUP1 DUP5 ADD CALLDATALOAD SWAP1 DUP10 ADD MSTORE PUSH1 0x40 SWAP8 DUP9 ADD SWAP8 SWAP1 SWAP3 ADD SWAP2 DUP12 ADD PUSH2 0xA35 JUMP JUMPDEST DUP11 DUP1 REVERT JUMPDEST DUP7 DUP1 REVERT JUMPDEST DUP6 DUP1 REVERT JUMPDEST DUP5 DUP1 REVERT JUMPDEST POP DUP1 REVERT JUMPDEST DUP3 CALLVALUE PUSH2 0x553 JUMPI DUP1 PUSH1 0x3 NOT CALLDATASIZE ADD SLT PUSH2 0x553 JUMPI PUSH1 0x1 DUP1 SLOAD PUSH1 0x40 MLOAD PUSH4 0x97331BF9 PUSH1 0xE0 SHL DUP2 MSTORE SWAP2 SWAP4 SWAP1 PUSH1 0x1 PUSH1 0x1 PUSH1 0xA0 SHL SUB SWAP1 DUP5 SWAP1 DUP5 SWAP1 PUSH1 0x4 SWAP1 DUP3 SWAP1 DUP6 AND GAS STATICCALL SWAP3 DUP4 ISZERO PUSH2 0xE23 JUMPI DUP5 SWAP4 PUSH2 0xE07 JUMPI JUMPDEST POP DUP3 MLOAD SWAP5 SWAP4 SWAP3 PUSH2 0xB72 DUP7 PUSH2 0x23FB JUMP JUMPDEST SWAP6 PUSH2 0xB80 PUSH1 0x40 MLOAD SWAP8 DUP9 PUSH2 0x23C6 JUMP JUMPDEST DUP1 DUP8 MSTORE PUSH2 0xB8F PUSH1 0x1F NOT SWAP2 PUSH2 0x23FB JUMP JUMPDEST ADD DUP5 JUMPDEST DUP2 DUP2 LT PUSH2 0xDE8 JUMPI POP POP DUP5 DUP5 SWAP1 JUMPDEST PUSH2 0xC08 JUMPI JUMPDEST POP POP POP POP SWAP1 PUSH1 0x40 MLOAD SWAP2 PUSH1 0x20 DUP1 DUP5 ADD SWAP1 DUP1 DUP6 MSTORE DUP6 MLOAD DUP1 SWAP3 MSTORE PUSH1 0x40 DUP6 ADD DUP2 PUSH1 0x40 DUP5 PUSH1 0x5 SHL DUP9 ADD ADD SWAP8 ADD SWAP4 SWAP1 JUMPDEST DUP4 DUP3 LT PUSH2 0xBDB JUMPI DUP7 DUP9 SUB DUP8 RETURN JUMPDEST SWAP1 SWAP2 SWAP3 SWAP4 SWAP5 DUP4 DUP1 PUSH2 0xBF7 DUP4 SWAP11 PUSH1 0x3F NOT DUP12 DUP3 SUB ADD DUP7 MSTORE DUP10 MLOAD PUSH2 0x2189 JUMP JUMPDEST SWAP10 SWAP8 ADD SWAP6 SWAP5 SWAP4 SWAP2 SWAP1 SWAP2 ADD SWAP2 ADD PUSH2 0xBCE JUMP JUMPDEST DUP2 MLOAD DUP2 LT ISZERO PUSH2 0xDE3 JUMPI DUP3 PUSH2 0xC1C DUP3 DUP5 PUSH2 0x2500 JUMP JUMPDEST MLOAD PUSH1 0x40 MLOAD PUSH4 0x90229AF7 PUSH1 0xE0 SHL DUP2 MSTORE SWAP2 AND PUSH1 0x4 DUP3 ADD MSTORE DUP6 DUP2 PUSH1 0x24 DUP2 ADDRESS GAS STATICCALL SWAP1 DUP2 ISZERO PUSH2 0xDD8 JUMPI DUP7 SWAP2 PUSH2 0xC6A JUMPI JUMPDEST POP DUP2 PUSH2 0xC5E SWAP2 PUSH2 0x349 DUP10 SWAP11 SWAP9 SWAP10 SWAP8 SWAP7 SWAP6 SWAP5 DUP10 PUSH2 0x2500 JUMP JUMPDEST SWAP1 SWAP2 SWAP3 SWAP4 SWAP6 SWAP5 SWAP7 PUSH2 0xB9F JUMP JUMPDEST SWAP1 POP RETURNDATASIZE DUP1 DUP8 DUP4 RETURNDATACOPY PUSH2 0xC7B DUP2 DUP4 PUSH2 0x23C6 JUMP JUMPDEST DUP2 ADD PUSH1 0x20 SWAP2 DUP3 DUP2 DUP4 SUB SLT PUSH2 0x3A7 JUMPI DUP1 MLOAD PUSH1 0x1 PUSH1 0x1 PUSH1 0x40 SHL SUB SWAP2 DUP3 DUP3 GT PUSH2 0x4E3 JUMPI ADD SWAP2 PUSH2 0x100 DUP4 DUP3 SUB SLT PUSH2 0x4E7 JUMPI PUSH1 0x40 MLOAD SWAP4 PUSH2 0xCB5 DUP6 PUSH2 0x238F JUMP JUMPDEST PUSH2 0xCBE DUP5 PUSH2 0x24D1 JUMP JUMPDEST DUP6 MSTORE PUSH2 0xCCB DUP2 DUP6 ADD PUSH2 0x23E7 JUMP JUMPDEST DUP2 DUP7 ADD MSTORE PUSH1 0x40 DUP5 ADD MLOAD PUSH1 0x40 DUP7 ADD MSTORE PUSH1 0x60 SWAP1 DUP2 DUP6 ADD MLOAD DUP5 DUP2 GT PUSH2 0xDC1 JUMPI DUP6 ADD PUSH1 0x1F SWAP3 DUP5 DUP5 DUP4 ADD SLT ISZERO PUSH2 0x4DF JUMPI DUP2 MLOAD SWAP2 PUSH2 0xD02 DUP4 PUSH2 0x23FB JUMP JUMPDEST SWAP3 PUSH2 0xD10 PUSH1 0x40 MLOAD SWAP5 DUP6 PUSH2 0x23C6 JUMP JUMPDEST DUP1 DUP5 MSTORE DUP5 DUP1 DUP6 ADD SWAP2 PUSH1 0x5 SHL DUP4 ADD ADD SWAP2 DUP8 DUP4 GT PUSH2 0xDD4 JUMPI DUP6 ADD SWAP1 JUMPDEST DUP3 DUP3 LT PUSH2 0xDC5 JUMPI POP POP POP DUP8 SWAP15 SWAP13 SWAP14 SWAP15 ADD MSTORE PUSH1 0x80 DUP1 DUP7 ADD MLOAD DUP6 DUP2 GT PUSH2 0x4DB JUMPI DUP7 ADD DUP5 DUP5 DUP3 ADD SLT ISZERO PUSH2 0x4DB JUMPI DUP5 DUP2 DUP5 PUSH2 0xD63 SWAP4 MLOAD SWAP2 ADD PUSH2 0x25DC JUMP JUMPDEST SWAP1 DUP8 ADD MSTORE PUSH1 0xA0 SWAP4 DUP5 DUP7 ADD MLOAD SWAP1 DUP2 GT PUSH2 0x4DF JUMPI DUP4 SWAP1 DUP7 ADD SWAP3 DUP4 ADD SLT ISZERO PUSH2 0xDC1 JUMPI SWAP3 PUSH2 0xD9F DUP11 SWAP10 SWAP9 SWAP8 SWAP6 SWAP3 SWAP4 DUP5 DUP16 SWAP13 SWAP6 SWAP7 PUSH2 0xC5E SWAP10 SWAP8 MLOAD SWAP2 ADD PUSH2 0x25DC JUMP JUMPDEST SWAP1 DUP5 ADD MSTORE PUSH1 0xC0 DUP1 DUP3 ADD MLOAD SWAP1 DUP5 ADD MSTORE ADD MLOAD DUP7 DUP3 ADD MSTORE SWAP2 POP SWAP2 SWAP3 SWAP4 SWAP5 SWAP7 SWAP6 SWAP8 PUSH2 0xC47 JUMP JUMPDEST DUP12 DUP1 REVERT JUMPDEST DUP2 MLOAD DUP2 MSTORE SWAP1 DUP6 ADD SWAP1 DUP6 ADD PUSH2 0xD2A JUMP JUMPDEST DUP16 DUP1 REVERT JUMPDEST PUSH1 0x40 MLOAD RETURNDATASIZE DUP9 DUP3 RETURNDATACOPY RETURNDATASIZE SWAP1 REVERT JUMPDEST PUSH2 0xBA4 JUMP JUMPDEST PUSH1 0x20 SWAP1 PUSH2 0xDF7 SWAP9 SWAP7 SWAP8 SWAP9 PUSH2 0x2528 JUMP JUMPDEST DUP3 DUP3 DUP10 ADD ADD MSTORE ADD SWAP7 SWAP6 SWAP5 SWAP7 PUSH2 0xB92 JUMP JUMPDEST PUSH2 0xE1C SWAP2 SWAP4 POP RETURNDATASIZE DUP1 DUP7 DUP4 RETURNDATACOPY PUSH2 0x539 DUP2 DUP4 PUSH2 0x23C6 JUMP JUMPDEST SWAP2 DUP6 PUSH2 0xB63 JUMP JUMPDEST PUSH1 0x40 MLOAD RETURNDATASIZE DUP7 DUP3 RETURNDATACOPY RETURNDATASIZE SWAP1 REVERT JUMPDEST DUP3 CALLVALUE PUSH2 0x553 JUMPI PUSH1 0x20 DUP1 PUSH1 0x3 NOT CALLDATASIZE ADD SLT PUSH2 0xB16 JUMPI PUSH1 0x1 PUSH1 0x1 PUSH1 0xA0 SHL SUB DUP1 PUSH2 0xE52 PUSH2 0x215D JUMP JUMPDEST AND SWAP2 PUSH1 0x40 MLOAD SWAP2 PUSH4 0x6C4470FB PUSH1 0xE0 SHL DUP4 MSTORE DUP5 DUP4 PUSH1 0x4 DUP2 DUP8 GAS STATICCALL SWAP3 DUP4 ISZERO PUSH2 0x548 JUMPI DUP6 SWAP4 PUSH2 0x10A8 JUMPI JUMPDEST POP DUP3 MLOAD SWAP3 PUSH2 0xE85 DUP5 PUSH2 0x23FB JUMP JUMPDEST SWAP4 PUSH2 0xE93 PUSH1 0x40 MLOAD SWAP6 DUP7 PUSH2 0x23C6 JUMP JUMPDEST DUP1 DUP6 MSTORE PUSH2 0xEA2 PUSH1 0x1F NOT SWAP2 PUSH2 0x23FB JUMP JUMPDEST ADD DUP4 DUP8 JUMPDEST DUP3 DUP2 LT PUSH2 0x1086 JUMPI POP POP POP DUP6 JUMPDEST DUP2 MLOAD DUP2 LT ISZERO PUSH2 0xF6D JUMPI DUP7 SWAP1 DUP4 PUSH2 0xEC8 DUP3 DUP6 PUSH2 0x2500 JUMP JUMPDEST MLOAD PUSH1 0x40 MLOAD PUSH4 0x18E521FD PUSH1 0xE2 SHL DUP2 MSTORE SWAP2 AND PUSH1 0x4 DUP3 ADD MSTORE SWAP2 DUP6 DUP4 PUSH1 0x24 DUP2 DUP12 GAS STATICCALL DUP1 DUP11 SWAP2 PUSH2 0xF3C JUMPI JUMPDEST PUSH2 0xF2F SWAP5 POP PUSH2 0xF34 JUMPI JUMPDEST POP DUP5 PUSH2 0xF04 DUP4 DUP7 PUSH2 0x2500 JUMP JUMPDEST MLOAD AND SWAP1 PUSH1 0x40 MLOAD SWAP2 PUSH2 0xF14 DUP4 PUSH2 0x2374 JUMP JUMPDEST DUP3 MSTORE DUP7 DUP3 ADD MSTORE PUSH2 0xF24 DUP3 DUP9 PUSH2 0x2500 JUMP JUMPDEST MSTORE PUSH2 0x354 DUP2 DUP8 PUSH2 0x2500 JUMP JUMPDEST PUSH2 0xEB2 JUMP JUMPDEST SWAP1 POP DUP10 PUSH2 0xEF8 JUMP JUMPDEST SWAP1 POP DUP7 DUP5 DUP2 RETURNDATASIZE DUP4 GT PUSH2 0xF66 JUMPI JUMPDEST PUSH2 0xF53 DUP2 DUP4 PUSH2 0x23C6 JUMP JUMPDEST DUP2 ADD SUB SLT PUSH2 0x684 JUMPI PUSH2 0xF2F SWAP4 MLOAD SWAP1 PUSH2 0xEEE JUMP JUMPDEST POP RETURNDATASIZE PUSH2 0xF49 JUMP JUMPDEST DUP4 DUP8 DUP7 DUP2 JUMPDEST DUP2 MLOAD DUP2 LT ISZERO PUSH2 0x1027 JUMPI PUSH1 0x1 DUP1 DUP3 ADD DUP1 DUP4 GT PUSH2 0x1013 JUMPI DUP2 JUMPDEST PUSH2 0xF9E JUMPI JUMPDEST POP POP PUSH2 0xF99 SWAP1 PUSH2 0x24DE JUMP JUMPDEST PUSH2 0xF72 JUMP JUMPDEST DUP4 MLOAD DUP2 LT ISZERO PUSH2 0x100E JUMPI PUSH2 0xFD2 DUP2 DUP8 PUSH2 0xFB7 DUP6 SWAP5 DUP9 PUSH2 0x2500 JUMP JUMPDEST MLOAD ADD MLOAD DUP9 PUSH2 0xFC5 DUP8 DUP10 PUSH2 0x2500 JUMP JUMPDEST MLOAD ADD MLOAD LT PUSH2 0xFD8 JUMPI PUSH2 0x24DE JUMP JUMPDEST SWAP1 PUSH2 0xF89 JUMP JUMPDEST PUSH2 0xFE2 DUP6 DUP8 PUSH2 0x2500 JUMP JUMPDEST MLOAD PUSH2 0xFED DUP3 DUP9 PUSH2 0x2500 JUMP JUMPDEST MLOAD PUSH2 0xFF8 DUP8 DUP10 PUSH2 0x2500 JUMP JUMPDEST MSTORE PUSH2 0x1003 DUP7 DUP9 PUSH2 0x2500 JUMP JUMPDEST POP PUSH2 0xF24 DUP3 DUP9 PUSH2 0x2500 JUMP JUMPDEST PUSH2 0xF8E JUMP JUMPDEST PUSH4 0x4E487B71 PUSH1 0xE0 SHL DUP6 MSTORE PUSH1 0x11 PUSH1 0x4 MSTORE PUSH1 0x24 DUP6 REVERT JUMPDEST POP SWAP2 SWAP1 SWAP2 PUSH1 0x40 MLOAD SWAP2 DUP1 DUP4 ADD SWAP1 DUP1 DUP5 MSTORE DUP3 MLOAD DUP1 SWAP3 MSTORE DUP1 PUSH1 0x40 DUP6 ADD SWAP4 ADD SWAP5 JUMPDEST DUP3 DUP2 LT PUSH2 0x1051 JUMPI DUP5 DUP5 SUB DUP6 RETURN JUMPDEST SWAP1 SWAP2 SWAP3 DUP3 PUSH1 0x40 DUP3 PUSH2 0x1077 PUSH1 0x1 SWAP5 DUP11 MLOAD PUSH1 0x20 DUP1 SWAP2 PUSH1 0x1 DUP1 PUSH1 0xA0 SHL SUB DUP2 MLOAD AND DUP5 MSTORE ADD MLOAD SWAP2 ADD MSTORE JUMP JUMPDEST ADD SWAP7 ADD SWAP2 ADD SWAP5 SWAP3 SWAP2 SWAP1 SWAP5 PUSH2 0x1044 JUMP JUMPDEST PUSH1 0x40 MLOAD PUSH2 0x1092 DUP2 PUSH2 0x2374 JUMP JUMPDEST PUSH0 DUP2 MSTORE PUSH0 DUP4 DUP3 ADD MSTORE DUP3 DUP3 DUP10 ADD ADD MSTORE ADD DUP5 SWAP1 PUSH2 0xEA6 JUMP JUMPDEST PUSH2 0x10BD SWAP2 SWAP4 POP RETURNDATASIZE DUP1 DUP8 DUP4 RETURNDATACOPY PUSH2 0x539 DUP2 DUP4 PUSH2 0x23C6 JUMP JUMPDEST SWAP2 DUP6 PUSH2 0xE78 JUMP JUMPDEST DUP3 CALLVALUE PUSH2 0x553 JUMPI DUP1 PUSH1 0x3 NOT CALLDATASIZE ADD SLT PUSH2 0x553 JUMPI PUSH1 0x1 DUP1 SLOAD PUSH1 0x40 MLOAD PUSH4 0x97331BF9 PUSH1 0xE0 SHL DUP2 MSTORE SWAP2 SWAP3 SWAP2 SWAP1 PUSH1 0x1 PUSH1 0x1 PUSH1 0xA0 SHL SUB SWAP1 DUP4 SWAP1 DUP4 SWAP1 PUSH1 0x4 SWAP1 DUP3 SWAP1 DUP6 AND GAS STATICCALL SWAP2 DUP3 ISZERO PUSH2 0x116F JUMPI DUP4 SWAP3 PUSH2 0x1153 JUMPI JUMPDEST POP SWAP2 PUSH1 0x40 SWAP4 SWAP2 SWAP4 MLOAD SWAP3 PUSH1 0x20 DUP1 DUP6 ADD SWAP2 DUP2 DUP7 MSTORE DUP7 MLOAD DUP1 SWAP4 MSTORE DUP2 PUSH1 0x40 DUP8 ADD SWAP8 ADD SWAP4 SWAP1 JUMPDEST DUP4 DUP3 LT PUSH2 0x113C JUMPI DUP7 DUP9 SUB DUP8 RETURN JUMPDEST DUP5 MLOAD DUP2 AND DUP9 MSTORE SWAP7 DUP3 ADD SWAP7 SWAP4 DUP3 ADD SWAP4 SWAP1 DUP6 ADD SWAP1 PUSH2 0x112F JUMP JUMPDEST PUSH2 0x1168 SWAP2 SWAP3 POP RETURNDATASIZE DUP1 DUP6 DUP4 RETURNDATACOPY PUSH2 0x539 DUP2 DUP4 PUSH2 0x23C6 JUMP JUMPDEST SWAP1 DUP5 PUSH2 0x110E JUMP JUMPDEST PUSH1 0x40 MLOAD RETURNDATASIZE DUP6 DUP3 RETURNDATACOPY RETURNDATASIZE SWAP1 REVERT JUMPDEST DUP3 CALLVALUE PUSH2 0x553 JUMPI PUSH1 0x40 CALLDATASIZE PUSH1 0x3 NOT ADD SLT PUSH2 0x553 JUMPI DUP1 PUSH2 0x1195 PUSH2 0x215D JUMP JUMPDEST PUSH2 0x119D PUSH2 0x2173 JUMP JUMPDEST PUSH2 0x11AD PUSH1 0xFF DUP5 SLOAD PUSH1 0xA0 SHR AND PUSH2 0x2305 JUMP JUMPDEST PUSH1 0x1 PUSH1 0x1 PUSH1 0xA0 SHL SUB SWAP2 DUP3 AND SWAP2 DUP3 EXTCODESIZE ISZERO PUSH2 0x818 JUMPI PUSH1 0x44 DUP5 SWAP3 DUP4 PUSH1 0x40 MLOAD SWAP6 DUP7 SWAP5 DUP6 SWAP4 PUSH4 0x4B6C77C7 PUSH1 0xE1 SHL DUP6 MSTORE AND PUSH1 0x4 DUP5 ADD MSTORE CALLER PUSH1 0x24 DUP5 ADD MSTORE GAS CALL DUP1 ISZERO PUSH2 0x6CC JUMPI PUSH2 0x808 JUMPI POP RETURN JUMPDEST DUP3 CALLVALUE PUSH2 0x553 JUMPI PUSH1 0x20 SWAP1 DUP2 PUSH1 0x3 NOT CALLDATASIZE ADD SLT PUSH2 0x553 JUMPI PUSH2 0x120E PUSH2 0x215D JUMP JUMPDEST SWAP3 PUSH2 0x1217 PUSH2 0x2528 JUMP JUMPDEST SWAP4 PUSH1 0x1 PUSH1 0x1 PUSH1 0xA0 SHL SUB DUP1 DUP3 AND SWAP2 DUP3 ISZERO PUSH2 0x17BF JUMPI EXTCODESIZE ISZERO PUSH2 0x1789 JUMPI PUSH1 0x40 MLOAD PUSH4 0x8BCF8B5 PUSH1 0xE2 SHL DUP2 MSTORE DUP6 DUP2 PUSH1 0x4 DUP2 DUP7 GAS STATICCALL DUP6 SWAP2 DUP2 PUSH2 0x1752 JUMPI JUMPDEST POP PUSH2 0x1749 JUMPI POP DUP4 DUP7 MSTORE JUMPDEST PUSH1 0x40 MLOAD PUSH4 0x7E062A35 PUSH1 0xE1 SHL DUP2 MSTORE DUP6 DUP2 PUSH1 0x4 DUP2 DUP7 GAS STATICCALL DUP6 SWAP2 DUP2 PUSH2 0x1712 JUMPI JUMPDEST POP PUSH2 0x1708 JUMPI POP POP DUP3 DUP5 DUP7 ADD MSTORE JUMPDEST PUSH1 0x40 MLOAD PUSH4 0x94B81D3 PUSH1 0xE0 SHL DUP2 MSTORE DUP5 DUP2 PUSH1 0x4 DUP2 DUP6 GAS STATICCALL DUP5 SWAP2 DUP2 PUSH2 0x16D9 JUMPI JUMPDEST POP PUSH2 0x16CF JUMPI POP DUP3 PUSH1 0x40 DUP7 ADD MSTORE JUMPDEST PUSH1 0x40 MLOAD PUSH4 0x359CFBF7 PUSH1 0xE0 SHL DUP2 MSTORE DUP5 DUP2 PUSH1 0x4 DUP2 DUP6 GAS STATICCALL DUP5 SWAP2 DUP2 PUSH2 0x16A0 JUMPI JUMPDEST POP PUSH2 0x15DA JUMPI POP PUSH1 0x40 MLOAD PUSH2 0x12DA DUP2 PUSH2 0x23AB JUMP JUMPDEST DUP4 DUP2 MSTORE PUSH1 0x60 DUP7 ADD MSTORE JUMPDEST PUSH1 0x40 MLOAD PUSH4 0xC122C2A1 PUSH1 0xE0 SHL DUP2 MSTORE DUP5 DUP2 PUSH1 0x4 DUP2 DUP6 GAS STATICCALL DUP5 SWAP2 DUP2 PUSH2 0x15AB JUMPI JUMPDEST POP PUSH2 0x1543 JUMPI POP PUSH1 0x40 MLOAD PUSH2 0x1312 DUP2 PUSH2 0x23AB JUMP JUMPDEST PUSH0 DUP2 MSTORE PUSH1 0x80 DUP7 ADD MSTORE JUMPDEST PUSH1 0x40 MLOAD PUSH4 0xB9B792CD PUSH1 0xE0 SHL DUP2 MSTORE DUP5 DUP2 PUSH1 0x4 DUP2 DUP6 GAS STATICCALL DUP5 SWAP2 DUP2 PUSH2 0x1514 JUMPI JUMPDEST POP PUSH2 0x1437 JUMPI POP PUSH1 0x40 MLOAD PUSH2 0x134A DUP2 PUSH2 0x23AB JUMP JUMPDEST PUSH0 DUP2 MSTORE PUSH1 0xA0 DUP7 ADD MSTORE JUMPDEST PUSH1 0x40 MLOAD PUSH4 0x41B3D185 PUSH1 0xE0 SHL DUP2 MSTORE SWAP1 DUP5 SWAP1 DUP2 DUP4 PUSH1 0x4 DUP2 DUP5 GAS STATICCALL DUP1 SWAP4 DUP7 SWAP2 PUSH2 0x1405 JUMPI JUMPDEST POP PUSH1 0x4 SWAP4 PUSH2 0x13FB JUMPI POP DUP5 PUSH1 0xC0 DUP9 ADD MSTORE JUMPDEST PUSH1 0x40 MLOAD PUSH4 0x3041F2CD PUSH1 0xE1 SHL DUP2 MSTORE SWAP3 DUP4 SWAP2 DUP3 SWAP1 GAS STATICCALL DUP4 SWAP2 DUP2 PUSH2 0x13CC JUMPI JUMPDEST POP PUSH2 0x13C2 JUMPI POP DUP4 ADD MSTORE JUMPDEST PUSH2 0x13BE PUSH1 0x40 MLOAD SWAP3 DUP3 DUP5 SWAP4 DUP5 MSTORE DUP4 ADD SWAP1 PUSH2 0x2189 JUMP JUMPDEST SUB SWAP1 RETURN JUMPDEST SWAP2 POP DUP4 ADD MSTORE PUSH2 0x13AA JUMP JUMPDEST SWAP1 SWAP2 POP DUP5 DUP2 DUP2 RETURNDATASIZE DUP4 GT PUSH2 0x13F4 JUMPI JUMPDEST PUSH2 0x13E4 DUP2 DUP4 PUSH2 0x23C6 JUMP JUMPDEST DUP2 ADD SUB SLT PUSH2 0x684 JUMPI MLOAD SWAP1 DUP7 PUSH2 0x13A0 JUMP JUMPDEST POP RETURNDATASIZE PUSH2 0x13DA JUMP JUMPDEST PUSH1 0xC0 DUP9 ADD MSTORE PUSH2 0x1384 JUMP JUMPDEST DUP4 DUP2 SWAP5 SWAP3 POP RETURNDATASIZE DUP4 GT PUSH2 0x1430 JUMPI JUMPDEST PUSH2 0x141C DUP2 DUP4 PUSH2 0x23C6 JUMP JUMPDEST DUP2 ADD SUB SLT PUSH2 0x684 JUMPI SWAP1 MLOAD DUP6 SWAP2 SWAP1 PUSH1 0x4 PUSH2 0x1374 JUMP JUMPDEST POP RETURNDATASIZE PUSH2 0x1412 JUMP JUMPDEST PUSH2 0x1440 DUP2 PUSH2 0x2566 JUMP JUMPDEST PUSH1 0xA0 DUP8 ADD SWAP1 DUP2 MSTORE DUP5 JUMPDEST DUP3 DUP2 LT PUSH2 0x1458 JUMPI POP POP POP PUSH2 0x1353 JUMP JUMPDEST PUSH2 0x14B8 SWAP1 PUSH1 0x40 MLOAD PUSH4 0x503306FD PUSH1 0xE1 SHL DUP2 MSTORE DUP2 PUSH1 0x4 DUP3 ADD MSTORE DUP2 PUSH1 0x40 DUP3 PUSH1 0x24 DUP2 DUP11 GAS STATICCALL SWAP2 DUP3 DUP11 SWAP2 DUP12 SWAP5 PUSH2 0x14E1 JUMPI JUMPDEST POP PUSH2 0x14BD JUMPI POP PUSH2 0x354 SWAP2 POP PUSH1 0x40 MLOAD PUSH2 0x149B DUP2 PUSH2 0x2374 JUMP JUMPDEST DUP10 DUP2 MSTORE PUSH2 0x2710 DUP12 DUP3 ADD MSTORE DUP6 MLOAD SWAP1 PUSH2 0x14B2 DUP4 DUP4 PUSH2 0x2500 JUMP JUMPDEST MSTORE PUSH2 0x2500 JUMP JUMPDEST PUSH2 0x1449 JUMP JUMPDEST PUSH2 0x354 SWAP3 PUSH1 0x40 MLOAD SWAP2 PUSH2 0x14CE DUP4 PUSH2 0x2374 JUMP JUMPDEST DUP3 MSTORE DUP12 DUP3 ADD MSTORE DUP6 MLOAD SWAP1 PUSH2 0x14B2 DUP4 DUP4 PUSH2 0x2500 JUMP JUMPDEST SWAP1 SWAP4 POP PUSH2 0x1506 SWAP2 POP PUSH1 0x40 RETURNDATASIZE PUSH1 0x40 GT PUSH2 0x150D JUMPI JUMPDEST PUSH2 0x14FE DUP2 DUP4 PUSH2 0x23C6 JUMP JUMPDEST DUP2 ADD SWAP1 PUSH2 0x25C6 JUMP JUMPDEST SWAP3 DUP14 PUSH2 0x1484 JUMP JUMPDEST POP RETURNDATASIZE PUSH2 0x14F4 JUMP JUMPDEST SWAP1 SWAP2 POP DUP6 DUP2 DUP2 RETURNDATASIZE DUP4 GT PUSH2 0x153C JUMPI JUMPDEST PUSH2 0x152C DUP2 DUP4 PUSH2 0x23C6 JUMP JUMPDEST DUP2 ADD SUB SLT PUSH2 0x684 JUMPI MLOAD SWAP1 DUP8 PUSH2 0x1338 JUMP JUMPDEST POP RETURNDATASIZE PUSH2 0x1522 JUMP JUMPDEST PUSH2 0x154C DUP2 PUSH2 0x2566 JUMP JUMPDEST PUSH1 0x80 DUP8 ADD SWAP1 DUP2 MSTORE DUP5 JUMPDEST DUP3 DUP2 LT PUSH2 0x1564 JUMPI POP POP POP PUSH2 0x131B JUMP JUMPDEST PUSH2 0x15A6 SWAP1 PUSH1 0x40 MLOAD PUSH4 0x5350CBD9 PUSH1 0xE0 SHL DUP2 MSTORE DUP2 PUSH1 0x4 DUP3 ADD MSTORE DUP2 PUSH1 0x40 DUP3 PUSH1 0x24 DUP2 DUP11 GAS STATICCALL SWAP2 DUP3 DUP11 SWAP2 DUP12 SWAP5 PUSH2 0x14E1 JUMPI POP PUSH2 0x14BD JUMPI POP PUSH2 0x354 SWAP2 POP PUSH1 0x40 MLOAD PUSH2 0x149B DUP2 PUSH2 0x2374 JUMP JUMPDEST PUSH2 0x1555 JUMP JUMPDEST SWAP1 SWAP2 POP DUP6 DUP2 DUP2 RETURNDATASIZE DUP4 GT PUSH2 0x15D3 JUMPI JUMPDEST PUSH2 0x15C3 DUP2 DUP4 PUSH2 0x23C6 JUMP JUMPDEST DUP2 ADD SUB SLT PUSH2 0x684 JUMPI MLOAD SWAP1 DUP8 PUSH2 0x1300 JUMP JUMPDEST POP RETURNDATASIZE PUSH2 0x15B9 JUMP JUMPDEST PUSH2 0x15E3 DUP2 PUSH2 0x23FB JUMP JUMPDEST SWAP1 PUSH2 0x15F1 PUSH1 0x40 MLOAD SWAP3 DUP4 PUSH2 0x23C6 JUMP JUMPDEST DUP1 DUP3 MSTORE PUSH1 0x1F NOT PUSH2 0x1600 DUP3 PUSH2 0x23FB JUMP JUMPDEST ADD CALLDATASIZE DUP8 DUP5 ADD CALLDATACOPY PUSH1 0x60 DUP8 ADD SWAP2 DUP3 MSTORE DUP5 JUMPDEST DUP2 DUP2 LT PUSH2 0x161E JUMPI POP POP POP PUSH2 0x12E3 JUMP JUMPDEST PUSH1 0x40 MLOAD PUSH4 0x10390D35 PUSH1 0xE0 SHL DUP2 MSTORE PUSH1 0x4 DUP2 ADD DUP3 SWAP1 MSTORE SWAP1 DUP8 DUP3 PUSH1 0x24 DUP2 DUP9 GAS STATICCALL DUP1 DUP9 SWAP2 PUSH2 0x166F JUMPI JUMPDEST PUSH2 0x165F SWAP4 POP PUSH2 0x1664 JUMPI POP DUP7 PUSH2 0x1659 DUP3 DUP7 MLOAD PUSH2 0x2500 JUMP JUMPDEST MSTORE PUSH2 0x24DE JUMP JUMPDEST PUSH2 0x160F JUMP JUMPDEST PUSH2 0x1659 DUP3 DUP7 MLOAD PUSH2 0x2500 JUMP JUMPDEST SWAP1 POP DUP9 DUP4 DUP2 RETURNDATASIZE DUP4 GT PUSH2 0x1699 JUMPI JUMPDEST PUSH2 0x1686 DUP2 DUP4 PUSH2 0x23C6 JUMP JUMPDEST DUP2 ADD SUB SLT PUSH2 0x684 JUMPI PUSH2 0x165F SWAP3 MLOAD SWAP1 PUSH2 0x1643 JUMP JUMPDEST POP RETURNDATASIZE PUSH2 0x167C JUMP JUMPDEST SWAP1 SWAP2 POP DUP6 DUP2 DUP2 RETURNDATASIZE DUP4 GT PUSH2 0x16C8 JUMPI JUMPDEST PUSH2 0x16B8 DUP2 DUP4 PUSH2 0x23C6 JUMP JUMPDEST DUP2 ADD SUB SLT PUSH2 0x684 JUMPI MLOAD SWAP1 DUP8 PUSH2 0x12C8 JUMP JUMPDEST POP RETURNDATASIZE PUSH2 0x16AE JUMP JUMPDEST PUSH1 0x40 DUP7 ADD MSTORE PUSH2 0x12AB JUMP JUMPDEST SWAP1 SWAP2 POP DUP6 DUP2 DUP2 RETURNDATASIZE DUP4 GT PUSH2 0x1701 JUMPI JUMPDEST PUSH2 0x16F1 DUP2 DUP4 PUSH2 0x23C6 JUMP JUMPDEST DUP2 ADD SUB SLT PUSH2 0xB12 JUMPI MLOAD SWAP1 DUP8 PUSH2 0x129E JUMP JUMPDEST POP RETURNDATASIZE PUSH2 0x16E7 JUMP JUMPDEST AND DUP5 DUP7 ADD MSTORE PUSH2 0x1281 JUMP JUMPDEST SWAP1 SWAP2 POP DUP7 DUP2 DUP2 RETURNDATASIZE DUP4 GT PUSH2 0x1742 JUMPI JUMPDEST PUSH2 0x172A DUP2 DUP4 PUSH2 0x23C6 JUMP JUMPDEST DUP2 ADD SUB SLT PUSH2 0xB0E JUMPI PUSH2 0x173B SWAP1 PUSH2 0x23E7 JUMP JUMPDEST SWAP1 DUP9 PUSH2 0x1274 JUMP JUMPDEST POP RETURNDATASIZE PUSH2 0x1720 JUMP JUMPDEST ISZERO ISZERO DUP7 MSTORE PUSH2 0x1257 JUMP JUMPDEST SWAP1 SWAP2 POP DUP7 DUP2 DUP2 RETURNDATASIZE DUP4 GT PUSH2 0x1782 JUMPI JUMPDEST PUSH2 0x176A DUP2 DUP4 PUSH2 0x23C6 JUMP JUMPDEST DUP2 ADD SUB SLT PUSH2 0xB0E JUMPI PUSH2 0x177B SWAP1 PUSH2 0x24D1 JUMP JUMPDEST SWAP1 DUP9 PUSH2 0x124D JUMP JUMPDEST POP RETURNDATASIZE PUSH2 0x1760 JUMP JUMPDEST PUSH1 0x40 MLOAD PUSH3 0x461BCD PUSH1 0xE5 SHL DUP2 MSTORE PUSH1 0x4 DUP2 ADD DUP7 SWAP1 MSTORE PUSH1 0xE PUSH1 0x24 DUP3 ADD MSTORE PUSH14 0x1B9BDD08184818DBDB9D1C9858DD PUSH1 0x92 SHL PUSH1 0x44 DUP3 ADD MSTORE PUSH1 0x64 SWAP1 REVERT JUMPDEST PUSH1 0x40 MLOAD PUSH3 0x461BCD PUSH1 0xE5 SHL DUP2 MSTORE PUSH1 0x4 DUP2 ADD DUP8 SWAP1 MSTORE PUSH1 0x7 PUSH1 0x24 DUP3 ADD MSTORE PUSH7 0x7661756C74203 PUSH1 0xCC SHL PUSH1 0x44 DUP3 ADD MSTORE PUSH1 0x64 SWAP1 REVERT JUMPDEST DUP3 CALLVALUE PUSH2 0x553 JUMPI DUP1 PUSH1 0x3 NOT CALLDATASIZE ADD SLT PUSH2 0x553 JUMPI SLOAD PUSH1 0x40 MLOAD PUSH1 0x1 PUSH1 0x1 PUSH1 0xA0 SHL SUB SWAP1 SWAP2 AND DUP2 MSTORE PUSH1 0x20 SWAP1 RETURN JUMPDEST DUP3 CALLVALUE PUSH2 0x553 JUMPI DUP1 PUSH1 0x3 NOT CALLDATASIZE ADD SLT PUSH2 0x553 JUMPI PUSH1 0x1 SLOAD PUSH1 0x40 MLOAD PUSH1 0x1 PUSH1 0x1 PUSH1 0xA0 SHL SUB SWAP1 SWAP2 AND DUP2 MSTORE PUSH1 0x20 SWAP1 RETURN JUMPDEST DUP3 CALLVALUE PUSH2 0x553 JUMPI DUP1 PUSH1 0x3 NOT CALLDATASIZE ADD SLT PUSH2 0x553 JUMPI PUSH2 0x1857 PUSH2 0x22DA JUMP JUMPDEST PUSH0 DUP1 SLOAD PUSH1 0x1 PUSH1 0x1 PUSH1 0xA0 SHL SUB NOT DUP2 AND DUP3 SSTORE PUSH1 0x1 PUSH1 0x1 PUSH1 0xA0 SHL SUB AND PUSH32 0x8BE0079C531659141344CD1FD0A4F28419497F9722A3DAAFE3B4186F6B6457E0 DUP3 DUP1 LOG3 DUP1 RETURN JUMPDEST DUP3 CALLVALUE PUSH2 0x553 JUMPI PUSH1 0x20 CALLDATASIZE PUSH1 0x3 NOT ADD SLT PUSH2 0x553 JUMPI PUSH2 0x18B1 PUSH2 0x215D JUMP JUMPDEST PUSH2 0x18B9 PUSH2 0x22DA JUMP JUMPDEST PUSH1 0x1 PUSH1 0x1 PUSH1 0xA0 SHL SUB AND DUP1 ISZERO PUSH2 0x18E3 JUMPI PUSH12 0xFFFFFFFFFFFFFFFFFFFFFFFF PUSH1 0xA0 SHL PUSH1 0x1 SLOAD AND OR PUSH1 0x1 SSTORE DUP1 RETURN JUMPDEST PUSH1 0x40 MLOAD PUSH3 0x461BCD PUSH1 0xE5 SHL DUP2 MSTORE PUSH1 0x20 PUSH1 0x4 DUP3 ADD MSTORE PUSH1 0x9 PUSH1 0x24 DUP3 ADD MSTORE PUSH9 0x666163746F7279203 PUSH1 0xBC SHL PUSH1 0x44 DUP3 ADD MSTORE PUSH1 0x64 SWAP1 REVERT JUMPDEST DUP3 CALLVALUE PUSH2 0x553 JUMPI PUSH1 0x20 CALLDATASIZE PUSH1 0x3 NOT ADD SLT PUSH2 0x553 JUMPI DUP1 PUSH2 0x192F PUSH2 0x215D JUMP JUMPDEST PUSH2 0x193F PUSH1 0xFF DUP4 SLOAD PUSH1 0xA0 SHR AND PUSH2 0x2305 JUMP JUMPDEST PUSH1 0x1 PUSH1 0x1 PUSH1 0xA0 SHL SUB AND DUP1 EXTCODESIZE ISZERO PUSH2 0x197A JUMPI DUP2 DUP1 SWAP2 PUSH1 0x24 PUSH1 0x40 MLOAD DUP1 SWAP5 DUP2 SWAP4 PUSH4 0x2C07E405 PUSH1 0xE1 SHL DUP4 MSTORE CALLER PUSH1 0x4 DUP5 ADD MSTORE GAS CALL DUP1 ISZERO PUSH2 0x6CC JUMPI PUSH2 0x808 JUMPI POP RETURN JUMPDEST POP REVERT JUMPDEST DUP3 CALLVALUE PUSH2 0x553 JUMPI DUP1 PUSH1 0x3 NOT CALLDATASIZE ADD SLT PUSH2 0x553 JUMPI PUSH1 0xFF PUSH1 0x20 SWAP2 SLOAD PUSH1 0xA0 SHR AND PUSH1 0x40 MLOAD SWAP1 ISZERO ISZERO DUP2 MSTORE RETURN JUMPDEST DUP3 CALLVALUE PUSH2 0x553 JUMPI PUSH1 0x20 DUP1 PUSH1 0x3 NOT CALLDATASIZE ADD SLT PUSH2 0xB16 JUMPI PUSH2 0x19BD PUSH2 0x215D JUMP JUMPDEST PUSH1 0x1 DUP1 SLOAD PUSH1 0x40 MLOAD PUSH4 0x97331BF9 PUSH1 0xE0 SHL DUP2 MSTORE SWAP2 SWAP5 SWAP2 SWAP3 PUSH1 0x1 PUSH1 0x1 PUSH1 0xA0 SHL SUB SWAP2 DUP3 AND SWAP2 SWAP1 DUP4 DUP6 PUSH1 0x4 DUP2 DUP7 GAS STATICCALL SWAP5 DUP6 ISZERO PUSH2 0xE23 JUMPI DUP5 SWAP6 PUSH2 0x1C82 JUMPI JUMPDEST POP DUP5 MLOAD SWAP7 SWAP5 PUSH2 0x1A03 DUP9 PUSH2 0x23FB JUMP JUMPDEST SWAP8 PUSH2 0x1A11 PUSH1 0x40 MLOAD SWAP10 DUP11 PUSH2 0x23C6 JUMP JUMPDEST DUP1 DUP10 MSTORE PUSH2 0x1A20 PUSH1 0x1F NOT SWAP2 PUSH2 0x23FB JUMP JUMPDEST ADD DUP6 JUMPDEST DUP2 DUP2 LT PUSH2 0x1C5A JUMPI POP POP SWAP1 DUP6 SWAP4 SWAP3 SWAP2 DUP6 SWAP5 JUMPDEST PUSH2 0x1A97 JUMPI JUMPDEST POP POP POP POP POP PUSH1 0x40 MLOAD SWAP3 DUP1 DUP5 ADD SWAP1 DUP1 DUP6 MSTORE DUP6 MLOAD DUP1 SWAP3 MSTORE DUP1 PUSH1 0x40 DUP7 ADD SWAP7 ADD SWAP3 JUMPDEST DUP3 DUP2 LT PUSH2 0x1A64 JUMPI DUP6 DUP8 SUB DUP7 RETURN JUMPDEST SWAP1 SWAP2 SWAP3 SWAP4 DUP3 PUSH1 0x40 DUP9 PUSH2 0x1A8A DUP5 SWAP11 DUP10 MLOAD PUSH1 0x20 DUP1 SWAP2 PUSH1 0x1 DUP1 PUSH1 0xA0 SHL SUB DUP2 MLOAD AND DUP5 MSTORE ADD MLOAD SWAP2 ADD MSTORE JUMP JUMPDEST ADD SWAP8 SWAP6 ADD SWAP4 SWAP3 SWAP2 ADD PUSH2 0x1A57 JUMP JUMPDEST DUP1 SWAP9 SWAP6 SWAP5 SWAP9 SWAP8 SWAP7 SWAP8 MLOAD DUP10 LT ISZERO PUSH2 0x1C4E JUMPI DUP9 DUP8 DUP5 PUSH2 0x1AB6 PUSH1 0x4 SWAP13 DUP6 PUSH2 0x2500 JUMP JUMPDEST MLOAD AND PUSH1 0x40 MLOAD SWAP12 DUP13 DUP1 SWAP3 PUSH4 0x7E062A35 PUSH1 0xE1 SHL DUP3 MSTORE GAS STATICCALL SWAP10 DUP11 ISZERO PUSH2 0xDD8 JUMPI DUP7 SWAP11 PUSH2 0x1C17 JUMPI JUMPDEST POP PUSH1 0x40 MLOAD PUSH4 0xB1E3A941 PUSH1 0xE0 SHL DUP2 MSTORE SWAP10 DUP5 AND PUSH1 0x4 DUP12 ADD DUP2 SWAP1 MSTORE PUSH1 0x24 DUP10 DUP13 DUP3 DUP2 DUP11 GAS STATICCALL SWAP1 DUP2 ISZERO PUSH2 0x3B3 JUMPI DUP12 SWAP13 DUP10 SWAP11 SWAP12 SWAP13 SWAP9 SWAP10 SWAP3 PUSH2 0x1BD2 JUMPI JUMPDEST POP DUP12 DUP8 DUP12 SWAP4 AND DUP1 PUSH2 0x1B55 JUMPI JUMPDEST POP POP POP SWAP1 PUSH2 0x1B4C SWAP3 SWAP2 PUSH1 0x40 MLOAD SWAP2 PUSH2 0x1B31 DUP4 PUSH2 0x2374 JUMP JUMPDEST DUP3 MSTORE DUP12 DUP3 ADD MSTORE PUSH2 0x1B41 DUP3 DUP12 PUSH2 0x2500 JUMP JUMPDEST MSTORE PUSH2 0x354 DUP2 DUP11 PUSH2 0x2500 JUMP JUMPDEST SWAP5 SWAP4 SWAP7 SWAP9 PUSH2 0x1A34 JUMP JUMPDEST SWAP2 SWAP4 SWAP5 SWAP6 SWAP7 SWAP8 SWAP9 POP SWAP2 POP PUSH1 0x40 MLOAD SWAP3 DUP4 DUP1 SWAP3 PUSH4 0x18E521FD PUSH1 0xE2 SHL DUP3 MSTORE DUP11 DUP11 AND PUSH1 0x4 DUP4 ADD MSTORE GAS STATICCALL SWAP1 DUP2 ISZERO PUSH2 0x3B3 JUMPI SWAP1 DUP12 SWAP7 SWAP6 SWAP5 SWAP4 SWAP3 SWAP2 DUP10 SWAP2 PUSH2 0x1B9B JUMPI JUMPDEST POP PUSH2 0x1B4C DUP12 DUP15 PUSH2 0x1B1B JUMP JUMPDEST DUP1 SWAP4 SWAP3 SWAP8 POP DUP12 DUP1 SWAP3 POP RETURNDATASIZE DUP4 GT PUSH2 0x1BCB JUMPI JUMPDEST PUSH2 0x1BB6 DUP2 DUP4 PUSH2 0x23C6 JUMP JUMPDEST DUP2 ADD SUB SLT PUSH2 0x684 JUMPI SWAP1 MLOAD DUP11 SWAP6 SWAP1 PUSH2 0x1B4C PUSH2 0x1B90 JUMP JUMPDEST POP RETURNDATASIZE PUSH2 0x1BAC JUMP JUMPDEST DUP13 DUP1 SWAP3 SWAP5 SWAP6 SWAP7 SWAP8 SWAP9 SWAP10 POP DUP2 SWAP4 POP RETURNDATASIZE DUP4 GT PUSH2 0x1C10 JUMPI JUMPDEST PUSH2 0x1BF1 DUP2 DUP4 PUSH2 0x23C6 JUMP JUMPDEST DUP2 ADD SUB SLT PUSH2 0x4E7 JUMPI SWAP1 PUSH2 0x1C09 DUP13 SWAP8 SWAP7 SWAP6 SWAP5 SWAP4 SWAP3 PUSH2 0x23E7 JUMP JUMPDEST SWAP1 DUP14 PUSH2 0x1B0F JUMP JUMPDEST POP RETURNDATASIZE PUSH2 0x1BE7 JUMP JUMPDEST SWAP1 SWAP10 POP DUP8 DUP2 DUP2 RETURNDATASIZE DUP4 GT PUSH2 0x1C47 JUMPI JUMPDEST PUSH2 0x1C2F DUP2 DUP4 PUSH2 0x23C6 JUMP JUMPDEST DUP2 ADD SUB SLT PUSH2 0xB0E JUMPI PUSH2 0x1C40 SWAP1 PUSH2 0x23E7 JUMP JUMPDEST SWAP9 DUP11 PUSH2 0x1AD9 JUMP JUMPDEST POP RETURNDATASIZE PUSH2 0x1C25 JUMP JUMPDEST DUP5 SWAP6 SWAP9 POP SWAP7 SWAP6 SWAP7 PUSH2 0x1A39 JUMP JUMPDEST DUP9 SWAP1 PUSH1 0x40 SWAP11 SWAP9 SWAP11 MLOAD PUSH2 0x1C6B DUP2 PUSH2 0x2374 JUMP JUMPDEST PUSH0 DUP2 MSTORE PUSH0 DUP4 DUP3 ADD MSTORE DUP3 DUP3 DUP12 ADD ADD MSTORE ADD SWAP9 SWAP7 SWAP9 PUSH2 0x1A23 JUMP JUMPDEST PUSH2 0x1C97 SWAP2 SWAP6 POP RETURNDATASIZE DUP1 DUP7 DUP4 RETURNDATACOPY PUSH2 0x539 DUP2 DUP4 PUSH2 0x23C6 JUMP JUMPDEST SWAP4 DUP8 PUSH2 0x19F5 JUMP JUMPDEST DUP3 CALLVALUE PUSH2 0x553 JUMPI PUSH1 0x20 SWAP1 DUP2 PUSH1 0x3 NOT CALLDATASIZE ADD SLT PUSH2 0x553 JUMPI PUSH1 0x4 SWAP1 DUP4 PUSH2 0x1CBE PUSH2 0x215D JUMP JUMPDEST DUP3 PUSH1 0xC0 PUSH1 0x40 MLOAD PUSH2 0x1CCD DUP2 PUSH2 0x2359 JUMP JUMPDEST DUP3 DUP2 MSTORE DUP3 DUP9 DUP3 ADD MSTORE DUP3 PUSH1 0x40 DUP3 ADD MSTORE DUP3 PUSH1 0x60 DUP3 ADD MSTORE DUP3 PUSH1 0x80 DUP3 ADD MSTORE DUP3 PUSH1 0xA0 DUP3 ADD MSTORE ADD MSTORE PUSH1 0x40 MLOAD SWAP4 DUP5 DUP1 SWAP3 PUSH4 0x1F122C87 PUSH1 0xE2 SHL DUP3 MSTORE PUSH1 0x1 DUP1 PUSH1 0xA0 SHL SUB AND GAS STATICCALL SWAP1 DUP2 ISZERO PUSH2 0x68F JUMPI DUP1 SWAP2 PUSH2 0x1D5E JUMPI JUMPDEST POP PUSH1 0xC0 SWAP2 POP PUSH1 0x40 MLOAD SWAP3 DUP2 MLOAD DUP5 MSTORE DUP1 DUP3 ADD MLOAD SWAP1 DUP5 ADD MSTORE PUSH1 0x40 DUP2 ADD MLOAD PUSH1 0x40 DUP5 ADD MSTORE PUSH1 0x60 DUP2 ADD MLOAD PUSH1 0x60 DUP5 ADD MSTORE PUSH1 0x80 DUP2 ADD MLOAD PUSH1 0x80 DUP5 ADD MSTORE PUSH1 0xA0 DUP2 ADD MLOAD PUSH1 0xA0 DUP5 ADD MSTORE ADD MLOAD PUSH1 0xC0 DUP3 ADD MSTORE RETURN JUMPDEST SWAP1 POP DUP4 DUP3 DUP2 RETURNDATASIZE DUP4 GT PUSH2 0x1DCF JUMPI JUMPDEST PUSH2 0x1D75 DUP2 DUP4 PUSH2 0x23C6 JUMP JUMPDEST DUP2 ADD SUB SLT PUSH2 0x553 JUMPI POP PUSH1 0xC0 SWAP1 DUP2 PUSH1 0x40 MLOAD SWAP2 PUSH2 0x1D8F DUP4 PUSH2 0x2359 JUMP JUMPDEST DUP1 MLOAD DUP4 MSTORE DUP5 DUP2 ADD MLOAD DUP6 DUP5 ADD MSTORE PUSH1 0x40 DUP2 ADD MLOAD PUSH1 0x40 DUP5 ADD MSTORE PUSH1 0x60 DUP2 ADD MLOAD PUSH1 0x60 DUP5 ADD MSTORE PUSH1 0x80 DUP2 ADD MLOAD PUSH1 0x80 DUP5 ADD MSTORE PUSH1 0xA0 DUP2 ADD MLOAD PUSH1 0xA0 DUP5 ADD MSTORE ADD MLOAD DUP3 DUP3 ADD MSTORE DUP5 PUSH2 0x1D18 JUMP JUMPDEST POP RETURNDATASIZE PUSH2 0x1D6B JUMP JUMPDEST DUP3 CALLVALUE PUSH2 0x553 JUMPI PUSH1 0x60 CALLDATASIZE PUSH1 0x3 NOT ADD SLT PUSH2 0x553 JUMPI PUSH2 0x1DF0 PUSH2 0x215D JUMP JUMPDEST SWAP1 PUSH1 0x24 SWAP2 DUP3 CALLDATALOAD PUSH2 0x1E06 PUSH1 0xFF DUP5 SLOAD PUSH1 0xA0 SHR AND PUSH2 0x2305 JUMP JUMPDEST PUSH1 0x40 MLOAD PUSH4 0x23B872DD PUSH1 0xE0 SHL PUSH1 0x20 DUP1 DUP4 ADD SWAP2 DUP3 MSTORE CALLER DUP8 DUP5 ADD MSTORE ADDRESS PUSH1 0x44 DUP5 ADD MSTORE PUSH1 0x64 DUP1 DUP5 ADD DUP6 SWAP1 MSTORE DUP4 MSTORE PUSH1 0x1 PUSH1 0x1 PUSH1 0xA0 SHL SUB SWAP5 DUP6 AND SWAP5 SWAP1 SWAP3 SWAP1 SWAP2 PUSH1 0xA0 DUP3 ADD SWAP1 PUSH1 0x1 PUSH1 0x1 PUSH1 0x40 SHL SUB DUP3 GT DUP4 DUP4 LT OR PUSH2 0x1FC2 JUMPI DUP5 SWAP3 DUP9 SWAP3 PUSH1 0x40 MSTORE MLOAD SWAP1 DUP3 DUP9 GAS CALL ISZERO PUSH2 0xE23 JUMPI DUP5 MLOAD RETURNDATASIZE PUSH2 0x1FB9 JUMPI POP DUP4 EXTCODESIZE ISZERO JUMPDEST PUSH2 0x1FA1 JUMPI SWAP5 DUP2 DUP7 DUP3 SWAP4 DUP8 SWAP9 PUSH1 0x1 SLOAD AND PUSH1 0x40 MLOAD SWAP5 DUP6 DUP1 SWAP3 PUSH4 0xB1E3A941 PUSH1 0xE0 SHL DUP3 MSTORE DUP11 PUSH1 0x4 DUP4 ADD MSTORE GAS STATICCALL DUP1 ISZERO PUSH2 0x1F96 JUMPI DUP8 SWAP4 DUP5 SWAP2 PUSH2 0x1F5A JUMPI JUMPDEST POP AND SWAP5 DUP2 SWAP1 PUSH2 0x1EBA DUP8 ISZERO ISZERO PUSH2 0x2493 JUMP JUMPDEST PUSH1 0x44 PUSH1 0x40 MLOAD DUP1 SWAP6 DUP2 SWAP4 PUSH4 0x95EA7B3 PUSH1 0xE0 SHL DUP4 MSTORE DUP11 PUSH1 0x4 DUP5 ADD MSTORE DUP10 DUP10 DUP5 ADD MSTORE GAS CALL DUP1 ISZERO PUSH2 0xDD8 JUMPI PUSH2 0x1F26 JUMPI JUMPDEST POP POP DUP3 EXTCODESIZE ISZERO PUSH2 0x818 JUMPI PUSH1 0x64 DUP5 SWAP3 DUP4 PUSH1 0x40 MLOAD SWAP6 DUP7 SWAP5 DUP6 SWAP4 PUSH4 0x2C6C3AF3 PUSH1 0xE2 SHL DUP6 MSTORE PUSH1 0x4 DUP6 ADD MSTORE PUSH1 0x44 CALLDATALOAD SWAP1 DUP5 ADD MSTORE CALLER PUSH1 0x44 DUP5 ADD MSTORE GAS CALL DUP1 ISZERO PUSH2 0x6CC JUMPI PUSH2 0x808 JUMPI POP RETURN JUMPDEST DUP2 DUP2 RETURNDATASIZE DUP4 GT PUSH2 0x1F53 JUMPI JUMPDEST PUSH2 0x1F3A DUP2 DUP4 PUSH2 0x23C6 JUMP JUMPDEST DUP2 ADD SUB SLT PUSH2 0xB12 JUMPI PUSH2 0x1F4B SWAP1 PUSH2 0x24D1 JUMP JUMPDEST POP DUP6 DUP1 PUSH2 0x1EE5 JUMP JUMPDEST POP RETURNDATASIZE PUSH2 0x1F30 JUMP JUMPDEST DUP1 SWAP3 SWAP5 POP DUP4 DUP1 SWAP3 POP RETURNDATASIZE DUP4 GT PUSH2 0x1F8F JUMPI JUMPDEST PUSH2 0x1F74 DUP2 DUP4 PUSH2 0x23C6 JUMP JUMPDEST DUP2 ADD SUB SLT PUSH2 0xB0A JUMPI DUP7 SWAP3 PUSH2 0x1F88 DUP4 SWAP3 PUSH2 0x23E7 JUMP JUMPDEST SWAP1 SWAP2 PUSH2 0x1EAA JUMP JUMPDEST POP RETURNDATASIZE PUSH2 0x1F6A JUMP JUMPDEST PUSH1 0x40 MLOAD RETURNDATASIZE DUP10 DUP3 RETURNDATACOPY RETURNDATASIZE SWAP1 REVERT JUMPDEST PUSH1 0x40 MLOAD PUSH4 0x5274AFE7 PUSH1 0xE0 SHL DUP2 MSTORE PUSH1 0x4 DUP2 ADD DUP6 SWAP1 MSTORE DUP7 SWAP1 REVERT JUMPDEST PUSH1 0x1 EQ ISZERO PUSH2 0x1E73 JUMP JUMPDEST DUP9 PUSH4 0x4E487B71 PUSH1 0xE0 SHL PUSH0 MSTORE PUSH1 0x41 PUSH1 0x4 MSTORE PUSH0 REVERT JUMPDEST DUP3 CALLVALUE PUSH2 0x553 JUMPI PUSH1 0x40 CALLDATASIZE PUSH1 0x3 NOT ADD SLT PUSH2 0x553 JUMPI PUSH2 0x1FEF PUSH2 0x22DA JUMP JUMPDEST PUSH1 0x1 SLOAD DUP2 SWAP1 PUSH1 0x1 PUSH1 0x1 PUSH1 0xA0 SHL SUB AND DUP1 EXTCODESIZE ISZERO PUSH2 0x197A JUMPI DUP2 SWAP1 PUSH1 0x44 PUSH1 0x40 MLOAD DUP1 SWAP5 DUP2 SWAP4 PUSH3 0x2DE3E7 PUSH1 0xE6 SHL DUP4 MSTORE PUSH1 0x4 CALLDATALOAD PUSH1 0x4 DUP5 ADD MSTORE PUSH1 0x24 CALLDATALOAD PUSH1 0x24 DUP5 ADD MSTORE GAS CALL DUP1 ISZERO PUSH2 0x6CC JUMPI PUSH2 0x2038 JUMPI POP DUP1 RETURN JUMPDEST PUSH2 0x2041 SWAP1 PUSH2 0x2346 JUMP JUMPDEST DUP1 RETURN JUMPDEST DUP4 CALLVALUE PUSH2 0x553 JUMPI PUSH1 0x40 CALLDATASIZE PUSH1 0x3 NOT ADD SLT PUSH2 0x553 JUMPI PUSH2 0x205E PUSH2 0x215D JUMP JUMPDEST PUSH2 0x2066 PUSH2 0x2173 JUMP JUMPDEST PUSH1 0x1 SLOAD PUSH4 0xB1E3A941 PUSH1 0xE0 SHL DUP6 MSTORE PUSH1 0x1 PUSH1 0x1 PUSH1 0xA0 SHL SUB SWAP3 DUP4 AND PUSH1 0x4 DUP7 ADD MSTORE PUSH1 0x20 SWAP5 SWAP2 SWAP3 SWAP2 SWAP1 DUP6 SWAP1 DUP3 SWAP1 PUSH1 0x24 SWAP1 DUP3 SWAP1 DUP7 AND GAS STATICCALL SWAP1 DUP2 ISZERO PUSH2 0xE23 JUMPI SWAP1 DUP6 SWAP3 SWAP2 DUP6 SWAP2 PUSH2 0x211D JUMPI JUMPDEST POP DUP2 PUSH1 0x24 SWAP2 AND SWAP4 PUSH2 0x20BB DUP6 ISZERO ISZERO PUSH2 0x2493 JUMP JUMPDEST PUSH1 0x40 MLOAD SWAP5 DUP6 SWAP4 DUP5 SWAP3 PUSH4 0x18E521FD PUSH1 0xE2 SHL DUP5 MSTORE AND PUSH1 0x4 DUP4 ADD MSTORE GAS STATICCALL SWAP2 DUP3 ISZERO PUSH2 0x68F JUMPI DUP1 SWAP3 PUSH2 0x20ED JUMPI JUMPDEST POP POP PUSH1 0x40 MLOAD SWAP1 DUP2 MSTORE RETURN JUMPDEST SWAP1 SWAP2 POP DUP3 DUP3 DUP2 RETURNDATASIZE DUP4 GT PUSH2 0x2116 JUMPI JUMPDEST PUSH2 0x2105 DUP2 DUP4 PUSH2 0x23C6 JUMP JUMPDEST DUP2 ADD SUB SLT PUSH2 0x553 JUMPI POP MLOAD DUP3 DUP1 PUSH2 0x20E3 JUMP JUMPDEST POP RETURNDATASIZE PUSH2 0x20FB JUMP JUMPDEST DUP4 DUP2 SWAP4 SWAP5 SWAP3 POP RETURNDATASIZE DUP4 GT PUSH2 0x2156 JUMPI JUMPDEST PUSH2 0x2135 DUP2 DUP4 PUSH2 0x23C6 JUMP JUMPDEST DUP2 ADD SUB SLT PUSH2 0x2152 JUMPI SWAP1 PUSH1 0x24 DUP2 PUSH2 0x214B DUP8 SWAP5 PUSH2 0x23E7 JUMP JUMPDEST SWAP2 POP PUSH2 0x20A9 JUMP JUMPDEST DUP4 DUP1 REVERT JUMPDEST POP RETURNDATASIZE PUSH2 0x212B JUMP JUMPDEST PUSH1 0x4 CALLDATALOAD SWAP1 PUSH1 0x1 PUSH1 0x1 PUSH1 0xA0 SHL SUB DUP3 AND DUP3 SUB PUSH2 0x684 JUMPI JUMP JUMPDEST PUSH1 0x24 CALLDATALOAD SWAP1 PUSH1 0x1 PUSH1 0x1 PUSH1 0xA0 SHL SUB DUP3 AND DUP3 SUB PUSH2 0x684 JUMPI JUMP JUMPDEST SWAP1 PUSH2 0x100 SWAP2 DUP3 DUP3 ADD DUP2 MLOAD ISZERO ISZERO DUP4 MSTORE PUSH1 0x20 SWAP1 PUSH1 0x1 DUP1 PUSH1 0xA0 SHL SUB DUP3 DUP5 ADD MLOAD AND DUP3 DUP6 ADD MSTORE PUSH1 0x40 DUP4 ADD MLOAD PUSH1 0x40 DUP6 ADD MSTORE PUSH1 0x60 DUP4 ADD MLOAD SWAP5 PUSH1 0x60 DUP6 ADD MSTORE DUP5 MLOAD DUP1 SWAP2 MSTORE DUP2 PUSH2 0x120 DUP6 ADD SWAP6 ADD SWAP1 PUSH0 JUMPDEST DUP2 DUP2 LT PUSH2 0x2296 JUMPI POP POP POP PUSH1 0x80 DUP3 ADD MLOAD SWAP4 DUP4 DUP2 SUB PUSH1 0x80 DUP6 ADD MSTORE DUP2 DUP1 DUP7 MLOAD SWAP3 DUP4 DUP2 MSTORE ADD SWAP6 ADD SWAP1 PUSH0 JUMPDEST DUP2 DUP2 LT PUSH2 0x2269 JUMPI POP POP POP PUSH1 0xA0 DUP3 ADD MLOAD SWAP4 DUP4 DUP2 SUB PUSH1 0xA0 DUP6 ADD MSTORE DUP2 DUP1 DUP7 MLOAD SWAP3 DUP4 DUP2 MSTORE ADD SWAP6 ADD SWAP2 PUSH0 JUMPDEST DUP3 DUP2 LT PUSH2 0x223C JUMPI POP POP POP POP PUSH1 0xE0 DUP2 PUSH1 0xC0 DUP3 SWAP4 ADD MLOAD PUSH1 0xC0 DUP6 ADD MSTORE ADD MLOAD SWAP2 ADD MSTORE SWAP1 JUMP JUMPDEST SWAP1 SWAP2 SWAP3 SWAP6 DUP3 PUSH2 0x225E PUSH1 0x1 SWAP3 DUP10 MLOAD SWAP1 PUSH1 0x20 PUSH1 0x40 SWAP3 DUP1 MLOAD DUP4 MSTORE ADD MLOAD PUSH1 0x20 DUP3 ADD MSTORE ADD SWAP1 JUMP JUMPDEST SWAP8 ADD SWAP4 SWAP3 SWAP2 ADD PUSH2 0x221B JUMP JUMPDEST SWAP1 SWAP2 SWAP3 SWAP6 DUP7 PUSH2 0x228B PUSH1 0x1 SWAP3 DUP7 MLOAD SWAP1 PUSH1 0x20 PUSH1 0x40 SWAP3 DUP1 MLOAD DUP4 MSTORE ADD MLOAD PUSH1 0x20 DUP3 ADD MSTORE ADD SWAP1 JUMP JUMPDEST SWAP8 SWAP5 ADD SWAP3 SWAP2 ADD PUSH2 0x21F5 JUMP JUMPDEST DUP3 MLOAD DUP8 MSTORE SWAP6 DUP4 ADD SWAP6 SWAP2 DUP4 ADD SWAP2 PUSH1 0x1 ADD PUSH2 0x21CF JUMP JUMPDEST SWAP2 DUP2 PUSH1 0x1F DUP5 ADD SLT ISZERO PUSH2 0x684 JUMPI DUP3 CALLDATALOAD SWAP2 PUSH1 0x1 PUSH1 0x1 PUSH1 0x40 SHL SUB DUP4 GT PUSH2 0x684 JUMPI PUSH1 0x20 DUP1 DUP6 ADD SWAP5 DUP5 PUSH1 0x6 SHL ADD ADD GT PUSH2 0x684 JUMPI JUMP JUMPDEST PUSH0 SLOAD PUSH1 0x1 PUSH1 0x1 PUSH1 0xA0 SHL SUB AND CALLER SUB PUSH2 0x22ED JUMPI JUMP JUMPDEST PUSH1 0x40 MLOAD PUSH4 0x118CDAA7 PUSH1 0xE0 SHL DUP2 MSTORE CALLER PUSH1 0x4 DUP3 ADD MSTORE PUSH1 0x24 SWAP1 REVERT JUMPDEST ISZERO PUSH2 0x230C JUMPI JUMP JUMPDEST PUSH1 0x40 MLOAD PUSH3 0x461BCD PUSH1 0xE5 SHL DUP2 MSTORE PUSH1 0x20 PUSH1 0x4 DUP3 ADD MSTORE PUSH1 0x12 PUSH1 0x24 DUP3 ADD MSTORE PUSH18 0x149BDD5D195C881A5CC8191A5CD8589B1959 PUSH1 0x72 SHL PUSH1 0x44 DUP3 ADD MSTORE PUSH1 0x64 SWAP1 REVERT JUMPDEST PUSH1 0x1 PUSH1 0x1 PUSH1 0x40 SHL SUB DUP2 GT PUSH2 0x4C7 JUMPI PUSH1 0x40 MSTORE JUMP JUMPDEST PUSH1 0xE0 DUP2 ADD SWAP1 DUP2 LT PUSH1 0x1 PUSH1 0x1 PUSH1 0x40 SHL SUB DUP3 GT OR PUSH2 0x4C7 JUMPI PUSH1 0x40 MSTORE JUMP JUMPDEST PUSH1 0x40 DUP2 ADD SWAP1 DUP2 LT PUSH1 0x1 PUSH1 0x1 PUSH1 0x40 SHL SUB DUP3 GT OR PUSH2 0x4C7 JUMPI PUSH1 0x40 MSTORE JUMP JUMPDEST PUSH2 0x100 DUP2 ADD SWAP1 DUP2 LT PUSH1 0x1 PUSH1 0x1 PUSH1 0x40 SHL SUB DUP3 GT OR PUSH2 0x4C7 JUMPI PUSH1 0x40 MSTORE JUMP JUMPDEST PUSH1 0x20 DUP2 ADD SWAP1 DUP2 LT PUSH1 0x1 PUSH1 0x1 PUSH1 0x40 SHL SUB DUP3 GT OR PUSH2 0x4C7 JUMPI PUSH1 0x40 MSTORE JUMP JUMPDEST SWAP1 PUSH1 0x1F DUP1 NOT SWAP2 ADD AND DUP2 ADD SWAP1 DUP2 LT PUSH1 0x1 PUSH1 0x1 PUSH1 0x40 SHL SUB DUP3 GT OR PUSH2 0x4C7 JUMPI PUSH1 0x40 MSTORE JUMP JUMPDEST MLOAD SWAP1 PUSH1 0x1 PUSH1 0x1 PUSH1 0xA0 SHL SUB DUP3 AND DUP3 SUB PUSH2 0x684 JUMPI JUMP JUMPDEST PUSH1 0x1 PUSH1 0x1 PUSH1 0x40 SHL SUB DUP2 GT PUSH2 0x4C7 JUMPI PUSH1 0x5 SHL PUSH1 0x20 ADD SWAP1 JUMP JUMPDEST PUSH1 0x20 SWAP1 DUP2 DUP2 DUP5 SUB SLT PUSH2 0x684 JUMPI DUP1 MLOAD SWAP1 PUSH1 0x1 PUSH1 0x1 PUSH1 0x40 SHL SUB DUP3 GT PUSH2 0x684 JUMPI ADD SWAP2 DUP1 PUSH1 0x1F DUP5 ADD SLT ISZERO PUSH2 0x684 JUMPI DUP3 MLOAD PUSH2 0x2447 DUP2 PUSH2 0x23FB JUMP JUMPDEST SWAP4 PUSH2 0x2455 PUSH1 0x40 MLOAD SWAP6 DUP7 PUSH2 0x23C6 JUMP JUMPDEST DUP2 DUP6 MSTORE DUP4 DUP1 DUP7 ADD SWAP3 PUSH1 0x5 SHL DUP3 ADD ADD SWAP3 DUP4 GT PUSH2 0x684 JUMPI DUP4 ADD SWAP1 JUMPDEST DUP3 DUP3 LT PUSH2 0x247C JUMPI POP POP POP POP SWAP1 JUMP JUMPDEST DUP4 DUP1 SWAP2 PUSH2 0x2488 DUP5 PUSH2 0x23E7 JUMP JUMPDEST DUP2 MSTORE ADD SWAP2 ADD SWAP1 PUSH2 0x246E JUMP JUMPDEST ISZERO PUSH2 0x249A JUMPI JUMP JUMPDEST PUSH1 0x40 MLOAD PUSH3 0x461BCD PUSH1 0xE5 SHL DUP2 MSTORE PUSH1 0x20 PUSH1 0x4 DUP3 ADD MSTORE PUSH1 0xF PUSH1 0x24 DUP3 ADD MSTORE PUSH15 0x1D985D5B1D081B9BDD08199BDD5B99 PUSH1 0x8A SHL PUSH1 0x44 DUP3 ADD MSTORE PUSH1 0x64 SWAP1 REVERT JUMPDEST MLOAD SWAP1 DUP2 ISZERO ISZERO DUP3 SUB PUSH2 0x684 JUMPI JUMP JUMPDEST PUSH0 NOT DUP2 EQ PUSH2 0x24EC JUMPI PUSH1 0x1 ADD SWAP1 JUMP JUMPDEST PUSH4 0x4E487B71 PUSH1 0xE0 SHL PUSH0 MSTORE PUSH1 0x11 PUSH1 0x4 MSTORE PUSH1 0x24 PUSH0 REVERT JUMPDEST DUP1 MLOAD DUP3 LT ISZERO PUSH2 0x2514 JUMPI PUSH1 0x20 SWAP2 PUSH1 0x5 SHL ADD ADD SWAP1 JUMP JUMPDEST PUSH4 0x4E487B71 PUSH1 0xE0 SHL PUSH0 MSTORE PUSH1 0x32 PUSH1 0x4 MSTORE PUSH1 0x24 PUSH0 REVERT JUMPDEST PUSH1 0x40 MLOAD SWAP1 PUSH2 0x2535 DUP3 PUSH2 0x238F JUMP JUMPDEST PUSH0 PUSH1 0xE0 DUP4 DUP3 DUP2 MSTORE DUP3 PUSH1 0x20 DUP3 ADD MSTORE DUP3 PUSH1 0x40 DUP3 ADD MSTORE PUSH1 0x60 DUP1 DUP3 ADD MSTORE PUSH1 0x60 PUSH1 0x80 DUP3 ADD MSTORE PUSH1 0x60 PUSH1 0xA0 DUP3 ADD MSTORE DUP3 PUSH1 0xC0 DUP3 ADD MSTORE ADD MSTORE JUMP JUMPDEST SWAP1 PUSH2 0x2570 DUP3 PUSH2 0x23FB JUMP JUMPDEST PUSH1 0x40 SWAP1 PUSH2 0x257F DUP3 MLOAD SWAP2 DUP3 PUSH2 0x23C6 JUMP JUMPDEST DUP4 DUP2 MSTORE DUP1 SWAP4 PUSH2 0x2590 PUSH1 0x1F NOT SWAP2 PUSH2 0x23FB JUMP JUMPDEST ADD SWAP2 PUSH0 SWAP1 DUP2 JUMPDEST DUP5 DUP2 LT PUSH2 0x25A4 JUMPI POP POP POP POP POP JUMP JUMPDEST PUSH1 0x20 SWAP1 DUP3 MLOAD PUSH2 0x25B2 DUP2 PUSH2 0x2374 JUMP JUMPDEST DUP5 DUP2 MSTORE DUP3 DUP6 DUP2 DUP4 ADD MSTORE DUP3 DUP8 ADD ADD MSTORE ADD PUSH2 0x2596 JUMP JUMPDEST SWAP2 SWAP1 DUP3 PUSH1 0x40 SWAP2 SUB SLT PUSH2 0x684 JUMPI PUSH1 0x20 DUP3 MLOAD SWAP3 ADD MLOAD SWAP1 JUMP JUMPDEST SWAP3 SWAP2 SWAP3 PUSH2 0x25E8 DUP3 PUSH2 0x23FB JUMP JUMPDEST PUSH1 0x40 SWAP3 PUSH2 0x25F7 DUP5 MLOAD SWAP3 DUP4 PUSH2 0x23C6 JUMP JUMPDEST DUP2 SWAP6 DUP2 DUP4 MSTORE PUSH1 0x20 DUP1 SWAP4 ADD SWAP2 PUSH1 0x6 SHL DUP5 ADD SWAP4 DUP2 DUP6 GT PUSH2 0x684 JUMPI SWAP2 JUMPDEST DUP5 DUP4 LT PUSH2 0x2620 JUMPI POP POP POP POP POP POP JUMP JUMPDEST DUP6 DUP4 DUP4 SUB SLT PUSH2 0x684 JUMPI DUP4 DUP7 SWAP2 DUP3 MLOAD PUSH2 0x2637 DUP2 PUSH2 0x2374 JUMP JUMPDEST DUP6 MLOAD DUP2 MSTORE DUP3 DUP7 ADD MLOAD DUP4 DUP3 ADD MSTORE DUP2 MSTORE ADD SWAP3 ADD SWAP2 PUSH2 0x2611 JUMP INVALID LOG2 PUSH5 0x6970667358 0x22 SLT KECCAK256 0x4A SLT MSTORE8 PUSH14 0x8E47E8910EDD104915FC7EBA84AF STATICCALL DUP1 0x5E PUSH17 0x7DA9F0FC5C0B262F781F64736F6C634300 ADDMOD EQ STOP CALLER "
		},
		"gasEstimates": {
			"creation": {
				"codeDepositCost": "1972000",
				"executionCost": "infinite",
				"totalCost": "infinite"
			},
			"external": {
				"closeVault(address)": "infinite",
				"createVault(address,uint256,uint256,int256,uint256[],(uint256,uint256)[],(uint256,uint256)[])": "infinite",
				"disableRouter()": "27015",
				"enableRouter()": "26915",
				"factory()": "2712",
				"getAllPositions(address)": "infinite",
				"getAllVaultInfo()": "infinite",
				"getAllVaults()": "infinite",
				"getAllXP(address)": "infinite",
				"getFactory()": "2491",
				"getFees()": "infinite",
				"getProtocol()": "infinite",
				"getVaultAnalytics(address)": "infinite",
				"getVaultByToken(address)": "infinite",
				"getVaultInfo(address)": "infinite",
				"getVaultLeaderboardXP(address)": "infinite",
				"getXP(address,address)": "infinite",
				"isRouterEnabled()": "2397",
				"owner()": "2510",
				"releaseAll(address)": "infinite",
				"releaseFor(address,address)": "infinite",
				"renounceOwnership()": "28242",
				"setFactory(address)": "26792",
				"setFees(uint256,uint256)": "infinite",
				"stake(address,uint256,uint256)": "infinite",
				"transferOwnership(address)": "28691"
			}
		},
		"methodIdentifiers": {
			"closeVault(address)": "c99cb2b7",
			"createVault(address,uint256,uint256,int256,uint256[],(uint256,uint256)[],(uint256,uint256)[])": "a444477b",
			"disableRouter()": "d858a7e5",
			"enableRouter()": "b0f07f15",
			"factory()": "c45a0155",
			"getAllPositions(address)": "fb11e969",
			"getAllVaultInfo()": "a38c178c",
			"getAllVaults()": "97331bf9",
			"getAllXP(address)": "4ba1a5b9",
			"getFactory()": "88cc58e4",
			"getFees()": "db8d55f1",
			"getProtocol()": "d16352af",
			"getVaultAnalytics(address)": "1c99c54b",
			"getVaultByToken(address)": "b1e3a941",
			"getVaultInfo(address)": "90229af7",
			"getVaultLeaderboardXP(address)": "9b780bb2",
			"getXP(address,address)": "05e2e95d",
			"isRouterEnabled()": "55197241",
			"owner()": "8da5cb5b",
			"releaseAll(address)": "580fc80a",
			"releaseFor(address,address)": "96d8ef8e",
			"renounceOwnership()": "715018a6",
			"setFactory(address)": "5bb47808",
			"setFees(uint256,uint256)": "0b78f9c0",
			"stake(address,uint256,uint256)": "0c51b88f",
			"transferOwnership(address)": "f2fde38b"
		}
	},
	"abi": [
		{
			"inputs": [
				{
					"internalType": "address",
					"name": "_factory",
					"type": "address"
				},
				{
					"internalType": "address",
					"name": "_protocol",
					"type": "address"
				}
			],
			"stateMutability": "nonpayable",
			"type": "constructor"
		},
		{
			"inputs": [
				{
					"internalType": "address",
					"name": "owner",
					"type": "address"
				}
			],
			"name": "OwnableInvalidOwner",
			"type": "error"
		},
		{
			"inputs": [
				{
					"internalType": "address",
					"name": "account",
					"type": "address"
				}
			],
			"name": "OwnableUnauthorizedAccount",
			"type": "error"
		},
		{
			"inputs": [
				{
					"internalType": "address",
					"name": "token",
					"type": "address"
				}
			],
			"name": "SafeERC20FailedOperation",
			"type": "error"
		},
		{
			"anonymous": false,
			"inputs": [
				{
					"indexed": true,
					"internalType": "address",
					"name": "previousOwner",
					"type": "address"
				},
				{
					"indexed": true,
					"internalType": "address",
					"name": "newOwner",
					"type": "address"
				}
			],
			"name": "OwnershipTransferred",
			"type": "event"
		},
		{
			"inputs": [
				{
					"internalType": "address",
					"name": "vaultAddr",
					"type": "address"
				}
			],
			"name": "closeVault",
			"outputs": [],
			"stateMutability": "nonpayable",
			"type": "function"
		},
		{
			"inputs": [
				{
					"internalType": "address",
					"name": "token",
					"type": "address"
				},
				{
					"internalType": "uint256",
					"name": "minDeposit",
					"type": "uint256"
				},
				{
					"internalType": "uint256",
					"name": "maxDeposit",
					"type": "uint256"
				},
				{
					"internalType": "int256",
					"name": "xpRate",
					"type": "int256"
				},
				{
					"internalType": "uint256[]",
					"name": "presetTimes",
					"type": "uint256[]"
				},
				{
					"components": [
						{
							"internalType": "uint256",
							"name": "minBlocks",
							"type": "uint256"
						},
						{
							"internalType": "uint256",
							"name": "multiplierBP",
							"type": "uint256"
						}
					],
					"internalType": "struct IVaultFactory.TimeMultiplierIn[]",
					"name": "timeMultipliers",
					"type": "tuple[]"
				},
				{
					"components": [
						{
							"internalType": "uint256",
							"name": "minAmount",
							"type": "uint256"
						},
						{
							"internalType": "uint256",
							"name": "multiplierBP",
							"type": "uint256"
						}
					],
					"internalType": "struct IVaultFactory.AmountMultiplierIn[]",
					"name": "amountMultipliers",
					"type": "tuple[]"
				}
			],
			"name": "createVault",
			"outputs": [
				{
					"internalType": "address",
					"name": "vaultAddr",
					"type": "address"
				}
			],
			"stateMutability": "nonpayable",
			"type": "function"
		},
		{
			"inputs": [],
			"name": "disableRouter",
			"outputs": [],
			"stateMutability": "nonpayable",
			"type": "function"
		},
		{
			"inputs": [],
			"name": "enableRouter",
			"outputs": [],
			"stateMutability": "nonpayable",
			"type": "function"
		},
		{
			"inputs": [],
			"name": "factory",
			"outputs": [
				{
					"internalType": "address",
					"name": "",
					"type": "address"
				}
			],
			"stateMutability": "view",
			"type": "function"
		},
		{
			"inputs": [
				{
					"internalType": "address",
					"name": "user",
					"type": "address"
				}
			],
			"name": "getAllPositions",
			"outputs": [
				{
					"components": [
						{
							"internalType": "address",
							"name": "token",
							"type": "address"
						},
						{
							"components": [
								{
									"internalType": "address",
									"name": "user",
									"type": "address"
								},
								{
									"internalType": "uint256",
									"name": "amount",
									"type": "uint256"
								},
								{
									"internalType": "uint256",
									"name": "startBlock",
									"type": "uint256"
								},
								{
									"internalType": "uint256",
									"name": "endBlock",
									"type": "uint256"
								},
								{
									"internalType": "bool",
									"name": "claimed",
									"type": "bool"
								}
							],
							"internalType": "struct IVaultExtended.Position[]",
							"name": "positions",
							"type": "tuple[]"
						}
					],
					"internalType": "struct YunaVaultRouter.TokenPositions[]",
					"name": "results",
					"type": "tuple[]"
				}
			],
			"stateMutability": "view",
			"type": "function"
		},
		{
			"inputs": [],
			"name": "getAllVaultInfo",
			"outputs": [
				{
					"components": [
						{
							"internalType": "bool",
							"name": "isActive",
							"type": "bool"
						},
						{
							"internalType": "address",
							"name": "token",
							"type": "address"
						},
						{
							"internalType": "int256",
							"name": "xpRate",
							"type": "int256"
						},
						{
							"internalType": "uint256[]",
							"name": "presetTimes",
							"type": "uint256[]"
						},
						{
							"components": [
								{
									"internalType": "uint256",
									"name": "minBlocks",
									"type": "uint256"
								},
								{
									"internalType": "uint256",
									"name": "multiplierBP",
									"type": "uint256"
								}
							],
							"internalType": "struct IVaultFactory.TimeMultiplierIn[]",
							"name": "timeMultipliers",
							"type": "tuple[]"
						},
						{
							"components": [
								{
									"internalType": "uint256",
									"name": "minAmount",
									"type": "uint256"
								},
								{
									"internalType": "uint256",
									"name": "multiplierBP",
									"type": "uint256"
								}
							],
							"internalType": "struct IVaultFactory.AmountMultiplierIn[]",
							"name": "amountMultipliers",
							"type": "tuple[]"
						},
						{
							"internalType": "uint256",
							"name": "minDeposit",
							"type": "uint256"
						},
						{
							"internalType": "uint256",
							"name": "maxDeposit",
							"type": "uint256"
						}
					],
					"internalType": "struct YunaVaultRouter.VaultInfo[]",
					"name": "results",
					"type": "tuple[]"
				}
			],
			"stateMutability": "view",
			"type": "function"
		},
		{
			"inputs": [],
			"name": "getAllVaults",
			"outputs": [
				{
					"internalType": "address[]",
					"name": "",
					"type": "address[]"
				}
			],
			"stateMutability": "view",
			"type": "function"
		},
		{
			"inputs": [
				{
					"internalType": "address",
					"name": "user",
					"type": "address"
				}
			],
			"name": "getAllXP",
			"outputs": [
				{
					"components": [
						{
							"internalType": "address",
							"name": "token",
							"type": "address"
						},
						{
							"internalType": "uint256",
							"name": "xp",
							"type": "uint256"
						}
					],
					"internalType": "struct YunaVaultRouter.TokenXP[]",
					"name": "results",
					"type": "tuple[]"
				}
			],
			"stateMutability": "view",
			"type": "function"
		},
		{
			"inputs": [],
			"name": "getFactory",
			"outputs": [
				{
					"internalType": "address",
					"name": "",
					"type": "address"
				}
			],
			"stateMutability": "view",
			"type": "function"
		},
		{
			"inputs": [],
			"name": "getFees",
			"outputs": [
				{
					"internalType": "uint256",
					"name": "protocolFeeBP",
					"type": "uint256"
				},
				{
					"internalType": "uint256",
					"name": "callerFeeBP",
					"type": "uint256"
				}
			],
			"stateMutability": "view",
			"type": "function"
		},
		{
			"inputs": [],
			"name": "getProtocol",
			"outputs": [
				{
					"internalType": "address",
					"name": "",
					"type": "address"
				}
			],
			"stateMutability": "view",
			"type": "function"
		},
		{
			"inputs": [
				{
					"internalType": "address",
					"name": "vault",
					"type": "address"
				}
			],
			"name": "getVaultAnalytics",
			"outputs": [
				{
					"components": [
						{
							"internalType": "uint256",
							"name": "totalStaked",
							"type": "uint256"
						},
						{
							"internalType": "uint256",
							"name": "activePositions",
							"type": "uint256"
						},
						{
							"internalType": "uint256",
							"name": "historyPositions",
							"type": "uint256"
						},
						{
							"internalType": "uint256",
							"name": "avgLockBlocks",
							"type": "uint256"
						},
						{
							"internalType": "uint256",
							"name": "avgAmount",
							"type": "uint256"
						},
						{
							"internalType": "uint256",
							"name": "totalPositions",
							"type": "uint256"
						},
						{
							"internalType": "uint256",
							"name": "totalXP",
							"type": "uint256"
						}
					],
					"internalType": "struct YunaVaultRouter.VaultAnalytics",
					"name": "info",
					"type": "tuple"
				}
			],
			"stateMutability": "view",
			"type": "function"
		},
		{
			"inputs": [
				{
					"internalType": "address",
					"name": "token",
					"type": "address"
				}
			],
			"name": "getVaultByToken",
			"outputs": [
				{
					"internalType": "address",
					"name": "",
					"type": "address"
				}
			],
			"stateMutability": "view",
			"type": "function"
		},
		{
			"inputs": [
				{
					"internalType": "address",
					"name": "vault",
					"type": "address"
				}
			],
			"name": "getVaultInfo",
			"outputs": [
				{
					"components": [
						{
							"internalType": "bool",
							"name": "isActive",
							"type": "bool"
						},
						{
							"internalType": "address",
							"name": "token",
							"type": "address"
						},
						{
							"internalType": "int256",
							"name": "xpRate",
							"type": "int256"
						},
						{
							"internalType": "uint256[]",
							"name": "presetTimes",
							"type": "uint256[]"
						},
						{
							"components": [
								{
									"internalType": "uint256",
									"name": "minBlocks",
									"type": "uint256"
								},
								{
									"internalType": "uint256",
									"name": "multiplierBP",
									"type": "uint256"
								}
							],
							"internalType": "struct IVaultFactory.TimeMultiplierIn[]",
							"name": "timeMultipliers",
							"type": "tuple[]"
						},
						{
							"components": [
								{
									"internalType": "uint256",
									"name": "minAmount",
									"type": "uint256"
								},
								{
									"internalType": "uint256",
									"name": "multiplierBP",
									"type": "uint256"
								}
							],
							"internalType": "struct IVaultFactory.AmountMultiplierIn[]",
							"name": "amountMultipliers",
							"type": "tuple[]"
						},
						{
							"internalType": "uint256",
							"name": "minDeposit",
							"type": "uint256"
						},
						{
							"internalType": "uint256",
							"name": "maxDeposit",
							"type": "uint256"
						}
					],
					"internalType": "struct YunaVaultRouter.VaultInfo",
					"name": "info",
					"type": "tuple"
				}
			],
			"stateMutability": "view",
			"type": "function"
		},
		{
			"inputs": [
				{
					"internalType": "address",
					"name": "vault",
					"type": "address"
				}
			],
			"name": "getVaultLeaderboardXP",
			"outputs": [
				{
					"components": [
						{
							"internalType": "address",
							"name": "user",
							"type": "address"
						},
						{
							"internalType": "uint256",
							"name": "xp",
							"type": "uint256"
						}
					],
					"internalType": "struct YunaVaultRouter.UserXP[]",
					"name": "leaderboard",
					"type": "tuple[]"
				}
			],
			"stateMutability": "view",
			"type": "function"
		},
		{
			"inputs": [
				{
					"internalType": "address",
					"name": "tokenAddr",
					"type": "address"
				},
				{
					"internalType": "address",
					"name": "holder",
					"type": "address"
				}
			],
			"name": "getXP",
			"outputs": [
				{
					"internalType": "uint256",
					"name": "",
					"type": "uint256"
				}
			],
			"stateMutability": "view",
			"type": "function"
		},
		{
			"inputs": [],
			"name": "isRouterEnabled",
			"outputs": [
				{
					"internalType": "bool",
					"name": "",
					"type": "bool"
				}
			],
			"stateMutability": "view",
			"type": "function"
		},
		{
			"inputs": [],
			"name": "owner",
			"outputs": [
				{
					"internalType": "address",
					"name": "",
					"type": "address"
				}
			],
			"stateMutability": "view",
			"type": "function"
		},
		{
			"inputs": [
				{
					"internalType": "address",
					"name": "vault",
					"type": "address"
				}
			],
			"name": "releaseAll",
			"outputs": [],
			"stateMutability": "nonpayable",
			"type": "function"
		},
		{
			"inputs": [
				{
					"internalType": "address",
					"name": "vault",
					"type": "address"
				},
				{
					"internalType": "address",
					"name": "beneficiary",
					"type": "address"
				}
			],
			"name": "releaseFor",
			"outputs": [],
			"stateMutability": "nonpayable",
			"type": "function"
		},
		{
			"inputs": [],
			"name": "renounceOwnership",
			"outputs": [],
			"stateMutability": "nonpayable",
			"type": "function"
		},
		{
			"inputs": [
				{
					"internalType": "address",
					"name": "_factory",
					"type": "address"
				}
			],
			"name": "setFactory",
			"outputs": [],
			"stateMutability": "nonpayable",
			"type": "function"
		},
		{
			"inputs": [
				{
					"internalType": "uint256",
					"name": "protocolFeeBP",
					"type": "uint256"
				},
				{
					"internalType": "uint256",
					"name": "callerFeeBP",
					"type": "uint256"
				}
			],
			"name": "setFees",
			"outputs": [],
			"stateMutability": "nonpayable",
			"type": "function"
		},
		{
			"inputs": [
				{
					"internalType": "address",
					"name": "tokenAddr",
					"type": "address"
				},
				{
					"internalType": "uint256",
					"name": "amount",
					"type": "uint256"
				},
				{
					"internalType": "uint256",
					"name": "blocksToStake",
					"type": "uint256"
				}
			],
			"name": "stake",
			"outputs": [],
			"stateMutability": "nonpayable",
			"type": "function"
		},
		{
			"inputs": [
				{
					"internalType": "address",
					"name": "newOwner",
					"type": "address"
				}
			],
			"name": "transferOwnership",
			"outputs": [],
			"stateMutability": "nonpayable",
			"type": "function"
		}
	]
}