{
	"data": {
		"bytecode": {
			"linkReferences": {},
			"object": "608060405234620003aa57620018d2803803806200001d81620003ae565b9283398101606082820312620003aa5781516001600160a01b039182821691829003620003aa5760208481015190946001600160401b0391828111620003aa57836200006b918301620003d4565b926040820151838111620003aa57620000859201620003d4565b82519082821162000396575f968754926001958685811c951680156200038b575b8386101462000377578190601f9586811162000324575b508390868311600114620002c1578b92620002b5575b50505f19600383901b1c191690861b1788555b8151938411620002a15784548581811c9116801562000296575b82821014620002825790818486959493116200022b575b5080928411600114620001c457508792620001b8575b50505f19600383901b1c191690821b1790555b80156200019f57600780546001600160a01b0319808216841790925560405194919316907f8be0079c531659141344cd1fd0a4f28419497f9722a3daafe3b4186f6b6457e09080a33390600a541617600a5561148d9081620004458239f35b604051631e4fbdf760e01b815260048101849052602490fd5b015190505f806200012d565b9190859450601f198416858a52838a20938a905b828210620002115750508411620001f8575b505050811b01905562000140565b01515f1960f88460031b161c191690555f8080620001ea565b8484015186558897909501949384019390810190620001d8565b90919293508589528189208480870160051c82019284881062000278575b9187968992969594930160051c01915b8281106200026957505062000117565b8b815587965088910162000259565b9250819262000249565b634e487b7160e01b89526022600452602489fd5b90607f169062000100565b634e487b7160e01b88526041600452602488fd5b015190505f80620000d3565b8b8052848c208994509190601f1984168d5b878282106200030d5750508411620002f4575b505050811b018855620000e6565b01515f1960f88460031b161c191690555f8080620002e6565b8385015186558c97909501949384019301620002d3565b9091508a8052838b208680850160051c8201928686106200036d575b918a91869594930160051c01915b8281106200035e575050620000bd565b8d81558594508a91016200034e565b9250819262000340565b634e487b7160e01b8a52602260045260248afd5b94607f1694620000a6565b634e487b7160e01b5f52604160045260245ffd5b5f80fd5b6040519190601f01601f191682016001600160401b038111838210176200039657604052565b919080601f84011215620003aa5782516001600160401b03811162000396576020906200040a601f8201601f19168301620003ae565b92818452828287010111620003aa575f5b818110620004305750825f9394955001015290565b85810183015184820184015282016200041b56fe60806040818152600480361015610014575f80fd5b5f92833560e01c90816301ffc9a714610daf5750806306fdde0314610d07578063081812fc14610ccc578063095ea7b314610bf057806318160ddd14610bd157806323b872dd14610bb957806342842e0e14610b905780636352211e14610b5f57806370a0823114610b0a578063715018a614610aaa57806371f0442e1461097b5780638da5cb5b1461095257806395d89b411461086f578063a22cb465146107d2578063b88d4fde1461076a578063c45a015514610741578063c5aef310146102d4578063c87b56dd146101e0578063e985e9c51461018e5763f2fde38b146100fc575f80fd5b3461018a57602036600319011261018a57610115610e7b565b9061011e610fa2565b6001600160a01b03918216928315610174575050600754826bffffffffffffffffffffffff60a01b821617600755167f8be0079c531659141344cd1fd0a4f28419497f9722a3daafe3b4186f6b6457e08380a380f35b51631e4fbdf760e01b8152908101849052602490fd5b8280fd5b5050346101dc57806003193601126101dc5760ff816020936101ae610e7b565b6101b6610e95565b6001600160a01b0391821683526005875283832091168252855220549151911615158152f35b5080fd5b50903461018a57602091826003193601126102d057356101ff816112f4565b5083526006825280832092815180948290805461021b81610fce565b918285526001918883821691825f146102a957505060011461026b575b50505061026793929161024c910386610f10565b815161025781610ee0565b5251928284938452830190610e56565b0390f35b8552868520879350859291905b828410610291575050508201018161024c610267610238565b8054848b018601528995508894909301928101610278565b60ff19168782015293151560051b8601909301935084925061024c91506102679050610238565b8380fd5b509190346101dc5760803660031901126101dc576102f0610e7b565b92602467ffffffffffffffff813581811161073d576103129036908501610f84565b946044358281116101dc5761032a9036908601610f84565b9260643583811161018a576103429036908701610f84565b60075490986001600160a01b0391821633148015610730575b156106fd576001958660085401998a600855895191829160209d8e92683d913730b6b2911d1160b91b8486015280519081856029880192019161039d92610e35565b8401701116113232b9b1b934b83a34b7b7111d1160791b60298201528151918285603a84019201916103ce92610e35565b01906a11161134b6b0b3b2911d1160a91b603a83015280518093604584019201916103f892610e35565b0161227d60f01b6045820152036027810182526047016104189082610f10565b88519060608201828110888211176106eb57603d8d610493879694956104cc9998968f806104dc977f6768696a6b6c6d6e6f707172737475767778797a303132333435363738392b2f92528084527f4142434445464748494a4b4c4d4e4f505152535455565758595a6162636465668685015283015261132e565b8d5198827f646174613a6170706c69636174696f6e2f6a736f6e3b6261736536342c0000008b9485015282519283918686019101610e35565b810103601d810188520186610f10565b169081156106d55789855260028b528885205416801515918a91836106a4575b81875260038d528a872080548a01905582875260028d528a872080546001600160a01b031916831790557fddf252ad1be2c89b69c2b068fc378daa952ba7f163c4a11628f55a4df523b3ef8780a4610690578783526006895286832095825194851161067f57505061056e8554610fce565b601f8111610639575b508791601f84116001146105db57918394918493946105d0575b50501b915f199060031b1c19161790555b7ff8e1a15aba9398e019f0b49df1a4fde98ee17ae345cb5f6b5e2c27f5033e8ce7838251848152a151908152f35b015192505f80610591565b919083601f1981168785528a8520945b8b88838310610622575050501061060a575b505050811b0190556105a2565b01515f1960f88460031b161c191690555f80806105fd565b8686015188559096019594850194879350016105eb565b858352888320601f850160051c8101918a8610610675575b601f0160051c019085905b82811061066a575050610577565b84815501859061065c565b9091508190610651565b634e487b7160e01b84526041905282fd5b86516339e3563760e11b8152808701849052fd5b5f83815260046020526040902080546001600160a01b031916905580875260038d528a872080545f190190556104fc565b8851633250574960e11b81528089018690528390fd5b634e487b7160e01b875260418a528587fd5b875162461bcd60e51b8152602081890152600e818501526d139bdd08185d5d1a1bdc9a5e995960921b6044820152606490fd5b5081600a5416331461035b565b8580fd5b5050346101dc57816003193601126101dc57600a5490516001600160a01b039091168152602090f35b8382346101dc5760803660031901126101dc57610785610e7b565b61078d610e95565b9060643567ffffffffffffffff81116107ce57366023820112156107ce576107cb938160246107c193369301359101610f4e565b91604435916111a1565b80f35b8480fd5b50903461018a578060031936011261018a576107ec610e7b565b90602435918215158093036107ce576001600160a01b031692831561085a5750338452600560205280842083855260205280842060ff1981541660ff8416179055519081527f17307eab39ab6107e8899845ad3d59bd9653f200f220920489ca2b5937696c3160203392a380f35b836024925191630b61174360e31b8352820152fd5b5050346101dc57816003193601126101dc5780519082600180549161089383610fce565b8086529282811690811561092a57506001146108ce575b5050506108bc82610267940383610f10565b51918291602083526020830190610e56565b94508085527fb10e2d527612073b26eecdfd717e6a320cf44b4afac2b0732d9fcbe2b7fa0cf65b828610610912575050506108bc82602061026795820101946108aa565b805460208787018101919091529095019481016108f5565b6102679750869350602092506108bc94915060ff191682840152151560051b820101946108aa565b5050346101dc57816003193601126101dc5760075490516001600160a01b039091168152602090f35b50903461018a57602091826003193601126102d057803580855260028452828520549091906001600160a01b031615610a7057508352600982528083208151938491818154906109ca82610fce565b928386526001928884821691825f14610a46575050600114610a08575b8588610267896109f9848a0385610f10565b51928284938452830190610e56565b87945081939291528383205b828410610a2e57505050820101816109f96102675f6109e7565b8054848a018601528895508794909301928101610a14565b60ff19168882015294151560051b870190940194508593506109f9925061026791505f90506109e7565b825162461bcd60e51b81529081018490526014602482015273151bdad95b88191bd95cc81b9bdd08195e1a5cdd60621b6044820152606490fd5b8334610b075780600319360112610b0757610ac3610fa2565b600780546001600160a01b0319811690915581906001600160a01b03167f8be0079c531659141344cd1fd0a4f28419497f9722a3daafe3b4186f6b6457e08280a380f35b80fd5b509134610b07576020366003190112610b07576001600160a01b03610b2d610e7b565b16928315610b4a5750806020938392526003845220549051908152f35b91516322718ad960e21b815291820152602490fd5b509134610b07576020366003190112610b075750610b7f602092356112f4565b90516001600160a01b039091168152f35b5050346101dc576107cb90610ba436610eab565b91925192610bb184610ee0565b8584526111a1565b8334610b07576107cb610bcb36610eab565b91611006565b5050346101dc57816003193601126101dc576020906008549051908152f35b50903461018a578060031936011261018a57610c0a610e7b565b91602435610c17816112f4565b33151580610cb9575b80610c90575b610c7a576001600160a01b039485169482918691167f8c5be1e5ebec7d5bd14f71427d1e84f3dd0314c0f7b2291e5b200ac8c7c3b9258880a48452602052822080546001600160a01b031916909117905580f35b835163a9fbf51f60e01b81523381850152602490fd5b506001600160a01b03811686526005602090815284872033885290528386205460ff1615610c26565b506001600160a01b038116331415610c20565b503461018a57602036600319011261018a57918260209335610ced816112f4565b50825283528190205490516001600160a01b039091168152f35b5050346101dc57816003193601126101dc57805190828054610d2881610fce565b8085529160019180831690811561092a5750600114610d53575050506108bc82610267940383610f10565b80809650527f290decd9548b62a8d60345a988386fc84ba6bc95484008f6362f93160ef3e5635b828610610d97575050506108bc82602061026795820101946108aa565b80546020878701810191909152909501948101610d7a565b9250503461018a57602036600319011261018a573563ffffffff60e01b811680910361018a5760209250632483248360e11b8114908115610df2575b5015158152f35b6380ac58cd60e01b811491508115610e24575b8115610e13575b505f610deb565b6301ffc9a760e01b1490505f610e0c565b635b5e139f60e01b81149150610e05565b5f5b838110610e465750505f910152565b8181015183820152602001610e37565b90602091610e6f81518092818552858086019101610e35565b601f01601f1916010190565b600435906001600160a01b0382168203610e9157565b5f80fd5b602435906001600160a01b0382168203610e9157565b6060906003190112610e91576001600160a01b03906004358281168103610e9157916024359081168103610e91579060443590565b6020810190811067ffffffffffffffff821117610efc57604052565b634e487b7160e01b5f52604160045260245ffd5b90601f8019910116810190811067ffffffffffffffff821117610efc57604052565b67ffffffffffffffff8111610efc57601f01601f191660200190565b929192610f5a82610f32565b91610f686040519384610f10565b829481845281830111610e91578281602093845f960137010152565b9080601f83011215610e9157816020610f9f93359101610f4e565b90565b6007546001600160a01b03163303610fb657565b60405163118cdaa760e01b8152336004820152602490fd5b90600182811c92168015610ffc575b6020831014610fe857565b634e487b7160e01b5f52602260045260245ffd5b91607f1691610fdd565b6001600160a01b039182169290918315611189575f928284528260209560028752604096848888205416968791331515806110f3575b509060027fddf252ad1be2c89b69c2b068fc378daa952ba7f163c4a11628f55a4df523b3ef92846110c2575b858352600381528b8320805460010190558683525289812080546001600160a01b0319168517905580a416928383036110a15750505050565b6064945051926364283d7b60e01b8452600484015260248301526044820152fd5b5f87815260046020526040902080546001600160a01b0319169055848352600381528b832080545f19019055611068565b91939450915080611148575b1561110f5785929187915f61103c565b87868861112c576024915190637e27328960e01b82526004820152fd5b604491519063177e802f60e01b82523360048301526024820152fd5b50338714801561116d575b806110ff57508582526004815233858984205416146110ff565b5086825260058152878220338352815260ff8883205416611153565b604051633250574960e11b81525f6004820152602490fd5b9290926111af838583611006565b833b6111bc575b50505050565b604051630a85bd0160e11b8082523360048301526001600160a01b0392831660248301526044820194909452608060648201529493169260209290918590611208906084830190610e56565b039483815f978189895af18691816112b0575b5061127b575050503d5f14611272573d61123481610f32565b906112426040519283610f10565b81528093823d92013e5b8251928361126d57604051633250574960e11b815260048101849052602490fd5b019050fd5b6060925061124c565b919450915063ffffffff60e01b160361129857505f8080806111b6565b60249060405190633250574960e11b82526004820152fd5b9091508481813d83116112ed575b6112c88183610f10565b810103126112e957516001600160e01b0319811681036112e957905f61121b565b8680fd5b503d6112be565b5f818152600260205260409020546001600160a01b0316908115611316575090565b60249060405190637e27328960e01b82526004820152fd5b80511561144357805160029182820180921161142f5760039182900480841b94906001600160fe1b0381160361142f579261138161136b86610f32565b956113796040519788610f10565b808752610f32565b6020860190601f1901368237938291835184019060208201928351945f85525b8381106113de5750505050525106806001146113cc576002146113c2575090565b603d905f19015390565b50603d90815f19820153600119015390565b87600491999293949901918251600190603f9082828260121c16880101518453828282600c1c16880101518385015382828260061c16880101518885015316850101518982015301979291906113a1565b634e487b7160e01b5f52601160045260245ffd5b505060405161145181610ee0565b5f81529056fea264697066735822122024052d44b722837d82b2988507c328edce40615f803504dacd29277a438925d064736f6c63430008140033",
			"opcodes": "PUSH1 0x80 PUSH1 0x40 MSTORE CALLVALUE PUSH3 0x3AA JUMPI PUSH3 0x18D2 DUP1 CODESIZE SUB DUP1 PUSH3 0x1D DUP2 PUSH3 0x3AE JUMP JUMPDEST SWAP3 DUP4 CODECOPY DUP2 ADD PUSH1 0x60 DUP3 DUP3 SUB SLT PUSH3 0x3AA JUMPI DUP2 MLOAD PUSH1 0x1 PUSH1 0x1 PUSH1 0xA0 SHL SUB SWAP2 DUP3 DUP3 AND SWAP2 DUP3 SWAP1 SUB PUSH3 0x3AA JUMPI PUSH1 0x20 DUP5 DUP2 ADD MLOAD SWAP1 SWAP5 PUSH1 0x1 PUSH1 0x1 PUSH1 0x40 SHL SUB SWAP2 DUP3 DUP2 GT PUSH3 0x3AA JUMPI DUP4 PUSH3 0x6B SWAP2 DUP4 ADD PUSH3 0x3D4 JUMP JUMPDEST SWAP3 PUSH1 0x40 DUP3 ADD MLOAD DUP4 DUP2 GT PUSH3 0x3AA JUMPI PUSH3 0x85 SWAP3 ADD PUSH3 0x3D4 JUMP JUMPDEST DUP3 MLOAD SWAP1 DUP3 DUP3 GT PUSH3 0x396 JUMPI PUSH0 SWAP7 DUP8 SLOAD SWAP3 PUSH1 0x1 SWAP6 DUP7 DUP6 DUP2 SHR SWAP6 AND DUP1 ISZERO PUSH3 0x38B JUMPI JUMPDEST DUP4 DUP7 LT EQ PUSH3 0x377 JUMPI DUP2 SWAP1 PUSH1 0x1F SWAP6 DUP7 DUP2 GT PUSH3 0x324 JUMPI JUMPDEST POP DUP4 SWAP1 DUP7 DUP4 GT PUSH1 0x1 EQ PUSH3 0x2C1 JUMPI DUP12 SWAP3 PUSH3 0x2B5 JUMPI JUMPDEST POP POP PUSH0 NOT PUSH1 0x3 DUP4 SWAP1 SHL SHR NOT AND SWAP1 DUP7 SHL OR DUP9 SSTORE JUMPDEST DUP2 MLOAD SWAP4 DUP5 GT PUSH3 0x2A1 JUMPI DUP5 SLOAD DUP6 DUP2 DUP2 SHR SWAP2 AND DUP1 ISZERO PUSH3 0x296 JUMPI JUMPDEST DUP3 DUP3 LT EQ PUSH3 0x282 JUMPI SWAP1 DUP2 DUP5 DUP7 SWAP6 SWAP5 SWAP4 GT PUSH3 0x22B JUMPI JUMPDEST POP DUP1 SWAP3 DUP5 GT PUSH1 0x1 EQ PUSH3 0x1C4 JUMPI POP DUP8 SWAP3 PUSH3 0x1B8 JUMPI JUMPDEST POP POP PUSH0 NOT PUSH1 0x3 DUP4 SWAP1 SHL SHR NOT AND SWAP1 DUP3 SHL OR SWAP1 SSTORE JUMPDEST DUP1 ISZERO PUSH3 0x19F JUMPI PUSH1 0x7 DUP1 SLOAD PUSH1 0x1 PUSH1 0x1 PUSH1 0xA0 SHL SUB NOT DUP1 DUP3 AND DUP5 OR SWAP1 SWAP3 SSTORE PUSH1 0x40 MLOAD SWAP5 SWAP2 SWAP4 AND SWAP1 PUSH32 0x8BE0079C531659141344CD1FD0A4F28419497F9722A3DAAFE3B4186F6B6457E0 SWAP1 DUP1 LOG3 CALLER SWAP1 PUSH1 0xA SLOAD AND OR PUSH1 0xA SSTORE PUSH2 0x148D SWAP1 DUP2 PUSH3 0x445 DUP3 CODECOPY RETURN JUMPDEST PUSH1 0x40 MLOAD PUSH4 0x1E4FBDF7 PUSH1 0xE0 SHL DUP2 MSTORE PUSH1 0x4 DUP2 ADD DUP5 SWAP1 MSTORE PUSH1 0x24 SWAP1 REVERT JUMPDEST ADD MLOAD SWAP1 POP PUSH0 DUP1 PUSH3 0x12D JUMP JUMPDEST SWAP2 SWAP1 DUP6 SWAP5 POP PUSH1 0x1F NOT DUP5 AND DUP6 DUP11 MSTORE DUP4 DUP11 KECCAK256 SWAP4 DUP11 SWAP1 JUMPDEST DUP3 DUP3 LT PUSH3 0x211 JUMPI POP POP DUP5 GT PUSH3 0x1F8 JUMPI JUMPDEST POP POP POP DUP2 SHL ADD SWAP1 SSTORE PUSH3 0x140 JUMP JUMPDEST ADD MLOAD PUSH0 NOT PUSH1 0xF8 DUP5 PUSH1 0x3 SHL AND SHR NOT AND SWAP1 SSTORE PUSH0 DUP1 DUP1 PUSH3 0x1EA JUMP JUMPDEST DUP5 DUP5 ADD MLOAD DUP7 SSTORE DUP9 SWAP8 SWAP1 SWAP6 ADD SWAP5 SWAP4 DUP5 ADD SWAP4 SWAP1 DUP2 ADD SWAP1 PUSH3 0x1D8 JUMP JUMPDEST SWAP1 SWAP2 SWAP3 SWAP4 POP DUP6 DUP10 MSTORE DUP2 DUP10 KECCAK256 DUP5 DUP1 DUP8 ADD PUSH1 0x5 SHR DUP3 ADD SWAP3 DUP5 DUP9 LT PUSH3 0x278 JUMPI JUMPDEST SWAP2 DUP8 SWAP7 DUP10 SWAP3 SWAP7 SWAP6 SWAP5 SWAP4 ADD PUSH1 0x5 SHR ADD SWAP2 JUMPDEST DUP3 DUP2 LT PUSH3 0x269 JUMPI POP POP PUSH3 0x117 JUMP JUMPDEST DUP12 DUP2 SSTORE DUP8 SWAP7 POP DUP9 SWAP2 ADD PUSH3 0x259 JUMP JUMPDEST SWAP3 POP DUP2 SWAP3 PUSH3 0x249 JUMP JUMPDEST PUSH4 0x4E487B71 PUSH1 0xE0 SHL DUP10 MSTORE PUSH1 0x22 PUSH1 0x4 MSTORE PUSH1 0x24 DUP10 REVERT JUMPDEST SWAP1 PUSH1 0x7F AND SWAP1 PUSH3 0x100 JUMP JUMPDEST PUSH4 0x4E487B71 PUSH1 0xE0 SHL DUP9 MSTORE PUSH1 0x41 PUSH1 0x4 MSTORE PUSH1 0x24 DUP9 REVERT JUMPDEST ADD MLOAD SWAP1 POP PUSH0 DUP1 PUSH3 0xD3 JUMP JUMPDEST DUP12 DUP1 MSTORE DUP5 DUP13 KECCAK256 DUP10 SWAP5 POP SWAP2 SWAP1 PUSH1 0x1F NOT DUP5 AND DUP14 JUMPDEST DUP8 DUP3 DUP3 LT PUSH3 0x30D JUMPI POP POP DUP5 GT PUSH3 0x2F4 JUMPI JUMPDEST POP POP POP DUP2 SHL ADD DUP9 SSTORE PUSH3 0xE6 JUMP JUMPDEST ADD MLOAD PUSH0 NOT PUSH1 0xF8 DUP5 PUSH1 0x3 SHL AND SHR NOT AND SWAP1 SSTORE PUSH0 DUP1 DUP1 PUSH3 0x2E6 JUMP JUMPDEST DUP4 DUP6 ADD MLOAD DUP7 SSTORE DUP13 SWAP8 SWAP1 SWAP6 ADD SWAP5 SWAP4 DUP5 ADD SWAP4 ADD PUSH3 0x2D3 JUMP JUMPDEST SWAP1 SWAP2 POP DUP11 DUP1 MSTORE DUP4 DUP12 KECCAK256 DUP7 DUP1 DUP6 ADD PUSH1 0x5 SHR DUP3 ADD SWAP3 DUP7 DUP7 LT PUSH3 0x36D JUMPI JUMPDEST SWAP2 DUP11 SWAP2 DUP7 SWAP6 SWAP5 SWAP4 ADD PUSH1 0x5 SHR ADD SWAP2 JUMPDEST DUP3 DUP2 LT PUSH3 0x35E JUMPI POP POP PUSH3 0xBD JUMP JUMPDEST DUP14 DUP2 SSTORE DUP6 SWAP5 POP DUP11 SWAP2 ADD PUSH3 0x34E JUMP JUMPDEST SWAP3 POP DUP2 SWAP3 PUSH3 0x340 JUMP JUMPDEST PUSH4 0x4E487B71 PUSH1 0xE0 SHL DUP11 MSTORE PUSH1 0x22 PUSH1 0x4 MSTORE PUSH1 0x24 DUP11 REVERT JUMPDEST SWAP5 PUSH1 0x7F AND SWAP5 PUSH3 0xA6 JUMP JUMPDEST PUSH4 0x4E487B71 PUSH1 0xE0 SHL PUSH0 MSTORE PUSH1 0x41 PUSH1 0x4 MSTORE PUSH1 0x24 PUSH0 REVERT JUMPDEST PUSH0 DUP1 REVERT JUMPDEST PUSH1 0x40 MLOAD SWAP2 SWAP1 PUSH1 0x1F ADD PUSH1 0x1F NOT AND DUP3 ADD PUSH1 0x1 PUSH1 0x1 PUSH1 0x40 SHL SUB DUP2 GT DUP4 DUP3 LT OR PUSH3 0x396 JUMPI PUSH1 0x40 MSTORE JUMP JUMPDEST SWAP2 SWAP1 DUP1 PUSH1 0x1F DUP5 ADD SLT ISZERO PUSH3 0x3AA JUMPI DUP3 MLOAD PUSH1 0x1 PUSH1 0x1 PUSH1 0x40 SHL SUB DUP2 GT PUSH3 0x396 JUMPI PUSH1 0x20 SWAP1 PUSH3 0x40A PUSH1 0x1F DUP3 ADD PUSH1 0x1F NOT AND DUP4 ADD PUSH3 0x3AE JUMP JUMPDEST SWAP3 DUP2 DUP5 MSTORE DUP3 DUP3 DUP8 ADD ADD GT PUSH3 0x3AA JUMPI PUSH0 JUMPDEST DUP2 DUP2 LT PUSH3 0x430 JUMPI POP DUP3 PUSH0 SWAP4 SWAP5 SWAP6 POP ADD ADD MSTORE SWAP1 JUMP JUMPDEST DUP6 DUP2 ADD DUP4 ADD MLOAD DUP5 DUP3 ADD DUP5 ADD MSTORE DUP3 ADD PUSH3 0x41B JUMP INVALID PUSH1 0x80 PUSH1 0x40 DUP2 DUP2 MSTORE PUSH1 0x4 DUP1 CALLDATASIZE LT ISZERO PUSH2 0x14 JUMPI PUSH0 DUP1 REVERT JUMPDEST PUSH0 SWAP3 DUP4 CALLDATALOAD PUSH1 0xE0 SHR SWAP1 DUP2 PUSH4 0x1FFC9A7 EQ PUSH2 0xDAF JUMPI POP DUP1 PUSH4 0x6FDDE03 EQ PUSH2 0xD07 JUMPI DUP1 PUSH4 0x81812FC EQ PUSH2 0xCCC JUMPI DUP1 PUSH4 0x95EA7B3 EQ PUSH2 0xBF0 JUMPI DUP1 PUSH4 0x18160DDD EQ PUSH2 0xBD1 JUMPI DUP1 PUSH4 0x23B872DD EQ PUSH2 0xBB9 JUMPI DUP1 PUSH4 0x42842E0E EQ PUSH2 0xB90 JUMPI DUP1 PUSH4 0x6352211E EQ PUSH2 0xB5F JUMPI DUP1 PUSH4 0x70A08231 EQ PUSH2 0xB0A JUMPI DUP1 PUSH4 0x715018A6 EQ PUSH2 0xAAA JUMPI DUP1 PUSH4 0x71F0442E EQ PUSH2 0x97B JUMPI DUP1 PUSH4 0x8DA5CB5B EQ PUSH2 0x952 JUMPI DUP1 PUSH4 0x95D89B41 EQ PUSH2 0x86F JUMPI DUP1 PUSH4 0xA22CB465 EQ PUSH2 0x7D2 JUMPI DUP1 PUSH4 0xB88D4FDE EQ PUSH2 0x76A JUMPI DUP1 PUSH4 0xC45A0155 EQ PUSH2 0x741 JUMPI DUP1 PUSH4 0xC5AEF310 EQ PUSH2 0x2D4 JUMPI DUP1 PUSH4 0xC87B56DD EQ PUSH2 0x1E0 JUMPI DUP1 PUSH4 0xE985E9C5 EQ PUSH2 0x18E JUMPI PUSH4 0xF2FDE38B EQ PUSH2 0xFC JUMPI PUSH0 DUP1 REVERT JUMPDEST CALLVALUE PUSH2 0x18A JUMPI PUSH1 0x20 CALLDATASIZE PUSH1 0x3 NOT ADD SLT PUSH2 0x18A JUMPI PUSH2 0x115 PUSH2 0xE7B JUMP JUMPDEST SWAP1 PUSH2 0x11E PUSH2 0xFA2 JUMP JUMPDEST PUSH1 0x1 PUSH1 0x1 PUSH1 0xA0 SHL SUB SWAP2 DUP3 AND SWAP3 DUP4 ISZERO PUSH2 0x174 JUMPI POP POP PUSH1 0x7 SLOAD DUP3 PUSH12 0xFFFFFFFFFFFFFFFFFFFFFFFF PUSH1 0xA0 SHL DUP3 AND OR PUSH1 0x7 SSTORE AND PUSH32 0x8BE0079C531659141344CD1FD0A4F28419497F9722A3DAAFE3B4186F6B6457E0 DUP4 DUP1 LOG3 DUP1 RETURN JUMPDEST MLOAD PUSH4 0x1E4FBDF7 PUSH1 0xE0 SHL DUP2 MSTORE SWAP1 DUP2 ADD DUP5 SWAP1 MSTORE PUSH1 0x24 SWAP1 REVERT JUMPDEST DUP3 DUP1 REVERT JUMPDEST POP POP CALLVALUE PUSH2 0x1DC JUMPI DUP1 PUSH1 0x3 NOT CALLDATASIZE ADD SLT PUSH2 0x1DC JUMPI PUSH1 0xFF DUP2 PUSH1 0x20 SWAP4 PUSH2 0x1AE PUSH2 0xE7B JUMP JUMPDEST PUSH2 0x1B6 PUSH2 0xE95 JUMP JUMPDEST PUSH1 0x1 PUSH1 0x1 PUSH1 0xA0 SHL SUB SWAP2 DUP3 AND DUP4 MSTORE PUSH1 0x5 DUP8 MSTORE DUP4 DUP4 KECCAK256 SWAP2 AND DUP3 MSTORE DUP6 MSTORE KECCAK256 SLOAD SWAP2 MLOAD SWAP2 AND ISZERO ISZERO DUP2 MSTORE RETURN JUMPDEST POP DUP1 REVERT JUMPDEST POP SWAP1 CALLVALUE PUSH2 0x18A JUMPI PUSH1 0x20 SWAP2 DUP3 PUSH1 0x3 NOT CALLDATASIZE ADD SLT PUSH2 0x2D0 JUMPI CALLDATALOAD PUSH2 0x1FF DUP2 PUSH2 0x12F4 JUMP JUMPDEST POP DUP4 MSTORE PUSH1 0x6 DUP3 MSTORE DUP1 DUP4 KECCAK256 SWAP3 DUP2 MLOAD DUP1 SWAP5 DUP3 SWAP1 DUP1 SLOAD PUSH2 0x21B DUP2 PUSH2 0xFCE JUMP JUMPDEST SWAP2 DUP3 DUP6 MSTORE PUSH1 0x1 SWAP2 DUP9 DUP4 DUP3 AND SWAP2 DUP3 PUSH0 EQ PUSH2 0x2A9 JUMPI POP POP PUSH1 0x1 EQ PUSH2 0x26B JUMPI JUMPDEST POP POP POP PUSH2 0x267 SWAP4 SWAP3 SWAP2 PUSH2 0x24C SWAP2 SUB DUP7 PUSH2 0xF10 JUMP JUMPDEST DUP2 MLOAD PUSH2 0x257 DUP2 PUSH2 0xEE0 JUMP JUMPDEST MSTORE MLOAD SWAP3 DUP3 DUP5 SWAP4 DUP5 MSTORE DUP4 ADD SWAP1 PUSH2 0xE56 JUMP JUMPDEST SUB SWAP1 RETURN JUMPDEST DUP6 MSTORE DUP7 DUP6 KECCAK256 DUP8 SWAP4 POP DUP6 SWAP3 SWAP2 SWAP1 JUMPDEST DUP3 DUP5 LT PUSH2 0x291 JUMPI POP POP POP DUP3 ADD ADD DUP2 PUSH2 0x24C PUSH2 0x267 PUSH2 0x238 JUMP JUMPDEST DUP1 SLOAD DUP5 DUP12 ADD DUP7 ADD MSTORE DUP10 SWAP6 POP DUP9 SWAP5 SWAP1 SWAP4 ADD SWAP3 DUP2 ADD PUSH2 0x278 JUMP JUMPDEST PUSH1 0xFF NOT AND DUP8 DUP3 ADD MSTORE SWAP4 ISZERO ISZERO PUSH1 0x5 SHL DUP7 ADD SWAP1 SWAP4 ADD SWAP4 POP DUP5 SWAP3 POP PUSH2 0x24C SWAP2 POP PUSH2 0x267 SWAP1 POP PUSH2 0x238 JUMP JUMPDEST DUP4 DUP1 REVERT JUMPDEST POP SWAP2 SWAP1 CALLVALUE PUSH2 0x1DC JUMPI PUSH1 0x80 CALLDATASIZE PUSH1 0x3 NOT ADD SLT PUSH2 0x1DC JUMPI PUSH2 0x2F0 PUSH2 0xE7B JUMP JUMPDEST SWAP3 PUSH1 0x24 PUSH8 0xFFFFFFFFFFFFFFFF DUP2 CALLDATALOAD DUP2 DUP2 GT PUSH2 0x73D JUMPI PUSH2 0x312 SWAP1 CALLDATASIZE SWAP1 DUP6 ADD PUSH2 0xF84 JUMP JUMPDEST SWAP5 PUSH1 0x44 CALLDATALOAD DUP3 DUP2 GT PUSH2 0x1DC JUMPI PUSH2 0x32A SWAP1 CALLDATASIZE SWAP1 DUP7 ADD PUSH2 0xF84 JUMP JUMPDEST SWAP3 PUSH1 0x64 CALLDATALOAD DUP4 DUP2 GT PUSH2 0x18A JUMPI PUSH2 0x342 SWAP1 CALLDATASIZE SWAP1 DUP8 ADD PUSH2 0xF84 JUMP JUMPDEST PUSH1 0x7 SLOAD SWAP1 SWAP9 PUSH1 0x1 PUSH1 0x1 PUSH1 0xA0 SHL SUB SWAP2 DUP3 AND CALLER EQ DUP1 ISZERO PUSH2 0x730 JUMPI JUMPDEST ISZERO PUSH2 0x6FD JUMPI PUSH1 0x1 SWAP6 DUP7 PUSH1 0x8 SLOAD ADD SWAP10 DUP11 PUSH1 0x8 SSTORE DUP10 MLOAD SWAP2 DUP3 SWAP2 PUSH1 0x20 SWAP14 DUP15 SWAP3 PUSH9 0x3D913730B6B2911D11 PUSH1 0xB9 SHL DUP5 DUP7 ADD MSTORE DUP1 MLOAD SWAP1 DUP2 DUP6 PUSH1 0x29 DUP9 ADD SWAP3 ADD SWAP2 PUSH2 0x39D SWAP3 PUSH2 0xE35 JUMP JUMPDEST DUP5 ADD PUSH17 0x1116113232B9B1B934B83A34B7B7111D11 PUSH1 0x79 SHL PUSH1 0x29 DUP3 ADD MSTORE DUP2 MLOAD SWAP2 DUP3 DUP6 PUSH1 0x3A DUP5 ADD SWAP3 ADD SWAP2 PUSH2 0x3CE SWAP3 PUSH2 0xE35 JUMP JUMPDEST ADD SWAP1 PUSH11 0x11161134B6B0B3B2911D11 PUSH1 0xA9 SHL PUSH1 0x3A DUP4 ADD MSTORE DUP1 MLOAD DUP1 SWAP4 PUSH1 0x45 DUP5 ADD SWAP3 ADD SWAP2 PUSH2 0x3F8 SWAP3 PUSH2 0xE35 JUMP JUMPDEST ADD PUSH2 0x227D PUSH1 0xF0 SHL PUSH1 0x45 DUP3 ADD MSTORE SUB PUSH1 0x27 DUP2 ADD DUP3 MSTORE PUSH1 0x47 ADD PUSH2 0x418 SWAP1 DUP3 PUSH2 0xF10 JUMP JUMPDEST DUP9 MLOAD SWAP1 PUSH1 0x60 DUP3 ADD DUP3 DUP2 LT DUP9 DUP3 GT OR PUSH2 0x6EB JUMPI PUSH1 0x3D DUP14 PUSH2 0x493 DUP8 SWAP7 SWAP5 SWAP6 PUSH2 0x4CC SWAP10 SWAP9 SWAP7 DUP16 DUP1 PUSH2 0x4DC SWAP8 PUSH32 0x6768696A6B6C6D6E6F707172737475767778797A303132333435363738392B2F SWAP3 MSTORE DUP1 DUP5 MSTORE PUSH32 0x4142434445464748494A4B4C4D4E4F505152535455565758595A616263646566 DUP7 DUP6 ADD MSTORE DUP4 ADD MSTORE PUSH2 0x132E JUMP JUMPDEST DUP14 MLOAD SWAP9 DUP3 PUSH32 0x646174613A6170706C69636174696F6E2F6A736F6E3B6261736536342C000000 DUP12 SWAP5 DUP6 ADD MSTORE DUP3 MLOAD SWAP3 DUP4 SWAP2 DUP7 DUP7 ADD SWAP2 ADD PUSH2 0xE35 JUMP JUMPDEST DUP2 ADD SUB PUSH1 0x1D DUP2 ADD DUP9 MSTORE ADD DUP7 PUSH2 0xF10 JUMP JUMPDEST AND SWAP1 DUP2 ISZERO PUSH2 0x6D5 JUMPI DUP10 DUP6 MSTORE PUSH1 0x2 DUP12 MSTORE DUP9 DUP6 KECCAK256 SLOAD AND DUP1 ISZERO ISZERO SWAP2 DUP11 SWAP2 DUP4 PUSH2 0x6A4 JUMPI JUMPDEST DUP2 DUP8 MSTORE PUSH1 0x3 DUP14 MSTORE DUP11 DUP8 KECCAK256 DUP1 SLOAD DUP11 ADD SWAP1 SSTORE DUP3 DUP8 MSTORE PUSH1 0x2 DUP14 MSTORE DUP11 DUP8 KECCAK256 DUP1 SLOAD PUSH1 0x1 PUSH1 0x1 PUSH1 0xA0 SHL SUB NOT AND DUP4 OR SWAP1 SSTORE PUSH32 0xDDF252AD1BE2C89B69C2B068FC378DAA952BA7F163C4A11628F55A4DF523B3EF DUP8 DUP1 LOG4 PUSH2 0x690 JUMPI DUP8 DUP4 MSTORE PUSH1 0x6 DUP10 MSTORE DUP7 DUP4 KECCAK256 SWAP6 DUP3 MLOAD SWAP5 DUP6 GT PUSH2 0x67F JUMPI POP POP PUSH2 0x56E DUP6 SLOAD PUSH2 0xFCE JUMP JUMPDEST PUSH1 0x1F DUP2 GT PUSH2 0x639 JUMPI JUMPDEST POP DUP8 SWAP2 PUSH1 0x1F DUP5 GT PUSH1 0x1 EQ PUSH2 0x5DB JUMPI SWAP2 DUP4 SWAP5 SWAP2 DUP5 SWAP4 SWAP5 PUSH2 0x5D0 JUMPI JUMPDEST POP POP SHL SWAP2 PUSH0 NOT SWAP1 PUSH1 0x3 SHL SHR NOT AND OR SWAP1 SSTORE JUMPDEST PUSH32 0xF8E1A15ABA9398E019F0B49DF1A4FDE98EE17AE345CB5F6B5E2C27F5033E8CE7 DUP4 DUP3 MLOAD DUP5 DUP2 MSTORE LOG1 MLOAD SWAP1 DUP2 MSTORE RETURN JUMPDEST ADD MLOAD SWAP3 POP PUSH0 DUP1 PUSH2 0x591 JUMP JUMPDEST SWAP2 SWAP1 DUP4 PUSH1 0x1F NOT DUP2 AND DUP8 DUP6 MSTORE DUP11 DUP6 KECCAK256 SWAP5 JUMPDEST DUP12 DUP9 DUP4 DUP4 LT PUSH2 0x622 JUMPI POP POP POP LT PUSH2 0x60A JUMPI JUMPDEST POP POP POP DUP2 SHL ADD SWAP1 SSTORE PUSH2 0x5A2 JUMP JUMPDEST ADD MLOAD PUSH0 NOT PUSH1 0xF8 DUP5 PUSH1 0x3 SHL AND SHR NOT AND SWAP1 SSTORE PUSH0 DUP1 DUP1 PUSH2 0x5FD JUMP JUMPDEST DUP7 DUP7 ADD MLOAD DUP9 SSTORE SWAP1 SWAP7 ADD SWAP6 SWAP5 DUP6 ADD SWAP5 DUP8 SWAP4 POP ADD PUSH2 0x5EB JUMP JUMPDEST DUP6 DUP4 MSTORE DUP9 DUP4 KECCAK256 PUSH1 0x1F DUP6 ADD PUSH1 0x5 SHR DUP2 ADD SWAP2 DUP11 DUP7 LT PUSH2 0x675 JUMPI JUMPDEST PUSH1 0x1F ADD PUSH1 0x5 SHR ADD SWAP1 DUP6 SWAP1 JUMPDEST DUP3 DUP2 LT PUSH2 0x66A JUMPI POP POP PUSH2 0x577 JUMP JUMPDEST DUP5 DUP2 SSTORE ADD DUP6 SWAP1 PUSH2 0x65C JUMP JUMPDEST SWAP1 SWAP2 POP DUP2 SWAP1 PUSH2 0x651 JUMP JUMPDEST PUSH4 0x4E487B71 PUSH1 0xE0 SHL DUP5 MSTORE PUSH1 0x41 SWAP1 MSTORE DUP3 REVERT JUMPDEST DUP7 MLOAD PUSH4 0x39E35637 PUSH1 0xE1 SHL DUP2 MSTORE DUP1 DUP8 ADD DUP5 SWAP1 MSTORE REVERT JUMPDEST PUSH0 DUP4 DUP2 MSTORE PUSH1 0x4 PUSH1 0x20 MSTORE PUSH1 0x40 SWAP1 KECCAK256 DUP1 SLOAD PUSH1 0x1 PUSH1 0x1 PUSH1 0xA0 SHL SUB NOT AND SWAP1 SSTORE DUP1 DUP8 MSTORE PUSH1 0x3 DUP14 MSTORE DUP11 DUP8 KECCAK256 DUP1 SLOAD PUSH0 NOT ADD SWAP1 SSTORE PUSH2 0x4FC JUMP JUMPDEST DUP9 MLOAD PUSH4 0x32505749 PUSH1 0xE1 SHL DUP2 MSTORE DUP1 DUP10 ADD DUP7 SWAP1 MSTORE DUP4 SWAP1 REVERT JUMPDEST PUSH4 0x4E487B71 PUSH1 0xE0 SHL DUP8 MSTORE PUSH1 0x41 DUP11 MSTORE DUP6 DUP8 REVERT JUMPDEST DUP8 MLOAD PUSH3 0x461BCD PUSH1 0xE5 SHL DUP2 MSTORE PUSH1 0x20 DUP2 DUP10 ADD MSTORE PUSH1 0xE DUP2 DUP6 ADD MSTORE PUSH14 0x139BDD08185D5D1A1BDC9A5E9959 PUSH1 0x92 SHL PUSH1 0x44 DUP3 ADD MSTORE PUSH1 0x64 SWAP1 REVERT JUMPDEST POP DUP2 PUSH1 0xA SLOAD AND CALLER EQ PUSH2 0x35B JUMP JUMPDEST DUP6 DUP1 REVERT JUMPDEST POP POP CALLVALUE PUSH2 0x1DC JUMPI DUP2 PUSH1 0x3 NOT CALLDATASIZE ADD SLT PUSH2 0x1DC JUMPI PUSH1 0xA SLOAD SWAP1 MLOAD PUSH1 0x1 PUSH1 0x1 PUSH1 0xA0 SHL SUB SWAP1 SWAP2 AND DUP2 MSTORE PUSH1 0x20 SWAP1 RETURN JUMPDEST DUP4 DUP3 CALLVALUE PUSH2 0x1DC JUMPI PUSH1 0x80 CALLDATASIZE PUSH1 0x3 NOT ADD SLT PUSH2 0x1DC JUMPI PUSH2 0x785 PUSH2 0xE7B JUMP JUMPDEST PUSH2 0x78D PUSH2 0xE95 JUMP JUMPDEST SWAP1 PUSH1 0x64 CALLDATALOAD PUSH8 0xFFFFFFFFFFFFFFFF DUP2 GT PUSH2 0x7CE JUMPI CALLDATASIZE PUSH1 0x23 DUP3 ADD SLT ISZERO PUSH2 0x7CE JUMPI PUSH2 0x7CB SWAP4 DUP2 PUSH1 0x24 PUSH2 0x7C1 SWAP4 CALLDATASIZE SWAP4 ADD CALLDATALOAD SWAP2 ADD PUSH2 0xF4E JUMP JUMPDEST SWAP2 PUSH1 0x44 CALLDATALOAD SWAP2 PUSH2 0x11A1 JUMP JUMPDEST DUP1 RETURN JUMPDEST DUP5 DUP1 REVERT JUMPDEST POP SWAP1 CALLVALUE PUSH2 0x18A JUMPI DUP1 PUSH1 0x3 NOT CALLDATASIZE ADD SLT PUSH2 0x18A JUMPI PUSH2 0x7EC PUSH2 0xE7B JUMP JUMPDEST SWAP1 PUSH1 0x24 CALLDATALOAD SWAP2 DUP3 ISZERO ISZERO DUP1 SWAP4 SUB PUSH2 0x7CE JUMPI PUSH1 0x1 PUSH1 0x1 PUSH1 0xA0 SHL SUB AND SWAP3 DUP4 ISZERO PUSH2 0x85A JUMPI POP CALLER DUP5 MSTORE PUSH1 0x5 PUSH1 0x20 MSTORE DUP1 DUP5 KECCAK256 DUP4 DUP6 MSTORE PUSH1 0x20 MSTORE DUP1 DUP5 KECCAK256 PUSH1 0xFF NOT DUP2 SLOAD AND PUSH1 0xFF DUP5 AND OR SWAP1 SSTORE MLOAD SWAP1 DUP2 MSTORE PUSH32 0x17307EAB39AB6107E8899845AD3D59BD9653F200F220920489CA2B5937696C31 PUSH1 0x20 CALLER SWAP3 LOG3 DUP1 RETURN JUMPDEST DUP4 PUSH1 0x24 SWAP3 MLOAD SWAP2 PUSH4 0xB611743 PUSH1 0xE3 SHL DUP4 MSTORE DUP3 ADD MSTORE REVERT JUMPDEST POP POP CALLVALUE PUSH2 0x1DC JUMPI DUP2 PUSH1 0x3 NOT CALLDATASIZE ADD SLT PUSH2 0x1DC JUMPI DUP1 MLOAD SWAP1 DUP3 PUSH1 0x1 DUP1 SLOAD SWAP2 PUSH2 0x893 DUP4 PUSH2 0xFCE JUMP JUMPDEST DUP1 DUP7 MSTORE SWAP3 DUP3 DUP2 AND SWAP1 DUP2 ISZERO PUSH2 0x92A JUMPI POP PUSH1 0x1 EQ PUSH2 0x8CE JUMPI JUMPDEST POP POP POP PUSH2 0x8BC DUP3 PUSH2 0x267 SWAP5 SUB DUP4 PUSH2 0xF10 JUMP JUMPDEST MLOAD SWAP2 DUP3 SWAP2 PUSH1 0x20 DUP4 MSTORE PUSH1 0x20 DUP4 ADD SWAP1 PUSH2 0xE56 JUMP JUMPDEST SWAP5 POP DUP1 DUP6 MSTORE PUSH32 0xB10E2D527612073B26EECDFD717E6A320CF44B4AFAC2B0732D9FCBE2B7FA0CF6 JUMPDEST DUP3 DUP7 LT PUSH2 0x912 JUMPI POP POP POP PUSH2 0x8BC DUP3 PUSH1 0x20 PUSH2 0x267 SWAP6 DUP3 ADD ADD SWAP5 PUSH2 0x8AA JUMP JUMPDEST DUP1 SLOAD PUSH1 0x20 DUP8 DUP8 ADD DUP2 ADD SWAP2 SWAP1 SWAP2 MSTORE SWAP1 SWAP6 ADD SWAP5 DUP2 ADD PUSH2 0x8F5 JUMP JUMPDEST PUSH2 0x267 SWAP8 POP DUP7 SWAP4 POP PUSH1 0x20 SWAP3 POP PUSH2 0x8BC SWAP5 SWAP2 POP PUSH1 0xFF NOT AND DUP3 DUP5 ADD MSTORE ISZERO ISZERO PUSH1 0x5 SHL DUP3 ADD ADD SWAP5 PUSH2 0x8AA JUMP JUMPDEST POP POP CALLVALUE PUSH2 0x1DC JUMPI DUP2 PUSH1 0x3 NOT CALLDATASIZE ADD SLT PUSH2 0x1DC JUMPI PUSH1 0x7 SLOAD SWAP1 MLOAD PUSH1 0x1 PUSH1 0x1 PUSH1 0xA0 SHL SUB SWAP1 SWAP2 AND DUP2 MSTORE PUSH1 0x20 SWAP1 RETURN JUMPDEST POP SWAP1 CALLVALUE PUSH2 0x18A JUMPI PUSH1 0x20 SWAP2 DUP3 PUSH1 0x3 NOT CALLDATASIZE ADD SLT PUSH2 0x2D0 JUMPI DUP1 CALLDATALOAD DUP1 DUP6 MSTORE PUSH1 0x2 DUP5 MSTORE DUP3 DUP6 KECCAK256 SLOAD SWAP1 SWAP2 SWAP1 PUSH1 0x1 PUSH1 0x1 PUSH1 0xA0 SHL SUB AND ISZERO PUSH2 0xA70 JUMPI POP DUP4 MSTORE PUSH1 0x9 DUP3 MSTORE DUP1 DUP4 KECCAK256 DUP2 MLOAD SWAP4 DUP5 SWAP2 DUP2 DUP2 SLOAD SWAP1 PUSH2 0x9CA DUP3 PUSH2 0xFCE JUMP JUMPDEST SWAP3 DUP4 DUP7 MSTORE PUSH1 0x1 SWAP3 DUP9 DUP5 DUP3 AND SWAP2 DUP3 PUSH0 EQ PUSH2 0xA46 JUMPI POP POP PUSH1 0x1 EQ PUSH2 0xA08 JUMPI JUMPDEST DUP6 DUP9 PUSH2 0x267 DUP10 PUSH2 0x9F9 DUP5 DUP11 SUB DUP6 PUSH2 0xF10 JUMP JUMPDEST MLOAD SWAP3 DUP3 DUP5 SWAP4 DUP5 MSTORE DUP4 ADD SWAP1 PUSH2 0xE56 JUMP JUMPDEST DUP8 SWAP5 POP DUP2 SWAP4 SWAP3 SWAP2 MSTORE DUP4 DUP4 KECCAK256 JUMPDEST DUP3 DUP5 LT PUSH2 0xA2E JUMPI POP POP POP DUP3 ADD ADD DUP2 PUSH2 0x9F9 PUSH2 0x267 PUSH0 PUSH2 0x9E7 JUMP JUMPDEST DUP1 SLOAD DUP5 DUP11 ADD DUP7 ADD MSTORE DUP9 SWAP6 POP DUP8 SWAP5 SWAP1 SWAP4 ADD SWAP3 DUP2 ADD PUSH2 0xA14 JUMP JUMPDEST PUSH1 0xFF NOT AND DUP9 DUP3 ADD MSTORE SWAP5 ISZERO ISZERO PUSH1 0x5 SHL DUP8 ADD SWAP1 SWAP5 ADD SWAP5 POP DUP6 SWAP4 POP PUSH2 0x9F9 SWAP3 POP PUSH2 0x267 SWAP2 POP PUSH0 SWAP1 POP PUSH2 0x9E7 JUMP JUMPDEST DUP3 MLOAD PUSH3 0x461BCD PUSH1 0xE5 SHL DUP2 MSTORE SWAP1 DUP2 ADD DUP5 SWAP1 MSTORE PUSH1 0x14 PUSH1 0x24 DUP3 ADD MSTORE PUSH20 0x151BDAD95B88191BD95CC81B9BDD08195E1A5CDD PUSH1 0x62 SHL PUSH1 0x44 DUP3 ADD MSTORE PUSH1 0x64 SWAP1 REVERT JUMPDEST DUP4 CALLVALUE PUSH2 0xB07 JUMPI DUP1 PUSH1 0x3 NOT CALLDATASIZE ADD SLT PUSH2 0xB07 JUMPI PUSH2 0xAC3 PUSH2 0xFA2 JUMP JUMPDEST PUSH1 0x7 DUP1 SLOAD PUSH1 0x1 PUSH1 0x1 PUSH1 0xA0 SHL SUB NOT DUP2 AND SWAP1 SWAP2 SSTORE DUP2 SWAP1 PUSH1 0x1 PUSH1 0x1 PUSH1 0xA0 SHL SUB AND PUSH32 0x8BE0079C531659141344CD1FD0A4F28419497F9722A3DAAFE3B4186F6B6457E0 DUP3 DUP1 LOG3 DUP1 RETURN JUMPDEST DUP1 REVERT JUMPDEST POP SWAP2 CALLVALUE PUSH2 0xB07 JUMPI PUSH1 0x20 CALLDATASIZE PUSH1 0x3 NOT ADD SLT PUSH2 0xB07 JUMPI PUSH1 0x1 PUSH1 0x1 PUSH1 0xA0 SHL SUB PUSH2 0xB2D PUSH2 0xE7B JUMP JUMPDEST AND SWAP3 DUP4 ISZERO PUSH2 0xB4A JUMPI POP DUP1 PUSH1 0x20 SWAP4 DUP4 SWAP3 MSTORE PUSH1 0x3 DUP5 MSTORE KECCAK256 SLOAD SWAP1 MLOAD SWAP1 DUP2 MSTORE RETURN JUMPDEST SWAP2 MLOAD PUSH4 0x22718AD9 PUSH1 0xE2 SHL DUP2 MSTORE SWAP2 DUP3 ADD MSTORE PUSH1 0x24 SWAP1 REVERT JUMPDEST POP SWAP2 CALLVALUE PUSH2 0xB07 JUMPI PUSH1 0x20 CALLDATASIZE PUSH1 0x3 NOT ADD SLT PUSH2 0xB07 JUMPI POP PUSH2 0xB7F PUSH1 0x20 SWAP3 CALLDATALOAD PUSH2 0x12F4 JUMP JUMPDEST SWAP1 MLOAD PUSH1 0x1 PUSH1 0x1 PUSH1 0xA0 SHL SUB SWAP1 SWAP2 AND DUP2 MSTORE RETURN JUMPDEST POP POP CALLVALUE PUSH2 0x1DC JUMPI PUSH2 0x7CB SWAP1 PUSH2 0xBA4 CALLDATASIZE PUSH2 0xEAB JUMP JUMPDEST SWAP2 SWAP3 MLOAD SWAP3 PUSH2 0xBB1 DUP5 PUSH2 0xEE0 JUMP JUMPDEST DUP6 DUP5 MSTORE PUSH2 0x11A1 JUMP JUMPDEST DUP4 CALLVALUE PUSH2 0xB07 JUMPI PUSH2 0x7CB PUSH2 0xBCB CALLDATASIZE PUSH2 0xEAB JUMP JUMPDEST SWAP2 PUSH2 0x1006 JUMP JUMPDEST POP POP CALLVALUE PUSH2 0x1DC JUMPI DUP2 PUSH1 0x3 NOT CALLDATASIZE ADD SLT PUSH2 0x1DC JUMPI PUSH1 0x20 SWAP1 PUSH1 0x8 SLOAD SWAP1 MLOAD SWAP1 DUP2 MSTORE RETURN JUMPDEST POP SWAP1 CALLVALUE PUSH2 0x18A JUMPI DUP1 PUSH1 0x3 NOT CALLDATASIZE ADD SLT PUSH2 0x18A JUMPI PUSH2 0xC0A PUSH2 0xE7B JUMP JUMPDEST SWAP2 PUSH1 0x24 CALLDATALOAD PUSH2 0xC17 DUP2 PUSH2 0x12F4 JUMP JUMPDEST CALLER ISZERO ISZERO DUP1 PUSH2 0xCB9 JUMPI JUMPDEST DUP1 PUSH2 0xC90 JUMPI JUMPDEST PUSH2 0xC7A JUMPI PUSH1 0x1 PUSH1 0x1 PUSH1 0xA0 SHL SUB SWAP5 DUP6 AND SWAP5 DUP3 SWAP2 DUP7 SWAP2 AND PUSH32 0x8C5BE1E5EBEC7D5BD14F71427D1E84F3DD0314C0F7B2291E5B200AC8C7C3B925 DUP9 DUP1 LOG4 DUP5 MSTORE PUSH1 0x20 MSTORE DUP3 KECCAK256 DUP1 SLOAD PUSH1 0x1 PUSH1 0x1 PUSH1 0xA0 SHL SUB NOT AND SWAP1 SWAP2 OR SWAP1 SSTORE DUP1 RETURN JUMPDEST DUP4 MLOAD PUSH4 0xA9FBF51F PUSH1 0xE0 SHL DUP2 MSTORE CALLER DUP2 DUP6 ADD MSTORE PUSH1 0x24 SWAP1 REVERT JUMPDEST POP PUSH1 0x1 PUSH1 0x1 PUSH1 0xA0 SHL SUB DUP2 AND DUP7 MSTORE PUSH1 0x5 PUSH1 0x20 SWAP1 DUP2 MSTORE DUP5 DUP8 KECCAK256 CALLER DUP9 MSTORE SWAP1 MSTORE DUP4 DUP7 KECCAK256 SLOAD PUSH1 0xFF AND ISZERO PUSH2 0xC26 JUMP JUMPDEST POP PUSH1 0x1 PUSH1 0x1 PUSH1 0xA0 SHL SUB DUP2 AND CALLER EQ ISZERO PUSH2 0xC20 JUMP JUMPDEST POP CALLVALUE PUSH2 0x18A JUMPI PUSH1 0x20 CALLDATASIZE PUSH1 0x3 NOT ADD SLT PUSH2 0x18A JUMPI SWAP2 DUP3 PUSH1 0x20 SWAP4 CALLDATALOAD PUSH2 0xCED DUP2 PUSH2 0x12F4 JUMP JUMPDEST POP DUP3 MSTORE DUP4 MSTORE DUP2 SWAP1 KECCAK256 SLOAD SWAP1 MLOAD PUSH1 0x1 PUSH1 0x1 PUSH1 0xA0 SHL SUB SWAP1 SWAP2 AND DUP2 MSTORE RETURN JUMPDEST POP POP CALLVALUE PUSH2 0x1DC JUMPI DUP2 PUSH1 0x3 NOT CALLDATASIZE ADD SLT PUSH2 0x1DC JUMPI DUP1 MLOAD SWAP1 DUP3 DUP1 SLOAD PUSH2 0xD28 DUP2 PUSH2 0xFCE JUMP JUMPDEST DUP1 DUP6 MSTORE SWAP2 PUSH1 0x1 SWAP2 DUP1 DUP4 AND SWAP1 DUP2 ISZERO PUSH2 0x92A JUMPI POP PUSH1 0x1 EQ PUSH2 0xD53 JUMPI POP POP POP PUSH2 0x8BC DUP3 PUSH2 0x267 SWAP5 SUB DUP4 PUSH2 0xF10 JUMP JUMPDEST DUP1 DUP1 SWAP7 POP MSTORE PUSH32 0x290DECD9548B62A8D60345A988386FC84BA6BC95484008F6362F93160EF3E563 JUMPDEST DUP3 DUP7 LT PUSH2 0xD97 JUMPI POP POP POP PUSH2 0x8BC DUP3 PUSH1 0x20 PUSH2 0x267 SWAP6 DUP3 ADD ADD SWAP5 PUSH2 0x8AA JUMP JUMPDEST DUP1 SLOAD PUSH1 0x20 DUP8 DUP8 ADD DUP2 ADD SWAP2 SWAP1 SWAP2 MSTORE SWAP1 SWAP6 ADD SWAP5 DUP2 ADD PUSH2 0xD7A JUMP JUMPDEST SWAP3 POP POP CALLVALUE PUSH2 0x18A JUMPI PUSH1 0x20 CALLDATASIZE PUSH1 0x3 NOT ADD SLT PUSH2 0x18A JUMPI CALLDATALOAD PUSH4 0xFFFFFFFF PUSH1 0xE0 SHL DUP2 AND DUP1 SWAP2 SUB PUSH2 0x18A JUMPI PUSH1 0x20 SWAP3 POP PUSH4 0x24832483 PUSH1 0xE1 SHL DUP2 EQ SWAP1 DUP2 ISZERO PUSH2 0xDF2 JUMPI JUMPDEST POP ISZERO ISZERO DUP2 MSTORE RETURN JUMPDEST PUSH4 0x80AC58CD PUSH1 0xE0 SHL DUP2 EQ SWAP2 POP DUP2 ISZERO PUSH2 0xE24 JUMPI JUMPDEST DUP2 ISZERO PUSH2 0xE13 JUMPI JUMPDEST POP PUSH0 PUSH2 0xDEB JUMP JUMPDEST PUSH4 0x1FFC9A7 PUSH1 0xE0 SHL EQ SWAP1 POP PUSH0 PUSH2 0xE0C JUMP JUMPDEST PUSH4 0x5B5E139F PUSH1 0xE0 SHL DUP2 EQ SWAP2 POP PUSH2 0xE05 JUMP JUMPDEST PUSH0 JUMPDEST DUP4 DUP2 LT PUSH2 0xE46 JUMPI POP POP PUSH0 SWAP2 ADD MSTORE JUMP JUMPDEST DUP2 DUP2 ADD MLOAD DUP4 DUP3 ADD MSTORE PUSH1 0x20 ADD PUSH2 0xE37 JUMP JUMPDEST SWAP1 PUSH1 0x20 SWAP2 PUSH2 0xE6F DUP2 MLOAD DUP1 SWAP3 DUP2 DUP6 MSTORE DUP6 DUP1 DUP7 ADD SWAP2 ADD PUSH2 0xE35 JUMP JUMPDEST PUSH1 0x1F ADD PUSH1 0x1F NOT AND ADD ADD SWAP1 JUMP JUMPDEST PUSH1 0x4 CALLDATALOAD SWAP1 PUSH1 0x1 PUSH1 0x1 PUSH1 0xA0 SHL SUB DUP3 AND DUP3 SUB PUSH2 0xE91 JUMPI JUMP JUMPDEST PUSH0 DUP1 REVERT JUMPDEST PUSH1 0x24 CALLDATALOAD SWAP1 PUSH1 0x1 PUSH1 0x1 PUSH1 0xA0 SHL SUB DUP3 AND DUP3 SUB PUSH2 0xE91 JUMPI JUMP JUMPDEST PUSH1 0x60 SWAP1 PUSH1 0x3 NOT ADD SLT PUSH2 0xE91 JUMPI PUSH1 0x1 PUSH1 0x1 PUSH1 0xA0 SHL SUB SWAP1 PUSH1 0x4 CALLDATALOAD DUP3 DUP2 AND DUP2 SUB PUSH2 0xE91 JUMPI SWAP2 PUSH1 0x24 CALLDATALOAD SWAP1 DUP2 AND DUP2 SUB PUSH2 0xE91 JUMPI SWAP1 PUSH1 0x44 CALLDATALOAD SWAP1 JUMP JUMPDEST PUSH1 0x20 DUP2 ADD SWAP1 DUP2 LT PUSH8 0xFFFFFFFFFFFFFFFF DUP3 GT OR PUSH2 0xEFC JUMPI PUSH1 0x40 MSTORE JUMP JUMPDEST PUSH4 0x4E487B71 PUSH1 0xE0 SHL PUSH0 MSTORE PUSH1 0x41 PUSH1 0x4 MSTORE PUSH1 0x24 PUSH0 REVERT JUMPDEST SWAP1 PUSH1 0x1F DUP1 NOT SWAP2 ADD AND DUP2 ADD SWAP1 DUP2 LT PUSH8 0xFFFFFFFFFFFFFFFF DUP3 GT OR PUSH2 0xEFC JUMPI PUSH1 0x40 MSTORE JUMP JUMPDEST PUSH8 0xFFFFFFFFFFFFFFFF DUP2 GT PUSH2 0xEFC JUMPI PUSH1 0x1F ADD PUSH1 0x1F NOT AND PUSH1 0x20 ADD SWAP1 JUMP JUMPDEST SWAP3 SWAP2 SWAP3 PUSH2 0xF5A DUP3 PUSH2 0xF32 JUMP JUMPDEST SWAP2 PUSH2 0xF68 PUSH1 0x40 MLOAD SWAP4 DUP5 PUSH2 0xF10 JUMP JUMPDEST DUP3 SWAP5 DUP2 DUP5 MSTORE DUP2 DUP4 ADD GT PUSH2 0xE91 JUMPI DUP3 DUP2 PUSH1 0x20 SWAP4 DUP5 PUSH0 SWAP7 ADD CALLDATACOPY ADD ADD MSTORE JUMP JUMPDEST SWAP1 DUP1 PUSH1 0x1F DUP4 ADD SLT ISZERO PUSH2 0xE91 JUMPI DUP2 PUSH1 0x20 PUSH2 0xF9F SWAP4 CALLDATALOAD SWAP2 ADD PUSH2 0xF4E JUMP JUMPDEST SWAP1 JUMP JUMPDEST PUSH1 0x7 SLOAD PUSH1 0x1 PUSH1 0x1 PUSH1 0xA0 SHL SUB AND CALLER SUB PUSH2 0xFB6 JUMPI JUMP JUMPDEST PUSH1 0x40 MLOAD PUSH4 0x118CDAA7 PUSH1 0xE0 SHL DUP2 MSTORE CALLER PUSH1 0x4 DUP3 ADD MSTORE PUSH1 0x24 SWAP1 REVERT JUMPDEST SWAP1 PUSH1 0x1 DUP3 DUP2 SHR SWAP3 AND DUP1 ISZERO PUSH2 0xFFC JUMPI JUMPDEST PUSH1 0x20 DUP4 LT EQ PUSH2 0xFE8 JUMPI JUMP JUMPDEST PUSH4 0x4E487B71 PUSH1 0xE0 SHL PUSH0 MSTORE PUSH1 0x22 PUSH1 0x4 MSTORE PUSH1 0x24 PUSH0 REVERT JUMPDEST SWAP2 PUSH1 0x7F AND SWAP2 PUSH2 0xFDD JUMP JUMPDEST PUSH1 0x1 PUSH1 0x1 PUSH1 0xA0 SHL SUB SWAP2 DUP3 AND SWAP3 SWAP1 SWAP2 DUP4 ISZERO PUSH2 0x1189 JUMPI PUSH0 SWAP3 DUP3 DUP5 MSTORE DUP3 PUSH1 0x20 SWAP6 PUSH1 0x2 DUP8 MSTORE PUSH1 0x40 SWAP7 DUP5 DUP9 DUP9 KECCAK256 SLOAD AND SWAP7 DUP8 SWAP2 CALLER ISZERO ISZERO DUP1 PUSH2 0x10F3 JUMPI JUMPDEST POP SWAP1 PUSH1 0x2 PUSH32 0xDDF252AD1BE2C89B69C2B068FC378DAA952BA7F163C4A11628F55A4DF523B3EF SWAP3 DUP5 PUSH2 0x10C2 JUMPI JUMPDEST DUP6 DUP4 MSTORE PUSH1 0x3 DUP2 MSTORE DUP12 DUP4 KECCAK256 DUP1 SLOAD PUSH1 0x1 ADD SWAP1 SSTORE DUP7 DUP4 MSTORE MSTORE DUP10 DUP2 KECCAK256 DUP1 SLOAD PUSH1 0x1 PUSH1 0x1 PUSH1 0xA0 SHL SUB NOT AND DUP6 OR SWAP1 SSTORE DUP1 LOG4 AND SWAP3 DUP4 DUP4 SUB PUSH2 0x10A1 JUMPI POP POP POP POP JUMP JUMPDEST PUSH1 0x64 SWAP5 POP MLOAD SWAP3 PUSH4 0x64283D7B PUSH1 0xE0 SHL DUP5 MSTORE PUSH1 0x4 DUP5 ADD MSTORE PUSH1 0x24 DUP4 ADD MSTORE PUSH1 0x44 DUP3 ADD MSTORE REVERT JUMPDEST PUSH0 DUP8 DUP2 MSTORE PUSH1 0x4 PUSH1 0x20 MSTORE PUSH1 0x40 SWAP1 KECCAK256 DUP1 SLOAD PUSH1 0x1 PUSH1 0x1 PUSH1 0xA0 SHL SUB NOT AND SWAP1 SSTORE DUP5 DUP4 MSTORE PUSH1 0x3 DUP2 MSTORE DUP12 DUP4 KECCAK256 DUP1 SLOAD PUSH0 NOT ADD SWAP1 SSTORE PUSH2 0x1068 JUMP JUMPDEST SWAP2 SWAP4 SWAP5 POP SWAP2 POP DUP1 PUSH2 0x1148 JUMPI JUMPDEST ISZERO PUSH2 0x110F JUMPI DUP6 SWAP3 SWAP2 DUP8 SWAP2 PUSH0 PUSH2 0x103C JUMP JUMPDEST DUP8 DUP7 DUP9 PUSH2 0x112C JUMPI PUSH1 0x24 SWAP2 MLOAD SWAP1 PUSH4 0x7E273289 PUSH1 0xE0 SHL DUP3 MSTORE PUSH1 0x4 DUP3 ADD MSTORE REVERT JUMPDEST PUSH1 0x44 SWAP2 MLOAD SWAP1 PUSH4 0x177E802F PUSH1 0xE0 SHL DUP3 MSTORE CALLER PUSH1 0x4 DUP4 ADD MSTORE PUSH1 0x24 DUP3 ADD MSTORE REVERT JUMPDEST POP CALLER DUP8 EQ DUP1 ISZERO PUSH2 0x116D JUMPI JUMPDEST DUP1 PUSH2 0x10FF JUMPI POP DUP6 DUP3 MSTORE PUSH1 0x4 DUP2 MSTORE CALLER DUP6 DUP10 DUP5 KECCAK256 SLOAD AND EQ PUSH2 0x10FF JUMP JUMPDEST POP DUP7 DUP3 MSTORE PUSH1 0x5 DUP2 MSTORE DUP8 DUP3 KECCAK256 CALLER DUP4 MSTORE DUP2 MSTORE PUSH1 0xFF DUP9 DUP4 KECCAK256 SLOAD AND PUSH2 0x1153 JUMP JUMPDEST PUSH1 0x40 MLOAD PUSH4 0x32505749 PUSH1 0xE1 SHL DUP2 MSTORE PUSH0 PUSH1 0x4 DUP3 ADD MSTORE PUSH1 0x24 SWAP1 REVERT JUMPDEST SWAP3 SWAP1 SWAP3 PUSH2 0x11AF DUP4 DUP6 DUP4 PUSH2 0x1006 JUMP JUMPDEST DUP4 EXTCODESIZE PUSH2 0x11BC JUMPI JUMPDEST POP POP POP POP JUMP JUMPDEST PUSH1 0x40 MLOAD PUSH4 0xA85BD01 PUSH1 0xE1 SHL DUP1 DUP3 MSTORE CALLER PUSH1 0x4 DUP4 ADD MSTORE PUSH1 0x1 PUSH1 0x1 PUSH1 0xA0 SHL SUB SWAP3 DUP4 AND PUSH1 0x24 DUP4 ADD MSTORE PUSH1 0x44 DUP3 ADD SWAP5 SWAP1 SWAP5 MSTORE PUSH1 0x80 PUSH1 0x64 DUP3 ADD MSTORE SWAP5 SWAP4 AND SWAP3 PUSH1 0x20 SWAP3 SWAP1 SWAP2 DUP6 SWAP1 PUSH2 0x1208 SWAP1 PUSH1 0x84 DUP4 ADD SWAP1 PUSH2 0xE56 JUMP JUMPDEST SUB SWAP5 DUP4 DUP2 PUSH0 SWAP8 DUP2 DUP10 DUP10 GAS CALL DUP7 SWAP2 DUP2 PUSH2 0x12B0 JUMPI JUMPDEST POP PUSH2 0x127B JUMPI POP POP POP RETURNDATASIZE PUSH0 EQ PUSH2 0x1272 JUMPI RETURNDATASIZE PUSH2 0x1234 DUP2 PUSH2 0xF32 JUMP JUMPDEST SWAP1 PUSH2 0x1242 PUSH1 0x40 MLOAD SWAP3 DUP4 PUSH2 0xF10 JUMP JUMPDEST DUP2 MSTORE DUP1 SWAP4 DUP3 RETURNDATASIZE SWAP3 ADD RETURNDATACOPY JUMPDEST DUP3 MLOAD SWAP3 DUP4 PUSH2 0x126D JUMPI PUSH1 0x40 MLOAD PUSH4 0x32505749 PUSH1 0xE1 SHL DUP2 MSTORE PUSH1 0x4 DUP2 ADD DUP5 SWAP1 MSTORE PUSH1 0x24 SWAP1 REVERT JUMPDEST ADD SWAP1 POP REVERT JUMPDEST PUSH1 0x60 SWAP3 POP PUSH2 0x124C JUMP JUMPDEST SWAP2 SWAP5 POP SWAP2 POP PUSH4 0xFFFFFFFF PUSH1 0xE0 SHL AND SUB PUSH2 0x1298 JUMPI POP PUSH0 DUP1 DUP1 DUP1 PUSH2 0x11B6 JUMP JUMPDEST PUSH1 0x24 SWAP1 PUSH1 0x40 MLOAD SWAP1 PUSH4 0x32505749 PUSH1 0xE1 SHL DUP3 MSTORE PUSH1 0x4 DUP3 ADD MSTORE REVERT JUMPDEST SWAP1 SWAP2 POP DUP5 DUP2 DUP2 RETURNDATASIZE DUP4 GT PUSH2 0x12ED JUMPI JUMPDEST PUSH2 0x12C8 DUP2 DUP4 PUSH2 0xF10 JUMP JUMPDEST DUP2 ADD SUB SLT PUSH2 0x12E9 JUMPI MLOAD PUSH1 0x1 PUSH1 0x1 PUSH1 0xE0 SHL SUB NOT DUP2 AND DUP2 SUB PUSH2 0x12E9 JUMPI SWAP1 PUSH0 PUSH2 0x121B JUMP JUMPDEST DUP7 DUP1 REVERT JUMPDEST POP RETURNDATASIZE PUSH2 0x12BE JUMP JUMPDEST PUSH0 DUP2 DUP2 MSTORE PUSH1 0x2 PUSH1 0x20 MSTORE PUSH1 0x40 SWAP1 KECCAK256 SLOAD PUSH1 0x1 PUSH1 0x1 PUSH1 0xA0 SHL SUB AND SWAP1 DUP2 ISZERO PUSH2 0x1316 JUMPI POP SWAP1 JUMP JUMPDEST PUSH1 0x24 SWAP1 PUSH1 0x40 MLOAD SWAP1 PUSH4 0x7E273289 PUSH1 0xE0 SHL DUP3 MSTORE PUSH1 0x4 DUP3 ADD MSTORE REVERT JUMPDEST DUP1 MLOAD ISZERO PUSH2 0x1443 JUMPI DUP1 MLOAD PUSH1 0x2 SWAP2 DUP3 DUP3 ADD DUP1 SWAP3 GT PUSH2 0x142F JUMPI PUSH1 0x3 SWAP2 DUP3 SWAP1 DIV DUP1 DUP5 SHL SWAP5 SWAP1 PUSH1 0x1 PUSH1 0x1 PUSH1 0xFE SHL SUB DUP2 AND SUB PUSH2 0x142F JUMPI SWAP3 PUSH2 0x1381 PUSH2 0x136B DUP7 PUSH2 0xF32 JUMP JUMPDEST SWAP6 PUSH2 0x1379 PUSH1 0x40 MLOAD SWAP8 DUP9 PUSH2 0xF10 JUMP JUMPDEST DUP1 DUP8 MSTORE PUSH2 0xF32 JUMP JUMPDEST PUSH1 0x20 DUP7 ADD SWAP1 PUSH1 0x1F NOT ADD CALLDATASIZE DUP3 CALLDATACOPY SWAP4 DUP3 SWAP2 DUP4 MLOAD DUP5 ADD SWAP1 PUSH1 0x20 DUP3 ADD SWAP3 DUP4 MLOAD SWAP5 PUSH0 DUP6 MSTORE JUMPDEST DUP4 DUP2 LT PUSH2 0x13DE JUMPI POP POP POP POP MSTORE MLOAD MOD DUP1 PUSH1 0x1 EQ PUSH2 0x13CC JUMPI PUSH1 0x2 EQ PUSH2 0x13C2 JUMPI POP SWAP1 JUMP JUMPDEST PUSH1 0x3D SWAP1 PUSH0 NOT ADD MSTORE8 SWAP1 JUMP JUMPDEST POP PUSH1 0x3D SWAP1 DUP2 PUSH0 NOT DUP3 ADD MSTORE8 PUSH1 0x1 NOT ADD MSTORE8 SWAP1 JUMP JUMPDEST DUP8 PUSH1 0x4 SWAP2 SWAP10 SWAP3 SWAP4 SWAP5 SWAP10 ADD SWAP2 DUP3 MLOAD PUSH1 0x1 SWAP1 PUSH1 0x3F SWAP1 DUP3 DUP3 DUP3 PUSH1 0x12 SHR AND DUP9 ADD ADD MLOAD DUP5 MSTORE8 DUP3 DUP3 DUP3 PUSH1 0xC SHR AND DUP9 ADD ADD MLOAD DUP4 DUP6 ADD MSTORE8 DUP3 DUP3 DUP3 PUSH1 0x6 SHR AND DUP9 ADD ADD MLOAD DUP9 DUP6 ADD MSTORE8 AND DUP6 ADD ADD MLOAD DUP10 DUP3 ADD MSTORE8 ADD SWAP8 SWAP3 SWAP2 SWAP1 PUSH2 0x13A1 JUMP JUMPDEST PUSH4 0x4E487B71 PUSH1 0xE0 SHL PUSH0 MSTORE PUSH1 0x11 PUSH1 0x4 MSTORE PUSH1 0x24 PUSH0 REVERT JUMPDEST POP POP PUSH1 0x40 MLOAD PUSH2 0x1451 DUP2 PUSH2 0xEE0 JUMP JUMPDEST PUSH0 DUP2 MSTORE SWAP1 JUMP INVALID LOG2 PUSH5 0x6970667358 0x22 SLT KECCAK256 0x24 SDIV 0x2D PREVRANDAO 0xB7 0x22 DUP4 PUSH30 0x82B2988507C328EDCE40615F803504DACD29277A438925D064736F6C6343 STOP ADDMOD EQ STOP CALLER "
		},
		"gasEstimates": {
			"creation": {
				"codeDepositCost": "1052200",
				"executionCost": "infinite",
				"totalCost": "infinite"
			},
			"external": {
				"approve(address,uint256)": "31130",
				"balanceOf(address)": "2628",
				"factory()": "2627",
				"getApproved(uint256)": "4647",
				"getTokenImage(uint256)": "infinite",
				"isApprovedForAll(address,address)": "2977",
				"mintWithIPFS(address,string,string,string)": "infinite",
				"name()": "infinite",
				"owner()": "2539",
				"ownerOf(uint256)": "2591",
				"renounceOwnership()": "28278",
				"safeTransferFrom(address,address,uint256)": "infinite",
				"safeTransferFrom(address,address,uint256,bytes)": "infinite",
				"setApprovalForAll(address,bool)": "26734",
				"supportsInterface(bytes4)": "392",
				"symbol()": "infinite",
				"tokenURI(uint256)": "infinite",
				"totalSupply()": "2364",
				"transferFrom(address,address,uint256)": "106418",
				"transferOwnership(address)": "28588"
			}
		},
		"methodIdentifiers": {
			"approve(address,uint256)": "095ea7b3",
			"balanceOf(address)": "70a08231",
			"factory()": "c45a0155",
			"getApproved(uint256)": "081812fc",
			"getTokenImage(uint256)": "71f0442e",
			"isApprovedForAll(address,address)": "e985e9c5",
			"mintWithIPFS(address,string,string,string)": "c5aef310",
			"name()": "06fdde03",
			"owner()": "8da5cb5b",
			"ownerOf(uint256)": "6352211e",
			"renounceOwnership()": "715018a6",
			"safeTransferFrom(address,address,uint256)": "42842e0e",
			"safeTransferFrom(address,address,uint256,bytes)": "b88d4fde",
			"setApprovalForAll(address,bool)": "a22cb465",
			"supportsInterface(bytes4)": "01ffc9a7",
			"symbol()": "95d89b41",
			"tokenURI(uint256)": "c87b56dd",
			"totalSupply()": "18160ddd",
			"transferFrom(address,address,uint256)": "23b872dd",
			"transferOwnership(address)": "f2fde38b"
		}
	},
	"abi": [
		{
			"inputs": [
				{
					"internalType": "address",
					"name": "initialOwner",
					"type": "address"
				},
				{
					"internalType": "string",
					"name": "name_",
					"type": "string"
				},
				{
					"internalType": "string",
					"name": "symbol_",
					"type": "string"
				}
			],
			"stateMutability": "nonpayable",
			"type": "constructor"
		},
		{
			"inputs": [
				{
					"internalType": "address",
					"name": "sender",
					"type": "address"
				},
				{
					"internalType": "uint256",
					"name": "tokenId",
					"type": "uint256"
				},
				{
					"internalType": "address",
					"name": "owner",
					"type": "address"
				}
			],
			"name": "ERC721IncorrectOwner",
			"type": "error"
		},
		{
			"inputs": [
				{
					"internalType": "address",
					"name": "operator",
					"type": "address"
				},
				{
					"internalType": "uint256",
					"name": "tokenId",
					"type": "uint256"
				}
			],
			"name": "ERC721InsufficientApproval",
			"type": "error"
		},
		{
			"inputs": [
				{
					"internalType": "address",
					"name": "approver",
					"type": "address"
				}
			],
			"name": "ERC721InvalidApprover",
			"type": "error"
		},
		{
			"inputs": [
				{
					"internalType": "address",
					"name": "operator",
					"type": "address"
				}
			],
			"name": "ERC721InvalidOperator",
			"type": "error"
		},
		{
			"inputs": [
				{
					"internalType": "address",
					"name": "owner",
					"type": "address"
				}
			],
			"name": "ERC721InvalidOwner",
			"type": "error"
		},
		{
			"inputs": [
				{
					"internalType": "address",
					"name": "receiver",
					"type": "address"
				}
			],
			"name": "ERC721InvalidReceiver",
			"type": "error"
		},
		{
			"inputs": [
				{
					"internalType": "address",
					"name": "sender",
					"type": "address"
				}
			],
			"name": "ERC721InvalidSender",
			"type": "error"
		},
		{
			"inputs": [
				{
					"internalType": "uint256",
					"name": "tokenId",
					"type": "uint256"
				}
			],
			"name": "ERC721NonexistentToken",
			"type": "error"
		},
		{
			"inputs": [
				{
					"internalType": "address",
					"name": "owner",
					"type": "address"
				}
			],
			"name": "OwnableInvalidOwner",
			"type": "error"
		},
		{
			"inputs": [
				{
					"internalType": "address",
					"name": "account",
					"type": "address"
				}
			],
			"name": "OwnableUnauthorizedAccount",
			"type": "error"
		},
		{
			"anonymous": false,
			"inputs": [
				{
					"indexed": true,
					"internalType": "address",
					"name": "owner",
					"type": "address"
				},
				{
					"indexed": true,
					"internalType": "address",
					"name": "approved",
					"type": "address"
				},
				{
					"indexed": true,
					"internalType": "uint256",
					"name": "tokenId",
					"type": "uint256"
				}
			],
			"name": "Approval",
			"type": "event"
		},
		{
			"anonymous": false,
			"inputs": [
				{
					"indexed": true,
					"internalType": "address",
					"name": "owner",
					"type": "address"
				},
				{
					"indexed": true,
					"internalType": "address",
					"name": "operator",
					"type": "address"
				},
				{
					"indexed": false,
					"internalType": "bool",
					"name": "approved",
					"type": "bool"
				}
			],
			"name": "ApprovalForAll",
			"type": "event"
		},
		{
			"anonymous": false,
			"inputs": [
				{
					"indexed": false,
					"internalType": "uint256",
					"name": "_fromTokenId",
					"type": "uint256"
				},
				{
					"indexed": false,
					"internalType": "uint256",
					"name": "_toTokenId",
					"type": "uint256"
				}
			],
			"name": "BatchMetadataUpdate",
			"type": "event"
		},
		{
			"anonymous": false,
			"inputs": [
				{
					"indexed": false,
					"internalType": "uint256",
					"name": "_tokenId",
					"type": "uint256"
				}
			],
			"name": "MetadataUpdate",
			"type": "event"
		},
		{
			"anonymous": false,
			"inputs": [
				{
					"indexed": true,
					"internalType": "address",
					"name": "previousOwner",
					"type": "address"
				},
				{
					"indexed": true,
					"internalType": "address",
					"name": "newOwner",
					"type": "address"
				}
			],
			"name": "OwnershipTransferred",
			"type": "event"
		},
		{
			"anonymous": false,
			"inputs": [
				{
					"indexed": true,
					"internalType": "address",
					"name": "from",
					"type": "address"
				},
				{
					"indexed": true,
					"internalType": "address",
					"name": "to",
					"type": "address"
				},
				{
					"indexed": true,
					"internalType": "uint256",
					"name": "tokenId",
					"type": "uint256"
				}
			],
			"name": "Transfer",
			"type": "event"
		},
		{
			"inputs": [
				{
					"internalType": "address",
					"name": "to",
					"type": "address"
				},
				{
					"internalType": "uint256",
					"name": "tokenId",
					"type": "uint256"
				}
			],
			"name": "approve",
			"outputs": [],
			"stateMutability": "nonpayable",
			"type": "function"
		},
		{
			"inputs": [
				{
					"internalType": "address",
					"name": "owner",
					"type": "address"
				}
			],
			"name": "balanceOf",
			"outputs": [
				{
					"internalType": "uint256",
					"name": "",
					"type": "uint256"
				}
			],
			"stateMutability": "view",
			"type": "function"
		},
		{
			"inputs": [],
			"name": "factory",
			"outputs": [
				{
					"internalType": "address",
					"name": "",
					"type": "address"
				}
			],
			"stateMutability": "view",
			"type": "function"
		},
		{
			"inputs": [
				{
					"internalType": "uint256",
					"name": "tokenId",
					"type": "uint256"
				}
			],
			"name": "getApproved",
			"outputs": [
				{
					"internalType": "address",
					"name": "",
					"type": "address"
				}
			],
			"stateMutability": "view",
			"type": "function"
		},
		{
			"inputs": [
				{
					"internalType": "uint256",
					"name": "tokenId",
					"type": "uint256"
				}
			],
			"name": "getTokenImage",
			"outputs": [
				{
					"internalType": "string",
					"name": "",
					"type": "string"
				}
			],
			"stateMutability": "view",
			"type": "function"
		},
		{
			"inputs": [
				{
					"internalType": "address",
					"name": "owner",
					"type": "address"
				},
				{
					"internalType": "address",
					"name": "operator",
					"type": "address"
				}
			],
			"name": "isApprovedForAll",
			"outputs": [
				{
					"internalType": "bool",
					"name": "",
					"type": "bool"
				}
			],
			"stateMutability": "view",
			"type": "function"
		},
		{
			"inputs": [
				{
					"internalType": "address",
					"name": "recipient",
					"type": "address"
				},
				{
					"internalType": "string",
					"name": "imageURI",
					"type": "string"
				},
				{
					"internalType": "string",
					"name": "name",
					"type": "string"
				},
				{
					"internalType": "string",
					"name": "description",
					"type": "string"
				}
			],
			"name": "mintWithIPFS",
			"outputs": [
				{
					"internalType": "uint256",
					"name": "",
					"type": "uint256"
				}
			],
			"stateMutability": "nonpayable",
			"type": "function"
		},
		{
			"inputs": [],
			"name": "name",
			"outputs": [
				{
					"internalType": "string",
					"name": "",
					"type": "string"
				}
			],
			"stateMutability": "view",
			"type": "function"
		},
		{
			"inputs": [],
			"name": "owner",
			"outputs": [
				{
					"internalType": "address",
					"name": "",
					"type": "address"
				}
			],
			"stateMutability": "view",
			"type": "function"
		},
		{
			"inputs": [
				{
					"internalType": "uint256",
					"name": "tokenId",
					"type": "uint256"
				}
			],
			"name": "ownerOf",
			"outputs": [
				{
					"internalType": "address",
					"name": "",
					"type": "address"
				}
			],
			"stateMutability": "view",
			"type": "function"
		},
		{
			"inputs": [],
			"name": "renounceOwnership",
			"outputs": [],
			"stateMutability": "nonpayable",
			"type": "function"
		},
		{
			"inputs": [
				{
					"internalType": "address",
					"name": "from",
					"type": "address"
				},
				{
					"internalType": "address",
					"name": "to",
					"type": "address"
				},
				{
					"internalType": "uint256",
					"name": "tokenId",
					"type": "uint256"
				}
			],
			"name": "safeTransferFrom",
			"outputs": [],
			"stateMutability": "nonpayable",
			"type": "function"
		},
		{
			"inputs": [
				{
					"internalType": "address",
					"name": "from",
					"type": "address"
				},
				{
					"internalType": "address",
					"name": "to",
					"type": "address"
				},
				{
					"internalType": "uint256",
					"name": "tokenId",
					"type": "uint256"
				},
				{
					"internalType": "bytes",
					"name": "data",
					"type": "bytes"
				}
			],
			"name": "safeTransferFrom",
			"outputs": [],
			"stateMutability": "nonpayable",
			"type": "function"
		},
		{
			"inputs": [
				{
					"internalType": "address",
					"name": "operator",
					"type": "address"
				},
				{
					"internalType": "bool",
					"name": "approved",
					"type": "bool"
				}
			],
			"name": "setApprovalForAll",
			"outputs": [],
			"stateMutability": "nonpayable",
			"type": "function"
		},
		{
			"inputs": [
				{
					"internalType": "bytes4",
					"name": "interfaceId",
					"type": "bytes4"
				}
			],
			"name": "supportsInterface",
			"outputs": [
				{
					"internalType": "bool",
					"name": "",
					"type": "bool"
				}
			],
			"stateMutability": "view",
			"type": "function"
		},
		{
			"inputs": [],
			"name": "symbol",
			"outputs": [
				{
					"internalType": "string",
					"name": "",
					"type": "string"
				}
			],
			"stateMutability": "view",
			"type": "function"
		},
		{
			"inputs": [
				{
					"internalType": "uint256",
					"name": "tokenId",
					"type": "uint256"
				}
			],
			"name": "tokenURI",
			"outputs": [
				{
					"internalType": "string",
					"name": "",
					"type": "string"
				}
			],
			"stateMutability": "view",
			"type": "function"
		},
		{
			"inputs": [],
			"name": "totalSupply",
			"outputs": [
				{
					"internalType": "uint256",
					"name": "",
					"type": "uint256"
				}
			],
			"stateMutability": "view",
			"type": "function"
		},
		{
			"inputs": [
				{
					"internalType": "address",
					"name": "from",
					"type": "address"
				},
				{
					"internalType": "address",
					"name": "to",
					"type": "address"
				},
				{
					"internalType": "uint256",
					"name": "tokenId",
					"type": "uint256"
				}
			],
			"name": "transferFrom",
			"outputs": [],
			"stateMutability": "nonpayable",
			"type": "function"
		},
		{
			"inputs": [
				{
					"internalType": "address",
					"name": "newOwner",
					"type": "address"
				}
			],
			"name": "transferOwnership",
			"outputs": [],
			"stateMutability": "nonpayable",
			"type": "function"
		}
	]
}