{
	"data": {
		"bytecode": {
			"linkReferences": {},
			"object": "608060405234620003b65762001988803803806200001d81620003ba565b928339810190606081830312620003b65780516001600160a01b03928382169291839003620003b65760208281015190926001600160401b0391828111620003b657836200006d918301620003e0565b926040820151838111620003b657620000879201620003e0565b825190828211620003a2575f948554926001958685811c9516801562000397575b8386101462000383578190601f9586811162000330575b508390868311600114620002cd578992620002c1575b50505f19600383901b1c191690861b1786555b8151938411620002ad5784548581811c91168015620002a2575b828210146200028e57908184869594931162000237575b5080928411600114620001d057508592620001c4575b50505f19600383901b1c191690821b1790555b8115620001ac57600780546001600160a01b0319811684179091556040519316907f8be0079c531659141344cd1fd0a4f28419497f9722a3daafe3b4186f6b6457e09080a3600a80546001600160a81b0319163317600160a01b1790556115379081620004518239f35b60249060405190631e4fbdf760e01b82526004820152fd5b015190505f806200012f565b9190859450601f1984168588528388209388905b8282106200021d575050841162000204575b505050811b01905562000142565b01515f1960f88460031b161c191690555f8080620001f6565b8484015186558897909501949384019390810190620001e4565b90919293508587528187208480870160051c82019284881062000284575b9187968992969594930160051c01915b8281106200027557505062000119565b89815587965088910162000265565b9250819262000255565b634e487b7160e01b87526022600452602487fd5b90607f169062000102565b634e487b7160e01b86526041600452602486fd5b015190505f80620000d5565b898052848a208994509190601f1984168b5b8782821062000319575050841162000300575b505050811b018655620000e8565b01515f1960f88460031b161c191690555f8080620002f2565b8385015186558c97909501949384019301620002df565b9091508880528389208680850160051c82019286861062000379575b918a91869594930160051c01915b8281106200036a575050620000bf565b8b81558594508a91016200035a565b925081926200034c565b634e487b7160e01b88526022600452602488fd5b94607f1694620000a8565b634e487b7160e01b5f52604160045260245ffd5b5f80fd5b6040519190601f01601f191682016001600160401b03811183821017620003a257604052565b919080601f84011215620003b65782516001600160401b038111620003a25760209062000416601f8201601f19168301620003ba565b92818452828287010111620003b6575f5b8181106200043c5750825f9394955001015290565b85810183015184820184015282016200042756fe60806040818152600480361015610014575f80fd5b5f92833560e01c90816301ffc9a714610e595750806306fdde0314610db1578063081812fc14610d76578063095ea7b314610c9a57806318160ddd14610c7b57806323b872dd14610c6357806342842e0e14610c3a5780636352211e14610c0957806370a0823114610bb4578063715018a614610b4257806371f0442e14610a135780637e5cd5c1146109e75780638da5cb5b146109be57806395d89b41146108db5780639fd6db12146108b4578063a22cb46514610817578063b88d4fde146107af578063c45a015514610786578063c5aef310146102ea578063c87b56dd146101f6578063e985e9c5146101a45763f2fde38b14610112575f80fd5b346101a05760203660031901126101a05761012b610f25565b9061013461104c565b6001600160a01b0391821692831561018a575050600754826bffffffffffffffffffffffff60a01b821617600755167f8be0079c531659141344cd1fd0a4f28419497f9722a3daafe3b4186f6b6457e08380a380f35b51631e4fbdf760e01b8152908101849052602490fd5b8280fd5b5050346101f257806003193601126101f25760ff816020936101c4610f25565b6101cc610f3f565b6001600160a01b0391821683526005875283832091168252855220549151911615158152f35b5080fd5b5090346101a057602091826003193601126102e657356102158161139e565b5083526006825280832092815180948290805461023181611078565b918285526001918883821691825f146102bf575050600114610281575b50505061027d939291610262910386610fba565b815161026d81610f8a565b5251928284938452830190610f00565b0390f35b8552868520879350859291905b8284106102a7575050508201018161026261027d61024e565b8054848b01860152899550889490930192810161028e565b60ff19168782015293151560051b86019093019350849250610262915061027d905061024e565b8380fd5b509190346101f25760803660031901126101f257610306610f25565b92602467ffffffffffffffff813581811161078257610328903690850161102e565b946044358281116101f257610340903690860161102e565b926064358381116101a057610358903690870161102e565b60075490986001600160a01b0391821633148015610775575b80610766575b15610719576001958660085401998a600855895191829160209d8e92683d913730b6b2911d1160b91b848601528051908185602988019201916103b992610edf565b8401701116113232b9b1b934b83a34b7b7111d1160791b60298201528151918285603a84019201916103ea92610edf565b01906a11161134b6b0b3b2911d1160a91b603a830152805180936045840192019161041492610edf565b0161227d60f01b6045820152036027810182526047016104349082610fba565b885190606082018281108882111761070757603d8d6104af879694956104e89998968f806104f8977f6768696a6b6c6d6e6f707172737475767778797a303132333435363738392b2f92528084527f4142434445464748494a4b4c4d4e4f505152535455565758595a616263646566868501528301526113d8565b8d5198827f646174613a6170706c69636174696f6e2f6a736f6e3b6261736536342c0000008b9485015282519283918686019101610edf565b810103601d810188520186610fba565b169081156106f15789855260028b528885205416801515918a91836106c0575b81875260038d528a872080548a01905582875260028d528a872080546001600160a01b031916831790557fddf252ad1be2c89b69c2b068fc378daa952ba7f163c4a11628f55a4df523b3ef8780a46106ac578783526006895286832095825194851161069b57505061058a8554611078565b601f8111610655575b508791601f84116001146105f757918394918493946105ec575b50501b915f199060031b1c19161790555b7ff8e1a15aba9398e019f0b49df1a4fde98ee17ae345cb5f6b5e2c27f5033e8ce7838251848152a151908152f35b015192505f806105ad565b919083601f1981168785528a8520945b8b8883831061063e5750505010610626575b505050811b0190556105be565b01515f1960f88460031b161c191690555f8080610619565b868601518855909601959485019487935001610607565b858352888320601f850160051c8101918a8610610691575b601f0160051c019085905b828110610686575050610593565b848155018590610678565b909150819061066d565b634e487b7160e01b84526041905282fd5b86516339e3563760e11b8152808701849052fd5b5f83815260046020526040902080546001600160a01b031916905580875260038d528a872080545f19019055610518565b8851633250574960e11b81528089018690528390fd5b634e487b7160e01b875260418a528587fd5b875162461bcd60e51b81526020818901526022818501527f4e6f7420617574686f72697a6564206f72206d696e74696e672064697361626c604482015261195960f21b6064820152608490fd5b5060ff600a5460a01c16610377565b5081600a54163314610371565b8580fd5b5050346101f257816003193601126101f257600a5490516001600160a01b039091168152602090f35b8382346101f25760803660031901126101f2576107ca610f25565b6107d2610f3f565b9060643567ffffffffffffffff81116108135736602382011215610813576108109381602461080693369301359101610ff8565b916044359161124b565b80f35b8480fd5b5090346101a057806003193601126101a057610831610f25565b9060243591821515809303610813576001600160a01b031692831561089f5750338452600560205280842083855260205280842060ff1981541660ff8416179055519081527f17307eab39ab6107e8899845ad3d59bd9653f200f220920489ca2b5937696c3160203392a380f35b836024925191630b61174360e31b8352820152fd5b5050346101f257816003193601126101f25760209060ff600a5460a01c1690519015158152f35b5050346101f257816003193601126101f2578051908260018054916108ff83611078565b80865292828116908115610996575060011461093a575b5050506109288261027d940383610fba565b51918291602083526020830190610f00565b94508085527fb10e2d527612073b26eecdfd717e6a320cf44b4afac2b0732d9fcbe2b7fa0cf65b82861061097e5750505061092882602061027d9582010194610916565b80546020878701810191909152909501948101610961565b61027d97508693506020925061092894915060ff191682840152151560051b82010194610916565b5050346101f257816003193601126101f25760075490516001600160a01b039091168152602090f35b8334610a105780600319360112610a1057610a0061104c565b600a805460ff60a01b1916905580f35b80fd5b5090346101a057602091826003193601126102e657803580855260028452828520549091906001600160a01b031615610b085750835260098252808320815193849181815490610a6282611078565b928386526001928884821691825f14610ade575050600114610aa0575b858861027d89610a91848a0385610fba565b51928284938452830190610f00565b87945081939291528383205b828410610ac65750505082010181610a9161027d5f610a7f565b8054848a018601528895508794909301928101610aac565b60ff19168882015294151560051b87019094019450859350610a91925061027d91505f9050610a7f565b825162461bcd60e51b81529081018490526014602482015273151bdad95b88191bd95cc81b9bdd08195e1a5cdd60621b6044820152606490fd5b8334610a105780600319360112610a1057610b5b61104c565b600a805460ff60a01b19169055610b7061104c565b600780546001600160a01b0319811690915581906001600160a01b03167f8be0079c531659141344cd1fd0a4f28419497f9722a3daafe3b4186f6b6457e08280a380f35b509134610a10576020366003190112610a10576001600160a01b03610bd7610f25565b16928315610bf45750806020938392526003845220549051908152f35b91516322718ad960e21b815291820152602490fd5b509134610a10576020366003190112610a105750610c296020923561139e565b90516001600160a01b039091168152f35b5050346101f25761081090610c4e36610f55565b91925192610c5b84610f8a565b85845261124b565b8334610a1057610810610c7536610f55565b916110b0565b5050346101f257816003193601126101f2576020906008549051908152f35b5090346101a057806003193601126101a057610cb4610f25565b91602435610cc18161139e565b33151580610d63575b80610d3a575b610d24576001600160a01b039485169482918691167f8c5be1e5ebec7d5bd14f71427d1e84f3dd0314c0f7b2291e5b200ac8c7c3b9258880a48452602052822080546001600160a01b031916909117905580f35b835163a9fbf51f60e01b81523381850152602490fd5b506001600160a01b03811686526005602090815284872033885290528386205460ff1615610cd0565b506001600160a01b038116331415610cca565b50346101a05760203660031901126101a057918260209335610d978161139e565b50825283528190205490516001600160a01b039091168152f35b5050346101f257816003193601126101f257805190828054610dd281611078565b808552916001918083169081156109965750600114610dfd575050506109288261027d940383610fba565b80809650527f290decd9548b62a8d60345a988386fc84ba6bc95484008f6362f93160ef3e5635b828610610e415750505061092882602061027d9582010194610916565b80546020878701810191909152909501948101610e24565b925050346101a05760203660031901126101a0573563ffffffff60e01b81168091036101a05760209250632483248360e11b8114908115610e9c575b5015158152f35b6380ac58cd60e01b811491508115610ece575b8115610ebd575b505f610e95565b6301ffc9a760e01b1490505f610eb6565b635b5e139f60e01b81149150610eaf565b5f5b838110610ef05750505f910152565b8181015183820152602001610ee1565b90602091610f1981518092818552858086019101610edf565b601f01601f1916010190565b600435906001600160a01b0382168203610f3b57565b5f80fd5b602435906001600160a01b0382168203610f3b57565b6060906003190112610f3b576001600160a01b03906004358281168103610f3b57916024359081168103610f3b579060443590565b6020810190811067ffffffffffffffff821117610fa657604052565b634e487b7160e01b5f52604160045260245ffd5b90601f8019910116810190811067ffffffffffffffff821117610fa657604052565b67ffffffffffffffff8111610fa657601f01601f191660200190565b92919261100482610fdc565b916110126040519384610fba565b829481845281830111610f3b578281602093845f960137010152565b9080601f83011215610f3b5781602061104993359101610ff8565b90565b6007546001600160a01b0316330361106057565b60405163118cdaa760e01b8152336004820152602490fd5b90600182811c921680156110a6575b602083101461109257565b634e487b7160e01b5f52602260045260245ffd5b91607f1691611087565b6001600160a01b039182169290918315611233575f9282845282602095600287526040968488882054169687913315158061119d575b509060027fddf252ad1be2c89b69c2b068fc378daa952ba7f163c4a11628f55a4df523b3ef928461116c575b858352600381528b8320805460010190558683525289812080546001600160a01b0319168517905580a4169283830361114b5750505050565b6064945051926364283d7b60e01b8452600484015260248301526044820152fd5b5f87815260046020526040902080546001600160a01b0319169055848352600381528b832080545f19019055611112565b919394509150806111f2575b156111b95785929187915f6110e6565b8786886111d6576024915190637e27328960e01b82526004820152fd5b604491519063177e802f60e01b82523360048301526024820152fd5b503387148015611217575b806111a957508582526004815233858984205416146111a9565b5086825260058152878220338352815260ff88832054166111fd565b604051633250574960e11b81525f6004820152602490fd5b9290926112598385836110b0565b833b611266575b50505050565b604051630a85bd0160e11b8082523360048301526001600160a01b03928316602483015260448201949094526080606482015294931692602092909185906112b2906084830190610f00565b039483815f978189895af186918161135a575b50611325575050503d5f1461131c573d6112de81610fdc565b906112ec6040519283610fba565b81528093823d92013e5b8251928361131757604051633250574960e11b815260048101849052602490fd5b019050fd5b606092506112f6565b919450915063ffffffff60e01b160361134257505f808080611260565b60249060405190633250574960e11b82526004820152fd5b9091508481813d8311611397575b6113728183610fba565b8101031261139357516001600160e01b03198116810361139357905f6112c5565b8680fd5b503d611368565b5f818152600260205260409020546001600160a01b03169081156113c0575090565b60249060405190637e27328960e01b82526004820152fd5b8051156114ed5780516002918282018092116114d95760039182900480841b94906001600160fe1b038116036114d9579261142b61141586610fdc565b956114236040519788610fba565b808752610fdc565b6020860190601f1901368237938291835184019060208201928351945f85525b8381106114885750505050525106806001146114765760021461146c575090565b603d905f19015390565b50603d90815f19820153600119015390565b87600491999293949901918251600190603f9082828260121c16880101518453828282600c1c16880101518385015382828260061c168801015188850153168501015189820153019792919061144b565b634e487b7160e01b5f52601160045260245ffd5b50506040516114fb81610f8a565b5f81529056fea26469706673582212205309cbc2057ae06945209c194be65bbd9c4bcc83bff02ab1725d5a79c3d1e05f64736f6c63430008140033",
			"opcodes": "PUSH1 0x80 PUSH1 0x40 MSTORE CALLVALUE PUSH3 0x3B6 JUMPI PUSH3 0x1988 DUP1 CODESIZE SUB DUP1 PUSH3 0x1D DUP2 PUSH3 0x3BA JUMP JUMPDEST SWAP3 DUP4 CODECOPY DUP2 ADD SWAP1 PUSH1 0x60 DUP2 DUP4 SUB SLT PUSH3 0x3B6 JUMPI DUP1 MLOAD PUSH1 0x1 PUSH1 0x1 PUSH1 0xA0 SHL SUB SWAP3 DUP4 DUP3 AND SWAP3 SWAP2 DUP4 SWAP1 SUB PUSH3 0x3B6 JUMPI PUSH1 0x20 DUP3 DUP2 ADD MLOAD SWAP1 SWAP3 PUSH1 0x1 PUSH1 0x1 PUSH1 0x40 SHL SUB SWAP2 DUP3 DUP2 GT PUSH3 0x3B6 JUMPI DUP4 PUSH3 0x6D SWAP2 DUP4 ADD PUSH3 0x3E0 JUMP JUMPDEST SWAP3 PUSH1 0x40 DUP3 ADD MLOAD DUP4 DUP2 GT PUSH3 0x3B6 JUMPI PUSH3 0x87 SWAP3 ADD PUSH3 0x3E0 JUMP JUMPDEST DUP3 MLOAD SWAP1 DUP3 DUP3 GT PUSH3 0x3A2 JUMPI PUSH0 SWAP5 DUP6 SLOAD SWAP3 PUSH1 0x1 SWAP6 DUP7 DUP6 DUP2 SHR SWAP6 AND DUP1 ISZERO PUSH3 0x397 JUMPI JUMPDEST DUP4 DUP7 LT EQ PUSH3 0x383 JUMPI DUP2 SWAP1 PUSH1 0x1F SWAP6 DUP7 DUP2 GT PUSH3 0x330 JUMPI JUMPDEST POP DUP4 SWAP1 DUP7 DUP4 GT PUSH1 0x1 EQ PUSH3 0x2CD JUMPI DUP10 SWAP3 PUSH3 0x2C1 JUMPI JUMPDEST POP POP PUSH0 NOT PUSH1 0x3 DUP4 SWAP1 SHL SHR NOT AND SWAP1 DUP7 SHL OR DUP7 SSTORE JUMPDEST DUP2 MLOAD SWAP4 DUP5 GT PUSH3 0x2AD JUMPI DUP5 SLOAD DUP6 DUP2 DUP2 SHR SWAP2 AND DUP1 ISZERO PUSH3 0x2A2 JUMPI JUMPDEST DUP3 DUP3 LT EQ PUSH3 0x28E JUMPI SWAP1 DUP2 DUP5 DUP7 SWAP6 SWAP5 SWAP4 GT PUSH3 0x237 JUMPI JUMPDEST POP DUP1 SWAP3 DUP5 GT PUSH1 0x1 EQ PUSH3 0x1D0 JUMPI POP DUP6 SWAP3 PUSH3 0x1C4 JUMPI JUMPDEST POP POP PUSH0 NOT PUSH1 0x3 DUP4 SWAP1 SHL SHR NOT AND SWAP1 DUP3 SHL OR SWAP1 SSTORE JUMPDEST DUP2 ISZERO PUSH3 0x1AC JUMPI PUSH1 0x7 DUP1 SLOAD PUSH1 0x1 PUSH1 0x1 PUSH1 0xA0 SHL SUB NOT DUP2 AND DUP5 OR SWAP1 SWAP2 SSTORE PUSH1 0x40 MLOAD SWAP4 AND SWAP1 PUSH32 0x8BE0079C531659141344CD1FD0A4F28419497F9722A3DAAFE3B4186F6B6457E0 SWAP1 DUP1 LOG3 PUSH1 0xA DUP1 SLOAD PUSH1 0x1 PUSH1 0x1 PUSH1 0xA8 SHL SUB NOT AND CALLER OR PUSH1 0x1 PUSH1 0xA0 SHL OR SWAP1 SSTORE PUSH2 0x1537 SWAP1 DUP2 PUSH3 0x451 DUP3 CODECOPY RETURN JUMPDEST PUSH1 0x24 SWAP1 PUSH1 0x40 MLOAD SWAP1 PUSH4 0x1E4FBDF7 PUSH1 0xE0 SHL DUP3 MSTORE PUSH1 0x4 DUP3 ADD MSTORE REVERT JUMPDEST ADD MLOAD SWAP1 POP PUSH0 DUP1 PUSH3 0x12F JUMP JUMPDEST SWAP2 SWAP1 DUP6 SWAP5 POP PUSH1 0x1F NOT DUP5 AND DUP6 DUP9 MSTORE DUP4 DUP9 KECCAK256 SWAP4 DUP9 SWAP1 JUMPDEST DUP3 DUP3 LT PUSH3 0x21D JUMPI POP POP DUP5 GT PUSH3 0x204 JUMPI JUMPDEST POP POP POP DUP2 SHL ADD SWAP1 SSTORE PUSH3 0x142 JUMP JUMPDEST ADD MLOAD PUSH0 NOT PUSH1 0xF8 DUP5 PUSH1 0x3 SHL AND SHR NOT AND SWAP1 SSTORE PUSH0 DUP1 DUP1 PUSH3 0x1F6 JUMP JUMPDEST DUP5 DUP5 ADD MLOAD DUP7 SSTORE DUP9 SWAP8 SWAP1 SWAP6 ADD SWAP5 SWAP4 DUP5 ADD SWAP4 SWAP1 DUP2 ADD SWAP1 PUSH3 0x1E4 JUMP JUMPDEST SWAP1 SWAP2 SWAP3 SWAP4 POP DUP6 DUP8 MSTORE DUP2 DUP8 KECCAK256 DUP5 DUP1 DUP8 ADD PUSH1 0x5 SHR DUP3 ADD SWAP3 DUP5 DUP9 LT PUSH3 0x284 JUMPI JUMPDEST SWAP2 DUP8 SWAP7 DUP10 SWAP3 SWAP7 SWAP6 SWAP5 SWAP4 ADD PUSH1 0x5 SHR ADD SWAP2 JUMPDEST DUP3 DUP2 LT PUSH3 0x275 JUMPI POP POP PUSH3 0x119 JUMP JUMPDEST DUP10 DUP2 SSTORE DUP8 SWAP7 POP DUP9 SWAP2 ADD PUSH3 0x265 JUMP JUMPDEST SWAP3 POP DUP2 SWAP3 PUSH3 0x255 JUMP JUMPDEST PUSH4 0x4E487B71 PUSH1 0xE0 SHL DUP8 MSTORE PUSH1 0x22 PUSH1 0x4 MSTORE PUSH1 0x24 DUP8 REVERT JUMPDEST SWAP1 PUSH1 0x7F AND SWAP1 PUSH3 0x102 JUMP JUMPDEST PUSH4 0x4E487B71 PUSH1 0xE0 SHL DUP7 MSTORE PUSH1 0x41 PUSH1 0x4 MSTORE PUSH1 0x24 DUP7 REVERT JUMPDEST ADD MLOAD SWAP1 POP PUSH0 DUP1 PUSH3 0xD5 JUMP JUMPDEST DUP10 DUP1 MSTORE DUP5 DUP11 KECCAK256 DUP10 SWAP5 POP SWAP2 SWAP1 PUSH1 0x1F NOT DUP5 AND DUP12 JUMPDEST DUP8 DUP3 DUP3 LT PUSH3 0x319 JUMPI POP POP DUP5 GT PUSH3 0x300 JUMPI JUMPDEST POP POP POP DUP2 SHL ADD DUP7 SSTORE PUSH3 0xE8 JUMP JUMPDEST ADD MLOAD PUSH0 NOT PUSH1 0xF8 DUP5 PUSH1 0x3 SHL AND SHR NOT AND SWAP1 SSTORE PUSH0 DUP1 DUP1 PUSH3 0x2F2 JUMP JUMPDEST DUP4 DUP6 ADD MLOAD DUP7 SSTORE DUP13 SWAP8 SWAP1 SWAP6 ADD SWAP5 SWAP4 DUP5 ADD SWAP4 ADD PUSH3 0x2DF JUMP JUMPDEST SWAP1 SWAP2 POP DUP9 DUP1 MSTORE DUP4 DUP10 KECCAK256 DUP7 DUP1 DUP6 ADD PUSH1 0x5 SHR DUP3 ADD SWAP3 DUP7 DUP7 LT PUSH3 0x379 JUMPI JUMPDEST SWAP2 DUP11 SWAP2 DUP7 SWAP6 SWAP5 SWAP4 ADD PUSH1 0x5 SHR ADD SWAP2 JUMPDEST DUP3 DUP2 LT PUSH3 0x36A JUMPI POP POP PUSH3 0xBF JUMP JUMPDEST DUP12 DUP2 SSTORE DUP6 SWAP5 POP DUP11 SWAP2 ADD PUSH3 0x35A JUMP JUMPDEST SWAP3 POP DUP2 SWAP3 PUSH3 0x34C JUMP JUMPDEST PUSH4 0x4E487B71 PUSH1 0xE0 SHL DUP9 MSTORE PUSH1 0x22 PUSH1 0x4 MSTORE PUSH1 0x24 DUP9 REVERT JUMPDEST SWAP5 PUSH1 0x7F AND SWAP5 PUSH3 0xA8 JUMP JUMPDEST PUSH4 0x4E487B71 PUSH1 0xE0 SHL PUSH0 MSTORE PUSH1 0x41 PUSH1 0x4 MSTORE PUSH1 0x24 PUSH0 REVERT JUMPDEST PUSH0 DUP1 REVERT JUMPDEST PUSH1 0x40 MLOAD SWAP2 SWAP1 PUSH1 0x1F ADD PUSH1 0x1F NOT AND DUP3 ADD PUSH1 0x1 PUSH1 0x1 PUSH1 0x40 SHL SUB DUP2 GT DUP4 DUP3 LT OR PUSH3 0x3A2 JUMPI PUSH1 0x40 MSTORE JUMP JUMPDEST SWAP2 SWAP1 DUP1 PUSH1 0x1F DUP5 ADD SLT ISZERO PUSH3 0x3B6 JUMPI DUP3 MLOAD PUSH1 0x1 PUSH1 0x1 PUSH1 0x40 SHL SUB DUP2 GT PUSH3 0x3A2 JUMPI PUSH1 0x20 SWAP1 PUSH3 0x416 PUSH1 0x1F DUP3 ADD PUSH1 0x1F NOT AND DUP4 ADD PUSH3 0x3BA JUMP JUMPDEST SWAP3 DUP2 DUP5 MSTORE DUP3 DUP3 DUP8 ADD ADD GT PUSH3 0x3B6 JUMPI PUSH0 JUMPDEST DUP2 DUP2 LT PUSH3 0x43C JUMPI POP DUP3 PUSH0 SWAP4 SWAP5 SWAP6 POP ADD ADD MSTORE SWAP1 JUMP JUMPDEST DUP6 DUP2 ADD DUP4 ADD MLOAD DUP5 DUP3 ADD DUP5 ADD MSTORE DUP3 ADD PUSH3 0x427 JUMP INVALID PUSH1 0x80 PUSH1 0x40 DUP2 DUP2 MSTORE PUSH1 0x4 DUP1 CALLDATASIZE LT ISZERO PUSH2 0x14 JUMPI PUSH0 DUP1 REVERT JUMPDEST PUSH0 SWAP3 DUP4 CALLDATALOAD PUSH1 0xE0 SHR SWAP1 DUP2 PUSH4 0x1FFC9A7 EQ PUSH2 0xE59 JUMPI POP DUP1 PUSH4 0x6FDDE03 EQ PUSH2 0xDB1 JUMPI DUP1 PUSH4 0x81812FC EQ PUSH2 0xD76 JUMPI DUP1 PUSH4 0x95EA7B3 EQ PUSH2 0xC9A JUMPI DUP1 PUSH4 0x18160DDD EQ PUSH2 0xC7B JUMPI DUP1 PUSH4 0x23B872DD EQ PUSH2 0xC63 JUMPI DUP1 PUSH4 0x42842E0E EQ PUSH2 0xC3A JUMPI DUP1 PUSH4 0x6352211E EQ PUSH2 0xC09 JUMPI DUP1 PUSH4 0x70A08231 EQ PUSH2 0xBB4 JUMPI DUP1 PUSH4 0x715018A6 EQ PUSH2 0xB42 JUMPI DUP1 PUSH4 0x71F0442E EQ PUSH2 0xA13 JUMPI DUP1 PUSH4 0x7E5CD5C1 EQ PUSH2 0x9E7 JUMPI DUP1 PUSH4 0x8DA5CB5B EQ PUSH2 0x9BE JUMPI DUP1 PUSH4 0x95D89B41 EQ PUSH2 0x8DB JUMPI DUP1 PUSH4 0x9FD6DB12 EQ PUSH2 0x8B4 JUMPI DUP1 PUSH4 0xA22CB465 EQ PUSH2 0x817 JUMPI DUP1 PUSH4 0xB88D4FDE EQ PUSH2 0x7AF JUMPI DUP1 PUSH4 0xC45A0155 EQ PUSH2 0x786 JUMPI DUP1 PUSH4 0xC5AEF310 EQ PUSH2 0x2EA JUMPI DUP1 PUSH4 0xC87B56DD EQ PUSH2 0x1F6 JUMPI DUP1 PUSH4 0xE985E9C5 EQ PUSH2 0x1A4 JUMPI PUSH4 0xF2FDE38B EQ PUSH2 0x112 JUMPI PUSH0 DUP1 REVERT JUMPDEST CALLVALUE PUSH2 0x1A0 JUMPI PUSH1 0x20 CALLDATASIZE PUSH1 0x3 NOT ADD SLT PUSH2 0x1A0 JUMPI PUSH2 0x12B PUSH2 0xF25 JUMP JUMPDEST SWAP1 PUSH2 0x134 PUSH2 0x104C JUMP JUMPDEST PUSH1 0x1 PUSH1 0x1 PUSH1 0xA0 SHL SUB SWAP2 DUP3 AND SWAP3 DUP4 ISZERO PUSH2 0x18A JUMPI POP POP PUSH1 0x7 SLOAD DUP3 PUSH12 0xFFFFFFFFFFFFFFFFFFFFFFFF PUSH1 0xA0 SHL DUP3 AND OR PUSH1 0x7 SSTORE AND PUSH32 0x8BE0079C531659141344CD1FD0A4F28419497F9722A3DAAFE3B4186F6B6457E0 DUP4 DUP1 LOG3 DUP1 RETURN JUMPDEST MLOAD PUSH4 0x1E4FBDF7 PUSH1 0xE0 SHL DUP2 MSTORE SWAP1 DUP2 ADD DUP5 SWAP1 MSTORE PUSH1 0x24 SWAP1 REVERT JUMPDEST DUP3 DUP1 REVERT JUMPDEST POP POP CALLVALUE PUSH2 0x1F2 JUMPI DUP1 PUSH1 0x3 NOT CALLDATASIZE ADD SLT PUSH2 0x1F2 JUMPI PUSH1 0xFF DUP2 PUSH1 0x20 SWAP4 PUSH2 0x1C4 PUSH2 0xF25 JUMP JUMPDEST PUSH2 0x1CC PUSH2 0xF3F JUMP JUMPDEST PUSH1 0x1 PUSH1 0x1 PUSH1 0xA0 SHL SUB SWAP2 DUP3 AND DUP4 MSTORE PUSH1 0x5 DUP8 MSTORE DUP4 DUP4 KECCAK256 SWAP2 AND DUP3 MSTORE DUP6 MSTORE KECCAK256 SLOAD SWAP2 MLOAD SWAP2 AND ISZERO ISZERO DUP2 MSTORE RETURN JUMPDEST POP DUP1 REVERT JUMPDEST POP SWAP1 CALLVALUE PUSH2 0x1A0 JUMPI PUSH1 0x20 SWAP2 DUP3 PUSH1 0x3 NOT CALLDATASIZE ADD SLT PUSH2 0x2E6 JUMPI CALLDATALOAD PUSH2 0x215 DUP2 PUSH2 0x139E JUMP JUMPDEST POP DUP4 MSTORE PUSH1 0x6 DUP3 MSTORE DUP1 DUP4 KECCAK256 SWAP3 DUP2 MLOAD DUP1 SWAP5 DUP3 SWAP1 DUP1 SLOAD PUSH2 0x231 DUP2 PUSH2 0x1078 JUMP JUMPDEST SWAP2 DUP3 DUP6 MSTORE PUSH1 0x1 SWAP2 DUP9 DUP4 DUP3 AND SWAP2 DUP3 PUSH0 EQ PUSH2 0x2BF JUMPI POP POP PUSH1 0x1 EQ PUSH2 0x281 JUMPI JUMPDEST POP POP POP PUSH2 0x27D SWAP4 SWAP3 SWAP2 PUSH2 0x262 SWAP2 SUB DUP7 PUSH2 0xFBA JUMP JUMPDEST DUP2 MLOAD PUSH2 0x26D DUP2 PUSH2 0xF8A JUMP JUMPDEST MSTORE MLOAD SWAP3 DUP3 DUP5 SWAP4 DUP5 MSTORE DUP4 ADD SWAP1 PUSH2 0xF00 JUMP JUMPDEST SUB SWAP1 RETURN JUMPDEST DUP6 MSTORE DUP7 DUP6 KECCAK256 DUP8 SWAP4 POP DUP6 SWAP3 SWAP2 SWAP1 JUMPDEST DUP3 DUP5 LT PUSH2 0x2A7 JUMPI POP POP POP DUP3 ADD ADD DUP2 PUSH2 0x262 PUSH2 0x27D PUSH2 0x24E JUMP JUMPDEST DUP1 SLOAD DUP5 DUP12 ADD DUP7 ADD MSTORE DUP10 SWAP6 POP DUP9 SWAP5 SWAP1 SWAP4 ADD SWAP3 DUP2 ADD PUSH2 0x28E JUMP JUMPDEST PUSH1 0xFF NOT AND DUP8 DUP3 ADD MSTORE SWAP4 ISZERO ISZERO PUSH1 0x5 SHL DUP7 ADD SWAP1 SWAP4 ADD SWAP4 POP DUP5 SWAP3 POP PUSH2 0x262 SWAP2 POP PUSH2 0x27D SWAP1 POP PUSH2 0x24E JUMP JUMPDEST DUP4 DUP1 REVERT JUMPDEST POP SWAP2 SWAP1 CALLVALUE PUSH2 0x1F2 JUMPI PUSH1 0x80 CALLDATASIZE PUSH1 0x3 NOT ADD SLT PUSH2 0x1F2 JUMPI PUSH2 0x306 PUSH2 0xF25 JUMP JUMPDEST SWAP3 PUSH1 0x24 PUSH8 0xFFFFFFFFFFFFFFFF DUP2 CALLDATALOAD DUP2 DUP2 GT PUSH2 0x782 JUMPI PUSH2 0x328 SWAP1 CALLDATASIZE SWAP1 DUP6 ADD PUSH2 0x102E JUMP JUMPDEST SWAP5 PUSH1 0x44 CALLDATALOAD DUP3 DUP2 GT PUSH2 0x1F2 JUMPI PUSH2 0x340 SWAP1 CALLDATASIZE SWAP1 DUP7 ADD PUSH2 0x102E JUMP JUMPDEST SWAP3 PUSH1 0x64 CALLDATALOAD DUP4 DUP2 GT PUSH2 0x1A0 JUMPI PUSH2 0x358 SWAP1 CALLDATASIZE SWAP1 DUP8 ADD PUSH2 0x102E JUMP JUMPDEST PUSH1 0x7 SLOAD SWAP1 SWAP9 PUSH1 0x1 PUSH1 0x1 PUSH1 0xA0 SHL SUB SWAP2 DUP3 AND CALLER EQ DUP1 ISZERO PUSH2 0x775 JUMPI JUMPDEST DUP1 PUSH2 0x766 JUMPI JUMPDEST ISZERO PUSH2 0x719 JUMPI PUSH1 0x1 SWAP6 DUP7 PUSH1 0x8 SLOAD ADD SWAP10 DUP11 PUSH1 0x8 SSTORE DUP10 MLOAD SWAP2 DUP3 SWAP2 PUSH1 0x20 SWAP14 DUP15 SWAP3 PUSH9 0x3D913730B6B2911D11 PUSH1 0xB9 SHL DUP5 DUP7 ADD MSTORE DUP1 MLOAD SWAP1 DUP2 DUP6 PUSH1 0x29 DUP9 ADD SWAP3 ADD SWAP2 PUSH2 0x3B9 SWAP3 PUSH2 0xEDF JUMP JUMPDEST DUP5 ADD PUSH17 0x1116113232B9B1B934B83A34B7B7111D11 PUSH1 0x79 SHL PUSH1 0x29 DUP3 ADD MSTORE DUP2 MLOAD SWAP2 DUP3 DUP6 PUSH1 0x3A DUP5 ADD SWAP3 ADD SWAP2 PUSH2 0x3EA SWAP3 PUSH2 0xEDF JUMP JUMPDEST ADD SWAP1 PUSH11 0x11161134B6B0B3B2911D11 PUSH1 0xA9 SHL PUSH1 0x3A DUP4 ADD MSTORE DUP1 MLOAD DUP1 SWAP4 PUSH1 0x45 DUP5 ADD SWAP3 ADD SWAP2 PUSH2 0x414 SWAP3 PUSH2 0xEDF JUMP JUMPDEST ADD PUSH2 0x227D PUSH1 0xF0 SHL PUSH1 0x45 DUP3 ADD MSTORE SUB PUSH1 0x27 DUP2 ADD DUP3 MSTORE PUSH1 0x47 ADD PUSH2 0x434 SWAP1 DUP3 PUSH2 0xFBA JUMP JUMPDEST DUP9 MLOAD SWAP1 PUSH1 0x60 DUP3 ADD DUP3 DUP2 LT DUP9 DUP3 GT OR PUSH2 0x707 JUMPI PUSH1 0x3D DUP14 PUSH2 0x4AF DUP8 SWAP7 SWAP5 SWAP6 PUSH2 0x4E8 SWAP10 SWAP9 SWAP7 DUP16 DUP1 PUSH2 0x4F8 SWAP8 PUSH32 0x6768696A6B6C6D6E6F707172737475767778797A303132333435363738392B2F SWAP3 MSTORE DUP1 DUP5 MSTORE PUSH32 0x4142434445464748494A4B4C4D4E4F505152535455565758595A616263646566 DUP7 DUP6 ADD MSTORE DUP4 ADD MSTORE PUSH2 0x13D8 JUMP JUMPDEST DUP14 MLOAD SWAP9 DUP3 PUSH32 0x646174613A6170706C69636174696F6E2F6A736F6E3B6261736536342C000000 DUP12 SWAP5 DUP6 ADD MSTORE DUP3 MLOAD SWAP3 DUP4 SWAP2 DUP7 DUP7 ADD SWAP2 ADD PUSH2 0xEDF JUMP JUMPDEST DUP2 ADD SUB PUSH1 0x1D DUP2 ADD DUP9 MSTORE ADD DUP7 PUSH2 0xFBA JUMP JUMPDEST AND SWAP1 DUP2 ISZERO PUSH2 0x6F1 JUMPI DUP10 DUP6 MSTORE PUSH1 0x2 DUP12 MSTORE DUP9 DUP6 KECCAK256 SLOAD AND DUP1 ISZERO ISZERO SWAP2 DUP11 SWAP2 DUP4 PUSH2 0x6C0 JUMPI JUMPDEST DUP2 DUP8 MSTORE PUSH1 0x3 DUP14 MSTORE DUP11 DUP8 KECCAK256 DUP1 SLOAD DUP11 ADD SWAP1 SSTORE DUP3 DUP8 MSTORE PUSH1 0x2 DUP14 MSTORE DUP11 DUP8 KECCAK256 DUP1 SLOAD PUSH1 0x1 PUSH1 0x1 PUSH1 0xA0 SHL SUB NOT AND DUP4 OR SWAP1 SSTORE PUSH32 0xDDF252AD1BE2C89B69C2B068FC378DAA952BA7F163C4A11628F55A4DF523B3EF DUP8 DUP1 LOG4 PUSH2 0x6AC JUMPI DUP8 DUP4 MSTORE PUSH1 0x6 DUP10 MSTORE DUP7 DUP4 KECCAK256 SWAP6 DUP3 MLOAD SWAP5 DUP6 GT PUSH2 0x69B JUMPI POP POP PUSH2 0x58A DUP6 SLOAD PUSH2 0x1078 JUMP JUMPDEST PUSH1 0x1F DUP2 GT PUSH2 0x655 JUMPI JUMPDEST POP DUP8 SWAP2 PUSH1 0x1F DUP5 GT PUSH1 0x1 EQ PUSH2 0x5F7 JUMPI SWAP2 DUP4 SWAP5 SWAP2 DUP5 SWAP4 SWAP5 PUSH2 0x5EC JUMPI JUMPDEST POP POP SHL SWAP2 PUSH0 NOT SWAP1 PUSH1 0x3 SHL SHR NOT AND OR SWAP1 SSTORE JUMPDEST PUSH32 0xF8E1A15ABA9398E019F0B49DF1A4FDE98EE17AE345CB5F6B5E2C27F5033E8CE7 DUP4 DUP3 MLOAD DUP5 DUP2 MSTORE LOG1 MLOAD SWAP1 DUP2 MSTORE RETURN JUMPDEST ADD MLOAD SWAP3 POP PUSH0 DUP1 PUSH2 0x5AD JUMP JUMPDEST SWAP2 SWAP1 DUP4 PUSH1 0x1F NOT DUP2 AND DUP8 DUP6 MSTORE DUP11 DUP6 KECCAK256 SWAP5 JUMPDEST DUP12 DUP9 DUP4 DUP4 LT PUSH2 0x63E JUMPI POP POP POP LT PUSH2 0x626 JUMPI JUMPDEST POP POP POP DUP2 SHL ADD SWAP1 SSTORE PUSH2 0x5BE JUMP JUMPDEST ADD MLOAD PUSH0 NOT PUSH1 0xF8 DUP5 PUSH1 0x3 SHL AND SHR NOT AND SWAP1 SSTORE PUSH0 DUP1 DUP1 PUSH2 0x619 JUMP JUMPDEST DUP7 DUP7 ADD MLOAD DUP9 SSTORE SWAP1 SWAP7 ADD SWAP6 SWAP5 DUP6 ADD SWAP5 DUP8 SWAP4 POP ADD PUSH2 0x607 JUMP JUMPDEST DUP6 DUP4 MSTORE DUP9 DUP4 KECCAK256 PUSH1 0x1F DUP6 ADD PUSH1 0x5 SHR DUP2 ADD SWAP2 DUP11 DUP7 LT PUSH2 0x691 JUMPI JUMPDEST PUSH1 0x1F ADD PUSH1 0x5 SHR ADD SWAP1 DUP6 SWAP1 JUMPDEST DUP3 DUP2 LT PUSH2 0x686 JUMPI POP POP PUSH2 0x593 JUMP JUMPDEST DUP5 DUP2 SSTORE ADD DUP6 SWAP1 PUSH2 0x678 JUMP JUMPDEST SWAP1 SWAP2 POP DUP2 SWAP1 PUSH2 0x66D JUMP JUMPDEST PUSH4 0x4E487B71 PUSH1 0xE0 SHL DUP5 MSTORE PUSH1 0x41 SWAP1 MSTORE DUP3 REVERT JUMPDEST DUP7 MLOAD PUSH4 0x39E35637 PUSH1 0xE1 SHL DUP2 MSTORE DUP1 DUP8 ADD DUP5 SWAP1 MSTORE REVERT JUMPDEST PUSH0 DUP4 DUP2 MSTORE PUSH1 0x4 PUSH1 0x20 MSTORE PUSH1 0x40 SWAP1 KECCAK256 DUP1 SLOAD PUSH1 0x1 PUSH1 0x1 PUSH1 0xA0 SHL SUB NOT AND SWAP1 SSTORE DUP1 DUP8 MSTORE PUSH1 0x3 DUP14 MSTORE DUP11 DUP8 KECCAK256 DUP1 SLOAD PUSH0 NOT ADD SWAP1 SSTORE PUSH2 0x518 JUMP JUMPDEST DUP9 MLOAD PUSH4 0x32505749 PUSH1 0xE1 SHL DUP2 MSTORE DUP1 DUP10 ADD DUP7 SWAP1 MSTORE DUP4 SWAP1 REVERT JUMPDEST PUSH4 0x4E487B71 PUSH1 0xE0 SHL DUP8 MSTORE PUSH1 0x41 DUP11 MSTORE DUP6 DUP8 REVERT JUMPDEST DUP8 MLOAD PUSH3 0x461BCD PUSH1 0xE5 SHL DUP2 MSTORE PUSH1 0x20 DUP2 DUP10 ADD MSTORE PUSH1 0x22 DUP2 DUP6 ADD MSTORE PUSH32 0x4E6F7420617574686F72697A6564206F72206D696E74696E672064697361626C PUSH1 0x44 DUP3 ADD MSTORE PUSH2 0x1959 PUSH1 0xF2 SHL PUSH1 0x64 DUP3 ADD MSTORE PUSH1 0x84 SWAP1 REVERT JUMPDEST POP PUSH1 0xFF PUSH1 0xA SLOAD PUSH1 0xA0 SHR AND PUSH2 0x377 JUMP JUMPDEST POP DUP2 PUSH1 0xA SLOAD AND CALLER EQ PUSH2 0x371 JUMP JUMPDEST DUP6 DUP1 REVERT JUMPDEST POP POP CALLVALUE PUSH2 0x1F2 JUMPI DUP2 PUSH1 0x3 NOT CALLDATASIZE ADD SLT PUSH2 0x1F2 JUMPI PUSH1 0xA SLOAD SWAP1 MLOAD PUSH1 0x1 PUSH1 0x1 PUSH1 0xA0 SHL SUB SWAP1 SWAP2 AND DUP2 MSTORE PUSH1 0x20 SWAP1 RETURN JUMPDEST DUP4 DUP3 CALLVALUE PUSH2 0x1F2 JUMPI PUSH1 0x80 CALLDATASIZE PUSH1 0x3 NOT ADD SLT PUSH2 0x1F2 JUMPI PUSH2 0x7CA PUSH2 0xF25 JUMP JUMPDEST PUSH2 0x7D2 PUSH2 0xF3F JUMP JUMPDEST SWAP1 PUSH1 0x64 CALLDATALOAD PUSH8 0xFFFFFFFFFFFFFFFF DUP2 GT PUSH2 0x813 JUMPI CALLDATASIZE PUSH1 0x23 DUP3 ADD SLT ISZERO PUSH2 0x813 JUMPI PUSH2 0x810 SWAP4 DUP2 PUSH1 0x24 PUSH2 0x806 SWAP4 CALLDATASIZE SWAP4 ADD CALLDATALOAD SWAP2 ADD PUSH2 0xFF8 JUMP JUMPDEST SWAP2 PUSH1 0x44 CALLDATALOAD SWAP2 PUSH2 0x124B JUMP JUMPDEST DUP1 RETURN JUMPDEST DUP5 DUP1 REVERT JUMPDEST POP SWAP1 CALLVALUE PUSH2 0x1A0 JUMPI DUP1 PUSH1 0x3 NOT CALLDATASIZE ADD SLT PUSH2 0x1A0 JUMPI PUSH2 0x831 PUSH2 0xF25 JUMP JUMPDEST SWAP1 PUSH1 0x24 CALLDATALOAD SWAP2 DUP3 ISZERO ISZERO DUP1 SWAP4 SUB PUSH2 0x813 JUMPI PUSH1 0x1 PUSH1 0x1 PUSH1 0xA0 SHL SUB AND SWAP3 DUP4 ISZERO PUSH2 0x89F JUMPI POP CALLER DUP5 MSTORE PUSH1 0x5 PUSH1 0x20 MSTORE DUP1 DUP5 KECCAK256 DUP4 DUP6 MSTORE PUSH1 0x20 MSTORE DUP1 DUP5 KECCAK256 PUSH1 0xFF NOT DUP2 SLOAD AND PUSH1 0xFF DUP5 AND OR SWAP1 SSTORE MLOAD SWAP1 DUP2 MSTORE PUSH32 0x17307EAB39AB6107E8899845AD3D59BD9653F200F220920489CA2B5937696C31 PUSH1 0x20 CALLER SWAP3 LOG3 DUP1 RETURN JUMPDEST DUP4 PUSH1 0x24 SWAP3 MLOAD SWAP2 PUSH4 0xB611743 PUSH1 0xE3 SHL DUP4 MSTORE DUP3 ADD MSTORE REVERT JUMPDEST POP POP CALLVALUE PUSH2 0x1F2 JUMPI DUP2 PUSH1 0x3 NOT CALLDATASIZE ADD SLT PUSH2 0x1F2 JUMPI PUSH1 0x20 SWAP1 PUSH1 0xFF PUSH1 0xA SLOAD PUSH1 0xA0 SHR AND SWAP1 MLOAD SWAP1 ISZERO ISZERO DUP2 MSTORE RETURN JUMPDEST POP POP CALLVALUE PUSH2 0x1F2 JUMPI DUP2 PUSH1 0x3 NOT CALLDATASIZE ADD SLT PUSH2 0x1F2 JUMPI DUP1 MLOAD SWAP1 DUP3 PUSH1 0x1 DUP1 SLOAD SWAP2 PUSH2 0x8FF DUP4 PUSH2 0x1078 JUMP JUMPDEST DUP1 DUP7 MSTORE SWAP3 DUP3 DUP2 AND SWAP1 DUP2 ISZERO PUSH2 0x996 JUMPI POP PUSH1 0x1 EQ PUSH2 0x93A JUMPI JUMPDEST POP POP POP PUSH2 0x928 DUP3 PUSH2 0x27D SWAP5 SUB DUP4 PUSH2 0xFBA JUMP JUMPDEST MLOAD SWAP2 DUP3 SWAP2 PUSH1 0x20 DUP4 MSTORE PUSH1 0x20 DUP4 ADD SWAP1 PUSH2 0xF00 JUMP JUMPDEST SWAP5 POP DUP1 DUP6 MSTORE PUSH32 0xB10E2D527612073B26EECDFD717E6A320CF44B4AFAC2B0732D9FCBE2B7FA0CF6 JUMPDEST DUP3 DUP7 LT PUSH2 0x97E JUMPI POP POP POP PUSH2 0x928 DUP3 PUSH1 0x20 PUSH2 0x27D SWAP6 DUP3 ADD ADD SWAP5 PUSH2 0x916 JUMP JUMPDEST DUP1 SLOAD PUSH1 0x20 DUP8 DUP8 ADD DUP2 ADD SWAP2 SWAP1 SWAP2 MSTORE SWAP1 SWAP6 ADD SWAP5 DUP2 ADD PUSH2 0x961 JUMP JUMPDEST PUSH2 0x27D SWAP8 POP DUP7 SWAP4 POP PUSH1 0x20 SWAP3 POP PUSH2 0x928 SWAP5 SWAP2 POP PUSH1 0xFF NOT AND DUP3 DUP5 ADD MSTORE ISZERO ISZERO PUSH1 0x5 SHL DUP3 ADD ADD SWAP5 PUSH2 0x916 JUMP JUMPDEST POP POP CALLVALUE PUSH2 0x1F2 JUMPI DUP2 PUSH1 0x3 NOT CALLDATASIZE ADD SLT PUSH2 0x1F2 JUMPI PUSH1 0x7 SLOAD SWAP1 MLOAD PUSH1 0x1 PUSH1 0x1 PUSH1 0xA0 SHL SUB SWAP1 SWAP2 AND DUP2 MSTORE PUSH1 0x20 SWAP1 RETURN JUMPDEST DUP4 CALLVALUE PUSH2 0xA10 JUMPI DUP1 PUSH1 0x3 NOT CALLDATASIZE ADD SLT PUSH2 0xA10 JUMPI PUSH2 0xA00 PUSH2 0x104C JUMP JUMPDEST PUSH1 0xA DUP1 SLOAD PUSH1 0xFF PUSH1 0xA0 SHL NOT AND SWAP1 SSTORE DUP1 RETURN JUMPDEST DUP1 REVERT JUMPDEST POP SWAP1 CALLVALUE PUSH2 0x1A0 JUMPI PUSH1 0x20 SWAP2 DUP3 PUSH1 0x3 NOT CALLDATASIZE ADD SLT PUSH2 0x2E6 JUMPI DUP1 CALLDATALOAD DUP1 DUP6 MSTORE PUSH1 0x2 DUP5 MSTORE DUP3 DUP6 KECCAK256 SLOAD SWAP1 SWAP2 SWAP1 PUSH1 0x1 PUSH1 0x1 PUSH1 0xA0 SHL SUB AND ISZERO PUSH2 0xB08 JUMPI POP DUP4 MSTORE PUSH1 0x9 DUP3 MSTORE DUP1 DUP4 KECCAK256 DUP2 MLOAD SWAP4 DUP5 SWAP2 DUP2 DUP2 SLOAD SWAP1 PUSH2 0xA62 DUP3 PUSH2 0x1078 JUMP JUMPDEST SWAP3 DUP4 DUP7 MSTORE PUSH1 0x1 SWAP3 DUP9 DUP5 DUP3 AND SWAP2 DUP3 PUSH0 EQ PUSH2 0xADE JUMPI POP POP PUSH1 0x1 EQ PUSH2 0xAA0 JUMPI JUMPDEST DUP6 DUP9 PUSH2 0x27D DUP10 PUSH2 0xA91 DUP5 DUP11 SUB DUP6 PUSH2 0xFBA JUMP JUMPDEST MLOAD SWAP3 DUP3 DUP5 SWAP4 DUP5 MSTORE DUP4 ADD SWAP1 PUSH2 0xF00 JUMP JUMPDEST DUP8 SWAP5 POP DUP2 SWAP4 SWAP3 SWAP2 MSTORE DUP4 DUP4 KECCAK256 JUMPDEST DUP3 DUP5 LT PUSH2 0xAC6 JUMPI POP POP POP DUP3 ADD ADD DUP2 PUSH2 0xA91 PUSH2 0x27D PUSH0 PUSH2 0xA7F JUMP JUMPDEST DUP1 SLOAD DUP5 DUP11 ADD DUP7 ADD MSTORE DUP9 SWAP6 POP DUP8 SWAP5 SWAP1 SWAP4 ADD SWAP3 DUP2 ADD PUSH2 0xAAC JUMP JUMPDEST PUSH1 0xFF NOT AND DUP9 DUP3 ADD MSTORE SWAP5 ISZERO ISZERO PUSH1 0x5 SHL DUP8 ADD SWAP1 SWAP5 ADD SWAP5 POP DUP6 SWAP4 POP PUSH2 0xA91 SWAP3 POP PUSH2 0x27D SWAP2 POP PUSH0 SWAP1 POP PUSH2 0xA7F JUMP JUMPDEST DUP3 MLOAD PUSH3 0x461BCD PUSH1 0xE5 SHL DUP2 MSTORE SWAP1 DUP2 ADD DUP5 SWAP1 MSTORE PUSH1 0x14 PUSH1 0x24 DUP3 ADD MSTORE PUSH20 0x151BDAD95B88191BD95CC81B9BDD08195E1A5CDD PUSH1 0x62 SHL PUSH1 0x44 DUP3 ADD MSTORE PUSH1 0x64 SWAP1 REVERT JUMPDEST DUP4 CALLVALUE PUSH2 0xA10 JUMPI DUP1 PUSH1 0x3 NOT CALLDATASIZE ADD SLT PUSH2 0xA10 JUMPI PUSH2 0xB5B PUSH2 0x104C JUMP JUMPDEST PUSH1 0xA DUP1 SLOAD PUSH1 0xFF PUSH1 0xA0 SHL NOT AND SWAP1 SSTORE PUSH2 0xB70 PUSH2 0x104C JUMP JUMPDEST PUSH1 0x7 DUP1 SLOAD PUSH1 0x1 PUSH1 0x1 PUSH1 0xA0 SHL SUB NOT DUP2 AND SWAP1 SWAP2 SSTORE DUP2 SWAP1 PUSH1 0x1 PUSH1 0x1 PUSH1 0xA0 SHL SUB AND PUSH32 0x8BE0079C531659141344CD1FD0A4F28419497F9722A3DAAFE3B4186F6B6457E0 DUP3 DUP1 LOG3 DUP1 RETURN JUMPDEST POP SWAP2 CALLVALUE PUSH2 0xA10 JUMPI PUSH1 0x20 CALLDATASIZE PUSH1 0x3 NOT ADD SLT PUSH2 0xA10 JUMPI PUSH1 0x1 PUSH1 0x1 PUSH1 0xA0 SHL SUB PUSH2 0xBD7 PUSH2 0xF25 JUMP JUMPDEST AND SWAP3 DUP4 ISZERO PUSH2 0xBF4 JUMPI POP DUP1 PUSH1 0x20 SWAP4 DUP4 SWAP3 MSTORE PUSH1 0x3 DUP5 MSTORE KECCAK256 SLOAD SWAP1 MLOAD SWAP1 DUP2 MSTORE RETURN JUMPDEST SWAP2 MLOAD PUSH4 0x22718AD9 PUSH1 0xE2 SHL DUP2 MSTORE SWAP2 DUP3 ADD MSTORE PUSH1 0x24 SWAP1 REVERT JUMPDEST POP SWAP2 CALLVALUE PUSH2 0xA10 JUMPI PUSH1 0x20 CALLDATASIZE PUSH1 0x3 NOT ADD SLT PUSH2 0xA10 JUMPI POP PUSH2 0xC29 PUSH1 0x20 SWAP3 CALLDATALOAD PUSH2 0x139E JUMP JUMPDEST SWAP1 MLOAD PUSH1 0x1 PUSH1 0x1 PUSH1 0xA0 SHL SUB SWAP1 SWAP2 AND DUP2 MSTORE RETURN JUMPDEST POP POP CALLVALUE PUSH2 0x1F2 JUMPI PUSH2 0x810 SWAP1 PUSH2 0xC4E CALLDATASIZE PUSH2 0xF55 JUMP JUMPDEST SWAP2 SWAP3 MLOAD SWAP3 PUSH2 0xC5B DUP5 PUSH2 0xF8A JUMP JUMPDEST DUP6 DUP5 MSTORE PUSH2 0x124B JUMP JUMPDEST DUP4 CALLVALUE PUSH2 0xA10 JUMPI PUSH2 0x810 PUSH2 0xC75 CALLDATASIZE PUSH2 0xF55 JUMP JUMPDEST SWAP2 PUSH2 0x10B0 JUMP JUMPDEST POP POP CALLVALUE PUSH2 0x1F2 JUMPI DUP2 PUSH1 0x3 NOT CALLDATASIZE ADD SLT PUSH2 0x1F2 JUMPI PUSH1 0x20 SWAP1 PUSH1 0x8 SLOAD SWAP1 MLOAD SWAP1 DUP2 MSTORE RETURN JUMPDEST POP SWAP1 CALLVALUE PUSH2 0x1A0 JUMPI DUP1 PUSH1 0x3 NOT CALLDATASIZE ADD SLT PUSH2 0x1A0 JUMPI PUSH2 0xCB4 PUSH2 0xF25 JUMP JUMPDEST SWAP2 PUSH1 0x24 CALLDATALOAD PUSH2 0xCC1 DUP2 PUSH2 0x139E JUMP JUMPDEST CALLER ISZERO ISZERO DUP1 PUSH2 0xD63 JUMPI JUMPDEST DUP1 PUSH2 0xD3A JUMPI JUMPDEST PUSH2 0xD24 JUMPI PUSH1 0x1 PUSH1 0x1 PUSH1 0xA0 SHL SUB SWAP5 DUP6 AND SWAP5 DUP3 SWAP2 DUP7 SWAP2 AND PUSH32 0x8C5BE1E5EBEC7D5BD14F71427D1E84F3DD0314C0F7B2291E5B200AC8C7C3B925 DUP9 DUP1 LOG4 DUP5 MSTORE PUSH1 0x20 MSTORE DUP3 KECCAK256 DUP1 SLOAD PUSH1 0x1 PUSH1 0x1 PUSH1 0xA0 SHL SUB NOT AND SWAP1 SWAP2 OR SWAP1 SSTORE DUP1 RETURN JUMPDEST DUP4 MLOAD PUSH4 0xA9FBF51F PUSH1 0xE0 SHL DUP2 MSTORE CALLER DUP2 DUP6 ADD MSTORE PUSH1 0x24 SWAP1 REVERT JUMPDEST POP PUSH1 0x1 PUSH1 0x1 PUSH1 0xA0 SHL SUB DUP2 AND DUP7 MSTORE PUSH1 0x5 PUSH1 0x20 SWAP1 DUP2 MSTORE DUP5 DUP8 KECCAK256 CALLER DUP9 MSTORE SWAP1 MSTORE DUP4 DUP7 KECCAK256 SLOAD PUSH1 0xFF AND ISZERO PUSH2 0xCD0 JUMP JUMPDEST POP PUSH1 0x1 PUSH1 0x1 PUSH1 0xA0 SHL SUB DUP2 AND CALLER EQ ISZERO PUSH2 0xCCA JUMP JUMPDEST POP CALLVALUE PUSH2 0x1A0 JUMPI PUSH1 0x20 CALLDATASIZE PUSH1 0x3 NOT ADD SLT PUSH2 0x1A0 JUMPI SWAP2 DUP3 PUSH1 0x20 SWAP4 CALLDATALOAD PUSH2 0xD97 DUP2 PUSH2 0x139E JUMP JUMPDEST POP DUP3 MSTORE DUP4 MSTORE DUP2 SWAP1 KECCAK256 SLOAD SWAP1 MLOAD PUSH1 0x1 PUSH1 0x1 PUSH1 0xA0 SHL SUB SWAP1 SWAP2 AND DUP2 MSTORE RETURN JUMPDEST POP POP CALLVALUE PUSH2 0x1F2 JUMPI DUP2 PUSH1 0x3 NOT CALLDATASIZE ADD SLT PUSH2 0x1F2 JUMPI DUP1 MLOAD SWAP1 DUP3 DUP1 SLOAD PUSH2 0xDD2 DUP2 PUSH2 0x1078 JUMP JUMPDEST DUP1 DUP6 MSTORE SWAP2 PUSH1 0x1 SWAP2 DUP1 DUP4 AND SWAP1 DUP2 ISZERO PUSH2 0x996 JUMPI POP PUSH1 0x1 EQ PUSH2 0xDFD JUMPI POP POP POP PUSH2 0x928 DUP3 PUSH2 0x27D SWAP5 SUB DUP4 PUSH2 0xFBA JUMP JUMPDEST DUP1 DUP1 SWAP7 POP MSTORE PUSH32 0x290DECD9548B62A8D60345A988386FC84BA6BC95484008F6362F93160EF3E563 JUMPDEST DUP3 DUP7 LT PUSH2 0xE41 JUMPI POP POP POP PUSH2 0x928 DUP3 PUSH1 0x20 PUSH2 0x27D SWAP6 DUP3 ADD ADD SWAP5 PUSH2 0x916 JUMP JUMPDEST DUP1 SLOAD PUSH1 0x20 DUP8 DUP8 ADD DUP2 ADD SWAP2 SWAP1 SWAP2 MSTORE SWAP1 SWAP6 ADD SWAP5 DUP2 ADD PUSH2 0xE24 JUMP JUMPDEST SWAP3 POP POP CALLVALUE PUSH2 0x1A0 JUMPI PUSH1 0x20 CALLDATASIZE PUSH1 0x3 NOT ADD SLT PUSH2 0x1A0 JUMPI CALLDATALOAD PUSH4 0xFFFFFFFF PUSH1 0xE0 SHL DUP2 AND DUP1 SWAP2 SUB PUSH2 0x1A0 JUMPI PUSH1 0x20 SWAP3 POP PUSH4 0x24832483 PUSH1 0xE1 SHL DUP2 EQ SWAP1 DUP2 ISZERO PUSH2 0xE9C JUMPI JUMPDEST POP ISZERO ISZERO DUP2 MSTORE RETURN JUMPDEST PUSH4 0x80AC58CD PUSH1 0xE0 SHL DUP2 EQ SWAP2 POP DUP2 ISZERO PUSH2 0xECE JUMPI JUMPDEST DUP2 ISZERO PUSH2 0xEBD JUMPI JUMPDEST POP PUSH0 PUSH2 0xE95 JUMP JUMPDEST PUSH4 0x1FFC9A7 PUSH1 0xE0 SHL EQ SWAP1 POP PUSH0 PUSH2 0xEB6 JUMP JUMPDEST PUSH4 0x5B5E139F PUSH1 0xE0 SHL DUP2 EQ SWAP2 POP PUSH2 0xEAF JUMP JUMPDEST PUSH0 JUMPDEST DUP4 DUP2 LT PUSH2 0xEF0 JUMPI POP POP PUSH0 SWAP2 ADD MSTORE JUMP JUMPDEST DUP2 DUP2 ADD MLOAD DUP4 DUP3 ADD MSTORE PUSH1 0x20 ADD PUSH2 0xEE1 JUMP JUMPDEST SWAP1 PUSH1 0x20 SWAP2 PUSH2 0xF19 DUP2 MLOAD DUP1 SWAP3 DUP2 DUP6 MSTORE DUP6 DUP1 DUP7 ADD SWAP2 ADD PUSH2 0xEDF JUMP JUMPDEST PUSH1 0x1F ADD PUSH1 0x1F NOT AND ADD ADD SWAP1 JUMP JUMPDEST PUSH1 0x4 CALLDATALOAD SWAP1 PUSH1 0x1 PUSH1 0x1 PUSH1 0xA0 SHL SUB DUP3 AND DUP3 SUB PUSH2 0xF3B JUMPI JUMP JUMPDEST PUSH0 DUP1 REVERT JUMPDEST PUSH1 0x24 CALLDATALOAD SWAP1 PUSH1 0x1 PUSH1 0x1 PUSH1 0xA0 SHL SUB DUP3 AND DUP3 SUB PUSH2 0xF3B JUMPI JUMP JUMPDEST PUSH1 0x60 SWAP1 PUSH1 0x3 NOT ADD SLT PUSH2 0xF3B JUMPI PUSH1 0x1 PUSH1 0x1 PUSH1 0xA0 SHL SUB SWAP1 PUSH1 0x4 CALLDATALOAD DUP3 DUP2 AND DUP2 SUB PUSH2 0xF3B JUMPI SWAP2 PUSH1 0x24 CALLDATALOAD SWAP1 DUP2 AND DUP2 SUB PUSH2 0xF3B JUMPI SWAP1 PUSH1 0x44 CALLDATALOAD SWAP1 JUMP JUMPDEST PUSH1 0x20 DUP2 ADD SWAP1 DUP2 LT PUSH8 0xFFFFFFFFFFFFFFFF DUP3 GT OR PUSH2 0xFA6 JUMPI PUSH1 0x40 MSTORE JUMP JUMPDEST PUSH4 0x4E487B71 PUSH1 0xE0 SHL PUSH0 MSTORE PUSH1 0x41 PUSH1 0x4 MSTORE PUSH1 0x24 PUSH0 REVERT JUMPDEST SWAP1 PUSH1 0x1F DUP1 NOT SWAP2 ADD AND DUP2 ADD SWAP1 DUP2 LT PUSH8 0xFFFFFFFFFFFFFFFF DUP3 GT OR PUSH2 0xFA6 JUMPI PUSH1 0x40 MSTORE JUMP JUMPDEST PUSH8 0xFFFFFFFFFFFFFFFF DUP2 GT PUSH2 0xFA6 JUMPI PUSH1 0x1F ADD PUSH1 0x1F NOT AND PUSH1 0x20 ADD SWAP1 JUMP JUMPDEST SWAP3 SWAP2 SWAP3 PUSH2 0x1004 DUP3 PUSH2 0xFDC JUMP JUMPDEST SWAP2 PUSH2 0x1012 PUSH1 0x40 MLOAD SWAP4 DUP5 PUSH2 0xFBA JUMP JUMPDEST DUP3 SWAP5 DUP2 DUP5 MSTORE DUP2 DUP4 ADD GT PUSH2 0xF3B JUMPI DUP3 DUP2 PUSH1 0x20 SWAP4 DUP5 PUSH0 SWAP7 ADD CALLDATACOPY ADD ADD MSTORE JUMP JUMPDEST SWAP1 DUP1 PUSH1 0x1F DUP4 ADD SLT ISZERO PUSH2 0xF3B JUMPI DUP2 PUSH1 0x20 PUSH2 0x1049 SWAP4 CALLDATALOAD SWAP2 ADD PUSH2 0xFF8 JUMP JUMPDEST SWAP1 JUMP JUMPDEST PUSH1 0x7 SLOAD PUSH1 0x1 PUSH1 0x1 PUSH1 0xA0 SHL SUB AND CALLER SUB PUSH2 0x1060 JUMPI JUMP JUMPDEST PUSH1 0x40 MLOAD PUSH4 0x118CDAA7 PUSH1 0xE0 SHL DUP2 MSTORE CALLER PUSH1 0x4 DUP3 ADD MSTORE PUSH1 0x24 SWAP1 REVERT JUMPDEST SWAP1 PUSH1 0x1 DUP3 DUP2 SHR SWAP3 AND DUP1 ISZERO PUSH2 0x10A6 JUMPI JUMPDEST PUSH1 0x20 DUP4 LT EQ PUSH2 0x1092 JUMPI JUMP JUMPDEST PUSH4 0x4E487B71 PUSH1 0xE0 SHL PUSH0 MSTORE PUSH1 0x22 PUSH1 0x4 MSTORE PUSH1 0x24 PUSH0 REVERT JUMPDEST SWAP2 PUSH1 0x7F AND SWAP2 PUSH2 0x1087 JUMP JUMPDEST PUSH1 0x1 PUSH1 0x1 PUSH1 0xA0 SHL SUB SWAP2 DUP3 AND SWAP3 SWAP1 SWAP2 DUP4 ISZERO PUSH2 0x1233 JUMPI PUSH0 SWAP3 DUP3 DUP5 MSTORE DUP3 PUSH1 0x20 SWAP6 PUSH1 0x2 DUP8 MSTORE PUSH1 0x40 SWAP7 DUP5 DUP9 DUP9 KECCAK256 SLOAD AND SWAP7 DUP8 SWAP2 CALLER ISZERO ISZERO DUP1 PUSH2 0x119D JUMPI JUMPDEST POP SWAP1 PUSH1 0x2 PUSH32 0xDDF252AD1BE2C89B69C2B068FC378DAA952BA7F163C4A11628F55A4DF523B3EF SWAP3 DUP5 PUSH2 0x116C JUMPI JUMPDEST DUP6 DUP4 MSTORE PUSH1 0x3 DUP2 MSTORE DUP12 DUP4 KECCAK256 DUP1 SLOAD PUSH1 0x1 ADD SWAP1 SSTORE DUP7 DUP4 MSTORE MSTORE DUP10 DUP2 KECCAK256 DUP1 SLOAD PUSH1 0x1 PUSH1 0x1 PUSH1 0xA0 SHL SUB NOT AND DUP6 OR SWAP1 SSTORE DUP1 LOG4 AND SWAP3 DUP4 DUP4 SUB PUSH2 0x114B JUMPI POP POP POP POP JUMP JUMPDEST PUSH1 0x64 SWAP5 POP MLOAD SWAP3 PUSH4 0x64283D7B PUSH1 0xE0 SHL DUP5 MSTORE PUSH1 0x4 DUP5 ADD MSTORE PUSH1 0x24 DUP4 ADD MSTORE PUSH1 0x44 DUP3 ADD MSTORE REVERT JUMPDEST PUSH0 DUP8 DUP2 MSTORE PUSH1 0x4 PUSH1 0x20 MSTORE PUSH1 0x40 SWAP1 KECCAK256 DUP1 SLOAD PUSH1 0x1 PUSH1 0x1 PUSH1 0xA0 SHL SUB NOT AND SWAP1 SSTORE DUP5 DUP4 MSTORE PUSH1 0x3 DUP2 MSTORE DUP12 DUP4 KECCAK256 DUP1 SLOAD PUSH0 NOT ADD SWAP1 SSTORE PUSH2 0x1112 JUMP JUMPDEST SWAP2 SWAP4 SWAP5 POP SWAP2 POP DUP1 PUSH2 0x11F2 JUMPI JUMPDEST ISZERO PUSH2 0x11B9 JUMPI DUP6 SWAP3 SWAP2 DUP8 SWAP2 PUSH0 PUSH2 0x10E6 JUMP JUMPDEST DUP8 DUP7 DUP9 PUSH2 0x11D6 JUMPI PUSH1 0x24 SWAP2 MLOAD SWAP1 PUSH4 0x7E273289 PUSH1 0xE0 SHL DUP3 MSTORE PUSH1 0x4 DUP3 ADD MSTORE REVERT JUMPDEST PUSH1 0x44 SWAP2 MLOAD SWAP1 PUSH4 0x177E802F PUSH1 0xE0 SHL DUP3 MSTORE CALLER PUSH1 0x4 DUP4 ADD MSTORE PUSH1 0x24 DUP3 ADD MSTORE REVERT JUMPDEST POP CALLER DUP8 EQ DUP1 ISZERO PUSH2 0x1217 JUMPI JUMPDEST DUP1 PUSH2 0x11A9 JUMPI POP DUP6 DUP3 MSTORE PUSH1 0x4 DUP2 MSTORE CALLER DUP6 DUP10 DUP5 KECCAK256 SLOAD AND EQ PUSH2 0x11A9 JUMP JUMPDEST POP DUP7 DUP3 MSTORE PUSH1 0x5 DUP2 MSTORE DUP8 DUP3 KECCAK256 CALLER DUP4 MSTORE DUP2 MSTORE PUSH1 0xFF DUP9 DUP4 KECCAK256 SLOAD AND PUSH2 0x11FD JUMP JUMPDEST PUSH1 0x40 MLOAD PUSH4 0x32505749 PUSH1 0xE1 SHL DUP2 MSTORE PUSH0 PUSH1 0x4 DUP3 ADD MSTORE PUSH1 0x24 SWAP1 REVERT JUMPDEST SWAP3 SWAP1 SWAP3 PUSH2 0x1259 DUP4 DUP6 DUP4 PUSH2 0x10B0 JUMP JUMPDEST DUP4 EXTCODESIZE PUSH2 0x1266 JUMPI JUMPDEST POP POP POP POP JUMP JUMPDEST PUSH1 0x40 MLOAD PUSH4 0xA85BD01 PUSH1 0xE1 SHL DUP1 DUP3 MSTORE CALLER PUSH1 0x4 DUP4 ADD MSTORE PUSH1 0x1 PUSH1 0x1 PUSH1 0xA0 SHL SUB SWAP3 DUP4 AND PUSH1 0x24 DUP4 ADD MSTORE PUSH1 0x44 DUP3 ADD SWAP5 SWAP1 SWAP5 MSTORE PUSH1 0x80 PUSH1 0x64 DUP3 ADD MSTORE SWAP5 SWAP4 AND SWAP3 PUSH1 0x20 SWAP3 SWAP1 SWAP2 DUP6 SWAP1 PUSH2 0x12B2 SWAP1 PUSH1 0x84 DUP4 ADD SWAP1 PUSH2 0xF00 JUMP JUMPDEST SUB SWAP5 DUP4 DUP2 PUSH0 SWAP8 DUP2 DUP10 DUP10 GAS CALL DUP7 SWAP2 DUP2 PUSH2 0x135A JUMPI JUMPDEST POP PUSH2 0x1325 JUMPI POP POP POP RETURNDATASIZE PUSH0 EQ PUSH2 0x131C JUMPI RETURNDATASIZE PUSH2 0x12DE DUP2 PUSH2 0xFDC JUMP JUMPDEST SWAP1 PUSH2 0x12EC PUSH1 0x40 MLOAD SWAP3 DUP4 PUSH2 0xFBA JUMP JUMPDEST DUP2 MSTORE DUP1 SWAP4 DUP3 RETURNDATASIZE SWAP3 ADD RETURNDATACOPY JUMPDEST DUP3 MLOAD SWAP3 DUP4 PUSH2 0x1317 JUMPI PUSH1 0x40 MLOAD PUSH4 0x32505749 PUSH1 0xE1 SHL DUP2 MSTORE PUSH1 0x4 DUP2 ADD DUP5 SWAP1 MSTORE PUSH1 0x24 SWAP1 REVERT JUMPDEST ADD SWAP1 POP REVERT JUMPDEST PUSH1 0x60 SWAP3 POP PUSH2 0x12F6 JUMP JUMPDEST SWAP2 SWAP5 POP SWAP2 POP PUSH4 0xFFFFFFFF PUSH1 0xE0 SHL AND SUB PUSH2 0x1342 JUMPI POP PUSH0 DUP1 DUP1 DUP1 PUSH2 0x1260 JUMP JUMPDEST PUSH1 0x24 SWAP1 PUSH1 0x40 MLOAD SWAP1 PUSH4 0x32505749 PUSH1 0xE1 SHL DUP3 MSTORE PUSH1 0x4 DUP3 ADD MSTORE REVERT JUMPDEST SWAP1 SWAP2 POP DUP5 DUP2 DUP2 RETURNDATASIZE DUP4 GT PUSH2 0x1397 JUMPI JUMPDEST PUSH2 0x1372 DUP2 DUP4 PUSH2 0xFBA JUMP JUMPDEST DUP2 ADD SUB SLT PUSH2 0x1393 JUMPI MLOAD PUSH1 0x1 PUSH1 0x1 PUSH1 0xE0 SHL SUB NOT DUP2 AND DUP2 SUB PUSH2 0x1393 JUMPI SWAP1 PUSH0 PUSH2 0x12C5 JUMP JUMPDEST DUP7 DUP1 REVERT JUMPDEST POP RETURNDATASIZE PUSH2 0x1368 JUMP JUMPDEST PUSH0 DUP2 DUP2 MSTORE PUSH1 0x2 PUSH1 0x20 MSTORE PUSH1 0x40 SWAP1 KECCAK256 SLOAD PUSH1 0x1 PUSH1 0x1 PUSH1 0xA0 SHL SUB AND SWAP1 DUP2 ISZERO PUSH2 0x13C0 JUMPI POP SWAP1 JUMP JUMPDEST PUSH1 0x24 SWAP1 PUSH1 0x40 MLOAD SWAP1 PUSH4 0x7E273289 PUSH1 0xE0 SHL DUP3 MSTORE PUSH1 0x4 DUP3 ADD MSTORE REVERT JUMPDEST DUP1 MLOAD ISZERO PUSH2 0x14ED JUMPI DUP1 MLOAD PUSH1 0x2 SWAP2 DUP3 DUP3 ADD DUP1 SWAP3 GT PUSH2 0x14D9 JUMPI PUSH1 0x3 SWAP2 DUP3 SWAP1 DIV DUP1 DUP5 SHL SWAP5 SWAP1 PUSH1 0x1 PUSH1 0x1 PUSH1 0xFE SHL SUB DUP2 AND SUB PUSH2 0x14D9 JUMPI SWAP3 PUSH2 0x142B PUSH2 0x1415 DUP7 PUSH2 0xFDC JUMP JUMPDEST SWAP6 PUSH2 0x1423 PUSH1 0x40 MLOAD SWAP8 DUP9 PUSH2 0xFBA JUMP JUMPDEST DUP1 DUP8 MSTORE PUSH2 0xFDC JUMP JUMPDEST PUSH1 0x20 DUP7 ADD SWAP1 PUSH1 0x1F NOT ADD CALLDATASIZE DUP3 CALLDATACOPY SWAP4 DUP3 SWAP2 DUP4 MLOAD DUP5 ADD SWAP1 PUSH1 0x20 DUP3 ADD SWAP3 DUP4 MLOAD SWAP5 PUSH0 DUP6 MSTORE JUMPDEST DUP4 DUP2 LT PUSH2 0x1488 JUMPI POP POP POP POP MSTORE MLOAD MOD DUP1 PUSH1 0x1 EQ PUSH2 0x1476 JUMPI PUSH1 0x2 EQ PUSH2 0x146C JUMPI POP SWAP1 JUMP JUMPDEST PUSH1 0x3D SWAP1 PUSH0 NOT ADD MSTORE8 SWAP1 JUMP JUMPDEST POP PUSH1 0x3D SWAP1 DUP2 PUSH0 NOT DUP3 ADD MSTORE8 PUSH1 0x1 NOT ADD MSTORE8 SWAP1 JUMP JUMPDEST DUP8 PUSH1 0x4 SWAP2 SWAP10 SWAP3 SWAP4 SWAP5 SWAP10 ADD SWAP2 DUP3 MLOAD PUSH1 0x1 SWAP1 PUSH1 0x3F SWAP1 DUP3 DUP3 DUP3 PUSH1 0x12 SHR AND DUP9 ADD ADD MLOAD DUP5 MSTORE8 DUP3 DUP3 DUP3 PUSH1 0xC SHR AND DUP9 ADD ADD MLOAD DUP4 DUP6 ADD MSTORE8 DUP3 DUP3 DUP3 PUSH1 0x6 SHR AND DUP9 ADD ADD MLOAD DUP9 DUP6 ADD MSTORE8 AND DUP6 ADD ADD MLOAD DUP10 DUP3 ADD MSTORE8 ADD SWAP8 SWAP3 SWAP2 SWAP1 PUSH2 0x144B JUMP JUMPDEST PUSH4 0x4E487B71 PUSH1 0xE0 SHL PUSH0 MSTORE PUSH1 0x11 PUSH1 0x4 MSTORE PUSH1 0x24 PUSH0 REVERT JUMPDEST POP POP PUSH1 0x40 MLOAD PUSH2 0x14FB DUP2 PUSH2 0xF8A JUMP JUMPDEST PUSH0 DUP2 MSTORE SWAP1 JUMP INVALID LOG2 PUSH5 0x6970667358 0x22 SLT KECCAK256 MSTORE8 MULMOD 0xCB 0xC2 SDIV PUSH27 0xE06945209C194BE65BBD9C4BCC83BFF02AB1725D5A79C3D1E05F64 PUSH20 0x6F6C634300081400330000000000000000000000 "
		},
		"gasEstimates": {
			"creation": {
				"codeDepositCost": "1086200",
				"executionCost": "infinite",
				"totalCost": "infinite"
			},
			"external": {
				"approve(address,uint256)": "31130",
				"balanceOf(address)": "2628",
				"disableMinting()": "26777",
				"factory()": "2671",
				"getApproved(uint256)": "4647",
				"getTokenImage(uint256)": "infinite",
				"isApprovedForAll(address,address)": "3021",
				"mintWithIPFS(address,string,string,string)": "infinite",
				"mintingEnabled()": "2602",
				"name()": "infinite",
				"owner()": "2561",
				"ownerOf(uint256)": "2591",
				"renounceOwnership()": "infinite",
				"safeTransferFrom(address,address,uint256)": "infinite",
				"safeTransferFrom(address,address,uint256,bytes)": "infinite",
				"setApprovalForAll(address,bool)": "26778",
				"supportsInterface(bytes4)": "392",
				"symbol()": "infinite",
				"tokenURI(uint256)": "infinite",
				"totalSupply()": "2364",
				"transferFrom(address,address,uint256)": "106418",
				"transferOwnership(address)": "28632"
			}
		},
		"methodIdentifiers": {
			"approve(address,uint256)": "095ea7b3",
			"balanceOf(address)": "70a08231",
			"disableMinting()": "7e5cd5c1",
			"factory()": "c45a0155",
			"getApproved(uint256)": "081812fc",
			"getTokenImage(uint256)": "71f0442e",
			"isApprovedForAll(address,address)": "e985e9c5",
			"mintWithIPFS(address,string,string,string)": "c5aef310",
			"mintingEnabled()": "9fd6db12",
			"name()": "06fdde03",
			"owner()": "8da5cb5b",
			"ownerOf(uint256)": "6352211e",
			"renounceOwnership()": "715018a6",
			"safeTransferFrom(address,address,uint256)": "42842e0e",
			"safeTransferFrom(address,address,uint256,bytes)": "b88d4fde",
			"setApprovalForAll(address,bool)": "a22cb465",
			"supportsInterface(bytes4)": "01ffc9a7",
			"symbol()": "95d89b41",
			"tokenURI(uint256)": "c87b56dd",
			"totalSupply()": "18160ddd",
			"transferFrom(address,address,uint256)": "23b872dd",
			"transferOwnership(address)": "f2fde38b"
		}
	},
	"abi": [
		{
			"inputs": [
				{
					"internalType": "address",
					"name": "initialOwner",
					"type": "address"
				},
				{
					"internalType": "string",
					"name": "name_",
					"type": "string"
				},
				{
					"internalType": "string",
					"name": "symbol_",
					"type": "string"
				}
			],
			"stateMutability": "nonpayable",
			"type": "constructor"
		},
		{
			"inputs": [
				{
					"internalType": "address",
					"name": "sender",
					"type": "address"
				},
				{
					"internalType": "uint256",
					"name": "tokenId",
					"type": "uint256"
				},
				{
					"internalType": "address",
					"name": "owner",
					"type": "address"
				}
			],
			"name": "ERC721IncorrectOwner",
			"type": "error"
		},
		{
			"inputs": [
				{
					"internalType": "address",
					"name": "operator",
					"type": "address"
				},
				{
					"internalType": "uint256",
					"name": "tokenId",
					"type": "uint256"
				}
			],
			"name": "ERC721InsufficientApproval",
			"type": "error"
		},
		{
			"inputs": [
				{
					"internalType": "address",
					"name": "approver",
					"type": "address"
				}
			],
			"name": "ERC721InvalidApprover",
			"type": "error"
		},
		{
			"inputs": [
				{
					"internalType": "address",
					"name": "operator",
					"type": "address"
				}
			],
			"name": "ERC721InvalidOperator",
			"type": "error"
		},
		{
			"inputs": [
				{
					"internalType": "address",
					"name": "owner",
					"type": "address"
				}
			],
			"name": "ERC721InvalidOwner",
			"type": "error"
		},
		{
			"inputs": [
				{
					"internalType": "address",
					"name": "receiver",
					"type": "address"
				}
			],
			"name": "ERC721InvalidReceiver",
			"type": "error"
		},
		{
			"inputs": [
				{
					"internalType": "address",
					"name": "sender",
					"type": "address"
				}
			],
			"name": "ERC721InvalidSender",
			"type": "error"
		},
		{
			"inputs": [
				{
					"internalType": "uint256",
					"name": "tokenId",
					"type": "uint256"
				}
			],
			"name": "ERC721NonexistentToken",
			"type": "error"
		},
		{
			"inputs": [
				{
					"internalType": "address",
					"name": "owner",
					"type": "address"
				}
			],
			"name": "OwnableInvalidOwner",
			"type": "error"
		},
		{
			"inputs": [
				{
					"internalType": "address",
					"name": "account",
					"type": "address"
				}
			],
			"name": "OwnableUnauthorizedAccount",
			"type": "error"
		},
		{
			"anonymous": false,
			"inputs": [
				{
					"indexed": true,
					"internalType": "address",
					"name": "owner",
					"type": "address"
				},
				{
					"indexed": true,
					"internalType": "address",
					"name": "approved",
					"type": "address"
				},
				{
					"indexed": true,
					"internalType": "uint256",
					"name": "tokenId",
					"type": "uint256"
				}
			],
			"name": "Approval",
			"type": "event"
		},
		{
			"anonymous": false,
			"inputs": [
				{
					"indexed": true,
					"internalType": "address",
					"name": "owner",
					"type": "address"
				},
				{
					"indexed": true,
					"internalType": "address",
					"name": "operator",
					"type": "address"
				},
				{
					"indexed": false,
					"internalType": "bool",
					"name": "approved",
					"type": "bool"
				}
			],
			"name": "ApprovalForAll",
			"type": "event"
		},
		{
			"anonymous": false,
			"inputs": [
				{
					"indexed": false,
					"internalType": "uint256",
					"name": "_fromTokenId",
					"type": "uint256"
				},
				{
					"indexed": false,
					"internalType": "uint256",
					"name": "_toTokenId",
					"type": "uint256"
				}
			],
			"name": "BatchMetadataUpdate",
			"type": "event"
		},
		{
			"anonymous": false,
			"inputs": [
				{
					"indexed": false,
					"internalType": "uint256",
					"name": "_tokenId",
					"type": "uint256"
				}
			],
			"name": "MetadataUpdate",
			"type": "event"
		},
		{
			"anonymous": false,
			"inputs": [
				{
					"indexed": true,
					"internalType": "address",
					"name": "previousOwner",
					"type": "address"
				},
				{
					"indexed": true,
					"internalType": "address",
					"name": "newOwner",
					"type": "address"
				}
			],
			"name": "OwnershipTransferred",
			"type": "event"
		},
		{
			"anonymous": false,
			"inputs": [
				{
					"indexed": true,
					"internalType": "address",
					"name": "from",
					"type": "address"
				},
				{
					"indexed": true,
					"internalType": "address",
					"name": "to",
					"type": "address"
				},
				{
					"indexed": true,
					"internalType": "uint256",
					"name": "tokenId",
					"type": "uint256"
				}
			],
			"name": "Transfer",
			"type": "event"
		},
		{
			"inputs": [
				{
					"internalType": "address",
					"name": "to",
					"type": "address"
				},
				{
					"internalType": "uint256",
					"name": "tokenId",
					"type": "uint256"
				}
			],
			"name": "approve",
			"outputs": [],
			"stateMutability": "nonpayable",
			"type": "function"
		},
		{
			"inputs": [
				{
					"internalType": "address",
					"name": "owner",
					"type": "address"
				}
			],
			"name": "balanceOf",
			"outputs": [
				{
					"internalType": "uint256",
					"name": "",
					"type": "uint256"
				}
			],
			"stateMutability": "view",
			"type": "function"
		},
		{
			"inputs": [],
			"name": "disableMinting",
			"outputs": [],
			"stateMutability": "nonpayable",
			"type": "function"
		},
		{
			"inputs": [],
			"name": "factory",
			"outputs": [
				{
					"internalType": "address",
					"name": "",
					"type": "address"
				}
			],
			"stateMutability": "view",
			"type": "function"
		},
		{
			"inputs": [
				{
					"internalType": "uint256",
					"name": "tokenId",
					"type": "uint256"
				}
			],
			"name": "getApproved",
			"outputs": [
				{
					"internalType": "address",
					"name": "",
					"type": "address"
				}
			],
			"stateMutability": "view",
			"type": "function"
		},
		{
			"inputs": [
				{
					"internalType": "uint256",
					"name": "tokenId",
					"type": "uint256"
				}
			],
			"name": "getTokenImage",
			"outputs": [
				{
					"internalType": "string",
					"name": "",
					"type": "string"
				}
			],
			"stateMutability": "view",
			"type": "function"
		},
		{
			"inputs": [
				{
					"internalType": "address",
					"name": "owner",
					"type": "address"
				},
				{
					"internalType": "address",
					"name": "operator",
					"type": "address"
				}
			],
			"name": "isApprovedForAll",
			"outputs": [
				{
					"internalType": "bool",
					"name": "",
					"type": "bool"
				}
			],
			"stateMutability": "view",
			"type": "function"
		},
		{
			"inputs": [
				{
					"internalType": "address",
					"name": "recipient",
					"type": "address"
				},
				{
					"internalType": "string",
					"name": "imageURI",
					"type": "string"
				},
				{
					"internalType": "string",
					"name": "name",
					"type": "string"
				},
				{
					"internalType": "string",
					"name": "description",
					"type": "string"
				}
			],
			"name": "mintWithIPFS",
			"outputs": [
				{
					"internalType": "uint256",
					"name": "",
					"type": "uint256"
				}
			],
			"stateMutability": "nonpayable",
			"type": "function"
		},
		{
			"inputs": [],
			"name": "mintingEnabled",
			"outputs": [
				{
					"internalType": "bool",
					"name": "",
					"type": "bool"
				}
			],
			"stateMutability": "view",
			"type": "function"
		},
		{
			"inputs": [],
			"name": "name",
			"outputs": [
				{
					"internalType": "string",
					"name": "",
					"type": "string"
				}
			],
			"stateMutability": "view",
			"type": "function"
		},
		{
			"inputs": [],
			"name": "owner",
			"outputs": [
				{
					"internalType": "address",
					"name": "",
					"type": "address"
				}
			],
			"stateMutability": "view",
			"type": "function"
		},
		{
			"inputs": [
				{
					"internalType": "uint256",
					"name": "tokenId",
					"type": "uint256"
				}
			],
			"name": "ownerOf",
			"outputs": [
				{
					"internalType": "address",
					"name": "",
					"type": "address"
				}
			],
			"stateMutability": "view",
			"type": "function"
		},
		{
			"inputs": [],
			"name": "renounceOwnership",
			"outputs": [],
			"stateMutability": "nonpayable",
			"type": "function"
		},
		{
			"inputs": [
				{
					"internalType": "address",
					"name": "from",
					"type": "address"
				},
				{
					"internalType": "address",
					"name": "to",
					"type": "address"
				},
				{
					"internalType": "uint256",
					"name": "tokenId",
					"type": "uint256"
				}
			],
			"name": "safeTransferFrom",
			"outputs": [],
			"stateMutability": "nonpayable",
			"type": "function"
		},
		{
			"inputs": [
				{
					"internalType": "address",
					"name": "from",
					"type": "address"
				},
				{
					"internalType": "address",
					"name": "to",
					"type": "address"
				},
				{
					"internalType": "uint256",
					"name": "tokenId",
					"type": "uint256"
				},
				{
					"internalType": "bytes",
					"name": "data",
					"type": "bytes"
				}
			],
			"name": "safeTransferFrom",
			"outputs": [],
			"stateMutability": "nonpayable",
			"type": "function"
		},
		{
			"inputs": [
				{
					"internalType": "address",
					"name": "operator",
					"type": "address"
				},
				{
					"internalType": "bool",
					"name": "approved",
					"type": "bool"
				}
			],
			"name": "setApprovalForAll",
			"outputs": [],
			"stateMutability": "nonpayable",
			"type": "function"
		},
		{
			"inputs": [
				{
					"internalType": "bytes4",
					"name": "interfaceId",
					"type": "bytes4"
				}
			],
			"name": "supportsInterface",
			"outputs": [
				{
					"internalType": "bool",
					"name": "",
					"type": "bool"
				}
			],
			"stateMutability": "view",
			"type": "function"
		},
		{
			"inputs": [],
			"name": "symbol",
			"outputs": [
				{
					"internalType": "string",
					"name": "",
					"type": "string"
				}
			],
			"stateMutability": "view",
			"type": "function"
		},
		{
			"inputs": [
				{
					"internalType": "uint256",
					"name": "tokenId",
					"type": "uint256"
				}
			],
			"name": "tokenURI",
			"outputs": [
				{
					"internalType": "string",
					"name": "",
					"type": "string"
				}
			],
			"stateMutability": "view",
			"type": "function"
		},
		{
			"inputs": [],
			"name": "totalSupply",
			"outputs": [
				{
					"internalType": "uint256",
					"name": "",
					"type": "uint256"
				}
			],
			"stateMutability": "view",
			"type": "function"
		},
		{
			"inputs": [
				{
					"internalType": "address",
					"name": "from",
					"type": "address"
				},
				{
					"internalType": "address",
					"name": "to",
					"type": "address"
				},
				{
					"internalType": "uint256",
					"name": "tokenId",
					"type": "uint256"
				}
			],
			"name": "transferFrom",
			"outputs": [],
			"stateMutability": "nonpayable",
			"type": "function"
		},
		{
			"inputs": [
				{
					"internalType": "address",
					"name": "newOwner",
					"type": "address"
				}
			],
			"name": "transferOwnership",
			"outputs": [],
			"stateMutability": "nonpayable",
			"type": "function"
		}
	]
}