{
	"data": {
		"bytecode": {
			"linkReferences": {},
			"object": "608034620001415762001a4090601f38839003908101601f19168201906001600160401b0382118383101762000145578083916040958694855283398101031262000141576200005d6020620000558362000159565b920162000159565b9033156200012a5762000070336200016e565b5f805460ff60a01b1916600160a01b1790556001600160a01b03908116908115620000fa57821615620000c957600180546001600160a01b0319169091179055620000bb906200016e565b5161188b9081620001b58239f35b825162461bcd60e51b815260206004820152600a602482015269070726f746f636f6c20360b41b6044820152606490fd5b835162461bcd60e51b81526020600482015260096024820152680666163746f727920360bc1b6044820152606490fd5b8251631e4fbdf760e01b81525f6004820152602490fd5b5f80fd5b634e487b7160e01b5f52604160045260245ffd5b51906001600160a01b03821682036200014157565b5f80546001600160a01b039283166001600160a01b03198216811783559216907f8be0079c531659141344cd1fd0a4f28419497f9722a3daafe3b4186f6b6457e09080a356fe6080806040526004361015610012575f80fd5b5f90813560e01c90816305e2e95d146114c7575080630b78f9c0146114585780630c51b88f1461125d5780635519724114611238578063580fc80a146111cf5780635bb4780814611152578063715018a6146110f957806388cc58e4146103ce5780638da5cb5b146110d257806390229af71461085057806396d8ef8e146107d857806397331bf9146106a3578063a444477b146104c1578063b0f07f1514610494578063b1e3a941146103f7578063c45a0155146103ce578063c99cb2b714610343578063d16352af146102b0578063d858a7e514610288578063db8d55f1146101945763f2fde38b14610105575f80fd5b346101915760203660031901126101915761011e6115dc565b610126611639565b6001600160a01b03908116908115610178575f54826bffffffffffffffffffffffff60a01b8216175f55167f8be0079c531659141344cd1fd0a4f28419497f9722a3daafe3b4186f6b6457e05f80a380f35b604051631e4fbdf760e01b815260048101849052602490fd5b80fd5b50346101915780600319360112610191576001546040516318bf741760e31b81526001600160a01b039091169160208083600481875afa92831561027d57829361024c575b50806004946040519586809263f25e78b160e01b82525afa918215610240579161020c575b604080945051928352820152f35b80915083813d8311610239575b61022381836116f1565b810103126102355760409251906101fe565b5f80fd5b503d610219565b604051903d90823e3d90fd5b9392508084813d8311610276575b61026481836116f1565b810103126102355792519192806101d9565b503d61025a565b6040513d84823e3d90fd5b50346101915780600319360112610191576102a1611639565b5f805460ff60a01b1916905580f35b5034610191578060031936011261019157600154604051634673a21360e11b815291906001600160a01b03906020908490600490829085165afa918215610240578092610305575b6020838360405191168152f35b9091506020833d821161033b575b81610320602093836116f1565b810103126101915750610334602092611713565b905f6102f8565b3d9150610313565b5034610191576020366003190112610191578061035e6115dc565b61036e60ff835460a01c16611664565b610376611639565b6001546001600160a01b039081169190823b156103c9576024849283604051958694859363c99cb2b760e01b85521660048401525af1801561027d576103b95750f35b6103c2906116a5565b6101915780f35b505050fd5b50346101915780600319360112610191576001546040516001600160a01b039091168152602090f35b50346101915760209081600319360112610191576104136115dc565b60015460405163b1e3a94160e01b81526001600160a01b0392831660048201529084908290602490829086165afa92831561024057809361045a575b505060405191168152f35b909192508382813d831161048d575b61047381836116f1565b81010312610191575061048590611713565b905f8061044f565b503d610469565b50346101915780600319360112610191576104ad611639565b805460ff60a01b1916600160a01b17815580f35b5034610191576003199060e036830112610191576104dd6115dc565b6084359067ffffffffffffffff9384831161069f573660238401121561069f5782600401359085821161069b578160051b36602482870101116106975760a43587811161069357610532903690600401611608565b92909760c43590811161068f5761054d903690600401611608565b91909361056060ff8a5460a01c16611664565b610568611639565b6001805460405163a444477b60e01b81526001600160a01b03998a16600482015260248035908201526044803590820152606480359082015260e0608482015260e481018990529899908a1697919590916001600160fb1b031061068b57908282610124936024989e9a99986101049401848d01378a019182016101008b84030160a48c015252019590895b81811061066c575050509187918694938587030160c48601528086526020998a8097019291845b81811061064657505050509083809203925af192831561024057809361045a57505060405191168152f35b833585528c8401358d8601528c98508997508b955060409485019490930192820161061b565b8235885260208084013590890152604097880197909201918b016105f4565b8a80fd5b8780fd5b8680fd5b8580fd5b8480fd5b8380fd5b5034610191578060031936011261019157600180546040516397331bf960e01b8152919291906001600160a01b039083908390600490829085165afa9182156107cd578392610732575b50916040939193519260208085019181865286518093528160408701970193905b83821061071b5786880387f35b84518116885296820196938201939085019061070e565b9091503d8084833e61074481836116f1565b810190602090818184031261069b5780519067ffffffffffffffff821161069757019180601f8401121561069b57825161077d81611727565b9361078b60405195866116f1565b818552838086019260051b820101928311610693578301905b8282106107b65750505050905f6106ed565b8380916107c284611713565b8152019101906107a4565b6040513d85823e3d90fd5b503461019157604036600319011261019157806107f36115dc565b6107fb6115f2565b61080b60ff845460a01c16611664565b6001600160a01b0391821691823b156103c95760448492836040519586948593634b6c77c760e11b85521660048401523360248401525af1801561027d576103b95750f35b50346101915760203660031901126101915761086a6115dc565b9060405191610100830183811067ffffffffffffffff8211176110be5760405281835281602084015281604084015260608084015260606080840152606060a08401528160c08401528160e084015260018060a01b0381161561108f57803b15611059576040516308bcf8b560e21b81526020816004816001600160a01b0386165afa839181611028575b5061101f57508183525b604051637e062a3560e11b81526020816004816001600160a01b0386165afa839181610fe3575b50610fd057508160208401525b60405163094b81d360e01b81526020816004816001600160a01b0386165afa839181610f9c575b50610f9257508160408401525b60405163359cfbf760e01b81526020816004816001600160a01b0386165afa839181610f5e575b50610e8657506040516109a0816116d5565b82815260608401525b60405163c122c2a160e01b81526020816004816001600160a01b0386165afa839181610e52575b50610d7b57506040516109e2816116d5565b5f815260808401525b60405163b9b792cd60e01b81526020816004816001600160a01b0386165afa839181610d47575b50610c545750604051610a24816116d5565b5f815260a08401525b6040516341b3d18560e01b81526020816004816001600160a01b0386165afa839181610c1d575b5091602091600493155f14610c1357508360c08601525b604051633041f2cd60e11b815292839182906001600160a01b03165afa829181610bdf575b50610bd557508060e08301525b604051906020825261012082019083511515602084015260018060a01b036020850151166040840152604084015160608401526060840151916101006080850152825180915260206101408501930190825b818110610bbf575050506080840151601f1992838582030160a086015260208083519283815201920190835b818110610b915750505060a0850151928482030160c0850152602080845192838152019301915b818110610b655750505060e08360c0849501518285015201516101008301520390f35b9091926020610b87600192865190602060409280518352015160208201520190565b9401929101610b42565b909193926020610bb4600192875190602060409280518352015160208201520190565b949501929101610b1b565b8251855260209485019490920191600101610aef565b60e0830152610a9d565b9091506020813d602011610c0b575b81610bfb602093836116f1565b810103126102355751905f610a90565b3d9150610bee565b60c0860152610a6b565b9150916020823d602011610c4c575b81610c39602093836116f1565b8101031261023557905190916004610a54565b3d9150610c2c565b610c5d816117df565b60a0850152825b818110610c72575050610a2d565b6040805163503306fd60e11b815260048101839052610ce792918290826024816001600160a01b038a165afa918288918994610d14575b50610cec5750610ce19150604051610cc0816116b9565b878152612710602082015260a089015190610cdb83836117b7565b526117b7565b50611795565b610c64565b610ce19260405191610cfd836116b9565b8252602082015260a089015190610cdb83836117b7565b909350610d39915060403d604011610d40575b610d3181836116f1565b81019061183f565b925f610ca9565b503d610d27565b9091506020813d602011610d73575b81610d63602093836116f1565b810103126102355751905f610a12565b3d9150610d56565b610d84816117df565b6080850152825b818110610d995750506109eb565b60408051635350cbd960e01b815260048101839052610e0292918290826024816001600160a01b038a165afa918288918994610e2f575b50610e075750610ce19150604051610de7816116b9565b8781526127106020820152608089015190610cdb83836117b7565b610d8b565b610ce19260405191610e18836116b9565b82526020820152608089015190610cdb83836117b7565b909350610e4b915060403d604011610d4057610d3181836116f1565b925f610dd0565b9091506020813d602011610e7e575b81610e6e602093836116f1565b810103126102355751905f6109d0565b3d9150610e61565b610e8f81611727565b610e9c60405191826116f1565b818152601f19610eab83611727565b013660208301376060850152825b818110610ec75750506109a9565b6040516310390d3560e01b815260048101829052906020826024816001600160a01b0388165afa808691610f28575b610f159350610f1a575084610f0f8260608901516117b7565b52611795565b610eb9565b610f0f8260608901516117b7565b90506020833d602011610f56575b81610f43602093836116f1565b8101031261023557610f15925190610ef6565b3d9150610f36565b9091506020813d602011610f8a575b81610f7a602093836116f1565b810103126102355751905f61098e565b3d9150610f6d565b6040840152610967565b9091506020813d602011610fc8575b81610fb8602093836116f1565b8101031261069f5751905f61095a565b3d9150610fab565b6001600160a01b03166020840152610933565b9091506020813d602011611017575b81610fff602093836116f1565b8101031261069f5761101090611713565b905f610926565b3d9150610ff2565b151583526108ff565b61104b91925060203d602011611052575b61104381836116f1565b81019061177d565b905f6108f5565b503d611039565b60405162461bcd60e51b815260206004820152600e60248201526d1b9bdd08184818dbdb9d1c9858dd60921b6044820152606490fd5b60405162461bcd60e51b815260206004820152600760248201526607661756c7420360cc1b6044820152606490fd5b634e487b7160e01b5f52604160045260245ffd5b5034610191578060031936011261019157546040516001600160a01b039091168152602090f35b5034610191578060031936011261019157611112611639565b5f80546001600160a01b0319811682556001600160a01b03167f8be0079c531659141344cd1fd0a4f28419497f9722a3daafe3b4186f6b6457e08280a380f35b50346101915760203660031901126101915761116c6115dc565b611174611639565b6001600160a01b0316801561119e576bffffffffffffffffffffffff60a01b600154161760015580f35b60405162461bcd60e51b81526020600482015260096024820152680666163746f727920360bc1b6044820152606490fd5b503461019157602036600319011261019157806111ea6115dc565b6111fa60ff835460a01c16611664565b6001600160a01b0316803b1561123557818091602460405180948193632c07e40560e11b83523360048401525af1801561027d576103b95750f35b50fd5b503461019157806003193601126101915760ff6020915460a01c166040519015158152f35b5034610191576060366003190112610191576112776115dc565b906024803561128c60ff845460a01c16611664565b6040516323b872dd60e01b60208083019182523383860152306044840152606480840185905283526001600160a01b03968716949290919060a0810167ffffffffffffffff8111828210176114455760405251829187919082885af11561143a5784513d6114315750833b155b61141a578582828798600154166040519283809263b1e3a94160e01b82528a60048301525afa91821561140f578792849284916113d4575b50169561133f87151561173f565b60446040518094819363095ea7b360e01b83528a600484015289898401525af180156113c9576113ab575b5050823b156103c95760648492836040519586948593632c6c3af360e21b85526004850152604435908401523360448401525af1801561027d576103b95750f35b816113c192903d106110525761104381836116f1565b505f8061136a565b6040513d88823e3d90fd5b92809294508391503d8311611408575b6113ee81836116f1565b810103126106935786916114028492611713565b5f611331565b503d6113e4565b6040513d89823e3d90fd5b50604051635274afe760e01b815260048101849052fd5b600114156112f9565b6040513d86823e3d90fd5b84634e487b7160e01b5f5260416004525ffd5b503461019157604036600319011261019157611472611639565b60015481906001600160a01b0316803b15611235578190604460405180948193622de3e760e61b8352600435600484015260243560248401525af1801561027d576114bb575080f35b6114c4906116a5565b80f35b8234610191576040366003190112610191576114e16115dc565b6114e96115f2565b60015463b1e3a94160e01b85526001600160a01b0392831660048601526020949192919085908290602490829086165afa90811561143a579085929185916115a0575b5081602491169361153e85151561173f565b60405194859384926318e521fd60e21b84521660048301525afa918215610240578092611570575b5050604051908152f35b9091508282813d8311611599575b61158881836116f1565b810103126101915750518280611566565b503d61157e565b8381939492503d83116115d5575b6115b881836116f1565b8101031261069f57906024816115ce8794611713565b915061152c565b503d6115ae565b600435906001600160a01b038216820361023557565b602435906001600160a01b038216820361023557565b9181601f840112156102355782359167ffffffffffffffff8311610235576020808501948460061b01011161023557565b5f546001600160a01b0316330361164c57565b60405163118cdaa760e01b8152336004820152602490fd5b1561166b57565b60405162461bcd60e51b8152602060048201526012602482015271149bdd5d195c881a5cc8191a5cd8589b195960721b6044820152606490fd5b67ffffffffffffffff81116110be57604052565b6040810190811067ffffffffffffffff8211176110be57604052565b6020810190811067ffffffffffffffff8211176110be57604052565b90601f8019910116810190811067ffffffffffffffff8211176110be57604052565b51906001600160a01b038216820361023557565b67ffffffffffffffff81116110be5760051b60200190565b1561174657565b60405162461bcd60e51b815260206004820152600f60248201526e1d985d5b1d081b9bdd08199bdd5b99608a1b6044820152606490fd5b90816020910312610235575180151581036102355790565b5f1981146117a35760010190565b634e487b7160e01b5f52601160045260245ffd5b80518210156117cb5760209160051b010190565b634e487b7160e01b5f52603260045260245ffd5b906117e982611727565b6040906117f8825191826116f1565b8381528093611809601f1991611727565b01915f90815b84811061181d575050505050565b602090825161182b816116b9565b84815282858183015282870101520161180f565b919082604091031261023557602082519201519056fea264697066735822122018ac7acf0f4e1d5ddcfe821f751257d85d5bf2d57e711b2a4bdebc163e819e6764736f6c63430008140033",
			"opcodes": "PUSH1 0x80 CALLVALUE PUSH3 0x141 JUMPI PUSH3 0x1A40 SWAP1 PUSH1 0x1F CODESIZE DUP4 SWAP1 SUB SWAP1 DUP2 ADD PUSH1 0x1F NOT AND DUP3 ADD SWAP1 PUSH1 0x1 PUSH1 0x1 PUSH1 0x40 SHL SUB DUP3 GT DUP4 DUP4 LT OR PUSH3 0x145 JUMPI DUP1 DUP4 SWAP2 PUSH1 0x40 SWAP6 DUP7 SWAP5 DUP6 MSTORE DUP4 CODECOPY DUP2 ADD SUB SLT PUSH3 0x141 JUMPI PUSH3 0x5D PUSH1 0x20 PUSH3 0x55 DUP4 PUSH3 0x159 JUMP JUMPDEST SWAP3 ADD PUSH3 0x159 JUMP JUMPDEST SWAP1 CALLER ISZERO PUSH3 0x12A JUMPI PUSH3 0x70 CALLER PUSH3 0x16E JUMP JUMPDEST PUSH0 DUP1 SLOAD PUSH1 0xFF PUSH1 0xA0 SHL NOT AND PUSH1 0x1 PUSH1 0xA0 SHL OR SWAP1 SSTORE PUSH1 0x1 PUSH1 0x1 PUSH1 0xA0 SHL SUB SWAP1 DUP2 AND SWAP1 DUP2 ISZERO PUSH3 0xFA JUMPI DUP3 AND ISZERO PUSH3 0xC9 JUMPI PUSH1 0x1 DUP1 SLOAD PUSH1 0x1 PUSH1 0x1 PUSH1 0xA0 SHL SUB NOT AND SWAP1 SWAP2 OR SWAP1 SSTORE PUSH3 0xBB SWAP1 PUSH3 0x16E JUMP JUMPDEST MLOAD PUSH2 0x188B SWAP1 DUP2 PUSH3 0x1B5 DUP3 CODECOPY RETURN JUMPDEST DUP3 MLOAD PUSH3 0x461BCD PUSH1 0xE5 SHL DUP2 MSTORE PUSH1 0x20 PUSH1 0x4 DUP3 ADD MSTORE PUSH1 0xA PUSH1 0x24 DUP3 ADD MSTORE PUSH10 0x70726F746F636F6C203 PUSH1 0xB4 SHL PUSH1 0x44 DUP3 ADD MSTORE PUSH1 0x64 SWAP1 REVERT JUMPDEST DUP4 MLOAD PUSH3 0x461BCD PUSH1 0xE5 SHL DUP2 MSTORE PUSH1 0x20 PUSH1 0x4 DUP3 ADD MSTORE PUSH1 0x9 PUSH1 0x24 DUP3 ADD MSTORE PUSH9 0x666163746F7279203 PUSH1 0xBC SHL PUSH1 0x44 DUP3 ADD MSTORE PUSH1 0x64 SWAP1 REVERT JUMPDEST DUP3 MLOAD PUSH4 0x1E4FBDF7 PUSH1 0xE0 SHL DUP2 MSTORE PUSH0 PUSH1 0x4 DUP3 ADD MSTORE PUSH1 0x24 SWAP1 REVERT JUMPDEST PUSH0 DUP1 REVERT JUMPDEST PUSH4 0x4E487B71 PUSH1 0xE0 SHL PUSH0 MSTORE PUSH1 0x41 PUSH1 0x4 MSTORE PUSH1 0x24 PUSH0 REVERT JUMPDEST MLOAD SWAP1 PUSH1 0x1 PUSH1 0x1 PUSH1 0xA0 SHL SUB DUP3 AND DUP3 SUB PUSH3 0x141 JUMPI JUMP JUMPDEST PUSH0 DUP1 SLOAD PUSH1 0x1 PUSH1 0x1 PUSH1 0xA0 SHL SUB SWAP3 DUP4 AND PUSH1 0x1 PUSH1 0x1 PUSH1 0xA0 SHL SUB NOT DUP3 AND DUP2 OR DUP4 SSTORE SWAP3 AND SWAP1 PUSH32 0x8BE0079C531659141344CD1FD0A4F28419497F9722A3DAAFE3B4186F6B6457E0 SWAP1 DUP1 LOG3 JUMP INVALID PUSH1 0x80 DUP1 PUSH1 0x40 MSTORE PUSH1 0x4 CALLDATASIZE LT ISZERO PUSH2 0x12 JUMPI PUSH0 DUP1 REVERT JUMPDEST PUSH0 SWAP1 DUP2 CALLDATALOAD PUSH1 0xE0 SHR SWAP1 DUP2 PUSH4 0x5E2E95D EQ PUSH2 0x14C7 JUMPI POP DUP1 PUSH4 0xB78F9C0 EQ PUSH2 0x1458 JUMPI DUP1 PUSH4 0xC51B88F EQ PUSH2 0x125D JUMPI DUP1 PUSH4 0x55197241 EQ PUSH2 0x1238 JUMPI DUP1 PUSH4 0x580FC80A EQ PUSH2 0x11CF JUMPI DUP1 PUSH4 0x5BB47808 EQ PUSH2 0x1152 JUMPI DUP1 PUSH4 0x715018A6 EQ PUSH2 0x10F9 JUMPI DUP1 PUSH4 0x88CC58E4 EQ PUSH2 0x3CE JUMPI DUP1 PUSH4 0x8DA5CB5B EQ PUSH2 0x10D2 JUMPI DUP1 PUSH4 0x90229AF7 EQ PUSH2 0x850 JUMPI DUP1 PUSH4 0x96D8EF8E EQ PUSH2 0x7D8 JUMPI DUP1 PUSH4 0x97331BF9 EQ PUSH2 0x6A3 JUMPI DUP1 PUSH4 0xA444477B EQ PUSH2 0x4C1 JUMPI DUP1 PUSH4 0xB0F07F15 EQ PUSH2 0x494 JUMPI DUP1 PUSH4 0xB1E3A941 EQ PUSH2 0x3F7 JUMPI DUP1 PUSH4 0xC45A0155 EQ PUSH2 0x3CE JUMPI DUP1 PUSH4 0xC99CB2B7 EQ PUSH2 0x343 JUMPI DUP1 PUSH4 0xD16352AF EQ PUSH2 0x2B0 JUMPI DUP1 PUSH4 0xD858A7E5 EQ PUSH2 0x288 JUMPI DUP1 PUSH4 0xDB8D55F1 EQ PUSH2 0x194 JUMPI PUSH4 0xF2FDE38B EQ PUSH2 0x105 JUMPI PUSH0 DUP1 REVERT JUMPDEST CALLVALUE PUSH2 0x191 JUMPI PUSH1 0x20 CALLDATASIZE PUSH1 0x3 NOT ADD SLT PUSH2 0x191 JUMPI PUSH2 0x11E PUSH2 0x15DC JUMP JUMPDEST PUSH2 0x126 PUSH2 0x1639 JUMP JUMPDEST PUSH1 0x1 PUSH1 0x1 PUSH1 0xA0 SHL SUB SWAP1 DUP2 AND SWAP1 DUP2 ISZERO PUSH2 0x178 JUMPI PUSH0 SLOAD DUP3 PUSH12 0xFFFFFFFFFFFFFFFFFFFFFFFF PUSH1 0xA0 SHL DUP3 AND OR PUSH0 SSTORE AND PUSH32 0x8BE0079C531659141344CD1FD0A4F28419497F9722A3DAAFE3B4186F6B6457E0 PUSH0 DUP1 LOG3 DUP1 RETURN JUMPDEST PUSH1 0x40 MLOAD PUSH4 0x1E4FBDF7 PUSH1 0xE0 SHL DUP2 MSTORE PUSH1 0x4 DUP2 ADD DUP5 SWAP1 MSTORE PUSH1 0x24 SWAP1 REVERT JUMPDEST DUP1 REVERT JUMPDEST POP CALLVALUE PUSH2 0x191 JUMPI DUP1 PUSH1 0x3 NOT CALLDATASIZE ADD SLT PUSH2 0x191 JUMPI PUSH1 0x1 SLOAD PUSH1 0x40 MLOAD PUSH4 0x18BF7417 PUSH1 0xE3 SHL DUP2 MSTORE PUSH1 0x1 PUSH1 0x1 PUSH1 0xA0 SHL SUB SWAP1 SWAP2 AND SWAP2 PUSH1 0x20 DUP1 DUP4 PUSH1 0x4 DUP2 DUP8 GAS STATICCALL SWAP3 DUP4 ISZERO PUSH2 0x27D JUMPI DUP3 SWAP4 PUSH2 0x24C JUMPI JUMPDEST POP DUP1 PUSH1 0x4 SWAP5 PUSH1 0x40 MLOAD SWAP6 DUP7 DUP1 SWAP3 PUSH4 0xF25E78B1 PUSH1 0xE0 SHL DUP3 MSTORE GAS STATICCALL SWAP2 DUP3 ISZERO PUSH2 0x240 JUMPI SWAP2 PUSH2 0x20C JUMPI JUMPDEST PUSH1 0x40 DUP1 SWAP5 POP MLOAD SWAP3 DUP4 MSTORE DUP3 ADD MSTORE RETURN JUMPDEST DUP1 SWAP2 POP DUP4 DUP2 RETURNDATASIZE DUP4 GT PUSH2 0x239 JUMPI JUMPDEST PUSH2 0x223 DUP2 DUP4 PUSH2 0x16F1 JUMP JUMPDEST DUP2 ADD SUB SLT PUSH2 0x235 JUMPI PUSH1 0x40 SWAP3 MLOAD SWAP1 PUSH2 0x1FE JUMP JUMPDEST PUSH0 DUP1 REVERT JUMPDEST POP RETURNDATASIZE PUSH2 0x219 JUMP JUMPDEST PUSH1 0x40 MLOAD SWAP1 RETURNDATASIZE SWAP1 DUP3 RETURNDATACOPY RETURNDATASIZE SWAP1 REVERT JUMPDEST SWAP4 SWAP3 POP DUP1 DUP5 DUP2 RETURNDATASIZE DUP4 GT PUSH2 0x276 JUMPI JUMPDEST PUSH2 0x264 DUP2 DUP4 PUSH2 0x16F1 JUMP JUMPDEST DUP2 ADD SUB SLT PUSH2 0x235 JUMPI SWAP3 MLOAD SWAP2 SWAP3 DUP1 PUSH2 0x1D9 JUMP JUMPDEST POP RETURNDATASIZE PUSH2 0x25A JUMP JUMPDEST PUSH1 0x40 MLOAD RETURNDATASIZE DUP5 DUP3 RETURNDATACOPY RETURNDATASIZE SWAP1 REVERT JUMPDEST POP CALLVALUE PUSH2 0x191 JUMPI DUP1 PUSH1 0x3 NOT CALLDATASIZE ADD SLT PUSH2 0x191 JUMPI PUSH2 0x2A1 PUSH2 0x1639 JUMP JUMPDEST PUSH0 DUP1 SLOAD PUSH1 0xFF PUSH1 0xA0 SHL NOT AND SWAP1 SSTORE DUP1 RETURN JUMPDEST POP CALLVALUE PUSH2 0x191 JUMPI DUP1 PUSH1 0x3 NOT CALLDATASIZE ADD SLT PUSH2 0x191 JUMPI PUSH1 0x1 SLOAD PUSH1 0x40 MLOAD PUSH4 0x4673A213 PUSH1 0xE1 SHL DUP2 MSTORE SWAP2 SWAP1 PUSH1 0x1 PUSH1 0x1 PUSH1 0xA0 SHL SUB SWAP1 PUSH1 0x20 SWAP1 DUP5 SWAP1 PUSH1 0x4 SWAP1 DUP3 SWAP1 DUP6 AND GAS STATICCALL SWAP2 DUP3 ISZERO PUSH2 0x240 JUMPI DUP1 SWAP3 PUSH2 0x305 JUMPI JUMPDEST PUSH1 0x20 DUP4 DUP4 PUSH1 0x40 MLOAD SWAP2 AND DUP2 MSTORE RETURN JUMPDEST SWAP1 SWAP2 POP PUSH1 0x20 DUP4 RETURNDATASIZE DUP3 GT PUSH2 0x33B JUMPI JUMPDEST DUP2 PUSH2 0x320 PUSH1 0x20 SWAP4 DUP4 PUSH2 0x16F1 JUMP JUMPDEST DUP2 ADD SUB SLT PUSH2 0x191 JUMPI POP PUSH2 0x334 PUSH1 0x20 SWAP3 PUSH2 0x1713 JUMP JUMPDEST SWAP1 PUSH0 PUSH2 0x2F8 JUMP JUMPDEST RETURNDATASIZE SWAP2 POP PUSH2 0x313 JUMP JUMPDEST POP CALLVALUE PUSH2 0x191 JUMPI PUSH1 0x20 CALLDATASIZE PUSH1 0x3 NOT ADD SLT PUSH2 0x191 JUMPI DUP1 PUSH2 0x35E PUSH2 0x15DC JUMP JUMPDEST PUSH2 0x36E PUSH1 0xFF DUP4 SLOAD PUSH1 0xA0 SHR AND PUSH2 0x1664 JUMP JUMPDEST PUSH2 0x376 PUSH2 0x1639 JUMP JUMPDEST PUSH1 0x1 SLOAD PUSH1 0x1 PUSH1 0x1 PUSH1 0xA0 SHL SUB SWAP1 DUP2 AND SWAP2 SWAP1 DUP3 EXTCODESIZE ISZERO PUSH2 0x3C9 JUMPI PUSH1 0x24 DUP5 SWAP3 DUP4 PUSH1 0x40 MLOAD SWAP6 DUP7 SWAP5 DUP6 SWAP4 PUSH4 0xC99CB2B7 PUSH1 0xE0 SHL DUP6 MSTORE AND PUSH1 0x4 DUP5 ADD MSTORE GAS CALL DUP1 ISZERO PUSH2 0x27D JUMPI PUSH2 0x3B9 JUMPI POP RETURN JUMPDEST PUSH2 0x3C2 SWAP1 PUSH2 0x16A5 JUMP JUMPDEST PUSH2 0x191 JUMPI DUP1 RETURN JUMPDEST POP POP POP REVERT JUMPDEST POP CALLVALUE PUSH2 0x191 JUMPI DUP1 PUSH1 0x3 NOT CALLDATASIZE ADD SLT PUSH2 0x191 JUMPI PUSH1 0x1 SLOAD PUSH1 0x40 MLOAD PUSH1 0x1 PUSH1 0x1 PUSH1 0xA0 SHL SUB SWAP1 SWAP2 AND DUP2 MSTORE PUSH1 0x20 SWAP1 RETURN JUMPDEST POP CALLVALUE PUSH2 0x191 JUMPI PUSH1 0x20 SWAP1 DUP2 PUSH1 0x3 NOT CALLDATASIZE ADD SLT PUSH2 0x191 JUMPI PUSH2 0x413 PUSH2 0x15DC JUMP JUMPDEST PUSH1 0x1 SLOAD PUSH1 0x40 MLOAD PUSH4 0xB1E3A941 PUSH1 0xE0 SHL DUP2 MSTORE PUSH1 0x1 PUSH1 0x1 PUSH1 0xA0 SHL SUB SWAP3 DUP4 AND PUSH1 0x4 DUP3 ADD MSTORE SWAP1 DUP5 SWAP1 DUP3 SWAP1 PUSH1 0x24 SWAP1 DUP3 SWAP1 DUP7 AND GAS STATICCALL SWAP3 DUP4 ISZERO PUSH2 0x240 JUMPI DUP1 SWAP4 PUSH2 0x45A JUMPI JUMPDEST POP POP PUSH1 0x40 MLOAD SWAP2 AND DUP2 MSTORE RETURN JUMPDEST SWAP1 SWAP2 SWAP3 POP DUP4 DUP3 DUP2 RETURNDATASIZE DUP4 GT PUSH2 0x48D JUMPI JUMPDEST PUSH2 0x473 DUP2 DUP4 PUSH2 0x16F1 JUMP JUMPDEST DUP2 ADD SUB SLT PUSH2 0x191 JUMPI POP PUSH2 0x485 SWAP1 PUSH2 0x1713 JUMP JUMPDEST SWAP1 PUSH0 DUP1 PUSH2 0x44F JUMP JUMPDEST POP RETURNDATASIZE PUSH2 0x469 JUMP JUMPDEST POP CALLVALUE PUSH2 0x191 JUMPI DUP1 PUSH1 0x3 NOT CALLDATASIZE ADD SLT PUSH2 0x191 JUMPI PUSH2 0x4AD PUSH2 0x1639 JUMP JUMPDEST DUP1 SLOAD PUSH1 0xFF PUSH1 0xA0 SHL NOT AND PUSH1 0x1 PUSH1 0xA0 SHL OR DUP2 SSTORE DUP1 RETURN JUMPDEST POP CALLVALUE PUSH2 0x191 JUMPI PUSH1 0x3 NOT SWAP1 PUSH1 0xE0 CALLDATASIZE DUP4 ADD SLT PUSH2 0x191 JUMPI PUSH2 0x4DD PUSH2 0x15DC JUMP JUMPDEST PUSH1 0x84 CALLDATALOAD SWAP1 PUSH8 0xFFFFFFFFFFFFFFFF SWAP4 DUP5 DUP4 GT PUSH2 0x69F JUMPI CALLDATASIZE PUSH1 0x23 DUP5 ADD SLT ISZERO PUSH2 0x69F JUMPI DUP3 PUSH1 0x4 ADD CALLDATALOAD SWAP1 DUP6 DUP3 GT PUSH2 0x69B JUMPI DUP2 PUSH1 0x5 SHL CALLDATASIZE PUSH1 0x24 DUP3 DUP8 ADD ADD GT PUSH2 0x697 JUMPI PUSH1 0xA4 CALLDATALOAD DUP8 DUP2 GT PUSH2 0x693 JUMPI PUSH2 0x532 SWAP1 CALLDATASIZE SWAP1 PUSH1 0x4 ADD PUSH2 0x1608 JUMP JUMPDEST SWAP3 SWAP1 SWAP8 PUSH1 0xC4 CALLDATALOAD SWAP1 DUP2 GT PUSH2 0x68F JUMPI PUSH2 0x54D SWAP1 CALLDATASIZE SWAP1 PUSH1 0x4 ADD PUSH2 0x1608 JUMP JUMPDEST SWAP2 SWAP1 SWAP4 PUSH2 0x560 PUSH1 0xFF DUP11 SLOAD PUSH1 0xA0 SHR AND PUSH2 0x1664 JUMP JUMPDEST PUSH2 0x568 PUSH2 0x1639 JUMP JUMPDEST PUSH1 0x1 DUP1 SLOAD PUSH1 0x40 MLOAD PUSH4 0xA444477B PUSH1 0xE0 SHL DUP2 MSTORE PUSH1 0x1 PUSH1 0x1 PUSH1 0xA0 SHL SUB SWAP10 DUP11 AND PUSH1 0x4 DUP3 ADD MSTORE PUSH1 0x24 DUP1 CALLDATALOAD SWAP1 DUP3 ADD MSTORE PUSH1 0x44 DUP1 CALLDATALOAD SWAP1 DUP3 ADD MSTORE PUSH1 0x64 DUP1 CALLDATALOAD SWAP1 DUP3 ADD MSTORE PUSH1 0xE0 PUSH1 0x84 DUP3 ADD MSTORE PUSH1 0xE4 DUP2 ADD DUP10 SWAP1 MSTORE SWAP9 SWAP10 SWAP1 DUP11 AND SWAP8 SWAP2 SWAP6 SWAP1 SWAP2 PUSH1 0x1 PUSH1 0x1 PUSH1 0xFB SHL SUB LT PUSH2 0x68B JUMPI SWAP1 DUP3 DUP3 PUSH2 0x124 SWAP4 PUSH1 0x24 SWAP9 SWAP15 SWAP11 SWAP10 SWAP9 PUSH2 0x104 SWAP5 ADD DUP5 DUP14 ADD CALLDATACOPY DUP11 ADD SWAP2 DUP3 ADD PUSH2 0x100 DUP12 DUP5 SUB ADD PUSH1 0xA4 DUP13 ADD MSTORE MSTORE ADD SWAP6 SWAP1 DUP10 JUMPDEST DUP2 DUP2 LT PUSH2 0x66C JUMPI POP POP POP SWAP2 DUP8 SWAP2 DUP7 SWAP5 SWAP4 DUP6 DUP8 SUB ADD PUSH1 0xC4 DUP7 ADD MSTORE DUP1 DUP7 MSTORE PUSH1 0x20 SWAP10 DUP11 DUP1 SWAP8 ADD SWAP3 SWAP2 DUP5 JUMPDEST DUP2 DUP2 LT PUSH2 0x646 JUMPI POP POP POP POP SWAP1 DUP4 DUP1 SWAP3 SUB SWAP3 GAS CALL SWAP3 DUP4 ISZERO PUSH2 0x240 JUMPI DUP1 SWAP4 PUSH2 0x45A JUMPI POP POP PUSH1 0x40 MLOAD SWAP2 AND DUP2 MSTORE RETURN JUMPDEST DUP4 CALLDATALOAD DUP6 MSTORE DUP13 DUP5 ADD CALLDATALOAD DUP14 DUP7 ADD MSTORE DUP13 SWAP9 POP DUP10 SWAP8 POP DUP12 SWAP6 POP PUSH1 0x40 SWAP5 DUP6 ADD SWAP5 SWAP1 SWAP4 ADD SWAP3 DUP3 ADD PUSH2 0x61B JUMP JUMPDEST DUP3 CALLDATALOAD DUP9 MSTORE PUSH1 0x20 DUP1 DUP5 ADD CALLDATALOAD SWAP1 DUP10 ADD MSTORE PUSH1 0x40 SWAP8 DUP9 ADD SWAP8 SWAP1 SWAP3 ADD SWAP2 DUP12 ADD PUSH2 0x5F4 JUMP JUMPDEST DUP11 DUP1 REVERT JUMPDEST DUP8 DUP1 REVERT JUMPDEST DUP7 DUP1 REVERT JUMPDEST DUP6 DUP1 REVERT JUMPDEST DUP5 DUP1 REVERT JUMPDEST DUP4 DUP1 REVERT JUMPDEST POP CALLVALUE PUSH2 0x191 JUMPI DUP1 PUSH1 0x3 NOT CALLDATASIZE ADD SLT PUSH2 0x191 JUMPI PUSH1 0x1 DUP1 SLOAD PUSH1 0x40 MLOAD PUSH4 0x97331BF9 PUSH1 0xE0 SHL DUP2 MSTORE SWAP2 SWAP3 SWAP2 SWAP1 PUSH1 0x1 PUSH1 0x1 PUSH1 0xA0 SHL SUB SWAP1 DUP4 SWAP1 DUP4 SWAP1 PUSH1 0x4 SWAP1 DUP3 SWAP1 DUP6 AND GAS STATICCALL SWAP2 DUP3 ISZERO PUSH2 0x7CD JUMPI DUP4 SWAP3 PUSH2 0x732 JUMPI JUMPDEST POP SWAP2 PUSH1 0x40 SWAP4 SWAP2 SWAP4 MLOAD SWAP3 PUSH1 0x20 DUP1 DUP6 ADD SWAP2 DUP2 DUP7 MSTORE DUP7 MLOAD DUP1 SWAP4 MSTORE DUP2 PUSH1 0x40 DUP8 ADD SWAP8 ADD SWAP4 SWAP1 JUMPDEST DUP4 DUP3 LT PUSH2 0x71B JUMPI DUP7 DUP9 SUB DUP8 RETURN JUMPDEST DUP5 MLOAD DUP2 AND DUP9 MSTORE SWAP7 DUP3 ADD SWAP7 SWAP4 DUP3 ADD SWAP4 SWAP1 DUP6 ADD SWAP1 PUSH2 0x70E JUMP JUMPDEST SWAP1 SWAP2 POP RETURNDATASIZE DUP1 DUP5 DUP4 RETURNDATACOPY PUSH2 0x744 DUP2 DUP4 PUSH2 0x16F1 JUMP JUMPDEST DUP2 ADD SWAP1 PUSH1 0x20 SWAP1 DUP2 DUP2 DUP5 SUB SLT PUSH2 0x69B JUMPI DUP1 MLOAD SWAP1 PUSH8 0xFFFFFFFFFFFFFFFF DUP3 GT PUSH2 0x697 JUMPI ADD SWAP2 DUP1 PUSH1 0x1F DUP5 ADD SLT ISZERO PUSH2 0x69B JUMPI DUP3 MLOAD PUSH2 0x77D DUP2 PUSH2 0x1727 JUMP JUMPDEST SWAP4 PUSH2 0x78B PUSH1 0x40 MLOAD SWAP6 DUP7 PUSH2 0x16F1 JUMP JUMPDEST DUP2 DUP6 MSTORE DUP4 DUP1 DUP7 ADD SWAP3 PUSH1 0x5 SHL DUP3 ADD ADD SWAP3 DUP4 GT PUSH2 0x693 JUMPI DUP4 ADD SWAP1 JUMPDEST DUP3 DUP3 LT PUSH2 0x7B6 JUMPI POP POP POP POP SWAP1 PUSH0 PUSH2 0x6ED JUMP JUMPDEST DUP4 DUP1 SWAP2 PUSH2 0x7C2 DUP5 PUSH2 0x1713 JUMP JUMPDEST DUP2 MSTORE ADD SWAP2 ADD SWAP1 PUSH2 0x7A4 JUMP JUMPDEST PUSH1 0x40 MLOAD RETURNDATASIZE DUP6 DUP3 RETURNDATACOPY RETURNDATASIZE SWAP1 REVERT JUMPDEST POP CALLVALUE PUSH2 0x191 JUMPI PUSH1 0x40 CALLDATASIZE PUSH1 0x3 NOT ADD SLT PUSH2 0x191 JUMPI DUP1 PUSH2 0x7F3 PUSH2 0x15DC JUMP JUMPDEST PUSH2 0x7FB PUSH2 0x15F2 JUMP JUMPDEST PUSH2 0x80B PUSH1 0xFF DUP5 SLOAD PUSH1 0xA0 SHR AND PUSH2 0x1664 JUMP JUMPDEST PUSH1 0x1 PUSH1 0x1 PUSH1 0xA0 SHL SUB SWAP2 DUP3 AND SWAP2 DUP3 EXTCODESIZE ISZERO PUSH2 0x3C9 JUMPI PUSH1 0x44 DUP5 SWAP3 DUP4 PUSH1 0x40 MLOAD SWAP6 DUP7 SWAP5 DUP6 SWAP4 PUSH4 0x4B6C77C7 PUSH1 0xE1 SHL DUP6 MSTORE AND PUSH1 0x4 DUP5 ADD MSTORE CALLER PUSH1 0x24 DUP5 ADD MSTORE GAS CALL DUP1 ISZERO PUSH2 0x27D JUMPI PUSH2 0x3B9 JUMPI POP RETURN JUMPDEST POP CALLVALUE PUSH2 0x191 JUMPI PUSH1 0x20 CALLDATASIZE PUSH1 0x3 NOT ADD SLT PUSH2 0x191 JUMPI PUSH2 0x86A PUSH2 0x15DC JUMP JUMPDEST SWAP1 PUSH1 0x40 MLOAD SWAP2 PUSH2 0x100 DUP4 ADD DUP4 DUP2 LT PUSH8 0xFFFFFFFFFFFFFFFF DUP3 GT OR PUSH2 0x10BE JUMPI PUSH1 0x40 MSTORE DUP2 DUP4 MSTORE DUP2 PUSH1 0x20 DUP5 ADD MSTORE DUP2 PUSH1 0x40 DUP5 ADD MSTORE PUSH1 0x60 DUP1 DUP5 ADD MSTORE PUSH1 0x60 PUSH1 0x80 DUP5 ADD MSTORE PUSH1 0x60 PUSH1 0xA0 DUP5 ADD MSTORE DUP2 PUSH1 0xC0 DUP5 ADD MSTORE DUP2 PUSH1 0xE0 DUP5 ADD MSTORE PUSH1 0x1 DUP1 PUSH1 0xA0 SHL SUB DUP2 AND ISZERO PUSH2 0x108F JUMPI DUP1 EXTCODESIZE ISZERO PUSH2 0x1059 JUMPI PUSH1 0x40 MLOAD PUSH4 0x8BCF8B5 PUSH1 0xE2 SHL DUP2 MSTORE PUSH1 0x20 DUP2 PUSH1 0x4 DUP2 PUSH1 0x1 PUSH1 0x1 PUSH1 0xA0 SHL SUB DUP7 AND GAS STATICCALL DUP4 SWAP2 DUP2 PUSH2 0x1028 JUMPI JUMPDEST POP PUSH2 0x101F JUMPI POP DUP2 DUP4 MSTORE JUMPDEST PUSH1 0x40 MLOAD PUSH4 0x7E062A35 PUSH1 0xE1 SHL DUP2 MSTORE PUSH1 0x20 DUP2 PUSH1 0x4 DUP2 PUSH1 0x1 PUSH1 0x1 PUSH1 0xA0 SHL SUB DUP7 AND GAS STATICCALL DUP4 SWAP2 DUP2 PUSH2 0xFE3 JUMPI JUMPDEST POP PUSH2 0xFD0 JUMPI POP DUP2 PUSH1 0x20 DUP5 ADD MSTORE JUMPDEST PUSH1 0x40 MLOAD PUSH4 0x94B81D3 PUSH1 0xE0 SHL DUP2 MSTORE PUSH1 0x20 DUP2 PUSH1 0x4 DUP2 PUSH1 0x1 PUSH1 0x1 PUSH1 0xA0 SHL SUB DUP7 AND GAS STATICCALL DUP4 SWAP2 DUP2 PUSH2 0xF9C JUMPI JUMPDEST POP PUSH2 0xF92 JUMPI POP DUP2 PUSH1 0x40 DUP5 ADD MSTORE JUMPDEST PUSH1 0x40 MLOAD PUSH4 0x359CFBF7 PUSH1 0xE0 SHL DUP2 MSTORE PUSH1 0x20 DUP2 PUSH1 0x4 DUP2 PUSH1 0x1 PUSH1 0x1 PUSH1 0xA0 SHL SUB DUP7 AND GAS STATICCALL DUP4 SWAP2 DUP2 PUSH2 0xF5E JUMPI JUMPDEST POP PUSH2 0xE86 JUMPI POP PUSH1 0x40 MLOAD PUSH2 0x9A0 DUP2 PUSH2 0x16D5 JUMP JUMPDEST DUP3 DUP2 MSTORE PUSH1 0x60 DUP5 ADD MSTORE JUMPDEST PUSH1 0x40 MLOAD PUSH4 0xC122C2A1 PUSH1 0xE0 SHL DUP2 MSTORE PUSH1 0x20 DUP2 PUSH1 0x4 DUP2 PUSH1 0x1 PUSH1 0x1 PUSH1 0xA0 SHL SUB DUP7 AND GAS STATICCALL DUP4 SWAP2 DUP2 PUSH2 0xE52 JUMPI JUMPDEST POP PUSH2 0xD7B JUMPI POP PUSH1 0x40 MLOAD PUSH2 0x9E2 DUP2 PUSH2 0x16D5 JUMP JUMPDEST PUSH0 DUP2 MSTORE PUSH1 0x80 DUP5 ADD MSTORE JUMPDEST PUSH1 0x40 MLOAD PUSH4 0xB9B792CD PUSH1 0xE0 SHL DUP2 MSTORE PUSH1 0x20 DUP2 PUSH1 0x4 DUP2 PUSH1 0x1 PUSH1 0x1 PUSH1 0xA0 SHL SUB DUP7 AND GAS STATICCALL DUP4 SWAP2 DUP2 PUSH2 0xD47 JUMPI JUMPDEST POP PUSH2 0xC54 JUMPI POP PUSH1 0x40 MLOAD PUSH2 0xA24 DUP2 PUSH2 0x16D5 JUMP JUMPDEST PUSH0 DUP2 MSTORE PUSH1 0xA0 DUP5 ADD MSTORE JUMPDEST PUSH1 0x40 MLOAD PUSH4 0x41B3D185 PUSH1 0xE0 SHL DUP2 MSTORE PUSH1 0x20 DUP2 PUSH1 0x4 DUP2 PUSH1 0x1 PUSH1 0x1 PUSH1 0xA0 SHL SUB DUP7 AND GAS STATICCALL DUP4 SWAP2 DUP2 PUSH2 0xC1D JUMPI JUMPDEST POP SWAP2 PUSH1 0x20 SWAP2 PUSH1 0x4 SWAP4 ISZERO PUSH0 EQ PUSH2 0xC13 JUMPI POP DUP4 PUSH1 0xC0 DUP7 ADD MSTORE JUMPDEST PUSH1 0x40 MLOAD PUSH4 0x3041F2CD PUSH1 0xE1 SHL DUP2 MSTORE SWAP3 DUP4 SWAP2 DUP3 SWAP1 PUSH1 0x1 PUSH1 0x1 PUSH1 0xA0 SHL SUB AND GAS STATICCALL DUP3 SWAP2 DUP2 PUSH2 0xBDF JUMPI JUMPDEST POP PUSH2 0xBD5 JUMPI POP DUP1 PUSH1 0xE0 DUP4 ADD MSTORE JUMPDEST PUSH1 0x40 MLOAD SWAP1 PUSH1 0x20 DUP3 MSTORE PUSH2 0x120 DUP3 ADD SWAP1 DUP4 MLOAD ISZERO ISZERO PUSH1 0x20 DUP5 ADD MSTORE PUSH1 0x1 DUP1 PUSH1 0xA0 SHL SUB PUSH1 0x20 DUP6 ADD MLOAD AND PUSH1 0x40 DUP5 ADD MSTORE PUSH1 0x40 DUP5 ADD MLOAD PUSH1 0x60 DUP5 ADD MSTORE PUSH1 0x60 DUP5 ADD MLOAD SWAP2 PUSH2 0x100 PUSH1 0x80 DUP6 ADD MSTORE DUP3 MLOAD DUP1 SWAP2 MSTORE PUSH1 0x20 PUSH2 0x140 DUP6 ADD SWAP4 ADD SWAP1 DUP3 JUMPDEST DUP2 DUP2 LT PUSH2 0xBBF JUMPI POP POP POP PUSH1 0x80 DUP5 ADD MLOAD PUSH1 0x1F NOT SWAP3 DUP4 DUP6 DUP3 SUB ADD PUSH1 0xA0 DUP7 ADD MSTORE PUSH1 0x20 DUP1 DUP4 MLOAD SWAP3 DUP4 DUP2 MSTORE ADD SWAP3 ADD SWAP1 DUP4 JUMPDEST DUP2 DUP2 LT PUSH2 0xB91 JUMPI POP POP POP PUSH1 0xA0 DUP6 ADD MLOAD SWAP3 DUP5 DUP3 SUB ADD PUSH1 0xC0 DUP6 ADD MSTORE PUSH1 0x20 DUP1 DUP5 MLOAD SWAP3 DUP4 DUP2 MSTORE ADD SWAP4 ADD SWAP2 JUMPDEST DUP2 DUP2 LT PUSH2 0xB65 JUMPI POP POP POP PUSH1 0xE0 DUP4 PUSH1 0xC0 DUP5 SWAP6 ADD MLOAD DUP3 DUP6 ADD MSTORE ADD MLOAD PUSH2 0x100 DUP4 ADD MSTORE SUB SWAP1 RETURN JUMPDEST SWAP1 SWAP2 SWAP3 PUSH1 0x20 PUSH2 0xB87 PUSH1 0x1 SWAP3 DUP7 MLOAD SWAP1 PUSH1 0x20 PUSH1 0x40 SWAP3 DUP1 MLOAD DUP4 MSTORE ADD MLOAD PUSH1 0x20 DUP3 ADD MSTORE ADD SWAP1 JUMP JUMPDEST SWAP5 ADD SWAP3 SWAP2 ADD PUSH2 0xB42 JUMP JUMPDEST SWAP1 SWAP2 SWAP4 SWAP3 PUSH1 0x20 PUSH2 0xBB4 PUSH1 0x1 SWAP3 DUP8 MLOAD SWAP1 PUSH1 0x20 PUSH1 0x40 SWAP3 DUP1 MLOAD DUP4 MSTORE ADD MLOAD PUSH1 0x20 DUP3 ADD MSTORE ADD SWAP1 JUMP JUMPDEST SWAP5 SWAP6 ADD SWAP3 SWAP2 ADD PUSH2 0xB1B JUMP JUMPDEST DUP3 MLOAD DUP6 MSTORE PUSH1 0x20 SWAP5 DUP6 ADD SWAP5 SWAP1 SWAP3 ADD SWAP2 PUSH1 0x1 ADD PUSH2 0xAEF JUMP JUMPDEST PUSH1 0xE0 DUP4 ADD MSTORE PUSH2 0xA9D JUMP JUMPDEST SWAP1 SWAP2 POP PUSH1 0x20 DUP2 RETURNDATASIZE PUSH1 0x20 GT PUSH2 0xC0B JUMPI JUMPDEST DUP2 PUSH2 0xBFB PUSH1 0x20 SWAP4 DUP4 PUSH2 0x16F1 JUMP JUMPDEST DUP2 ADD SUB SLT PUSH2 0x235 JUMPI MLOAD SWAP1 PUSH0 PUSH2 0xA90 JUMP JUMPDEST RETURNDATASIZE SWAP2 POP PUSH2 0xBEE JUMP JUMPDEST PUSH1 0xC0 DUP7 ADD MSTORE PUSH2 0xA6B JUMP JUMPDEST SWAP2 POP SWAP2 PUSH1 0x20 DUP3 RETURNDATASIZE PUSH1 0x20 GT PUSH2 0xC4C JUMPI JUMPDEST DUP2 PUSH2 0xC39 PUSH1 0x20 SWAP4 DUP4 PUSH2 0x16F1 JUMP JUMPDEST DUP2 ADD SUB SLT PUSH2 0x235 JUMPI SWAP1 MLOAD SWAP1 SWAP2 PUSH1 0x4 PUSH2 0xA54 JUMP JUMPDEST RETURNDATASIZE SWAP2 POP PUSH2 0xC2C JUMP JUMPDEST PUSH2 0xC5D DUP2 PUSH2 0x17DF JUMP JUMPDEST PUSH1 0xA0 DUP6 ADD MSTORE DUP3 JUMPDEST DUP2 DUP2 LT PUSH2 0xC72 JUMPI POP POP PUSH2 0xA2D JUMP JUMPDEST PUSH1 0x40 DUP1 MLOAD PUSH4 0x503306FD PUSH1 0xE1 SHL DUP2 MSTORE PUSH1 0x4 DUP2 ADD DUP4 SWAP1 MSTORE PUSH2 0xCE7 SWAP3 SWAP2 DUP3 SWAP1 DUP3 PUSH1 0x24 DUP2 PUSH1 0x1 PUSH1 0x1 PUSH1 0xA0 SHL SUB DUP11 AND GAS STATICCALL SWAP2 DUP3 DUP9 SWAP2 DUP10 SWAP5 PUSH2 0xD14 JUMPI JUMPDEST POP PUSH2 0xCEC JUMPI POP PUSH2 0xCE1 SWAP2 POP PUSH1 0x40 MLOAD PUSH2 0xCC0 DUP2 PUSH2 0x16B9 JUMP JUMPDEST DUP8 DUP2 MSTORE PUSH2 0x2710 PUSH1 0x20 DUP3 ADD MSTORE PUSH1 0xA0 DUP10 ADD MLOAD SWAP1 PUSH2 0xCDB DUP4 DUP4 PUSH2 0x17B7 JUMP JUMPDEST MSTORE PUSH2 0x17B7 JUMP JUMPDEST POP PUSH2 0x1795 JUMP JUMPDEST PUSH2 0xC64 JUMP JUMPDEST PUSH2 0xCE1 SWAP3 PUSH1 0x40 MLOAD SWAP2 PUSH2 0xCFD DUP4 PUSH2 0x16B9 JUMP JUMPDEST DUP3 MSTORE PUSH1 0x20 DUP3 ADD MSTORE PUSH1 0xA0 DUP10 ADD MLOAD SWAP1 PUSH2 0xCDB DUP4 DUP4 PUSH2 0x17B7 JUMP JUMPDEST SWAP1 SWAP4 POP PUSH2 0xD39 SWAP2 POP PUSH1 0x40 RETURNDATASIZE PUSH1 0x40 GT PUSH2 0xD40 JUMPI JUMPDEST PUSH2 0xD31 DUP2 DUP4 PUSH2 0x16F1 JUMP JUMPDEST DUP2 ADD SWAP1 PUSH2 0x183F JUMP JUMPDEST SWAP3 PUSH0 PUSH2 0xCA9 JUMP JUMPDEST POP RETURNDATASIZE PUSH2 0xD27 JUMP JUMPDEST SWAP1 SWAP2 POP PUSH1 0x20 DUP2 RETURNDATASIZE PUSH1 0x20 GT PUSH2 0xD73 JUMPI JUMPDEST DUP2 PUSH2 0xD63 PUSH1 0x20 SWAP4 DUP4 PUSH2 0x16F1 JUMP JUMPDEST DUP2 ADD SUB SLT PUSH2 0x235 JUMPI MLOAD SWAP1 PUSH0 PUSH2 0xA12 JUMP JUMPDEST RETURNDATASIZE SWAP2 POP PUSH2 0xD56 JUMP JUMPDEST PUSH2 0xD84 DUP2 PUSH2 0x17DF JUMP JUMPDEST PUSH1 0x80 DUP6 ADD MSTORE DUP3 JUMPDEST DUP2 DUP2 LT PUSH2 0xD99 JUMPI POP POP PUSH2 0x9EB JUMP JUMPDEST PUSH1 0x40 DUP1 MLOAD PUSH4 0x5350CBD9 PUSH1 0xE0 SHL DUP2 MSTORE PUSH1 0x4 DUP2 ADD DUP4 SWAP1 MSTORE PUSH2 0xE02 SWAP3 SWAP2 DUP3 SWAP1 DUP3 PUSH1 0x24 DUP2 PUSH1 0x1 PUSH1 0x1 PUSH1 0xA0 SHL SUB DUP11 AND GAS STATICCALL SWAP2 DUP3 DUP9 SWAP2 DUP10 SWAP5 PUSH2 0xE2F JUMPI JUMPDEST POP PUSH2 0xE07 JUMPI POP PUSH2 0xCE1 SWAP2 POP PUSH1 0x40 MLOAD PUSH2 0xDE7 DUP2 PUSH2 0x16B9 JUMP JUMPDEST DUP8 DUP2 MSTORE PUSH2 0x2710 PUSH1 0x20 DUP3 ADD MSTORE PUSH1 0x80 DUP10 ADD MLOAD SWAP1 PUSH2 0xCDB DUP4 DUP4 PUSH2 0x17B7 JUMP JUMPDEST PUSH2 0xD8B JUMP JUMPDEST PUSH2 0xCE1 SWAP3 PUSH1 0x40 MLOAD SWAP2 PUSH2 0xE18 DUP4 PUSH2 0x16B9 JUMP JUMPDEST DUP3 MSTORE PUSH1 0x20 DUP3 ADD MSTORE PUSH1 0x80 DUP10 ADD MLOAD SWAP1 PUSH2 0xCDB DUP4 DUP4 PUSH2 0x17B7 JUMP JUMPDEST SWAP1 SWAP4 POP PUSH2 0xE4B SWAP2 POP PUSH1 0x40 RETURNDATASIZE PUSH1 0x40 GT PUSH2 0xD40 JUMPI PUSH2 0xD31 DUP2 DUP4 PUSH2 0x16F1 JUMP JUMPDEST SWAP3 PUSH0 PUSH2 0xDD0 JUMP JUMPDEST SWAP1 SWAP2 POP PUSH1 0x20 DUP2 RETURNDATASIZE PUSH1 0x20 GT PUSH2 0xE7E JUMPI JUMPDEST DUP2 PUSH2 0xE6E PUSH1 0x20 SWAP4 DUP4 PUSH2 0x16F1 JUMP JUMPDEST DUP2 ADD SUB SLT PUSH2 0x235 JUMPI MLOAD SWAP1 PUSH0 PUSH2 0x9D0 JUMP JUMPDEST RETURNDATASIZE SWAP2 POP PUSH2 0xE61 JUMP JUMPDEST PUSH2 0xE8F DUP2 PUSH2 0x1727 JUMP JUMPDEST PUSH2 0xE9C PUSH1 0x40 MLOAD SWAP2 DUP3 PUSH2 0x16F1 JUMP JUMPDEST DUP2 DUP2 MSTORE PUSH1 0x1F NOT PUSH2 0xEAB DUP4 PUSH2 0x1727 JUMP JUMPDEST ADD CALLDATASIZE PUSH1 0x20 DUP4 ADD CALLDATACOPY PUSH1 0x60 DUP6 ADD MSTORE DUP3 JUMPDEST DUP2 DUP2 LT PUSH2 0xEC7 JUMPI POP POP PUSH2 0x9A9 JUMP JUMPDEST PUSH1 0x40 MLOAD PUSH4 0x10390D35 PUSH1 0xE0 SHL DUP2 MSTORE PUSH1 0x4 DUP2 ADD DUP3 SWAP1 MSTORE SWAP1 PUSH1 0x20 DUP3 PUSH1 0x24 DUP2 PUSH1 0x1 PUSH1 0x1 PUSH1 0xA0 SHL SUB DUP9 AND GAS STATICCALL DUP1 DUP7 SWAP2 PUSH2 0xF28 JUMPI JUMPDEST PUSH2 0xF15 SWAP4 POP PUSH2 0xF1A JUMPI POP DUP5 PUSH2 0xF0F DUP3 PUSH1 0x60 DUP10 ADD MLOAD PUSH2 0x17B7 JUMP JUMPDEST MSTORE PUSH2 0x1795 JUMP JUMPDEST PUSH2 0xEB9 JUMP JUMPDEST PUSH2 0xF0F DUP3 PUSH1 0x60 DUP10 ADD MLOAD PUSH2 0x17B7 JUMP JUMPDEST SWAP1 POP PUSH1 0x20 DUP4 RETURNDATASIZE PUSH1 0x20 GT PUSH2 0xF56 JUMPI JUMPDEST DUP2 PUSH2 0xF43 PUSH1 0x20 SWAP4 DUP4 PUSH2 0x16F1 JUMP JUMPDEST DUP2 ADD SUB SLT PUSH2 0x235 JUMPI PUSH2 0xF15 SWAP3 MLOAD SWAP1 PUSH2 0xEF6 JUMP JUMPDEST RETURNDATASIZE SWAP2 POP PUSH2 0xF36 JUMP JUMPDEST SWAP1 SWAP2 POP PUSH1 0x20 DUP2 RETURNDATASIZE PUSH1 0x20 GT PUSH2 0xF8A JUMPI JUMPDEST DUP2 PUSH2 0xF7A PUSH1 0x20 SWAP4 DUP4 PUSH2 0x16F1 JUMP JUMPDEST DUP2 ADD SUB SLT PUSH2 0x235 JUMPI MLOAD SWAP1 PUSH0 PUSH2 0x98E JUMP JUMPDEST RETURNDATASIZE SWAP2 POP PUSH2 0xF6D JUMP JUMPDEST PUSH1 0x40 DUP5 ADD MSTORE PUSH2 0x967 JUMP JUMPDEST SWAP1 SWAP2 POP PUSH1 0x20 DUP2 RETURNDATASIZE PUSH1 0x20 GT PUSH2 0xFC8 JUMPI JUMPDEST DUP2 PUSH2 0xFB8 PUSH1 0x20 SWAP4 DUP4 PUSH2 0x16F1 JUMP JUMPDEST DUP2 ADD SUB SLT PUSH2 0x69F JUMPI MLOAD SWAP1 PUSH0 PUSH2 0x95A JUMP JUMPDEST RETURNDATASIZE SWAP2 POP PUSH2 0xFAB JUMP JUMPDEST PUSH1 0x1 PUSH1 0x1 PUSH1 0xA0 SHL SUB AND PUSH1 0x20 DUP5 ADD MSTORE PUSH2 0x933 JUMP JUMPDEST SWAP1 SWAP2 POP PUSH1 0x20 DUP2 RETURNDATASIZE PUSH1 0x20 GT PUSH2 0x1017 JUMPI JUMPDEST DUP2 PUSH2 0xFFF PUSH1 0x20 SWAP4 DUP4 PUSH2 0x16F1 JUMP JUMPDEST DUP2 ADD SUB SLT PUSH2 0x69F JUMPI PUSH2 0x1010 SWAP1 PUSH2 0x1713 JUMP JUMPDEST SWAP1 PUSH0 PUSH2 0x926 JUMP JUMPDEST RETURNDATASIZE SWAP2 POP PUSH2 0xFF2 JUMP JUMPDEST ISZERO ISZERO DUP4 MSTORE PUSH2 0x8FF JUMP JUMPDEST PUSH2 0x104B SWAP2 SWAP3 POP PUSH1 0x20 RETURNDATASIZE PUSH1 0x20 GT PUSH2 0x1052 JUMPI JUMPDEST PUSH2 0x1043 DUP2 DUP4 PUSH2 0x16F1 JUMP JUMPDEST DUP2 ADD SWAP1 PUSH2 0x177D JUMP JUMPDEST SWAP1 PUSH0 PUSH2 0x8F5 JUMP JUMPDEST POP RETURNDATASIZE PUSH2 0x1039 JUMP JUMPDEST PUSH1 0x40 MLOAD PUSH3 0x461BCD PUSH1 0xE5 SHL DUP2 MSTORE PUSH1 0x20 PUSH1 0x4 DUP3 ADD MSTORE PUSH1 0xE PUSH1 0x24 DUP3 ADD MSTORE PUSH14 0x1B9BDD08184818DBDB9D1C9858DD PUSH1 0x92 SHL PUSH1 0x44 DUP3 ADD MSTORE PUSH1 0x64 SWAP1 REVERT JUMPDEST PUSH1 0x40 MLOAD PUSH3 0x461BCD PUSH1 0xE5 SHL DUP2 MSTORE PUSH1 0x20 PUSH1 0x4 DUP3 ADD MSTORE PUSH1 0x7 PUSH1 0x24 DUP3 ADD MSTORE PUSH7 0x7661756C74203 PUSH1 0xCC SHL PUSH1 0x44 DUP3 ADD MSTORE PUSH1 0x64 SWAP1 REVERT JUMPDEST PUSH4 0x4E487B71 PUSH1 0xE0 SHL PUSH0 MSTORE PUSH1 0x41 PUSH1 0x4 MSTORE PUSH1 0x24 PUSH0 REVERT JUMPDEST POP CALLVALUE PUSH2 0x191 JUMPI DUP1 PUSH1 0x3 NOT CALLDATASIZE ADD SLT PUSH2 0x191 JUMPI SLOAD PUSH1 0x40 MLOAD PUSH1 0x1 PUSH1 0x1 PUSH1 0xA0 SHL SUB SWAP1 SWAP2 AND DUP2 MSTORE PUSH1 0x20 SWAP1 RETURN JUMPDEST POP CALLVALUE PUSH2 0x191 JUMPI DUP1 PUSH1 0x3 NOT CALLDATASIZE ADD SLT PUSH2 0x191 JUMPI PUSH2 0x1112 PUSH2 0x1639 JUMP JUMPDEST PUSH0 DUP1 SLOAD PUSH1 0x1 PUSH1 0x1 PUSH1 0xA0 SHL SUB NOT DUP2 AND DUP3 SSTORE PUSH1 0x1 PUSH1 0x1 PUSH1 0xA0 SHL SUB AND PUSH32 0x8BE0079C531659141344CD1FD0A4F28419497F9722A3DAAFE3B4186F6B6457E0 DUP3 DUP1 LOG3 DUP1 RETURN JUMPDEST POP CALLVALUE PUSH2 0x191 JUMPI PUSH1 0x20 CALLDATASIZE PUSH1 0x3 NOT ADD SLT PUSH2 0x191 JUMPI PUSH2 0x116C PUSH2 0x15DC JUMP JUMPDEST PUSH2 0x1174 PUSH2 0x1639 JUMP JUMPDEST PUSH1 0x1 PUSH1 0x1 PUSH1 0xA0 SHL SUB AND DUP1 ISZERO PUSH2 0x119E JUMPI PUSH12 0xFFFFFFFFFFFFFFFFFFFFFFFF PUSH1 0xA0 SHL PUSH1 0x1 SLOAD AND OR PUSH1 0x1 SSTORE DUP1 RETURN JUMPDEST PUSH1 0x40 MLOAD PUSH3 0x461BCD PUSH1 0xE5 SHL DUP2 MSTORE PUSH1 0x20 PUSH1 0x4 DUP3 ADD MSTORE PUSH1 0x9 PUSH1 0x24 DUP3 ADD MSTORE PUSH9 0x666163746F7279203 PUSH1 0xBC SHL PUSH1 0x44 DUP3 ADD MSTORE PUSH1 0x64 SWAP1 REVERT JUMPDEST POP CALLVALUE PUSH2 0x191 JUMPI PUSH1 0x20 CALLDATASIZE PUSH1 0x3 NOT ADD SLT PUSH2 0x191 JUMPI DUP1 PUSH2 0x11EA PUSH2 0x15DC JUMP JUMPDEST PUSH2 0x11FA PUSH1 0xFF DUP4 SLOAD PUSH1 0xA0 SHR AND PUSH2 0x1664 JUMP JUMPDEST PUSH1 0x1 PUSH1 0x1 PUSH1 0xA0 SHL SUB AND DUP1 EXTCODESIZE ISZERO PUSH2 0x1235 JUMPI DUP2 DUP1 SWAP2 PUSH1 0x24 PUSH1 0x40 MLOAD DUP1 SWAP5 DUP2 SWAP4 PUSH4 0x2C07E405 PUSH1 0xE1 SHL DUP4 MSTORE CALLER PUSH1 0x4 DUP5 ADD MSTORE GAS CALL DUP1 ISZERO PUSH2 0x27D JUMPI PUSH2 0x3B9 JUMPI POP RETURN JUMPDEST POP REVERT JUMPDEST POP CALLVALUE PUSH2 0x191 JUMPI DUP1 PUSH1 0x3 NOT CALLDATASIZE ADD SLT PUSH2 0x191 JUMPI PUSH1 0xFF PUSH1 0x20 SWAP2 SLOAD PUSH1 0xA0 SHR AND PUSH1 0x40 MLOAD SWAP1 ISZERO ISZERO DUP2 MSTORE RETURN JUMPDEST POP CALLVALUE PUSH2 0x191 JUMPI PUSH1 0x60 CALLDATASIZE PUSH1 0x3 NOT ADD SLT PUSH2 0x191 JUMPI PUSH2 0x1277 PUSH2 0x15DC JUMP JUMPDEST SWAP1 PUSH1 0x24 DUP1 CALLDATALOAD PUSH2 0x128C PUSH1 0xFF DUP5 SLOAD PUSH1 0xA0 SHR AND PUSH2 0x1664 JUMP JUMPDEST PUSH1 0x40 MLOAD PUSH4 0x23B872DD PUSH1 0xE0 SHL PUSH1 0x20 DUP1 DUP4 ADD SWAP2 DUP3 MSTORE CALLER DUP4 DUP7 ADD MSTORE ADDRESS PUSH1 0x44 DUP5 ADD MSTORE PUSH1 0x64 DUP1 DUP5 ADD DUP6 SWAP1 MSTORE DUP4 MSTORE PUSH1 0x1 PUSH1 0x1 PUSH1 0xA0 SHL SUB SWAP7 DUP8 AND SWAP5 SWAP3 SWAP1 SWAP2 SWAP1 PUSH1 0xA0 DUP2 ADD PUSH8 0xFFFFFFFFFFFFFFFF DUP2 GT DUP3 DUP3 LT OR PUSH2 0x1445 JUMPI PUSH1 0x40 MSTORE MLOAD DUP3 SWAP2 DUP8 SWAP2 SWAP1 DUP3 DUP9 GAS CALL ISZERO PUSH2 0x143A JUMPI DUP5 MLOAD RETURNDATASIZE PUSH2 0x1431 JUMPI POP DUP4 EXTCODESIZE ISZERO JUMPDEST PUSH2 0x141A JUMPI DUP6 DUP3 DUP3 DUP8 SWAP9 PUSH1 0x1 SLOAD AND PUSH1 0x40 MLOAD SWAP3 DUP4 DUP1 SWAP3 PUSH4 0xB1E3A941 PUSH1 0xE0 SHL DUP3 MSTORE DUP11 PUSH1 0x4 DUP4 ADD MSTORE GAS STATICCALL SWAP2 DUP3 ISZERO PUSH2 0x140F JUMPI DUP8 SWAP3 DUP5 SWAP3 DUP5 SWAP2 PUSH2 0x13D4 JUMPI JUMPDEST POP AND SWAP6 PUSH2 0x133F DUP8 ISZERO ISZERO PUSH2 0x173F JUMP JUMPDEST PUSH1 0x44 PUSH1 0x40 MLOAD DUP1 SWAP5 DUP2 SWAP4 PUSH4 0x95EA7B3 PUSH1 0xE0 SHL DUP4 MSTORE DUP11 PUSH1 0x4 DUP5 ADD MSTORE DUP10 DUP10 DUP5 ADD MSTORE GAS CALL DUP1 ISZERO PUSH2 0x13C9 JUMPI PUSH2 0x13AB JUMPI JUMPDEST POP POP DUP3 EXTCODESIZE ISZERO PUSH2 0x3C9 JUMPI PUSH1 0x64 DUP5 SWAP3 DUP4 PUSH1 0x40 MLOAD SWAP6 DUP7 SWAP5 DUP6 SWAP4 PUSH4 0x2C6C3AF3 PUSH1 0xE2 SHL DUP6 MSTORE PUSH1 0x4 DUP6 ADD MSTORE PUSH1 0x44 CALLDATALOAD SWAP1 DUP5 ADD MSTORE CALLER PUSH1 0x44 DUP5 ADD MSTORE GAS CALL DUP1 ISZERO PUSH2 0x27D JUMPI PUSH2 0x3B9 JUMPI POP RETURN JUMPDEST DUP2 PUSH2 0x13C1 SWAP3 SWAP1 RETURNDATASIZE LT PUSH2 0x1052 JUMPI PUSH2 0x1043 DUP2 DUP4 PUSH2 0x16F1 JUMP JUMPDEST POP PUSH0 DUP1 PUSH2 0x136A JUMP JUMPDEST PUSH1 0x40 MLOAD RETURNDATASIZE DUP9 DUP3 RETURNDATACOPY RETURNDATASIZE SWAP1 REVERT JUMPDEST SWAP3 DUP1 SWAP3 SWAP5 POP DUP4 SWAP2 POP RETURNDATASIZE DUP4 GT PUSH2 0x1408 JUMPI JUMPDEST PUSH2 0x13EE DUP2 DUP4 PUSH2 0x16F1 JUMP JUMPDEST DUP2 ADD SUB SLT PUSH2 0x693 JUMPI DUP7 SWAP2 PUSH2 0x1402 DUP5 SWAP3 PUSH2 0x1713 JUMP JUMPDEST PUSH0 PUSH2 0x1331 JUMP JUMPDEST POP RETURNDATASIZE PUSH2 0x13E4 JUMP JUMPDEST PUSH1 0x40 MLOAD RETURNDATASIZE DUP10 DUP3 RETURNDATACOPY RETURNDATASIZE SWAP1 REVERT JUMPDEST POP PUSH1 0x40 MLOAD PUSH4 0x5274AFE7 PUSH1 0xE0 SHL DUP2 MSTORE PUSH1 0x4 DUP2 ADD DUP5 SWAP1 MSTORE REVERT JUMPDEST PUSH1 0x1 EQ ISZERO PUSH2 0x12F9 JUMP JUMPDEST PUSH1 0x40 MLOAD RETURNDATASIZE DUP7 DUP3 RETURNDATACOPY RETURNDATASIZE SWAP1 REVERT JUMPDEST DUP5 PUSH4 0x4E487B71 PUSH1 0xE0 SHL PUSH0 MSTORE PUSH1 0x41 PUSH1 0x4 MSTORE PUSH0 REVERT JUMPDEST POP CALLVALUE PUSH2 0x191 JUMPI PUSH1 0x40 CALLDATASIZE PUSH1 0x3 NOT ADD SLT PUSH2 0x191 JUMPI PUSH2 0x1472 PUSH2 0x1639 JUMP JUMPDEST PUSH1 0x1 SLOAD DUP2 SWAP1 PUSH1 0x1 PUSH1 0x1 PUSH1 0xA0 SHL SUB AND DUP1 EXTCODESIZE ISZERO PUSH2 0x1235 JUMPI DUP2 SWAP1 PUSH1 0x44 PUSH1 0x40 MLOAD DUP1 SWAP5 DUP2 SWAP4 PUSH3 0x2DE3E7 PUSH1 0xE6 SHL DUP4 MSTORE PUSH1 0x4 CALLDATALOAD PUSH1 0x4 DUP5 ADD MSTORE PUSH1 0x24 CALLDATALOAD PUSH1 0x24 DUP5 ADD MSTORE GAS CALL DUP1 ISZERO PUSH2 0x27D JUMPI PUSH2 0x14BB JUMPI POP DUP1 RETURN JUMPDEST PUSH2 0x14C4 SWAP1 PUSH2 0x16A5 JUMP JUMPDEST DUP1 RETURN JUMPDEST DUP3 CALLVALUE PUSH2 0x191 JUMPI PUSH1 0x40 CALLDATASIZE PUSH1 0x3 NOT ADD SLT PUSH2 0x191 JUMPI PUSH2 0x14E1 PUSH2 0x15DC JUMP JUMPDEST PUSH2 0x14E9 PUSH2 0x15F2 JUMP JUMPDEST PUSH1 0x1 SLOAD PUSH4 0xB1E3A941 PUSH1 0xE0 SHL DUP6 MSTORE PUSH1 0x1 PUSH1 0x1 PUSH1 0xA0 SHL SUB SWAP3 DUP4 AND PUSH1 0x4 DUP7 ADD MSTORE PUSH1 0x20 SWAP5 SWAP2 SWAP3 SWAP2 SWAP1 DUP6 SWAP1 DUP3 SWAP1 PUSH1 0x24 SWAP1 DUP3 SWAP1 DUP7 AND GAS STATICCALL SWAP1 DUP2 ISZERO PUSH2 0x143A JUMPI SWAP1 DUP6 SWAP3 SWAP2 DUP6 SWAP2 PUSH2 0x15A0 JUMPI JUMPDEST POP DUP2 PUSH1 0x24 SWAP2 AND SWAP4 PUSH2 0x153E DUP6 ISZERO ISZERO PUSH2 0x173F JUMP JUMPDEST PUSH1 0x40 MLOAD SWAP5 DUP6 SWAP4 DUP5 SWAP3 PUSH4 0x18E521FD PUSH1 0xE2 SHL DUP5 MSTORE AND PUSH1 0x4 DUP4 ADD MSTORE GAS STATICCALL SWAP2 DUP3 ISZERO PUSH2 0x240 JUMPI DUP1 SWAP3 PUSH2 0x1570 JUMPI JUMPDEST POP POP PUSH1 0x40 MLOAD SWAP1 DUP2 MSTORE RETURN JUMPDEST SWAP1 SWAP2 POP DUP3 DUP3 DUP2 RETURNDATASIZE DUP4 GT PUSH2 0x1599 JUMPI JUMPDEST PUSH2 0x1588 DUP2 DUP4 PUSH2 0x16F1 JUMP JUMPDEST DUP2 ADD SUB SLT PUSH2 0x191 JUMPI POP MLOAD DUP3 DUP1 PUSH2 0x1566 JUMP JUMPDEST POP RETURNDATASIZE PUSH2 0x157E JUMP JUMPDEST DUP4 DUP2 SWAP4 SWAP5 SWAP3 POP RETURNDATASIZE DUP4 GT PUSH2 0x15D5 JUMPI JUMPDEST PUSH2 0x15B8 DUP2 DUP4 PUSH2 0x16F1 JUMP JUMPDEST DUP2 ADD SUB SLT PUSH2 0x69F JUMPI SWAP1 PUSH1 0x24 DUP2 PUSH2 0x15CE DUP8 SWAP5 PUSH2 0x1713 JUMP JUMPDEST SWAP2 POP PUSH2 0x152C JUMP JUMPDEST POP RETURNDATASIZE PUSH2 0x15AE JUMP JUMPDEST PUSH1 0x4 CALLDATALOAD SWAP1 PUSH1 0x1 PUSH1 0x1 PUSH1 0xA0 SHL SUB DUP3 AND DUP3 SUB PUSH2 0x235 JUMPI JUMP JUMPDEST PUSH1 0x24 CALLDATALOAD SWAP1 PUSH1 0x1 PUSH1 0x1 PUSH1 0xA0 SHL SUB DUP3 AND DUP3 SUB PUSH2 0x235 JUMPI JUMP JUMPDEST SWAP2 DUP2 PUSH1 0x1F DUP5 ADD SLT ISZERO PUSH2 0x235 JUMPI DUP3 CALLDATALOAD SWAP2 PUSH8 0xFFFFFFFFFFFFFFFF DUP4 GT PUSH2 0x235 JUMPI PUSH1 0x20 DUP1 DUP6 ADD SWAP5 DUP5 PUSH1 0x6 SHL ADD ADD GT PUSH2 0x235 JUMPI JUMP JUMPDEST PUSH0 SLOAD PUSH1 0x1 PUSH1 0x1 PUSH1 0xA0 SHL SUB AND CALLER SUB PUSH2 0x164C JUMPI JUMP JUMPDEST PUSH1 0x40 MLOAD PUSH4 0x118CDAA7 PUSH1 0xE0 SHL DUP2 MSTORE CALLER PUSH1 0x4 DUP3 ADD MSTORE PUSH1 0x24 SWAP1 REVERT JUMPDEST ISZERO PUSH2 0x166B JUMPI JUMP JUMPDEST PUSH1 0x40 MLOAD PUSH3 0x461BCD PUSH1 0xE5 SHL DUP2 MSTORE PUSH1 0x20 PUSH1 0x4 DUP3 ADD MSTORE PUSH1 0x12 PUSH1 0x24 DUP3 ADD MSTORE PUSH18 0x149BDD5D195C881A5CC8191A5CD8589B1959 PUSH1 0x72 SHL PUSH1 0x44 DUP3 ADD MSTORE PUSH1 0x64 SWAP1 REVERT JUMPDEST PUSH8 0xFFFFFFFFFFFFFFFF DUP2 GT PUSH2 0x10BE JUMPI PUSH1 0x40 MSTORE JUMP JUMPDEST PUSH1 0x40 DUP2 ADD SWAP1 DUP2 LT PUSH8 0xFFFFFFFFFFFFFFFF DUP3 GT OR PUSH2 0x10BE JUMPI PUSH1 0x40 MSTORE JUMP JUMPDEST PUSH1 0x20 DUP2 ADD SWAP1 DUP2 LT PUSH8 0xFFFFFFFFFFFFFFFF DUP3 GT OR PUSH2 0x10BE JUMPI PUSH1 0x40 MSTORE JUMP JUMPDEST SWAP1 PUSH1 0x1F DUP1 NOT SWAP2 ADD AND DUP2 ADD SWAP1 DUP2 LT PUSH8 0xFFFFFFFFFFFFFFFF DUP3 GT OR PUSH2 0x10BE JUMPI PUSH1 0x40 MSTORE JUMP JUMPDEST MLOAD SWAP1 PUSH1 0x1 PUSH1 0x1 PUSH1 0xA0 SHL SUB DUP3 AND DUP3 SUB PUSH2 0x235 JUMPI JUMP JUMPDEST PUSH8 0xFFFFFFFFFFFFFFFF DUP2 GT PUSH2 0x10BE JUMPI PUSH1 0x5 SHL PUSH1 0x20 ADD SWAP1 JUMP JUMPDEST ISZERO PUSH2 0x1746 JUMPI JUMP JUMPDEST PUSH1 0x40 MLOAD PUSH3 0x461BCD PUSH1 0xE5 SHL DUP2 MSTORE PUSH1 0x20 PUSH1 0x4 DUP3 ADD MSTORE PUSH1 0xF PUSH1 0x24 DUP3 ADD MSTORE PUSH15 0x1D985D5B1D081B9BDD08199BDD5B99 PUSH1 0x8A SHL PUSH1 0x44 DUP3 ADD MSTORE PUSH1 0x64 SWAP1 REVERT JUMPDEST SWAP1 DUP2 PUSH1 0x20 SWAP2 SUB SLT PUSH2 0x235 JUMPI MLOAD DUP1 ISZERO ISZERO DUP2 SUB PUSH2 0x235 JUMPI SWAP1 JUMP JUMPDEST PUSH0 NOT DUP2 EQ PUSH2 0x17A3 JUMPI PUSH1 0x1 ADD SWAP1 JUMP JUMPDEST PUSH4 0x4E487B71 PUSH1 0xE0 SHL PUSH0 MSTORE PUSH1 0x11 PUSH1 0x4 MSTORE PUSH1 0x24 PUSH0 REVERT JUMPDEST DUP1 MLOAD DUP3 LT ISZERO PUSH2 0x17CB JUMPI PUSH1 0x20 SWAP2 PUSH1 0x5 SHL ADD ADD SWAP1 JUMP JUMPDEST PUSH4 0x4E487B71 PUSH1 0xE0 SHL PUSH0 MSTORE PUSH1 0x32 PUSH1 0x4 MSTORE PUSH1 0x24 PUSH0 REVERT JUMPDEST SWAP1 PUSH2 0x17E9 DUP3 PUSH2 0x1727 JUMP JUMPDEST PUSH1 0x40 SWAP1 PUSH2 0x17F8 DUP3 MLOAD SWAP2 DUP3 PUSH2 0x16F1 JUMP JUMPDEST DUP4 DUP2 MSTORE DUP1 SWAP4 PUSH2 0x1809 PUSH1 0x1F NOT SWAP2 PUSH2 0x1727 JUMP JUMPDEST ADD SWAP2 PUSH0 SWAP1 DUP2 JUMPDEST DUP5 DUP2 LT PUSH2 0x181D JUMPI POP POP POP POP POP JUMP JUMPDEST PUSH1 0x20 SWAP1 DUP3 MLOAD PUSH2 0x182B DUP2 PUSH2 0x16B9 JUMP JUMPDEST DUP5 DUP2 MSTORE DUP3 DUP6 DUP2 DUP4 ADD MSTORE DUP3 DUP8 ADD ADD MSTORE ADD PUSH2 0x180F JUMP JUMPDEST SWAP2 SWAP1 DUP3 PUSH1 0x40 SWAP2 SUB SLT PUSH2 0x235 JUMPI PUSH1 0x20 DUP3 MLOAD SWAP3 ADD MLOAD SWAP1 JUMP INVALID LOG2 PUSH5 0x6970667358 0x22 SLT KECCAK256 XOR 0xAC PUSH27 0xCF0F4E1D5DDCFE821F751257D85D5BF2D57E711B2A4BDEBC163E81 SWAP15 PUSH8 0x64736F6C63430008 EQ STOP CALLER "
		},
		"gasEstimates": {
			"creation": {
				"codeDepositCost": "1256600",
				"executionCost": "infinite",
				"totalCost": "infinite"
			},
			"external": {
				"closeVault(address)": "infinite",
				"createVault(address,uint256,uint256,int256,uint256[],(uint256,uint256)[],(uint256,uint256)[])": "infinite",
				"disableRouter()": "26922",
				"enableRouter()": "26822",
				"factory()": "2619",
				"getAllVaults()": "infinite",
				"getFactory()": "2443",
				"getFees()": "infinite",
				"getProtocol()": "infinite",
				"getVaultByToken(address)": "infinite",
				"getVaultInfo(address)": "infinite",
				"getXP(address,address)": "infinite",
				"isRouterEnabled()": "2349",
				"owner()": "2462",
				"releaseAll(address)": "infinite",
				"releaseFor(address,address)": "infinite",
				"renounceOwnership()": "28194",
				"setFactory(address)": "26744",
				"setFees(uint256,uint256)": "infinite",
				"stake(address,uint256,uint256)": "infinite",
				"transferOwnership(address)": "28593"
			}
		},
		"methodIdentifiers": {
			"closeVault(address)": "c99cb2b7",
			"createVault(address,uint256,uint256,int256,uint256[],(uint256,uint256)[],(uint256,uint256)[])": "a444477b",
			"disableRouter()": "d858a7e5",
			"enableRouter()": "b0f07f15",
			"factory()": "c45a0155",
			"getAllVaults()": "97331bf9",
			"getFactory()": "88cc58e4",
			"getFees()": "db8d55f1",
			"getProtocol()": "d16352af",
			"getVaultByToken(address)": "b1e3a941",
			"getVaultInfo(address)": "90229af7",
			"getXP(address,address)": "05e2e95d",
			"isRouterEnabled()": "55197241",
			"owner()": "8da5cb5b",
			"releaseAll(address)": "580fc80a",
			"releaseFor(address,address)": "96d8ef8e",
			"renounceOwnership()": "715018a6",
			"setFactory(address)": "5bb47808",
			"setFees(uint256,uint256)": "0b78f9c0",
			"stake(address,uint256,uint256)": "0c51b88f",
			"transferOwnership(address)": "f2fde38b"
		}
	},
	"abi": [
		{
			"inputs": [
				{
					"internalType": "address",
					"name": "_factory",
					"type": "address"
				},
				{
					"internalType": "address",
					"name": "_protocol",
					"type": "address"
				}
			],
			"stateMutability": "nonpayable",
			"type": "constructor"
		},
		{
			"inputs": [
				{
					"internalType": "address",
					"name": "owner",
					"type": "address"
				}
			],
			"name": "OwnableInvalidOwner",
			"type": "error"
		},
		{
			"inputs": [
				{
					"internalType": "address",
					"name": "account",
					"type": "address"
				}
			],
			"name": "OwnableUnauthorizedAccount",
			"type": "error"
		},
		{
			"inputs": [
				{
					"internalType": "address",
					"name": "token",
					"type": "address"
				}
			],
			"name": "SafeERC20FailedOperation",
			"type": "error"
		},
		{
			"anonymous": false,
			"inputs": [
				{
					"indexed": true,
					"internalType": "address",
					"name": "previousOwner",
					"type": "address"
				},
				{
					"indexed": true,
					"internalType": "address",
					"name": "newOwner",
					"type": "address"
				}
			],
			"name": "OwnershipTransferred",
			"type": "event"
		},
		{
			"inputs": [
				{
					"internalType": "address",
					"name": "vaultAddr",
					"type": "address"
				}
			],
			"name": "closeVault",
			"outputs": [],
			"stateMutability": "nonpayable",
			"type": "function"
		},
		{
			"inputs": [
				{
					"internalType": "address",
					"name": "token",
					"type": "address"
				},
				{
					"internalType": "uint256",
					"name": "minDeposit",
					"type": "uint256"
				},
				{
					"internalType": "uint256",
					"name": "maxDeposit",
					"type": "uint256"
				},
				{
					"internalType": "int256",
					"name": "xpRate",
					"type": "int256"
				},
				{
					"internalType": "uint256[]",
					"name": "presetTimes",
					"type": "uint256[]"
				},
				{
					"components": [
						{
							"internalType": "uint256",
							"name": "minBlocks",
							"type": "uint256"
						},
						{
							"internalType": "uint256",
							"name": "multiplierBP",
							"type": "uint256"
						}
					],
					"internalType": "struct IVaultFactory.TimeMultiplierIn[]",
					"name": "timeMultipliers",
					"type": "tuple[]"
				},
				{
					"components": [
						{
							"internalType": "uint256",
							"name": "minAmount",
							"type": "uint256"
						},
						{
							"internalType": "uint256",
							"name": "multiplierBP",
							"type": "uint256"
						}
					],
					"internalType": "struct IVaultFactory.AmountMultiplierIn[]",
					"name": "amountMultipliers",
					"type": "tuple[]"
				}
			],
			"name": "createVault",
			"outputs": [
				{
					"internalType": "address",
					"name": "vaultAddr",
					"type": "address"
				}
			],
			"stateMutability": "nonpayable",
			"type": "function"
		},
		{
			"inputs": [],
			"name": "disableRouter",
			"outputs": [],
			"stateMutability": "nonpayable",
			"type": "function"
		},
		{
			"inputs": [],
			"name": "enableRouter",
			"outputs": [],
			"stateMutability": "nonpayable",
			"type": "function"
		},
		{
			"inputs": [],
			"name": "factory",
			"outputs": [
				{
					"internalType": "address",
					"name": "",
					"type": "address"
				}
			],
			"stateMutability": "view",
			"type": "function"
		},
		{
			"inputs": [],
			"name": "getAllVaults",
			"outputs": [
				{
					"internalType": "address[]",
					"name": "",
					"type": "address[]"
				}
			],
			"stateMutability": "view",
			"type": "function"
		},
		{
			"inputs": [],
			"name": "getFactory",
			"outputs": [
				{
					"internalType": "address",
					"name": "",
					"type": "address"
				}
			],
			"stateMutability": "view",
			"type": "function"
		},
		{
			"inputs": [],
			"name": "getFees",
			"outputs": [
				{
					"internalType": "uint256",
					"name": "protocolFeeBP",
					"type": "uint256"
				},
				{
					"internalType": "uint256",
					"name": "callerFeeBP",
					"type": "uint256"
				}
			],
			"stateMutability": "view",
			"type": "function"
		},
		{
			"inputs": [],
			"name": "getProtocol",
			"outputs": [
				{
					"internalType": "address",
					"name": "",
					"type": "address"
				}
			],
			"stateMutability": "view",
			"type": "function"
		},
		{
			"inputs": [
				{
					"internalType": "address",
					"name": "token",
					"type": "address"
				}
			],
			"name": "getVaultByToken",
			"outputs": [
				{
					"internalType": "address",
					"name": "",
					"type": "address"
				}
			],
			"stateMutability": "view",
			"type": "function"
		},
		{
			"inputs": [
				{
					"internalType": "address",
					"name": "vault",
					"type": "address"
				}
			],
			"name": "getVaultInfo",
			"outputs": [
				{
					"components": [
						{
							"internalType": "bool",
							"name": "isActive",
							"type": "bool"
						},
						{
							"internalType": "address",
							"name": "token",
							"type": "address"
						},
						{
							"internalType": "int256",
							"name": "xpRate",
							"type": "int256"
						},
						{
							"internalType": "uint256[]",
							"name": "presetTimes",
							"type": "uint256[]"
						},
						{
							"components": [
								{
									"internalType": "uint256",
									"name": "minBlocks",
									"type": "uint256"
								},
								{
									"internalType": "uint256",
									"name": "multiplierBP",
									"type": "uint256"
								}
							],
							"internalType": "struct IVaultFactory.TimeMultiplierIn[]",
							"name": "timeMultipliers",
							"type": "tuple[]"
						},
						{
							"components": [
								{
									"internalType": "uint256",
									"name": "minAmount",
									"type": "uint256"
								},
								{
									"internalType": "uint256",
									"name": "multiplierBP",
									"type": "uint256"
								}
							],
							"internalType": "struct IVaultFactory.AmountMultiplierIn[]",
							"name": "amountMultipliers",
							"type": "tuple[]"
						},
						{
							"internalType": "uint256",
							"name": "minDeposit",
							"type": "uint256"
						},
						{
							"internalType": "uint256",
							"name": "maxDeposit",
							"type": "uint256"
						}
					],
					"internalType": "struct YunaVaultRouter.VaultInfo",
					"name": "info",
					"type": "tuple"
				}
			],
			"stateMutability": "view",
			"type": "function"
		},
		{
			"inputs": [
				{
					"internalType": "address",
					"name": "tokenAddr",
					"type": "address"
				},
				{
					"internalType": "address",
					"name": "holder",
					"type": "address"
				}
			],
			"name": "getXP",
			"outputs": [
				{
					"internalType": "uint256",
					"name": "",
					"type": "uint256"
				}
			],
			"stateMutability": "view",
			"type": "function"
		},
		{
			"inputs": [],
			"name": "isRouterEnabled",
			"outputs": [
				{
					"internalType": "bool",
					"name": "",
					"type": "bool"
				}
			],
			"stateMutability": "view",
			"type": "function"
		},
		{
			"inputs": [],
			"name": "owner",
			"outputs": [
				{
					"internalType": "address",
					"name": "",
					"type": "address"
				}
			],
			"stateMutability": "view",
			"type": "function"
		},
		{
			"inputs": [
				{
					"internalType": "address",
					"name": "vault",
					"type": "address"
				}
			],
			"name": "releaseAll",
			"outputs": [],
			"stateMutability": "nonpayable",
			"type": "function"
		},
		{
			"inputs": [
				{
					"internalType": "address",
					"name": "vault",
					"type": "address"
				},
				{
					"internalType": "address",
					"name": "beneficiary",
					"type": "address"
				}
			],
			"name": "releaseFor",
			"outputs": [],
			"stateMutability": "nonpayable",
			"type": "function"
		},
		{
			"inputs": [],
			"name": "renounceOwnership",
			"outputs": [],
			"stateMutability": "nonpayable",
			"type": "function"
		},
		{
			"inputs": [
				{
					"internalType": "address",
					"name": "_factory",
					"type": "address"
				}
			],
			"name": "setFactory",
			"outputs": [],
			"stateMutability": "nonpayable",
			"type": "function"
		},
		{
			"inputs": [
				{
					"internalType": "uint256",
					"name": "protocolFeeBP",
					"type": "uint256"
				},
				{
					"internalType": "uint256",
					"name": "callerFeeBP",
					"type": "uint256"
				}
			],
			"name": "setFees",
			"outputs": [],
			"stateMutability": "nonpayable",
			"type": "function"
		},
		{
			"inputs": [
				{
					"internalType": "address",
					"name": "tokenAddr",
					"type": "address"
				},
				{
					"internalType": "uint256",
					"name": "amount",
					"type": "uint256"
				},
				{
					"internalType": "uint256",
					"name": "blocksToStake",
					"type": "uint256"
				}
			],
			"name": "stake",
			"outputs": [],
			"stateMutability": "nonpayable",
			"type": "function"
		},
		{
			"inputs": [
				{
					"internalType": "address",
					"name": "newOwner",
					"type": "address"
				}
			],
			"name": "transferOwnership",
			"outputs": [],
			"stateMutability": "nonpayable",
			"type": "function"
		}
	]
}