{
	"data": {
		"bytecode": {
			"linkReferences": {},
			"object": "61014060405234620004b35762002195803803806200001e81620004cc565b928339610120828281010312620004b3576200003a82620004f2565b906200004960208401620004f2565b926200005860408201620004f2565b6060820151608083015160a084015160c0850151979092906001600160401b038911620004b357868601601f8a8801011215620004b3578886015195620000a9620000a38862000507565b620004cc565b9660208882815201809b8a840160208460051b838701010111620004b35790602082850101915b60208460051b82870101018310620004b7575050505060e08101516001600160401b038111620004b3578101888201601f82011215620004b3576200011f90898301906020815191016200051f565b6101008201519098906001600160401b038111620004b357820190808301601f83011215620004b3576200015b9201906020815191016200051f565b60015f8190556004805461ffff19169091179055976001600160a01b038082161562000481578216156200045257838311620004235760805260c05260e052610100526101205260a052516001600160401b0381116200026c5768010000000000000000938482116200026c5760015482600155808310620003dc575b5060015f5260205f205f5b838110620003c757505050505f5b81518110156200028057620002078183620005d6565b51906002805492868410156200026c5760018401808355841015620002585762000252936200024c925f5260205f209060011b01906020600191805184550151910155565b620005b3565b620001f1565b634e487b7160e01b5f52603260045260245ffd5b634e487b7160e01b5f52604160045260245ffd5b50505f5b8151811015620002e5576200029a8183620005d6565b51906003805492858410156200026c57600184018083558410156200025857620002df936200024c925f5260205f209060011b01906020600191805184550151910155565b62000284565b604051611ba99081620005ec823960805181818161028b0152818161082a01528181610a9101528181610c2601528181610fc30152611342015260a0518181816101e40152818161068f01528181610bca01528181611232015281816113b20152818161164001526118f4015260c0518181816103500152818161096601528181610a5801528181610ab201528181610b24015281816110b2015281816111c2015281816111f50152611569015260e0518181816102da01526112ab01526101005181818161061f0152610f5001526101205181818161142e0152611a270152f35b600190602084519401938184015501620001e3565b60015f527fb10e2d527612073b26eecdfd717e6a320cf44b4afac2b0732d9fcbe2b7fa0cf69081019083015b818110620004175750620001d8565b5f815560010162000408565b60405162461bcd60e51b81526020600482015260076024820152660dad2dc7cdac2f60cb1b6044820152606490fd5b60405162461bcd60e51b81526020600482015260076024820152660746f6b656e20360cc1b6044820152606490fd5b60405162461bcd60e51b815260206004820152600a602482015269070726f746f636f6c20360b41b6044820152606490fd5b5f80fd5b602080809385518152019301929150620000d0565b6040519190601f01601f191682016001600160401b038111838210176200026c57604052565b51906001600160a01b0382168203620004b357565b6001600160401b0381116200026c5760051b60200190565b90929162000531620000a38562000507565b938085526020918286019160061b840193818511620004b357915b8483106200055b575050505050565b60408084840312620004b357805180820192906001600160401b038411818510176200059f576040938793528551815282860151838201528152019201916200054c565b60245f634e487b7160e01b81526041600452fd5b5f198114620005c25760010190565b634e487b7160e01b5f52601160045260245ffd5b8051821015620002585760209160051b01019056fe6080806040526004361015610012575f80fd5b5f3560e01c90816302fb0c5e1461145157508063094b81d31461141757806310390d35146113ee57806318976fa21461132557806322f3e2d4146112eb578063359cfbf7146112ce57806341b3d185146112945780635350cbd91461126b578063580fc80a14610f98578063597e1fb514610f735780636083e59a14610f39578063639487f414610d625780636a5908a014610d195780636c4470fb14610c55578063703bafd51461015b5780638ce7442614610c1157806396d8ef8e146107f357806399fbab8814610788578063a0660dfa1461074b578063a547afe01461071f578063ac55deb6146106c8578063b1b0ebcc1461024d578063b9b792cd14610230578063c122c2a114610213578063c45a0155146101cf578063cba02476146101a7578063d6887bfa1461018a578063db8d55f1146101605763fc0c546a1461015b575f80fd5b611554565b34610186575f36600319011261018657604061017a6118e1565b82519182526020820152f35b5f80fd5b34610186575f366003190112610186576020600554604051908152f35b346101865760203660031901126101865760206101c56004356116d1565b6040519015158152f35b34610186575f366003190112610186576040517f00000000000000000000000000000000000000000000000000000000000000006001600160a01b03168152602090f35b34610186575f366003190112610186576020600254604051908152f35b34610186575f366003190112610186576020600354604051908152f35b34610186576060366003190112610186576001600160a01b036044803582811691600435916024803592909185900361018657610288611793565b857f000000000000000000000000000000000000000000000000000000000000000016331480156106b6575b801561068b575b6102c490611718565b60045460ff8116908161067c575b5015610646577f00000000000000000000000000000000000000000000000000000000000000008410158061061c575b156105e25782156105b457610316836116d1565b1561057c5761037590604051906323b872dd60e01b6020830152338483015230908201528460648201526064815261034d816115d0565b867f0000000000000000000000000000000000000000000000000000000000000000166117e7565b61037f8243611754565b946040519161038d836115d0565b858352602083019285845260408101974389526060820190815260808201985f8a5260055494600160401b9586811015610569578060016103d19201600555611598565b9490946105575751845491166001600160a01b03199182161784559551600184015551600283015551600382015596516004909701805460ff1990811698151560ff169890981790556005545f1981019790881161054357865f52600660205261043e8860405f2061176e565b865f52600960205260405f2090815460ff81161561049f575b89897f9cfd25589d1eb8ad71e342a86a8524e83522e3936c0803048c08f6d9ad974f4060608b6104878c43611754565b6040519182524360208301526040820152a360015f55005b1660011790556008549182101561053057600182018060085582101561051d575060085f527ff3f7a9fe364faab93b216da50a3214154f22a0a2b415b23a84c8169e8b636ee3018054909116841790558161048760607f9cfd25589d1eb8ad71e342a86a8524e83522e3936c0803048c08f6d9ad974f408880610457565b634e487b7160e01b5f9081526032600452fd5b634e487b7160e01b5f9081526041600452fd5b50634e487b7160e01b5f9081526011600452fd5b85634e487b7160e01b5f525f6004525ffd5b85634e487b7160e01b5f5260416004525ffd5b90711c1c995cd95d081b9bdd08185b1b1bddd95960721b60649260126040519362461bcd60e51b855260206004860152840152820152fd5b90670626c6f636b733e360c41b60649260086040519362461bcd60e51b855260206004860152840152820152fd5b9073616d6f756e74206f7574206f6620626f756e647360601b60649260146040519362461bcd60e51b855260206004860152840152820152fd5b507f0000000000000000000000000000000000000000000000000000000000000000841115610302565b906f7661756c74206e6f742061637469766560801b60649260106040519362461bcd60e51b855260206004860152840152820152fd5b60ff915060081c1615876102d2565b50337f00000000000000000000000000000000000000000000000000000000000000008716146102bb565b50856106c0611622565b1633146102b4565b34610186576040366003190112610186576106e161153e565b6001600160a01b03165f9081526007602052604090208054602435919082101561018657602091610711916114b9565b90546040519160031b1c8152f35b34610186575f366003190112610186576020610739611622565b6040516001600160a01b039091168152f35b346101865760203660031901126101865760043560035481101561018657610774604091611506565b506001815491015482519182526020820152f35b3461018657602036600319011261018657600435600554811015610186576107b160a091611598565b50600180831b0381541690600181015490600281015460ff60046003840154930154169260405194855260208501526040840152606083015215156080820152f35b346101865760403660031901126101865761080c61153e565b6024356001600160a01b038116900361018657610827611793565b337f00000000000000000000000000000000000000000000000000000000000000006001600160a01b0316148015610bf8575b8015610bc6575b61086a90611718565b6108726118e1565b6001600160a01b0383165f90815260066020526040812091939092905b8254841015610bc0576108a284846114b9565b9054906108b3828260031b1c611598565b506003810154431090600481019182549260ff82818616159182610b9f575b505015610b8957906109ea95949392916001809460ff1916179055155f14610b0757610923906024356001600160a01b03908116908816148015610af75788935b8201549361271093849186611841565b04926109398a6109338688611761565b96611841565b045f9115610ae5575b80610a8b575b5080610a4f575b50805461098b9084906001600160a01b03908116907f000000000000000000000000000000000000000000000000000000000000000016611891565b60018060a01b039054169060405192835260208301527f7b381718bec1e0dbc1241809ee9b55f3d783b95880307f002707fad981fa50696040858560031b1c93a35b60018060a01b0384165f52600760205260031b1c60405f2061176e565b82545f198101908111610a3b57610a04610a2d91856114b9565b90549060031b1c610a1586866114b9565b90919082549060031b91821b915f19901b1916179055565b610a3683611854565b61088f565b634e487b7160e01b5f52601160045260245ffd5b610a85906024357f00000000000000000000000000000000000000000000000000000000000000006001600160a01b0316611891565b8b61094f565b610adf907f00000000000000000000000000000000000000000000000000000000000000007f00000000000000000000000000000000000000000000000000000000000000006001600160a01b0316611891565b8c610948565b9050610af18184611761565b90610942565b610b018c8a611754565b93610913565b908101548154909190610b499083906001600160a01b03908116907f000000000000000000000000000000000000000000000000000000000000000016611891565b60018060a01b039054166040519182527fbaea19541010bad0070d3e9eba7d614e4f22a90d557eb4b70272d33a32793a076020858560031b1c93a36109cd565b50505050505092610b99906116c3565b9261088f565b8115925090610bb1575b50828d6108d2565b905060045460081c168c610ba9565b60015f55005b50337f00000000000000000000000000000000000000000000000000000000000000006001600160a01b031614610861565b506001600160a01b03610c09611622565b16331461085a565b34610186575f366003190112610186576040517f00000000000000000000000000000000000000000000000000000000000000006001600160a01b03168152602090f35b34610186575f36600319011261018657604051806008548083526020809301809160085f527ff3f7a9fe364faab93b216da50a3214154f22a0a2b415b23a84c8169e8b636ee3905f5b86828210610cfc578686610cb482880383611600565b60405192839281840190828552518091526040840192915f5b828110610cdc57505050500390f35b83516001600160a01b031685528695509381019392810192600101610ccd565b83546001600160a01b031685529093019260019283019201610c9e565b3461018657604036600319011261018657610d3261153e565b6001600160a01b03165f9081526006602052604090208054602435919082101561018657602091610711916114b9565b346101865760208060031936011261018657610d7c61153e565b6001600160a01b03165f818152600683526040808220905181548082529183528483209094929391859081850190865b86828210610f2357505050610dc392500385611600565b5f526007815260405f20916040518084848296549384815201905f52845f20925f5b86828210610f0d57505050610dfc92500384611600565b5f905b8451821015610e9b57610e24610e1e610e1884886119c6565b51611598565b506119da565b606081018481514381115f14610e965750435b604084019081519081811115610e865792610e6c610e7a9693610e62610e80999794610e7497611761565b9351905190611761565b920151611a24565b90611754565b916116c3565b90610dff565b50505050505090610e80906116c3565b610e37565b5f9291505b8351831015610f0557610eb9610e1e610e1885876119c6565b606081015160408201519081811115610ef85784610eec93610ee2610ef29694610e7494611761565b9182910151611a24565b926116c3565b91610ea0565b50505091610ef2906116c3565b604051908152f35b8554845260019586019589955093019201610de5565b855484526001958601958a955093019201610dac565b34610186575f3660031901126101865760206040517f00000000000000000000000000000000000000000000000000000000000000008152f35b34610186575f36600319011261018657602060ff60045460081c166040519015158152f35b3461018657602036600319011261018657610fb161153e565b610fb9611793565b6001600160a01b037f000000000000000000000000000000000000000000000000000000000000000033828216148015611259575b801561122e575b610ffe90611718565b6110116110096118e1565b819291611754565b905f5b600554811015610bc05761102781611598565b5060048101805460ff81161580611220575b61104f575b50505061104a906116c3565b611014565b9060018895979498939260ff9a979a1916179055600181015487612710806110778c85611841565b049061108d8a6110878487611761565b95611841565b046110988183611761565b90806111ed575b50806111ba575b506110d78386865416877f000000000000000000000000000000000000000000000000000000000000000016611891565b7f7b381718bec1e0dbc1241809ee9b55f3d783b95880307f002707fad981fa506960408686541694859382519182526020820152a35f5260076020526111208760405f2061176e565b54165f52600660205260405f20955f5b8754808210156111a95787611145838b6114b9565b919054600392831b1c1461116357505061115e906116c3565b611130565b5f99919294979598939699198301928311610a3b5761104a94610a1561119c926111906111a196866114b9565b9054911b1c91846114b9565b611854565b90878061103e565b505092955092909361104a906111a1565b6111e79089877f000000000000000000000000000000000000000000000000000000000000000016611891565b8b6110a6565b61121a9088887f000000000000000000000000000000000000000000000000000000000000000016611891565b8c61109f565b506003830154431015611039565b50337f0000000000000000000000000000000000000000000000000000000000000000831614610ff5565b5081611263611622565b163314610fee565b3461018657602036600319011261018657600435600254811015610186576107746040916114ce565b34610186575f3660031901126101865760206040517f00000000000000000000000000000000000000000000000000000000000000008152f35b34610186575f366003190112610186576020600154604051908152f35b34610186575f36600319011261018657602060045460ff81169081611316575b506040519015158152f35b60ff915060081c16158261130b565b34610186575f3660031901126101865761137960018060a01b03807f00000000000000000000000000000000000000000000000000000000000000001633149081156113da575b81156113ae575b50611718565b61010061ffff1960045416176004557fdf23397ab444d891935a0b305b1552fb235d2bd07043ffc42c6ed3f43a4d83525f80a1005b90507f000000000000000000000000000000000000000000000000000000000000000016331482611373565b8091506113e5611622565b1633149061136c565b346101865760203660031901126101865760043560015481101561018657610711602091611470565b34610186575f3660031901126101865760206040517f00000000000000000000000000000000000000000000000000000000000000008152f35b34610186575f3660031901126101865760209060ff6004541615158152f35b6001548110156114a55760015f527fb10e2d527612073b26eecdfd717e6a320cf44b4afac2b0732d9fcbe2b7fa0cf601905f90565b634e487b7160e01b5f52603260045260245ffd5b80548210156114a5575f5260205f2001905f90565b6002548110156114a55760025f5260011b7f405787fa12a823e0f2b7631cc41b3ba8828b3321ca811111fa75cd3aa3bb5ace01905f90565b6003548110156114a55760035f5260011b7fc2575a0e9e593c00f959f8c92f12db2869c3395a3b0502d05e2516446f71f85b01905f90565b600435906001600160a01b038216820361018657565b34610186575f366003190112610186576040517f00000000000000000000000000000000000000000000000000000000000000006001600160a01b03168152602090f35b6005548110156114a557600590815f52027f036b6384b5eca791c62761152d0c79bb0604c104a5fb6f4eb0703f3154bb3db001905f90565b60a0810190811067ffffffffffffffff8211176115ec57604052565b634e487b7160e01b5f52604160045260245ffd5b90601f8019910116810190811067ffffffffffffffff8211176115ec57604052565b604051637cc7003560e11b81526001600160a01b03906020816004817f000000000000000000000000000000000000000000000000000000000000000086165afa9081156116b8575f91611677575b50905090565b6020813d82116116b0575b8161168f60209383611600565b810103126116ac575191821682036116a95750805f611671565b80fd5b5080fd5b3d9150611682565b6040513d5f823e3d90fd5b5f198114610a3b5760010190565b60018054918215611671575f5b8381106116ed57505050505f90565b816116f782611470565b90549060031b1c146117115761170c906116c3565b6116de565b5050905090565b1561171f57565b60405162461bcd60e51b815260206004820152600d60248201526c1bdb9b1e481c1c9bdd1bd8dbdb609a1b6044820152606490fd5b91908201809211610a3b57565b91908203918211610a3b57565b90815491600160401b8310156115ec5782610a15916001611791950181556114b9565b565b60025f54146117a25760025f55565b60405162461bcd60e51b815260206004820152601f60248201527f5265656e7472616e637947756172643a207265656e7472616e742063616c6c006044820152606490fd5b905f602091828151910182855af1156116b8575f513d61183857506001600160a01b0381163b155b6118165750565b604051635274afe760e01b81526001600160a01b039091166004820152602490fd5b6001141561180f565b81810292918115918404141715610a3b57565b805490811561187d575f199182019161186d83836114b9565b909182549160031b1b1916905555565b634e487b7160e01b5f52603160045260245ffd5b60405163a9059cbb60e01b60208201526001600160a01b039092166024830152604480830193909352918152608081019167ffffffffffffffff8311828410176115ec57611791926040526117e7565b6040516318bf741760e31b8152602091907f00000000000000000000000000000000000000000000000000000000000000006001600160a01b0316908381600481855afa9182156116b85784915f93611993575b5060405163f25e78b160e01b81529190829060049082905afa9384156116b8575f94611962575b50509190565b8181959293953d831161198c575b61197a8183611600565b810103126116a9575051915f8061195c565b503d611970565b9182819492943d83116119bf575b6119ab8183611600565b810103126116a95750519083906004611935565b503d6119a1565b80518210156114a55760209160051b010190565b906040516119e7816115d0565b82546001600160a01b0316815260018301546020820152600283015460408201526003830154606082015260049092015460ff1615156080830152565b907f00000000000000000000000000000000000000000000000000000000000000005f808212611b245750611a5c611a619284611841565b611841565b90915b612710905f600254915b828210611ae3575b505050612710905f600354945b858210611aac575b50506127109350611aa1611aa893928592611841565b0490611841565b0490565b9092611ab784611506565b50548210611add5750611ad76001611ace85611506565b500154936116c3565b90611a83565b92611a8b565b9091949392611af1836114ce565b50548210611b1c5750611b116001611b08846114ce565b500154926116c3565b909491929394611a6e565b929394611a76565b91600160ff1b8214611b5f57611b3a9084611841565b918115611b4b570390049091611a64565b634e487b7160e01b81526012600452602490fd5b634e487b7160e01b83526011600452602483fdfea2646970667358221220e696006011c971685f23754765054535de0ad82a96160533fce99f84c210886364736f6c63430008140033",
			"opcodes": "PUSH2 0x140 PUSH1 0x40 MSTORE CALLVALUE PUSH3 0x4B3 JUMPI PUSH3 0x2195 DUP1 CODESIZE SUB DUP1 PUSH3 0x1E DUP2 PUSH3 0x4CC JUMP JUMPDEST SWAP3 DUP4 CODECOPY PUSH2 0x120 DUP3 DUP3 DUP2 ADD SUB SLT PUSH3 0x4B3 JUMPI PUSH3 0x3A DUP3 PUSH3 0x4F2 JUMP JUMPDEST SWAP1 PUSH3 0x49 PUSH1 0x20 DUP5 ADD PUSH3 0x4F2 JUMP JUMPDEST SWAP3 PUSH3 0x58 PUSH1 0x40 DUP3 ADD PUSH3 0x4F2 JUMP JUMPDEST PUSH1 0x60 DUP3 ADD MLOAD PUSH1 0x80 DUP4 ADD MLOAD PUSH1 0xA0 DUP5 ADD MLOAD PUSH1 0xC0 DUP6 ADD MLOAD SWAP8 SWAP1 SWAP3 SWAP1 PUSH1 0x1 PUSH1 0x1 PUSH1 0x40 SHL SUB DUP10 GT PUSH3 0x4B3 JUMPI DUP7 DUP7 ADD PUSH1 0x1F DUP11 DUP9 ADD ADD SLT ISZERO PUSH3 0x4B3 JUMPI DUP9 DUP7 ADD MLOAD SWAP6 PUSH3 0xA9 PUSH3 0xA3 DUP9 PUSH3 0x507 JUMP JUMPDEST PUSH3 0x4CC JUMP JUMPDEST SWAP7 PUSH1 0x20 DUP9 DUP3 DUP2 MSTORE ADD DUP1 SWAP12 DUP11 DUP5 ADD PUSH1 0x20 DUP5 PUSH1 0x5 SHL DUP4 DUP8 ADD ADD ADD GT PUSH3 0x4B3 JUMPI SWAP1 PUSH1 0x20 DUP3 DUP6 ADD ADD SWAP2 JUMPDEST PUSH1 0x20 DUP5 PUSH1 0x5 SHL DUP3 DUP8 ADD ADD ADD DUP4 LT PUSH3 0x4B7 JUMPI POP POP POP POP PUSH1 0xE0 DUP2 ADD MLOAD PUSH1 0x1 PUSH1 0x1 PUSH1 0x40 SHL SUB DUP2 GT PUSH3 0x4B3 JUMPI DUP2 ADD DUP9 DUP3 ADD PUSH1 0x1F DUP3 ADD SLT ISZERO PUSH3 0x4B3 JUMPI PUSH3 0x11F SWAP1 DUP10 DUP4 ADD SWAP1 PUSH1 0x20 DUP2 MLOAD SWAP2 ADD PUSH3 0x51F JUMP JUMPDEST PUSH2 0x100 DUP3 ADD MLOAD SWAP1 SWAP9 SWAP1 PUSH1 0x1 PUSH1 0x1 PUSH1 0x40 SHL SUB DUP2 GT PUSH3 0x4B3 JUMPI DUP3 ADD SWAP1 DUP1 DUP4 ADD PUSH1 0x1F DUP4 ADD SLT ISZERO PUSH3 0x4B3 JUMPI PUSH3 0x15B SWAP3 ADD SWAP1 PUSH1 0x20 DUP2 MLOAD SWAP2 ADD PUSH3 0x51F JUMP JUMPDEST PUSH1 0x1 PUSH0 DUP2 SWAP1 SSTORE PUSH1 0x4 DUP1 SLOAD PUSH2 0xFFFF NOT AND SWAP1 SWAP2 OR SWAP1 SSTORE SWAP8 PUSH1 0x1 PUSH1 0x1 PUSH1 0xA0 SHL SUB DUP1 DUP3 AND ISZERO PUSH3 0x481 JUMPI DUP3 AND ISZERO PUSH3 0x452 JUMPI DUP4 DUP4 GT PUSH3 0x423 JUMPI PUSH1 0x80 MSTORE PUSH1 0xC0 MSTORE PUSH1 0xE0 MSTORE PUSH2 0x100 MSTORE PUSH2 0x120 MSTORE PUSH1 0xA0 MSTORE MLOAD PUSH1 0x1 PUSH1 0x1 PUSH1 0x40 SHL SUB DUP2 GT PUSH3 0x26C JUMPI PUSH9 0x10000000000000000 SWAP4 DUP5 DUP3 GT PUSH3 0x26C JUMPI PUSH1 0x1 SLOAD DUP3 PUSH1 0x1 SSTORE DUP1 DUP4 LT PUSH3 0x3DC JUMPI JUMPDEST POP PUSH1 0x1 PUSH0 MSTORE PUSH1 0x20 PUSH0 KECCAK256 PUSH0 JUMPDEST DUP4 DUP2 LT PUSH3 0x3C7 JUMPI POP POP POP POP PUSH0 JUMPDEST DUP2 MLOAD DUP2 LT ISZERO PUSH3 0x280 JUMPI PUSH3 0x207 DUP2 DUP4 PUSH3 0x5D6 JUMP JUMPDEST MLOAD SWAP1 PUSH1 0x2 DUP1 SLOAD SWAP3 DUP7 DUP5 LT ISZERO PUSH3 0x26C JUMPI PUSH1 0x1 DUP5 ADD DUP1 DUP4 SSTORE DUP5 LT ISZERO PUSH3 0x258 JUMPI PUSH3 0x252 SWAP4 PUSH3 0x24C SWAP3 PUSH0 MSTORE PUSH1 0x20 PUSH0 KECCAK256 SWAP1 PUSH1 0x1 SHL ADD SWAP1 PUSH1 0x20 PUSH1 0x1 SWAP2 DUP1 MLOAD DUP5 SSTORE ADD MLOAD SWAP2 ADD SSTORE JUMP JUMPDEST PUSH3 0x5B3 JUMP JUMPDEST PUSH3 0x1F1 JUMP JUMPDEST PUSH4 0x4E487B71 PUSH1 0xE0 SHL PUSH0 MSTORE PUSH1 0x32 PUSH1 0x4 MSTORE PUSH1 0x24 PUSH0 REVERT JUMPDEST PUSH4 0x4E487B71 PUSH1 0xE0 SHL PUSH0 MSTORE PUSH1 0x41 PUSH1 0x4 MSTORE PUSH1 0x24 PUSH0 REVERT JUMPDEST POP POP PUSH0 JUMPDEST DUP2 MLOAD DUP2 LT ISZERO PUSH3 0x2E5 JUMPI PUSH3 0x29A DUP2 DUP4 PUSH3 0x5D6 JUMP JUMPDEST MLOAD SWAP1 PUSH1 0x3 DUP1 SLOAD SWAP3 DUP6 DUP5 LT ISZERO PUSH3 0x26C JUMPI PUSH1 0x1 DUP5 ADD DUP1 DUP4 SSTORE DUP5 LT ISZERO PUSH3 0x258 JUMPI PUSH3 0x2DF SWAP4 PUSH3 0x24C SWAP3 PUSH0 MSTORE PUSH1 0x20 PUSH0 KECCAK256 SWAP1 PUSH1 0x1 SHL ADD SWAP1 PUSH1 0x20 PUSH1 0x1 SWAP2 DUP1 MLOAD DUP5 SSTORE ADD MLOAD SWAP2 ADD SSTORE JUMP JUMPDEST PUSH3 0x284 JUMP JUMPDEST PUSH1 0x40 MLOAD PUSH2 0x1BA9 SWAP1 DUP2 PUSH3 0x5EC DUP3 CODECOPY PUSH1 0x80 MLOAD DUP2 DUP2 DUP2 PUSH2 0x28B ADD MSTORE DUP2 DUP2 PUSH2 0x82A ADD MSTORE DUP2 DUP2 PUSH2 0xA91 ADD MSTORE DUP2 DUP2 PUSH2 0xC26 ADD MSTORE DUP2 DUP2 PUSH2 0xFC3 ADD MSTORE PUSH2 0x1342 ADD MSTORE PUSH1 0xA0 MLOAD DUP2 DUP2 DUP2 PUSH2 0x1E4 ADD MSTORE DUP2 DUP2 PUSH2 0x68F ADD MSTORE DUP2 DUP2 PUSH2 0xBCA ADD MSTORE DUP2 DUP2 PUSH2 0x1232 ADD MSTORE DUP2 DUP2 PUSH2 0x13B2 ADD MSTORE DUP2 DUP2 PUSH2 0x1640 ADD MSTORE PUSH2 0x18F4 ADD MSTORE PUSH1 0xC0 MLOAD DUP2 DUP2 DUP2 PUSH2 0x350 ADD MSTORE DUP2 DUP2 PUSH2 0x966 ADD MSTORE DUP2 DUP2 PUSH2 0xA58 ADD MSTORE DUP2 DUP2 PUSH2 0xAB2 ADD MSTORE DUP2 DUP2 PUSH2 0xB24 ADD MSTORE DUP2 DUP2 PUSH2 0x10B2 ADD MSTORE DUP2 DUP2 PUSH2 0x11C2 ADD MSTORE DUP2 DUP2 PUSH2 0x11F5 ADD MSTORE PUSH2 0x1569 ADD MSTORE PUSH1 0xE0 MLOAD DUP2 DUP2 DUP2 PUSH2 0x2DA ADD MSTORE PUSH2 0x12AB ADD MSTORE PUSH2 0x100 MLOAD DUP2 DUP2 DUP2 PUSH2 0x61F ADD MSTORE PUSH2 0xF50 ADD MSTORE PUSH2 0x120 MLOAD DUP2 DUP2 DUP2 PUSH2 0x142E ADD MSTORE PUSH2 0x1A27 ADD MSTORE RETURN JUMPDEST PUSH1 0x1 SWAP1 PUSH1 0x20 DUP5 MLOAD SWAP5 ADD SWAP4 DUP2 DUP5 ADD SSTORE ADD PUSH3 0x1E3 JUMP JUMPDEST PUSH1 0x1 PUSH0 MSTORE PUSH32 0xB10E2D527612073B26EECDFD717E6A320CF44B4AFAC2B0732D9FCBE2B7FA0CF6 SWAP1 DUP2 ADD SWAP1 DUP4 ADD JUMPDEST DUP2 DUP2 LT PUSH3 0x417 JUMPI POP PUSH3 0x1D8 JUMP JUMPDEST PUSH0 DUP2 SSTORE PUSH1 0x1 ADD PUSH3 0x408 JUMP JUMPDEST PUSH1 0x40 MLOAD PUSH3 0x461BCD PUSH1 0xE5 SHL DUP2 MSTORE PUSH1 0x20 PUSH1 0x4 DUP3 ADD MSTORE PUSH1 0x7 PUSH1 0x24 DUP3 ADD MSTORE PUSH7 0xDAD2DC7CDAC2F PUSH1 0xCB SHL PUSH1 0x44 DUP3 ADD MSTORE PUSH1 0x64 SWAP1 REVERT JUMPDEST PUSH1 0x40 MLOAD PUSH3 0x461BCD PUSH1 0xE5 SHL DUP2 MSTORE PUSH1 0x20 PUSH1 0x4 DUP3 ADD MSTORE PUSH1 0x7 PUSH1 0x24 DUP3 ADD MSTORE PUSH7 0x746F6B656E203 PUSH1 0xCC SHL PUSH1 0x44 DUP3 ADD MSTORE PUSH1 0x64 SWAP1 REVERT JUMPDEST PUSH1 0x40 MLOAD PUSH3 0x461BCD PUSH1 0xE5 SHL DUP2 MSTORE PUSH1 0x20 PUSH1 0x4 DUP3 ADD MSTORE PUSH1 0xA PUSH1 0x24 DUP3 ADD MSTORE PUSH10 0x70726F746F636F6C203 PUSH1 0xB4 SHL PUSH1 0x44 DUP3 ADD MSTORE PUSH1 0x64 SWAP1 REVERT JUMPDEST PUSH0 DUP1 REVERT JUMPDEST PUSH1 0x20 DUP1 DUP1 SWAP4 DUP6 MLOAD DUP2 MSTORE ADD SWAP4 ADD SWAP3 SWAP2 POP PUSH3 0xD0 JUMP JUMPDEST PUSH1 0x40 MLOAD SWAP2 SWAP1 PUSH1 0x1F ADD PUSH1 0x1F NOT AND DUP3 ADD PUSH1 0x1 PUSH1 0x1 PUSH1 0x40 SHL SUB DUP2 GT DUP4 DUP3 LT OR PUSH3 0x26C JUMPI PUSH1 0x40 MSTORE JUMP JUMPDEST MLOAD SWAP1 PUSH1 0x1 PUSH1 0x1 PUSH1 0xA0 SHL SUB DUP3 AND DUP3 SUB PUSH3 0x4B3 JUMPI JUMP JUMPDEST PUSH1 0x1 PUSH1 0x1 PUSH1 0x40 SHL SUB DUP2 GT PUSH3 0x26C JUMPI PUSH1 0x5 SHL PUSH1 0x20 ADD SWAP1 JUMP JUMPDEST SWAP1 SWAP3 SWAP2 PUSH3 0x531 PUSH3 0xA3 DUP6 PUSH3 0x507 JUMP JUMPDEST SWAP4 DUP1 DUP6 MSTORE PUSH1 0x20 SWAP2 DUP3 DUP7 ADD SWAP2 PUSH1 0x6 SHL DUP5 ADD SWAP4 DUP2 DUP6 GT PUSH3 0x4B3 JUMPI SWAP2 JUMPDEST DUP5 DUP4 LT PUSH3 0x55B JUMPI POP POP POP POP POP JUMP JUMPDEST PUSH1 0x40 DUP1 DUP5 DUP5 SUB SLT PUSH3 0x4B3 JUMPI DUP1 MLOAD DUP1 DUP3 ADD SWAP3 SWAP1 PUSH1 0x1 PUSH1 0x1 PUSH1 0x40 SHL SUB DUP5 GT DUP2 DUP6 LT OR PUSH3 0x59F JUMPI PUSH1 0x40 SWAP4 DUP8 SWAP4 MSTORE DUP6 MLOAD DUP2 MSTORE DUP3 DUP7 ADD MLOAD DUP4 DUP3 ADD MSTORE DUP2 MSTORE ADD SWAP3 ADD SWAP2 PUSH3 0x54C JUMP JUMPDEST PUSH1 0x24 PUSH0 PUSH4 0x4E487B71 PUSH1 0xE0 SHL DUP2 MSTORE PUSH1 0x41 PUSH1 0x4 MSTORE REVERT JUMPDEST PUSH0 NOT DUP2 EQ PUSH3 0x5C2 JUMPI PUSH1 0x1 ADD SWAP1 JUMP JUMPDEST PUSH4 0x4E487B71 PUSH1 0xE0 SHL PUSH0 MSTORE PUSH1 0x11 PUSH1 0x4 MSTORE PUSH1 0x24 PUSH0 REVERT JUMPDEST DUP1 MLOAD DUP3 LT ISZERO PUSH3 0x258 JUMPI PUSH1 0x20 SWAP2 PUSH1 0x5 SHL ADD ADD SWAP1 JUMP INVALID PUSH1 0x80 DUP1 PUSH1 0x40 MSTORE PUSH1 0x4 CALLDATASIZE LT ISZERO PUSH2 0x12 JUMPI PUSH0 DUP1 REVERT JUMPDEST PUSH0 CALLDATALOAD PUSH1 0xE0 SHR SWAP1 DUP2 PUSH4 0x2FB0C5E EQ PUSH2 0x1451 JUMPI POP DUP1 PUSH4 0x94B81D3 EQ PUSH2 0x1417 JUMPI DUP1 PUSH4 0x10390D35 EQ PUSH2 0x13EE JUMPI DUP1 PUSH4 0x18976FA2 EQ PUSH2 0x1325 JUMPI DUP1 PUSH4 0x22F3E2D4 EQ PUSH2 0x12EB JUMPI DUP1 PUSH4 0x359CFBF7 EQ PUSH2 0x12CE JUMPI DUP1 PUSH4 0x41B3D185 EQ PUSH2 0x1294 JUMPI DUP1 PUSH4 0x5350CBD9 EQ PUSH2 0x126B JUMPI DUP1 PUSH4 0x580FC80A EQ PUSH2 0xF98 JUMPI DUP1 PUSH4 0x597E1FB5 EQ PUSH2 0xF73 JUMPI DUP1 PUSH4 0x6083E59A EQ PUSH2 0xF39 JUMPI DUP1 PUSH4 0x639487F4 EQ PUSH2 0xD62 JUMPI DUP1 PUSH4 0x6A5908A0 EQ PUSH2 0xD19 JUMPI DUP1 PUSH4 0x6C4470FB EQ PUSH2 0xC55 JUMPI DUP1 PUSH4 0x703BAFD5 EQ PUSH2 0x15B JUMPI DUP1 PUSH4 0x8CE74426 EQ PUSH2 0xC11 JUMPI DUP1 PUSH4 0x96D8EF8E EQ PUSH2 0x7F3 JUMPI DUP1 PUSH4 0x99FBAB88 EQ PUSH2 0x788 JUMPI DUP1 PUSH4 0xA0660DFA EQ PUSH2 0x74B JUMPI DUP1 PUSH4 0xA547AFE0 EQ PUSH2 0x71F JUMPI DUP1 PUSH4 0xAC55DEB6 EQ PUSH2 0x6C8 JUMPI DUP1 PUSH4 0xB1B0EBCC EQ PUSH2 0x24D JUMPI DUP1 PUSH4 0xB9B792CD EQ PUSH2 0x230 JUMPI DUP1 PUSH4 0xC122C2A1 EQ PUSH2 0x213 JUMPI DUP1 PUSH4 0xC45A0155 EQ PUSH2 0x1CF JUMPI DUP1 PUSH4 0xCBA02476 EQ PUSH2 0x1A7 JUMPI DUP1 PUSH4 0xD6887BFA EQ PUSH2 0x18A JUMPI DUP1 PUSH4 0xDB8D55F1 EQ PUSH2 0x160 JUMPI PUSH4 0xFC0C546A EQ PUSH2 0x15B JUMPI PUSH0 DUP1 REVERT JUMPDEST PUSH2 0x1554 JUMP JUMPDEST CALLVALUE PUSH2 0x186 JUMPI PUSH0 CALLDATASIZE PUSH1 0x3 NOT ADD SLT PUSH2 0x186 JUMPI PUSH1 0x40 PUSH2 0x17A PUSH2 0x18E1 JUMP JUMPDEST DUP3 MLOAD SWAP2 DUP3 MSTORE PUSH1 0x20 DUP3 ADD MSTORE RETURN JUMPDEST PUSH0 DUP1 REVERT JUMPDEST CALLVALUE PUSH2 0x186 JUMPI PUSH0 CALLDATASIZE PUSH1 0x3 NOT ADD SLT PUSH2 0x186 JUMPI PUSH1 0x20 PUSH1 0x5 SLOAD PUSH1 0x40 MLOAD SWAP1 DUP2 MSTORE RETURN JUMPDEST CALLVALUE PUSH2 0x186 JUMPI PUSH1 0x20 CALLDATASIZE PUSH1 0x3 NOT ADD SLT PUSH2 0x186 JUMPI PUSH1 0x20 PUSH2 0x1C5 PUSH1 0x4 CALLDATALOAD PUSH2 0x16D1 JUMP JUMPDEST PUSH1 0x40 MLOAD SWAP1 ISZERO ISZERO DUP2 MSTORE RETURN JUMPDEST CALLVALUE PUSH2 0x186 JUMPI PUSH0 CALLDATASIZE PUSH1 0x3 NOT ADD SLT PUSH2 0x186 JUMPI PUSH1 0x40 MLOAD PUSH32 0x0 PUSH1 0x1 PUSH1 0x1 PUSH1 0xA0 SHL SUB AND DUP2 MSTORE PUSH1 0x20 SWAP1 RETURN JUMPDEST CALLVALUE PUSH2 0x186 JUMPI PUSH0 CALLDATASIZE PUSH1 0x3 NOT ADD SLT PUSH2 0x186 JUMPI PUSH1 0x20 PUSH1 0x2 SLOAD PUSH1 0x40 MLOAD SWAP1 DUP2 MSTORE RETURN JUMPDEST CALLVALUE PUSH2 0x186 JUMPI PUSH0 CALLDATASIZE PUSH1 0x3 NOT ADD SLT PUSH2 0x186 JUMPI PUSH1 0x20 PUSH1 0x3 SLOAD PUSH1 0x40 MLOAD SWAP1 DUP2 MSTORE RETURN JUMPDEST CALLVALUE PUSH2 0x186 JUMPI PUSH1 0x60 CALLDATASIZE PUSH1 0x3 NOT ADD SLT PUSH2 0x186 JUMPI PUSH1 0x1 PUSH1 0x1 PUSH1 0xA0 SHL SUB PUSH1 0x44 DUP1 CALLDATALOAD DUP3 DUP2 AND SWAP2 PUSH1 0x4 CALLDATALOAD SWAP2 PUSH1 0x24 DUP1 CALLDATALOAD SWAP3 SWAP1 SWAP2 DUP6 SWAP1 SUB PUSH2 0x186 JUMPI PUSH2 0x288 PUSH2 0x1793 JUMP JUMPDEST DUP6 PUSH32 0x0 AND CALLER EQ DUP1 ISZERO PUSH2 0x6B6 JUMPI JUMPDEST DUP1 ISZERO PUSH2 0x68B JUMPI JUMPDEST PUSH2 0x2C4 SWAP1 PUSH2 0x1718 JUMP JUMPDEST PUSH1 0x4 SLOAD PUSH1 0xFF DUP2 AND SWAP1 DUP2 PUSH2 0x67C JUMPI JUMPDEST POP ISZERO PUSH2 0x646 JUMPI PUSH32 0x0 DUP5 LT ISZERO DUP1 PUSH2 0x61C JUMPI JUMPDEST ISZERO PUSH2 0x5E2 JUMPI DUP3 ISZERO PUSH2 0x5B4 JUMPI PUSH2 0x316 DUP4 PUSH2 0x16D1 JUMP JUMPDEST ISZERO PUSH2 0x57C JUMPI PUSH2 0x375 SWAP1 PUSH1 0x40 MLOAD SWAP1 PUSH4 0x23B872DD PUSH1 0xE0 SHL PUSH1 0x20 DUP4 ADD MSTORE CALLER DUP5 DUP4 ADD MSTORE ADDRESS SWAP1 DUP3 ADD MSTORE DUP5 PUSH1 0x64 DUP3 ADD MSTORE PUSH1 0x64 DUP2 MSTORE PUSH2 0x34D DUP2 PUSH2 0x15D0 JUMP JUMPDEST DUP7 PUSH32 0x0 AND PUSH2 0x17E7 JUMP JUMPDEST PUSH2 0x37F DUP3 NUMBER PUSH2 0x1754 JUMP JUMPDEST SWAP5 PUSH1 0x40 MLOAD SWAP2 PUSH2 0x38D DUP4 PUSH2 0x15D0 JUMP JUMPDEST DUP6 DUP4 MSTORE PUSH1 0x20 DUP4 ADD SWAP3 DUP6 DUP5 MSTORE PUSH1 0x40 DUP2 ADD SWAP8 NUMBER DUP10 MSTORE PUSH1 0x60 DUP3 ADD SWAP1 DUP2 MSTORE PUSH1 0x80 DUP3 ADD SWAP9 PUSH0 DUP11 MSTORE PUSH1 0x5 SLOAD SWAP5 PUSH1 0x1 PUSH1 0x40 SHL SWAP6 DUP7 DUP2 LT ISZERO PUSH2 0x569 JUMPI DUP1 PUSH1 0x1 PUSH2 0x3D1 SWAP3 ADD PUSH1 0x5 SSTORE PUSH2 0x1598 JUMP JUMPDEST SWAP5 SWAP1 SWAP5 PUSH2 0x557 JUMPI MLOAD DUP5 SLOAD SWAP2 AND PUSH1 0x1 PUSH1 0x1 PUSH1 0xA0 SHL SUB NOT SWAP2 DUP3 AND OR DUP5 SSTORE SWAP6 MLOAD PUSH1 0x1 DUP5 ADD SSTORE MLOAD PUSH1 0x2 DUP4 ADD SSTORE MLOAD PUSH1 0x3 DUP3 ADD SSTORE SWAP7 MLOAD PUSH1 0x4 SWAP1 SWAP8 ADD DUP1 SLOAD PUSH1 0xFF NOT SWAP1 DUP2 AND SWAP9 ISZERO ISZERO PUSH1 0xFF AND SWAP9 SWAP1 SWAP9 OR SWAP1 SSTORE PUSH1 0x5 SLOAD PUSH0 NOT DUP2 ADD SWAP8 SWAP1 DUP9 GT PUSH2 0x543 JUMPI DUP7 PUSH0 MSTORE PUSH1 0x6 PUSH1 0x20 MSTORE PUSH2 0x43E DUP9 PUSH1 0x40 PUSH0 KECCAK256 PUSH2 0x176E JUMP JUMPDEST DUP7 PUSH0 MSTORE PUSH1 0x9 PUSH1 0x20 MSTORE PUSH1 0x40 PUSH0 KECCAK256 SWAP1 DUP2 SLOAD PUSH1 0xFF DUP2 AND ISZERO PUSH2 0x49F JUMPI JUMPDEST DUP10 DUP10 PUSH32 0x9CFD25589D1EB8AD71E342A86A8524E83522E3936C0803048C08F6D9AD974F40 PUSH1 0x60 DUP12 PUSH2 0x487 DUP13 NUMBER PUSH2 0x1754 JUMP JUMPDEST PUSH1 0x40 MLOAD SWAP2 DUP3 MSTORE NUMBER PUSH1 0x20 DUP4 ADD MSTORE PUSH1 0x40 DUP3 ADD MSTORE LOG3 PUSH1 0x1 PUSH0 SSTORE STOP JUMPDEST AND PUSH1 0x1 OR SWAP1 SSTORE PUSH1 0x8 SLOAD SWAP2 DUP3 LT ISZERO PUSH2 0x530 JUMPI PUSH1 0x1 DUP3 ADD DUP1 PUSH1 0x8 SSTORE DUP3 LT ISZERO PUSH2 0x51D JUMPI POP PUSH1 0x8 PUSH0 MSTORE PUSH32 0xF3F7A9FE364FAAB93B216DA50A3214154F22A0A2B415B23A84C8169E8B636EE3 ADD DUP1 SLOAD SWAP1 SWAP2 AND DUP5 OR SWAP1 SSTORE DUP2 PUSH2 0x487 PUSH1 0x60 PUSH32 0x9CFD25589D1EB8AD71E342A86A8524E83522E3936C0803048C08F6D9AD974F40 DUP9 DUP1 PUSH2 0x457 JUMP JUMPDEST PUSH4 0x4E487B71 PUSH1 0xE0 SHL PUSH0 SWAP1 DUP2 MSTORE PUSH1 0x32 PUSH1 0x4 MSTORE REVERT JUMPDEST PUSH4 0x4E487B71 PUSH1 0xE0 SHL PUSH0 SWAP1 DUP2 MSTORE PUSH1 0x41 PUSH1 0x4 MSTORE REVERT JUMPDEST POP PUSH4 0x4E487B71 PUSH1 0xE0 SHL PUSH0 SWAP1 DUP2 MSTORE PUSH1 0x11 PUSH1 0x4 MSTORE REVERT JUMPDEST DUP6 PUSH4 0x4E487B71 PUSH1 0xE0 SHL PUSH0 MSTORE PUSH0 PUSH1 0x4 MSTORE PUSH0 REVERT JUMPDEST DUP6 PUSH4 0x4E487B71 PUSH1 0xE0 SHL PUSH0 MSTORE PUSH1 0x41 PUSH1 0x4 MSTORE PUSH0 REVERT JUMPDEST SWAP1 PUSH18 0x1C1C995CD95D081B9BDD08185B1B1BDDD959 PUSH1 0x72 SHL PUSH1 0x64 SWAP3 PUSH1 0x12 PUSH1 0x40 MLOAD SWAP4 PUSH3 0x461BCD PUSH1 0xE5 SHL DUP6 MSTORE PUSH1 0x20 PUSH1 0x4 DUP7 ADD MSTORE DUP5 ADD MSTORE DUP3 ADD MSTORE REVERT JUMPDEST SWAP1 PUSH8 0x626C6F636B733E3 PUSH1 0xC4 SHL PUSH1 0x64 SWAP3 PUSH1 0x8 PUSH1 0x40 MLOAD SWAP4 PUSH3 0x461BCD PUSH1 0xE5 SHL DUP6 MSTORE PUSH1 0x20 PUSH1 0x4 DUP7 ADD MSTORE DUP5 ADD MSTORE DUP3 ADD MSTORE REVERT JUMPDEST SWAP1 PUSH20 0x616D6F756E74206F7574206F6620626F756E6473 PUSH1 0x60 SHL PUSH1 0x64 SWAP3 PUSH1 0x14 PUSH1 0x40 MLOAD SWAP4 PUSH3 0x461BCD PUSH1 0xE5 SHL DUP6 MSTORE PUSH1 0x20 PUSH1 0x4 DUP7 ADD MSTORE DUP5 ADD MSTORE DUP3 ADD MSTORE REVERT JUMPDEST POP PUSH32 0x0 DUP5 GT ISZERO PUSH2 0x302 JUMP JUMPDEST SWAP1 PUSH16 0x7661756C74206E6F7420616374697665 PUSH1 0x80 SHL PUSH1 0x64 SWAP3 PUSH1 0x10 PUSH1 0x40 MLOAD SWAP4 PUSH3 0x461BCD PUSH1 0xE5 SHL DUP6 MSTORE PUSH1 0x20 PUSH1 0x4 DUP7 ADD MSTORE DUP5 ADD MSTORE DUP3 ADD MSTORE REVERT JUMPDEST PUSH1 0xFF SWAP2 POP PUSH1 0x8 SHR AND ISZERO DUP8 PUSH2 0x2D2 JUMP JUMPDEST POP CALLER PUSH32 0x0 DUP8 AND EQ PUSH2 0x2BB JUMP JUMPDEST POP DUP6 PUSH2 0x6C0 PUSH2 0x1622 JUMP JUMPDEST AND CALLER EQ PUSH2 0x2B4 JUMP JUMPDEST CALLVALUE PUSH2 0x186 JUMPI PUSH1 0x40 CALLDATASIZE PUSH1 0x3 NOT ADD SLT PUSH2 0x186 JUMPI PUSH2 0x6E1 PUSH2 0x153E JUMP JUMPDEST PUSH1 0x1 PUSH1 0x1 PUSH1 0xA0 SHL SUB AND PUSH0 SWAP1 DUP2 MSTORE PUSH1 0x7 PUSH1 0x20 MSTORE PUSH1 0x40 SWAP1 KECCAK256 DUP1 SLOAD PUSH1 0x24 CALLDATALOAD SWAP2 SWAP1 DUP3 LT ISZERO PUSH2 0x186 JUMPI PUSH1 0x20 SWAP2 PUSH2 0x711 SWAP2 PUSH2 0x14B9 JUMP JUMPDEST SWAP1 SLOAD PUSH1 0x40 MLOAD SWAP2 PUSH1 0x3 SHL SHR DUP2 MSTORE RETURN JUMPDEST CALLVALUE PUSH2 0x186 JUMPI PUSH0 CALLDATASIZE PUSH1 0x3 NOT ADD SLT PUSH2 0x186 JUMPI PUSH1 0x20 PUSH2 0x739 PUSH2 0x1622 JUMP JUMPDEST PUSH1 0x40 MLOAD PUSH1 0x1 PUSH1 0x1 PUSH1 0xA0 SHL SUB SWAP1 SWAP2 AND DUP2 MSTORE RETURN JUMPDEST CALLVALUE PUSH2 0x186 JUMPI PUSH1 0x20 CALLDATASIZE PUSH1 0x3 NOT ADD SLT PUSH2 0x186 JUMPI PUSH1 0x4 CALLDATALOAD PUSH1 0x3 SLOAD DUP2 LT ISZERO PUSH2 0x186 JUMPI PUSH2 0x774 PUSH1 0x40 SWAP2 PUSH2 0x1506 JUMP JUMPDEST POP PUSH1 0x1 DUP2 SLOAD SWAP2 ADD SLOAD DUP3 MLOAD SWAP2 DUP3 MSTORE PUSH1 0x20 DUP3 ADD MSTORE RETURN JUMPDEST CALLVALUE PUSH2 0x186 JUMPI PUSH1 0x20 CALLDATASIZE PUSH1 0x3 NOT ADD SLT PUSH2 0x186 JUMPI PUSH1 0x4 CALLDATALOAD PUSH1 0x5 SLOAD DUP2 LT ISZERO PUSH2 0x186 JUMPI PUSH2 0x7B1 PUSH1 0xA0 SWAP2 PUSH2 0x1598 JUMP JUMPDEST POP PUSH1 0x1 DUP1 DUP4 SHL SUB DUP2 SLOAD AND SWAP1 PUSH1 0x1 DUP2 ADD SLOAD SWAP1 PUSH1 0x2 DUP2 ADD SLOAD PUSH1 0xFF PUSH1 0x4 PUSH1 0x3 DUP5 ADD SLOAD SWAP4 ADD SLOAD AND SWAP3 PUSH1 0x40 MLOAD SWAP5 DUP6 MSTORE PUSH1 0x20 DUP6 ADD MSTORE PUSH1 0x40 DUP5 ADD MSTORE PUSH1 0x60 DUP4 ADD MSTORE ISZERO ISZERO PUSH1 0x80 DUP3 ADD MSTORE RETURN JUMPDEST CALLVALUE PUSH2 0x186 JUMPI PUSH1 0x40 CALLDATASIZE PUSH1 0x3 NOT ADD SLT PUSH2 0x186 JUMPI PUSH2 0x80C PUSH2 0x153E JUMP JUMPDEST PUSH1 0x24 CALLDATALOAD PUSH1 0x1 PUSH1 0x1 PUSH1 0xA0 SHL SUB DUP2 AND SWAP1 SUB PUSH2 0x186 JUMPI PUSH2 0x827 PUSH2 0x1793 JUMP JUMPDEST CALLER PUSH32 0x0 PUSH1 0x1 PUSH1 0x1 PUSH1 0xA0 SHL SUB AND EQ DUP1 ISZERO PUSH2 0xBF8 JUMPI JUMPDEST DUP1 ISZERO PUSH2 0xBC6 JUMPI JUMPDEST PUSH2 0x86A SWAP1 PUSH2 0x1718 JUMP JUMPDEST PUSH2 0x872 PUSH2 0x18E1 JUMP JUMPDEST PUSH1 0x1 PUSH1 0x1 PUSH1 0xA0 SHL SUB DUP4 AND PUSH0 SWAP1 DUP2 MSTORE PUSH1 0x6 PUSH1 0x20 MSTORE PUSH1 0x40 DUP2 KECCAK256 SWAP2 SWAP4 SWAP1 SWAP3 SWAP1 JUMPDEST DUP3 SLOAD DUP5 LT ISZERO PUSH2 0xBC0 JUMPI PUSH2 0x8A2 DUP5 DUP5 PUSH2 0x14B9 JUMP JUMPDEST SWAP1 SLOAD SWAP1 PUSH2 0x8B3 DUP3 DUP3 PUSH1 0x3 SHL SHR PUSH2 0x1598 JUMP JUMPDEST POP PUSH1 0x3 DUP2 ADD SLOAD NUMBER LT SWAP1 PUSH1 0x4 DUP2 ADD SWAP2 DUP3 SLOAD SWAP3 PUSH1 0xFF DUP3 DUP2 DUP7 AND ISZERO SWAP2 DUP3 PUSH2 0xB9F JUMPI JUMPDEST POP POP ISZERO PUSH2 0xB89 JUMPI SWAP1 PUSH2 0x9EA SWAP6 SWAP5 SWAP4 SWAP3 SWAP2 PUSH1 0x1 DUP1 SWAP5 PUSH1 0xFF NOT AND OR SWAP1 SSTORE ISZERO PUSH0 EQ PUSH2 0xB07 JUMPI PUSH2 0x923 SWAP1 PUSH1 0x24 CALLDATALOAD PUSH1 0x1 PUSH1 0x1 PUSH1 0xA0 SHL SUB SWAP1 DUP2 AND SWAP1 DUP9 AND EQ DUP1 ISZERO PUSH2 0xAF7 JUMPI DUP9 SWAP4 JUMPDEST DUP3 ADD SLOAD SWAP4 PUSH2 0x2710 SWAP4 DUP5 SWAP2 DUP7 PUSH2 0x1841 JUMP JUMPDEST DIV SWAP3 PUSH2 0x939 DUP11 PUSH2 0x933 DUP7 DUP9 PUSH2 0x1761 JUMP JUMPDEST SWAP7 PUSH2 0x1841 JUMP JUMPDEST DIV PUSH0 SWAP2 ISZERO PUSH2 0xAE5 JUMPI JUMPDEST DUP1 PUSH2 0xA8B JUMPI JUMPDEST POP DUP1 PUSH2 0xA4F JUMPI JUMPDEST POP DUP1 SLOAD PUSH2 0x98B SWAP1 DUP5 SWAP1 PUSH1 0x1 PUSH1 0x1 PUSH1 0xA0 SHL SUB SWAP1 DUP2 AND SWAP1 PUSH32 0x0 AND PUSH2 0x1891 JUMP JUMPDEST PUSH1 0x1 DUP1 PUSH1 0xA0 SHL SUB SWAP1 SLOAD AND SWAP1 PUSH1 0x40 MLOAD SWAP3 DUP4 MSTORE PUSH1 0x20 DUP4 ADD MSTORE PUSH32 0x7B381718BEC1E0DBC1241809EE9B55F3D783B95880307F002707FAD981FA5069 PUSH1 0x40 DUP6 DUP6 PUSH1 0x3 SHL SHR SWAP4 LOG3 JUMPDEST PUSH1 0x1 DUP1 PUSH1 0xA0 SHL SUB DUP5 AND PUSH0 MSTORE PUSH1 0x7 PUSH1 0x20 MSTORE PUSH1 0x3 SHL SHR PUSH1 0x40 PUSH0 KECCAK256 PUSH2 0x176E JUMP JUMPDEST DUP3 SLOAD PUSH0 NOT DUP2 ADD SWAP1 DUP2 GT PUSH2 0xA3B JUMPI PUSH2 0xA04 PUSH2 0xA2D SWAP2 DUP6 PUSH2 0x14B9 JUMP JUMPDEST SWAP1 SLOAD SWAP1 PUSH1 0x3 SHL SHR PUSH2 0xA15 DUP7 DUP7 PUSH2 0x14B9 JUMP JUMPDEST SWAP1 SWAP2 SWAP1 DUP3 SLOAD SWAP1 PUSH1 0x3 SHL SWAP2 DUP3 SHL SWAP2 PUSH0 NOT SWAP1 SHL NOT AND OR SWAP1 SSTORE JUMP JUMPDEST PUSH2 0xA36 DUP4 PUSH2 0x1854 JUMP JUMPDEST PUSH2 0x88F JUMP JUMPDEST PUSH4 0x4E487B71 PUSH1 0xE0 SHL PUSH0 MSTORE PUSH1 0x11 PUSH1 0x4 MSTORE PUSH1 0x24 PUSH0 REVERT JUMPDEST PUSH2 0xA85 SWAP1 PUSH1 0x24 CALLDATALOAD PUSH32 0x0 PUSH1 0x1 PUSH1 0x1 PUSH1 0xA0 SHL SUB AND PUSH2 0x1891 JUMP JUMPDEST DUP12 PUSH2 0x94F JUMP JUMPDEST PUSH2 0xADF SWAP1 PUSH32 0x0 PUSH32 0x0 PUSH1 0x1 PUSH1 0x1 PUSH1 0xA0 SHL SUB AND PUSH2 0x1891 JUMP JUMPDEST DUP13 PUSH2 0x948 JUMP JUMPDEST SWAP1 POP PUSH2 0xAF1 DUP2 DUP5 PUSH2 0x1761 JUMP JUMPDEST SWAP1 PUSH2 0x942 JUMP JUMPDEST PUSH2 0xB01 DUP13 DUP11 PUSH2 0x1754 JUMP JUMPDEST SWAP4 PUSH2 0x913 JUMP JUMPDEST SWAP1 DUP2 ADD SLOAD DUP2 SLOAD SWAP1 SWAP2 SWAP1 PUSH2 0xB49 SWAP1 DUP4 SWAP1 PUSH1 0x1 PUSH1 0x1 PUSH1 0xA0 SHL SUB SWAP1 DUP2 AND SWAP1 PUSH32 0x0 AND PUSH2 0x1891 JUMP JUMPDEST PUSH1 0x1 DUP1 PUSH1 0xA0 SHL SUB SWAP1 SLOAD AND PUSH1 0x40 MLOAD SWAP2 DUP3 MSTORE PUSH32 0xBAEA19541010BAD0070D3E9EBA7D614E4F22A90D557EB4B70272D33A32793A07 PUSH1 0x20 DUP6 DUP6 PUSH1 0x3 SHL SHR SWAP4 LOG3 PUSH2 0x9CD JUMP JUMPDEST POP POP POP POP POP POP SWAP3 PUSH2 0xB99 SWAP1 PUSH2 0x16C3 JUMP JUMPDEST SWAP3 PUSH2 0x88F JUMP JUMPDEST DUP2 ISZERO SWAP3 POP SWAP1 PUSH2 0xBB1 JUMPI JUMPDEST POP DUP3 DUP14 PUSH2 0x8D2 JUMP JUMPDEST SWAP1 POP PUSH1 0x4 SLOAD PUSH1 0x8 SHR AND DUP13 PUSH2 0xBA9 JUMP JUMPDEST PUSH1 0x1 PUSH0 SSTORE STOP JUMPDEST POP CALLER PUSH32 0x0 PUSH1 0x1 PUSH1 0x1 PUSH1 0xA0 SHL SUB AND EQ PUSH2 0x861 JUMP JUMPDEST POP PUSH1 0x1 PUSH1 0x1 PUSH1 0xA0 SHL SUB PUSH2 0xC09 PUSH2 0x1622 JUMP JUMPDEST AND CALLER EQ PUSH2 0x85A JUMP JUMPDEST CALLVALUE PUSH2 0x186 JUMPI PUSH0 CALLDATASIZE PUSH1 0x3 NOT ADD SLT PUSH2 0x186 JUMPI PUSH1 0x40 MLOAD PUSH32 0x0 PUSH1 0x1 PUSH1 0x1 PUSH1 0xA0 SHL SUB AND DUP2 MSTORE PUSH1 0x20 SWAP1 RETURN JUMPDEST CALLVALUE PUSH2 0x186 JUMPI PUSH0 CALLDATASIZE PUSH1 0x3 NOT ADD SLT PUSH2 0x186 JUMPI PUSH1 0x40 MLOAD DUP1 PUSH1 0x8 SLOAD DUP1 DUP4 MSTORE PUSH1 0x20 DUP1 SWAP4 ADD DUP1 SWAP2 PUSH1 0x8 PUSH0 MSTORE PUSH32 0xF3F7A9FE364FAAB93B216DA50A3214154F22A0A2B415B23A84C8169E8B636EE3 SWAP1 PUSH0 JUMPDEST DUP7 DUP3 DUP3 LT PUSH2 0xCFC JUMPI DUP7 DUP7 PUSH2 0xCB4 DUP3 DUP9 SUB DUP4 PUSH2 0x1600 JUMP JUMPDEST PUSH1 0x40 MLOAD SWAP3 DUP4 SWAP3 DUP2 DUP5 ADD SWAP1 DUP3 DUP6 MSTORE MLOAD DUP1 SWAP2 MSTORE PUSH1 0x40 DUP5 ADD SWAP3 SWAP2 PUSH0 JUMPDEST DUP3 DUP2 LT PUSH2 0xCDC JUMPI POP POP POP POP SUB SWAP1 RETURN JUMPDEST DUP4 MLOAD PUSH1 0x1 PUSH1 0x1 PUSH1 0xA0 SHL SUB AND DUP6 MSTORE DUP7 SWAP6 POP SWAP4 DUP2 ADD SWAP4 SWAP3 DUP2 ADD SWAP3 PUSH1 0x1 ADD PUSH2 0xCCD JUMP JUMPDEST DUP4 SLOAD PUSH1 0x1 PUSH1 0x1 PUSH1 0xA0 SHL SUB AND DUP6 MSTORE SWAP1 SWAP4 ADD SWAP3 PUSH1 0x1 SWAP3 DUP4 ADD SWAP3 ADD PUSH2 0xC9E JUMP JUMPDEST CALLVALUE PUSH2 0x186 JUMPI PUSH1 0x40 CALLDATASIZE PUSH1 0x3 NOT ADD SLT PUSH2 0x186 JUMPI PUSH2 0xD32 PUSH2 0x153E JUMP JUMPDEST PUSH1 0x1 PUSH1 0x1 PUSH1 0xA0 SHL SUB AND PUSH0 SWAP1 DUP2 MSTORE PUSH1 0x6 PUSH1 0x20 MSTORE PUSH1 0x40 SWAP1 KECCAK256 DUP1 SLOAD PUSH1 0x24 CALLDATALOAD SWAP2 SWAP1 DUP3 LT ISZERO PUSH2 0x186 JUMPI PUSH1 0x20 SWAP2 PUSH2 0x711 SWAP2 PUSH2 0x14B9 JUMP JUMPDEST CALLVALUE PUSH2 0x186 JUMPI PUSH1 0x20 DUP1 PUSH1 0x3 NOT CALLDATASIZE ADD SLT PUSH2 0x186 JUMPI PUSH2 0xD7C PUSH2 0x153E JUMP JUMPDEST PUSH1 0x1 PUSH1 0x1 PUSH1 0xA0 SHL SUB AND PUSH0 DUP2 DUP2 MSTORE PUSH1 0x6 DUP4 MSTORE PUSH1 0x40 DUP1 DUP3 KECCAK256 SWAP1 MLOAD DUP2 SLOAD DUP1 DUP3 MSTORE SWAP2 DUP4 MSTORE DUP5 DUP4 KECCAK256 SWAP1 SWAP5 SWAP3 SWAP4 SWAP2 DUP6 SWAP1 DUP2 DUP6 ADD SWAP1 DUP7 JUMPDEST DUP7 DUP3 DUP3 LT PUSH2 0xF23 JUMPI POP POP POP PUSH2 0xDC3 SWAP3 POP SUB DUP6 PUSH2 0x1600 JUMP JUMPDEST PUSH0 MSTORE PUSH1 0x7 DUP2 MSTORE PUSH1 0x40 PUSH0 KECCAK256 SWAP2 PUSH1 0x40 MLOAD DUP1 DUP5 DUP5 DUP3 SWAP7 SLOAD SWAP4 DUP5 DUP2 MSTORE ADD SWAP1 PUSH0 MSTORE DUP5 PUSH0 KECCAK256 SWAP3 PUSH0 JUMPDEST DUP7 DUP3 DUP3 LT PUSH2 0xF0D JUMPI POP POP POP PUSH2 0xDFC SWAP3 POP SUB DUP5 PUSH2 0x1600 JUMP JUMPDEST PUSH0 SWAP1 JUMPDEST DUP5 MLOAD DUP3 LT ISZERO PUSH2 0xE9B JUMPI PUSH2 0xE24 PUSH2 0xE1E PUSH2 0xE18 DUP5 DUP9 PUSH2 0x19C6 JUMP JUMPDEST MLOAD PUSH2 0x1598 JUMP JUMPDEST POP PUSH2 0x19DA JUMP JUMPDEST PUSH1 0x60 DUP2 ADD DUP5 DUP2 MLOAD NUMBER DUP2 GT PUSH0 EQ PUSH2 0xE96 JUMPI POP NUMBER JUMPDEST PUSH1 0x40 DUP5 ADD SWAP1 DUP2 MLOAD SWAP1 DUP2 DUP2 GT ISZERO PUSH2 0xE86 JUMPI SWAP3 PUSH2 0xE6C PUSH2 0xE7A SWAP7 SWAP4 PUSH2 0xE62 PUSH2 0xE80 SWAP10 SWAP8 SWAP5 PUSH2 0xE74 SWAP8 PUSH2 0x1761 JUMP JUMPDEST SWAP4 MLOAD SWAP1 MLOAD SWAP1 PUSH2 0x1761 JUMP JUMPDEST SWAP3 ADD MLOAD PUSH2 0x1A24 JUMP JUMPDEST SWAP1 PUSH2 0x1754 JUMP JUMPDEST SWAP2 PUSH2 0x16C3 JUMP JUMPDEST SWAP1 PUSH2 0xDFF JUMP JUMPDEST POP POP POP POP POP POP SWAP1 PUSH2 0xE80 SWAP1 PUSH2 0x16C3 JUMP JUMPDEST PUSH2 0xE37 JUMP JUMPDEST PUSH0 SWAP3 SWAP2 POP JUMPDEST DUP4 MLOAD DUP4 LT ISZERO PUSH2 0xF05 JUMPI PUSH2 0xEB9 PUSH2 0xE1E PUSH2 0xE18 DUP6 DUP8 PUSH2 0x19C6 JUMP JUMPDEST PUSH1 0x60 DUP2 ADD MLOAD PUSH1 0x40 DUP3 ADD MLOAD SWAP1 DUP2 DUP2 GT ISZERO PUSH2 0xEF8 JUMPI DUP5 PUSH2 0xEEC SWAP4 PUSH2 0xEE2 PUSH2 0xEF2 SWAP7 SWAP5 PUSH2 0xE74 SWAP5 PUSH2 0x1761 JUMP JUMPDEST SWAP2 DUP3 SWAP2 ADD MLOAD PUSH2 0x1A24 JUMP JUMPDEST SWAP3 PUSH2 0x16C3 JUMP JUMPDEST SWAP2 PUSH2 0xEA0 JUMP JUMPDEST POP POP POP SWAP2 PUSH2 0xEF2 SWAP1 PUSH2 0x16C3 JUMP JUMPDEST PUSH1 0x40 MLOAD SWAP1 DUP2 MSTORE RETURN JUMPDEST DUP6 SLOAD DUP5 MSTORE PUSH1 0x1 SWAP6 DUP7 ADD SWAP6 DUP10 SWAP6 POP SWAP4 ADD SWAP3 ADD PUSH2 0xDE5 JUMP JUMPDEST DUP6 SLOAD DUP5 MSTORE PUSH1 0x1 SWAP6 DUP7 ADD SWAP6 DUP11 SWAP6 POP SWAP4 ADD SWAP3 ADD PUSH2 0xDAC JUMP JUMPDEST CALLVALUE PUSH2 0x186 JUMPI PUSH0 CALLDATASIZE PUSH1 0x3 NOT ADD SLT PUSH2 0x186 JUMPI PUSH1 0x20 PUSH1 0x40 MLOAD PUSH32 0x0 DUP2 MSTORE RETURN JUMPDEST CALLVALUE PUSH2 0x186 JUMPI PUSH0 CALLDATASIZE PUSH1 0x3 NOT ADD SLT PUSH2 0x186 JUMPI PUSH1 0x20 PUSH1 0xFF PUSH1 0x4 SLOAD PUSH1 0x8 SHR AND PUSH1 0x40 MLOAD SWAP1 ISZERO ISZERO DUP2 MSTORE RETURN JUMPDEST CALLVALUE PUSH2 0x186 JUMPI PUSH1 0x20 CALLDATASIZE PUSH1 0x3 NOT ADD SLT PUSH2 0x186 JUMPI PUSH2 0xFB1 PUSH2 0x153E JUMP JUMPDEST PUSH2 0xFB9 PUSH2 0x1793 JUMP JUMPDEST PUSH1 0x1 PUSH1 0x1 PUSH1 0xA0 SHL SUB PUSH32 0x0 CALLER DUP3 DUP3 AND EQ DUP1 ISZERO PUSH2 0x1259 JUMPI JUMPDEST DUP1 ISZERO PUSH2 0x122E JUMPI JUMPDEST PUSH2 0xFFE SWAP1 PUSH2 0x1718 JUMP JUMPDEST PUSH2 0x1011 PUSH2 0x1009 PUSH2 0x18E1 JUMP JUMPDEST DUP2 SWAP3 SWAP2 PUSH2 0x1754 JUMP JUMPDEST SWAP1 PUSH0 JUMPDEST PUSH1 0x5 SLOAD DUP2 LT ISZERO PUSH2 0xBC0 JUMPI PUSH2 0x1027 DUP2 PUSH2 0x1598 JUMP JUMPDEST POP PUSH1 0x4 DUP2 ADD DUP1 SLOAD PUSH1 0xFF DUP2 AND ISZERO DUP1 PUSH2 0x1220 JUMPI JUMPDEST PUSH2 0x104F JUMPI JUMPDEST POP POP POP PUSH2 0x104A SWAP1 PUSH2 0x16C3 JUMP JUMPDEST PUSH2 0x1014 JUMP JUMPDEST SWAP1 PUSH1 0x1 DUP9 SWAP6 SWAP8 SWAP5 SWAP9 SWAP4 SWAP3 PUSH1 0xFF SWAP11 SWAP8 SWAP11 NOT AND OR SWAP1 SSTORE PUSH1 0x1 DUP2 ADD SLOAD DUP8 PUSH2 0x2710 DUP1 PUSH2 0x1077 DUP13 DUP6 PUSH2 0x1841 JUMP JUMPDEST DIV SWAP1 PUSH2 0x108D DUP11 PUSH2 0x1087 DUP5 DUP8 PUSH2 0x1761 JUMP JUMPDEST SWAP6 PUSH2 0x1841 JUMP JUMPDEST DIV PUSH2 0x1098 DUP2 DUP4 PUSH2 0x1761 JUMP JUMPDEST SWAP1 DUP1 PUSH2 0x11ED JUMPI JUMPDEST POP DUP1 PUSH2 0x11BA JUMPI JUMPDEST POP PUSH2 0x10D7 DUP4 DUP7 DUP7 SLOAD AND DUP8 PUSH32 0x0 AND PUSH2 0x1891 JUMP JUMPDEST PUSH32 0x7B381718BEC1E0DBC1241809EE9B55F3D783B95880307F002707FAD981FA5069 PUSH1 0x40 DUP7 DUP7 SLOAD AND SWAP5 DUP6 SWAP4 DUP3 MLOAD SWAP2 DUP3 MSTORE PUSH1 0x20 DUP3 ADD MSTORE LOG3 PUSH0 MSTORE PUSH1 0x7 PUSH1 0x20 MSTORE PUSH2 0x1120 DUP8 PUSH1 0x40 PUSH0 KECCAK256 PUSH2 0x176E JUMP JUMPDEST SLOAD AND PUSH0 MSTORE PUSH1 0x6 PUSH1 0x20 MSTORE PUSH1 0x40 PUSH0 KECCAK256 SWAP6 PUSH0 JUMPDEST DUP8 SLOAD DUP1 DUP3 LT ISZERO PUSH2 0x11A9 JUMPI DUP8 PUSH2 0x1145 DUP4 DUP12 PUSH2 0x14B9 JUMP JUMPDEST SWAP2 SWAP1 SLOAD PUSH1 0x3 SWAP3 DUP4 SHL SHR EQ PUSH2 0x1163 JUMPI POP POP PUSH2 0x115E SWAP1 PUSH2 0x16C3 JUMP JUMPDEST PUSH2 0x1130 JUMP JUMPDEST PUSH0 SWAP10 SWAP2 SWAP3 SWAP5 SWAP8 SWAP6 SWAP9 SWAP4 SWAP7 SWAP10 NOT DUP4 ADD SWAP3 DUP4 GT PUSH2 0xA3B JUMPI PUSH2 0x104A SWAP5 PUSH2 0xA15 PUSH2 0x119C SWAP3 PUSH2 0x1190 PUSH2 0x11A1 SWAP7 DUP7 PUSH2 0x14B9 JUMP JUMPDEST SWAP1 SLOAD SWAP2 SHL SHR SWAP2 DUP5 PUSH2 0x14B9 JUMP JUMPDEST PUSH2 0x1854 JUMP JUMPDEST SWAP1 DUP8 DUP1 PUSH2 0x103E JUMP JUMPDEST POP POP SWAP3 SWAP6 POP SWAP3 SWAP1 SWAP4 PUSH2 0x104A SWAP1 PUSH2 0x11A1 JUMP JUMPDEST PUSH2 0x11E7 SWAP1 DUP10 DUP8 PUSH32 0x0 AND PUSH2 0x1891 JUMP JUMPDEST DUP12 PUSH2 0x10A6 JUMP JUMPDEST PUSH2 0x121A SWAP1 DUP9 DUP9 PUSH32 0x0 AND PUSH2 0x1891 JUMP JUMPDEST DUP13 PUSH2 0x109F JUMP JUMPDEST POP PUSH1 0x3 DUP4 ADD SLOAD NUMBER LT ISZERO PUSH2 0x1039 JUMP JUMPDEST POP CALLER PUSH32 0x0 DUP4 AND EQ PUSH2 0xFF5 JUMP JUMPDEST POP DUP2 PUSH2 0x1263 PUSH2 0x1622 JUMP JUMPDEST AND CALLER EQ PUSH2 0xFEE JUMP JUMPDEST CALLVALUE PUSH2 0x186 JUMPI PUSH1 0x20 CALLDATASIZE PUSH1 0x3 NOT ADD SLT PUSH2 0x186 JUMPI PUSH1 0x4 CALLDATALOAD PUSH1 0x2 SLOAD DUP2 LT ISZERO PUSH2 0x186 JUMPI PUSH2 0x774 PUSH1 0x40 SWAP2 PUSH2 0x14CE JUMP JUMPDEST CALLVALUE PUSH2 0x186 JUMPI PUSH0 CALLDATASIZE PUSH1 0x3 NOT ADD SLT PUSH2 0x186 JUMPI PUSH1 0x20 PUSH1 0x40 MLOAD PUSH32 0x0 DUP2 MSTORE RETURN JUMPDEST CALLVALUE PUSH2 0x186 JUMPI PUSH0 CALLDATASIZE PUSH1 0x3 NOT ADD SLT PUSH2 0x186 JUMPI PUSH1 0x20 PUSH1 0x1 SLOAD PUSH1 0x40 MLOAD SWAP1 DUP2 MSTORE RETURN JUMPDEST CALLVALUE PUSH2 0x186 JUMPI PUSH0 CALLDATASIZE PUSH1 0x3 NOT ADD SLT PUSH2 0x186 JUMPI PUSH1 0x20 PUSH1 0x4 SLOAD PUSH1 0xFF DUP2 AND SWAP1 DUP2 PUSH2 0x1316 JUMPI JUMPDEST POP PUSH1 0x40 MLOAD SWAP1 ISZERO ISZERO DUP2 MSTORE RETURN JUMPDEST PUSH1 0xFF SWAP2 POP PUSH1 0x8 SHR AND ISZERO DUP3 PUSH2 0x130B JUMP JUMPDEST CALLVALUE PUSH2 0x186 JUMPI PUSH0 CALLDATASIZE PUSH1 0x3 NOT ADD SLT PUSH2 0x186 JUMPI PUSH2 0x1379 PUSH1 0x1 DUP1 PUSH1 0xA0 SHL SUB DUP1 PUSH32 0x0 AND CALLER EQ SWAP1 DUP2 ISZERO PUSH2 0x13DA JUMPI JUMPDEST DUP2 ISZERO PUSH2 0x13AE JUMPI JUMPDEST POP PUSH2 0x1718 JUMP JUMPDEST PUSH2 0x100 PUSH2 0xFFFF NOT PUSH1 0x4 SLOAD AND OR PUSH1 0x4 SSTORE PUSH32 0xDF23397AB444D891935A0B305B1552FB235D2BD07043FFC42C6ED3F43A4D8352 PUSH0 DUP1 LOG1 STOP JUMPDEST SWAP1 POP PUSH32 0x0 AND CALLER EQ DUP3 PUSH2 0x1373 JUMP JUMPDEST DUP1 SWAP2 POP PUSH2 0x13E5 PUSH2 0x1622 JUMP JUMPDEST AND CALLER EQ SWAP1 PUSH2 0x136C JUMP JUMPDEST CALLVALUE PUSH2 0x186 JUMPI PUSH1 0x20 CALLDATASIZE PUSH1 0x3 NOT ADD SLT PUSH2 0x186 JUMPI PUSH1 0x4 CALLDATALOAD PUSH1 0x1 SLOAD DUP2 LT ISZERO PUSH2 0x186 JUMPI PUSH2 0x711 PUSH1 0x20 SWAP2 PUSH2 0x1470 JUMP JUMPDEST CALLVALUE PUSH2 0x186 JUMPI PUSH0 CALLDATASIZE PUSH1 0x3 NOT ADD SLT PUSH2 0x186 JUMPI PUSH1 0x20 PUSH1 0x40 MLOAD PUSH32 0x0 DUP2 MSTORE RETURN JUMPDEST CALLVALUE PUSH2 0x186 JUMPI PUSH0 CALLDATASIZE PUSH1 0x3 NOT ADD SLT PUSH2 0x186 JUMPI PUSH1 0x20 SWAP1 PUSH1 0xFF PUSH1 0x4 SLOAD AND ISZERO ISZERO DUP2 MSTORE RETURN JUMPDEST PUSH1 0x1 SLOAD DUP2 LT ISZERO PUSH2 0x14A5 JUMPI PUSH1 0x1 PUSH0 MSTORE PUSH32 0xB10E2D527612073B26EECDFD717E6A320CF44B4AFAC2B0732D9FCBE2B7FA0CF6 ADD SWAP1 PUSH0 SWAP1 JUMP JUMPDEST PUSH4 0x4E487B71 PUSH1 0xE0 SHL PUSH0 MSTORE PUSH1 0x32 PUSH1 0x4 MSTORE PUSH1 0x24 PUSH0 REVERT JUMPDEST DUP1 SLOAD DUP3 LT ISZERO PUSH2 0x14A5 JUMPI PUSH0 MSTORE PUSH1 0x20 PUSH0 KECCAK256 ADD SWAP1 PUSH0 SWAP1 JUMP JUMPDEST PUSH1 0x2 SLOAD DUP2 LT ISZERO PUSH2 0x14A5 JUMPI PUSH1 0x2 PUSH0 MSTORE PUSH1 0x1 SHL PUSH32 0x405787FA12A823E0F2B7631CC41B3BA8828B3321CA811111FA75CD3AA3BB5ACE ADD SWAP1 PUSH0 SWAP1 JUMP JUMPDEST PUSH1 0x3 SLOAD DUP2 LT ISZERO PUSH2 0x14A5 JUMPI PUSH1 0x3 PUSH0 MSTORE PUSH1 0x1 SHL PUSH32 0xC2575A0E9E593C00F959F8C92F12DB2869C3395A3B0502D05E2516446F71F85B ADD SWAP1 PUSH0 SWAP1 JUMP JUMPDEST PUSH1 0x4 CALLDATALOAD SWAP1 PUSH1 0x1 PUSH1 0x1 PUSH1 0xA0 SHL SUB DUP3 AND DUP3 SUB PUSH2 0x186 JUMPI JUMP JUMPDEST CALLVALUE PUSH2 0x186 JUMPI PUSH0 CALLDATASIZE PUSH1 0x3 NOT ADD SLT PUSH2 0x186 JUMPI PUSH1 0x40 MLOAD PUSH32 0x0 PUSH1 0x1 PUSH1 0x1 PUSH1 0xA0 SHL SUB AND DUP2 MSTORE PUSH1 0x20 SWAP1 RETURN JUMPDEST PUSH1 0x5 SLOAD DUP2 LT ISZERO PUSH2 0x14A5 JUMPI PUSH1 0x5 SWAP1 DUP2 PUSH0 MSTORE MUL PUSH32 0x36B6384B5ECA791C62761152D0C79BB0604C104A5FB6F4EB0703F3154BB3DB0 ADD SWAP1 PUSH0 SWAP1 JUMP JUMPDEST PUSH1 0xA0 DUP2 ADD SWAP1 DUP2 LT PUSH8 0xFFFFFFFFFFFFFFFF DUP3 GT OR PUSH2 0x15EC JUMPI PUSH1 0x40 MSTORE JUMP JUMPDEST PUSH4 0x4E487B71 PUSH1 0xE0 SHL PUSH0 MSTORE PUSH1 0x41 PUSH1 0x4 MSTORE PUSH1 0x24 PUSH0 REVERT JUMPDEST SWAP1 PUSH1 0x1F DUP1 NOT SWAP2 ADD AND DUP2 ADD SWAP1 DUP2 LT PUSH8 0xFFFFFFFFFFFFFFFF DUP3 GT OR PUSH2 0x15EC JUMPI PUSH1 0x40 MSTORE JUMP JUMPDEST PUSH1 0x40 MLOAD PUSH4 0x7CC70035 PUSH1 0xE1 SHL DUP2 MSTORE PUSH1 0x1 PUSH1 0x1 PUSH1 0xA0 SHL SUB SWAP1 PUSH1 0x20 DUP2 PUSH1 0x4 DUP2 PUSH32 0x0 DUP7 AND GAS STATICCALL SWAP1 DUP2 ISZERO PUSH2 0x16B8 JUMPI PUSH0 SWAP2 PUSH2 0x1677 JUMPI JUMPDEST POP SWAP1 POP SWAP1 JUMP JUMPDEST PUSH1 0x20 DUP2 RETURNDATASIZE DUP3 GT PUSH2 0x16B0 JUMPI JUMPDEST DUP2 PUSH2 0x168F PUSH1 0x20 SWAP4 DUP4 PUSH2 0x1600 JUMP JUMPDEST DUP2 ADD SUB SLT PUSH2 0x16AC JUMPI MLOAD SWAP2 DUP3 AND DUP3 SUB PUSH2 0x16A9 JUMPI POP DUP1 PUSH0 PUSH2 0x1671 JUMP JUMPDEST DUP1 REVERT JUMPDEST POP DUP1 REVERT JUMPDEST RETURNDATASIZE SWAP2 POP PUSH2 0x1682 JUMP JUMPDEST PUSH1 0x40 MLOAD RETURNDATASIZE PUSH0 DUP3 RETURNDATACOPY RETURNDATASIZE SWAP1 REVERT JUMPDEST PUSH0 NOT DUP2 EQ PUSH2 0xA3B JUMPI PUSH1 0x1 ADD SWAP1 JUMP JUMPDEST PUSH1 0x1 DUP1 SLOAD SWAP2 DUP3 ISZERO PUSH2 0x1671 JUMPI PUSH0 JUMPDEST DUP4 DUP2 LT PUSH2 0x16ED JUMPI POP POP POP POP PUSH0 SWAP1 JUMP JUMPDEST DUP2 PUSH2 0x16F7 DUP3 PUSH2 0x1470 JUMP JUMPDEST SWAP1 SLOAD SWAP1 PUSH1 0x3 SHL SHR EQ PUSH2 0x1711 JUMPI PUSH2 0x170C SWAP1 PUSH2 0x16C3 JUMP JUMPDEST PUSH2 0x16DE JUMP JUMPDEST POP POP SWAP1 POP SWAP1 JUMP JUMPDEST ISZERO PUSH2 0x171F JUMPI JUMP JUMPDEST PUSH1 0x40 MLOAD PUSH3 0x461BCD PUSH1 0xE5 SHL DUP2 MSTORE PUSH1 0x20 PUSH1 0x4 DUP3 ADD MSTORE PUSH1 0xD PUSH1 0x24 DUP3 ADD MSTORE PUSH13 0x1BDB9B1E481C1C9BDD1BD8DBDB PUSH1 0x9A SHL PUSH1 0x44 DUP3 ADD MSTORE PUSH1 0x64 SWAP1 REVERT JUMPDEST SWAP2 SWAP1 DUP3 ADD DUP1 SWAP3 GT PUSH2 0xA3B JUMPI JUMP JUMPDEST SWAP2 SWAP1 DUP3 SUB SWAP2 DUP3 GT PUSH2 0xA3B JUMPI JUMP JUMPDEST SWAP1 DUP2 SLOAD SWAP2 PUSH1 0x1 PUSH1 0x40 SHL DUP4 LT ISZERO PUSH2 0x15EC JUMPI DUP3 PUSH2 0xA15 SWAP2 PUSH1 0x1 PUSH2 0x1791 SWAP6 ADD DUP2 SSTORE PUSH2 0x14B9 JUMP JUMPDEST JUMP JUMPDEST PUSH1 0x2 PUSH0 SLOAD EQ PUSH2 0x17A2 JUMPI PUSH1 0x2 PUSH0 SSTORE JUMP JUMPDEST PUSH1 0x40 MLOAD PUSH3 0x461BCD PUSH1 0xE5 SHL DUP2 MSTORE PUSH1 0x20 PUSH1 0x4 DUP3 ADD MSTORE PUSH1 0x1F PUSH1 0x24 DUP3 ADD MSTORE PUSH32 0x5265656E7472616E637947756172643A207265656E7472616E742063616C6C00 PUSH1 0x44 DUP3 ADD MSTORE PUSH1 0x64 SWAP1 REVERT JUMPDEST SWAP1 PUSH0 PUSH1 0x20 SWAP2 DUP3 DUP2 MLOAD SWAP2 ADD DUP3 DUP6 GAS CALL ISZERO PUSH2 0x16B8 JUMPI PUSH0 MLOAD RETURNDATASIZE PUSH2 0x1838 JUMPI POP PUSH1 0x1 PUSH1 0x1 PUSH1 0xA0 SHL SUB DUP2 AND EXTCODESIZE ISZERO JUMPDEST PUSH2 0x1816 JUMPI POP JUMP JUMPDEST PUSH1 0x40 MLOAD PUSH4 0x5274AFE7 PUSH1 0xE0 SHL DUP2 MSTORE PUSH1 0x1 PUSH1 0x1 PUSH1 0xA0 SHL SUB SWAP1 SWAP2 AND PUSH1 0x4 DUP3 ADD MSTORE PUSH1 0x24 SWAP1 REVERT JUMPDEST PUSH1 0x1 EQ ISZERO PUSH2 0x180F JUMP JUMPDEST DUP2 DUP2 MUL SWAP3 SWAP2 DUP2 ISZERO SWAP2 DUP5 DIV EQ OR ISZERO PUSH2 0xA3B JUMPI JUMP JUMPDEST DUP1 SLOAD SWAP1 DUP2 ISZERO PUSH2 0x187D JUMPI PUSH0 NOT SWAP2 DUP3 ADD SWAP2 PUSH2 0x186D DUP4 DUP4 PUSH2 0x14B9 JUMP JUMPDEST SWAP1 SWAP2 DUP3 SLOAD SWAP2 PUSH1 0x3 SHL SHL NOT AND SWAP1 SSTORE SSTORE JUMP JUMPDEST PUSH4 0x4E487B71 PUSH1 0xE0 SHL PUSH0 MSTORE PUSH1 0x31 PUSH1 0x4 MSTORE PUSH1 0x24 PUSH0 REVERT JUMPDEST PUSH1 0x40 MLOAD PUSH4 0xA9059CBB PUSH1 0xE0 SHL PUSH1 0x20 DUP3 ADD MSTORE PUSH1 0x1 PUSH1 0x1 PUSH1 0xA0 SHL SUB SWAP1 SWAP3 AND PUSH1 0x24 DUP4 ADD MSTORE PUSH1 0x44 DUP1 DUP4 ADD SWAP4 SWAP1 SWAP4 MSTORE SWAP2 DUP2 MSTORE PUSH1 0x80 DUP2 ADD SWAP2 PUSH8 0xFFFFFFFFFFFFFFFF DUP4 GT DUP3 DUP5 LT OR PUSH2 0x15EC JUMPI PUSH2 0x1791 SWAP3 PUSH1 0x40 MSTORE PUSH2 0x17E7 JUMP JUMPDEST PUSH1 0x40 MLOAD PUSH4 0x18BF7417 PUSH1 0xE3 SHL DUP2 MSTORE PUSH1 0x20 SWAP2 SWAP1 PUSH32 0x0 PUSH1 0x1 PUSH1 0x1 PUSH1 0xA0 SHL SUB AND SWAP1 DUP4 DUP2 PUSH1 0x4 DUP2 DUP6 GAS STATICCALL SWAP2 DUP3 ISZERO PUSH2 0x16B8 JUMPI DUP5 SWAP2 PUSH0 SWAP4 PUSH2 0x1993 JUMPI JUMPDEST POP PUSH1 0x40 MLOAD PUSH4 0xF25E78B1 PUSH1 0xE0 SHL DUP2 MSTORE SWAP2 SWAP1 DUP3 SWAP1 PUSH1 0x4 SWAP1 DUP3 SWAP1 GAS STATICCALL SWAP4 DUP5 ISZERO PUSH2 0x16B8 JUMPI PUSH0 SWAP5 PUSH2 0x1962 JUMPI JUMPDEST POP POP SWAP2 SWAP1 JUMP JUMPDEST DUP2 DUP2 SWAP6 SWAP3 SWAP4 SWAP6 RETURNDATASIZE DUP4 GT PUSH2 0x198C JUMPI JUMPDEST PUSH2 0x197A DUP2 DUP4 PUSH2 0x1600 JUMP JUMPDEST DUP2 ADD SUB SLT PUSH2 0x16A9 JUMPI POP MLOAD SWAP2 PUSH0 DUP1 PUSH2 0x195C JUMP JUMPDEST POP RETURNDATASIZE PUSH2 0x1970 JUMP JUMPDEST SWAP2 DUP3 DUP2 SWAP5 SWAP3 SWAP5 RETURNDATASIZE DUP4 GT PUSH2 0x19BF JUMPI JUMPDEST PUSH2 0x19AB DUP2 DUP4 PUSH2 0x1600 JUMP JUMPDEST DUP2 ADD SUB SLT PUSH2 0x16A9 JUMPI POP MLOAD SWAP1 DUP4 SWAP1 PUSH1 0x4 PUSH2 0x1935 JUMP JUMPDEST POP RETURNDATASIZE PUSH2 0x19A1 JUMP JUMPDEST DUP1 MLOAD DUP3 LT ISZERO PUSH2 0x14A5 JUMPI PUSH1 0x20 SWAP2 PUSH1 0x5 SHL ADD ADD SWAP1 JUMP JUMPDEST SWAP1 PUSH1 0x40 MLOAD PUSH2 0x19E7 DUP2 PUSH2 0x15D0 JUMP JUMPDEST DUP3 SLOAD PUSH1 0x1 PUSH1 0x1 PUSH1 0xA0 SHL SUB AND DUP2 MSTORE PUSH1 0x1 DUP4 ADD SLOAD PUSH1 0x20 DUP3 ADD MSTORE PUSH1 0x2 DUP4 ADD SLOAD PUSH1 0x40 DUP3 ADD MSTORE PUSH1 0x3 DUP4 ADD SLOAD PUSH1 0x60 DUP3 ADD MSTORE PUSH1 0x4 SWAP1 SWAP3 ADD SLOAD PUSH1 0xFF AND ISZERO ISZERO PUSH1 0x80 DUP4 ADD MSTORE JUMP JUMPDEST SWAP1 PUSH32 0x0 PUSH0 DUP1 DUP3 SLT PUSH2 0x1B24 JUMPI POP PUSH2 0x1A5C PUSH2 0x1A61 SWAP3 DUP5 PUSH2 0x1841 JUMP JUMPDEST PUSH2 0x1841 JUMP JUMPDEST SWAP1 SWAP2 JUMPDEST PUSH2 0x2710 SWAP1 PUSH0 PUSH1 0x2 SLOAD SWAP2 JUMPDEST DUP3 DUP3 LT PUSH2 0x1AE3 JUMPI JUMPDEST POP POP POP PUSH2 0x2710 SWAP1 PUSH0 PUSH1 0x3 SLOAD SWAP5 JUMPDEST DUP6 DUP3 LT PUSH2 0x1AAC JUMPI JUMPDEST POP POP PUSH2 0x2710 SWAP4 POP PUSH2 0x1AA1 PUSH2 0x1AA8 SWAP4 SWAP3 DUP6 SWAP3 PUSH2 0x1841 JUMP JUMPDEST DIV SWAP1 PUSH2 0x1841 JUMP JUMPDEST DIV SWAP1 JUMP JUMPDEST SWAP1 SWAP3 PUSH2 0x1AB7 DUP5 PUSH2 0x1506 JUMP JUMPDEST POP SLOAD DUP3 LT PUSH2 0x1ADD JUMPI POP PUSH2 0x1AD7 PUSH1 0x1 PUSH2 0x1ACE DUP6 PUSH2 0x1506 JUMP JUMPDEST POP ADD SLOAD SWAP4 PUSH2 0x16C3 JUMP JUMPDEST SWAP1 PUSH2 0x1A83 JUMP JUMPDEST SWAP3 PUSH2 0x1A8B JUMP JUMPDEST SWAP1 SWAP2 SWAP5 SWAP4 SWAP3 PUSH2 0x1AF1 DUP4 PUSH2 0x14CE JUMP JUMPDEST POP SLOAD DUP3 LT PUSH2 0x1B1C JUMPI POP PUSH2 0x1B11 PUSH1 0x1 PUSH2 0x1B08 DUP5 PUSH2 0x14CE JUMP JUMPDEST POP ADD SLOAD SWAP3 PUSH2 0x16C3 JUMP JUMPDEST SWAP1 SWAP5 SWAP2 SWAP3 SWAP4 SWAP5 PUSH2 0x1A6E JUMP JUMPDEST SWAP3 SWAP4 SWAP5 PUSH2 0x1A76 JUMP JUMPDEST SWAP2 PUSH1 0x1 PUSH1 0xFF SHL DUP3 EQ PUSH2 0x1B5F JUMPI PUSH2 0x1B3A SWAP1 DUP5 PUSH2 0x1841 JUMP JUMPDEST SWAP2 DUP2 ISZERO PUSH2 0x1B4B JUMPI SUB SWAP1 DIV SWAP1 SWAP2 PUSH2 0x1A64 JUMP JUMPDEST PUSH4 0x4E487B71 PUSH1 0xE0 SHL DUP2 MSTORE PUSH1 0x12 PUSH1 0x4 MSTORE PUSH1 0x24 SWAP1 REVERT JUMPDEST PUSH4 0x4E487B71 PUSH1 0xE0 SHL DUP4 MSTORE PUSH1 0x11 PUSH1 0x4 MSTORE PUSH1 0x24 DUP4 REVERT INVALID LOG2 PUSH5 0x6970667358 0x22 SLT KECCAK256 0xE6 SWAP7 STOP PUSH1 0x11 0xC9 PUSH18 0x685F23754765054535DE0AD82A96160533FC 0xE9 SWAP16 DUP5 0xC2 LT DUP9 PUSH4 0x64736F6C PUSH4 0x43000814 STOP CALLER "
		},
		"gasEstimates": {
			"creation": {
				"codeDepositCost": "1416200",
				"executionCost": "infinite",
				"totalCost": "infinite"
			},
			"external": {
				"active()": "2260",
				"activePositions(address,uint256)": "7038",
				"allowedPreset(uint256)": "infinite",
				"amountMultipliers(uint256)": "9090",
				"amountMultipliersLen()": "2740",
				"closeVault()": "infinite",
				"closed()": "2472",
				"factory()": "infinite",
				"getApprovedRouter()": "infinite",
				"getFees()": "infinite",
				"getXP(address)": "infinite",
				"historyPositions(address,uint256)": "7214",
				"isActive()": "2416",
				"maxDeposit()": "infinite",
				"minDeposit()": "infinite",
				"participants()": "infinite",
				"positions(uint256)": "15484",
				"positionsLength()": "2828",
				"presetTimes(uint256)": "6615",
				"presetTimesLen()": "2366",
				"protocol()": "infinite",
				"releaseAll(address)": "infinite",
				"releaseFor(address,address)": "infinite",
				"stakeFor(uint256,uint256,address)": "infinite",
				"timeMultipliers(uint256)": "8848",
				"timeMultipliersLen()": "2762",
				"token()": "infinite",
				"vaultToken()": "infinite",
				"xpRate()": "infinite"
			},
			"internal": {
				"_calcPositionXP(uint256,uint256,uint256)": "infinite",
				"_getRouter()": "infinite"
			}
		},
		"methodIdentifiers": {
			"active()": "02fb0c5e",
			"activePositions(address,uint256)": "6a5908a0",
			"allowedPreset(uint256)": "cba02476",
			"amountMultipliers(uint256)": "a0660dfa",
			"amountMultipliersLen()": "b9b792cd",
			"closeVault()": "18976fa2",
			"closed()": "597e1fb5",
			"factory()": "c45a0155",
			"getApprovedRouter()": "a547afe0",
			"getFees()": "db8d55f1",
			"getXP(address)": "639487f4",
			"historyPositions(address,uint256)": "ac55deb6",
			"isActive()": "22f3e2d4",
			"maxDeposit()": "6083e59a",
			"minDeposit()": "41b3d185",
			"participants()": "6c4470fb",
			"positions(uint256)": "99fbab88",
			"positionsLength()": "d6887bfa",
			"presetTimes(uint256)": "10390d35",
			"presetTimesLen()": "359cfbf7",
			"protocol()": "8ce74426",
			"releaseAll(address)": "580fc80a",
			"releaseFor(address,address)": "96d8ef8e",
			"stakeFor(uint256,uint256,address)": "b1b0ebcc",
			"timeMultipliers(uint256)": "5350cbd9",
			"timeMultipliersLen()": "c122c2a1",
			"token()": "fc0c546a",
			"vaultToken()": "703bafd5",
			"xpRate()": "094b81d3"
		}
	},
	"abi": [
		{
			"inputs": [
				{
					"internalType": "address",
					"name": "_protocol",
					"type": "address"
				},
				{
					"internalType": "address",
					"name": "_token",
					"type": "address"
				},
				{
					"internalType": "address",
					"name": "_factory",
					"type": "address"
				},
				{
					"internalType": "uint256",
					"name": "_minDeposit",
					"type": "uint256"
				},
				{
					"internalType": "uint256",
					"name": "_maxDeposit",
					"type": "uint256"
				},
				{
					"internalType": "int256",
					"name": "_xpRate",
					"type": "int256"
				},
				{
					"internalType": "uint256[]",
					"name": "_presetTimes",
					"type": "uint256[]"
				},
				{
					"components": [
						{
							"internalType": "uint256",
							"name": "minBlocks",
							"type": "uint256"
						},
						{
							"internalType": "uint256",
							"name": "multiplierBP",
							"type": "uint256"
						}
					],
					"internalType": "struct YunaVault.TimeMultiplier[]",
					"name": "_timeMultipliers",
					"type": "tuple[]"
				},
				{
					"components": [
						{
							"internalType": "uint256",
							"name": "minAmount",
							"type": "uint256"
						},
						{
							"internalType": "uint256",
							"name": "multiplierBP",
							"type": "uint256"
						}
					],
					"internalType": "struct YunaVault.AmountMultiplier[]",
					"name": "_amountMultipliers",
					"type": "tuple[]"
				}
			],
			"stateMutability": "nonpayable",
			"type": "constructor"
		},
		{
			"inputs": [
				{
					"internalType": "address",
					"name": "token",
					"type": "address"
				}
			],
			"name": "SafeERC20FailedOperation",
			"type": "error"
		},
		{
			"anonymous": false,
			"inputs": [
				{
					"indexed": true,
					"internalType": "address",
					"name": "user",
					"type": "address"
				},
				{
					"indexed": true,
					"internalType": "uint256",
					"name": "posId",
					"type": "uint256"
				},
				{
					"indexed": false,
					"internalType": "uint256",
					"name": "refund",
					"type": "uint256"
				}
			],
			"name": "EmergencyReleased",
			"type": "event"
		},
		{
			"anonymous": false,
			"inputs": [
				{
					"indexed": true,
					"internalType": "address",
					"name": "user",
					"type": "address"
				},
				{
					"indexed": true,
					"internalType": "uint256",
					"name": "posId",
					"type": "uint256"
				},
				{
					"indexed": false,
					"internalType": "uint256",
					"name": "refund",
					"type": "uint256"
				},
				{
					"indexed": false,
					"internalType": "uint256",
					"name": "fee",
					"type": "uint256"
				}
			],
			"name": "Released",
			"type": "event"
		},
		{
			"anonymous": false,
			"inputs": [
				{
					"indexed": true,
					"internalType": "address",
					"name": "user",
					"type": "address"
				},
				{
					"indexed": true,
					"internalType": "uint256",
					"name": "posId",
					"type": "uint256"
				},
				{
					"indexed": false,
					"internalType": "uint256",
					"name": "amount",
					"type": "uint256"
				},
				{
					"indexed": false,
					"internalType": "uint256",
					"name": "startBlock",
					"type": "uint256"
				},
				{
					"indexed": false,
					"internalType": "uint256",
					"name": "endBlock",
					"type": "uint256"
				}
			],
			"name": "Staked",
			"type": "event"
		},
		{
			"anonymous": false,
			"inputs": [],
			"name": "VaultClosed",
			"type": "event"
		},
		{
			"inputs": [],
			"name": "active",
			"outputs": [
				{
					"internalType": "bool",
					"name": "",
					"type": "bool"
				}
			],
			"stateMutability": "view",
			"type": "function"
		},
		{
			"inputs": [
				{
					"internalType": "address",
					"name": "",
					"type": "address"
				},
				{
					"internalType": "uint256",
					"name": "",
					"type": "uint256"
				}
			],
			"name": "activePositions",
			"outputs": [
				{
					"internalType": "uint256",
					"name": "",
					"type": "uint256"
				}
			],
			"stateMutability": "view",
			"type": "function"
		},
		{
			"inputs": [
				{
					"internalType": "uint256",
					"name": "blocks",
					"type": "uint256"
				}
			],
			"name": "allowedPreset",
			"outputs": [
				{
					"internalType": "bool",
					"name": "",
					"type": "bool"
				}
			],
			"stateMutability": "view",
			"type": "function"
		},
		{
			"inputs": [
				{
					"internalType": "uint256",
					"name": "",
					"type": "uint256"
				}
			],
			"name": "amountMultipliers",
			"outputs": [
				{
					"internalType": "uint256",
					"name": "minAmount",
					"type": "uint256"
				},
				{
					"internalType": "uint256",
					"name": "multiplierBP",
					"type": "uint256"
				}
			],
			"stateMutability": "view",
			"type": "function"
		},
		{
			"inputs": [],
			"name": "amountMultipliersLen",
			"outputs": [
				{
					"internalType": "uint256",
					"name": "",
					"type": "uint256"
				}
			],
			"stateMutability": "view",
			"type": "function"
		},
		{
			"inputs": [],
			"name": "closeVault",
			"outputs": [],
			"stateMutability": "nonpayable",
			"type": "function"
		},
		{
			"inputs": [],
			"name": "closed",
			"outputs": [
				{
					"internalType": "bool",
					"name": "",
					"type": "bool"
				}
			],
			"stateMutability": "view",
			"type": "function"
		},
		{
			"inputs": [],
			"name": "factory",
			"outputs": [
				{
					"internalType": "address",
					"name": "",
					"type": "address"
				}
			],
			"stateMutability": "view",
			"type": "function"
		},
		{
			"inputs": [],
			"name": "getApprovedRouter",
			"outputs": [
				{
					"internalType": "address",
					"name": "",
					"type": "address"
				}
			],
			"stateMutability": "view",
			"type": "function"
		},
		{
			"inputs": [],
			"name": "getFees",
			"outputs": [
				{
					"internalType": "uint256",
					"name": "_protocolFeeBP",
					"type": "uint256"
				},
				{
					"internalType": "uint256",
					"name": "_callerFeeBP",
					"type": "uint256"
				}
			],
			"stateMutability": "view",
			"type": "function"
		},
		{
			"inputs": [
				{
					"internalType": "address",
					"name": "holder",
					"type": "address"
				}
			],
			"name": "getXP",
			"outputs": [
				{
					"internalType": "uint256",
					"name": "xp",
					"type": "uint256"
				}
			],
			"stateMutability": "view",
			"type": "function"
		},
		{
			"inputs": [
				{
					"internalType": "address",
					"name": "",
					"type": "address"
				},
				{
					"internalType": "uint256",
					"name": "",
					"type": "uint256"
				}
			],
			"name": "historyPositions",
			"outputs": [
				{
					"internalType": "uint256",
					"name": "",
					"type": "uint256"
				}
			],
			"stateMutability": "view",
			"type": "function"
		},
		{
			"inputs": [],
			"name": "isActive",
			"outputs": [
				{
					"internalType": "bool",
					"name": "",
					"type": "bool"
				}
			],
			"stateMutability": "view",
			"type": "function"
		},
		{
			"inputs": [],
			"name": "maxDeposit",
			"outputs": [
				{
					"internalType": "uint256",
					"name": "",
					"type": "uint256"
				}
			],
			"stateMutability": "view",
			"type": "function"
		},
		{
			"inputs": [],
			"name": "minDeposit",
			"outputs": [
				{
					"internalType": "uint256",
					"name": "",
					"type": "uint256"
				}
			],
			"stateMutability": "view",
			"type": "function"
		},
		{
			"inputs": [],
			"name": "participants",
			"outputs": [
				{
					"internalType": "address[]",
					"name": "",
					"type": "address[]"
				}
			],
			"stateMutability": "view",
			"type": "function"
		},
		{
			"inputs": [
				{
					"internalType": "uint256",
					"name": "",
					"type": "uint256"
				}
			],
			"name": "positions",
			"outputs": [
				{
					"internalType": "address",
					"name": "user",
					"type": "address"
				},
				{
					"internalType": "uint256",
					"name": "amount",
					"type": "uint256"
				},
				{
					"internalType": "uint256",
					"name": "startBlock",
					"type": "uint256"
				},
				{
					"internalType": "uint256",
					"name": "endBlock",
					"type": "uint256"
				},
				{
					"internalType": "bool",
					"name": "claimed",
					"type": "bool"
				}
			],
			"stateMutability": "view",
			"type": "function"
		},
		{
			"inputs": [],
			"name": "positionsLength",
			"outputs": [
				{
					"internalType": "uint256",
					"name": "",
					"type": "uint256"
				}
			],
			"stateMutability": "view",
			"type": "function"
		},
		{
			"inputs": [
				{
					"internalType": "uint256",
					"name": "",
					"type": "uint256"
				}
			],
			"name": "presetTimes",
			"outputs": [
				{
					"internalType": "uint256",
					"name": "",
					"type": "uint256"
				}
			],
			"stateMutability": "view",
			"type": "function"
		},
		{
			"inputs": [],
			"name": "presetTimesLen",
			"outputs": [
				{
					"internalType": "uint256",
					"name": "",
					"type": "uint256"
				}
			],
			"stateMutability": "view",
			"type": "function"
		},
		{
			"inputs": [],
			"name": "protocol",
			"outputs": [
				{
					"internalType": "address",
					"name": "",
					"type": "address"
				}
			],
			"stateMutability": "view",
			"type": "function"
		},
		{
			"inputs": [
				{
					"internalType": "address",
					"name": "caller",
					"type": "address"
				}
			],
			"name": "releaseAll",
			"outputs": [],
			"stateMutability": "nonpayable",
			"type": "function"
		},
		{
			"inputs": [
				{
					"internalType": "address",
					"name": "user",
					"type": "address"
				},
				{
					"internalType": "address",
					"name": "caller",
					"type": "address"
				}
			],
			"name": "releaseFor",
			"outputs": [],
			"stateMutability": "nonpayable",
			"type": "function"
		},
		{
			"inputs": [
				{
					"internalType": "uint256",
					"name": "amount",
					"type": "uint256"
				},
				{
					"internalType": "uint256",
					"name": "blocksToStake",
					"type": "uint256"
				},
				{
					"internalType": "address",
					"name": "beneficiary",
					"type": "address"
				}
			],
			"name": "stakeFor",
			"outputs": [],
			"stateMutability": "nonpayable",
			"type": "function"
		},
		{
			"inputs": [
				{
					"internalType": "uint256",
					"name": "",
					"type": "uint256"
				}
			],
			"name": "timeMultipliers",
			"outputs": [
				{
					"internalType": "uint256",
					"name": "minBlocks",
					"type": "uint256"
				},
				{
					"internalType": "uint256",
					"name": "multiplierBP",
					"type": "uint256"
				}
			],
			"stateMutability": "view",
			"type": "function"
		},
		{
			"inputs": [],
			"name": "timeMultipliersLen",
			"outputs": [
				{
					"internalType": "uint256",
					"name": "",
					"type": "uint256"
				}
			],
			"stateMutability": "view",
			"type": "function"
		},
		{
			"inputs": [],
			"name": "token",
			"outputs": [
				{
					"internalType": "address",
					"name": "",
					"type": "address"
				}
			],
			"stateMutability": "view",
			"type": "function"
		},
		{
			"inputs": [],
			"name": "vaultToken",
			"outputs": [
				{
					"internalType": "address",
					"name": "",
					"type": "address"
				}
			],
			"stateMutability": "view",
			"type": "function"
		},
		{
			"inputs": [],
			"name": "xpRate",
			"outputs": [
				{
					"internalType": "int256",
					"name": "",
					"type": "int256"
				}
			],
			"stateMutability": "view",
			"type": "function"
		}
	]
}