{
	"data": {
		"bytecode": {
			"linkReferences": {},
			"object": "60e060409080825234620002075781816200164480380380916200002482856200020b565b8339810103126200020757620000486020620000408362000243565b920162000243565b905f91600183553315620001ef5760018054336001600160a01b031982168117909255855193602093859360049385936001600160a01b039392849283167f8be0079c531659141344cd1fd0a4f28419497f9722a3daafe3b4186f6b6457e08c80a3166080521660a081905263313ce56760e01b82525afa8015620001e55782906200019e575b60ff915016604d81116200018a57600a0a90630bebc200918083029283040362000176575061cd50900460c05243600455516113eb90816200025982396080518181816101b3015281816106320152818161074f015281816109a50152610b77015260a05181818161024f015281816107ad01528181610e91015281816111160152611301015260c0518181816105cc01528181610ee30152818161114e015261133f0152f35b634e487b7160e01b81526011600452602490fd5b634e487b7160e01b82526011600452602482fd5b506020813d8211620001dc575b81620001ba602093836200020b565b81010312620001d8575160ff81168103620001d85760ff90620000cf565b5080fd5b3d9150620001ab565b83513d84823e3d90fd5b8351631e4fbdf760e01b815260048101849052602490fd5b5f80fd5b601f909101601f19168101906001600160401b038211908210176200022f57604052565b634e487b7160e01b5f52604160045260245ffd5b51906001600160a01b0382168203620002075756fe60406080815260049081361015610014575f80fd5b5f91823560e01c9081632e1a7d4d1461094e5781632f4f21e2146108db57816335c1d3491461089a578163362f04c01461087b57816345114ee51461077e5781635fcbd2851461073a578163715018a6146106dd57816371bf8623146106c0578163853828b6146105ef5781638ae39cac146105b45781638da5cb5b1461058b578163929066f51461054d578163a87430ba146104ff578163a9f8d181146104e1578163aa93bfa8146104c2578163b6b55f251461049b578163c0d78655146103f6578163d1058e59146103cb578163e7a0fb9b146103ae578163e950342514610381578163e9e7eb351461030e578163f2fde38b1461027e578163f7c618c11461023a578163f7e4cd0d1461018457508063f887ea401461015c5763fc7039e01461013e575f80fd5b346101585781600319360112610158576020905160328152f35b5080fd5b503461015857816003193601126101585760035490516001600160a01b039091168152602090f35b9190503461022457826003193601126102245780516370a0823160e01b815230928101929092526020826024817f00000000000000000000000000000000000000000000000000000000000000006001600160a01b03165afa9182156102305783926101f5575b6020838351908152f35b9091506020813d8211610228575b8161021060209383610ccb565b81010312610224576020925051905f6101eb565b8280fd5b3d9150610203565b81513d85823e3d90fd5b505034610158578160031936011261015857517f00000000000000000000000000000000000000000000000000000000000000006001600160a01b03168152602090f35b90503461022457602036600319011261022457610299610a08565b906102a2610a6b565b6001600160a01b039182169283156102f8575050600154826bffffffffffffffffffffffff60a01b821617600155167f8be0079c531659141344cd1fd0a4f28419497f9722a3daafe3b4186f6b6457e08380a380f35b51631e4fbdf760e01b8152908101849052602490fd5b5050346101585760203660031901126101585760209181906001600160a01b03610336610a08565b168152600684522090600282015491600181015480610358575b505051908152f35b61037992939161036b6103739243610d52565b905490610d5f565b90610aeb565b905f80610350565b505034610158576020366003190112610158576020906103a76103a2610a08565b6110db565b9051908152f35b5050346101585781600319360112610158576020906103a76112da565b83346103f357806003193601126103f3576103e4610a97565b6103ec610e72565b6001815580f35b80fd5b9190503461022457602036600319011261022457610412610a08565b61041a610a6b565b6001600160a01b031691821561046a5750600380546001600160a01b03191683179055519081527fc6b438e6a8a59579ce6a4406cbd203b740e0d47b458aae6596339bcd40c40d1590602090a180f35b6020606492519162461bcd60e51b8352820152600c60248201526b7a65726f206164647265737360a01b6044820152fd5b839034610158576020366003190112610158576103ec906104ba610a97565b353333610b0c565b5050346101585781600319360112610158576020906005549051908152f35b90503461022457826003193601126102245760209250549051908152f35b5050346101585760203660031901126101585760609181906001600160a01b03610527610a08565b168152600660205220805491600260018301549201549181519384526020840152820152f35b5050346101585760203660031901126101585760209160ff9082906001600160a01b03610578610a08565b1681526002855220541690519015158152f35b50503461015857816003193601126101585760015490516001600160a01b039091168152602090f35b505034610158578160031936011261015857602090517f00000000000000000000000000000000000000000000000000000000000000008152f35b9190503461022457826003193601126102245761060a610a97565b338352600660205280832080549283156106875750839061062a33610d72565b5561065682337f0000000000000000000000000000000000000000000000000000000000000000610df4565b519081527f7084f5476618d8e60b11ef0d7d3f06914655adb8793e28ff7f018d4c76d505d560203392a26001815580f35b606490602084519162461bcd60e51b835282015260136024820152726e6f7468696e6720746f20776974686472617760681b6044820152fd5b505034610158578160031936011261015857602090516127108152f35b83346103f357806003193601126103f3576106f6610a6b565b600180546001600160a01b0319811690915581906001600160a01b03167f8be0079c531659141344cd1fd0a4f28419497f9722a3daafe3b4186f6b6457e08280a380f35b505034610158578160031936011261015857517f00000000000000000000000000000000000000000000000000000000000000006001600160a01b03168152602090f35b83915034610158578160031936011261015857610799610a6b565b82516370a0823160e01b81523082820152907f0000000000000000000000000000000000000000000000000000000000000000906001600160a01b03906020846024818587165afa93841561087157859461083a575b50831561080a57506108079394506001541690610df4565b80f35b606490602087519162461bcd60e51b8352820152600a6024820152696e6f207265776172647360b01b6044820152fd5b9093506020813d8211610869575b8161085560209383610ccb565b81010312610865575192866107ef565b8480fd5b3d9150610848565b86513d87823e3d90fd5b5050346101585781600319360112610158576020906007549051908152f35b9050346102245760203660031901126102245735916007548310156103f357506108c5602092610a22565b905491519160018060a01b039160031b1c168152f35b9050346102245781600319360112610224576108f5610a08565b916108fe610a97565b6003546001600160a01b0316330361091e57836103ec6024358533610b0c565b906020606492519162461bcd60e51b8352820152600a6024820152693737ba103937baba32b960b11b6044820152fd5b919050346102245760203660031901126102245781359161096d610a97565b338452600660205281842090831515806109fd575b156109c9575061099133610d72565b61099c838254610d52565b905561065682337f0000000000000000000000000000000000000000000000000000000000000000610df4565b606490602084519162461bcd60e51b8352820152600e60248201526d1a5b9d985b1a5908185b5bdd5b9d60921b6044820152fd5b508154841115610982565b600435906001600160a01b0382168203610a1e57565b5f80fd5b600754811015610a575760075f527fa66cc928b5edb82af9bd49922954155ab7b0942694bea4ce44661d9a8736c68801905f90565b634e487b7160e01b5f52603260045260245ffd5b6001546001600160a01b03163303610a7f57565b60405163118cdaa760e01b8152336004820152602490fd5b60025f5414610aa65760025f55565b60405162461bcd60e51b815260206004820152601f60248201527f5265656e7472616e637947756172643a207265656e7472616e742063616c6c006044820152606490fd5b91908201809211610af857565b634e487b7160e01b5f52601160045260245ffd5b9190651319718a50008210610c9857610b2481610d72565b6040516323b872dd60e01b60208201526001600160a01b039384166024820152306044820152606480820184905281529060a0820167ffffffffffffffff811183821017610c84578492610b9b916040527f0000000000000000000000000000000000000000000000000000000000000000610ced565b16915f90838252600260205260408220805460ff811615610bff575b5050507f2da466a7b24304f47e87fa2e1e5a81b9831ce54fec19055ce277ca2f39ba42c49160408285602094526006845220610bf4828254610aeb565b9055604051908152a2565b60ff1916600117905560075468010000000000000000811015610c70576020927f2da466a7b24304f47e87fa2e1e5a81b9831ce54fec19055ce277ca2f39ba42c49492610c5483600160409501600755610a22565b819291549060031b9189831b921b191617905592829450610bb7565b634e487b7160e01b83526041600452602483fd5b634e487b7160e01b5f52604160045260245ffd5b60405162461bcd60e51b815260206004820152600b60248201526a1b1bddc819195c1bdcda5d60aa1b6044820152606490fd5b90601f8019910116810190811067ffffffffffffffff821117610c8457604052565b905f602091828151910182855af115610d47575f513d610d3e57506001600160a01b0381163b155b610d1c5750565b604051635274afe760e01b81526001600160a01b039091166004820152602490fd5b60011415610d15565b6040513d5f823e3d90fd5b91908203918211610af857565b81810292918115918404141715610af857565b60018060a01b03165f52600660205260405f206001810190815415610dee57610d9c825443610d52565b9081151580610de4575b610db2575b5050439055565b6002610dc3610dda93835490610d5f565b9101610dd0828254610aeb565b9055600554610aeb565b6005555f80610dab565b5080541515610da6565b50439055565b60405163a9059cbb60e01b60208201526001600160a01b039092166024830152604480830193909352918152608081019167ffffffffffffffff831182841017610c8457610e4492604052610ced565b565b5f198114610af85760010190565b8115610e5e570490565b634e487b7160e01b5f52601260045260245ffd5b604080516370a0823160e01b81523060048201526001600160a01b03927f000000000000000000000000000000000000000000000000000000000000000092916020919082816024818989165afa9081156110d1575f916110a4575b50610edb60045443610d52565b801561109b577f00000000000000000000000000000000000000000000000000000000000000009082610f0e8383610d5f565b111561108b575050905b5f5b600754811015610f98578087610f32610f8c93610a22565b90549060031b1c165f5260068552855f208054908115610f91576002610f666001830193610f61855443610d52565b610d5f565b9101610f73828254610aeb565b9055610f826005918254610aeb565b9055439055610e46565b610f1a565b5050610e46565b50929390936032850285810460321486151715610af857612710610fc3910480968161107b57610d52565b935f5b60075481101561103f578088610fde61102193610a22565b90549060031b1c16805f52600687526002855f200180549182156110375761101361100a5f948c610d5f565b60055490610e54565b80611026575b505055610e46565b610fc6565b6110309189610df4565b5f80611019565b505050610e46565b50955092917f3c3d358c457d91d874593441791f0b96c90172a78030ce0ce7e8e8c965fe14699491505f600555436004558351928352820152a1565b611086823387610df4565b610d52565b6110959250610d5f565b90610f18565b50509350505050565b908382813d83116110ca575b6110ba8183610ccb565b810103126103f35750515f610ece565b503d6110b0565b84513d5f823e3d90fd5b6110e760045443610d52565b80156112d457604080516370a0823160e01b81523060048201526001600160a01b0392602092919083826024817f000000000000000000000000000000000000000000000000000000000000000089165afa9182156112ca575f92611299575b50611173907f000000000000000000000000000000000000000000000000000000000000000090610d5f565b8181111561129257505b8015611289576032810290808204603203610af8576127106111a0920490610d52565b91600554935f958693600754945b8581106111ec57505050505050821580156111e4575b6111dd576111da926111d591610d5f565b610e54565b90565b5050505f90565b5081156111c4565b836111f682610a22565b90549060031b1c1697885f5260068652825f20805490811561127c579061123a915f9160018201548061125d575b5050816002611234920154610aeb565b92610aeb565b9885851614611253575b5061124e90610e46565b6111ae565b985061124e611244565b600293506112349291610f616112739243610d52565b92819250611224565b5050975061124e90610e46565b50505050505f90565b905061117d565b90918482813d83116112c3575b6112b08183610ccb565b810103126103f357505190611173611147565b503d6112a6565b83513d5f823e3d90fd5b50505f90565b6112e660045443610d52565b6040516370a0823160e01b81523060048201526020816024817f00000000000000000000000000000000000000000000000000000000000000006001600160a01b03165afa908115610d47575f91611384575b506113647f000000000000000000000000000000000000000000000000000000000000000083610d5f565b8181111561137c5750905b156113775790565b505f90565b90509061136f565b906020823d82116113ad575b8161139d60209383610ccb565b810103126103f35750515f611339565b3d915061139056fea26469706673582212206d1923d846320d6c628d006e284f6ff2e83d05b19715113bfc568c6608607baf64736f6c63430008140033",
			"opcodes": "PUSH1 0xE0 PUSH1 0x40 SWAP1 DUP1 DUP3 MSTORE CALLVALUE PUSH3 0x207 JUMPI DUP2 DUP2 PUSH3 0x1644 DUP1 CODESIZE SUB DUP1 SWAP2 PUSH3 0x24 DUP3 DUP6 PUSH3 0x20B JUMP JUMPDEST DUP4 CODECOPY DUP2 ADD SUB SLT PUSH3 0x207 JUMPI PUSH3 0x48 PUSH1 0x20 PUSH3 0x40 DUP4 PUSH3 0x243 JUMP JUMPDEST SWAP3 ADD PUSH3 0x243 JUMP JUMPDEST SWAP1 PUSH0 SWAP2 PUSH1 0x1 DUP4 SSTORE CALLER ISZERO PUSH3 0x1EF JUMPI PUSH1 0x1 DUP1 SLOAD CALLER PUSH1 0x1 PUSH1 0x1 PUSH1 0xA0 SHL SUB NOT DUP3 AND DUP2 OR SWAP1 SWAP3 SSTORE DUP6 MLOAD SWAP4 PUSH1 0x20 SWAP4 DUP6 SWAP4 PUSH1 0x4 SWAP4 DUP6 SWAP4 PUSH1 0x1 PUSH1 0x1 PUSH1 0xA0 SHL SUB SWAP4 SWAP3 DUP5 SWAP3 DUP4 AND PUSH32 0x8BE0079C531659141344CD1FD0A4F28419497F9722A3DAAFE3B4186F6B6457E0 DUP13 DUP1 LOG3 AND PUSH1 0x80 MSTORE AND PUSH1 0xA0 DUP2 SWAP1 MSTORE PUSH4 0x313CE567 PUSH1 0xE0 SHL DUP3 MSTORE GAS STATICCALL DUP1 ISZERO PUSH3 0x1E5 JUMPI DUP3 SWAP1 PUSH3 0x19E JUMPI JUMPDEST PUSH1 0xFF SWAP2 POP AND PUSH1 0x4D DUP2 GT PUSH3 0x18A JUMPI PUSH1 0xA EXP SWAP1 PUSH4 0xBEBC200 SWAP2 DUP1 DUP4 MUL SWAP3 DUP4 DIV SUB PUSH3 0x176 JUMPI POP PUSH2 0xCD50 SWAP1 DIV PUSH1 0xC0 MSTORE NUMBER PUSH1 0x4 SSTORE MLOAD PUSH2 0x13EB SWAP1 DUP2 PUSH3 0x259 DUP3 CODECOPY PUSH1 0x80 MLOAD DUP2 DUP2 DUP2 PUSH2 0x1B3 ADD MSTORE DUP2 DUP2 PUSH2 0x632 ADD MSTORE DUP2 DUP2 PUSH2 0x74F ADD MSTORE DUP2 DUP2 PUSH2 0x9A5 ADD MSTORE PUSH2 0xB77 ADD MSTORE PUSH1 0xA0 MLOAD DUP2 DUP2 DUP2 PUSH2 0x24F ADD MSTORE DUP2 DUP2 PUSH2 0x7AD ADD MSTORE DUP2 DUP2 PUSH2 0xE91 ADD MSTORE DUP2 DUP2 PUSH2 0x1116 ADD MSTORE PUSH2 0x1301 ADD MSTORE PUSH1 0xC0 MLOAD DUP2 DUP2 DUP2 PUSH2 0x5CC ADD MSTORE DUP2 DUP2 PUSH2 0xEE3 ADD MSTORE DUP2 DUP2 PUSH2 0x114E ADD MSTORE PUSH2 0x133F ADD MSTORE RETURN JUMPDEST PUSH4 0x4E487B71 PUSH1 0xE0 SHL DUP2 MSTORE PUSH1 0x11 PUSH1 0x4 MSTORE PUSH1 0x24 SWAP1 REVERT JUMPDEST PUSH4 0x4E487B71 PUSH1 0xE0 SHL DUP3 MSTORE PUSH1 0x11 PUSH1 0x4 MSTORE PUSH1 0x24 DUP3 REVERT JUMPDEST POP PUSH1 0x20 DUP2 RETURNDATASIZE DUP3 GT PUSH3 0x1DC JUMPI JUMPDEST DUP2 PUSH3 0x1BA PUSH1 0x20 SWAP4 DUP4 PUSH3 0x20B JUMP JUMPDEST DUP2 ADD SUB SLT PUSH3 0x1D8 JUMPI MLOAD PUSH1 0xFF DUP2 AND DUP2 SUB PUSH3 0x1D8 JUMPI PUSH1 0xFF SWAP1 PUSH3 0xCF JUMP JUMPDEST POP DUP1 REVERT JUMPDEST RETURNDATASIZE SWAP2 POP PUSH3 0x1AB JUMP JUMPDEST DUP4 MLOAD RETURNDATASIZE DUP5 DUP3 RETURNDATACOPY RETURNDATASIZE SWAP1 REVERT JUMPDEST DUP4 MLOAD PUSH4 0x1E4FBDF7 PUSH1 0xE0 SHL DUP2 MSTORE PUSH1 0x4 DUP2 ADD DUP5 SWAP1 MSTORE PUSH1 0x24 SWAP1 REVERT JUMPDEST PUSH0 DUP1 REVERT JUMPDEST PUSH1 0x1F SWAP1 SWAP2 ADD PUSH1 0x1F NOT AND DUP2 ADD SWAP1 PUSH1 0x1 PUSH1 0x1 PUSH1 0x40 SHL SUB DUP3 GT SWAP1 DUP3 LT OR PUSH3 0x22F JUMPI PUSH1 0x40 MSTORE JUMP JUMPDEST PUSH4 0x4E487B71 PUSH1 0xE0 SHL PUSH0 MSTORE PUSH1 0x41 PUSH1 0x4 MSTORE PUSH1 0x24 PUSH0 REVERT JUMPDEST MLOAD SWAP1 PUSH1 0x1 PUSH1 0x1 PUSH1 0xA0 SHL SUB DUP3 AND DUP3 SUB PUSH3 0x207 JUMPI JUMP INVALID PUSH1 0x40 PUSH1 0x80 DUP2 MSTORE PUSH1 0x4 SWAP1 DUP2 CALLDATASIZE LT ISZERO PUSH2 0x14 JUMPI PUSH0 DUP1 REVERT JUMPDEST PUSH0 SWAP2 DUP3 CALLDATALOAD PUSH1 0xE0 SHR SWAP1 DUP2 PUSH4 0x2E1A7D4D EQ PUSH2 0x94E JUMPI DUP2 PUSH4 0x2F4F21E2 EQ PUSH2 0x8DB JUMPI DUP2 PUSH4 0x35C1D349 EQ PUSH2 0x89A JUMPI DUP2 PUSH4 0x362F04C0 EQ PUSH2 0x87B JUMPI DUP2 PUSH4 0x45114EE5 EQ PUSH2 0x77E JUMPI DUP2 PUSH4 0x5FCBD285 EQ PUSH2 0x73A JUMPI DUP2 PUSH4 0x715018A6 EQ PUSH2 0x6DD JUMPI DUP2 PUSH4 0x71BF8623 EQ PUSH2 0x6C0 JUMPI DUP2 PUSH4 0x853828B6 EQ PUSH2 0x5EF JUMPI DUP2 PUSH4 0x8AE39CAC EQ PUSH2 0x5B4 JUMPI DUP2 PUSH4 0x8DA5CB5B EQ PUSH2 0x58B JUMPI DUP2 PUSH4 0x929066F5 EQ PUSH2 0x54D JUMPI DUP2 PUSH4 0xA87430BA EQ PUSH2 0x4FF JUMPI DUP2 PUSH4 0xA9F8D181 EQ PUSH2 0x4E1 JUMPI DUP2 PUSH4 0xAA93BFA8 EQ PUSH2 0x4C2 JUMPI DUP2 PUSH4 0xB6B55F25 EQ PUSH2 0x49B JUMPI DUP2 PUSH4 0xC0D78655 EQ PUSH2 0x3F6 JUMPI DUP2 PUSH4 0xD1058E59 EQ PUSH2 0x3CB JUMPI DUP2 PUSH4 0xE7A0FB9B EQ PUSH2 0x3AE JUMPI DUP2 PUSH4 0xE9503425 EQ PUSH2 0x381 JUMPI DUP2 PUSH4 0xE9E7EB35 EQ PUSH2 0x30E JUMPI DUP2 PUSH4 0xF2FDE38B EQ PUSH2 0x27E JUMPI DUP2 PUSH4 0xF7C618C1 EQ PUSH2 0x23A JUMPI DUP2 PUSH4 0xF7E4CD0D EQ PUSH2 0x184 JUMPI POP DUP1 PUSH4 0xF887EA40 EQ PUSH2 0x15C JUMPI PUSH4 0xFC7039E0 EQ PUSH2 0x13E JUMPI PUSH0 DUP1 REVERT JUMPDEST CALLVALUE PUSH2 0x158 JUMPI DUP2 PUSH1 0x3 NOT CALLDATASIZE ADD SLT PUSH2 0x158 JUMPI PUSH1 0x20 SWAP1 MLOAD PUSH1 0x32 DUP2 MSTORE RETURN JUMPDEST POP DUP1 REVERT JUMPDEST POP CALLVALUE PUSH2 0x158 JUMPI DUP2 PUSH1 0x3 NOT CALLDATASIZE ADD SLT PUSH2 0x158 JUMPI PUSH1 0x3 SLOAD SWAP1 MLOAD PUSH1 0x1 PUSH1 0x1 PUSH1 0xA0 SHL SUB SWAP1 SWAP2 AND DUP2 MSTORE PUSH1 0x20 SWAP1 RETURN JUMPDEST SWAP2 SWAP1 POP CALLVALUE PUSH2 0x224 JUMPI DUP3 PUSH1 0x3 NOT CALLDATASIZE ADD SLT PUSH2 0x224 JUMPI DUP1 MLOAD PUSH4 0x70A08231 PUSH1 0xE0 SHL DUP2 MSTORE ADDRESS SWAP3 DUP2 ADD SWAP3 SWAP1 SWAP3 MSTORE PUSH1 0x20 DUP3 PUSH1 0x24 DUP2 PUSH32 0x0 PUSH1 0x1 PUSH1 0x1 PUSH1 0xA0 SHL SUB AND GAS STATICCALL SWAP2 DUP3 ISZERO PUSH2 0x230 JUMPI DUP4 SWAP3 PUSH2 0x1F5 JUMPI JUMPDEST PUSH1 0x20 DUP4 DUP4 MLOAD SWAP1 DUP2 MSTORE RETURN JUMPDEST SWAP1 SWAP2 POP PUSH1 0x20 DUP2 RETURNDATASIZE DUP3 GT PUSH2 0x228 JUMPI JUMPDEST DUP2 PUSH2 0x210 PUSH1 0x20 SWAP4 DUP4 PUSH2 0xCCB JUMP JUMPDEST DUP2 ADD SUB SLT PUSH2 0x224 JUMPI PUSH1 0x20 SWAP3 POP MLOAD SWAP1 PUSH0 PUSH2 0x1EB JUMP JUMPDEST DUP3 DUP1 REVERT JUMPDEST RETURNDATASIZE SWAP2 POP PUSH2 0x203 JUMP JUMPDEST DUP2 MLOAD RETURNDATASIZE DUP6 DUP3 RETURNDATACOPY RETURNDATASIZE SWAP1 REVERT JUMPDEST POP POP CALLVALUE PUSH2 0x158 JUMPI DUP2 PUSH1 0x3 NOT CALLDATASIZE ADD SLT PUSH2 0x158 JUMPI MLOAD PUSH32 0x0 PUSH1 0x1 PUSH1 0x1 PUSH1 0xA0 SHL SUB AND DUP2 MSTORE PUSH1 0x20 SWAP1 RETURN JUMPDEST SWAP1 POP CALLVALUE PUSH2 0x224 JUMPI PUSH1 0x20 CALLDATASIZE PUSH1 0x3 NOT ADD SLT PUSH2 0x224 JUMPI PUSH2 0x299 PUSH2 0xA08 JUMP JUMPDEST SWAP1 PUSH2 0x2A2 PUSH2 0xA6B JUMP JUMPDEST PUSH1 0x1 PUSH1 0x1 PUSH1 0xA0 SHL SUB SWAP2 DUP3 AND SWAP3 DUP4 ISZERO PUSH2 0x2F8 JUMPI POP POP PUSH1 0x1 SLOAD DUP3 PUSH12 0xFFFFFFFFFFFFFFFFFFFFFFFF PUSH1 0xA0 SHL DUP3 AND OR PUSH1 0x1 SSTORE AND PUSH32 0x8BE0079C531659141344CD1FD0A4F28419497F9722A3DAAFE3B4186F6B6457E0 DUP4 DUP1 LOG3 DUP1 RETURN JUMPDEST MLOAD PUSH4 0x1E4FBDF7 PUSH1 0xE0 SHL DUP2 MSTORE SWAP1 DUP2 ADD DUP5 SWAP1 MSTORE PUSH1 0x24 SWAP1 REVERT JUMPDEST POP POP CALLVALUE PUSH2 0x158 JUMPI PUSH1 0x20 CALLDATASIZE PUSH1 0x3 NOT ADD SLT PUSH2 0x158 JUMPI PUSH1 0x20 SWAP2 DUP2 SWAP1 PUSH1 0x1 PUSH1 0x1 PUSH1 0xA0 SHL SUB PUSH2 0x336 PUSH2 0xA08 JUMP JUMPDEST AND DUP2 MSTORE PUSH1 0x6 DUP5 MSTORE KECCAK256 SWAP1 PUSH1 0x2 DUP3 ADD SLOAD SWAP2 PUSH1 0x1 DUP2 ADD SLOAD DUP1 PUSH2 0x358 JUMPI JUMPDEST POP POP MLOAD SWAP1 DUP2 MSTORE RETURN JUMPDEST PUSH2 0x379 SWAP3 SWAP4 SWAP2 PUSH2 0x36B PUSH2 0x373 SWAP3 NUMBER PUSH2 0xD52 JUMP JUMPDEST SWAP1 SLOAD SWAP1 PUSH2 0xD5F JUMP JUMPDEST SWAP1 PUSH2 0xAEB JUMP JUMPDEST SWAP1 PUSH0 DUP1 PUSH2 0x350 JUMP JUMPDEST POP POP CALLVALUE PUSH2 0x158 JUMPI PUSH1 0x20 CALLDATASIZE PUSH1 0x3 NOT ADD SLT PUSH2 0x158 JUMPI PUSH1 0x20 SWAP1 PUSH2 0x3A7 PUSH2 0x3A2 PUSH2 0xA08 JUMP JUMPDEST PUSH2 0x10DB JUMP JUMPDEST SWAP1 MLOAD SWAP1 DUP2 MSTORE RETURN JUMPDEST POP POP CALLVALUE PUSH2 0x158 JUMPI DUP2 PUSH1 0x3 NOT CALLDATASIZE ADD SLT PUSH2 0x158 JUMPI PUSH1 0x20 SWAP1 PUSH2 0x3A7 PUSH2 0x12DA JUMP JUMPDEST DUP4 CALLVALUE PUSH2 0x3F3 JUMPI DUP1 PUSH1 0x3 NOT CALLDATASIZE ADD SLT PUSH2 0x3F3 JUMPI PUSH2 0x3E4 PUSH2 0xA97 JUMP JUMPDEST PUSH2 0x3EC PUSH2 0xE72 JUMP JUMPDEST PUSH1 0x1 DUP2 SSTORE DUP1 RETURN JUMPDEST DUP1 REVERT JUMPDEST SWAP2 SWAP1 POP CALLVALUE PUSH2 0x224 JUMPI PUSH1 0x20 CALLDATASIZE PUSH1 0x3 NOT ADD SLT PUSH2 0x224 JUMPI PUSH2 0x412 PUSH2 0xA08 JUMP JUMPDEST PUSH2 0x41A PUSH2 0xA6B JUMP JUMPDEST PUSH1 0x1 PUSH1 0x1 PUSH1 0xA0 SHL SUB AND SWAP2 DUP3 ISZERO PUSH2 0x46A JUMPI POP PUSH1 0x3 DUP1 SLOAD PUSH1 0x1 PUSH1 0x1 PUSH1 0xA0 SHL SUB NOT AND DUP4 OR SWAP1 SSTORE MLOAD SWAP1 DUP2 MSTORE PUSH32 0xC6B438E6A8A59579CE6A4406CBD203B740E0D47B458AAE6596339BCD40C40D15 SWAP1 PUSH1 0x20 SWAP1 LOG1 DUP1 RETURN JUMPDEST PUSH1 0x20 PUSH1 0x64 SWAP3 MLOAD SWAP2 PUSH3 0x461BCD PUSH1 0xE5 SHL DUP4 MSTORE DUP3 ADD MSTORE PUSH1 0xC PUSH1 0x24 DUP3 ADD MSTORE PUSH12 0x7A65726F2061646472657373 PUSH1 0xA0 SHL PUSH1 0x44 DUP3 ADD MSTORE REVERT JUMPDEST DUP4 SWAP1 CALLVALUE PUSH2 0x158 JUMPI PUSH1 0x20 CALLDATASIZE PUSH1 0x3 NOT ADD SLT PUSH2 0x158 JUMPI PUSH2 0x3EC SWAP1 PUSH2 0x4BA PUSH2 0xA97 JUMP JUMPDEST CALLDATALOAD CALLER CALLER PUSH2 0xB0C JUMP JUMPDEST POP POP CALLVALUE PUSH2 0x158 JUMPI DUP2 PUSH1 0x3 NOT CALLDATASIZE ADD SLT PUSH2 0x158 JUMPI PUSH1 0x20 SWAP1 PUSH1 0x5 SLOAD SWAP1 MLOAD SWAP1 DUP2 MSTORE RETURN JUMPDEST SWAP1 POP CALLVALUE PUSH2 0x224 JUMPI DUP3 PUSH1 0x3 NOT CALLDATASIZE ADD SLT PUSH2 0x224 JUMPI PUSH1 0x20 SWAP3 POP SLOAD SWAP1 MLOAD SWAP1 DUP2 MSTORE RETURN JUMPDEST POP POP CALLVALUE PUSH2 0x158 JUMPI PUSH1 0x20 CALLDATASIZE PUSH1 0x3 NOT ADD SLT PUSH2 0x158 JUMPI PUSH1 0x60 SWAP2 DUP2 SWAP1 PUSH1 0x1 PUSH1 0x1 PUSH1 0xA0 SHL SUB PUSH2 0x527 PUSH2 0xA08 JUMP JUMPDEST AND DUP2 MSTORE PUSH1 0x6 PUSH1 0x20 MSTORE KECCAK256 DUP1 SLOAD SWAP2 PUSH1 0x2 PUSH1 0x1 DUP4 ADD SLOAD SWAP3 ADD SLOAD SWAP2 DUP2 MLOAD SWAP4 DUP5 MSTORE PUSH1 0x20 DUP5 ADD MSTORE DUP3 ADD MSTORE RETURN JUMPDEST POP POP CALLVALUE PUSH2 0x158 JUMPI PUSH1 0x20 CALLDATASIZE PUSH1 0x3 NOT ADD SLT PUSH2 0x158 JUMPI PUSH1 0x20 SWAP2 PUSH1 0xFF SWAP1 DUP3 SWAP1 PUSH1 0x1 PUSH1 0x1 PUSH1 0xA0 SHL SUB PUSH2 0x578 PUSH2 0xA08 JUMP JUMPDEST AND DUP2 MSTORE PUSH1 0x2 DUP6 MSTORE KECCAK256 SLOAD AND SWAP1 MLOAD SWAP1 ISZERO ISZERO DUP2 MSTORE RETURN JUMPDEST POP POP CALLVALUE PUSH2 0x158 JUMPI DUP2 PUSH1 0x3 NOT CALLDATASIZE ADD SLT PUSH2 0x158 JUMPI PUSH1 0x1 SLOAD SWAP1 MLOAD PUSH1 0x1 PUSH1 0x1 PUSH1 0xA0 SHL SUB SWAP1 SWAP2 AND DUP2 MSTORE PUSH1 0x20 SWAP1 RETURN JUMPDEST POP POP CALLVALUE PUSH2 0x158 JUMPI DUP2 PUSH1 0x3 NOT CALLDATASIZE ADD SLT PUSH2 0x158 JUMPI PUSH1 0x20 SWAP1 MLOAD PUSH32 0x0 DUP2 MSTORE RETURN JUMPDEST SWAP2 SWAP1 POP CALLVALUE PUSH2 0x224 JUMPI DUP3 PUSH1 0x3 NOT CALLDATASIZE ADD SLT PUSH2 0x224 JUMPI PUSH2 0x60A PUSH2 0xA97 JUMP JUMPDEST CALLER DUP4 MSTORE PUSH1 0x6 PUSH1 0x20 MSTORE DUP1 DUP4 KECCAK256 DUP1 SLOAD SWAP3 DUP4 ISZERO PUSH2 0x687 JUMPI POP DUP4 SWAP1 PUSH2 0x62A CALLER PUSH2 0xD72 JUMP JUMPDEST SSTORE PUSH2 0x656 DUP3 CALLER PUSH32 0x0 PUSH2 0xDF4 JUMP JUMPDEST MLOAD SWAP1 DUP2 MSTORE PUSH32 0x7084F5476618D8E60B11EF0D7D3F06914655ADB8793E28FF7F018D4C76D505D5 PUSH1 0x20 CALLER SWAP3 LOG2 PUSH1 0x1 DUP2 SSTORE DUP1 RETURN JUMPDEST PUSH1 0x64 SWAP1 PUSH1 0x20 DUP5 MLOAD SWAP2 PUSH3 0x461BCD PUSH1 0xE5 SHL DUP4 MSTORE DUP3 ADD MSTORE PUSH1 0x13 PUSH1 0x24 DUP3 ADD MSTORE PUSH19 0x6E6F7468696E6720746F207769746864726177 PUSH1 0x68 SHL PUSH1 0x44 DUP3 ADD MSTORE REVERT JUMPDEST POP POP CALLVALUE PUSH2 0x158 JUMPI DUP2 PUSH1 0x3 NOT CALLDATASIZE ADD SLT PUSH2 0x158 JUMPI PUSH1 0x20 SWAP1 MLOAD PUSH2 0x2710 DUP2 MSTORE RETURN JUMPDEST DUP4 CALLVALUE PUSH2 0x3F3 JUMPI DUP1 PUSH1 0x3 NOT CALLDATASIZE ADD SLT PUSH2 0x3F3 JUMPI PUSH2 0x6F6 PUSH2 0xA6B JUMP JUMPDEST PUSH1 0x1 DUP1 SLOAD PUSH1 0x1 PUSH1 0x1 PUSH1 0xA0 SHL SUB NOT DUP2 AND SWAP1 SWAP2 SSTORE DUP2 SWAP1 PUSH1 0x1 PUSH1 0x1 PUSH1 0xA0 SHL SUB AND PUSH32 0x8BE0079C531659141344CD1FD0A4F28419497F9722A3DAAFE3B4186F6B6457E0 DUP3 DUP1 LOG3 DUP1 RETURN JUMPDEST POP POP CALLVALUE PUSH2 0x158 JUMPI DUP2 PUSH1 0x3 NOT CALLDATASIZE ADD SLT PUSH2 0x158 JUMPI MLOAD PUSH32 0x0 PUSH1 0x1 PUSH1 0x1 PUSH1 0xA0 SHL SUB AND DUP2 MSTORE PUSH1 0x20 SWAP1 RETURN JUMPDEST DUP4 SWAP2 POP CALLVALUE PUSH2 0x158 JUMPI DUP2 PUSH1 0x3 NOT CALLDATASIZE ADD SLT PUSH2 0x158 JUMPI PUSH2 0x799 PUSH2 0xA6B JUMP JUMPDEST DUP3 MLOAD PUSH4 0x70A08231 PUSH1 0xE0 SHL DUP2 MSTORE ADDRESS DUP3 DUP3 ADD MSTORE SWAP1 PUSH32 0x0 SWAP1 PUSH1 0x1 PUSH1 0x1 PUSH1 0xA0 SHL SUB SWAP1 PUSH1 0x20 DUP5 PUSH1 0x24 DUP2 DUP6 DUP8 AND GAS STATICCALL SWAP4 DUP5 ISZERO PUSH2 0x871 JUMPI DUP6 SWAP5 PUSH2 0x83A JUMPI JUMPDEST POP DUP4 ISZERO PUSH2 0x80A JUMPI POP PUSH2 0x807 SWAP4 SWAP5 POP PUSH1 0x1 SLOAD AND SWAP1 PUSH2 0xDF4 JUMP JUMPDEST DUP1 RETURN JUMPDEST PUSH1 0x64 SWAP1 PUSH1 0x20 DUP8 MLOAD SWAP2 PUSH3 0x461BCD PUSH1 0xE5 SHL DUP4 MSTORE DUP3 ADD MSTORE PUSH1 0xA PUSH1 0x24 DUP3 ADD MSTORE PUSH10 0x6E6F2072657761726473 PUSH1 0xB0 SHL PUSH1 0x44 DUP3 ADD MSTORE REVERT JUMPDEST SWAP1 SWAP4 POP PUSH1 0x20 DUP2 RETURNDATASIZE DUP3 GT PUSH2 0x869 JUMPI JUMPDEST DUP2 PUSH2 0x855 PUSH1 0x20 SWAP4 DUP4 PUSH2 0xCCB JUMP JUMPDEST DUP2 ADD SUB SLT PUSH2 0x865 JUMPI MLOAD SWAP3 DUP7 PUSH2 0x7EF JUMP JUMPDEST DUP5 DUP1 REVERT JUMPDEST RETURNDATASIZE SWAP2 POP PUSH2 0x848 JUMP JUMPDEST DUP7 MLOAD RETURNDATASIZE DUP8 DUP3 RETURNDATACOPY RETURNDATASIZE SWAP1 REVERT JUMPDEST POP POP CALLVALUE PUSH2 0x158 JUMPI DUP2 PUSH1 0x3 NOT CALLDATASIZE ADD SLT PUSH2 0x158 JUMPI PUSH1 0x20 SWAP1 PUSH1 0x7 SLOAD SWAP1 MLOAD SWAP1 DUP2 MSTORE RETURN JUMPDEST SWAP1 POP CALLVALUE PUSH2 0x224 JUMPI PUSH1 0x20 CALLDATASIZE PUSH1 0x3 NOT ADD SLT PUSH2 0x224 JUMPI CALLDATALOAD SWAP2 PUSH1 0x7 SLOAD DUP4 LT ISZERO PUSH2 0x3F3 JUMPI POP PUSH2 0x8C5 PUSH1 0x20 SWAP3 PUSH2 0xA22 JUMP JUMPDEST SWAP1 SLOAD SWAP2 MLOAD SWAP2 PUSH1 0x1 DUP1 PUSH1 0xA0 SHL SUB SWAP2 PUSH1 0x3 SHL SHR AND DUP2 MSTORE RETURN JUMPDEST SWAP1 POP CALLVALUE PUSH2 0x224 JUMPI DUP2 PUSH1 0x3 NOT CALLDATASIZE ADD SLT PUSH2 0x224 JUMPI PUSH2 0x8F5 PUSH2 0xA08 JUMP JUMPDEST SWAP2 PUSH2 0x8FE PUSH2 0xA97 JUMP JUMPDEST PUSH1 0x3 SLOAD PUSH1 0x1 PUSH1 0x1 PUSH1 0xA0 SHL SUB AND CALLER SUB PUSH2 0x91E JUMPI DUP4 PUSH2 0x3EC PUSH1 0x24 CALLDATALOAD DUP6 CALLER PUSH2 0xB0C JUMP JUMPDEST SWAP1 PUSH1 0x20 PUSH1 0x64 SWAP3 MLOAD SWAP2 PUSH3 0x461BCD PUSH1 0xE5 SHL DUP4 MSTORE DUP3 ADD MSTORE PUSH1 0xA PUSH1 0x24 DUP3 ADD MSTORE PUSH10 0x3737BA103937BABA32B9 PUSH1 0xB1 SHL PUSH1 0x44 DUP3 ADD MSTORE REVERT JUMPDEST SWAP2 SWAP1 POP CALLVALUE PUSH2 0x224 JUMPI PUSH1 0x20 CALLDATASIZE PUSH1 0x3 NOT ADD SLT PUSH2 0x224 JUMPI DUP2 CALLDATALOAD SWAP2 PUSH2 0x96D PUSH2 0xA97 JUMP JUMPDEST CALLER DUP5 MSTORE PUSH1 0x6 PUSH1 0x20 MSTORE DUP2 DUP5 KECCAK256 SWAP1 DUP4 ISZERO ISZERO DUP1 PUSH2 0x9FD JUMPI JUMPDEST ISZERO PUSH2 0x9C9 JUMPI POP PUSH2 0x991 CALLER PUSH2 0xD72 JUMP JUMPDEST PUSH2 0x99C DUP4 DUP3 SLOAD PUSH2 0xD52 JUMP JUMPDEST SWAP1 SSTORE PUSH2 0x656 DUP3 CALLER PUSH32 0x0 PUSH2 0xDF4 JUMP JUMPDEST PUSH1 0x64 SWAP1 PUSH1 0x20 DUP5 MLOAD SWAP2 PUSH3 0x461BCD PUSH1 0xE5 SHL DUP4 MSTORE DUP3 ADD MSTORE PUSH1 0xE PUSH1 0x24 DUP3 ADD MSTORE PUSH14 0x1A5B9D985B1A5908185B5BDD5B9D PUSH1 0x92 SHL PUSH1 0x44 DUP3 ADD MSTORE REVERT JUMPDEST POP DUP2 SLOAD DUP5 GT ISZERO PUSH2 0x982 JUMP JUMPDEST PUSH1 0x4 CALLDATALOAD SWAP1 PUSH1 0x1 PUSH1 0x1 PUSH1 0xA0 SHL SUB DUP3 AND DUP3 SUB PUSH2 0xA1E JUMPI JUMP JUMPDEST PUSH0 DUP1 REVERT JUMPDEST PUSH1 0x7 SLOAD DUP2 LT ISZERO PUSH2 0xA57 JUMPI PUSH1 0x7 PUSH0 MSTORE PUSH32 0xA66CC928B5EDB82AF9BD49922954155AB7B0942694BEA4CE44661D9A8736C688 ADD SWAP1 PUSH0 SWAP1 JUMP JUMPDEST PUSH4 0x4E487B71 PUSH1 0xE0 SHL PUSH0 MSTORE PUSH1 0x32 PUSH1 0x4 MSTORE PUSH1 0x24 PUSH0 REVERT JUMPDEST PUSH1 0x1 SLOAD PUSH1 0x1 PUSH1 0x1 PUSH1 0xA0 SHL SUB AND CALLER SUB PUSH2 0xA7F JUMPI JUMP JUMPDEST PUSH1 0x40 MLOAD PUSH4 0x118CDAA7 PUSH1 0xE0 SHL DUP2 MSTORE CALLER PUSH1 0x4 DUP3 ADD MSTORE PUSH1 0x24 SWAP1 REVERT JUMPDEST PUSH1 0x2 PUSH0 SLOAD EQ PUSH2 0xAA6 JUMPI PUSH1 0x2 PUSH0 SSTORE JUMP JUMPDEST PUSH1 0x40 MLOAD PUSH3 0x461BCD PUSH1 0xE5 SHL DUP2 MSTORE PUSH1 0x20 PUSH1 0x4 DUP3 ADD MSTORE PUSH1 0x1F PUSH1 0x24 DUP3 ADD MSTORE PUSH32 0x5265656E7472616E637947756172643A207265656E7472616E742063616C6C00 PUSH1 0x44 DUP3 ADD MSTORE PUSH1 0x64 SWAP1 REVERT JUMPDEST SWAP2 SWAP1 DUP3 ADD DUP1 SWAP3 GT PUSH2 0xAF8 JUMPI JUMP JUMPDEST PUSH4 0x4E487B71 PUSH1 0xE0 SHL PUSH0 MSTORE PUSH1 0x11 PUSH1 0x4 MSTORE PUSH1 0x24 PUSH0 REVERT JUMPDEST SWAP2 SWAP1 PUSH6 0x1319718A5000 DUP3 LT PUSH2 0xC98 JUMPI PUSH2 0xB24 DUP2 PUSH2 0xD72 JUMP JUMPDEST PUSH1 0x40 MLOAD PUSH4 0x23B872DD PUSH1 0xE0 SHL PUSH1 0x20 DUP3 ADD MSTORE PUSH1 0x1 PUSH1 0x1 PUSH1 0xA0 SHL SUB SWAP4 DUP5 AND PUSH1 0x24 DUP3 ADD MSTORE ADDRESS PUSH1 0x44 DUP3 ADD MSTORE PUSH1 0x64 DUP1 DUP3 ADD DUP5 SWAP1 MSTORE DUP2 MSTORE SWAP1 PUSH1 0xA0 DUP3 ADD PUSH8 0xFFFFFFFFFFFFFFFF DUP2 GT DUP4 DUP3 LT OR PUSH2 0xC84 JUMPI DUP5 SWAP3 PUSH2 0xB9B SWAP2 PUSH1 0x40 MSTORE PUSH32 0x0 PUSH2 0xCED JUMP JUMPDEST AND SWAP2 PUSH0 SWAP1 DUP4 DUP3 MSTORE PUSH1 0x2 PUSH1 0x20 MSTORE PUSH1 0x40 DUP3 KECCAK256 DUP1 SLOAD PUSH1 0xFF DUP2 AND ISZERO PUSH2 0xBFF JUMPI JUMPDEST POP POP POP PUSH32 0x2DA466A7B24304F47E87FA2E1E5A81B9831CE54FEC19055CE277CA2F39BA42C4 SWAP2 PUSH1 0x40 DUP3 DUP6 PUSH1 0x20 SWAP5 MSTORE PUSH1 0x6 DUP5 MSTORE KECCAK256 PUSH2 0xBF4 DUP3 DUP3 SLOAD PUSH2 0xAEB JUMP JUMPDEST SWAP1 SSTORE PUSH1 0x40 MLOAD SWAP1 DUP2 MSTORE LOG2 JUMP JUMPDEST PUSH1 0xFF NOT AND PUSH1 0x1 OR SWAP1 SSTORE PUSH1 0x7 SLOAD PUSH9 0x10000000000000000 DUP2 LT ISZERO PUSH2 0xC70 JUMPI PUSH1 0x20 SWAP3 PUSH32 0x2DA466A7B24304F47E87FA2E1E5A81B9831CE54FEC19055CE277CA2F39BA42C4 SWAP5 SWAP3 PUSH2 0xC54 DUP4 PUSH1 0x1 PUSH1 0x40 SWAP6 ADD PUSH1 0x7 SSTORE PUSH2 0xA22 JUMP JUMPDEST DUP2 SWAP3 SWAP2 SLOAD SWAP1 PUSH1 0x3 SHL SWAP2 DUP10 DUP4 SHL SWAP3 SHL NOT AND OR SWAP1 SSTORE SWAP3 DUP3 SWAP5 POP PUSH2 0xBB7 JUMP JUMPDEST PUSH4 0x4E487B71 PUSH1 0xE0 SHL DUP4 MSTORE PUSH1 0x41 PUSH1 0x4 MSTORE PUSH1 0x24 DUP4 REVERT JUMPDEST PUSH4 0x4E487B71 PUSH1 0xE0 SHL PUSH0 MSTORE PUSH1 0x41 PUSH1 0x4 MSTORE PUSH1 0x24 PUSH0 REVERT JUMPDEST PUSH1 0x40 MLOAD PUSH3 0x461BCD PUSH1 0xE5 SHL DUP2 MSTORE PUSH1 0x20 PUSH1 0x4 DUP3 ADD MSTORE PUSH1 0xB PUSH1 0x24 DUP3 ADD MSTORE PUSH11 0x1B1BDDC819195C1BDCDA5D PUSH1 0xAA SHL PUSH1 0x44 DUP3 ADD MSTORE PUSH1 0x64 SWAP1 REVERT JUMPDEST SWAP1 PUSH1 0x1F DUP1 NOT SWAP2 ADD AND DUP2 ADD SWAP1 DUP2 LT PUSH8 0xFFFFFFFFFFFFFFFF DUP3 GT OR PUSH2 0xC84 JUMPI PUSH1 0x40 MSTORE JUMP JUMPDEST SWAP1 PUSH0 PUSH1 0x20 SWAP2 DUP3 DUP2 MLOAD SWAP2 ADD DUP3 DUP6 GAS CALL ISZERO PUSH2 0xD47 JUMPI PUSH0 MLOAD RETURNDATASIZE PUSH2 0xD3E JUMPI POP PUSH1 0x1 PUSH1 0x1 PUSH1 0xA0 SHL SUB DUP2 AND EXTCODESIZE ISZERO JUMPDEST PUSH2 0xD1C JUMPI POP JUMP JUMPDEST PUSH1 0x40 MLOAD PUSH4 0x5274AFE7 PUSH1 0xE0 SHL DUP2 MSTORE PUSH1 0x1 PUSH1 0x1 PUSH1 0xA0 SHL SUB SWAP1 SWAP2 AND PUSH1 0x4 DUP3 ADD MSTORE PUSH1 0x24 SWAP1 REVERT JUMPDEST PUSH1 0x1 EQ ISZERO PUSH2 0xD15 JUMP JUMPDEST PUSH1 0x40 MLOAD RETURNDATASIZE PUSH0 DUP3 RETURNDATACOPY RETURNDATASIZE SWAP1 REVERT JUMPDEST SWAP2 SWAP1 DUP3 SUB SWAP2 DUP3 GT PUSH2 0xAF8 JUMPI JUMP JUMPDEST DUP2 DUP2 MUL SWAP3 SWAP2 DUP2 ISZERO SWAP2 DUP5 DIV EQ OR ISZERO PUSH2 0xAF8 JUMPI JUMP JUMPDEST PUSH1 0x1 DUP1 PUSH1 0xA0 SHL SUB AND PUSH0 MSTORE PUSH1 0x6 PUSH1 0x20 MSTORE PUSH1 0x40 PUSH0 KECCAK256 PUSH1 0x1 DUP2 ADD SWAP1 DUP2 SLOAD ISZERO PUSH2 0xDEE JUMPI PUSH2 0xD9C DUP3 SLOAD NUMBER PUSH2 0xD52 JUMP JUMPDEST SWAP1 DUP2 ISZERO ISZERO DUP1 PUSH2 0xDE4 JUMPI JUMPDEST PUSH2 0xDB2 JUMPI JUMPDEST POP POP NUMBER SWAP1 SSTORE JUMP JUMPDEST PUSH1 0x2 PUSH2 0xDC3 PUSH2 0xDDA SWAP4 DUP4 SLOAD SWAP1 PUSH2 0xD5F JUMP JUMPDEST SWAP2 ADD PUSH2 0xDD0 DUP3 DUP3 SLOAD PUSH2 0xAEB JUMP JUMPDEST SWAP1 SSTORE PUSH1 0x5 SLOAD PUSH2 0xAEB JUMP JUMPDEST PUSH1 0x5 SSTORE PUSH0 DUP1 PUSH2 0xDAB JUMP JUMPDEST POP DUP1 SLOAD ISZERO ISZERO PUSH2 0xDA6 JUMP JUMPDEST POP NUMBER SWAP1 SSTORE JUMP JUMPDEST PUSH1 0x40 MLOAD PUSH4 0xA9059CBB PUSH1 0xE0 SHL PUSH1 0x20 DUP3 ADD MSTORE PUSH1 0x1 PUSH1 0x1 PUSH1 0xA0 SHL SUB SWAP1 SWAP3 AND PUSH1 0x24 DUP4 ADD MSTORE PUSH1 0x44 DUP1 DUP4 ADD SWAP4 SWAP1 SWAP4 MSTORE SWAP2 DUP2 MSTORE PUSH1 0x80 DUP2 ADD SWAP2 PUSH8 0xFFFFFFFFFFFFFFFF DUP4 GT DUP3 DUP5 LT OR PUSH2 0xC84 JUMPI PUSH2 0xE44 SWAP3 PUSH1 0x40 MSTORE PUSH2 0xCED JUMP JUMPDEST JUMP JUMPDEST PUSH0 NOT DUP2 EQ PUSH2 0xAF8 JUMPI PUSH1 0x1 ADD SWAP1 JUMP JUMPDEST DUP2 ISZERO PUSH2 0xE5E JUMPI DIV SWAP1 JUMP JUMPDEST PUSH4 0x4E487B71 PUSH1 0xE0 SHL PUSH0 MSTORE PUSH1 0x12 PUSH1 0x4 MSTORE PUSH1 0x24 PUSH0 REVERT JUMPDEST PUSH1 0x40 DUP1 MLOAD PUSH4 0x70A08231 PUSH1 0xE0 SHL DUP2 MSTORE ADDRESS PUSH1 0x4 DUP3 ADD MSTORE PUSH1 0x1 PUSH1 0x1 PUSH1 0xA0 SHL SUB SWAP3 PUSH32 0x0 SWAP3 SWAP2 PUSH1 0x20 SWAP2 SWAP1 DUP3 DUP2 PUSH1 0x24 DUP2 DUP10 DUP10 AND GAS STATICCALL SWAP1 DUP2 ISZERO PUSH2 0x10D1 JUMPI PUSH0 SWAP2 PUSH2 0x10A4 JUMPI JUMPDEST POP PUSH2 0xEDB PUSH1 0x4 SLOAD NUMBER PUSH2 0xD52 JUMP JUMPDEST DUP1 ISZERO PUSH2 0x109B JUMPI PUSH32 0x0 SWAP1 DUP3 PUSH2 0xF0E DUP4 DUP4 PUSH2 0xD5F JUMP JUMPDEST GT ISZERO PUSH2 0x108B JUMPI POP POP SWAP1 JUMPDEST PUSH0 JUMPDEST PUSH1 0x7 SLOAD DUP2 LT ISZERO PUSH2 0xF98 JUMPI DUP1 DUP8 PUSH2 0xF32 PUSH2 0xF8C SWAP4 PUSH2 0xA22 JUMP JUMPDEST SWAP1 SLOAD SWAP1 PUSH1 0x3 SHL SHR AND PUSH0 MSTORE PUSH1 0x6 DUP6 MSTORE DUP6 PUSH0 KECCAK256 DUP1 SLOAD SWAP1 DUP2 ISZERO PUSH2 0xF91 JUMPI PUSH1 0x2 PUSH2 0xF66 PUSH1 0x1 DUP4 ADD SWAP4 PUSH2 0xF61 DUP6 SLOAD NUMBER PUSH2 0xD52 JUMP JUMPDEST PUSH2 0xD5F JUMP JUMPDEST SWAP2 ADD PUSH2 0xF73 DUP3 DUP3 SLOAD PUSH2 0xAEB JUMP JUMPDEST SWAP1 SSTORE PUSH2 0xF82 PUSH1 0x5 SWAP2 DUP3 SLOAD PUSH2 0xAEB JUMP JUMPDEST SWAP1 SSTORE NUMBER SWAP1 SSTORE PUSH2 0xE46 JUMP JUMPDEST PUSH2 0xF1A JUMP JUMPDEST POP POP PUSH2 0xE46 JUMP JUMPDEST POP SWAP3 SWAP4 SWAP1 SWAP4 PUSH1 0x32 DUP6 MUL DUP6 DUP2 DIV PUSH1 0x32 EQ DUP7 ISZERO OR ISZERO PUSH2 0xAF8 JUMPI PUSH2 0x2710 PUSH2 0xFC3 SWAP2 DIV DUP1 SWAP7 DUP2 PUSH2 0x107B JUMPI PUSH2 0xD52 JUMP JUMPDEST SWAP4 PUSH0 JUMPDEST PUSH1 0x7 SLOAD DUP2 LT ISZERO PUSH2 0x103F JUMPI DUP1 DUP9 PUSH2 0xFDE PUSH2 0x1021 SWAP4 PUSH2 0xA22 JUMP JUMPDEST SWAP1 SLOAD SWAP1 PUSH1 0x3 SHL SHR AND DUP1 PUSH0 MSTORE PUSH1 0x6 DUP8 MSTORE PUSH1 0x2 DUP6 PUSH0 KECCAK256 ADD DUP1 SLOAD SWAP2 DUP3 ISZERO PUSH2 0x1037 JUMPI PUSH2 0x1013 PUSH2 0x100A PUSH0 SWAP5 DUP13 PUSH2 0xD5F JUMP JUMPDEST PUSH1 0x5 SLOAD SWAP1 PUSH2 0xE54 JUMP JUMPDEST DUP1 PUSH2 0x1026 JUMPI JUMPDEST POP POP SSTORE PUSH2 0xE46 JUMP JUMPDEST PUSH2 0xFC6 JUMP JUMPDEST PUSH2 0x1030 SWAP2 DUP10 PUSH2 0xDF4 JUMP JUMPDEST PUSH0 DUP1 PUSH2 0x1019 JUMP JUMPDEST POP POP POP PUSH2 0xE46 JUMP JUMPDEST POP SWAP6 POP SWAP3 SWAP2 PUSH32 0x3C3D358C457D91D874593441791F0B96C90172A78030CE0CE7E8E8C965FE1469 SWAP5 SWAP2 POP PUSH0 PUSH1 0x5 SSTORE NUMBER PUSH1 0x4 SSTORE DUP4 MLOAD SWAP3 DUP4 MSTORE DUP3 ADD MSTORE LOG1 JUMP JUMPDEST PUSH2 0x1086 DUP3 CALLER DUP8 PUSH2 0xDF4 JUMP JUMPDEST PUSH2 0xD52 JUMP JUMPDEST PUSH2 0x1095 SWAP3 POP PUSH2 0xD5F JUMP JUMPDEST SWAP1 PUSH2 0xF18 JUMP JUMPDEST POP POP SWAP4 POP POP POP POP JUMP JUMPDEST SWAP1 DUP4 DUP3 DUP2 RETURNDATASIZE DUP4 GT PUSH2 0x10CA JUMPI JUMPDEST PUSH2 0x10BA DUP2 DUP4 PUSH2 0xCCB JUMP JUMPDEST DUP2 ADD SUB SLT PUSH2 0x3F3 JUMPI POP MLOAD PUSH0 PUSH2 0xECE JUMP JUMPDEST POP RETURNDATASIZE PUSH2 0x10B0 JUMP JUMPDEST DUP5 MLOAD RETURNDATASIZE PUSH0 DUP3 RETURNDATACOPY RETURNDATASIZE SWAP1 REVERT JUMPDEST PUSH2 0x10E7 PUSH1 0x4 SLOAD NUMBER PUSH2 0xD52 JUMP JUMPDEST DUP1 ISZERO PUSH2 0x12D4 JUMPI PUSH1 0x40 DUP1 MLOAD PUSH4 0x70A08231 PUSH1 0xE0 SHL DUP2 MSTORE ADDRESS PUSH1 0x4 DUP3 ADD MSTORE PUSH1 0x1 PUSH1 0x1 PUSH1 0xA0 SHL SUB SWAP3 PUSH1 0x20 SWAP3 SWAP2 SWAP1 DUP4 DUP3 PUSH1 0x24 DUP2 PUSH32 0x0 DUP10 AND GAS STATICCALL SWAP2 DUP3 ISZERO PUSH2 0x12CA JUMPI PUSH0 SWAP3 PUSH2 0x1299 JUMPI JUMPDEST POP PUSH2 0x1173 SWAP1 PUSH32 0x0 SWAP1 PUSH2 0xD5F JUMP JUMPDEST DUP2 DUP2 GT ISZERO PUSH2 0x1292 JUMPI POP JUMPDEST DUP1 ISZERO PUSH2 0x1289 JUMPI PUSH1 0x32 DUP2 MUL SWAP1 DUP1 DUP3 DIV PUSH1 0x32 SUB PUSH2 0xAF8 JUMPI PUSH2 0x2710 PUSH2 0x11A0 SWAP3 DIV SWAP1 PUSH2 0xD52 JUMP JUMPDEST SWAP2 PUSH1 0x5 SLOAD SWAP4 PUSH0 SWAP6 DUP7 SWAP4 PUSH1 0x7 SLOAD SWAP5 JUMPDEST DUP6 DUP2 LT PUSH2 0x11EC JUMPI POP POP POP POP POP POP DUP3 ISZERO DUP1 ISZERO PUSH2 0x11E4 JUMPI JUMPDEST PUSH2 0x11DD JUMPI PUSH2 0x11DA SWAP3 PUSH2 0x11D5 SWAP2 PUSH2 0xD5F JUMP JUMPDEST PUSH2 0xE54 JUMP JUMPDEST SWAP1 JUMP JUMPDEST POP POP POP PUSH0 SWAP1 JUMP JUMPDEST POP DUP2 ISZERO PUSH2 0x11C4 JUMP JUMPDEST DUP4 PUSH2 0x11F6 DUP3 PUSH2 0xA22 JUMP JUMPDEST SWAP1 SLOAD SWAP1 PUSH1 0x3 SHL SHR AND SWAP8 DUP9 PUSH0 MSTORE PUSH1 0x6 DUP7 MSTORE DUP3 PUSH0 KECCAK256 DUP1 SLOAD SWAP1 DUP2 ISZERO PUSH2 0x127C JUMPI SWAP1 PUSH2 0x123A SWAP2 PUSH0 SWAP2 PUSH1 0x1 DUP3 ADD SLOAD DUP1 PUSH2 0x125D JUMPI JUMPDEST POP POP DUP2 PUSH1 0x2 PUSH2 0x1234 SWAP3 ADD SLOAD PUSH2 0xAEB JUMP JUMPDEST SWAP3 PUSH2 0xAEB JUMP JUMPDEST SWAP9 DUP6 DUP6 AND EQ PUSH2 0x1253 JUMPI JUMPDEST POP PUSH2 0x124E SWAP1 PUSH2 0xE46 JUMP JUMPDEST PUSH2 0x11AE JUMP JUMPDEST SWAP9 POP PUSH2 0x124E PUSH2 0x1244 JUMP JUMPDEST PUSH1 0x2 SWAP4 POP PUSH2 0x1234 SWAP3 SWAP2 PUSH2 0xF61 PUSH2 0x1273 SWAP3 NUMBER PUSH2 0xD52 JUMP JUMPDEST SWAP3 DUP2 SWAP3 POP PUSH2 0x1224 JUMP JUMPDEST POP POP SWAP8 POP PUSH2 0x124E SWAP1 PUSH2 0xE46 JUMP JUMPDEST POP POP POP POP POP PUSH0 SWAP1 JUMP JUMPDEST SWAP1 POP PUSH2 0x117D JUMP JUMPDEST SWAP1 SWAP2 DUP5 DUP3 DUP2 RETURNDATASIZE DUP4 GT PUSH2 0x12C3 JUMPI JUMPDEST PUSH2 0x12B0 DUP2 DUP4 PUSH2 0xCCB JUMP JUMPDEST DUP2 ADD SUB SLT PUSH2 0x3F3 JUMPI POP MLOAD SWAP1 PUSH2 0x1173 PUSH2 0x1147 JUMP JUMPDEST POP RETURNDATASIZE PUSH2 0x12A6 JUMP JUMPDEST DUP4 MLOAD RETURNDATASIZE PUSH0 DUP3 RETURNDATACOPY RETURNDATASIZE SWAP1 REVERT JUMPDEST POP POP PUSH0 SWAP1 JUMP JUMPDEST PUSH2 0x12E6 PUSH1 0x4 SLOAD NUMBER PUSH2 0xD52 JUMP JUMPDEST PUSH1 0x40 MLOAD PUSH4 0x70A08231 PUSH1 0xE0 SHL DUP2 MSTORE ADDRESS PUSH1 0x4 DUP3 ADD MSTORE PUSH1 0x20 DUP2 PUSH1 0x24 DUP2 PUSH32 0x0 PUSH1 0x1 PUSH1 0x1 PUSH1 0xA0 SHL SUB AND GAS STATICCALL SWAP1 DUP2 ISZERO PUSH2 0xD47 JUMPI PUSH0 SWAP2 PUSH2 0x1384 JUMPI JUMPDEST POP PUSH2 0x1364 PUSH32 0x0 DUP4 PUSH2 0xD5F JUMP JUMPDEST DUP2 DUP2 GT ISZERO PUSH2 0x137C JUMPI POP SWAP1 JUMPDEST ISZERO PUSH2 0x1377 JUMPI SWAP1 JUMP JUMPDEST POP PUSH0 SWAP1 JUMP JUMPDEST SWAP1 POP SWAP1 PUSH2 0x136F JUMP JUMPDEST SWAP1 PUSH1 0x20 DUP3 RETURNDATASIZE DUP3 GT PUSH2 0x13AD JUMPI JUMPDEST DUP2 PUSH2 0x139D PUSH1 0x20 SWAP4 DUP4 PUSH2 0xCCB JUMP JUMPDEST DUP2 ADD SUB SLT PUSH2 0x3F3 JUMPI POP MLOAD PUSH0 PUSH2 0x1339 JUMP JUMPDEST RETURNDATASIZE SWAP2 POP PUSH2 0x1390 JUMP INVALID LOG2 PUSH5 0x6970667358 0x22 SLT KECCAK256 PUSH14 0x1923D846320D6C628D006E284F6F CALLCODE 0xE8 RETURNDATASIZE SDIV 0xB1 SWAP8 ISZERO GT EXTCODESIZE 0xFC JUMP DUP13 PUSH7 0x8607BAF64736F PUSH13 0x63430008140033000000000000 "
		},
		"gasEstimates": {
			"creation": {
				"codeDepositCost": "1019800",
				"executionCost": "infinite",
				"totalCost": "infinite"
			},
			"external": {
				"BP_DENOM()": "322",
				"CALLER_FEE_BP()": "713",
				"claimAll()": "infinite",
				"claimableReward(address)": "infinite",
				"deposit(uint256)": "infinite",
				"depositFor(address,uint256)": "infinite",
				"getUserXP(address)": "7346",
				"isParticipant(address)": "2682",
				"lastRewardBlock()": "2560",
				"lpToken()": "infinite",
				"owner()": "2515",
				"participantCount()": "2340",
				"participants(uint256)": "6653",
				"remainingRewardPool()": "infinite",
				"renounceOwnership()": "28210",
				"rewardPerBlock()": "infinite",
				"rewardToken()": "infinite",
				"router()": "2823",
				"setRouter(address)": "28053",
				"totalLPLocked()": "infinite",
				"totalXP()": "2582",
				"transferOwnership(address)": "28638",
				"users(address)": "6943",
				"withdraw(uint256)": "infinite",
				"withdrawAll()": "infinite",
				"withdrawAllRewards()": "infinite"
			},
			"internal": {
				"_depositFor(address,address,uint256)": "infinite",
				"_updateUserXP(address)": "infinite"
			}
		},
		"methodIdentifiers": {
			"BP_DENOM()": "71bf8623",
			"CALLER_FEE_BP()": "fc7039e0",
			"claimAll()": "d1058e59",
			"claimableReward(address)": "e9503425",
			"deposit(uint256)": "b6b55f25",
			"depositFor(address,uint256)": "2f4f21e2",
			"getUserXP(address)": "e9e7eb35",
			"isParticipant(address)": "929066f5",
			"lastRewardBlock()": "a9f8d181",
			"lpToken()": "5fcbd285",
			"owner()": "8da5cb5b",
			"participantCount()": "362f04c0",
			"participants(uint256)": "35c1d349",
			"remainingRewardPool()": "e7a0fb9b",
			"renounceOwnership()": "715018a6",
			"rewardPerBlock()": "8ae39cac",
			"rewardToken()": "f7c618c1",
			"router()": "f887ea40",
			"setRouter(address)": "c0d78655",
			"totalLPLocked()": "f7e4cd0d",
			"totalXP()": "aa93bfa8",
			"transferOwnership(address)": "f2fde38b",
			"users(address)": "a87430ba",
			"withdraw(uint256)": "2e1a7d4d",
			"withdrawAll()": "853828b6",
			"withdrawAllRewards()": "45114ee5"
		}
	},
	"abi": [
		{
			"inputs": [
				{
					"internalType": "address",
					"name": "_lpToken",
					"type": "address"
				},
				{
					"internalType": "address",
					"name": "_rewardToken",
					"type": "address"
				}
			],
			"stateMutability": "nonpayable",
			"type": "constructor"
		},
		{
			"inputs": [
				{
					"internalType": "address",
					"name": "owner",
					"type": "address"
				}
			],
			"name": "OwnableInvalidOwner",
			"type": "error"
		},
		{
			"inputs": [
				{
					"internalType": "address",
					"name": "account",
					"type": "address"
				}
			],
			"name": "OwnableUnauthorizedAccount",
			"type": "error"
		},
		{
			"inputs": [
				{
					"internalType": "address",
					"name": "token",
					"type": "address"
				}
			],
			"name": "SafeERC20FailedOperation",
			"type": "error"
		},
		{
			"anonymous": false,
			"inputs": [
				{
					"indexed": false,
					"internalType": "uint256",
					"name": "totalDistributed",
					"type": "uint256"
				},
				{
					"indexed": false,
					"internalType": "uint256",
					"name": "callerReward",
					"type": "uint256"
				}
			],
			"name": "ClaimAll",
			"type": "event"
		},
		{
			"anonymous": false,
			"inputs": [
				{
					"indexed": true,
					"internalType": "address",
					"name": "user",
					"type": "address"
				},
				{
					"indexed": false,
					"internalType": "uint256",
					"name": "amount",
					"type": "uint256"
				}
			],
			"name": "Deposited",
			"type": "event"
		},
		{
			"anonymous": false,
			"inputs": [
				{
					"indexed": true,
					"internalType": "address",
					"name": "previousOwner",
					"type": "address"
				},
				{
					"indexed": true,
					"internalType": "address",
					"name": "newOwner",
					"type": "address"
				}
			],
			"name": "OwnershipTransferred",
			"type": "event"
		},
		{
			"anonymous": false,
			"inputs": [
				{
					"indexed": false,
					"internalType": "address",
					"name": "router",
					"type": "address"
				}
			],
			"name": "RouterSet",
			"type": "event"
		},
		{
			"anonymous": false,
			"inputs": [
				{
					"indexed": true,
					"internalType": "address",
					"name": "user",
					"type": "address"
				},
				{
					"indexed": false,
					"internalType": "uint256",
					"name": "amount",
					"type": "uint256"
				}
			],
			"name": "Withdrawn",
			"type": "event"
		},
		{
			"inputs": [],
			"name": "BP_DENOM",
			"outputs": [
				{
					"internalType": "uint256",
					"name": "",
					"type": "uint256"
				}
			],
			"stateMutability": "view",
			"type": "function"
		},
		{
			"inputs": [],
			"name": "CALLER_FEE_BP",
			"outputs": [
				{
					"internalType": "uint256",
					"name": "",
					"type": "uint256"
				}
			],
			"stateMutability": "view",
			"type": "function"
		},
		{
			"inputs": [],
			"name": "claimAll",
			"outputs": [],
			"stateMutability": "nonpayable",
			"type": "function"
		},
		{
			"inputs": [
				{
					"internalType": "address",
					"name": "userAddr",
					"type": "address"
				}
			],
			"name": "claimableReward",
			"outputs": [
				{
					"internalType": "uint256",
					"name": "",
					"type": "uint256"
				}
			],
			"stateMutability": "view",
			"type": "function"
		},
		{
			"inputs": [
				{
					"internalType": "uint256",
					"name": "amount",
					"type": "uint256"
				}
			],
			"name": "deposit",
			"outputs": [],
			"stateMutability": "nonpayable",
			"type": "function"
		},
		{
			"inputs": [
				{
					"internalType": "address",
					"name": "user",
					"type": "address"
				},
				{
					"internalType": "uint256",
					"name": "amount",
					"type": "uint256"
				}
			],
			"name": "depositFor",
			"outputs": [],
			"stateMutability": "nonpayable",
			"type": "function"
		},
		{
			"inputs": [
				{
					"internalType": "address",
					"name": "userAddr",
					"type": "address"
				}
			],
			"name": "getUserXP",
			"outputs": [
				{
					"internalType": "uint256",
					"name": "",
					"type": "uint256"
				}
			],
			"stateMutability": "view",
			"type": "function"
		},
		{
			"inputs": [
				{
					"internalType": "address",
					"name": "",
					"type": "address"
				}
			],
			"name": "isParticipant",
			"outputs": [
				{
					"internalType": "bool",
					"name": "",
					"type": "bool"
				}
			],
			"stateMutability": "view",
			"type": "function"
		},
		{
			"inputs": [],
			"name": "lastRewardBlock",
			"outputs": [
				{
					"internalType": "uint256",
					"name": "",
					"type": "uint256"
				}
			],
			"stateMutability": "view",
			"type": "function"
		},
		{
			"inputs": [],
			"name": "lpToken",
			"outputs": [
				{
					"internalType": "contract IERC20",
					"name": "",
					"type": "address"
				}
			],
			"stateMutability": "view",
			"type": "function"
		},
		{
			"inputs": [],
			"name": "owner",
			"outputs": [
				{
					"internalType": "address",
					"name": "",
					"type": "address"
				}
			],
			"stateMutability": "view",
			"type": "function"
		},
		{
			"inputs": [],
			"name": "participantCount",
			"outputs": [
				{
					"internalType": "uint256",
					"name": "",
					"type": "uint256"
				}
			],
			"stateMutability": "view",
			"type": "function"
		},
		{
			"inputs": [
				{
					"internalType": "uint256",
					"name": "",
					"type": "uint256"
				}
			],
			"name": "participants",
			"outputs": [
				{
					"internalType": "address",
					"name": "",
					"type": "address"
				}
			],
			"stateMutability": "view",
			"type": "function"
		},
		{
			"inputs": [],
			"name": "remainingRewardPool",
			"outputs": [
				{
					"internalType": "uint256",
					"name": "",
					"type": "uint256"
				}
			],
			"stateMutability": "view",
			"type": "function"
		},
		{
			"inputs": [],
			"name": "renounceOwnership",
			"outputs": [],
			"stateMutability": "nonpayable",
			"type": "function"
		},
		{
			"inputs": [],
			"name": "rewardPerBlock",
			"outputs": [
				{
					"internalType": "uint256",
					"name": "",
					"type": "uint256"
				}
			],
			"stateMutability": "view",
			"type": "function"
		},
		{
			"inputs": [],
			"name": "rewardToken",
			"outputs": [
				{
					"internalType": "contract IERC20",
					"name": "",
					"type": "address"
				}
			],
			"stateMutability": "view",
			"type": "function"
		},
		{
			"inputs": [],
			"name": "router",
			"outputs": [
				{
					"internalType": "address",
					"name": "",
					"type": "address"
				}
			],
			"stateMutability": "view",
			"type": "function"
		},
		{
			"inputs": [
				{
					"internalType": "address",
					"name": "_router",
					"type": "address"
				}
			],
			"name": "setRouter",
			"outputs": [],
			"stateMutability": "nonpayable",
			"type": "function"
		},
		{
			"inputs": [],
			"name": "totalLPLocked",
			"outputs": [
				{
					"internalType": "uint256",
					"name": "",
					"type": "uint256"
				}
			],
			"stateMutability": "view",
			"type": "function"
		},
		{
			"inputs": [],
			"name": "totalXP",
			"outputs": [
				{
					"internalType": "uint256",
					"name": "",
					"type": "uint256"
				}
			],
			"stateMutability": "view",
			"type": "function"
		},
		{
			"inputs": [
				{
					"internalType": "address",
					"name": "newOwner",
					"type": "address"
				}
			],
			"name": "transferOwnership",
			"outputs": [],
			"stateMutability": "nonpayable",
			"type": "function"
		},
		{
			"inputs": [
				{
					"internalType": "address",
					"name": "",
					"type": "address"
				}
			],
			"name": "users",
			"outputs": [
				{
					"internalType": "uint256",
					"name": "balance",
					"type": "uint256"
				},
				{
					"internalType": "uint256",
					"name": "lastUpdateBlock",
					"type": "uint256"
				},
				{
					"internalType": "uint256",
					"name": "xp",
					"type": "uint256"
				}
			],
			"stateMutability": "view",
			"type": "function"
		},
		{
			"inputs": [
				{
					"internalType": "uint256",
					"name": "amount",
					"type": "uint256"
				}
			],
			"name": "withdraw",
			"outputs": [],
			"stateMutability": "nonpayable",
			"type": "function"
		},
		{
			"inputs": [],
			"name": "withdrawAll",
			"outputs": [],
			"stateMutability": "nonpayable",
			"type": "function"
		},
		{
			"inputs": [],
			"name": "withdrawAllRewards",
			"outputs": [],
			"stateMutability": "nonpayable",
			"type": "function"
		}
	]
}