{
	"data": {
		"bytecode": {
			"linkReferences": {},
			"object": "6080346200014157620017b690601f38839003908101601f19168201906001600160401b0382118383101762000145578083916040958694855283398101031262000141576200005d6020620000558362000159565b920162000159565b9033156200012a5762000070336200016e565b5f805460ff60a01b1916600160a01b1790556001600160a01b03908116908115620000fa57821615620000c957600180546001600160a01b0319169091179055620000bb906200016e565b516116019081620001b58239f35b825162461bcd60e51b815260206004820152600a602482015269070726f746f636f6c20360b41b6044820152606490fd5b835162461bcd60e51b81526020600482015260096024820152680666163746f727920360bc1b6044820152606490fd5b8251631e4fbdf760e01b81525f6004820152602490fd5b5f80fd5b634e487b7160e01b5f52604160045260245ffd5b51906001600160a01b03821682036200014157565b5f80546001600160a01b039283166001600160a01b03198216811783559216907f8be0079c531659141344cd1fd0a4f28419497f9722a3daafe3b4186f6b6457e09080a356fe6080806040526004361015610012575f80fd5b5f90813560e01c90816305e2e95d14611383575080630b78f9c0146113145780630c51b88f1461115957806319165587146110f957806355197241146110d4578063580fc80a146110715780635bb4780814610ff4578063715018a614610f9b57806388cc58e4146103c65780638da5cb5b14610f7457806390229af7146107c857806397331bf914610693578063a444477b146104b9578063b0f07f151461048c578063b1e3a941146103ef578063c45a0155146103c6578063c99cb2b714610343578063d16352af146102b0578063d858a7e514610288578063db8d55f1146101945763f2fde38b14610105575f80fd5b346101915760203660031901126101915761011e611422565b610126611469565b6001600160a01b03908116908115610178575f54826bffffffffffffffffffffffff60a01b8216175f55167f8be0079c531659141344cd1fd0a4f28419497f9722a3daafe3b4186f6b6457e05f80a380f35b604051631e4fbdf760e01b815260048101849052602490fd5b80fd5b50346101915780600319360112610191576001546040516318bf741760e31b81526001600160a01b039091169160208083600481875afa92831561027d57829361024c575b50806004946040519586809263f25e78b160e01b82525afa918215610240579161020c575b604080945051928352820152f35b80915083813d8311610239575b6102238183611505565b810103126102355760409251906101fe565b5f80fd5b503d610219565b604051903d90823e3d90fd5b9392508084813d8311610276575b6102648183611505565b810103126102355792519192806101d9565b503d61025a565b6040513d84823e3d90fd5b50346101915780600319360112610191576102a1611469565b5f805460ff60a01b1916905580f35b5034610191578060031936011261019157600154604051634673a21360e11b815291906001600160a01b03906020908490600490829085165afa918215610240578092610305575b6020838360405191168152f35b9091506020833d821161033b575b8161032060209383611505565b810103126101915750610334602092611527565b905f6102f8565b3d9150610313565b5034610191576020366003190112610191578061035e611422565b61036e60ff835460a01c16611494565b6001546001600160a01b039081169190823b156103c1576024849283604051958694859363c99cb2b760e01b85521660048401525af1801561027d576103b15750f35b6103ba906114d5565b6101915780f35b505050fd5b50346101915780600319360112610191576001546040516001600160a01b039091168152602090f35b503461019157602090816003193601126101915761040b611422565b60015460405163b1e3a94160e01b81526001600160a01b0392831660048201529084908290602490829086165afa928315610240578093610452575b505060405191168152f35b909192508382813d8311610485575b61046b8183611505565b81010312610191575061047d90611527565b905f80610447565b503d610461565b50346101915780600319360112610191576104a5611469565b805460ff60a01b1916600160a01b17815580f35b5034610191576003199060e036830112610191576104d5611422565b6084359067ffffffffffffffff9384831161068f573660238401121561068f5782600401359085821161068b578160051b36602482870101116106875760a4358781116106835761052a903690600401611438565b92909760c43590811161067f57610545903690600401611438565b91909361055860ff8a5460a01c16611494565b6001805460405163a444477b60e01b81526001600160a01b03998a16600482015260248035908201526044803590820152606480359082015260e0608482015260e481018990529899908a1697919590916001600160fb1b031061067b57908282610124936024989e9a99986101049401848d01378a019182016101008b84030160a48c015252019590895b81811061065c575050509187918694938587030160c48601528086526020998a8097019291845b81811061063657505050509083809203925af192831561024057809361045257505060405191168152f35b833585528c8401358d8601528c98508997508b955060409485019490930192820161060b565b8235885260208084013590890152604097880197909201918b016105e4565b8a80fd5b8780fd5b8680fd5b8580fd5b8480fd5b8380fd5b5034610191578060031936011261019157600180546040516397331bf960e01b8152919291906001600160a01b039083908390600490829085165afa9182156107bd578392610722575b50916040939193519260208085019181865286518093528160408701970193905b83821061070b5786880387f35b8451811688529682019693820193908501906106fe565b9091503d8084833e6107348183611505565b810190602090818184031261068b5780519067ffffffffffffffff821161068757019180601f8401121561068b57825161076d8161153b565b9361077b6040519586611505565b818552838086019260051b820101928311610683578301905b8282106107a65750505050905f6106dd565b8380916107b284611527565b815201910190610794565b6040513d85823e3d90fd5b5034610191576020366003190112610191576107e2611422565b9060405191610100830183811067ffffffffffffffff821117610f605760405281835281602084015281604084015260608084015260606080840152606060a08401528160c08401528160e08401526040516308bcf8b560e21b815260208160048160018060a01b0386165afa9081156107bd578391610f31575b5015158352604051637e062a3560e11b81526020816004816001600160a01b0386165afa9081156107bd578391610ef7575b506001600160a01b0390811660208581019190915260405163094b81d360e01b8152918290600490829086165afa9081156107bd578391610ec1575b506040848101919091525163359cfbf760e01b81526020816004816001600160a01b0386165afa9081156107bd578391610e8f575b5061090a8161153b565b6109176040519182611505565b818152601f196109268361153b565b013660208301376060850152825b818110610e0957505060405163c122c2a160e01b81526020816004816001600160a01b0386165afa9081156107bd578391610dd7575b506109748161153b565b6109816040519182611505565b818152601f196109908361153b565b01845b818110610db45750506080850152825b818110610d2a57505060405163b9b792cd60e01b81526020816004816001600160a01b0386165afa9081156107bd578391610cf8575b506109e38161153b565b6109f06040519182611505565b818152601f196109ff8361153b565b01845b818110610cd557505060a0850152825b818110610c245750506040516341b3d18560e01b81526020816004816001600160a01b0386165afa9081156107bd578391610bf1575b5060c0840152604051633041f2cd60e11b815290602090829060049082906001600160a01b03165afa90811561027d578291610bbf575b5060e0830152604051906020825261012082019083511515602084015260018060a01b036020850151166040840152604084015160608401526060840151916101006080850152825180915260206101408501930190825b818110610ba957505050608084015191601f198482030160a085015260208084519283815201930190825b818110610b7b5750505060a084015191601f198482030160c0850152602080845192838152019301915b818110610b4f5750505060e08360c0849501518285015201516101008301520390f35b9091926020610b71600192865190602060409280518352015160208201520190565b9401929101610b2c565b909192936020610b9e600192865190602060409280518352015160208201520190565b959401929101610b02565b8251855260209485019490920191600101610ad7565b90506020813d602011610be9575b81610bda60209383611505565b8101031261023557515f610a7f565b3d9150610bcd565b90506020813d602011610c1c575b81610c0c60209383611505565b8101031261023557516004610a48565b3d9150610bff565b6040805163503306fd60e11b81526004810183905290816024816001600160a01b0388165afa8015610cca5782610c949392610c8e9288918991610c99575b5060405191610c71836114e9565b8252602082015260a089015190610c88838361158d565b5261158d565b5061156b565b610a12565b9050610cbd915060403d604011610cc3575b610cb58183611505565b8101906115b5565b5f610c63565b503d610cab565b6040513d87823e3d90fd5b602090604051610ce4816114e9565b5f81525f8382015282828601015201610a02565b90506020813d602011610d22575b81610d1360209383611505565b8101031261023557515f6109d9565b3d9150610d06565b60408051635350cbd960e01b81526004810183905290816024816001600160a01b0388165afa8015610cca5782610d8e9392610c8e9288918991610d93575b5060405191610d77836114e9565b82526020820152608089015190610c88838361158d565b6109a3565b9050610dae915060403d604011610cc357610cb58183611505565b5f610d69565b602090604051610dc3816114e9565b5f81525f8382015282828601015201610993565b90506020813d602011610e01575b81610df260209383611505565b8101031261023557515f61096a565b3d9150610de5565b6040516310390d3560e01b815260048101829052906020826024816001600160a01b0388165afa8015610cca578590610e5b575b610e569250610e5082606089015161158d565b5261156b565b610934565b506020823d602011610e87575b81610e7560209383611505565b8101031261023557610e569151610e3d565b3d9150610e68565b90506020813d602011610eb9575b81610eaa60209383611505565b8101031261023557515f610900565b3d9150610e9d565b90506020813d602011610eef575b81610edc60209383611505565b81010312610eeb57515f6108cb565b8280fd5b3d9150610ecf565b90506020813d602011610f29575b81610f1260209383611505565b81010312610eeb57610f2390611527565b5f61088f565b3d9150610f05565b610f53915060203d602011610f59575b610f4b8183611505565b810190611553565b5f61085d565b503d610f41565b634e487b7160e01b5f52604160045260245ffd5b5034610191578060031936011261019157546040516001600160a01b039091168152602090f35b5034610191578060031936011261019157610fb4611469565b5f80546001600160a01b0319811682556001600160a01b03167f8be0079c531659141344cd1fd0a4f28419497f9722a3daafe3b4186f6b6457e08280a380f35b50346101915760203660031901126101915761100e611422565b611016611469565b6001600160a01b03168015611040576bffffffffffffffffffffffff60a01b600154161760015580f35b60405162461bcd60e51b81526020600482015260096024820152680666163746f727920360bc1b6044820152606490fd5b5034610191576020366003190112610191578061108c611422565b61109c60ff835460a01c16611494565b6001600160a01b0316803b156110d157818091600460405180948193630b7cffbd60e31b83525af1801561027d576103b15750f35b50fd5b503461019157806003193601126101915760ff6020915460a01c166040519015158152f35b50346101915760203660031901126101915780611114611422565b61112460ff835460a01c16611494565b6001600160a01b0316803b156110d1578180916004604051809481936386d1a69f60e01b83525af1801561027d576103b15750f35b503461019157606036600319011261019157611173611422565b9060243561118760ff835460a01c16611494565b604051637e062a3560e11b81526020936001600160a01b0390811692918581600481875afa908115610cca5785916112df575b50166040516323b872dd60e01b8152336004820152306024820152826044820152858160648188865af1908115610cca5785916112c2575b501561128757938381819660446040518094819363095ea7b360e01b83528960048401528860248401525af18015610cca57611269575b5050813b156112655782916044839260405194859384926307b0472f60e41b84526004840152833560248401525af1801561027d576103b15750f35b5050fd5b8161127f92903d10610f5957610f4b8183611505565b505f80611229565b60405162461bcd60e51b81526004810186905260136024820152721d1c985b9cd9995c919c9bdb4819985a5b1959606a1b6044820152606490fd5b6112d99150863d8811610f5957610f4b8183611505565b5f6111f2565b90508581813d831161130d575b6112f68183611505565b8101031261068b5761130790611527565b5f6111ba565b503d6112ec565b50346101915760403660031901126101915761132e611469565b60015481906001600160a01b0316803b156110d1578190604460405180948193622de3e760e61b8352600435600484015260243560248401525af1801561027d57611377575080f35b611380906114d5565b80f35b9050346114165760403660031901126114165761139e611422565b6001600160a01b03602435818116929083900361068b578380926024926020956318e521fd60e21b84526004840152165afa90811561027d5782916113e9575b602082604051908152f35b90506020813d821161141a575b8161140360209383611505565b810103126114165760209150515f6113de565b5080fd5b3d91506113f6565b600435906001600160a01b038216820361023557565b9181601f840112156102355782359167ffffffffffffffff8311610235576020808501948460061b01011161023557565b5f546001600160a01b0316330361147c57565b60405163118cdaa760e01b8152336004820152602490fd5b1561149b57565b60405162461bcd60e51b8152602060048201526012602482015271149bdd5d195c881a5cc8191a5cd8589b195960721b6044820152606490fd5b67ffffffffffffffff8111610f6057604052565b6040810190811067ffffffffffffffff821117610f6057604052565b90601f8019910116810190811067ffffffffffffffff821117610f6057604052565b51906001600160a01b038216820361023557565b67ffffffffffffffff8111610f605760051b60200190565b90816020910312610235575180151581036102355790565b5f1981146115795760010190565b634e487b7160e01b5f52601160045260245ffd5b80518210156115a15760209160051b010190565b634e487b7160e01b5f52603260045260245ffd5b919082604091031261023557602082519201519056fea26469706673582212204f9b3b399897854695096ccc28aa9d3087b497a8eec9eb89538be6b84718564a64736f6c63430008140033",
			"opcodes": "PUSH1 0x80 CALLVALUE PUSH3 0x141 JUMPI PUSH3 0x17B6 SWAP1 PUSH1 0x1F CODESIZE DUP4 SWAP1 SUB SWAP1 DUP2 ADD PUSH1 0x1F NOT AND DUP3 ADD SWAP1 PUSH1 0x1 PUSH1 0x1 PUSH1 0x40 SHL SUB DUP3 GT DUP4 DUP4 LT OR PUSH3 0x145 JUMPI DUP1 DUP4 SWAP2 PUSH1 0x40 SWAP6 DUP7 SWAP5 DUP6 MSTORE DUP4 CODECOPY DUP2 ADD SUB SLT PUSH3 0x141 JUMPI PUSH3 0x5D PUSH1 0x20 PUSH3 0x55 DUP4 PUSH3 0x159 JUMP JUMPDEST SWAP3 ADD PUSH3 0x159 JUMP JUMPDEST SWAP1 CALLER ISZERO PUSH3 0x12A JUMPI PUSH3 0x70 CALLER PUSH3 0x16E JUMP JUMPDEST PUSH0 DUP1 SLOAD PUSH1 0xFF PUSH1 0xA0 SHL NOT AND PUSH1 0x1 PUSH1 0xA0 SHL OR SWAP1 SSTORE PUSH1 0x1 PUSH1 0x1 PUSH1 0xA0 SHL SUB SWAP1 DUP2 AND SWAP1 DUP2 ISZERO PUSH3 0xFA JUMPI DUP3 AND ISZERO PUSH3 0xC9 JUMPI PUSH1 0x1 DUP1 SLOAD PUSH1 0x1 PUSH1 0x1 PUSH1 0xA0 SHL SUB NOT AND SWAP1 SWAP2 OR SWAP1 SSTORE PUSH3 0xBB SWAP1 PUSH3 0x16E JUMP JUMPDEST MLOAD PUSH2 0x1601 SWAP1 DUP2 PUSH3 0x1B5 DUP3 CODECOPY RETURN JUMPDEST DUP3 MLOAD PUSH3 0x461BCD PUSH1 0xE5 SHL DUP2 MSTORE PUSH1 0x20 PUSH1 0x4 DUP3 ADD MSTORE PUSH1 0xA PUSH1 0x24 DUP3 ADD MSTORE PUSH10 0x70726F746F636F6C203 PUSH1 0xB4 SHL PUSH1 0x44 DUP3 ADD MSTORE PUSH1 0x64 SWAP1 REVERT JUMPDEST DUP4 MLOAD PUSH3 0x461BCD PUSH1 0xE5 SHL DUP2 MSTORE PUSH1 0x20 PUSH1 0x4 DUP3 ADD MSTORE PUSH1 0x9 PUSH1 0x24 DUP3 ADD MSTORE PUSH9 0x666163746F7279203 PUSH1 0xBC SHL PUSH1 0x44 DUP3 ADD MSTORE PUSH1 0x64 SWAP1 REVERT JUMPDEST DUP3 MLOAD PUSH4 0x1E4FBDF7 PUSH1 0xE0 SHL DUP2 MSTORE PUSH0 PUSH1 0x4 DUP3 ADD MSTORE PUSH1 0x24 SWAP1 REVERT JUMPDEST PUSH0 DUP1 REVERT JUMPDEST PUSH4 0x4E487B71 PUSH1 0xE0 SHL PUSH0 MSTORE PUSH1 0x41 PUSH1 0x4 MSTORE PUSH1 0x24 PUSH0 REVERT JUMPDEST MLOAD SWAP1 PUSH1 0x1 PUSH1 0x1 PUSH1 0xA0 SHL SUB DUP3 AND DUP3 SUB PUSH3 0x141 JUMPI JUMP JUMPDEST PUSH0 DUP1 SLOAD PUSH1 0x1 PUSH1 0x1 PUSH1 0xA0 SHL SUB SWAP3 DUP4 AND PUSH1 0x1 PUSH1 0x1 PUSH1 0xA0 SHL SUB NOT DUP3 AND DUP2 OR DUP4 SSTORE SWAP3 AND SWAP1 PUSH32 0x8BE0079C531659141344CD1FD0A4F28419497F9722A3DAAFE3B4186F6B6457E0 SWAP1 DUP1 LOG3 JUMP INVALID PUSH1 0x80 DUP1 PUSH1 0x40 MSTORE PUSH1 0x4 CALLDATASIZE LT ISZERO PUSH2 0x12 JUMPI PUSH0 DUP1 REVERT JUMPDEST PUSH0 SWAP1 DUP2 CALLDATALOAD PUSH1 0xE0 SHR SWAP1 DUP2 PUSH4 0x5E2E95D EQ PUSH2 0x1383 JUMPI POP DUP1 PUSH4 0xB78F9C0 EQ PUSH2 0x1314 JUMPI DUP1 PUSH4 0xC51B88F EQ PUSH2 0x1159 JUMPI DUP1 PUSH4 0x19165587 EQ PUSH2 0x10F9 JUMPI DUP1 PUSH4 0x55197241 EQ PUSH2 0x10D4 JUMPI DUP1 PUSH4 0x580FC80A EQ PUSH2 0x1071 JUMPI DUP1 PUSH4 0x5BB47808 EQ PUSH2 0xFF4 JUMPI DUP1 PUSH4 0x715018A6 EQ PUSH2 0xF9B JUMPI DUP1 PUSH4 0x88CC58E4 EQ PUSH2 0x3C6 JUMPI DUP1 PUSH4 0x8DA5CB5B EQ PUSH2 0xF74 JUMPI DUP1 PUSH4 0x90229AF7 EQ PUSH2 0x7C8 JUMPI DUP1 PUSH4 0x97331BF9 EQ PUSH2 0x693 JUMPI DUP1 PUSH4 0xA444477B EQ PUSH2 0x4B9 JUMPI DUP1 PUSH4 0xB0F07F15 EQ PUSH2 0x48C JUMPI DUP1 PUSH4 0xB1E3A941 EQ PUSH2 0x3EF JUMPI DUP1 PUSH4 0xC45A0155 EQ PUSH2 0x3C6 JUMPI DUP1 PUSH4 0xC99CB2B7 EQ PUSH2 0x343 JUMPI DUP1 PUSH4 0xD16352AF EQ PUSH2 0x2B0 JUMPI DUP1 PUSH4 0xD858A7E5 EQ PUSH2 0x288 JUMPI DUP1 PUSH4 0xDB8D55F1 EQ PUSH2 0x194 JUMPI PUSH4 0xF2FDE38B EQ PUSH2 0x105 JUMPI PUSH0 DUP1 REVERT JUMPDEST CALLVALUE PUSH2 0x191 JUMPI PUSH1 0x20 CALLDATASIZE PUSH1 0x3 NOT ADD SLT PUSH2 0x191 JUMPI PUSH2 0x11E PUSH2 0x1422 JUMP JUMPDEST PUSH2 0x126 PUSH2 0x1469 JUMP JUMPDEST PUSH1 0x1 PUSH1 0x1 PUSH1 0xA0 SHL SUB SWAP1 DUP2 AND SWAP1 DUP2 ISZERO PUSH2 0x178 JUMPI PUSH0 SLOAD DUP3 PUSH12 0xFFFFFFFFFFFFFFFFFFFFFFFF PUSH1 0xA0 SHL DUP3 AND OR PUSH0 SSTORE AND PUSH32 0x8BE0079C531659141344CD1FD0A4F28419497F9722A3DAAFE3B4186F6B6457E0 PUSH0 DUP1 LOG3 DUP1 RETURN JUMPDEST PUSH1 0x40 MLOAD PUSH4 0x1E4FBDF7 PUSH1 0xE0 SHL DUP2 MSTORE PUSH1 0x4 DUP2 ADD DUP5 SWAP1 MSTORE PUSH1 0x24 SWAP1 REVERT JUMPDEST DUP1 REVERT JUMPDEST POP CALLVALUE PUSH2 0x191 JUMPI DUP1 PUSH1 0x3 NOT CALLDATASIZE ADD SLT PUSH2 0x191 JUMPI PUSH1 0x1 SLOAD PUSH1 0x40 MLOAD PUSH4 0x18BF7417 PUSH1 0xE3 SHL DUP2 MSTORE PUSH1 0x1 PUSH1 0x1 PUSH1 0xA0 SHL SUB SWAP1 SWAP2 AND SWAP2 PUSH1 0x20 DUP1 DUP4 PUSH1 0x4 DUP2 DUP8 GAS STATICCALL SWAP3 DUP4 ISZERO PUSH2 0x27D JUMPI DUP3 SWAP4 PUSH2 0x24C JUMPI JUMPDEST POP DUP1 PUSH1 0x4 SWAP5 PUSH1 0x40 MLOAD SWAP6 DUP7 DUP1 SWAP3 PUSH4 0xF25E78B1 PUSH1 0xE0 SHL DUP3 MSTORE GAS STATICCALL SWAP2 DUP3 ISZERO PUSH2 0x240 JUMPI SWAP2 PUSH2 0x20C JUMPI JUMPDEST PUSH1 0x40 DUP1 SWAP5 POP MLOAD SWAP3 DUP4 MSTORE DUP3 ADD MSTORE RETURN JUMPDEST DUP1 SWAP2 POP DUP4 DUP2 RETURNDATASIZE DUP4 GT PUSH2 0x239 JUMPI JUMPDEST PUSH2 0x223 DUP2 DUP4 PUSH2 0x1505 JUMP JUMPDEST DUP2 ADD SUB SLT PUSH2 0x235 JUMPI PUSH1 0x40 SWAP3 MLOAD SWAP1 PUSH2 0x1FE JUMP JUMPDEST PUSH0 DUP1 REVERT JUMPDEST POP RETURNDATASIZE PUSH2 0x219 JUMP JUMPDEST PUSH1 0x40 MLOAD SWAP1 RETURNDATASIZE SWAP1 DUP3 RETURNDATACOPY RETURNDATASIZE SWAP1 REVERT JUMPDEST SWAP4 SWAP3 POP DUP1 DUP5 DUP2 RETURNDATASIZE DUP4 GT PUSH2 0x276 JUMPI JUMPDEST PUSH2 0x264 DUP2 DUP4 PUSH2 0x1505 JUMP JUMPDEST DUP2 ADD SUB SLT PUSH2 0x235 JUMPI SWAP3 MLOAD SWAP2 SWAP3 DUP1 PUSH2 0x1D9 JUMP JUMPDEST POP RETURNDATASIZE PUSH2 0x25A JUMP JUMPDEST PUSH1 0x40 MLOAD RETURNDATASIZE DUP5 DUP3 RETURNDATACOPY RETURNDATASIZE SWAP1 REVERT JUMPDEST POP CALLVALUE PUSH2 0x191 JUMPI DUP1 PUSH1 0x3 NOT CALLDATASIZE ADD SLT PUSH2 0x191 JUMPI PUSH2 0x2A1 PUSH2 0x1469 JUMP JUMPDEST PUSH0 DUP1 SLOAD PUSH1 0xFF PUSH1 0xA0 SHL NOT AND SWAP1 SSTORE DUP1 RETURN JUMPDEST POP CALLVALUE PUSH2 0x191 JUMPI DUP1 PUSH1 0x3 NOT CALLDATASIZE ADD SLT PUSH2 0x191 JUMPI PUSH1 0x1 SLOAD PUSH1 0x40 MLOAD PUSH4 0x4673A213 PUSH1 0xE1 SHL DUP2 MSTORE SWAP2 SWAP1 PUSH1 0x1 PUSH1 0x1 PUSH1 0xA0 SHL SUB SWAP1 PUSH1 0x20 SWAP1 DUP5 SWAP1 PUSH1 0x4 SWAP1 DUP3 SWAP1 DUP6 AND GAS STATICCALL SWAP2 DUP3 ISZERO PUSH2 0x240 JUMPI DUP1 SWAP3 PUSH2 0x305 JUMPI JUMPDEST PUSH1 0x20 DUP4 DUP4 PUSH1 0x40 MLOAD SWAP2 AND DUP2 MSTORE RETURN JUMPDEST SWAP1 SWAP2 POP PUSH1 0x20 DUP4 RETURNDATASIZE DUP3 GT PUSH2 0x33B JUMPI JUMPDEST DUP2 PUSH2 0x320 PUSH1 0x20 SWAP4 DUP4 PUSH2 0x1505 JUMP JUMPDEST DUP2 ADD SUB SLT PUSH2 0x191 JUMPI POP PUSH2 0x334 PUSH1 0x20 SWAP3 PUSH2 0x1527 JUMP JUMPDEST SWAP1 PUSH0 PUSH2 0x2F8 JUMP JUMPDEST RETURNDATASIZE SWAP2 POP PUSH2 0x313 JUMP JUMPDEST POP CALLVALUE PUSH2 0x191 JUMPI PUSH1 0x20 CALLDATASIZE PUSH1 0x3 NOT ADD SLT PUSH2 0x191 JUMPI DUP1 PUSH2 0x35E PUSH2 0x1422 JUMP JUMPDEST PUSH2 0x36E PUSH1 0xFF DUP4 SLOAD PUSH1 0xA0 SHR AND PUSH2 0x1494 JUMP JUMPDEST PUSH1 0x1 SLOAD PUSH1 0x1 PUSH1 0x1 PUSH1 0xA0 SHL SUB SWAP1 DUP2 AND SWAP2 SWAP1 DUP3 EXTCODESIZE ISZERO PUSH2 0x3C1 JUMPI PUSH1 0x24 DUP5 SWAP3 DUP4 PUSH1 0x40 MLOAD SWAP6 DUP7 SWAP5 DUP6 SWAP4 PUSH4 0xC99CB2B7 PUSH1 0xE0 SHL DUP6 MSTORE AND PUSH1 0x4 DUP5 ADD MSTORE GAS CALL DUP1 ISZERO PUSH2 0x27D JUMPI PUSH2 0x3B1 JUMPI POP RETURN JUMPDEST PUSH2 0x3BA SWAP1 PUSH2 0x14D5 JUMP JUMPDEST PUSH2 0x191 JUMPI DUP1 RETURN JUMPDEST POP POP POP REVERT JUMPDEST POP CALLVALUE PUSH2 0x191 JUMPI DUP1 PUSH1 0x3 NOT CALLDATASIZE ADD SLT PUSH2 0x191 JUMPI PUSH1 0x1 SLOAD PUSH1 0x40 MLOAD PUSH1 0x1 PUSH1 0x1 PUSH1 0xA0 SHL SUB SWAP1 SWAP2 AND DUP2 MSTORE PUSH1 0x20 SWAP1 RETURN JUMPDEST POP CALLVALUE PUSH2 0x191 JUMPI PUSH1 0x20 SWAP1 DUP2 PUSH1 0x3 NOT CALLDATASIZE ADD SLT PUSH2 0x191 JUMPI PUSH2 0x40B PUSH2 0x1422 JUMP JUMPDEST PUSH1 0x1 SLOAD PUSH1 0x40 MLOAD PUSH4 0xB1E3A941 PUSH1 0xE0 SHL DUP2 MSTORE PUSH1 0x1 PUSH1 0x1 PUSH1 0xA0 SHL SUB SWAP3 DUP4 AND PUSH1 0x4 DUP3 ADD MSTORE SWAP1 DUP5 SWAP1 DUP3 SWAP1 PUSH1 0x24 SWAP1 DUP3 SWAP1 DUP7 AND GAS STATICCALL SWAP3 DUP4 ISZERO PUSH2 0x240 JUMPI DUP1 SWAP4 PUSH2 0x452 JUMPI JUMPDEST POP POP PUSH1 0x40 MLOAD SWAP2 AND DUP2 MSTORE RETURN JUMPDEST SWAP1 SWAP2 SWAP3 POP DUP4 DUP3 DUP2 RETURNDATASIZE DUP4 GT PUSH2 0x485 JUMPI JUMPDEST PUSH2 0x46B DUP2 DUP4 PUSH2 0x1505 JUMP JUMPDEST DUP2 ADD SUB SLT PUSH2 0x191 JUMPI POP PUSH2 0x47D SWAP1 PUSH2 0x1527 JUMP JUMPDEST SWAP1 PUSH0 DUP1 PUSH2 0x447 JUMP JUMPDEST POP RETURNDATASIZE PUSH2 0x461 JUMP JUMPDEST POP CALLVALUE PUSH2 0x191 JUMPI DUP1 PUSH1 0x3 NOT CALLDATASIZE ADD SLT PUSH2 0x191 JUMPI PUSH2 0x4A5 PUSH2 0x1469 JUMP JUMPDEST DUP1 SLOAD PUSH1 0xFF PUSH1 0xA0 SHL NOT AND PUSH1 0x1 PUSH1 0xA0 SHL OR DUP2 SSTORE DUP1 RETURN JUMPDEST POP CALLVALUE PUSH2 0x191 JUMPI PUSH1 0x3 NOT SWAP1 PUSH1 0xE0 CALLDATASIZE DUP4 ADD SLT PUSH2 0x191 JUMPI PUSH2 0x4D5 PUSH2 0x1422 JUMP JUMPDEST PUSH1 0x84 CALLDATALOAD SWAP1 PUSH8 0xFFFFFFFFFFFFFFFF SWAP4 DUP5 DUP4 GT PUSH2 0x68F JUMPI CALLDATASIZE PUSH1 0x23 DUP5 ADD SLT ISZERO PUSH2 0x68F JUMPI DUP3 PUSH1 0x4 ADD CALLDATALOAD SWAP1 DUP6 DUP3 GT PUSH2 0x68B JUMPI DUP2 PUSH1 0x5 SHL CALLDATASIZE PUSH1 0x24 DUP3 DUP8 ADD ADD GT PUSH2 0x687 JUMPI PUSH1 0xA4 CALLDATALOAD DUP8 DUP2 GT PUSH2 0x683 JUMPI PUSH2 0x52A SWAP1 CALLDATASIZE SWAP1 PUSH1 0x4 ADD PUSH2 0x1438 JUMP JUMPDEST SWAP3 SWAP1 SWAP8 PUSH1 0xC4 CALLDATALOAD SWAP1 DUP2 GT PUSH2 0x67F JUMPI PUSH2 0x545 SWAP1 CALLDATASIZE SWAP1 PUSH1 0x4 ADD PUSH2 0x1438 JUMP JUMPDEST SWAP2 SWAP1 SWAP4 PUSH2 0x558 PUSH1 0xFF DUP11 SLOAD PUSH1 0xA0 SHR AND PUSH2 0x1494 JUMP JUMPDEST PUSH1 0x1 DUP1 SLOAD PUSH1 0x40 MLOAD PUSH4 0xA444477B PUSH1 0xE0 SHL DUP2 MSTORE PUSH1 0x1 PUSH1 0x1 PUSH1 0xA0 SHL SUB SWAP10 DUP11 AND PUSH1 0x4 DUP3 ADD MSTORE PUSH1 0x24 DUP1 CALLDATALOAD SWAP1 DUP3 ADD MSTORE PUSH1 0x44 DUP1 CALLDATALOAD SWAP1 DUP3 ADD MSTORE PUSH1 0x64 DUP1 CALLDATALOAD SWAP1 DUP3 ADD MSTORE PUSH1 0xE0 PUSH1 0x84 DUP3 ADD MSTORE PUSH1 0xE4 DUP2 ADD DUP10 SWAP1 MSTORE SWAP9 SWAP10 SWAP1 DUP11 AND SWAP8 SWAP2 SWAP6 SWAP1 SWAP2 PUSH1 0x1 PUSH1 0x1 PUSH1 0xFB SHL SUB LT PUSH2 0x67B JUMPI SWAP1 DUP3 DUP3 PUSH2 0x124 SWAP4 PUSH1 0x24 SWAP9 SWAP15 SWAP11 SWAP10 SWAP9 PUSH2 0x104 SWAP5 ADD DUP5 DUP14 ADD CALLDATACOPY DUP11 ADD SWAP2 DUP3 ADD PUSH2 0x100 DUP12 DUP5 SUB ADD PUSH1 0xA4 DUP13 ADD MSTORE MSTORE ADD SWAP6 SWAP1 DUP10 JUMPDEST DUP2 DUP2 LT PUSH2 0x65C JUMPI POP POP POP SWAP2 DUP8 SWAP2 DUP7 SWAP5 SWAP4 DUP6 DUP8 SUB ADD PUSH1 0xC4 DUP7 ADD MSTORE DUP1 DUP7 MSTORE PUSH1 0x20 SWAP10 DUP11 DUP1 SWAP8 ADD SWAP3 SWAP2 DUP5 JUMPDEST DUP2 DUP2 LT PUSH2 0x636 JUMPI POP POP POP POP SWAP1 DUP4 DUP1 SWAP3 SUB SWAP3 GAS CALL SWAP3 DUP4 ISZERO PUSH2 0x240 JUMPI DUP1 SWAP4 PUSH2 0x452 JUMPI POP POP PUSH1 0x40 MLOAD SWAP2 AND DUP2 MSTORE RETURN JUMPDEST DUP4 CALLDATALOAD DUP6 MSTORE DUP13 DUP5 ADD CALLDATALOAD DUP14 DUP7 ADD MSTORE DUP13 SWAP9 POP DUP10 SWAP8 POP DUP12 SWAP6 POP PUSH1 0x40 SWAP5 DUP6 ADD SWAP5 SWAP1 SWAP4 ADD SWAP3 DUP3 ADD PUSH2 0x60B JUMP JUMPDEST DUP3 CALLDATALOAD DUP9 MSTORE PUSH1 0x20 DUP1 DUP5 ADD CALLDATALOAD SWAP1 DUP10 ADD MSTORE PUSH1 0x40 SWAP8 DUP9 ADD SWAP8 SWAP1 SWAP3 ADD SWAP2 DUP12 ADD PUSH2 0x5E4 JUMP JUMPDEST DUP11 DUP1 REVERT JUMPDEST DUP8 DUP1 REVERT JUMPDEST DUP7 DUP1 REVERT JUMPDEST DUP6 DUP1 REVERT JUMPDEST DUP5 DUP1 REVERT JUMPDEST DUP4 DUP1 REVERT JUMPDEST POP CALLVALUE PUSH2 0x191 JUMPI DUP1 PUSH1 0x3 NOT CALLDATASIZE ADD SLT PUSH2 0x191 JUMPI PUSH1 0x1 DUP1 SLOAD PUSH1 0x40 MLOAD PUSH4 0x97331BF9 PUSH1 0xE0 SHL DUP2 MSTORE SWAP2 SWAP3 SWAP2 SWAP1 PUSH1 0x1 PUSH1 0x1 PUSH1 0xA0 SHL SUB SWAP1 DUP4 SWAP1 DUP4 SWAP1 PUSH1 0x4 SWAP1 DUP3 SWAP1 DUP6 AND GAS STATICCALL SWAP2 DUP3 ISZERO PUSH2 0x7BD JUMPI DUP4 SWAP3 PUSH2 0x722 JUMPI JUMPDEST POP SWAP2 PUSH1 0x40 SWAP4 SWAP2 SWAP4 MLOAD SWAP3 PUSH1 0x20 DUP1 DUP6 ADD SWAP2 DUP2 DUP7 MSTORE DUP7 MLOAD DUP1 SWAP4 MSTORE DUP2 PUSH1 0x40 DUP8 ADD SWAP8 ADD SWAP4 SWAP1 JUMPDEST DUP4 DUP3 LT PUSH2 0x70B JUMPI DUP7 DUP9 SUB DUP8 RETURN JUMPDEST DUP5 MLOAD DUP2 AND DUP9 MSTORE SWAP7 DUP3 ADD SWAP7 SWAP4 DUP3 ADD SWAP4 SWAP1 DUP6 ADD SWAP1 PUSH2 0x6FE JUMP JUMPDEST SWAP1 SWAP2 POP RETURNDATASIZE DUP1 DUP5 DUP4 RETURNDATACOPY PUSH2 0x734 DUP2 DUP4 PUSH2 0x1505 JUMP JUMPDEST DUP2 ADD SWAP1 PUSH1 0x20 SWAP1 DUP2 DUP2 DUP5 SUB SLT PUSH2 0x68B JUMPI DUP1 MLOAD SWAP1 PUSH8 0xFFFFFFFFFFFFFFFF DUP3 GT PUSH2 0x687 JUMPI ADD SWAP2 DUP1 PUSH1 0x1F DUP5 ADD SLT ISZERO PUSH2 0x68B JUMPI DUP3 MLOAD PUSH2 0x76D DUP2 PUSH2 0x153B JUMP JUMPDEST SWAP4 PUSH2 0x77B PUSH1 0x40 MLOAD SWAP6 DUP7 PUSH2 0x1505 JUMP JUMPDEST DUP2 DUP6 MSTORE DUP4 DUP1 DUP7 ADD SWAP3 PUSH1 0x5 SHL DUP3 ADD ADD SWAP3 DUP4 GT PUSH2 0x683 JUMPI DUP4 ADD SWAP1 JUMPDEST DUP3 DUP3 LT PUSH2 0x7A6 JUMPI POP POP POP POP SWAP1 PUSH0 PUSH2 0x6DD JUMP JUMPDEST DUP4 DUP1 SWAP2 PUSH2 0x7B2 DUP5 PUSH2 0x1527 JUMP JUMPDEST DUP2 MSTORE ADD SWAP2 ADD SWAP1 PUSH2 0x794 JUMP JUMPDEST PUSH1 0x40 MLOAD RETURNDATASIZE DUP6 DUP3 RETURNDATACOPY RETURNDATASIZE SWAP1 REVERT JUMPDEST POP CALLVALUE PUSH2 0x191 JUMPI PUSH1 0x20 CALLDATASIZE PUSH1 0x3 NOT ADD SLT PUSH2 0x191 JUMPI PUSH2 0x7E2 PUSH2 0x1422 JUMP JUMPDEST SWAP1 PUSH1 0x40 MLOAD SWAP2 PUSH2 0x100 DUP4 ADD DUP4 DUP2 LT PUSH8 0xFFFFFFFFFFFFFFFF DUP3 GT OR PUSH2 0xF60 JUMPI PUSH1 0x40 MSTORE DUP2 DUP4 MSTORE DUP2 PUSH1 0x20 DUP5 ADD MSTORE DUP2 PUSH1 0x40 DUP5 ADD MSTORE PUSH1 0x60 DUP1 DUP5 ADD MSTORE PUSH1 0x60 PUSH1 0x80 DUP5 ADD MSTORE PUSH1 0x60 PUSH1 0xA0 DUP5 ADD MSTORE DUP2 PUSH1 0xC0 DUP5 ADD MSTORE DUP2 PUSH1 0xE0 DUP5 ADD MSTORE PUSH1 0x40 MLOAD PUSH4 0x8BCF8B5 PUSH1 0xE2 SHL DUP2 MSTORE PUSH1 0x20 DUP2 PUSH1 0x4 DUP2 PUSH1 0x1 DUP1 PUSH1 0xA0 SHL SUB DUP7 AND GAS STATICCALL SWAP1 DUP2 ISZERO PUSH2 0x7BD JUMPI DUP4 SWAP2 PUSH2 0xF31 JUMPI JUMPDEST POP ISZERO ISZERO DUP4 MSTORE PUSH1 0x40 MLOAD PUSH4 0x7E062A35 PUSH1 0xE1 SHL DUP2 MSTORE PUSH1 0x20 DUP2 PUSH1 0x4 DUP2 PUSH1 0x1 PUSH1 0x1 PUSH1 0xA0 SHL SUB DUP7 AND GAS STATICCALL SWAP1 DUP2 ISZERO PUSH2 0x7BD JUMPI DUP4 SWAP2 PUSH2 0xEF7 JUMPI JUMPDEST POP PUSH1 0x1 PUSH1 0x1 PUSH1 0xA0 SHL SUB SWAP1 DUP2 AND PUSH1 0x20 DUP6 DUP2 ADD SWAP2 SWAP1 SWAP2 MSTORE PUSH1 0x40 MLOAD PUSH4 0x94B81D3 PUSH1 0xE0 SHL DUP2 MSTORE SWAP2 DUP3 SWAP1 PUSH1 0x4 SWAP1 DUP3 SWAP1 DUP7 AND GAS STATICCALL SWAP1 DUP2 ISZERO PUSH2 0x7BD JUMPI DUP4 SWAP2 PUSH2 0xEC1 JUMPI JUMPDEST POP PUSH1 0x40 DUP5 DUP2 ADD SWAP2 SWAP1 SWAP2 MSTORE MLOAD PUSH4 0x359CFBF7 PUSH1 0xE0 SHL DUP2 MSTORE PUSH1 0x20 DUP2 PUSH1 0x4 DUP2 PUSH1 0x1 PUSH1 0x1 PUSH1 0xA0 SHL SUB DUP7 AND GAS STATICCALL SWAP1 DUP2 ISZERO PUSH2 0x7BD JUMPI DUP4 SWAP2 PUSH2 0xE8F JUMPI JUMPDEST POP PUSH2 0x90A DUP2 PUSH2 0x153B JUMP JUMPDEST PUSH2 0x917 PUSH1 0x40 MLOAD SWAP2 DUP3 PUSH2 0x1505 JUMP JUMPDEST DUP2 DUP2 MSTORE PUSH1 0x1F NOT PUSH2 0x926 DUP4 PUSH2 0x153B JUMP JUMPDEST ADD CALLDATASIZE PUSH1 0x20 DUP4 ADD CALLDATACOPY PUSH1 0x60 DUP6 ADD MSTORE DUP3 JUMPDEST DUP2 DUP2 LT PUSH2 0xE09 JUMPI POP POP PUSH1 0x40 MLOAD PUSH4 0xC122C2A1 PUSH1 0xE0 SHL DUP2 MSTORE PUSH1 0x20 DUP2 PUSH1 0x4 DUP2 PUSH1 0x1 PUSH1 0x1 PUSH1 0xA0 SHL SUB DUP7 AND GAS STATICCALL SWAP1 DUP2 ISZERO PUSH2 0x7BD JUMPI DUP4 SWAP2 PUSH2 0xDD7 JUMPI JUMPDEST POP PUSH2 0x974 DUP2 PUSH2 0x153B JUMP JUMPDEST PUSH2 0x981 PUSH1 0x40 MLOAD SWAP2 DUP3 PUSH2 0x1505 JUMP JUMPDEST DUP2 DUP2 MSTORE PUSH1 0x1F NOT PUSH2 0x990 DUP4 PUSH2 0x153B JUMP JUMPDEST ADD DUP5 JUMPDEST DUP2 DUP2 LT PUSH2 0xDB4 JUMPI POP POP PUSH1 0x80 DUP6 ADD MSTORE DUP3 JUMPDEST DUP2 DUP2 LT PUSH2 0xD2A JUMPI POP POP PUSH1 0x40 MLOAD PUSH4 0xB9B792CD PUSH1 0xE0 SHL DUP2 MSTORE PUSH1 0x20 DUP2 PUSH1 0x4 DUP2 PUSH1 0x1 PUSH1 0x1 PUSH1 0xA0 SHL SUB DUP7 AND GAS STATICCALL SWAP1 DUP2 ISZERO PUSH2 0x7BD JUMPI DUP4 SWAP2 PUSH2 0xCF8 JUMPI JUMPDEST POP PUSH2 0x9E3 DUP2 PUSH2 0x153B JUMP JUMPDEST PUSH2 0x9F0 PUSH1 0x40 MLOAD SWAP2 DUP3 PUSH2 0x1505 JUMP JUMPDEST DUP2 DUP2 MSTORE PUSH1 0x1F NOT PUSH2 0x9FF DUP4 PUSH2 0x153B JUMP JUMPDEST ADD DUP5 JUMPDEST DUP2 DUP2 LT PUSH2 0xCD5 JUMPI POP POP PUSH1 0xA0 DUP6 ADD MSTORE DUP3 JUMPDEST DUP2 DUP2 LT PUSH2 0xC24 JUMPI POP POP PUSH1 0x40 MLOAD PUSH4 0x41B3D185 PUSH1 0xE0 SHL DUP2 MSTORE PUSH1 0x20 DUP2 PUSH1 0x4 DUP2 PUSH1 0x1 PUSH1 0x1 PUSH1 0xA0 SHL SUB DUP7 AND GAS STATICCALL SWAP1 DUP2 ISZERO PUSH2 0x7BD JUMPI DUP4 SWAP2 PUSH2 0xBF1 JUMPI JUMPDEST POP PUSH1 0xC0 DUP5 ADD MSTORE PUSH1 0x40 MLOAD PUSH4 0x3041F2CD PUSH1 0xE1 SHL DUP2 MSTORE SWAP1 PUSH1 0x20 SWAP1 DUP3 SWAP1 PUSH1 0x4 SWAP1 DUP3 SWAP1 PUSH1 0x1 PUSH1 0x1 PUSH1 0xA0 SHL SUB AND GAS STATICCALL SWAP1 DUP2 ISZERO PUSH2 0x27D JUMPI DUP3 SWAP2 PUSH2 0xBBF JUMPI JUMPDEST POP PUSH1 0xE0 DUP4 ADD MSTORE PUSH1 0x40 MLOAD SWAP1 PUSH1 0x20 DUP3 MSTORE PUSH2 0x120 DUP3 ADD SWAP1 DUP4 MLOAD ISZERO ISZERO PUSH1 0x20 DUP5 ADD MSTORE PUSH1 0x1 DUP1 PUSH1 0xA0 SHL SUB PUSH1 0x20 DUP6 ADD MLOAD AND PUSH1 0x40 DUP5 ADD MSTORE PUSH1 0x40 DUP5 ADD MLOAD PUSH1 0x60 DUP5 ADD MSTORE PUSH1 0x60 DUP5 ADD MLOAD SWAP2 PUSH2 0x100 PUSH1 0x80 DUP6 ADD MSTORE DUP3 MLOAD DUP1 SWAP2 MSTORE PUSH1 0x20 PUSH2 0x140 DUP6 ADD SWAP4 ADD SWAP1 DUP3 JUMPDEST DUP2 DUP2 LT PUSH2 0xBA9 JUMPI POP POP POP PUSH1 0x80 DUP5 ADD MLOAD SWAP2 PUSH1 0x1F NOT DUP5 DUP3 SUB ADD PUSH1 0xA0 DUP6 ADD MSTORE PUSH1 0x20 DUP1 DUP5 MLOAD SWAP3 DUP4 DUP2 MSTORE ADD SWAP4 ADD SWAP1 DUP3 JUMPDEST DUP2 DUP2 LT PUSH2 0xB7B JUMPI POP POP POP PUSH1 0xA0 DUP5 ADD MLOAD SWAP2 PUSH1 0x1F NOT DUP5 DUP3 SUB ADD PUSH1 0xC0 DUP6 ADD MSTORE PUSH1 0x20 DUP1 DUP5 MLOAD SWAP3 DUP4 DUP2 MSTORE ADD SWAP4 ADD SWAP2 JUMPDEST DUP2 DUP2 LT PUSH2 0xB4F JUMPI POP POP POP PUSH1 0xE0 DUP4 PUSH1 0xC0 DUP5 SWAP6 ADD MLOAD DUP3 DUP6 ADD MSTORE ADD MLOAD PUSH2 0x100 DUP4 ADD MSTORE SUB SWAP1 RETURN JUMPDEST SWAP1 SWAP2 SWAP3 PUSH1 0x20 PUSH2 0xB71 PUSH1 0x1 SWAP3 DUP7 MLOAD SWAP1 PUSH1 0x20 PUSH1 0x40 SWAP3 DUP1 MLOAD DUP4 MSTORE ADD MLOAD PUSH1 0x20 DUP3 ADD MSTORE ADD SWAP1 JUMP JUMPDEST SWAP5 ADD SWAP3 SWAP2 ADD PUSH2 0xB2C JUMP JUMPDEST SWAP1 SWAP2 SWAP3 SWAP4 PUSH1 0x20 PUSH2 0xB9E PUSH1 0x1 SWAP3 DUP7 MLOAD SWAP1 PUSH1 0x20 PUSH1 0x40 SWAP3 DUP1 MLOAD DUP4 MSTORE ADD MLOAD PUSH1 0x20 DUP3 ADD MSTORE ADD SWAP1 JUMP JUMPDEST SWAP6 SWAP5 ADD SWAP3 SWAP2 ADD PUSH2 0xB02 JUMP JUMPDEST DUP3 MLOAD DUP6 MSTORE PUSH1 0x20 SWAP5 DUP6 ADD SWAP5 SWAP1 SWAP3 ADD SWAP2 PUSH1 0x1 ADD PUSH2 0xAD7 JUMP JUMPDEST SWAP1 POP PUSH1 0x20 DUP2 RETURNDATASIZE PUSH1 0x20 GT PUSH2 0xBE9 JUMPI JUMPDEST DUP2 PUSH2 0xBDA PUSH1 0x20 SWAP4 DUP4 PUSH2 0x1505 JUMP JUMPDEST DUP2 ADD SUB SLT PUSH2 0x235 JUMPI MLOAD PUSH0 PUSH2 0xA7F JUMP JUMPDEST RETURNDATASIZE SWAP2 POP PUSH2 0xBCD JUMP JUMPDEST SWAP1 POP PUSH1 0x20 DUP2 RETURNDATASIZE PUSH1 0x20 GT PUSH2 0xC1C JUMPI JUMPDEST DUP2 PUSH2 0xC0C PUSH1 0x20 SWAP4 DUP4 PUSH2 0x1505 JUMP JUMPDEST DUP2 ADD SUB SLT PUSH2 0x235 JUMPI MLOAD PUSH1 0x4 PUSH2 0xA48 JUMP JUMPDEST RETURNDATASIZE SWAP2 POP PUSH2 0xBFF JUMP JUMPDEST PUSH1 0x40 DUP1 MLOAD PUSH4 0x503306FD PUSH1 0xE1 SHL DUP2 MSTORE PUSH1 0x4 DUP2 ADD DUP4 SWAP1 MSTORE SWAP1 DUP2 PUSH1 0x24 DUP2 PUSH1 0x1 PUSH1 0x1 PUSH1 0xA0 SHL SUB DUP9 AND GAS STATICCALL DUP1 ISZERO PUSH2 0xCCA JUMPI DUP3 PUSH2 0xC94 SWAP4 SWAP3 PUSH2 0xC8E SWAP3 DUP9 SWAP2 DUP10 SWAP2 PUSH2 0xC99 JUMPI JUMPDEST POP PUSH1 0x40 MLOAD SWAP2 PUSH2 0xC71 DUP4 PUSH2 0x14E9 JUMP JUMPDEST DUP3 MSTORE PUSH1 0x20 DUP3 ADD MSTORE PUSH1 0xA0 DUP10 ADD MLOAD SWAP1 PUSH2 0xC88 DUP4 DUP4 PUSH2 0x158D JUMP JUMPDEST MSTORE PUSH2 0x158D JUMP JUMPDEST POP PUSH2 0x156B JUMP JUMPDEST PUSH2 0xA12 JUMP JUMPDEST SWAP1 POP PUSH2 0xCBD SWAP2 POP PUSH1 0x40 RETURNDATASIZE PUSH1 0x40 GT PUSH2 0xCC3 JUMPI JUMPDEST PUSH2 0xCB5 DUP2 DUP4 PUSH2 0x1505 JUMP JUMPDEST DUP2 ADD SWAP1 PUSH2 0x15B5 JUMP JUMPDEST PUSH0 PUSH2 0xC63 JUMP JUMPDEST POP RETURNDATASIZE PUSH2 0xCAB JUMP JUMPDEST PUSH1 0x40 MLOAD RETURNDATASIZE DUP8 DUP3 RETURNDATACOPY RETURNDATASIZE SWAP1 REVERT JUMPDEST PUSH1 0x20 SWAP1 PUSH1 0x40 MLOAD PUSH2 0xCE4 DUP2 PUSH2 0x14E9 JUMP JUMPDEST PUSH0 DUP2 MSTORE PUSH0 DUP4 DUP3 ADD MSTORE DUP3 DUP3 DUP7 ADD ADD MSTORE ADD PUSH2 0xA02 JUMP JUMPDEST SWAP1 POP PUSH1 0x20 DUP2 RETURNDATASIZE PUSH1 0x20 GT PUSH2 0xD22 JUMPI JUMPDEST DUP2 PUSH2 0xD13 PUSH1 0x20 SWAP4 DUP4 PUSH2 0x1505 JUMP JUMPDEST DUP2 ADD SUB SLT PUSH2 0x235 JUMPI MLOAD PUSH0 PUSH2 0x9D9 JUMP JUMPDEST RETURNDATASIZE SWAP2 POP PUSH2 0xD06 JUMP JUMPDEST PUSH1 0x40 DUP1 MLOAD PUSH4 0x5350CBD9 PUSH1 0xE0 SHL DUP2 MSTORE PUSH1 0x4 DUP2 ADD DUP4 SWAP1 MSTORE SWAP1 DUP2 PUSH1 0x24 DUP2 PUSH1 0x1 PUSH1 0x1 PUSH1 0xA0 SHL SUB DUP9 AND GAS STATICCALL DUP1 ISZERO PUSH2 0xCCA JUMPI DUP3 PUSH2 0xD8E SWAP4 SWAP3 PUSH2 0xC8E SWAP3 DUP9 SWAP2 DUP10 SWAP2 PUSH2 0xD93 JUMPI JUMPDEST POP PUSH1 0x40 MLOAD SWAP2 PUSH2 0xD77 DUP4 PUSH2 0x14E9 JUMP JUMPDEST DUP3 MSTORE PUSH1 0x20 DUP3 ADD MSTORE PUSH1 0x80 DUP10 ADD MLOAD SWAP1 PUSH2 0xC88 DUP4 DUP4 PUSH2 0x158D JUMP JUMPDEST PUSH2 0x9A3 JUMP JUMPDEST SWAP1 POP PUSH2 0xDAE SWAP2 POP PUSH1 0x40 RETURNDATASIZE PUSH1 0x40 GT PUSH2 0xCC3 JUMPI PUSH2 0xCB5 DUP2 DUP4 PUSH2 0x1505 JUMP JUMPDEST PUSH0 PUSH2 0xD69 JUMP JUMPDEST PUSH1 0x20 SWAP1 PUSH1 0x40 MLOAD PUSH2 0xDC3 DUP2 PUSH2 0x14E9 JUMP JUMPDEST PUSH0 DUP2 MSTORE PUSH0 DUP4 DUP3 ADD MSTORE DUP3 DUP3 DUP7 ADD ADD MSTORE ADD PUSH2 0x993 JUMP JUMPDEST SWAP1 POP PUSH1 0x20 DUP2 RETURNDATASIZE PUSH1 0x20 GT PUSH2 0xE01 JUMPI JUMPDEST DUP2 PUSH2 0xDF2 PUSH1 0x20 SWAP4 DUP4 PUSH2 0x1505 JUMP JUMPDEST DUP2 ADD SUB SLT PUSH2 0x235 JUMPI MLOAD PUSH0 PUSH2 0x96A JUMP JUMPDEST RETURNDATASIZE SWAP2 POP PUSH2 0xDE5 JUMP JUMPDEST PUSH1 0x40 MLOAD PUSH4 0x10390D35 PUSH1 0xE0 SHL DUP2 MSTORE PUSH1 0x4 DUP2 ADD DUP3 SWAP1 MSTORE SWAP1 PUSH1 0x20 DUP3 PUSH1 0x24 DUP2 PUSH1 0x1 PUSH1 0x1 PUSH1 0xA0 SHL SUB DUP9 AND GAS STATICCALL DUP1 ISZERO PUSH2 0xCCA JUMPI DUP6 SWAP1 PUSH2 0xE5B JUMPI JUMPDEST PUSH2 0xE56 SWAP3 POP PUSH2 0xE50 DUP3 PUSH1 0x60 DUP10 ADD MLOAD PUSH2 0x158D JUMP JUMPDEST MSTORE PUSH2 0x156B JUMP JUMPDEST PUSH2 0x934 JUMP JUMPDEST POP PUSH1 0x20 DUP3 RETURNDATASIZE PUSH1 0x20 GT PUSH2 0xE87 JUMPI JUMPDEST DUP2 PUSH2 0xE75 PUSH1 0x20 SWAP4 DUP4 PUSH2 0x1505 JUMP JUMPDEST DUP2 ADD SUB SLT PUSH2 0x235 JUMPI PUSH2 0xE56 SWAP2 MLOAD PUSH2 0xE3D JUMP JUMPDEST RETURNDATASIZE SWAP2 POP PUSH2 0xE68 JUMP JUMPDEST SWAP1 POP PUSH1 0x20 DUP2 RETURNDATASIZE PUSH1 0x20 GT PUSH2 0xEB9 JUMPI JUMPDEST DUP2 PUSH2 0xEAA PUSH1 0x20 SWAP4 DUP4 PUSH2 0x1505 JUMP JUMPDEST DUP2 ADD SUB SLT PUSH2 0x235 JUMPI MLOAD PUSH0 PUSH2 0x900 JUMP JUMPDEST RETURNDATASIZE SWAP2 POP PUSH2 0xE9D JUMP JUMPDEST SWAP1 POP PUSH1 0x20 DUP2 RETURNDATASIZE PUSH1 0x20 GT PUSH2 0xEEF JUMPI JUMPDEST DUP2 PUSH2 0xEDC PUSH1 0x20 SWAP4 DUP4 PUSH2 0x1505 JUMP JUMPDEST DUP2 ADD SUB SLT PUSH2 0xEEB JUMPI MLOAD PUSH0 PUSH2 0x8CB JUMP JUMPDEST DUP3 DUP1 REVERT JUMPDEST RETURNDATASIZE SWAP2 POP PUSH2 0xECF JUMP JUMPDEST SWAP1 POP PUSH1 0x20 DUP2 RETURNDATASIZE PUSH1 0x20 GT PUSH2 0xF29 JUMPI JUMPDEST DUP2 PUSH2 0xF12 PUSH1 0x20 SWAP4 DUP4 PUSH2 0x1505 JUMP JUMPDEST DUP2 ADD SUB SLT PUSH2 0xEEB JUMPI PUSH2 0xF23 SWAP1 PUSH2 0x1527 JUMP JUMPDEST PUSH0 PUSH2 0x88F JUMP JUMPDEST RETURNDATASIZE SWAP2 POP PUSH2 0xF05 JUMP JUMPDEST PUSH2 0xF53 SWAP2 POP PUSH1 0x20 RETURNDATASIZE PUSH1 0x20 GT PUSH2 0xF59 JUMPI JUMPDEST PUSH2 0xF4B DUP2 DUP4 PUSH2 0x1505 JUMP JUMPDEST DUP2 ADD SWAP1 PUSH2 0x1553 JUMP JUMPDEST PUSH0 PUSH2 0x85D JUMP JUMPDEST POP RETURNDATASIZE PUSH2 0xF41 JUMP JUMPDEST PUSH4 0x4E487B71 PUSH1 0xE0 SHL PUSH0 MSTORE PUSH1 0x41 PUSH1 0x4 MSTORE PUSH1 0x24 PUSH0 REVERT JUMPDEST POP CALLVALUE PUSH2 0x191 JUMPI DUP1 PUSH1 0x3 NOT CALLDATASIZE ADD SLT PUSH2 0x191 JUMPI SLOAD PUSH1 0x40 MLOAD PUSH1 0x1 PUSH1 0x1 PUSH1 0xA0 SHL SUB SWAP1 SWAP2 AND DUP2 MSTORE PUSH1 0x20 SWAP1 RETURN JUMPDEST POP CALLVALUE PUSH2 0x191 JUMPI DUP1 PUSH1 0x3 NOT CALLDATASIZE ADD SLT PUSH2 0x191 JUMPI PUSH2 0xFB4 PUSH2 0x1469 JUMP JUMPDEST PUSH0 DUP1 SLOAD PUSH1 0x1 PUSH1 0x1 PUSH1 0xA0 SHL SUB NOT DUP2 AND DUP3 SSTORE PUSH1 0x1 PUSH1 0x1 PUSH1 0xA0 SHL SUB AND PUSH32 0x8BE0079C531659141344CD1FD0A4F28419497F9722A3DAAFE3B4186F6B6457E0 DUP3 DUP1 LOG3 DUP1 RETURN JUMPDEST POP CALLVALUE PUSH2 0x191 JUMPI PUSH1 0x20 CALLDATASIZE PUSH1 0x3 NOT ADD SLT PUSH2 0x191 JUMPI PUSH2 0x100E PUSH2 0x1422 JUMP JUMPDEST PUSH2 0x1016 PUSH2 0x1469 JUMP JUMPDEST PUSH1 0x1 PUSH1 0x1 PUSH1 0xA0 SHL SUB AND DUP1 ISZERO PUSH2 0x1040 JUMPI PUSH12 0xFFFFFFFFFFFFFFFFFFFFFFFF PUSH1 0xA0 SHL PUSH1 0x1 SLOAD AND OR PUSH1 0x1 SSTORE DUP1 RETURN JUMPDEST PUSH1 0x40 MLOAD PUSH3 0x461BCD PUSH1 0xE5 SHL DUP2 MSTORE PUSH1 0x20 PUSH1 0x4 DUP3 ADD MSTORE PUSH1 0x9 PUSH1 0x24 DUP3 ADD MSTORE PUSH9 0x666163746F7279203 PUSH1 0xBC SHL PUSH1 0x44 DUP3 ADD MSTORE PUSH1 0x64 SWAP1 REVERT JUMPDEST POP CALLVALUE PUSH2 0x191 JUMPI PUSH1 0x20 CALLDATASIZE PUSH1 0x3 NOT ADD SLT PUSH2 0x191 JUMPI DUP1 PUSH2 0x108C PUSH2 0x1422 JUMP JUMPDEST PUSH2 0x109C PUSH1 0xFF DUP4 SLOAD PUSH1 0xA0 SHR AND PUSH2 0x1494 JUMP JUMPDEST PUSH1 0x1 PUSH1 0x1 PUSH1 0xA0 SHL SUB AND DUP1 EXTCODESIZE ISZERO PUSH2 0x10D1 JUMPI DUP2 DUP1 SWAP2 PUSH1 0x4 PUSH1 0x40 MLOAD DUP1 SWAP5 DUP2 SWAP4 PUSH4 0xB7CFFBD PUSH1 0xE3 SHL DUP4 MSTORE GAS CALL DUP1 ISZERO PUSH2 0x27D JUMPI PUSH2 0x3B1 JUMPI POP RETURN JUMPDEST POP REVERT JUMPDEST POP CALLVALUE PUSH2 0x191 JUMPI DUP1 PUSH1 0x3 NOT CALLDATASIZE ADD SLT PUSH2 0x191 JUMPI PUSH1 0xFF PUSH1 0x20 SWAP2 SLOAD PUSH1 0xA0 SHR AND PUSH1 0x40 MLOAD SWAP1 ISZERO ISZERO DUP2 MSTORE RETURN JUMPDEST POP CALLVALUE PUSH2 0x191 JUMPI PUSH1 0x20 CALLDATASIZE PUSH1 0x3 NOT ADD SLT PUSH2 0x191 JUMPI DUP1 PUSH2 0x1114 PUSH2 0x1422 JUMP JUMPDEST PUSH2 0x1124 PUSH1 0xFF DUP4 SLOAD PUSH1 0xA0 SHR AND PUSH2 0x1494 JUMP JUMPDEST PUSH1 0x1 PUSH1 0x1 PUSH1 0xA0 SHL SUB AND DUP1 EXTCODESIZE ISZERO PUSH2 0x10D1 JUMPI DUP2 DUP1 SWAP2 PUSH1 0x4 PUSH1 0x40 MLOAD DUP1 SWAP5 DUP2 SWAP4 PUSH4 0x86D1A69F PUSH1 0xE0 SHL DUP4 MSTORE GAS CALL DUP1 ISZERO PUSH2 0x27D JUMPI PUSH2 0x3B1 JUMPI POP RETURN JUMPDEST POP CALLVALUE PUSH2 0x191 JUMPI PUSH1 0x60 CALLDATASIZE PUSH1 0x3 NOT ADD SLT PUSH2 0x191 JUMPI PUSH2 0x1173 PUSH2 0x1422 JUMP JUMPDEST SWAP1 PUSH1 0x24 CALLDATALOAD PUSH2 0x1187 PUSH1 0xFF DUP4 SLOAD PUSH1 0xA0 SHR AND PUSH2 0x1494 JUMP JUMPDEST PUSH1 0x40 MLOAD PUSH4 0x7E062A35 PUSH1 0xE1 SHL DUP2 MSTORE PUSH1 0x20 SWAP4 PUSH1 0x1 PUSH1 0x1 PUSH1 0xA0 SHL SUB SWAP1 DUP2 AND SWAP3 SWAP2 DUP6 DUP2 PUSH1 0x4 DUP2 DUP8 GAS STATICCALL SWAP1 DUP2 ISZERO PUSH2 0xCCA JUMPI DUP6 SWAP2 PUSH2 0x12DF JUMPI JUMPDEST POP AND PUSH1 0x40 MLOAD PUSH4 0x23B872DD PUSH1 0xE0 SHL DUP2 MSTORE CALLER PUSH1 0x4 DUP3 ADD MSTORE ADDRESS PUSH1 0x24 DUP3 ADD MSTORE DUP3 PUSH1 0x44 DUP3 ADD MSTORE DUP6 DUP2 PUSH1 0x64 DUP2 DUP9 DUP7 GAS CALL SWAP1 DUP2 ISZERO PUSH2 0xCCA JUMPI DUP6 SWAP2 PUSH2 0x12C2 JUMPI JUMPDEST POP ISZERO PUSH2 0x1287 JUMPI SWAP4 DUP4 DUP2 DUP2 SWAP7 PUSH1 0x44 PUSH1 0x40 MLOAD DUP1 SWAP5 DUP2 SWAP4 PUSH4 0x95EA7B3 PUSH1 0xE0 SHL DUP4 MSTORE DUP10 PUSH1 0x4 DUP5 ADD MSTORE DUP9 PUSH1 0x24 DUP5 ADD MSTORE GAS CALL DUP1 ISZERO PUSH2 0xCCA JUMPI PUSH2 0x1269 JUMPI JUMPDEST POP POP DUP2 EXTCODESIZE ISZERO PUSH2 0x1265 JUMPI DUP3 SWAP2 PUSH1 0x44 DUP4 SWAP3 PUSH1 0x40 MLOAD SWAP5 DUP6 SWAP4 DUP5 SWAP3 PUSH4 0x7B0472F PUSH1 0xE4 SHL DUP5 MSTORE PUSH1 0x4 DUP5 ADD MSTORE DUP4 CALLDATALOAD PUSH1 0x24 DUP5 ADD MSTORE GAS CALL DUP1 ISZERO PUSH2 0x27D JUMPI PUSH2 0x3B1 JUMPI POP RETURN JUMPDEST POP POP REVERT JUMPDEST DUP2 PUSH2 0x127F SWAP3 SWAP1 RETURNDATASIZE LT PUSH2 0xF59 JUMPI PUSH2 0xF4B DUP2 DUP4 PUSH2 0x1505 JUMP JUMPDEST POP PUSH0 DUP1 PUSH2 0x1229 JUMP JUMPDEST PUSH1 0x40 MLOAD PUSH3 0x461BCD PUSH1 0xE5 SHL DUP2 MSTORE PUSH1 0x4 DUP2 ADD DUP7 SWAP1 MSTORE PUSH1 0x13 PUSH1 0x24 DUP3 ADD MSTORE PUSH19 0x1D1C985B9CD9995C919C9BDB4819985A5B1959 PUSH1 0x6A SHL PUSH1 0x44 DUP3 ADD MSTORE PUSH1 0x64 SWAP1 REVERT JUMPDEST PUSH2 0x12D9 SWAP2 POP DUP7 RETURNDATASIZE DUP9 GT PUSH2 0xF59 JUMPI PUSH2 0xF4B DUP2 DUP4 PUSH2 0x1505 JUMP JUMPDEST PUSH0 PUSH2 0x11F2 JUMP JUMPDEST SWAP1 POP DUP6 DUP2 DUP2 RETURNDATASIZE DUP4 GT PUSH2 0x130D JUMPI JUMPDEST PUSH2 0x12F6 DUP2 DUP4 PUSH2 0x1505 JUMP JUMPDEST DUP2 ADD SUB SLT PUSH2 0x68B JUMPI PUSH2 0x1307 SWAP1 PUSH2 0x1527 JUMP JUMPDEST PUSH0 PUSH2 0x11BA JUMP JUMPDEST POP RETURNDATASIZE PUSH2 0x12EC JUMP JUMPDEST POP CALLVALUE PUSH2 0x191 JUMPI PUSH1 0x40 CALLDATASIZE PUSH1 0x3 NOT ADD SLT PUSH2 0x191 JUMPI PUSH2 0x132E PUSH2 0x1469 JUMP JUMPDEST PUSH1 0x1 SLOAD DUP2 SWAP1 PUSH1 0x1 PUSH1 0x1 PUSH1 0xA0 SHL SUB AND DUP1 EXTCODESIZE ISZERO PUSH2 0x10D1 JUMPI DUP2 SWAP1 PUSH1 0x44 PUSH1 0x40 MLOAD DUP1 SWAP5 DUP2 SWAP4 PUSH3 0x2DE3E7 PUSH1 0xE6 SHL DUP4 MSTORE PUSH1 0x4 CALLDATALOAD PUSH1 0x4 DUP5 ADD MSTORE PUSH1 0x24 CALLDATALOAD PUSH1 0x24 DUP5 ADD MSTORE GAS CALL DUP1 ISZERO PUSH2 0x27D JUMPI PUSH2 0x1377 JUMPI POP DUP1 RETURN JUMPDEST PUSH2 0x1380 SWAP1 PUSH2 0x14D5 JUMP JUMPDEST DUP1 RETURN JUMPDEST SWAP1 POP CALLVALUE PUSH2 0x1416 JUMPI PUSH1 0x40 CALLDATASIZE PUSH1 0x3 NOT ADD SLT PUSH2 0x1416 JUMPI PUSH2 0x139E PUSH2 0x1422 JUMP JUMPDEST PUSH1 0x1 PUSH1 0x1 PUSH1 0xA0 SHL SUB PUSH1 0x24 CALLDATALOAD DUP2 DUP2 AND SWAP3 SWAP1 DUP4 SWAP1 SUB PUSH2 0x68B JUMPI DUP4 DUP1 SWAP3 PUSH1 0x24 SWAP3 PUSH1 0x20 SWAP6 PUSH4 0x18E521FD PUSH1 0xE2 SHL DUP5 MSTORE PUSH1 0x4 DUP5 ADD MSTORE AND GAS STATICCALL SWAP1 DUP2 ISZERO PUSH2 0x27D JUMPI DUP3 SWAP2 PUSH2 0x13E9 JUMPI JUMPDEST PUSH1 0x20 DUP3 PUSH1 0x40 MLOAD SWAP1 DUP2 MSTORE RETURN JUMPDEST SWAP1 POP PUSH1 0x20 DUP2 RETURNDATASIZE DUP3 GT PUSH2 0x141A JUMPI JUMPDEST DUP2 PUSH2 0x1403 PUSH1 0x20 SWAP4 DUP4 PUSH2 0x1505 JUMP JUMPDEST DUP2 ADD SUB SLT PUSH2 0x1416 JUMPI PUSH1 0x20 SWAP2 POP MLOAD PUSH0 PUSH2 0x13DE JUMP JUMPDEST POP DUP1 REVERT JUMPDEST RETURNDATASIZE SWAP2 POP PUSH2 0x13F6 JUMP JUMPDEST PUSH1 0x4 CALLDATALOAD SWAP1 PUSH1 0x1 PUSH1 0x1 PUSH1 0xA0 SHL SUB DUP3 AND DUP3 SUB PUSH2 0x235 JUMPI JUMP JUMPDEST SWAP2 DUP2 PUSH1 0x1F DUP5 ADD SLT ISZERO PUSH2 0x235 JUMPI DUP3 CALLDATALOAD SWAP2 PUSH8 0xFFFFFFFFFFFFFFFF DUP4 GT PUSH2 0x235 JUMPI PUSH1 0x20 DUP1 DUP6 ADD SWAP5 DUP5 PUSH1 0x6 SHL ADD ADD GT PUSH2 0x235 JUMPI JUMP JUMPDEST PUSH0 SLOAD PUSH1 0x1 PUSH1 0x1 PUSH1 0xA0 SHL SUB AND CALLER SUB PUSH2 0x147C JUMPI JUMP JUMPDEST PUSH1 0x40 MLOAD PUSH4 0x118CDAA7 PUSH1 0xE0 SHL DUP2 MSTORE CALLER PUSH1 0x4 DUP3 ADD MSTORE PUSH1 0x24 SWAP1 REVERT JUMPDEST ISZERO PUSH2 0x149B JUMPI JUMP JUMPDEST PUSH1 0x40 MLOAD PUSH3 0x461BCD PUSH1 0xE5 SHL DUP2 MSTORE PUSH1 0x20 PUSH1 0x4 DUP3 ADD MSTORE PUSH1 0x12 PUSH1 0x24 DUP3 ADD MSTORE PUSH18 0x149BDD5D195C881A5CC8191A5CD8589B1959 PUSH1 0x72 SHL PUSH1 0x44 DUP3 ADD MSTORE PUSH1 0x64 SWAP1 REVERT JUMPDEST PUSH8 0xFFFFFFFFFFFFFFFF DUP2 GT PUSH2 0xF60 JUMPI PUSH1 0x40 MSTORE JUMP JUMPDEST PUSH1 0x40 DUP2 ADD SWAP1 DUP2 LT PUSH8 0xFFFFFFFFFFFFFFFF DUP3 GT OR PUSH2 0xF60 JUMPI PUSH1 0x40 MSTORE JUMP JUMPDEST SWAP1 PUSH1 0x1F DUP1 NOT SWAP2 ADD AND DUP2 ADD SWAP1 DUP2 LT PUSH8 0xFFFFFFFFFFFFFFFF DUP3 GT OR PUSH2 0xF60 JUMPI PUSH1 0x40 MSTORE JUMP JUMPDEST MLOAD SWAP1 PUSH1 0x1 PUSH1 0x1 PUSH1 0xA0 SHL SUB DUP3 AND DUP3 SUB PUSH2 0x235 JUMPI JUMP JUMPDEST PUSH8 0xFFFFFFFFFFFFFFFF DUP2 GT PUSH2 0xF60 JUMPI PUSH1 0x5 SHL PUSH1 0x20 ADD SWAP1 JUMP JUMPDEST SWAP1 DUP2 PUSH1 0x20 SWAP2 SUB SLT PUSH2 0x235 JUMPI MLOAD DUP1 ISZERO ISZERO DUP2 SUB PUSH2 0x235 JUMPI SWAP1 JUMP JUMPDEST PUSH0 NOT DUP2 EQ PUSH2 0x1579 JUMPI PUSH1 0x1 ADD SWAP1 JUMP JUMPDEST PUSH4 0x4E487B71 PUSH1 0xE0 SHL PUSH0 MSTORE PUSH1 0x11 PUSH1 0x4 MSTORE PUSH1 0x24 PUSH0 REVERT JUMPDEST DUP1 MLOAD DUP3 LT ISZERO PUSH2 0x15A1 JUMPI PUSH1 0x20 SWAP2 PUSH1 0x5 SHL ADD ADD SWAP1 JUMP JUMPDEST PUSH4 0x4E487B71 PUSH1 0xE0 SHL PUSH0 MSTORE PUSH1 0x32 PUSH1 0x4 MSTORE PUSH1 0x24 PUSH0 REVERT JUMPDEST SWAP2 SWAP1 DUP3 PUSH1 0x40 SWAP2 SUB SLT PUSH2 0x235 JUMPI PUSH1 0x20 DUP3 MLOAD SWAP3 ADD MLOAD SWAP1 JUMP INVALID LOG2 PUSH5 0x6970667358 0x22 SLT KECCAK256 0x4F SWAP12 EXTCODESIZE CODECOPY SWAP9 SWAP8 DUP6 CHAINID SWAP6 MULMOD PUSH13 0xCC28AA9D3087B497A8EEC9EB89 MSTORE8 DUP12 0xE6 0xB8 SELFBALANCE XOR JUMP 0x4A PUSH5 0x736F6C6343 STOP ADDMOD EQ STOP CALLER "
		},
		"gasEstimates": {
			"creation": {
				"codeDepositCost": "1126600",
				"executionCost": "infinite",
				"totalCost": "infinite"
			},
			"external": {
				"closeVault(address)": "infinite",
				"createVault(address,uint256,uint256,int256,uint256[],(uint256,uint256)[],(uint256,uint256)[])": "infinite",
				"disableRouter()": "26922",
				"enableRouter()": "26822",
				"factory()": "2619",
				"getAllVaults()": "infinite",
				"getFactory()": "2465",
				"getFees()": "infinite",
				"getProtocol()": "infinite",
				"getVaultByToken(address)": "infinite",
				"getVaultInfo(address)": "infinite",
				"getXP(address,address)": "infinite",
				"isRouterEnabled()": "2371",
				"owner()": "2484",
				"release(address)": "infinite",
				"releaseAll(address)": "infinite",
				"renounceOwnership()": "28216",
				"setFactory(address)": "26766",
				"setFees(uint256,uint256)": "infinite",
				"stake(address,uint256,uint256)": "infinite",
				"transferOwnership(address)": "28593"
			}
		},
		"methodIdentifiers": {
			"closeVault(address)": "c99cb2b7",
			"createVault(address,uint256,uint256,int256,uint256[],(uint256,uint256)[],(uint256,uint256)[])": "a444477b",
			"disableRouter()": "d858a7e5",
			"enableRouter()": "b0f07f15",
			"factory()": "c45a0155",
			"getAllVaults()": "97331bf9",
			"getFactory()": "88cc58e4",
			"getFees()": "db8d55f1",
			"getProtocol()": "d16352af",
			"getVaultByToken(address)": "b1e3a941",
			"getVaultInfo(address)": "90229af7",
			"getXP(address,address)": "05e2e95d",
			"isRouterEnabled()": "55197241",
			"owner()": "8da5cb5b",
			"release(address)": "19165587",
			"releaseAll(address)": "580fc80a",
			"renounceOwnership()": "715018a6",
			"setFactory(address)": "5bb47808",
			"setFees(uint256,uint256)": "0b78f9c0",
			"stake(address,uint256,uint256)": "0c51b88f",
			"transferOwnership(address)": "f2fde38b"
		}
	},
	"abi": [
		{
			"inputs": [
				{
					"internalType": "address",
					"name": "_factory",
					"type": "address"
				},
				{
					"internalType": "address",
					"name": "_protocol",
					"type": "address"
				}
			],
			"stateMutability": "nonpayable",
			"type": "constructor"
		},
		{
			"inputs": [
				{
					"internalType": "address",
					"name": "owner",
					"type": "address"
				}
			],
			"name": "OwnableInvalidOwner",
			"type": "error"
		},
		{
			"inputs": [
				{
					"internalType": "address",
					"name": "account",
					"type": "address"
				}
			],
			"name": "OwnableUnauthorizedAccount",
			"type": "error"
		},
		{
			"anonymous": false,
			"inputs": [
				{
					"indexed": true,
					"internalType": "address",
					"name": "previousOwner",
					"type": "address"
				},
				{
					"indexed": true,
					"internalType": "address",
					"name": "newOwner",
					"type": "address"
				}
			],
			"name": "OwnershipTransferred",
			"type": "event"
		},
		{
			"inputs": [
				{
					"internalType": "address",
					"name": "vaultAddr",
					"type": "address"
				}
			],
			"name": "closeVault",
			"outputs": [],
			"stateMutability": "nonpayable",
			"type": "function"
		},
		{
			"inputs": [
				{
					"internalType": "address",
					"name": "token",
					"type": "address"
				},
				{
					"internalType": "uint256",
					"name": "minDeposit",
					"type": "uint256"
				},
				{
					"internalType": "uint256",
					"name": "maxDeposit",
					"type": "uint256"
				},
				{
					"internalType": "int256",
					"name": "xpRate",
					"type": "int256"
				},
				{
					"internalType": "uint256[]",
					"name": "presetTimes",
					"type": "uint256[]"
				},
				{
					"components": [
						{
							"internalType": "uint256",
							"name": "minBlocks",
							"type": "uint256"
						},
						{
							"internalType": "uint256",
							"name": "multiplierBP",
							"type": "uint256"
						}
					],
					"internalType": "struct IVaultFactory.TimeMultiplierIn[]",
					"name": "timeMultipliers",
					"type": "tuple[]"
				},
				{
					"components": [
						{
							"internalType": "uint256",
							"name": "minAmount",
							"type": "uint256"
						},
						{
							"internalType": "uint256",
							"name": "multiplierBP",
							"type": "uint256"
						}
					],
					"internalType": "struct IVaultFactory.AmountMultiplierIn[]",
					"name": "amountMultipliers",
					"type": "tuple[]"
				}
			],
			"name": "createVault",
			"outputs": [
				{
					"internalType": "address",
					"name": "vaultAddr",
					"type": "address"
				}
			],
			"stateMutability": "nonpayable",
			"type": "function"
		},
		{
			"inputs": [],
			"name": "disableRouter",
			"outputs": [],
			"stateMutability": "nonpayable",
			"type": "function"
		},
		{
			"inputs": [],
			"name": "enableRouter",
			"outputs": [],
			"stateMutability": "nonpayable",
			"type": "function"
		},
		{
			"inputs": [],
			"name": "factory",
			"outputs": [
				{
					"internalType": "address",
					"name": "",
					"type": "address"
				}
			],
			"stateMutability": "view",
			"type": "function"
		},
		{
			"inputs": [],
			"name": "getAllVaults",
			"outputs": [
				{
					"internalType": "address[]",
					"name": "",
					"type": "address[]"
				}
			],
			"stateMutability": "view",
			"type": "function"
		},
		{
			"inputs": [],
			"name": "getFactory",
			"outputs": [
				{
					"internalType": "address",
					"name": "",
					"type": "address"
				}
			],
			"stateMutability": "view",
			"type": "function"
		},
		{
			"inputs": [],
			"name": "getFees",
			"outputs": [
				{
					"internalType": "uint256",
					"name": "protocolFeeBP",
					"type": "uint256"
				},
				{
					"internalType": "uint256",
					"name": "callerFeeBP",
					"type": "uint256"
				}
			],
			"stateMutability": "view",
			"type": "function"
		},
		{
			"inputs": [],
			"name": "getProtocol",
			"outputs": [
				{
					"internalType": "address",
					"name": "",
					"type": "address"
				}
			],
			"stateMutability": "view",
			"type": "function"
		},
		{
			"inputs": [
				{
					"internalType": "address",
					"name": "token",
					"type": "address"
				}
			],
			"name": "getVaultByToken",
			"outputs": [
				{
					"internalType": "address",
					"name": "",
					"type": "address"
				}
			],
			"stateMutability": "view",
			"type": "function"
		},
		{
			"inputs": [
				{
					"internalType": "address",
					"name": "vault",
					"type": "address"
				}
			],
			"name": "getVaultInfo",
			"outputs": [
				{
					"components": [
						{
							"internalType": "bool",
							"name": "isActive",
							"type": "bool"
						},
						{
							"internalType": "address",
							"name": "token",
							"type": "address"
						},
						{
							"internalType": "int256",
							"name": "xpRate",
							"type": "int256"
						},
						{
							"internalType": "uint256[]",
							"name": "presetTimes",
							"type": "uint256[]"
						},
						{
							"components": [
								{
									"internalType": "uint256",
									"name": "minBlocks",
									"type": "uint256"
								},
								{
									"internalType": "uint256",
									"name": "multiplierBP",
									"type": "uint256"
								}
							],
							"internalType": "struct IVaultFactory.TimeMultiplierIn[]",
							"name": "timeMultipliers",
							"type": "tuple[]"
						},
						{
							"components": [
								{
									"internalType": "uint256",
									"name": "minAmount",
									"type": "uint256"
								},
								{
									"internalType": "uint256",
									"name": "multiplierBP",
									"type": "uint256"
								}
							],
							"internalType": "struct IVaultFactory.AmountMultiplierIn[]",
							"name": "amountMultipliers",
							"type": "tuple[]"
						},
						{
							"internalType": "uint256",
							"name": "minDeposit",
							"type": "uint256"
						},
						{
							"internalType": "uint256",
							"name": "maxDeposit",
							"type": "uint256"
						}
					],
					"internalType": "struct YunaVaultRouter.VaultInfo",
					"name": "info",
					"type": "tuple"
				}
			],
			"stateMutability": "view",
			"type": "function"
		},
		{
			"inputs": [
				{
					"internalType": "address",
					"name": "vault",
					"type": "address"
				},
				{
					"internalType": "address",
					"name": "holder",
					"type": "address"
				}
			],
			"name": "getXP",
			"outputs": [
				{
					"internalType": "uint256",
					"name": "",
					"type": "uint256"
				}
			],
			"stateMutability": "view",
			"type": "function"
		},
		{
			"inputs": [],
			"name": "isRouterEnabled",
			"outputs": [
				{
					"internalType": "bool",
					"name": "",
					"type": "bool"
				}
			],
			"stateMutability": "view",
			"type": "function"
		},
		{
			"inputs": [],
			"name": "owner",
			"outputs": [
				{
					"internalType": "address",
					"name": "",
					"type": "address"
				}
			],
			"stateMutability": "view",
			"type": "function"
		},
		{
			"inputs": [
				{
					"internalType": "address",
					"name": "vault",
					"type": "address"
				}
			],
			"name": "release",
			"outputs": [],
			"stateMutability": "nonpayable",
			"type": "function"
		},
		{
			"inputs": [
				{
					"internalType": "address",
					"name": "vault",
					"type": "address"
				}
			],
			"name": "releaseAll",
			"outputs": [],
			"stateMutability": "nonpayable",
			"type": "function"
		},
		{
			"inputs": [],
			"name": "renounceOwnership",
			"outputs": [],
			"stateMutability": "nonpayable",
			"type": "function"
		},
		{
			"inputs": [
				{
					"internalType": "address",
					"name": "_factory",
					"type": "address"
				}
			],
			"name": "setFactory",
			"outputs": [],
			"stateMutability": "nonpayable",
			"type": "function"
		},
		{
			"inputs": [
				{
					"internalType": "uint256",
					"name": "protocolFeeBP",
					"type": "uint256"
				},
				{
					"internalType": "uint256",
					"name": "callerFeeBP",
					"type": "uint256"
				}
			],
			"name": "setFees",
			"outputs": [],
			"stateMutability": "nonpayable",
			"type": "function"
		},
		{
			"inputs": [
				{
					"internalType": "address",
					"name": "vault",
					"type": "address"
				},
				{
					"internalType": "uint256",
					"name": "amount",
					"type": "uint256"
				},
				{
					"internalType": "uint256",
					"name": "blocksToStake",
					"type": "uint256"
				}
			],
			"name": "stake",
			"outputs": [],
			"stateMutability": "nonpayable",
			"type": "function"
		},
		{
			"inputs": [
				{
					"internalType": "address",
					"name": "newOwner",
					"type": "address"
				}
			],
			"name": "transferOwnership",
			"outputs": [],
			"stateMutability": "nonpayable",
			"type": "function"
		}
	]
}