{
	"data": {
		"bytecode": {
			"linkReferences": {},
			"object": "61014060405234620004b3576200231b803803806200001e81620004cc565b928339610120828281010312620004b3576200003a82620004f2565b906200004960208401620004f2565b926200005860408201620004f2565b6060820151608083015160a084015160c0850151979092906001600160401b038911620004b357868601601f8a8801011215620004b3578886015195620000a9620000a38862000507565b620004cc565b9660208882815201809b8a840160208460051b838701010111620004b35790602082850101915b60208460051b82870101018310620004b7575050505060e08101516001600160401b038111620004b3578101888201601f82011215620004b3576200011f90898301906020815191016200051f565b6101008201519098906001600160401b038111620004b357820190808301601f83011215620004b3576200015b9201906020815191016200051f565b60015f8190556004805461ffff19169091179055976001600160a01b038082161562000481578216156200045257838311620004235760805260c05260e052610100526101205260a052516001600160401b0381116200026c5768010000000000000000938482116200026c5760015482600155808310620003dc575b5060015f5260205f205f5b838110620003c757505050505f5b81518110156200028057620002078183620005d6565b51906002805492868410156200026c5760018401808355841015620002585762000252936200024c925f5260205f209060011b01906020600191805184550151910155565b620005b3565b620001f1565b634e487b7160e01b5f52603260045260245ffd5b634e487b7160e01b5f52604160045260245ffd5b50505f5b8151811015620002e5576200029a8183620005d6565b51906003805492858410156200026c57600184018083558410156200025857620002df936200024c925f5260205f209060011b01906020600191805184550151910155565b62000284565b604051611d2f9081620005ec82396080518181816102960152818161083501528181610a9d01528181610c310152818161104601526113c5015260a0518181816101ef0152818161069a01528181610bd5015281816112b501528181611435015281816116c30152611977015260c05181818161035b0152818161097201528181610a6401528181610abe01528181610b3001528181611135015281816112450152818161127801526115ec015260e0518181816102e5015261132e01526101005181818161062a0152610fd30152610120518181816114b10152611aaa0152f35b600190602084519401938184015501620001e3565b60015f527fb10e2d527612073b26eecdfd717e6a320cf44b4afac2b0732d9fcbe2b7fa0cf69081019083015b818110620004175750620001d8565b5f815560010162000408565b60405162461bcd60e51b81526020600482015260076024820152660dad2dc7cdac2f60cb1b6044820152606490fd5b60405162461bcd60e51b81526020600482015260076024820152660746f6b656e20360cc1b6044820152606490fd5b60405162461bcd60e51b815260206004820152600a602482015269070726f746f636f6c20360b41b6044820152606490fd5b5f80fd5b602080809385518152019301929150620000d0565b6040519190601f01601f191682016001600160401b038111838210176200026c57604052565b51906001600160a01b0382168203620004b357565b6001600160401b0381116200026c5760051b60200190565b90929162000531620000a38562000507565b938085526020918286019160061b840193818511620004b357915b8483106200055b575050505050565b60408084840312620004b357805180820192906001600160401b038411818510176200059f576040938793528551815282860151838201528152019201916200054c565b60245f634e487b7160e01b81526041600452fd5b5f198114620005c25760010190565b634e487b7160e01b5f52601160045260245ffd5b8051821015620002585760209160051b01019056fe6080806040526004361015610012575f80fd5b5f3560e01c90816302fb0c5e146114d457508063094b81d31461149a57806310390d351461147157806318976fa2146113a857806322f3e2d41461136e578063359cfbf71461135157806341b3d185146113175780635350cbd9146112ee578063580fc80a1461101b578063597e1fb514610ff65780636083e59a14610fbc578063639487f414610de55780636a5908a014610d9c5780636b53503a14610d245780636c4470fb14610c60578063703bafd5146101665780638ce7442614610c1c57806396d8ef8e146107fe57806399fbab8814610793578063a0660dfa14610756578063a547afe01461072a578063ac55deb6146106d3578063b1b0ebcc14610258578063b9b792cd1461023b578063c122c2a11461021e578063c45a0155146101da578063cba02476146101b2578063d6887bfa14610195578063db8d55f11461016b5763fc0c546a14610166575f80fd5b6115d7565b34610191575f366003190112610191576040610185611964565b82519182526020820152f35b5f80fd5b34610191575f366003190112610191576020600554604051908152f35b346101915760203660031901126101915760206101d0600435611754565b6040519015158152f35b34610191575f366003190112610191576040517f00000000000000000000000000000000000000000000000000000000000000006001600160a01b03168152602090f35b34610191575f366003190112610191576020600254604051908152f35b34610191575f366003190112610191576020600354604051908152f35b34610191576060366003190112610191576001600160a01b036044803582811691600435916024803592909185900361019157610293611816565b857f000000000000000000000000000000000000000000000000000000000000000016331480156106c1575b8015610696575b6102cf9061179b565b60045460ff81169081610687575b5015610651577f000000000000000000000000000000000000000000000000000000000000000084101580610627575b156105ed5782156105bf5761032183611754565b156105875761038090604051906323b872dd60e01b6020830152338483015230908201528460648201526064815261035881611653565b867f00000000000000000000000000000000000000000000000000000000000000001661186a565b61038a82436117d7565b946040519161039883611653565b858352602083019285845260408101974389526060820190815260808201985f8a5260055494600160401b9586811015610574578060016103dc920160055561161b565b9490946105625751845491166001600160a01b03199182161784559551600184015551600283015551600382015596516004909701805460ff1990811698151560ff169890981790556005545f1981019790881161054e57865f5260066020526104498860405f206117f1565b865f52600960205260405f2090815460ff8116156104aa575b89897f9cfd25589d1eb8ad71e342a86a8524e83522e3936c0803048c08f6d9ad974f4060608b6104928c436117d7565b6040519182524360208301526040820152a360015f55005b1660011790556008549182101561053b576001820180600855821015610528575060085f527ff3f7a9fe364faab93b216da50a3214154f22a0a2b415b23a84c8169e8b636ee3018054909116841790558161049260607f9cfd25589d1eb8ad71e342a86a8524e83522e3936c0803048c08f6d9ad974f408880610462565b634e487b7160e01b5f9081526032600452fd5b634e487b7160e01b5f9081526041600452fd5b50634e487b7160e01b5f9081526011600452fd5b85634e487b7160e01b5f525f6004525ffd5b85634e487b7160e01b5f5260416004525ffd5b90711c1c995cd95d081b9bdd08185b1b1bddd95960721b60649260126040519362461bcd60e51b855260206004860152840152820152fd5b90670626c6f636b733e360c41b60649260086040519362461bcd60e51b855260206004860152840152820152fd5b9073616d6f756e74206f7574206f6620626f756e647360601b60649260146040519362461bcd60e51b855260206004860152840152820152fd5b507f000000000000000000000000000000000000000000000000000000000000000084111561030d565b906f7661756c74206e6f742061637469766560801b60649260106040519362461bcd60e51b855260206004860152840152820152fd5b60ff915060081c1615876102dd565b50337f00000000000000000000000000000000000000000000000000000000000000008716146102c6565b50856106cb6116a5565b1633146102bf565b34610191576040366003190112610191576106ec6115c1565b6001600160a01b03165f908152600760205260409020805460243591908210156101915760209161071c9161153c565b90546040519160031b1c8152f35b34610191575f3660031901126101915760206107446116a5565b6040516001600160a01b039091168152f35b34610191576020366003190112610191576004356003548110156101915761077f604091611589565b506001815491015482519182526020820152f35b3461019157602036600319011261019157600435600554811015610191576107bc60a09161161b565b50600180831b0381541690600181015490600281015460ff60046003840154930154169260405194855260208501526040840152606083015215156080820152f35b34610191576040366003190112610191576108176115c1565b6024356001600160a01b038116900361019157610832611816565b337f00000000000000000000000000000000000000000000000000000000000000006001600160a01b0316148015610c03575b8015610bd1575b6108759061179b565b61087d611964565b6001600160a01b0383165f9081526006602052604081209293909291905b8254841015610bcb576108ae848461153c565b9054906108bf828260031b1c61161b565b50600381015443109060048101549160ff81818516159182610baa575b505015610b9557906109f6949392916001809360ff1916176004830155155f14610b135761092f906024356001600160a01b03908116908816148015610b03578b935b82015493612710938491866118c4565b04926109458d61093f86886117e4565b966118c4565b045f9115610af1575b80610a97575b5080610a5b575b5080546109979084906001600160a01b03908116907f000000000000000000000000000000000000000000000000000000000000000016611914565b60018060a01b039054169060405192835260208301527f7b381718bec1e0dbc1241809ee9b55f3d783b95880307f002707fad981fa50696040858560031b1c93a35b60018060a01b0384165f52600760205260031b1c60405f206117f1565b82545f198101908111610a4757610a10610a39918561153c565b90549060031b1c610a21868661153c565b90919082549060031b91821b915f19901b1916179055565b610a42836118d7565b61089b565b634e487b7160e01b5f52601160045260245ffd5b610a91906024357f00000000000000000000000000000000000000000000000000000000000000006001600160a01b0316611914565b8b61095b565b610aeb907f00000000000000000000000000000000000000000000000000000000000000007f00000000000000000000000000000000000000000000000000000000000000006001600160a01b0316611914565b8c610954565b9050610afd81846117e4565b9061094e565b610b0d898d6117d7565b9361091f565b908101548154909190610b559083906001600160a01b03908116907f000000000000000000000000000000000000000000000000000000000000000016611914565b60018060a01b039054166040519182527fbaea19541010bad0070d3e9eba7d614e4f22a90d557eb4b70272d33a32793a076020858560031b1c93a36109d9565b505050505092610ba490611746565b9261089b565b8115925090610bbc575b50818c6108dc565b905060045460081c168b610bb4565b60015f55005b50337f00000000000000000000000000000000000000000000000000000000000000006001600160a01b03161461086c565b506001600160a01b03610c146116a5565b163314610865565b34610191575f366003190112610191576040517f00000000000000000000000000000000000000000000000000000000000000006001600160a01b03168152602090f35b34610191575f36600319011261019157604051806008548083526020809301809160085f527ff3f7a9fe364faab93b216da50a3214154f22a0a2b415b23a84c8169e8b636ee3905f5b86828210610d07578686610cbf82880383611683565b60405192839281840190828552518091526040840192915f5b828110610ce757505050500390f35b83516001600160a01b031685528695509381019392810192600101610cd8565b83546001600160a01b031685529093019260019283019201610ca9565b3461019157608036600319011261019157610d3d6115c1565b606435801515810361019157610d5a916044359060243590611c0e565b60405180916020808301818452825180915281604085019301915f5b828110610d8557505050500390f35b835185528695509381019392810192600101610d76565b3461019157604036600319011261019157610db56115c1565b6001600160a01b03165f908152600660205260409020805460243591908210156101915760209161071c9161153c565b346101915760208060031936011261019157610dff6115c1565b6001600160a01b03165f818152600683526040808220905181548082529183528483209094929391859081850190865b86828210610fa657505050610e4692500385611683565b5f526007815260405f20916040518084848296549384815201905f52845f20925f5b86828210610f9057505050610e7f92500384611683565b5f905b8451821015610f1e57610ea7610ea1610e9b8488611a49565b5161161b565b50611a5d565b606081018481514381115f14610f195750435b604084019081519081811115610f095792610eef610efd9693610ee5610f03999794610ef7976117e4565b93519051906117e4565b920151611aa7565b906117d7565b91611746565b90610e82565b50505050505090610f0390611746565b610eba565b5f9291505b8351831015610f8857610f3c610ea1610e9b8587611a49565b606081015160408201519081811115610f7b5784610f6f93610f65610f759694610ef7946117e4565b9182910151611aa7565b92611746565b91610f23565b50505091610f7590611746565b604051908152f35b8554845260019586019589955093019201610e68565b855484526001958601958a955093019201610e2f565b34610191575f3660031901126101915760206040517f00000000000000000000000000000000000000000000000000000000000000008152f35b34610191575f36600319011261019157602060ff60045460081c166040519015158152f35b34610191576020366003190112610191576110346115c1565b61103c611816565b6001600160a01b037f0000000000000000000000000000000000000000000000000000000000000000338282161480156112dc575b80156112b1575b6110819061179b565b61109461108c611964565b8192916117d7565b905f5b600554811015610bcb576110aa8161161b565b5060048101805460ff811615806112a3575b6110d2575b5050506110cd90611746565b611097565b9060018895979498939260ff9a979a1916179055600181015487612710806110fa8c856118c4565b04906111108a61110a84876117e4565b956118c4565b0461111b81836117e4565b9080611270575b508061123d575b5061115a8386865416877f000000000000000000000000000000000000000000000000000000000000000016611914565b7f7b381718bec1e0dbc1241809ee9b55f3d783b95880307f002707fad981fa506960408686541694859382519182526020820152a35f5260076020526111a38760405f206117f1565b54165f52600660205260405f20955f5b87548082101561122c57876111c8838b61153c565b919054600392831b1c146111e65750506111e190611746565b6111b3565b5f99919294979598939699198301928311610a47576110cd94610a2161121f92611213611224968661153c565b9054911b1c918461153c565b6118d7565b9087806110c1565b50509295509290936110cd90611224565b61126a9089877f000000000000000000000000000000000000000000000000000000000000000016611914565b8b611129565b61129d9088887f000000000000000000000000000000000000000000000000000000000000000016611914565b8c611122565b5060038301544310156110bc565b50337f0000000000000000000000000000000000000000000000000000000000000000831614611078565b50816112e66116a5565b163314611071565b34610191576020366003190112610191576004356002548110156101915761077f604091611551565b34610191575f3660031901126101915760206040517f00000000000000000000000000000000000000000000000000000000000000008152f35b34610191575f366003190112610191576020600154604051908152f35b34610191575f36600319011261019157602060045460ff81169081611399575b506040519015158152f35b60ff915060081c16158261138e565b34610191575f366003190112610191576113fc60018060a01b03807f000000000000000000000000000000000000000000000000000000000000000016331490811561145d575b8115611431575b5061179b565b61010061ffff1960045416176004557fdf23397ab444d891935a0b305b1552fb235d2bd07043ffc42c6ed3f43a4d83525f80a1005b90507f0000000000000000000000000000000000000000000000000000000000000000163314826113f6565b8091506114686116a5565b163314906113ef565b34610191576020366003190112610191576004356001548110156101915761071c6020916114f3565b34610191575f3660031901126101915760206040517f00000000000000000000000000000000000000000000000000000000000000008152f35b34610191575f3660031901126101915760209060ff6004541615158152f35b6001548110156115285760015f527fb10e2d527612073b26eecdfd717e6a320cf44b4afac2b0732d9fcbe2b7fa0cf601905f90565b634e487b7160e01b5f52603260045260245ffd5b8054821015611528575f5260205f2001905f90565b6002548110156115285760025f5260011b7f405787fa12a823e0f2b7631cc41b3ba8828b3321ca811111fa75cd3aa3bb5ace01905f90565b6003548110156115285760035f5260011b7fc2575a0e9e593c00f959f8c92f12db2869c3395a3b0502d05e2516446f71f85b01905f90565b600435906001600160a01b038216820361019157565b34610191575f366003190112610191576040517f00000000000000000000000000000000000000000000000000000000000000006001600160a01b03168152602090f35b60055481101561152857600590815f52027f036b6384b5eca791c62761152d0c79bb0604c104a5fb6f4eb0703f3154bb3db001905f90565b60a0810190811067ffffffffffffffff82111761166f57604052565b634e487b7160e01b5f52604160045260245ffd5b90601f8019910116810190811067ffffffffffffffff82111761166f57604052565b604051637cc7003560e11b81526001600160a01b03906020816004817f000000000000000000000000000000000000000000000000000000000000000086165afa90811561173b575f916116fa575b50905090565b6020813d8211611733575b8161171260209383611683565b8101031261172f5751918216820361172c5750805f6116f4565b80fd5b5080fd5b3d9150611705565b6040513d5f823e3d90fd5b5f198114610a475760010190565b600180549182156116f4575f5b83811061177057505050505f90565b8161177a826114f3565b90549060031b1c146117945761178f90611746565b611761565b5050905090565b156117a257565b60405162461bcd60e51b815260206004820152600d60248201526c1bdb9b1e481c1c9bdd1bd8dbdb609a1b6044820152606490fd5b91908201809211610a4757565b91908203918211610a4757565b90815491600160401b83101561166f5782610a219160016118149501815561153c565b565b60025f54146118255760025f55565b60405162461bcd60e51b815260206004820152601f60248201527f5265656e7472616e637947756172643a207265656e7472616e742063616c6c006044820152606490fd5b905f602091828151910182855af11561173b575f513d6118bb57506001600160a01b0381163b155b6118995750565b604051635274afe760e01b81526001600160a01b039091166004820152602490fd5b60011415611892565b81810292918115918404141715610a4757565b8054908115611900575f19918201916118f0838361153c565b909182549160031b1b1916905555565b634e487b7160e01b5f52603160045260245ffd5b60405163a9059cbb60e01b60208201526001600160a01b039092166024830152604480830193909352918152608081019167ffffffffffffffff83118284101761166f576118149260405261186a565b6040516318bf741760e31b8152602091907f00000000000000000000000000000000000000000000000000000000000000006001600160a01b0316908381600481855afa91821561173b5784915f93611a16575b5060405163f25e78b160e01b81529190829060049082905afa93841561173b575f946119e5575b50509190565b8181959293953d8311611a0f575b6119fd8183611683565b8101031261172c575051915f806119df565b503d6119f3565b9182819492943d8311611a42575b611a2e8183611683565b8101031261172c57505190839060046119b8565b503d611a24565b80518210156115285760209160051b010190565b90604051611a6a81611653565b82546001600160a01b0316815260018301546020820152600283015460408201526003830154606082015260049092015460ff1615156080830152565b907f00000000000000000000000000000000000000000000000000000000000000005f808212611ba75750611adf611ae492846118c4565b6118c4565b90915b612710905f600254915b828210611b66575b505050612710905f600354945b858210611b2f575b50506127109350611b24611b2b939285926118c4565b04906118c4565b0490565b9092611b3a84611589565b50548210611b605750611b5a6001611b5185611589565b50015493611746565b90611b06565b92611b0e565b9091949392611b7483611551565b50548210611b9f5750611b946001611b8b84611551565b50015492611746565b909491929394611af1565b929394611af9565b91600160ff1b8214611be257611bbd90846118c4565b918115611bce570390049091611ae7565b634e487b7160e01b81526012600452602490fd5b634e487b7160e01b83526011600452602483fd5b67ffffffffffffffff811161166f5760051b60200190565b9093925f9015611cdd57506001600160a01b03165f908152600660205260409020925b83549182821015611cd457611c4690826117d7565b91808311611ccc575b50611c5a81836117e4565b611c6381611bf6565b90611c716040519283611683565b808252611c80601f1991611bf6565b013660208301378094825b848110611c99575050505050565b80611ca7611cc7928461153c565b90549060031b1c611cc1611cbb87846117e4565b86611a49565b52611746565b611c8b565b91505f611c4f565b50606093505050565b6001600160a01b03909116815260076020526040902092611c3156fea26469706673582212200e10172939bd548cd10b4af3d39c9472b0beed4e9ffb7c67e789e6eb93ac36b964736f6c63430008140033",
			"opcodes": "PUSH2 0x140 PUSH1 0x40 MSTORE CALLVALUE PUSH3 0x4B3 JUMPI PUSH3 0x231B DUP1 CODESIZE SUB DUP1 PUSH3 0x1E DUP2 PUSH3 0x4CC JUMP JUMPDEST SWAP3 DUP4 CODECOPY PUSH2 0x120 DUP3 DUP3 DUP2 ADD SUB SLT PUSH3 0x4B3 JUMPI PUSH3 0x3A DUP3 PUSH3 0x4F2 JUMP JUMPDEST SWAP1 PUSH3 0x49 PUSH1 0x20 DUP5 ADD PUSH3 0x4F2 JUMP JUMPDEST SWAP3 PUSH3 0x58 PUSH1 0x40 DUP3 ADD PUSH3 0x4F2 JUMP JUMPDEST PUSH1 0x60 DUP3 ADD MLOAD PUSH1 0x80 DUP4 ADD MLOAD PUSH1 0xA0 DUP5 ADD MLOAD PUSH1 0xC0 DUP6 ADD MLOAD SWAP8 SWAP1 SWAP3 SWAP1 PUSH1 0x1 PUSH1 0x1 PUSH1 0x40 SHL SUB DUP10 GT PUSH3 0x4B3 JUMPI DUP7 DUP7 ADD PUSH1 0x1F DUP11 DUP9 ADD ADD SLT ISZERO PUSH3 0x4B3 JUMPI DUP9 DUP7 ADD MLOAD SWAP6 PUSH3 0xA9 PUSH3 0xA3 DUP9 PUSH3 0x507 JUMP JUMPDEST PUSH3 0x4CC JUMP JUMPDEST SWAP7 PUSH1 0x20 DUP9 DUP3 DUP2 MSTORE ADD DUP1 SWAP12 DUP11 DUP5 ADD PUSH1 0x20 DUP5 PUSH1 0x5 SHL DUP4 DUP8 ADD ADD ADD GT PUSH3 0x4B3 JUMPI SWAP1 PUSH1 0x20 DUP3 DUP6 ADD ADD SWAP2 JUMPDEST PUSH1 0x20 DUP5 PUSH1 0x5 SHL DUP3 DUP8 ADD ADD ADD DUP4 LT PUSH3 0x4B7 JUMPI POP POP POP POP PUSH1 0xE0 DUP2 ADD MLOAD PUSH1 0x1 PUSH1 0x1 PUSH1 0x40 SHL SUB DUP2 GT PUSH3 0x4B3 JUMPI DUP2 ADD DUP9 DUP3 ADD PUSH1 0x1F DUP3 ADD SLT ISZERO PUSH3 0x4B3 JUMPI PUSH3 0x11F SWAP1 DUP10 DUP4 ADD SWAP1 PUSH1 0x20 DUP2 MLOAD SWAP2 ADD PUSH3 0x51F JUMP JUMPDEST PUSH2 0x100 DUP3 ADD MLOAD SWAP1 SWAP9 SWAP1 PUSH1 0x1 PUSH1 0x1 PUSH1 0x40 SHL SUB DUP2 GT PUSH3 0x4B3 JUMPI DUP3 ADD SWAP1 DUP1 DUP4 ADD PUSH1 0x1F DUP4 ADD SLT ISZERO PUSH3 0x4B3 JUMPI PUSH3 0x15B SWAP3 ADD SWAP1 PUSH1 0x20 DUP2 MLOAD SWAP2 ADD PUSH3 0x51F JUMP JUMPDEST PUSH1 0x1 PUSH0 DUP2 SWAP1 SSTORE PUSH1 0x4 DUP1 SLOAD PUSH2 0xFFFF NOT AND SWAP1 SWAP2 OR SWAP1 SSTORE SWAP8 PUSH1 0x1 PUSH1 0x1 PUSH1 0xA0 SHL SUB DUP1 DUP3 AND ISZERO PUSH3 0x481 JUMPI DUP3 AND ISZERO PUSH3 0x452 JUMPI DUP4 DUP4 GT PUSH3 0x423 JUMPI PUSH1 0x80 MSTORE PUSH1 0xC0 MSTORE PUSH1 0xE0 MSTORE PUSH2 0x100 MSTORE PUSH2 0x120 MSTORE PUSH1 0xA0 MSTORE MLOAD PUSH1 0x1 PUSH1 0x1 PUSH1 0x40 SHL SUB DUP2 GT PUSH3 0x26C JUMPI PUSH9 0x10000000000000000 SWAP4 DUP5 DUP3 GT PUSH3 0x26C JUMPI PUSH1 0x1 SLOAD DUP3 PUSH1 0x1 SSTORE DUP1 DUP4 LT PUSH3 0x3DC JUMPI JUMPDEST POP PUSH1 0x1 PUSH0 MSTORE PUSH1 0x20 PUSH0 KECCAK256 PUSH0 JUMPDEST DUP4 DUP2 LT PUSH3 0x3C7 JUMPI POP POP POP POP PUSH0 JUMPDEST DUP2 MLOAD DUP2 LT ISZERO PUSH3 0x280 JUMPI PUSH3 0x207 DUP2 DUP4 PUSH3 0x5D6 JUMP JUMPDEST MLOAD SWAP1 PUSH1 0x2 DUP1 SLOAD SWAP3 DUP7 DUP5 LT ISZERO PUSH3 0x26C JUMPI PUSH1 0x1 DUP5 ADD DUP1 DUP4 SSTORE DUP5 LT ISZERO PUSH3 0x258 JUMPI PUSH3 0x252 SWAP4 PUSH3 0x24C SWAP3 PUSH0 MSTORE PUSH1 0x20 PUSH0 KECCAK256 SWAP1 PUSH1 0x1 SHL ADD SWAP1 PUSH1 0x20 PUSH1 0x1 SWAP2 DUP1 MLOAD DUP5 SSTORE ADD MLOAD SWAP2 ADD SSTORE JUMP JUMPDEST PUSH3 0x5B3 JUMP JUMPDEST PUSH3 0x1F1 JUMP JUMPDEST PUSH4 0x4E487B71 PUSH1 0xE0 SHL PUSH0 MSTORE PUSH1 0x32 PUSH1 0x4 MSTORE PUSH1 0x24 PUSH0 REVERT JUMPDEST PUSH4 0x4E487B71 PUSH1 0xE0 SHL PUSH0 MSTORE PUSH1 0x41 PUSH1 0x4 MSTORE PUSH1 0x24 PUSH0 REVERT JUMPDEST POP POP PUSH0 JUMPDEST DUP2 MLOAD DUP2 LT ISZERO PUSH3 0x2E5 JUMPI PUSH3 0x29A DUP2 DUP4 PUSH3 0x5D6 JUMP JUMPDEST MLOAD SWAP1 PUSH1 0x3 DUP1 SLOAD SWAP3 DUP6 DUP5 LT ISZERO PUSH3 0x26C JUMPI PUSH1 0x1 DUP5 ADD DUP1 DUP4 SSTORE DUP5 LT ISZERO PUSH3 0x258 JUMPI PUSH3 0x2DF SWAP4 PUSH3 0x24C SWAP3 PUSH0 MSTORE PUSH1 0x20 PUSH0 KECCAK256 SWAP1 PUSH1 0x1 SHL ADD SWAP1 PUSH1 0x20 PUSH1 0x1 SWAP2 DUP1 MLOAD DUP5 SSTORE ADD MLOAD SWAP2 ADD SSTORE JUMP JUMPDEST PUSH3 0x284 JUMP JUMPDEST PUSH1 0x40 MLOAD PUSH2 0x1D2F SWAP1 DUP2 PUSH3 0x5EC DUP3 CODECOPY PUSH1 0x80 MLOAD DUP2 DUP2 DUP2 PUSH2 0x296 ADD MSTORE DUP2 DUP2 PUSH2 0x835 ADD MSTORE DUP2 DUP2 PUSH2 0xA9D ADD MSTORE DUP2 DUP2 PUSH2 0xC31 ADD MSTORE DUP2 DUP2 PUSH2 0x1046 ADD MSTORE PUSH2 0x13C5 ADD MSTORE PUSH1 0xA0 MLOAD DUP2 DUP2 DUP2 PUSH2 0x1EF ADD MSTORE DUP2 DUP2 PUSH2 0x69A ADD MSTORE DUP2 DUP2 PUSH2 0xBD5 ADD MSTORE DUP2 DUP2 PUSH2 0x12B5 ADD MSTORE DUP2 DUP2 PUSH2 0x1435 ADD MSTORE DUP2 DUP2 PUSH2 0x16C3 ADD MSTORE PUSH2 0x1977 ADD MSTORE PUSH1 0xC0 MLOAD DUP2 DUP2 DUP2 PUSH2 0x35B ADD MSTORE DUP2 DUP2 PUSH2 0x972 ADD MSTORE DUP2 DUP2 PUSH2 0xA64 ADD MSTORE DUP2 DUP2 PUSH2 0xABE ADD MSTORE DUP2 DUP2 PUSH2 0xB30 ADD MSTORE DUP2 DUP2 PUSH2 0x1135 ADD MSTORE DUP2 DUP2 PUSH2 0x1245 ADD MSTORE DUP2 DUP2 PUSH2 0x1278 ADD MSTORE PUSH2 0x15EC ADD MSTORE PUSH1 0xE0 MLOAD DUP2 DUP2 DUP2 PUSH2 0x2E5 ADD MSTORE PUSH2 0x132E ADD MSTORE PUSH2 0x100 MLOAD DUP2 DUP2 DUP2 PUSH2 0x62A ADD MSTORE PUSH2 0xFD3 ADD MSTORE PUSH2 0x120 MLOAD DUP2 DUP2 DUP2 PUSH2 0x14B1 ADD MSTORE PUSH2 0x1AAA ADD MSTORE RETURN JUMPDEST PUSH1 0x1 SWAP1 PUSH1 0x20 DUP5 MLOAD SWAP5 ADD SWAP4 DUP2 DUP5 ADD SSTORE ADD PUSH3 0x1E3 JUMP JUMPDEST PUSH1 0x1 PUSH0 MSTORE PUSH32 0xB10E2D527612073B26EECDFD717E6A320CF44B4AFAC2B0732D9FCBE2B7FA0CF6 SWAP1 DUP2 ADD SWAP1 DUP4 ADD JUMPDEST DUP2 DUP2 LT PUSH3 0x417 JUMPI POP PUSH3 0x1D8 JUMP JUMPDEST PUSH0 DUP2 SSTORE PUSH1 0x1 ADD PUSH3 0x408 JUMP JUMPDEST PUSH1 0x40 MLOAD PUSH3 0x461BCD PUSH1 0xE5 SHL DUP2 MSTORE PUSH1 0x20 PUSH1 0x4 DUP3 ADD MSTORE PUSH1 0x7 PUSH1 0x24 DUP3 ADD MSTORE PUSH7 0xDAD2DC7CDAC2F PUSH1 0xCB SHL PUSH1 0x44 DUP3 ADD MSTORE PUSH1 0x64 SWAP1 REVERT JUMPDEST PUSH1 0x40 MLOAD PUSH3 0x461BCD PUSH1 0xE5 SHL DUP2 MSTORE PUSH1 0x20 PUSH1 0x4 DUP3 ADD MSTORE PUSH1 0x7 PUSH1 0x24 DUP3 ADD MSTORE PUSH7 0x746F6B656E203 PUSH1 0xCC SHL PUSH1 0x44 DUP3 ADD MSTORE PUSH1 0x64 SWAP1 REVERT JUMPDEST PUSH1 0x40 MLOAD PUSH3 0x461BCD PUSH1 0xE5 SHL DUP2 MSTORE PUSH1 0x20 PUSH1 0x4 DUP3 ADD MSTORE PUSH1 0xA PUSH1 0x24 DUP3 ADD MSTORE PUSH10 0x70726F746F636F6C203 PUSH1 0xB4 SHL PUSH1 0x44 DUP3 ADD MSTORE PUSH1 0x64 SWAP1 REVERT JUMPDEST PUSH0 DUP1 REVERT JUMPDEST PUSH1 0x20 DUP1 DUP1 SWAP4 DUP6 MLOAD DUP2 MSTORE ADD SWAP4 ADD SWAP3 SWAP2 POP PUSH3 0xD0 JUMP JUMPDEST PUSH1 0x40 MLOAD SWAP2 SWAP1 PUSH1 0x1F ADD PUSH1 0x1F NOT AND DUP3 ADD PUSH1 0x1 PUSH1 0x1 PUSH1 0x40 SHL SUB DUP2 GT DUP4 DUP3 LT OR PUSH3 0x26C JUMPI PUSH1 0x40 MSTORE JUMP JUMPDEST MLOAD SWAP1 PUSH1 0x1 PUSH1 0x1 PUSH1 0xA0 SHL SUB DUP3 AND DUP3 SUB PUSH3 0x4B3 JUMPI JUMP JUMPDEST PUSH1 0x1 PUSH1 0x1 PUSH1 0x40 SHL SUB DUP2 GT PUSH3 0x26C JUMPI PUSH1 0x5 SHL PUSH1 0x20 ADD SWAP1 JUMP JUMPDEST SWAP1 SWAP3 SWAP2 PUSH3 0x531 PUSH3 0xA3 DUP6 PUSH3 0x507 JUMP JUMPDEST SWAP4 DUP1 DUP6 MSTORE PUSH1 0x20 SWAP2 DUP3 DUP7 ADD SWAP2 PUSH1 0x6 SHL DUP5 ADD SWAP4 DUP2 DUP6 GT PUSH3 0x4B3 JUMPI SWAP2 JUMPDEST DUP5 DUP4 LT PUSH3 0x55B JUMPI POP POP POP POP POP JUMP JUMPDEST PUSH1 0x40 DUP1 DUP5 DUP5 SUB SLT PUSH3 0x4B3 JUMPI DUP1 MLOAD DUP1 DUP3 ADD SWAP3 SWAP1 PUSH1 0x1 PUSH1 0x1 PUSH1 0x40 SHL SUB DUP5 GT DUP2 DUP6 LT OR PUSH3 0x59F JUMPI PUSH1 0x40 SWAP4 DUP8 SWAP4 MSTORE DUP6 MLOAD DUP2 MSTORE DUP3 DUP7 ADD MLOAD DUP4 DUP3 ADD MSTORE DUP2 MSTORE ADD SWAP3 ADD SWAP2 PUSH3 0x54C JUMP JUMPDEST PUSH1 0x24 PUSH0 PUSH4 0x4E487B71 PUSH1 0xE0 SHL DUP2 MSTORE PUSH1 0x41 PUSH1 0x4 MSTORE REVERT JUMPDEST PUSH0 NOT DUP2 EQ PUSH3 0x5C2 JUMPI PUSH1 0x1 ADD SWAP1 JUMP JUMPDEST PUSH4 0x4E487B71 PUSH1 0xE0 SHL PUSH0 MSTORE PUSH1 0x11 PUSH1 0x4 MSTORE PUSH1 0x24 PUSH0 REVERT JUMPDEST DUP1 MLOAD DUP3 LT ISZERO PUSH3 0x258 JUMPI PUSH1 0x20 SWAP2 PUSH1 0x5 SHL ADD ADD SWAP1 JUMP INVALID PUSH1 0x80 DUP1 PUSH1 0x40 MSTORE PUSH1 0x4 CALLDATASIZE LT ISZERO PUSH2 0x12 JUMPI PUSH0 DUP1 REVERT JUMPDEST PUSH0 CALLDATALOAD PUSH1 0xE0 SHR SWAP1 DUP2 PUSH4 0x2FB0C5E EQ PUSH2 0x14D4 JUMPI POP DUP1 PUSH4 0x94B81D3 EQ PUSH2 0x149A JUMPI DUP1 PUSH4 0x10390D35 EQ PUSH2 0x1471 JUMPI DUP1 PUSH4 0x18976FA2 EQ PUSH2 0x13A8 JUMPI DUP1 PUSH4 0x22F3E2D4 EQ PUSH2 0x136E JUMPI DUP1 PUSH4 0x359CFBF7 EQ PUSH2 0x1351 JUMPI DUP1 PUSH4 0x41B3D185 EQ PUSH2 0x1317 JUMPI DUP1 PUSH4 0x5350CBD9 EQ PUSH2 0x12EE JUMPI DUP1 PUSH4 0x580FC80A EQ PUSH2 0x101B JUMPI DUP1 PUSH4 0x597E1FB5 EQ PUSH2 0xFF6 JUMPI DUP1 PUSH4 0x6083E59A EQ PUSH2 0xFBC JUMPI DUP1 PUSH4 0x639487F4 EQ PUSH2 0xDE5 JUMPI DUP1 PUSH4 0x6A5908A0 EQ PUSH2 0xD9C JUMPI DUP1 PUSH4 0x6B53503A EQ PUSH2 0xD24 JUMPI DUP1 PUSH4 0x6C4470FB EQ PUSH2 0xC60 JUMPI DUP1 PUSH4 0x703BAFD5 EQ PUSH2 0x166 JUMPI DUP1 PUSH4 0x8CE74426 EQ PUSH2 0xC1C JUMPI DUP1 PUSH4 0x96D8EF8E EQ PUSH2 0x7FE JUMPI DUP1 PUSH4 0x99FBAB88 EQ PUSH2 0x793 JUMPI DUP1 PUSH4 0xA0660DFA EQ PUSH2 0x756 JUMPI DUP1 PUSH4 0xA547AFE0 EQ PUSH2 0x72A JUMPI DUP1 PUSH4 0xAC55DEB6 EQ PUSH2 0x6D3 JUMPI DUP1 PUSH4 0xB1B0EBCC EQ PUSH2 0x258 JUMPI DUP1 PUSH4 0xB9B792CD EQ PUSH2 0x23B JUMPI DUP1 PUSH4 0xC122C2A1 EQ PUSH2 0x21E JUMPI DUP1 PUSH4 0xC45A0155 EQ PUSH2 0x1DA JUMPI DUP1 PUSH4 0xCBA02476 EQ PUSH2 0x1B2 JUMPI DUP1 PUSH4 0xD6887BFA EQ PUSH2 0x195 JUMPI DUP1 PUSH4 0xDB8D55F1 EQ PUSH2 0x16B JUMPI PUSH4 0xFC0C546A EQ PUSH2 0x166 JUMPI PUSH0 DUP1 REVERT JUMPDEST PUSH2 0x15D7 JUMP JUMPDEST CALLVALUE PUSH2 0x191 JUMPI PUSH0 CALLDATASIZE PUSH1 0x3 NOT ADD SLT PUSH2 0x191 JUMPI PUSH1 0x40 PUSH2 0x185 PUSH2 0x1964 JUMP JUMPDEST DUP3 MLOAD SWAP2 DUP3 MSTORE PUSH1 0x20 DUP3 ADD MSTORE RETURN JUMPDEST PUSH0 DUP1 REVERT JUMPDEST CALLVALUE PUSH2 0x191 JUMPI PUSH0 CALLDATASIZE PUSH1 0x3 NOT ADD SLT PUSH2 0x191 JUMPI PUSH1 0x20 PUSH1 0x5 SLOAD PUSH1 0x40 MLOAD SWAP1 DUP2 MSTORE RETURN JUMPDEST CALLVALUE PUSH2 0x191 JUMPI PUSH1 0x20 CALLDATASIZE PUSH1 0x3 NOT ADD SLT PUSH2 0x191 JUMPI PUSH1 0x20 PUSH2 0x1D0 PUSH1 0x4 CALLDATALOAD PUSH2 0x1754 JUMP JUMPDEST PUSH1 0x40 MLOAD SWAP1 ISZERO ISZERO DUP2 MSTORE RETURN JUMPDEST CALLVALUE PUSH2 0x191 JUMPI PUSH0 CALLDATASIZE PUSH1 0x3 NOT ADD SLT PUSH2 0x191 JUMPI PUSH1 0x40 MLOAD PUSH32 0x0 PUSH1 0x1 PUSH1 0x1 PUSH1 0xA0 SHL SUB AND DUP2 MSTORE PUSH1 0x20 SWAP1 RETURN JUMPDEST CALLVALUE PUSH2 0x191 JUMPI PUSH0 CALLDATASIZE PUSH1 0x3 NOT ADD SLT PUSH2 0x191 JUMPI PUSH1 0x20 PUSH1 0x2 SLOAD PUSH1 0x40 MLOAD SWAP1 DUP2 MSTORE RETURN JUMPDEST CALLVALUE PUSH2 0x191 JUMPI PUSH0 CALLDATASIZE PUSH1 0x3 NOT ADD SLT PUSH2 0x191 JUMPI PUSH1 0x20 PUSH1 0x3 SLOAD PUSH1 0x40 MLOAD SWAP1 DUP2 MSTORE RETURN JUMPDEST CALLVALUE PUSH2 0x191 JUMPI PUSH1 0x60 CALLDATASIZE PUSH1 0x3 NOT ADD SLT PUSH2 0x191 JUMPI PUSH1 0x1 PUSH1 0x1 PUSH1 0xA0 SHL SUB PUSH1 0x44 DUP1 CALLDATALOAD DUP3 DUP2 AND SWAP2 PUSH1 0x4 CALLDATALOAD SWAP2 PUSH1 0x24 DUP1 CALLDATALOAD SWAP3 SWAP1 SWAP2 DUP6 SWAP1 SUB PUSH2 0x191 JUMPI PUSH2 0x293 PUSH2 0x1816 JUMP JUMPDEST DUP6 PUSH32 0x0 AND CALLER EQ DUP1 ISZERO PUSH2 0x6C1 JUMPI JUMPDEST DUP1 ISZERO PUSH2 0x696 JUMPI JUMPDEST PUSH2 0x2CF SWAP1 PUSH2 0x179B JUMP JUMPDEST PUSH1 0x4 SLOAD PUSH1 0xFF DUP2 AND SWAP1 DUP2 PUSH2 0x687 JUMPI JUMPDEST POP ISZERO PUSH2 0x651 JUMPI PUSH32 0x0 DUP5 LT ISZERO DUP1 PUSH2 0x627 JUMPI JUMPDEST ISZERO PUSH2 0x5ED JUMPI DUP3 ISZERO PUSH2 0x5BF JUMPI PUSH2 0x321 DUP4 PUSH2 0x1754 JUMP JUMPDEST ISZERO PUSH2 0x587 JUMPI PUSH2 0x380 SWAP1 PUSH1 0x40 MLOAD SWAP1 PUSH4 0x23B872DD PUSH1 0xE0 SHL PUSH1 0x20 DUP4 ADD MSTORE CALLER DUP5 DUP4 ADD MSTORE ADDRESS SWAP1 DUP3 ADD MSTORE DUP5 PUSH1 0x64 DUP3 ADD MSTORE PUSH1 0x64 DUP2 MSTORE PUSH2 0x358 DUP2 PUSH2 0x1653 JUMP JUMPDEST DUP7 PUSH32 0x0 AND PUSH2 0x186A JUMP JUMPDEST PUSH2 0x38A DUP3 NUMBER PUSH2 0x17D7 JUMP JUMPDEST SWAP5 PUSH1 0x40 MLOAD SWAP2 PUSH2 0x398 DUP4 PUSH2 0x1653 JUMP JUMPDEST DUP6 DUP4 MSTORE PUSH1 0x20 DUP4 ADD SWAP3 DUP6 DUP5 MSTORE PUSH1 0x40 DUP2 ADD SWAP8 NUMBER DUP10 MSTORE PUSH1 0x60 DUP3 ADD SWAP1 DUP2 MSTORE PUSH1 0x80 DUP3 ADD SWAP9 PUSH0 DUP11 MSTORE PUSH1 0x5 SLOAD SWAP5 PUSH1 0x1 PUSH1 0x40 SHL SWAP6 DUP7 DUP2 LT ISZERO PUSH2 0x574 JUMPI DUP1 PUSH1 0x1 PUSH2 0x3DC SWAP3 ADD PUSH1 0x5 SSTORE PUSH2 0x161B JUMP JUMPDEST SWAP5 SWAP1 SWAP5 PUSH2 0x562 JUMPI MLOAD DUP5 SLOAD SWAP2 AND PUSH1 0x1 PUSH1 0x1 PUSH1 0xA0 SHL SUB NOT SWAP2 DUP3 AND OR DUP5 SSTORE SWAP6 MLOAD PUSH1 0x1 DUP5 ADD SSTORE MLOAD PUSH1 0x2 DUP4 ADD SSTORE MLOAD PUSH1 0x3 DUP3 ADD SSTORE SWAP7 MLOAD PUSH1 0x4 SWAP1 SWAP8 ADD DUP1 SLOAD PUSH1 0xFF NOT SWAP1 DUP2 AND SWAP9 ISZERO ISZERO PUSH1 0xFF AND SWAP9 SWAP1 SWAP9 OR SWAP1 SSTORE PUSH1 0x5 SLOAD PUSH0 NOT DUP2 ADD SWAP8 SWAP1 DUP9 GT PUSH2 0x54E JUMPI DUP7 PUSH0 MSTORE PUSH1 0x6 PUSH1 0x20 MSTORE PUSH2 0x449 DUP9 PUSH1 0x40 PUSH0 KECCAK256 PUSH2 0x17F1 JUMP JUMPDEST DUP7 PUSH0 MSTORE PUSH1 0x9 PUSH1 0x20 MSTORE PUSH1 0x40 PUSH0 KECCAK256 SWAP1 DUP2 SLOAD PUSH1 0xFF DUP2 AND ISZERO PUSH2 0x4AA JUMPI JUMPDEST DUP10 DUP10 PUSH32 0x9CFD25589D1EB8AD71E342A86A8524E83522E3936C0803048C08F6D9AD974F40 PUSH1 0x60 DUP12 PUSH2 0x492 DUP13 NUMBER PUSH2 0x17D7 JUMP JUMPDEST PUSH1 0x40 MLOAD SWAP2 DUP3 MSTORE NUMBER PUSH1 0x20 DUP4 ADD MSTORE PUSH1 0x40 DUP3 ADD MSTORE LOG3 PUSH1 0x1 PUSH0 SSTORE STOP JUMPDEST AND PUSH1 0x1 OR SWAP1 SSTORE PUSH1 0x8 SLOAD SWAP2 DUP3 LT ISZERO PUSH2 0x53B JUMPI PUSH1 0x1 DUP3 ADD DUP1 PUSH1 0x8 SSTORE DUP3 LT ISZERO PUSH2 0x528 JUMPI POP PUSH1 0x8 PUSH0 MSTORE PUSH32 0xF3F7A9FE364FAAB93B216DA50A3214154F22A0A2B415B23A84C8169E8B636EE3 ADD DUP1 SLOAD SWAP1 SWAP2 AND DUP5 OR SWAP1 SSTORE DUP2 PUSH2 0x492 PUSH1 0x60 PUSH32 0x9CFD25589D1EB8AD71E342A86A8524E83522E3936C0803048C08F6D9AD974F40 DUP9 DUP1 PUSH2 0x462 JUMP JUMPDEST PUSH4 0x4E487B71 PUSH1 0xE0 SHL PUSH0 SWAP1 DUP2 MSTORE PUSH1 0x32 PUSH1 0x4 MSTORE REVERT JUMPDEST PUSH4 0x4E487B71 PUSH1 0xE0 SHL PUSH0 SWAP1 DUP2 MSTORE PUSH1 0x41 PUSH1 0x4 MSTORE REVERT JUMPDEST POP PUSH4 0x4E487B71 PUSH1 0xE0 SHL PUSH0 SWAP1 DUP2 MSTORE PUSH1 0x11 PUSH1 0x4 MSTORE REVERT JUMPDEST DUP6 PUSH4 0x4E487B71 PUSH1 0xE0 SHL PUSH0 MSTORE PUSH0 PUSH1 0x4 MSTORE PUSH0 REVERT JUMPDEST DUP6 PUSH4 0x4E487B71 PUSH1 0xE0 SHL PUSH0 MSTORE PUSH1 0x41 PUSH1 0x4 MSTORE PUSH0 REVERT JUMPDEST SWAP1 PUSH18 0x1C1C995CD95D081B9BDD08185B1B1BDDD959 PUSH1 0x72 SHL PUSH1 0x64 SWAP3 PUSH1 0x12 PUSH1 0x40 MLOAD SWAP4 PUSH3 0x461BCD PUSH1 0xE5 SHL DUP6 MSTORE PUSH1 0x20 PUSH1 0x4 DUP7 ADD MSTORE DUP5 ADD MSTORE DUP3 ADD MSTORE REVERT JUMPDEST SWAP1 PUSH8 0x626C6F636B733E3 PUSH1 0xC4 SHL PUSH1 0x64 SWAP3 PUSH1 0x8 PUSH1 0x40 MLOAD SWAP4 PUSH3 0x461BCD PUSH1 0xE5 SHL DUP6 MSTORE PUSH1 0x20 PUSH1 0x4 DUP7 ADD MSTORE DUP5 ADD MSTORE DUP3 ADD MSTORE REVERT JUMPDEST SWAP1 PUSH20 0x616D6F756E74206F7574206F6620626F756E6473 PUSH1 0x60 SHL PUSH1 0x64 SWAP3 PUSH1 0x14 PUSH1 0x40 MLOAD SWAP4 PUSH3 0x461BCD PUSH1 0xE5 SHL DUP6 MSTORE PUSH1 0x20 PUSH1 0x4 DUP7 ADD MSTORE DUP5 ADD MSTORE DUP3 ADD MSTORE REVERT JUMPDEST POP PUSH32 0x0 DUP5 GT ISZERO PUSH2 0x30D JUMP JUMPDEST SWAP1 PUSH16 0x7661756C74206E6F7420616374697665 PUSH1 0x80 SHL PUSH1 0x64 SWAP3 PUSH1 0x10 PUSH1 0x40 MLOAD SWAP4 PUSH3 0x461BCD PUSH1 0xE5 SHL DUP6 MSTORE PUSH1 0x20 PUSH1 0x4 DUP7 ADD MSTORE DUP5 ADD MSTORE DUP3 ADD MSTORE REVERT JUMPDEST PUSH1 0xFF SWAP2 POP PUSH1 0x8 SHR AND ISZERO DUP8 PUSH2 0x2DD JUMP JUMPDEST POP CALLER PUSH32 0x0 DUP8 AND EQ PUSH2 0x2C6 JUMP JUMPDEST POP DUP6 PUSH2 0x6CB PUSH2 0x16A5 JUMP JUMPDEST AND CALLER EQ PUSH2 0x2BF JUMP JUMPDEST CALLVALUE PUSH2 0x191 JUMPI PUSH1 0x40 CALLDATASIZE PUSH1 0x3 NOT ADD SLT PUSH2 0x191 JUMPI PUSH2 0x6EC PUSH2 0x15C1 JUMP JUMPDEST PUSH1 0x1 PUSH1 0x1 PUSH1 0xA0 SHL SUB AND PUSH0 SWAP1 DUP2 MSTORE PUSH1 0x7 PUSH1 0x20 MSTORE PUSH1 0x40 SWAP1 KECCAK256 DUP1 SLOAD PUSH1 0x24 CALLDATALOAD SWAP2 SWAP1 DUP3 LT ISZERO PUSH2 0x191 JUMPI PUSH1 0x20 SWAP2 PUSH2 0x71C SWAP2 PUSH2 0x153C JUMP JUMPDEST SWAP1 SLOAD PUSH1 0x40 MLOAD SWAP2 PUSH1 0x3 SHL SHR DUP2 MSTORE RETURN JUMPDEST CALLVALUE PUSH2 0x191 JUMPI PUSH0 CALLDATASIZE PUSH1 0x3 NOT ADD SLT PUSH2 0x191 JUMPI PUSH1 0x20 PUSH2 0x744 PUSH2 0x16A5 JUMP JUMPDEST PUSH1 0x40 MLOAD PUSH1 0x1 PUSH1 0x1 PUSH1 0xA0 SHL SUB SWAP1 SWAP2 AND DUP2 MSTORE RETURN JUMPDEST CALLVALUE PUSH2 0x191 JUMPI PUSH1 0x20 CALLDATASIZE PUSH1 0x3 NOT ADD SLT PUSH2 0x191 JUMPI PUSH1 0x4 CALLDATALOAD PUSH1 0x3 SLOAD DUP2 LT ISZERO PUSH2 0x191 JUMPI PUSH2 0x77F PUSH1 0x40 SWAP2 PUSH2 0x1589 JUMP JUMPDEST POP PUSH1 0x1 DUP2 SLOAD SWAP2 ADD SLOAD DUP3 MLOAD SWAP2 DUP3 MSTORE PUSH1 0x20 DUP3 ADD MSTORE RETURN JUMPDEST CALLVALUE PUSH2 0x191 JUMPI PUSH1 0x20 CALLDATASIZE PUSH1 0x3 NOT ADD SLT PUSH2 0x191 JUMPI PUSH1 0x4 CALLDATALOAD PUSH1 0x5 SLOAD DUP2 LT ISZERO PUSH2 0x191 JUMPI PUSH2 0x7BC PUSH1 0xA0 SWAP2 PUSH2 0x161B JUMP JUMPDEST POP PUSH1 0x1 DUP1 DUP4 SHL SUB DUP2 SLOAD AND SWAP1 PUSH1 0x1 DUP2 ADD SLOAD SWAP1 PUSH1 0x2 DUP2 ADD SLOAD PUSH1 0xFF PUSH1 0x4 PUSH1 0x3 DUP5 ADD SLOAD SWAP4 ADD SLOAD AND SWAP3 PUSH1 0x40 MLOAD SWAP5 DUP6 MSTORE PUSH1 0x20 DUP6 ADD MSTORE PUSH1 0x40 DUP5 ADD MSTORE PUSH1 0x60 DUP4 ADD MSTORE ISZERO ISZERO PUSH1 0x80 DUP3 ADD MSTORE RETURN JUMPDEST CALLVALUE PUSH2 0x191 JUMPI PUSH1 0x40 CALLDATASIZE PUSH1 0x3 NOT ADD SLT PUSH2 0x191 JUMPI PUSH2 0x817 PUSH2 0x15C1 JUMP JUMPDEST PUSH1 0x24 CALLDATALOAD PUSH1 0x1 PUSH1 0x1 PUSH1 0xA0 SHL SUB DUP2 AND SWAP1 SUB PUSH2 0x191 JUMPI PUSH2 0x832 PUSH2 0x1816 JUMP JUMPDEST CALLER PUSH32 0x0 PUSH1 0x1 PUSH1 0x1 PUSH1 0xA0 SHL SUB AND EQ DUP1 ISZERO PUSH2 0xC03 JUMPI JUMPDEST DUP1 ISZERO PUSH2 0xBD1 JUMPI JUMPDEST PUSH2 0x875 SWAP1 PUSH2 0x179B JUMP JUMPDEST PUSH2 0x87D PUSH2 0x1964 JUMP JUMPDEST PUSH1 0x1 PUSH1 0x1 PUSH1 0xA0 SHL SUB DUP4 AND PUSH0 SWAP1 DUP2 MSTORE PUSH1 0x6 PUSH1 0x20 MSTORE PUSH1 0x40 DUP2 KECCAK256 SWAP3 SWAP4 SWAP1 SWAP3 SWAP2 SWAP1 JUMPDEST DUP3 SLOAD DUP5 LT ISZERO PUSH2 0xBCB JUMPI PUSH2 0x8AE DUP5 DUP5 PUSH2 0x153C JUMP JUMPDEST SWAP1 SLOAD SWAP1 PUSH2 0x8BF DUP3 DUP3 PUSH1 0x3 SHL SHR PUSH2 0x161B JUMP JUMPDEST POP PUSH1 0x3 DUP2 ADD SLOAD NUMBER LT SWAP1 PUSH1 0x4 DUP2 ADD SLOAD SWAP2 PUSH1 0xFF DUP2 DUP2 DUP6 AND ISZERO SWAP2 DUP3 PUSH2 0xBAA JUMPI JUMPDEST POP POP ISZERO PUSH2 0xB95 JUMPI SWAP1 PUSH2 0x9F6 SWAP5 SWAP4 SWAP3 SWAP2 PUSH1 0x1 DUP1 SWAP4 PUSH1 0xFF NOT AND OR PUSH1 0x4 DUP4 ADD SSTORE ISZERO PUSH0 EQ PUSH2 0xB13 JUMPI PUSH2 0x92F SWAP1 PUSH1 0x24 CALLDATALOAD PUSH1 0x1 PUSH1 0x1 PUSH1 0xA0 SHL SUB SWAP1 DUP2 AND SWAP1 DUP9 AND EQ DUP1 ISZERO PUSH2 0xB03 JUMPI DUP12 SWAP4 JUMPDEST DUP3 ADD SLOAD SWAP4 PUSH2 0x2710 SWAP4 DUP5 SWAP2 DUP7 PUSH2 0x18C4 JUMP JUMPDEST DIV SWAP3 PUSH2 0x945 DUP14 PUSH2 0x93F DUP7 DUP9 PUSH2 0x17E4 JUMP JUMPDEST SWAP7 PUSH2 0x18C4 JUMP JUMPDEST DIV PUSH0 SWAP2 ISZERO PUSH2 0xAF1 JUMPI JUMPDEST DUP1 PUSH2 0xA97 JUMPI JUMPDEST POP DUP1 PUSH2 0xA5B JUMPI JUMPDEST POP DUP1 SLOAD PUSH2 0x997 SWAP1 DUP5 SWAP1 PUSH1 0x1 PUSH1 0x1 PUSH1 0xA0 SHL SUB SWAP1 DUP2 AND SWAP1 PUSH32 0x0 AND PUSH2 0x1914 JUMP JUMPDEST PUSH1 0x1 DUP1 PUSH1 0xA0 SHL SUB SWAP1 SLOAD AND SWAP1 PUSH1 0x40 MLOAD SWAP3 DUP4 MSTORE PUSH1 0x20 DUP4 ADD MSTORE PUSH32 0x7B381718BEC1E0DBC1241809EE9B55F3D783B95880307F002707FAD981FA5069 PUSH1 0x40 DUP6 DUP6 PUSH1 0x3 SHL SHR SWAP4 LOG3 JUMPDEST PUSH1 0x1 DUP1 PUSH1 0xA0 SHL SUB DUP5 AND PUSH0 MSTORE PUSH1 0x7 PUSH1 0x20 MSTORE PUSH1 0x3 SHL SHR PUSH1 0x40 PUSH0 KECCAK256 PUSH2 0x17F1 JUMP JUMPDEST DUP3 SLOAD PUSH0 NOT DUP2 ADD SWAP1 DUP2 GT PUSH2 0xA47 JUMPI PUSH2 0xA10 PUSH2 0xA39 SWAP2 DUP6 PUSH2 0x153C JUMP JUMPDEST SWAP1 SLOAD SWAP1 PUSH1 0x3 SHL SHR PUSH2 0xA21 DUP7 DUP7 PUSH2 0x153C JUMP JUMPDEST SWAP1 SWAP2 SWAP1 DUP3 SLOAD SWAP1 PUSH1 0x3 SHL SWAP2 DUP3 SHL SWAP2 PUSH0 NOT SWAP1 SHL NOT AND OR SWAP1 SSTORE JUMP JUMPDEST PUSH2 0xA42 DUP4 PUSH2 0x18D7 JUMP JUMPDEST PUSH2 0x89B JUMP JUMPDEST PUSH4 0x4E487B71 PUSH1 0xE0 SHL PUSH0 MSTORE PUSH1 0x11 PUSH1 0x4 MSTORE PUSH1 0x24 PUSH0 REVERT JUMPDEST PUSH2 0xA91 SWAP1 PUSH1 0x24 CALLDATALOAD PUSH32 0x0 PUSH1 0x1 PUSH1 0x1 PUSH1 0xA0 SHL SUB AND PUSH2 0x1914 JUMP JUMPDEST DUP12 PUSH2 0x95B JUMP JUMPDEST PUSH2 0xAEB SWAP1 PUSH32 0x0 PUSH32 0x0 PUSH1 0x1 PUSH1 0x1 PUSH1 0xA0 SHL SUB AND PUSH2 0x1914 JUMP JUMPDEST DUP13 PUSH2 0x954 JUMP JUMPDEST SWAP1 POP PUSH2 0xAFD DUP2 DUP5 PUSH2 0x17E4 JUMP JUMPDEST SWAP1 PUSH2 0x94E JUMP JUMPDEST PUSH2 0xB0D DUP10 DUP14 PUSH2 0x17D7 JUMP JUMPDEST SWAP4 PUSH2 0x91F JUMP JUMPDEST SWAP1 DUP2 ADD SLOAD DUP2 SLOAD SWAP1 SWAP2 SWAP1 PUSH2 0xB55 SWAP1 DUP4 SWAP1 PUSH1 0x1 PUSH1 0x1 PUSH1 0xA0 SHL SUB SWAP1 DUP2 AND SWAP1 PUSH32 0x0 AND PUSH2 0x1914 JUMP JUMPDEST PUSH1 0x1 DUP1 PUSH1 0xA0 SHL SUB SWAP1 SLOAD AND PUSH1 0x40 MLOAD SWAP2 DUP3 MSTORE PUSH32 0xBAEA19541010BAD0070D3E9EBA7D614E4F22A90D557EB4B70272D33A32793A07 PUSH1 0x20 DUP6 DUP6 PUSH1 0x3 SHL SHR SWAP4 LOG3 PUSH2 0x9D9 JUMP JUMPDEST POP POP POP POP POP SWAP3 PUSH2 0xBA4 SWAP1 PUSH2 0x1746 JUMP JUMPDEST SWAP3 PUSH2 0x89B JUMP JUMPDEST DUP2 ISZERO SWAP3 POP SWAP1 PUSH2 0xBBC JUMPI JUMPDEST POP DUP2 DUP13 PUSH2 0x8DC JUMP JUMPDEST SWAP1 POP PUSH1 0x4 SLOAD PUSH1 0x8 SHR AND DUP12 PUSH2 0xBB4 JUMP JUMPDEST PUSH1 0x1 PUSH0 SSTORE STOP JUMPDEST POP CALLER PUSH32 0x0 PUSH1 0x1 PUSH1 0x1 PUSH1 0xA0 SHL SUB AND EQ PUSH2 0x86C JUMP JUMPDEST POP PUSH1 0x1 PUSH1 0x1 PUSH1 0xA0 SHL SUB PUSH2 0xC14 PUSH2 0x16A5 JUMP JUMPDEST AND CALLER EQ PUSH2 0x865 JUMP JUMPDEST CALLVALUE PUSH2 0x191 JUMPI PUSH0 CALLDATASIZE PUSH1 0x3 NOT ADD SLT PUSH2 0x191 JUMPI PUSH1 0x40 MLOAD PUSH32 0x0 PUSH1 0x1 PUSH1 0x1 PUSH1 0xA0 SHL SUB AND DUP2 MSTORE PUSH1 0x20 SWAP1 RETURN JUMPDEST CALLVALUE PUSH2 0x191 JUMPI PUSH0 CALLDATASIZE PUSH1 0x3 NOT ADD SLT PUSH2 0x191 JUMPI PUSH1 0x40 MLOAD DUP1 PUSH1 0x8 SLOAD DUP1 DUP4 MSTORE PUSH1 0x20 DUP1 SWAP4 ADD DUP1 SWAP2 PUSH1 0x8 PUSH0 MSTORE PUSH32 0xF3F7A9FE364FAAB93B216DA50A3214154F22A0A2B415B23A84C8169E8B636EE3 SWAP1 PUSH0 JUMPDEST DUP7 DUP3 DUP3 LT PUSH2 0xD07 JUMPI DUP7 DUP7 PUSH2 0xCBF DUP3 DUP9 SUB DUP4 PUSH2 0x1683 JUMP JUMPDEST PUSH1 0x40 MLOAD SWAP3 DUP4 SWAP3 DUP2 DUP5 ADD SWAP1 DUP3 DUP6 MSTORE MLOAD DUP1 SWAP2 MSTORE PUSH1 0x40 DUP5 ADD SWAP3 SWAP2 PUSH0 JUMPDEST DUP3 DUP2 LT PUSH2 0xCE7 JUMPI POP POP POP POP SUB SWAP1 RETURN JUMPDEST DUP4 MLOAD PUSH1 0x1 PUSH1 0x1 PUSH1 0xA0 SHL SUB AND DUP6 MSTORE DUP7 SWAP6 POP SWAP4 DUP2 ADD SWAP4 SWAP3 DUP2 ADD SWAP3 PUSH1 0x1 ADD PUSH2 0xCD8 JUMP JUMPDEST DUP4 SLOAD PUSH1 0x1 PUSH1 0x1 PUSH1 0xA0 SHL SUB AND DUP6 MSTORE SWAP1 SWAP4 ADD SWAP3 PUSH1 0x1 SWAP3 DUP4 ADD SWAP3 ADD PUSH2 0xCA9 JUMP JUMPDEST CALLVALUE PUSH2 0x191 JUMPI PUSH1 0x80 CALLDATASIZE PUSH1 0x3 NOT ADD SLT PUSH2 0x191 JUMPI PUSH2 0xD3D PUSH2 0x15C1 JUMP JUMPDEST PUSH1 0x64 CALLDATALOAD DUP1 ISZERO ISZERO DUP2 SUB PUSH2 0x191 JUMPI PUSH2 0xD5A SWAP2 PUSH1 0x44 CALLDATALOAD SWAP1 PUSH1 0x24 CALLDATALOAD SWAP1 PUSH2 0x1C0E JUMP JUMPDEST PUSH1 0x40 MLOAD DUP1 SWAP2 PUSH1 0x20 DUP1 DUP4 ADD DUP2 DUP5 MSTORE DUP3 MLOAD DUP1 SWAP2 MSTORE DUP2 PUSH1 0x40 DUP6 ADD SWAP4 ADD SWAP2 PUSH0 JUMPDEST DUP3 DUP2 LT PUSH2 0xD85 JUMPI POP POP POP POP SUB SWAP1 RETURN JUMPDEST DUP4 MLOAD DUP6 MSTORE DUP7 SWAP6 POP SWAP4 DUP2 ADD SWAP4 SWAP3 DUP2 ADD SWAP3 PUSH1 0x1 ADD PUSH2 0xD76 JUMP JUMPDEST CALLVALUE PUSH2 0x191 JUMPI PUSH1 0x40 CALLDATASIZE PUSH1 0x3 NOT ADD SLT PUSH2 0x191 JUMPI PUSH2 0xDB5 PUSH2 0x15C1 JUMP JUMPDEST PUSH1 0x1 PUSH1 0x1 PUSH1 0xA0 SHL SUB AND PUSH0 SWAP1 DUP2 MSTORE PUSH1 0x6 PUSH1 0x20 MSTORE PUSH1 0x40 SWAP1 KECCAK256 DUP1 SLOAD PUSH1 0x24 CALLDATALOAD SWAP2 SWAP1 DUP3 LT ISZERO PUSH2 0x191 JUMPI PUSH1 0x20 SWAP2 PUSH2 0x71C SWAP2 PUSH2 0x153C JUMP JUMPDEST CALLVALUE PUSH2 0x191 JUMPI PUSH1 0x20 DUP1 PUSH1 0x3 NOT CALLDATASIZE ADD SLT PUSH2 0x191 JUMPI PUSH2 0xDFF PUSH2 0x15C1 JUMP JUMPDEST PUSH1 0x1 PUSH1 0x1 PUSH1 0xA0 SHL SUB AND PUSH0 DUP2 DUP2 MSTORE PUSH1 0x6 DUP4 MSTORE PUSH1 0x40 DUP1 DUP3 KECCAK256 SWAP1 MLOAD DUP2 SLOAD DUP1 DUP3 MSTORE SWAP2 DUP4 MSTORE DUP5 DUP4 KECCAK256 SWAP1 SWAP5 SWAP3 SWAP4 SWAP2 DUP6 SWAP1 DUP2 DUP6 ADD SWAP1 DUP7 JUMPDEST DUP7 DUP3 DUP3 LT PUSH2 0xFA6 JUMPI POP POP POP PUSH2 0xE46 SWAP3 POP SUB DUP6 PUSH2 0x1683 JUMP JUMPDEST PUSH0 MSTORE PUSH1 0x7 DUP2 MSTORE PUSH1 0x40 PUSH0 KECCAK256 SWAP2 PUSH1 0x40 MLOAD DUP1 DUP5 DUP5 DUP3 SWAP7 SLOAD SWAP4 DUP5 DUP2 MSTORE ADD SWAP1 PUSH0 MSTORE DUP5 PUSH0 KECCAK256 SWAP3 PUSH0 JUMPDEST DUP7 DUP3 DUP3 LT PUSH2 0xF90 JUMPI POP POP POP PUSH2 0xE7F SWAP3 POP SUB DUP5 PUSH2 0x1683 JUMP JUMPDEST PUSH0 SWAP1 JUMPDEST DUP5 MLOAD DUP3 LT ISZERO PUSH2 0xF1E JUMPI PUSH2 0xEA7 PUSH2 0xEA1 PUSH2 0xE9B DUP5 DUP9 PUSH2 0x1A49 JUMP JUMPDEST MLOAD PUSH2 0x161B JUMP JUMPDEST POP PUSH2 0x1A5D JUMP JUMPDEST PUSH1 0x60 DUP2 ADD DUP5 DUP2 MLOAD NUMBER DUP2 GT PUSH0 EQ PUSH2 0xF19 JUMPI POP NUMBER JUMPDEST PUSH1 0x40 DUP5 ADD SWAP1 DUP2 MLOAD SWAP1 DUP2 DUP2 GT ISZERO PUSH2 0xF09 JUMPI SWAP3 PUSH2 0xEEF PUSH2 0xEFD SWAP7 SWAP4 PUSH2 0xEE5 PUSH2 0xF03 SWAP10 SWAP8 SWAP5 PUSH2 0xEF7 SWAP8 PUSH2 0x17E4 JUMP JUMPDEST SWAP4 MLOAD SWAP1 MLOAD SWAP1 PUSH2 0x17E4 JUMP JUMPDEST SWAP3 ADD MLOAD PUSH2 0x1AA7 JUMP JUMPDEST SWAP1 PUSH2 0x17D7 JUMP JUMPDEST SWAP2 PUSH2 0x1746 JUMP JUMPDEST SWAP1 PUSH2 0xE82 JUMP JUMPDEST POP POP POP POP POP POP SWAP1 PUSH2 0xF03 SWAP1 PUSH2 0x1746 JUMP JUMPDEST PUSH2 0xEBA JUMP JUMPDEST PUSH0 SWAP3 SWAP2 POP JUMPDEST DUP4 MLOAD DUP4 LT ISZERO PUSH2 0xF88 JUMPI PUSH2 0xF3C PUSH2 0xEA1 PUSH2 0xE9B DUP6 DUP8 PUSH2 0x1A49 JUMP JUMPDEST PUSH1 0x60 DUP2 ADD MLOAD PUSH1 0x40 DUP3 ADD MLOAD SWAP1 DUP2 DUP2 GT ISZERO PUSH2 0xF7B JUMPI DUP5 PUSH2 0xF6F SWAP4 PUSH2 0xF65 PUSH2 0xF75 SWAP7 SWAP5 PUSH2 0xEF7 SWAP5 PUSH2 0x17E4 JUMP JUMPDEST SWAP2 DUP3 SWAP2 ADD MLOAD PUSH2 0x1AA7 JUMP JUMPDEST SWAP3 PUSH2 0x1746 JUMP JUMPDEST SWAP2 PUSH2 0xF23 JUMP JUMPDEST POP POP POP SWAP2 PUSH2 0xF75 SWAP1 PUSH2 0x1746 JUMP JUMPDEST PUSH1 0x40 MLOAD SWAP1 DUP2 MSTORE RETURN JUMPDEST DUP6 SLOAD DUP5 MSTORE PUSH1 0x1 SWAP6 DUP7 ADD SWAP6 DUP10 SWAP6 POP SWAP4 ADD SWAP3 ADD PUSH2 0xE68 JUMP JUMPDEST DUP6 SLOAD DUP5 MSTORE PUSH1 0x1 SWAP6 DUP7 ADD SWAP6 DUP11 SWAP6 POP SWAP4 ADD SWAP3 ADD PUSH2 0xE2F JUMP JUMPDEST CALLVALUE PUSH2 0x191 JUMPI PUSH0 CALLDATASIZE PUSH1 0x3 NOT ADD SLT PUSH2 0x191 JUMPI PUSH1 0x20 PUSH1 0x40 MLOAD PUSH32 0x0 DUP2 MSTORE RETURN JUMPDEST CALLVALUE PUSH2 0x191 JUMPI PUSH0 CALLDATASIZE PUSH1 0x3 NOT ADD SLT PUSH2 0x191 JUMPI PUSH1 0x20 PUSH1 0xFF PUSH1 0x4 SLOAD PUSH1 0x8 SHR AND PUSH1 0x40 MLOAD SWAP1 ISZERO ISZERO DUP2 MSTORE RETURN JUMPDEST CALLVALUE PUSH2 0x191 JUMPI PUSH1 0x20 CALLDATASIZE PUSH1 0x3 NOT ADD SLT PUSH2 0x191 JUMPI PUSH2 0x1034 PUSH2 0x15C1 JUMP JUMPDEST PUSH2 0x103C PUSH2 0x1816 JUMP JUMPDEST PUSH1 0x1 PUSH1 0x1 PUSH1 0xA0 SHL SUB PUSH32 0x0 CALLER DUP3 DUP3 AND EQ DUP1 ISZERO PUSH2 0x12DC JUMPI JUMPDEST DUP1 ISZERO PUSH2 0x12B1 JUMPI JUMPDEST PUSH2 0x1081 SWAP1 PUSH2 0x179B JUMP JUMPDEST PUSH2 0x1094 PUSH2 0x108C PUSH2 0x1964 JUMP JUMPDEST DUP2 SWAP3 SWAP2 PUSH2 0x17D7 JUMP JUMPDEST SWAP1 PUSH0 JUMPDEST PUSH1 0x5 SLOAD DUP2 LT ISZERO PUSH2 0xBCB JUMPI PUSH2 0x10AA DUP2 PUSH2 0x161B JUMP JUMPDEST POP PUSH1 0x4 DUP2 ADD DUP1 SLOAD PUSH1 0xFF DUP2 AND ISZERO DUP1 PUSH2 0x12A3 JUMPI JUMPDEST PUSH2 0x10D2 JUMPI JUMPDEST POP POP POP PUSH2 0x10CD SWAP1 PUSH2 0x1746 JUMP JUMPDEST PUSH2 0x1097 JUMP JUMPDEST SWAP1 PUSH1 0x1 DUP9 SWAP6 SWAP8 SWAP5 SWAP9 SWAP4 SWAP3 PUSH1 0xFF SWAP11 SWAP8 SWAP11 NOT AND OR SWAP1 SSTORE PUSH1 0x1 DUP2 ADD SLOAD DUP8 PUSH2 0x2710 DUP1 PUSH2 0x10FA DUP13 DUP6 PUSH2 0x18C4 JUMP JUMPDEST DIV SWAP1 PUSH2 0x1110 DUP11 PUSH2 0x110A DUP5 DUP8 PUSH2 0x17E4 JUMP JUMPDEST SWAP6 PUSH2 0x18C4 JUMP JUMPDEST DIV PUSH2 0x111B DUP2 DUP4 PUSH2 0x17E4 JUMP JUMPDEST SWAP1 DUP1 PUSH2 0x1270 JUMPI JUMPDEST POP DUP1 PUSH2 0x123D JUMPI JUMPDEST POP PUSH2 0x115A DUP4 DUP7 DUP7 SLOAD AND DUP8 PUSH32 0x0 AND PUSH2 0x1914 JUMP JUMPDEST PUSH32 0x7B381718BEC1E0DBC1241809EE9B55F3D783B95880307F002707FAD981FA5069 PUSH1 0x40 DUP7 DUP7 SLOAD AND SWAP5 DUP6 SWAP4 DUP3 MLOAD SWAP2 DUP3 MSTORE PUSH1 0x20 DUP3 ADD MSTORE LOG3 PUSH0 MSTORE PUSH1 0x7 PUSH1 0x20 MSTORE PUSH2 0x11A3 DUP8 PUSH1 0x40 PUSH0 KECCAK256 PUSH2 0x17F1 JUMP JUMPDEST SLOAD AND PUSH0 MSTORE PUSH1 0x6 PUSH1 0x20 MSTORE PUSH1 0x40 PUSH0 KECCAK256 SWAP6 PUSH0 JUMPDEST DUP8 SLOAD DUP1 DUP3 LT ISZERO PUSH2 0x122C JUMPI DUP8 PUSH2 0x11C8 DUP4 DUP12 PUSH2 0x153C JUMP JUMPDEST SWAP2 SWAP1 SLOAD PUSH1 0x3 SWAP3 DUP4 SHL SHR EQ PUSH2 0x11E6 JUMPI POP POP PUSH2 0x11E1 SWAP1 PUSH2 0x1746 JUMP JUMPDEST PUSH2 0x11B3 JUMP JUMPDEST PUSH0 SWAP10 SWAP2 SWAP3 SWAP5 SWAP8 SWAP6 SWAP9 SWAP4 SWAP7 SWAP10 NOT DUP4 ADD SWAP3 DUP4 GT PUSH2 0xA47 JUMPI PUSH2 0x10CD SWAP5 PUSH2 0xA21 PUSH2 0x121F SWAP3 PUSH2 0x1213 PUSH2 0x1224 SWAP7 DUP7 PUSH2 0x153C JUMP JUMPDEST SWAP1 SLOAD SWAP2 SHL SHR SWAP2 DUP5 PUSH2 0x153C JUMP JUMPDEST PUSH2 0x18D7 JUMP JUMPDEST SWAP1 DUP8 DUP1 PUSH2 0x10C1 JUMP JUMPDEST POP POP SWAP3 SWAP6 POP SWAP3 SWAP1 SWAP4 PUSH2 0x10CD SWAP1 PUSH2 0x1224 JUMP JUMPDEST PUSH2 0x126A SWAP1 DUP10 DUP8 PUSH32 0x0 AND PUSH2 0x1914 JUMP JUMPDEST DUP12 PUSH2 0x1129 JUMP JUMPDEST PUSH2 0x129D SWAP1 DUP9 DUP9 PUSH32 0x0 AND PUSH2 0x1914 JUMP JUMPDEST DUP13 PUSH2 0x1122 JUMP JUMPDEST POP PUSH1 0x3 DUP4 ADD SLOAD NUMBER LT ISZERO PUSH2 0x10BC JUMP JUMPDEST POP CALLER PUSH32 0x0 DUP4 AND EQ PUSH2 0x1078 JUMP JUMPDEST POP DUP2 PUSH2 0x12E6 PUSH2 0x16A5 JUMP JUMPDEST AND CALLER EQ PUSH2 0x1071 JUMP JUMPDEST CALLVALUE PUSH2 0x191 JUMPI PUSH1 0x20 CALLDATASIZE PUSH1 0x3 NOT ADD SLT PUSH2 0x191 JUMPI PUSH1 0x4 CALLDATALOAD PUSH1 0x2 SLOAD DUP2 LT ISZERO PUSH2 0x191 JUMPI PUSH2 0x77F PUSH1 0x40 SWAP2 PUSH2 0x1551 JUMP JUMPDEST CALLVALUE PUSH2 0x191 JUMPI PUSH0 CALLDATASIZE PUSH1 0x3 NOT ADD SLT PUSH2 0x191 JUMPI PUSH1 0x20 PUSH1 0x40 MLOAD PUSH32 0x0 DUP2 MSTORE RETURN JUMPDEST CALLVALUE PUSH2 0x191 JUMPI PUSH0 CALLDATASIZE PUSH1 0x3 NOT ADD SLT PUSH2 0x191 JUMPI PUSH1 0x20 PUSH1 0x1 SLOAD PUSH1 0x40 MLOAD SWAP1 DUP2 MSTORE RETURN JUMPDEST CALLVALUE PUSH2 0x191 JUMPI PUSH0 CALLDATASIZE PUSH1 0x3 NOT ADD SLT PUSH2 0x191 JUMPI PUSH1 0x20 PUSH1 0x4 SLOAD PUSH1 0xFF DUP2 AND SWAP1 DUP2 PUSH2 0x1399 JUMPI JUMPDEST POP PUSH1 0x40 MLOAD SWAP1 ISZERO ISZERO DUP2 MSTORE RETURN JUMPDEST PUSH1 0xFF SWAP2 POP PUSH1 0x8 SHR AND ISZERO DUP3 PUSH2 0x138E JUMP JUMPDEST CALLVALUE PUSH2 0x191 JUMPI PUSH0 CALLDATASIZE PUSH1 0x3 NOT ADD SLT PUSH2 0x191 JUMPI PUSH2 0x13FC PUSH1 0x1 DUP1 PUSH1 0xA0 SHL SUB DUP1 PUSH32 0x0 AND CALLER EQ SWAP1 DUP2 ISZERO PUSH2 0x145D JUMPI JUMPDEST DUP2 ISZERO PUSH2 0x1431 JUMPI JUMPDEST POP PUSH2 0x179B JUMP JUMPDEST PUSH2 0x100 PUSH2 0xFFFF NOT PUSH1 0x4 SLOAD AND OR PUSH1 0x4 SSTORE PUSH32 0xDF23397AB444D891935A0B305B1552FB235D2BD07043FFC42C6ED3F43A4D8352 PUSH0 DUP1 LOG1 STOP JUMPDEST SWAP1 POP PUSH32 0x0 AND CALLER EQ DUP3 PUSH2 0x13F6 JUMP JUMPDEST DUP1 SWAP2 POP PUSH2 0x1468 PUSH2 0x16A5 JUMP JUMPDEST AND CALLER EQ SWAP1 PUSH2 0x13EF JUMP JUMPDEST CALLVALUE PUSH2 0x191 JUMPI PUSH1 0x20 CALLDATASIZE PUSH1 0x3 NOT ADD SLT PUSH2 0x191 JUMPI PUSH1 0x4 CALLDATALOAD PUSH1 0x1 SLOAD DUP2 LT ISZERO PUSH2 0x191 JUMPI PUSH2 0x71C PUSH1 0x20 SWAP2 PUSH2 0x14F3 JUMP JUMPDEST CALLVALUE PUSH2 0x191 JUMPI PUSH0 CALLDATASIZE PUSH1 0x3 NOT ADD SLT PUSH2 0x191 JUMPI PUSH1 0x20 PUSH1 0x40 MLOAD PUSH32 0x0 DUP2 MSTORE RETURN JUMPDEST CALLVALUE PUSH2 0x191 JUMPI PUSH0 CALLDATASIZE PUSH1 0x3 NOT ADD SLT PUSH2 0x191 JUMPI PUSH1 0x20 SWAP1 PUSH1 0xFF PUSH1 0x4 SLOAD AND ISZERO ISZERO DUP2 MSTORE RETURN JUMPDEST PUSH1 0x1 SLOAD DUP2 LT ISZERO PUSH2 0x1528 JUMPI PUSH1 0x1 PUSH0 MSTORE PUSH32 0xB10E2D527612073B26EECDFD717E6A320CF44B4AFAC2B0732D9FCBE2B7FA0CF6 ADD SWAP1 PUSH0 SWAP1 JUMP JUMPDEST PUSH4 0x4E487B71 PUSH1 0xE0 SHL PUSH0 MSTORE PUSH1 0x32 PUSH1 0x4 MSTORE PUSH1 0x24 PUSH0 REVERT JUMPDEST DUP1 SLOAD DUP3 LT ISZERO PUSH2 0x1528 JUMPI PUSH0 MSTORE PUSH1 0x20 PUSH0 KECCAK256 ADD SWAP1 PUSH0 SWAP1 JUMP JUMPDEST PUSH1 0x2 SLOAD DUP2 LT ISZERO PUSH2 0x1528 JUMPI PUSH1 0x2 PUSH0 MSTORE PUSH1 0x1 SHL PUSH32 0x405787FA12A823E0F2B7631CC41B3BA8828B3321CA811111FA75CD3AA3BB5ACE ADD SWAP1 PUSH0 SWAP1 JUMP JUMPDEST PUSH1 0x3 SLOAD DUP2 LT ISZERO PUSH2 0x1528 JUMPI PUSH1 0x3 PUSH0 MSTORE PUSH1 0x1 SHL PUSH32 0xC2575A0E9E593C00F959F8C92F12DB2869C3395A3B0502D05E2516446F71F85B ADD SWAP1 PUSH0 SWAP1 JUMP JUMPDEST PUSH1 0x4 CALLDATALOAD SWAP1 PUSH1 0x1 PUSH1 0x1 PUSH1 0xA0 SHL SUB DUP3 AND DUP3 SUB PUSH2 0x191 JUMPI JUMP JUMPDEST CALLVALUE PUSH2 0x191 JUMPI PUSH0 CALLDATASIZE PUSH1 0x3 NOT ADD SLT PUSH2 0x191 JUMPI PUSH1 0x40 MLOAD PUSH32 0x0 PUSH1 0x1 PUSH1 0x1 PUSH1 0xA0 SHL SUB AND DUP2 MSTORE PUSH1 0x20 SWAP1 RETURN JUMPDEST PUSH1 0x5 SLOAD DUP2 LT ISZERO PUSH2 0x1528 JUMPI PUSH1 0x5 SWAP1 DUP2 PUSH0 MSTORE MUL PUSH32 0x36B6384B5ECA791C62761152D0C79BB0604C104A5FB6F4EB0703F3154BB3DB0 ADD SWAP1 PUSH0 SWAP1 JUMP JUMPDEST PUSH1 0xA0 DUP2 ADD SWAP1 DUP2 LT PUSH8 0xFFFFFFFFFFFFFFFF DUP3 GT OR PUSH2 0x166F JUMPI PUSH1 0x40 MSTORE JUMP JUMPDEST PUSH4 0x4E487B71 PUSH1 0xE0 SHL PUSH0 MSTORE PUSH1 0x41 PUSH1 0x4 MSTORE PUSH1 0x24 PUSH0 REVERT JUMPDEST SWAP1 PUSH1 0x1F DUP1 NOT SWAP2 ADD AND DUP2 ADD SWAP1 DUP2 LT PUSH8 0xFFFFFFFFFFFFFFFF DUP3 GT OR PUSH2 0x166F JUMPI PUSH1 0x40 MSTORE JUMP JUMPDEST PUSH1 0x40 MLOAD PUSH4 0x7CC70035 PUSH1 0xE1 SHL DUP2 MSTORE PUSH1 0x1 PUSH1 0x1 PUSH1 0xA0 SHL SUB SWAP1 PUSH1 0x20 DUP2 PUSH1 0x4 DUP2 PUSH32 0x0 DUP7 AND GAS STATICCALL SWAP1 DUP2 ISZERO PUSH2 0x173B JUMPI PUSH0 SWAP2 PUSH2 0x16FA JUMPI JUMPDEST POP SWAP1 POP SWAP1 JUMP JUMPDEST PUSH1 0x20 DUP2 RETURNDATASIZE DUP3 GT PUSH2 0x1733 JUMPI JUMPDEST DUP2 PUSH2 0x1712 PUSH1 0x20 SWAP4 DUP4 PUSH2 0x1683 JUMP JUMPDEST DUP2 ADD SUB SLT PUSH2 0x172F JUMPI MLOAD SWAP2 DUP3 AND DUP3 SUB PUSH2 0x172C JUMPI POP DUP1 PUSH0 PUSH2 0x16F4 JUMP JUMPDEST DUP1 REVERT JUMPDEST POP DUP1 REVERT JUMPDEST RETURNDATASIZE SWAP2 POP PUSH2 0x1705 JUMP JUMPDEST PUSH1 0x40 MLOAD RETURNDATASIZE PUSH0 DUP3 RETURNDATACOPY RETURNDATASIZE SWAP1 REVERT JUMPDEST PUSH0 NOT DUP2 EQ PUSH2 0xA47 JUMPI PUSH1 0x1 ADD SWAP1 JUMP JUMPDEST PUSH1 0x1 DUP1 SLOAD SWAP2 DUP3 ISZERO PUSH2 0x16F4 JUMPI PUSH0 JUMPDEST DUP4 DUP2 LT PUSH2 0x1770 JUMPI POP POP POP POP PUSH0 SWAP1 JUMP JUMPDEST DUP2 PUSH2 0x177A DUP3 PUSH2 0x14F3 JUMP JUMPDEST SWAP1 SLOAD SWAP1 PUSH1 0x3 SHL SHR EQ PUSH2 0x1794 JUMPI PUSH2 0x178F SWAP1 PUSH2 0x1746 JUMP JUMPDEST PUSH2 0x1761 JUMP JUMPDEST POP POP SWAP1 POP SWAP1 JUMP JUMPDEST ISZERO PUSH2 0x17A2 JUMPI JUMP JUMPDEST PUSH1 0x40 MLOAD PUSH3 0x461BCD PUSH1 0xE5 SHL DUP2 MSTORE PUSH1 0x20 PUSH1 0x4 DUP3 ADD MSTORE PUSH1 0xD PUSH1 0x24 DUP3 ADD MSTORE PUSH13 0x1BDB9B1E481C1C9BDD1BD8DBDB PUSH1 0x9A SHL PUSH1 0x44 DUP3 ADD MSTORE PUSH1 0x64 SWAP1 REVERT JUMPDEST SWAP2 SWAP1 DUP3 ADD DUP1 SWAP3 GT PUSH2 0xA47 JUMPI JUMP JUMPDEST SWAP2 SWAP1 DUP3 SUB SWAP2 DUP3 GT PUSH2 0xA47 JUMPI JUMP JUMPDEST SWAP1 DUP2 SLOAD SWAP2 PUSH1 0x1 PUSH1 0x40 SHL DUP4 LT ISZERO PUSH2 0x166F JUMPI DUP3 PUSH2 0xA21 SWAP2 PUSH1 0x1 PUSH2 0x1814 SWAP6 ADD DUP2 SSTORE PUSH2 0x153C JUMP JUMPDEST JUMP JUMPDEST PUSH1 0x2 PUSH0 SLOAD EQ PUSH2 0x1825 JUMPI PUSH1 0x2 PUSH0 SSTORE JUMP JUMPDEST PUSH1 0x40 MLOAD PUSH3 0x461BCD PUSH1 0xE5 SHL DUP2 MSTORE PUSH1 0x20 PUSH1 0x4 DUP3 ADD MSTORE PUSH1 0x1F PUSH1 0x24 DUP3 ADD MSTORE PUSH32 0x5265656E7472616E637947756172643A207265656E7472616E742063616C6C00 PUSH1 0x44 DUP3 ADD MSTORE PUSH1 0x64 SWAP1 REVERT JUMPDEST SWAP1 PUSH0 PUSH1 0x20 SWAP2 DUP3 DUP2 MLOAD SWAP2 ADD DUP3 DUP6 GAS CALL ISZERO PUSH2 0x173B JUMPI PUSH0 MLOAD RETURNDATASIZE PUSH2 0x18BB JUMPI POP PUSH1 0x1 PUSH1 0x1 PUSH1 0xA0 SHL SUB DUP2 AND EXTCODESIZE ISZERO JUMPDEST PUSH2 0x1899 JUMPI POP JUMP JUMPDEST PUSH1 0x40 MLOAD PUSH4 0x5274AFE7 PUSH1 0xE0 SHL DUP2 MSTORE PUSH1 0x1 PUSH1 0x1 PUSH1 0xA0 SHL SUB SWAP1 SWAP2 AND PUSH1 0x4 DUP3 ADD MSTORE PUSH1 0x24 SWAP1 REVERT JUMPDEST PUSH1 0x1 EQ ISZERO PUSH2 0x1892 JUMP JUMPDEST DUP2 DUP2 MUL SWAP3 SWAP2 DUP2 ISZERO SWAP2 DUP5 DIV EQ OR ISZERO PUSH2 0xA47 JUMPI JUMP JUMPDEST DUP1 SLOAD SWAP1 DUP2 ISZERO PUSH2 0x1900 JUMPI PUSH0 NOT SWAP2 DUP3 ADD SWAP2 PUSH2 0x18F0 DUP4 DUP4 PUSH2 0x153C JUMP JUMPDEST SWAP1 SWAP2 DUP3 SLOAD SWAP2 PUSH1 0x3 SHL SHL NOT AND SWAP1 SSTORE SSTORE JUMP JUMPDEST PUSH4 0x4E487B71 PUSH1 0xE0 SHL PUSH0 MSTORE PUSH1 0x31 PUSH1 0x4 MSTORE PUSH1 0x24 PUSH0 REVERT JUMPDEST PUSH1 0x40 MLOAD PUSH4 0xA9059CBB PUSH1 0xE0 SHL PUSH1 0x20 DUP3 ADD MSTORE PUSH1 0x1 PUSH1 0x1 PUSH1 0xA0 SHL SUB SWAP1 SWAP3 AND PUSH1 0x24 DUP4 ADD MSTORE PUSH1 0x44 DUP1 DUP4 ADD SWAP4 SWAP1 SWAP4 MSTORE SWAP2 DUP2 MSTORE PUSH1 0x80 DUP2 ADD SWAP2 PUSH8 0xFFFFFFFFFFFFFFFF DUP4 GT DUP3 DUP5 LT OR PUSH2 0x166F JUMPI PUSH2 0x1814 SWAP3 PUSH1 0x40 MSTORE PUSH2 0x186A JUMP JUMPDEST PUSH1 0x40 MLOAD PUSH4 0x18BF7417 PUSH1 0xE3 SHL DUP2 MSTORE PUSH1 0x20 SWAP2 SWAP1 PUSH32 0x0 PUSH1 0x1 PUSH1 0x1 PUSH1 0xA0 SHL SUB AND SWAP1 DUP4 DUP2 PUSH1 0x4 DUP2 DUP6 GAS STATICCALL SWAP2 DUP3 ISZERO PUSH2 0x173B JUMPI DUP5 SWAP2 PUSH0 SWAP4 PUSH2 0x1A16 JUMPI JUMPDEST POP PUSH1 0x40 MLOAD PUSH4 0xF25E78B1 PUSH1 0xE0 SHL DUP2 MSTORE SWAP2 SWAP1 DUP3 SWAP1 PUSH1 0x4 SWAP1 DUP3 SWAP1 GAS STATICCALL SWAP4 DUP5 ISZERO PUSH2 0x173B JUMPI PUSH0 SWAP5 PUSH2 0x19E5 JUMPI JUMPDEST POP POP SWAP2 SWAP1 JUMP JUMPDEST DUP2 DUP2 SWAP6 SWAP3 SWAP4 SWAP6 RETURNDATASIZE DUP4 GT PUSH2 0x1A0F JUMPI JUMPDEST PUSH2 0x19FD DUP2 DUP4 PUSH2 0x1683 JUMP JUMPDEST DUP2 ADD SUB SLT PUSH2 0x172C JUMPI POP MLOAD SWAP2 PUSH0 DUP1 PUSH2 0x19DF JUMP JUMPDEST POP RETURNDATASIZE PUSH2 0x19F3 JUMP JUMPDEST SWAP2 DUP3 DUP2 SWAP5 SWAP3 SWAP5 RETURNDATASIZE DUP4 GT PUSH2 0x1A42 JUMPI JUMPDEST PUSH2 0x1A2E DUP2 DUP4 PUSH2 0x1683 JUMP JUMPDEST DUP2 ADD SUB SLT PUSH2 0x172C JUMPI POP MLOAD SWAP1 DUP4 SWAP1 PUSH1 0x4 PUSH2 0x19B8 JUMP JUMPDEST POP RETURNDATASIZE PUSH2 0x1A24 JUMP JUMPDEST DUP1 MLOAD DUP3 LT ISZERO PUSH2 0x1528 JUMPI PUSH1 0x20 SWAP2 PUSH1 0x5 SHL ADD ADD SWAP1 JUMP JUMPDEST SWAP1 PUSH1 0x40 MLOAD PUSH2 0x1A6A DUP2 PUSH2 0x1653 JUMP JUMPDEST DUP3 SLOAD PUSH1 0x1 PUSH1 0x1 PUSH1 0xA0 SHL SUB AND DUP2 MSTORE PUSH1 0x1 DUP4 ADD SLOAD PUSH1 0x20 DUP3 ADD MSTORE PUSH1 0x2 DUP4 ADD SLOAD PUSH1 0x40 DUP3 ADD MSTORE PUSH1 0x3 DUP4 ADD SLOAD PUSH1 0x60 DUP3 ADD MSTORE PUSH1 0x4 SWAP1 SWAP3 ADD SLOAD PUSH1 0xFF AND ISZERO ISZERO PUSH1 0x80 DUP4 ADD MSTORE JUMP JUMPDEST SWAP1 PUSH32 0x0 PUSH0 DUP1 DUP3 SLT PUSH2 0x1BA7 JUMPI POP PUSH2 0x1ADF PUSH2 0x1AE4 SWAP3 DUP5 PUSH2 0x18C4 JUMP JUMPDEST PUSH2 0x18C4 JUMP JUMPDEST SWAP1 SWAP2 JUMPDEST PUSH2 0x2710 SWAP1 PUSH0 PUSH1 0x2 SLOAD SWAP2 JUMPDEST DUP3 DUP3 LT PUSH2 0x1B66 JUMPI JUMPDEST POP POP POP PUSH2 0x2710 SWAP1 PUSH0 PUSH1 0x3 SLOAD SWAP5 JUMPDEST DUP6 DUP3 LT PUSH2 0x1B2F JUMPI JUMPDEST POP POP PUSH2 0x2710 SWAP4 POP PUSH2 0x1B24 PUSH2 0x1B2B SWAP4 SWAP3 DUP6 SWAP3 PUSH2 0x18C4 JUMP JUMPDEST DIV SWAP1 PUSH2 0x18C4 JUMP JUMPDEST DIV SWAP1 JUMP JUMPDEST SWAP1 SWAP3 PUSH2 0x1B3A DUP5 PUSH2 0x1589 JUMP JUMPDEST POP SLOAD DUP3 LT PUSH2 0x1B60 JUMPI POP PUSH2 0x1B5A PUSH1 0x1 PUSH2 0x1B51 DUP6 PUSH2 0x1589 JUMP JUMPDEST POP ADD SLOAD SWAP4 PUSH2 0x1746 JUMP JUMPDEST SWAP1 PUSH2 0x1B06 JUMP JUMPDEST SWAP3 PUSH2 0x1B0E JUMP JUMPDEST SWAP1 SWAP2 SWAP5 SWAP4 SWAP3 PUSH2 0x1B74 DUP4 PUSH2 0x1551 JUMP JUMPDEST POP SLOAD DUP3 LT PUSH2 0x1B9F JUMPI POP PUSH2 0x1B94 PUSH1 0x1 PUSH2 0x1B8B DUP5 PUSH2 0x1551 JUMP JUMPDEST POP ADD SLOAD SWAP3 PUSH2 0x1746 JUMP JUMPDEST SWAP1 SWAP5 SWAP2 SWAP3 SWAP4 SWAP5 PUSH2 0x1AF1 JUMP JUMPDEST SWAP3 SWAP4 SWAP5 PUSH2 0x1AF9 JUMP JUMPDEST SWAP2 PUSH1 0x1 PUSH1 0xFF SHL DUP3 EQ PUSH2 0x1BE2 JUMPI PUSH2 0x1BBD SWAP1 DUP5 PUSH2 0x18C4 JUMP JUMPDEST SWAP2 DUP2 ISZERO PUSH2 0x1BCE JUMPI SUB SWAP1 DIV SWAP1 SWAP2 PUSH2 0x1AE7 JUMP JUMPDEST PUSH4 0x4E487B71 PUSH1 0xE0 SHL DUP2 MSTORE PUSH1 0x12 PUSH1 0x4 MSTORE PUSH1 0x24 SWAP1 REVERT JUMPDEST PUSH4 0x4E487B71 PUSH1 0xE0 SHL DUP4 MSTORE PUSH1 0x11 PUSH1 0x4 MSTORE PUSH1 0x24 DUP4 REVERT JUMPDEST PUSH8 0xFFFFFFFFFFFFFFFF DUP2 GT PUSH2 0x166F JUMPI PUSH1 0x5 SHL PUSH1 0x20 ADD SWAP1 JUMP JUMPDEST SWAP1 SWAP4 SWAP3 PUSH0 SWAP1 ISZERO PUSH2 0x1CDD JUMPI POP PUSH1 0x1 PUSH1 0x1 PUSH1 0xA0 SHL SUB AND PUSH0 SWAP1 DUP2 MSTORE PUSH1 0x6 PUSH1 0x20 MSTORE PUSH1 0x40 SWAP1 KECCAK256 SWAP3 JUMPDEST DUP4 SLOAD SWAP2 DUP3 DUP3 LT ISZERO PUSH2 0x1CD4 JUMPI PUSH2 0x1C46 SWAP1 DUP3 PUSH2 0x17D7 JUMP JUMPDEST SWAP2 DUP1 DUP4 GT PUSH2 0x1CCC JUMPI JUMPDEST POP PUSH2 0x1C5A DUP2 DUP4 PUSH2 0x17E4 JUMP JUMPDEST PUSH2 0x1C63 DUP2 PUSH2 0x1BF6 JUMP JUMPDEST SWAP1 PUSH2 0x1C71 PUSH1 0x40 MLOAD SWAP3 DUP4 PUSH2 0x1683 JUMP JUMPDEST DUP1 DUP3 MSTORE PUSH2 0x1C80 PUSH1 0x1F NOT SWAP2 PUSH2 0x1BF6 JUMP JUMPDEST ADD CALLDATASIZE PUSH1 0x20 DUP4 ADD CALLDATACOPY DUP1 SWAP5 DUP3 JUMPDEST DUP5 DUP2 LT PUSH2 0x1C99 JUMPI POP POP POP POP POP JUMP JUMPDEST DUP1 PUSH2 0x1CA7 PUSH2 0x1CC7 SWAP3 DUP5 PUSH2 0x153C JUMP JUMPDEST SWAP1 SLOAD SWAP1 PUSH1 0x3 SHL SHR PUSH2 0x1CC1 PUSH2 0x1CBB DUP8 DUP5 PUSH2 0x17E4 JUMP JUMPDEST DUP7 PUSH2 0x1A49 JUMP JUMPDEST MSTORE PUSH2 0x1746 JUMP JUMPDEST PUSH2 0x1C8B JUMP JUMPDEST SWAP2 POP PUSH0 PUSH2 0x1C4F JUMP JUMPDEST POP PUSH1 0x60 SWAP4 POP POP POP JUMP JUMPDEST PUSH1 0x1 PUSH1 0x1 PUSH1 0xA0 SHL SUB SWAP1 SWAP2 AND DUP2 MSTORE PUSH1 0x7 PUSH1 0x20 MSTORE PUSH1 0x40 SWAP1 KECCAK256 SWAP3 PUSH2 0x1C31 JUMP INVALID LOG2 PUSH5 0x6970667358 0x22 SLT KECCAK256 0xE LT OR 0x29 CODECOPY 0xBD SLOAD DUP13 0xD1 SIGNEXTEND 0x4A RETURN 0xD3 SWAP13 SWAP5 PUSH19 0xB0BEED4E9FFB7C67E789E6EB93AC36B964736F PUSH13 0x63430008140033000000000000 "
		},
		"gasEstimates": {
			"creation": {
				"codeDepositCost": "1494200",
				"executionCost": "infinite",
				"totalCost": "infinite"
			},
			"external": {
				"active()": "2260",
				"activePositions(address,uint256)": "7038",
				"allowedPreset(uint256)": "infinite",
				"amountMultipliers(uint256)": "9112",
				"amountMultipliersLen()": "2762",
				"closeVault()": "infinite",
				"closed()": "2472",
				"factory()": "infinite",
				"getApprovedRouter()": "infinite",
				"getFees()": "infinite",
				"getPositionsPaginated(address,uint256,uint256,bool)": "infinite",
				"getXP(address)": "infinite",
				"historyPositions(address,uint256)": "7236",
				"isActive()": "2416",
				"maxDeposit()": "infinite",
				"minDeposit()": "infinite",
				"participants()": "infinite",
				"positions(uint256)": "15506",
				"positionsLength()": "2850",
				"presetTimes(uint256)": "6615",
				"presetTimesLen()": "2366",
				"protocol()": "infinite",
				"releaseAll(address)": "infinite",
				"releaseFor(address,address)": "infinite",
				"stakeFor(uint256,uint256,address)": "infinite",
				"timeMultipliers(uint256)": "8848",
				"timeMultipliersLen()": "2784",
				"token()": "infinite",
				"vaultToken()": "infinite",
				"xpRate()": "infinite"
			},
			"internal": {
				"_calcPositionXP(uint256,uint256,uint256)": "infinite",
				"_getRouter()": "infinite"
			}
		},
		"methodIdentifiers": {
			"active()": "02fb0c5e",
			"activePositions(address,uint256)": "6a5908a0",
			"allowedPreset(uint256)": "cba02476",
			"amountMultipliers(uint256)": "a0660dfa",
			"amountMultipliersLen()": "b9b792cd",
			"closeVault()": "18976fa2",
			"closed()": "597e1fb5",
			"factory()": "c45a0155",
			"getApprovedRouter()": "a547afe0",
			"getFees()": "db8d55f1",
			"getPositionsPaginated(address,uint256,uint256,bool)": "6b53503a",
			"getXP(address)": "639487f4",
			"historyPositions(address,uint256)": "ac55deb6",
			"isActive()": "22f3e2d4",
			"maxDeposit()": "6083e59a",
			"minDeposit()": "41b3d185",
			"participants()": "6c4470fb",
			"positions(uint256)": "99fbab88",
			"positionsLength()": "d6887bfa",
			"presetTimes(uint256)": "10390d35",
			"presetTimesLen()": "359cfbf7",
			"protocol()": "8ce74426",
			"releaseAll(address)": "580fc80a",
			"releaseFor(address,address)": "96d8ef8e",
			"stakeFor(uint256,uint256,address)": "b1b0ebcc",
			"timeMultipliers(uint256)": "5350cbd9",
			"timeMultipliersLen()": "c122c2a1",
			"token()": "fc0c546a",
			"vaultToken()": "703bafd5",
			"xpRate()": "094b81d3"
		}
	},
	"abi": [
		{
			"inputs": [
				{
					"internalType": "address",
					"name": "_protocol",
					"type": "address"
				},
				{
					"internalType": "address",
					"name": "_token",
					"type": "address"
				},
				{
					"internalType": "address",
					"name": "_factory",
					"type": "address"
				},
				{
					"internalType": "uint256",
					"name": "_minDeposit",
					"type": "uint256"
				},
				{
					"internalType": "uint256",
					"name": "_maxDeposit",
					"type": "uint256"
				},
				{
					"internalType": "int256",
					"name": "_xpRate",
					"type": "int256"
				},
				{
					"internalType": "uint256[]",
					"name": "_presetTimes",
					"type": "uint256[]"
				},
				{
					"components": [
						{
							"internalType": "uint256",
							"name": "minBlocks",
							"type": "uint256"
						},
						{
							"internalType": "uint256",
							"name": "multiplierBP",
							"type": "uint256"
						}
					],
					"internalType": "struct YunaVault.TimeMultiplier[]",
					"name": "_timeMultipliers",
					"type": "tuple[]"
				},
				{
					"components": [
						{
							"internalType": "uint256",
							"name": "minAmount",
							"type": "uint256"
						},
						{
							"internalType": "uint256",
							"name": "multiplierBP",
							"type": "uint256"
						}
					],
					"internalType": "struct YunaVault.AmountMultiplier[]",
					"name": "_amountMultipliers",
					"type": "tuple[]"
				}
			],
			"stateMutability": "nonpayable",
			"type": "constructor"
		},
		{
			"inputs": [
				{
					"internalType": "address",
					"name": "token",
					"type": "address"
				}
			],
			"name": "SafeERC20FailedOperation",
			"type": "error"
		},
		{
			"anonymous": false,
			"inputs": [
				{
					"indexed": true,
					"internalType": "address",
					"name": "user",
					"type": "address"
				},
				{
					"indexed": true,
					"internalType": "uint256",
					"name": "posId",
					"type": "uint256"
				},
				{
					"indexed": false,
					"internalType": "uint256",
					"name": "refund",
					"type": "uint256"
				}
			],
			"name": "EmergencyReleased",
			"type": "event"
		},
		{
			"anonymous": false,
			"inputs": [
				{
					"indexed": true,
					"internalType": "address",
					"name": "user",
					"type": "address"
				},
				{
					"indexed": true,
					"internalType": "uint256",
					"name": "posId",
					"type": "uint256"
				},
				{
					"indexed": false,
					"internalType": "uint256",
					"name": "refund",
					"type": "uint256"
				},
				{
					"indexed": false,
					"internalType": "uint256",
					"name": "fee",
					"type": "uint256"
				}
			],
			"name": "Released",
			"type": "event"
		},
		{
			"anonymous": false,
			"inputs": [
				{
					"indexed": true,
					"internalType": "address",
					"name": "user",
					"type": "address"
				},
				{
					"indexed": true,
					"internalType": "uint256",
					"name": "posId",
					"type": "uint256"
				},
				{
					"indexed": false,
					"internalType": "uint256",
					"name": "amount",
					"type": "uint256"
				},
				{
					"indexed": false,
					"internalType": "uint256",
					"name": "startBlock",
					"type": "uint256"
				},
				{
					"indexed": false,
					"internalType": "uint256",
					"name": "endBlock",
					"type": "uint256"
				}
			],
			"name": "Staked",
			"type": "event"
		},
		{
			"anonymous": false,
			"inputs": [],
			"name": "VaultClosed",
			"type": "event"
		},
		{
			"inputs": [],
			"name": "active",
			"outputs": [
				{
					"internalType": "bool",
					"name": "",
					"type": "bool"
				}
			],
			"stateMutability": "view",
			"type": "function"
		},
		{
			"inputs": [
				{
					"internalType": "address",
					"name": "",
					"type": "address"
				},
				{
					"internalType": "uint256",
					"name": "",
					"type": "uint256"
				}
			],
			"name": "activePositions",
			"outputs": [
				{
					"internalType": "uint256",
					"name": "",
					"type": "uint256"
				}
			],
			"stateMutability": "view",
			"type": "function"
		},
		{
			"inputs": [
				{
					"internalType": "uint256",
					"name": "blocks",
					"type": "uint256"
				}
			],
			"name": "allowedPreset",
			"outputs": [
				{
					"internalType": "bool",
					"name": "",
					"type": "bool"
				}
			],
			"stateMutability": "view",
			"type": "function"
		},
		{
			"inputs": [
				{
					"internalType": "uint256",
					"name": "",
					"type": "uint256"
				}
			],
			"name": "amountMultipliers",
			"outputs": [
				{
					"internalType": "uint256",
					"name": "minAmount",
					"type": "uint256"
				},
				{
					"internalType": "uint256",
					"name": "multiplierBP",
					"type": "uint256"
				}
			],
			"stateMutability": "view",
			"type": "function"
		},
		{
			"inputs": [],
			"name": "amountMultipliersLen",
			"outputs": [
				{
					"internalType": "uint256",
					"name": "",
					"type": "uint256"
				}
			],
			"stateMutability": "view",
			"type": "function"
		},
		{
			"inputs": [],
			"name": "closeVault",
			"outputs": [],
			"stateMutability": "nonpayable",
			"type": "function"
		},
		{
			"inputs": [],
			"name": "closed",
			"outputs": [
				{
					"internalType": "bool",
					"name": "",
					"type": "bool"
				}
			],
			"stateMutability": "view",
			"type": "function"
		},
		{
			"inputs": [],
			"name": "factory",
			"outputs": [
				{
					"internalType": "address",
					"name": "",
					"type": "address"
				}
			],
			"stateMutability": "view",
			"type": "function"
		},
		{
			"inputs": [],
			"name": "getApprovedRouter",
			"outputs": [
				{
					"internalType": "address",
					"name": "",
					"type": "address"
				}
			],
			"stateMutability": "view",
			"type": "function"
		},
		{
			"inputs": [],
			"name": "getFees",
			"outputs": [
				{
					"internalType": "uint256",
					"name": "_protocolFeeBP",
					"type": "uint256"
				},
				{
					"internalType": "uint256",
					"name": "_callerFeeBP",
					"type": "uint256"
				}
			],
			"stateMutability": "view",
			"type": "function"
		},
		{
			"inputs": [
				{
					"internalType": "address",
					"name": "user",
					"type": "address"
				},
				{
					"internalType": "uint256",
					"name": "offset",
					"type": "uint256"
				},
				{
					"internalType": "uint256",
					"name": "limit",
					"type": "uint256"
				},
				{
					"internalType": "bool",
					"name": "_active",
					"type": "bool"
				}
			],
			"name": "getPositionsPaginated",
			"outputs": [
				{
					"internalType": "uint256[]",
					"name": "page",
					"type": "uint256[]"
				}
			],
			"stateMutability": "view",
			"type": "function"
		},
		{
			"inputs": [
				{
					"internalType": "address",
					"name": "holder",
					"type": "address"
				}
			],
			"name": "getXP",
			"outputs": [
				{
					"internalType": "uint256",
					"name": "xp",
					"type": "uint256"
				}
			],
			"stateMutability": "view",
			"type": "function"
		},
		{
			"inputs": [
				{
					"internalType": "address",
					"name": "",
					"type": "address"
				},
				{
					"internalType": "uint256",
					"name": "",
					"type": "uint256"
				}
			],
			"name": "historyPositions",
			"outputs": [
				{
					"internalType": "uint256",
					"name": "",
					"type": "uint256"
				}
			],
			"stateMutability": "view",
			"type": "function"
		},
		{
			"inputs": [],
			"name": "isActive",
			"outputs": [
				{
					"internalType": "bool",
					"name": "",
					"type": "bool"
				}
			],
			"stateMutability": "view",
			"type": "function"
		},
		{
			"inputs": [],
			"name": "maxDeposit",
			"outputs": [
				{
					"internalType": "uint256",
					"name": "",
					"type": "uint256"
				}
			],
			"stateMutability": "view",
			"type": "function"
		},
		{
			"inputs": [],
			"name": "minDeposit",
			"outputs": [
				{
					"internalType": "uint256",
					"name": "",
					"type": "uint256"
				}
			],
			"stateMutability": "view",
			"type": "function"
		},
		{
			"inputs": [],
			"name": "participants",
			"outputs": [
				{
					"internalType": "address[]",
					"name": "",
					"type": "address[]"
				}
			],
			"stateMutability": "view",
			"type": "function"
		},
		{
			"inputs": [
				{
					"internalType": "uint256",
					"name": "",
					"type": "uint256"
				}
			],
			"name": "positions",
			"outputs": [
				{
					"internalType": "address",
					"name": "user",
					"type": "address"
				},
				{
					"internalType": "uint256",
					"name": "amount",
					"type": "uint256"
				},
				{
					"internalType": "uint256",
					"name": "startBlock",
					"type": "uint256"
				},
				{
					"internalType": "uint256",
					"name": "endBlock",
					"type": "uint256"
				},
				{
					"internalType": "bool",
					"name": "claimed",
					"type": "bool"
				}
			],
			"stateMutability": "view",
			"type": "function"
		},
		{
			"inputs": [],
			"name": "positionsLength",
			"outputs": [
				{
					"internalType": "uint256",
					"name": "",
					"type": "uint256"
				}
			],
			"stateMutability": "view",
			"type": "function"
		},
		{
			"inputs": [
				{
					"internalType": "uint256",
					"name": "",
					"type": "uint256"
				}
			],
			"name": "presetTimes",
			"outputs": [
				{
					"internalType": "uint256",
					"name": "",
					"type": "uint256"
				}
			],
			"stateMutability": "view",
			"type": "function"
		},
		{
			"inputs": [],
			"name": "presetTimesLen",
			"outputs": [
				{
					"internalType": "uint256",
					"name": "",
					"type": "uint256"
				}
			],
			"stateMutability": "view",
			"type": "function"
		},
		{
			"inputs": [],
			"name": "protocol",
			"outputs": [
				{
					"internalType": "address",
					"name": "",
					"type": "address"
				}
			],
			"stateMutability": "view",
			"type": "function"
		},
		{
			"inputs": [
				{
					"internalType": "address",
					"name": "caller",
					"type": "address"
				}
			],
			"name": "releaseAll",
			"outputs": [],
			"stateMutability": "nonpayable",
			"type": "function"
		},
		{
			"inputs": [
				{
					"internalType": "address",
					"name": "user",
					"type": "address"
				},
				{
					"internalType": "address",
					"name": "caller",
					"type": "address"
				}
			],
			"name": "releaseFor",
			"outputs": [],
			"stateMutability": "nonpayable",
			"type": "function"
		},
		{
			"inputs": [
				{
					"internalType": "uint256",
					"name": "amount",
					"type": "uint256"
				},
				{
					"internalType": "uint256",
					"name": "blocksToStake",
					"type": "uint256"
				},
				{
					"internalType": "address",
					"name": "beneficiary",
					"type": "address"
				}
			],
			"name": "stakeFor",
			"outputs": [],
			"stateMutability": "nonpayable",
			"type": "function"
		},
		{
			"inputs": [
				{
					"internalType": "uint256",
					"name": "",
					"type": "uint256"
				}
			],
			"name": "timeMultipliers",
			"outputs": [
				{
					"internalType": "uint256",
					"name": "minBlocks",
					"type": "uint256"
				},
				{
					"internalType": "uint256",
					"name": "multiplierBP",
					"type": "uint256"
				}
			],
			"stateMutability": "view",
			"type": "function"
		},
		{
			"inputs": [],
			"name": "timeMultipliersLen",
			"outputs": [
				{
					"internalType": "uint256",
					"name": "",
					"type": "uint256"
				}
			],
			"stateMutability": "view",
			"type": "function"
		},
		{
			"inputs": [],
			"name": "token",
			"outputs": [
				{
					"internalType": "address",
					"name": "",
					"type": "address"
				}
			],
			"stateMutability": "view",
			"type": "function"
		},
		{
			"inputs": [],
			"name": "vaultToken",
			"outputs": [
				{
					"internalType": "address",
					"name": "",
					"type": "address"
				}
			],
			"stateMutability": "view",
			"type": "function"
		},
		{
			"inputs": [],
			"name": "xpRate",
			"outputs": [
				{
					"internalType": "int256",
					"name": "",
					"type": "int256"
				}
			],
			"stateMutability": "view",
			"type": "function"
		}
	]
}