{
	"data": {
		"bytecode": {
			"linkReferences": {},
			"object": "6080346100b557601f6130a538819003918201601f19168301916001600160401b038311848410176100b9578084926020946040528339810103126100b557516001600160a01b038116908190036100b557603260025560196003558015610083575f80546001600160a01b031916919091179055604051612fd790816100ce8239f35b60405162461bcd60e51b815260206004820152600a602482015269070726f746f636f6c20360b41b6044820152606490fd5b5f80fd5b634e487b7160e01b5f52604160045260245ffdfe608080604052600436101562000013575f80fd5b5f90813560e01c9081630b78f9c01462000c48575080630e5dee451462000c275780638ce744261462000bfe5780639094a91e1462000bb557806397331bf91462000b1f578063a444477b14620004de578063b1e3a94114620004b0578063c5fba0b81462000490578063c99cb2b71462000105578063f25e78b114620000e55763fdd16e5714620000a3575f80fd5b34620000e2576020366003190112620000e2576020906001600160a01b039060409082620000d062000da1565b16815260048452205416604051908152f35b80fd5b5034620000e25780600319360112620000e2576020600354604051908152f35b5034620000e2576020806003193601126200048c576200012462000da1565b82546040516001600160a01b039267ffffffffffffffff9290913391851660608201858111838210176200047857604052602a825286820192604036853782511562000464576030845382516001908110156200045057607860218501536029905b808211620003dd575050620003be57620001db602f6040518095620001ca8b8301966e037b7363c90383937ba37b1b7b61d1608d1b88525180928585019062000ebe565b810103600f81018652018462000e3f565b33036200038157505082169283156200035357604051637e062a3560e11b80825292908281600481895afa8015620003225762000331575b50843b156200032d57604051630c4bb7d160e11b8152908682600481838a5af180156200032257620002f8575b50506040519182528082600481875afa918215620002ed5760049284918791620002b9575b5016855252604083209082825491821614620002a5575b50507f56e87d53b3df539e22b78c93f5852467c09176615a569a3052d9b4b954612a6d8280a280f35b6001600160a01b03191690555f806200027c565b620002de9150833d8511620002e5575b620002d5818362000e3f565b81019062000ee1565b5f62000265565b503d620002c9565b6040513d87823e3d90fd5b81969296116200030e57604052935f8062000240565b634e487b7160e01b82526041600452602482fd5b6040513d89823e3d90fd5b8580fd5b6200034b90833d8511620002e557620002d5818362000e3f565b505f62000213565b6064906040519062461bcd60e51b82526004820152600760248201526607661756c7420360cc1b6044820152fd5b85604491620003b060405194859362461bcd60e51b855260048501525180928160248601528585019062000ebe565b601f01601f19168101030190fd5b60405163e22e27eb60e01b815233600482015260146024820152604490fd5b9091600f811660108110156200043c5785518410156200043c576f181899199a1a9b1b9c1cb0b131b232b360811b901a8584018b015360041c91801562000428575f19019062000186565b634e487b7160e01b8b52601160045260248bfd5b634e487b7160e01b8c52603260045260248cfd5b634e487b7160e01b8a52603260045260248afd5b634e487b7160e01b89526032600452602489fd5b634e487b7160e01b89526041600452602489fd5b5080fd5b5034620000e25780600319360112620000e2576020600254604051908152f35b5034620000e2576020366003190112620000e2576020906001600160a01b039060409082620000d062000da1565b5034620000e25760e0366003190112620000e257620004fc62000da1565b67ffffffffffffffff608435116200048c573660236084350112156200048c5767ffffffffffffffff60843560040135116200048c573660246084356004013560051b6084350101116200048c5760a43567ffffffffffffffff811162000b1b576200056d90369060040162000db8565b60c43567ffffffffffffffff811162000b17576200059090369060040162000db8565b90916001600160a01b0385161562000ae8576001600160a01b038581168752600460205260408720541662000aad57620005ca8162000e62565b93620005da604051958662000e3f565b818552620005e88262000e62565b875b601f198201811062000a87575050865b828110620009a057505050620006108162000e62565b9162000620604051938462000e3f565b8183526200062e8262000e62565b601f1901865b8181106200097a575050855b8281106200088d5750508454604051939150611fd1808501916001600160a01b03169067ffffffffffffffff831186841017620008795762000fd1863981526001600160a01b03851660208201523060408201526024356060820152604435608082015260643560a082015261012060c08201819052600460843501359082018190526001600160fb1b03106200032d57908392916101406084356004013560051b6024608435018284013760206101606084356004013560051b8401838101938582030160e0860152855180945201930190885b818110620008435750505061010081830391015260208083519283815201920190865b8181106200081157505050039083f08015620008065760018060a01b03169060015468010000000000000000811015620007f257602093620007838260016040940160015562000d57565b81546001600160a01b0360039290921b82811b199091169087901b179091559290921680835260048552912080546001600160a01b031916831790556040518281527f5d9c31ffa0fecffd7cf379989a3c7af252f0335e0d2a1320b55245912c781f53908490a2604051908152f35b634e487b7160e01b84526041600452602484fd5b6040513d84823e3d90fd5b91935091602062000835600192865190602060409280518352015160208201520190565b940191019184939262000738565b919495509192602062000869600192875190602060409280518352015160208201520190565b9501910191869594939262000715565b634e487b7160e01b88526041600452602488fd5b80620008f4575b80620008a6620008ee92858562000e8a565b356020620008b683878762000e8a565b013560405191620008c78362000e0e565b82526020820152620008da828762000ea9565b52620008e7818662000ea9565b5062000e7b565b62000640565b6200090181848462000e8a565b355f19820182811162000966576200091b90858562000e8a565b35106200089457606460405162461bcd60e51b815260206004820152602060248201527f416d6f756e74206d756c7469706c69657273206e6f7420617363656e64696e676044820152fd5b634e487b7160e01b89526011600452602489fd5b6020906040516200098b8162000e0e565b89815289838201528282880101520162000634565b8062000a00575b80620009b9620009fa92858562000e8a565b356020620009c983878762000e8a565b013560405191620009da8362000e0e565b82526020820152620009ed828962000ea9565b52620008e7818862000ea9565b620005fa565b62000a0d81848462000e8a565b355f19820182811162000a735762000a2790858562000e8a565b3510620009a75760405162461bcd60e51b815260206004820152601e60248201527f54696d65206d756c7469706c69657273206e6f7420617363656e64696e6700006044820152606490fd5b634e487b7160e01b8a52601160045260248afd5b60209060405162000a988162000e0e565b8a81528a8382015282828a01015201620005ea565b60405162461bcd60e51b8152602060048201526013602482015272616374697665207661756c742065786973747360681b6044820152606490fd5b60405162461bcd60e51b81526020600482015260076024820152660746f6b656e20360cc1b6044820152606490fd5b8480fd5b8280fd5b5034620000e25780600319360112620000e257604051600180548083528184526020808401947fb10e2d527612073b26eecdfd717e6a320cf44b4afac2b0732d9fcbe2b7fa0cf69392915b82821062000b965762000b928662000b85818a038262000e3f565b6040519182918262000d12565b0390f35b84546001600160a01b0316875295860195938301939083019062000b6a565b5034620000e2576020366003190112620000e25760043590600154821015620000e257602062000be58362000d57565b905460405160039290921b1c6001600160a01b03168152f35b5034620000e25780600319360112620000e257546040516001600160a01b039091168152602090f35b5034620000e25762000b9262000b8562000c413662000cf7565b9062000f02565b9050346200048c5762000c5b3662000cf7565b83549092906001600160a01b0316330362000cc5575061271062000c80838362000dec565b101562000c905760025560035580f35b60405162461bcd60e51b815260206004820152600d60248201526c0cccacae640e8dede40d0d2ced609b1b6044820152606490fd5b62461bcd60e51b815260206004820152600d60248201526c1bdb9b1e481c1c9bdd1bd8dbdb609a1b6044820152606490fd5b604090600319011262000d0e576004359060243590565b5f80fd5b602090816040818301928281528551809452019301915f5b82811062000d39575050505090565b83516001600160a01b03168552938101939281019260010162000d2a565b60015481101562000d8d5760015f527fb10e2d527612073b26eecdfd717e6a320cf44b4afac2b0732d9fcbe2b7fa0cf601905f90565b634e487b7160e01b5f52603260045260245ffd5b600435906001600160a01b038216820362000d0e57565b9181601f8401121562000d0e5782359167ffffffffffffffff831162000d0e576020808501948460061b01011162000d0e57565b9190820180921162000dfa57565b634e487b7160e01b5f52601160045260245ffd5b6040810190811067ffffffffffffffff82111762000e2b57604052565b634e487b7160e01b5f52604160045260245ffd5b90601f8019910116810190811067ffffffffffffffff82111762000e2b57604052565b67ffffffffffffffff811162000e2b5760051b60200190565b5f19811462000dfa5760010190565b919081101562000d8d5760061b0190565b9190820391821162000dfa57565b805182101562000d8d5760209160051b010190565b5f5b83811062000ed05750505f910152565b818101518382015260200162000ec0565b9081602091031262000d0e57516001600160a01b038116810362000d0e5790565b9190600154908184101562000fc85762000f1d908462000dec565b9080821162000fbf575b5062000f34838262000e9b565b9262000f408462000e62565b9362000f50604051958662000e3f565b80855262000f61601f199162000e62565b0136602086013783815b83811062000f795750505050565b8062000f8962000fb99262000d57565b905460039190911b1c6001600160a01b031662000fb262000fab868462000e9b565b8562000ea9565b5262000e7b565b62000f6b565b90505f62000f27565b50606092505056fe61014060405234620004825762001fd1803803806200001e816200049b565b92833961012082828101031262000482576200003a82620004c1565b906200004960208401620004c1565b926200005860408201620004c1565b6060820151608083015160a084015160c0850151979092906001600160401b0389116200048257868601601f8a880101121562000482578886015195620000a9620000a388620004d6565b6200049b565b9660208882815201809b8a840160208460051b838701010111620004825790602082850101915b60208460051b8287010101831062000486575050505060e08101516001600160401b03811162000482578101888201601f8201121562000482576200011f9089830190602081519101620004ee565b6101008201519098906001600160401b0381116200048257820190808301601f8301121562000482576200015b920190602081519101620004ee565b60015f8190556004805461ffff19169091179055976001600160a01b038082161562000450578216156200042157838311620003f25760805260c05260e052610100526101205260a052516001600160401b0381116200026c5768010000000000000000938482116200026c5760015482600155808310620003ab575b5060015f5260205f205f5b8381106200039657505050505f5b81518110156200028057620002078183620005a5565b51906002805492868410156200026c5760018401808355841015620002585762000252936200024c925f5260205f209060011b01906020600191805184550151910155565b62000582565b620001f1565b634e487b7160e01b5f52603260045260245ffd5b634e487b7160e01b5f52604160045260245ffd5b50505f5b8151811015620002e5576200029a8183620005a5565b51906003805492858410156200026c57600184018083558410156200025857620002df936200024c925f5260205f209060011b01906020600191805184550151910155565b62000284565b604051611a169081620005bb823960805181818161036f0152818161054701528181610fe60152611145015260a0518181816101ef015281816111e1015261165e015260c05181818161049b01528181610568015281816105ed0152818161071e01528181610e9801528181610fad01528181611007015261138b015260e0518181816106a101526110ad0152610100518181816109c00152610da101526101205181818161124c01526117910152f35b600190602084519401938184015501620001e3565b60015f527fb10e2d527612073b26eecdfd717e6a320cf44b4afac2b0732d9fcbe2b7fa0cf69081019083015b818110620003e65750620001d8565b5f8155600101620003d7565b60405162461bcd60e51b81526020600482015260076024820152660dad2dc7cdac2f60cb1b6044820152606490fd5b60405162461bcd60e51b81526020600482015260076024820152660746f6b656e20360cc1b6044820152606490fd5b60405162461bcd60e51b815260206004820152600a602482015269070726f746f636f6c20360b41b6044820152606490fd5b5f80fd5b602080809385518152019301929150620000d0565b6040519190601f01601f191682016001600160401b038111838210176200026c57604052565b51906001600160a01b03821682036200048257565b6001600160401b0381116200026c5760051b60200190565b90929162000500620000a385620004d6565b938085526020918286019160061b8401938185116200048257915b8483106200052a575050505050565b604080848403126200048257805180820192906001600160401b038411818510176200056e576040938793528551815282860151838201528152019201916200051b565b60245f634e487b7160e01b81526041600452fd5b5f198114620005915760010190565b634e487b7160e01b5f52601160045260245ffd5b8051821015620002585760209160051b01019056fe60806040818152600480361015610014575f80fd5b5f90813560e01c93846302fb0c5e1461126f57508363094b81d31461123457836310390d351461120957836318976fa21461112a57836322f3e2d4146110ef578363359cfbf7146110d057836341b3d185146110955783635350cbd91461106e578363597e1fb5146110485783635be7fde814610dc45783636083e59a14610d89578363639487f414610bb35783636a5908a014610b6b5783636b53503a14610aef5783636c4470fb14610a2b578363703bafd5146101625783637b0472f01461066a57836386d1a69f1461039e5783638ce744261461035a57836399fbab88146102ed578363a0660dfa146102b2578363ac55deb61461025c578363b9b792cd1461023d578363c122c2a11461021e578363c45a0155146101da578363cba02476146101b157508263d6887bfa1461018f578263db8d55f11461016757505063fc0c546a14610162575f80fd5b611376565b3461018c578060031936011261018c575061018061164b565b82519182526020820152f35b80fd5b90346101ad57816003193601126101ad576020906005549051908152f35b5080fd5b92503461018c57602036600319011261018c57506101d160209235611414565b90519015158152f35b5090346101ad57816003193601126101ad57517f00000000000000000000000000000000000000000000000000000000000000006001600160a01b03168152602090f35b5090346101ad57816003193601126101ad576020906002549051908152f35b5090346101ad57816003193601126101ad576020906003549051908152f35b5090346101ad57806003193601126101ad5761027661135c565b6001600160a01b0316825260076020528082208054602435939084101561018c57506020926102a4916112d7565b91905490519160031b1c8152f35b346101ad5760203660031901126101ad57359060035482101561018c57506102d990611324565b506001815491015482519182526020820152f35b82346103565760203660031901126103565781359260055484101561018c575061031860a0936113ba565b50600180851b038154169260018201549260ff6002840154926003850154940154169381519586526020860152840152606083015215156080820152f35b8280fd5b5090346101ad57816003193601126101ad57517f00000000000000000000000000000000000000000000000000000000000000006001600160a01b03168152602090f35b91346101ad57816003193601126101ad576103b76114f2565b6103bf61164b565b5091338152602090600682528281209381935b8554851015610662576103e585876112d7565b9054600391821b1c6103f6816113ba565b5082810154431080158b830180549260ff90818516159182610636575b505015610620579089916001809460ff19161790555f146105ad575081015461271086810381811161059a57868361047e8796946104767f7b381718bec1e0dbc1241809ee9b55f3d783b95880307f002707fad981fa5069956104de9a986115ab565b0480926114c0565b9384610541575b80546001600160a01b0391906104c190849084167f000000000000000000000000000000000000000000000000000000000000000085166115fb565b54169382519182528c820152a35b338652600787528386206114cd565b86545f19810190811161052e57906104f961052092896112d7565b9054911b1c61050887896112d7565b90919082549060031b91821b915f19901b1916179055565b610529866115be565b6103d2565b634e487b7160e01b855260118952602485fd5b610595857f00000000000000000000000000000000000000000000000000000000000000007f00000000000000000000000000000000000000000000000000000000000000006001600160a01b03166115fb565b610485565b634e487b7160e01b895260118d52602489fd5b917fbaea19541010bad0070d3e9eba7d614e4f22a90d557eb4b70272d33a32793a0784936104de95938301549260018060a01b03906106128583835416847f0000000000000000000000000000000000000000000000000000000000000000166115fb565b5416928851908152a36104cf565b50505050505093610630906113f2565b936103d2565b84925090610647575b508e80610413565b90508d5460081c168061065b575b8e61063f565b5088610655565b826001815580f35b823461035657806003193601126103565781359060249283359061068c6114f2565b805460ff81169081610a1c575b50156109e7577f0000000000000000000000000000000000000000000000000000000000000000841015806109bd575b15610984578115610957576106dd82611414565b156109205782516323b872dd60e01b602082015233868201523060448201526064808201869052815261070f8161146e565b6001600160a01b0390610744907f00000000000000000000000000000000000000000000000000000000000000008316611546565b61074e8343611461565b9584519261075b8461146e565b338452602084019387855286810198438a526060820190815260808201998b8b5260055495600160401b968781101561090e5780600161079e92016005556113ba565b9490946108fd5751845491166001600160a01b0319918216178455965160018401555160028301555160038201559751978101805460ff1990811699151560ff169990991790556005545f198101989089116108eb57338a52600660205261080889888c206114cd565b338a526009602052868a2090815460ff81161561086a575b8b8b8b8b61082e8c43611461565b9080519283524360208401528201527f9cfd25589d1eb8ad71e342a86a8524e83522e3936c0803048c08f6d9ad974f4060603392a36001815580f35b166001179055600854928310156108da5760018301806008558310156108c9575050600887527ff3f7a9fe364faab93b216da50a3214154f22a0a2b415b23a84c8169e8b636ee30180549091163317905561082e868080808080610820565b634e487b7160e01b89526032905287fd5b634e487b7160e01b89526041905287fd5b50634e487b7160e01b89526011905287fd5b634e487b7160e01b8e528d8652868efd5b634e487b7160e01b8e5260418652868efd5b606490601286602086519362461bcd60e51b8552840152820152711c1c995cd95d081b9bdd08185b1b1bddd95960721b6044820152fd5b606490600886602086519362461bcd60e51b8552840152820152670626c6f636b733e360c41b6044820152fd5b606490601486602086519362461bcd60e51b855284015282015273616d6f756e74206f7574206f6620626f756e647360601b6044820152fd5b507f00000000000000000000000000000000000000000000000000000000000000008411156106c9565b606490601086602086519362461bcd60e51b85528401528201526f7661756c74206e6f742061637469766560801b6044820152fd5b60ff915060081c161587610699565b503461018c578060031936011261018c579080519182906008549182855260208095018093600884527ff3f7a9fe364faab93b216da50a3214154f22a0a2b415b23a84c8169e8b636ee390845b818110610ad25750505081610a8e91038261149e565b83519485948186019282875251809352850193925b828110610ab257505050500390f35b83516001600160a01b031685528695509381019392810192600101610aa3565b82546001600160a01b031684529288019260019283019201610a78565b5090346101ad5760803660031901126101ad57610b0a61135c565b6064358015158103610b6757610b279160443590602435906118f5565b815192839260208080860192818752855180945286019401925b828110610b5057505050500390f35b835185528695509381019392810192600101610b41565b8380fd5b5090346101ad57806003193601126101ad57610b8561135c565b6001600160a01b0316825260066020528082208054602435939084101561018c57506020926102a4916112d7565b5090346101ad5760208060031936011261035657610bcf61135c565b839060018060a01b03169283855260068352808520938151808686829854938481520190895286892092895b88828210610d7357505050610c129250038661149e565b855260078352808520938151808686829854938481520190895286892092895b88828210610d5d57505050610c499250038661149e565b85925b8151841015610ce757610c71610c6b610c658685611730565b516113ba565b50611744565b606081018681514381115f14610ce25750435b8684019081519081811115610cd25792610cb8610cc69693610cae610ccc999794610cc0976114c0565b93519051906114c0565b92015161178e565b90611461565b936113f2565b92610c4c565b50505050505092610ccc906113f2565b610c84565b9250509193905b8351821015610d545784610d08610c6b610c658588611730565b6060810151858201519081811115610d465792610d409492610d30610cc093610d3a966114c0565b918291015161178e565b916113f2565b90610cee565b5050505090610d40906113f2565b92505051908152f35b855484526001958601958b955093019201610c32565b855484526001958601958b955093019201610bfb565b5090346101ad57816003193601126101ad57602090517f00000000000000000000000000000000000000000000000000000000000000008152f35b8234610356578260031936011261035657610df29192610de26114f2565b610dea61164b565b819491611461565b91815b60055481101561066257610e08816113ba565b508681019081549160ff8316158061103a575b610e31575b505050610e2c906113f2565b610df5565b906006916001809460ff1916179055828101546127109182610e538a846115ab565b0492610e698b610e6386866114c0565b946115ab565b04610e7481856114c0565b9080610fe0575b5080610fa6575b50868660018060a01b0393610ebd8186865416877f0000000000000000000000000000000000000000000000000000000000000000166115fb565b7f7b381718bec1e0dbc1241809ee9b55f3d783b95880307f002707fad981fa506985855416938492815190815260209889820152a3885260078352610f0486888a206114cd565b541686525282842084825b15610e2057815480821015610fa0578490610f2a83856112d7565b929054600393841b1c14610f4a575050610f4483916113f2565b90610f0f565b92935090915f198101908111610f8d57610f85926105088593610f74610f8094610e2c99986112d7565b9054911b1c91846112d7565b6115be565b908780610e20565b634e487b7160e01b875260118a52602487fd5b50610e20565b610fda90337f00000000000000000000000000000000000000000000000000000000000000006001600160a01b03166115fb565b8b610e82565b611034907f00000000000000000000000000000000000000000000000000000000000000007f00000000000000000000000000000000000000000000000000000000000000006001600160a01b03166115fb565b8c610e7b565b506003820154431015610e1b565b92503461018c578060031936011261018c575060ff6020925460081c1690519015158152f35b346101ad5760203660031901126101ad57359060025482101561018c57506102d9906112ec565b5090346101ad57816003193601126101ad57602090517f00000000000000000000000000000000000000000000000000000000000000008152f35b5090346101ad57816003193601126101ad576020906001549051908152f35b82903461035657826003193601126103565760209250549060ff8216918261111b575b50519015158152f35b60081c60ff1615915083611112565b823461035657826003193601126103565760018060a01b03807f00000000000000000000000000000000000000000000000000000000000000001633149081156111dd575b50156111aa5750805461ffff19166101001790557fdf23397ab444d891935a0b305b1552fb235d2bd07043ffc42c6ed3f43a4d83528180a180f35b906020606492519162461bcd60e51b8352820152600d60248201526c1bdb9b1e481c1c9bdd1bd8dbdb609a1b6044820152fd5b90507f00000000000000000000000000000000000000000000000000000000000000001633148461116f565b82903461035657602036600319011261035657359160015483101561018c57506102a460209261128e565b5090346101ad57816003193601126101ad57602090517f00000000000000000000000000000000000000000000000000000000000000008152f35b823461018c578060031936011261018c575060ff602092541615158152f35b6001548110156112c35760015f527fb10e2d527612073b26eecdfd717e6a320cf44b4afac2b0732d9fcbe2b7fa0cf601905f90565b634e487b7160e01b5f52603260045260245ffd5b80548210156112c3575f5260205f2001905f90565b6002548110156112c35760025f5260011b7f405787fa12a823e0f2b7631cc41b3ba8828b3321ca811111fa75cd3aa3bb5ace01905f90565b6003548110156112c35760035f5260011b7fc2575a0e9e593c00f959f8c92f12db2869c3395a3b0502d05e2516446f71f85b01905f90565b600435906001600160a01b038216820361137257565b5f80fd5b34611372575f366003190112611372576040517f00000000000000000000000000000000000000000000000000000000000000006001600160a01b03168152602090f35b6005548110156112c357600590815f52027f036b6384b5eca791c62761152d0c79bb0604c104a5fb6f4eb0703f3154bb3db001905f90565b5f1981146114005760010190565b634e487b7160e01b5f52601160045260245ffd5b6001805491821561145b575f5b83811061143057505050505f90565b8161143a8261128e565b90549060031b1c146114545761144f906113f2565b611421565b5050905090565b50905090565b9190820180921161140057565b60a0810190811067ffffffffffffffff82111761148a57604052565b634e487b7160e01b5f52604160045260245ffd5b90601f8019910116810190811067ffffffffffffffff82111761148a57604052565b9190820391821161140057565b90815491600160401b83101561148a57826105089160016114f0950181556112d7565b565b60025f54146115015760025f55565b60405162461bcd60e51b815260206004820152601f60248201527f5265656e7472616e637947756172643a207265656e7472616e742063616c6c006044820152606490fd5b905f602091828151910182855af1156115a0575f513d61159757506001600160a01b0381163b155b6115755750565b604051635274afe760e01b81526001600160a01b039091166004820152602490fd5b6001141561156e565b6040513d5f823e3d90fd5b8181029291811591840414171561140057565b80549081156115e7575f19918201916115d783836112d7565b909182549160031b1b1916905555565b634e487b7160e01b5f52603160045260245ffd5b60405163a9059cbb60e01b60208201526001600160a01b039092166024830152604480830193909352918152608081019167ffffffffffffffff83118284101761148a576114f092604052611546565b6040516318bf741760e31b8152602091907f00000000000000000000000000000000000000000000000000000000000000006001600160a01b0316908381600481855afa9182156115a05784915f936116fd575b5060405163f25e78b160e01b81529190829060049082905afa9384156115a0575f946116cc575b50509190565b8181959293953d83116116f6575b6116e4818361149e565b8101031261018c575051915f806116c6565b503d6116da565b9182819492943d8311611729575b611715818361149e565b8101031261018c575051908390600461169f565b503d61170b565b80518210156112c35760209160051b010190565b906040516117518161146e565b82546001600160a01b0316815260018301546020820152600283015460408201526003830154606082015260049092015460ff1615156080830152565b907f00000000000000000000000000000000000000000000000000000000000000005f80821261188e57506117c66117cb92846115ab565b6115ab565b90915b612710905f600254915b82821061184d575b505050612710905f600354945b858210611816575b5050612710935061180b611812939285926115ab565b04906115ab565b0490565b909261182184611324565b505482106118475750611841600161183885611324565b500154936113f2565b906117ed565b926117f5565b909194939261185b836112ec565b50548210611886575061187b6001611872846112ec565b500154926113f2565b9094919293946117d8565b9293946117e0565b91600160ff1b82146118c9576118a490846115ab565b9181156118b55703900490916117ce565b634e487b7160e01b81526012600452602490fd5b634e487b7160e01b83526011600452602483fd5b67ffffffffffffffff811161148a5760051b60200190565b9093925f90156119c457506001600160a01b03165f908152600660205260409020925b835491828210156119bb5761192d9082611461565b918083116119b3575b5061194181836114c0565b61194a816118dd565b90611958604051928361149e565b808252611967601f19916118dd565b013660208301378094825b848110611980575050505050565b8061198e6119ae92846112d7565b90549060031b1c6119a86119a287846114c0565b86611730565b526113f2565b611972565b91505f611936565b50606093505050565b6001600160a01b0390911681526007602052604090209261191856fea264697066735822122089b08f62e053445ab7f87679a7b06061cb04f01f433cd4369fee727d2132985a64736f6c63430008140033a264697066735822122090f708cb1ed350a1e437538d2500afd27d4410d87c60507ccc5c568b3164451b64736f6c63430008140033",
			"opcodes": "PUSH1 0x80 CALLVALUE PUSH2 0xB5 JUMPI PUSH1 0x1F PUSH2 0x30A5 CODESIZE DUP2 SWAP1 SUB SWAP2 DUP3 ADD PUSH1 0x1F NOT AND DUP4 ADD SWAP2 PUSH1 0x1 PUSH1 0x1 PUSH1 0x40 SHL SUB DUP4 GT DUP5 DUP5 LT OR PUSH2 0xB9 JUMPI DUP1 DUP5 SWAP3 PUSH1 0x20 SWAP5 PUSH1 0x40 MSTORE DUP4 CODECOPY DUP2 ADD SUB SLT PUSH2 0xB5 JUMPI MLOAD PUSH1 0x1 PUSH1 0x1 PUSH1 0xA0 SHL SUB DUP2 AND SWAP1 DUP2 SWAP1 SUB PUSH2 0xB5 JUMPI PUSH1 0x32 PUSH1 0x2 SSTORE PUSH1 0x19 PUSH1 0x3 SSTORE DUP1 ISZERO PUSH2 0x83 JUMPI PUSH0 DUP1 SLOAD PUSH1 0x1 PUSH1 0x1 PUSH1 0xA0 SHL SUB NOT AND SWAP2 SWAP1 SWAP2 OR SWAP1 SSTORE PUSH1 0x40 MLOAD PUSH2 0x2FD7 SWAP1 DUP2 PUSH2 0xCE DUP3 CODECOPY RETURN JUMPDEST PUSH1 0x40 MLOAD PUSH3 0x461BCD PUSH1 0xE5 SHL DUP2 MSTORE PUSH1 0x20 PUSH1 0x4 DUP3 ADD MSTORE PUSH1 0xA PUSH1 0x24 DUP3 ADD MSTORE PUSH10 0x70726F746F636F6C203 PUSH1 0xB4 SHL PUSH1 0x44 DUP3 ADD MSTORE PUSH1 0x64 SWAP1 REVERT JUMPDEST PUSH0 DUP1 REVERT JUMPDEST PUSH4 0x4E487B71 PUSH1 0xE0 SHL PUSH0 MSTORE PUSH1 0x41 PUSH1 0x4 MSTORE PUSH1 0x24 PUSH0 REVERT INVALID PUSH1 0x80 DUP1 PUSH1 0x40 MSTORE PUSH1 0x4 CALLDATASIZE LT ISZERO PUSH3 0x13 JUMPI PUSH0 DUP1 REVERT JUMPDEST PUSH0 SWAP1 DUP2 CALLDATALOAD PUSH1 0xE0 SHR SWAP1 DUP2 PUSH4 0xB78F9C0 EQ PUSH3 0xC48 JUMPI POP DUP1 PUSH4 0xE5DEE45 EQ PUSH3 0xC27 JUMPI DUP1 PUSH4 0x8CE74426 EQ PUSH3 0xBFE JUMPI DUP1 PUSH4 0x9094A91E EQ PUSH3 0xBB5 JUMPI DUP1 PUSH4 0x97331BF9 EQ PUSH3 0xB1F JUMPI DUP1 PUSH4 0xA444477B EQ PUSH3 0x4DE JUMPI DUP1 PUSH4 0xB1E3A941 EQ PUSH3 0x4B0 JUMPI DUP1 PUSH4 0xC5FBA0B8 EQ PUSH3 0x490 JUMPI DUP1 PUSH4 0xC99CB2B7 EQ PUSH3 0x105 JUMPI DUP1 PUSH4 0xF25E78B1 EQ PUSH3 0xE5 JUMPI PUSH4 0xFDD16E57 EQ PUSH3 0xA3 JUMPI PUSH0 DUP1 REVERT JUMPDEST CALLVALUE PUSH3 0xE2 JUMPI PUSH1 0x20 CALLDATASIZE PUSH1 0x3 NOT ADD SLT PUSH3 0xE2 JUMPI PUSH1 0x20 SWAP1 PUSH1 0x1 PUSH1 0x1 PUSH1 0xA0 SHL SUB SWAP1 PUSH1 0x40 SWAP1 DUP3 PUSH3 0xD0 PUSH3 0xDA1 JUMP JUMPDEST AND DUP2 MSTORE PUSH1 0x4 DUP5 MSTORE KECCAK256 SLOAD AND PUSH1 0x40 MLOAD SWAP1 DUP2 MSTORE RETURN JUMPDEST DUP1 REVERT JUMPDEST POP CALLVALUE PUSH3 0xE2 JUMPI DUP1 PUSH1 0x3 NOT CALLDATASIZE ADD SLT PUSH3 0xE2 JUMPI PUSH1 0x20 PUSH1 0x3 SLOAD PUSH1 0x40 MLOAD SWAP1 DUP2 MSTORE RETURN JUMPDEST POP CALLVALUE PUSH3 0xE2 JUMPI PUSH1 0x20 DUP1 PUSH1 0x3 NOT CALLDATASIZE ADD SLT PUSH3 0x48C JUMPI PUSH3 0x124 PUSH3 0xDA1 JUMP JUMPDEST DUP3 SLOAD PUSH1 0x40 MLOAD PUSH1 0x1 PUSH1 0x1 PUSH1 0xA0 SHL SUB SWAP3 PUSH8 0xFFFFFFFFFFFFFFFF SWAP3 SWAP1 SWAP2 CALLER SWAP2 DUP6 AND PUSH1 0x60 DUP3 ADD DUP6 DUP2 GT DUP4 DUP3 LT OR PUSH3 0x478 JUMPI PUSH1 0x40 MSTORE PUSH1 0x2A DUP3 MSTORE DUP7 DUP3 ADD SWAP3 PUSH1 0x40 CALLDATASIZE DUP6 CALLDATACOPY DUP3 MLOAD ISZERO PUSH3 0x464 JUMPI PUSH1 0x30 DUP5 MSTORE8 DUP3 MLOAD PUSH1 0x1 SWAP1 DUP2 LT ISZERO PUSH3 0x450 JUMPI PUSH1 0x78 PUSH1 0x21 DUP6 ADD MSTORE8 PUSH1 0x29 SWAP1 JUMPDEST DUP1 DUP3 GT PUSH3 0x3DD JUMPI POP POP PUSH3 0x3BE JUMPI PUSH3 0x1DB PUSH1 0x2F PUSH1 0x40 MLOAD DUP1 SWAP6 PUSH3 0x1CA DUP12 DUP4 ADD SWAP7 PUSH15 0x37B7363C90383937BA37B1B7B61D1 PUSH1 0x8D SHL DUP9 MSTORE MLOAD DUP1 SWAP3 DUP6 DUP6 ADD SWAP1 PUSH3 0xEBE JUMP JUMPDEST DUP2 ADD SUB PUSH1 0xF DUP2 ADD DUP7 MSTORE ADD DUP5 PUSH3 0xE3F JUMP JUMPDEST CALLER SUB PUSH3 0x381 JUMPI POP POP DUP3 AND SWAP3 DUP4 ISZERO PUSH3 0x353 JUMPI PUSH1 0x40 MLOAD PUSH4 0x7E062A35 PUSH1 0xE1 SHL DUP1 DUP3 MSTORE SWAP3 SWAP1 DUP3 DUP2 PUSH1 0x4 DUP2 DUP10 GAS STATICCALL DUP1 ISZERO PUSH3 0x322 JUMPI PUSH3 0x331 JUMPI JUMPDEST POP DUP5 EXTCODESIZE ISZERO PUSH3 0x32D JUMPI PUSH1 0x40 MLOAD PUSH4 0xC4BB7D1 PUSH1 0xE1 SHL DUP2 MSTORE SWAP1 DUP7 DUP3 PUSH1 0x4 DUP2 DUP4 DUP11 GAS CALL DUP1 ISZERO PUSH3 0x322 JUMPI PUSH3 0x2F8 JUMPI JUMPDEST POP POP PUSH1 0x40 MLOAD SWAP2 DUP3 MSTORE DUP1 DUP3 PUSH1 0x4 DUP2 DUP8 GAS STATICCALL SWAP2 DUP3 ISZERO PUSH3 0x2ED JUMPI PUSH1 0x4 SWAP3 DUP5 SWAP2 DUP8 SWAP2 PUSH3 0x2B9 JUMPI JUMPDEST POP AND DUP6 MSTORE MSTORE PUSH1 0x40 DUP4 KECCAK256 SWAP1 DUP3 DUP3 SLOAD SWAP2 DUP3 AND EQ PUSH3 0x2A5 JUMPI JUMPDEST POP POP PUSH32 0x56E87D53B3DF539E22B78C93F5852467C09176615A569A3052D9B4B954612A6D DUP3 DUP1 LOG2 DUP1 RETURN JUMPDEST PUSH1 0x1 PUSH1 0x1 PUSH1 0xA0 SHL SUB NOT AND SWAP1 SSTORE PUSH0 DUP1 PUSH3 0x27C JUMP JUMPDEST PUSH3 0x2DE SWAP2 POP DUP4 RETURNDATASIZE DUP6 GT PUSH3 0x2E5 JUMPI JUMPDEST PUSH3 0x2D5 DUP2 DUP4 PUSH3 0xE3F JUMP JUMPDEST DUP2 ADD SWAP1 PUSH3 0xEE1 JUMP JUMPDEST PUSH0 PUSH3 0x265 JUMP JUMPDEST POP RETURNDATASIZE PUSH3 0x2C9 JUMP JUMPDEST PUSH1 0x40 MLOAD RETURNDATASIZE DUP8 DUP3 RETURNDATACOPY RETURNDATASIZE SWAP1 REVERT JUMPDEST DUP2 SWAP7 SWAP3 SWAP7 GT PUSH3 0x30E JUMPI PUSH1 0x40 MSTORE SWAP4 PUSH0 DUP1 PUSH3 0x240 JUMP JUMPDEST PUSH4 0x4E487B71 PUSH1 0xE0 SHL DUP3 MSTORE PUSH1 0x41 PUSH1 0x4 MSTORE PUSH1 0x24 DUP3 REVERT JUMPDEST PUSH1 0x40 MLOAD RETURNDATASIZE DUP10 DUP3 RETURNDATACOPY RETURNDATASIZE SWAP1 REVERT JUMPDEST DUP6 DUP1 REVERT JUMPDEST PUSH3 0x34B SWAP1 DUP4 RETURNDATASIZE DUP6 GT PUSH3 0x2E5 JUMPI PUSH3 0x2D5 DUP2 DUP4 PUSH3 0xE3F JUMP JUMPDEST POP PUSH0 PUSH3 0x213 JUMP JUMPDEST PUSH1 0x64 SWAP1 PUSH1 0x40 MLOAD SWAP1 PUSH3 0x461BCD PUSH1 0xE5 SHL DUP3 MSTORE PUSH1 0x4 DUP3 ADD MSTORE PUSH1 0x7 PUSH1 0x24 DUP3 ADD MSTORE PUSH7 0x7661756C74203 PUSH1 0xCC SHL PUSH1 0x44 DUP3 ADD MSTORE REVERT JUMPDEST DUP6 PUSH1 0x44 SWAP2 PUSH3 0x3B0 PUSH1 0x40 MLOAD SWAP5 DUP6 SWAP4 PUSH3 0x461BCD PUSH1 0xE5 SHL DUP6 MSTORE PUSH1 0x4 DUP6 ADD MSTORE MLOAD DUP1 SWAP3 DUP2 PUSH1 0x24 DUP7 ADD MSTORE DUP6 DUP6 ADD SWAP1 PUSH3 0xEBE JUMP JUMPDEST PUSH1 0x1F ADD PUSH1 0x1F NOT AND DUP2 ADD SUB ADD SWAP1 REVERT JUMPDEST PUSH1 0x40 MLOAD PUSH4 0xE22E27EB PUSH1 0xE0 SHL DUP2 MSTORE CALLER PUSH1 0x4 DUP3 ADD MSTORE PUSH1 0x14 PUSH1 0x24 DUP3 ADD MSTORE PUSH1 0x44 SWAP1 REVERT JUMPDEST SWAP1 SWAP2 PUSH1 0xF DUP2 AND PUSH1 0x10 DUP2 LT ISZERO PUSH3 0x43C JUMPI DUP6 MLOAD DUP5 LT ISZERO PUSH3 0x43C JUMPI PUSH16 0x181899199A1A9B1B9C1CB0B131B232B3 PUSH1 0x81 SHL SWAP1 BYTE DUP6 DUP5 ADD DUP12 ADD MSTORE8 PUSH1 0x4 SHR SWAP2 DUP1 ISZERO PUSH3 0x428 JUMPI PUSH0 NOT ADD SWAP1 PUSH3 0x186 JUMP JUMPDEST PUSH4 0x4E487B71 PUSH1 0xE0 SHL DUP12 MSTORE PUSH1 0x11 PUSH1 0x4 MSTORE PUSH1 0x24 DUP12 REVERT JUMPDEST PUSH4 0x4E487B71 PUSH1 0xE0 SHL DUP13 MSTORE PUSH1 0x32 PUSH1 0x4 MSTORE PUSH1 0x24 DUP13 REVERT JUMPDEST PUSH4 0x4E487B71 PUSH1 0xE0 SHL DUP11 MSTORE PUSH1 0x32 PUSH1 0x4 MSTORE PUSH1 0x24 DUP11 REVERT JUMPDEST PUSH4 0x4E487B71 PUSH1 0xE0 SHL DUP10 MSTORE PUSH1 0x32 PUSH1 0x4 MSTORE PUSH1 0x24 DUP10 REVERT JUMPDEST PUSH4 0x4E487B71 PUSH1 0xE0 SHL DUP10 MSTORE PUSH1 0x41 PUSH1 0x4 MSTORE PUSH1 0x24 DUP10 REVERT JUMPDEST POP DUP1 REVERT JUMPDEST POP CALLVALUE PUSH3 0xE2 JUMPI DUP1 PUSH1 0x3 NOT CALLDATASIZE ADD SLT PUSH3 0xE2 JUMPI PUSH1 0x20 PUSH1 0x2 SLOAD PUSH1 0x40 MLOAD SWAP1 DUP2 MSTORE RETURN JUMPDEST POP CALLVALUE PUSH3 0xE2 JUMPI PUSH1 0x20 CALLDATASIZE PUSH1 0x3 NOT ADD SLT PUSH3 0xE2 JUMPI PUSH1 0x20 SWAP1 PUSH1 0x1 PUSH1 0x1 PUSH1 0xA0 SHL SUB SWAP1 PUSH1 0x40 SWAP1 DUP3 PUSH3 0xD0 PUSH3 0xDA1 JUMP JUMPDEST POP CALLVALUE PUSH3 0xE2 JUMPI PUSH1 0xE0 CALLDATASIZE PUSH1 0x3 NOT ADD SLT PUSH3 0xE2 JUMPI PUSH3 0x4FC PUSH3 0xDA1 JUMP JUMPDEST PUSH8 0xFFFFFFFFFFFFFFFF PUSH1 0x84 CALLDATALOAD GT PUSH3 0x48C JUMPI CALLDATASIZE PUSH1 0x23 PUSH1 0x84 CALLDATALOAD ADD SLT ISZERO PUSH3 0x48C JUMPI PUSH8 0xFFFFFFFFFFFFFFFF PUSH1 0x84 CALLDATALOAD PUSH1 0x4 ADD CALLDATALOAD GT PUSH3 0x48C JUMPI CALLDATASIZE PUSH1 0x24 PUSH1 0x84 CALLDATALOAD PUSH1 0x4 ADD CALLDATALOAD PUSH1 0x5 SHL PUSH1 0x84 CALLDATALOAD ADD ADD GT PUSH3 0x48C JUMPI PUSH1 0xA4 CALLDATALOAD PUSH8 0xFFFFFFFFFFFFFFFF DUP2 GT PUSH3 0xB1B JUMPI PUSH3 0x56D SWAP1 CALLDATASIZE SWAP1 PUSH1 0x4 ADD PUSH3 0xDB8 JUMP JUMPDEST PUSH1 0xC4 CALLDATALOAD PUSH8 0xFFFFFFFFFFFFFFFF DUP2 GT PUSH3 0xB17 JUMPI PUSH3 0x590 SWAP1 CALLDATASIZE SWAP1 PUSH1 0x4 ADD PUSH3 0xDB8 JUMP JUMPDEST SWAP1 SWAP2 PUSH1 0x1 PUSH1 0x1 PUSH1 0xA0 SHL SUB DUP6 AND ISZERO PUSH3 0xAE8 JUMPI PUSH1 0x1 PUSH1 0x1 PUSH1 0xA0 SHL SUB DUP6 DUP2 AND DUP8 MSTORE PUSH1 0x4 PUSH1 0x20 MSTORE PUSH1 0x40 DUP8 KECCAK256 SLOAD AND PUSH3 0xAAD JUMPI PUSH3 0x5CA DUP2 PUSH3 0xE62 JUMP JUMPDEST SWAP4 PUSH3 0x5DA PUSH1 0x40 MLOAD SWAP6 DUP7 PUSH3 0xE3F JUMP JUMPDEST DUP2 DUP6 MSTORE PUSH3 0x5E8 DUP3 PUSH3 0xE62 JUMP JUMPDEST DUP8 JUMPDEST PUSH1 0x1F NOT DUP3 ADD DUP2 LT PUSH3 0xA87 JUMPI POP POP DUP7 JUMPDEST DUP3 DUP2 LT PUSH3 0x9A0 JUMPI POP POP POP PUSH3 0x610 DUP2 PUSH3 0xE62 JUMP JUMPDEST SWAP2 PUSH3 0x620 PUSH1 0x40 MLOAD SWAP4 DUP5 PUSH3 0xE3F JUMP JUMPDEST DUP2 DUP4 MSTORE PUSH3 0x62E DUP3 PUSH3 0xE62 JUMP JUMPDEST PUSH1 0x1F NOT ADD DUP7 JUMPDEST DUP2 DUP2 LT PUSH3 0x97A JUMPI POP POP DUP6 JUMPDEST DUP3 DUP2 LT PUSH3 0x88D JUMPI POP POP DUP5 SLOAD PUSH1 0x40 MLOAD SWAP4 SWAP2 POP PUSH2 0x1FD1 DUP1 DUP6 ADD SWAP2 PUSH1 0x1 PUSH1 0x1 PUSH1 0xA0 SHL SUB AND SWAP1 PUSH8 0xFFFFFFFFFFFFFFFF DUP4 GT DUP7 DUP5 LT OR PUSH3 0x879 JUMPI PUSH3 0xFD1 DUP7 CODECOPY DUP2 MSTORE PUSH1 0x1 PUSH1 0x1 PUSH1 0xA0 SHL SUB DUP6 AND PUSH1 0x20 DUP3 ADD MSTORE ADDRESS PUSH1 0x40 DUP3 ADD MSTORE PUSH1 0x24 CALLDATALOAD PUSH1 0x60 DUP3 ADD MSTORE PUSH1 0x44 CALLDATALOAD PUSH1 0x80 DUP3 ADD MSTORE PUSH1 0x64 CALLDATALOAD PUSH1 0xA0 DUP3 ADD MSTORE PUSH2 0x120 PUSH1 0xC0 DUP3 ADD DUP2 SWAP1 MSTORE PUSH1 0x4 PUSH1 0x84 CALLDATALOAD ADD CALLDATALOAD SWAP1 DUP3 ADD DUP2 SWAP1 MSTORE PUSH1 0x1 PUSH1 0x1 PUSH1 0xFB SHL SUB LT PUSH3 0x32D JUMPI SWAP1 DUP4 SWAP3 SWAP2 PUSH2 0x140 PUSH1 0x84 CALLDATALOAD PUSH1 0x4 ADD CALLDATALOAD PUSH1 0x5 SHL PUSH1 0x24 PUSH1 0x84 CALLDATALOAD ADD DUP3 DUP5 ADD CALLDATACOPY PUSH1 0x20 PUSH2 0x160 PUSH1 0x84 CALLDATALOAD PUSH1 0x4 ADD CALLDATALOAD PUSH1 0x5 SHL DUP5 ADD DUP4 DUP2 ADD SWAP4 DUP6 DUP3 SUB ADD PUSH1 0xE0 DUP7 ADD MSTORE DUP6 MLOAD DUP1 SWAP5 MSTORE ADD SWAP4 ADD SWAP1 DUP9 JUMPDEST DUP2 DUP2 LT PUSH3 0x843 JUMPI POP POP POP PUSH2 0x100 DUP2 DUP4 SUB SWAP2 ADD MSTORE PUSH1 0x20 DUP1 DUP4 MLOAD SWAP3 DUP4 DUP2 MSTORE ADD SWAP3 ADD SWAP1 DUP7 JUMPDEST DUP2 DUP2 LT PUSH3 0x811 JUMPI POP POP POP SUB SWAP1 DUP4 CREATE DUP1 ISZERO PUSH3 0x806 JUMPI PUSH1 0x1 DUP1 PUSH1 0xA0 SHL SUB AND SWAP1 PUSH1 0x1 SLOAD PUSH9 0x10000000000000000 DUP2 LT ISZERO PUSH3 0x7F2 JUMPI PUSH1 0x20 SWAP4 PUSH3 0x783 DUP3 PUSH1 0x1 PUSH1 0x40 SWAP5 ADD PUSH1 0x1 SSTORE PUSH3 0xD57 JUMP JUMPDEST DUP2 SLOAD PUSH1 0x1 PUSH1 0x1 PUSH1 0xA0 SHL SUB PUSH1 0x3 SWAP3 SWAP1 SWAP3 SHL DUP3 DUP2 SHL NOT SWAP1 SWAP2 AND SWAP1 DUP8 SWAP1 SHL OR SWAP1 SWAP2 SSTORE SWAP3 SWAP1 SWAP3 AND DUP1 DUP4 MSTORE PUSH1 0x4 DUP6 MSTORE SWAP2 KECCAK256 DUP1 SLOAD PUSH1 0x1 PUSH1 0x1 PUSH1 0xA0 SHL SUB NOT AND DUP4 OR SWAP1 SSTORE PUSH1 0x40 MLOAD DUP3 DUP2 MSTORE PUSH32 0x5D9C31FFA0FECFFD7CF379989A3C7AF252F0335E0D2A1320B55245912C781F53 SWAP1 DUP5 SWAP1 LOG2 PUSH1 0x40 MLOAD SWAP1 DUP2 MSTORE RETURN JUMPDEST PUSH4 0x4E487B71 PUSH1 0xE0 SHL DUP5 MSTORE PUSH1 0x41 PUSH1 0x4 MSTORE PUSH1 0x24 DUP5 REVERT JUMPDEST PUSH1 0x40 MLOAD RETURNDATASIZE DUP5 DUP3 RETURNDATACOPY RETURNDATASIZE SWAP1 REVERT JUMPDEST SWAP2 SWAP4 POP SWAP2 PUSH1 0x20 PUSH3 0x835 PUSH1 0x1 SWAP3 DUP7 MLOAD SWAP1 PUSH1 0x20 PUSH1 0x40 SWAP3 DUP1 MLOAD DUP4 MSTORE ADD MLOAD PUSH1 0x20 DUP3 ADD MSTORE ADD SWAP1 JUMP JUMPDEST SWAP5 ADD SWAP2 ADD SWAP2 DUP5 SWAP4 SWAP3 PUSH3 0x738 JUMP JUMPDEST SWAP2 SWAP5 SWAP6 POP SWAP2 SWAP3 PUSH1 0x20 PUSH3 0x869 PUSH1 0x1 SWAP3 DUP8 MLOAD SWAP1 PUSH1 0x20 PUSH1 0x40 SWAP3 DUP1 MLOAD DUP4 MSTORE ADD MLOAD PUSH1 0x20 DUP3 ADD MSTORE ADD SWAP1 JUMP JUMPDEST SWAP6 ADD SWAP2 ADD SWAP2 DUP7 SWAP6 SWAP5 SWAP4 SWAP3 PUSH3 0x715 JUMP JUMPDEST PUSH4 0x4E487B71 PUSH1 0xE0 SHL DUP9 MSTORE PUSH1 0x41 PUSH1 0x4 MSTORE PUSH1 0x24 DUP9 REVERT JUMPDEST DUP1 PUSH3 0x8F4 JUMPI JUMPDEST DUP1 PUSH3 0x8A6 PUSH3 0x8EE SWAP3 DUP6 DUP6 PUSH3 0xE8A JUMP JUMPDEST CALLDATALOAD PUSH1 0x20 PUSH3 0x8B6 DUP4 DUP8 DUP8 PUSH3 0xE8A JUMP JUMPDEST ADD CALLDATALOAD PUSH1 0x40 MLOAD SWAP2 PUSH3 0x8C7 DUP4 PUSH3 0xE0E JUMP JUMPDEST DUP3 MSTORE PUSH1 0x20 DUP3 ADD MSTORE PUSH3 0x8DA DUP3 DUP8 PUSH3 0xEA9 JUMP JUMPDEST MSTORE PUSH3 0x8E7 DUP2 DUP7 PUSH3 0xEA9 JUMP JUMPDEST POP PUSH3 0xE7B JUMP JUMPDEST PUSH3 0x640 JUMP JUMPDEST PUSH3 0x901 DUP2 DUP5 DUP5 PUSH3 0xE8A JUMP JUMPDEST CALLDATALOAD PUSH0 NOT DUP3 ADD DUP3 DUP2 GT PUSH3 0x966 JUMPI PUSH3 0x91B SWAP1 DUP6 DUP6 PUSH3 0xE8A JUMP JUMPDEST CALLDATALOAD LT PUSH3 0x894 JUMPI PUSH1 0x64 PUSH1 0x40 MLOAD PUSH3 0x461BCD PUSH1 0xE5 SHL DUP2 MSTORE PUSH1 0x20 PUSH1 0x4 DUP3 ADD MSTORE PUSH1 0x20 PUSH1 0x24 DUP3 ADD MSTORE PUSH32 0x416D6F756E74206D756C7469706C69657273206E6F7420617363656E64696E67 PUSH1 0x44 DUP3 ADD MSTORE REVERT JUMPDEST PUSH4 0x4E487B71 PUSH1 0xE0 SHL DUP10 MSTORE PUSH1 0x11 PUSH1 0x4 MSTORE PUSH1 0x24 DUP10 REVERT JUMPDEST PUSH1 0x20 SWAP1 PUSH1 0x40 MLOAD PUSH3 0x98B DUP2 PUSH3 0xE0E JUMP JUMPDEST DUP10 DUP2 MSTORE DUP10 DUP4 DUP3 ADD MSTORE DUP3 DUP3 DUP9 ADD ADD MSTORE ADD PUSH3 0x634 JUMP JUMPDEST DUP1 PUSH3 0xA00 JUMPI JUMPDEST DUP1 PUSH3 0x9B9 PUSH3 0x9FA SWAP3 DUP6 DUP6 PUSH3 0xE8A JUMP JUMPDEST CALLDATALOAD PUSH1 0x20 PUSH3 0x9C9 DUP4 DUP8 DUP8 PUSH3 0xE8A JUMP JUMPDEST ADD CALLDATALOAD PUSH1 0x40 MLOAD SWAP2 PUSH3 0x9DA DUP4 PUSH3 0xE0E JUMP JUMPDEST DUP3 MSTORE PUSH1 0x20 DUP3 ADD MSTORE PUSH3 0x9ED DUP3 DUP10 PUSH3 0xEA9 JUMP JUMPDEST MSTORE PUSH3 0x8E7 DUP2 DUP9 PUSH3 0xEA9 JUMP JUMPDEST PUSH3 0x5FA JUMP JUMPDEST PUSH3 0xA0D DUP2 DUP5 DUP5 PUSH3 0xE8A JUMP JUMPDEST CALLDATALOAD PUSH0 NOT DUP3 ADD DUP3 DUP2 GT PUSH3 0xA73 JUMPI PUSH3 0xA27 SWAP1 DUP6 DUP6 PUSH3 0xE8A JUMP JUMPDEST CALLDATALOAD LT PUSH3 0x9A7 JUMPI PUSH1 0x40 MLOAD PUSH3 0x461BCD PUSH1 0xE5 SHL DUP2 MSTORE PUSH1 0x20 PUSH1 0x4 DUP3 ADD MSTORE PUSH1 0x1E PUSH1 0x24 DUP3 ADD MSTORE PUSH32 0x54696D65206D756C7469706C69657273206E6F7420617363656E64696E670000 PUSH1 0x44 DUP3 ADD MSTORE PUSH1 0x64 SWAP1 REVERT JUMPDEST PUSH4 0x4E487B71 PUSH1 0xE0 SHL DUP11 MSTORE PUSH1 0x11 PUSH1 0x4 MSTORE PUSH1 0x24 DUP11 REVERT JUMPDEST PUSH1 0x20 SWAP1 PUSH1 0x40 MLOAD PUSH3 0xA98 DUP2 PUSH3 0xE0E JUMP JUMPDEST DUP11 DUP2 MSTORE DUP11 DUP4 DUP3 ADD MSTORE DUP3 DUP3 DUP11 ADD ADD MSTORE ADD PUSH3 0x5EA JUMP JUMPDEST PUSH1 0x40 MLOAD PUSH3 0x461BCD PUSH1 0xE5 SHL DUP2 MSTORE PUSH1 0x20 PUSH1 0x4 DUP3 ADD MSTORE PUSH1 0x13 PUSH1 0x24 DUP3 ADD MSTORE PUSH19 0x616374697665207661756C7420657869737473 PUSH1 0x68 SHL PUSH1 0x44 DUP3 ADD MSTORE PUSH1 0x64 SWAP1 REVERT JUMPDEST PUSH1 0x40 MLOAD PUSH3 0x461BCD PUSH1 0xE5 SHL DUP2 MSTORE PUSH1 0x20 PUSH1 0x4 DUP3 ADD MSTORE PUSH1 0x7 PUSH1 0x24 DUP3 ADD MSTORE PUSH7 0x746F6B656E203 PUSH1 0xCC SHL PUSH1 0x44 DUP3 ADD MSTORE PUSH1 0x64 SWAP1 REVERT JUMPDEST DUP5 DUP1 REVERT JUMPDEST DUP3 DUP1 REVERT JUMPDEST POP CALLVALUE PUSH3 0xE2 JUMPI DUP1 PUSH1 0x3 NOT CALLDATASIZE ADD SLT PUSH3 0xE2 JUMPI PUSH1 0x40 MLOAD PUSH1 0x1 DUP1 SLOAD DUP1 DUP4 MSTORE DUP2 DUP5 MSTORE PUSH1 0x20 DUP1 DUP5 ADD SWAP5 PUSH32 0xB10E2D527612073B26EECDFD717E6A320CF44B4AFAC2B0732D9FCBE2B7FA0CF6 SWAP4 SWAP3 SWAP2 JUMPDEST DUP3 DUP3 LT PUSH3 0xB96 JUMPI PUSH3 0xB92 DUP7 PUSH3 0xB85 DUP2 DUP11 SUB DUP3 PUSH3 0xE3F JUMP JUMPDEST PUSH1 0x40 MLOAD SWAP2 DUP3 SWAP2 DUP3 PUSH3 0xD12 JUMP JUMPDEST SUB SWAP1 RETURN JUMPDEST DUP5 SLOAD PUSH1 0x1 PUSH1 0x1 PUSH1 0xA0 SHL SUB AND DUP8 MSTORE SWAP6 DUP7 ADD SWAP6 SWAP4 DUP4 ADD SWAP4 SWAP1 DUP4 ADD SWAP1 PUSH3 0xB6A JUMP JUMPDEST POP CALLVALUE PUSH3 0xE2 JUMPI PUSH1 0x20 CALLDATASIZE PUSH1 0x3 NOT ADD SLT PUSH3 0xE2 JUMPI PUSH1 0x4 CALLDATALOAD SWAP1 PUSH1 0x1 SLOAD DUP3 LT ISZERO PUSH3 0xE2 JUMPI PUSH1 0x20 PUSH3 0xBE5 DUP4 PUSH3 0xD57 JUMP JUMPDEST SWAP1 SLOAD PUSH1 0x40 MLOAD PUSH1 0x3 SWAP3 SWAP1 SWAP3 SHL SHR PUSH1 0x1 PUSH1 0x1 PUSH1 0xA0 SHL SUB AND DUP2 MSTORE RETURN JUMPDEST POP CALLVALUE PUSH3 0xE2 JUMPI DUP1 PUSH1 0x3 NOT CALLDATASIZE ADD SLT PUSH3 0xE2 JUMPI SLOAD PUSH1 0x40 MLOAD PUSH1 0x1 PUSH1 0x1 PUSH1 0xA0 SHL SUB SWAP1 SWAP2 AND DUP2 MSTORE PUSH1 0x20 SWAP1 RETURN JUMPDEST POP CALLVALUE PUSH3 0xE2 JUMPI PUSH3 0xB92 PUSH3 0xB85 PUSH3 0xC41 CALLDATASIZE PUSH3 0xCF7 JUMP JUMPDEST SWAP1 PUSH3 0xF02 JUMP JUMPDEST SWAP1 POP CALLVALUE PUSH3 0x48C JUMPI PUSH3 0xC5B CALLDATASIZE PUSH3 0xCF7 JUMP JUMPDEST DUP4 SLOAD SWAP1 SWAP3 SWAP1 PUSH1 0x1 PUSH1 0x1 PUSH1 0xA0 SHL SUB AND CALLER SUB PUSH3 0xCC5 JUMPI POP PUSH2 0x2710 PUSH3 0xC80 DUP4 DUP4 PUSH3 0xDEC JUMP JUMPDEST LT ISZERO PUSH3 0xC90 JUMPI PUSH1 0x2 SSTORE PUSH1 0x3 SSTORE DUP1 RETURN JUMPDEST PUSH1 0x40 MLOAD PUSH3 0x461BCD PUSH1 0xE5 SHL DUP2 MSTORE PUSH1 0x20 PUSH1 0x4 DUP3 ADD MSTORE PUSH1 0xD PUSH1 0x24 DUP3 ADD MSTORE PUSH13 0xCCCACAE640E8DEDE40D0D2CED PUSH1 0x9B SHL PUSH1 0x44 DUP3 ADD MSTORE PUSH1 0x64 SWAP1 REVERT JUMPDEST PUSH3 0x461BCD PUSH1 0xE5 SHL DUP2 MSTORE PUSH1 0x20 PUSH1 0x4 DUP3 ADD MSTORE PUSH1 0xD PUSH1 0x24 DUP3 ADD MSTORE PUSH13 0x1BDB9B1E481C1C9BDD1BD8DBDB PUSH1 0x9A SHL PUSH1 0x44 DUP3 ADD MSTORE PUSH1 0x64 SWAP1 REVERT JUMPDEST PUSH1 0x40 SWAP1 PUSH1 0x3 NOT ADD SLT PUSH3 0xD0E JUMPI PUSH1 0x4 CALLDATALOAD SWAP1 PUSH1 0x24 CALLDATALOAD SWAP1 JUMP JUMPDEST PUSH0 DUP1 REVERT JUMPDEST PUSH1 0x20 SWAP1 DUP2 PUSH1 0x40 DUP2 DUP4 ADD SWAP3 DUP3 DUP2 MSTORE DUP6 MLOAD DUP1 SWAP5 MSTORE ADD SWAP4 ADD SWAP2 PUSH0 JUMPDEST DUP3 DUP2 LT PUSH3 0xD39 JUMPI POP POP POP POP SWAP1 JUMP JUMPDEST DUP4 MLOAD PUSH1 0x1 PUSH1 0x1 PUSH1 0xA0 SHL SUB AND DUP6 MSTORE SWAP4 DUP2 ADD SWAP4 SWAP3 DUP2 ADD SWAP3 PUSH1 0x1 ADD PUSH3 0xD2A JUMP JUMPDEST PUSH1 0x1 SLOAD DUP2 LT ISZERO PUSH3 0xD8D JUMPI PUSH1 0x1 PUSH0 MSTORE PUSH32 0xB10E2D527612073B26EECDFD717E6A320CF44B4AFAC2B0732D9FCBE2B7FA0CF6 ADD SWAP1 PUSH0 SWAP1 JUMP JUMPDEST PUSH4 0x4E487B71 PUSH1 0xE0 SHL PUSH0 MSTORE PUSH1 0x32 PUSH1 0x4 MSTORE PUSH1 0x24 PUSH0 REVERT JUMPDEST PUSH1 0x4 CALLDATALOAD SWAP1 PUSH1 0x1 PUSH1 0x1 PUSH1 0xA0 SHL SUB DUP3 AND DUP3 SUB PUSH3 0xD0E JUMPI JUMP JUMPDEST SWAP2 DUP2 PUSH1 0x1F DUP5 ADD SLT ISZERO PUSH3 0xD0E JUMPI DUP3 CALLDATALOAD SWAP2 PUSH8 0xFFFFFFFFFFFFFFFF DUP4 GT PUSH3 0xD0E JUMPI PUSH1 0x20 DUP1 DUP6 ADD SWAP5 DUP5 PUSH1 0x6 SHL ADD ADD GT PUSH3 0xD0E JUMPI JUMP JUMPDEST SWAP2 SWAP1 DUP3 ADD DUP1 SWAP3 GT PUSH3 0xDFA JUMPI JUMP JUMPDEST PUSH4 0x4E487B71 PUSH1 0xE0 SHL PUSH0 MSTORE PUSH1 0x11 PUSH1 0x4 MSTORE PUSH1 0x24 PUSH0 REVERT JUMPDEST PUSH1 0x40 DUP2 ADD SWAP1 DUP2 LT PUSH8 0xFFFFFFFFFFFFFFFF DUP3 GT OR PUSH3 0xE2B JUMPI PUSH1 0x40 MSTORE JUMP JUMPDEST PUSH4 0x4E487B71 PUSH1 0xE0 SHL PUSH0 MSTORE PUSH1 0x41 PUSH1 0x4 MSTORE PUSH1 0x24 PUSH0 REVERT JUMPDEST SWAP1 PUSH1 0x1F DUP1 NOT SWAP2 ADD AND DUP2 ADD SWAP1 DUP2 LT PUSH8 0xFFFFFFFFFFFFFFFF DUP3 GT OR PUSH3 0xE2B JUMPI PUSH1 0x40 MSTORE JUMP JUMPDEST PUSH8 0xFFFFFFFFFFFFFFFF DUP2 GT PUSH3 0xE2B JUMPI PUSH1 0x5 SHL PUSH1 0x20 ADD SWAP1 JUMP JUMPDEST PUSH0 NOT DUP2 EQ PUSH3 0xDFA JUMPI PUSH1 0x1 ADD SWAP1 JUMP JUMPDEST SWAP2 SWAP1 DUP2 LT ISZERO PUSH3 0xD8D JUMPI PUSH1 0x6 SHL ADD SWAP1 JUMP JUMPDEST SWAP2 SWAP1 DUP3 SUB SWAP2 DUP3 GT PUSH3 0xDFA JUMPI JUMP JUMPDEST DUP1 MLOAD DUP3 LT ISZERO PUSH3 0xD8D JUMPI PUSH1 0x20 SWAP2 PUSH1 0x5 SHL ADD ADD SWAP1 JUMP JUMPDEST PUSH0 JUMPDEST DUP4 DUP2 LT PUSH3 0xED0 JUMPI POP POP PUSH0 SWAP2 ADD MSTORE JUMP JUMPDEST DUP2 DUP2 ADD MLOAD DUP4 DUP3 ADD MSTORE PUSH1 0x20 ADD PUSH3 0xEC0 JUMP JUMPDEST SWAP1 DUP2 PUSH1 0x20 SWAP2 SUB SLT PUSH3 0xD0E JUMPI MLOAD PUSH1 0x1 PUSH1 0x1 PUSH1 0xA0 SHL SUB DUP2 AND DUP2 SUB PUSH3 0xD0E JUMPI SWAP1 JUMP JUMPDEST SWAP2 SWAP1 PUSH1 0x1 SLOAD SWAP1 DUP2 DUP5 LT ISZERO PUSH3 0xFC8 JUMPI PUSH3 0xF1D SWAP1 DUP5 PUSH3 0xDEC JUMP JUMPDEST SWAP1 DUP1 DUP3 GT PUSH3 0xFBF JUMPI JUMPDEST POP PUSH3 0xF34 DUP4 DUP3 PUSH3 0xE9B JUMP JUMPDEST SWAP3 PUSH3 0xF40 DUP5 PUSH3 0xE62 JUMP JUMPDEST SWAP4 PUSH3 0xF50 PUSH1 0x40 MLOAD SWAP6 DUP7 PUSH3 0xE3F JUMP JUMPDEST DUP1 DUP6 MSTORE PUSH3 0xF61 PUSH1 0x1F NOT SWAP2 PUSH3 0xE62 JUMP JUMPDEST ADD CALLDATASIZE PUSH1 0x20 DUP7 ADD CALLDATACOPY DUP4 DUP2 JUMPDEST DUP4 DUP2 LT PUSH3 0xF79 JUMPI POP POP POP POP JUMP JUMPDEST DUP1 PUSH3 0xF89 PUSH3 0xFB9 SWAP3 PUSH3 0xD57 JUMP JUMPDEST SWAP1 SLOAD PUSH1 0x3 SWAP2 SWAP1 SWAP2 SHL SHR PUSH1 0x1 PUSH1 0x1 PUSH1 0xA0 SHL SUB AND PUSH3 0xFB2 PUSH3 0xFAB DUP7 DUP5 PUSH3 0xE9B JUMP JUMPDEST DUP6 PUSH3 0xEA9 JUMP JUMPDEST MSTORE PUSH3 0xE7B JUMP JUMPDEST PUSH3 0xF6B JUMP JUMPDEST SWAP1 POP PUSH0 PUSH3 0xF27 JUMP JUMPDEST POP PUSH1 0x60 SWAP3 POP POP JUMP INVALID PUSH2 0x140 PUSH1 0x40 MSTORE CALLVALUE PUSH3 0x482 JUMPI PUSH3 0x1FD1 DUP1 CODESIZE SUB DUP1 PUSH3 0x1E DUP2 PUSH3 0x49B JUMP JUMPDEST SWAP3 DUP4 CODECOPY PUSH2 0x120 DUP3 DUP3 DUP2 ADD SUB SLT PUSH3 0x482 JUMPI PUSH3 0x3A DUP3 PUSH3 0x4C1 JUMP JUMPDEST SWAP1 PUSH3 0x49 PUSH1 0x20 DUP5 ADD PUSH3 0x4C1 JUMP JUMPDEST SWAP3 PUSH3 0x58 PUSH1 0x40 DUP3 ADD PUSH3 0x4C1 JUMP JUMPDEST PUSH1 0x60 DUP3 ADD MLOAD PUSH1 0x80 DUP4 ADD MLOAD PUSH1 0xA0 DUP5 ADD MLOAD PUSH1 0xC0 DUP6 ADD MLOAD SWAP8 SWAP1 SWAP3 SWAP1 PUSH1 0x1 PUSH1 0x1 PUSH1 0x40 SHL SUB DUP10 GT PUSH3 0x482 JUMPI DUP7 DUP7 ADD PUSH1 0x1F DUP11 DUP9 ADD ADD SLT ISZERO PUSH3 0x482 JUMPI DUP9 DUP7 ADD MLOAD SWAP6 PUSH3 0xA9 PUSH3 0xA3 DUP9 PUSH3 0x4D6 JUMP JUMPDEST PUSH3 0x49B JUMP JUMPDEST SWAP7 PUSH1 0x20 DUP9 DUP3 DUP2 MSTORE ADD DUP1 SWAP12 DUP11 DUP5 ADD PUSH1 0x20 DUP5 PUSH1 0x5 SHL DUP4 DUP8 ADD ADD ADD GT PUSH3 0x482 JUMPI SWAP1 PUSH1 0x20 DUP3 DUP6 ADD ADD SWAP2 JUMPDEST PUSH1 0x20 DUP5 PUSH1 0x5 SHL DUP3 DUP8 ADD ADD ADD DUP4 LT PUSH3 0x486 JUMPI POP POP POP POP PUSH1 0xE0 DUP2 ADD MLOAD PUSH1 0x1 PUSH1 0x1 PUSH1 0x40 SHL SUB DUP2 GT PUSH3 0x482 JUMPI DUP2 ADD DUP9 DUP3 ADD PUSH1 0x1F DUP3 ADD SLT ISZERO PUSH3 0x482 JUMPI PUSH3 0x11F SWAP1 DUP10 DUP4 ADD SWAP1 PUSH1 0x20 DUP2 MLOAD SWAP2 ADD PUSH3 0x4EE JUMP JUMPDEST PUSH2 0x100 DUP3 ADD MLOAD SWAP1 SWAP9 SWAP1 PUSH1 0x1 PUSH1 0x1 PUSH1 0x40 SHL SUB DUP2 GT PUSH3 0x482 JUMPI DUP3 ADD SWAP1 DUP1 DUP4 ADD PUSH1 0x1F DUP4 ADD SLT ISZERO PUSH3 0x482 JUMPI PUSH3 0x15B SWAP3 ADD SWAP1 PUSH1 0x20 DUP2 MLOAD SWAP2 ADD PUSH3 0x4EE JUMP JUMPDEST PUSH1 0x1 PUSH0 DUP2 SWAP1 SSTORE PUSH1 0x4 DUP1 SLOAD PUSH2 0xFFFF NOT AND SWAP1 SWAP2 OR SWAP1 SSTORE SWAP8 PUSH1 0x1 PUSH1 0x1 PUSH1 0xA0 SHL SUB DUP1 DUP3 AND ISZERO PUSH3 0x450 JUMPI DUP3 AND ISZERO PUSH3 0x421 JUMPI DUP4 DUP4 GT PUSH3 0x3F2 JUMPI PUSH1 0x80 MSTORE PUSH1 0xC0 MSTORE PUSH1 0xE0 MSTORE PUSH2 0x100 MSTORE PUSH2 0x120 MSTORE PUSH1 0xA0 MSTORE MLOAD PUSH1 0x1 PUSH1 0x1 PUSH1 0x40 SHL SUB DUP2 GT PUSH3 0x26C JUMPI PUSH9 0x10000000000000000 SWAP4 DUP5 DUP3 GT PUSH3 0x26C JUMPI PUSH1 0x1 SLOAD DUP3 PUSH1 0x1 SSTORE DUP1 DUP4 LT PUSH3 0x3AB JUMPI JUMPDEST POP PUSH1 0x1 PUSH0 MSTORE PUSH1 0x20 PUSH0 KECCAK256 PUSH0 JUMPDEST DUP4 DUP2 LT PUSH3 0x396 JUMPI POP POP POP POP PUSH0 JUMPDEST DUP2 MLOAD DUP2 LT ISZERO PUSH3 0x280 JUMPI PUSH3 0x207 DUP2 DUP4 PUSH3 0x5A5 JUMP JUMPDEST MLOAD SWAP1 PUSH1 0x2 DUP1 SLOAD SWAP3 DUP7 DUP5 LT ISZERO PUSH3 0x26C JUMPI PUSH1 0x1 DUP5 ADD DUP1 DUP4 SSTORE DUP5 LT ISZERO PUSH3 0x258 JUMPI PUSH3 0x252 SWAP4 PUSH3 0x24C SWAP3 PUSH0 MSTORE PUSH1 0x20 PUSH0 KECCAK256 SWAP1 PUSH1 0x1 SHL ADD SWAP1 PUSH1 0x20 PUSH1 0x1 SWAP2 DUP1 MLOAD DUP5 SSTORE ADD MLOAD SWAP2 ADD SSTORE JUMP JUMPDEST PUSH3 0x582 JUMP JUMPDEST PUSH3 0x1F1 JUMP JUMPDEST PUSH4 0x4E487B71 PUSH1 0xE0 SHL PUSH0 MSTORE PUSH1 0x32 PUSH1 0x4 MSTORE PUSH1 0x24 PUSH0 REVERT JUMPDEST PUSH4 0x4E487B71 PUSH1 0xE0 SHL PUSH0 MSTORE PUSH1 0x41 PUSH1 0x4 MSTORE PUSH1 0x24 PUSH0 REVERT JUMPDEST POP POP PUSH0 JUMPDEST DUP2 MLOAD DUP2 LT ISZERO PUSH3 0x2E5 JUMPI PUSH3 0x29A DUP2 DUP4 PUSH3 0x5A5 JUMP JUMPDEST MLOAD SWAP1 PUSH1 0x3 DUP1 SLOAD SWAP3 DUP6 DUP5 LT ISZERO PUSH3 0x26C JUMPI PUSH1 0x1 DUP5 ADD DUP1 DUP4 SSTORE DUP5 LT ISZERO PUSH3 0x258 JUMPI PUSH3 0x2DF SWAP4 PUSH3 0x24C SWAP3 PUSH0 MSTORE PUSH1 0x20 PUSH0 KECCAK256 SWAP1 PUSH1 0x1 SHL ADD SWAP1 PUSH1 0x20 PUSH1 0x1 SWAP2 DUP1 MLOAD DUP5 SSTORE ADD MLOAD SWAP2 ADD SSTORE JUMP JUMPDEST PUSH3 0x284 JUMP JUMPDEST PUSH1 0x40 MLOAD PUSH2 0x1A16 SWAP1 DUP2 PUSH3 0x5BB DUP3 CODECOPY PUSH1 0x80 MLOAD DUP2 DUP2 DUP2 PUSH2 0x36F ADD MSTORE DUP2 DUP2 PUSH2 0x547 ADD MSTORE DUP2 DUP2 PUSH2 0xFE6 ADD MSTORE PUSH2 0x1145 ADD MSTORE PUSH1 0xA0 MLOAD DUP2 DUP2 DUP2 PUSH2 0x1EF ADD MSTORE DUP2 DUP2 PUSH2 0x11E1 ADD MSTORE PUSH2 0x165E ADD MSTORE PUSH1 0xC0 MLOAD DUP2 DUP2 DUP2 PUSH2 0x49B ADD MSTORE DUP2 DUP2 PUSH2 0x568 ADD MSTORE DUP2 DUP2 PUSH2 0x5ED ADD MSTORE DUP2 DUP2 PUSH2 0x71E ADD MSTORE DUP2 DUP2 PUSH2 0xE98 ADD MSTORE DUP2 DUP2 PUSH2 0xFAD ADD MSTORE DUP2 DUP2 PUSH2 0x1007 ADD MSTORE PUSH2 0x138B ADD MSTORE PUSH1 0xE0 MLOAD DUP2 DUP2 DUP2 PUSH2 0x6A1 ADD MSTORE PUSH2 0x10AD ADD MSTORE PUSH2 0x100 MLOAD DUP2 DUP2 DUP2 PUSH2 0x9C0 ADD MSTORE PUSH2 0xDA1 ADD MSTORE PUSH2 0x120 MLOAD DUP2 DUP2 DUP2 PUSH2 0x124C ADD MSTORE PUSH2 0x1791 ADD MSTORE RETURN JUMPDEST PUSH1 0x1 SWAP1 PUSH1 0x20 DUP5 MLOAD SWAP5 ADD SWAP4 DUP2 DUP5 ADD SSTORE ADD PUSH3 0x1E3 JUMP JUMPDEST PUSH1 0x1 PUSH0 MSTORE PUSH32 0xB10E2D527612073B26EECDFD717E6A320CF44B4AFAC2B0732D9FCBE2B7FA0CF6 SWAP1 DUP2 ADD SWAP1 DUP4 ADD JUMPDEST DUP2 DUP2 LT PUSH3 0x3E6 JUMPI POP PUSH3 0x1D8 JUMP JUMPDEST PUSH0 DUP2 SSTORE PUSH1 0x1 ADD PUSH3 0x3D7 JUMP JUMPDEST PUSH1 0x40 MLOAD PUSH3 0x461BCD PUSH1 0xE5 SHL DUP2 MSTORE PUSH1 0x20 PUSH1 0x4 DUP3 ADD MSTORE PUSH1 0x7 PUSH1 0x24 DUP3 ADD MSTORE PUSH7 0xDAD2DC7CDAC2F PUSH1 0xCB SHL PUSH1 0x44 DUP3 ADD MSTORE PUSH1 0x64 SWAP1 REVERT JUMPDEST PUSH1 0x40 MLOAD PUSH3 0x461BCD PUSH1 0xE5 SHL DUP2 MSTORE PUSH1 0x20 PUSH1 0x4 DUP3 ADD MSTORE PUSH1 0x7 PUSH1 0x24 DUP3 ADD MSTORE PUSH7 0x746F6B656E203 PUSH1 0xCC SHL PUSH1 0x44 DUP3 ADD MSTORE PUSH1 0x64 SWAP1 REVERT JUMPDEST PUSH1 0x40 MLOAD PUSH3 0x461BCD PUSH1 0xE5 SHL DUP2 MSTORE PUSH1 0x20 PUSH1 0x4 DUP3 ADD MSTORE PUSH1 0xA PUSH1 0x24 DUP3 ADD MSTORE PUSH10 0x70726F746F636F6C203 PUSH1 0xB4 SHL PUSH1 0x44 DUP3 ADD MSTORE PUSH1 0x64 SWAP1 REVERT JUMPDEST PUSH0 DUP1 REVERT JUMPDEST PUSH1 0x20 DUP1 DUP1 SWAP4 DUP6 MLOAD DUP2 MSTORE ADD SWAP4 ADD SWAP3 SWAP2 POP PUSH3 0xD0 JUMP JUMPDEST PUSH1 0x40 MLOAD SWAP2 SWAP1 PUSH1 0x1F ADD PUSH1 0x1F NOT AND DUP3 ADD PUSH1 0x1 PUSH1 0x1 PUSH1 0x40 SHL SUB DUP2 GT DUP4 DUP3 LT OR PUSH3 0x26C JUMPI PUSH1 0x40 MSTORE JUMP JUMPDEST MLOAD SWAP1 PUSH1 0x1 PUSH1 0x1 PUSH1 0xA0 SHL SUB DUP3 AND DUP3 SUB PUSH3 0x482 JUMPI JUMP JUMPDEST PUSH1 0x1 PUSH1 0x1 PUSH1 0x40 SHL SUB DUP2 GT PUSH3 0x26C JUMPI PUSH1 0x5 SHL PUSH1 0x20 ADD SWAP1 JUMP JUMPDEST SWAP1 SWAP3 SWAP2 PUSH3 0x500 PUSH3 0xA3 DUP6 PUSH3 0x4D6 JUMP JUMPDEST SWAP4 DUP1 DUP6 MSTORE PUSH1 0x20 SWAP2 DUP3 DUP7 ADD SWAP2 PUSH1 0x6 SHL DUP5 ADD SWAP4 DUP2 DUP6 GT PUSH3 0x482 JUMPI SWAP2 JUMPDEST DUP5 DUP4 LT PUSH3 0x52A JUMPI POP POP POP POP POP JUMP JUMPDEST PUSH1 0x40 DUP1 DUP5 DUP5 SUB SLT PUSH3 0x482 JUMPI DUP1 MLOAD DUP1 DUP3 ADD SWAP3 SWAP1 PUSH1 0x1 PUSH1 0x1 PUSH1 0x40 SHL SUB DUP5 GT DUP2 DUP6 LT OR PUSH3 0x56E JUMPI PUSH1 0x40 SWAP4 DUP8 SWAP4 MSTORE DUP6 MLOAD DUP2 MSTORE DUP3 DUP7 ADD MLOAD DUP4 DUP3 ADD MSTORE DUP2 MSTORE ADD SWAP3 ADD SWAP2 PUSH3 0x51B JUMP JUMPDEST PUSH1 0x24 PUSH0 PUSH4 0x4E487B71 PUSH1 0xE0 SHL DUP2 MSTORE PUSH1 0x41 PUSH1 0x4 MSTORE REVERT JUMPDEST PUSH0 NOT DUP2 EQ PUSH3 0x591 JUMPI PUSH1 0x1 ADD SWAP1 JUMP JUMPDEST PUSH4 0x4E487B71 PUSH1 0xE0 SHL PUSH0 MSTORE PUSH1 0x11 PUSH1 0x4 MSTORE PUSH1 0x24 PUSH0 REVERT JUMPDEST DUP1 MLOAD DUP3 LT ISZERO PUSH3 0x258 JUMPI PUSH1 0x20 SWAP2 PUSH1 0x5 SHL ADD ADD SWAP1 JUMP INVALID PUSH1 0x80 PUSH1 0x40 DUP2 DUP2 MSTORE PUSH1 0x4 DUP1 CALLDATASIZE LT ISZERO PUSH2 0x14 JUMPI PUSH0 DUP1 REVERT JUMPDEST PUSH0 SWAP1 DUP2 CALLDATALOAD PUSH1 0xE0 SHR SWAP4 DUP5 PUSH4 0x2FB0C5E EQ PUSH2 0x126F JUMPI POP DUP4 PUSH4 0x94B81D3 EQ PUSH2 0x1234 JUMPI DUP4 PUSH4 0x10390D35 EQ PUSH2 0x1209 JUMPI DUP4 PUSH4 0x18976FA2 EQ PUSH2 0x112A JUMPI DUP4 PUSH4 0x22F3E2D4 EQ PUSH2 0x10EF JUMPI DUP4 PUSH4 0x359CFBF7 EQ PUSH2 0x10D0 JUMPI DUP4 PUSH4 0x41B3D185 EQ PUSH2 0x1095 JUMPI DUP4 PUSH4 0x5350CBD9 EQ PUSH2 0x106E JUMPI DUP4 PUSH4 0x597E1FB5 EQ PUSH2 0x1048 JUMPI DUP4 PUSH4 0x5BE7FDE8 EQ PUSH2 0xDC4 JUMPI DUP4 PUSH4 0x6083E59A EQ PUSH2 0xD89 JUMPI DUP4 PUSH4 0x639487F4 EQ PUSH2 0xBB3 JUMPI DUP4 PUSH4 0x6A5908A0 EQ PUSH2 0xB6B JUMPI DUP4 PUSH4 0x6B53503A EQ PUSH2 0xAEF JUMPI DUP4 PUSH4 0x6C4470FB EQ PUSH2 0xA2B JUMPI DUP4 PUSH4 0x703BAFD5 EQ PUSH2 0x162 JUMPI DUP4 PUSH4 0x7B0472F0 EQ PUSH2 0x66A JUMPI DUP4 PUSH4 0x86D1A69F EQ PUSH2 0x39E JUMPI DUP4 PUSH4 0x8CE74426 EQ PUSH2 0x35A JUMPI DUP4 PUSH4 0x99FBAB88 EQ PUSH2 0x2ED JUMPI DUP4 PUSH4 0xA0660DFA EQ PUSH2 0x2B2 JUMPI DUP4 PUSH4 0xAC55DEB6 EQ PUSH2 0x25C JUMPI DUP4 PUSH4 0xB9B792CD EQ PUSH2 0x23D JUMPI DUP4 PUSH4 0xC122C2A1 EQ PUSH2 0x21E JUMPI DUP4 PUSH4 0xC45A0155 EQ PUSH2 0x1DA JUMPI DUP4 PUSH4 0xCBA02476 EQ PUSH2 0x1B1 JUMPI POP DUP3 PUSH4 0xD6887BFA EQ PUSH2 0x18F JUMPI DUP3 PUSH4 0xDB8D55F1 EQ PUSH2 0x167 JUMPI POP POP PUSH4 0xFC0C546A EQ PUSH2 0x162 JUMPI PUSH0 DUP1 REVERT JUMPDEST PUSH2 0x1376 JUMP JUMPDEST CALLVALUE PUSH2 0x18C JUMPI DUP1 PUSH1 0x3 NOT CALLDATASIZE ADD SLT PUSH2 0x18C JUMPI POP PUSH2 0x180 PUSH2 0x164B JUMP JUMPDEST DUP3 MLOAD SWAP2 DUP3 MSTORE PUSH1 0x20 DUP3 ADD MSTORE RETURN JUMPDEST DUP1 REVERT JUMPDEST SWAP1 CALLVALUE PUSH2 0x1AD JUMPI DUP2 PUSH1 0x3 NOT CALLDATASIZE ADD SLT PUSH2 0x1AD JUMPI PUSH1 0x20 SWAP1 PUSH1 0x5 SLOAD SWAP1 MLOAD SWAP1 DUP2 MSTORE RETURN JUMPDEST POP DUP1 REVERT JUMPDEST SWAP3 POP CALLVALUE PUSH2 0x18C JUMPI PUSH1 0x20 CALLDATASIZE PUSH1 0x3 NOT ADD SLT PUSH2 0x18C JUMPI POP PUSH2 0x1D1 PUSH1 0x20 SWAP3 CALLDATALOAD PUSH2 0x1414 JUMP JUMPDEST SWAP1 MLOAD SWAP1 ISZERO ISZERO DUP2 MSTORE RETURN JUMPDEST POP SWAP1 CALLVALUE PUSH2 0x1AD JUMPI DUP2 PUSH1 0x3 NOT CALLDATASIZE ADD SLT PUSH2 0x1AD JUMPI MLOAD PUSH32 0x0 PUSH1 0x1 PUSH1 0x1 PUSH1 0xA0 SHL SUB AND DUP2 MSTORE PUSH1 0x20 SWAP1 RETURN JUMPDEST POP SWAP1 CALLVALUE PUSH2 0x1AD JUMPI DUP2 PUSH1 0x3 NOT CALLDATASIZE ADD SLT PUSH2 0x1AD JUMPI PUSH1 0x20 SWAP1 PUSH1 0x2 SLOAD SWAP1 MLOAD SWAP1 DUP2 MSTORE RETURN JUMPDEST POP SWAP1 CALLVALUE PUSH2 0x1AD JUMPI DUP2 PUSH1 0x3 NOT CALLDATASIZE ADD SLT PUSH2 0x1AD JUMPI PUSH1 0x20 SWAP1 PUSH1 0x3 SLOAD SWAP1 MLOAD SWAP1 DUP2 MSTORE RETURN JUMPDEST POP SWAP1 CALLVALUE PUSH2 0x1AD JUMPI DUP1 PUSH1 0x3 NOT CALLDATASIZE ADD SLT PUSH2 0x1AD JUMPI PUSH2 0x276 PUSH2 0x135C JUMP JUMPDEST PUSH1 0x1 PUSH1 0x1 PUSH1 0xA0 SHL SUB AND DUP3 MSTORE PUSH1 0x7 PUSH1 0x20 MSTORE DUP1 DUP3 KECCAK256 DUP1 SLOAD PUSH1 0x24 CALLDATALOAD SWAP4 SWAP1 DUP5 LT ISZERO PUSH2 0x18C JUMPI POP PUSH1 0x20 SWAP3 PUSH2 0x2A4 SWAP2 PUSH2 0x12D7 JUMP JUMPDEST SWAP2 SWAP1 SLOAD SWAP1 MLOAD SWAP2 PUSH1 0x3 SHL SHR DUP2 MSTORE RETURN JUMPDEST CALLVALUE PUSH2 0x1AD JUMPI PUSH1 0x20 CALLDATASIZE PUSH1 0x3 NOT ADD SLT PUSH2 0x1AD JUMPI CALLDATALOAD SWAP1 PUSH1 0x3 SLOAD DUP3 LT ISZERO PUSH2 0x18C JUMPI POP PUSH2 0x2D9 SWAP1 PUSH2 0x1324 JUMP JUMPDEST POP PUSH1 0x1 DUP2 SLOAD SWAP2 ADD SLOAD DUP3 MLOAD SWAP2 DUP3 MSTORE PUSH1 0x20 DUP3 ADD MSTORE RETURN JUMPDEST DUP3 CALLVALUE PUSH2 0x356 JUMPI PUSH1 0x20 CALLDATASIZE PUSH1 0x3 NOT ADD SLT PUSH2 0x356 JUMPI DUP2 CALLDATALOAD SWAP3 PUSH1 0x5 SLOAD DUP5 LT ISZERO PUSH2 0x18C JUMPI POP PUSH2 0x318 PUSH1 0xA0 SWAP4 PUSH2 0x13BA JUMP JUMPDEST POP PUSH1 0x1 DUP1 DUP6 SHL SUB DUP2 SLOAD AND SWAP3 PUSH1 0x1 DUP3 ADD SLOAD SWAP3 PUSH1 0xFF PUSH1 0x2 DUP5 ADD SLOAD SWAP3 PUSH1 0x3 DUP6 ADD SLOAD SWAP5 ADD SLOAD AND SWAP4 DUP2 MLOAD SWAP6 DUP7 MSTORE PUSH1 0x20 DUP7 ADD MSTORE DUP5 ADD MSTORE PUSH1 0x60 DUP4 ADD MSTORE ISZERO ISZERO PUSH1 0x80 DUP3 ADD MSTORE RETURN JUMPDEST DUP3 DUP1 REVERT JUMPDEST POP SWAP1 CALLVALUE PUSH2 0x1AD JUMPI DUP2 PUSH1 0x3 NOT CALLDATASIZE ADD SLT PUSH2 0x1AD JUMPI MLOAD PUSH32 0x0 PUSH1 0x1 PUSH1 0x1 PUSH1 0xA0 SHL SUB AND DUP2 MSTORE PUSH1 0x20 SWAP1 RETURN JUMPDEST SWAP2 CALLVALUE PUSH2 0x1AD JUMPI DUP2 PUSH1 0x3 NOT CALLDATASIZE ADD SLT PUSH2 0x1AD JUMPI PUSH2 0x3B7 PUSH2 0x14F2 JUMP JUMPDEST PUSH2 0x3BF PUSH2 0x164B JUMP JUMPDEST POP SWAP2 CALLER DUP2 MSTORE PUSH1 0x20 SWAP1 PUSH1 0x6 DUP3 MSTORE DUP3 DUP2 KECCAK256 SWAP4 DUP2 SWAP4 JUMPDEST DUP6 SLOAD DUP6 LT ISZERO PUSH2 0x662 JUMPI PUSH2 0x3E5 DUP6 DUP8 PUSH2 0x12D7 JUMP JUMPDEST SWAP1 SLOAD PUSH1 0x3 SWAP2 DUP3 SHL SHR PUSH2 0x3F6 DUP2 PUSH2 0x13BA JUMP JUMPDEST POP DUP3 DUP2 ADD SLOAD NUMBER LT DUP1 ISZERO DUP12 DUP4 ADD DUP1 SLOAD SWAP3 PUSH1 0xFF SWAP1 DUP2 DUP6 AND ISZERO SWAP2 DUP3 PUSH2 0x636 JUMPI JUMPDEST POP POP ISZERO PUSH2 0x620 JUMPI SWAP1 DUP10 SWAP2 PUSH1 0x1 DUP1 SWAP5 PUSH1 0xFF NOT AND OR SWAP1 SSTORE PUSH0 EQ PUSH2 0x5AD JUMPI POP DUP2 ADD SLOAD PUSH2 0x2710 DUP7 DUP2 SUB DUP2 DUP2 GT PUSH2 0x59A JUMPI DUP7 DUP4 PUSH2 0x47E DUP8 SWAP7 SWAP5 PUSH2 0x476 PUSH32 0x7B381718BEC1E0DBC1241809EE9B55F3D783B95880307F002707FAD981FA5069 SWAP6 PUSH2 0x4DE SWAP11 SWAP9 PUSH2 0x15AB JUMP JUMPDEST DIV DUP1 SWAP3 PUSH2 0x14C0 JUMP JUMPDEST SWAP4 DUP5 PUSH2 0x541 JUMPI JUMPDEST DUP1 SLOAD PUSH1 0x1 PUSH1 0x1 PUSH1 0xA0 SHL SUB SWAP2 SWAP1 PUSH2 0x4C1 SWAP1 DUP5 SWAP1 DUP5 AND PUSH32 0x0 DUP6 AND PUSH2 0x15FB JUMP JUMPDEST SLOAD AND SWAP4 DUP3 MLOAD SWAP2 DUP3 MSTORE DUP13 DUP3 ADD MSTORE LOG3 JUMPDEST CALLER DUP7 MSTORE PUSH1 0x7 DUP8 MSTORE DUP4 DUP7 KECCAK256 PUSH2 0x14CD JUMP JUMPDEST DUP7 SLOAD PUSH0 NOT DUP2 ADD SWAP1 DUP2 GT PUSH2 0x52E JUMPI SWAP1 PUSH2 0x4F9 PUSH2 0x520 SWAP3 DUP10 PUSH2 0x12D7 JUMP JUMPDEST SWAP1 SLOAD SWAP2 SHL SHR PUSH2 0x508 DUP8 DUP10 PUSH2 0x12D7 JUMP JUMPDEST SWAP1 SWAP2 SWAP1 DUP3 SLOAD SWAP1 PUSH1 0x3 SHL SWAP2 DUP3 SHL SWAP2 PUSH0 NOT SWAP1 SHL NOT AND OR SWAP1 SSTORE JUMP JUMPDEST PUSH2 0x529 DUP7 PUSH2 0x15BE JUMP JUMPDEST PUSH2 0x3D2 JUMP JUMPDEST PUSH4 0x4E487B71 PUSH1 0xE0 SHL DUP6 MSTORE PUSH1 0x11 DUP10 MSTORE PUSH1 0x24 DUP6 REVERT JUMPDEST PUSH2 0x595 DUP6 PUSH32 0x0 PUSH32 0x0 PUSH1 0x1 PUSH1 0x1 PUSH1 0xA0 SHL SUB AND PUSH2 0x15FB JUMP JUMPDEST PUSH2 0x485 JUMP JUMPDEST PUSH4 0x4E487B71 PUSH1 0xE0 SHL DUP10 MSTORE PUSH1 0x11 DUP14 MSTORE PUSH1 0x24 DUP10 REVERT JUMPDEST SWAP2 PUSH32 0xBAEA19541010BAD0070D3E9EBA7D614E4F22A90D557EB4B70272D33A32793A07 DUP5 SWAP4 PUSH2 0x4DE SWAP6 SWAP4 DUP4 ADD SLOAD SWAP3 PUSH1 0x1 DUP1 PUSH1 0xA0 SHL SUB SWAP1 PUSH2 0x612 DUP6 DUP4 DUP4 SLOAD AND DUP5 PUSH32 0x0 AND PUSH2 0x15FB JUMP JUMPDEST SLOAD AND SWAP3 DUP9 MLOAD SWAP1 DUP2 MSTORE LOG3 PUSH2 0x4CF JUMP JUMPDEST POP POP POP POP POP POP SWAP4 PUSH2 0x630 SWAP1 PUSH2 0x13F2 JUMP JUMPDEST SWAP4 PUSH2 0x3D2 JUMP JUMPDEST DUP5 SWAP3 POP SWAP1 PUSH2 0x647 JUMPI JUMPDEST POP DUP15 DUP1 PUSH2 0x413 JUMP JUMPDEST SWAP1 POP DUP14 SLOAD PUSH1 0x8 SHR AND DUP1 PUSH2 0x65B JUMPI JUMPDEST DUP15 PUSH2 0x63F JUMP JUMPDEST POP DUP9 PUSH2 0x655 JUMP JUMPDEST DUP3 PUSH1 0x1 DUP2 SSTORE DUP1 RETURN JUMPDEST DUP3 CALLVALUE PUSH2 0x356 JUMPI DUP1 PUSH1 0x3 NOT CALLDATASIZE ADD SLT PUSH2 0x356 JUMPI DUP2 CALLDATALOAD SWAP1 PUSH1 0x24 SWAP3 DUP4 CALLDATALOAD SWAP1 PUSH2 0x68C PUSH2 0x14F2 JUMP JUMPDEST DUP1 SLOAD PUSH1 0xFF DUP2 AND SWAP1 DUP2 PUSH2 0xA1C JUMPI JUMPDEST POP ISZERO PUSH2 0x9E7 JUMPI PUSH32 0x0 DUP5 LT ISZERO DUP1 PUSH2 0x9BD JUMPI JUMPDEST ISZERO PUSH2 0x984 JUMPI DUP2 ISZERO PUSH2 0x957 JUMPI PUSH2 0x6DD DUP3 PUSH2 0x1414 JUMP JUMPDEST ISZERO PUSH2 0x920 JUMPI DUP3 MLOAD PUSH4 0x23B872DD PUSH1 0xE0 SHL PUSH1 0x20 DUP3 ADD MSTORE CALLER DUP7 DUP3 ADD MSTORE ADDRESS PUSH1 0x44 DUP3 ADD MSTORE PUSH1 0x64 DUP1 DUP3 ADD DUP7 SWAP1 MSTORE DUP2 MSTORE PUSH2 0x70F DUP2 PUSH2 0x146E JUMP JUMPDEST PUSH1 0x1 PUSH1 0x1 PUSH1 0xA0 SHL SUB SWAP1 PUSH2 0x744 SWAP1 PUSH32 0x0 DUP4 AND PUSH2 0x1546 JUMP JUMPDEST PUSH2 0x74E DUP4 NUMBER PUSH2 0x1461 JUMP JUMPDEST SWAP6 DUP5 MLOAD SWAP3 PUSH2 0x75B DUP5 PUSH2 0x146E JUMP JUMPDEST CALLER DUP5 MSTORE PUSH1 0x20 DUP5 ADD SWAP4 DUP8 DUP6 MSTORE DUP7 DUP2 ADD SWAP9 NUMBER DUP11 MSTORE PUSH1 0x60 DUP3 ADD SWAP1 DUP2 MSTORE PUSH1 0x80 DUP3 ADD SWAP10 DUP12 DUP12 MSTORE PUSH1 0x5 SLOAD SWAP6 PUSH1 0x1 PUSH1 0x40 SHL SWAP7 DUP8 DUP2 LT ISZERO PUSH2 0x90E JUMPI DUP1 PUSH1 0x1 PUSH2 0x79E SWAP3 ADD PUSH1 0x5 SSTORE PUSH2 0x13BA JUMP JUMPDEST SWAP5 SWAP1 SWAP5 PUSH2 0x8FD JUMPI MLOAD DUP5 SLOAD SWAP2 AND PUSH1 0x1 PUSH1 0x1 PUSH1 0xA0 SHL SUB NOT SWAP2 DUP3 AND OR DUP5 SSTORE SWAP7 MLOAD PUSH1 0x1 DUP5 ADD SSTORE MLOAD PUSH1 0x2 DUP4 ADD SSTORE MLOAD PUSH1 0x3 DUP3 ADD SSTORE SWAP8 MLOAD SWAP8 DUP2 ADD DUP1 SLOAD PUSH1 0xFF NOT SWAP1 DUP2 AND SWAP10 ISZERO ISZERO PUSH1 0xFF AND SWAP10 SWAP1 SWAP10 OR SWAP1 SSTORE PUSH1 0x5 SLOAD PUSH0 NOT DUP2 ADD SWAP9 SWAP1 DUP10 GT PUSH2 0x8EB JUMPI CALLER DUP11 MSTORE PUSH1 0x6 PUSH1 0x20 MSTORE PUSH2 0x808 DUP10 DUP9 DUP13 KECCAK256 PUSH2 0x14CD JUMP JUMPDEST CALLER DUP11 MSTORE PUSH1 0x9 PUSH1 0x20 MSTORE DUP7 DUP11 KECCAK256 SWAP1 DUP2 SLOAD PUSH1 0xFF DUP2 AND ISZERO PUSH2 0x86A JUMPI JUMPDEST DUP12 DUP12 DUP12 DUP12 PUSH2 0x82E DUP13 NUMBER PUSH2 0x1461 JUMP JUMPDEST SWAP1 DUP1 MLOAD SWAP3 DUP4 MSTORE NUMBER PUSH1 0x20 DUP5 ADD MSTORE DUP3 ADD MSTORE PUSH32 0x9CFD25589D1EB8AD71E342A86A8524E83522E3936C0803048C08F6D9AD974F40 PUSH1 0x60 CALLER SWAP3 LOG3 PUSH1 0x1 DUP2 SSTORE DUP1 RETURN JUMPDEST AND PUSH1 0x1 OR SWAP1 SSTORE PUSH1 0x8 SLOAD SWAP3 DUP4 LT ISZERO PUSH2 0x8DA JUMPI PUSH1 0x1 DUP4 ADD DUP1 PUSH1 0x8 SSTORE DUP4 LT ISZERO PUSH2 0x8C9 JUMPI POP POP PUSH1 0x8 DUP8 MSTORE PUSH32 0xF3F7A9FE364FAAB93B216DA50A3214154F22A0A2B415B23A84C8169E8B636EE3 ADD DUP1 SLOAD SWAP1 SWAP2 AND CALLER OR SWAP1 SSTORE PUSH2 0x82E DUP7 DUP1 DUP1 DUP1 DUP1 DUP1 PUSH2 0x820 JUMP JUMPDEST PUSH4 0x4E487B71 PUSH1 0xE0 SHL DUP10 MSTORE PUSH1 0x32 SWAP1 MSTORE DUP8 REVERT JUMPDEST PUSH4 0x4E487B71 PUSH1 0xE0 SHL DUP10 MSTORE PUSH1 0x41 SWAP1 MSTORE DUP8 REVERT JUMPDEST POP PUSH4 0x4E487B71 PUSH1 0xE0 SHL DUP10 MSTORE PUSH1 0x11 SWAP1 MSTORE DUP8 REVERT JUMPDEST PUSH4 0x4E487B71 PUSH1 0xE0 SHL DUP15 MSTORE DUP14 DUP7 MSTORE DUP7 DUP15 REVERT JUMPDEST PUSH4 0x4E487B71 PUSH1 0xE0 SHL DUP15 MSTORE PUSH1 0x41 DUP7 MSTORE DUP7 DUP15 REVERT JUMPDEST PUSH1 0x64 SWAP1 PUSH1 0x12 DUP7 PUSH1 0x20 DUP7 MLOAD SWAP4 PUSH3 0x461BCD PUSH1 0xE5 SHL DUP6 MSTORE DUP5 ADD MSTORE DUP3 ADD MSTORE PUSH18 0x1C1C995CD95D081B9BDD08185B1B1BDDD959 PUSH1 0x72 SHL PUSH1 0x44 DUP3 ADD MSTORE REVERT JUMPDEST PUSH1 0x64 SWAP1 PUSH1 0x8 DUP7 PUSH1 0x20 DUP7 MLOAD SWAP4 PUSH3 0x461BCD PUSH1 0xE5 SHL DUP6 MSTORE DUP5 ADD MSTORE DUP3 ADD MSTORE PUSH8 0x626C6F636B733E3 PUSH1 0xC4 SHL PUSH1 0x44 DUP3 ADD MSTORE REVERT JUMPDEST PUSH1 0x64 SWAP1 PUSH1 0x14 DUP7 PUSH1 0x20 DUP7 MLOAD SWAP4 PUSH3 0x461BCD PUSH1 0xE5 SHL DUP6 MSTORE DUP5 ADD MSTORE DUP3 ADD MSTORE PUSH20 0x616D6F756E74206F7574206F6620626F756E6473 PUSH1 0x60 SHL PUSH1 0x44 DUP3 ADD MSTORE REVERT JUMPDEST POP PUSH32 0x0 DUP5 GT ISZERO PUSH2 0x6C9 JUMP JUMPDEST PUSH1 0x64 SWAP1 PUSH1 0x10 DUP7 PUSH1 0x20 DUP7 MLOAD SWAP4 PUSH3 0x461BCD PUSH1 0xE5 SHL DUP6 MSTORE DUP5 ADD MSTORE DUP3 ADD MSTORE PUSH16 0x7661756C74206E6F7420616374697665 PUSH1 0x80 SHL PUSH1 0x44 DUP3 ADD MSTORE REVERT JUMPDEST PUSH1 0xFF SWAP2 POP PUSH1 0x8 SHR AND ISZERO DUP8 PUSH2 0x699 JUMP JUMPDEST POP CALLVALUE PUSH2 0x18C JUMPI DUP1 PUSH1 0x3 NOT CALLDATASIZE ADD SLT PUSH2 0x18C JUMPI SWAP1 DUP1 MLOAD SWAP2 DUP3 SWAP1 PUSH1 0x8 SLOAD SWAP2 DUP3 DUP6 MSTORE PUSH1 0x20 DUP1 SWAP6 ADD DUP1 SWAP4 PUSH1 0x8 DUP5 MSTORE PUSH32 0xF3F7A9FE364FAAB93B216DA50A3214154F22A0A2B415B23A84C8169E8B636EE3 SWAP1 DUP5 JUMPDEST DUP2 DUP2 LT PUSH2 0xAD2 JUMPI POP POP POP DUP2 PUSH2 0xA8E SWAP2 SUB DUP3 PUSH2 0x149E JUMP JUMPDEST DUP4 MLOAD SWAP5 DUP6 SWAP5 DUP2 DUP7 ADD SWAP3 DUP3 DUP8 MSTORE MLOAD DUP1 SWAP4 MSTORE DUP6 ADD SWAP4 SWAP3 JUMPDEST DUP3 DUP2 LT PUSH2 0xAB2 JUMPI POP POP POP POP SUB SWAP1 RETURN JUMPDEST DUP4 MLOAD PUSH1 0x1 PUSH1 0x1 PUSH1 0xA0 SHL SUB AND DUP6 MSTORE DUP7 SWAP6 POP SWAP4 DUP2 ADD SWAP4 SWAP3 DUP2 ADD SWAP3 PUSH1 0x1 ADD PUSH2 0xAA3 JUMP JUMPDEST DUP3 SLOAD PUSH1 0x1 PUSH1 0x1 PUSH1 0xA0 SHL SUB AND DUP5 MSTORE SWAP3 DUP9 ADD SWAP3 PUSH1 0x1 SWAP3 DUP4 ADD SWAP3 ADD PUSH2 0xA78 JUMP JUMPDEST POP SWAP1 CALLVALUE PUSH2 0x1AD JUMPI PUSH1 0x80 CALLDATASIZE PUSH1 0x3 NOT ADD SLT PUSH2 0x1AD JUMPI PUSH2 0xB0A PUSH2 0x135C JUMP JUMPDEST PUSH1 0x64 CALLDATALOAD DUP1 ISZERO ISZERO DUP2 SUB PUSH2 0xB67 JUMPI PUSH2 0xB27 SWAP2 PUSH1 0x44 CALLDATALOAD SWAP1 PUSH1 0x24 CALLDATALOAD SWAP1 PUSH2 0x18F5 JUMP JUMPDEST DUP2 MLOAD SWAP3 DUP4 SWAP3 PUSH1 0x20 DUP1 DUP1 DUP7 ADD SWAP3 DUP2 DUP8 MSTORE DUP6 MLOAD DUP1 SWAP5 MSTORE DUP7 ADD SWAP5 ADD SWAP3 JUMPDEST DUP3 DUP2 LT PUSH2 0xB50 JUMPI POP POP POP POP SUB SWAP1 RETURN JUMPDEST DUP4 MLOAD DUP6 MSTORE DUP7 SWAP6 POP SWAP4 DUP2 ADD SWAP4 SWAP3 DUP2 ADD SWAP3 PUSH1 0x1 ADD PUSH2 0xB41 JUMP JUMPDEST DUP4 DUP1 REVERT JUMPDEST POP SWAP1 CALLVALUE PUSH2 0x1AD JUMPI DUP1 PUSH1 0x3 NOT CALLDATASIZE ADD SLT PUSH2 0x1AD JUMPI PUSH2 0xB85 PUSH2 0x135C JUMP JUMPDEST PUSH1 0x1 PUSH1 0x1 PUSH1 0xA0 SHL SUB AND DUP3 MSTORE PUSH1 0x6 PUSH1 0x20 MSTORE DUP1 DUP3 KECCAK256 DUP1 SLOAD PUSH1 0x24 CALLDATALOAD SWAP4 SWAP1 DUP5 LT ISZERO PUSH2 0x18C JUMPI POP PUSH1 0x20 SWAP3 PUSH2 0x2A4 SWAP2 PUSH2 0x12D7 JUMP JUMPDEST POP SWAP1 CALLVALUE PUSH2 0x1AD JUMPI PUSH1 0x20 DUP1 PUSH1 0x3 NOT CALLDATASIZE ADD SLT PUSH2 0x356 JUMPI PUSH2 0xBCF PUSH2 0x135C JUMP JUMPDEST DUP4 SWAP1 PUSH1 0x1 DUP1 PUSH1 0xA0 SHL SUB AND SWAP3 DUP4 DUP6 MSTORE PUSH1 0x6 DUP4 MSTORE DUP1 DUP6 KECCAK256 SWAP4 DUP2 MLOAD DUP1 DUP7 DUP7 DUP3 SWAP9 SLOAD SWAP4 DUP5 DUP2 MSTORE ADD SWAP1 DUP10 MSTORE DUP7 DUP10 KECCAK256 SWAP3 DUP10 JUMPDEST DUP9 DUP3 DUP3 LT PUSH2 0xD73 JUMPI POP POP POP PUSH2 0xC12 SWAP3 POP SUB DUP7 PUSH2 0x149E JUMP JUMPDEST DUP6 MSTORE PUSH1 0x7 DUP4 MSTORE DUP1 DUP6 KECCAK256 SWAP4 DUP2 MLOAD DUP1 DUP7 DUP7 DUP3 SWAP9 SLOAD SWAP4 DUP5 DUP2 MSTORE ADD SWAP1 DUP10 MSTORE DUP7 DUP10 KECCAK256 SWAP3 DUP10 JUMPDEST DUP9 DUP3 DUP3 LT PUSH2 0xD5D JUMPI POP POP POP PUSH2 0xC49 SWAP3 POP SUB DUP7 PUSH2 0x149E JUMP JUMPDEST DUP6 SWAP3 JUMPDEST DUP2 MLOAD DUP5 LT ISZERO PUSH2 0xCE7 JUMPI PUSH2 0xC71 PUSH2 0xC6B PUSH2 0xC65 DUP7 DUP6 PUSH2 0x1730 JUMP JUMPDEST MLOAD PUSH2 0x13BA JUMP JUMPDEST POP PUSH2 0x1744 JUMP JUMPDEST PUSH1 0x60 DUP2 ADD DUP7 DUP2 MLOAD NUMBER DUP2 GT PUSH0 EQ PUSH2 0xCE2 JUMPI POP NUMBER JUMPDEST DUP7 DUP5 ADD SWAP1 DUP2 MLOAD SWAP1 DUP2 DUP2 GT ISZERO PUSH2 0xCD2 JUMPI SWAP3 PUSH2 0xCB8 PUSH2 0xCC6 SWAP7 SWAP4 PUSH2 0xCAE PUSH2 0xCCC SWAP10 SWAP8 SWAP5 PUSH2 0xCC0 SWAP8 PUSH2 0x14C0 JUMP JUMPDEST SWAP4 MLOAD SWAP1 MLOAD SWAP1 PUSH2 0x14C0 JUMP JUMPDEST SWAP3 ADD MLOAD PUSH2 0x178E JUMP JUMPDEST SWAP1 PUSH2 0x1461 JUMP JUMPDEST SWAP4 PUSH2 0x13F2 JUMP JUMPDEST SWAP3 PUSH2 0xC4C JUMP JUMPDEST POP POP POP POP POP POP SWAP3 PUSH2 0xCCC SWAP1 PUSH2 0x13F2 JUMP JUMPDEST PUSH2 0xC84 JUMP JUMPDEST SWAP3 POP POP SWAP2 SWAP4 SWAP1 JUMPDEST DUP4 MLOAD DUP3 LT ISZERO PUSH2 0xD54 JUMPI DUP5 PUSH2 0xD08 PUSH2 0xC6B PUSH2 0xC65 DUP6 DUP9 PUSH2 0x1730 JUMP JUMPDEST PUSH1 0x60 DUP2 ADD MLOAD DUP6 DUP3 ADD MLOAD SWAP1 DUP2 DUP2 GT ISZERO PUSH2 0xD46 JUMPI SWAP3 PUSH2 0xD40 SWAP5 SWAP3 PUSH2 0xD30 PUSH2 0xCC0 SWAP4 PUSH2 0xD3A SWAP7 PUSH2 0x14C0 JUMP JUMPDEST SWAP2 DUP3 SWAP2 ADD MLOAD PUSH2 0x178E JUMP JUMPDEST SWAP2 PUSH2 0x13F2 JUMP JUMPDEST SWAP1 PUSH2 0xCEE JUMP JUMPDEST POP POP POP POP SWAP1 PUSH2 0xD40 SWAP1 PUSH2 0x13F2 JUMP JUMPDEST SWAP3 POP POP MLOAD SWAP1 DUP2 MSTORE RETURN JUMPDEST DUP6 SLOAD DUP5 MSTORE PUSH1 0x1 SWAP6 DUP7 ADD SWAP6 DUP12 SWAP6 POP SWAP4 ADD SWAP3 ADD PUSH2 0xC32 JUMP JUMPDEST DUP6 SLOAD DUP5 MSTORE PUSH1 0x1 SWAP6 DUP7 ADD SWAP6 DUP12 SWAP6 POP SWAP4 ADD SWAP3 ADD PUSH2 0xBFB JUMP JUMPDEST POP SWAP1 CALLVALUE PUSH2 0x1AD JUMPI DUP2 PUSH1 0x3 NOT CALLDATASIZE ADD SLT PUSH2 0x1AD JUMPI PUSH1 0x20 SWAP1 MLOAD PUSH32 0x0 DUP2 MSTORE RETURN JUMPDEST DUP3 CALLVALUE PUSH2 0x356 JUMPI DUP3 PUSH1 0x3 NOT CALLDATASIZE ADD SLT PUSH2 0x356 JUMPI PUSH2 0xDF2 SWAP2 SWAP3 PUSH2 0xDE2 PUSH2 0x14F2 JUMP JUMPDEST PUSH2 0xDEA PUSH2 0x164B JUMP JUMPDEST DUP2 SWAP5 SWAP2 PUSH2 0x1461 JUMP JUMPDEST SWAP2 DUP2 JUMPDEST PUSH1 0x5 SLOAD DUP2 LT ISZERO PUSH2 0x662 JUMPI PUSH2 0xE08 DUP2 PUSH2 0x13BA JUMP JUMPDEST POP DUP7 DUP2 ADD SWAP1 DUP2 SLOAD SWAP2 PUSH1 0xFF DUP4 AND ISZERO DUP1 PUSH2 0x103A JUMPI JUMPDEST PUSH2 0xE31 JUMPI JUMPDEST POP POP POP PUSH2 0xE2C SWAP1 PUSH2 0x13F2 JUMP JUMPDEST PUSH2 0xDF5 JUMP JUMPDEST SWAP1 PUSH1 0x6 SWAP2 PUSH1 0x1 DUP1 SWAP5 PUSH1 0xFF NOT AND OR SWAP1 SSTORE DUP3 DUP2 ADD SLOAD PUSH2 0x2710 SWAP2 DUP3 PUSH2 0xE53 DUP11 DUP5 PUSH2 0x15AB JUMP JUMPDEST DIV SWAP3 PUSH2 0xE69 DUP12 PUSH2 0xE63 DUP7 DUP7 PUSH2 0x14C0 JUMP JUMPDEST SWAP5 PUSH2 0x15AB JUMP JUMPDEST DIV PUSH2 0xE74 DUP2 DUP6 PUSH2 0x14C0 JUMP JUMPDEST SWAP1 DUP1 PUSH2 0xFE0 JUMPI JUMPDEST POP DUP1 PUSH2 0xFA6 JUMPI JUMPDEST POP DUP7 DUP7 PUSH1 0x1 DUP1 PUSH1 0xA0 SHL SUB SWAP4 PUSH2 0xEBD DUP2 DUP7 DUP7 SLOAD AND DUP8 PUSH32 0x0 AND PUSH2 0x15FB JUMP JUMPDEST PUSH32 0x7B381718BEC1E0DBC1241809EE9B55F3D783B95880307F002707FAD981FA5069 DUP6 DUP6 SLOAD AND SWAP4 DUP5 SWAP3 DUP2 MLOAD SWAP1 DUP2 MSTORE PUSH1 0x20 SWAP9 DUP10 DUP3 ADD MSTORE LOG3 DUP9 MSTORE PUSH1 0x7 DUP4 MSTORE PUSH2 0xF04 DUP7 DUP9 DUP11 KECCAK256 PUSH2 0x14CD JUMP JUMPDEST SLOAD AND DUP7 MSTORE MSTORE DUP3 DUP5 KECCAK256 DUP5 DUP3 JUMPDEST ISZERO PUSH2 0xE20 JUMPI DUP2 SLOAD DUP1 DUP3 LT ISZERO PUSH2 0xFA0 JUMPI DUP5 SWAP1 PUSH2 0xF2A DUP4 DUP6 PUSH2 0x12D7 JUMP JUMPDEST SWAP3 SWAP1 SLOAD PUSH1 0x3 SWAP4 DUP5 SHL SHR EQ PUSH2 0xF4A JUMPI POP POP PUSH2 0xF44 DUP4 SWAP2 PUSH2 0x13F2 JUMP JUMPDEST SWAP1 PUSH2 0xF0F JUMP JUMPDEST SWAP3 SWAP4 POP SWAP1 SWAP2 PUSH0 NOT DUP2 ADD SWAP1 DUP2 GT PUSH2 0xF8D JUMPI PUSH2 0xF85 SWAP3 PUSH2 0x508 DUP6 SWAP4 PUSH2 0xF74 PUSH2 0xF80 SWAP5 PUSH2 0xE2C SWAP10 SWAP9 PUSH2 0x12D7 JUMP JUMPDEST SWAP1 SLOAD SWAP2 SHL SHR SWAP2 DUP5 PUSH2 0x12D7 JUMP JUMPDEST PUSH2 0x15BE JUMP JUMPDEST SWAP1 DUP8 DUP1 PUSH2 0xE20 JUMP JUMPDEST PUSH4 0x4E487B71 PUSH1 0xE0 SHL DUP8 MSTORE PUSH1 0x11 DUP11 MSTORE PUSH1 0x24 DUP8 REVERT JUMPDEST POP PUSH2 0xE20 JUMP JUMPDEST PUSH2 0xFDA SWAP1 CALLER PUSH32 0x0 PUSH1 0x1 PUSH1 0x1 PUSH1 0xA0 SHL SUB AND PUSH2 0x15FB JUMP JUMPDEST DUP12 PUSH2 0xE82 JUMP JUMPDEST PUSH2 0x1034 SWAP1 PUSH32 0x0 PUSH32 0x0 PUSH1 0x1 PUSH1 0x1 PUSH1 0xA0 SHL SUB AND PUSH2 0x15FB JUMP JUMPDEST DUP13 PUSH2 0xE7B JUMP JUMPDEST POP PUSH1 0x3 DUP3 ADD SLOAD NUMBER LT ISZERO PUSH2 0xE1B JUMP JUMPDEST SWAP3 POP CALLVALUE PUSH2 0x18C JUMPI DUP1 PUSH1 0x3 NOT CALLDATASIZE ADD SLT PUSH2 0x18C JUMPI POP PUSH1 0xFF PUSH1 0x20 SWAP3 SLOAD PUSH1 0x8 SHR AND SWAP1 MLOAD SWAP1 ISZERO ISZERO DUP2 MSTORE RETURN JUMPDEST CALLVALUE PUSH2 0x1AD JUMPI PUSH1 0x20 CALLDATASIZE PUSH1 0x3 NOT ADD SLT PUSH2 0x1AD JUMPI CALLDATALOAD SWAP1 PUSH1 0x2 SLOAD DUP3 LT ISZERO PUSH2 0x18C JUMPI POP PUSH2 0x2D9 SWAP1 PUSH2 0x12EC JUMP JUMPDEST POP SWAP1 CALLVALUE PUSH2 0x1AD JUMPI DUP2 PUSH1 0x3 NOT CALLDATASIZE ADD SLT PUSH2 0x1AD JUMPI PUSH1 0x20 SWAP1 MLOAD PUSH32 0x0 DUP2 MSTORE RETURN JUMPDEST POP SWAP1 CALLVALUE PUSH2 0x1AD JUMPI DUP2 PUSH1 0x3 NOT CALLDATASIZE ADD SLT PUSH2 0x1AD JUMPI PUSH1 0x20 SWAP1 PUSH1 0x1 SLOAD SWAP1 MLOAD SWAP1 DUP2 MSTORE RETURN JUMPDEST DUP3 SWAP1 CALLVALUE PUSH2 0x356 JUMPI DUP3 PUSH1 0x3 NOT CALLDATASIZE ADD SLT PUSH2 0x356 JUMPI PUSH1 0x20 SWAP3 POP SLOAD SWAP1 PUSH1 0xFF DUP3 AND SWAP2 DUP3 PUSH2 0x111B JUMPI JUMPDEST POP MLOAD SWAP1 ISZERO ISZERO DUP2 MSTORE RETURN JUMPDEST PUSH1 0x8 SHR PUSH1 0xFF AND ISZERO SWAP2 POP DUP4 PUSH2 0x1112 JUMP JUMPDEST DUP3 CALLVALUE PUSH2 0x356 JUMPI DUP3 PUSH1 0x3 NOT CALLDATASIZE ADD SLT PUSH2 0x356 JUMPI PUSH1 0x1 DUP1 PUSH1 0xA0 SHL SUB DUP1 PUSH32 0x0 AND CALLER EQ SWAP1 DUP2 ISZERO PUSH2 0x11DD JUMPI JUMPDEST POP ISZERO PUSH2 0x11AA JUMPI POP DUP1 SLOAD PUSH2 0xFFFF NOT AND PUSH2 0x100 OR SWAP1 SSTORE PUSH32 0xDF23397AB444D891935A0B305B1552FB235D2BD07043FFC42C6ED3F43A4D8352 DUP2 DUP1 LOG1 DUP1 RETURN JUMPDEST SWAP1 PUSH1 0x20 PUSH1 0x64 SWAP3 MLOAD SWAP2 PUSH3 0x461BCD PUSH1 0xE5 SHL DUP4 MSTORE DUP3 ADD MSTORE PUSH1 0xD PUSH1 0x24 DUP3 ADD MSTORE PUSH13 0x1BDB9B1E481C1C9BDD1BD8DBDB PUSH1 0x9A SHL PUSH1 0x44 DUP3 ADD MSTORE REVERT JUMPDEST SWAP1 POP PUSH32 0x0 AND CALLER EQ DUP5 PUSH2 0x116F JUMP JUMPDEST DUP3 SWAP1 CALLVALUE PUSH2 0x356 JUMPI PUSH1 0x20 CALLDATASIZE PUSH1 0x3 NOT ADD SLT PUSH2 0x356 JUMPI CALLDATALOAD SWAP2 PUSH1 0x1 SLOAD DUP4 LT ISZERO PUSH2 0x18C JUMPI POP PUSH2 0x2A4 PUSH1 0x20 SWAP3 PUSH2 0x128E JUMP JUMPDEST POP SWAP1 CALLVALUE PUSH2 0x1AD JUMPI DUP2 PUSH1 0x3 NOT CALLDATASIZE ADD SLT PUSH2 0x1AD JUMPI PUSH1 0x20 SWAP1 MLOAD PUSH32 0x0 DUP2 MSTORE RETURN JUMPDEST DUP3 CALLVALUE PUSH2 0x18C JUMPI DUP1 PUSH1 0x3 NOT CALLDATASIZE ADD SLT PUSH2 0x18C JUMPI POP PUSH1 0xFF PUSH1 0x20 SWAP3 SLOAD AND ISZERO ISZERO DUP2 MSTORE RETURN JUMPDEST PUSH1 0x1 SLOAD DUP2 LT ISZERO PUSH2 0x12C3 JUMPI PUSH1 0x1 PUSH0 MSTORE PUSH32 0xB10E2D527612073B26EECDFD717E6A320CF44B4AFAC2B0732D9FCBE2B7FA0CF6 ADD SWAP1 PUSH0 SWAP1 JUMP JUMPDEST PUSH4 0x4E487B71 PUSH1 0xE0 SHL PUSH0 MSTORE PUSH1 0x32 PUSH1 0x4 MSTORE PUSH1 0x24 PUSH0 REVERT JUMPDEST DUP1 SLOAD DUP3 LT ISZERO PUSH2 0x12C3 JUMPI PUSH0 MSTORE PUSH1 0x20 PUSH0 KECCAK256 ADD SWAP1 PUSH0 SWAP1 JUMP JUMPDEST PUSH1 0x2 SLOAD DUP2 LT ISZERO PUSH2 0x12C3 JUMPI PUSH1 0x2 PUSH0 MSTORE PUSH1 0x1 SHL PUSH32 0x405787FA12A823E0F2B7631CC41B3BA8828B3321CA811111FA75CD3AA3BB5ACE ADD SWAP1 PUSH0 SWAP1 JUMP JUMPDEST PUSH1 0x3 SLOAD DUP2 LT ISZERO PUSH2 0x12C3 JUMPI PUSH1 0x3 PUSH0 MSTORE PUSH1 0x1 SHL PUSH32 0xC2575A0E9E593C00F959F8C92F12DB2869C3395A3B0502D05E2516446F71F85B ADD SWAP1 PUSH0 SWAP1 JUMP JUMPDEST PUSH1 0x4 CALLDATALOAD SWAP1 PUSH1 0x1 PUSH1 0x1 PUSH1 0xA0 SHL SUB DUP3 AND DUP3 SUB PUSH2 0x1372 JUMPI JUMP JUMPDEST PUSH0 DUP1 REVERT JUMPDEST CALLVALUE PUSH2 0x1372 JUMPI PUSH0 CALLDATASIZE PUSH1 0x3 NOT ADD SLT PUSH2 0x1372 JUMPI PUSH1 0x40 MLOAD PUSH32 0x0 PUSH1 0x1 PUSH1 0x1 PUSH1 0xA0 SHL SUB AND DUP2 MSTORE PUSH1 0x20 SWAP1 RETURN JUMPDEST PUSH1 0x5 SLOAD DUP2 LT ISZERO PUSH2 0x12C3 JUMPI PUSH1 0x5 SWAP1 DUP2 PUSH0 MSTORE MUL PUSH32 0x36B6384B5ECA791C62761152D0C79BB0604C104A5FB6F4EB0703F3154BB3DB0 ADD SWAP1 PUSH0 SWAP1 JUMP JUMPDEST PUSH0 NOT DUP2 EQ PUSH2 0x1400 JUMPI PUSH1 0x1 ADD SWAP1 JUMP JUMPDEST PUSH4 0x4E487B71 PUSH1 0xE0 SHL PUSH0 MSTORE PUSH1 0x11 PUSH1 0x4 MSTORE PUSH1 0x24 PUSH0 REVERT JUMPDEST PUSH1 0x1 DUP1 SLOAD SWAP2 DUP3 ISZERO PUSH2 0x145B JUMPI PUSH0 JUMPDEST DUP4 DUP2 LT PUSH2 0x1430 JUMPI POP POP POP POP PUSH0 SWAP1 JUMP JUMPDEST DUP2 PUSH2 0x143A DUP3 PUSH2 0x128E JUMP JUMPDEST SWAP1 SLOAD SWAP1 PUSH1 0x3 SHL SHR EQ PUSH2 0x1454 JUMPI PUSH2 0x144F SWAP1 PUSH2 0x13F2 JUMP JUMPDEST PUSH2 0x1421 JUMP JUMPDEST POP POP SWAP1 POP SWAP1 JUMP JUMPDEST POP SWAP1 POP SWAP1 JUMP JUMPDEST SWAP2 SWAP1 DUP3 ADD DUP1 SWAP3 GT PUSH2 0x1400 JUMPI JUMP JUMPDEST PUSH1 0xA0 DUP2 ADD SWAP1 DUP2 LT PUSH8 0xFFFFFFFFFFFFFFFF DUP3 GT OR PUSH2 0x148A JUMPI PUSH1 0x40 MSTORE JUMP JUMPDEST PUSH4 0x4E487B71 PUSH1 0xE0 SHL PUSH0 MSTORE PUSH1 0x41 PUSH1 0x4 MSTORE PUSH1 0x24 PUSH0 REVERT JUMPDEST SWAP1 PUSH1 0x1F DUP1 NOT SWAP2 ADD AND DUP2 ADD SWAP1 DUP2 LT PUSH8 0xFFFFFFFFFFFFFFFF DUP3 GT OR PUSH2 0x148A JUMPI PUSH1 0x40 MSTORE JUMP JUMPDEST SWAP2 SWAP1 DUP3 SUB SWAP2 DUP3 GT PUSH2 0x1400 JUMPI JUMP JUMPDEST SWAP1 DUP2 SLOAD SWAP2 PUSH1 0x1 PUSH1 0x40 SHL DUP4 LT ISZERO PUSH2 0x148A JUMPI DUP3 PUSH2 0x508 SWAP2 PUSH1 0x1 PUSH2 0x14F0 SWAP6 ADD DUP2 SSTORE PUSH2 0x12D7 JUMP JUMPDEST JUMP JUMPDEST PUSH1 0x2 PUSH0 SLOAD EQ PUSH2 0x1501 JUMPI PUSH1 0x2 PUSH0 SSTORE JUMP JUMPDEST PUSH1 0x40 MLOAD PUSH3 0x461BCD PUSH1 0xE5 SHL DUP2 MSTORE PUSH1 0x20 PUSH1 0x4 DUP3 ADD MSTORE PUSH1 0x1F PUSH1 0x24 DUP3 ADD MSTORE PUSH32 0x5265656E7472616E637947756172643A207265656E7472616E742063616C6C00 PUSH1 0x44 DUP3 ADD MSTORE PUSH1 0x64 SWAP1 REVERT JUMPDEST SWAP1 PUSH0 PUSH1 0x20 SWAP2 DUP3 DUP2 MLOAD SWAP2 ADD DUP3 DUP6 GAS CALL ISZERO PUSH2 0x15A0 JUMPI PUSH0 MLOAD RETURNDATASIZE PUSH2 0x1597 JUMPI POP PUSH1 0x1 PUSH1 0x1 PUSH1 0xA0 SHL SUB DUP2 AND EXTCODESIZE ISZERO JUMPDEST PUSH2 0x1575 JUMPI POP JUMP JUMPDEST PUSH1 0x40 MLOAD PUSH4 0x5274AFE7 PUSH1 0xE0 SHL DUP2 MSTORE PUSH1 0x1 PUSH1 0x1 PUSH1 0xA0 SHL SUB SWAP1 SWAP2 AND PUSH1 0x4 DUP3 ADD MSTORE PUSH1 0x24 SWAP1 REVERT JUMPDEST PUSH1 0x1 EQ ISZERO PUSH2 0x156E JUMP JUMPDEST PUSH1 0x40 MLOAD RETURNDATASIZE PUSH0 DUP3 RETURNDATACOPY RETURNDATASIZE SWAP1 REVERT JUMPDEST DUP2 DUP2 MUL SWAP3 SWAP2 DUP2 ISZERO SWAP2 DUP5 DIV EQ OR ISZERO PUSH2 0x1400 JUMPI JUMP JUMPDEST DUP1 SLOAD SWAP1 DUP2 ISZERO PUSH2 0x15E7 JUMPI PUSH0 NOT SWAP2 DUP3 ADD SWAP2 PUSH2 0x15D7 DUP4 DUP4 PUSH2 0x12D7 JUMP JUMPDEST SWAP1 SWAP2 DUP3 SLOAD SWAP2 PUSH1 0x3 SHL SHL NOT AND SWAP1 SSTORE SSTORE JUMP JUMPDEST PUSH4 0x4E487B71 PUSH1 0xE0 SHL PUSH0 MSTORE PUSH1 0x31 PUSH1 0x4 MSTORE PUSH1 0x24 PUSH0 REVERT JUMPDEST PUSH1 0x40 MLOAD PUSH4 0xA9059CBB PUSH1 0xE0 SHL PUSH1 0x20 DUP3 ADD MSTORE PUSH1 0x1 PUSH1 0x1 PUSH1 0xA0 SHL SUB SWAP1 SWAP3 AND PUSH1 0x24 DUP4 ADD MSTORE PUSH1 0x44 DUP1 DUP4 ADD SWAP4 SWAP1 SWAP4 MSTORE SWAP2 DUP2 MSTORE PUSH1 0x80 DUP2 ADD SWAP2 PUSH8 0xFFFFFFFFFFFFFFFF DUP4 GT DUP3 DUP5 LT OR PUSH2 0x148A JUMPI PUSH2 0x14F0 SWAP3 PUSH1 0x40 MSTORE PUSH2 0x1546 JUMP JUMPDEST PUSH1 0x40 MLOAD PUSH4 0x18BF7417 PUSH1 0xE3 SHL DUP2 MSTORE PUSH1 0x20 SWAP2 SWAP1 PUSH32 0x0 PUSH1 0x1 PUSH1 0x1 PUSH1 0xA0 SHL SUB AND SWAP1 DUP4 DUP2 PUSH1 0x4 DUP2 DUP6 GAS STATICCALL SWAP2 DUP3 ISZERO PUSH2 0x15A0 JUMPI DUP5 SWAP2 PUSH0 SWAP4 PUSH2 0x16FD JUMPI JUMPDEST POP PUSH1 0x40 MLOAD PUSH4 0xF25E78B1 PUSH1 0xE0 SHL DUP2 MSTORE SWAP2 SWAP1 DUP3 SWAP1 PUSH1 0x4 SWAP1 DUP3 SWAP1 GAS STATICCALL SWAP4 DUP5 ISZERO PUSH2 0x15A0 JUMPI PUSH0 SWAP5 PUSH2 0x16CC JUMPI JUMPDEST POP POP SWAP2 SWAP1 JUMP JUMPDEST DUP2 DUP2 SWAP6 SWAP3 SWAP4 SWAP6 RETURNDATASIZE DUP4 GT PUSH2 0x16F6 JUMPI JUMPDEST PUSH2 0x16E4 DUP2 DUP4 PUSH2 0x149E JUMP JUMPDEST DUP2 ADD SUB SLT PUSH2 0x18C JUMPI POP MLOAD SWAP2 PUSH0 DUP1 PUSH2 0x16C6 JUMP JUMPDEST POP RETURNDATASIZE PUSH2 0x16DA JUMP JUMPDEST SWAP2 DUP3 DUP2 SWAP5 SWAP3 SWAP5 RETURNDATASIZE DUP4 GT PUSH2 0x1729 JUMPI JUMPDEST PUSH2 0x1715 DUP2 DUP4 PUSH2 0x149E JUMP JUMPDEST DUP2 ADD SUB SLT PUSH2 0x18C JUMPI POP MLOAD SWAP1 DUP4 SWAP1 PUSH1 0x4 PUSH2 0x169F JUMP JUMPDEST POP RETURNDATASIZE PUSH2 0x170B JUMP JUMPDEST DUP1 MLOAD DUP3 LT ISZERO PUSH2 0x12C3 JUMPI PUSH1 0x20 SWAP2 PUSH1 0x5 SHL ADD ADD SWAP1 JUMP JUMPDEST SWAP1 PUSH1 0x40 MLOAD PUSH2 0x1751 DUP2 PUSH2 0x146E JUMP JUMPDEST DUP3 SLOAD PUSH1 0x1 PUSH1 0x1 PUSH1 0xA0 SHL SUB AND DUP2 MSTORE PUSH1 0x1 DUP4 ADD SLOAD PUSH1 0x20 DUP3 ADD MSTORE PUSH1 0x2 DUP4 ADD SLOAD PUSH1 0x40 DUP3 ADD MSTORE PUSH1 0x3 DUP4 ADD SLOAD PUSH1 0x60 DUP3 ADD MSTORE PUSH1 0x4 SWAP1 SWAP3 ADD SLOAD PUSH1 0xFF AND ISZERO ISZERO PUSH1 0x80 DUP4 ADD MSTORE JUMP JUMPDEST SWAP1 PUSH32 0x0 PUSH0 DUP1 DUP3 SLT PUSH2 0x188E JUMPI POP PUSH2 0x17C6 PUSH2 0x17CB SWAP3 DUP5 PUSH2 0x15AB JUMP JUMPDEST PUSH2 0x15AB JUMP JUMPDEST SWAP1 SWAP2 JUMPDEST PUSH2 0x2710 SWAP1 PUSH0 PUSH1 0x2 SLOAD SWAP2 JUMPDEST DUP3 DUP3 LT PUSH2 0x184D JUMPI JUMPDEST POP POP POP PUSH2 0x2710 SWAP1 PUSH0 PUSH1 0x3 SLOAD SWAP5 JUMPDEST DUP6 DUP3 LT PUSH2 0x1816 JUMPI JUMPDEST POP POP PUSH2 0x2710 SWAP4 POP PUSH2 0x180B PUSH2 0x1812 SWAP4 SWAP3 DUP6 SWAP3 PUSH2 0x15AB JUMP JUMPDEST DIV SWAP1 PUSH2 0x15AB JUMP JUMPDEST DIV SWAP1 JUMP JUMPDEST SWAP1 SWAP3 PUSH2 0x1821 DUP5 PUSH2 0x1324 JUMP JUMPDEST POP SLOAD DUP3 LT PUSH2 0x1847 JUMPI POP PUSH2 0x1841 PUSH1 0x1 PUSH2 0x1838 DUP6 PUSH2 0x1324 JUMP JUMPDEST POP ADD SLOAD SWAP4 PUSH2 0x13F2 JUMP JUMPDEST SWAP1 PUSH2 0x17ED JUMP JUMPDEST SWAP3 PUSH2 0x17F5 JUMP JUMPDEST SWAP1 SWAP2 SWAP5 SWAP4 SWAP3 PUSH2 0x185B DUP4 PUSH2 0x12EC JUMP JUMPDEST POP SLOAD DUP3 LT PUSH2 0x1886 JUMPI POP PUSH2 0x187B PUSH1 0x1 PUSH2 0x1872 DUP5 PUSH2 0x12EC JUMP JUMPDEST POP ADD SLOAD SWAP3 PUSH2 0x13F2 JUMP JUMPDEST SWAP1 SWAP5 SWAP2 SWAP3 SWAP4 SWAP5 PUSH2 0x17D8 JUMP JUMPDEST SWAP3 SWAP4 SWAP5 PUSH2 0x17E0 JUMP JUMPDEST SWAP2 PUSH1 0x1 PUSH1 0xFF SHL DUP3 EQ PUSH2 0x18C9 JUMPI PUSH2 0x18A4 SWAP1 DUP5 PUSH2 0x15AB JUMP JUMPDEST SWAP2 DUP2 ISZERO PUSH2 0x18B5 JUMPI SUB SWAP1 DIV SWAP1 SWAP2 PUSH2 0x17CE JUMP JUMPDEST PUSH4 0x4E487B71 PUSH1 0xE0 SHL DUP2 MSTORE PUSH1 0x12 PUSH1 0x4 MSTORE PUSH1 0x24 SWAP1 REVERT JUMPDEST PUSH4 0x4E487B71 PUSH1 0xE0 SHL DUP4 MSTORE PUSH1 0x11 PUSH1 0x4 MSTORE PUSH1 0x24 DUP4 REVERT JUMPDEST PUSH8 0xFFFFFFFFFFFFFFFF DUP2 GT PUSH2 0x148A JUMPI PUSH1 0x5 SHL PUSH1 0x20 ADD SWAP1 JUMP JUMPDEST SWAP1 SWAP4 SWAP3 PUSH0 SWAP1 ISZERO PUSH2 0x19C4 JUMPI POP PUSH1 0x1 PUSH1 0x1 PUSH1 0xA0 SHL SUB AND PUSH0 SWAP1 DUP2 MSTORE PUSH1 0x6 PUSH1 0x20 MSTORE PUSH1 0x40 SWAP1 KECCAK256 SWAP3 JUMPDEST DUP4 SLOAD SWAP2 DUP3 DUP3 LT ISZERO PUSH2 0x19BB JUMPI PUSH2 0x192D SWAP1 DUP3 PUSH2 0x1461 JUMP JUMPDEST SWAP2 DUP1 DUP4 GT PUSH2 0x19B3 JUMPI JUMPDEST POP PUSH2 0x1941 DUP2 DUP4 PUSH2 0x14C0 JUMP JUMPDEST PUSH2 0x194A DUP2 PUSH2 0x18DD JUMP JUMPDEST SWAP1 PUSH2 0x1958 PUSH1 0x40 MLOAD SWAP3 DUP4 PUSH2 0x149E JUMP JUMPDEST DUP1 DUP3 MSTORE PUSH2 0x1967 PUSH1 0x1F NOT SWAP2 PUSH2 0x18DD JUMP JUMPDEST ADD CALLDATASIZE PUSH1 0x20 DUP4 ADD CALLDATACOPY DUP1 SWAP5 DUP3 JUMPDEST DUP5 DUP2 LT PUSH2 0x1980 JUMPI POP POP POP POP POP JUMP JUMPDEST DUP1 PUSH2 0x198E PUSH2 0x19AE SWAP3 DUP5 PUSH2 0x12D7 JUMP JUMPDEST SWAP1 SLOAD SWAP1 PUSH1 0x3 SHL SHR PUSH2 0x19A8 PUSH2 0x19A2 DUP8 DUP5 PUSH2 0x14C0 JUMP JUMPDEST DUP7 PUSH2 0x1730 JUMP JUMPDEST MSTORE PUSH2 0x13F2 JUMP JUMPDEST PUSH2 0x1972 JUMP JUMPDEST SWAP2 POP PUSH0 PUSH2 0x1936 JUMP JUMPDEST POP PUSH1 0x60 SWAP4 POP POP POP JUMP JUMPDEST PUSH1 0x1 PUSH1 0x1 PUSH1 0xA0 SHL SUB SWAP1 SWAP2 AND DUP2 MSTORE PUSH1 0x7 PUSH1 0x20 MSTORE PUSH1 0x40 SWAP1 KECCAK256 SWAP3 PUSH2 0x1918 JUMP INVALID LOG2 PUSH5 0x6970667358 0x22 SLT KECCAK256 DUP10 0xB0 DUP16 PUSH3 0xE05344 GAS 0xB7 0xF8 PUSH23 0x79A7B06061CB04F01F433CD4369FEE727D2132985A6473 PUSH16 0x6C63430008140033A264697066735822 SLT KECCAK256 SWAP1 0xF7 ADDMOD 0xCB 0x1E 0xD3 POP LOG1 0xE4 CALLDATACOPY MSTORE8 DUP14 0x25 STOP 0xAF 0xD2 PUSH30 0x4410D87C60507CCC5C568B3164451B64736F6C6343000814003300000000 "
		},
		"gasEstimates": {
			"creation": {
				"codeDepositCost": "2449400",
				"executionCost": "infinite",
				"totalCost": "infinite"
			},
			"external": {
				"allVaults(uint256)": "6672",
				"callerFeeBP()": "2463",
				"closeVault(address)": "infinite",
				"createVault(address,uint256,uint256,int256,uint256[],(uint256,uint256)[],(uint256,uint256)[])": "infinite",
				"getAllVaults()": "infinite",
				"getVaultByToken(address)": "2560",
				"getVaultsPaginated(uint256,uint256)": "infinite",
				"protocol()": "2330",
				"protocolFeeBP()": "2419",
				"setFees(uint256,uint256)": "46629",
				"vaultForToken(address)": "2643"
			}
		},
		"methodIdentifiers": {
			"allVaults(uint256)": "9094a91e",
			"callerFeeBP()": "f25e78b1",
			"closeVault(address)": "c99cb2b7",
			"createVault(address,uint256,uint256,int256,uint256[],(uint256,uint256)[],(uint256,uint256)[])": "a444477b",
			"getAllVaults()": "97331bf9",
			"getVaultByToken(address)": "b1e3a941",
			"getVaultsPaginated(uint256,uint256)": "0e5dee45",
			"protocol()": "8ce74426",
			"protocolFeeBP()": "c5fba0b8",
			"setFees(uint256,uint256)": "0b78f9c0",
			"vaultForToken(address)": "fdd16e57"
		}
	},
	"abi": [
		{
			"inputs": [
				{
					"internalType": "address",
					"name": "_protocol",
					"type": "address"
				}
			],
			"stateMutability": "nonpayable",
			"type": "constructor"
		},
		{
			"inputs": [
				{
					"internalType": "uint256",
					"name": "value",
					"type": "uint256"
				},
				{
					"internalType": "uint256",
					"name": "length",
					"type": "uint256"
				}
			],
			"name": "StringsInsufficientHexLength",
			"type": "error"
		},
		{
			"anonymous": false,
			"inputs": [
				{
					"indexed": true,
					"internalType": "address",
					"name": "vault",
					"type": "address"
				}
			],
			"name": "VaultClosedByFactory",
			"type": "event"
		},
		{
			"anonymous": false,
			"inputs": [
				{
					"indexed": true,
					"internalType": "address",
					"name": "token",
					"type": "address"
				},
				{
					"indexed": false,
					"internalType": "address",
					"name": "vault",
					"type": "address"
				}
			],
			"name": "VaultCreated",
			"type": "event"
		},
		{
			"inputs": [
				{
					"internalType": "uint256",
					"name": "",
					"type": "uint256"
				}
			],
			"name": "allVaults",
			"outputs": [
				{
					"internalType": "address",
					"name": "",
					"type": "address"
				}
			],
			"stateMutability": "view",
			"type": "function"
		},
		{
			"inputs": [],
			"name": "callerFeeBP",
			"outputs": [
				{
					"internalType": "uint256",
					"name": "",
					"type": "uint256"
				}
			],
			"stateMutability": "view",
			"type": "function"
		},
		{
			"inputs": [
				{
					"internalType": "address",
					"name": "vaultAddr",
					"type": "address"
				}
			],
			"name": "closeVault",
			"outputs": [],
			"stateMutability": "nonpayable",
			"type": "function"
		},
		{
			"inputs": [
				{
					"internalType": "address",
					"name": "token",
					"type": "address"
				},
				{
					"internalType": "uint256",
					"name": "minDeposit",
					"type": "uint256"
				},
				{
					"internalType": "uint256",
					"name": "maxDeposit",
					"type": "uint256"
				},
				{
					"internalType": "int256",
					"name": "xpRate",
					"type": "int256"
				},
				{
					"internalType": "uint256[]",
					"name": "presetTimes",
					"type": "uint256[]"
				},
				{
					"components": [
						{
							"internalType": "uint256",
							"name": "minBlocks",
							"type": "uint256"
						},
						{
							"internalType": "uint256",
							"name": "multiplierBP",
							"type": "uint256"
						}
					],
					"internalType": "struct YunaVaultFactory.TimeMultiplierIn[]",
					"name": "timeMultipliers",
					"type": "tuple[]"
				},
				{
					"components": [
						{
							"internalType": "uint256",
							"name": "minAmount",
							"type": "uint256"
						},
						{
							"internalType": "uint256",
							"name": "multiplierBP",
							"type": "uint256"
						}
					],
					"internalType": "struct YunaVaultFactory.AmountMultiplierIn[]",
					"name": "amountMultipliers",
					"type": "tuple[]"
				}
			],
			"name": "createVault",
			"outputs": [
				{
					"internalType": "address",
					"name": "vaultAddr",
					"type": "address"
				}
			],
			"stateMutability": "nonpayable",
			"type": "function"
		},
		{
			"inputs": [],
			"name": "getAllVaults",
			"outputs": [
				{
					"internalType": "address[]",
					"name": "",
					"type": "address[]"
				}
			],
			"stateMutability": "view",
			"type": "function"
		},
		{
			"inputs": [
				{
					"internalType": "address",
					"name": "token",
					"type": "address"
				}
			],
			"name": "getVaultByToken",
			"outputs": [
				{
					"internalType": "address",
					"name": "",
					"type": "address"
				}
			],
			"stateMutability": "view",
			"type": "function"
		},
		{
			"inputs": [
				{
					"internalType": "uint256",
					"name": "offset",
					"type": "uint256"
				},
				{
					"internalType": "uint256",
					"name": "limit",
					"type": "uint256"
				}
			],
			"name": "getVaultsPaginated",
			"outputs": [
				{
					"internalType": "address[]",
					"name": "page",
					"type": "address[]"
				}
			],
			"stateMutability": "view",
			"type": "function"
		},
		{
			"inputs": [],
			"name": "protocol",
			"outputs": [
				{
					"internalType": "address",
					"name": "",
					"type": "address"
				}
			],
			"stateMutability": "view",
			"type": "function"
		},
		{
			"inputs": [],
			"name": "protocolFeeBP",
			"outputs": [
				{
					"internalType": "uint256",
					"name": "",
					"type": "uint256"
				}
			],
			"stateMutability": "view",
			"type": "function"
		},
		{
			"inputs": [
				{
					"internalType": "uint256",
					"name": "_protocolFeeBP",
					"type": "uint256"
				},
				{
					"internalType": "uint256",
					"name": "_callerFeeBP",
					"type": "uint256"
				}
			],
			"name": "setFees",
			"outputs": [],
			"stateMutability": "nonpayable",
			"type": "function"
		},
		{
			"inputs": [
				{
					"internalType": "address",
					"name": "",
					"type": "address"
				}
			],
			"name": "vaultForToken",
			"outputs": [
				{
					"internalType": "address",
					"name": "",
					"type": "address"
				}
			],
			"stateMutability": "view",
			"type": "function"
		}
	]
}