{
	"data": {
		"bytecode": {
			"linkReferences": {},
			"object": "6080346100c857601f6136b338819003918201601f19168301916001600160401b038311848410176100cc578084926020946040528339810103126100c857516001600160a01b038116908190036100c857603260035560196004558015610083575f80546001600160a01b0319169190911790556040516135d290816100e18239f35b60405162461bcd60e51b815260206004820152601860248201527f696e76616c69642070726f746f636f6c206164647265737300000000000000006044820152606490fd5b5f80fd5b634e487b7160e01b5f52604160045260245ffdfe6080604052600436101562000012575f80fd5b5f803560e01c80630b78f9c01462000b295780630e5dee451462000b085780638ce744261462000adf5780639094a91e1462000a9657806397331bf914620009ff578063a444477b14620003d3578063b1e3a9411462000393578063c5c2853d146200030f578063c5fba0b814620002ef578063c99cb2b714620000f8578063f25e78b114620000d85763f98e006a14620000ab575f80fd5b34620000d55780600319360112620000d5576001546040516001600160a01b039091168152602090f35b80fd5b5034620000d55780600319360112620000d5576020600454604051908152f35b5034620000d557602080600319360112620002eb576200011762000c6a565b82546001600160a01b03918291821633148015620002dd575b6200013b9062000cb5565b16918215620002af57604051637e062a3560e11b80825291908181600481885afa80156200027e576200028d575b50833b156200028957604051630c4bb7d160e11b8152858160048183895af180156200027e576200024c575b506040519182528082600481875afa9182156200024157600592849187916200020d575b5016855252604083209082825491821614620001f9575b50507f56e87d53b3df539e22b78c93f5852467c09176615a569a3052d9b4b954612a6d8280a280f35b6001600160a01b03191690555f80620001d0565b620002329150833d851162000239575b62000229818362000d4e565b81019062000dcd565b5f620001b9565b503d6200021d565b6040513d87823e3d90fd5b67ffffffffffffffff81969296116200026a57604052935f62000195565b634e487b7160e01b82526041600452602482fd5b6040513d88823e3d90fd5b8480fd5b620002a790823d8411620002395762000229818362000d4e565b505f62000169565b6064906040519062461bcd60e51b82526004820152600760248201526607661756c7420360cc1b6044820152fd5b506001548216331462000130565b5080fd5b5034620000d55780600319360112620000d5576020600354604051908152f35b5034620000d5576020366003190112620000d5576200032d62000c6a565b81546001600160a01b039190821633036200035e57166bffffffffffffffffffffffff60a01b600154161760015580f35b60405162461bcd60e51b815260206004820152600d60248201526c1bdb9b1e481c1c9bdd1bd8dbdb609a1b6044820152606490fd5b5034620000d5576020366003190112620000d5576020906001600160a01b039060409082620003c162000c6a565b16815260058452205416604051908152f35b5034620000d55760e0366003190112620000d557620003f162000c6a565b67ffffffffffffffff60843511620002eb57366023608435011215620002eb5767ffffffffffffffff6084356004013511620002eb573660246084356004013560051b608435010111620002eb5760a43567ffffffffffffffff8111620009fb576200046290369060040162000c81565b9060c43567ffffffffffffffff811162000289576200048690369060040162000c81565b85546001600160a01b0316939192913385148015620009e6575b620004ab9062000cb5565b6001600160a01b03861615620009b7576001600160a01b03868116885260056020526040882054166200097c57620004e38162000d71565b92620004f3604051948562000d4e565b818452620005018262000d71565b885b601f198201811062000956575050875b828110620008b057505050620005298162000d71565b9262000539604051948562000d4e565b818452620005478262000d71565b875b601f19820181106200088a575050865b8281106200079d575050604051936126e0808601925067ffffffffffffffff831186841017620007895762000ebd863981526001600160a01b03851660208201523060408201526024356060820152604435608082015260643560a082015261012060c08201819052600460843501359082018190526001600160fb1b03106200078557908392916101406084356004013560051b6024608435018284013760206101606084356004013560051b8401838101938582030160e0860152855180945201930190885b8181106200074f5750505061010081830391015260208083519283815201920190865b8181106200071d57505050039083f08015620007125760018060a01b03169060025468010000000000000000811015620006fe576020936200068f8260016040940160025562000c20565b81546001600160a01b0360039290921b82811b199091169087901b179091559290921680835260058552912080546001600160a01b031916831790556040518281527f5d9c31ffa0fecffd7cf379989a3c7af252f0335e0d2a1320b55245912c781f53908490a2604051908152f35b634e487b7160e01b84526041600452602484fd5b6040513d84823e3d90fd5b91935091602062000741600192865190602060409280518352015160208201520190565b940191019184939262000644565b919495509192602062000775600192875190602060409280518352015160208201520190565b9501910191869594939262000621565b8580fd5b634e487b7160e01b88526041600452602488fd5b8062000804575b80620007b6620007fe92858562000d99565b356020620007c683878762000d99565b013560405191620007d78362000d1d565b82526020820152620007ea828862000db8565b52620007f7818762000db8565b5062000d8a565b62000559565b6200081181848462000d99565b355f19820182811162000876576200082b90858562000d99565b3510620007a457606460405162461bcd60e51b815260206004820152602060248201527f416d6f756e74206d756c7469706c69657273206e6f7420617363656e64696e676044820152fd5b634e487b7160e01b8a52601160045260248afd5b6020906040516200089b8162000d1d565b8a81528a838201528282890101520162000549565b80620008cf575b80620007b6620008c992858562000d99565b62000513565b620008dc81848462000d99565b355f1982018281116200094257620008f690858562000d99565b3510620008b75760405162461bcd60e51b815260206004820152601e60248201527f54696d65206d756c7469706c69657273206e6f7420617363656e64696e6700006044820152606490fd5b634e487b7160e01b8b52601160045260248bfd5b602090604051620009678162000d1d565b8b81528b838201528282890101520162000503565b60405162461bcd60e51b8152602060048201526013602482015272616374697665207661756c742065786973747360681b6044820152606490fd5b60405162461bcd60e51b81526020600482015260076024820152660746f6b656e20360cc1b6044820152606490fd5b506001546001600160a01b03163314620004a0565b8280fd5b5034620000d55780600319360112620000d557604051600280548083529083526020808301937f405787fa12a823e0f2b7631cc41b3ba8828b3321ca811111fa75cd3aa3bb5ace92915b82821062000a755762000a718562000a648189038262000d4e565b6040519182918262000bdb565b0390f35b83546001600160a01b03168652948501946001938401939091019062000a49565b5034620000d5576020366003190112620000d55760043590600254821015620000d557602062000ac68362000c20565b905460405160039290921b1c6001600160a01b03168152f35b5034620000d55780600319360112620000d557546040516001600160a01b039091168152602090f35b5034620000d55762000a7162000a6462000b223662000bc0565b9062000dee565b5034620000d55762000b3b3662000bc0565b9062000b5d60018060a01b0380855416331490811562000bb1575b5062000cb5565b61271062000b6c838362000cfb565b101562000b7c5760035560045580f35b60405162461bcd60e51b815260206004820152600d60248201526c0cccacae640e8dede40d0d2ced609b1b6044820152606490fd5b90506001541633145f62000b56565b604090600319011262000bd7576004359060243590565b5f80fd5b602090816040818301928281528551809452019301915f5b82811062000c02575050505090565b83516001600160a01b03168552938101939281019260010162000bf3565b60025481101562000c565760025f527f405787fa12a823e0f2b7631cc41b3ba8828b3321ca811111fa75cd3aa3bb5ace01905f90565b634e487b7160e01b5f52603260045260245ffd5b600435906001600160a01b038216820362000bd757565b9181601f8401121562000bd75782359167ffffffffffffffff831162000bd7576020808501948460061b01011162000bd757565b1562000cbd57565b60405162461bcd60e51b8152602060048201526016602482015275199858dd1bdc9e4e881bdb9b1e481c1c9bdd1bd8dbdb60521b6044820152606490fd5b9190820180921162000d0957565b634e487b7160e01b5f52601160045260245ffd5b6040810190811067ffffffffffffffff82111762000d3a57604052565b634e487b7160e01b5f52604160045260245ffd5b90601f8019910116810190811067ffffffffffffffff82111762000d3a57604052565b67ffffffffffffffff811162000d3a5760051b60200190565b5f19811462000d095760010190565b919081101562000c565760061b0190565b9190820391821162000d0957565b805182101562000c565760209160051b010190565b9081602091031262000bd757516001600160a01b038116810362000bd75790565b9190600254908184101562000eb45762000e09908462000cfb565b9080821162000eab575b5062000e20838262000daa565b9262000e2c8462000d71565b9362000e3c604051958662000d4e565b80855262000e4d601f199162000d71565b0136602086013783815b83811062000e655750505050565b8062000e7562000ea59262000c20565b905460039190911b1c6001600160a01b031662000e9e62000e97868462000daa565b8562000db8565b5262000d8a565b62000e57565b90505f62000e13565b50606092505056fe61014060405234620004b357620026e0803803806200001e81620004cc565b928339610120828281010312620004b3576200003a82620004f2565b906200004960208401620004f2565b926200005860408201620004f2565b6060820151608083015160a084015160c0850151979092906001600160401b038911620004b357868601601f8a8801011215620004b3578886015195620000a9620000a38862000507565b620004cc565b9660208882815201809b8a840160208460051b838701010111620004b35790602082850101915b60208460051b82870101018310620004b7575050505060e08101516001600160401b038111620004b3578101888201601f82011215620004b3576200011f90898301906020815191016200051f565b6101008201519098906001600160401b038111620004b357820190808301601f83011215620004b3576200015b9201906020815191016200051f565b60015f8190556004805461ffff19169091179055976001600160a01b038082161562000481578216156200045257838311620004235760805260c05260e052610100526101205260a052516001600160401b0381116200026c5768010000000000000000938482116200026c5760015482600155808310620003dc575b5060015f5260205f205f5b838110620003c757505050505f5b81518110156200028057620002078183620005d6565b51906002805492868410156200026c5760018401808355841015620002585762000252936200024c925f5260205f209060011b01906020600191805184550151910155565b620005b3565b620001f1565b634e487b7160e01b5f52603260045260245ffd5b634e487b7160e01b5f52604160045260245ffd5b50505f5b8151811015620002e5576200029a8183620005d6565b51906003805492858410156200026c57600184018083558410156200025857620002df936200024c925f5260205f209060011b01906020600191805184550151910155565b62000284565b6040516120f49081620005ec82396080518181816102a00152818161083f01528181610a9f01528181610c35015281816112d6015261164f015260a0518181816101f9015281816106a401528181610bd90152818161153f015281816116bf01528181611b680152611e3a015260c051818181610365015281816109a001528181610a6601528181610ac001528181610b5d015281816113bf015281816114cf015281816115020152611aa5015260e0518181816102ef01526115b8015261010051818181610634015261126301526101205181818161173b0152611f6d0152f35b600190602084519401938184015501620001e3565b60015f527fb10e2d527612073b26eecdfd717e6a320cf44b4afac2b0732d9fcbe2b7fa0cf69081019083015b818110620004175750620001d8565b5f815560010162000408565b60405162461bcd60e51b81526020600482015260076024820152660dad2dc7cdac2f60cb1b6044820152606490fd5b60405162461bcd60e51b81526020600482015260076024820152660746f6b656e20360cc1b6044820152606490fd5b60405162461bcd60e51b815260206004820152600a602482015269070726f746f636f6c20360b41b6044820152606490fd5b5f80fd5b602080809385518152019301929150620000d0565b6040519190601f01601f191682016001600160401b038111838210176200026c57604052565b51906001600160a01b0382168203620004b357565b6001600160401b0381116200026c5760051b60200190565b90929162000531620000a38562000507565b938085526020918286019160061b840193818511620004b357915b8483106200055b575050505050565b60408084840312620004b357805180820192906001600160401b038411818510176200059f576040938793528551815282860151838201528152019201916200054c565b60245f634e487b7160e01b81526041600452fd5b5f198114620005c25760010190565b634e487b7160e01b5f52601160045260245ffd5b8051821015620002585760209160051b01019056fe6080806040526004361015610012575f80fd5b5f3560e01c90816275844c146117805750806302fb0c5e1461175e578063094b81d31461172457806310390d35146116fb57806318976fa21461163257806322f3e2d4146115f8578063359cfbf7146115db57806341b3d185146115a15780635350cbd914611578578063580fc80a146112ab578063597e1fb5146112865780636083e59a1461124c578063639487f41461107b5780636a5908a0146110325780636c4470fb14610f6e578063703bafd5146101705780637c48b21c14610c645780638ce7442614610c2057806396d8ef8e1461080857806399fbab881461079d578063a0660dfa14610760578063a547afe014610734578063ac55deb6146106dd578063b1b0ebcc14610262578063b9b792cd14610245578063c122c2a114610228578063c45a0155146101e4578063cba02476146101bc578063d6887bfa1461019f578063db8d55f1146101755763fc0c546a14610170575f80fd5b611a90565b3461019b575f36600319011261019b57604061018f611e27565b82519182526020820152f35b5f80fd5b3461019b575f36600319011261019b576020600554604051908152f35b3461019b57602036600319011261019b5760206101da600435611bf9565b6040519015158152f35b3461019b575f36600319011261019b576040517f00000000000000000000000000000000000000000000000000000000000000006001600160a01b03168152602090f35b3461019b575f36600319011261019b576020600254604051908152f35b3461019b575f36600319011261019b576020600354604051908152f35b3461019b57606036600319011261019b576001600160a01b036044803582811691600435916024803592909185900361019b5761029d611cbb565b857f000000000000000000000000000000000000000000000000000000000000000016331480156106cb575b80156106a0575b6102d990611c40565b60045460ff81169081610691575b501561065b577f000000000000000000000000000000000000000000000000000000000000000084101580610631575b156105f75782156105c95761032b83611bf9565b156105915761038a90604051906323b872dd60e01b6020830152338483015230908201528460648201526064815261036281611b0c565b867f000000000000000000000000000000000000000000000000000000000000000016611d0f565b6103948243611c7c565b94604051916103a283611b0c565b858352602083019285845260408101974389526060820190815260808201985f8a5260055494600160401b958681101561057e578060016103e69201600555611ad4565b94909461056c5751845491166001600160a01b03199182161784559551600184015551600283015551600382015596516004909701805460ff1990811698151560ff169890981790556005545f1981019790881161055857865f5260066020526104538860405f20611c96565b865f52600960205260405f2090815460ff8116156104b4575b89897f9cfd25589d1eb8ad71e342a86a8524e83522e3936c0803048c08f6d9ad974f4060608b61049c8c43611c7c565b6040519182524360208301526040820152a360015f55005b16600117905560085491821015610545576001820180600855821015610532575060085f527ff3f7a9fe364faab93b216da50a3214154f22a0a2b415b23a84c8169e8b636ee3018054909116841790558161049c60607f9cfd25589d1eb8ad71e342a86a8524e83522e3936c0803048c08f6d9ad974f40888061046c565b634e487b7160e01b5f9081526032600452fd5b634e487b7160e01b5f9081526041600452fd5b50634e487b7160e01b5f9081526011600452fd5b85634e487b7160e01b5f525f6004525ffd5b85634e487b7160e01b5f5260416004525ffd5b90711c1c995cd95d081b9bdd08185b1b1bddd95960721b60649260126040519362461bcd60e51b855260206004860152840152820152fd5b90670626c6f636b733e360c41b60649260086040519362461bcd60e51b855260206004860152840152820152fd5b9073616d6f756e74206f7574206f6620626f756e647360601b60649260146040519362461bcd60e51b855260206004860152840152820152fd5b507f0000000000000000000000000000000000000000000000000000000000000000841115610317565b906f7661756c74206e6f742061637469766560801b60649260106040519362461bcd60e51b855260206004860152840152820152fd5b60ff915060081c1615876102e7565b50337f00000000000000000000000000000000000000000000000000000000000000008716146102d0565b50856106d5611b4a565b1633146102c9565b3461019b57604036600319011261019b576106f66119ac565b6001600160a01b03165f9081526007602052604090208054602435919082101561019b5760209161072691611a0b565b90546040519160031b1c8152f35b3461019b575f36600319011261019b57602061074e611b4a565b6040516001600160a01b039091168152f35b3461019b57602036600319011261019b5760043560035481101561019b57610789604091611a58565b506001815491015482519182526020820152f35b3461019b57602036600319011261019b5760043560055481101561019b576107c660a091611ad4565b50600180831b0381541690600181015490600281015460ff60046003840154930154169260405194855260208501526040840152606083015215156080820152f35b3461019b57604036600319011261019b576108216119ac565b6024356001600160a01b038116900361019b5761083c611cbb565b337f00000000000000000000000000000000000000000000000000000000000000006001600160a01b0316148015610c07575b8015610bd5575b61087f90611c40565b610887611e27565b6001600160a01b0383165f9081526006602052604081209293909291905b8254841015610bcf576108b88484611a0b565b90549060031b1c856108c982611ad4565b50600381015443109060048101549160ff81818516159182610bae575b505015610b9957918493916109f895936001809360ff1916176004830155155f14610b1b577f7b381718bec1e0dbc1241809ee9b55f3d783b95880307f002707fad981fa5069916040916024356001600160a01b03908116908a16148015610b055761096161097387945b8401549461271092839187611d69565b049761096d8987611c89565b95611d69565b045f9115610af3575b80610a99575b5080610a5d575b5080546109c59083906001600160a01b03908116907f000000000000000000000000000000000000000000000000000000000000000016611dd7565b60018060a01b039054169382519182526020820152a35b6001600160a01b0383165f908152600760205260409020611c96565b82545f198101908111610a4957610a12610a3b9185611a0b565b90549060031b1c610a238686611a0b565b90919082549060031b91821b915f19901b1916179055565b610a4483611d9a565b6108a5565b634e487b7160e01b5f52601160045260245ffd5b610a93906024357f00000000000000000000000000000000000000000000000000000000000000006001600160a01b0316611dd7565b8d610989565b610aed907f00000000000000000000000000000000000000000000000000000000000000007f00000000000000000000000000000000000000000000000000000000000000006001600160a01b0316611dd7565b8e610982565b9050610aff8187611c89565b9061097c565b610961610973610b158d89611c7c565b94610951565b9081015481549092507fbaea19541010bad0070d3e9eba7d614e4f22a90d557eb4b70272d33a32793a0791602091610b829085906001600160a01b03908116907f000000000000000000000000000000000000000000000000000000000000000016611dd7565b546040519384526001600160a01b031692a36109dc565b505050505092610ba890611beb565b926108a5565b8115925090610bc0575b50818c6108e6565b905060045460081c168b610bb8565b60015f55005b50337f00000000000000000000000000000000000000000000000000000000000000006001600160a01b031614610876565b506001600160a01b03610c18611b4a565b16331461086f565b3461019b575f36600319011261019b576040517f00000000000000000000000000000000000000000000000000000000000000006001600160a01b03168152602090f35b3461019b575f36600319011261019b5760405160e0810181811067ffffffffffffffff821117610f5a576040525f81525f60208201525f60408201525f60608201525f60808201525f60a08201525f60c08201525f905f915f906040519384856020600854928381520160085f527ff3f7a9fe364faab93b216da50a3214154f22a0a2b415b23a84c8169e8b636ee3925f5b818110610f38575050610d0b92500386611b28565b5f5b8551811015610eba576001600160a01b03610d288288611f0c565b51166040516318e521fd60e21b8152816004820152602081602481305afa5f9181610e86575b50610e6d575b505f52600660205260405f20600760205260405f20908054610d7a8160208a0151611c7c565b6020890152825491610d908360408b0151611c7c565b60408a01525f915b808310610e1b575050505f915b818310610dbd57505050610db890611beb565b610d0d565b90919594610e0e610e0e610e1492610e08610df7610dea610dde8d89611a0b565b90549060031b1c611ad4565b509960018b015490611c7c565b986002600382015491015490611c89565b90611c7c565b96611beb565b9190610da5565b90919796610e5d610e5d610e6392610e08610e4c610e3f610dde8f8a9c9b9c611a0b565b509b60018d015490611c7c565b9a6002600382015491015490611c89565b98611beb565b9190939293610d98565b610e7b9060c0880151611c7c565b60c087015287610d54565b9091506020813d602011610eb2575b81610ea260209383611b28565b8101031261019b57519089610d4e565b3d9150610e95565b5060c08460e093858060a084015280610f14575b50508281526040519283526020810151602084015260408101516040840152606081015160608401526080810151608084015260a081015160a0840152015160c0820152f35b610f2181610f2c93611d7c565b606084015284611d7c565b60808201528480610ece565b84546001600160a01b031683526001948501948a945060209093019201610cf6565b634e487b7160e01b5f52604160045260245ffd5b3461019b575f36600319011261019b57604051806008548083526020809301809160085f527ff3f7a9fe364faab93b216da50a3214154f22a0a2b415b23a84c8169e8b636ee3905f5b86828210611015578686610fcd82880383611b28565b60405192839281840190828552518091526040840192915f5b828110610ff557505050500390f35b83516001600160a01b031685528695509381019392810192600101610fe6565b83546001600160a01b031685529093019260019283019201610fb7565b3461019b57604036600319011261019b5761104b6119ac565b6001600160a01b03165f9081526006602052604090208054602435919082101561019b5760209161072691611a0b565b3461019b5760208060031936011261019b576110956119ac565b6001600160a01b03165f818152600683526040808220905181548082529183528483209094929391859081850190865b86828210611236575050506110dc92500385611b28565b5f526007815260405f20916040518084848296549384815201905f52845f20925f5b868282106112205750505061111592500384611b28565b5f905b84518210156111ae5761113d6111376111318488611f0c565b51611ad4565b50611f20565b606081018481514381115f146111a95750435b604084019081519081811115611199579261118561118d969361117b611193999794610e0897611c89565b9351905190611c89565b920151611f6a565b91611beb565b90611118565b5050505050509061119390611beb565b611150565b5f9291505b8351831015611218576111cc6111376111318587611f0c565b60608101516040820151908181111561120b57846111ff936111f56112059694610e0894611c89565b9182910151611f6a565b92611beb565b916111b3565b5050509161120590611beb565b604051908152f35b85548452600195860195899550930192016110fe565b855484526001958601958a9550930192016110c5565b3461019b575f36600319011261019b5760206040517f00000000000000000000000000000000000000000000000000000000000000008152f35b3461019b575f36600319011261019b57602060ff60045460081c166040519015158152f35b3461019b57602036600319011261019b576112c46119ac565b6112cc611cbb565b6001600160a01b037f000000000000000000000000000000000000000000000000000000000000000033828216148015611566575b801561153b575b61131190611c40565b61132461131c611e27565b819291611c7c565b905f5b600554811015610bcf5761133a81611ad4565b5060048101805460ff8116158061152d575b611362575b50505061135d90611beb565b611327565b9060018895979498939260ff9a979a19161790556001810154876127108061138a8c85611d69565b049061139a8a61096d8487611c89565b046113a58183611c89565b90806114fa575b50806114c7575b506113e48386865416877f000000000000000000000000000000000000000000000000000000000000000016611dd7565b7f7b381718bec1e0dbc1241809ee9b55f3d783b95880307f002707fad981fa506960408686541694859382519182526020820152a35f52600760205261142d8760405f20611c96565b54165f52600660205260405f20955f5b8754808210156114b65787611452838b611a0b565b919054600392831b1c1461147057505061146b90611beb565b61143d565b5f99919294979598939699198301928311610a495761135d94610a236114a99261149d6114ae9686611a0b565b9054911b1c9184611a0b565b611d9a565b908780611351565b505092955092909361135d906114ae565b6114f49089877f000000000000000000000000000000000000000000000000000000000000000016611dd7565b8b6113b3565b6115279088887f000000000000000000000000000000000000000000000000000000000000000016611dd7565b8c6113ac565b50600383015443101561134c565b50337f0000000000000000000000000000000000000000000000000000000000000000831614611308565b5081611570611b4a565b163314611301565b3461019b57602036600319011261019b5760043560025481101561019b57610789604091611a20565b3461019b575f36600319011261019b5760206040517f00000000000000000000000000000000000000000000000000000000000000008152f35b3461019b575f36600319011261019b576020600154604051908152f35b3461019b575f36600319011261019b57602060045460ff81169081611623575b506040519015158152f35b60ff915060081c161582611618565b3461019b575f36600319011261019b5761168660018060a01b03807f00000000000000000000000000000000000000000000000000000000000000001633149081156116e7575b81156116bb575b50611c40565b61010061ffff1960045416176004557fdf23397ab444d891935a0b305b1552fb235d2bd07043ffc42c6ed3f43a4d83525f80a1005b90507f000000000000000000000000000000000000000000000000000000000000000016331482611680565b8091506116f2611b4a565b16331490611679565b3461019b57602036600319011261019b5760043560015481101561019b576107266020916119c2565b3461019b575f36600319011261019b5760206040517f00000000000000000000000000000000000000000000000000000000000000008152f35b3461019b575f36600319011261019b57602060ff600454166040519015158152f35b3461019b5760208060031936011261019b576001600160a01b0390816117a46119ac565b16805f526006825260405f2084815491828252848201905f52845f20925f5b86828210611996575050506117da92500385611b28565b5f526007815260405f20906040518083838295549384815201905f52835f20925f5b858282106119805750505061181392500383611b28565b6118208451835190611c7c565b9161182a836120a6565b926118386040519485611b28565b808452611847601f19916120a6565b01825f5b82811061194c575050505f5b8551811015611894578061187461113761113161188f948a611f0c565b61187e8287611f0c565b526118898186611f0c565b50611beb565b611857565b5090925f5b82518110156118e157806118896118b66111316118dc9487611f0c565b506118cb6118c5848b51611c7c565b91611f20565b6118d58289611f0c565b5286611f0c565b611899565b50838360405191808301818452825180915281604085019301915f5b82811061190a5785850386f35b83518051881686528083015186840152604080820151908701526060808201519087015260809081015115159086015260a090940193928101926001016118fd565b60405161195881611b0c565b5f81525f838201525f60408201525f60608201525f608082015282828801015201839061184b565b85548452600195860195889550930192016117fc565b855484526001958601958a9550930192016117c3565b600435906001600160a01b038216820361019b57565b6001548110156119f75760015f527fb10e2d527612073b26eecdfd717e6a320cf44b4afac2b0732d9fcbe2b7fa0cf601905f90565b634e487b7160e01b5f52603260045260245ffd5b80548210156119f7575f5260205f2001905f90565b6002548110156119f75760025f5260011b7f405787fa12a823e0f2b7631cc41b3ba8828b3321ca811111fa75cd3aa3bb5ace01905f90565b6003548110156119f75760035f5260011b7fc2575a0e9e593c00f959f8c92f12db2869c3395a3b0502d05e2516446f71f85b01905f90565b3461019b575f36600319011261019b576040517f00000000000000000000000000000000000000000000000000000000000000006001600160a01b03168152602090f35b6005548110156119f757600590815f52027f036b6384b5eca791c62761152d0c79bb0604c104a5fb6f4eb0703f3154bb3db001905f90565b60a0810190811067ffffffffffffffff821117610f5a57604052565b90601f8019910116810190811067ffffffffffffffff821117610f5a57604052565b604051637cc7003560e11b81526001600160a01b03906020816004817f000000000000000000000000000000000000000000000000000000000000000086165afa908115611be0575f91611b9f575b50905090565b6020813d8211611bd8575b81611bb760209383611b28565b81010312611bd457519182168203611bd15750805f611b99565b80fd5b5080fd5b3d9150611baa565b6040513d5f823e3d90fd5b5f198114610a495760010190565b60018054918215611b99575f5b838110611c1557505050505f90565b81611c1f826119c2565b90549060031b1c14611c3957611c3490611beb565b611c06565b5050905090565b15611c4757565b60405162461bcd60e51b815260206004820152600d60248201526c1bdb9b1e481c1c9bdd1bd8dbdb609a1b6044820152606490fd5b91908201809211610a4957565b91908203918211610a4957565b90815491600160401b831015610f5a5782610a23916001611cb995018155611a0b565b565b60025f5414611cca5760025f55565b60405162461bcd60e51b815260206004820152601f60248201527f5265656e7472616e637947756172643a207265656e7472616e742063616c6c006044820152606490fd5b905f602091828151910182855af115611be0575f513d611d6057506001600160a01b0381163b155b611d3e5750565b604051635274afe760e01b81526001600160a01b039091166004820152602490fd5b60011415611d37565b81810292918115918404141715610a4957565b8115611d86570490565b634e487b7160e01b5f52601260045260245ffd5b8054908115611dc3575f1991820191611db38383611a0b565b909182549160031b1b1916905555565b634e487b7160e01b5f52603160045260245ffd5b60405163a9059cbb60e01b60208201526001600160a01b039092166024830152604480830193909352918152608081019167ffffffffffffffff831182841017610f5a57611cb992604052611d0f565b6040516318bf741760e31b8152602091907f00000000000000000000000000000000000000000000000000000000000000006001600160a01b0316908381600481855afa918215611be05784915f93611ed9575b5060405163f25e78b160e01b81529190829060049082905afa938415611be0575f94611ea8575b50509190565b8181959293953d8311611ed2575b611ec08183611b28565b81010312611bd1575051915f80611ea2565b503d611eb6565b9182819492943d8311611f05575b611ef18183611b28565b81010312611bd15750519083906004611e7b565b503d611ee7565b80518210156119f75760209160051b010190565b90604051611f2d81611b0c565b82546001600160a01b0316815260018301546020820152600283015460408201526003830154606082015260049092015460ff1615156080830152565b907f00000000000000000000000000000000000000000000000000000000000000005f80821261206a5750611fa2611fa79284611d69565b611d69565b90915b612710905f600254915b828210612029575b505050612710905f600354945b858210611ff2575b50506127109350611fe7611fee93928592611d69565b0490611d69565b0490565b9092611ffd84611a58565b50548210612023575061201d600161201485611a58565b50015493611beb565b90611fc9565b92611fd1565b909194939261203783611a20565b505482106120625750612057600161204e84611a20565b50015492611beb565b909491929394611fb4565b929394611fbc565b600160ff1b82146120925761208b929161208691039184611d69565b611d7c565b9091611faa565b634e487b7160e01b81526011600452602490fd5b67ffffffffffffffff8111610f5a5760051b6020019056fea26469706673582212202cadfce7666079ed219de929be9ff7bd2dd327ab52c1709a5135bde21594b8c764736f6c63430008140033a26469706673582212208d3d62646a8546c8eb682f1ec4e37b1e464eb2f82bd1b90bff370eed6ce6272664736f6c63430008140033",
			"opcodes": "PUSH1 0x80 CALLVALUE PUSH2 0xC8 JUMPI PUSH1 0x1F PUSH2 0x36B3 CODESIZE DUP2 SWAP1 SUB SWAP2 DUP3 ADD PUSH1 0x1F NOT AND DUP4 ADD SWAP2 PUSH1 0x1 PUSH1 0x1 PUSH1 0x40 SHL SUB DUP4 GT DUP5 DUP5 LT OR PUSH2 0xCC JUMPI DUP1 DUP5 SWAP3 PUSH1 0x20 SWAP5 PUSH1 0x40 MSTORE DUP4 CODECOPY DUP2 ADD SUB SLT PUSH2 0xC8 JUMPI MLOAD PUSH1 0x1 PUSH1 0x1 PUSH1 0xA0 SHL SUB DUP2 AND SWAP1 DUP2 SWAP1 SUB PUSH2 0xC8 JUMPI PUSH1 0x32 PUSH1 0x3 SSTORE PUSH1 0x19 PUSH1 0x4 SSTORE DUP1 ISZERO PUSH2 0x83 JUMPI PUSH0 DUP1 SLOAD PUSH1 0x1 PUSH1 0x1 PUSH1 0xA0 SHL SUB NOT AND SWAP2 SWAP1 SWAP2 OR SWAP1 SSTORE PUSH1 0x40 MLOAD PUSH2 0x35D2 SWAP1 DUP2 PUSH2 0xE1 DUP3 CODECOPY RETURN JUMPDEST PUSH1 0x40 MLOAD PUSH3 0x461BCD PUSH1 0xE5 SHL DUP2 MSTORE PUSH1 0x20 PUSH1 0x4 DUP3 ADD MSTORE PUSH1 0x18 PUSH1 0x24 DUP3 ADD MSTORE PUSH32 0x696E76616C69642070726F746F636F6C20616464726573730000000000000000 PUSH1 0x44 DUP3 ADD MSTORE PUSH1 0x64 SWAP1 REVERT JUMPDEST PUSH0 DUP1 REVERT JUMPDEST PUSH4 0x4E487B71 PUSH1 0xE0 SHL PUSH0 MSTORE PUSH1 0x41 PUSH1 0x4 MSTORE PUSH1 0x24 PUSH0 REVERT INVALID PUSH1 0x80 PUSH1 0x40 MSTORE PUSH1 0x4 CALLDATASIZE LT ISZERO PUSH3 0x12 JUMPI PUSH0 DUP1 REVERT JUMPDEST PUSH0 DUP1 CALLDATALOAD PUSH1 0xE0 SHR DUP1 PUSH4 0xB78F9C0 EQ PUSH3 0xB29 JUMPI DUP1 PUSH4 0xE5DEE45 EQ PUSH3 0xB08 JUMPI DUP1 PUSH4 0x8CE74426 EQ PUSH3 0xADF JUMPI DUP1 PUSH4 0x9094A91E EQ PUSH3 0xA96 JUMPI DUP1 PUSH4 0x97331BF9 EQ PUSH3 0x9FF JUMPI DUP1 PUSH4 0xA444477B EQ PUSH3 0x3D3 JUMPI DUP1 PUSH4 0xB1E3A941 EQ PUSH3 0x393 JUMPI DUP1 PUSH4 0xC5C2853D EQ PUSH3 0x30F JUMPI DUP1 PUSH4 0xC5FBA0B8 EQ PUSH3 0x2EF JUMPI DUP1 PUSH4 0xC99CB2B7 EQ PUSH3 0xF8 JUMPI DUP1 PUSH4 0xF25E78B1 EQ PUSH3 0xD8 JUMPI PUSH4 0xF98E006A EQ PUSH3 0xAB JUMPI PUSH0 DUP1 REVERT JUMPDEST CALLVALUE PUSH3 0xD5 JUMPI DUP1 PUSH1 0x3 NOT CALLDATASIZE ADD SLT PUSH3 0xD5 JUMPI PUSH1 0x1 SLOAD PUSH1 0x40 MLOAD PUSH1 0x1 PUSH1 0x1 PUSH1 0xA0 SHL SUB SWAP1 SWAP2 AND DUP2 MSTORE PUSH1 0x20 SWAP1 RETURN JUMPDEST DUP1 REVERT JUMPDEST POP CALLVALUE PUSH3 0xD5 JUMPI DUP1 PUSH1 0x3 NOT CALLDATASIZE ADD SLT PUSH3 0xD5 JUMPI PUSH1 0x20 PUSH1 0x4 SLOAD PUSH1 0x40 MLOAD SWAP1 DUP2 MSTORE RETURN JUMPDEST POP CALLVALUE PUSH3 0xD5 JUMPI PUSH1 0x20 DUP1 PUSH1 0x3 NOT CALLDATASIZE ADD SLT PUSH3 0x2EB JUMPI PUSH3 0x117 PUSH3 0xC6A JUMP JUMPDEST DUP3 SLOAD PUSH1 0x1 PUSH1 0x1 PUSH1 0xA0 SHL SUB SWAP2 DUP3 SWAP2 DUP3 AND CALLER EQ DUP1 ISZERO PUSH3 0x2DD JUMPI JUMPDEST PUSH3 0x13B SWAP1 PUSH3 0xCB5 JUMP JUMPDEST AND SWAP2 DUP3 ISZERO PUSH3 0x2AF JUMPI PUSH1 0x40 MLOAD PUSH4 0x7E062A35 PUSH1 0xE1 SHL DUP1 DUP3 MSTORE SWAP2 SWAP1 DUP2 DUP2 PUSH1 0x4 DUP2 DUP9 GAS STATICCALL DUP1 ISZERO PUSH3 0x27E JUMPI PUSH3 0x28D JUMPI JUMPDEST POP DUP4 EXTCODESIZE ISZERO PUSH3 0x289 JUMPI PUSH1 0x40 MLOAD PUSH4 0xC4BB7D1 PUSH1 0xE1 SHL DUP2 MSTORE DUP6 DUP2 PUSH1 0x4 DUP2 DUP4 DUP10 GAS CALL DUP1 ISZERO PUSH3 0x27E JUMPI PUSH3 0x24C JUMPI JUMPDEST POP PUSH1 0x40 MLOAD SWAP2 DUP3 MSTORE DUP1 DUP3 PUSH1 0x4 DUP2 DUP8 GAS STATICCALL SWAP2 DUP3 ISZERO PUSH3 0x241 JUMPI PUSH1 0x5 SWAP3 DUP5 SWAP2 DUP8 SWAP2 PUSH3 0x20D JUMPI JUMPDEST POP AND DUP6 MSTORE MSTORE PUSH1 0x40 DUP4 KECCAK256 SWAP1 DUP3 DUP3 SLOAD SWAP2 DUP3 AND EQ PUSH3 0x1F9 JUMPI JUMPDEST POP POP PUSH32 0x56E87D53B3DF539E22B78C93F5852467C09176615A569A3052D9B4B954612A6D DUP3 DUP1 LOG2 DUP1 RETURN JUMPDEST PUSH1 0x1 PUSH1 0x1 PUSH1 0xA0 SHL SUB NOT AND SWAP1 SSTORE PUSH0 DUP1 PUSH3 0x1D0 JUMP JUMPDEST PUSH3 0x232 SWAP2 POP DUP4 RETURNDATASIZE DUP6 GT PUSH3 0x239 JUMPI JUMPDEST PUSH3 0x229 DUP2 DUP4 PUSH3 0xD4E JUMP JUMPDEST DUP2 ADD SWAP1 PUSH3 0xDCD JUMP JUMPDEST PUSH0 PUSH3 0x1B9 JUMP JUMPDEST POP RETURNDATASIZE PUSH3 0x21D JUMP JUMPDEST PUSH1 0x40 MLOAD RETURNDATASIZE DUP8 DUP3 RETURNDATACOPY RETURNDATASIZE SWAP1 REVERT JUMPDEST PUSH8 0xFFFFFFFFFFFFFFFF DUP2 SWAP7 SWAP3 SWAP7 GT PUSH3 0x26A JUMPI PUSH1 0x40 MSTORE SWAP4 PUSH0 PUSH3 0x195 JUMP JUMPDEST PUSH4 0x4E487B71 PUSH1 0xE0 SHL DUP3 MSTORE PUSH1 0x41 PUSH1 0x4 MSTORE PUSH1 0x24 DUP3 REVERT JUMPDEST PUSH1 0x40 MLOAD RETURNDATASIZE DUP9 DUP3 RETURNDATACOPY RETURNDATASIZE SWAP1 REVERT JUMPDEST DUP5 DUP1 REVERT JUMPDEST PUSH3 0x2A7 SWAP1 DUP3 RETURNDATASIZE DUP5 GT PUSH3 0x239 JUMPI PUSH3 0x229 DUP2 DUP4 PUSH3 0xD4E JUMP JUMPDEST POP PUSH0 PUSH3 0x169 JUMP JUMPDEST PUSH1 0x64 SWAP1 PUSH1 0x40 MLOAD SWAP1 PUSH3 0x461BCD PUSH1 0xE5 SHL DUP3 MSTORE PUSH1 0x4 DUP3 ADD MSTORE PUSH1 0x7 PUSH1 0x24 DUP3 ADD MSTORE PUSH7 0x7661756C74203 PUSH1 0xCC SHL PUSH1 0x44 DUP3 ADD MSTORE REVERT JUMPDEST POP PUSH1 0x1 SLOAD DUP3 AND CALLER EQ PUSH3 0x130 JUMP JUMPDEST POP DUP1 REVERT JUMPDEST POP CALLVALUE PUSH3 0xD5 JUMPI DUP1 PUSH1 0x3 NOT CALLDATASIZE ADD SLT PUSH3 0xD5 JUMPI PUSH1 0x20 PUSH1 0x3 SLOAD PUSH1 0x40 MLOAD SWAP1 DUP2 MSTORE RETURN JUMPDEST POP CALLVALUE PUSH3 0xD5 JUMPI PUSH1 0x20 CALLDATASIZE PUSH1 0x3 NOT ADD SLT PUSH3 0xD5 JUMPI PUSH3 0x32D PUSH3 0xC6A JUMP JUMPDEST DUP2 SLOAD PUSH1 0x1 PUSH1 0x1 PUSH1 0xA0 SHL SUB SWAP2 SWAP1 DUP3 AND CALLER SUB PUSH3 0x35E JUMPI AND PUSH12 0xFFFFFFFFFFFFFFFFFFFFFFFF PUSH1 0xA0 SHL PUSH1 0x1 SLOAD AND OR PUSH1 0x1 SSTORE DUP1 RETURN JUMPDEST PUSH1 0x40 MLOAD PUSH3 0x461BCD PUSH1 0xE5 SHL DUP2 MSTORE PUSH1 0x20 PUSH1 0x4 DUP3 ADD MSTORE PUSH1 0xD PUSH1 0x24 DUP3 ADD MSTORE PUSH13 0x1BDB9B1E481C1C9BDD1BD8DBDB PUSH1 0x9A SHL PUSH1 0x44 DUP3 ADD MSTORE PUSH1 0x64 SWAP1 REVERT JUMPDEST POP CALLVALUE PUSH3 0xD5 JUMPI PUSH1 0x20 CALLDATASIZE PUSH1 0x3 NOT ADD SLT PUSH3 0xD5 JUMPI PUSH1 0x20 SWAP1 PUSH1 0x1 PUSH1 0x1 PUSH1 0xA0 SHL SUB SWAP1 PUSH1 0x40 SWAP1 DUP3 PUSH3 0x3C1 PUSH3 0xC6A JUMP JUMPDEST AND DUP2 MSTORE PUSH1 0x5 DUP5 MSTORE KECCAK256 SLOAD AND PUSH1 0x40 MLOAD SWAP1 DUP2 MSTORE RETURN JUMPDEST POP CALLVALUE PUSH3 0xD5 JUMPI PUSH1 0xE0 CALLDATASIZE PUSH1 0x3 NOT ADD SLT PUSH3 0xD5 JUMPI PUSH3 0x3F1 PUSH3 0xC6A JUMP JUMPDEST PUSH8 0xFFFFFFFFFFFFFFFF PUSH1 0x84 CALLDATALOAD GT PUSH3 0x2EB JUMPI CALLDATASIZE PUSH1 0x23 PUSH1 0x84 CALLDATALOAD ADD SLT ISZERO PUSH3 0x2EB JUMPI PUSH8 0xFFFFFFFFFFFFFFFF PUSH1 0x84 CALLDATALOAD PUSH1 0x4 ADD CALLDATALOAD GT PUSH3 0x2EB JUMPI CALLDATASIZE PUSH1 0x24 PUSH1 0x84 CALLDATALOAD PUSH1 0x4 ADD CALLDATALOAD PUSH1 0x5 SHL PUSH1 0x84 CALLDATALOAD ADD ADD GT PUSH3 0x2EB JUMPI PUSH1 0xA4 CALLDATALOAD PUSH8 0xFFFFFFFFFFFFFFFF DUP2 GT PUSH3 0x9FB JUMPI PUSH3 0x462 SWAP1 CALLDATASIZE SWAP1 PUSH1 0x4 ADD PUSH3 0xC81 JUMP JUMPDEST SWAP1 PUSH1 0xC4 CALLDATALOAD PUSH8 0xFFFFFFFFFFFFFFFF DUP2 GT PUSH3 0x289 JUMPI PUSH3 0x486 SWAP1 CALLDATASIZE SWAP1 PUSH1 0x4 ADD PUSH3 0xC81 JUMP JUMPDEST DUP6 SLOAD PUSH1 0x1 PUSH1 0x1 PUSH1 0xA0 SHL SUB AND SWAP4 SWAP2 SWAP3 SWAP2 CALLER DUP6 EQ DUP1 ISZERO PUSH3 0x9E6 JUMPI JUMPDEST PUSH3 0x4AB SWAP1 PUSH3 0xCB5 JUMP JUMPDEST PUSH1 0x1 PUSH1 0x1 PUSH1 0xA0 SHL SUB DUP7 AND ISZERO PUSH3 0x9B7 JUMPI PUSH1 0x1 PUSH1 0x1 PUSH1 0xA0 SHL SUB DUP7 DUP2 AND DUP9 MSTORE PUSH1 0x5 PUSH1 0x20 MSTORE PUSH1 0x40 DUP9 KECCAK256 SLOAD AND PUSH3 0x97C JUMPI PUSH3 0x4E3 DUP2 PUSH3 0xD71 JUMP JUMPDEST SWAP3 PUSH3 0x4F3 PUSH1 0x40 MLOAD SWAP5 DUP6 PUSH3 0xD4E JUMP JUMPDEST DUP2 DUP5 MSTORE PUSH3 0x501 DUP3 PUSH3 0xD71 JUMP JUMPDEST DUP9 JUMPDEST PUSH1 0x1F NOT DUP3 ADD DUP2 LT PUSH3 0x956 JUMPI POP POP DUP8 JUMPDEST DUP3 DUP2 LT PUSH3 0x8B0 JUMPI POP POP POP PUSH3 0x529 DUP2 PUSH3 0xD71 JUMP JUMPDEST SWAP3 PUSH3 0x539 PUSH1 0x40 MLOAD SWAP5 DUP6 PUSH3 0xD4E JUMP JUMPDEST DUP2 DUP5 MSTORE PUSH3 0x547 DUP3 PUSH3 0xD71 JUMP JUMPDEST DUP8 JUMPDEST PUSH1 0x1F NOT DUP3 ADD DUP2 LT PUSH3 0x88A JUMPI POP POP DUP7 JUMPDEST DUP3 DUP2 LT PUSH3 0x79D JUMPI POP POP PUSH1 0x40 MLOAD SWAP4 PUSH2 0x26E0 DUP1 DUP7 ADD SWAP3 POP PUSH8 0xFFFFFFFFFFFFFFFF DUP4 GT DUP7 DUP5 LT OR PUSH3 0x789 JUMPI PUSH3 0xEBD DUP7 CODECOPY DUP2 MSTORE PUSH1 0x1 PUSH1 0x1 PUSH1 0xA0 SHL SUB DUP6 AND PUSH1 0x20 DUP3 ADD MSTORE ADDRESS PUSH1 0x40 DUP3 ADD MSTORE PUSH1 0x24 CALLDATALOAD PUSH1 0x60 DUP3 ADD MSTORE PUSH1 0x44 CALLDATALOAD PUSH1 0x80 DUP3 ADD MSTORE PUSH1 0x64 CALLDATALOAD PUSH1 0xA0 DUP3 ADD MSTORE PUSH2 0x120 PUSH1 0xC0 DUP3 ADD DUP2 SWAP1 MSTORE PUSH1 0x4 PUSH1 0x84 CALLDATALOAD ADD CALLDATALOAD SWAP1 DUP3 ADD DUP2 SWAP1 MSTORE PUSH1 0x1 PUSH1 0x1 PUSH1 0xFB SHL SUB LT PUSH3 0x785 JUMPI SWAP1 DUP4 SWAP3 SWAP2 PUSH2 0x140 PUSH1 0x84 CALLDATALOAD PUSH1 0x4 ADD CALLDATALOAD PUSH1 0x5 SHL PUSH1 0x24 PUSH1 0x84 CALLDATALOAD ADD DUP3 DUP5 ADD CALLDATACOPY PUSH1 0x20 PUSH2 0x160 PUSH1 0x84 CALLDATALOAD PUSH1 0x4 ADD CALLDATALOAD PUSH1 0x5 SHL DUP5 ADD DUP4 DUP2 ADD SWAP4 DUP6 DUP3 SUB ADD PUSH1 0xE0 DUP7 ADD MSTORE DUP6 MLOAD DUP1 SWAP5 MSTORE ADD SWAP4 ADD SWAP1 DUP9 JUMPDEST DUP2 DUP2 LT PUSH3 0x74F JUMPI POP POP POP PUSH2 0x100 DUP2 DUP4 SUB SWAP2 ADD MSTORE PUSH1 0x20 DUP1 DUP4 MLOAD SWAP3 DUP4 DUP2 MSTORE ADD SWAP3 ADD SWAP1 DUP7 JUMPDEST DUP2 DUP2 LT PUSH3 0x71D JUMPI POP POP POP SUB SWAP1 DUP4 CREATE DUP1 ISZERO PUSH3 0x712 JUMPI PUSH1 0x1 DUP1 PUSH1 0xA0 SHL SUB AND SWAP1 PUSH1 0x2 SLOAD PUSH9 0x10000000000000000 DUP2 LT ISZERO PUSH3 0x6FE JUMPI PUSH1 0x20 SWAP4 PUSH3 0x68F DUP3 PUSH1 0x1 PUSH1 0x40 SWAP5 ADD PUSH1 0x2 SSTORE PUSH3 0xC20 JUMP JUMPDEST DUP2 SLOAD PUSH1 0x1 PUSH1 0x1 PUSH1 0xA0 SHL SUB PUSH1 0x3 SWAP3 SWAP1 SWAP3 SHL DUP3 DUP2 SHL NOT SWAP1 SWAP2 AND SWAP1 DUP8 SWAP1 SHL OR SWAP1 SWAP2 SSTORE SWAP3 SWAP1 SWAP3 AND DUP1 DUP4 MSTORE PUSH1 0x5 DUP6 MSTORE SWAP2 KECCAK256 DUP1 SLOAD PUSH1 0x1 PUSH1 0x1 PUSH1 0xA0 SHL SUB NOT AND DUP4 OR SWAP1 SSTORE PUSH1 0x40 MLOAD DUP3 DUP2 MSTORE PUSH32 0x5D9C31FFA0FECFFD7CF379989A3C7AF252F0335E0D2A1320B55245912C781F53 SWAP1 DUP5 SWAP1 LOG2 PUSH1 0x40 MLOAD SWAP1 DUP2 MSTORE RETURN JUMPDEST PUSH4 0x4E487B71 PUSH1 0xE0 SHL DUP5 MSTORE PUSH1 0x41 PUSH1 0x4 MSTORE PUSH1 0x24 DUP5 REVERT JUMPDEST PUSH1 0x40 MLOAD RETURNDATASIZE DUP5 DUP3 RETURNDATACOPY RETURNDATASIZE SWAP1 REVERT JUMPDEST SWAP2 SWAP4 POP SWAP2 PUSH1 0x20 PUSH3 0x741 PUSH1 0x1 SWAP3 DUP7 MLOAD SWAP1 PUSH1 0x20 PUSH1 0x40 SWAP3 DUP1 MLOAD DUP4 MSTORE ADD MLOAD PUSH1 0x20 DUP3 ADD MSTORE ADD SWAP1 JUMP JUMPDEST SWAP5 ADD SWAP2 ADD SWAP2 DUP5 SWAP4 SWAP3 PUSH3 0x644 JUMP JUMPDEST SWAP2 SWAP5 SWAP6 POP SWAP2 SWAP3 PUSH1 0x20 PUSH3 0x775 PUSH1 0x1 SWAP3 DUP8 MLOAD SWAP1 PUSH1 0x20 PUSH1 0x40 SWAP3 DUP1 MLOAD DUP4 MSTORE ADD MLOAD PUSH1 0x20 DUP3 ADD MSTORE ADD SWAP1 JUMP JUMPDEST SWAP6 ADD SWAP2 ADD SWAP2 DUP7 SWAP6 SWAP5 SWAP4 SWAP3 PUSH3 0x621 JUMP JUMPDEST DUP6 DUP1 REVERT JUMPDEST PUSH4 0x4E487B71 PUSH1 0xE0 SHL DUP9 MSTORE PUSH1 0x41 PUSH1 0x4 MSTORE PUSH1 0x24 DUP9 REVERT JUMPDEST DUP1 PUSH3 0x804 JUMPI JUMPDEST DUP1 PUSH3 0x7B6 PUSH3 0x7FE SWAP3 DUP6 DUP6 PUSH3 0xD99 JUMP JUMPDEST CALLDATALOAD PUSH1 0x20 PUSH3 0x7C6 DUP4 DUP8 DUP8 PUSH3 0xD99 JUMP JUMPDEST ADD CALLDATALOAD PUSH1 0x40 MLOAD SWAP2 PUSH3 0x7D7 DUP4 PUSH3 0xD1D JUMP JUMPDEST DUP3 MSTORE PUSH1 0x20 DUP3 ADD MSTORE PUSH3 0x7EA DUP3 DUP9 PUSH3 0xDB8 JUMP JUMPDEST MSTORE PUSH3 0x7F7 DUP2 DUP8 PUSH3 0xDB8 JUMP JUMPDEST POP PUSH3 0xD8A JUMP JUMPDEST PUSH3 0x559 JUMP JUMPDEST PUSH3 0x811 DUP2 DUP5 DUP5 PUSH3 0xD99 JUMP JUMPDEST CALLDATALOAD PUSH0 NOT DUP3 ADD DUP3 DUP2 GT PUSH3 0x876 JUMPI PUSH3 0x82B SWAP1 DUP6 DUP6 PUSH3 0xD99 JUMP JUMPDEST CALLDATALOAD LT PUSH3 0x7A4 JUMPI PUSH1 0x64 PUSH1 0x40 MLOAD PUSH3 0x461BCD PUSH1 0xE5 SHL DUP2 MSTORE PUSH1 0x20 PUSH1 0x4 DUP3 ADD MSTORE PUSH1 0x20 PUSH1 0x24 DUP3 ADD MSTORE PUSH32 0x416D6F756E74206D756C7469706C69657273206E6F7420617363656E64696E67 PUSH1 0x44 DUP3 ADD MSTORE REVERT JUMPDEST PUSH4 0x4E487B71 PUSH1 0xE0 SHL DUP11 MSTORE PUSH1 0x11 PUSH1 0x4 MSTORE PUSH1 0x24 DUP11 REVERT JUMPDEST PUSH1 0x20 SWAP1 PUSH1 0x40 MLOAD PUSH3 0x89B DUP2 PUSH3 0xD1D JUMP JUMPDEST DUP11 DUP2 MSTORE DUP11 DUP4 DUP3 ADD MSTORE DUP3 DUP3 DUP10 ADD ADD MSTORE ADD PUSH3 0x549 JUMP JUMPDEST DUP1 PUSH3 0x8CF JUMPI JUMPDEST DUP1 PUSH3 0x7B6 PUSH3 0x8C9 SWAP3 DUP6 DUP6 PUSH3 0xD99 JUMP JUMPDEST PUSH3 0x513 JUMP JUMPDEST PUSH3 0x8DC DUP2 DUP5 DUP5 PUSH3 0xD99 JUMP JUMPDEST CALLDATALOAD PUSH0 NOT DUP3 ADD DUP3 DUP2 GT PUSH3 0x942 JUMPI PUSH3 0x8F6 SWAP1 DUP6 DUP6 PUSH3 0xD99 JUMP JUMPDEST CALLDATALOAD LT PUSH3 0x8B7 JUMPI PUSH1 0x40 MLOAD PUSH3 0x461BCD PUSH1 0xE5 SHL DUP2 MSTORE PUSH1 0x20 PUSH1 0x4 DUP3 ADD MSTORE PUSH1 0x1E PUSH1 0x24 DUP3 ADD MSTORE PUSH32 0x54696D65206D756C7469706C69657273206E6F7420617363656E64696E670000 PUSH1 0x44 DUP3 ADD MSTORE PUSH1 0x64 SWAP1 REVERT JUMPDEST PUSH4 0x4E487B71 PUSH1 0xE0 SHL DUP12 MSTORE PUSH1 0x11 PUSH1 0x4 MSTORE PUSH1 0x24 DUP12 REVERT JUMPDEST PUSH1 0x20 SWAP1 PUSH1 0x40 MLOAD PUSH3 0x967 DUP2 PUSH3 0xD1D JUMP JUMPDEST DUP12 DUP2 MSTORE DUP12 DUP4 DUP3 ADD MSTORE DUP3 DUP3 DUP10 ADD ADD MSTORE ADD PUSH3 0x503 JUMP JUMPDEST PUSH1 0x40 MLOAD PUSH3 0x461BCD PUSH1 0xE5 SHL DUP2 MSTORE PUSH1 0x20 PUSH1 0x4 DUP3 ADD MSTORE PUSH1 0x13 PUSH1 0x24 DUP3 ADD MSTORE PUSH19 0x616374697665207661756C7420657869737473 PUSH1 0x68 SHL PUSH1 0x44 DUP3 ADD MSTORE PUSH1 0x64 SWAP1 REVERT JUMPDEST PUSH1 0x40 MLOAD PUSH3 0x461BCD PUSH1 0xE5 SHL DUP2 MSTORE PUSH1 0x20 PUSH1 0x4 DUP3 ADD MSTORE PUSH1 0x7 PUSH1 0x24 DUP3 ADD MSTORE PUSH7 0x746F6B656E203 PUSH1 0xCC SHL PUSH1 0x44 DUP3 ADD MSTORE PUSH1 0x64 SWAP1 REVERT JUMPDEST POP PUSH1 0x1 SLOAD PUSH1 0x1 PUSH1 0x1 PUSH1 0xA0 SHL SUB AND CALLER EQ PUSH3 0x4A0 JUMP JUMPDEST DUP3 DUP1 REVERT JUMPDEST POP CALLVALUE PUSH3 0xD5 JUMPI DUP1 PUSH1 0x3 NOT CALLDATASIZE ADD SLT PUSH3 0xD5 JUMPI PUSH1 0x40 MLOAD PUSH1 0x2 DUP1 SLOAD DUP1 DUP4 MSTORE SWAP1 DUP4 MSTORE PUSH1 0x20 DUP1 DUP4 ADD SWAP4 PUSH32 0x405787FA12A823E0F2B7631CC41B3BA8828B3321CA811111FA75CD3AA3BB5ACE SWAP3 SWAP2 JUMPDEST DUP3 DUP3 LT PUSH3 0xA75 JUMPI PUSH3 0xA71 DUP6 PUSH3 0xA64 DUP2 DUP10 SUB DUP3 PUSH3 0xD4E JUMP JUMPDEST PUSH1 0x40 MLOAD SWAP2 DUP3 SWAP2 DUP3 PUSH3 0xBDB JUMP JUMPDEST SUB SWAP1 RETURN JUMPDEST DUP4 SLOAD PUSH1 0x1 PUSH1 0x1 PUSH1 0xA0 SHL SUB AND DUP7 MSTORE SWAP5 DUP6 ADD SWAP5 PUSH1 0x1 SWAP4 DUP5 ADD SWAP4 SWAP1 SWAP2 ADD SWAP1 PUSH3 0xA49 JUMP JUMPDEST POP CALLVALUE PUSH3 0xD5 JUMPI PUSH1 0x20 CALLDATASIZE PUSH1 0x3 NOT ADD SLT PUSH3 0xD5 JUMPI PUSH1 0x4 CALLDATALOAD SWAP1 PUSH1 0x2 SLOAD DUP3 LT ISZERO PUSH3 0xD5 JUMPI PUSH1 0x20 PUSH3 0xAC6 DUP4 PUSH3 0xC20 JUMP JUMPDEST SWAP1 SLOAD PUSH1 0x40 MLOAD PUSH1 0x3 SWAP3 SWAP1 SWAP3 SHL SHR PUSH1 0x1 PUSH1 0x1 PUSH1 0xA0 SHL SUB AND DUP2 MSTORE RETURN JUMPDEST POP CALLVALUE PUSH3 0xD5 JUMPI DUP1 PUSH1 0x3 NOT CALLDATASIZE ADD SLT PUSH3 0xD5 JUMPI SLOAD PUSH1 0x40 MLOAD PUSH1 0x1 PUSH1 0x1 PUSH1 0xA0 SHL SUB SWAP1 SWAP2 AND DUP2 MSTORE PUSH1 0x20 SWAP1 RETURN JUMPDEST POP CALLVALUE PUSH3 0xD5 JUMPI PUSH3 0xA71 PUSH3 0xA64 PUSH3 0xB22 CALLDATASIZE PUSH3 0xBC0 JUMP JUMPDEST SWAP1 PUSH3 0xDEE JUMP JUMPDEST POP CALLVALUE PUSH3 0xD5 JUMPI PUSH3 0xB3B CALLDATASIZE PUSH3 0xBC0 JUMP JUMPDEST SWAP1 PUSH3 0xB5D PUSH1 0x1 DUP1 PUSH1 0xA0 SHL SUB DUP1 DUP6 SLOAD AND CALLER EQ SWAP1 DUP2 ISZERO PUSH3 0xBB1 JUMPI JUMPDEST POP PUSH3 0xCB5 JUMP JUMPDEST PUSH2 0x2710 PUSH3 0xB6C DUP4 DUP4 PUSH3 0xCFB JUMP JUMPDEST LT ISZERO PUSH3 0xB7C JUMPI PUSH1 0x3 SSTORE PUSH1 0x4 SSTORE DUP1 RETURN JUMPDEST PUSH1 0x40 MLOAD PUSH3 0x461BCD PUSH1 0xE5 SHL DUP2 MSTORE PUSH1 0x20 PUSH1 0x4 DUP3 ADD MSTORE PUSH1 0xD PUSH1 0x24 DUP3 ADD MSTORE PUSH13 0xCCCACAE640E8DEDE40D0D2CED PUSH1 0x9B SHL PUSH1 0x44 DUP3 ADD MSTORE PUSH1 0x64 SWAP1 REVERT JUMPDEST SWAP1 POP PUSH1 0x1 SLOAD AND CALLER EQ PUSH0 PUSH3 0xB56 JUMP JUMPDEST PUSH1 0x40 SWAP1 PUSH1 0x3 NOT ADD SLT PUSH3 0xBD7 JUMPI PUSH1 0x4 CALLDATALOAD SWAP1 PUSH1 0x24 CALLDATALOAD SWAP1 JUMP JUMPDEST PUSH0 DUP1 REVERT JUMPDEST PUSH1 0x20 SWAP1 DUP2 PUSH1 0x40 DUP2 DUP4 ADD SWAP3 DUP3 DUP2 MSTORE DUP6 MLOAD DUP1 SWAP5 MSTORE ADD SWAP4 ADD SWAP2 PUSH0 JUMPDEST DUP3 DUP2 LT PUSH3 0xC02 JUMPI POP POP POP POP SWAP1 JUMP JUMPDEST DUP4 MLOAD PUSH1 0x1 PUSH1 0x1 PUSH1 0xA0 SHL SUB AND DUP6 MSTORE SWAP4 DUP2 ADD SWAP4 SWAP3 DUP2 ADD SWAP3 PUSH1 0x1 ADD PUSH3 0xBF3 JUMP JUMPDEST PUSH1 0x2 SLOAD DUP2 LT ISZERO PUSH3 0xC56 JUMPI PUSH1 0x2 PUSH0 MSTORE PUSH32 0x405787FA12A823E0F2B7631CC41B3BA8828B3321CA811111FA75CD3AA3BB5ACE ADD SWAP1 PUSH0 SWAP1 JUMP JUMPDEST PUSH4 0x4E487B71 PUSH1 0xE0 SHL PUSH0 MSTORE PUSH1 0x32 PUSH1 0x4 MSTORE PUSH1 0x24 PUSH0 REVERT JUMPDEST PUSH1 0x4 CALLDATALOAD SWAP1 PUSH1 0x1 PUSH1 0x1 PUSH1 0xA0 SHL SUB DUP3 AND DUP3 SUB PUSH3 0xBD7 JUMPI JUMP JUMPDEST SWAP2 DUP2 PUSH1 0x1F DUP5 ADD SLT ISZERO PUSH3 0xBD7 JUMPI DUP3 CALLDATALOAD SWAP2 PUSH8 0xFFFFFFFFFFFFFFFF DUP4 GT PUSH3 0xBD7 JUMPI PUSH1 0x20 DUP1 DUP6 ADD SWAP5 DUP5 PUSH1 0x6 SHL ADD ADD GT PUSH3 0xBD7 JUMPI JUMP JUMPDEST ISZERO PUSH3 0xCBD JUMPI JUMP JUMPDEST PUSH1 0x40 MLOAD PUSH3 0x461BCD PUSH1 0xE5 SHL DUP2 MSTORE PUSH1 0x20 PUSH1 0x4 DUP3 ADD MSTORE PUSH1 0x16 PUSH1 0x24 DUP3 ADD MSTORE PUSH22 0x199858DD1BDC9E4E881BDB9B1E481C1C9BDD1BD8DBDB PUSH1 0x52 SHL PUSH1 0x44 DUP3 ADD MSTORE PUSH1 0x64 SWAP1 REVERT JUMPDEST SWAP2 SWAP1 DUP3 ADD DUP1 SWAP3 GT PUSH3 0xD09 JUMPI JUMP JUMPDEST PUSH4 0x4E487B71 PUSH1 0xE0 SHL PUSH0 MSTORE PUSH1 0x11 PUSH1 0x4 MSTORE PUSH1 0x24 PUSH0 REVERT JUMPDEST PUSH1 0x40 DUP2 ADD SWAP1 DUP2 LT PUSH8 0xFFFFFFFFFFFFFFFF DUP3 GT OR PUSH3 0xD3A JUMPI PUSH1 0x40 MSTORE JUMP JUMPDEST PUSH4 0x4E487B71 PUSH1 0xE0 SHL PUSH0 MSTORE PUSH1 0x41 PUSH1 0x4 MSTORE PUSH1 0x24 PUSH0 REVERT JUMPDEST SWAP1 PUSH1 0x1F DUP1 NOT SWAP2 ADD AND DUP2 ADD SWAP1 DUP2 LT PUSH8 0xFFFFFFFFFFFFFFFF DUP3 GT OR PUSH3 0xD3A JUMPI PUSH1 0x40 MSTORE JUMP JUMPDEST PUSH8 0xFFFFFFFFFFFFFFFF DUP2 GT PUSH3 0xD3A JUMPI PUSH1 0x5 SHL PUSH1 0x20 ADD SWAP1 JUMP JUMPDEST PUSH0 NOT DUP2 EQ PUSH3 0xD09 JUMPI PUSH1 0x1 ADD SWAP1 JUMP JUMPDEST SWAP2 SWAP1 DUP2 LT ISZERO PUSH3 0xC56 JUMPI PUSH1 0x6 SHL ADD SWAP1 JUMP JUMPDEST SWAP2 SWAP1 DUP3 SUB SWAP2 DUP3 GT PUSH3 0xD09 JUMPI JUMP JUMPDEST DUP1 MLOAD DUP3 LT ISZERO PUSH3 0xC56 JUMPI PUSH1 0x20 SWAP2 PUSH1 0x5 SHL ADD ADD SWAP1 JUMP JUMPDEST SWAP1 DUP2 PUSH1 0x20 SWAP2 SUB SLT PUSH3 0xBD7 JUMPI MLOAD PUSH1 0x1 PUSH1 0x1 PUSH1 0xA0 SHL SUB DUP2 AND DUP2 SUB PUSH3 0xBD7 JUMPI SWAP1 JUMP JUMPDEST SWAP2 SWAP1 PUSH1 0x2 SLOAD SWAP1 DUP2 DUP5 LT ISZERO PUSH3 0xEB4 JUMPI PUSH3 0xE09 SWAP1 DUP5 PUSH3 0xCFB JUMP JUMPDEST SWAP1 DUP1 DUP3 GT PUSH3 0xEAB JUMPI JUMPDEST POP PUSH3 0xE20 DUP4 DUP3 PUSH3 0xDAA JUMP JUMPDEST SWAP3 PUSH3 0xE2C DUP5 PUSH3 0xD71 JUMP JUMPDEST SWAP4 PUSH3 0xE3C PUSH1 0x40 MLOAD SWAP6 DUP7 PUSH3 0xD4E JUMP JUMPDEST DUP1 DUP6 MSTORE PUSH3 0xE4D PUSH1 0x1F NOT SWAP2 PUSH3 0xD71 JUMP JUMPDEST ADD CALLDATASIZE PUSH1 0x20 DUP7 ADD CALLDATACOPY DUP4 DUP2 JUMPDEST DUP4 DUP2 LT PUSH3 0xE65 JUMPI POP POP POP POP JUMP JUMPDEST DUP1 PUSH3 0xE75 PUSH3 0xEA5 SWAP3 PUSH3 0xC20 JUMP JUMPDEST SWAP1 SLOAD PUSH1 0x3 SWAP2 SWAP1 SWAP2 SHL SHR PUSH1 0x1 PUSH1 0x1 PUSH1 0xA0 SHL SUB AND PUSH3 0xE9E PUSH3 0xE97 DUP7 DUP5 PUSH3 0xDAA JUMP JUMPDEST DUP6 PUSH3 0xDB8 JUMP JUMPDEST MSTORE PUSH3 0xD8A JUMP JUMPDEST PUSH3 0xE57 JUMP JUMPDEST SWAP1 POP PUSH0 PUSH3 0xE13 JUMP JUMPDEST POP PUSH1 0x60 SWAP3 POP POP JUMP INVALID PUSH2 0x140 PUSH1 0x40 MSTORE CALLVALUE PUSH3 0x4B3 JUMPI PUSH3 0x26E0 DUP1 CODESIZE SUB DUP1 PUSH3 0x1E DUP2 PUSH3 0x4CC JUMP JUMPDEST SWAP3 DUP4 CODECOPY PUSH2 0x120 DUP3 DUP3 DUP2 ADD SUB SLT PUSH3 0x4B3 JUMPI PUSH3 0x3A DUP3 PUSH3 0x4F2 JUMP JUMPDEST SWAP1 PUSH3 0x49 PUSH1 0x20 DUP5 ADD PUSH3 0x4F2 JUMP JUMPDEST SWAP3 PUSH3 0x58 PUSH1 0x40 DUP3 ADD PUSH3 0x4F2 JUMP JUMPDEST PUSH1 0x60 DUP3 ADD MLOAD PUSH1 0x80 DUP4 ADD MLOAD PUSH1 0xA0 DUP5 ADD MLOAD PUSH1 0xC0 DUP6 ADD MLOAD SWAP8 SWAP1 SWAP3 SWAP1 PUSH1 0x1 PUSH1 0x1 PUSH1 0x40 SHL SUB DUP10 GT PUSH3 0x4B3 JUMPI DUP7 DUP7 ADD PUSH1 0x1F DUP11 DUP9 ADD ADD SLT ISZERO PUSH3 0x4B3 JUMPI DUP9 DUP7 ADD MLOAD SWAP6 PUSH3 0xA9 PUSH3 0xA3 DUP9 PUSH3 0x507 JUMP JUMPDEST PUSH3 0x4CC JUMP JUMPDEST SWAP7 PUSH1 0x20 DUP9 DUP3 DUP2 MSTORE ADD DUP1 SWAP12 DUP11 DUP5 ADD PUSH1 0x20 DUP5 PUSH1 0x5 SHL DUP4 DUP8 ADD ADD ADD GT PUSH3 0x4B3 JUMPI SWAP1 PUSH1 0x20 DUP3 DUP6 ADD ADD SWAP2 JUMPDEST PUSH1 0x20 DUP5 PUSH1 0x5 SHL DUP3 DUP8 ADD ADD ADD DUP4 LT PUSH3 0x4B7 JUMPI POP POP POP POP PUSH1 0xE0 DUP2 ADD MLOAD PUSH1 0x1 PUSH1 0x1 PUSH1 0x40 SHL SUB DUP2 GT PUSH3 0x4B3 JUMPI DUP2 ADD DUP9 DUP3 ADD PUSH1 0x1F DUP3 ADD SLT ISZERO PUSH3 0x4B3 JUMPI PUSH3 0x11F SWAP1 DUP10 DUP4 ADD SWAP1 PUSH1 0x20 DUP2 MLOAD SWAP2 ADD PUSH3 0x51F JUMP JUMPDEST PUSH2 0x100 DUP3 ADD MLOAD SWAP1 SWAP9 SWAP1 PUSH1 0x1 PUSH1 0x1 PUSH1 0x40 SHL SUB DUP2 GT PUSH3 0x4B3 JUMPI DUP3 ADD SWAP1 DUP1 DUP4 ADD PUSH1 0x1F DUP4 ADD SLT ISZERO PUSH3 0x4B3 JUMPI PUSH3 0x15B SWAP3 ADD SWAP1 PUSH1 0x20 DUP2 MLOAD SWAP2 ADD PUSH3 0x51F JUMP JUMPDEST PUSH1 0x1 PUSH0 DUP2 SWAP1 SSTORE PUSH1 0x4 DUP1 SLOAD PUSH2 0xFFFF NOT AND SWAP1 SWAP2 OR SWAP1 SSTORE SWAP8 PUSH1 0x1 PUSH1 0x1 PUSH1 0xA0 SHL SUB DUP1 DUP3 AND ISZERO PUSH3 0x481 JUMPI DUP3 AND ISZERO PUSH3 0x452 JUMPI DUP4 DUP4 GT PUSH3 0x423 JUMPI PUSH1 0x80 MSTORE PUSH1 0xC0 MSTORE PUSH1 0xE0 MSTORE PUSH2 0x100 MSTORE PUSH2 0x120 MSTORE PUSH1 0xA0 MSTORE MLOAD PUSH1 0x1 PUSH1 0x1 PUSH1 0x40 SHL SUB DUP2 GT PUSH3 0x26C JUMPI PUSH9 0x10000000000000000 SWAP4 DUP5 DUP3 GT PUSH3 0x26C JUMPI PUSH1 0x1 SLOAD DUP3 PUSH1 0x1 SSTORE DUP1 DUP4 LT PUSH3 0x3DC JUMPI JUMPDEST POP PUSH1 0x1 PUSH0 MSTORE PUSH1 0x20 PUSH0 KECCAK256 PUSH0 JUMPDEST DUP4 DUP2 LT PUSH3 0x3C7 JUMPI POP POP POP POP PUSH0 JUMPDEST DUP2 MLOAD DUP2 LT ISZERO PUSH3 0x280 JUMPI PUSH3 0x207 DUP2 DUP4 PUSH3 0x5D6 JUMP JUMPDEST MLOAD SWAP1 PUSH1 0x2 DUP1 SLOAD SWAP3 DUP7 DUP5 LT ISZERO PUSH3 0x26C JUMPI PUSH1 0x1 DUP5 ADD DUP1 DUP4 SSTORE DUP5 LT ISZERO PUSH3 0x258 JUMPI PUSH3 0x252 SWAP4 PUSH3 0x24C SWAP3 PUSH0 MSTORE PUSH1 0x20 PUSH0 KECCAK256 SWAP1 PUSH1 0x1 SHL ADD SWAP1 PUSH1 0x20 PUSH1 0x1 SWAP2 DUP1 MLOAD DUP5 SSTORE ADD MLOAD SWAP2 ADD SSTORE JUMP JUMPDEST PUSH3 0x5B3 JUMP JUMPDEST PUSH3 0x1F1 JUMP JUMPDEST PUSH4 0x4E487B71 PUSH1 0xE0 SHL PUSH0 MSTORE PUSH1 0x32 PUSH1 0x4 MSTORE PUSH1 0x24 PUSH0 REVERT JUMPDEST PUSH4 0x4E487B71 PUSH1 0xE0 SHL PUSH0 MSTORE PUSH1 0x41 PUSH1 0x4 MSTORE PUSH1 0x24 PUSH0 REVERT JUMPDEST POP POP PUSH0 JUMPDEST DUP2 MLOAD DUP2 LT ISZERO PUSH3 0x2E5 JUMPI PUSH3 0x29A DUP2 DUP4 PUSH3 0x5D6 JUMP JUMPDEST MLOAD SWAP1 PUSH1 0x3 DUP1 SLOAD SWAP3 DUP6 DUP5 LT ISZERO PUSH3 0x26C JUMPI PUSH1 0x1 DUP5 ADD DUP1 DUP4 SSTORE DUP5 LT ISZERO PUSH3 0x258 JUMPI PUSH3 0x2DF SWAP4 PUSH3 0x24C SWAP3 PUSH0 MSTORE PUSH1 0x20 PUSH0 KECCAK256 SWAP1 PUSH1 0x1 SHL ADD SWAP1 PUSH1 0x20 PUSH1 0x1 SWAP2 DUP1 MLOAD DUP5 SSTORE ADD MLOAD SWAP2 ADD SSTORE JUMP JUMPDEST PUSH3 0x284 JUMP JUMPDEST PUSH1 0x40 MLOAD PUSH2 0x20F4 SWAP1 DUP2 PUSH3 0x5EC DUP3 CODECOPY PUSH1 0x80 MLOAD DUP2 DUP2 DUP2 PUSH2 0x2A0 ADD MSTORE DUP2 DUP2 PUSH2 0x83F ADD MSTORE DUP2 DUP2 PUSH2 0xA9F ADD MSTORE DUP2 DUP2 PUSH2 0xC35 ADD MSTORE DUP2 DUP2 PUSH2 0x12D6 ADD MSTORE PUSH2 0x164F ADD MSTORE PUSH1 0xA0 MLOAD DUP2 DUP2 DUP2 PUSH2 0x1F9 ADD MSTORE DUP2 DUP2 PUSH2 0x6A4 ADD MSTORE DUP2 DUP2 PUSH2 0xBD9 ADD MSTORE DUP2 DUP2 PUSH2 0x153F ADD MSTORE DUP2 DUP2 PUSH2 0x16BF ADD MSTORE DUP2 DUP2 PUSH2 0x1B68 ADD MSTORE PUSH2 0x1E3A ADD MSTORE PUSH1 0xC0 MLOAD DUP2 DUP2 DUP2 PUSH2 0x365 ADD MSTORE DUP2 DUP2 PUSH2 0x9A0 ADD MSTORE DUP2 DUP2 PUSH2 0xA66 ADD MSTORE DUP2 DUP2 PUSH2 0xAC0 ADD MSTORE DUP2 DUP2 PUSH2 0xB5D ADD MSTORE DUP2 DUP2 PUSH2 0x13BF ADD MSTORE DUP2 DUP2 PUSH2 0x14CF ADD MSTORE DUP2 DUP2 PUSH2 0x1502 ADD MSTORE PUSH2 0x1AA5 ADD MSTORE PUSH1 0xE0 MLOAD DUP2 DUP2 DUP2 PUSH2 0x2EF ADD MSTORE PUSH2 0x15B8 ADD MSTORE PUSH2 0x100 MLOAD DUP2 DUP2 DUP2 PUSH2 0x634 ADD MSTORE PUSH2 0x1263 ADD MSTORE PUSH2 0x120 MLOAD DUP2 DUP2 DUP2 PUSH2 0x173B ADD MSTORE PUSH2 0x1F6D ADD MSTORE RETURN JUMPDEST PUSH1 0x1 SWAP1 PUSH1 0x20 DUP5 MLOAD SWAP5 ADD SWAP4 DUP2 DUP5 ADD SSTORE ADD PUSH3 0x1E3 JUMP JUMPDEST PUSH1 0x1 PUSH0 MSTORE PUSH32 0xB10E2D527612073B26EECDFD717E6A320CF44B4AFAC2B0732D9FCBE2B7FA0CF6 SWAP1 DUP2 ADD SWAP1 DUP4 ADD JUMPDEST DUP2 DUP2 LT PUSH3 0x417 JUMPI POP PUSH3 0x1D8 JUMP JUMPDEST PUSH0 DUP2 SSTORE PUSH1 0x1 ADD PUSH3 0x408 JUMP JUMPDEST PUSH1 0x40 MLOAD PUSH3 0x461BCD PUSH1 0xE5 SHL DUP2 MSTORE PUSH1 0x20 PUSH1 0x4 DUP3 ADD MSTORE PUSH1 0x7 PUSH1 0x24 DUP3 ADD MSTORE PUSH7 0xDAD2DC7CDAC2F PUSH1 0xCB SHL PUSH1 0x44 DUP3 ADD MSTORE PUSH1 0x64 SWAP1 REVERT JUMPDEST PUSH1 0x40 MLOAD PUSH3 0x461BCD PUSH1 0xE5 SHL DUP2 MSTORE PUSH1 0x20 PUSH1 0x4 DUP3 ADD MSTORE PUSH1 0x7 PUSH1 0x24 DUP3 ADD MSTORE PUSH7 0x746F6B656E203 PUSH1 0xCC SHL PUSH1 0x44 DUP3 ADD MSTORE PUSH1 0x64 SWAP1 REVERT JUMPDEST PUSH1 0x40 MLOAD PUSH3 0x461BCD PUSH1 0xE5 SHL DUP2 MSTORE PUSH1 0x20 PUSH1 0x4 DUP3 ADD MSTORE PUSH1 0xA PUSH1 0x24 DUP3 ADD MSTORE PUSH10 0x70726F746F636F6C203 PUSH1 0xB4 SHL PUSH1 0x44 DUP3 ADD MSTORE PUSH1 0x64 SWAP1 REVERT JUMPDEST PUSH0 DUP1 REVERT JUMPDEST PUSH1 0x20 DUP1 DUP1 SWAP4 DUP6 MLOAD DUP2 MSTORE ADD SWAP4 ADD SWAP3 SWAP2 POP PUSH3 0xD0 JUMP JUMPDEST PUSH1 0x40 MLOAD SWAP2 SWAP1 PUSH1 0x1F ADD PUSH1 0x1F NOT AND DUP3 ADD PUSH1 0x1 PUSH1 0x1 PUSH1 0x40 SHL SUB DUP2 GT DUP4 DUP3 LT OR PUSH3 0x26C JUMPI PUSH1 0x40 MSTORE JUMP JUMPDEST MLOAD SWAP1 PUSH1 0x1 PUSH1 0x1 PUSH1 0xA0 SHL SUB DUP3 AND DUP3 SUB PUSH3 0x4B3 JUMPI JUMP JUMPDEST PUSH1 0x1 PUSH1 0x1 PUSH1 0x40 SHL SUB DUP2 GT PUSH3 0x26C JUMPI PUSH1 0x5 SHL PUSH1 0x20 ADD SWAP1 JUMP JUMPDEST SWAP1 SWAP3 SWAP2 PUSH3 0x531 PUSH3 0xA3 DUP6 PUSH3 0x507 JUMP JUMPDEST SWAP4 DUP1 DUP6 MSTORE PUSH1 0x20 SWAP2 DUP3 DUP7 ADD SWAP2 PUSH1 0x6 SHL DUP5 ADD SWAP4 DUP2 DUP6 GT PUSH3 0x4B3 JUMPI SWAP2 JUMPDEST DUP5 DUP4 LT PUSH3 0x55B JUMPI POP POP POP POP POP JUMP JUMPDEST PUSH1 0x40 DUP1 DUP5 DUP5 SUB SLT PUSH3 0x4B3 JUMPI DUP1 MLOAD DUP1 DUP3 ADD SWAP3 SWAP1 PUSH1 0x1 PUSH1 0x1 PUSH1 0x40 SHL SUB DUP5 GT DUP2 DUP6 LT OR PUSH3 0x59F JUMPI PUSH1 0x40 SWAP4 DUP8 SWAP4 MSTORE DUP6 MLOAD DUP2 MSTORE DUP3 DUP7 ADD MLOAD DUP4 DUP3 ADD MSTORE DUP2 MSTORE ADD SWAP3 ADD SWAP2 PUSH3 0x54C JUMP JUMPDEST PUSH1 0x24 PUSH0 PUSH4 0x4E487B71 PUSH1 0xE0 SHL DUP2 MSTORE PUSH1 0x41 PUSH1 0x4 MSTORE REVERT JUMPDEST PUSH0 NOT DUP2 EQ PUSH3 0x5C2 JUMPI PUSH1 0x1 ADD SWAP1 JUMP JUMPDEST PUSH4 0x4E487B71 PUSH1 0xE0 SHL PUSH0 MSTORE PUSH1 0x11 PUSH1 0x4 MSTORE PUSH1 0x24 PUSH0 REVERT JUMPDEST DUP1 MLOAD DUP3 LT ISZERO PUSH3 0x258 JUMPI PUSH1 0x20 SWAP2 PUSH1 0x5 SHL ADD ADD SWAP1 JUMP INVALID PUSH1 0x80 DUP1 PUSH1 0x40 MSTORE PUSH1 0x4 CALLDATASIZE LT ISZERO PUSH2 0x12 JUMPI PUSH0 DUP1 REVERT JUMPDEST PUSH0 CALLDATALOAD PUSH1 0xE0 SHR SWAP1 DUP2 PUSH3 0x75844C EQ PUSH2 0x1780 JUMPI POP DUP1 PUSH4 0x2FB0C5E EQ PUSH2 0x175E JUMPI DUP1 PUSH4 0x94B81D3 EQ PUSH2 0x1724 JUMPI DUP1 PUSH4 0x10390D35 EQ PUSH2 0x16FB JUMPI DUP1 PUSH4 0x18976FA2 EQ PUSH2 0x1632 JUMPI DUP1 PUSH4 0x22F3E2D4 EQ PUSH2 0x15F8 JUMPI DUP1 PUSH4 0x359CFBF7 EQ PUSH2 0x15DB JUMPI DUP1 PUSH4 0x41B3D185 EQ PUSH2 0x15A1 JUMPI DUP1 PUSH4 0x5350CBD9 EQ PUSH2 0x1578 JUMPI DUP1 PUSH4 0x580FC80A EQ PUSH2 0x12AB JUMPI DUP1 PUSH4 0x597E1FB5 EQ PUSH2 0x1286 JUMPI DUP1 PUSH4 0x6083E59A EQ PUSH2 0x124C JUMPI DUP1 PUSH4 0x639487F4 EQ PUSH2 0x107B JUMPI DUP1 PUSH4 0x6A5908A0 EQ PUSH2 0x1032 JUMPI DUP1 PUSH4 0x6C4470FB EQ PUSH2 0xF6E JUMPI DUP1 PUSH4 0x703BAFD5 EQ PUSH2 0x170 JUMPI DUP1 PUSH4 0x7C48B21C EQ PUSH2 0xC64 JUMPI DUP1 PUSH4 0x8CE74426 EQ PUSH2 0xC20 JUMPI DUP1 PUSH4 0x96D8EF8E EQ PUSH2 0x808 JUMPI DUP1 PUSH4 0x99FBAB88 EQ PUSH2 0x79D JUMPI DUP1 PUSH4 0xA0660DFA EQ PUSH2 0x760 JUMPI DUP1 PUSH4 0xA547AFE0 EQ PUSH2 0x734 JUMPI DUP1 PUSH4 0xAC55DEB6 EQ PUSH2 0x6DD JUMPI DUP1 PUSH4 0xB1B0EBCC EQ PUSH2 0x262 JUMPI DUP1 PUSH4 0xB9B792CD EQ PUSH2 0x245 JUMPI DUP1 PUSH4 0xC122C2A1 EQ PUSH2 0x228 JUMPI DUP1 PUSH4 0xC45A0155 EQ PUSH2 0x1E4 JUMPI DUP1 PUSH4 0xCBA02476 EQ PUSH2 0x1BC JUMPI DUP1 PUSH4 0xD6887BFA EQ PUSH2 0x19F JUMPI DUP1 PUSH4 0xDB8D55F1 EQ PUSH2 0x175 JUMPI PUSH4 0xFC0C546A EQ PUSH2 0x170 JUMPI PUSH0 DUP1 REVERT JUMPDEST PUSH2 0x1A90 JUMP JUMPDEST CALLVALUE PUSH2 0x19B JUMPI PUSH0 CALLDATASIZE PUSH1 0x3 NOT ADD SLT PUSH2 0x19B JUMPI PUSH1 0x40 PUSH2 0x18F PUSH2 0x1E27 JUMP JUMPDEST DUP3 MLOAD SWAP2 DUP3 MSTORE PUSH1 0x20 DUP3 ADD MSTORE RETURN JUMPDEST PUSH0 DUP1 REVERT JUMPDEST CALLVALUE PUSH2 0x19B JUMPI PUSH0 CALLDATASIZE PUSH1 0x3 NOT ADD SLT PUSH2 0x19B JUMPI PUSH1 0x20 PUSH1 0x5 SLOAD PUSH1 0x40 MLOAD SWAP1 DUP2 MSTORE RETURN JUMPDEST CALLVALUE PUSH2 0x19B JUMPI PUSH1 0x20 CALLDATASIZE PUSH1 0x3 NOT ADD SLT PUSH2 0x19B JUMPI PUSH1 0x20 PUSH2 0x1DA PUSH1 0x4 CALLDATALOAD PUSH2 0x1BF9 JUMP JUMPDEST PUSH1 0x40 MLOAD SWAP1 ISZERO ISZERO DUP2 MSTORE RETURN JUMPDEST CALLVALUE PUSH2 0x19B JUMPI PUSH0 CALLDATASIZE PUSH1 0x3 NOT ADD SLT PUSH2 0x19B JUMPI PUSH1 0x40 MLOAD PUSH32 0x0 PUSH1 0x1 PUSH1 0x1 PUSH1 0xA0 SHL SUB AND DUP2 MSTORE PUSH1 0x20 SWAP1 RETURN JUMPDEST CALLVALUE PUSH2 0x19B JUMPI PUSH0 CALLDATASIZE PUSH1 0x3 NOT ADD SLT PUSH2 0x19B JUMPI PUSH1 0x20 PUSH1 0x2 SLOAD PUSH1 0x40 MLOAD SWAP1 DUP2 MSTORE RETURN JUMPDEST CALLVALUE PUSH2 0x19B JUMPI PUSH0 CALLDATASIZE PUSH1 0x3 NOT ADD SLT PUSH2 0x19B JUMPI PUSH1 0x20 PUSH1 0x3 SLOAD PUSH1 0x40 MLOAD SWAP1 DUP2 MSTORE RETURN JUMPDEST CALLVALUE PUSH2 0x19B JUMPI PUSH1 0x60 CALLDATASIZE PUSH1 0x3 NOT ADD SLT PUSH2 0x19B JUMPI PUSH1 0x1 PUSH1 0x1 PUSH1 0xA0 SHL SUB PUSH1 0x44 DUP1 CALLDATALOAD DUP3 DUP2 AND SWAP2 PUSH1 0x4 CALLDATALOAD SWAP2 PUSH1 0x24 DUP1 CALLDATALOAD SWAP3 SWAP1 SWAP2 DUP6 SWAP1 SUB PUSH2 0x19B JUMPI PUSH2 0x29D PUSH2 0x1CBB JUMP JUMPDEST DUP6 PUSH32 0x0 AND CALLER EQ DUP1 ISZERO PUSH2 0x6CB JUMPI JUMPDEST DUP1 ISZERO PUSH2 0x6A0 JUMPI JUMPDEST PUSH2 0x2D9 SWAP1 PUSH2 0x1C40 JUMP JUMPDEST PUSH1 0x4 SLOAD PUSH1 0xFF DUP2 AND SWAP1 DUP2 PUSH2 0x691 JUMPI JUMPDEST POP ISZERO PUSH2 0x65B JUMPI PUSH32 0x0 DUP5 LT ISZERO DUP1 PUSH2 0x631 JUMPI JUMPDEST ISZERO PUSH2 0x5F7 JUMPI DUP3 ISZERO PUSH2 0x5C9 JUMPI PUSH2 0x32B DUP4 PUSH2 0x1BF9 JUMP JUMPDEST ISZERO PUSH2 0x591 JUMPI PUSH2 0x38A SWAP1 PUSH1 0x40 MLOAD SWAP1 PUSH4 0x23B872DD PUSH1 0xE0 SHL PUSH1 0x20 DUP4 ADD MSTORE CALLER DUP5 DUP4 ADD MSTORE ADDRESS SWAP1 DUP3 ADD MSTORE DUP5 PUSH1 0x64 DUP3 ADD MSTORE PUSH1 0x64 DUP2 MSTORE PUSH2 0x362 DUP2 PUSH2 0x1B0C JUMP JUMPDEST DUP7 PUSH32 0x0 AND PUSH2 0x1D0F JUMP JUMPDEST PUSH2 0x394 DUP3 NUMBER PUSH2 0x1C7C JUMP JUMPDEST SWAP5 PUSH1 0x40 MLOAD SWAP2 PUSH2 0x3A2 DUP4 PUSH2 0x1B0C JUMP JUMPDEST DUP6 DUP4 MSTORE PUSH1 0x20 DUP4 ADD SWAP3 DUP6 DUP5 MSTORE PUSH1 0x40 DUP2 ADD SWAP8 NUMBER DUP10 MSTORE PUSH1 0x60 DUP3 ADD SWAP1 DUP2 MSTORE PUSH1 0x80 DUP3 ADD SWAP9 PUSH0 DUP11 MSTORE PUSH1 0x5 SLOAD SWAP5 PUSH1 0x1 PUSH1 0x40 SHL SWAP6 DUP7 DUP2 LT ISZERO PUSH2 0x57E JUMPI DUP1 PUSH1 0x1 PUSH2 0x3E6 SWAP3 ADD PUSH1 0x5 SSTORE PUSH2 0x1AD4 JUMP JUMPDEST SWAP5 SWAP1 SWAP5 PUSH2 0x56C JUMPI MLOAD DUP5 SLOAD SWAP2 AND PUSH1 0x1 PUSH1 0x1 PUSH1 0xA0 SHL SUB NOT SWAP2 DUP3 AND OR DUP5 SSTORE SWAP6 MLOAD PUSH1 0x1 DUP5 ADD SSTORE MLOAD PUSH1 0x2 DUP4 ADD SSTORE MLOAD PUSH1 0x3 DUP3 ADD SSTORE SWAP7 MLOAD PUSH1 0x4 SWAP1 SWAP8 ADD DUP1 SLOAD PUSH1 0xFF NOT SWAP1 DUP2 AND SWAP9 ISZERO ISZERO PUSH1 0xFF AND SWAP9 SWAP1 SWAP9 OR SWAP1 SSTORE PUSH1 0x5 SLOAD PUSH0 NOT DUP2 ADD SWAP8 SWAP1 DUP9 GT PUSH2 0x558 JUMPI DUP7 PUSH0 MSTORE PUSH1 0x6 PUSH1 0x20 MSTORE PUSH2 0x453 DUP9 PUSH1 0x40 PUSH0 KECCAK256 PUSH2 0x1C96 JUMP JUMPDEST DUP7 PUSH0 MSTORE PUSH1 0x9 PUSH1 0x20 MSTORE PUSH1 0x40 PUSH0 KECCAK256 SWAP1 DUP2 SLOAD PUSH1 0xFF DUP2 AND ISZERO PUSH2 0x4B4 JUMPI JUMPDEST DUP10 DUP10 PUSH32 0x9CFD25589D1EB8AD71E342A86A8524E83522E3936C0803048C08F6D9AD974F40 PUSH1 0x60 DUP12 PUSH2 0x49C DUP13 NUMBER PUSH2 0x1C7C JUMP JUMPDEST PUSH1 0x40 MLOAD SWAP2 DUP3 MSTORE NUMBER PUSH1 0x20 DUP4 ADD MSTORE PUSH1 0x40 DUP3 ADD MSTORE LOG3 PUSH1 0x1 PUSH0 SSTORE STOP JUMPDEST AND PUSH1 0x1 OR SWAP1 SSTORE PUSH1 0x8 SLOAD SWAP2 DUP3 LT ISZERO PUSH2 0x545 JUMPI PUSH1 0x1 DUP3 ADD DUP1 PUSH1 0x8 SSTORE DUP3 LT ISZERO PUSH2 0x532 JUMPI POP PUSH1 0x8 PUSH0 MSTORE PUSH32 0xF3F7A9FE364FAAB93B216DA50A3214154F22A0A2B415B23A84C8169E8B636EE3 ADD DUP1 SLOAD SWAP1 SWAP2 AND DUP5 OR SWAP1 SSTORE DUP2 PUSH2 0x49C PUSH1 0x60 PUSH32 0x9CFD25589D1EB8AD71E342A86A8524E83522E3936C0803048C08F6D9AD974F40 DUP9 DUP1 PUSH2 0x46C JUMP JUMPDEST PUSH4 0x4E487B71 PUSH1 0xE0 SHL PUSH0 SWAP1 DUP2 MSTORE PUSH1 0x32 PUSH1 0x4 MSTORE REVERT JUMPDEST PUSH4 0x4E487B71 PUSH1 0xE0 SHL PUSH0 SWAP1 DUP2 MSTORE PUSH1 0x41 PUSH1 0x4 MSTORE REVERT JUMPDEST POP PUSH4 0x4E487B71 PUSH1 0xE0 SHL PUSH0 SWAP1 DUP2 MSTORE PUSH1 0x11 PUSH1 0x4 MSTORE REVERT JUMPDEST DUP6 PUSH4 0x4E487B71 PUSH1 0xE0 SHL PUSH0 MSTORE PUSH0 PUSH1 0x4 MSTORE PUSH0 REVERT JUMPDEST DUP6 PUSH4 0x4E487B71 PUSH1 0xE0 SHL PUSH0 MSTORE PUSH1 0x41 PUSH1 0x4 MSTORE PUSH0 REVERT JUMPDEST SWAP1 PUSH18 0x1C1C995CD95D081B9BDD08185B1B1BDDD959 PUSH1 0x72 SHL PUSH1 0x64 SWAP3 PUSH1 0x12 PUSH1 0x40 MLOAD SWAP4 PUSH3 0x461BCD PUSH1 0xE5 SHL DUP6 MSTORE PUSH1 0x20 PUSH1 0x4 DUP7 ADD MSTORE DUP5 ADD MSTORE DUP3 ADD MSTORE REVERT JUMPDEST SWAP1 PUSH8 0x626C6F636B733E3 PUSH1 0xC4 SHL PUSH1 0x64 SWAP3 PUSH1 0x8 PUSH1 0x40 MLOAD SWAP4 PUSH3 0x461BCD PUSH1 0xE5 SHL DUP6 MSTORE PUSH1 0x20 PUSH1 0x4 DUP7 ADD MSTORE DUP5 ADD MSTORE DUP3 ADD MSTORE REVERT JUMPDEST SWAP1 PUSH20 0x616D6F756E74206F7574206F6620626F756E6473 PUSH1 0x60 SHL PUSH1 0x64 SWAP3 PUSH1 0x14 PUSH1 0x40 MLOAD SWAP4 PUSH3 0x461BCD PUSH1 0xE5 SHL DUP6 MSTORE PUSH1 0x20 PUSH1 0x4 DUP7 ADD MSTORE DUP5 ADD MSTORE DUP3 ADD MSTORE REVERT JUMPDEST POP PUSH32 0x0 DUP5 GT ISZERO PUSH2 0x317 JUMP JUMPDEST SWAP1 PUSH16 0x7661756C74206E6F7420616374697665 PUSH1 0x80 SHL PUSH1 0x64 SWAP3 PUSH1 0x10 PUSH1 0x40 MLOAD SWAP4 PUSH3 0x461BCD PUSH1 0xE5 SHL DUP6 MSTORE PUSH1 0x20 PUSH1 0x4 DUP7 ADD MSTORE DUP5 ADD MSTORE DUP3 ADD MSTORE REVERT JUMPDEST PUSH1 0xFF SWAP2 POP PUSH1 0x8 SHR AND ISZERO DUP8 PUSH2 0x2E7 JUMP JUMPDEST POP CALLER PUSH32 0x0 DUP8 AND EQ PUSH2 0x2D0 JUMP JUMPDEST POP DUP6 PUSH2 0x6D5 PUSH2 0x1B4A JUMP JUMPDEST AND CALLER EQ PUSH2 0x2C9 JUMP JUMPDEST CALLVALUE PUSH2 0x19B JUMPI PUSH1 0x40 CALLDATASIZE PUSH1 0x3 NOT ADD SLT PUSH2 0x19B JUMPI PUSH2 0x6F6 PUSH2 0x19AC JUMP JUMPDEST PUSH1 0x1 PUSH1 0x1 PUSH1 0xA0 SHL SUB AND PUSH0 SWAP1 DUP2 MSTORE PUSH1 0x7 PUSH1 0x20 MSTORE PUSH1 0x40 SWAP1 KECCAK256 DUP1 SLOAD PUSH1 0x24 CALLDATALOAD SWAP2 SWAP1 DUP3 LT ISZERO PUSH2 0x19B JUMPI PUSH1 0x20 SWAP2 PUSH2 0x726 SWAP2 PUSH2 0x1A0B JUMP JUMPDEST SWAP1 SLOAD PUSH1 0x40 MLOAD SWAP2 PUSH1 0x3 SHL SHR DUP2 MSTORE RETURN JUMPDEST CALLVALUE PUSH2 0x19B JUMPI PUSH0 CALLDATASIZE PUSH1 0x3 NOT ADD SLT PUSH2 0x19B JUMPI PUSH1 0x20 PUSH2 0x74E PUSH2 0x1B4A JUMP JUMPDEST PUSH1 0x40 MLOAD PUSH1 0x1 PUSH1 0x1 PUSH1 0xA0 SHL SUB SWAP1 SWAP2 AND DUP2 MSTORE RETURN JUMPDEST CALLVALUE PUSH2 0x19B JUMPI PUSH1 0x20 CALLDATASIZE PUSH1 0x3 NOT ADD SLT PUSH2 0x19B JUMPI PUSH1 0x4 CALLDATALOAD PUSH1 0x3 SLOAD DUP2 LT ISZERO PUSH2 0x19B JUMPI PUSH2 0x789 PUSH1 0x40 SWAP2 PUSH2 0x1A58 JUMP JUMPDEST POP PUSH1 0x1 DUP2 SLOAD SWAP2 ADD SLOAD DUP3 MLOAD SWAP2 DUP3 MSTORE PUSH1 0x20 DUP3 ADD MSTORE RETURN JUMPDEST CALLVALUE PUSH2 0x19B JUMPI PUSH1 0x20 CALLDATASIZE PUSH1 0x3 NOT ADD SLT PUSH2 0x19B JUMPI PUSH1 0x4 CALLDATALOAD PUSH1 0x5 SLOAD DUP2 LT ISZERO PUSH2 0x19B JUMPI PUSH2 0x7C6 PUSH1 0xA0 SWAP2 PUSH2 0x1AD4 JUMP JUMPDEST POP PUSH1 0x1 DUP1 DUP4 SHL SUB DUP2 SLOAD AND SWAP1 PUSH1 0x1 DUP2 ADD SLOAD SWAP1 PUSH1 0x2 DUP2 ADD SLOAD PUSH1 0xFF PUSH1 0x4 PUSH1 0x3 DUP5 ADD SLOAD SWAP4 ADD SLOAD AND SWAP3 PUSH1 0x40 MLOAD SWAP5 DUP6 MSTORE PUSH1 0x20 DUP6 ADD MSTORE PUSH1 0x40 DUP5 ADD MSTORE PUSH1 0x60 DUP4 ADD MSTORE ISZERO ISZERO PUSH1 0x80 DUP3 ADD MSTORE RETURN JUMPDEST CALLVALUE PUSH2 0x19B JUMPI PUSH1 0x40 CALLDATASIZE PUSH1 0x3 NOT ADD SLT PUSH2 0x19B JUMPI PUSH2 0x821 PUSH2 0x19AC JUMP JUMPDEST PUSH1 0x24 CALLDATALOAD PUSH1 0x1 PUSH1 0x1 PUSH1 0xA0 SHL SUB DUP2 AND SWAP1 SUB PUSH2 0x19B JUMPI PUSH2 0x83C PUSH2 0x1CBB JUMP JUMPDEST CALLER PUSH32 0x0 PUSH1 0x1 PUSH1 0x1 PUSH1 0xA0 SHL SUB AND EQ DUP1 ISZERO PUSH2 0xC07 JUMPI JUMPDEST DUP1 ISZERO PUSH2 0xBD5 JUMPI JUMPDEST PUSH2 0x87F SWAP1 PUSH2 0x1C40 JUMP JUMPDEST PUSH2 0x887 PUSH2 0x1E27 JUMP JUMPDEST PUSH1 0x1 PUSH1 0x1 PUSH1 0xA0 SHL SUB DUP4 AND PUSH0 SWAP1 DUP2 MSTORE PUSH1 0x6 PUSH1 0x20 MSTORE PUSH1 0x40 DUP2 KECCAK256 SWAP3 SWAP4 SWAP1 SWAP3 SWAP2 SWAP1 JUMPDEST DUP3 SLOAD DUP5 LT ISZERO PUSH2 0xBCF JUMPI PUSH2 0x8B8 DUP5 DUP5 PUSH2 0x1A0B JUMP JUMPDEST SWAP1 SLOAD SWAP1 PUSH1 0x3 SHL SHR DUP6 PUSH2 0x8C9 DUP3 PUSH2 0x1AD4 JUMP JUMPDEST POP PUSH1 0x3 DUP2 ADD SLOAD NUMBER LT SWAP1 PUSH1 0x4 DUP2 ADD SLOAD SWAP2 PUSH1 0xFF DUP2 DUP2 DUP6 AND ISZERO SWAP2 DUP3 PUSH2 0xBAE JUMPI JUMPDEST POP POP ISZERO PUSH2 0xB99 JUMPI SWAP2 DUP5 SWAP4 SWAP2 PUSH2 0x9F8 SWAP6 SWAP4 PUSH1 0x1 DUP1 SWAP4 PUSH1 0xFF NOT AND OR PUSH1 0x4 DUP4 ADD SSTORE ISZERO PUSH0 EQ PUSH2 0xB1B JUMPI PUSH32 0x7B381718BEC1E0DBC1241809EE9B55F3D783B95880307F002707FAD981FA5069 SWAP2 PUSH1 0x40 SWAP2 PUSH1 0x24 CALLDATALOAD PUSH1 0x1 PUSH1 0x1 PUSH1 0xA0 SHL SUB SWAP1 DUP2 AND SWAP1 DUP11 AND EQ DUP1 ISZERO PUSH2 0xB05 JUMPI PUSH2 0x961 PUSH2 0x973 DUP8 SWAP5 JUMPDEST DUP5 ADD SLOAD SWAP5 PUSH2 0x2710 SWAP3 DUP4 SWAP2 DUP8 PUSH2 0x1D69 JUMP JUMPDEST DIV SWAP8 PUSH2 0x96D DUP10 DUP8 PUSH2 0x1C89 JUMP JUMPDEST SWAP6 PUSH2 0x1D69 JUMP JUMPDEST DIV PUSH0 SWAP2 ISZERO PUSH2 0xAF3 JUMPI JUMPDEST DUP1 PUSH2 0xA99 JUMPI JUMPDEST POP DUP1 PUSH2 0xA5D JUMPI JUMPDEST POP DUP1 SLOAD PUSH2 0x9C5 SWAP1 DUP4 SWAP1 PUSH1 0x1 PUSH1 0x1 PUSH1 0xA0 SHL SUB SWAP1 DUP2 AND SWAP1 PUSH32 0x0 AND PUSH2 0x1DD7 JUMP JUMPDEST PUSH1 0x1 DUP1 PUSH1 0xA0 SHL SUB SWAP1 SLOAD AND SWAP4 DUP3 MLOAD SWAP2 DUP3 MSTORE PUSH1 0x20 DUP3 ADD MSTORE LOG3 JUMPDEST PUSH1 0x1 PUSH1 0x1 PUSH1 0xA0 SHL SUB DUP4 AND PUSH0 SWAP1 DUP2 MSTORE PUSH1 0x7 PUSH1 0x20 MSTORE PUSH1 0x40 SWAP1 KECCAK256 PUSH2 0x1C96 JUMP JUMPDEST DUP3 SLOAD PUSH0 NOT DUP2 ADD SWAP1 DUP2 GT PUSH2 0xA49 JUMPI PUSH2 0xA12 PUSH2 0xA3B SWAP2 DUP6 PUSH2 0x1A0B JUMP JUMPDEST SWAP1 SLOAD SWAP1 PUSH1 0x3 SHL SHR PUSH2 0xA23 DUP7 DUP7 PUSH2 0x1A0B JUMP JUMPDEST SWAP1 SWAP2 SWAP1 DUP3 SLOAD SWAP1 PUSH1 0x3 SHL SWAP2 DUP3 SHL SWAP2 PUSH0 NOT SWAP1 SHL NOT AND OR SWAP1 SSTORE JUMP JUMPDEST PUSH2 0xA44 DUP4 PUSH2 0x1D9A JUMP JUMPDEST PUSH2 0x8A5 JUMP JUMPDEST PUSH4 0x4E487B71 PUSH1 0xE0 SHL PUSH0 MSTORE PUSH1 0x11 PUSH1 0x4 MSTORE PUSH1 0x24 PUSH0 REVERT JUMPDEST PUSH2 0xA93 SWAP1 PUSH1 0x24 CALLDATALOAD PUSH32 0x0 PUSH1 0x1 PUSH1 0x1 PUSH1 0xA0 SHL SUB AND PUSH2 0x1DD7 JUMP JUMPDEST DUP14 PUSH2 0x989 JUMP JUMPDEST PUSH2 0xAED SWAP1 PUSH32 0x0 PUSH32 0x0 PUSH1 0x1 PUSH1 0x1 PUSH1 0xA0 SHL SUB AND PUSH2 0x1DD7 JUMP JUMPDEST DUP15 PUSH2 0x982 JUMP JUMPDEST SWAP1 POP PUSH2 0xAFF DUP2 DUP8 PUSH2 0x1C89 JUMP JUMPDEST SWAP1 PUSH2 0x97C JUMP JUMPDEST PUSH2 0x961 PUSH2 0x973 PUSH2 0xB15 DUP14 DUP10 PUSH2 0x1C7C JUMP JUMPDEST SWAP5 PUSH2 0x951 JUMP JUMPDEST SWAP1 DUP2 ADD SLOAD DUP2 SLOAD SWAP1 SWAP3 POP PUSH32 0xBAEA19541010BAD0070D3E9EBA7D614E4F22A90D557EB4B70272D33A32793A07 SWAP2 PUSH1 0x20 SWAP2 PUSH2 0xB82 SWAP1 DUP6 SWAP1 PUSH1 0x1 PUSH1 0x1 PUSH1 0xA0 SHL SUB SWAP1 DUP2 AND SWAP1 PUSH32 0x0 AND PUSH2 0x1DD7 JUMP JUMPDEST SLOAD PUSH1 0x40 MLOAD SWAP4 DUP5 MSTORE PUSH1 0x1 PUSH1 0x1 PUSH1 0xA0 SHL SUB AND SWAP3 LOG3 PUSH2 0x9DC JUMP JUMPDEST POP POP POP POP POP SWAP3 PUSH2 0xBA8 SWAP1 PUSH2 0x1BEB JUMP JUMPDEST SWAP3 PUSH2 0x8A5 JUMP JUMPDEST DUP2 ISZERO SWAP3 POP SWAP1 PUSH2 0xBC0 JUMPI JUMPDEST POP DUP2 DUP13 PUSH2 0x8E6 JUMP JUMPDEST SWAP1 POP PUSH1 0x4 SLOAD PUSH1 0x8 SHR AND DUP12 PUSH2 0xBB8 JUMP JUMPDEST PUSH1 0x1 PUSH0 SSTORE STOP JUMPDEST POP CALLER PUSH32 0x0 PUSH1 0x1 PUSH1 0x1 PUSH1 0xA0 SHL SUB AND EQ PUSH2 0x876 JUMP JUMPDEST POP PUSH1 0x1 PUSH1 0x1 PUSH1 0xA0 SHL SUB PUSH2 0xC18 PUSH2 0x1B4A JUMP JUMPDEST AND CALLER EQ PUSH2 0x86F JUMP JUMPDEST CALLVALUE PUSH2 0x19B JUMPI PUSH0 CALLDATASIZE PUSH1 0x3 NOT ADD SLT PUSH2 0x19B JUMPI PUSH1 0x40 MLOAD PUSH32 0x0 PUSH1 0x1 PUSH1 0x1 PUSH1 0xA0 SHL SUB AND DUP2 MSTORE PUSH1 0x20 SWAP1 RETURN JUMPDEST CALLVALUE PUSH2 0x19B JUMPI PUSH0 CALLDATASIZE PUSH1 0x3 NOT ADD SLT PUSH2 0x19B JUMPI PUSH1 0x40 MLOAD PUSH1 0xE0 DUP2 ADD DUP2 DUP2 LT PUSH8 0xFFFFFFFFFFFFFFFF DUP3 GT OR PUSH2 0xF5A JUMPI PUSH1 0x40 MSTORE PUSH0 DUP2 MSTORE PUSH0 PUSH1 0x20 DUP3 ADD MSTORE PUSH0 PUSH1 0x40 DUP3 ADD MSTORE PUSH0 PUSH1 0x60 DUP3 ADD MSTORE PUSH0 PUSH1 0x80 DUP3 ADD MSTORE PUSH0 PUSH1 0xA0 DUP3 ADD MSTORE PUSH0 PUSH1 0xC0 DUP3 ADD MSTORE PUSH0 SWAP1 PUSH0 SWAP2 PUSH0 SWAP1 PUSH1 0x40 MLOAD SWAP4 DUP5 DUP6 PUSH1 0x20 PUSH1 0x8 SLOAD SWAP3 DUP4 DUP2 MSTORE ADD PUSH1 0x8 PUSH0 MSTORE PUSH32 0xF3F7A9FE364FAAB93B216DA50A3214154F22A0A2B415B23A84C8169E8B636EE3 SWAP3 PUSH0 JUMPDEST DUP2 DUP2 LT PUSH2 0xF38 JUMPI POP POP PUSH2 0xD0B SWAP3 POP SUB DUP7 PUSH2 0x1B28 JUMP JUMPDEST PUSH0 JUMPDEST DUP6 MLOAD DUP2 LT ISZERO PUSH2 0xEBA JUMPI PUSH1 0x1 PUSH1 0x1 PUSH1 0xA0 SHL SUB PUSH2 0xD28 DUP3 DUP9 PUSH2 0x1F0C JUMP JUMPDEST MLOAD AND PUSH1 0x40 MLOAD PUSH4 0x18E521FD PUSH1 0xE2 SHL DUP2 MSTORE DUP2 PUSH1 0x4 DUP3 ADD MSTORE PUSH1 0x20 DUP2 PUSH1 0x24 DUP2 ADDRESS GAS STATICCALL PUSH0 SWAP2 DUP2 PUSH2 0xE86 JUMPI JUMPDEST POP PUSH2 0xE6D JUMPI JUMPDEST POP PUSH0 MSTORE PUSH1 0x6 PUSH1 0x20 MSTORE PUSH1 0x40 PUSH0 KECCAK256 PUSH1 0x7 PUSH1 0x20 MSTORE PUSH1 0x40 PUSH0 KECCAK256 SWAP1 DUP1 SLOAD PUSH2 0xD7A DUP2 PUSH1 0x20 DUP11 ADD MLOAD PUSH2 0x1C7C JUMP JUMPDEST PUSH1 0x20 DUP10 ADD MSTORE DUP3 SLOAD SWAP2 PUSH2 0xD90 DUP4 PUSH1 0x40 DUP12 ADD MLOAD PUSH2 0x1C7C JUMP JUMPDEST PUSH1 0x40 DUP11 ADD MSTORE PUSH0 SWAP2 JUMPDEST DUP1 DUP4 LT PUSH2 0xE1B JUMPI POP POP POP PUSH0 SWAP2 JUMPDEST DUP2 DUP4 LT PUSH2 0xDBD JUMPI POP POP POP PUSH2 0xDB8 SWAP1 PUSH2 0x1BEB JUMP JUMPDEST PUSH2 0xD0D JUMP JUMPDEST SWAP1 SWAP2 SWAP6 SWAP5 PUSH2 0xE0E PUSH2 0xE0E PUSH2 0xE14 SWAP3 PUSH2 0xE08 PUSH2 0xDF7 PUSH2 0xDEA PUSH2 0xDDE DUP14 DUP10 PUSH2 0x1A0B JUMP JUMPDEST SWAP1 SLOAD SWAP1 PUSH1 0x3 SHL SHR PUSH2 0x1AD4 JUMP JUMPDEST POP SWAP10 PUSH1 0x1 DUP12 ADD SLOAD SWAP1 PUSH2 0x1C7C JUMP JUMPDEST SWAP9 PUSH1 0x2 PUSH1 0x3 DUP3 ADD SLOAD SWAP2 ADD SLOAD SWAP1 PUSH2 0x1C89 JUMP JUMPDEST SWAP1 PUSH2 0x1C7C JUMP JUMPDEST SWAP7 PUSH2 0x1BEB JUMP JUMPDEST SWAP2 SWAP1 PUSH2 0xDA5 JUMP JUMPDEST SWAP1 SWAP2 SWAP8 SWAP7 PUSH2 0xE5D PUSH2 0xE5D PUSH2 0xE63 SWAP3 PUSH2 0xE08 PUSH2 0xE4C PUSH2 0xE3F PUSH2 0xDDE DUP16 DUP11 SWAP13 SWAP12 SWAP13 PUSH2 0x1A0B JUMP JUMPDEST POP SWAP12 PUSH1 0x1 DUP14 ADD SLOAD SWAP1 PUSH2 0x1C7C JUMP JUMPDEST SWAP11 PUSH1 0x2 PUSH1 0x3 DUP3 ADD SLOAD SWAP2 ADD SLOAD SWAP1 PUSH2 0x1C89 JUMP JUMPDEST SWAP9 PUSH2 0x1BEB JUMP JUMPDEST SWAP2 SWAP1 SWAP4 SWAP3 SWAP4 PUSH2 0xD98 JUMP JUMPDEST PUSH2 0xE7B SWAP1 PUSH1 0xC0 DUP9 ADD MLOAD PUSH2 0x1C7C JUMP JUMPDEST PUSH1 0xC0 DUP8 ADD MSTORE DUP8 PUSH2 0xD54 JUMP JUMPDEST SWAP1 SWAP2 POP PUSH1 0x20 DUP2 RETURNDATASIZE PUSH1 0x20 GT PUSH2 0xEB2 JUMPI JUMPDEST DUP2 PUSH2 0xEA2 PUSH1 0x20 SWAP4 DUP4 PUSH2 0x1B28 JUMP JUMPDEST DUP2 ADD SUB SLT PUSH2 0x19B JUMPI MLOAD SWAP1 DUP10 PUSH2 0xD4E JUMP JUMPDEST RETURNDATASIZE SWAP2 POP PUSH2 0xE95 JUMP JUMPDEST POP PUSH1 0xC0 DUP5 PUSH1 0xE0 SWAP4 DUP6 DUP1 PUSH1 0xA0 DUP5 ADD MSTORE DUP1 PUSH2 0xF14 JUMPI JUMPDEST POP POP DUP3 DUP2 MSTORE PUSH1 0x40 MLOAD SWAP3 DUP4 MSTORE PUSH1 0x20 DUP2 ADD MLOAD PUSH1 0x20 DUP5 ADD MSTORE PUSH1 0x40 DUP2 ADD MLOAD PUSH1 0x40 DUP5 ADD MSTORE PUSH1 0x60 DUP2 ADD MLOAD PUSH1 0x60 DUP5 ADD MSTORE PUSH1 0x80 DUP2 ADD MLOAD PUSH1 0x80 DUP5 ADD MSTORE PUSH1 0xA0 DUP2 ADD MLOAD PUSH1 0xA0 DUP5 ADD MSTORE ADD MLOAD PUSH1 0xC0 DUP3 ADD MSTORE RETURN JUMPDEST PUSH2 0xF21 DUP2 PUSH2 0xF2C SWAP4 PUSH2 0x1D7C JUMP JUMPDEST PUSH1 0x60 DUP5 ADD MSTORE DUP5 PUSH2 0x1D7C JUMP JUMPDEST PUSH1 0x80 DUP3 ADD MSTORE DUP5 DUP1 PUSH2 0xECE JUMP JUMPDEST DUP5 SLOAD PUSH1 0x1 PUSH1 0x1 PUSH1 0xA0 SHL SUB AND DUP4 MSTORE PUSH1 0x1 SWAP5 DUP6 ADD SWAP5 DUP11 SWAP5 POP PUSH1 0x20 SWAP1 SWAP4 ADD SWAP3 ADD PUSH2 0xCF6 JUMP JUMPDEST PUSH4 0x4E487B71 PUSH1 0xE0 SHL PUSH0 MSTORE PUSH1 0x41 PUSH1 0x4 MSTORE PUSH1 0x24 PUSH0 REVERT JUMPDEST CALLVALUE PUSH2 0x19B JUMPI PUSH0 CALLDATASIZE PUSH1 0x3 NOT ADD SLT PUSH2 0x19B JUMPI PUSH1 0x40 MLOAD DUP1 PUSH1 0x8 SLOAD DUP1 DUP4 MSTORE PUSH1 0x20 DUP1 SWAP4 ADD DUP1 SWAP2 PUSH1 0x8 PUSH0 MSTORE PUSH32 0xF3F7A9FE364FAAB93B216DA50A3214154F22A0A2B415B23A84C8169E8B636EE3 SWAP1 PUSH0 JUMPDEST DUP7 DUP3 DUP3 LT PUSH2 0x1015 JUMPI DUP7 DUP7 PUSH2 0xFCD DUP3 DUP9 SUB DUP4 PUSH2 0x1B28 JUMP JUMPDEST PUSH1 0x40 MLOAD SWAP3 DUP4 SWAP3 DUP2 DUP5 ADD SWAP1 DUP3 DUP6 MSTORE MLOAD DUP1 SWAP2 MSTORE PUSH1 0x40 DUP5 ADD SWAP3 SWAP2 PUSH0 JUMPDEST DUP3 DUP2 LT PUSH2 0xFF5 JUMPI POP POP POP POP SUB SWAP1 RETURN JUMPDEST DUP4 MLOAD PUSH1 0x1 PUSH1 0x1 PUSH1 0xA0 SHL SUB AND DUP6 MSTORE DUP7 SWAP6 POP SWAP4 DUP2 ADD SWAP4 SWAP3 DUP2 ADD SWAP3 PUSH1 0x1 ADD PUSH2 0xFE6 JUMP JUMPDEST DUP4 SLOAD PUSH1 0x1 PUSH1 0x1 PUSH1 0xA0 SHL SUB AND DUP6 MSTORE SWAP1 SWAP4 ADD SWAP3 PUSH1 0x1 SWAP3 DUP4 ADD SWAP3 ADD PUSH2 0xFB7 JUMP JUMPDEST CALLVALUE PUSH2 0x19B JUMPI PUSH1 0x40 CALLDATASIZE PUSH1 0x3 NOT ADD SLT PUSH2 0x19B JUMPI PUSH2 0x104B PUSH2 0x19AC JUMP JUMPDEST PUSH1 0x1 PUSH1 0x1 PUSH1 0xA0 SHL SUB AND PUSH0 SWAP1 DUP2 MSTORE PUSH1 0x6 PUSH1 0x20 MSTORE PUSH1 0x40 SWAP1 KECCAK256 DUP1 SLOAD PUSH1 0x24 CALLDATALOAD SWAP2 SWAP1 DUP3 LT ISZERO PUSH2 0x19B JUMPI PUSH1 0x20 SWAP2 PUSH2 0x726 SWAP2 PUSH2 0x1A0B JUMP JUMPDEST CALLVALUE PUSH2 0x19B JUMPI PUSH1 0x20 DUP1 PUSH1 0x3 NOT CALLDATASIZE ADD SLT PUSH2 0x19B JUMPI PUSH2 0x1095 PUSH2 0x19AC JUMP JUMPDEST PUSH1 0x1 PUSH1 0x1 PUSH1 0xA0 SHL SUB AND PUSH0 DUP2 DUP2 MSTORE PUSH1 0x6 DUP4 MSTORE PUSH1 0x40 DUP1 DUP3 KECCAK256 SWAP1 MLOAD DUP2 SLOAD DUP1 DUP3 MSTORE SWAP2 DUP4 MSTORE DUP5 DUP4 KECCAK256 SWAP1 SWAP5 SWAP3 SWAP4 SWAP2 DUP6 SWAP1 DUP2 DUP6 ADD SWAP1 DUP7 JUMPDEST DUP7 DUP3 DUP3 LT PUSH2 0x1236 JUMPI POP POP POP PUSH2 0x10DC SWAP3 POP SUB DUP6 PUSH2 0x1B28 JUMP JUMPDEST PUSH0 MSTORE PUSH1 0x7 DUP2 MSTORE PUSH1 0x40 PUSH0 KECCAK256 SWAP2 PUSH1 0x40 MLOAD DUP1 DUP5 DUP5 DUP3 SWAP7 SLOAD SWAP4 DUP5 DUP2 MSTORE ADD SWAP1 PUSH0 MSTORE DUP5 PUSH0 KECCAK256 SWAP3 PUSH0 JUMPDEST DUP7 DUP3 DUP3 LT PUSH2 0x1220 JUMPI POP POP POP PUSH2 0x1115 SWAP3 POP SUB DUP5 PUSH2 0x1B28 JUMP JUMPDEST PUSH0 SWAP1 JUMPDEST DUP5 MLOAD DUP3 LT ISZERO PUSH2 0x11AE JUMPI PUSH2 0x113D PUSH2 0x1137 PUSH2 0x1131 DUP5 DUP9 PUSH2 0x1F0C JUMP JUMPDEST MLOAD PUSH2 0x1AD4 JUMP JUMPDEST POP PUSH2 0x1F20 JUMP JUMPDEST PUSH1 0x60 DUP2 ADD DUP5 DUP2 MLOAD NUMBER DUP2 GT PUSH0 EQ PUSH2 0x11A9 JUMPI POP NUMBER JUMPDEST PUSH1 0x40 DUP5 ADD SWAP1 DUP2 MLOAD SWAP1 DUP2 DUP2 GT ISZERO PUSH2 0x1199 JUMPI SWAP3 PUSH2 0x1185 PUSH2 0x118D SWAP7 SWAP4 PUSH2 0x117B PUSH2 0x1193 SWAP10 SWAP8 SWAP5 PUSH2 0xE08 SWAP8 PUSH2 0x1C89 JUMP JUMPDEST SWAP4 MLOAD SWAP1 MLOAD SWAP1 PUSH2 0x1C89 JUMP JUMPDEST SWAP3 ADD MLOAD PUSH2 0x1F6A JUMP JUMPDEST SWAP2 PUSH2 0x1BEB JUMP JUMPDEST SWAP1 PUSH2 0x1118 JUMP JUMPDEST POP POP POP POP POP POP SWAP1 PUSH2 0x1193 SWAP1 PUSH2 0x1BEB JUMP JUMPDEST PUSH2 0x1150 JUMP JUMPDEST PUSH0 SWAP3 SWAP2 POP JUMPDEST DUP4 MLOAD DUP4 LT ISZERO PUSH2 0x1218 JUMPI PUSH2 0x11CC PUSH2 0x1137 PUSH2 0x1131 DUP6 DUP8 PUSH2 0x1F0C JUMP JUMPDEST PUSH1 0x60 DUP2 ADD MLOAD PUSH1 0x40 DUP3 ADD MLOAD SWAP1 DUP2 DUP2 GT ISZERO PUSH2 0x120B JUMPI DUP5 PUSH2 0x11FF SWAP4 PUSH2 0x11F5 PUSH2 0x1205 SWAP7 SWAP5 PUSH2 0xE08 SWAP5 PUSH2 0x1C89 JUMP JUMPDEST SWAP2 DUP3 SWAP2 ADD MLOAD PUSH2 0x1F6A JUMP JUMPDEST SWAP3 PUSH2 0x1BEB JUMP JUMPDEST SWAP2 PUSH2 0x11B3 JUMP JUMPDEST POP POP POP SWAP2 PUSH2 0x1205 SWAP1 PUSH2 0x1BEB JUMP JUMPDEST PUSH1 0x40 MLOAD SWAP1 DUP2 MSTORE RETURN JUMPDEST DUP6 SLOAD DUP5 MSTORE PUSH1 0x1 SWAP6 DUP7 ADD SWAP6 DUP10 SWAP6 POP SWAP4 ADD SWAP3 ADD PUSH2 0x10FE JUMP JUMPDEST DUP6 SLOAD DUP5 MSTORE PUSH1 0x1 SWAP6 DUP7 ADD SWAP6 DUP11 SWAP6 POP SWAP4 ADD SWAP3 ADD PUSH2 0x10C5 JUMP JUMPDEST CALLVALUE PUSH2 0x19B JUMPI PUSH0 CALLDATASIZE PUSH1 0x3 NOT ADD SLT PUSH2 0x19B JUMPI PUSH1 0x20 PUSH1 0x40 MLOAD PUSH32 0x0 DUP2 MSTORE RETURN JUMPDEST CALLVALUE PUSH2 0x19B JUMPI PUSH0 CALLDATASIZE PUSH1 0x3 NOT ADD SLT PUSH2 0x19B JUMPI PUSH1 0x20 PUSH1 0xFF PUSH1 0x4 SLOAD PUSH1 0x8 SHR AND PUSH1 0x40 MLOAD SWAP1 ISZERO ISZERO DUP2 MSTORE RETURN JUMPDEST CALLVALUE PUSH2 0x19B JUMPI PUSH1 0x20 CALLDATASIZE PUSH1 0x3 NOT ADD SLT PUSH2 0x19B JUMPI PUSH2 0x12C4 PUSH2 0x19AC JUMP JUMPDEST PUSH2 0x12CC PUSH2 0x1CBB JUMP JUMPDEST PUSH1 0x1 PUSH1 0x1 PUSH1 0xA0 SHL SUB PUSH32 0x0 CALLER DUP3 DUP3 AND EQ DUP1 ISZERO PUSH2 0x1566 JUMPI JUMPDEST DUP1 ISZERO PUSH2 0x153B JUMPI JUMPDEST PUSH2 0x1311 SWAP1 PUSH2 0x1C40 JUMP JUMPDEST PUSH2 0x1324 PUSH2 0x131C PUSH2 0x1E27 JUMP JUMPDEST DUP2 SWAP3 SWAP2 PUSH2 0x1C7C JUMP JUMPDEST SWAP1 PUSH0 JUMPDEST PUSH1 0x5 SLOAD DUP2 LT ISZERO PUSH2 0xBCF JUMPI PUSH2 0x133A DUP2 PUSH2 0x1AD4 JUMP JUMPDEST POP PUSH1 0x4 DUP2 ADD DUP1 SLOAD PUSH1 0xFF DUP2 AND ISZERO DUP1 PUSH2 0x152D JUMPI JUMPDEST PUSH2 0x1362 JUMPI JUMPDEST POP POP POP PUSH2 0x135D SWAP1 PUSH2 0x1BEB JUMP JUMPDEST PUSH2 0x1327 JUMP JUMPDEST SWAP1 PUSH1 0x1 DUP9 SWAP6 SWAP8 SWAP5 SWAP9 SWAP4 SWAP3 PUSH1 0xFF SWAP11 SWAP8 SWAP11 NOT AND OR SWAP1 SSTORE PUSH1 0x1 DUP2 ADD SLOAD DUP8 PUSH2 0x2710 DUP1 PUSH2 0x138A DUP13 DUP6 PUSH2 0x1D69 JUMP JUMPDEST DIV SWAP1 PUSH2 0x139A DUP11 PUSH2 0x96D DUP5 DUP8 PUSH2 0x1C89 JUMP JUMPDEST DIV PUSH2 0x13A5 DUP2 DUP4 PUSH2 0x1C89 JUMP JUMPDEST SWAP1 DUP1 PUSH2 0x14FA JUMPI JUMPDEST POP DUP1 PUSH2 0x14C7 JUMPI JUMPDEST POP PUSH2 0x13E4 DUP4 DUP7 DUP7 SLOAD AND DUP8 PUSH32 0x0 AND PUSH2 0x1DD7 JUMP JUMPDEST PUSH32 0x7B381718BEC1E0DBC1241809EE9B55F3D783B95880307F002707FAD981FA5069 PUSH1 0x40 DUP7 DUP7 SLOAD AND SWAP5 DUP6 SWAP4 DUP3 MLOAD SWAP2 DUP3 MSTORE PUSH1 0x20 DUP3 ADD MSTORE LOG3 PUSH0 MSTORE PUSH1 0x7 PUSH1 0x20 MSTORE PUSH2 0x142D DUP8 PUSH1 0x40 PUSH0 KECCAK256 PUSH2 0x1C96 JUMP JUMPDEST SLOAD AND PUSH0 MSTORE PUSH1 0x6 PUSH1 0x20 MSTORE PUSH1 0x40 PUSH0 KECCAK256 SWAP6 PUSH0 JUMPDEST DUP8 SLOAD DUP1 DUP3 LT ISZERO PUSH2 0x14B6 JUMPI DUP8 PUSH2 0x1452 DUP4 DUP12 PUSH2 0x1A0B JUMP JUMPDEST SWAP2 SWAP1 SLOAD PUSH1 0x3 SWAP3 DUP4 SHL SHR EQ PUSH2 0x1470 JUMPI POP POP PUSH2 0x146B SWAP1 PUSH2 0x1BEB JUMP JUMPDEST PUSH2 0x143D JUMP JUMPDEST PUSH0 SWAP10 SWAP2 SWAP3 SWAP5 SWAP8 SWAP6 SWAP9 SWAP4 SWAP7 SWAP10 NOT DUP4 ADD SWAP3 DUP4 GT PUSH2 0xA49 JUMPI PUSH2 0x135D SWAP5 PUSH2 0xA23 PUSH2 0x14A9 SWAP3 PUSH2 0x149D PUSH2 0x14AE SWAP7 DUP7 PUSH2 0x1A0B JUMP JUMPDEST SWAP1 SLOAD SWAP2 SHL SHR SWAP2 DUP5 PUSH2 0x1A0B JUMP JUMPDEST PUSH2 0x1D9A JUMP JUMPDEST SWAP1 DUP8 DUP1 PUSH2 0x1351 JUMP JUMPDEST POP POP SWAP3 SWAP6 POP SWAP3 SWAP1 SWAP4 PUSH2 0x135D SWAP1 PUSH2 0x14AE JUMP JUMPDEST PUSH2 0x14F4 SWAP1 DUP10 DUP8 PUSH32 0x0 AND PUSH2 0x1DD7 JUMP JUMPDEST DUP12 PUSH2 0x13B3 JUMP JUMPDEST PUSH2 0x1527 SWAP1 DUP9 DUP9 PUSH32 0x0 AND PUSH2 0x1DD7 JUMP JUMPDEST DUP13 PUSH2 0x13AC JUMP JUMPDEST POP PUSH1 0x3 DUP4 ADD SLOAD NUMBER LT ISZERO PUSH2 0x134C JUMP JUMPDEST POP CALLER PUSH32 0x0 DUP4 AND EQ PUSH2 0x1308 JUMP JUMPDEST POP DUP2 PUSH2 0x1570 PUSH2 0x1B4A JUMP JUMPDEST AND CALLER EQ PUSH2 0x1301 JUMP JUMPDEST CALLVALUE PUSH2 0x19B JUMPI PUSH1 0x20 CALLDATASIZE PUSH1 0x3 NOT ADD SLT PUSH2 0x19B JUMPI PUSH1 0x4 CALLDATALOAD PUSH1 0x2 SLOAD DUP2 LT ISZERO PUSH2 0x19B JUMPI PUSH2 0x789 PUSH1 0x40 SWAP2 PUSH2 0x1A20 JUMP JUMPDEST CALLVALUE PUSH2 0x19B JUMPI PUSH0 CALLDATASIZE PUSH1 0x3 NOT ADD SLT PUSH2 0x19B JUMPI PUSH1 0x20 PUSH1 0x40 MLOAD PUSH32 0x0 DUP2 MSTORE RETURN JUMPDEST CALLVALUE PUSH2 0x19B JUMPI PUSH0 CALLDATASIZE PUSH1 0x3 NOT ADD SLT PUSH2 0x19B JUMPI PUSH1 0x20 PUSH1 0x1 SLOAD PUSH1 0x40 MLOAD SWAP1 DUP2 MSTORE RETURN JUMPDEST CALLVALUE PUSH2 0x19B JUMPI PUSH0 CALLDATASIZE PUSH1 0x3 NOT ADD SLT PUSH2 0x19B JUMPI PUSH1 0x20 PUSH1 0x4 SLOAD PUSH1 0xFF DUP2 AND SWAP1 DUP2 PUSH2 0x1623 JUMPI JUMPDEST POP PUSH1 0x40 MLOAD SWAP1 ISZERO ISZERO DUP2 MSTORE RETURN JUMPDEST PUSH1 0xFF SWAP2 POP PUSH1 0x8 SHR AND ISZERO DUP3 PUSH2 0x1618 JUMP JUMPDEST CALLVALUE PUSH2 0x19B JUMPI PUSH0 CALLDATASIZE PUSH1 0x3 NOT ADD SLT PUSH2 0x19B JUMPI PUSH2 0x1686 PUSH1 0x1 DUP1 PUSH1 0xA0 SHL SUB DUP1 PUSH32 0x0 AND CALLER EQ SWAP1 DUP2 ISZERO PUSH2 0x16E7 JUMPI JUMPDEST DUP2 ISZERO PUSH2 0x16BB JUMPI JUMPDEST POP PUSH2 0x1C40 JUMP JUMPDEST PUSH2 0x100 PUSH2 0xFFFF NOT PUSH1 0x4 SLOAD AND OR PUSH1 0x4 SSTORE PUSH32 0xDF23397AB444D891935A0B305B1552FB235D2BD07043FFC42C6ED3F43A4D8352 PUSH0 DUP1 LOG1 STOP JUMPDEST SWAP1 POP PUSH32 0x0 AND CALLER EQ DUP3 PUSH2 0x1680 JUMP JUMPDEST DUP1 SWAP2 POP PUSH2 0x16F2 PUSH2 0x1B4A JUMP JUMPDEST AND CALLER EQ SWAP1 PUSH2 0x1679 JUMP JUMPDEST CALLVALUE PUSH2 0x19B JUMPI PUSH1 0x20 CALLDATASIZE PUSH1 0x3 NOT ADD SLT PUSH2 0x19B JUMPI PUSH1 0x4 CALLDATALOAD PUSH1 0x1 SLOAD DUP2 LT ISZERO PUSH2 0x19B JUMPI PUSH2 0x726 PUSH1 0x20 SWAP2 PUSH2 0x19C2 JUMP JUMPDEST CALLVALUE PUSH2 0x19B JUMPI PUSH0 CALLDATASIZE PUSH1 0x3 NOT ADD SLT PUSH2 0x19B JUMPI PUSH1 0x20 PUSH1 0x40 MLOAD PUSH32 0x0 DUP2 MSTORE RETURN JUMPDEST CALLVALUE PUSH2 0x19B JUMPI PUSH0 CALLDATASIZE PUSH1 0x3 NOT ADD SLT PUSH2 0x19B JUMPI PUSH1 0x20 PUSH1 0xFF PUSH1 0x4 SLOAD AND PUSH1 0x40 MLOAD SWAP1 ISZERO ISZERO DUP2 MSTORE RETURN JUMPDEST CALLVALUE PUSH2 0x19B JUMPI PUSH1 0x20 DUP1 PUSH1 0x3 NOT CALLDATASIZE ADD SLT PUSH2 0x19B JUMPI PUSH1 0x1 PUSH1 0x1 PUSH1 0xA0 SHL SUB SWAP1 DUP2 PUSH2 0x17A4 PUSH2 0x19AC JUMP JUMPDEST AND DUP1 PUSH0 MSTORE PUSH1 0x6 DUP3 MSTORE PUSH1 0x40 PUSH0 KECCAK256 DUP5 DUP2 SLOAD SWAP2 DUP3 DUP3 MSTORE DUP5 DUP3 ADD SWAP1 PUSH0 MSTORE DUP5 PUSH0 KECCAK256 SWAP3 PUSH0 JUMPDEST DUP7 DUP3 DUP3 LT PUSH2 0x1996 JUMPI POP POP POP PUSH2 0x17DA SWAP3 POP SUB DUP6 PUSH2 0x1B28 JUMP JUMPDEST PUSH0 MSTORE PUSH1 0x7 DUP2 MSTORE PUSH1 0x40 PUSH0 KECCAK256 SWAP1 PUSH1 0x40 MLOAD DUP1 DUP4 DUP4 DUP3 SWAP6 SLOAD SWAP4 DUP5 DUP2 MSTORE ADD SWAP1 PUSH0 MSTORE DUP4 PUSH0 KECCAK256 SWAP3 PUSH0 JUMPDEST DUP6 DUP3 DUP3 LT PUSH2 0x1980 JUMPI POP POP POP PUSH2 0x1813 SWAP3 POP SUB DUP4 PUSH2 0x1B28 JUMP JUMPDEST PUSH2 0x1820 DUP5 MLOAD DUP4 MLOAD SWAP1 PUSH2 0x1C7C JUMP JUMPDEST SWAP2 PUSH2 0x182A DUP4 PUSH2 0x20A6 JUMP JUMPDEST SWAP3 PUSH2 0x1838 PUSH1 0x40 MLOAD SWAP5 DUP6 PUSH2 0x1B28 JUMP JUMPDEST DUP1 DUP5 MSTORE PUSH2 0x1847 PUSH1 0x1F NOT SWAP2 PUSH2 0x20A6 JUMP JUMPDEST ADD DUP3 PUSH0 JUMPDEST DUP3 DUP2 LT PUSH2 0x194C JUMPI POP POP POP PUSH0 JUMPDEST DUP6 MLOAD DUP2 LT ISZERO PUSH2 0x1894 JUMPI DUP1 PUSH2 0x1874 PUSH2 0x1137 PUSH2 0x1131 PUSH2 0x188F SWAP5 DUP11 PUSH2 0x1F0C JUMP JUMPDEST PUSH2 0x187E DUP3 DUP8 PUSH2 0x1F0C JUMP JUMPDEST MSTORE PUSH2 0x1889 DUP2 DUP7 PUSH2 0x1F0C JUMP JUMPDEST POP PUSH2 0x1BEB JUMP JUMPDEST PUSH2 0x1857 JUMP JUMPDEST POP SWAP1 SWAP3 PUSH0 JUMPDEST DUP3 MLOAD DUP2 LT ISZERO PUSH2 0x18E1 JUMPI DUP1 PUSH2 0x1889 PUSH2 0x18B6 PUSH2 0x1131 PUSH2 0x18DC SWAP5 DUP8 PUSH2 0x1F0C JUMP JUMPDEST POP PUSH2 0x18CB PUSH2 0x18C5 DUP5 DUP12 MLOAD PUSH2 0x1C7C JUMP JUMPDEST SWAP2 PUSH2 0x1F20 JUMP JUMPDEST PUSH2 0x18D5 DUP3 DUP10 PUSH2 0x1F0C JUMP JUMPDEST MSTORE DUP7 PUSH2 0x1F0C JUMP JUMPDEST PUSH2 0x1899 JUMP JUMPDEST POP DUP4 DUP4 PUSH1 0x40 MLOAD SWAP2 DUP1 DUP4 ADD DUP2 DUP5 MSTORE DUP3 MLOAD DUP1 SWAP2 MSTORE DUP2 PUSH1 0x40 DUP6 ADD SWAP4 ADD SWAP2 PUSH0 JUMPDEST DUP3 DUP2 LT PUSH2 0x190A JUMPI DUP6 DUP6 SUB DUP7 RETURN JUMPDEST DUP4 MLOAD DUP1 MLOAD DUP9 AND DUP7 MSTORE DUP1 DUP4 ADD MLOAD DUP7 DUP5 ADD MSTORE PUSH1 0x40 DUP1 DUP3 ADD MLOAD SWAP1 DUP8 ADD MSTORE PUSH1 0x60 DUP1 DUP3 ADD MLOAD SWAP1 DUP8 ADD MSTORE PUSH1 0x80 SWAP1 DUP2 ADD MLOAD ISZERO ISZERO SWAP1 DUP7 ADD MSTORE PUSH1 0xA0 SWAP1 SWAP5 ADD SWAP4 SWAP3 DUP2 ADD SWAP3 PUSH1 0x1 ADD PUSH2 0x18FD JUMP JUMPDEST PUSH1 0x40 MLOAD PUSH2 0x1958 DUP2 PUSH2 0x1B0C JUMP JUMPDEST PUSH0 DUP2 MSTORE PUSH0 DUP4 DUP3 ADD MSTORE PUSH0 PUSH1 0x40 DUP3 ADD MSTORE PUSH0 PUSH1 0x60 DUP3 ADD MSTORE PUSH0 PUSH1 0x80 DUP3 ADD MSTORE DUP3 DUP3 DUP9 ADD ADD MSTORE ADD DUP4 SWAP1 PUSH2 0x184B JUMP JUMPDEST DUP6 SLOAD DUP5 MSTORE PUSH1 0x1 SWAP6 DUP7 ADD SWAP6 DUP9 SWAP6 POP SWAP4 ADD SWAP3 ADD PUSH2 0x17FC JUMP JUMPDEST DUP6 SLOAD DUP5 MSTORE PUSH1 0x1 SWAP6 DUP7 ADD SWAP6 DUP11 SWAP6 POP SWAP4 ADD SWAP3 ADD PUSH2 0x17C3 JUMP JUMPDEST PUSH1 0x4 CALLDATALOAD SWAP1 PUSH1 0x1 PUSH1 0x1 PUSH1 0xA0 SHL SUB DUP3 AND DUP3 SUB PUSH2 0x19B JUMPI JUMP JUMPDEST PUSH1 0x1 SLOAD DUP2 LT ISZERO PUSH2 0x19F7 JUMPI PUSH1 0x1 PUSH0 MSTORE PUSH32 0xB10E2D527612073B26EECDFD717E6A320CF44B4AFAC2B0732D9FCBE2B7FA0CF6 ADD SWAP1 PUSH0 SWAP1 JUMP JUMPDEST PUSH4 0x4E487B71 PUSH1 0xE0 SHL PUSH0 MSTORE PUSH1 0x32 PUSH1 0x4 MSTORE PUSH1 0x24 PUSH0 REVERT JUMPDEST DUP1 SLOAD DUP3 LT ISZERO PUSH2 0x19F7 JUMPI PUSH0 MSTORE PUSH1 0x20 PUSH0 KECCAK256 ADD SWAP1 PUSH0 SWAP1 JUMP JUMPDEST PUSH1 0x2 SLOAD DUP2 LT ISZERO PUSH2 0x19F7 JUMPI PUSH1 0x2 PUSH0 MSTORE PUSH1 0x1 SHL PUSH32 0x405787FA12A823E0F2B7631CC41B3BA8828B3321CA811111FA75CD3AA3BB5ACE ADD SWAP1 PUSH0 SWAP1 JUMP JUMPDEST PUSH1 0x3 SLOAD DUP2 LT ISZERO PUSH2 0x19F7 JUMPI PUSH1 0x3 PUSH0 MSTORE PUSH1 0x1 SHL PUSH32 0xC2575A0E9E593C00F959F8C92F12DB2869C3395A3B0502D05E2516446F71F85B ADD SWAP1 PUSH0 SWAP1 JUMP JUMPDEST CALLVALUE PUSH2 0x19B JUMPI PUSH0 CALLDATASIZE PUSH1 0x3 NOT ADD SLT PUSH2 0x19B JUMPI PUSH1 0x40 MLOAD PUSH32 0x0 PUSH1 0x1 PUSH1 0x1 PUSH1 0xA0 SHL SUB AND DUP2 MSTORE PUSH1 0x20 SWAP1 RETURN JUMPDEST PUSH1 0x5 SLOAD DUP2 LT ISZERO PUSH2 0x19F7 JUMPI PUSH1 0x5 SWAP1 DUP2 PUSH0 MSTORE MUL PUSH32 0x36B6384B5ECA791C62761152D0C79BB0604C104A5FB6F4EB0703F3154BB3DB0 ADD SWAP1 PUSH0 SWAP1 JUMP JUMPDEST PUSH1 0xA0 DUP2 ADD SWAP1 DUP2 LT PUSH8 0xFFFFFFFFFFFFFFFF DUP3 GT OR PUSH2 0xF5A JUMPI PUSH1 0x40 MSTORE JUMP JUMPDEST SWAP1 PUSH1 0x1F DUP1 NOT SWAP2 ADD AND DUP2 ADD SWAP1 DUP2 LT PUSH8 0xFFFFFFFFFFFFFFFF DUP3 GT OR PUSH2 0xF5A JUMPI PUSH1 0x40 MSTORE JUMP JUMPDEST PUSH1 0x40 MLOAD PUSH4 0x7CC70035 PUSH1 0xE1 SHL DUP2 MSTORE PUSH1 0x1 PUSH1 0x1 PUSH1 0xA0 SHL SUB SWAP1 PUSH1 0x20 DUP2 PUSH1 0x4 DUP2 PUSH32 0x0 DUP7 AND GAS STATICCALL SWAP1 DUP2 ISZERO PUSH2 0x1BE0 JUMPI PUSH0 SWAP2 PUSH2 0x1B9F JUMPI JUMPDEST POP SWAP1 POP SWAP1 JUMP JUMPDEST PUSH1 0x20 DUP2 RETURNDATASIZE DUP3 GT PUSH2 0x1BD8 JUMPI JUMPDEST DUP2 PUSH2 0x1BB7 PUSH1 0x20 SWAP4 DUP4 PUSH2 0x1B28 JUMP JUMPDEST DUP2 ADD SUB SLT PUSH2 0x1BD4 JUMPI MLOAD SWAP2 DUP3 AND DUP3 SUB PUSH2 0x1BD1 JUMPI POP DUP1 PUSH0 PUSH2 0x1B99 JUMP JUMPDEST DUP1 REVERT JUMPDEST POP DUP1 REVERT JUMPDEST RETURNDATASIZE SWAP2 POP PUSH2 0x1BAA JUMP JUMPDEST PUSH1 0x40 MLOAD RETURNDATASIZE PUSH0 DUP3 RETURNDATACOPY RETURNDATASIZE SWAP1 REVERT JUMPDEST PUSH0 NOT DUP2 EQ PUSH2 0xA49 JUMPI PUSH1 0x1 ADD SWAP1 JUMP JUMPDEST PUSH1 0x1 DUP1 SLOAD SWAP2 DUP3 ISZERO PUSH2 0x1B99 JUMPI PUSH0 JUMPDEST DUP4 DUP2 LT PUSH2 0x1C15 JUMPI POP POP POP POP PUSH0 SWAP1 JUMP JUMPDEST DUP2 PUSH2 0x1C1F DUP3 PUSH2 0x19C2 JUMP JUMPDEST SWAP1 SLOAD SWAP1 PUSH1 0x3 SHL SHR EQ PUSH2 0x1C39 JUMPI PUSH2 0x1C34 SWAP1 PUSH2 0x1BEB JUMP JUMPDEST PUSH2 0x1C06 JUMP JUMPDEST POP POP SWAP1 POP SWAP1 JUMP JUMPDEST ISZERO PUSH2 0x1C47 JUMPI JUMP JUMPDEST PUSH1 0x40 MLOAD PUSH3 0x461BCD PUSH1 0xE5 SHL DUP2 MSTORE PUSH1 0x20 PUSH1 0x4 DUP3 ADD MSTORE PUSH1 0xD PUSH1 0x24 DUP3 ADD MSTORE PUSH13 0x1BDB9B1E481C1C9BDD1BD8DBDB PUSH1 0x9A SHL PUSH1 0x44 DUP3 ADD MSTORE PUSH1 0x64 SWAP1 REVERT JUMPDEST SWAP2 SWAP1 DUP3 ADD DUP1 SWAP3 GT PUSH2 0xA49 JUMPI JUMP JUMPDEST SWAP2 SWAP1 DUP3 SUB SWAP2 DUP3 GT PUSH2 0xA49 JUMPI JUMP JUMPDEST SWAP1 DUP2 SLOAD SWAP2 PUSH1 0x1 PUSH1 0x40 SHL DUP4 LT ISZERO PUSH2 0xF5A JUMPI DUP3 PUSH2 0xA23 SWAP2 PUSH1 0x1 PUSH2 0x1CB9 SWAP6 ADD DUP2 SSTORE PUSH2 0x1A0B JUMP JUMPDEST JUMP JUMPDEST PUSH1 0x2 PUSH0 SLOAD EQ PUSH2 0x1CCA JUMPI PUSH1 0x2 PUSH0 SSTORE JUMP JUMPDEST PUSH1 0x40 MLOAD PUSH3 0x461BCD PUSH1 0xE5 SHL DUP2 MSTORE PUSH1 0x20 PUSH1 0x4 DUP3 ADD MSTORE PUSH1 0x1F PUSH1 0x24 DUP3 ADD MSTORE PUSH32 0x5265656E7472616E637947756172643A207265656E7472616E742063616C6C00 PUSH1 0x44 DUP3 ADD MSTORE PUSH1 0x64 SWAP1 REVERT JUMPDEST SWAP1 PUSH0 PUSH1 0x20 SWAP2 DUP3 DUP2 MLOAD SWAP2 ADD DUP3 DUP6 GAS CALL ISZERO PUSH2 0x1BE0 JUMPI PUSH0 MLOAD RETURNDATASIZE PUSH2 0x1D60 JUMPI POP PUSH1 0x1 PUSH1 0x1 PUSH1 0xA0 SHL SUB DUP2 AND EXTCODESIZE ISZERO JUMPDEST PUSH2 0x1D3E JUMPI POP JUMP JUMPDEST PUSH1 0x40 MLOAD PUSH4 0x5274AFE7 PUSH1 0xE0 SHL DUP2 MSTORE PUSH1 0x1 PUSH1 0x1 PUSH1 0xA0 SHL SUB SWAP1 SWAP2 AND PUSH1 0x4 DUP3 ADD MSTORE PUSH1 0x24 SWAP1 REVERT JUMPDEST PUSH1 0x1 EQ ISZERO PUSH2 0x1D37 JUMP JUMPDEST DUP2 DUP2 MUL SWAP3 SWAP2 DUP2 ISZERO SWAP2 DUP5 DIV EQ OR ISZERO PUSH2 0xA49 JUMPI JUMP JUMPDEST DUP2 ISZERO PUSH2 0x1D86 JUMPI DIV SWAP1 JUMP JUMPDEST PUSH4 0x4E487B71 PUSH1 0xE0 SHL PUSH0 MSTORE PUSH1 0x12 PUSH1 0x4 MSTORE PUSH1 0x24 PUSH0 REVERT JUMPDEST DUP1 SLOAD SWAP1 DUP2 ISZERO PUSH2 0x1DC3 JUMPI PUSH0 NOT SWAP2 DUP3 ADD SWAP2 PUSH2 0x1DB3 DUP4 DUP4 PUSH2 0x1A0B JUMP JUMPDEST SWAP1 SWAP2 DUP3 SLOAD SWAP2 PUSH1 0x3 SHL SHL NOT AND SWAP1 SSTORE SSTORE JUMP JUMPDEST PUSH4 0x4E487B71 PUSH1 0xE0 SHL PUSH0 MSTORE PUSH1 0x31 PUSH1 0x4 MSTORE PUSH1 0x24 PUSH0 REVERT JUMPDEST PUSH1 0x40 MLOAD PUSH4 0xA9059CBB PUSH1 0xE0 SHL PUSH1 0x20 DUP3 ADD MSTORE PUSH1 0x1 PUSH1 0x1 PUSH1 0xA0 SHL SUB SWAP1 SWAP3 AND PUSH1 0x24 DUP4 ADD MSTORE PUSH1 0x44 DUP1 DUP4 ADD SWAP4 SWAP1 SWAP4 MSTORE SWAP2 DUP2 MSTORE PUSH1 0x80 DUP2 ADD SWAP2 PUSH8 0xFFFFFFFFFFFFFFFF DUP4 GT DUP3 DUP5 LT OR PUSH2 0xF5A JUMPI PUSH2 0x1CB9 SWAP3 PUSH1 0x40 MSTORE PUSH2 0x1D0F JUMP JUMPDEST PUSH1 0x40 MLOAD PUSH4 0x18BF7417 PUSH1 0xE3 SHL DUP2 MSTORE PUSH1 0x20 SWAP2 SWAP1 PUSH32 0x0 PUSH1 0x1 PUSH1 0x1 PUSH1 0xA0 SHL SUB AND SWAP1 DUP4 DUP2 PUSH1 0x4 DUP2 DUP6 GAS STATICCALL SWAP2 DUP3 ISZERO PUSH2 0x1BE0 JUMPI DUP5 SWAP2 PUSH0 SWAP4 PUSH2 0x1ED9 JUMPI JUMPDEST POP PUSH1 0x40 MLOAD PUSH4 0xF25E78B1 PUSH1 0xE0 SHL DUP2 MSTORE SWAP2 SWAP1 DUP3 SWAP1 PUSH1 0x4 SWAP1 DUP3 SWAP1 GAS STATICCALL SWAP4 DUP5 ISZERO PUSH2 0x1BE0 JUMPI PUSH0 SWAP5 PUSH2 0x1EA8 JUMPI JUMPDEST POP POP SWAP2 SWAP1 JUMP JUMPDEST DUP2 DUP2 SWAP6 SWAP3 SWAP4 SWAP6 RETURNDATASIZE DUP4 GT PUSH2 0x1ED2 JUMPI JUMPDEST PUSH2 0x1EC0 DUP2 DUP4 PUSH2 0x1B28 JUMP JUMPDEST DUP2 ADD SUB SLT PUSH2 0x1BD1 JUMPI POP MLOAD SWAP2 PUSH0 DUP1 PUSH2 0x1EA2 JUMP JUMPDEST POP RETURNDATASIZE PUSH2 0x1EB6 JUMP JUMPDEST SWAP2 DUP3 DUP2 SWAP5 SWAP3 SWAP5 RETURNDATASIZE DUP4 GT PUSH2 0x1F05 JUMPI JUMPDEST PUSH2 0x1EF1 DUP2 DUP4 PUSH2 0x1B28 JUMP JUMPDEST DUP2 ADD SUB SLT PUSH2 0x1BD1 JUMPI POP MLOAD SWAP1 DUP4 SWAP1 PUSH1 0x4 PUSH2 0x1E7B JUMP JUMPDEST POP RETURNDATASIZE PUSH2 0x1EE7 JUMP JUMPDEST DUP1 MLOAD DUP3 LT ISZERO PUSH2 0x19F7 JUMPI PUSH1 0x20 SWAP2 PUSH1 0x5 SHL ADD ADD SWAP1 JUMP JUMPDEST SWAP1 PUSH1 0x40 MLOAD PUSH2 0x1F2D DUP2 PUSH2 0x1B0C JUMP JUMPDEST DUP3 SLOAD PUSH1 0x1 PUSH1 0x1 PUSH1 0xA0 SHL SUB AND DUP2 MSTORE PUSH1 0x1 DUP4 ADD SLOAD PUSH1 0x20 DUP3 ADD MSTORE PUSH1 0x2 DUP4 ADD SLOAD PUSH1 0x40 DUP3 ADD MSTORE PUSH1 0x3 DUP4 ADD SLOAD PUSH1 0x60 DUP3 ADD MSTORE PUSH1 0x4 SWAP1 SWAP3 ADD SLOAD PUSH1 0xFF AND ISZERO ISZERO PUSH1 0x80 DUP4 ADD MSTORE JUMP JUMPDEST SWAP1 PUSH32 0x0 PUSH0 DUP1 DUP3 SLT PUSH2 0x206A JUMPI POP PUSH2 0x1FA2 PUSH2 0x1FA7 SWAP3 DUP5 PUSH2 0x1D69 JUMP JUMPDEST PUSH2 0x1D69 JUMP JUMPDEST SWAP1 SWAP2 JUMPDEST PUSH2 0x2710 SWAP1 PUSH0 PUSH1 0x2 SLOAD SWAP2 JUMPDEST DUP3 DUP3 LT PUSH2 0x2029 JUMPI JUMPDEST POP POP POP PUSH2 0x2710 SWAP1 PUSH0 PUSH1 0x3 SLOAD SWAP5 JUMPDEST DUP6 DUP3 LT PUSH2 0x1FF2 JUMPI JUMPDEST POP POP PUSH2 0x2710 SWAP4 POP PUSH2 0x1FE7 PUSH2 0x1FEE SWAP4 SWAP3 DUP6 SWAP3 PUSH2 0x1D69 JUMP JUMPDEST DIV SWAP1 PUSH2 0x1D69 JUMP JUMPDEST DIV SWAP1 JUMP JUMPDEST SWAP1 SWAP3 PUSH2 0x1FFD DUP5 PUSH2 0x1A58 JUMP JUMPDEST POP SLOAD DUP3 LT PUSH2 0x2023 JUMPI POP PUSH2 0x201D PUSH1 0x1 PUSH2 0x2014 DUP6 PUSH2 0x1A58 JUMP JUMPDEST POP ADD SLOAD SWAP4 PUSH2 0x1BEB JUMP JUMPDEST SWAP1 PUSH2 0x1FC9 JUMP JUMPDEST SWAP3 PUSH2 0x1FD1 JUMP JUMPDEST SWAP1 SWAP2 SWAP5 SWAP4 SWAP3 PUSH2 0x2037 DUP4 PUSH2 0x1A20 JUMP JUMPDEST POP SLOAD DUP3 LT PUSH2 0x2062 JUMPI POP PUSH2 0x2057 PUSH1 0x1 PUSH2 0x204E DUP5 PUSH2 0x1A20 JUMP JUMPDEST POP ADD SLOAD SWAP3 PUSH2 0x1BEB JUMP JUMPDEST SWAP1 SWAP5 SWAP2 SWAP3 SWAP4 SWAP5 PUSH2 0x1FB4 JUMP JUMPDEST SWAP3 SWAP4 SWAP5 PUSH2 0x1FBC JUMP JUMPDEST PUSH1 0x1 PUSH1 0xFF SHL DUP3 EQ PUSH2 0x2092 JUMPI PUSH2 0x208B SWAP3 SWAP2 PUSH2 0x2086 SWAP2 SUB SWAP2 DUP5 PUSH2 0x1D69 JUMP JUMPDEST PUSH2 0x1D7C JUMP JUMPDEST SWAP1 SWAP2 PUSH2 0x1FAA JUMP JUMPDEST PUSH4 0x4E487B71 PUSH1 0xE0 SHL DUP2 MSTORE PUSH1 0x11 PUSH1 0x4 MSTORE PUSH1 0x24 SWAP1 REVERT JUMPDEST PUSH8 0xFFFFFFFFFFFFFFFF DUP2 GT PUSH2 0xF5A JUMPI PUSH1 0x5 SHL PUSH1 0x20 ADD SWAP1 JUMP INVALID LOG2 PUSH5 0x6970667358 0x22 SLT KECCAK256 0x2C 0xAD 0xFC 0xE7 PUSH7 0x6079ED219DE929 0xBE SWAP16 0xF7 0xBD 0x2D 0xD3 0x27 0xAB MSTORE 0xC1 PUSH17 0x9A5135BDE21594B8C764736F6C63430008 EQ STOP CALLER LOG2 PUSH5 0x6970667358 0x22 SLT KECCAK256 DUP14 RETURNDATASIZE PUSH3 0x646A85 CHAINID 0xC8 0xEB PUSH9 0x2F1EC4E37B1E464EB2 0xF8 0x2B 0xD1 0xB9 SIGNEXTEND SELFDESTRUCT CALLDATACOPY 0xE 0xED PUSH13 0xE6272664736F6C634300081400 CALLER "
		},
		"gasEstimates": {
			"creation": {
				"codeDepositCost": "2755600",
				"executionCost": "infinite",
				"totalCost": "infinite"
			},
			"external": {
				"allVaults(uint256)": "6661",
				"approvedRouter()": "2515",
				"callerFeeBP()": "2474",
				"closeVault(address)": "infinite",
				"createVault(address,uint256,uint256,int256,uint256[],(uint256,uint256)[],(uint256,uint256)[])": "infinite",
				"getAllVaults()": "infinite",
				"getVaultByToken(address)": "2549",
				"getVaultsPaginated(uint256,uint256)": "infinite",
				"protocol()": "2319",
				"protocolFeeBP()": "2430",
				"setApprovedRouter(address)": "26729",
				"setFees(uint256,uint256)": "48794"
			}
		},
		"methodIdentifiers": {
			"allVaults(uint256)": "9094a91e",
			"approvedRouter()": "f98e006a",
			"callerFeeBP()": "f25e78b1",
			"closeVault(address)": "c99cb2b7",
			"createVault(address,uint256,uint256,int256,uint256[],(uint256,uint256)[],(uint256,uint256)[])": "a444477b",
			"getAllVaults()": "97331bf9",
			"getVaultByToken(address)": "b1e3a941",
			"getVaultsPaginated(uint256,uint256)": "0e5dee45",
			"protocol()": "8ce74426",
			"protocolFeeBP()": "c5fba0b8",
			"setApprovedRouter(address)": "c5c2853d",
			"setFees(uint256,uint256)": "0b78f9c0"
		}
	},
	"abi": [
		{
			"inputs": [
				{
					"internalType": "address",
					"name": "_protocol",
					"type": "address"
				}
			],
			"stateMutability": "nonpayable",
			"type": "constructor"
		},
		{
			"anonymous": false,
			"inputs": [
				{
					"indexed": true,
					"internalType": "address",
					"name": "vault",
					"type": "address"
				}
			],
			"name": "VaultClosedByFactory",
			"type": "event"
		},
		{
			"anonymous": false,
			"inputs": [
				{
					"indexed": true,
					"internalType": "address",
					"name": "token",
					"type": "address"
				},
				{
					"indexed": false,
					"internalType": "address",
					"name": "vault",
					"type": "address"
				}
			],
			"name": "VaultCreated",
			"type": "event"
		},
		{
			"inputs": [
				{
					"internalType": "uint256",
					"name": "",
					"type": "uint256"
				}
			],
			"name": "allVaults",
			"outputs": [
				{
					"internalType": "address",
					"name": "",
					"type": "address"
				}
			],
			"stateMutability": "view",
			"type": "function"
		},
		{
			"inputs": [],
			"name": "approvedRouter",
			"outputs": [
				{
					"internalType": "address",
					"name": "",
					"type": "address"
				}
			],
			"stateMutability": "view",
			"type": "function"
		},
		{
			"inputs": [],
			"name": "callerFeeBP",
			"outputs": [
				{
					"internalType": "uint256",
					"name": "",
					"type": "uint256"
				}
			],
			"stateMutability": "view",
			"type": "function"
		},
		{
			"inputs": [
				{
					"internalType": "address",
					"name": "vaultAddr",
					"type": "address"
				}
			],
			"name": "closeVault",
			"outputs": [],
			"stateMutability": "nonpayable",
			"type": "function"
		},
		{
			"inputs": [
				{
					"internalType": "address",
					"name": "token",
					"type": "address"
				},
				{
					"internalType": "uint256",
					"name": "minDeposit",
					"type": "uint256"
				},
				{
					"internalType": "uint256",
					"name": "maxDeposit",
					"type": "uint256"
				},
				{
					"internalType": "int256",
					"name": "xpRate",
					"type": "int256"
				},
				{
					"internalType": "uint256[]",
					"name": "presetTimes",
					"type": "uint256[]"
				},
				{
					"components": [
						{
							"internalType": "uint256",
							"name": "minBlocks",
							"type": "uint256"
						},
						{
							"internalType": "uint256",
							"name": "multiplierBP",
							"type": "uint256"
						}
					],
					"internalType": "struct YunaVaultFactory.TimeMultiplierIn[]",
					"name": "timeMultipliers",
					"type": "tuple[]"
				},
				{
					"components": [
						{
							"internalType": "uint256",
							"name": "minAmount",
							"type": "uint256"
						},
						{
							"internalType": "uint256",
							"name": "multiplierBP",
							"type": "uint256"
						}
					],
					"internalType": "struct YunaVaultFactory.AmountMultiplierIn[]",
					"name": "amountMultipliers",
					"type": "tuple[]"
				}
			],
			"name": "createVault",
			"outputs": [
				{
					"internalType": "address",
					"name": "vaultAddr",
					"type": "address"
				}
			],
			"stateMutability": "nonpayable",
			"type": "function"
		},
		{
			"inputs": [],
			"name": "getAllVaults",
			"outputs": [
				{
					"internalType": "address[]",
					"name": "",
					"type": "address[]"
				}
			],
			"stateMutability": "view",
			"type": "function"
		},
		{
			"inputs": [
				{
					"internalType": "address",
					"name": "token",
					"type": "address"
				}
			],
			"name": "getVaultByToken",
			"outputs": [
				{
					"internalType": "address",
					"name": "",
					"type": "address"
				}
			],
			"stateMutability": "view",
			"type": "function"
		},
		{
			"inputs": [
				{
					"internalType": "uint256",
					"name": "offset",
					"type": "uint256"
				},
				{
					"internalType": "uint256",
					"name": "limit",
					"type": "uint256"
				}
			],
			"name": "getVaultsPaginated",
			"outputs": [
				{
					"internalType": "address[]",
					"name": "page",
					"type": "address[]"
				}
			],
			"stateMutability": "view",
			"type": "function"
		},
		{
			"inputs": [],
			"name": "protocol",
			"outputs": [
				{
					"internalType": "address",
					"name": "",
					"type": "address"
				}
			],
			"stateMutability": "view",
			"type": "function"
		},
		{
			"inputs": [],
			"name": "protocolFeeBP",
			"outputs": [
				{
					"internalType": "uint256",
					"name": "",
					"type": "uint256"
				}
			],
			"stateMutability": "view",
			"type": "function"
		},
		{
			"inputs": [
				{
					"internalType": "address",
					"name": "_router",
					"type": "address"
				}
			],
			"name": "setApprovedRouter",
			"outputs": [],
			"stateMutability": "nonpayable",
			"type": "function"
		},
		{
			"inputs": [
				{
					"internalType": "uint256",
					"name": "_protocolFeeBP",
					"type": "uint256"
				},
				{
					"internalType": "uint256",
					"name": "_callerFeeBP",
					"type": "uint256"
				}
			],
			"name": "setFees",
			"outputs": [],
			"stateMutability": "nonpayable",
			"type": "function"
		}
	]
}