{
	"data": {
		"bytecode": {
			"linkReferences": {},
			"object": "60e060409080825234620001f95781816200142d8038038091620000248285620001fd565b833981010312620001f957620000486020620000408362000235565b920162000235565b905f91600183553315620001e15760018054336001600160a01b031982168117909255855193602093859360049385936001600160a01b039392849283167f8be0079c531659141344cd1fd0a4f28419497f9722a3daafe3b4186f6b6457e08c80a3166080521660a081905263313ce56760e01b82525afa8015620001d757829062000190575b60ff915016604d81116200017c57600a0a90630bebc200918083029283040362000168575061cd50900460c05243600355516111e290816200024b82396080518181816101a8015281816105e9015281816107060152818161095c0152610b2f015260a051818181610244015281816107640152610dfb015260c05181818161058301528181610e6b015281816110d501526111820152f35b634e487b7160e01b81526011600452602490fd5b634e487b7160e01b82526011600452602482fd5b506020813d8211620001ce575b81620001ac60209383620001fd565b81010312620001ca575160ff81168103620001ca5760ff90620000cf565b5080fd5b3d91506200019d565b83513d84823e3d90fd5b8351631e4fbdf760e01b815260048101849052602490fd5b5f80fd5b601f909101601f19168101906001600160401b038211908210176200022157604052565b634e487b7160e01b5f52604160045260245ffd5b51906001600160a01b0382168203620001f95756fe60406080815260049081361015610014575f80fd5b5f91823560e01c9081632e1a7d4d146109055781632f4f21e21461089257816335c1d34914610851578163362f04c01461083257816345114ee5146107355781635fcbd285146106f1578163715018a61461069457816371bf862314610677578163853828b6146105a65781638ae39cac1461056b5781638da5cb5b14610542578163a87430ba146104f4578163a9f8d181146104d5578163aa93bfa8146104b7578163b6b55f2514610490578163c0d78655146103eb578163d1058e59146103c0578163e7a0fb9b146103a3578163e950342514610376578163e9e7eb3514610303578163f2fde38b14610273578163f7c618c11461022f578163f7e4cd0d1461017957508063f887ea40146101515763fc7039e014610133575f80fd5b3461014d578160031936011261014d576020905160328152f35b5080fd5b503461014d578160031936011261014d5760025490516001600160a01b039091168152602090f35b9190503461021957826003193601126102195780516370a0823160e01b815230928101929092526020826024817f00000000000000000000000000000000000000000000000000000000000000006001600160a01b03165afa9182156102255783926101ea575b6020838351908152f35b9091506020813d821161021d575b8161020560209383610c52565b81010312610219576020925051905f6101e0565b8280fd5b3d91506101f8565b81513d85823e3d90fd5b50503461014d578160031936011261014d57517f00000000000000000000000000000000000000000000000000000000000000006001600160a01b03168152602090f35b9050346102195760203660031901126102195761028e6109bf565b90610297610a22565b6001600160a01b039182169283156102ed575050600154826bffffffffffffffffffffffff60a01b821617600155167f8be0079c531659141344cd1fd0a4f28419497f9722a3daafe3b4186f6b6457e08380a380f35b51631e4fbdf760e01b8152908101849052602490fd5b50503461014d57602036600319011261014d5760209181906001600160a01b0361032b6109bf565b16815260058452209060028201549160018101548061034d575b505051908152f35b61036e9293916103606103689243610cd9565b905490610ce6565b90610aa2565b905f80610345565b50503461014d57602036600319011261014d5760209061039c6103976109bf565b611079565b9051908152f35b50503461014d578160031936011261014d5760209061039c61116a565b83346103e857806003193601126103e8576103d9610a4e565b6103e1610df9565b6001815580f35b80fd5b91905034610219576020366003190112610219576104076109bf565b61040f610a22565b6001600160a01b031691821561045f5750600280546001600160a01b03191683179055519081527fc6b438e6a8a59579ce6a4406cbd203b740e0d47b458aae6596339bcd40c40d1590602090a180f35b6020606492519162461bcd60e51b8352820152600c60248201526b7a65726f206164647265737360a01b6044820152fd5b83903461014d57602036600319011261014d576103e1906104af610a4e565b353333610ac3565b90503461021957826003193601126102195760209250549051908152f35b50503461014d578160031936011261014d576020906003549051908152f35b50503461014d57602036600319011261014d5760609181906001600160a01b0361051c6109bf565b168152600560205220805491600260018301549201549181519384526020840152820152f35b50503461014d578160031936011261014d5760015490516001600160a01b039091168152602090f35b50503461014d578160031936011261014d57602090517f00000000000000000000000000000000000000000000000000000000000000008152f35b919050346102195782600319360112610219576105c1610a4e565b3383526005602052808320805492831561063e575083906105e133610cf9565b5561060d82337f0000000000000000000000000000000000000000000000000000000000000000610d7b565b519081527f7084f5476618d8e60b11ef0d7d3f06914655adb8793e28ff7f018d4c76d505d560203392a26001815580f35b606490602084519162461bcd60e51b835282015260136024820152726e6f7468696e6720746f20776974686472617760681b6044820152fd5b50503461014d578160031936011261014d57602090516127108152f35b83346103e857806003193601126103e8576106ad610a22565b600180546001600160a01b0319811690915581906001600160a01b03167f8be0079c531659141344cd1fd0a4f28419497f9722a3daafe3b4186f6b6457e08280a380f35b50503461014d578160031936011261014d57517f00000000000000000000000000000000000000000000000000000000000000006001600160a01b03168152602090f35b8391503461014d578160031936011261014d57610750610a22565b82516370a0823160e01b81523082820152907f0000000000000000000000000000000000000000000000000000000000000000906001600160a01b03906020846024818587165afa9384156108285785946107f1575b5083156107c157506107be9394506001541690610d7b565b80f35b606490602087519162461bcd60e51b8352820152600a6024820152696e6f207265776172647360b01b6044820152fd5b9093506020813d8211610820575b8161080c60209383610c52565b8101031261081c575192866107a6565b8480fd5b3d91506107ff565b86513d87823e3d90fd5b50503461014d578160031936011261014d576020906006549051908152f35b9050346102195760203660031901126102195735916006548310156103e8575061087c6020926109d9565b905491519160018060a01b039160031b1c168152f35b9050346102195781600319360112610219576108ac6109bf565b916108b5610a4e565b6002546001600160a01b031633036108d557836103e16024358533610ac3565b906020606492519162461bcd60e51b8352820152600a6024820152693737ba103937baba32b960b11b6044820152fd5b9190503461021957602036600319011261021957813591610924610a4e565b338452600560205281842090831515806109b4575b15610980575061094833610cf9565b610953838254610cd9565b905561060d82337f0000000000000000000000000000000000000000000000000000000000000000610d7b565b606490602084519162461bcd60e51b8352820152600e60248201526d1a5b9d985b1a5908185b5bdd5b9d60921b6044820152fd5b508154841115610939565b600435906001600160a01b03821682036109d557565b5f80fd5b600654811015610a0e5760065f527ff652222313e28459528d920b65115c16c04f3efc82aaedc97be59f3f377c0d3f01905f90565b634e487b7160e01b5f52603260045260245ffd5b6001546001600160a01b03163303610a3657565b60405163118cdaa760e01b8152336004820152602490fd5b60025f5414610a5d5760025f55565b60405162461bcd60e51b815260206004820152601f60248201527f5265656e7472616e637947756172643a207265656e7472616e742063616c6c006044820152606490fd5b91908201809211610aaf57565b634e487b7160e01b5f52601160045260245ffd5b91906512309ce54000821115610c1f57610adc81610cf9565b6040516323b872dd60e01b60208201526001600160a01b039384166024820152306044820152606480820184905281529060a0820167ffffffffffffffff811183821017610c0b578492610b53916040527f0000000000000000000000000000000000000000000000000000000000000000610c74565b1691825f52600560205260405f2090815415610ba6575b508181610b9b7f2da466a7b24304f47e87fa2e1e5a81b9831ce54fec19055ce277ca2f39ba42c49460209454610aa2565b9055604051908152a2565b916006549168010000000000000000831015610c0b577f2da466a7b24304f47e87fa2e1e5a81b9831ce54fec19055ce277ca2f39ba42c493610bf0846001602096016006556109d9565b819291549060031b9188831b921b1916179055915091610b6a565b634e487b7160e01b5f52604160045260245ffd5b60405162461bcd60e51b815260206004820152600b60248201526a1b1bddc819195c1bdcda5d60aa1b6044820152606490fd5b90601f8019910116810190811067ffffffffffffffff821117610c0b57604052565b905f602091828151910182855af115610cce575f513d610cc557506001600160a01b0381163b155b610ca35750565b604051635274afe760e01b81526001600160a01b039091166004820152602490fd5b60011415610c9c565b6040513d5f823e3d90fd5b91908203918211610aaf57565b81810292918115918404141715610aaf57565b60018060a01b03165f52600560205260405f206001810190815415610d7557610d23825443610cd9565b9081151580610d6b575b610d39575b5050439055565b6002610d4a610d6193835490610ce6565b9101610d57828254610aa2565b9055600454610aa2565b6004555f80610d32565b5080541515610d2d565b50439055565b60405163a9059cbb60e01b60208201526001600160a01b039092166024830152604480830193909352918152608081019167ffffffffffffffff831182841017610c0b57610dcb92604052610c74565b565b5f198114610aaf5760010190565b8115610de5570490565b634e487b7160e01b5f52601260045260245ffd5b7f000000000000000000000000000000000000000000000000000000000000000060409182516370a0823160e01b8152600491308383015260209160018060a01b03918382602481868a165afa91821561106f575f92611040575b50600391610e63835443610cd9565b8015611035577f00000000000000000000000000000000000000000000000000000000000000009082610e968383610ce6565b1115611025575050905b5f5b600654811015610f1d578085610eba610f11936109d9565b905490871b1c165f5260058752895f208054908115610f1657806002610ef16001610f07940194610eec865443610cd9565b610ce6565b9101610efe828254610aa2565b90558a54610aa2565b8955439055610dcd565b610ea2565b5050610dcd565b5094939195929095603287028781046032148815171561101257612710610f4b910480988161100257610cd9565b955f5b600654811015610fc757808885610f67610fa8946109d9565b905490871b1c16805f526005885260028d5f20019081548015610fbe57610f92610f9a915f95610ce6565b8c5490610ddb565b80610fad575b505055610dcd565b610f4e565b610fb7918b610d7b565b5f80610fa0565b50505050610dcd565b509795947f3c3d358c457d91d874593441791f0b96c90172a78030ce0ce7e8e8c965fe14699794505f919250554390558351928352820152a1565b61100d823389610d7b565b610cd9565b601186634e487b7160e01b5f525260245ffd5b61102f9250610ce6565b90610ea0565b505095505050505050565b90918482813d8311611068575b6110578183610c52565b810103126103e8575051905f610e54565b503d61104d565b87513d5f823e3d90fd5b6001600160a01b03165f9081526005602052604081208054918215611142576110a460035443610cd9565b928315611163576001600284015493015480611148575b50508115611142576110fa6110d283600454610aa2565b937f000000000000000000000000000000000000000000000000000000000000000090610ce6565b9060328202908282046032148315171561112e575091610eec6111269261271061112b96950490610cd9565b610ddb565b90565b634e487b7160e01b81526011600452602490fd5b91505090565b61115b929391610eec6103689243610cd9565b905f806110bb565b5091505090565b61117660035443610cd9565b80156111a75761112b907f000000000000000000000000000000000000000000000000000000000000000090610ce6565b505f9056fea264697066735822122038d220f8fd14dc512509a4af7ca55e56b9900213198af3a4afab31cf52ed14a464736f6c63430008140033",
			"opcodes": "PUSH1 0xE0 PUSH1 0x40 SWAP1 DUP1 DUP3 MSTORE CALLVALUE PUSH3 0x1F9 JUMPI DUP2 DUP2 PUSH3 0x142D DUP1 CODESIZE SUB DUP1 SWAP2 PUSH3 0x24 DUP3 DUP6 PUSH3 0x1FD JUMP JUMPDEST DUP4 CODECOPY DUP2 ADD SUB SLT PUSH3 0x1F9 JUMPI PUSH3 0x48 PUSH1 0x20 PUSH3 0x40 DUP4 PUSH3 0x235 JUMP JUMPDEST SWAP3 ADD PUSH3 0x235 JUMP JUMPDEST SWAP1 PUSH0 SWAP2 PUSH1 0x1 DUP4 SSTORE CALLER ISZERO PUSH3 0x1E1 JUMPI PUSH1 0x1 DUP1 SLOAD CALLER PUSH1 0x1 PUSH1 0x1 PUSH1 0xA0 SHL SUB NOT DUP3 AND DUP2 OR SWAP1 SWAP3 SSTORE DUP6 MLOAD SWAP4 PUSH1 0x20 SWAP4 DUP6 SWAP4 PUSH1 0x4 SWAP4 DUP6 SWAP4 PUSH1 0x1 PUSH1 0x1 PUSH1 0xA0 SHL SUB SWAP4 SWAP3 DUP5 SWAP3 DUP4 AND PUSH32 0x8BE0079C531659141344CD1FD0A4F28419497F9722A3DAAFE3B4186F6B6457E0 DUP13 DUP1 LOG3 AND PUSH1 0x80 MSTORE AND PUSH1 0xA0 DUP2 SWAP1 MSTORE PUSH4 0x313CE567 PUSH1 0xE0 SHL DUP3 MSTORE GAS STATICCALL DUP1 ISZERO PUSH3 0x1D7 JUMPI DUP3 SWAP1 PUSH3 0x190 JUMPI JUMPDEST PUSH1 0xFF SWAP2 POP AND PUSH1 0x4D DUP2 GT PUSH3 0x17C JUMPI PUSH1 0xA EXP SWAP1 PUSH4 0xBEBC200 SWAP2 DUP1 DUP4 MUL SWAP3 DUP4 DIV SUB PUSH3 0x168 JUMPI POP PUSH2 0xCD50 SWAP1 DIV PUSH1 0xC0 MSTORE NUMBER PUSH1 0x3 SSTORE MLOAD PUSH2 0x11E2 SWAP1 DUP2 PUSH3 0x24B DUP3 CODECOPY PUSH1 0x80 MLOAD DUP2 DUP2 DUP2 PUSH2 0x1A8 ADD MSTORE DUP2 DUP2 PUSH2 0x5E9 ADD MSTORE DUP2 DUP2 PUSH2 0x706 ADD MSTORE DUP2 DUP2 PUSH2 0x95C ADD MSTORE PUSH2 0xB2F ADD MSTORE PUSH1 0xA0 MLOAD DUP2 DUP2 DUP2 PUSH2 0x244 ADD MSTORE DUP2 DUP2 PUSH2 0x764 ADD MSTORE PUSH2 0xDFB ADD MSTORE PUSH1 0xC0 MLOAD DUP2 DUP2 DUP2 PUSH2 0x583 ADD MSTORE DUP2 DUP2 PUSH2 0xE6B ADD MSTORE DUP2 DUP2 PUSH2 0x10D5 ADD MSTORE PUSH2 0x1182 ADD MSTORE RETURN JUMPDEST PUSH4 0x4E487B71 PUSH1 0xE0 SHL DUP2 MSTORE PUSH1 0x11 PUSH1 0x4 MSTORE PUSH1 0x24 SWAP1 REVERT JUMPDEST PUSH4 0x4E487B71 PUSH1 0xE0 SHL DUP3 MSTORE PUSH1 0x11 PUSH1 0x4 MSTORE PUSH1 0x24 DUP3 REVERT JUMPDEST POP PUSH1 0x20 DUP2 RETURNDATASIZE DUP3 GT PUSH3 0x1CE JUMPI JUMPDEST DUP2 PUSH3 0x1AC PUSH1 0x20 SWAP4 DUP4 PUSH3 0x1FD JUMP JUMPDEST DUP2 ADD SUB SLT PUSH3 0x1CA JUMPI MLOAD PUSH1 0xFF DUP2 AND DUP2 SUB PUSH3 0x1CA JUMPI PUSH1 0xFF SWAP1 PUSH3 0xCF JUMP JUMPDEST POP DUP1 REVERT JUMPDEST RETURNDATASIZE SWAP2 POP PUSH3 0x19D JUMP JUMPDEST DUP4 MLOAD RETURNDATASIZE DUP5 DUP3 RETURNDATACOPY RETURNDATASIZE SWAP1 REVERT JUMPDEST DUP4 MLOAD PUSH4 0x1E4FBDF7 PUSH1 0xE0 SHL DUP2 MSTORE PUSH1 0x4 DUP2 ADD DUP5 SWAP1 MSTORE PUSH1 0x24 SWAP1 REVERT JUMPDEST PUSH0 DUP1 REVERT JUMPDEST PUSH1 0x1F SWAP1 SWAP2 ADD PUSH1 0x1F NOT AND DUP2 ADD SWAP1 PUSH1 0x1 PUSH1 0x1 PUSH1 0x40 SHL SUB DUP3 GT SWAP1 DUP3 LT OR PUSH3 0x221 JUMPI PUSH1 0x40 MSTORE JUMP JUMPDEST PUSH4 0x4E487B71 PUSH1 0xE0 SHL PUSH0 MSTORE PUSH1 0x41 PUSH1 0x4 MSTORE PUSH1 0x24 PUSH0 REVERT JUMPDEST MLOAD SWAP1 PUSH1 0x1 PUSH1 0x1 PUSH1 0xA0 SHL SUB DUP3 AND DUP3 SUB PUSH3 0x1F9 JUMPI JUMP INVALID PUSH1 0x40 PUSH1 0x80 DUP2 MSTORE PUSH1 0x4 SWAP1 DUP2 CALLDATASIZE LT ISZERO PUSH2 0x14 JUMPI PUSH0 DUP1 REVERT JUMPDEST PUSH0 SWAP2 DUP3 CALLDATALOAD PUSH1 0xE0 SHR SWAP1 DUP2 PUSH4 0x2E1A7D4D EQ PUSH2 0x905 JUMPI DUP2 PUSH4 0x2F4F21E2 EQ PUSH2 0x892 JUMPI DUP2 PUSH4 0x35C1D349 EQ PUSH2 0x851 JUMPI DUP2 PUSH4 0x362F04C0 EQ PUSH2 0x832 JUMPI DUP2 PUSH4 0x45114EE5 EQ PUSH2 0x735 JUMPI DUP2 PUSH4 0x5FCBD285 EQ PUSH2 0x6F1 JUMPI DUP2 PUSH4 0x715018A6 EQ PUSH2 0x694 JUMPI DUP2 PUSH4 0x71BF8623 EQ PUSH2 0x677 JUMPI DUP2 PUSH4 0x853828B6 EQ PUSH2 0x5A6 JUMPI DUP2 PUSH4 0x8AE39CAC EQ PUSH2 0x56B JUMPI DUP2 PUSH4 0x8DA5CB5B EQ PUSH2 0x542 JUMPI DUP2 PUSH4 0xA87430BA EQ PUSH2 0x4F4 JUMPI DUP2 PUSH4 0xA9F8D181 EQ PUSH2 0x4D5 JUMPI DUP2 PUSH4 0xAA93BFA8 EQ PUSH2 0x4B7 JUMPI DUP2 PUSH4 0xB6B55F25 EQ PUSH2 0x490 JUMPI DUP2 PUSH4 0xC0D78655 EQ PUSH2 0x3EB JUMPI DUP2 PUSH4 0xD1058E59 EQ PUSH2 0x3C0 JUMPI DUP2 PUSH4 0xE7A0FB9B EQ PUSH2 0x3A3 JUMPI DUP2 PUSH4 0xE9503425 EQ PUSH2 0x376 JUMPI DUP2 PUSH4 0xE9E7EB35 EQ PUSH2 0x303 JUMPI DUP2 PUSH4 0xF2FDE38B EQ PUSH2 0x273 JUMPI DUP2 PUSH4 0xF7C618C1 EQ PUSH2 0x22F JUMPI DUP2 PUSH4 0xF7E4CD0D EQ PUSH2 0x179 JUMPI POP DUP1 PUSH4 0xF887EA40 EQ PUSH2 0x151 JUMPI PUSH4 0xFC7039E0 EQ PUSH2 0x133 JUMPI PUSH0 DUP1 REVERT JUMPDEST CALLVALUE PUSH2 0x14D JUMPI DUP2 PUSH1 0x3 NOT CALLDATASIZE ADD SLT PUSH2 0x14D JUMPI PUSH1 0x20 SWAP1 MLOAD PUSH1 0x32 DUP2 MSTORE RETURN JUMPDEST POP DUP1 REVERT JUMPDEST POP CALLVALUE PUSH2 0x14D JUMPI DUP2 PUSH1 0x3 NOT CALLDATASIZE ADD SLT PUSH2 0x14D JUMPI PUSH1 0x2 SLOAD SWAP1 MLOAD PUSH1 0x1 PUSH1 0x1 PUSH1 0xA0 SHL SUB SWAP1 SWAP2 AND DUP2 MSTORE PUSH1 0x20 SWAP1 RETURN JUMPDEST SWAP2 SWAP1 POP CALLVALUE PUSH2 0x219 JUMPI DUP3 PUSH1 0x3 NOT CALLDATASIZE ADD SLT PUSH2 0x219 JUMPI DUP1 MLOAD PUSH4 0x70A08231 PUSH1 0xE0 SHL DUP2 MSTORE ADDRESS SWAP3 DUP2 ADD SWAP3 SWAP1 SWAP3 MSTORE PUSH1 0x20 DUP3 PUSH1 0x24 DUP2 PUSH32 0x0 PUSH1 0x1 PUSH1 0x1 PUSH1 0xA0 SHL SUB AND GAS STATICCALL SWAP2 DUP3 ISZERO PUSH2 0x225 JUMPI DUP4 SWAP3 PUSH2 0x1EA JUMPI JUMPDEST PUSH1 0x20 DUP4 DUP4 MLOAD SWAP1 DUP2 MSTORE RETURN JUMPDEST SWAP1 SWAP2 POP PUSH1 0x20 DUP2 RETURNDATASIZE DUP3 GT PUSH2 0x21D JUMPI JUMPDEST DUP2 PUSH2 0x205 PUSH1 0x20 SWAP4 DUP4 PUSH2 0xC52 JUMP JUMPDEST DUP2 ADD SUB SLT PUSH2 0x219 JUMPI PUSH1 0x20 SWAP3 POP MLOAD SWAP1 PUSH0 PUSH2 0x1E0 JUMP JUMPDEST DUP3 DUP1 REVERT JUMPDEST RETURNDATASIZE SWAP2 POP PUSH2 0x1F8 JUMP JUMPDEST DUP2 MLOAD RETURNDATASIZE DUP6 DUP3 RETURNDATACOPY RETURNDATASIZE SWAP1 REVERT JUMPDEST POP POP CALLVALUE PUSH2 0x14D JUMPI DUP2 PUSH1 0x3 NOT CALLDATASIZE ADD SLT PUSH2 0x14D JUMPI MLOAD PUSH32 0x0 PUSH1 0x1 PUSH1 0x1 PUSH1 0xA0 SHL SUB AND DUP2 MSTORE PUSH1 0x20 SWAP1 RETURN JUMPDEST SWAP1 POP CALLVALUE PUSH2 0x219 JUMPI PUSH1 0x20 CALLDATASIZE PUSH1 0x3 NOT ADD SLT PUSH2 0x219 JUMPI PUSH2 0x28E PUSH2 0x9BF JUMP JUMPDEST SWAP1 PUSH2 0x297 PUSH2 0xA22 JUMP JUMPDEST PUSH1 0x1 PUSH1 0x1 PUSH1 0xA0 SHL SUB SWAP2 DUP3 AND SWAP3 DUP4 ISZERO PUSH2 0x2ED JUMPI POP POP PUSH1 0x1 SLOAD DUP3 PUSH12 0xFFFFFFFFFFFFFFFFFFFFFFFF PUSH1 0xA0 SHL DUP3 AND OR PUSH1 0x1 SSTORE AND PUSH32 0x8BE0079C531659141344CD1FD0A4F28419497F9722A3DAAFE3B4186F6B6457E0 DUP4 DUP1 LOG3 DUP1 RETURN JUMPDEST MLOAD PUSH4 0x1E4FBDF7 PUSH1 0xE0 SHL DUP2 MSTORE SWAP1 DUP2 ADD DUP5 SWAP1 MSTORE PUSH1 0x24 SWAP1 REVERT JUMPDEST POP POP CALLVALUE PUSH2 0x14D JUMPI PUSH1 0x20 CALLDATASIZE PUSH1 0x3 NOT ADD SLT PUSH2 0x14D JUMPI PUSH1 0x20 SWAP2 DUP2 SWAP1 PUSH1 0x1 PUSH1 0x1 PUSH1 0xA0 SHL SUB PUSH2 0x32B PUSH2 0x9BF JUMP JUMPDEST AND DUP2 MSTORE PUSH1 0x5 DUP5 MSTORE KECCAK256 SWAP1 PUSH1 0x2 DUP3 ADD SLOAD SWAP2 PUSH1 0x1 DUP2 ADD SLOAD DUP1 PUSH2 0x34D JUMPI JUMPDEST POP POP MLOAD SWAP1 DUP2 MSTORE RETURN JUMPDEST PUSH2 0x36E SWAP3 SWAP4 SWAP2 PUSH2 0x360 PUSH2 0x368 SWAP3 NUMBER PUSH2 0xCD9 JUMP JUMPDEST SWAP1 SLOAD SWAP1 PUSH2 0xCE6 JUMP JUMPDEST SWAP1 PUSH2 0xAA2 JUMP JUMPDEST SWAP1 PUSH0 DUP1 PUSH2 0x345 JUMP JUMPDEST POP POP CALLVALUE PUSH2 0x14D JUMPI PUSH1 0x20 CALLDATASIZE PUSH1 0x3 NOT ADD SLT PUSH2 0x14D JUMPI PUSH1 0x20 SWAP1 PUSH2 0x39C PUSH2 0x397 PUSH2 0x9BF JUMP JUMPDEST PUSH2 0x1079 JUMP JUMPDEST SWAP1 MLOAD SWAP1 DUP2 MSTORE RETURN JUMPDEST POP POP CALLVALUE PUSH2 0x14D JUMPI DUP2 PUSH1 0x3 NOT CALLDATASIZE ADD SLT PUSH2 0x14D JUMPI PUSH1 0x20 SWAP1 PUSH2 0x39C PUSH2 0x116A JUMP JUMPDEST DUP4 CALLVALUE PUSH2 0x3E8 JUMPI DUP1 PUSH1 0x3 NOT CALLDATASIZE ADD SLT PUSH2 0x3E8 JUMPI PUSH2 0x3D9 PUSH2 0xA4E JUMP JUMPDEST PUSH2 0x3E1 PUSH2 0xDF9 JUMP JUMPDEST PUSH1 0x1 DUP2 SSTORE DUP1 RETURN JUMPDEST DUP1 REVERT JUMPDEST SWAP2 SWAP1 POP CALLVALUE PUSH2 0x219 JUMPI PUSH1 0x20 CALLDATASIZE PUSH1 0x3 NOT ADD SLT PUSH2 0x219 JUMPI PUSH2 0x407 PUSH2 0x9BF JUMP JUMPDEST PUSH2 0x40F PUSH2 0xA22 JUMP JUMPDEST PUSH1 0x1 PUSH1 0x1 PUSH1 0xA0 SHL SUB AND SWAP2 DUP3 ISZERO PUSH2 0x45F JUMPI POP PUSH1 0x2 DUP1 SLOAD PUSH1 0x1 PUSH1 0x1 PUSH1 0xA0 SHL SUB NOT AND DUP4 OR SWAP1 SSTORE MLOAD SWAP1 DUP2 MSTORE PUSH32 0xC6B438E6A8A59579CE6A4406CBD203B740E0D47B458AAE6596339BCD40C40D15 SWAP1 PUSH1 0x20 SWAP1 LOG1 DUP1 RETURN JUMPDEST PUSH1 0x20 PUSH1 0x64 SWAP3 MLOAD SWAP2 PUSH3 0x461BCD PUSH1 0xE5 SHL DUP4 MSTORE DUP3 ADD MSTORE PUSH1 0xC PUSH1 0x24 DUP3 ADD MSTORE PUSH12 0x7A65726F2061646472657373 PUSH1 0xA0 SHL PUSH1 0x44 DUP3 ADD MSTORE REVERT JUMPDEST DUP4 SWAP1 CALLVALUE PUSH2 0x14D JUMPI PUSH1 0x20 CALLDATASIZE PUSH1 0x3 NOT ADD SLT PUSH2 0x14D JUMPI PUSH2 0x3E1 SWAP1 PUSH2 0x4AF PUSH2 0xA4E JUMP JUMPDEST CALLDATALOAD CALLER CALLER PUSH2 0xAC3 JUMP JUMPDEST SWAP1 POP CALLVALUE PUSH2 0x219 JUMPI DUP3 PUSH1 0x3 NOT CALLDATASIZE ADD SLT PUSH2 0x219 JUMPI PUSH1 0x20 SWAP3 POP SLOAD SWAP1 MLOAD SWAP1 DUP2 MSTORE RETURN JUMPDEST POP POP CALLVALUE PUSH2 0x14D JUMPI DUP2 PUSH1 0x3 NOT CALLDATASIZE ADD SLT PUSH2 0x14D JUMPI PUSH1 0x20 SWAP1 PUSH1 0x3 SLOAD SWAP1 MLOAD SWAP1 DUP2 MSTORE RETURN JUMPDEST POP POP CALLVALUE PUSH2 0x14D JUMPI PUSH1 0x20 CALLDATASIZE PUSH1 0x3 NOT ADD SLT PUSH2 0x14D JUMPI PUSH1 0x60 SWAP2 DUP2 SWAP1 PUSH1 0x1 PUSH1 0x1 PUSH1 0xA0 SHL SUB PUSH2 0x51C PUSH2 0x9BF JUMP JUMPDEST AND DUP2 MSTORE PUSH1 0x5 PUSH1 0x20 MSTORE KECCAK256 DUP1 SLOAD SWAP2 PUSH1 0x2 PUSH1 0x1 DUP4 ADD SLOAD SWAP3 ADD SLOAD SWAP2 DUP2 MLOAD SWAP4 DUP5 MSTORE PUSH1 0x20 DUP5 ADD MSTORE DUP3 ADD MSTORE RETURN JUMPDEST POP POP CALLVALUE PUSH2 0x14D JUMPI DUP2 PUSH1 0x3 NOT CALLDATASIZE ADD SLT PUSH2 0x14D JUMPI PUSH1 0x1 SLOAD SWAP1 MLOAD PUSH1 0x1 PUSH1 0x1 PUSH1 0xA0 SHL SUB SWAP1 SWAP2 AND DUP2 MSTORE PUSH1 0x20 SWAP1 RETURN JUMPDEST POP POP CALLVALUE PUSH2 0x14D JUMPI DUP2 PUSH1 0x3 NOT CALLDATASIZE ADD SLT PUSH2 0x14D JUMPI PUSH1 0x20 SWAP1 MLOAD PUSH32 0x0 DUP2 MSTORE RETURN JUMPDEST SWAP2 SWAP1 POP CALLVALUE PUSH2 0x219 JUMPI DUP3 PUSH1 0x3 NOT CALLDATASIZE ADD SLT PUSH2 0x219 JUMPI PUSH2 0x5C1 PUSH2 0xA4E JUMP JUMPDEST CALLER DUP4 MSTORE PUSH1 0x5 PUSH1 0x20 MSTORE DUP1 DUP4 KECCAK256 DUP1 SLOAD SWAP3 DUP4 ISZERO PUSH2 0x63E JUMPI POP DUP4 SWAP1 PUSH2 0x5E1 CALLER PUSH2 0xCF9 JUMP JUMPDEST SSTORE PUSH2 0x60D DUP3 CALLER PUSH32 0x0 PUSH2 0xD7B JUMP JUMPDEST MLOAD SWAP1 DUP2 MSTORE PUSH32 0x7084F5476618D8E60B11EF0D7D3F06914655ADB8793E28FF7F018D4C76D505D5 PUSH1 0x20 CALLER SWAP3 LOG2 PUSH1 0x1 DUP2 SSTORE DUP1 RETURN JUMPDEST PUSH1 0x64 SWAP1 PUSH1 0x20 DUP5 MLOAD SWAP2 PUSH3 0x461BCD PUSH1 0xE5 SHL DUP4 MSTORE DUP3 ADD MSTORE PUSH1 0x13 PUSH1 0x24 DUP3 ADD MSTORE PUSH19 0x6E6F7468696E6720746F207769746864726177 PUSH1 0x68 SHL PUSH1 0x44 DUP3 ADD MSTORE REVERT JUMPDEST POP POP CALLVALUE PUSH2 0x14D JUMPI DUP2 PUSH1 0x3 NOT CALLDATASIZE ADD SLT PUSH2 0x14D JUMPI PUSH1 0x20 SWAP1 MLOAD PUSH2 0x2710 DUP2 MSTORE RETURN JUMPDEST DUP4 CALLVALUE PUSH2 0x3E8 JUMPI DUP1 PUSH1 0x3 NOT CALLDATASIZE ADD SLT PUSH2 0x3E8 JUMPI PUSH2 0x6AD PUSH2 0xA22 JUMP JUMPDEST PUSH1 0x1 DUP1 SLOAD PUSH1 0x1 PUSH1 0x1 PUSH1 0xA0 SHL SUB NOT DUP2 AND SWAP1 SWAP2 SSTORE DUP2 SWAP1 PUSH1 0x1 PUSH1 0x1 PUSH1 0xA0 SHL SUB AND PUSH32 0x8BE0079C531659141344CD1FD0A4F28419497F9722A3DAAFE3B4186F6B6457E0 DUP3 DUP1 LOG3 DUP1 RETURN JUMPDEST POP POP CALLVALUE PUSH2 0x14D JUMPI DUP2 PUSH1 0x3 NOT CALLDATASIZE ADD SLT PUSH2 0x14D JUMPI MLOAD PUSH32 0x0 PUSH1 0x1 PUSH1 0x1 PUSH1 0xA0 SHL SUB AND DUP2 MSTORE PUSH1 0x20 SWAP1 RETURN JUMPDEST DUP4 SWAP2 POP CALLVALUE PUSH2 0x14D JUMPI DUP2 PUSH1 0x3 NOT CALLDATASIZE ADD SLT PUSH2 0x14D JUMPI PUSH2 0x750 PUSH2 0xA22 JUMP JUMPDEST DUP3 MLOAD PUSH4 0x70A08231 PUSH1 0xE0 SHL DUP2 MSTORE ADDRESS DUP3 DUP3 ADD MSTORE SWAP1 PUSH32 0x0 SWAP1 PUSH1 0x1 PUSH1 0x1 PUSH1 0xA0 SHL SUB SWAP1 PUSH1 0x20 DUP5 PUSH1 0x24 DUP2 DUP6 DUP8 AND GAS STATICCALL SWAP4 DUP5 ISZERO PUSH2 0x828 JUMPI DUP6 SWAP5 PUSH2 0x7F1 JUMPI JUMPDEST POP DUP4 ISZERO PUSH2 0x7C1 JUMPI POP PUSH2 0x7BE SWAP4 SWAP5 POP PUSH1 0x1 SLOAD AND SWAP1 PUSH2 0xD7B JUMP JUMPDEST DUP1 RETURN JUMPDEST PUSH1 0x64 SWAP1 PUSH1 0x20 DUP8 MLOAD SWAP2 PUSH3 0x461BCD PUSH1 0xE5 SHL DUP4 MSTORE DUP3 ADD MSTORE PUSH1 0xA PUSH1 0x24 DUP3 ADD MSTORE PUSH10 0x6E6F2072657761726473 PUSH1 0xB0 SHL PUSH1 0x44 DUP3 ADD MSTORE REVERT JUMPDEST SWAP1 SWAP4 POP PUSH1 0x20 DUP2 RETURNDATASIZE DUP3 GT PUSH2 0x820 JUMPI JUMPDEST DUP2 PUSH2 0x80C PUSH1 0x20 SWAP4 DUP4 PUSH2 0xC52 JUMP JUMPDEST DUP2 ADD SUB SLT PUSH2 0x81C JUMPI MLOAD SWAP3 DUP7 PUSH2 0x7A6 JUMP JUMPDEST DUP5 DUP1 REVERT JUMPDEST RETURNDATASIZE SWAP2 POP PUSH2 0x7FF JUMP JUMPDEST DUP7 MLOAD RETURNDATASIZE DUP8 DUP3 RETURNDATACOPY RETURNDATASIZE SWAP1 REVERT JUMPDEST POP POP CALLVALUE PUSH2 0x14D JUMPI DUP2 PUSH1 0x3 NOT CALLDATASIZE ADD SLT PUSH2 0x14D JUMPI PUSH1 0x20 SWAP1 PUSH1 0x6 SLOAD SWAP1 MLOAD SWAP1 DUP2 MSTORE RETURN JUMPDEST SWAP1 POP CALLVALUE PUSH2 0x219 JUMPI PUSH1 0x20 CALLDATASIZE PUSH1 0x3 NOT ADD SLT PUSH2 0x219 JUMPI CALLDATALOAD SWAP2 PUSH1 0x6 SLOAD DUP4 LT ISZERO PUSH2 0x3E8 JUMPI POP PUSH2 0x87C PUSH1 0x20 SWAP3 PUSH2 0x9D9 JUMP JUMPDEST SWAP1 SLOAD SWAP2 MLOAD SWAP2 PUSH1 0x1 DUP1 PUSH1 0xA0 SHL SUB SWAP2 PUSH1 0x3 SHL SHR AND DUP2 MSTORE RETURN JUMPDEST SWAP1 POP CALLVALUE PUSH2 0x219 JUMPI DUP2 PUSH1 0x3 NOT CALLDATASIZE ADD SLT PUSH2 0x219 JUMPI PUSH2 0x8AC PUSH2 0x9BF JUMP JUMPDEST SWAP2 PUSH2 0x8B5 PUSH2 0xA4E JUMP JUMPDEST PUSH1 0x2 SLOAD PUSH1 0x1 PUSH1 0x1 PUSH1 0xA0 SHL SUB AND CALLER SUB PUSH2 0x8D5 JUMPI DUP4 PUSH2 0x3E1 PUSH1 0x24 CALLDATALOAD DUP6 CALLER PUSH2 0xAC3 JUMP JUMPDEST SWAP1 PUSH1 0x20 PUSH1 0x64 SWAP3 MLOAD SWAP2 PUSH3 0x461BCD PUSH1 0xE5 SHL DUP4 MSTORE DUP3 ADD MSTORE PUSH1 0xA PUSH1 0x24 DUP3 ADD MSTORE PUSH10 0x3737BA103937BABA32B9 PUSH1 0xB1 SHL PUSH1 0x44 DUP3 ADD MSTORE REVERT JUMPDEST SWAP2 SWAP1 POP CALLVALUE PUSH2 0x219 JUMPI PUSH1 0x20 CALLDATASIZE PUSH1 0x3 NOT ADD SLT PUSH2 0x219 JUMPI DUP2 CALLDATALOAD SWAP2 PUSH2 0x924 PUSH2 0xA4E JUMP JUMPDEST CALLER DUP5 MSTORE PUSH1 0x5 PUSH1 0x20 MSTORE DUP2 DUP5 KECCAK256 SWAP1 DUP4 ISZERO ISZERO DUP1 PUSH2 0x9B4 JUMPI JUMPDEST ISZERO PUSH2 0x980 JUMPI POP PUSH2 0x948 CALLER PUSH2 0xCF9 JUMP JUMPDEST PUSH2 0x953 DUP4 DUP3 SLOAD PUSH2 0xCD9 JUMP JUMPDEST SWAP1 SSTORE PUSH2 0x60D DUP3 CALLER PUSH32 0x0 PUSH2 0xD7B JUMP JUMPDEST PUSH1 0x64 SWAP1 PUSH1 0x20 DUP5 MLOAD SWAP2 PUSH3 0x461BCD PUSH1 0xE5 SHL DUP4 MSTORE DUP3 ADD MSTORE PUSH1 0xE PUSH1 0x24 DUP3 ADD MSTORE PUSH14 0x1A5B9D985B1A5908185B5BDD5B9D PUSH1 0x92 SHL PUSH1 0x44 DUP3 ADD MSTORE REVERT JUMPDEST POP DUP2 SLOAD DUP5 GT ISZERO PUSH2 0x939 JUMP JUMPDEST PUSH1 0x4 CALLDATALOAD SWAP1 PUSH1 0x1 PUSH1 0x1 PUSH1 0xA0 SHL SUB DUP3 AND DUP3 SUB PUSH2 0x9D5 JUMPI JUMP JUMPDEST PUSH0 DUP1 REVERT JUMPDEST PUSH1 0x6 SLOAD DUP2 LT ISZERO PUSH2 0xA0E JUMPI PUSH1 0x6 PUSH0 MSTORE PUSH32 0xF652222313E28459528D920B65115C16C04F3EFC82AAEDC97BE59F3F377C0D3F ADD SWAP1 PUSH0 SWAP1 JUMP JUMPDEST PUSH4 0x4E487B71 PUSH1 0xE0 SHL PUSH0 MSTORE PUSH1 0x32 PUSH1 0x4 MSTORE PUSH1 0x24 PUSH0 REVERT JUMPDEST PUSH1 0x1 SLOAD PUSH1 0x1 PUSH1 0x1 PUSH1 0xA0 SHL SUB AND CALLER SUB PUSH2 0xA36 JUMPI JUMP JUMPDEST PUSH1 0x40 MLOAD PUSH4 0x118CDAA7 PUSH1 0xE0 SHL DUP2 MSTORE CALLER PUSH1 0x4 DUP3 ADD MSTORE PUSH1 0x24 SWAP1 REVERT JUMPDEST PUSH1 0x2 PUSH0 SLOAD EQ PUSH2 0xA5D JUMPI PUSH1 0x2 PUSH0 SSTORE JUMP JUMPDEST PUSH1 0x40 MLOAD PUSH3 0x461BCD PUSH1 0xE5 SHL DUP2 MSTORE PUSH1 0x20 PUSH1 0x4 DUP3 ADD MSTORE PUSH1 0x1F PUSH1 0x24 DUP3 ADD MSTORE PUSH32 0x5265656E7472616E637947756172643A207265656E7472616E742063616C6C00 PUSH1 0x44 DUP3 ADD MSTORE PUSH1 0x64 SWAP1 REVERT JUMPDEST SWAP2 SWAP1 DUP3 ADD DUP1 SWAP3 GT PUSH2 0xAAF JUMPI JUMP JUMPDEST PUSH4 0x4E487B71 PUSH1 0xE0 SHL PUSH0 MSTORE PUSH1 0x11 PUSH1 0x4 MSTORE PUSH1 0x24 PUSH0 REVERT JUMPDEST SWAP2 SWAP1 PUSH6 0x12309CE54000 DUP3 GT ISZERO PUSH2 0xC1F JUMPI PUSH2 0xADC DUP2 PUSH2 0xCF9 JUMP JUMPDEST PUSH1 0x40 MLOAD PUSH4 0x23B872DD PUSH1 0xE0 SHL PUSH1 0x20 DUP3 ADD MSTORE PUSH1 0x1 PUSH1 0x1 PUSH1 0xA0 SHL SUB SWAP4 DUP5 AND PUSH1 0x24 DUP3 ADD MSTORE ADDRESS PUSH1 0x44 DUP3 ADD MSTORE PUSH1 0x64 DUP1 DUP3 ADD DUP5 SWAP1 MSTORE DUP2 MSTORE SWAP1 PUSH1 0xA0 DUP3 ADD PUSH8 0xFFFFFFFFFFFFFFFF DUP2 GT DUP4 DUP3 LT OR PUSH2 0xC0B JUMPI DUP5 SWAP3 PUSH2 0xB53 SWAP2 PUSH1 0x40 MSTORE PUSH32 0x0 PUSH2 0xC74 JUMP JUMPDEST AND SWAP2 DUP3 PUSH0 MSTORE PUSH1 0x5 PUSH1 0x20 MSTORE PUSH1 0x40 PUSH0 KECCAK256 SWAP1 DUP2 SLOAD ISZERO PUSH2 0xBA6 JUMPI JUMPDEST POP DUP2 DUP2 PUSH2 0xB9B PUSH32 0x2DA466A7B24304F47E87FA2E1E5A81B9831CE54FEC19055CE277CA2F39BA42C4 SWAP5 PUSH1 0x20 SWAP5 SLOAD PUSH2 0xAA2 JUMP JUMPDEST SWAP1 SSTORE PUSH1 0x40 MLOAD SWAP1 DUP2 MSTORE LOG2 JUMP JUMPDEST SWAP2 PUSH1 0x6 SLOAD SWAP2 PUSH9 0x10000000000000000 DUP4 LT ISZERO PUSH2 0xC0B JUMPI PUSH32 0x2DA466A7B24304F47E87FA2E1E5A81B9831CE54FEC19055CE277CA2F39BA42C4 SWAP4 PUSH2 0xBF0 DUP5 PUSH1 0x1 PUSH1 0x20 SWAP7 ADD PUSH1 0x6 SSTORE PUSH2 0x9D9 JUMP JUMPDEST DUP2 SWAP3 SWAP2 SLOAD SWAP1 PUSH1 0x3 SHL SWAP2 DUP9 DUP4 SHL SWAP3 SHL NOT AND OR SWAP1 SSTORE SWAP2 POP SWAP2 PUSH2 0xB6A JUMP JUMPDEST PUSH4 0x4E487B71 PUSH1 0xE0 SHL PUSH0 MSTORE PUSH1 0x41 PUSH1 0x4 MSTORE PUSH1 0x24 PUSH0 REVERT JUMPDEST PUSH1 0x40 MLOAD PUSH3 0x461BCD PUSH1 0xE5 SHL DUP2 MSTORE PUSH1 0x20 PUSH1 0x4 DUP3 ADD MSTORE PUSH1 0xB PUSH1 0x24 DUP3 ADD MSTORE PUSH11 0x1B1BDDC819195C1BDCDA5D PUSH1 0xAA SHL PUSH1 0x44 DUP3 ADD MSTORE PUSH1 0x64 SWAP1 REVERT JUMPDEST SWAP1 PUSH1 0x1F DUP1 NOT SWAP2 ADD AND DUP2 ADD SWAP1 DUP2 LT PUSH8 0xFFFFFFFFFFFFFFFF DUP3 GT OR PUSH2 0xC0B JUMPI PUSH1 0x40 MSTORE JUMP JUMPDEST SWAP1 PUSH0 PUSH1 0x20 SWAP2 DUP3 DUP2 MLOAD SWAP2 ADD DUP3 DUP6 GAS CALL ISZERO PUSH2 0xCCE JUMPI PUSH0 MLOAD RETURNDATASIZE PUSH2 0xCC5 JUMPI POP PUSH1 0x1 PUSH1 0x1 PUSH1 0xA0 SHL SUB DUP2 AND EXTCODESIZE ISZERO JUMPDEST PUSH2 0xCA3 JUMPI POP JUMP JUMPDEST PUSH1 0x40 MLOAD PUSH4 0x5274AFE7 PUSH1 0xE0 SHL DUP2 MSTORE PUSH1 0x1 PUSH1 0x1 PUSH1 0xA0 SHL SUB SWAP1 SWAP2 AND PUSH1 0x4 DUP3 ADD MSTORE PUSH1 0x24 SWAP1 REVERT JUMPDEST PUSH1 0x1 EQ ISZERO PUSH2 0xC9C JUMP JUMPDEST PUSH1 0x40 MLOAD RETURNDATASIZE PUSH0 DUP3 RETURNDATACOPY RETURNDATASIZE SWAP1 REVERT JUMPDEST SWAP2 SWAP1 DUP3 SUB SWAP2 DUP3 GT PUSH2 0xAAF JUMPI JUMP JUMPDEST DUP2 DUP2 MUL SWAP3 SWAP2 DUP2 ISZERO SWAP2 DUP5 DIV EQ OR ISZERO PUSH2 0xAAF JUMPI JUMP JUMPDEST PUSH1 0x1 DUP1 PUSH1 0xA0 SHL SUB AND PUSH0 MSTORE PUSH1 0x5 PUSH1 0x20 MSTORE PUSH1 0x40 PUSH0 KECCAK256 PUSH1 0x1 DUP2 ADD SWAP1 DUP2 SLOAD ISZERO PUSH2 0xD75 JUMPI PUSH2 0xD23 DUP3 SLOAD NUMBER PUSH2 0xCD9 JUMP JUMPDEST SWAP1 DUP2 ISZERO ISZERO DUP1 PUSH2 0xD6B JUMPI JUMPDEST PUSH2 0xD39 JUMPI JUMPDEST POP POP NUMBER SWAP1 SSTORE JUMP JUMPDEST PUSH1 0x2 PUSH2 0xD4A PUSH2 0xD61 SWAP4 DUP4 SLOAD SWAP1 PUSH2 0xCE6 JUMP JUMPDEST SWAP2 ADD PUSH2 0xD57 DUP3 DUP3 SLOAD PUSH2 0xAA2 JUMP JUMPDEST SWAP1 SSTORE PUSH1 0x4 SLOAD PUSH2 0xAA2 JUMP JUMPDEST PUSH1 0x4 SSTORE PUSH0 DUP1 PUSH2 0xD32 JUMP JUMPDEST POP DUP1 SLOAD ISZERO ISZERO PUSH2 0xD2D JUMP JUMPDEST POP NUMBER SWAP1 SSTORE JUMP JUMPDEST PUSH1 0x40 MLOAD PUSH4 0xA9059CBB PUSH1 0xE0 SHL PUSH1 0x20 DUP3 ADD MSTORE PUSH1 0x1 PUSH1 0x1 PUSH1 0xA0 SHL SUB SWAP1 SWAP3 AND PUSH1 0x24 DUP4 ADD MSTORE PUSH1 0x44 DUP1 DUP4 ADD SWAP4 SWAP1 SWAP4 MSTORE SWAP2 DUP2 MSTORE PUSH1 0x80 DUP2 ADD SWAP2 PUSH8 0xFFFFFFFFFFFFFFFF DUP4 GT DUP3 DUP5 LT OR PUSH2 0xC0B JUMPI PUSH2 0xDCB SWAP3 PUSH1 0x40 MSTORE PUSH2 0xC74 JUMP JUMPDEST JUMP JUMPDEST PUSH0 NOT DUP2 EQ PUSH2 0xAAF JUMPI PUSH1 0x1 ADD SWAP1 JUMP JUMPDEST DUP2 ISZERO PUSH2 0xDE5 JUMPI DIV SWAP1 JUMP JUMPDEST PUSH4 0x4E487B71 PUSH1 0xE0 SHL PUSH0 MSTORE PUSH1 0x12 PUSH1 0x4 MSTORE PUSH1 0x24 PUSH0 REVERT JUMPDEST PUSH32 0x0 PUSH1 0x40 SWAP2 DUP3 MLOAD PUSH4 0x70A08231 PUSH1 0xE0 SHL DUP2 MSTORE PUSH1 0x4 SWAP2 ADDRESS DUP4 DUP4 ADD MSTORE PUSH1 0x20 SWAP2 PUSH1 0x1 DUP1 PUSH1 0xA0 SHL SUB SWAP2 DUP4 DUP3 PUSH1 0x24 DUP2 DUP7 DUP11 AND GAS STATICCALL SWAP2 DUP3 ISZERO PUSH2 0x106F JUMPI PUSH0 SWAP3 PUSH2 0x1040 JUMPI JUMPDEST POP PUSH1 0x3 SWAP2 PUSH2 0xE63 DUP4 SLOAD NUMBER PUSH2 0xCD9 JUMP JUMPDEST DUP1 ISZERO PUSH2 0x1035 JUMPI PUSH32 0x0 SWAP1 DUP3 PUSH2 0xE96 DUP4 DUP4 PUSH2 0xCE6 JUMP JUMPDEST GT ISZERO PUSH2 0x1025 JUMPI POP POP SWAP1 JUMPDEST PUSH0 JUMPDEST PUSH1 0x6 SLOAD DUP2 LT ISZERO PUSH2 0xF1D JUMPI DUP1 DUP6 PUSH2 0xEBA PUSH2 0xF11 SWAP4 PUSH2 0x9D9 JUMP JUMPDEST SWAP1 SLOAD SWAP1 DUP8 SHL SHR AND PUSH0 MSTORE PUSH1 0x5 DUP8 MSTORE DUP10 PUSH0 KECCAK256 DUP1 SLOAD SWAP1 DUP2 ISZERO PUSH2 0xF16 JUMPI DUP1 PUSH1 0x2 PUSH2 0xEF1 PUSH1 0x1 PUSH2 0xF07 SWAP5 ADD SWAP5 PUSH2 0xEEC DUP7 SLOAD NUMBER PUSH2 0xCD9 JUMP JUMPDEST PUSH2 0xCE6 JUMP JUMPDEST SWAP2 ADD PUSH2 0xEFE DUP3 DUP3 SLOAD PUSH2 0xAA2 JUMP JUMPDEST SWAP1 SSTORE DUP11 SLOAD PUSH2 0xAA2 JUMP JUMPDEST DUP10 SSTORE NUMBER SWAP1 SSTORE PUSH2 0xDCD JUMP JUMPDEST PUSH2 0xEA2 JUMP JUMPDEST POP POP PUSH2 0xDCD JUMP JUMPDEST POP SWAP5 SWAP4 SWAP2 SWAP6 SWAP3 SWAP1 SWAP6 PUSH1 0x32 DUP8 MUL DUP8 DUP2 DIV PUSH1 0x32 EQ DUP9 ISZERO OR ISZERO PUSH2 0x1012 JUMPI PUSH2 0x2710 PUSH2 0xF4B SWAP2 DIV DUP1 SWAP9 DUP2 PUSH2 0x1002 JUMPI PUSH2 0xCD9 JUMP JUMPDEST SWAP6 PUSH0 JUMPDEST PUSH1 0x6 SLOAD DUP2 LT ISZERO PUSH2 0xFC7 JUMPI DUP1 DUP9 DUP6 PUSH2 0xF67 PUSH2 0xFA8 SWAP5 PUSH2 0x9D9 JUMP JUMPDEST SWAP1 SLOAD SWAP1 DUP8 SHL SHR AND DUP1 PUSH0 MSTORE PUSH1 0x5 DUP9 MSTORE PUSH1 0x2 DUP14 PUSH0 KECCAK256 ADD SWAP1 DUP2 SLOAD DUP1 ISZERO PUSH2 0xFBE JUMPI PUSH2 0xF92 PUSH2 0xF9A SWAP2 PUSH0 SWAP6 PUSH2 0xCE6 JUMP JUMPDEST DUP13 SLOAD SWAP1 PUSH2 0xDDB JUMP JUMPDEST DUP1 PUSH2 0xFAD JUMPI JUMPDEST POP POP SSTORE PUSH2 0xDCD JUMP JUMPDEST PUSH2 0xF4E JUMP JUMPDEST PUSH2 0xFB7 SWAP2 DUP12 PUSH2 0xD7B JUMP JUMPDEST PUSH0 DUP1 PUSH2 0xFA0 JUMP JUMPDEST POP POP POP POP PUSH2 0xDCD JUMP JUMPDEST POP SWAP8 SWAP6 SWAP5 PUSH32 0x3C3D358C457D91D874593441791F0B96C90172A78030CE0CE7E8E8C965FE1469 SWAP8 SWAP5 POP PUSH0 SWAP2 SWAP3 POP SSTORE NUMBER SWAP1 SSTORE DUP4 MLOAD SWAP3 DUP4 MSTORE DUP3 ADD MSTORE LOG1 JUMP JUMPDEST PUSH2 0x100D DUP3 CALLER DUP10 PUSH2 0xD7B JUMP JUMPDEST PUSH2 0xCD9 JUMP JUMPDEST PUSH1 0x11 DUP7 PUSH4 0x4E487B71 PUSH1 0xE0 SHL PUSH0 MSTORE MSTORE PUSH1 0x24 PUSH0 REVERT JUMPDEST PUSH2 0x102F SWAP3 POP PUSH2 0xCE6 JUMP JUMPDEST SWAP1 PUSH2 0xEA0 JUMP JUMPDEST POP POP SWAP6 POP POP POP POP POP POP JUMP JUMPDEST SWAP1 SWAP2 DUP5 DUP3 DUP2 RETURNDATASIZE DUP4 GT PUSH2 0x1068 JUMPI JUMPDEST PUSH2 0x1057 DUP2 DUP4 PUSH2 0xC52 JUMP JUMPDEST DUP2 ADD SUB SLT PUSH2 0x3E8 JUMPI POP MLOAD SWAP1 PUSH0 PUSH2 0xE54 JUMP JUMPDEST POP RETURNDATASIZE PUSH2 0x104D JUMP JUMPDEST DUP8 MLOAD RETURNDATASIZE PUSH0 DUP3 RETURNDATACOPY RETURNDATASIZE SWAP1 REVERT JUMPDEST PUSH1 0x1 PUSH1 0x1 PUSH1 0xA0 SHL SUB AND PUSH0 SWAP1 DUP2 MSTORE PUSH1 0x5 PUSH1 0x20 MSTORE PUSH1 0x40 DUP2 KECCAK256 DUP1 SLOAD SWAP2 DUP3 ISZERO PUSH2 0x1142 JUMPI PUSH2 0x10A4 PUSH1 0x3 SLOAD NUMBER PUSH2 0xCD9 JUMP JUMPDEST SWAP3 DUP4 ISZERO PUSH2 0x1163 JUMPI PUSH1 0x1 PUSH1 0x2 DUP5 ADD SLOAD SWAP4 ADD SLOAD DUP1 PUSH2 0x1148 JUMPI JUMPDEST POP POP DUP2 ISZERO PUSH2 0x1142 JUMPI PUSH2 0x10FA PUSH2 0x10D2 DUP4 PUSH1 0x4 SLOAD PUSH2 0xAA2 JUMP JUMPDEST SWAP4 PUSH32 0x0 SWAP1 PUSH2 0xCE6 JUMP JUMPDEST SWAP1 PUSH1 0x32 DUP3 MUL SWAP1 DUP3 DUP3 DIV PUSH1 0x32 EQ DUP4 ISZERO OR ISZERO PUSH2 0x112E JUMPI POP SWAP2 PUSH2 0xEEC PUSH2 0x1126 SWAP3 PUSH2 0x2710 PUSH2 0x112B SWAP7 SWAP6 DIV SWAP1 PUSH2 0xCD9 JUMP JUMPDEST PUSH2 0xDDB JUMP JUMPDEST SWAP1 JUMP JUMPDEST PUSH4 0x4E487B71 PUSH1 0xE0 SHL DUP2 MSTORE PUSH1 0x11 PUSH1 0x4 MSTORE PUSH1 0x24 SWAP1 REVERT JUMPDEST SWAP2 POP POP SWAP1 JUMP JUMPDEST PUSH2 0x115B SWAP3 SWAP4 SWAP2 PUSH2 0xEEC PUSH2 0x368 SWAP3 NUMBER PUSH2 0xCD9 JUMP JUMPDEST SWAP1 PUSH0 DUP1 PUSH2 0x10BB JUMP JUMPDEST POP SWAP2 POP POP SWAP1 JUMP JUMPDEST PUSH2 0x1176 PUSH1 0x3 SLOAD NUMBER PUSH2 0xCD9 JUMP JUMPDEST DUP1 ISZERO PUSH2 0x11A7 JUMPI PUSH2 0x112B SWAP1 PUSH32 0x0 SWAP1 PUSH2 0xCE6 JUMP JUMPDEST POP PUSH0 SWAP1 JUMP INVALID LOG2 PUSH5 0x6970667358 0x22 SLT KECCAK256 CODESIZE 0xD2 KECCAK256 0xF8 REVERT EQ 0xDC MLOAD 0x25 MULMOD LOG4 0xAF PUSH29 0xA55E56B9900213198AF3A4AFAB31CF52ED14A464736F6C634300081400 CALLER "
		},
		"gasEstimates": {
			"creation": {
				"codeDepositCost": "915600",
				"executionCost": "infinite",
				"totalCost": "infinite"
			},
			"external": {
				"BP_DENOM()": "322",
				"CALLER_FEE_BP()": "691",
				"claimAll()": "infinite",
				"claimableReward(address)": "infinite",
				"deposit(uint256)": "infinite",
				"depositFor(address,uint256)": "infinite",
				"getUserXP(address)": "7324",
				"lastRewardBlock()": "2538",
				"lpToken()": "infinite",
				"owner()": "2515",
				"participantCount()": "2340",
				"participants(uint256)": "6653",
				"remainingRewardPool()": "infinite",
				"renounceOwnership()": "28210",
				"rewardPerBlock()": "infinite",
				"rewardToken()": "infinite",
				"router()": "2801",
				"setRouter(address)": "28031",
				"totalLPLocked()": "infinite",
				"totalXP()": "2560",
				"transferOwnership(address)": "28616",
				"users(address)": "6921",
				"withdraw(uint256)": "infinite",
				"withdrawAll()": "infinite",
				"withdrawAllRewards()": "infinite"
			},
			"internal": {
				"_depositFor(address,address,uint256)": "infinite",
				"_updateUserXP(address)": "infinite"
			}
		},
		"methodIdentifiers": {
			"BP_DENOM()": "71bf8623",
			"CALLER_FEE_BP()": "fc7039e0",
			"claimAll()": "d1058e59",
			"claimableReward(address)": "e9503425",
			"deposit(uint256)": "b6b55f25",
			"depositFor(address,uint256)": "2f4f21e2",
			"getUserXP(address)": "e9e7eb35",
			"lastRewardBlock()": "a9f8d181",
			"lpToken()": "5fcbd285",
			"owner()": "8da5cb5b",
			"participantCount()": "362f04c0",
			"participants(uint256)": "35c1d349",
			"remainingRewardPool()": "e7a0fb9b",
			"renounceOwnership()": "715018a6",
			"rewardPerBlock()": "8ae39cac",
			"rewardToken()": "f7c618c1",
			"router()": "f887ea40",
			"setRouter(address)": "c0d78655",
			"totalLPLocked()": "f7e4cd0d",
			"totalXP()": "aa93bfa8",
			"transferOwnership(address)": "f2fde38b",
			"users(address)": "a87430ba",
			"withdraw(uint256)": "2e1a7d4d",
			"withdrawAll()": "853828b6",
			"withdrawAllRewards()": "45114ee5"
		}
	},
	"abi": [
		{
			"inputs": [
				{
					"internalType": "address",
					"name": "_lpToken",
					"type": "address"
				},
				{
					"internalType": "address",
					"name": "_rewardToken",
					"type": "address"
				}
			],
			"stateMutability": "nonpayable",
			"type": "constructor"
		},
		{
			"inputs": [
				{
					"internalType": "address",
					"name": "owner",
					"type": "address"
				}
			],
			"name": "OwnableInvalidOwner",
			"type": "error"
		},
		{
			"inputs": [
				{
					"internalType": "address",
					"name": "account",
					"type": "address"
				}
			],
			"name": "OwnableUnauthorizedAccount",
			"type": "error"
		},
		{
			"inputs": [
				{
					"internalType": "address",
					"name": "token",
					"type": "address"
				}
			],
			"name": "SafeERC20FailedOperation",
			"type": "error"
		},
		{
			"anonymous": false,
			"inputs": [
				{
					"indexed": false,
					"internalType": "uint256",
					"name": "totalDistributed",
					"type": "uint256"
				},
				{
					"indexed": false,
					"internalType": "uint256",
					"name": "callerReward",
					"type": "uint256"
				}
			],
			"name": "ClaimAll",
			"type": "event"
		},
		{
			"anonymous": false,
			"inputs": [
				{
					"indexed": true,
					"internalType": "address",
					"name": "user",
					"type": "address"
				},
				{
					"indexed": false,
					"internalType": "uint256",
					"name": "amount",
					"type": "uint256"
				}
			],
			"name": "Deposited",
			"type": "event"
		},
		{
			"anonymous": false,
			"inputs": [
				{
					"indexed": true,
					"internalType": "address",
					"name": "previousOwner",
					"type": "address"
				},
				{
					"indexed": true,
					"internalType": "address",
					"name": "newOwner",
					"type": "address"
				}
			],
			"name": "OwnershipTransferred",
			"type": "event"
		},
		{
			"anonymous": false,
			"inputs": [
				{
					"indexed": false,
					"internalType": "address",
					"name": "router",
					"type": "address"
				}
			],
			"name": "RouterSet",
			"type": "event"
		},
		{
			"anonymous": false,
			"inputs": [
				{
					"indexed": true,
					"internalType": "address",
					"name": "user",
					"type": "address"
				},
				{
					"indexed": false,
					"internalType": "uint256",
					"name": "amount",
					"type": "uint256"
				}
			],
			"name": "Withdrawn",
			"type": "event"
		},
		{
			"inputs": [],
			"name": "BP_DENOM",
			"outputs": [
				{
					"internalType": "uint256",
					"name": "",
					"type": "uint256"
				}
			],
			"stateMutability": "view",
			"type": "function"
		},
		{
			"inputs": [],
			"name": "CALLER_FEE_BP",
			"outputs": [
				{
					"internalType": "uint256",
					"name": "",
					"type": "uint256"
				}
			],
			"stateMutability": "view",
			"type": "function"
		},
		{
			"inputs": [],
			"name": "claimAll",
			"outputs": [],
			"stateMutability": "nonpayable",
			"type": "function"
		},
		{
			"inputs": [
				{
					"internalType": "address",
					"name": "userAddr",
					"type": "address"
				}
			],
			"name": "claimableReward",
			"outputs": [
				{
					"internalType": "uint256",
					"name": "",
					"type": "uint256"
				}
			],
			"stateMutability": "view",
			"type": "function"
		},
		{
			"inputs": [
				{
					"internalType": "uint256",
					"name": "amount",
					"type": "uint256"
				}
			],
			"name": "deposit",
			"outputs": [],
			"stateMutability": "nonpayable",
			"type": "function"
		},
		{
			"inputs": [
				{
					"internalType": "address",
					"name": "user",
					"type": "address"
				},
				{
					"internalType": "uint256",
					"name": "amount",
					"type": "uint256"
				}
			],
			"name": "depositFor",
			"outputs": [],
			"stateMutability": "nonpayable",
			"type": "function"
		},
		{
			"inputs": [
				{
					"internalType": "address",
					"name": "userAddr",
					"type": "address"
				}
			],
			"name": "getUserXP",
			"outputs": [
				{
					"internalType": "uint256",
					"name": "",
					"type": "uint256"
				}
			],
			"stateMutability": "view",
			"type": "function"
		},
		{
			"inputs": [],
			"name": "lastRewardBlock",
			"outputs": [
				{
					"internalType": "uint256",
					"name": "",
					"type": "uint256"
				}
			],
			"stateMutability": "view",
			"type": "function"
		},
		{
			"inputs": [],
			"name": "lpToken",
			"outputs": [
				{
					"internalType": "contract IERC20",
					"name": "",
					"type": "address"
				}
			],
			"stateMutability": "view",
			"type": "function"
		},
		{
			"inputs": [],
			"name": "owner",
			"outputs": [
				{
					"internalType": "address",
					"name": "",
					"type": "address"
				}
			],
			"stateMutability": "view",
			"type": "function"
		},
		{
			"inputs": [],
			"name": "participantCount",
			"outputs": [
				{
					"internalType": "uint256",
					"name": "",
					"type": "uint256"
				}
			],
			"stateMutability": "view",
			"type": "function"
		},
		{
			"inputs": [
				{
					"internalType": "uint256",
					"name": "",
					"type": "uint256"
				}
			],
			"name": "participants",
			"outputs": [
				{
					"internalType": "address",
					"name": "",
					"type": "address"
				}
			],
			"stateMutability": "view",
			"type": "function"
		},
		{
			"inputs": [],
			"name": "remainingRewardPool",
			"outputs": [
				{
					"internalType": "uint256",
					"name": "",
					"type": "uint256"
				}
			],
			"stateMutability": "view",
			"type": "function"
		},
		{
			"inputs": [],
			"name": "renounceOwnership",
			"outputs": [],
			"stateMutability": "nonpayable",
			"type": "function"
		},
		{
			"inputs": [],
			"name": "rewardPerBlock",
			"outputs": [
				{
					"internalType": "uint256",
					"name": "",
					"type": "uint256"
				}
			],
			"stateMutability": "view",
			"type": "function"
		},
		{
			"inputs": [],
			"name": "rewardToken",
			"outputs": [
				{
					"internalType": "contract IERC20",
					"name": "",
					"type": "address"
				}
			],
			"stateMutability": "view",
			"type": "function"
		},
		{
			"inputs": [],
			"name": "router",
			"outputs": [
				{
					"internalType": "address",
					"name": "",
					"type": "address"
				}
			],
			"stateMutability": "view",
			"type": "function"
		},
		{
			"inputs": [
				{
					"internalType": "address",
					"name": "_router",
					"type": "address"
				}
			],
			"name": "setRouter",
			"outputs": [],
			"stateMutability": "nonpayable",
			"type": "function"
		},
		{
			"inputs": [],
			"name": "totalLPLocked",
			"outputs": [
				{
					"internalType": "uint256",
					"name": "",
					"type": "uint256"
				}
			],
			"stateMutability": "view",
			"type": "function"
		},
		{
			"inputs": [],
			"name": "totalXP",
			"outputs": [
				{
					"internalType": "uint256",
					"name": "",
					"type": "uint256"
				}
			],
			"stateMutability": "view",
			"type": "function"
		},
		{
			"inputs": [
				{
					"internalType": "address",
					"name": "newOwner",
					"type": "address"
				}
			],
			"name": "transferOwnership",
			"outputs": [],
			"stateMutability": "nonpayable",
			"type": "function"
		},
		{
			"inputs": [
				{
					"internalType": "address",
					"name": "",
					"type": "address"
				}
			],
			"name": "users",
			"outputs": [
				{
					"internalType": "uint256",
					"name": "balance",
					"type": "uint256"
				},
				{
					"internalType": "uint256",
					"name": "lastUpdateBlock",
					"type": "uint256"
				},
				{
					"internalType": "uint256",
					"name": "xp",
					"type": "uint256"
				}
			],
			"stateMutability": "view",
			"type": "function"
		},
		{
			"inputs": [
				{
					"internalType": "uint256",
					"name": "amount",
					"type": "uint256"
				}
			],
			"name": "withdraw",
			"outputs": [],
			"stateMutability": "nonpayable",
			"type": "function"
		},
		{
			"inputs": [],
			"name": "withdrawAll",
			"outputs": [],
			"stateMutability": "nonpayable",
			"type": "function"
		},
		{
			"inputs": [],
			"name": "withdrawAllRewards",
			"outputs": [],
			"stateMutability": "nonpayable",
			"type": "function"
		}
	]
}