{
	"data": {
		"bytecode": {
			"linkReferences": {},
			"object": "6080346100c857601f6133b938819003918201601f19168301916001600160401b038311848410176100cc578084926020946040528339810103126100c857516001600160a01b038116908190036100c857603260035560196004558015610083575f80546001600160a01b0319169190911790556040516132d890816100e18239f35b60405162461bcd60e51b815260206004820152601860248201527f696e76616c69642070726f746f636f6c206164647265737300000000000000006044820152606490fd5b5f80fd5b634e487b7160e01b5f52604160045260245ffdfe6080604052600436101562000012575f80fd5b5f803560e01c80630b78f9c01462000b295780630e5dee451462000b085780638ce744261462000adf5780639094a91e1462000a9657806397331bf914620009ff578063a444477b14620003d3578063b1e3a9411462000393578063c5c2853d146200030f578063c5fba0b814620002ef578063c99cb2b714620000f8578063f25e78b114620000d85763f98e006a14620000ab575f80fd5b34620000d55780600319360112620000d5576001546040516001600160a01b039091168152602090f35b80fd5b5034620000d55780600319360112620000d5576020600454604051908152f35b5034620000d557602080600319360112620002eb576200011762000c6a565b82546001600160a01b03918291821633148015620002dd575b6200013b9062000cb5565b16918215620002af57604051637e062a3560e11b80825291908181600481885afa80156200027e576200028d575b50833b156200028957604051630c4bb7d160e11b8152858160048183895af180156200027e576200024c575b506040519182528082600481875afa9182156200024157600592849187916200020d575b5016855252604083209082825491821614620001f9575b50507f56e87d53b3df539e22b78c93f5852467c09176615a569a3052d9b4b954612a6d8280a280f35b6001600160a01b03191690555f80620001d0565b620002329150833d851162000239575b62000229818362000d4e565b81019062000dcd565b5f620001b9565b503d6200021d565b6040513d87823e3d90fd5b67ffffffffffffffff81969296116200026a57604052935f62000195565b634e487b7160e01b82526041600452602482fd5b6040513d88823e3d90fd5b8480fd5b620002a790823d8411620002395762000229818362000d4e565b505f62000169565b6064906040519062461bcd60e51b82526004820152600760248201526607661756c7420360cc1b6044820152fd5b506001548216331462000130565b5080fd5b5034620000d55780600319360112620000d5576020600354604051908152f35b5034620000d5576020366003190112620000d5576200032d62000c6a565b81546001600160a01b039190821633036200035e57166bffffffffffffffffffffffff60a01b600154161760015580f35b60405162461bcd60e51b815260206004820152600d60248201526c1bdb9b1e481c1c9bdd1bd8dbdb609a1b6044820152606490fd5b5034620000d5576020366003190112620000d5576020906001600160a01b039060409082620003c162000c6a565b16815260058452205416604051908152f35b5034620000d55760e0366003190112620000d557620003f162000c6a565b67ffffffffffffffff60843511620002eb57366023608435011215620002eb5767ffffffffffffffff6084356004013511620002eb573660246084356004013560051b608435010111620002eb5760a43567ffffffffffffffff8111620009fb576200046290369060040162000c81565b9060c43567ffffffffffffffff811162000289576200048690369060040162000c81565b85546001600160a01b0316939192913385148015620009e6575b620004ab9062000cb5565b6001600160a01b03861615620009b7576001600160a01b03868116885260056020526040882054166200097c57620004e38162000d71565b92620004f3604051948562000d4e565b818452620005018262000d71565b885b601f198201811062000956575050875b828110620008b057505050620005298162000d71565b9262000539604051948562000d4e565b818452620005478262000d71565b875b601f19820181106200088a575050865b8281106200079d575050604051936123e6808601925067ffffffffffffffff831186841017620007895762000ebd863981526001600160a01b03851660208201523060408201526024356060820152604435608082015260643560a082015261012060c08201819052600460843501359082018190526001600160fb1b03106200078557908392916101406084356004013560051b6024608435018284013760206101606084356004013560051b8401838101938582030160e0860152855180945201930190885b8181106200074f5750505061010081830391015260208083519283815201920190865b8181106200071d57505050039083f08015620007125760018060a01b03169060025468010000000000000000811015620006fe576020936200068f8260016040940160025562000c20565b81546001600160a01b0360039290921b82811b199091169087901b179091559290921680835260058552912080546001600160a01b031916831790556040518281527f5d9c31ffa0fecffd7cf379989a3c7af252f0335e0d2a1320b55245912c781f53908490a2604051908152f35b634e487b7160e01b84526041600452602484fd5b6040513d84823e3d90fd5b91935091602062000741600192865190602060409280518352015160208201520190565b940191019184939262000644565b919495509192602062000775600192875190602060409280518352015160208201520190565b9501910191869594939262000621565b8580fd5b634e487b7160e01b88526041600452602488fd5b8062000804575b80620007b6620007fe92858562000d99565b356020620007c683878762000d99565b013560405191620007d78362000d1d565b82526020820152620007ea828862000db8565b52620007f7818762000db8565b5062000d8a565b62000559565b6200081181848462000d99565b355f19820182811162000876576200082b90858562000d99565b3510620007a457606460405162461bcd60e51b815260206004820152602060248201527f416d6f756e74206d756c7469706c69657273206e6f7420617363656e64696e676044820152fd5b634e487b7160e01b8a52601160045260248afd5b6020906040516200089b8162000d1d565b8a81528a838201528282890101520162000549565b80620008cf575b80620007b6620008c992858562000d99565b62000513565b620008dc81848462000d99565b355f1982018281116200094257620008f690858562000d99565b3510620008b75760405162461bcd60e51b815260206004820152601e60248201527f54696d65206d756c7469706c69657273206e6f7420617363656e64696e6700006044820152606490fd5b634e487b7160e01b8b52601160045260248bfd5b602090604051620009678162000d1d565b8b81528b838201528282890101520162000503565b60405162461bcd60e51b8152602060048201526013602482015272616374697665207661756c742065786973747360681b6044820152606490fd5b60405162461bcd60e51b81526020600482015260076024820152660746f6b656e20360cc1b6044820152606490fd5b506001546001600160a01b03163314620004a0565b8280fd5b5034620000d55780600319360112620000d557604051600280548083529083526020808301937f405787fa12a823e0f2b7631cc41b3ba8828b3321ca811111fa75cd3aa3bb5ace92915b82821062000a755762000a718562000a648189038262000d4e565b6040519182918262000bdb565b0390f35b83546001600160a01b03168652948501946001938401939091019062000a49565b5034620000d5576020366003190112620000d55760043590600254821015620000d557602062000ac68362000c20565b905460405160039290921b1c6001600160a01b03168152f35b5034620000d55780600319360112620000d557546040516001600160a01b039091168152602090f35b5034620000d55762000a7162000a6462000b223662000bc0565b9062000dee565b5034620000d55762000b3b3662000bc0565b9062000b5d60018060a01b0380855416331490811562000bb1575b5062000cb5565b61271062000b6c838362000cfb565b101562000b7c5760035560045580f35b60405162461bcd60e51b815260206004820152600d60248201526c0cccacae640e8dede40d0d2ced609b1b6044820152606490fd5b90506001541633145f62000b56565b604090600319011262000bd7576004359060243590565b5f80fd5b602090816040818301928281528551809452019301915f5b82811062000c02575050505090565b83516001600160a01b03168552938101939281019260010162000bf3565b60025481101562000c565760025f527f405787fa12a823e0f2b7631cc41b3ba8828b3321ca811111fa75cd3aa3bb5ace01905f90565b634e487b7160e01b5f52603260045260245ffd5b600435906001600160a01b038216820362000bd757565b9181601f8401121562000bd75782359167ffffffffffffffff831162000bd7576020808501948460061b01011162000bd757565b1562000cbd57565b60405162461bcd60e51b8152602060048201526016602482015275199858dd1bdc9e4e881bdb9b1e481c1c9bdd1bd8dbdb60521b6044820152606490fd5b9190820180921162000d0957565b634e487b7160e01b5f52601160045260245ffd5b6040810190811067ffffffffffffffff82111762000d3a57604052565b634e487b7160e01b5f52604160045260245ffd5b90601f8019910116810190811067ffffffffffffffff82111762000d3a57604052565b67ffffffffffffffff811162000d3a5760051b60200190565b5f19811462000d095760010190565b919081101562000c565760061b0190565b9190820391821162000d0957565b805182101562000c565760209160051b010190565b9081602091031262000bd757516001600160a01b038116810362000bd75790565b9190600254908184101562000eb45762000e09908462000cfb565b9080821162000eab575b5062000e20838262000daa565b9262000e2c8462000d71565b9362000e3c604051958662000d4e565b80855262000e4d601f199162000d71565b0136602086013783815b83811062000e655750505050565b8062000e7562000ea59262000c20565b905460039190911b1c6001600160a01b031662000e9e62000e97868462000daa565b8562000db8565b5262000d8a565b62000e57565b90505f62000e13565b50606092505056fe61014060405234620004b357620023e6803803806200001e81620004cc565b928339610120828281010312620004b3576200003a82620004f2565b906200004960208401620004f2565b926200005860408201620004f2565b6060820151608083015160a084015160c0850151979092906001600160401b038911620004b357868601601f8a8801011215620004b3578886015195620000a9620000a38862000507565b620004cc565b9660208882815201809b8a840160208460051b838701010111620004b35790602082850101915b60208460051b82870101018310620004b7575050505060e08101516001600160401b038111620004b3578101888201601f82011215620004b3576200011f90898301906020815191016200051f565b6101008201519098906001600160401b038111620004b357820190808301601f83011215620004b3576200015b9201906020815191016200051f565b60015f8190556004805461ffff19169091179055976001600160a01b038082161562000481578216156200045257838311620004235760805260c05260e052610100526101205260a052516001600160401b0381116200026c5768010000000000000000938482116200026c5760015482600155808310620003dc575b5060015f5260205f205f5b838110620003c757505050505f5b81518110156200028057620002078183620005d6565b51906002805492868410156200026c5760018401808355841015620002585762000252936200024c925f5260205f209060011b01906020600191805184550151910155565b620005b3565b620001f1565b634e487b7160e01b5f52603260045260245ffd5b634e487b7160e01b5f52604160045260245ffd5b50505f5b8151811015620002e5576200029a8183620005d6565b51906003805492858410156200026c57600184018083558410156200025857620002df936200024c925f5260205f209060011b01906020600191805184550151910155565b62000284565b604051611dfa9081620005ec82396080518181816102950152818161083401528181610a9c01528181610c3001528181610fcd015261134c015260a0518181816101ee0152818161069901528181610bd40152818161123c015281816113bc015281816118790152611b2d015260c05181818161035a0152818161097101528181610a6301528181610abd01528181610b2f015281816110bc015281816111cc015281816111ff01526117a2015260e0518181816102e401526112b50152610100518181816106290152610f5a0152610120518181816114380152611c600152f35b600190602084519401938184015501620001e3565b60015f527fb10e2d527612073b26eecdfd717e6a320cf44b4afac2b0732d9fcbe2b7fa0cf69081019083015b818110620004175750620001d8565b5f815560010162000408565b60405162461bcd60e51b81526020600482015260076024820152660dad2dc7cdac2f60cb1b6044820152606490fd5b60405162461bcd60e51b81526020600482015260076024820152660746f6b656e20360cc1b6044820152606490fd5b60405162461bcd60e51b815260206004820152600a602482015269070726f746f636f6c20360b41b6044820152606490fd5b5f80fd5b602080809385518152019301929150620000d0565b6040519190601f01601f191682016001600160401b038111838210176200026c57604052565b51906001600160a01b0382168203620004b357565b6001600160401b0381116200026c5760051b60200190565b90929162000531620000a38562000507565b938085526020918286019160061b840193818511620004b357915b8483106200055b575050505050565b60408084840312620004b357805180820192906001600160401b038411818510176200059f576040938793528551815282860151838201528152019201916200054c565b60245f634e487b7160e01b81526041600452fd5b5f198114620005c25760010190565b634e487b7160e01b5f52601160045260245ffd5b8051821015620002585760209160051b01019056fe6080806040526004361015610012575f80fd5b5f3560e01c90816275844c1461147d5750806302fb0c5e1461145b578063094b81d31461142157806310390d35146113f857806318976fa21461132f57806322f3e2d4146112f5578063359cfbf7146112d857806341b3d1851461129e5780635350cbd914611275578063580fc80a14610fa2578063597e1fb514610f7d5780636083e59a14610f43578063639487f414610d6c5780636a5908a014610d235780636c4470fb14610c5f578063703bafd5146101655780638ce7442614610c1b57806396d8ef8e146107fd57806399fbab8814610792578063a0660dfa14610755578063a547afe014610729578063ac55deb6146106d2578063b1b0ebcc14610257578063b9b792cd1461023a578063c122c2a11461021d578063c45a0155146101d9578063cba02476146101b1578063d6887bfa14610194578063db8d55f11461016a5763fc0c546a14610165575f80fd5b61178d565b34610190575f366003190112610190576040610184611b1a565b82519182526020820152f35b5f80fd5b34610190575f366003190112610190576020600554604051908152f35b346101905760203660031901126101905760206101cf60043561190a565b6040519015158152f35b34610190575f366003190112610190576040517f00000000000000000000000000000000000000000000000000000000000000006001600160a01b03168152602090f35b34610190575f366003190112610190576020600254604051908152f35b34610190575f366003190112610190576020600354604051908152f35b34610190576060366003190112610190576001600160a01b0360448035828116916004359160248035929091859003610190576102926119cc565b857f000000000000000000000000000000000000000000000000000000000000000016331480156106c0575b8015610695575b6102ce90611951565b60045460ff81169081610686575b5015610650577f000000000000000000000000000000000000000000000000000000000000000084101580610626575b156105ec5782156105be576103208361190a565b156105865761037f90604051906323b872dd60e01b6020830152338483015230908201528460648201526064815261035781611809565b867f000000000000000000000000000000000000000000000000000000000000000016611a20565b610389824361198d565b946040519161039783611809565b858352602083019285845260408101974389526060820190815260808201985f8a5260055494600160401b9586811015610573578060016103db92016005556117d1565b9490946105615751845491166001600160a01b03199182161784559551600184015551600283015551600382015596516004909701805460ff1990811698151560ff169890981790556005545f1981019790881161054d57865f5260066020526104488860405f206119a7565b865f52600960205260405f2090815460ff8116156104a9575b89897f9cfd25589d1eb8ad71e342a86a8524e83522e3936c0803048c08f6d9ad974f4060608b6104918c4361198d565b6040519182524360208301526040820152a360015f55005b1660011790556008549182101561053a576001820180600855821015610527575060085f527ff3f7a9fe364faab93b216da50a3214154f22a0a2b415b23a84c8169e8b636ee3018054909116841790558161049160607f9cfd25589d1eb8ad71e342a86a8524e83522e3936c0803048c08f6d9ad974f408880610461565b634e487b7160e01b5f9081526032600452fd5b634e487b7160e01b5f9081526041600452fd5b50634e487b7160e01b5f9081526011600452fd5b85634e487b7160e01b5f525f6004525ffd5b85634e487b7160e01b5f5260416004525ffd5b90711c1c995cd95d081b9bdd08185b1b1bddd95960721b60649260126040519362461bcd60e51b855260206004860152840152820152fd5b90670626c6f636b733e360c41b60649260086040519362461bcd60e51b855260206004860152840152820152fd5b9073616d6f756e74206f7574206f6620626f756e647360601b60649260146040519362461bcd60e51b855260206004860152840152820152fd5b507f000000000000000000000000000000000000000000000000000000000000000084111561030c565b906f7661756c74206e6f742061637469766560801b60649260106040519362461bcd60e51b855260206004860152840152820152fd5b60ff915060081c1615876102dc565b50337f00000000000000000000000000000000000000000000000000000000000000008716146102c5565b50856106ca61185b565b1633146102be565b34610190576040366003190112610190576106eb6116a9565b6001600160a01b03165f908152600760205260409020805460243591908210156101905760209161071b91611708565b90546040519160031b1c8152f35b34610190575f36600319011261019057602061074361185b565b6040516001600160a01b039091168152f35b34610190576020366003190112610190576004356003548110156101905761077e604091611755565b506001815491015482519182526020820152f35b3461019057602036600319011261019057600435600554811015610190576107bb60a0916117d1565b50600180831b0381541690600181015490600281015460ff60046003840154930154169260405194855260208501526040840152606083015215156080820152f35b34610190576040366003190112610190576108166116a9565b6024356001600160a01b0381169003610190576108316119cc565b337f00000000000000000000000000000000000000000000000000000000000000006001600160a01b0316148015610c02575b8015610bd0575b61087490611951565b61087c611b1a565b6001600160a01b0383165f9081526006602052604081209293909291905b8254841015610bca576108ad8484611708565b9054906108be828260031b1c6117d1565b50600381015443109060048101549160ff81818516159182610ba9575b505015610b9457906109f5949392916001809360ff1916176004830155155f14610b125761092e906024356001600160a01b03908116908816148015610b02578b935b8201549361271093849186611a7a565b04926109448d61093e868861199a565b96611a7a565b045f9115610af0575b80610a96575b5080610a5a575b5080546109969084906001600160a01b03908116907f000000000000000000000000000000000000000000000000000000000000000016611aca565b60018060a01b039054169060405192835260208301527f7b381718bec1e0dbc1241809ee9b55f3d783b95880307f002707fad981fa50696040858560031b1c93a35b60018060a01b0384165f52600760205260031b1c60405f206119a7565b82545f198101908111610a4657610a0f610a389185611708565b90549060031b1c610a208686611708565b90919082549060031b91821b915f19901b1916179055565b610a4183611a8d565b61089a565b634e487b7160e01b5f52601160045260245ffd5b610a90906024357f00000000000000000000000000000000000000000000000000000000000000006001600160a01b0316611aca565b8b61095a565b610aea907f00000000000000000000000000000000000000000000000000000000000000007f00000000000000000000000000000000000000000000000000000000000000006001600160a01b0316611aca565b8c610953565b9050610afc818461199a565b9061094d565b610b0c898d61198d565b9361091e565b908101548154909190610b549083906001600160a01b03908116907f000000000000000000000000000000000000000000000000000000000000000016611aca565b60018060a01b039054166040519182527fbaea19541010bad0070d3e9eba7d614e4f22a90d557eb4b70272d33a32793a076020858560031b1c93a36109d8565b505050505092610ba3906118fc565b9261089a565b8115925090610bbb575b50818c6108db565b905060045460081c168b610bb3565b60015f55005b50337f00000000000000000000000000000000000000000000000000000000000000006001600160a01b03161461086b565b506001600160a01b03610c1361185b565b163314610864565b34610190575f366003190112610190576040517f00000000000000000000000000000000000000000000000000000000000000006001600160a01b03168152602090f35b34610190575f36600319011261019057604051806008548083526020809301809160085f527ff3f7a9fe364faab93b216da50a3214154f22a0a2b415b23a84c8169e8b636ee3905f5b86828210610d06578686610cbe82880383611839565b60405192839281840190828552518091526040840192915f5b828110610ce657505050500390f35b83516001600160a01b031685528695509381019392810192600101610cd7565b83546001600160a01b031685529093019260019283019201610ca8565b3461019057604036600319011261019057610d3c6116a9565b6001600160a01b03165f908152600660205260409020805460243591908210156101905760209161071b91611708565b346101905760208060031936011261019057610d866116a9565b6001600160a01b03165f818152600683526040808220905181548082529183528483209094929391859081850190865b86828210610f2d57505050610dcd92500385611839565b5f526007815260405f20916040518084848296549384815201905f52845f20925f5b86828210610f1757505050610e0692500384611839565b5f905b8451821015610ea557610e2e610e28610e228488611bff565b516117d1565b50611c13565b606081018481514381115f14610ea05750435b604084019081519081811115610e905792610e76610e849693610e6c610e8a999794610e7e9761199a565b935190519061199a565b920151611c5d565b9061198d565b916118fc565b90610e09565b50505050505090610e8a906118fc565b610e41565b5f9291505b8351831015610f0f57610ec3610e28610e228587611bff565b606081015160408201519081811115610f025784610ef693610eec610efc9694610e7e9461199a565b9182910151611c5d565b926118fc565b91610eaa565b50505091610efc906118fc565b604051908152f35b8554845260019586019589955093019201610def565b855484526001958601958a955093019201610db6565b34610190575f3660031901126101905760206040517f00000000000000000000000000000000000000000000000000000000000000008152f35b34610190575f36600319011261019057602060ff60045460081c166040519015158152f35b3461019057602036600319011261019057610fbb6116a9565b610fc36119cc565b6001600160a01b037f000000000000000000000000000000000000000000000000000000000000000033828216148015611263575b8015611238575b61100890611951565b61101b611013611b1a565b81929161198d565b905f5b600554811015610bca57611031816117d1565b5060048101805460ff8116158061122a575b611059575b505050611054906118fc565b61101e565b9060018895979498939260ff9a979a1916179055600181015487612710806110818c85611a7a565b04906110978a611091848761199a565b95611a7a565b046110a2818361199a565b90806111f7575b50806111c4575b506110e18386865416877f000000000000000000000000000000000000000000000000000000000000000016611aca565b7f7b381718bec1e0dbc1241809ee9b55f3d783b95880307f002707fad981fa506960408686541694859382519182526020820152a35f52600760205261112a8760405f206119a7565b54165f52600660205260405f20955f5b8754808210156111b3578761114f838b611708565b919054600392831b1c1461116d575050611168906118fc565b61113a565b5f99919294979598939699198301928311610a465761105494610a206111a69261119a6111ab9686611708565b9054911b1c9184611708565b611a8d565b908780611048565b5050929550929093611054906111ab565b6111f19089877f000000000000000000000000000000000000000000000000000000000000000016611aca565b8b6110b0565b6112249088887f000000000000000000000000000000000000000000000000000000000000000016611aca565b8c6110a9565b506003830154431015611043565b50337f0000000000000000000000000000000000000000000000000000000000000000831614610fff565b508161126d61185b565b163314610ff8565b34610190576020366003190112610190576004356002548110156101905761077e60409161171d565b34610190575f3660031901126101905760206040517f00000000000000000000000000000000000000000000000000000000000000008152f35b34610190575f366003190112610190576020600154604051908152f35b34610190575f36600319011261019057602060045460ff81169081611320575b506040519015158152f35b60ff915060081c161582611315565b34610190575f3660031901126101905761138360018060a01b03807f00000000000000000000000000000000000000000000000000000000000000001633149081156113e4575b81156113b8575b50611951565b61010061ffff1960045416176004557fdf23397ab444d891935a0b305b1552fb235d2bd07043ffc42c6ed3f43a4d83525f80a1005b90507f00000000000000000000000000000000000000000000000000000000000000001633148261137d565b8091506113ef61185b565b16331490611376565b34610190576020366003190112610190576004356001548110156101905761071b6020916116bf565b34610190575f3660031901126101905760206040517f00000000000000000000000000000000000000000000000000000000000000008152f35b34610190575f36600319011261019057602060ff600454166040519015158152f35b3461019057602080600319360112610190576001600160a01b0390816114a16116a9565b16805f526006825260405f2084815491828252848201905f52845f20925f5b86828210611693575050506114d792500385611839565b5f526007815260405f20906040518083838295549384815201905f52835f20925f5b8582821061167d5750505061151092500383611839565b61151d845183519061198d565b9161152783611dac565b926115356040519485611839565b808452611544601f1991611dac565b01825f5b828110611649575050505f5b85518110156115915780611571610e28610e2261158c948a611bff565b61157b8287611bff565b526115868186611bff565b506118fc565b611554565b5090925f5b82518110156115de57806115866115b3610e226115d99487611bff565b506115c86115c2848b5161198d565b91611c13565b6115d28289611bff565b5286611bff565b611596565b50838360405191808301818452825180915281604085019301915f5b8281106116075785850386f35b83518051881686528083015186840152604080820151908701526060808201519087015260809081015115159086015260a090940193928101926001016115fa565b60405161165581611809565b5f81525f838201525f60408201525f60608201525f6080820152828288010152018390611548565b85548452600195860195889550930192016114f9565b855484526001958601958a9550930192016114c0565b600435906001600160a01b038216820361019057565b6001548110156116f45760015f527fb10e2d527612073b26eecdfd717e6a320cf44b4afac2b0732d9fcbe2b7fa0cf601905f90565b634e487b7160e01b5f52603260045260245ffd5b80548210156116f4575f5260205f2001905f90565b6002548110156116f45760025f5260011b7f405787fa12a823e0f2b7631cc41b3ba8828b3321ca811111fa75cd3aa3bb5ace01905f90565b6003548110156116f45760035f5260011b7fc2575a0e9e593c00f959f8c92f12db2869c3395a3b0502d05e2516446f71f85b01905f90565b34610190575f366003190112610190576040517f00000000000000000000000000000000000000000000000000000000000000006001600160a01b03168152602090f35b6005548110156116f457600590815f52027f036b6384b5eca791c62761152d0c79bb0604c104a5fb6f4eb0703f3154bb3db001905f90565b60a0810190811067ffffffffffffffff82111761182557604052565b634e487b7160e01b5f52604160045260245ffd5b90601f8019910116810190811067ffffffffffffffff82111761182557604052565b604051637cc7003560e11b81526001600160a01b03906020816004817f000000000000000000000000000000000000000000000000000000000000000086165afa9081156118f1575f916118b0575b50905090565b6020813d82116118e9575b816118c860209383611839565b810103126118e5575191821682036118e25750805f6118aa565b80fd5b5080fd5b3d91506118bb565b6040513d5f823e3d90fd5b5f198114610a465760010190565b600180549182156118aa575f5b83811061192657505050505f90565b81611930826116bf565b90549060031b1c1461194a57611945906118fc565b611917565b5050905090565b1561195857565b60405162461bcd60e51b815260206004820152600d60248201526c1bdb9b1e481c1c9bdd1bd8dbdb609a1b6044820152606490fd5b91908201809211610a4657565b91908203918211610a4657565b90815491600160401b8310156118255782610a209160016119ca95018155611708565b565b60025f54146119db5760025f55565b60405162461bcd60e51b815260206004820152601f60248201527f5265656e7472616e637947756172643a207265656e7472616e742063616c6c006044820152606490fd5b905f602091828151910182855af1156118f1575f513d611a7157506001600160a01b0381163b155b611a4f5750565b604051635274afe760e01b81526001600160a01b039091166004820152602490fd5b60011415611a48565b81810292918115918404141715610a4657565b8054908115611ab6575f1991820191611aa68383611708565b909182549160031b1b1916905555565b634e487b7160e01b5f52603160045260245ffd5b60405163a9059cbb60e01b60208201526001600160a01b039092166024830152604480830193909352918152608081019167ffffffffffffffff831182841017611825576119ca92604052611a20565b6040516318bf741760e31b8152602091907f00000000000000000000000000000000000000000000000000000000000000006001600160a01b0316908381600481855afa9182156118f15784915f93611bcc575b5060405163f25e78b160e01b81529190829060049082905afa9384156118f1575f94611b9b575b50509190565b8181959293953d8311611bc5575b611bb38183611839565b810103126118e2575051915f80611b95565b503d611ba9565b9182819492943d8311611bf8575b611be48183611839565b810103126118e25750519083906004611b6e565b503d611bda565b80518210156116f45760209160051b010190565b90604051611c2081611809565b82546001600160a01b0316815260018301546020820152600283015460408201526003830154606082015260049092015460ff1615156080830152565b907f00000000000000000000000000000000000000000000000000000000000000005f808212611d5d5750611c95611c9a9284611a7a565b611a7a565b90915b612710905f600254915b828210611d1c575b505050612710905f600354945b858210611ce5575b50506127109350611cda611ce193928592611a7a565b0490611a7a565b0490565b9092611cf084611755565b50548210611d165750611d106001611d0785611755565b500154936118fc565b90611cbc565b92611cc4565b9091949392611d2a8361171d565b50548210611d555750611d4a6001611d418461171d565b500154926118fc565b909491929394611ca7565b929394611caf565b91600160ff1b8214611d9857611d739084611a7a565b918115611d84570390049091611c9d565b634e487b7160e01b81526012600452602490fd5b634e487b7160e01b83526011600452602483fd5b67ffffffffffffffff81116118255760051b6020019056fea2646970667358221220a6d2cdf6c8ba85614b82730fc18cbc5b83187d929295d147081c71ad226a742a64736f6c63430008140033a2646970667358221220ee6cf9f0b8b1facd19e7db0947cc840eac5ce923857101e7e2e164e0ae0a8b0c64736f6c63430008140033",
			"opcodes": "PUSH1 0x80 CALLVALUE PUSH2 0xC8 JUMPI PUSH1 0x1F PUSH2 0x33B9 CODESIZE DUP2 SWAP1 SUB SWAP2 DUP3 ADD PUSH1 0x1F NOT AND DUP4 ADD SWAP2 PUSH1 0x1 PUSH1 0x1 PUSH1 0x40 SHL SUB DUP4 GT DUP5 DUP5 LT OR PUSH2 0xCC JUMPI DUP1 DUP5 SWAP3 PUSH1 0x20 SWAP5 PUSH1 0x40 MSTORE DUP4 CODECOPY DUP2 ADD SUB SLT PUSH2 0xC8 JUMPI MLOAD PUSH1 0x1 PUSH1 0x1 PUSH1 0xA0 SHL SUB DUP2 AND SWAP1 DUP2 SWAP1 SUB PUSH2 0xC8 JUMPI PUSH1 0x32 PUSH1 0x3 SSTORE PUSH1 0x19 PUSH1 0x4 SSTORE DUP1 ISZERO PUSH2 0x83 JUMPI PUSH0 DUP1 SLOAD PUSH1 0x1 PUSH1 0x1 PUSH1 0xA0 SHL SUB NOT AND SWAP2 SWAP1 SWAP2 OR SWAP1 SSTORE PUSH1 0x40 MLOAD PUSH2 0x32D8 SWAP1 DUP2 PUSH2 0xE1 DUP3 CODECOPY RETURN JUMPDEST PUSH1 0x40 MLOAD PUSH3 0x461BCD PUSH1 0xE5 SHL DUP2 MSTORE PUSH1 0x20 PUSH1 0x4 DUP3 ADD MSTORE PUSH1 0x18 PUSH1 0x24 DUP3 ADD MSTORE PUSH32 0x696E76616C69642070726F746F636F6C20616464726573730000000000000000 PUSH1 0x44 DUP3 ADD MSTORE PUSH1 0x64 SWAP1 REVERT JUMPDEST PUSH0 DUP1 REVERT JUMPDEST PUSH4 0x4E487B71 PUSH1 0xE0 SHL PUSH0 MSTORE PUSH1 0x41 PUSH1 0x4 MSTORE PUSH1 0x24 PUSH0 REVERT INVALID PUSH1 0x80 PUSH1 0x40 MSTORE PUSH1 0x4 CALLDATASIZE LT ISZERO PUSH3 0x12 JUMPI PUSH0 DUP1 REVERT JUMPDEST PUSH0 DUP1 CALLDATALOAD PUSH1 0xE0 SHR DUP1 PUSH4 0xB78F9C0 EQ PUSH3 0xB29 JUMPI DUP1 PUSH4 0xE5DEE45 EQ PUSH3 0xB08 JUMPI DUP1 PUSH4 0x8CE74426 EQ PUSH3 0xADF JUMPI DUP1 PUSH4 0x9094A91E EQ PUSH3 0xA96 JUMPI DUP1 PUSH4 0x97331BF9 EQ PUSH3 0x9FF JUMPI DUP1 PUSH4 0xA444477B EQ PUSH3 0x3D3 JUMPI DUP1 PUSH4 0xB1E3A941 EQ PUSH3 0x393 JUMPI DUP1 PUSH4 0xC5C2853D EQ PUSH3 0x30F JUMPI DUP1 PUSH4 0xC5FBA0B8 EQ PUSH3 0x2EF JUMPI DUP1 PUSH4 0xC99CB2B7 EQ PUSH3 0xF8 JUMPI DUP1 PUSH4 0xF25E78B1 EQ PUSH3 0xD8 JUMPI PUSH4 0xF98E006A EQ PUSH3 0xAB JUMPI PUSH0 DUP1 REVERT JUMPDEST CALLVALUE PUSH3 0xD5 JUMPI DUP1 PUSH1 0x3 NOT CALLDATASIZE ADD SLT PUSH3 0xD5 JUMPI PUSH1 0x1 SLOAD PUSH1 0x40 MLOAD PUSH1 0x1 PUSH1 0x1 PUSH1 0xA0 SHL SUB SWAP1 SWAP2 AND DUP2 MSTORE PUSH1 0x20 SWAP1 RETURN JUMPDEST DUP1 REVERT JUMPDEST POP CALLVALUE PUSH3 0xD5 JUMPI DUP1 PUSH1 0x3 NOT CALLDATASIZE ADD SLT PUSH3 0xD5 JUMPI PUSH1 0x20 PUSH1 0x4 SLOAD PUSH1 0x40 MLOAD SWAP1 DUP2 MSTORE RETURN JUMPDEST POP CALLVALUE PUSH3 0xD5 JUMPI PUSH1 0x20 DUP1 PUSH1 0x3 NOT CALLDATASIZE ADD SLT PUSH3 0x2EB JUMPI PUSH3 0x117 PUSH3 0xC6A JUMP JUMPDEST DUP3 SLOAD PUSH1 0x1 PUSH1 0x1 PUSH1 0xA0 SHL SUB SWAP2 DUP3 SWAP2 DUP3 AND CALLER EQ DUP1 ISZERO PUSH3 0x2DD JUMPI JUMPDEST PUSH3 0x13B SWAP1 PUSH3 0xCB5 JUMP JUMPDEST AND SWAP2 DUP3 ISZERO PUSH3 0x2AF JUMPI PUSH1 0x40 MLOAD PUSH4 0x7E062A35 PUSH1 0xE1 SHL DUP1 DUP3 MSTORE SWAP2 SWAP1 DUP2 DUP2 PUSH1 0x4 DUP2 DUP9 GAS STATICCALL DUP1 ISZERO PUSH3 0x27E JUMPI PUSH3 0x28D JUMPI JUMPDEST POP DUP4 EXTCODESIZE ISZERO PUSH3 0x289 JUMPI PUSH1 0x40 MLOAD PUSH4 0xC4BB7D1 PUSH1 0xE1 SHL DUP2 MSTORE DUP6 DUP2 PUSH1 0x4 DUP2 DUP4 DUP10 GAS CALL DUP1 ISZERO PUSH3 0x27E JUMPI PUSH3 0x24C JUMPI JUMPDEST POP PUSH1 0x40 MLOAD SWAP2 DUP3 MSTORE DUP1 DUP3 PUSH1 0x4 DUP2 DUP8 GAS STATICCALL SWAP2 DUP3 ISZERO PUSH3 0x241 JUMPI PUSH1 0x5 SWAP3 DUP5 SWAP2 DUP8 SWAP2 PUSH3 0x20D JUMPI JUMPDEST POP AND DUP6 MSTORE MSTORE PUSH1 0x40 DUP4 KECCAK256 SWAP1 DUP3 DUP3 SLOAD SWAP2 DUP3 AND EQ PUSH3 0x1F9 JUMPI JUMPDEST POP POP PUSH32 0x56E87D53B3DF539E22B78C93F5852467C09176615A569A3052D9B4B954612A6D DUP3 DUP1 LOG2 DUP1 RETURN JUMPDEST PUSH1 0x1 PUSH1 0x1 PUSH1 0xA0 SHL SUB NOT AND SWAP1 SSTORE PUSH0 DUP1 PUSH3 0x1D0 JUMP JUMPDEST PUSH3 0x232 SWAP2 POP DUP4 RETURNDATASIZE DUP6 GT PUSH3 0x239 JUMPI JUMPDEST PUSH3 0x229 DUP2 DUP4 PUSH3 0xD4E JUMP JUMPDEST DUP2 ADD SWAP1 PUSH3 0xDCD JUMP JUMPDEST PUSH0 PUSH3 0x1B9 JUMP JUMPDEST POP RETURNDATASIZE PUSH3 0x21D JUMP JUMPDEST PUSH1 0x40 MLOAD RETURNDATASIZE DUP8 DUP3 RETURNDATACOPY RETURNDATASIZE SWAP1 REVERT JUMPDEST PUSH8 0xFFFFFFFFFFFFFFFF DUP2 SWAP7 SWAP3 SWAP7 GT PUSH3 0x26A JUMPI PUSH1 0x40 MSTORE SWAP4 PUSH0 PUSH3 0x195 JUMP JUMPDEST PUSH4 0x4E487B71 PUSH1 0xE0 SHL DUP3 MSTORE PUSH1 0x41 PUSH1 0x4 MSTORE PUSH1 0x24 DUP3 REVERT JUMPDEST PUSH1 0x40 MLOAD RETURNDATASIZE DUP9 DUP3 RETURNDATACOPY RETURNDATASIZE SWAP1 REVERT JUMPDEST DUP5 DUP1 REVERT JUMPDEST PUSH3 0x2A7 SWAP1 DUP3 RETURNDATASIZE DUP5 GT PUSH3 0x239 JUMPI PUSH3 0x229 DUP2 DUP4 PUSH3 0xD4E JUMP JUMPDEST POP PUSH0 PUSH3 0x169 JUMP JUMPDEST PUSH1 0x64 SWAP1 PUSH1 0x40 MLOAD SWAP1 PUSH3 0x461BCD PUSH1 0xE5 SHL DUP3 MSTORE PUSH1 0x4 DUP3 ADD MSTORE PUSH1 0x7 PUSH1 0x24 DUP3 ADD MSTORE PUSH7 0x7661756C74203 PUSH1 0xCC SHL PUSH1 0x44 DUP3 ADD MSTORE REVERT JUMPDEST POP PUSH1 0x1 SLOAD DUP3 AND CALLER EQ PUSH3 0x130 JUMP JUMPDEST POP DUP1 REVERT JUMPDEST POP CALLVALUE PUSH3 0xD5 JUMPI DUP1 PUSH1 0x3 NOT CALLDATASIZE ADD SLT PUSH3 0xD5 JUMPI PUSH1 0x20 PUSH1 0x3 SLOAD PUSH1 0x40 MLOAD SWAP1 DUP2 MSTORE RETURN JUMPDEST POP CALLVALUE PUSH3 0xD5 JUMPI PUSH1 0x20 CALLDATASIZE PUSH1 0x3 NOT ADD SLT PUSH3 0xD5 JUMPI PUSH3 0x32D PUSH3 0xC6A JUMP JUMPDEST DUP2 SLOAD PUSH1 0x1 PUSH1 0x1 PUSH1 0xA0 SHL SUB SWAP2 SWAP1 DUP3 AND CALLER SUB PUSH3 0x35E JUMPI AND PUSH12 0xFFFFFFFFFFFFFFFFFFFFFFFF PUSH1 0xA0 SHL PUSH1 0x1 SLOAD AND OR PUSH1 0x1 SSTORE DUP1 RETURN JUMPDEST PUSH1 0x40 MLOAD PUSH3 0x461BCD PUSH1 0xE5 SHL DUP2 MSTORE PUSH1 0x20 PUSH1 0x4 DUP3 ADD MSTORE PUSH1 0xD PUSH1 0x24 DUP3 ADD MSTORE PUSH13 0x1BDB9B1E481C1C9BDD1BD8DBDB PUSH1 0x9A SHL PUSH1 0x44 DUP3 ADD MSTORE PUSH1 0x64 SWAP1 REVERT JUMPDEST POP CALLVALUE PUSH3 0xD5 JUMPI PUSH1 0x20 CALLDATASIZE PUSH1 0x3 NOT ADD SLT PUSH3 0xD5 JUMPI PUSH1 0x20 SWAP1 PUSH1 0x1 PUSH1 0x1 PUSH1 0xA0 SHL SUB SWAP1 PUSH1 0x40 SWAP1 DUP3 PUSH3 0x3C1 PUSH3 0xC6A JUMP JUMPDEST AND DUP2 MSTORE PUSH1 0x5 DUP5 MSTORE KECCAK256 SLOAD AND PUSH1 0x40 MLOAD SWAP1 DUP2 MSTORE RETURN JUMPDEST POP CALLVALUE PUSH3 0xD5 JUMPI PUSH1 0xE0 CALLDATASIZE PUSH1 0x3 NOT ADD SLT PUSH3 0xD5 JUMPI PUSH3 0x3F1 PUSH3 0xC6A JUMP JUMPDEST PUSH8 0xFFFFFFFFFFFFFFFF PUSH1 0x84 CALLDATALOAD GT PUSH3 0x2EB JUMPI CALLDATASIZE PUSH1 0x23 PUSH1 0x84 CALLDATALOAD ADD SLT ISZERO PUSH3 0x2EB JUMPI PUSH8 0xFFFFFFFFFFFFFFFF PUSH1 0x84 CALLDATALOAD PUSH1 0x4 ADD CALLDATALOAD GT PUSH3 0x2EB JUMPI CALLDATASIZE PUSH1 0x24 PUSH1 0x84 CALLDATALOAD PUSH1 0x4 ADD CALLDATALOAD PUSH1 0x5 SHL PUSH1 0x84 CALLDATALOAD ADD ADD GT PUSH3 0x2EB JUMPI PUSH1 0xA4 CALLDATALOAD PUSH8 0xFFFFFFFFFFFFFFFF DUP2 GT PUSH3 0x9FB JUMPI PUSH3 0x462 SWAP1 CALLDATASIZE SWAP1 PUSH1 0x4 ADD PUSH3 0xC81 JUMP JUMPDEST SWAP1 PUSH1 0xC4 CALLDATALOAD PUSH8 0xFFFFFFFFFFFFFFFF DUP2 GT PUSH3 0x289 JUMPI PUSH3 0x486 SWAP1 CALLDATASIZE SWAP1 PUSH1 0x4 ADD PUSH3 0xC81 JUMP JUMPDEST DUP6 SLOAD PUSH1 0x1 PUSH1 0x1 PUSH1 0xA0 SHL SUB AND SWAP4 SWAP2 SWAP3 SWAP2 CALLER DUP6 EQ DUP1 ISZERO PUSH3 0x9E6 JUMPI JUMPDEST PUSH3 0x4AB SWAP1 PUSH3 0xCB5 JUMP JUMPDEST PUSH1 0x1 PUSH1 0x1 PUSH1 0xA0 SHL SUB DUP7 AND ISZERO PUSH3 0x9B7 JUMPI PUSH1 0x1 PUSH1 0x1 PUSH1 0xA0 SHL SUB DUP7 DUP2 AND DUP9 MSTORE PUSH1 0x5 PUSH1 0x20 MSTORE PUSH1 0x40 DUP9 KECCAK256 SLOAD AND PUSH3 0x97C JUMPI PUSH3 0x4E3 DUP2 PUSH3 0xD71 JUMP JUMPDEST SWAP3 PUSH3 0x4F3 PUSH1 0x40 MLOAD SWAP5 DUP6 PUSH3 0xD4E JUMP JUMPDEST DUP2 DUP5 MSTORE PUSH3 0x501 DUP3 PUSH3 0xD71 JUMP JUMPDEST DUP9 JUMPDEST PUSH1 0x1F NOT DUP3 ADD DUP2 LT PUSH3 0x956 JUMPI POP POP DUP8 JUMPDEST DUP3 DUP2 LT PUSH3 0x8B0 JUMPI POP POP POP PUSH3 0x529 DUP2 PUSH3 0xD71 JUMP JUMPDEST SWAP3 PUSH3 0x539 PUSH1 0x40 MLOAD SWAP5 DUP6 PUSH3 0xD4E JUMP JUMPDEST DUP2 DUP5 MSTORE PUSH3 0x547 DUP3 PUSH3 0xD71 JUMP JUMPDEST DUP8 JUMPDEST PUSH1 0x1F NOT DUP3 ADD DUP2 LT PUSH3 0x88A JUMPI POP POP DUP7 JUMPDEST DUP3 DUP2 LT PUSH3 0x79D JUMPI POP POP PUSH1 0x40 MLOAD SWAP4 PUSH2 0x23E6 DUP1 DUP7 ADD SWAP3 POP PUSH8 0xFFFFFFFFFFFFFFFF DUP4 GT DUP7 DUP5 LT OR PUSH3 0x789 JUMPI PUSH3 0xEBD DUP7 CODECOPY DUP2 MSTORE PUSH1 0x1 PUSH1 0x1 PUSH1 0xA0 SHL SUB DUP6 AND PUSH1 0x20 DUP3 ADD MSTORE ADDRESS PUSH1 0x40 DUP3 ADD MSTORE PUSH1 0x24 CALLDATALOAD PUSH1 0x60 DUP3 ADD MSTORE PUSH1 0x44 CALLDATALOAD PUSH1 0x80 DUP3 ADD MSTORE PUSH1 0x64 CALLDATALOAD PUSH1 0xA0 DUP3 ADD MSTORE PUSH2 0x120 PUSH1 0xC0 DUP3 ADD DUP2 SWAP1 MSTORE PUSH1 0x4 PUSH1 0x84 CALLDATALOAD ADD CALLDATALOAD SWAP1 DUP3 ADD DUP2 SWAP1 MSTORE PUSH1 0x1 PUSH1 0x1 PUSH1 0xFB SHL SUB LT PUSH3 0x785 JUMPI SWAP1 DUP4 SWAP3 SWAP2 PUSH2 0x140 PUSH1 0x84 CALLDATALOAD PUSH1 0x4 ADD CALLDATALOAD PUSH1 0x5 SHL PUSH1 0x24 PUSH1 0x84 CALLDATALOAD ADD DUP3 DUP5 ADD CALLDATACOPY PUSH1 0x20 PUSH2 0x160 PUSH1 0x84 CALLDATALOAD PUSH1 0x4 ADD CALLDATALOAD PUSH1 0x5 SHL DUP5 ADD DUP4 DUP2 ADD SWAP4 DUP6 DUP3 SUB ADD PUSH1 0xE0 DUP7 ADD MSTORE DUP6 MLOAD DUP1 SWAP5 MSTORE ADD SWAP4 ADD SWAP1 DUP9 JUMPDEST DUP2 DUP2 LT PUSH3 0x74F JUMPI POP POP POP PUSH2 0x100 DUP2 DUP4 SUB SWAP2 ADD MSTORE PUSH1 0x20 DUP1 DUP4 MLOAD SWAP3 DUP4 DUP2 MSTORE ADD SWAP3 ADD SWAP1 DUP7 JUMPDEST DUP2 DUP2 LT PUSH3 0x71D JUMPI POP POP POP SUB SWAP1 DUP4 CREATE DUP1 ISZERO PUSH3 0x712 JUMPI PUSH1 0x1 DUP1 PUSH1 0xA0 SHL SUB AND SWAP1 PUSH1 0x2 SLOAD PUSH9 0x10000000000000000 DUP2 LT ISZERO PUSH3 0x6FE JUMPI PUSH1 0x20 SWAP4 PUSH3 0x68F DUP3 PUSH1 0x1 PUSH1 0x40 SWAP5 ADD PUSH1 0x2 SSTORE PUSH3 0xC20 JUMP JUMPDEST DUP2 SLOAD PUSH1 0x1 PUSH1 0x1 PUSH1 0xA0 SHL SUB PUSH1 0x3 SWAP3 SWAP1 SWAP3 SHL DUP3 DUP2 SHL NOT SWAP1 SWAP2 AND SWAP1 DUP8 SWAP1 SHL OR SWAP1 SWAP2 SSTORE SWAP3 SWAP1 SWAP3 AND DUP1 DUP4 MSTORE PUSH1 0x5 DUP6 MSTORE SWAP2 KECCAK256 DUP1 SLOAD PUSH1 0x1 PUSH1 0x1 PUSH1 0xA0 SHL SUB NOT AND DUP4 OR SWAP1 SSTORE PUSH1 0x40 MLOAD DUP3 DUP2 MSTORE PUSH32 0x5D9C31FFA0FECFFD7CF379989A3C7AF252F0335E0D2A1320B55245912C781F53 SWAP1 DUP5 SWAP1 LOG2 PUSH1 0x40 MLOAD SWAP1 DUP2 MSTORE RETURN JUMPDEST PUSH4 0x4E487B71 PUSH1 0xE0 SHL DUP5 MSTORE PUSH1 0x41 PUSH1 0x4 MSTORE PUSH1 0x24 DUP5 REVERT JUMPDEST PUSH1 0x40 MLOAD RETURNDATASIZE DUP5 DUP3 RETURNDATACOPY RETURNDATASIZE SWAP1 REVERT JUMPDEST SWAP2 SWAP4 POP SWAP2 PUSH1 0x20 PUSH3 0x741 PUSH1 0x1 SWAP3 DUP7 MLOAD SWAP1 PUSH1 0x20 PUSH1 0x40 SWAP3 DUP1 MLOAD DUP4 MSTORE ADD MLOAD PUSH1 0x20 DUP3 ADD MSTORE ADD SWAP1 JUMP JUMPDEST SWAP5 ADD SWAP2 ADD SWAP2 DUP5 SWAP4 SWAP3 PUSH3 0x644 JUMP JUMPDEST SWAP2 SWAP5 SWAP6 POP SWAP2 SWAP3 PUSH1 0x20 PUSH3 0x775 PUSH1 0x1 SWAP3 DUP8 MLOAD SWAP1 PUSH1 0x20 PUSH1 0x40 SWAP3 DUP1 MLOAD DUP4 MSTORE ADD MLOAD PUSH1 0x20 DUP3 ADD MSTORE ADD SWAP1 JUMP JUMPDEST SWAP6 ADD SWAP2 ADD SWAP2 DUP7 SWAP6 SWAP5 SWAP4 SWAP3 PUSH3 0x621 JUMP JUMPDEST DUP6 DUP1 REVERT JUMPDEST PUSH4 0x4E487B71 PUSH1 0xE0 SHL DUP9 MSTORE PUSH1 0x41 PUSH1 0x4 MSTORE PUSH1 0x24 DUP9 REVERT JUMPDEST DUP1 PUSH3 0x804 JUMPI JUMPDEST DUP1 PUSH3 0x7B6 PUSH3 0x7FE SWAP3 DUP6 DUP6 PUSH3 0xD99 JUMP JUMPDEST CALLDATALOAD PUSH1 0x20 PUSH3 0x7C6 DUP4 DUP8 DUP8 PUSH3 0xD99 JUMP JUMPDEST ADD CALLDATALOAD PUSH1 0x40 MLOAD SWAP2 PUSH3 0x7D7 DUP4 PUSH3 0xD1D JUMP JUMPDEST DUP3 MSTORE PUSH1 0x20 DUP3 ADD MSTORE PUSH3 0x7EA DUP3 DUP9 PUSH3 0xDB8 JUMP JUMPDEST MSTORE PUSH3 0x7F7 DUP2 DUP8 PUSH3 0xDB8 JUMP JUMPDEST POP PUSH3 0xD8A JUMP JUMPDEST PUSH3 0x559 JUMP JUMPDEST PUSH3 0x811 DUP2 DUP5 DUP5 PUSH3 0xD99 JUMP JUMPDEST CALLDATALOAD PUSH0 NOT DUP3 ADD DUP3 DUP2 GT PUSH3 0x876 JUMPI PUSH3 0x82B SWAP1 DUP6 DUP6 PUSH3 0xD99 JUMP JUMPDEST CALLDATALOAD LT PUSH3 0x7A4 JUMPI PUSH1 0x64 PUSH1 0x40 MLOAD PUSH3 0x461BCD PUSH1 0xE5 SHL DUP2 MSTORE PUSH1 0x20 PUSH1 0x4 DUP3 ADD MSTORE PUSH1 0x20 PUSH1 0x24 DUP3 ADD MSTORE PUSH32 0x416D6F756E74206D756C7469706C69657273206E6F7420617363656E64696E67 PUSH1 0x44 DUP3 ADD MSTORE REVERT JUMPDEST PUSH4 0x4E487B71 PUSH1 0xE0 SHL DUP11 MSTORE PUSH1 0x11 PUSH1 0x4 MSTORE PUSH1 0x24 DUP11 REVERT JUMPDEST PUSH1 0x20 SWAP1 PUSH1 0x40 MLOAD PUSH3 0x89B DUP2 PUSH3 0xD1D JUMP JUMPDEST DUP11 DUP2 MSTORE DUP11 DUP4 DUP3 ADD MSTORE DUP3 DUP3 DUP10 ADD ADD MSTORE ADD PUSH3 0x549 JUMP JUMPDEST DUP1 PUSH3 0x8CF JUMPI JUMPDEST DUP1 PUSH3 0x7B6 PUSH3 0x8C9 SWAP3 DUP6 DUP6 PUSH3 0xD99 JUMP JUMPDEST PUSH3 0x513 JUMP JUMPDEST PUSH3 0x8DC DUP2 DUP5 DUP5 PUSH3 0xD99 JUMP JUMPDEST CALLDATALOAD PUSH0 NOT DUP3 ADD DUP3 DUP2 GT PUSH3 0x942 JUMPI PUSH3 0x8F6 SWAP1 DUP6 DUP6 PUSH3 0xD99 JUMP JUMPDEST CALLDATALOAD LT PUSH3 0x8B7 JUMPI PUSH1 0x40 MLOAD PUSH3 0x461BCD PUSH1 0xE5 SHL DUP2 MSTORE PUSH1 0x20 PUSH1 0x4 DUP3 ADD MSTORE PUSH1 0x1E PUSH1 0x24 DUP3 ADD MSTORE PUSH32 0x54696D65206D756C7469706C69657273206E6F7420617363656E64696E670000 PUSH1 0x44 DUP3 ADD MSTORE PUSH1 0x64 SWAP1 REVERT JUMPDEST PUSH4 0x4E487B71 PUSH1 0xE0 SHL DUP12 MSTORE PUSH1 0x11 PUSH1 0x4 MSTORE PUSH1 0x24 DUP12 REVERT JUMPDEST PUSH1 0x20 SWAP1 PUSH1 0x40 MLOAD PUSH3 0x967 DUP2 PUSH3 0xD1D JUMP JUMPDEST DUP12 DUP2 MSTORE DUP12 DUP4 DUP3 ADD MSTORE DUP3 DUP3 DUP10 ADD ADD MSTORE ADD PUSH3 0x503 JUMP JUMPDEST PUSH1 0x40 MLOAD PUSH3 0x461BCD PUSH1 0xE5 SHL DUP2 MSTORE PUSH1 0x20 PUSH1 0x4 DUP3 ADD MSTORE PUSH1 0x13 PUSH1 0x24 DUP3 ADD MSTORE PUSH19 0x616374697665207661756C7420657869737473 PUSH1 0x68 SHL PUSH1 0x44 DUP3 ADD MSTORE PUSH1 0x64 SWAP1 REVERT JUMPDEST PUSH1 0x40 MLOAD PUSH3 0x461BCD PUSH1 0xE5 SHL DUP2 MSTORE PUSH1 0x20 PUSH1 0x4 DUP3 ADD MSTORE PUSH1 0x7 PUSH1 0x24 DUP3 ADD MSTORE PUSH7 0x746F6B656E203 PUSH1 0xCC SHL PUSH1 0x44 DUP3 ADD MSTORE PUSH1 0x64 SWAP1 REVERT JUMPDEST POP PUSH1 0x1 SLOAD PUSH1 0x1 PUSH1 0x1 PUSH1 0xA0 SHL SUB AND CALLER EQ PUSH3 0x4A0 JUMP JUMPDEST DUP3 DUP1 REVERT JUMPDEST POP CALLVALUE PUSH3 0xD5 JUMPI DUP1 PUSH1 0x3 NOT CALLDATASIZE ADD SLT PUSH3 0xD5 JUMPI PUSH1 0x40 MLOAD PUSH1 0x2 DUP1 SLOAD DUP1 DUP4 MSTORE SWAP1 DUP4 MSTORE PUSH1 0x20 DUP1 DUP4 ADD SWAP4 PUSH32 0x405787FA12A823E0F2B7631CC41B3BA8828B3321CA811111FA75CD3AA3BB5ACE SWAP3 SWAP2 JUMPDEST DUP3 DUP3 LT PUSH3 0xA75 JUMPI PUSH3 0xA71 DUP6 PUSH3 0xA64 DUP2 DUP10 SUB DUP3 PUSH3 0xD4E JUMP JUMPDEST PUSH1 0x40 MLOAD SWAP2 DUP3 SWAP2 DUP3 PUSH3 0xBDB JUMP JUMPDEST SUB SWAP1 RETURN JUMPDEST DUP4 SLOAD PUSH1 0x1 PUSH1 0x1 PUSH1 0xA0 SHL SUB AND DUP7 MSTORE SWAP5 DUP6 ADD SWAP5 PUSH1 0x1 SWAP4 DUP5 ADD SWAP4 SWAP1 SWAP2 ADD SWAP1 PUSH3 0xA49 JUMP JUMPDEST POP CALLVALUE PUSH3 0xD5 JUMPI PUSH1 0x20 CALLDATASIZE PUSH1 0x3 NOT ADD SLT PUSH3 0xD5 JUMPI PUSH1 0x4 CALLDATALOAD SWAP1 PUSH1 0x2 SLOAD DUP3 LT ISZERO PUSH3 0xD5 JUMPI PUSH1 0x20 PUSH3 0xAC6 DUP4 PUSH3 0xC20 JUMP JUMPDEST SWAP1 SLOAD PUSH1 0x40 MLOAD PUSH1 0x3 SWAP3 SWAP1 SWAP3 SHL SHR PUSH1 0x1 PUSH1 0x1 PUSH1 0xA0 SHL SUB AND DUP2 MSTORE RETURN JUMPDEST POP CALLVALUE PUSH3 0xD5 JUMPI DUP1 PUSH1 0x3 NOT CALLDATASIZE ADD SLT PUSH3 0xD5 JUMPI SLOAD PUSH1 0x40 MLOAD PUSH1 0x1 PUSH1 0x1 PUSH1 0xA0 SHL SUB SWAP1 SWAP2 AND DUP2 MSTORE PUSH1 0x20 SWAP1 RETURN JUMPDEST POP CALLVALUE PUSH3 0xD5 JUMPI PUSH3 0xA71 PUSH3 0xA64 PUSH3 0xB22 CALLDATASIZE PUSH3 0xBC0 JUMP JUMPDEST SWAP1 PUSH3 0xDEE JUMP JUMPDEST POP CALLVALUE PUSH3 0xD5 JUMPI PUSH3 0xB3B CALLDATASIZE PUSH3 0xBC0 JUMP JUMPDEST SWAP1 PUSH3 0xB5D PUSH1 0x1 DUP1 PUSH1 0xA0 SHL SUB DUP1 DUP6 SLOAD AND CALLER EQ SWAP1 DUP2 ISZERO PUSH3 0xBB1 JUMPI JUMPDEST POP PUSH3 0xCB5 JUMP JUMPDEST PUSH2 0x2710 PUSH3 0xB6C DUP4 DUP4 PUSH3 0xCFB JUMP JUMPDEST LT ISZERO PUSH3 0xB7C JUMPI PUSH1 0x3 SSTORE PUSH1 0x4 SSTORE DUP1 RETURN JUMPDEST PUSH1 0x40 MLOAD PUSH3 0x461BCD PUSH1 0xE5 SHL DUP2 MSTORE PUSH1 0x20 PUSH1 0x4 DUP3 ADD MSTORE PUSH1 0xD PUSH1 0x24 DUP3 ADD MSTORE PUSH13 0xCCCACAE640E8DEDE40D0D2CED PUSH1 0x9B SHL PUSH1 0x44 DUP3 ADD MSTORE PUSH1 0x64 SWAP1 REVERT JUMPDEST SWAP1 POP PUSH1 0x1 SLOAD AND CALLER EQ PUSH0 PUSH3 0xB56 JUMP JUMPDEST PUSH1 0x40 SWAP1 PUSH1 0x3 NOT ADD SLT PUSH3 0xBD7 JUMPI PUSH1 0x4 CALLDATALOAD SWAP1 PUSH1 0x24 CALLDATALOAD SWAP1 JUMP JUMPDEST PUSH0 DUP1 REVERT JUMPDEST PUSH1 0x20 SWAP1 DUP2 PUSH1 0x40 DUP2 DUP4 ADD SWAP3 DUP3 DUP2 MSTORE DUP6 MLOAD DUP1 SWAP5 MSTORE ADD SWAP4 ADD SWAP2 PUSH0 JUMPDEST DUP3 DUP2 LT PUSH3 0xC02 JUMPI POP POP POP POP SWAP1 JUMP JUMPDEST DUP4 MLOAD PUSH1 0x1 PUSH1 0x1 PUSH1 0xA0 SHL SUB AND DUP6 MSTORE SWAP4 DUP2 ADD SWAP4 SWAP3 DUP2 ADD SWAP3 PUSH1 0x1 ADD PUSH3 0xBF3 JUMP JUMPDEST PUSH1 0x2 SLOAD DUP2 LT ISZERO PUSH3 0xC56 JUMPI PUSH1 0x2 PUSH0 MSTORE PUSH32 0x405787FA12A823E0F2B7631CC41B3BA8828B3321CA811111FA75CD3AA3BB5ACE ADD SWAP1 PUSH0 SWAP1 JUMP JUMPDEST PUSH4 0x4E487B71 PUSH1 0xE0 SHL PUSH0 MSTORE PUSH1 0x32 PUSH1 0x4 MSTORE PUSH1 0x24 PUSH0 REVERT JUMPDEST PUSH1 0x4 CALLDATALOAD SWAP1 PUSH1 0x1 PUSH1 0x1 PUSH1 0xA0 SHL SUB DUP3 AND DUP3 SUB PUSH3 0xBD7 JUMPI JUMP JUMPDEST SWAP2 DUP2 PUSH1 0x1F DUP5 ADD SLT ISZERO PUSH3 0xBD7 JUMPI DUP3 CALLDATALOAD SWAP2 PUSH8 0xFFFFFFFFFFFFFFFF DUP4 GT PUSH3 0xBD7 JUMPI PUSH1 0x20 DUP1 DUP6 ADD SWAP5 DUP5 PUSH1 0x6 SHL ADD ADD GT PUSH3 0xBD7 JUMPI JUMP JUMPDEST ISZERO PUSH3 0xCBD JUMPI JUMP JUMPDEST PUSH1 0x40 MLOAD PUSH3 0x461BCD PUSH1 0xE5 SHL DUP2 MSTORE PUSH1 0x20 PUSH1 0x4 DUP3 ADD MSTORE PUSH1 0x16 PUSH1 0x24 DUP3 ADD MSTORE PUSH22 0x199858DD1BDC9E4E881BDB9B1E481C1C9BDD1BD8DBDB PUSH1 0x52 SHL PUSH1 0x44 DUP3 ADD MSTORE PUSH1 0x64 SWAP1 REVERT JUMPDEST SWAP2 SWAP1 DUP3 ADD DUP1 SWAP3 GT PUSH3 0xD09 JUMPI JUMP JUMPDEST PUSH4 0x4E487B71 PUSH1 0xE0 SHL PUSH0 MSTORE PUSH1 0x11 PUSH1 0x4 MSTORE PUSH1 0x24 PUSH0 REVERT JUMPDEST PUSH1 0x40 DUP2 ADD SWAP1 DUP2 LT PUSH8 0xFFFFFFFFFFFFFFFF DUP3 GT OR PUSH3 0xD3A JUMPI PUSH1 0x40 MSTORE JUMP JUMPDEST PUSH4 0x4E487B71 PUSH1 0xE0 SHL PUSH0 MSTORE PUSH1 0x41 PUSH1 0x4 MSTORE PUSH1 0x24 PUSH0 REVERT JUMPDEST SWAP1 PUSH1 0x1F DUP1 NOT SWAP2 ADD AND DUP2 ADD SWAP1 DUP2 LT PUSH8 0xFFFFFFFFFFFFFFFF DUP3 GT OR PUSH3 0xD3A JUMPI PUSH1 0x40 MSTORE JUMP JUMPDEST PUSH8 0xFFFFFFFFFFFFFFFF DUP2 GT PUSH3 0xD3A JUMPI PUSH1 0x5 SHL PUSH1 0x20 ADD SWAP1 JUMP JUMPDEST PUSH0 NOT DUP2 EQ PUSH3 0xD09 JUMPI PUSH1 0x1 ADD SWAP1 JUMP JUMPDEST SWAP2 SWAP1 DUP2 LT ISZERO PUSH3 0xC56 JUMPI PUSH1 0x6 SHL ADD SWAP1 JUMP JUMPDEST SWAP2 SWAP1 DUP3 SUB SWAP2 DUP3 GT PUSH3 0xD09 JUMPI JUMP JUMPDEST DUP1 MLOAD DUP3 LT ISZERO PUSH3 0xC56 JUMPI PUSH1 0x20 SWAP2 PUSH1 0x5 SHL ADD ADD SWAP1 JUMP JUMPDEST SWAP1 DUP2 PUSH1 0x20 SWAP2 SUB SLT PUSH3 0xBD7 JUMPI MLOAD PUSH1 0x1 PUSH1 0x1 PUSH1 0xA0 SHL SUB DUP2 AND DUP2 SUB PUSH3 0xBD7 JUMPI SWAP1 JUMP JUMPDEST SWAP2 SWAP1 PUSH1 0x2 SLOAD SWAP1 DUP2 DUP5 LT ISZERO PUSH3 0xEB4 JUMPI PUSH3 0xE09 SWAP1 DUP5 PUSH3 0xCFB JUMP JUMPDEST SWAP1 DUP1 DUP3 GT PUSH3 0xEAB JUMPI JUMPDEST POP PUSH3 0xE20 DUP4 DUP3 PUSH3 0xDAA JUMP JUMPDEST SWAP3 PUSH3 0xE2C DUP5 PUSH3 0xD71 JUMP JUMPDEST SWAP4 PUSH3 0xE3C PUSH1 0x40 MLOAD SWAP6 DUP7 PUSH3 0xD4E JUMP JUMPDEST DUP1 DUP6 MSTORE PUSH3 0xE4D PUSH1 0x1F NOT SWAP2 PUSH3 0xD71 JUMP JUMPDEST ADD CALLDATASIZE PUSH1 0x20 DUP7 ADD CALLDATACOPY DUP4 DUP2 JUMPDEST DUP4 DUP2 LT PUSH3 0xE65 JUMPI POP POP POP POP JUMP JUMPDEST DUP1 PUSH3 0xE75 PUSH3 0xEA5 SWAP3 PUSH3 0xC20 JUMP JUMPDEST SWAP1 SLOAD PUSH1 0x3 SWAP2 SWAP1 SWAP2 SHL SHR PUSH1 0x1 PUSH1 0x1 PUSH1 0xA0 SHL SUB AND PUSH3 0xE9E PUSH3 0xE97 DUP7 DUP5 PUSH3 0xDAA JUMP JUMPDEST DUP6 PUSH3 0xDB8 JUMP JUMPDEST MSTORE PUSH3 0xD8A JUMP JUMPDEST PUSH3 0xE57 JUMP JUMPDEST SWAP1 POP PUSH0 PUSH3 0xE13 JUMP JUMPDEST POP PUSH1 0x60 SWAP3 POP POP JUMP INVALID PUSH2 0x140 PUSH1 0x40 MSTORE CALLVALUE PUSH3 0x4B3 JUMPI PUSH3 0x23E6 DUP1 CODESIZE SUB DUP1 PUSH3 0x1E DUP2 PUSH3 0x4CC JUMP JUMPDEST SWAP3 DUP4 CODECOPY PUSH2 0x120 DUP3 DUP3 DUP2 ADD SUB SLT PUSH3 0x4B3 JUMPI PUSH3 0x3A DUP3 PUSH3 0x4F2 JUMP JUMPDEST SWAP1 PUSH3 0x49 PUSH1 0x20 DUP5 ADD PUSH3 0x4F2 JUMP JUMPDEST SWAP3 PUSH3 0x58 PUSH1 0x40 DUP3 ADD PUSH3 0x4F2 JUMP JUMPDEST PUSH1 0x60 DUP3 ADD MLOAD PUSH1 0x80 DUP4 ADD MLOAD PUSH1 0xA0 DUP5 ADD MLOAD PUSH1 0xC0 DUP6 ADD MLOAD SWAP8 SWAP1 SWAP3 SWAP1 PUSH1 0x1 PUSH1 0x1 PUSH1 0x40 SHL SUB DUP10 GT PUSH3 0x4B3 JUMPI DUP7 DUP7 ADD PUSH1 0x1F DUP11 DUP9 ADD ADD SLT ISZERO PUSH3 0x4B3 JUMPI DUP9 DUP7 ADD MLOAD SWAP6 PUSH3 0xA9 PUSH3 0xA3 DUP9 PUSH3 0x507 JUMP JUMPDEST PUSH3 0x4CC JUMP JUMPDEST SWAP7 PUSH1 0x20 DUP9 DUP3 DUP2 MSTORE ADD DUP1 SWAP12 DUP11 DUP5 ADD PUSH1 0x20 DUP5 PUSH1 0x5 SHL DUP4 DUP8 ADD ADD ADD GT PUSH3 0x4B3 JUMPI SWAP1 PUSH1 0x20 DUP3 DUP6 ADD ADD SWAP2 JUMPDEST PUSH1 0x20 DUP5 PUSH1 0x5 SHL DUP3 DUP8 ADD ADD ADD DUP4 LT PUSH3 0x4B7 JUMPI POP POP POP POP PUSH1 0xE0 DUP2 ADD MLOAD PUSH1 0x1 PUSH1 0x1 PUSH1 0x40 SHL SUB DUP2 GT PUSH3 0x4B3 JUMPI DUP2 ADD DUP9 DUP3 ADD PUSH1 0x1F DUP3 ADD SLT ISZERO PUSH3 0x4B3 JUMPI PUSH3 0x11F SWAP1 DUP10 DUP4 ADD SWAP1 PUSH1 0x20 DUP2 MLOAD SWAP2 ADD PUSH3 0x51F JUMP JUMPDEST PUSH2 0x100 DUP3 ADD MLOAD SWAP1 SWAP9 SWAP1 PUSH1 0x1 PUSH1 0x1 PUSH1 0x40 SHL SUB DUP2 GT PUSH3 0x4B3 JUMPI DUP3 ADD SWAP1 DUP1 DUP4 ADD PUSH1 0x1F DUP4 ADD SLT ISZERO PUSH3 0x4B3 JUMPI PUSH3 0x15B SWAP3 ADD SWAP1 PUSH1 0x20 DUP2 MLOAD SWAP2 ADD PUSH3 0x51F JUMP JUMPDEST PUSH1 0x1 PUSH0 DUP2 SWAP1 SSTORE PUSH1 0x4 DUP1 SLOAD PUSH2 0xFFFF NOT AND SWAP1 SWAP2 OR SWAP1 SSTORE SWAP8 PUSH1 0x1 PUSH1 0x1 PUSH1 0xA0 SHL SUB DUP1 DUP3 AND ISZERO PUSH3 0x481 JUMPI DUP3 AND ISZERO PUSH3 0x452 JUMPI DUP4 DUP4 GT PUSH3 0x423 JUMPI PUSH1 0x80 MSTORE PUSH1 0xC0 MSTORE PUSH1 0xE0 MSTORE PUSH2 0x100 MSTORE PUSH2 0x120 MSTORE PUSH1 0xA0 MSTORE MLOAD PUSH1 0x1 PUSH1 0x1 PUSH1 0x40 SHL SUB DUP2 GT PUSH3 0x26C JUMPI PUSH9 0x10000000000000000 SWAP4 DUP5 DUP3 GT PUSH3 0x26C JUMPI PUSH1 0x1 SLOAD DUP3 PUSH1 0x1 SSTORE DUP1 DUP4 LT PUSH3 0x3DC JUMPI JUMPDEST POP PUSH1 0x1 PUSH0 MSTORE PUSH1 0x20 PUSH0 KECCAK256 PUSH0 JUMPDEST DUP4 DUP2 LT PUSH3 0x3C7 JUMPI POP POP POP POP PUSH0 JUMPDEST DUP2 MLOAD DUP2 LT ISZERO PUSH3 0x280 JUMPI PUSH3 0x207 DUP2 DUP4 PUSH3 0x5D6 JUMP JUMPDEST MLOAD SWAP1 PUSH1 0x2 DUP1 SLOAD SWAP3 DUP7 DUP5 LT ISZERO PUSH3 0x26C JUMPI PUSH1 0x1 DUP5 ADD DUP1 DUP4 SSTORE DUP5 LT ISZERO PUSH3 0x258 JUMPI PUSH3 0x252 SWAP4 PUSH3 0x24C SWAP3 PUSH0 MSTORE PUSH1 0x20 PUSH0 KECCAK256 SWAP1 PUSH1 0x1 SHL ADD SWAP1 PUSH1 0x20 PUSH1 0x1 SWAP2 DUP1 MLOAD DUP5 SSTORE ADD MLOAD SWAP2 ADD SSTORE JUMP JUMPDEST PUSH3 0x5B3 JUMP JUMPDEST PUSH3 0x1F1 JUMP JUMPDEST PUSH4 0x4E487B71 PUSH1 0xE0 SHL PUSH0 MSTORE PUSH1 0x32 PUSH1 0x4 MSTORE PUSH1 0x24 PUSH0 REVERT JUMPDEST PUSH4 0x4E487B71 PUSH1 0xE0 SHL PUSH0 MSTORE PUSH1 0x41 PUSH1 0x4 MSTORE PUSH1 0x24 PUSH0 REVERT JUMPDEST POP POP PUSH0 JUMPDEST DUP2 MLOAD DUP2 LT ISZERO PUSH3 0x2E5 JUMPI PUSH3 0x29A DUP2 DUP4 PUSH3 0x5D6 JUMP JUMPDEST MLOAD SWAP1 PUSH1 0x3 DUP1 SLOAD SWAP3 DUP6 DUP5 LT ISZERO PUSH3 0x26C JUMPI PUSH1 0x1 DUP5 ADD DUP1 DUP4 SSTORE DUP5 LT ISZERO PUSH3 0x258 JUMPI PUSH3 0x2DF SWAP4 PUSH3 0x24C SWAP3 PUSH0 MSTORE PUSH1 0x20 PUSH0 KECCAK256 SWAP1 PUSH1 0x1 SHL ADD SWAP1 PUSH1 0x20 PUSH1 0x1 SWAP2 DUP1 MLOAD DUP5 SSTORE ADD MLOAD SWAP2 ADD SSTORE JUMP JUMPDEST PUSH3 0x284 JUMP JUMPDEST PUSH1 0x40 MLOAD PUSH2 0x1DFA SWAP1 DUP2 PUSH3 0x5EC DUP3 CODECOPY PUSH1 0x80 MLOAD DUP2 DUP2 DUP2 PUSH2 0x295 ADD MSTORE DUP2 DUP2 PUSH2 0x834 ADD MSTORE DUP2 DUP2 PUSH2 0xA9C ADD MSTORE DUP2 DUP2 PUSH2 0xC30 ADD MSTORE DUP2 DUP2 PUSH2 0xFCD ADD MSTORE PUSH2 0x134C ADD MSTORE PUSH1 0xA0 MLOAD DUP2 DUP2 DUP2 PUSH2 0x1EE ADD MSTORE DUP2 DUP2 PUSH2 0x699 ADD MSTORE DUP2 DUP2 PUSH2 0xBD4 ADD MSTORE DUP2 DUP2 PUSH2 0x123C ADD MSTORE DUP2 DUP2 PUSH2 0x13BC ADD MSTORE DUP2 DUP2 PUSH2 0x1879 ADD MSTORE PUSH2 0x1B2D ADD MSTORE PUSH1 0xC0 MLOAD DUP2 DUP2 DUP2 PUSH2 0x35A ADD MSTORE DUP2 DUP2 PUSH2 0x971 ADD MSTORE DUP2 DUP2 PUSH2 0xA63 ADD MSTORE DUP2 DUP2 PUSH2 0xABD ADD MSTORE DUP2 DUP2 PUSH2 0xB2F ADD MSTORE DUP2 DUP2 PUSH2 0x10BC ADD MSTORE DUP2 DUP2 PUSH2 0x11CC ADD MSTORE DUP2 DUP2 PUSH2 0x11FF ADD MSTORE PUSH2 0x17A2 ADD MSTORE PUSH1 0xE0 MLOAD DUP2 DUP2 DUP2 PUSH2 0x2E4 ADD MSTORE PUSH2 0x12B5 ADD MSTORE PUSH2 0x100 MLOAD DUP2 DUP2 DUP2 PUSH2 0x629 ADD MSTORE PUSH2 0xF5A ADD MSTORE PUSH2 0x120 MLOAD DUP2 DUP2 DUP2 PUSH2 0x1438 ADD MSTORE PUSH2 0x1C60 ADD MSTORE RETURN JUMPDEST PUSH1 0x1 SWAP1 PUSH1 0x20 DUP5 MLOAD SWAP5 ADD SWAP4 DUP2 DUP5 ADD SSTORE ADD PUSH3 0x1E3 JUMP JUMPDEST PUSH1 0x1 PUSH0 MSTORE PUSH32 0xB10E2D527612073B26EECDFD717E6A320CF44B4AFAC2B0732D9FCBE2B7FA0CF6 SWAP1 DUP2 ADD SWAP1 DUP4 ADD JUMPDEST DUP2 DUP2 LT PUSH3 0x417 JUMPI POP PUSH3 0x1D8 JUMP JUMPDEST PUSH0 DUP2 SSTORE PUSH1 0x1 ADD PUSH3 0x408 JUMP JUMPDEST PUSH1 0x40 MLOAD PUSH3 0x461BCD PUSH1 0xE5 SHL DUP2 MSTORE PUSH1 0x20 PUSH1 0x4 DUP3 ADD MSTORE PUSH1 0x7 PUSH1 0x24 DUP3 ADD MSTORE PUSH7 0xDAD2DC7CDAC2F PUSH1 0xCB SHL PUSH1 0x44 DUP3 ADD MSTORE PUSH1 0x64 SWAP1 REVERT JUMPDEST PUSH1 0x40 MLOAD PUSH3 0x461BCD PUSH1 0xE5 SHL DUP2 MSTORE PUSH1 0x20 PUSH1 0x4 DUP3 ADD MSTORE PUSH1 0x7 PUSH1 0x24 DUP3 ADD MSTORE PUSH7 0x746F6B656E203 PUSH1 0xCC SHL PUSH1 0x44 DUP3 ADD MSTORE PUSH1 0x64 SWAP1 REVERT JUMPDEST PUSH1 0x40 MLOAD PUSH3 0x461BCD PUSH1 0xE5 SHL DUP2 MSTORE PUSH1 0x20 PUSH1 0x4 DUP3 ADD MSTORE PUSH1 0xA PUSH1 0x24 DUP3 ADD MSTORE PUSH10 0x70726F746F636F6C203 PUSH1 0xB4 SHL PUSH1 0x44 DUP3 ADD MSTORE PUSH1 0x64 SWAP1 REVERT JUMPDEST PUSH0 DUP1 REVERT JUMPDEST PUSH1 0x20 DUP1 DUP1 SWAP4 DUP6 MLOAD DUP2 MSTORE ADD SWAP4 ADD SWAP3 SWAP2 POP PUSH3 0xD0 JUMP JUMPDEST PUSH1 0x40 MLOAD SWAP2 SWAP1 PUSH1 0x1F ADD PUSH1 0x1F NOT AND DUP3 ADD PUSH1 0x1 PUSH1 0x1 PUSH1 0x40 SHL SUB DUP2 GT DUP4 DUP3 LT OR PUSH3 0x26C JUMPI PUSH1 0x40 MSTORE JUMP JUMPDEST MLOAD SWAP1 PUSH1 0x1 PUSH1 0x1 PUSH1 0xA0 SHL SUB DUP3 AND DUP3 SUB PUSH3 0x4B3 JUMPI JUMP JUMPDEST PUSH1 0x1 PUSH1 0x1 PUSH1 0x40 SHL SUB DUP2 GT PUSH3 0x26C JUMPI PUSH1 0x5 SHL PUSH1 0x20 ADD SWAP1 JUMP JUMPDEST SWAP1 SWAP3 SWAP2 PUSH3 0x531 PUSH3 0xA3 DUP6 PUSH3 0x507 JUMP JUMPDEST SWAP4 DUP1 DUP6 MSTORE PUSH1 0x20 SWAP2 DUP3 DUP7 ADD SWAP2 PUSH1 0x6 SHL DUP5 ADD SWAP4 DUP2 DUP6 GT PUSH3 0x4B3 JUMPI SWAP2 JUMPDEST DUP5 DUP4 LT PUSH3 0x55B JUMPI POP POP POP POP POP JUMP JUMPDEST PUSH1 0x40 DUP1 DUP5 DUP5 SUB SLT PUSH3 0x4B3 JUMPI DUP1 MLOAD DUP1 DUP3 ADD SWAP3 SWAP1 PUSH1 0x1 PUSH1 0x1 PUSH1 0x40 SHL SUB DUP5 GT DUP2 DUP6 LT OR PUSH3 0x59F JUMPI PUSH1 0x40 SWAP4 DUP8 SWAP4 MSTORE DUP6 MLOAD DUP2 MSTORE DUP3 DUP7 ADD MLOAD DUP4 DUP3 ADD MSTORE DUP2 MSTORE ADD SWAP3 ADD SWAP2 PUSH3 0x54C JUMP JUMPDEST PUSH1 0x24 PUSH0 PUSH4 0x4E487B71 PUSH1 0xE0 SHL DUP2 MSTORE PUSH1 0x41 PUSH1 0x4 MSTORE REVERT JUMPDEST PUSH0 NOT DUP2 EQ PUSH3 0x5C2 JUMPI PUSH1 0x1 ADD SWAP1 JUMP JUMPDEST PUSH4 0x4E487B71 PUSH1 0xE0 SHL PUSH0 MSTORE PUSH1 0x11 PUSH1 0x4 MSTORE PUSH1 0x24 PUSH0 REVERT JUMPDEST DUP1 MLOAD DUP3 LT ISZERO PUSH3 0x258 JUMPI PUSH1 0x20 SWAP2 PUSH1 0x5 SHL ADD ADD SWAP1 JUMP INVALID PUSH1 0x80 DUP1 PUSH1 0x40 MSTORE PUSH1 0x4 CALLDATASIZE LT ISZERO PUSH2 0x12 JUMPI PUSH0 DUP1 REVERT JUMPDEST PUSH0 CALLDATALOAD PUSH1 0xE0 SHR SWAP1 DUP2 PUSH3 0x75844C EQ PUSH2 0x147D JUMPI POP DUP1 PUSH4 0x2FB0C5E EQ PUSH2 0x145B JUMPI DUP1 PUSH4 0x94B81D3 EQ PUSH2 0x1421 JUMPI DUP1 PUSH4 0x10390D35 EQ PUSH2 0x13F8 JUMPI DUP1 PUSH4 0x18976FA2 EQ PUSH2 0x132F JUMPI DUP1 PUSH4 0x22F3E2D4 EQ PUSH2 0x12F5 JUMPI DUP1 PUSH4 0x359CFBF7 EQ PUSH2 0x12D8 JUMPI DUP1 PUSH4 0x41B3D185 EQ PUSH2 0x129E JUMPI DUP1 PUSH4 0x5350CBD9 EQ PUSH2 0x1275 JUMPI DUP1 PUSH4 0x580FC80A EQ PUSH2 0xFA2 JUMPI DUP1 PUSH4 0x597E1FB5 EQ PUSH2 0xF7D JUMPI DUP1 PUSH4 0x6083E59A EQ PUSH2 0xF43 JUMPI DUP1 PUSH4 0x639487F4 EQ PUSH2 0xD6C JUMPI DUP1 PUSH4 0x6A5908A0 EQ PUSH2 0xD23 JUMPI DUP1 PUSH4 0x6C4470FB EQ PUSH2 0xC5F JUMPI DUP1 PUSH4 0x703BAFD5 EQ PUSH2 0x165 JUMPI DUP1 PUSH4 0x8CE74426 EQ PUSH2 0xC1B JUMPI DUP1 PUSH4 0x96D8EF8E EQ PUSH2 0x7FD JUMPI DUP1 PUSH4 0x99FBAB88 EQ PUSH2 0x792 JUMPI DUP1 PUSH4 0xA0660DFA EQ PUSH2 0x755 JUMPI DUP1 PUSH4 0xA547AFE0 EQ PUSH2 0x729 JUMPI DUP1 PUSH4 0xAC55DEB6 EQ PUSH2 0x6D2 JUMPI DUP1 PUSH4 0xB1B0EBCC EQ PUSH2 0x257 JUMPI DUP1 PUSH4 0xB9B792CD EQ PUSH2 0x23A JUMPI DUP1 PUSH4 0xC122C2A1 EQ PUSH2 0x21D JUMPI DUP1 PUSH4 0xC45A0155 EQ PUSH2 0x1D9 JUMPI DUP1 PUSH4 0xCBA02476 EQ PUSH2 0x1B1 JUMPI DUP1 PUSH4 0xD6887BFA EQ PUSH2 0x194 JUMPI DUP1 PUSH4 0xDB8D55F1 EQ PUSH2 0x16A JUMPI PUSH4 0xFC0C546A EQ PUSH2 0x165 JUMPI PUSH0 DUP1 REVERT JUMPDEST PUSH2 0x178D JUMP JUMPDEST CALLVALUE PUSH2 0x190 JUMPI PUSH0 CALLDATASIZE PUSH1 0x3 NOT ADD SLT PUSH2 0x190 JUMPI PUSH1 0x40 PUSH2 0x184 PUSH2 0x1B1A JUMP JUMPDEST DUP3 MLOAD SWAP2 DUP3 MSTORE PUSH1 0x20 DUP3 ADD MSTORE RETURN JUMPDEST PUSH0 DUP1 REVERT JUMPDEST CALLVALUE PUSH2 0x190 JUMPI PUSH0 CALLDATASIZE PUSH1 0x3 NOT ADD SLT PUSH2 0x190 JUMPI PUSH1 0x20 PUSH1 0x5 SLOAD PUSH1 0x40 MLOAD SWAP1 DUP2 MSTORE RETURN JUMPDEST CALLVALUE PUSH2 0x190 JUMPI PUSH1 0x20 CALLDATASIZE PUSH1 0x3 NOT ADD SLT PUSH2 0x190 JUMPI PUSH1 0x20 PUSH2 0x1CF PUSH1 0x4 CALLDATALOAD PUSH2 0x190A JUMP JUMPDEST PUSH1 0x40 MLOAD SWAP1 ISZERO ISZERO DUP2 MSTORE RETURN JUMPDEST CALLVALUE PUSH2 0x190 JUMPI PUSH0 CALLDATASIZE PUSH1 0x3 NOT ADD SLT PUSH2 0x190 JUMPI PUSH1 0x40 MLOAD PUSH32 0x0 PUSH1 0x1 PUSH1 0x1 PUSH1 0xA0 SHL SUB AND DUP2 MSTORE PUSH1 0x20 SWAP1 RETURN JUMPDEST CALLVALUE PUSH2 0x190 JUMPI PUSH0 CALLDATASIZE PUSH1 0x3 NOT ADD SLT PUSH2 0x190 JUMPI PUSH1 0x20 PUSH1 0x2 SLOAD PUSH1 0x40 MLOAD SWAP1 DUP2 MSTORE RETURN JUMPDEST CALLVALUE PUSH2 0x190 JUMPI PUSH0 CALLDATASIZE PUSH1 0x3 NOT ADD SLT PUSH2 0x190 JUMPI PUSH1 0x20 PUSH1 0x3 SLOAD PUSH1 0x40 MLOAD SWAP1 DUP2 MSTORE RETURN JUMPDEST CALLVALUE PUSH2 0x190 JUMPI PUSH1 0x60 CALLDATASIZE PUSH1 0x3 NOT ADD SLT PUSH2 0x190 JUMPI PUSH1 0x1 PUSH1 0x1 PUSH1 0xA0 SHL SUB PUSH1 0x44 DUP1 CALLDATALOAD DUP3 DUP2 AND SWAP2 PUSH1 0x4 CALLDATALOAD SWAP2 PUSH1 0x24 DUP1 CALLDATALOAD SWAP3 SWAP1 SWAP2 DUP6 SWAP1 SUB PUSH2 0x190 JUMPI PUSH2 0x292 PUSH2 0x19CC JUMP JUMPDEST DUP6 PUSH32 0x0 AND CALLER EQ DUP1 ISZERO PUSH2 0x6C0 JUMPI JUMPDEST DUP1 ISZERO PUSH2 0x695 JUMPI JUMPDEST PUSH2 0x2CE SWAP1 PUSH2 0x1951 JUMP JUMPDEST PUSH1 0x4 SLOAD PUSH1 0xFF DUP2 AND SWAP1 DUP2 PUSH2 0x686 JUMPI JUMPDEST POP ISZERO PUSH2 0x650 JUMPI PUSH32 0x0 DUP5 LT ISZERO DUP1 PUSH2 0x626 JUMPI JUMPDEST ISZERO PUSH2 0x5EC JUMPI DUP3 ISZERO PUSH2 0x5BE JUMPI PUSH2 0x320 DUP4 PUSH2 0x190A JUMP JUMPDEST ISZERO PUSH2 0x586 JUMPI PUSH2 0x37F SWAP1 PUSH1 0x40 MLOAD SWAP1 PUSH4 0x23B872DD PUSH1 0xE0 SHL PUSH1 0x20 DUP4 ADD MSTORE CALLER DUP5 DUP4 ADD MSTORE ADDRESS SWAP1 DUP3 ADD MSTORE DUP5 PUSH1 0x64 DUP3 ADD MSTORE PUSH1 0x64 DUP2 MSTORE PUSH2 0x357 DUP2 PUSH2 0x1809 JUMP JUMPDEST DUP7 PUSH32 0x0 AND PUSH2 0x1A20 JUMP JUMPDEST PUSH2 0x389 DUP3 NUMBER PUSH2 0x198D JUMP JUMPDEST SWAP5 PUSH1 0x40 MLOAD SWAP2 PUSH2 0x397 DUP4 PUSH2 0x1809 JUMP JUMPDEST DUP6 DUP4 MSTORE PUSH1 0x20 DUP4 ADD SWAP3 DUP6 DUP5 MSTORE PUSH1 0x40 DUP2 ADD SWAP8 NUMBER DUP10 MSTORE PUSH1 0x60 DUP3 ADD SWAP1 DUP2 MSTORE PUSH1 0x80 DUP3 ADD SWAP9 PUSH0 DUP11 MSTORE PUSH1 0x5 SLOAD SWAP5 PUSH1 0x1 PUSH1 0x40 SHL SWAP6 DUP7 DUP2 LT ISZERO PUSH2 0x573 JUMPI DUP1 PUSH1 0x1 PUSH2 0x3DB SWAP3 ADD PUSH1 0x5 SSTORE PUSH2 0x17D1 JUMP JUMPDEST SWAP5 SWAP1 SWAP5 PUSH2 0x561 JUMPI MLOAD DUP5 SLOAD SWAP2 AND PUSH1 0x1 PUSH1 0x1 PUSH1 0xA0 SHL SUB NOT SWAP2 DUP3 AND OR DUP5 SSTORE SWAP6 MLOAD PUSH1 0x1 DUP5 ADD SSTORE MLOAD PUSH1 0x2 DUP4 ADD SSTORE MLOAD PUSH1 0x3 DUP3 ADD SSTORE SWAP7 MLOAD PUSH1 0x4 SWAP1 SWAP8 ADD DUP1 SLOAD PUSH1 0xFF NOT SWAP1 DUP2 AND SWAP9 ISZERO ISZERO PUSH1 0xFF AND SWAP9 SWAP1 SWAP9 OR SWAP1 SSTORE PUSH1 0x5 SLOAD PUSH0 NOT DUP2 ADD SWAP8 SWAP1 DUP9 GT PUSH2 0x54D JUMPI DUP7 PUSH0 MSTORE PUSH1 0x6 PUSH1 0x20 MSTORE PUSH2 0x448 DUP9 PUSH1 0x40 PUSH0 KECCAK256 PUSH2 0x19A7 JUMP JUMPDEST DUP7 PUSH0 MSTORE PUSH1 0x9 PUSH1 0x20 MSTORE PUSH1 0x40 PUSH0 KECCAK256 SWAP1 DUP2 SLOAD PUSH1 0xFF DUP2 AND ISZERO PUSH2 0x4A9 JUMPI JUMPDEST DUP10 DUP10 PUSH32 0x9CFD25589D1EB8AD71E342A86A8524E83522E3936C0803048C08F6D9AD974F40 PUSH1 0x60 DUP12 PUSH2 0x491 DUP13 NUMBER PUSH2 0x198D JUMP JUMPDEST PUSH1 0x40 MLOAD SWAP2 DUP3 MSTORE NUMBER PUSH1 0x20 DUP4 ADD MSTORE PUSH1 0x40 DUP3 ADD MSTORE LOG3 PUSH1 0x1 PUSH0 SSTORE STOP JUMPDEST AND PUSH1 0x1 OR SWAP1 SSTORE PUSH1 0x8 SLOAD SWAP2 DUP3 LT ISZERO PUSH2 0x53A JUMPI PUSH1 0x1 DUP3 ADD DUP1 PUSH1 0x8 SSTORE DUP3 LT ISZERO PUSH2 0x527 JUMPI POP PUSH1 0x8 PUSH0 MSTORE PUSH32 0xF3F7A9FE364FAAB93B216DA50A3214154F22A0A2B415B23A84C8169E8B636EE3 ADD DUP1 SLOAD SWAP1 SWAP2 AND DUP5 OR SWAP1 SSTORE DUP2 PUSH2 0x491 PUSH1 0x60 PUSH32 0x9CFD25589D1EB8AD71E342A86A8524E83522E3936C0803048C08F6D9AD974F40 DUP9 DUP1 PUSH2 0x461 JUMP JUMPDEST PUSH4 0x4E487B71 PUSH1 0xE0 SHL PUSH0 SWAP1 DUP2 MSTORE PUSH1 0x32 PUSH1 0x4 MSTORE REVERT JUMPDEST PUSH4 0x4E487B71 PUSH1 0xE0 SHL PUSH0 SWAP1 DUP2 MSTORE PUSH1 0x41 PUSH1 0x4 MSTORE REVERT JUMPDEST POP PUSH4 0x4E487B71 PUSH1 0xE0 SHL PUSH0 SWAP1 DUP2 MSTORE PUSH1 0x11 PUSH1 0x4 MSTORE REVERT JUMPDEST DUP6 PUSH4 0x4E487B71 PUSH1 0xE0 SHL PUSH0 MSTORE PUSH0 PUSH1 0x4 MSTORE PUSH0 REVERT JUMPDEST DUP6 PUSH4 0x4E487B71 PUSH1 0xE0 SHL PUSH0 MSTORE PUSH1 0x41 PUSH1 0x4 MSTORE PUSH0 REVERT JUMPDEST SWAP1 PUSH18 0x1C1C995CD95D081B9BDD08185B1B1BDDD959 PUSH1 0x72 SHL PUSH1 0x64 SWAP3 PUSH1 0x12 PUSH1 0x40 MLOAD SWAP4 PUSH3 0x461BCD PUSH1 0xE5 SHL DUP6 MSTORE PUSH1 0x20 PUSH1 0x4 DUP7 ADD MSTORE DUP5 ADD MSTORE DUP3 ADD MSTORE REVERT JUMPDEST SWAP1 PUSH8 0x626C6F636B733E3 PUSH1 0xC4 SHL PUSH1 0x64 SWAP3 PUSH1 0x8 PUSH1 0x40 MLOAD SWAP4 PUSH3 0x461BCD PUSH1 0xE5 SHL DUP6 MSTORE PUSH1 0x20 PUSH1 0x4 DUP7 ADD MSTORE DUP5 ADD MSTORE DUP3 ADD MSTORE REVERT JUMPDEST SWAP1 PUSH20 0x616D6F756E74206F7574206F6620626F756E6473 PUSH1 0x60 SHL PUSH1 0x64 SWAP3 PUSH1 0x14 PUSH1 0x40 MLOAD SWAP4 PUSH3 0x461BCD PUSH1 0xE5 SHL DUP6 MSTORE PUSH1 0x20 PUSH1 0x4 DUP7 ADD MSTORE DUP5 ADD MSTORE DUP3 ADD MSTORE REVERT JUMPDEST POP PUSH32 0x0 DUP5 GT ISZERO PUSH2 0x30C JUMP JUMPDEST SWAP1 PUSH16 0x7661756C74206E6F7420616374697665 PUSH1 0x80 SHL PUSH1 0x64 SWAP3 PUSH1 0x10 PUSH1 0x40 MLOAD SWAP4 PUSH3 0x461BCD PUSH1 0xE5 SHL DUP6 MSTORE PUSH1 0x20 PUSH1 0x4 DUP7 ADD MSTORE DUP5 ADD MSTORE DUP3 ADD MSTORE REVERT JUMPDEST PUSH1 0xFF SWAP2 POP PUSH1 0x8 SHR AND ISZERO DUP8 PUSH2 0x2DC JUMP JUMPDEST POP CALLER PUSH32 0x0 DUP8 AND EQ PUSH2 0x2C5 JUMP JUMPDEST POP DUP6 PUSH2 0x6CA PUSH2 0x185B JUMP JUMPDEST AND CALLER EQ PUSH2 0x2BE JUMP JUMPDEST CALLVALUE PUSH2 0x190 JUMPI PUSH1 0x40 CALLDATASIZE PUSH1 0x3 NOT ADD SLT PUSH2 0x190 JUMPI PUSH2 0x6EB PUSH2 0x16A9 JUMP JUMPDEST PUSH1 0x1 PUSH1 0x1 PUSH1 0xA0 SHL SUB AND PUSH0 SWAP1 DUP2 MSTORE PUSH1 0x7 PUSH1 0x20 MSTORE PUSH1 0x40 SWAP1 KECCAK256 DUP1 SLOAD PUSH1 0x24 CALLDATALOAD SWAP2 SWAP1 DUP3 LT ISZERO PUSH2 0x190 JUMPI PUSH1 0x20 SWAP2 PUSH2 0x71B SWAP2 PUSH2 0x1708 JUMP JUMPDEST SWAP1 SLOAD PUSH1 0x40 MLOAD SWAP2 PUSH1 0x3 SHL SHR DUP2 MSTORE RETURN JUMPDEST CALLVALUE PUSH2 0x190 JUMPI PUSH0 CALLDATASIZE PUSH1 0x3 NOT ADD SLT PUSH2 0x190 JUMPI PUSH1 0x20 PUSH2 0x743 PUSH2 0x185B JUMP JUMPDEST PUSH1 0x40 MLOAD PUSH1 0x1 PUSH1 0x1 PUSH1 0xA0 SHL SUB SWAP1 SWAP2 AND DUP2 MSTORE RETURN JUMPDEST CALLVALUE PUSH2 0x190 JUMPI PUSH1 0x20 CALLDATASIZE PUSH1 0x3 NOT ADD SLT PUSH2 0x190 JUMPI PUSH1 0x4 CALLDATALOAD PUSH1 0x3 SLOAD DUP2 LT ISZERO PUSH2 0x190 JUMPI PUSH2 0x77E PUSH1 0x40 SWAP2 PUSH2 0x1755 JUMP JUMPDEST POP PUSH1 0x1 DUP2 SLOAD SWAP2 ADD SLOAD DUP3 MLOAD SWAP2 DUP3 MSTORE PUSH1 0x20 DUP3 ADD MSTORE RETURN JUMPDEST CALLVALUE PUSH2 0x190 JUMPI PUSH1 0x20 CALLDATASIZE PUSH1 0x3 NOT ADD SLT PUSH2 0x190 JUMPI PUSH1 0x4 CALLDATALOAD PUSH1 0x5 SLOAD DUP2 LT ISZERO PUSH2 0x190 JUMPI PUSH2 0x7BB PUSH1 0xA0 SWAP2 PUSH2 0x17D1 JUMP JUMPDEST POP PUSH1 0x1 DUP1 DUP4 SHL SUB DUP2 SLOAD AND SWAP1 PUSH1 0x1 DUP2 ADD SLOAD SWAP1 PUSH1 0x2 DUP2 ADD SLOAD PUSH1 0xFF PUSH1 0x4 PUSH1 0x3 DUP5 ADD SLOAD SWAP4 ADD SLOAD AND SWAP3 PUSH1 0x40 MLOAD SWAP5 DUP6 MSTORE PUSH1 0x20 DUP6 ADD MSTORE PUSH1 0x40 DUP5 ADD MSTORE PUSH1 0x60 DUP4 ADD MSTORE ISZERO ISZERO PUSH1 0x80 DUP3 ADD MSTORE RETURN JUMPDEST CALLVALUE PUSH2 0x190 JUMPI PUSH1 0x40 CALLDATASIZE PUSH1 0x3 NOT ADD SLT PUSH2 0x190 JUMPI PUSH2 0x816 PUSH2 0x16A9 JUMP JUMPDEST PUSH1 0x24 CALLDATALOAD PUSH1 0x1 PUSH1 0x1 PUSH1 0xA0 SHL SUB DUP2 AND SWAP1 SUB PUSH2 0x190 JUMPI PUSH2 0x831 PUSH2 0x19CC JUMP JUMPDEST CALLER PUSH32 0x0 PUSH1 0x1 PUSH1 0x1 PUSH1 0xA0 SHL SUB AND EQ DUP1 ISZERO PUSH2 0xC02 JUMPI JUMPDEST DUP1 ISZERO PUSH2 0xBD0 JUMPI JUMPDEST PUSH2 0x874 SWAP1 PUSH2 0x1951 JUMP JUMPDEST PUSH2 0x87C PUSH2 0x1B1A JUMP JUMPDEST PUSH1 0x1 PUSH1 0x1 PUSH1 0xA0 SHL SUB DUP4 AND PUSH0 SWAP1 DUP2 MSTORE PUSH1 0x6 PUSH1 0x20 MSTORE PUSH1 0x40 DUP2 KECCAK256 SWAP3 SWAP4 SWAP1 SWAP3 SWAP2 SWAP1 JUMPDEST DUP3 SLOAD DUP5 LT ISZERO PUSH2 0xBCA JUMPI PUSH2 0x8AD DUP5 DUP5 PUSH2 0x1708 JUMP JUMPDEST SWAP1 SLOAD SWAP1 PUSH2 0x8BE DUP3 DUP3 PUSH1 0x3 SHL SHR PUSH2 0x17D1 JUMP JUMPDEST POP PUSH1 0x3 DUP2 ADD SLOAD NUMBER LT SWAP1 PUSH1 0x4 DUP2 ADD SLOAD SWAP2 PUSH1 0xFF DUP2 DUP2 DUP6 AND ISZERO SWAP2 DUP3 PUSH2 0xBA9 JUMPI JUMPDEST POP POP ISZERO PUSH2 0xB94 JUMPI SWAP1 PUSH2 0x9F5 SWAP5 SWAP4 SWAP3 SWAP2 PUSH1 0x1 DUP1 SWAP4 PUSH1 0xFF NOT AND OR PUSH1 0x4 DUP4 ADD SSTORE ISZERO PUSH0 EQ PUSH2 0xB12 JUMPI PUSH2 0x92E SWAP1 PUSH1 0x24 CALLDATALOAD PUSH1 0x1 PUSH1 0x1 PUSH1 0xA0 SHL SUB SWAP1 DUP2 AND SWAP1 DUP9 AND EQ DUP1 ISZERO PUSH2 0xB02 JUMPI DUP12 SWAP4 JUMPDEST DUP3 ADD SLOAD SWAP4 PUSH2 0x2710 SWAP4 DUP5 SWAP2 DUP7 PUSH2 0x1A7A JUMP JUMPDEST DIV SWAP3 PUSH2 0x944 DUP14 PUSH2 0x93E DUP7 DUP9 PUSH2 0x199A JUMP JUMPDEST SWAP7 PUSH2 0x1A7A JUMP JUMPDEST DIV PUSH0 SWAP2 ISZERO PUSH2 0xAF0 JUMPI JUMPDEST DUP1 PUSH2 0xA96 JUMPI JUMPDEST POP DUP1 PUSH2 0xA5A JUMPI JUMPDEST POP DUP1 SLOAD PUSH2 0x996 SWAP1 DUP5 SWAP1 PUSH1 0x1 PUSH1 0x1 PUSH1 0xA0 SHL SUB SWAP1 DUP2 AND SWAP1 PUSH32 0x0 AND PUSH2 0x1ACA JUMP JUMPDEST PUSH1 0x1 DUP1 PUSH1 0xA0 SHL SUB SWAP1 SLOAD AND SWAP1 PUSH1 0x40 MLOAD SWAP3 DUP4 MSTORE PUSH1 0x20 DUP4 ADD MSTORE PUSH32 0x7B381718BEC1E0DBC1241809EE9B55F3D783B95880307F002707FAD981FA5069 PUSH1 0x40 DUP6 DUP6 PUSH1 0x3 SHL SHR SWAP4 LOG3 JUMPDEST PUSH1 0x1 DUP1 PUSH1 0xA0 SHL SUB DUP5 AND PUSH0 MSTORE PUSH1 0x7 PUSH1 0x20 MSTORE PUSH1 0x3 SHL SHR PUSH1 0x40 PUSH0 KECCAK256 PUSH2 0x19A7 JUMP JUMPDEST DUP3 SLOAD PUSH0 NOT DUP2 ADD SWAP1 DUP2 GT PUSH2 0xA46 JUMPI PUSH2 0xA0F PUSH2 0xA38 SWAP2 DUP6 PUSH2 0x1708 JUMP JUMPDEST SWAP1 SLOAD SWAP1 PUSH1 0x3 SHL SHR PUSH2 0xA20 DUP7 DUP7 PUSH2 0x1708 JUMP JUMPDEST SWAP1 SWAP2 SWAP1 DUP3 SLOAD SWAP1 PUSH1 0x3 SHL SWAP2 DUP3 SHL SWAP2 PUSH0 NOT SWAP1 SHL NOT AND OR SWAP1 SSTORE JUMP JUMPDEST PUSH2 0xA41 DUP4 PUSH2 0x1A8D JUMP JUMPDEST PUSH2 0x89A JUMP JUMPDEST PUSH4 0x4E487B71 PUSH1 0xE0 SHL PUSH0 MSTORE PUSH1 0x11 PUSH1 0x4 MSTORE PUSH1 0x24 PUSH0 REVERT JUMPDEST PUSH2 0xA90 SWAP1 PUSH1 0x24 CALLDATALOAD PUSH32 0x0 PUSH1 0x1 PUSH1 0x1 PUSH1 0xA0 SHL SUB AND PUSH2 0x1ACA JUMP JUMPDEST DUP12 PUSH2 0x95A JUMP JUMPDEST PUSH2 0xAEA SWAP1 PUSH32 0x0 PUSH32 0x0 PUSH1 0x1 PUSH1 0x1 PUSH1 0xA0 SHL SUB AND PUSH2 0x1ACA JUMP JUMPDEST DUP13 PUSH2 0x953 JUMP JUMPDEST SWAP1 POP PUSH2 0xAFC DUP2 DUP5 PUSH2 0x199A JUMP JUMPDEST SWAP1 PUSH2 0x94D JUMP JUMPDEST PUSH2 0xB0C DUP10 DUP14 PUSH2 0x198D JUMP JUMPDEST SWAP4 PUSH2 0x91E JUMP JUMPDEST SWAP1 DUP2 ADD SLOAD DUP2 SLOAD SWAP1 SWAP2 SWAP1 PUSH2 0xB54 SWAP1 DUP4 SWAP1 PUSH1 0x1 PUSH1 0x1 PUSH1 0xA0 SHL SUB SWAP1 DUP2 AND SWAP1 PUSH32 0x0 AND PUSH2 0x1ACA JUMP JUMPDEST PUSH1 0x1 DUP1 PUSH1 0xA0 SHL SUB SWAP1 SLOAD AND PUSH1 0x40 MLOAD SWAP2 DUP3 MSTORE PUSH32 0xBAEA19541010BAD0070D3E9EBA7D614E4F22A90D557EB4B70272D33A32793A07 PUSH1 0x20 DUP6 DUP6 PUSH1 0x3 SHL SHR SWAP4 LOG3 PUSH2 0x9D8 JUMP JUMPDEST POP POP POP POP POP SWAP3 PUSH2 0xBA3 SWAP1 PUSH2 0x18FC JUMP JUMPDEST SWAP3 PUSH2 0x89A JUMP JUMPDEST DUP2 ISZERO SWAP3 POP SWAP1 PUSH2 0xBBB JUMPI JUMPDEST POP DUP2 DUP13 PUSH2 0x8DB JUMP JUMPDEST SWAP1 POP PUSH1 0x4 SLOAD PUSH1 0x8 SHR AND DUP12 PUSH2 0xBB3 JUMP JUMPDEST PUSH1 0x1 PUSH0 SSTORE STOP JUMPDEST POP CALLER PUSH32 0x0 PUSH1 0x1 PUSH1 0x1 PUSH1 0xA0 SHL SUB AND EQ PUSH2 0x86B JUMP JUMPDEST POP PUSH1 0x1 PUSH1 0x1 PUSH1 0xA0 SHL SUB PUSH2 0xC13 PUSH2 0x185B JUMP JUMPDEST AND CALLER EQ PUSH2 0x864 JUMP JUMPDEST CALLVALUE PUSH2 0x190 JUMPI PUSH0 CALLDATASIZE PUSH1 0x3 NOT ADD SLT PUSH2 0x190 JUMPI PUSH1 0x40 MLOAD PUSH32 0x0 PUSH1 0x1 PUSH1 0x1 PUSH1 0xA0 SHL SUB AND DUP2 MSTORE PUSH1 0x20 SWAP1 RETURN JUMPDEST CALLVALUE PUSH2 0x190 JUMPI PUSH0 CALLDATASIZE PUSH1 0x3 NOT ADD SLT PUSH2 0x190 JUMPI PUSH1 0x40 MLOAD DUP1 PUSH1 0x8 SLOAD DUP1 DUP4 MSTORE PUSH1 0x20 DUP1 SWAP4 ADD DUP1 SWAP2 PUSH1 0x8 PUSH0 MSTORE PUSH32 0xF3F7A9FE364FAAB93B216DA50A3214154F22A0A2B415B23A84C8169E8B636EE3 SWAP1 PUSH0 JUMPDEST DUP7 DUP3 DUP3 LT PUSH2 0xD06 JUMPI DUP7 DUP7 PUSH2 0xCBE DUP3 DUP9 SUB DUP4 PUSH2 0x1839 JUMP JUMPDEST PUSH1 0x40 MLOAD SWAP3 DUP4 SWAP3 DUP2 DUP5 ADD SWAP1 DUP3 DUP6 MSTORE MLOAD DUP1 SWAP2 MSTORE PUSH1 0x40 DUP5 ADD SWAP3 SWAP2 PUSH0 JUMPDEST DUP3 DUP2 LT PUSH2 0xCE6 JUMPI POP POP POP POP SUB SWAP1 RETURN JUMPDEST DUP4 MLOAD PUSH1 0x1 PUSH1 0x1 PUSH1 0xA0 SHL SUB AND DUP6 MSTORE DUP7 SWAP6 POP SWAP4 DUP2 ADD SWAP4 SWAP3 DUP2 ADD SWAP3 PUSH1 0x1 ADD PUSH2 0xCD7 JUMP JUMPDEST DUP4 SLOAD PUSH1 0x1 PUSH1 0x1 PUSH1 0xA0 SHL SUB AND DUP6 MSTORE SWAP1 SWAP4 ADD SWAP3 PUSH1 0x1 SWAP3 DUP4 ADD SWAP3 ADD PUSH2 0xCA8 JUMP JUMPDEST CALLVALUE PUSH2 0x190 JUMPI PUSH1 0x40 CALLDATASIZE PUSH1 0x3 NOT ADD SLT PUSH2 0x190 JUMPI PUSH2 0xD3C PUSH2 0x16A9 JUMP JUMPDEST PUSH1 0x1 PUSH1 0x1 PUSH1 0xA0 SHL SUB AND PUSH0 SWAP1 DUP2 MSTORE PUSH1 0x6 PUSH1 0x20 MSTORE PUSH1 0x40 SWAP1 KECCAK256 DUP1 SLOAD PUSH1 0x24 CALLDATALOAD SWAP2 SWAP1 DUP3 LT ISZERO PUSH2 0x190 JUMPI PUSH1 0x20 SWAP2 PUSH2 0x71B SWAP2 PUSH2 0x1708 JUMP JUMPDEST CALLVALUE PUSH2 0x190 JUMPI PUSH1 0x20 DUP1 PUSH1 0x3 NOT CALLDATASIZE ADD SLT PUSH2 0x190 JUMPI PUSH2 0xD86 PUSH2 0x16A9 JUMP JUMPDEST PUSH1 0x1 PUSH1 0x1 PUSH1 0xA0 SHL SUB AND PUSH0 DUP2 DUP2 MSTORE PUSH1 0x6 DUP4 MSTORE PUSH1 0x40 DUP1 DUP3 KECCAK256 SWAP1 MLOAD DUP2 SLOAD DUP1 DUP3 MSTORE SWAP2 DUP4 MSTORE DUP5 DUP4 KECCAK256 SWAP1 SWAP5 SWAP3 SWAP4 SWAP2 DUP6 SWAP1 DUP2 DUP6 ADD SWAP1 DUP7 JUMPDEST DUP7 DUP3 DUP3 LT PUSH2 0xF2D JUMPI POP POP POP PUSH2 0xDCD SWAP3 POP SUB DUP6 PUSH2 0x1839 JUMP JUMPDEST PUSH0 MSTORE PUSH1 0x7 DUP2 MSTORE PUSH1 0x40 PUSH0 KECCAK256 SWAP2 PUSH1 0x40 MLOAD DUP1 DUP5 DUP5 DUP3 SWAP7 SLOAD SWAP4 DUP5 DUP2 MSTORE ADD SWAP1 PUSH0 MSTORE DUP5 PUSH0 KECCAK256 SWAP3 PUSH0 JUMPDEST DUP7 DUP3 DUP3 LT PUSH2 0xF17 JUMPI POP POP POP PUSH2 0xE06 SWAP3 POP SUB DUP5 PUSH2 0x1839 JUMP JUMPDEST PUSH0 SWAP1 JUMPDEST DUP5 MLOAD DUP3 LT ISZERO PUSH2 0xEA5 JUMPI PUSH2 0xE2E PUSH2 0xE28 PUSH2 0xE22 DUP5 DUP9 PUSH2 0x1BFF JUMP JUMPDEST MLOAD PUSH2 0x17D1 JUMP JUMPDEST POP PUSH2 0x1C13 JUMP JUMPDEST PUSH1 0x60 DUP2 ADD DUP5 DUP2 MLOAD NUMBER DUP2 GT PUSH0 EQ PUSH2 0xEA0 JUMPI POP NUMBER JUMPDEST PUSH1 0x40 DUP5 ADD SWAP1 DUP2 MLOAD SWAP1 DUP2 DUP2 GT ISZERO PUSH2 0xE90 JUMPI SWAP3 PUSH2 0xE76 PUSH2 0xE84 SWAP7 SWAP4 PUSH2 0xE6C PUSH2 0xE8A SWAP10 SWAP8 SWAP5 PUSH2 0xE7E SWAP8 PUSH2 0x199A JUMP JUMPDEST SWAP4 MLOAD SWAP1 MLOAD SWAP1 PUSH2 0x199A JUMP JUMPDEST SWAP3 ADD MLOAD PUSH2 0x1C5D JUMP JUMPDEST SWAP1 PUSH2 0x198D JUMP JUMPDEST SWAP2 PUSH2 0x18FC JUMP JUMPDEST SWAP1 PUSH2 0xE09 JUMP JUMPDEST POP POP POP POP POP POP SWAP1 PUSH2 0xE8A SWAP1 PUSH2 0x18FC JUMP JUMPDEST PUSH2 0xE41 JUMP JUMPDEST PUSH0 SWAP3 SWAP2 POP JUMPDEST DUP4 MLOAD DUP4 LT ISZERO PUSH2 0xF0F JUMPI PUSH2 0xEC3 PUSH2 0xE28 PUSH2 0xE22 DUP6 DUP8 PUSH2 0x1BFF JUMP JUMPDEST PUSH1 0x60 DUP2 ADD MLOAD PUSH1 0x40 DUP3 ADD MLOAD SWAP1 DUP2 DUP2 GT ISZERO PUSH2 0xF02 JUMPI DUP5 PUSH2 0xEF6 SWAP4 PUSH2 0xEEC PUSH2 0xEFC SWAP7 SWAP5 PUSH2 0xE7E SWAP5 PUSH2 0x199A JUMP JUMPDEST SWAP2 DUP3 SWAP2 ADD MLOAD PUSH2 0x1C5D JUMP JUMPDEST SWAP3 PUSH2 0x18FC JUMP JUMPDEST SWAP2 PUSH2 0xEAA JUMP JUMPDEST POP POP POP SWAP2 PUSH2 0xEFC SWAP1 PUSH2 0x18FC JUMP JUMPDEST PUSH1 0x40 MLOAD SWAP1 DUP2 MSTORE RETURN JUMPDEST DUP6 SLOAD DUP5 MSTORE PUSH1 0x1 SWAP6 DUP7 ADD SWAP6 DUP10 SWAP6 POP SWAP4 ADD SWAP3 ADD PUSH2 0xDEF JUMP JUMPDEST DUP6 SLOAD DUP5 MSTORE PUSH1 0x1 SWAP6 DUP7 ADD SWAP6 DUP11 SWAP6 POP SWAP4 ADD SWAP3 ADD PUSH2 0xDB6 JUMP JUMPDEST CALLVALUE PUSH2 0x190 JUMPI PUSH0 CALLDATASIZE PUSH1 0x3 NOT ADD SLT PUSH2 0x190 JUMPI PUSH1 0x20 PUSH1 0x40 MLOAD PUSH32 0x0 DUP2 MSTORE RETURN JUMPDEST CALLVALUE PUSH2 0x190 JUMPI PUSH0 CALLDATASIZE PUSH1 0x3 NOT ADD SLT PUSH2 0x190 JUMPI PUSH1 0x20 PUSH1 0xFF PUSH1 0x4 SLOAD PUSH1 0x8 SHR AND PUSH1 0x40 MLOAD SWAP1 ISZERO ISZERO DUP2 MSTORE RETURN JUMPDEST CALLVALUE PUSH2 0x190 JUMPI PUSH1 0x20 CALLDATASIZE PUSH1 0x3 NOT ADD SLT PUSH2 0x190 JUMPI PUSH2 0xFBB PUSH2 0x16A9 JUMP JUMPDEST PUSH2 0xFC3 PUSH2 0x19CC JUMP JUMPDEST PUSH1 0x1 PUSH1 0x1 PUSH1 0xA0 SHL SUB PUSH32 0x0 CALLER DUP3 DUP3 AND EQ DUP1 ISZERO PUSH2 0x1263 JUMPI JUMPDEST DUP1 ISZERO PUSH2 0x1238 JUMPI JUMPDEST PUSH2 0x1008 SWAP1 PUSH2 0x1951 JUMP JUMPDEST PUSH2 0x101B PUSH2 0x1013 PUSH2 0x1B1A JUMP JUMPDEST DUP2 SWAP3 SWAP2 PUSH2 0x198D JUMP JUMPDEST SWAP1 PUSH0 JUMPDEST PUSH1 0x5 SLOAD DUP2 LT ISZERO PUSH2 0xBCA JUMPI PUSH2 0x1031 DUP2 PUSH2 0x17D1 JUMP JUMPDEST POP PUSH1 0x4 DUP2 ADD DUP1 SLOAD PUSH1 0xFF DUP2 AND ISZERO DUP1 PUSH2 0x122A JUMPI JUMPDEST PUSH2 0x1059 JUMPI JUMPDEST POP POP POP PUSH2 0x1054 SWAP1 PUSH2 0x18FC JUMP JUMPDEST PUSH2 0x101E JUMP JUMPDEST SWAP1 PUSH1 0x1 DUP9 SWAP6 SWAP8 SWAP5 SWAP9 SWAP4 SWAP3 PUSH1 0xFF SWAP11 SWAP8 SWAP11 NOT AND OR SWAP1 SSTORE PUSH1 0x1 DUP2 ADD SLOAD DUP8 PUSH2 0x2710 DUP1 PUSH2 0x1081 DUP13 DUP6 PUSH2 0x1A7A JUMP JUMPDEST DIV SWAP1 PUSH2 0x1097 DUP11 PUSH2 0x1091 DUP5 DUP8 PUSH2 0x199A JUMP JUMPDEST SWAP6 PUSH2 0x1A7A JUMP JUMPDEST DIV PUSH2 0x10A2 DUP2 DUP4 PUSH2 0x199A JUMP JUMPDEST SWAP1 DUP1 PUSH2 0x11F7 JUMPI JUMPDEST POP DUP1 PUSH2 0x11C4 JUMPI JUMPDEST POP PUSH2 0x10E1 DUP4 DUP7 DUP7 SLOAD AND DUP8 PUSH32 0x0 AND PUSH2 0x1ACA JUMP JUMPDEST PUSH32 0x7B381718BEC1E0DBC1241809EE9B55F3D783B95880307F002707FAD981FA5069 PUSH1 0x40 DUP7 DUP7 SLOAD AND SWAP5 DUP6 SWAP4 DUP3 MLOAD SWAP2 DUP3 MSTORE PUSH1 0x20 DUP3 ADD MSTORE LOG3 PUSH0 MSTORE PUSH1 0x7 PUSH1 0x20 MSTORE PUSH2 0x112A DUP8 PUSH1 0x40 PUSH0 KECCAK256 PUSH2 0x19A7 JUMP JUMPDEST SLOAD AND PUSH0 MSTORE PUSH1 0x6 PUSH1 0x20 MSTORE PUSH1 0x40 PUSH0 KECCAK256 SWAP6 PUSH0 JUMPDEST DUP8 SLOAD DUP1 DUP3 LT ISZERO PUSH2 0x11B3 JUMPI DUP8 PUSH2 0x114F DUP4 DUP12 PUSH2 0x1708 JUMP JUMPDEST SWAP2 SWAP1 SLOAD PUSH1 0x3 SWAP3 DUP4 SHL SHR EQ PUSH2 0x116D JUMPI POP POP PUSH2 0x1168 SWAP1 PUSH2 0x18FC JUMP JUMPDEST PUSH2 0x113A JUMP JUMPDEST PUSH0 SWAP10 SWAP2 SWAP3 SWAP5 SWAP8 SWAP6 SWAP9 SWAP4 SWAP7 SWAP10 NOT DUP4 ADD SWAP3 DUP4 GT PUSH2 0xA46 JUMPI PUSH2 0x1054 SWAP5 PUSH2 0xA20 PUSH2 0x11A6 SWAP3 PUSH2 0x119A PUSH2 0x11AB SWAP7 DUP7 PUSH2 0x1708 JUMP JUMPDEST SWAP1 SLOAD SWAP2 SHL SHR SWAP2 DUP5 PUSH2 0x1708 JUMP JUMPDEST PUSH2 0x1A8D JUMP JUMPDEST SWAP1 DUP8 DUP1 PUSH2 0x1048 JUMP JUMPDEST POP POP SWAP3 SWAP6 POP SWAP3 SWAP1 SWAP4 PUSH2 0x1054 SWAP1 PUSH2 0x11AB JUMP JUMPDEST PUSH2 0x11F1 SWAP1 DUP10 DUP8 PUSH32 0x0 AND PUSH2 0x1ACA JUMP JUMPDEST DUP12 PUSH2 0x10B0 JUMP JUMPDEST PUSH2 0x1224 SWAP1 DUP9 DUP9 PUSH32 0x0 AND PUSH2 0x1ACA JUMP JUMPDEST DUP13 PUSH2 0x10A9 JUMP JUMPDEST POP PUSH1 0x3 DUP4 ADD SLOAD NUMBER LT ISZERO PUSH2 0x1043 JUMP JUMPDEST POP CALLER PUSH32 0x0 DUP4 AND EQ PUSH2 0xFFF JUMP JUMPDEST POP DUP2 PUSH2 0x126D PUSH2 0x185B JUMP JUMPDEST AND CALLER EQ PUSH2 0xFF8 JUMP JUMPDEST CALLVALUE PUSH2 0x190 JUMPI PUSH1 0x20 CALLDATASIZE PUSH1 0x3 NOT ADD SLT PUSH2 0x190 JUMPI PUSH1 0x4 CALLDATALOAD PUSH1 0x2 SLOAD DUP2 LT ISZERO PUSH2 0x190 JUMPI PUSH2 0x77E PUSH1 0x40 SWAP2 PUSH2 0x171D JUMP JUMPDEST CALLVALUE PUSH2 0x190 JUMPI PUSH0 CALLDATASIZE PUSH1 0x3 NOT ADD SLT PUSH2 0x190 JUMPI PUSH1 0x20 PUSH1 0x40 MLOAD PUSH32 0x0 DUP2 MSTORE RETURN JUMPDEST CALLVALUE PUSH2 0x190 JUMPI PUSH0 CALLDATASIZE PUSH1 0x3 NOT ADD SLT PUSH2 0x190 JUMPI PUSH1 0x20 PUSH1 0x1 SLOAD PUSH1 0x40 MLOAD SWAP1 DUP2 MSTORE RETURN JUMPDEST CALLVALUE PUSH2 0x190 JUMPI PUSH0 CALLDATASIZE PUSH1 0x3 NOT ADD SLT PUSH2 0x190 JUMPI PUSH1 0x20 PUSH1 0x4 SLOAD PUSH1 0xFF DUP2 AND SWAP1 DUP2 PUSH2 0x1320 JUMPI JUMPDEST POP PUSH1 0x40 MLOAD SWAP1 ISZERO ISZERO DUP2 MSTORE RETURN JUMPDEST PUSH1 0xFF SWAP2 POP PUSH1 0x8 SHR AND ISZERO DUP3 PUSH2 0x1315 JUMP JUMPDEST CALLVALUE PUSH2 0x190 JUMPI PUSH0 CALLDATASIZE PUSH1 0x3 NOT ADD SLT PUSH2 0x190 JUMPI PUSH2 0x1383 PUSH1 0x1 DUP1 PUSH1 0xA0 SHL SUB DUP1 PUSH32 0x0 AND CALLER EQ SWAP1 DUP2 ISZERO PUSH2 0x13E4 JUMPI JUMPDEST DUP2 ISZERO PUSH2 0x13B8 JUMPI JUMPDEST POP PUSH2 0x1951 JUMP JUMPDEST PUSH2 0x100 PUSH2 0xFFFF NOT PUSH1 0x4 SLOAD AND OR PUSH1 0x4 SSTORE PUSH32 0xDF23397AB444D891935A0B305B1552FB235D2BD07043FFC42C6ED3F43A4D8352 PUSH0 DUP1 LOG1 STOP JUMPDEST SWAP1 POP PUSH32 0x0 AND CALLER EQ DUP3 PUSH2 0x137D JUMP JUMPDEST DUP1 SWAP2 POP PUSH2 0x13EF PUSH2 0x185B JUMP JUMPDEST AND CALLER EQ SWAP1 PUSH2 0x1376 JUMP JUMPDEST CALLVALUE PUSH2 0x190 JUMPI PUSH1 0x20 CALLDATASIZE PUSH1 0x3 NOT ADD SLT PUSH2 0x190 JUMPI PUSH1 0x4 CALLDATALOAD PUSH1 0x1 SLOAD DUP2 LT ISZERO PUSH2 0x190 JUMPI PUSH2 0x71B PUSH1 0x20 SWAP2 PUSH2 0x16BF JUMP JUMPDEST CALLVALUE PUSH2 0x190 JUMPI PUSH0 CALLDATASIZE PUSH1 0x3 NOT ADD SLT PUSH2 0x190 JUMPI PUSH1 0x20 PUSH1 0x40 MLOAD PUSH32 0x0 DUP2 MSTORE RETURN JUMPDEST CALLVALUE PUSH2 0x190 JUMPI PUSH0 CALLDATASIZE PUSH1 0x3 NOT ADD SLT PUSH2 0x190 JUMPI PUSH1 0x20 PUSH1 0xFF PUSH1 0x4 SLOAD AND PUSH1 0x40 MLOAD SWAP1 ISZERO ISZERO DUP2 MSTORE RETURN JUMPDEST CALLVALUE PUSH2 0x190 JUMPI PUSH1 0x20 DUP1 PUSH1 0x3 NOT CALLDATASIZE ADD SLT PUSH2 0x190 JUMPI PUSH1 0x1 PUSH1 0x1 PUSH1 0xA0 SHL SUB SWAP1 DUP2 PUSH2 0x14A1 PUSH2 0x16A9 JUMP JUMPDEST AND DUP1 PUSH0 MSTORE PUSH1 0x6 DUP3 MSTORE PUSH1 0x40 PUSH0 KECCAK256 DUP5 DUP2 SLOAD SWAP2 DUP3 DUP3 MSTORE DUP5 DUP3 ADD SWAP1 PUSH0 MSTORE DUP5 PUSH0 KECCAK256 SWAP3 PUSH0 JUMPDEST DUP7 DUP3 DUP3 LT PUSH2 0x1693 JUMPI POP POP POP PUSH2 0x14D7 SWAP3 POP SUB DUP6 PUSH2 0x1839 JUMP JUMPDEST PUSH0 MSTORE PUSH1 0x7 DUP2 MSTORE PUSH1 0x40 PUSH0 KECCAK256 SWAP1 PUSH1 0x40 MLOAD DUP1 DUP4 DUP4 DUP3 SWAP6 SLOAD SWAP4 DUP5 DUP2 MSTORE ADD SWAP1 PUSH0 MSTORE DUP4 PUSH0 KECCAK256 SWAP3 PUSH0 JUMPDEST DUP6 DUP3 DUP3 LT PUSH2 0x167D JUMPI POP POP POP PUSH2 0x1510 SWAP3 POP SUB DUP4 PUSH2 0x1839 JUMP JUMPDEST PUSH2 0x151D DUP5 MLOAD DUP4 MLOAD SWAP1 PUSH2 0x198D JUMP JUMPDEST SWAP2 PUSH2 0x1527 DUP4 PUSH2 0x1DAC JUMP JUMPDEST SWAP3 PUSH2 0x1535 PUSH1 0x40 MLOAD SWAP5 DUP6 PUSH2 0x1839 JUMP JUMPDEST DUP1 DUP5 MSTORE PUSH2 0x1544 PUSH1 0x1F NOT SWAP2 PUSH2 0x1DAC JUMP JUMPDEST ADD DUP3 PUSH0 JUMPDEST DUP3 DUP2 LT PUSH2 0x1649 JUMPI POP POP POP PUSH0 JUMPDEST DUP6 MLOAD DUP2 LT ISZERO PUSH2 0x1591 JUMPI DUP1 PUSH2 0x1571 PUSH2 0xE28 PUSH2 0xE22 PUSH2 0x158C SWAP5 DUP11 PUSH2 0x1BFF JUMP JUMPDEST PUSH2 0x157B DUP3 DUP8 PUSH2 0x1BFF JUMP JUMPDEST MSTORE PUSH2 0x1586 DUP2 DUP7 PUSH2 0x1BFF JUMP JUMPDEST POP PUSH2 0x18FC JUMP JUMPDEST PUSH2 0x1554 JUMP JUMPDEST POP SWAP1 SWAP3 PUSH0 JUMPDEST DUP3 MLOAD DUP2 LT ISZERO PUSH2 0x15DE JUMPI DUP1 PUSH2 0x1586 PUSH2 0x15B3 PUSH2 0xE22 PUSH2 0x15D9 SWAP5 DUP8 PUSH2 0x1BFF JUMP JUMPDEST POP PUSH2 0x15C8 PUSH2 0x15C2 DUP5 DUP12 MLOAD PUSH2 0x198D JUMP JUMPDEST SWAP2 PUSH2 0x1C13 JUMP JUMPDEST PUSH2 0x15D2 DUP3 DUP10 PUSH2 0x1BFF JUMP JUMPDEST MSTORE DUP7 PUSH2 0x1BFF JUMP JUMPDEST PUSH2 0x1596 JUMP JUMPDEST POP DUP4 DUP4 PUSH1 0x40 MLOAD SWAP2 DUP1 DUP4 ADD DUP2 DUP5 MSTORE DUP3 MLOAD DUP1 SWAP2 MSTORE DUP2 PUSH1 0x40 DUP6 ADD SWAP4 ADD SWAP2 PUSH0 JUMPDEST DUP3 DUP2 LT PUSH2 0x1607 JUMPI DUP6 DUP6 SUB DUP7 RETURN JUMPDEST DUP4 MLOAD DUP1 MLOAD DUP9 AND DUP7 MSTORE DUP1 DUP4 ADD MLOAD DUP7 DUP5 ADD MSTORE PUSH1 0x40 DUP1 DUP3 ADD MLOAD SWAP1 DUP8 ADD MSTORE PUSH1 0x60 DUP1 DUP3 ADD MLOAD SWAP1 DUP8 ADD MSTORE PUSH1 0x80 SWAP1 DUP2 ADD MLOAD ISZERO ISZERO SWAP1 DUP7 ADD MSTORE PUSH1 0xA0 SWAP1 SWAP5 ADD SWAP4 SWAP3 DUP2 ADD SWAP3 PUSH1 0x1 ADD PUSH2 0x15FA JUMP JUMPDEST PUSH1 0x40 MLOAD PUSH2 0x1655 DUP2 PUSH2 0x1809 JUMP JUMPDEST PUSH0 DUP2 MSTORE PUSH0 DUP4 DUP3 ADD MSTORE PUSH0 PUSH1 0x40 DUP3 ADD MSTORE PUSH0 PUSH1 0x60 DUP3 ADD MSTORE PUSH0 PUSH1 0x80 DUP3 ADD MSTORE DUP3 DUP3 DUP9 ADD ADD MSTORE ADD DUP4 SWAP1 PUSH2 0x1548 JUMP JUMPDEST DUP6 SLOAD DUP5 MSTORE PUSH1 0x1 SWAP6 DUP7 ADD SWAP6 DUP9 SWAP6 POP SWAP4 ADD SWAP3 ADD PUSH2 0x14F9 JUMP JUMPDEST DUP6 SLOAD DUP5 MSTORE PUSH1 0x1 SWAP6 DUP7 ADD SWAP6 DUP11 SWAP6 POP SWAP4 ADD SWAP3 ADD PUSH2 0x14C0 JUMP JUMPDEST PUSH1 0x4 CALLDATALOAD SWAP1 PUSH1 0x1 PUSH1 0x1 PUSH1 0xA0 SHL SUB DUP3 AND DUP3 SUB PUSH2 0x190 JUMPI JUMP JUMPDEST PUSH1 0x1 SLOAD DUP2 LT ISZERO PUSH2 0x16F4 JUMPI PUSH1 0x1 PUSH0 MSTORE PUSH32 0xB10E2D527612073B26EECDFD717E6A320CF44B4AFAC2B0732D9FCBE2B7FA0CF6 ADD SWAP1 PUSH0 SWAP1 JUMP JUMPDEST PUSH4 0x4E487B71 PUSH1 0xE0 SHL PUSH0 MSTORE PUSH1 0x32 PUSH1 0x4 MSTORE PUSH1 0x24 PUSH0 REVERT JUMPDEST DUP1 SLOAD DUP3 LT ISZERO PUSH2 0x16F4 JUMPI PUSH0 MSTORE PUSH1 0x20 PUSH0 KECCAK256 ADD SWAP1 PUSH0 SWAP1 JUMP JUMPDEST PUSH1 0x2 SLOAD DUP2 LT ISZERO PUSH2 0x16F4 JUMPI PUSH1 0x2 PUSH0 MSTORE PUSH1 0x1 SHL PUSH32 0x405787FA12A823E0F2B7631CC41B3BA8828B3321CA811111FA75CD3AA3BB5ACE ADD SWAP1 PUSH0 SWAP1 JUMP JUMPDEST PUSH1 0x3 SLOAD DUP2 LT ISZERO PUSH2 0x16F4 JUMPI PUSH1 0x3 PUSH0 MSTORE PUSH1 0x1 SHL PUSH32 0xC2575A0E9E593C00F959F8C92F12DB2869C3395A3B0502D05E2516446F71F85B ADD SWAP1 PUSH0 SWAP1 JUMP JUMPDEST CALLVALUE PUSH2 0x190 JUMPI PUSH0 CALLDATASIZE PUSH1 0x3 NOT ADD SLT PUSH2 0x190 JUMPI PUSH1 0x40 MLOAD PUSH32 0x0 PUSH1 0x1 PUSH1 0x1 PUSH1 0xA0 SHL SUB AND DUP2 MSTORE PUSH1 0x20 SWAP1 RETURN JUMPDEST PUSH1 0x5 SLOAD DUP2 LT ISZERO PUSH2 0x16F4 JUMPI PUSH1 0x5 SWAP1 DUP2 PUSH0 MSTORE MUL PUSH32 0x36B6384B5ECA791C62761152D0C79BB0604C104A5FB6F4EB0703F3154BB3DB0 ADD SWAP1 PUSH0 SWAP1 JUMP JUMPDEST PUSH1 0xA0 DUP2 ADD SWAP1 DUP2 LT PUSH8 0xFFFFFFFFFFFFFFFF DUP3 GT OR PUSH2 0x1825 JUMPI PUSH1 0x40 MSTORE JUMP JUMPDEST PUSH4 0x4E487B71 PUSH1 0xE0 SHL PUSH0 MSTORE PUSH1 0x41 PUSH1 0x4 MSTORE PUSH1 0x24 PUSH0 REVERT JUMPDEST SWAP1 PUSH1 0x1F DUP1 NOT SWAP2 ADD AND DUP2 ADD SWAP1 DUP2 LT PUSH8 0xFFFFFFFFFFFFFFFF DUP3 GT OR PUSH2 0x1825 JUMPI PUSH1 0x40 MSTORE JUMP JUMPDEST PUSH1 0x40 MLOAD PUSH4 0x7CC70035 PUSH1 0xE1 SHL DUP2 MSTORE PUSH1 0x1 PUSH1 0x1 PUSH1 0xA0 SHL SUB SWAP1 PUSH1 0x20 DUP2 PUSH1 0x4 DUP2 PUSH32 0x0 DUP7 AND GAS STATICCALL SWAP1 DUP2 ISZERO PUSH2 0x18F1 JUMPI PUSH0 SWAP2 PUSH2 0x18B0 JUMPI JUMPDEST POP SWAP1 POP SWAP1 JUMP JUMPDEST PUSH1 0x20 DUP2 RETURNDATASIZE DUP3 GT PUSH2 0x18E9 JUMPI JUMPDEST DUP2 PUSH2 0x18C8 PUSH1 0x20 SWAP4 DUP4 PUSH2 0x1839 JUMP JUMPDEST DUP2 ADD SUB SLT PUSH2 0x18E5 JUMPI MLOAD SWAP2 DUP3 AND DUP3 SUB PUSH2 0x18E2 JUMPI POP DUP1 PUSH0 PUSH2 0x18AA JUMP JUMPDEST DUP1 REVERT JUMPDEST POP DUP1 REVERT JUMPDEST RETURNDATASIZE SWAP2 POP PUSH2 0x18BB JUMP JUMPDEST PUSH1 0x40 MLOAD RETURNDATASIZE PUSH0 DUP3 RETURNDATACOPY RETURNDATASIZE SWAP1 REVERT JUMPDEST PUSH0 NOT DUP2 EQ PUSH2 0xA46 JUMPI PUSH1 0x1 ADD SWAP1 JUMP JUMPDEST PUSH1 0x1 DUP1 SLOAD SWAP2 DUP3 ISZERO PUSH2 0x18AA JUMPI PUSH0 JUMPDEST DUP4 DUP2 LT PUSH2 0x1926 JUMPI POP POP POP POP PUSH0 SWAP1 JUMP JUMPDEST DUP2 PUSH2 0x1930 DUP3 PUSH2 0x16BF JUMP JUMPDEST SWAP1 SLOAD SWAP1 PUSH1 0x3 SHL SHR EQ PUSH2 0x194A JUMPI PUSH2 0x1945 SWAP1 PUSH2 0x18FC JUMP JUMPDEST PUSH2 0x1917 JUMP JUMPDEST POP POP SWAP1 POP SWAP1 JUMP JUMPDEST ISZERO PUSH2 0x1958 JUMPI JUMP JUMPDEST PUSH1 0x40 MLOAD PUSH3 0x461BCD PUSH1 0xE5 SHL DUP2 MSTORE PUSH1 0x20 PUSH1 0x4 DUP3 ADD MSTORE PUSH1 0xD PUSH1 0x24 DUP3 ADD MSTORE PUSH13 0x1BDB9B1E481C1C9BDD1BD8DBDB PUSH1 0x9A SHL PUSH1 0x44 DUP3 ADD MSTORE PUSH1 0x64 SWAP1 REVERT JUMPDEST SWAP2 SWAP1 DUP3 ADD DUP1 SWAP3 GT PUSH2 0xA46 JUMPI JUMP JUMPDEST SWAP2 SWAP1 DUP3 SUB SWAP2 DUP3 GT PUSH2 0xA46 JUMPI JUMP JUMPDEST SWAP1 DUP2 SLOAD SWAP2 PUSH1 0x1 PUSH1 0x40 SHL DUP4 LT ISZERO PUSH2 0x1825 JUMPI DUP3 PUSH2 0xA20 SWAP2 PUSH1 0x1 PUSH2 0x19CA SWAP6 ADD DUP2 SSTORE PUSH2 0x1708 JUMP JUMPDEST JUMP JUMPDEST PUSH1 0x2 PUSH0 SLOAD EQ PUSH2 0x19DB JUMPI PUSH1 0x2 PUSH0 SSTORE JUMP JUMPDEST PUSH1 0x40 MLOAD PUSH3 0x461BCD PUSH1 0xE5 SHL DUP2 MSTORE PUSH1 0x20 PUSH1 0x4 DUP3 ADD MSTORE PUSH1 0x1F PUSH1 0x24 DUP3 ADD MSTORE PUSH32 0x5265656E7472616E637947756172643A207265656E7472616E742063616C6C00 PUSH1 0x44 DUP3 ADD MSTORE PUSH1 0x64 SWAP1 REVERT JUMPDEST SWAP1 PUSH0 PUSH1 0x20 SWAP2 DUP3 DUP2 MLOAD SWAP2 ADD DUP3 DUP6 GAS CALL ISZERO PUSH2 0x18F1 JUMPI PUSH0 MLOAD RETURNDATASIZE PUSH2 0x1A71 JUMPI POP PUSH1 0x1 PUSH1 0x1 PUSH1 0xA0 SHL SUB DUP2 AND EXTCODESIZE ISZERO JUMPDEST PUSH2 0x1A4F JUMPI POP JUMP JUMPDEST PUSH1 0x40 MLOAD PUSH4 0x5274AFE7 PUSH1 0xE0 SHL DUP2 MSTORE PUSH1 0x1 PUSH1 0x1 PUSH1 0xA0 SHL SUB SWAP1 SWAP2 AND PUSH1 0x4 DUP3 ADD MSTORE PUSH1 0x24 SWAP1 REVERT JUMPDEST PUSH1 0x1 EQ ISZERO PUSH2 0x1A48 JUMP JUMPDEST DUP2 DUP2 MUL SWAP3 SWAP2 DUP2 ISZERO SWAP2 DUP5 DIV EQ OR ISZERO PUSH2 0xA46 JUMPI JUMP JUMPDEST DUP1 SLOAD SWAP1 DUP2 ISZERO PUSH2 0x1AB6 JUMPI PUSH0 NOT SWAP2 DUP3 ADD SWAP2 PUSH2 0x1AA6 DUP4 DUP4 PUSH2 0x1708 JUMP JUMPDEST SWAP1 SWAP2 DUP3 SLOAD SWAP2 PUSH1 0x3 SHL SHL NOT AND SWAP1 SSTORE SSTORE JUMP JUMPDEST PUSH4 0x4E487B71 PUSH1 0xE0 SHL PUSH0 MSTORE PUSH1 0x31 PUSH1 0x4 MSTORE PUSH1 0x24 PUSH0 REVERT JUMPDEST PUSH1 0x40 MLOAD PUSH4 0xA9059CBB PUSH1 0xE0 SHL PUSH1 0x20 DUP3 ADD MSTORE PUSH1 0x1 PUSH1 0x1 PUSH1 0xA0 SHL SUB SWAP1 SWAP3 AND PUSH1 0x24 DUP4 ADD MSTORE PUSH1 0x44 DUP1 DUP4 ADD SWAP4 SWAP1 SWAP4 MSTORE SWAP2 DUP2 MSTORE PUSH1 0x80 DUP2 ADD SWAP2 PUSH8 0xFFFFFFFFFFFFFFFF DUP4 GT DUP3 DUP5 LT OR PUSH2 0x1825 JUMPI PUSH2 0x19CA SWAP3 PUSH1 0x40 MSTORE PUSH2 0x1A20 JUMP JUMPDEST PUSH1 0x40 MLOAD PUSH4 0x18BF7417 PUSH1 0xE3 SHL DUP2 MSTORE PUSH1 0x20 SWAP2 SWAP1 PUSH32 0x0 PUSH1 0x1 PUSH1 0x1 PUSH1 0xA0 SHL SUB AND SWAP1 DUP4 DUP2 PUSH1 0x4 DUP2 DUP6 GAS STATICCALL SWAP2 DUP3 ISZERO PUSH2 0x18F1 JUMPI DUP5 SWAP2 PUSH0 SWAP4 PUSH2 0x1BCC JUMPI JUMPDEST POP PUSH1 0x40 MLOAD PUSH4 0xF25E78B1 PUSH1 0xE0 SHL DUP2 MSTORE SWAP2 SWAP1 DUP3 SWAP1 PUSH1 0x4 SWAP1 DUP3 SWAP1 GAS STATICCALL SWAP4 DUP5 ISZERO PUSH2 0x18F1 JUMPI PUSH0 SWAP5 PUSH2 0x1B9B JUMPI JUMPDEST POP POP SWAP2 SWAP1 JUMP JUMPDEST DUP2 DUP2 SWAP6 SWAP3 SWAP4 SWAP6 RETURNDATASIZE DUP4 GT PUSH2 0x1BC5 JUMPI JUMPDEST PUSH2 0x1BB3 DUP2 DUP4 PUSH2 0x1839 JUMP JUMPDEST DUP2 ADD SUB SLT PUSH2 0x18E2 JUMPI POP MLOAD SWAP2 PUSH0 DUP1 PUSH2 0x1B95 JUMP JUMPDEST POP RETURNDATASIZE PUSH2 0x1BA9 JUMP JUMPDEST SWAP2 DUP3 DUP2 SWAP5 SWAP3 SWAP5 RETURNDATASIZE DUP4 GT PUSH2 0x1BF8 JUMPI JUMPDEST PUSH2 0x1BE4 DUP2 DUP4 PUSH2 0x1839 JUMP JUMPDEST DUP2 ADD SUB SLT PUSH2 0x18E2 JUMPI POP MLOAD SWAP1 DUP4 SWAP1 PUSH1 0x4 PUSH2 0x1B6E JUMP JUMPDEST POP RETURNDATASIZE PUSH2 0x1BDA JUMP JUMPDEST DUP1 MLOAD DUP3 LT ISZERO PUSH2 0x16F4 JUMPI PUSH1 0x20 SWAP2 PUSH1 0x5 SHL ADD ADD SWAP1 JUMP JUMPDEST SWAP1 PUSH1 0x40 MLOAD PUSH2 0x1C20 DUP2 PUSH2 0x1809 JUMP JUMPDEST DUP3 SLOAD PUSH1 0x1 PUSH1 0x1 PUSH1 0xA0 SHL SUB AND DUP2 MSTORE PUSH1 0x1 DUP4 ADD SLOAD PUSH1 0x20 DUP3 ADD MSTORE PUSH1 0x2 DUP4 ADD SLOAD PUSH1 0x40 DUP3 ADD MSTORE PUSH1 0x3 DUP4 ADD SLOAD PUSH1 0x60 DUP3 ADD MSTORE PUSH1 0x4 SWAP1 SWAP3 ADD SLOAD PUSH1 0xFF AND ISZERO ISZERO PUSH1 0x80 DUP4 ADD MSTORE JUMP JUMPDEST SWAP1 PUSH32 0x0 PUSH0 DUP1 DUP3 SLT PUSH2 0x1D5D JUMPI POP PUSH2 0x1C95 PUSH2 0x1C9A SWAP3 DUP5 PUSH2 0x1A7A JUMP JUMPDEST PUSH2 0x1A7A JUMP JUMPDEST SWAP1 SWAP2 JUMPDEST PUSH2 0x2710 SWAP1 PUSH0 PUSH1 0x2 SLOAD SWAP2 JUMPDEST DUP3 DUP3 LT PUSH2 0x1D1C JUMPI JUMPDEST POP POP POP PUSH2 0x2710 SWAP1 PUSH0 PUSH1 0x3 SLOAD SWAP5 JUMPDEST DUP6 DUP3 LT PUSH2 0x1CE5 JUMPI JUMPDEST POP POP PUSH2 0x2710 SWAP4 POP PUSH2 0x1CDA PUSH2 0x1CE1 SWAP4 SWAP3 DUP6 SWAP3 PUSH2 0x1A7A JUMP JUMPDEST DIV SWAP1 PUSH2 0x1A7A JUMP JUMPDEST DIV SWAP1 JUMP JUMPDEST SWAP1 SWAP3 PUSH2 0x1CF0 DUP5 PUSH2 0x1755 JUMP JUMPDEST POP SLOAD DUP3 LT PUSH2 0x1D16 JUMPI POP PUSH2 0x1D10 PUSH1 0x1 PUSH2 0x1D07 DUP6 PUSH2 0x1755 JUMP JUMPDEST POP ADD SLOAD SWAP4 PUSH2 0x18FC JUMP JUMPDEST SWAP1 PUSH2 0x1CBC JUMP JUMPDEST SWAP3 PUSH2 0x1CC4 JUMP JUMPDEST SWAP1 SWAP2 SWAP5 SWAP4 SWAP3 PUSH2 0x1D2A DUP4 PUSH2 0x171D JUMP JUMPDEST POP SLOAD DUP3 LT PUSH2 0x1D55 JUMPI POP PUSH2 0x1D4A PUSH1 0x1 PUSH2 0x1D41 DUP5 PUSH2 0x171D JUMP JUMPDEST POP ADD SLOAD SWAP3 PUSH2 0x18FC JUMP JUMPDEST SWAP1 SWAP5 SWAP2 SWAP3 SWAP4 SWAP5 PUSH2 0x1CA7 JUMP JUMPDEST SWAP3 SWAP4 SWAP5 PUSH2 0x1CAF JUMP JUMPDEST SWAP2 PUSH1 0x1 PUSH1 0xFF SHL DUP3 EQ PUSH2 0x1D98 JUMPI PUSH2 0x1D73 SWAP1 DUP5 PUSH2 0x1A7A JUMP JUMPDEST SWAP2 DUP2 ISZERO PUSH2 0x1D84 JUMPI SUB SWAP1 DIV SWAP1 SWAP2 PUSH2 0x1C9D JUMP JUMPDEST PUSH4 0x4E487B71 PUSH1 0xE0 SHL DUP2 MSTORE PUSH1 0x12 PUSH1 0x4 MSTORE PUSH1 0x24 SWAP1 REVERT JUMPDEST PUSH4 0x4E487B71 PUSH1 0xE0 SHL DUP4 MSTORE PUSH1 0x11 PUSH1 0x4 MSTORE PUSH1 0x24 DUP4 REVERT JUMPDEST PUSH8 0xFFFFFFFFFFFFFFFF DUP2 GT PUSH2 0x1825 JUMPI PUSH1 0x5 SHL PUSH1 0x20 ADD SWAP1 JUMP INVALID LOG2 PUSH5 0x6970667358 0x22 SLT KECCAK256 0xA6 0xD2 0xCD 0xF6 0xC8 0xBA DUP6 PUSH2 0x4B82 PUSH20 0xFC18CBC5B83187D929295D147081C71AD226A74 0x2A PUSH5 0x736F6C6343 STOP ADDMOD EQ STOP CALLER LOG2 PUSH5 0x6970667358 0x22 SLT KECCAK256 0xEE PUSH13 0xF9F0B8B1FACD19E7DB0947CC84 0xE 0xAC 0x5C 0xE9 0x23 DUP6 PUSH18 0x1E7E2E164E0AE0A8B0C64736F6C63430008 EQ STOP CALLER "
		},
		"gasEstimates": {
			"creation": {
				"codeDepositCost": "2603200",
				"executionCost": "infinite",
				"totalCost": "infinite"
			},
			"external": {
				"allVaults(uint256)": "6661",
				"approvedRouter()": "2515",
				"callerFeeBP()": "2474",
				"closeVault(address)": "infinite",
				"createVault(address,uint256,uint256,int256,uint256[],(uint256,uint256)[],(uint256,uint256)[])": "infinite",
				"getAllVaults()": "infinite",
				"getVaultByToken(address)": "2549",
				"getVaultsPaginated(uint256,uint256)": "infinite",
				"protocol()": "2319",
				"protocolFeeBP()": "2430",
				"setApprovedRouter(address)": "26729",
				"setFees(uint256,uint256)": "48794"
			}
		},
		"methodIdentifiers": {
			"allVaults(uint256)": "9094a91e",
			"approvedRouter()": "f98e006a",
			"callerFeeBP()": "f25e78b1",
			"closeVault(address)": "c99cb2b7",
			"createVault(address,uint256,uint256,int256,uint256[],(uint256,uint256)[],(uint256,uint256)[])": "a444477b",
			"getAllVaults()": "97331bf9",
			"getVaultByToken(address)": "b1e3a941",
			"getVaultsPaginated(uint256,uint256)": "0e5dee45",
			"protocol()": "8ce74426",
			"protocolFeeBP()": "c5fba0b8",
			"setApprovedRouter(address)": "c5c2853d",
			"setFees(uint256,uint256)": "0b78f9c0"
		}
	},
	"abi": [
		{
			"inputs": [
				{
					"internalType": "address",
					"name": "_protocol",
					"type": "address"
				}
			],
			"stateMutability": "nonpayable",
			"type": "constructor"
		},
		{
			"anonymous": false,
			"inputs": [
				{
					"indexed": true,
					"internalType": "address",
					"name": "vault",
					"type": "address"
				}
			],
			"name": "VaultClosedByFactory",
			"type": "event"
		},
		{
			"anonymous": false,
			"inputs": [
				{
					"indexed": true,
					"internalType": "address",
					"name": "token",
					"type": "address"
				},
				{
					"indexed": false,
					"internalType": "address",
					"name": "vault",
					"type": "address"
				}
			],
			"name": "VaultCreated",
			"type": "event"
		},
		{
			"inputs": [
				{
					"internalType": "uint256",
					"name": "",
					"type": "uint256"
				}
			],
			"name": "allVaults",
			"outputs": [
				{
					"internalType": "address",
					"name": "",
					"type": "address"
				}
			],
			"stateMutability": "view",
			"type": "function"
		},
		{
			"inputs": [],
			"name": "approvedRouter",
			"outputs": [
				{
					"internalType": "address",
					"name": "",
					"type": "address"
				}
			],
			"stateMutability": "view",
			"type": "function"
		},
		{
			"inputs": [],
			"name": "callerFeeBP",
			"outputs": [
				{
					"internalType": "uint256",
					"name": "",
					"type": "uint256"
				}
			],
			"stateMutability": "view",
			"type": "function"
		},
		{
			"inputs": [
				{
					"internalType": "address",
					"name": "vaultAddr",
					"type": "address"
				}
			],
			"name": "closeVault",
			"outputs": [],
			"stateMutability": "nonpayable",
			"type": "function"
		},
		{
			"inputs": [
				{
					"internalType": "address",
					"name": "token",
					"type": "address"
				},
				{
					"internalType": "uint256",
					"name": "minDeposit",
					"type": "uint256"
				},
				{
					"internalType": "uint256",
					"name": "maxDeposit",
					"type": "uint256"
				},
				{
					"internalType": "int256",
					"name": "xpRate",
					"type": "int256"
				},
				{
					"internalType": "uint256[]",
					"name": "presetTimes",
					"type": "uint256[]"
				},
				{
					"components": [
						{
							"internalType": "uint256",
							"name": "minBlocks",
							"type": "uint256"
						},
						{
							"internalType": "uint256",
							"name": "multiplierBP",
							"type": "uint256"
						}
					],
					"internalType": "struct YunaVaultFactory.TimeMultiplierIn[]",
					"name": "timeMultipliers",
					"type": "tuple[]"
				},
				{
					"components": [
						{
							"internalType": "uint256",
							"name": "minAmount",
							"type": "uint256"
						},
						{
							"internalType": "uint256",
							"name": "multiplierBP",
							"type": "uint256"
						}
					],
					"internalType": "struct YunaVaultFactory.AmountMultiplierIn[]",
					"name": "amountMultipliers",
					"type": "tuple[]"
				}
			],
			"name": "createVault",
			"outputs": [
				{
					"internalType": "address",
					"name": "vaultAddr",
					"type": "address"
				}
			],
			"stateMutability": "nonpayable",
			"type": "function"
		},
		{
			"inputs": [],
			"name": "getAllVaults",
			"outputs": [
				{
					"internalType": "address[]",
					"name": "",
					"type": "address[]"
				}
			],
			"stateMutability": "view",
			"type": "function"
		},
		{
			"inputs": [
				{
					"internalType": "address",
					"name": "token",
					"type": "address"
				}
			],
			"name": "getVaultByToken",
			"outputs": [
				{
					"internalType": "address",
					"name": "",
					"type": "address"
				}
			],
			"stateMutability": "view",
			"type": "function"
		},
		{
			"inputs": [
				{
					"internalType": "uint256",
					"name": "offset",
					"type": "uint256"
				},
				{
					"internalType": "uint256",
					"name": "limit",
					"type": "uint256"
				}
			],
			"name": "getVaultsPaginated",
			"outputs": [
				{
					"internalType": "address[]",
					"name": "page",
					"type": "address[]"
				}
			],
			"stateMutability": "view",
			"type": "function"
		},
		{
			"inputs": [],
			"name": "protocol",
			"outputs": [
				{
					"internalType": "address",
					"name": "",
					"type": "address"
				}
			],
			"stateMutability": "view",
			"type": "function"
		},
		{
			"inputs": [],
			"name": "protocolFeeBP",
			"outputs": [
				{
					"internalType": "uint256",
					"name": "",
					"type": "uint256"
				}
			],
			"stateMutability": "view",
			"type": "function"
		},
		{
			"inputs": [
				{
					"internalType": "address",
					"name": "_router",
					"type": "address"
				}
			],
			"name": "setApprovedRouter",
			"outputs": [],
			"stateMutability": "nonpayable",
			"type": "function"
		},
		{
			"inputs": [
				{
					"internalType": "uint256",
					"name": "_protocolFeeBP",
					"type": "uint256"
				},
				{
					"internalType": "uint256",
					"name": "_callerFeeBP",
					"type": "uint256"
				}
			],
			"name": "setFees",
			"outputs": [],
			"stateMutability": "nonpayable",
			"type": "function"
		}
	]
}